{
	"Kyc.sol": {
		"KYC": {
			"abi": [
				{
					"anonymous": false,
					"inputs": [
						{
							"indexed": true,
							"internalType": "address",
							"name": "user",
							"type": "address"
						},
						{
							"indexed": false,
							"internalType": "string",
							"name": "firstName",
							"type": "string"
						},
						{
							"indexed": false,
							"internalType": "string",
							"name": "lastName",
							"type": "string"
						}
					],
					"name": "KYCVerified",
					"type": "event"
				},
				{
					"anonymous": false,
					"inputs": [
						{
							"indexed": true,
							"internalType": "address",
							"name": "previousOwner",
							"type": "address"
						},
						{
							"indexed": true,
							"internalType": "address",
							"name": "newOwner",
							"type": "address"
						}
					],
					"name": "OwnershipTransferred",
					"type": "event"
				},
				{
					"inputs": [
						{
							"internalType": "address",
							"name": "userAddress",
							"type": "address"
						}
					],
					"name": "getKYCData",
					"outputs": [
						{
							"internalType": "bool",
							"name": "isVerified",
							"type": "bool"
						},
						{
							"internalType": "string",
							"name": "firstName",
							"type": "string"
						},
						{
							"internalType": "string",
							"name": "lastName",
							"type": "string"
						},
						{
							"internalType": "string",
							"name": "documentHash",
							"type": "string"
						}
					],
					"stateMutability": "view",
					"type": "function"
				},
				{
					"inputs": [
						{
							"internalType": "address",
							"name": "",
							"type": "address"
						}
					],
					"name": "kycRecords",
					"outputs": [
						{
							"internalType": "bool",
							"name": "isVerified",
							"type": "bool"
						},
						{
							"internalType": "string",
							"name": "firstName",
							"type": "string"
						},
						{
							"internalType": "string",
							"name": "lastName",
							"type": "string"
						},
						{
							"internalType": "string",
							"name": "documentHash",
							"type": "string"
						}
					],
					"stateMutability": "view",
					"type": "function"
				},
				{
					"inputs": [],
					"name": "owner",
					"outputs": [
						{
							"internalType": "address",
							"name": "",
							"type": "address"
						}
					],
					"stateMutability": "view",
					"type": "function"
				},
				{
					"inputs": [],
					"name": "renounceOwnership",
					"outputs": [],
					"stateMutability": "nonpayable",
					"type": "function"
				},
				{
					"inputs": [
						{
							"internalType": "address",
							"name": "userAddress",
							"type": "address"
						},
						{
							"internalType": "bool",
							"name": "isVerified",
							"type": "bool"
						},
						{
							"internalType": "string",
							"name": "firstName",
							"type": "string"
						},
						{
							"internalType": "string",
							"name": "lastName",
							"type": "string"
						},
						{
							"internalType": "string",
							"name": "documentHash",
							"type": "string"
						}
					],
					"name": "setKYCData",
					"outputs": [],
					"stateMutability": "nonpayable",
					"type": "function"
				},
				{
					"inputs": [
						{
							"internalType": "address",
							"name": "newOwner",
							"type": "address"
						}
					],
					"name": "transferOwnership",
					"outputs": [],
					"stateMutability": "nonpayable",
					"type": "function"
				},
				{
					"inputs": [
						{
							"internalType": "address",
							"name": "userAddress",
							"type": "address"
						}
					],
					"name": "verifyKYC",
					"outputs": [
						{
							"internalType": "bool",
							"name": "",
							"type": "bool"
						}
					],
					"stateMutability": "view",
					"type": "function"
				}
			],
			"devdoc": {
				"kind": "dev",
				"methods": {
					"owner()": {
						"details": "Returns the address of the current owner."
					},
					"renounceOwnership()": {
						"details": "Leaves the contract without owner. It will not be possible to call `onlyOwner` functions. Can only be called by the current owner. NOTE: Renouncing ownership will leave the contract without an owner, thereby disabling any functionality that is only available to the owner."
					},
					"transferOwnership(address)": {
						"details": "Transfers ownership of the contract to a new account (`newOwner`). Can only be called by the current owner."
					}
				},
				"version": 1
			},
			"evm": {
				"assembly": "    /* \"Kyc.sol\":164:1689  contract KYC is Ownable {... */\n  mstore(0x40, 0x80)\n  callvalue\n  dup1\n  iszero\n  tag_1\n  jumpi\n  0x00\n  dup1\n  revert\ntag_1:\n  pop\n    /* \"@openzeppelin/contracts/access/Ownable.sol\":936:968  _transferOwnership(_msgSender()) */\n  tag_4\n    /* \"@openzeppelin/contracts/access/Ownable.sol\":955:967  _msgSender() */\n  tag_5\n    /* \"@openzeppelin/contracts/access/Ownable.sol\":955:965  _msgSender */\n  shl(0x20, tag_6)\n    /* \"@openzeppelin/contracts/access/Ownable.sol\":955:967  _msgSender() */\n  0x20\n  shr\n  jump\t// in\ntag_5:\n    /* \"@openzeppelin/contracts/access/Ownable.sol\":936:954  _transferOwnership */\n  shl(0x20, tag_7)\n    /* \"@openzeppelin/contracts/access/Ownable.sol\":936:968  _transferOwnership(_msgSender()) */\n  0x20\n  shr\n  jump\t// in\ntag_4:\n    /* \"Kyc.sol\":164:1689  contract KYC is Ownable {... */\n  jump(tag_8)\n    /* \"@openzeppelin/contracts/utils/Context.sol\":640:736  function _msgSender() internal view virtual returns (address) {... */\ntag_6:\n    /* \"@openzeppelin/contracts/utils/Context.sol\":693:700  address */\n  0x00\n    /* \"@openzeppelin/contracts/utils/Context.sol\":719:729  msg.sender */\n  caller\n    /* \"@openzeppelin/contracts/utils/Context.sol\":712:729  return msg.sender */\n  swap1\n  pop\n    /* \"@openzeppelin/contracts/utils/Context.sol\":640:736  function _msgSender() internal view virtual returns (address) {... */\n  swap1\n  jump\t// out\n    /* \"@openzeppelin/contracts/access/Ownable.sol\":2426:2613  function _transferOwnership(address newOwner) internal virtual {... */\ntag_7:\n    /* \"@openzeppelin/contracts/access/Ownable.sol\":2499:2515  address oldOwner */\n  0x00\n    /* \"@openzeppelin/contracts/access/Ownable.sol\":2518:2524  _owner */\n  dup1\n  0x00\n  swap1\n  sload\n  swap1\n  0x0100\n  exp\n  swap1\n  div\n  0xffffffffffffffffffffffffffffffffffffffff\n  and\n    /* \"@openzeppelin/contracts/access/Ownable.sol\":2499:2524  address oldOwner = _owner */\n  swap1\n  pop\n    /* \"@openzeppelin/contracts/access/Ownable.sol\":2543:2551  newOwner */\n  dup2\n    /* \"@openzeppelin/contracts/access/Ownable.sol\":2534:2540  _owner */\n  0x00\n  dup1\n    /* \"@openzeppelin/contracts/access/Ownable.sol\":2534:2551  _owner = newOwner */\n  0x0100\n  exp\n  dup2\n  sload\n  dup2\n  0xffffffffffffffffffffffffffffffffffffffff\n  mul\n  not\n  and\n  swap1\n  dup4\n  0xffffffffffffffffffffffffffffffffffffffff\n  and\n  mul\n  or\n  swap1\n  sstore\n  pop\n    /* \"@openzeppelin/contracts/access/Ownable.sol\":2597:2605  newOwner */\n  dup2\n    /* \"@openzeppelin/contracts/access/Ownable.sol\":2566:2606  OwnershipTransferred(oldOwner, newOwner) */\n  0xffffffffffffffffffffffffffffffffffffffff\n  and\n    /* \"@openzeppelin/contracts/access/Ownable.sol\":2587:2595  oldOwner */\n  dup2\n    /* \"@openzeppelin/contracts/access/Ownable.sol\":2566:2606  OwnershipTransferred(oldOwner, newOwner) */\n  0xffffffffffffffffffffffffffffffffffffffff\n  and\n  0x8be0079c531659141344cd1fd0a4f28419497f9722a3daafe3b4186f6b6457e0\n  mload(0x40)\n  mload(0x40)\n  dup1\n  swap2\n  sub\n  swap1\n  log3\n    /* \"@openzeppelin/contracts/access/Ownable.sol\":2489:2613  {... */\n  pop\n    /* \"@openzeppelin/contracts/access/Ownable.sol\":2426:2613  function _transferOwnership(address newOwner) internal virtual {... */\n  pop\n  jump\t// out\n    /* \"Kyc.sol\":164:1689  contract KYC is Ownable {... */\ntag_8:\n  dataSize(sub_0)\n  dup1\n  dataOffset(sub_0)\n  0x00\n  codecopy\n  0x00\n  return\nstop\n\nsub_0: assembly {\n        /* \"Kyc.sol\":164:1689  contract KYC is Ownable {... */\n      mstore(0x40, 0x80)\n      callvalue\n      dup1\n      iszero\n      tag_1\n      jumpi\n      0x00\n      dup1\n      revert\n    tag_1:\n      pop\n      jumpi(tag_2, lt(calldatasize, 0x04))\n      shr(0xe0, calldataload(0x00))\n      dup1\n      0x8da5cb5b\n      gt\n      tag_10\n      jumpi\n      dup1\n      0x8da5cb5b\n      eq\n      tag_6\n      jumpi\n      dup1\n      0xab47a2f9\n      eq\n      tag_7\n      jumpi\n      dup1\n      0xf1520abd\n      eq\n      tag_8\n      jumpi\n      dup1\n      0xf2fde38b\n      eq\n      tag_9\n      jumpi\n      jump(tag_2)\n    tag_10:\n      dup1\n      0x38d16011\n      eq\n      tag_3\n      jumpi\n      dup1\n      0x715018a6\n      eq\n      tag_4\n      jumpi\n      dup1\n      0x7eb606e8\n      eq\n      tag_5\n      jumpi\n    tag_2:\n      0x00\n      dup1\n      revert\n        /* \"Kyc.sol\":1107:1236  function verifyKYC(address userAddress) external view returns (bool) {... */\n    tag_3:\n      tag_11\n      0x04\n      dup1\n      calldatasize\n      sub\n      dup2\n      add\n      swap1\n      tag_12\n      swap2\n      swap1\n      tag_13\n      jump\t// in\n    tag_12:\n      tag_14\n      jump\t// in\n    tag_11:\n      mload(0x40)\n      tag_15\n      swap2\n      swap1\n      tag_16\n      jump\t// in\n    tag_15:\n      mload(0x40)\n      dup1\n      swap2\n      sub\n      swap1\n      return\n        /* \"@openzeppelin/contracts/access/Ownable.sol\":1824:1925  function renounceOwnership() public virtual onlyOwner {... */\n    tag_4:\n      tag_17\n      tag_18\n      jump\t// in\n    tag_17:\n      stop\n        /* \"Kyc.sol\":477:522  mapping(address => KYCData) public kycRecords */\n    tag_5:\n      tag_19\n      0x04\n      dup1\n      calldatasize\n      sub\n      dup2\n      add\n      swap1\n      tag_20\n      swap2\n      swap1\n      tag_13\n      jump\t// in\n    tag_20:\n      tag_21\n      jump\t// in\n    tag_19:\n      mload(0x40)\n      tag_22\n      swap5\n      swap4\n      swap3\n      swap2\n      swap1\n      tag_23\n      jump\t// in\n    tag_22:\n      mload(0x40)\n      dup1\n      swap2\n      sub\n      swap1\n      return\n        /* \"@openzeppelin/contracts/access/Ownable.sol\":1201:1286  function owner() public view virtual returns (address) {... */\n    tag_6:\n      tag_24\n      tag_25\n      jump\t// in\n    tag_24:\n      mload(0x40)\n      tag_26\n      swap2\n      swap1\n      tag_27\n      jump\t// in\n    tag_26:\n      mload(0x40)\n      dup1\n      swap2\n      sub\n      swap1\n      return\n        /* \"Kyc.sol\":1288:1686  function getKYCData(address userAddress)... */\n    tag_7:\n      tag_28\n      0x04\n      dup1\n      calldatasize\n      sub\n      dup2\n      add\n      swap1\n      tag_29\n      swap2\n      swap1\n      tag_13\n      jump\t// in\n    tag_29:\n      tag_30\n      jump\t// in\n    tag_28:\n      mload(0x40)\n      tag_31\n      swap5\n      swap4\n      swap3\n      swap2\n      swap1\n      tag_23\n      jump\t// in\n    tag_31:\n      mload(0x40)\n      dup1\n      swap2\n      sub\n      swap1\n      return\n        /* \"Kyc.sol\":695:1061  function setKYCData(... */\n    tag_8:\n      tag_32\n      0x04\n      dup1\n      calldatasize\n      sub\n      dup2\n      add\n      swap1\n      tag_33\n      swap2\n      swap1\n      tag_34\n      jump\t// in\n    tag_33:\n      tag_35\n      jump\t// in\n    tag_32:\n      stop\n        /* \"@openzeppelin/contracts/access/Ownable.sol\":2074:2272  function transferOwnership(address newOwner) public virtual onlyOwner {... */\n    tag_9:\n      tag_36\n      0x04\n      dup1\n      calldatasize\n      sub\n      dup2\n      add\n      swap1\n      tag_37\n      swap2\n      swap1\n      tag_13\n      jump\t// in\n    tag_37:\n      tag_38\n      jump\t// in\n    tag_36:\n      stop\n        /* \"Kyc.sol\":1107:1236  function verifyKYC(address userAddress) external view returns (bool) {... */\n    tag_14:\n        /* \"Kyc.sol\":1170:1174  bool */\n      0x00\n        /* \"Kyc.sol\":1194:1204  kycRecords */\n      0x01\n        /* \"Kyc.sol\":1194:1217  kycRecords[userAddress] */\n      0x00\n        /* \"Kyc.sol\":1205:1216  userAddress */\n      dup4\n        /* \"Kyc.sol\":1194:1217  kycRecords[userAddress] */\n      0xffffffffffffffffffffffffffffffffffffffff\n      and\n      0xffffffffffffffffffffffffffffffffffffffff\n      and\n      dup2\n      mstore\n      0x20\n      add\n      swap1\n      dup2\n      mstore\n      0x20\n      add\n      0x00\n      keccak256\n        /* \"Kyc.sol\":1194:1228  kycRecords[userAddress].isVerified */\n      0x00\n      add\n      0x00\n      swap1\n      sload\n      swap1\n      0x0100\n      exp\n      swap1\n      div\n      0xff\n      and\n        /* \"Kyc.sol\":1187:1228  return kycRecords[userAddress].isVerified */\n      swap1\n      pop\n        /* \"Kyc.sol\":1107:1236  function verifyKYC(address userAddress) external view returns (bool) {... */\n      swap2\n      swap1\n      pop\n      jump\t// out\n        /* \"@openzeppelin/contracts/access/Ownable.sol\":1824:1925  function renounceOwnership() public virtual onlyOwner {... */\n    tag_18:\n        /* \"@openzeppelin/contracts/access/Ownable.sol\":1094:1107  _checkOwner() */\n      tag_41\n        /* \"@openzeppelin/contracts/access/Ownable.sol\":1094:1105  _checkOwner */\n      tag_42\n        /* \"@openzeppelin/contracts/access/Ownable.sol\":1094:1107  _checkOwner() */\n      jump\t// in\n    tag_41:\n        /* \"@openzeppelin/contracts/access/Ownable.sol\":1888:1918  _transferOwnership(address(0)) */\n      tag_44\n        /* \"@openzeppelin/contracts/access/Ownable.sol\":1915:1916  0 */\n      0x00\n        /* \"@openzeppelin/contracts/access/Ownable.sol\":1888:1906  _transferOwnership */\n      tag_45\n        /* \"@openzeppelin/contracts/access/Ownable.sol\":1888:1918  _transferOwnership(address(0)) */\n      jump\t// in\n    tag_44:\n        /* \"@openzeppelin/contracts/access/Ownable.sol\":1824:1925  function renounceOwnership() public virtual onlyOwner {... */\n      jump\t// out\n        /* \"Kyc.sol\":477:522  mapping(address => KYCData) public kycRecords */\n    tag_21:\n      mstore(0x20, 0x01)\n      dup1\n      0x00\n      mstore\n      keccak256(0x00, 0x40)\n      0x00\n      swap2\n      pop\n      swap1\n      pop\n      dup1\n      0x00\n      add\n      0x00\n      swap1\n      sload\n      swap1\n      0x0100\n      exp\n      swap1\n      div\n      0xff\n      and\n      swap1\n      dup1\n      0x01\n      add\n      dup1\n      sload\n      tag_46\n      swap1\n      tag_47\n      jump\t// in\n    tag_46:\n      dup1\n      0x1f\n      add\n      0x20\n      dup1\n      swap2\n      div\n      mul\n      0x20\n      add\n      mload(0x40)\n      swap1\n      dup2\n      add\n      0x40\n      mstore\n      dup1\n      swap3\n      swap2\n      swap1\n      dup2\n      dup2\n      mstore\n      0x20\n      add\n      dup3\n      dup1\n      sload\n      tag_48\n      swap1\n      tag_47\n      jump\t// in\n    tag_48:\n      dup1\n      iszero\n      tag_49\n      jumpi\n      dup1\n      0x1f\n      lt\n      tag_50\n      jumpi\n      0x0100\n      dup1\n      dup4\n      sload\n      div\n      mul\n      dup4\n      mstore\n      swap2\n      0x20\n      add\n      swap2\n      jump(tag_49)\n    tag_50:\n      dup3\n      add\n      swap2\n      swap1\n      0x00\n      mstore\n      keccak256(0x00, 0x20)\n      swap1\n    tag_51:\n      dup2\n      sload\n      dup2\n      mstore\n      swap1\n      0x01\n      add\n      swap1\n      0x20\n      add\n      dup1\n      dup4\n      gt\n      tag_51\n      jumpi\n      dup3\n      swap1\n      sub\n      0x1f\n      and\n      dup3\n      add\n      swap2\n    tag_49:\n      pop\n      pop\n      pop\n      pop\n      pop\n      swap1\n      dup1\n      0x02\n      add\n      dup1\n      sload\n      tag_52\n      swap1\n      tag_47\n      jump\t// in\n    tag_52:\n      dup1\n      0x1f\n      add\n      0x20\n      dup1\n      swap2\n      div\n      mul\n      0x20\n      add\n      mload(0x40)\n      swap1\n      dup2\n      add\n      0x40\n      mstore\n      dup1\n      swap3\n      swap2\n      swap1\n      dup2\n      dup2\n      mstore\n      0x20\n      add\n      dup3\n      dup1\n      sload\n      tag_53\n      swap1\n      tag_47\n      jump\t// in\n    tag_53:\n      dup1\n      iszero\n      tag_54\n      jumpi\n      dup1\n      0x1f\n      lt\n      tag_55\n      jumpi\n      0x0100\n      dup1\n      dup4\n      sload\n      div\n      mul\n      dup4\n      mstore\n      swap2\n      0x20\n      add\n      swap2\n      jump(tag_54)\n    tag_55:\n      dup3\n      add\n      swap2\n      swap1\n      0x00\n      mstore\n      keccak256(0x00, 0x20)\n      swap1\n    tag_56:\n      dup2\n      sload\n      dup2\n      mstore\n      swap1\n      0x01\n      add\n      swap1\n      0x20\n      add\n      dup1\n      dup4\n      gt\n      tag_56\n      jumpi\n      dup3\n      swap1\n      sub\n      0x1f\n      and\n      dup3\n      add\n      swap2\n    tag_54:\n      pop\n      pop\n      pop\n      pop\n      pop\n      swap1\n      dup1\n      0x03\n      add\n      dup1\n      sload\n      tag_57\n      swap1\n      tag_47\n      jump\t// in\n    tag_57:\n      dup1\n      0x1f\n      add\n      0x20\n      dup1\n      swap2\n      div\n      mul\n      0x20\n      add\n      mload(0x40)\n      swap1\n      dup2\n      add\n      0x40\n      mstore\n      dup1\n      swap3\n      swap2\n      swap1\n      dup2\n      dup2\n      mstore\n      0x20\n      add\n      dup3\n      dup1\n      sload\n      tag_58\n      swap1\n      tag_47\n      jump\t// in\n    tag_58:\n      dup1\n      iszero\n      tag_59\n      jumpi\n      dup1\n      0x1f\n      lt\n      tag_60\n      jumpi\n      0x0100\n      dup1\n      dup4\n      sload\n      div\n      mul\n      dup4\n      mstore\n      swap2\n      0x20\n      add\n      swap2\n      jump(tag_59)\n    tag_60:\n      dup3\n      add\n      swap2\n      swap1\n      0x00\n      mstore\n      keccak256(0x00, 0x20)\n      swap1\n    tag_61:\n      dup2\n      sload\n      dup2\n      mstore\n      swap1\n      0x01\n      add\n      swap1\n      0x20\n      add\n      dup1\n      dup4\n      gt\n      tag_61\n      jumpi\n      dup3\n      swap1\n      sub\n      0x1f\n      and\n      dup3\n      add\n      swap2\n    tag_59:\n      pop\n      pop\n      pop\n      pop\n      pop\n      swap1\n      pop\n      dup5\n      jump\t// out\n        /* \"@openzeppelin/contracts/access/Ownable.sol\":1201:1286  function owner() public view virtual returns (address) {... */\n    tag_25:\n        /* \"@openzeppelin/contracts/access/Ownable.sol\":1247:1254  address */\n      0x00\n        /* \"@openzeppelin/contracts/access/Ownable.sol\":1273:1279  _owner */\n      dup1\n      0x00\n      swap1\n      sload\n      swap1\n      0x0100\n      exp\n      swap1\n      div\n      0xffffffffffffffffffffffffffffffffffffffff\n      and\n        /* \"@openzeppelin/contracts/access/Ownable.sol\":1266:1279  return _owner */\n      swap1\n      pop\n        /* \"@openzeppelin/contracts/access/Ownable.sol\":1201:1286  function owner() public view virtual returns (address) {... */\n      swap1\n      jump\t// out\n        /* \"Kyc.sol\":1288:1686  function getKYCData(address userAddress)... */\n    tag_30:\n        /* \"Kyc.sol\":1393:1408  bool isVerified */\n      0x00\n        /* \"Kyc.sol\":1423:1446  string memory firstName */\n      0x60\n        /* \"Kyc.sol\":1461:1483  string memory lastName */\n      dup1\n        /* \"Kyc.sol\":1498:1524  string memory documentHash */\n      0x60\n        /* \"Kyc.sol\":1552:1571  KYCData storage kyc */\n      0x00\n        /* \"Kyc.sol\":1574:1584  kycRecords */\n      0x01\n        /* \"Kyc.sol\":1574:1597  kycRecords[userAddress] */\n      0x00\n        /* \"Kyc.sol\":1585:1596  userAddress */\n      dup8\n        /* \"Kyc.sol\":1574:1597  kycRecords[userAddress] */\n      0xffffffffffffffffffffffffffffffffffffffff\n      and\n      0xffffffffffffffffffffffffffffffffffffffff\n      and\n      dup2\n      mstore\n      0x20\n      add\n      swap1\n      dup2\n      mstore\n      0x20\n      add\n      0x00\n      keccak256\n        /* \"Kyc.sol\":1552:1597  KYCData storage kyc = kycRecords[userAddress] */\n      swap1\n      pop\n        /* \"Kyc.sol\":1616:1619  kyc */\n      dup1\n        /* \"Kyc.sol\":1616:1630  kyc.isVerified */\n      0x00\n      add\n      0x00\n      swap1\n      sload\n      swap1\n      0x0100\n      exp\n      swap1\n      div\n      0xff\n      and\n        /* \"Kyc.sol\":1632:1635  kyc */\n      dup2\n        /* \"Kyc.sol\":1632:1645  kyc.firstName */\n      0x01\n      add\n        /* \"Kyc.sol\":1647:1650  kyc */\n      dup3\n        /* \"Kyc.sol\":1647:1659  kyc.lastName */\n      0x02\n      add\n        /* \"Kyc.sol\":1661:1664  kyc */\n      dup4\n        /* \"Kyc.sol\":1661:1677  kyc.documentHash */\n      0x03\n      add\n        /* \"Kyc.sol\":1608:1678  return (kyc.isVerified, kyc.firstName, kyc.lastName, kyc.documentHash) */\n      dup3\n      dup1\n      sload\n      tag_64\n      swap1\n      tag_47\n      jump\t// in\n    tag_64:\n      dup1\n      0x1f\n      add\n      0x20\n      dup1\n      swap2\n      div\n      mul\n      0x20\n      add\n      mload(0x40)\n      swap1\n      dup2\n      add\n      0x40\n      mstore\n      dup1\n      swap3\n      swap2\n      swap1\n      dup2\n      dup2\n      mstore\n      0x20\n      add\n      dup3\n      dup1\n      sload\n      tag_65\n      swap1\n      tag_47\n      jump\t// in\n    tag_65:\n      dup1\n      iszero\n      tag_66\n      jumpi\n      dup1\n      0x1f\n      lt\n      tag_67\n      jumpi\n      0x0100\n      dup1\n      dup4\n      sload\n      div\n      mul\n      dup4\n      mstore\n      swap2\n      0x20\n      add\n      swap2\n      jump(tag_66)\n    tag_67:\n      dup3\n      add\n      swap2\n      swap1\n      0x00\n      mstore\n      keccak256(0x00, 0x20)\n      swap1\n    tag_68:\n      dup2\n      sload\n      dup2\n      mstore\n      swap1\n      0x01\n      add\n      swap1\n      0x20\n      add\n      dup1\n      dup4\n      gt\n      tag_68\n      jumpi\n      dup3\n      swap1\n      sub\n      0x1f\n      and\n      dup3\n      add\n      swap2\n    tag_66:\n      pop\n      pop\n      pop\n      pop\n      pop\n      swap3\n      pop\n      dup2\n      dup1\n      sload\n      tag_69\n      swap1\n      tag_47\n      jump\t// in\n    tag_69:\n      dup1\n      0x1f\n      add\n      0x20\n      dup1\n      swap2\n      div\n      mul\n      0x20\n      add\n      mload(0x40)\n      swap1\n      dup2\n      add\n      0x40\n      mstore\n      dup1\n      swap3\n      swap2\n      swap1\n      dup2\n      dup2\n      mstore\n      0x20\n      add\n      dup3\n      dup1\n      sload\n      tag_70\n      swap1\n      tag_47\n      jump\t// in\n    tag_70:\n      dup1\n      iszero\n      tag_71\n      jumpi\n      dup1\n      0x1f\n      lt\n      tag_72\n      jumpi\n      0x0100\n      dup1\n      dup4\n      sload\n      div\n      mul\n      dup4\n      mstore\n      swap2\n      0x20\n      add\n      swap2\n      jump(tag_71)\n    tag_72:\n      dup3\n      add\n      swap2\n      swap1\n      0x00\n      mstore\n      keccak256(0x00, 0x20)\n      swap1\n    tag_73:\n      dup2\n      sload\n      dup2\n      mstore\n      swap1\n      0x01\n      add\n      swap1\n      0x20\n      add\n      dup1\n      dup4\n      gt\n      tag_73\n      jumpi\n      dup3\n      swap1\n      sub\n      0x1f\n      and\n      dup3\n      add\n      swap2\n    tag_71:\n      pop\n      pop\n      pop\n      pop\n      pop\n      swap2\n      pop\n      dup1\n      dup1\n      sload\n      tag_74\n      swap1\n      tag_47\n      jump\t// in\n    tag_74:\n      dup1\n      0x1f\n      add\n      0x20\n      dup1\n      swap2\n      div\n      mul\n      0x20\n      add\n      mload(0x40)\n      swap1\n      dup2\n      add\n      0x40\n      mstore\n      dup1\n      swap3\n      swap2\n      swap1\n      dup2\n      dup2\n      mstore\n      0x20\n      add\n      dup3\n      dup1\n      sload\n      tag_75\n      swap1\n      tag_47\n      jump\t// in\n    tag_75:\n      dup1\n      iszero\n      tag_76\n      jumpi\n      dup1\n      0x1f\n      lt\n      tag_77\n      jumpi\n      0x0100\n      dup1\n      dup4\n      sload\n      div\n      mul\n      dup4\n      mstore\n      swap2\n      0x20\n      add\n      swap2\n      jump(tag_76)\n    tag_77:\n      dup3\n      add\n      swap2\n      swap1\n      0x00\n      mstore\n      keccak256(0x00, 0x20)\n      swap1\n    tag_78:\n      dup2\n      sload\n      dup2\n      mstore\n      swap1\n      0x01\n      add\n      swap1\n      0x20\n      add\n      dup1\n      dup4\n      gt\n      tag_78\n      jumpi\n      dup3\n      swap1\n      sub\n      0x1f\n      and\n      dup3\n      add\n      swap2\n    tag_76:\n      pop\n      pop\n      pop\n      pop\n      pop\n      swap1\n      pop\n      swap5\n      pop\n      swap5\n      pop\n      swap5\n      pop\n      swap5\n      pop\n      pop\n        /* \"Kyc.sol\":1288:1686  function getKYCData(address userAddress)... */\n      swap2\n      swap4\n      pop\n      swap2\n      swap4\n      jump\t// out\n        /* \"Kyc.sol\":695:1061  function setKYCData(... */\n    tag_35:\n        /* \"@openzeppelin/contracts/access/Ownable.sol\":1094:1107  _checkOwner() */\n      tag_80\n        /* \"@openzeppelin/contracts/access/Ownable.sol\":1094:1105  _checkOwner */\n      tag_42\n        /* \"@openzeppelin/contracts/access/Ownable.sol\":1094:1107  _checkOwner() */\n      jump\t// in\n    tag_80:\n        /* \"Kyc.sol\":938:992  KYCData(isVerified, firstName, lastName, documentHash) */\n      mload(0x40)\n      dup1\n      0x80\n      add\n      0x40\n      mstore\n      dup1\n        /* \"Kyc.sol\":946:956  isVerified */\n      dup6\n        /* \"Kyc.sol\":938:992  KYCData(isVerified, firstName, lastName, documentHash) */\n      iszero\n      iszero\n      dup2\n      mstore\n      0x20\n      add\n        /* \"Kyc.sol\":958:967  firstName */\n      dup5\n        /* \"Kyc.sol\":938:992  KYCData(isVerified, firstName, lastName, documentHash) */\n      dup2\n      mstore\n      0x20\n      add\n        /* \"Kyc.sol\":969:977  lastName */\n      dup4\n        /* \"Kyc.sol\":938:992  KYCData(isVerified, firstName, lastName, documentHash) */\n      dup2\n      mstore\n      0x20\n      add\n        /* \"Kyc.sol\":979:991  documentHash */\n      dup3\n        /* \"Kyc.sol\":938:992  KYCData(isVerified, firstName, lastName, documentHash) */\n      dup2\n      mstore\n      pop\n        /* \"Kyc.sol\":912:922  kycRecords */\n      0x01\n        /* \"Kyc.sol\":912:935  kycRecords[userAddress] */\n      0x00\n        /* \"Kyc.sol\":923:934  userAddress */\n      dup8\n        /* \"Kyc.sol\":912:935  kycRecords[userAddress] */\n      0xffffffffffffffffffffffffffffffffffffffff\n      and\n      0xffffffffffffffffffffffffffffffffffffffff\n      and\n      dup2\n      mstore\n      0x20\n      add\n      swap1\n      dup2\n      mstore\n      0x20\n      add\n      0x00\n      keccak256\n        /* \"Kyc.sol\":912:992  kycRecords[userAddress] = KYCData(isVerified, firstName, lastName, documentHash) */\n      0x00\n      dup3\n      add\n      mload\n      dup2\n      0x00\n      add\n      exp(0x0100, 0x00)\n      dup2\n      sload\n      dup2\n      0xff\n      mul\n      not\n      and\n      swap1\n      dup4\n      iszero\n      iszero\n      mul\n      or\n      swap1\n      sstore\n      pop\n      0x20\n      dup3\n      add\n      mload\n      dup2\n      0x01\n      add\n      swap1\n      dup2\n      tag_82\n      swap2\n      swap1\n      tag_83\n      jump\t// in\n    tag_82:\n      pop\n      0x40\n      dup3\n      add\n      mload\n      dup2\n      0x02\n      add\n      swap1\n      dup2\n      tag_84\n      swap2\n      swap1\n      tag_83\n      jump\t// in\n    tag_84:\n      pop\n      0x60\n      dup3\n      add\n      mload\n      dup2\n      0x03\n      add\n      swap1\n      dup2\n      tag_85\n      swap2\n      swap1\n      tag_83\n      jump\t// in\n    tag_85:\n      pop\n      swap1\n      pop\n      pop\n        /* \"Kyc.sol\":1020:1031  userAddress */\n      dup5\n        /* \"Kyc.sol\":1008:1053  KYCVerified(userAddress, firstName, lastName) */\n      0xffffffffffffffffffffffffffffffffffffffff\n      and\n      0x63fd455a87b20232703553b6bb33d5c1aad29d7eb6a8f9c48fb90df9d3f080f1\n        /* \"Kyc.sol\":1033:1042  firstName */\n      dup5\n        /* \"Kyc.sol\":1044:1052  lastName */\n      dup5\n        /* \"Kyc.sol\":1008:1053  KYCVerified(userAddress, firstName, lastName) */\n      mload(0x40)\n      tag_86\n      swap3\n      swap2\n      swap1\n      tag_87\n      jump\t// in\n    tag_86:\n      mload(0x40)\n      dup1\n      swap2\n      sub\n      swap1\n      log2\n        /* \"Kyc.sol\":695:1061  function setKYCData(... */\n      pop\n      pop\n      pop\n      pop\n      pop\n      jump\t// out\n        /* \"@openzeppelin/contracts/access/Ownable.sol\":2074:2272  function transferOwnership(address newOwner) public virtual onlyOwner {... */\n    tag_38:\n        /* \"@openzeppelin/contracts/access/Ownable.sol\":1094:1107  _checkOwner() */\n      tag_89\n        /* \"@openzeppelin/contracts/access/Ownable.sol\":1094:1105  _checkOwner */\n      tag_42\n        /* \"@openzeppelin/contracts/access/Ownable.sol\":1094:1107  _checkOwner() */\n      jump\t// in\n    tag_89:\n        /* \"@openzeppelin/contracts/access/Ownable.sol\":2182:2183  0 */\n      0x00\n        /* \"@openzeppelin/contracts/access/Ownable.sol\":2162:2184  newOwner != address(0) */\n      0xffffffffffffffffffffffffffffffffffffffff\n      and\n        /* \"@openzeppelin/contracts/access/Ownable.sol\":2162:2170  newOwner */\n      dup2\n        /* \"@openzeppelin/contracts/access/Ownable.sol\":2162:2184  newOwner != address(0) */\n      0xffffffffffffffffffffffffffffffffffffffff\n      and\n      sub\n        /* \"@openzeppelin/contracts/access/Ownable.sol\":2154:2227  require(newOwner != address(0), \"Ownable: new owner is the zero address\") */\n      tag_91\n      jumpi\n      mload(0x40)\n      0x08c379a000000000000000000000000000000000000000000000000000000000\n      dup2\n      mstore\n      0x04\n      add\n      tag_92\n      swap1\n      tag_93\n      jump\t// in\n    tag_92:\n      mload(0x40)\n      dup1\n      swap2\n      sub\n      swap1\n      revert\n    tag_91:\n        /* \"@openzeppelin/contracts/access/Ownable.sol\":2237:2265  _transferOwnership(newOwner) */\n      tag_94\n        /* \"@openzeppelin/contracts/access/Ownable.sol\":2256:2264  newOwner */\n      dup2\n        /* \"@openzeppelin/contracts/access/Ownable.sol\":2237:2255  _transferOwnership */\n      tag_45\n        /* \"@openzeppelin/contracts/access/Ownable.sol\":2237:2265  _transferOwnership(newOwner) */\n      jump\t// in\n    tag_94:\n        /* \"@openzeppelin/contracts/access/Ownable.sol\":2074:2272  function transferOwnership(address newOwner) public virtual onlyOwner {... */\n      pop\n      jump\t// out\n        /* \"@openzeppelin/contracts/access/Ownable.sol\":1359:1489  function _checkOwner() internal view virtual {... */\n    tag_42:\n        /* \"@openzeppelin/contracts/access/Ownable.sol\":1433:1445  _msgSender() */\n      tag_96\n        /* \"@openzeppelin/contracts/access/Ownable.sol\":1433:1443  _msgSender */\n      tag_97\n        /* \"@openzeppelin/contracts/access/Ownable.sol\":1433:1445  _msgSender() */\n      jump\t// in\n    tag_96:\n        /* \"@openzeppelin/contracts/access/Ownable.sol\":1422:1445  owner() == _msgSender() */\n      0xffffffffffffffffffffffffffffffffffffffff\n      and\n        /* \"@openzeppelin/contracts/access/Ownable.sol\":1422:1429  owner() */\n      tag_98\n        /* \"@openzeppelin/contracts/access/Ownable.sol\":1422:1427  owner */\n      tag_25\n        /* \"@openzeppelin/contracts/access/Ownable.sol\":1422:1429  owner() */\n      jump\t// in\n    tag_98:\n        /* \"@openzeppelin/contracts/access/Ownable.sol\":1422:1445  owner() == _msgSender() */\n      0xffffffffffffffffffffffffffffffffffffffff\n      and\n      eq\n        /* \"@openzeppelin/contracts/access/Ownable.sol\":1414:1482  require(owner() == _msgSender(), \"Ownable: caller is not the owner\") */\n      tag_99\n      jumpi\n      mload(0x40)\n      0x08c379a000000000000000000000000000000000000000000000000000000000\n      dup2\n      mstore\n      0x04\n      add\n      tag_100\n      swap1\n      tag_101\n      jump\t// in\n    tag_100:\n      mload(0x40)\n      dup1\n      swap2\n      sub\n      swap1\n      revert\n    tag_99:\n        /* \"@openzeppelin/contracts/access/Ownable.sol\":1359:1489  function _checkOwner() internal view virtual {... */\n      jump\t// out\n        /* \"@openzeppelin/contracts/access/Ownable.sol\":2426:2613  function _transferOwnership(address newOwner) internal virtual {... */\n    tag_45:\n        /* \"@openzeppelin/contracts/access/Ownable.sol\":2499:2515  address oldOwner */\n      0x00\n        /* \"@openzeppelin/contracts/access/Ownable.sol\":2518:2524  _owner */\n      dup1\n      0x00\n      swap1\n      sload\n      swap1\n      0x0100\n      exp\n      swap1\n      div\n      0xffffffffffffffffffffffffffffffffffffffff\n      and\n        /* \"@openzeppelin/contracts/access/Ownable.sol\":2499:2524  address oldOwner = _owner */\n      swap1\n      pop\n        /* \"@openzeppelin/contracts/access/Ownable.sol\":2543:2551  newOwner */\n      dup2\n        /* \"@openzeppelin/contracts/access/Ownable.sol\":2534:2540  _owner */\n      0x00\n      dup1\n        /* \"@openzeppelin/contracts/access/Ownable.sol\":2534:2551  _owner = newOwner */\n      0x0100\n      exp\n      dup2\n      sload\n      dup2\n      0xffffffffffffffffffffffffffffffffffffffff\n      mul\n      not\n      and\n      swap1\n      dup4\n      0xffffffffffffffffffffffffffffffffffffffff\n      and\n      mul\n      or\n      swap1\n      sstore\n      pop\n        /* \"@openzeppelin/contracts/access/Ownable.sol\":2597:2605  newOwner */\n      dup2\n        /* \"@openzeppelin/contracts/access/Ownable.sol\":2566:2606  OwnershipTransferred(oldOwner, newOwner) */\n      0xffffffffffffffffffffffffffffffffffffffff\n      and\n        /* \"@openzeppelin/contracts/access/Ownable.sol\":2587:2595  oldOwner */\n      dup2\n        /* \"@openzeppelin/contracts/access/Ownable.sol\":2566:2606  OwnershipTransferred(oldOwner, newOwner) */\n      0xffffffffffffffffffffffffffffffffffffffff\n      and\n      0x8be0079c531659141344cd1fd0a4f28419497f9722a3daafe3b4186f6b6457e0\n      mload(0x40)\n      mload(0x40)\n      dup1\n      swap2\n      sub\n      swap1\n      log3\n        /* \"@openzeppelin/contracts/access/Ownable.sol\":2489:2613  {... */\n      pop\n        /* \"@openzeppelin/contracts/access/Ownable.sol\":2426:2613  function _transferOwnership(address newOwner) internal virtual {... */\n      pop\n      jump\t// out\n        /* \"@openzeppelin/contracts/utils/Context.sol\":640:736  function _msgSender() internal view virtual returns (address) {... */\n    tag_97:\n        /* \"@openzeppelin/contracts/utils/Context.sol\":693:700  address */\n      0x00\n        /* \"@openzeppelin/contracts/utils/Context.sol\":719:729  msg.sender */\n      caller\n        /* \"@openzeppelin/contracts/utils/Context.sol\":712:729  return msg.sender */\n      swap1\n      pop\n        /* \"@openzeppelin/contracts/utils/Context.sol\":640:736  function _msgSender() internal view virtual returns (address) {... */\n      swap1\n      jump\t// out\n        /* \"#utility.yul\":7:82   */\n    tag_104:\n        /* \"#utility.yul\":40:46   */\n      0x00\n        /* \"#utility.yul\":73:75   */\n      0x40\n        /* \"#utility.yul\":67:76   */\n      mload\n        /* \"#utility.yul\":57:76   */\n      swap1\n      pop\n        /* \"#utility.yul\":7:82   */\n      swap1\n      jump\t// out\n        /* \"#utility.yul\":88:205   */\n    tag_105:\n        /* \"#utility.yul\":197:198   */\n      0x00\n        /* \"#utility.yul\":194:195   */\n      dup1\n        /* \"#utility.yul\":187:199   */\n      revert\n        /* \"#utility.yul\":211:328   */\n    tag_106:\n        /* \"#utility.yul\":320:321   */\n      0x00\n        /* \"#utility.yul\":317:318   */\n      dup1\n        /* \"#utility.yul\":310:322   */\n      revert\n        /* \"#utility.yul\":334:460   */\n    tag_107:\n        /* \"#utility.yul\":371:378   */\n      0x00\n        /* \"#utility.yul\":411:453   */\n      0xffffffffffffffffffffffffffffffffffffffff\n        /* \"#utility.yul\":404:409   */\n      dup3\n        /* \"#utility.yul\":400:454   */\n      and\n        /* \"#utility.yul\":389:454   */\n      swap1\n      pop\n        /* \"#utility.yul\":334:460   */\n      swap2\n      swap1\n      pop\n      jump\t// out\n        /* \"#utility.yul\":466:562   */\n    tag_108:\n        /* \"#utility.yul\":503:510   */\n      0x00\n        /* \"#utility.yul\":532:556   */\n      tag_157\n        /* \"#utility.yul\":550:555   */\n      dup3\n        /* \"#utility.yul\":532:556   */\n      tag_107\n      jump\t// in\n    tag_157:\n        /* \"#utility.yul\":521:556   */\n      swap1\n      pop\n        /* \"#utility.yul\":466:562   */\n      swap2\n      swap1\n      pop\n      jump\t// out\n        /* \"#utility.yul\":568:690   */\n    tag_109:\n        /* \"#utility.yul\":641:665   */\n      tag_159\n        /* \"#utility.yul\":659:664   */\n      dup2\n        /* \"#utility.yul\":641:665   */\n      tag_108\n      jump\t// in\n    tag_159:\n        /* \"#utility.yul\":634:639   */\n      dup2\n        /* \"#utility.yul\":631:666   */\n      eq\n        /* \"#utility.yul\":621:684   */\n      tag_160\n      jumpi\n        /* \"#utility.yul\":680:681   */\n      0x00\n        /* \"#utility.yul\":677:678   */\n      dup1\n        /* \"#utility.yul\":670:682   */\n      revert\n        /* \"#utility.yul\":621:684   */\n    tag_160:\n        /* \"#utility.yul\":568:690   */\n      pop\n      jump\t// out\n        /* \"#utility.yul\":696:835   */\n    tag_110:\n        /* \"#utility.yul\":742:747   */\n      0x00\n        /* \"#utility.yul\":780:786   */\n      dup2\n        /* \"#utility.yul\":767:787   */\n      calldataload\n        /* \"#utility.yul\":758:787   */\n      swap1\n      pop\n        /* \"#utility.yul\":796:829   */\n      tag_162\n        /* \"#utility.yul\":823:828   */\n      dup2\n        /* \"#utility.yul\":796:829   */\n      tag_109\n      jump\t// in\n    tag_162:\n        /* \"#utility.yul\":696:835   */\n      swap3\n      swap2\n      pop\n      pop\n      jump\t// out\n        /* \"#utility.yul\":841:1170   */\n    tag_13:\n        /* \"#utility.yul\":900:906   */\n      0x00\n        /* \"#utility.yul\":949:951   */\n      0x20\n        /* \"#utility.yul\":937:946   */\n      dup3\n        /* \"#utility.yul\":928:935   */\n      dup5\n        /* \"#utility.yul\":924:947   */\n      sub\n        /* \"#utility.yul\":920:952   */\n      slt\n        /* \"#utility.yul\":917:1036   */\n      iszero\n      tag_164\n      jumpi\n        /* \"#utility.yul\":955:1034   */\n      tag_165\n      tag_105\n      jump\t// in\n    tag_165:\n        /* \"#utility.yul\":917:1036   */\n    tag_164:\n        /* \"#utility.yul\":1075:1076   */\n      0x00\n        /* \"#utility.yul\":1100:1153   */\n      tag_166\n        /* \"#utility.yul\":1145:1152   */\n      dup5\n        /* \"#utility.yul\":1136:1142   */\n      dup3\n        /* \"#utility.yul\":1125:1134   */\n      dup6\n        /* \"#utility.yul\":1121:1143   */\n      add\n        /* \"#utility.yul\":1100:1153   */\n      tag_110\n      jump\t// in\n    tag_166:\n        /* \"#utility.yul\":1090:1153   */\n      swap2\n      pop\n        /* \"#utility.yul\":1046:1163   */\n      pop\n        /* \"#utility.yul\":841:1170   */\n      swap3\n      swap2\n      pop\n      pop\n      jump\t// out\n        /* \"#utility.yul\":1176:1266   */\n    tag_111:\n        /* \"#utility.yul\":1210:1217   */\n      0x00\n        /* \"#utility.yul\":1253:1258   */\n      dup2\n        /* \"#utility.yul\":1246:1259   */\n      iszero\n        /* \"#utility.yul\":1239:1260   */\n      iszero\n        /* \"#utility.yul\":1228:1260   */\n      swap1\n      pop\n        /* \"#utility.yul\":1176:1266   */\n      swap2\n      swap1\n      pop\n      jump\t// out\n        /* \"#utility.yul\":1272:1381   */\n    tag_112:\n        /* \"#utility.yul\":1353:1374   */\n      tag_169\n        /* \"#utility.yul\":1368:1373   */\n      dup2\n        /* \"#utility.yul\":1353:1374   */\n      tag_111\n      jump\t// in\n    tag_169:\n        /* \"#utility.yul\":1348:1351   */\n      dup3\n        /* \"#utility.yul\":1341:1375   */\n      mstore\n        /* \"#utility.yul\":1272:1381   */\n      pop\n      pop\n      jump\t// out\n        /* \"#utility.yul\":1387:1597   */\n    tag_16:\n        /* \"#utility.yul\":1474:1478   */\n      0x00\n        /* \"#utility.yul\":1512:1514   */\n      0x20\n        /* \"#utility.yul\":1501:1510   */\n      dup3\n        /* \"#utility.yul\":1497:1515   */\n      add\n        /* \"#utility.yul\":1489:1515   */\n      swap1\n      pop\n        /* \"#utility.yul\":1525:1590   */\n      tag_171\n        /* \"#utility.yul\":1587:1588   */\n      0x00\n        /* \"#utility.yul\":1576:1585   */\n      dup4\n        /* \"#utility.yul\":1572:1589   */\n      add\n        /* \"#utility.yul\":1563:1569   */\n      dup5\n        /* \"#utility.yul\":1525:1590   */\n      tag_112\n      jump\t// in\n    tag_171:\n        /* \"#utility.yul\":1387:1597   */\n      swap3\n      swap2\n      pop\n      pop\n      jump\t// out\n        /* \"#utility.yul\":1603:1702   */\n    tag_113:\n        /* \"#utility.yul\":1655:1661   */\n      0x00\n        /* \"#utility.yul\":1689:1694   */\n      dup2\n        /* \"#utility.yul\":1683:1695   */\n      mload\n        /* \"#utility.yul\":1673:1695   */\n      swap1\n      pop\n        /* \"#utility.yul\":1603:1702   */\n      swap2\n      swap1\n      pop\n      jump\t// out\n        /* \"#utility.yul\":1708:1877   */\n    tag_114:\n        /* \"#utility.yul\":1792:1803   */\n      0x00\n        /* \"#utility.yul\":1826:1832   */\n      dup3\n        /* \"#utility.yul\":1821:1824   */\n      dup3\n        /* \"#utility.yul\":1814:1833   */\n      mstore\n        /* \"#utility.yul\":1866:1870   */\n      0x20\n        /* \"#utility.yul\":1861:1864   */\n      dup3\n        /* \"#utility.yul\":1857:1871   */\n      add\n        /* \"#utility.yul\":1842:1871   */\n      swap1\n      pop\n        /* \"#utility.yul\":1708:1877   */\n      swap3\n      swap2\n      pop\n      pop\n      jump\t// out\n        /* \"#utility.yul\":1883:2129   */\n    tag_115:\n        /* \"#utility.yul\":1964:1965   */\n      0x00\n        /* \"#utility.yul\":1974:2087   */\n    tag_175:\n        /* \"#utility.yul\":1988:1994   */\n      dup4\n        /* \"#utility.yul\":1985:1986   */\n      dup2\n        /* \"#utility.yul\":1982:1995   */\n      lt\n        /* \"#utility.yul\":1974:2087   */\n      iszero\n      tag_177\n      jumpi\n        /* \"#utility.yul\":2073:2074   */\n      dup1\n        /* \"#utility.yul\":2068:2071   */\n      dup3\n        /* \"#utility.yul\":2064:2075   */\n      add\n        /* \"#utility.yul\":2058:2076   */\n      mload\n        /* \"#utility.yul\":2054:2055   */\n      dup2\n        /* \"#utility.yul\":2049:2052   */\n      dup5\n        /* \"#utility.yul\":2045:2056   */\n      add\n        /* \"#utility.yul\":2038:2077   */\n      mstore\n        /* \"#utility.yul\":2010:2012   */\n      0x20\n        /* \"#utility.yul\":2007:2008   */\n      dup2\n        /* \"#utility.yul\":2003:2013   */\n      add\n        /* \"#utility.yul\":1998:2013   */\n      swap1\n      pop\n        /* \"#utility.yul\":1974:2087   */\n      jump(tag_175)\n    tag_177:\n        /* \"#utility.yul\":2121:2122   */\n      0x00\n        /* \"#utility.yul\":2112:2118   */\n      dup5\n        /* \"#utility.yul\":2107:2110   */\n      dup5\n        /* \"#utility.yul\":2103:2119   */\n      add\n        /* \"#utility.yul\":2096:2123   */\n      mstore\n        /* \"#utility.yul\":1945:2129   */\n      pop\n        /* \"#utility.yul\":1883:2129   */\n      pop\n      pop\n      pop\n      jump\t// out\n        /* \"#utility.yul\":2135:2237   */\n    tag_116:\n        /* \"#utility.yul\":2176:2182   */\n      0x00\n        /* \"#utility.yul\":2227:2229   */\n      0x1f\n        /* \"#utility.yul\":2223:2230   */\n      not\n        /* \"#utility.yul\":2218:2220   */\n      0x1f\n        /* \"#utility.yul\":2211:2216   */\n      dup4\n        /* \"#utility.yul\":2207:2221   */\n      add\n        /* \"#utility.yul\":2203:2231   */\n      and\n        /* \"#utility.yul\":2193:2231   */\n      swap1\n      pop\n        /* \"#utility.yul\":2135:2237   */\n      swap2\n      swap1\n      pop\n      jump\t// out\n        /* \"#utility.yul\":2243:2620   */\n    tag_117:\n        /* \"#utility.yul\":2331:2334   */\n      0x00\n        /* \"#utility.yul\":2359:2398   */\n      tag_180\n        /* \"#utility.yul\":2392:2397   */\n      dup3\n        /* \"#utility.yul\":2359:2398   */\n      tag_113\n      jump\t// in\n    tag_180:\n        /* \"#utility.yul\":2414:2485   */\n      tag_181\n        /* \"#utility.yul\":2478:2484   */\n      dup2\n        /* \"#utility.yul\":2473:2476   */\n      dup6\n        /* \"#utility.yul\":2414:2485   */\n      tag_114\n      jump\t// in\n    tag_181:\n        /* \"#utility.yul\":2407:2485   */\n      swap4\n      pop\n        /* \"#utility.yul\":2494:2559   */\n      tag_182\n        /* \"#utility.yul\":2552:2558   */\n      dup2\n        /* \"#utility.yul\":2547:2550   */\n      dup6\n        /* \"#utility.yul\":2540:2544   */\n      0x20\n        /* \"#utility.yul\":2533:2538   */\n      dup7\n        /* \"#utility.yul\":2529:2545   */\n      add\n        /* \"#utility.yul\":2494:2559   */\n      tag_115\n      jump\t// in\n    tag_182:\n        /* \"#utility.yul\":2584:2613   */\n      tag_183\n        /* \"#utility.yul\":2606:2612   */\n      dup2\n        /* \"#utility.yul\":2584:2613   */\n      tag_116\n      jump\t// in\n    tag_183:\n        /* \"#utility.yul\":2579:2582   */\n      dup5\n        /* \"#utility.yul\":2575:2614   */\n      add\n        /* \"#utility.yul\":2568:2614   */\n      swap2\n      pop\n        /* \"#utility.yul\":2335:2620   */\n      pop\n        /* \"#utility.yul\":2243:2620   */\n      swap3\n      swap2\n      pop\n      pop\n      jump\t// out\n        /* \"#utility.yul\":2626:3440   */\n    tag_23:\n        /* \"#utility.yul\":2857:2861   */\n      0x00\n        /* \"#utility.yul\":2895:2898   */\n      0x80\n        /* \"#utility.yul\":2884:2893   */\n      dup3\n        /* \"#utility.yul\":2880:2899   */\n      add\n        /* \"#utility.yul\":2872:2899   */\n      swap1\n      pop\n        /* \"#utility.yul\":2909:2974   */\n      tag_185\n        /* \"#utility.yul\":2971:2972   */\n      0x00\n        /* \"#utility.yul\":2960:2969   */\n      dup4\n        /* \"#utility.yul\":2956:2973   */\n      add\n        /* \"#utility.yul\":2947:2953   */\n      dup8\n        /* \"#utility.yul\":2909:2974   */\n      tag_112\n      jump\t// in\n    tag_185:\n        /* \"#utility.yul\":3021:3030   */\n      dup2\n        /* \"#utility.yul\":3015:3019   */\n      dup2\n        /* \"#utility.yul\":3011:3031   */\n      sub\n        /* \"#utility.yul\":3006:3008   */\n      0x20\n        /* \"#utility.yul\":2995:3004   */\n      dup4\n        /* \"#utility.yul\":2991:3009   */\n      add\n        /* \"#utility.yul\":2984:3032   */\n      mstore\n        /* \"#utility.yul\":3049:3127   */\n      tag_186\n        /* \"#utility.yul\":3122:3126   */\n      dup2\n        /* \"#utility.yul\":3113:3119   */\n      dup7\n        /* \"#utility.yul\":3049:3127   */\n      tag_117\n      jump\t// in\n    tag_186:\n        /* \"#utility.yul\":3041:3127   */\n      swap1\n      pop\n        /* \"#utility.yul\":3174:3183   */\n      dup2\n        /* \"#utility.yul\":3168:3172   */\n      dup2\n        /* \"#utility.yul\":3164:3184   */\n      sub\n        /* \"#utility.yul\":3159:3161   */\n      0x40\n        /* \"#utility.yul\":3148:3157   */\n      dup4\n        /* \"#utility.yul\":3144:3162   */\n      add\n        /* \"#utility.yul\":3137:3185   */\n      mstore\n        /* \"#utility.yul\":3202:3280   */\n      tag_187\n        /* \"#utility.yul\":3275:3279   */\n      dup2\n        /* \"#utility.yul\":3266:3272   */\n      dup6\n        /* \"#utility.yul\":3202:3280   */\n      tag_117\n      jump\t// in\n    tag_187:\n        /* \"#utility.yul\":3194:3280   */\n      swap1\n      pop\n        /* \"#utility.yul\":3327:3336   */\n      dup2\n        /* \"#utility.yul\":3321:3325   */\n      dup2\n        /* \"#utility.yul\":3317:3337   */\n      sub\n        /* \"#utility.yul\":3312:3314   */\n      0x60\n        /* \"#utility.yul\":3301:3310   */\n      dup4\n        /* \"#utility.yul\":3297:3315   */\n      add\n        /* \"#utility.yul\":3290:3338   */\n      mstore\n        /* \"#utility.yul\":3355:3433   */\n      tag_188\n        /* \"#utility.yul\":3428:3432   */\n      dup2\n        /* \"#utility.yul\":3419:3425   */\n      dup5\n        /* \"#utility.yul\":3355:3433   */\n      tag_117\n      jump\t// in\n    tag_188:\n        /* \"#utility.yul\":3347:3433   */\n      swap1\n      pop\n        /* \"#utility.yul\":2626:3440   */\n      swap6\n      swap5\n      pop\n      pop\n      pop\n      pop\n      pop\n      jump\t// out\n        /* \"#utility.yul\":3446:3564   */\n    tag_118:\n        /* \"#utility.yul\":3533:3557   */\n      tag_190\n        /* \"#utility.yul\":3551:3556   */\n      dup2\n        /* \"#utility.yul\":3533:3557   */\n      tag_108\n      jump\t// in\n    tag_190:\n        /* \"#utility.yul\":3528:3531   */\n      dup3\n        /* \"#utility.yul\":3521:3558   */\n      mstore\n        /* \"#utility.yul\":3446:3564   */\n      pop\n      pop\n      jump\t// out\n        /* \"#utility.yul\":3570:3792   */\n    tag_27:\n        /* \"#utility.yul\":3663:3667   */\n      0x00\n        /* \"#utility.yul\":3701:3703   */\n      0x20\n        /* \"#utility.yul\":3690:3699   */\n      dup3\n        /* \"#utility.yul\":3686:3704   */\n      add\n        /* \"#utility.yul\":3678:3704   */\n      swap1\n      pop\n        /* \"#utility.yul\":3714:3785   */\n      tag_192\n        /* \"#utility.yul\":3782:3783   */\n      0x00\n        /* \"#utility.yul\":3771:3780   */\n      dup4\n        /* \"#utility.yul\":3767:3784   */\n      add\n        /* \"#utility.yul\":3758:3764   */\n      dup5\n        /* \"#utility.yul\":3714:3785   */\n      tag_118\n      jump\t// in\n    tag_192:\n        /* \"#utility.yul\":3570:3792   */\n      swap3\n      swap2\n      pop\n      pop\n      jump\t// out\n        /* \"#utility.yul\":3798:3914   */\n    tag_119:\n        /* \"#utility.yul\":3868:3889   */\n      tag_194\n        /* \"#utility.yul\":3883:3888   */\n      dup2\n        /* \"#utility.yul\":3868:3889   */\n      tag_111\n      jump\t// in\n    tag_194:\n        /* \"#utility.yul\":3861:3866   */\n      dup2\n        /* \"#utility.yul\":3858:3890   */\n      eq\n        /* \"#utility.yul\":3848:3908   */\n      tag_195\n      jumpi\n        /* \"#utility.yul\":3904:3905   */\n      0x00\n        /* \"#utility.yul\":3901:3902   */\n      dup1\n        /* \"#utility.yul\":3894:3906   */\n      revert\n        /* \"#utility.yul\":3848:3908   */\n    tag_195:\n        /* \"#utility.yul\":3798:3914   */\n      pop\n      jump\t// out\n        /* \"#utility.yul\":3920:4053   */\n    tag_120:\n        /* \"#utility.yul\":3963:3968   */\n      0x00\n        /* \"#utility.yul\":4001:4007   */\n      dup2\n        /* \"#utility.yul\":3988:4008   */\n      calldataload\n        /* \"#utility.yul\":3979:4008   */\n      swap1\n      pop\n        /* \"#utility.yul\":4017:4047   */\n      tag_197\n        /* \"#utility.yul\":4041:4046   */\n      dup2\n        /* \"#utility.yul\":4017:4047   */\n      tag_119\n      jump\t// in\n    tag_197:\n        /* \"#utility.yul\":3920:4053   */\n      swap3\n      swap2\n      pop\n      pop\n      jump\t// out\n        /* \"#utility.yul\":4059:4176   */\n    tag_121:\n        /* \"#utility.yul\":4168:4169   */\n      0x00\n        /* \"#utility.yul\":4165:4166   */\n      dup1\n        /* \"#utility.yul\":4158:4170   */\n      revert\n        /* \"#utility.yul\":4182:4299   */\n    tag_122:\n        /* \"#utility.yul\":4291:4292   */\n      0x00\n        /* \"#utility.yul\":4288:4289   */\n      dup1\n        /* \"#utility.yul\":4281:4293   */\n      revert\n        /* \"#utility.yul\":4305:4485   */\n    tag_123:\n        /* \"#utility.yul\":4353:4430   */\n      0x4e487b7100000000000000000000000000000000000000000000000000000000\n        /* \"#utility.yul\":4350:4351   */\n      0x00\n        /* \"#utility.yul\":4343:4431   */\n      mstore\n        /* \"#utility.yul\":4450:4454   */\n      0x41\n        /* \"#utility.yul\":4447:4448   */\n      0x04\n        /* \"#utility.yul\":4440:4455   */\n      mstore\n        /* \"#utility.yul\":4474:4478   */\n      0x24\n        /* \"#utility.yul\":4471:4472   */\n      0x00\n        /* \"#utility.yul\":4464:4479   */\n      revert\n        /* \"#utility.yul\":4491:4772   */\n    tag_124:\n        /* \"#utility.yul\":4574:4601   */\n      tag_202\n        /* \"#utility.yul\":4596:4600   */\n      dup3\n        /* \"#utility.yul\":4574:4601   */\n      tag_116\n      jump\t// in\n    tag_202:\n        /* \"#utility.yul\":4566:4572   */\n      dup2\n        /* \"#utility.yul\":4562:4602   */\n      add\n        /* \"#utility.yul\":4704:4710   */\n      dup2\n        /* \"#utility.yul\":4692:4702   */\n      dup2\n        /* \"#utility.yul\":4689:4711   */\n      lt\n        /* \"#utility.yul\":4668:4686   */\n      0xffffffffffffffff\n        /* \"#utility.yul\":4656:4666   */\n      dup3\n        /* \"#utility.yul\":4653:4687   */\n      gt\n        /* \"#utility.yul\":4650:4712   */\n      or\n        /* \"#utility.yul\":4647:4735   */\n      iszero\n      tag_203\n      jumpi\n        /* \"#utility.yul\":4715:4733   */\n      tag_204\n      tag_123\n      jump\t// in\n    tag_204:\n        /* \"#utility.yul\":4647:4735   */\n    tag_203:\n        /* \"#utility.yul\":4755:4765   */\n      dup1\n        /* \"#utility.yul\":4751:4753   */\n      0x40\n        /* \"#utility.yul\":4744:4766   */\n      mstore\n        /* \"#utility.yul\":4534:4772   */\n      pop\n        /* \"#utility.yul\":4491:4772   */\n      pop\n      pop\n      jump\t// out\n        /* \"#utility.yul\":4778:4907   */\n    tag_125:\n        /* \"#utility.yul\":4812:4818   */\n      0x00\n        /* \"#utility.yul\":4839:4859   */\n      tag_206\n      tag_104\n      jump\t// in\n    tag_206:\n        /* \"#utility.yul\":4829:4859   */\n      swap1\n      pop\n        /* \"#utility.yul\":4868:4901   */\n      tag_207\n        /* \"#utility.yul\":4896:4900   */\n      dup3\n        /* \"#utility.yul\":4888:4894   */\n      dup3\n        /* \"#utility.yul\":4868:4901   */\n      tag_124\n      jump\t// in\n    tag_207:\n        /* \"#utility.yul\":4778:4907   */\n      swap2\n      swap1\n      pop\n      jump\t// out\n        /* \"#utility.yul\":4913:5221   */\n    tag_126:\n        /* \"#utility.yul\":4975:4979   */\n      0x00\n        /* \"#utility.yul\":5065:5083   */\n      0xffffffffffffffff\n        /* \"#utility.yul\":5057:5063   */\n      dup3\n        /* \"#utility.yul\":5054:5084   */\n      gt\n        /* \"#utility.yul\":5051:5107   */\n      iszero\n      tag_209\n      jumpi\n        /* \"#utility.yul\":5087:5105   */\n      tag_210\n      tag_123\n      jump\t// in\n    tag_210:\n        /* \"#utility.yul\":5051:5107   */\n    tag_209:\n        /* \"#utility.yul\":5125:5154   */\n      tag_211\n        /* \"#utility.yul\":5147:5153   */\n      dup3\n        /* \"#utility.yul\":5125:5154   */\n      tag_116\n      jump\t// in\n    tag_211:\n        /* \"#utility.yul\":5117:5154   */\n      swap1\n      pop\n        /* \"#utility.yul\":5209:5213   */\n      0x20\n        /* \"#utility.yul\":5203:5207   */\n      dup2\n        /* \"#utility.yul\":5199:5214   */\n      add\n        /* \"#utility.yul\":5191:5214   */\n      swap1\n      pop\n        /* \"#utility.yul\":4913:5221   */\n      swap2\n      swap1\n      pop\n      jump\t// out\n        /* \"#utility.yul\":5227:5373   */\n    tag_127:\n        /* \"#utility.yul\":5324:5330   */\n      dup3\n        /* \"#utility.yul\":5319:5322   */\n      dup2\n        /* \"#utility.yul\":5314:5317   */\n      dup4\n        /* \"#utility.yul\":5301:5331   */\n      calldatacopy\n        /* \"#utility.yul\":5365:5366   */\n      0x00\n        /* \"#utility.yul\":5356:5362   */\n      dup4\n        /* \"#utility.yul\":5351:5354   */\n      dup4\n        /* \"#utility.yul\":5347:5363   */\n      add\n        /* \"#utility.yul\":5340:5367   */\n      mstore\n        /* \"#utility.yul\":5227:5373   */\n      pop\n      pop\n      pop\n      jump\t// out\n        /* \"#utility.yul\":5379:5804   */\n    tag_128:\n        /* \"#utility.yul\":5457:5462   */\n      0x00\n        /* \"#utility.yul\":5482:5548   */\n      tag_214\n        /* \"#utility.yul\":5498:5547   */\n      tag_215\n        /* \"#utility.yul\":5540:5546   */\n      dup5\n        /* \"#utility.yul\":5498:5547   */\n      tag_126\n      jump\t// in\n    tag_215:\n        /* \"#utility.yul\":5482:5548   */\n      tag_125\n      jump\t// in\n    tag_214:\n        /* \"#utility.yul\":5473:5548   */\n      swap1\n      pop\n        /* \"#utility.yul\":5571:5577   */\n      dup3\n        /* \"#utility.yul\":5564:5569   */\n      dup2\n        /* \"#utility.yul\":5557:5578   */\n      mstore\n        /* \"#utility.yul\":5609:5613   */\n      0x20\n        /* \"#utility.yul\":5602:5607   */\n      dup2\n        /* \"#utility.yul\":5598:5614   */\n      add\n        /* \"#utility.yul\":5647:5650   */\n      dup5\n        /* \"#utility.yul\":5638:5644   */\n      dup5\n        /* \"#utility.yul\":5633:5636   */\n      dup5\n        /* \"#utility.yul\":5629:5645   */\n      add\n        /* \"#utility.yul\":5626:5651   */\n      gt\n        /* \"#utility.yul\":5623:5735   */\n      iszero\n      tag_216\n      jumpi\n        /* \"#utility.yul\":5654:5733   */\n      tag_217\n      tag_122\n      jump\t// in\n    tag_217:\n        /* \"#utility.yul\":5623:5735   */\n    tag_216:\n        /* \"#utility.yul\":5744:5798   */\n      tag_218\n        /* \"#utility.yul\":5791:5797   */\n      dup5\n        /* \"#utility.yul\":5786:5789   */\n      dup3\n        /* \"#utility.yul\":5781:5784   */\n      dup6\n        /* \"#utility.yul\":5744:5798   */\n      tag_127\n      jump\t// in\n    tag_218:\n        /* \"#utility.yul\":5463:5804   */\n      pop\n        /* \"#utility.yul\":5379:5804   */\n      swap4\n      swap3\n      pop\n      pop\n      pop\n      jump\t// out\n        /* \"#utility.yul\":5824:6164   */\n    tag_129:\n        /* \"#utility.yul\":5880:5885   */\n      0x00\n        /* \"#utility.yul\":5929:5932   */\n      dup3\n        /* \"#utility.yul\":5922:5926   */\n      0x1f\n        /* \"#utility.yul\":5914:5920   */\n      dup4\n        /* \"#utility.yul\":5910:5927   */\n      add\n        /* \"#utility.yul\":5906:5933   */\n      slt\n        /* \"#utility.yul\":5896:6018   */\n      tag_220\n      jumpi\n        /* \"#utility.yul\":5937:6016   */\n      tag_221\n      tag_121\n      jump\t// in\n    tag_221:\n        /* \"#utility.yul\":5896:6018   */\n    tag_220:\n        /* \"#utility.yul\":6054:6060   */\n      dup2\n        /* \"#utility.yul\":6041:6061   */\n      calldataload\n        /* \"#utility.yul\":6079:6158   */\n      tag_222\n        /* \"#utility.yul\":6154:6157   */\n      dup5\n        /* \"#utility.yul\":6146:6152   */\n      dup3\n        /* \"#utility.yul\":6139:6143   */\n      0x20\n        /* \"#utility.yul\":6131:6137   */\n      dup7\n        /* \"#utility.yul\":6127:6144   */\n      add\n        /* \"#utility.yul\":6079:6158   */\n      tag_128\n      jump\t// in\n    tag_222:\n        /* \"#utility.yul\":6070:6158   */\n      swap2\n      pop\n        /* \"#utility.yul\":5886:6164   */\n      pop\n        /* \"#utility.yul\":5824:6164   */\n      swap3\n      swap2\n      pop\n      pop\n      jump\t// out\n        /* \"#utility.yul\":6170:7615   */\n    tag_34:\n        /* \"#utility.yul\":6292:6298   */\n      0x00\n        /* \"#utility.yul\":6300:6306   */\n      dup1\n        /* \"#utility.yul\":6308:6314   */\n      0x00\n        /* \"#utility.yul\":6316:6322   */\n      dup1\n        /* \"#utility.yul\":6324:6330   */\n      0x00\n        /* \"#utility.yul\":6373:6376   */\n      0xa0\n        /* \"#utility.yul\":6361:6370   */\n      dup7\n        /* \"#utility.yul\":6352:6359   */\n      dup9\n        /* \"#utility.yul\":6348:6371   */\n      sub\n        /* \"#utility.yul\":6344:6377   */\n      slt\n        /* \"#utility.yul\":6341:6461   */\n      iszero\n      tag_224\n      jumpi\n        /* \"#utility.yul\":6380:6459   */\n      tag_225\n      tag_105\n      jump\t// in\n    tag_225:\n        /* \"#utility.yul\":6341:6461   */\n    tag_224:\n        /* \"#utility.yul\":6500:6501   */\n      0x00\n        /* \"#utility.yul\":6525:6578   */\n      tag_226\n        /* \"#utility.yul\":6570:6577   */\n      dup9\n        /* \"#utility.yul\":6561:6567   */\n      dup3\n        /* \"#utility.yul\":6550:6559   */\n      dup10\n        /* \"#utility.yul\":6546:6568   */\n      add\n        /* \"#utility.yul\":6525:6578   */\n      tag_110\n      jump\t// in\n    tag_226:\n        /* \"#utility.yul\":6515:6578   */\n      swap6\n      pop\n        /* \"#utility.yul\":6471:6588   */\n      pop\n        /* \"#utility.yul\":6627:6629   */\n      0x20\n        /* \"#utility.yul\":6653:6703   */\n      tag_227\n        /* \"#utility.yul\":6695:6702   */\n      dup9\n        /* \"#utility.yul\":6686:6692   */\n      dup3\n        /* \"#utility.yul\":6675:6684   */\n      dup10\n        /* \"#utility.yul\":6671:6693   */\n      add\n        /* \"#utility.yul\":6653:6703   */\n      tag_120\n      jump\t// in\n    tag_227:\n        /* \"#utility.yul\":6643:6703   */\n      swap5\n      pop\n        /* \"#utility.yul\":6598:6713   */\n      pop\n        /* \"#utility.yul\":6780:6782   */\n      0x40\n        /* \"#utility.yul\":6769:6778   */\n      dup7\n        /* \"#utility.yul\":6765:6783   */\n      add\n        /* \"#utility.yul\":6752:6784   */\n      calldataload\n        /* \"#utility.yul\":6811:6829   */\n      0xffffffffffffffff\n        /* \"#utility.yul\":6803:6809   */\n      dup2\n        /* \"#utility.yul\":6800:6830   */\n      gt\n        /* \"#utility.yul\":6797:6914   */\n      iszero\n      tag_228\n      jumpi\n        /* \"#utility.yul\":6833:6912   */\n      tag_229\n      tag_106\n      jump\t// in\n    tag_229:\n        /* \"#utility.yul\":6797:6914   */\n    tag_228:\n        /* \"#utility.yul\":6938:7001   */\n      tag_230\n        /* \"#utility.yul\":6993:7000   */\n      dup9\n        /* \"#utility.yul\":6984:6990   */\n      dup3\n        /* \"#utility.yul\":6973:6982   */\n      dup10\n        /* \"#utility.yul\":6969:6991   */\n      add\n        /* \"#utility.yul\":6938:7001   */\n      tag_129\n      jump\t// in\n    tag_230:\n        /* \"#utility.yul\":6928:7001   */\n      swap4\n      pop\n        /* \"#utility.yul\":6723:7011   */\n      pop\n        /* \"#utility.yul\":7078:7080   */\n      0x60\n        /* \"#utility.yul\":7067:7076   */\n      dup7\n        /* \"#utility.yul\":7063:7081   */\n      add\n        /* \"#utility.yul\":7050:7082   */\n      calldataload\n        /* \"#utility.yul\":7109:7127   */\n      0xffffffffffffffff\n        /* \"#utility.yul\":7101:7107   */\n      dup2\n        /* \"#utility.yul\":7098:7128   */\n      gt\n        /* \"#utility.yul\":7095:7212   */\n      iszero\n      tag_231\n      jumpi\n        /* \"#utility.yul\":7131:7210   */\n      tag_232\n      tag_106\n      jump\t// in\n    tag_232:\n        /* \"#utility.yul\":7095:7212   */\n    tag_231:\n        /* \"#utility.yul\":7236:7299   */\n      tag_233\n        /* \"#utility.yul\":7291:7298   */\n      dup9\n        /* \"#utility.yul\":7282:7288   */\n      dup3\n        /* \"#utility.yul\":7271:7280   */\n      dup10\n        /* \"#utility.yul\":7267:7289   */\n      add\n        /* \"#utility.yul\":7236:7299   */\n      tag_129\n      jump\t// in\n    tag_233:\n        /* \"#utility.yul\":7226:7299   */\n      swap3\n      pop\n        /* \"#utility.yul\":7021:7309   */\n      pop\n        /* \"#utility.yul\":7376:7379   */\n      0x80\n        /* \"#utility.yul\":7365:7374   */\n      dup7\n        /* \"#utility.yul\":7361:7380   */\n      add\n        /* \"#utility.yul\":7348:7381   */\n      calldataload\n        /* \"#utility.yul\":7408:7426   */\n      0xffffffffffffffff\n        /* \"#utility.yul\":7400:7406   */\n      dup2\n        /* \"#utility.yul\":7397:7427   */\n      gt\n        /* \"#utility.yul\":7394:7511   */\n      iszero\n      tag_234\n      jumpi\n        /* \"#utility.yul\":7430:7509   */\n      tag_235\n      tag_106\n      jump\t// in\n    tag_235:\n        /* \"#utility.yul\":7394:7511   */\n    tag_234:\n        /* \"#utility.yul\":7535:7598   */\n      tag_236\n        /* \"#utility.yul\":7590:7597   */\n      dup9\n        /* \"#utility.yul\":7581:7587   */\n      dup3\n        /* \"#utility.yul\":7570:7579   */\n      dup10\n        /* \"#utility.yul\":7566:7588   */\n      add\n        /* \"#utility.yul\":7535:7598   */\n      tag_129\n      jump\t// in\n    tag_236:\n        /* \"#utility.yul\":7525:7598   */\n      swap2\n      pop\n        /* \"#utility.yul\":7319:7608   */\n      pop\n        /* \"#utility.yul\":6170:7615   */\n      swap3\n      swap6\n      pop\n      swap3\n      swap6\n      swap1\n      swap4\n      pop\n      jump\t// out\n        /* \"#utility.yul\":7621:7801   */\n    tag_130:\n        /* \"#utility.yul\":7669:7746   */\n      0x4e487b7100000000000000000000000000000000000000000000000000000000\n        /* \"#utility.yul\":7666:7667   */\n      0x00\n        /* \"#utility.yul\":7659:7747   */\n      mstore\n        /* \"#utility.yul\":7766:7770   */\n      0x22\n        /* \"#utility.yul\":7763:7764   */\n      0x04\n        /* \"#utility.yul\":7756:7771   */\n      mstore\n        /* \"#utility.yul\":7790:7794   */\n      0x24\n        /* \"#utility.yul\":7787:7788   */\n      0x00\n        /* \"#utility.yul\":7780:7795   */\n      revert\n        /* \"#utility.yul\":7807:8127   */\n    tag_47:\n        /* \"#utility.yul\":7851:7857   */\n      0x00\n        /* \"#utility.yul\":7888:7889   */\n      0x02\n        /* \"#utility.yul\":7882:7886   */\n      dup3\n        /* \"#utility.yul\":7878:7890   */\n      div\n        /* \"#utility.yul\":7868:7890   */\n      swap1\n      pop\n        /* \"#utility.yul\":7935:7936   */\n      0x01\n        /* \"#utility.yul\":7929:7933   */\n      dup3\n        /* \"#utility.yul\":7925:7937   */\n      and\n        /* \"#utility.yul\":7956:7974   */\n      dup1\n        /* \"#utility.yul\":7946:8027   */\n      tag_239\n      jumpi\n        /* \"#utility.yul\":8012:8016   */\n      0x7f\n        /* \"#utility.yul\":8004:8010   */\n      dup3\n        /* \"#utility.yul\":8000:8017   */\n      and\n        /* \"#utility.yul\":7990:8017   */\n      swap2\n      pop\n        /* \"#utility.yul\":7946:8027   */\n    tag_239:\n        /* \"#utility.yul\":8074:8076   */\n      0x20\n        /* \"#utility.yul\":8066:8072   */\n      dup3\n        /* \"#utility.yul\":8063:8077   */\n      lt\n        /* \"#utility.yul\":8043:8061   */\n      dup2\n        /* \"#utility.yul\":8040:8078   */\n      sub\n        /* \"#utility.yul\":8037:8121   */\n      tag_240\n      jumpi\n        /* \"#utility.yul\":8093:8111   */\n      tag_241\n      tag_130\n      jump\t// in\n    tag_241:\n        /* \"#utility.yul\":8037:8121   */\n    tag_240:\n        /* \"#utility.yul\":7858:8127   */\n      pop\n        /* \"#utility.yul\":7807:8127   */\n      swap2\n      swap1\n      pop\n      jump\t// out\n        /* \"#utility.yul\":8133:8274   */\n    tag_131:\n        /* \"#utility.yul\":8182:8186   */\n      0x00\n        /* \"#utility.yul\":8205:8208   */\n      dup2\n        /* \"#utility.yul\":8197:8208   */\n      swap1\n      pop\n        /* \"#utility.yul\":8228:8231   */\n      dup2\n        /* \"#utility.yul\":8225:8226   */\n      0x00\n        /* \"#utility.yul\":8218:8232   */\n      mstore\n        /* \"#utility.yul\":8262:8266   */\n      0x20\n        /* \"#utility.yul\":8259:8260   */\n      0x00\n        /* \"#utility.yul\":8249:8267   */\n      keccak256\n        /* \"#utility.yul\":8241:8267   */\n      swap1\n      pop\n        /* \"#utility.yul\":8133:8274   */\n      swap2\n      swap1\n      pop\n      jump\t// out\n        /* \"#utility.yul\":8280:8373   */\n    tag_132:\n        /* \"#utility.yul\":8317:8323   */\n      0x00\n        /* \"#utility.yul\":8364:8366   */\n      0x20\n        /* \"#utility.yul\":8359:8361   */\n      0x1f\n        /* \"#utility.yul\":8352:8357   */\n      dup4\n        /* \"#utility.yul\":8348:8362   */\n      add\n        /* \"#utility.yul\":8344:8367   */\n      div\n        /* \"#utility.yul\":8334:8367   */\n      swap1\n      pop\n        /* \"#utility.yul\":8280:8373   */\n      swap2\n      swap1\n      pop\n      jump\t// out\n        /* \"#utility.yul\":8379:8486   */\n    tag_133:\n        /* \"#utility.yul\":8423:8431   */\n      0x00\n        /* \"#utility.yul\":8473:8478   */\n      dup3\n        /* \"#utility.yul\":8467:8471   */\n      dup3\n        /* \"#utility.yul\":8463:8479   */\n      shl\n        /* \"#utility.yul\":8442:8479   */\n      swap1\n      pop\n        /* \"#utility.yul\":8379:8486   */\n      swap3\n      swap2\n      pop\n      pop\n      jump\t// out\n        /* \"#utility.yul\":8492:8885   */\n    tag_134:\n        /* \"#utility.yul\":8561:8567   */\n      0x00\n        /* \"#utility.yul\":8611:8612   */\n      0x08\n        /* \"#utility.yul\":8599:8609   */\n      dup4\n        /* \"#utility.yul\":8595:8613   */\n      mul\n        /* \"#utility.yul\":8634:8731   */\n      tag_246\n        /* \"#utility.yul\":8664:8730   */\n      0xffffffffffffffffffffffffffffffffffffffffffffffffffffffffffffffff\n        /* \"#utility.yul\":8653:8662   */\n      dup3\n        /* \"#utility.yul\":8634:8731   */\n      tag_133\n      jump\t// in\n    tag_246:\n        /* \"#utility.yul\":8752:8791   */\n      tag_247\n        /* \"#utility.yul\":8782:8790   */\n      dup7\n        /* \"#utility.yul\":8771:8780   */\n      dup4\n        /* \"#utility.yul\":8752:8791   */\n      tag_133\n      jump\t// in\n    tag_247:\n        /* \"#utility.yul\":8740:8791   */\n      swap6\n      pop\n        /* \"#utility.yul\":8824:8828   */\n      dup1\n        /* \"#utility.yul\":8820:8829   */\n      not\n        /* \"#utility.yul\":8813:8818   */\n      dup5\n        /* \"#utility.yul\":8809:8830   */\n      and\n        /* \"#utility.yul\":8800:8830   */\n      swap4\n      pop\n        /* \"#utility.yul\":8873:8877   */\n      dup1\n        /* \"#utility.yul\":8863:8871   */\n      dup7\n        /* \"#utility.yul\":8859:8878   */\n      and\n        /* \"#utility.yul\":8852:8857   */\n      dup5\n        /* \"#utility.yul\":8849:8879   */\n      or\n        /* \"#utility.yul\":8839:8879   */\n      swap3\n      pop\n        /* \"#utility.yul\":8568:8885   */\n      pop\n      pop\n        /* \"#utility.yul\":8492:8885   */\n      swap4\n      swap3\n      pop\n      pop\n      pop\n      jump\t// out\n        /* \"#utility.yul\":8891:8968   */\n    tag_135:\n        /* \"#utility.yul\":8928:8935   */\n      0x00\n        /* \"#utility.yul\":8957:8962   */\n      dup2\n        /* \"#utility.yul\":8946:8962   */\n      swap1\n      pop\n        /* \"#utility.yul\":8891:8968   */\n      swap2\n      swap1\n      pop\n      jump\t// out\n        /* \"#utility.yul\":8974:9034   */\n    tag_136:\n        /* \"#utility.yul\":9002:9005   */\n      0x00\n        /* \"#utility.yul\":9023:9028   */\n      dup2\n        /* \"#utility.yul\":9016:9028   */\n      swap1\n      pop\n        /* \"#utility.yul\":8974:9034   */\n      swap2\n      swap1\n      pop\n      jump\t// out\n        /* \"#utility.yul\":9040:9182   */\n    tag_137:\n        /* \"#utility.yul\":9090:9099   */\n      0x00\n        /* \"#utility.yul\":9123:9176   */\n      tag_251\n        /* \"#utility.yul\":9141:9175   */\n      tag_252\n        /* \"#utility.yul\":9150:9174   */\n      tag_253\n        /* \"#utility.yul\":9168:9173   */\n      dup5\n        /* \"#utility.yul\":9150:9174   */\n      tag_135\n      jump\t// in\n    tag_253:\n        /* \"#utility.yul\":9141:9175   */\n      tag_136\n      jump\t// in\n    tag_252:\n        /* \"#utility.yul\":9123:9176   */\n      tag_135\n      jump\t// in\n    tag_251:\n        /* \"#utility.yul\":9110:9176   */\n      swap1\n      pop\n        /* \"#utility.yul\":9040:9182   */\n      swap2\n      swap1\n      pop\n      jump\t// out\n        /* \"#utility.yul\":9188:9263   */\n    tag_138:\n        /* \"#utility.yul\":9231:9234   */\n      0x00\n        /* \"#utility.yul\":9252:9257   */\n      dup2\n        /* \"#utility.yul\":9245:9257   */\n      swap1\n      pop\n        /* \"#utility.yul\":9188:9263   */\n      swap2\n      swap1\n      pop\n      jump\t// out\n        /* \"#utility.yul\":9269:9538   */\n    tag_139:\n        /* \"#utility.yul\":9379:9418   */\n      tag_256\n        /* \"#utility.yul\":9410:9417   */\n      dup4\n        /* \"#utility.yul\":9379:9418   */\n      tag_137\n      jump\t// in\n    tag_256:\n        /* \"#utility.yul\":9440:9531   */\n      tag_257\n        /* \"#utility.yul\":9489:9530   */\n      tag_258\n        /* \"#utility.yul\":9513:9529   */\n      dup3\n        /* \"#utility.yul\":9489:9530   */\n      tag_138\n      jump\t// in\n    tag_258:\n        /* \"#utility.yul\":9481:9487   */\n      dup5\n        /* \"#utility.yul\":9474:9478   */\n      dup5\n        /* \"#utility.yul\":9468:9479   */\n      sload\n        /* \"#utility.yul\":9440:9531   */\n      tag_134\n      jump\t// in\n    tag_257:\n        /* \"#utility.yul\":9434:9438   */\n      dup3\n        /* \"#utility.yul\":9427:9532   */\n      sstore\n        /* \"#utility.yul\":9345:9538   */\n      pop\n        /* \"#utility.yul\":9269:9538   */\n      pop\n      pop\n      pop\n      jump\t// out\n        /* \"#utility.yul\":9544:9617   */\n    tag_140:\n        /* \"#utility.yul\":9589:9592   */\n      0x00\n        /* \"#utility.yul\":9544:9617   */\n      swap1\n      jump\t// out\n        /* \"#utility.yul\":9623:9812   */\n    tag_141:\n        /* \"#utility.yul\":9700:9732   */\n      tag_261\n      tag_140\n      jump\t// in\n    tag_261:\n        /* \"#utility.yul\":9741:9806   */\n      tag_262\n        /* \"#utility.yul\":9799:9805   */\n      dup2\n        /* \"#utility.yul\":9791:9797   */\n      dup5\n        /* \"#utility.yul\":9785:9789   */\n      dup5\n        /* \"#utility.yul\":9741:9806   */\n      tag_139\n      jump\t// in\n    tag_262:\n        /* \"#utility.yul\":9676:9812   */\n      pop\n        /* \"#utility.yul\":9623:9812   */\n      pop\n      pop\n      jump\t// out\n        /* \"#utility.yul\":9818:10004   */\n    tag_142:\n        /* \"#utility.yul\":9878:9998   */\n    tag_264:\n        /* \"#utility.yul\":9895:9898   */\n      dup2\n        /* \"#utility.yul\":9888:9893   */\n      dup2\n        /* \"#utility.yul\":9885:9899   */\n      lt\n        /* \"#utility.yul\":9878:9998   */\n      iszero\n      tag_266\n      jumpi\n        /* \"#utility.yul\":9949:9988   */\n      tag_267\n        /* \"#utility.yul\":9986:9987   */\n      0x00\n        /* \"#utility.yul\":9979:9984   */\n      dup3\n        /* \"#utility.yul\":9949:9988   */\n      tag_141\n      jump\t// in\n    tag_267:\n        /* \"#utility.yul\":9922:9923   */\n      0x01\n        /* \"#utility.yul\":9915:9920   */\n      dup2\n        /* \"#utility.yul\":9911:9924   */\n      add\n        /* \"#utility.yul\":9902:9924   */\n      swap1\n      pop\n        /* \"#utility.yul\":9878:9998   */\n      jump(tag_264)\n    tag_266:\n        /* \"#utility.yul\":9818:10004   */\n      pop\n      pop\n      jump\t// out\n        /* \"#utility.yul\":10010:10553   */\n    tag_143:\n        /* \"#utility.yul\":10111:10113   */\n      0x1f\n        /* \"#utility.yul\":10106:10109   */\n      dup3\n        /* \"#utility.yul\":10103:10114   */\n      gt\n        /* \"#utility.yul\":10100:10546   */\n      iszero\n      tag_269\n      jumpi\n        /* \"#utility.yul\":10145:10183   */\n      tag_270\n        /* \"#utility.yul\":10177:10182   */\n      dup2\n        /* \"#utility.yul\":10145:10183   */\n      tag_131\n      jump\t// in\n    tag_270:\n        /* \"#utility.yul\":10229:10258   */\n      tag_271\n        /* \"#utility.yul\":10247:10257   */\n      dup5\n        /* \"#utility.yul\":10229:10258   */\n      tag_132\n      jump\t// in\n    tag_271:\n        /* \"#utility.yul\":10219:10227   */\n      dup2\n        /* \"#utility.yul\":10215:10259   */\n      add\n        /* \"#utility.yul\":10412:10414   */\n      0x20\n        /* \"#utility.yul\":10400:10410   */\n      dup6\n        /* \"#utility.yul\":10397:10415   */\n      lt\n        /* \"#utility.yul\":10394:10443   */\n      iszero\n      tag_272\n      jumpi\n        /* \"#utility.yul\":10433:10441   */\n      dup2\n        /* \"#utility.yul\":10418:10441   */\n      swap1\n      pop\n        /* \"#utility.yul\":10394:10443   */\n    tag_272:\n        /* \"#utility.yul\":10456:10536   */\n      tag_273\n        /* \"#utility.yul\":10512:10534   */\n      tag_274\n        /* \"#utility.yul\":10530:10533   */\n      dup6\n        /* \"#utility.yul\":10512:10534   */\n      tag_132\n      jump\t// in\n    tag_274:\n        /* \"#utility.yul\":10502:10510   */\n      dup4\n        /* \"#utility.yul\":10498:10535   */\n      add\n        /* \"#utility.yul\":10485:10496   */\n      dup3\n        /* \"#utility.yul\":10456:10536   */\n      tag_142\n      jump\t// in\n    tag_273:\n        /* \"#utility.yul\":10115:10546   */\n      pop\n      pop\n        /* \"#utility.yul\":10100:10546   */\n    tag_269:\n        /* \"#utility.yul\":10010:10553   */\n      pop\n      pop\n      pop\n      jump\t// out\n        /* \"#utility.yul\":10559:10676   */\n    tag_144:\n        /* \"#utility.yul\":10613:10621   */\n      0x00\n        /* \"#utility.yul\":10663:10668   */\n      dup3\n        /* \"#utility.yul\":10657:10661   */\n      dup3\n        /* \"#utility.yul\":10653:10669   */\n      shr\n        /* \"#utility.yul\":10632:10669   */\n      swap1\n      pop\n        /* \"#utility.yul\":10559:10676   */\n      swap3\n      swap2\n      pop\n      pop\n      jump\t// out\n        /* \"#utility.yul\":10682:10851   */\n    tag_145:\n        /* \"#utility.yul\":10726:10732   */\n      0x00\n        /* \"#utility.yul\":10759:10810   */\n      tag_277\n        /* \"#utility.yul\":10807:10808   */\n      0x00\n        /* \"#utility.yul\":10803:10809   */\n      not\n        /* \"#utility.yul\":10795:10800   */\n      dup5\n        /* \"#utility.yul\":10792:10793   */\n      0x08\n        /* \"#utility.yul\":10788:10801   */\n      mul\n        /* \"#utility.yul\":10759:10810   */\n      tag_144\n      jump\t// in\n    tag_277:\n        /* \"#utility.yul\":10755:10811   */\n      not\n        /* \"#utility.yul\":10840:10844   */\n      dup1\n        /* \"#utility.yul\":10834:10838   */\n      dup4\n        /* \"#utility.yul\":10830:10845   */\n      and\n        /* \"#utility.yul\":10820:10845   */\n      swap2\n      pop\n        /* \"#utility.yul\":10733:10851   */\n      pop\n        /* \"#utility.yul\":10682:10851   */\n      swap3\n      swap2\n      pop\n      pop\n      jump\t// out\n        /* \"#utility.yul\":10856:11151   */\n    tag_146:\n        /* \"#utility.yul\":10932:10936   */\n      0x00\n        /* \"#utility.yul\":11078:11107   */\n      tag_279\n        /* \"#utility.yul\":11103:11106   */\n      dup4\n        /* \"#utility.yul\":11097:11101   */\n      dup4\n        /* \"#utility.yul\":11078:11107   */\n      tag_145\n      jump\t// in\n    tag_279:\n        /* \"#utility.yul\":11070:11107   */\n      swap2\n      pop\n        /* \"#utility.yul\":11140:11143   */\n      dup3\n        /* \"#utility.yul\":11137:11138   */\n      0x02\n        /* \"#utility.yul\":11133:11144   */\n      mul\n        /* \"#utility.yul\":11127:11131   */\n      dup3\n        /* \"#utility.yul\":11124:11145   */\n      or\n        /* \"#utility.yul\":11116:11145   */\n      swap1\n      pop\n        /* \"#utility.yul\":10856:11151   */\n      swap3\n      swap2\n      pop\n      pop\n      jump\t// out\n        /* \"#utility.yul\":11156:12551   */\n    tag_83:\n        /* \"#utility.yul\":11273:11310   */\n      tag_281\n        /* \"#utility.yul\":11306:11309   */\n      dup3\n        /* \"#utility.yul\":11273:11310   */\n      tag_113\n      jump\t// in\n    tag_281:\n        /* \"#utility.yul\":11375:11393   */\n      0xffffffffffffffff\n        /* \"#utility.yul\":11367:11373   */\n      dup2\n        /* \"#utility.yul\":11364:11394   */\n      gt\n        /* \"#utility.yul\":11361:11417   */\n      iszero\n      tag_282\n      jumpi\n        /* \"#utility.yul\":11397:11415   */\n      tag_283\n      tag_123\n      jump\t// in\n    tag_283:\n        /* \"#utility.yul\":11361:11417   */\n    tag_282:\n        /* \"#utility.yul\":11441:11479   */\n      tag_284\n        /* \"#utility.yul\":11473:11477   */\n      dup3\n        /* \"#utility.yul\":11467:11478   */\n      sload\n        /* \"#utility.yul\":11441:11479   */\n      tag_47\n      jump\t// in\n    tag_284:\n        /* \"#utility.yul\":11526:11593   */\n      tag_285\n        /* \"#utility.yul\":11586:11592   */\n      dup3\n        /* \"#utility.yul\":11578:11584   */\n      dup3\n        /* \"#utility.yul\":11572:11576   */\n      dup6\n        /* \"#utility.yul\":11526:11593   */\n      tag_143\n      jump\t// in\n    tag_285:\n        /* \"#utility.yul\":11620:11621   */\n      0x00\n        /* \"#utility.yul\":11644:11648   */\n      0x20\n        /* \"#utility.yul\":11631:11648   */\n      swap1\n      pop\n        /* \"#utility.yul\":11676:11678   */\n      0x1f\n        /* \"#utility.yul\":11668:11674   */\n      dup4\n        /* \"#utility.yul\":11665:11679   */\n      gt\n        /* \"#utility.yul\":11693:11694   */\n      0x01\n        /* \"#utility.yul\":11688:12306   */\n      dup2\n      eq\n      tag_287\n      jumpi\n        /* \"#utility.yul\":12350:12351   */\n      0x00\n        /* \"#utility.yul\":12367:12373   */\n      dup5\n        /* \"#utility.yul\":12364:12441   */\n      iszero\n      tag_288\n      jumpi\n        /* \"#utility.yul\":12416:12425   */\n      dup3\n        /* \"#utility.yul\":12411:12414   */\n      dup8\n        /* \"#utility.yul\":12407:12426   */\n      add\n        /* \"#utility.yul\":12401:12427   */\n      mload\n        /* \"#utility.yul\":12392:12427   */\n      swap1\n      pop\n        /* \"#utility.yul\":12364:12441   */\n    tag_288:\n        /* \"#utility.yul\":12467:12534   */\n      tag_289\n        /* \"#utility.yul\":12527:12533   */\n      dup6\n        /* \"#utility.yul\":12520:12525   */\n      dup3\n        /* \"#utility.yul\":12467:12534   */\n      tag_146\n      jump\t// in\n    tag_289:\n        /* \"#utility.yul\":12461:12465   */\n      dup7\n        /* \"#utility.yul\":12454:12535   */\n      sstore\n        /* \"#utility.yul\":12323:12545   */\n      pop\n        /* \"#utility.yul\":11658:12545   */\n      jump(tag_286)\n        /* \"#utility.yul\":11688:12306   */\n    tag_287:\n        /* \"#utility.yul\":11740:11744   */\n      0x1f\n        /* \"#utility.yul\":11736:11745   */\n      not\n        /* \"#utility.yul\":11728:11734   */\n      dup5\n        /* \"#utility.yul\":11724:11746   */\n      and\n        /* \"#utility.yul\":11774:11811   */\n      tag_290\n        /* \"#utility.yul\":11806:11810   */\n      dup7\n        /* \"#utility.yul\":11774:11811   */\n      tag_131\n      jump\t// in\n    tag_290:\n        /* \"#utility.yul\":11833:11834   */\n      0x00\n        /* \"#utility.yul\":11847:12055   */\n    tag_291:\n        /* \"#utility.yul\":11861:11868   */\n      dup3\n        /* \"#utility.yul\":11858:11859   */\n      dup2\n        /* \"#utility.yul\":11855:11869   */\n      lt\n        /* \"#utility.yul\":11847:12055   */\n      iszero\n      tag_293\n      jumpi\n        /* \"#utility.yul\":11940:11949   */\n      dup5\n        /* \"#utility.yul\":11935:11938   */\n      dup10\n        /* \"#utility.yul\":11931:11950   */\n      add\n        /* \"#utility.yul\":11925:11951   */\n      mload\n        /* \"#utility.yul\":11917:11923   */\n      dup3\n        /* \"#utility.yul\":11910:11952   */\n      sstore\n        /* \"#utility.yul\":11991:11992   */\n      0x01\n        /* \"#utility.yul\":11983:11989   */\n      dup3\n        /* \"#utility.yul\":11979:11993   */\n      add\n        /* \"#utility.yul\":11969:11993   */\n      swap2\n      pop\n        /* \"#utility.yul\":12038:12040   */\n      0x20\n        /* \"#utility.yul\":12027:12036   */\n      dup6\n        /* \"#utility.yul\":12023:12041   */\n      add\n        /* \"#utility.yul\":12010:12041   */\n      swap5\n      pop\n        /* \"#utility.yul\":11884:11888   */\n      0x20\n        /* \"#utility.yul\":11881:11882   */\n      dup2\n        /* \"#utility.yul\":11877:11889   */\n      add\n        /* \"#utility.yul\":11872:11889   */\n      swap1\n      pop\n        /* \"#utility.yul\":11847:12055   */\n      jump(tag_291)\n    tag_293:\n        /* \"#utility.yul\":12083:12089   */\n      dup7\n        /* \"#utility.yul\":12074:12081   */\n      dup4\n        /* \"#utility.yul\":12071:12090   */\n      lt\n        /* \"#utility.yul\":12068:12247   */\n      iszero\n      tag_294\n      jumpi\n        /* \"#utility.yul\":12141:12150   */\n      dup5\n        /* \"#utility.yul\":12136:12139   */\n      dup10\n        /* \"#utility.yul\":12132:12151   */\n      add\n        /* \"#utility.yul\":12126:12152   */\n      mload\n        /* \"#utility.yul\":12184:12232   */\n      tag_295\n        /* \"#utility.yul\":12226:12230   */\n      0x1f\n        /* \"#utility.yul\":12218:12224   */\n      dup10\n        /* \"#utility.yul\":12214:12231   */\n      and\n        /* \"#utility.yul\":12203:12212   */\n      dup3\n        /* \"#utility.yul\":12184:12232   */\n      tag_145\n      jump\t// in\n    tag_295:\n        /* \"#utility.yul\":12176:12182   */\n      dup4\n        /* \"#utility.yul\":12169:12233   */\n      sstore\n        /* \"#utility.yul\":12091:12247   */\n      pop\n        /* \"#utility.yul\":12068:12247   */\n    tag_294:\n        /* \"#utility.yul\":12293:12294   */\n      0x01\n        /* \"#utility.yul\":12289:12290   */\n      0x02\n        /* \"#utility.yul\":12281:12287   */\n      dup9\n        /* \"#utility.yul\":12277:12291   */\n      mul\n        /* \"#utility.yul\":12273:12295   */\n      add\n        /* \"#utility.yul\":12267:12271   */\n      dup9\n        /* \"#utility.yul\":12260:12296   */\n      sstore\n        /* \"#utility.yul\":11695:12306   */\n      pop\n      pop\n      pop\n        /* \"#utility.yul\":11658:12545   */\n    tag_286:\n      pop\n        /* \"#utility.yul\":11248:12551   */\n      pop\n      pop\n      pop\n        /* \"#utility.yul\":11156:12551   */\n      pop\n      pop\n      jump\t// out\n        /* \"#utility.yul\":12557:13071   */\n    tag_87:\n        /* \"#utility.yul\":12718:12722   */\n      0x00\n        /* \"#utility.yul\":12756:12758   */\n      0x40\n        /* \"#utility.yul\":12745:12754   */\n      dup3\n        /* \"#utility.yul\":12741:12759   */\n      add\n        /* \"#utility.yul\":12733:12759   */\n      swap1\n      pop\n        /* \"#utility.yul\":12805:12814   */\n      dup2\n        /* \"#utility.yul\":12799:12803   */\n      dup2\n        /* \"#utility.yul\":12795:12815   */\n      sub\n        /* \"#utility.yul\":12791:12792   */\n      0x00\n        /* \"#utility.yul\":12780:12789   */\n      dup4\n        /* \"#utility.yul\":12776:12793   */\n      add\n        /* \"#utility.yul\":12769:12816   */\n      mstore\n        /* \"#utility.yul\":12833:12911   */\n      tag_297\n        /* \"#utility.yul\":12906:12910   */\n      dup2\n        /* \"#utility.yul\":12897:12903   */\n      dup6\n        /* \"#utility.yul\":12833:12911   */\n      tag_117\n      jump\t// in\n    tag_297:\n        /* \"#utility.yul\":12825:12911   */\n      swap1\n      pop\n        /* \"#utility.yul\":12958:12967   */\n      dup2\n        /* \"#utility.yul\":12952:12956   */\n      dup2\n        /* \"#utility.yul\":12948:12968   */\n      sub\n        /* \"#utility.yul\":12943:12945   */\n      0x20\n        /* \"#utility.yul\":12932:12941   */\n      dup4\n        /* \"#utility.yul\":12928:12946   */\n      add\n        /* \"#utility.yul\":12921:12969   */\n      mstore\n        /* \"#utility.yul\":12986:13064   */\n      tag_298\n        /* \"#utility.yul\":13059:13063   */\n      dup2\n        /* \"#utility.yul\":13050:13056   */\n      dup5\n        /* \"#utility.yul\":12986:13064   */\n      tag_117\n      jump\t// in\n    tag_298:\n        /* \"#utility.yul\":12978:13064   */\n      swap1\n      pop\n        /* \"#utility.yul\":12557:13071   */\n      swap4\n      swap3\n      pop\n      pop\n      pop\n      jump\t// out\n        /* \"#utility.yul\":13077:13302   */\n    tag_147:\n        /* \"#utility.yul\":13217:13251   */\n      0x4f776e61626c653a206e6577206f776e657220697320746865207a65726f2061\n        /* \"#utility.yul\":13213:13214   */\n      0x00\n        /* \"#utility.yul\":13205:13211   */\n      dup3\n        /* \"#utility.yul\":13201:13215   */\n      add\n        /* \"#utility.yul\":13194:13252   */\n      mstore\n        /* \"#utility.yul\":13286:13294   */\n      0x6464726573730000000000000000000000000000000000000000000000000000\n        /* \"#utility.yul\":13281:13283   */\n      0x20\n        /* \"#utility.yul\":13273:13279   */\n      dup3\n        /* \"#utility.yul\":13269:13284   */\n      add\n        /* \"#utility.yul\":13262:13295   */\n      mstore\n        /* \"#utility.yul\":13077:13302   */\n      pop\n      jump\t// out\n        /* \"#utility.yul\":13308:13674   */\n    tag_148:\n        /* \"#utility.yul\":13450:13453   */\n      0x00\n        /* \"#utility.yul\":13471:13538   */\n      tag_301\n        /* \"#utility.yul\":13535:13537   */\n      0x26\n        /* \"#utility.yul\":13530:13533   */\n      dup4\n        /* \"#utility.yul\":13471:13538   */\n      tag_114\n      jump\t// in\n    tag_301:\n        /* \"#utility.yul\":13464:13538   */\n      swap2\n      pop\n        /* \"#utility.yul\":13547:13640   */\n      tag_302\n        /* \"#utility.yul\":13636:13639   */\n      dup3\n        /* \"#utility.yul\":13547:13640   */\n      tag_147\n      jump\t// in\n    tag_302:\n        /* \"#utility.yul\":13665:13667   */\n      0x40\n        /* \"#utility.yul\":13660:13663   */\n      dup3\n        /* \"#utility.yul\":13656:13668   */\n      add\n        /* \"#utility.yul\":13649:13668   */\n      swap1\n      pop\n        /* \"#utility.yul\":13308:13674   */\n      swap2\n      swap1\n      pop\n      jump\t// out\n        /* \"#utility.yul\":13680:14099   */\n    tag_93:\n        /* \"#utility.yul\":13846:13850   */\n      0x00\n        /* \"#utility.yul\":13884:13886   */\n      0x20\n        /* \"#utility.yul\":13873:13882   */\n      dup3\n        /* \"#utility.yul\":13869:13887   */\n      add\n        /* \"#utility.yul\":13861:13887   */\n      swap1\n      pop\n        /* \"#utility.yul\":13933:13942   */\n      dup2\n        /* \"#utility.yul\":13927:13931   */\n      dup2\n        /* \"#utility.yul\":13923:13943   */\n      sub\n        /* \"#utility.yul\":13919:13920   */\n      0x00\n        /* \"#utility.yul\":13908:13917   */\n      dup4\n        /* \"#utility.yul\":13904:13921   */\n      add\n        /* \"#utility.yul\":13897:13944   */\n      mstore\n        /* \"#utility.yul\":13961:14092   */\n      tag_304\n        /* \"#utility.yul\":14087:14091   */\n      dup2\n        /* \"#utility.yul\":13961:14092   */\n      tag_148\n      jump\t// in\n    tag_304:\n        /* \"#utility.yul\":13953:14092   */\n      swap1\n      pop\n        /* \"#utility.yul\":13680:14099   */\n      swap2\n      swap1\n      pop\n      jump\t// out\n        /* \"#utility.yul\":14105:14287   */\n    tag_149:\n        /* \"#utility.yul\":14245:14279   */\n      0x4f776e61626c653a2063616c6c6572206973206e6f7420746865206f776e6572\n        /* \"#utility.yul\":14241:14242   */\n      0x00\n        /* \"#utility.yul\":14233:14239   */\n      dup3\n        /* \"#utility.yul\":14229:14243   */\n      add\n        /* \"#utility.yul\":14222:14280   */\n      mstore\n        /* \"#utility.yul\":14105:14287   */\n      pop\n      jump\t// out\n        /* \"#utility.yul\":14293:14659   */\n    tag_150:\n        /* \"#utility.yul\":14435:14438   */\n      0x00\n        /* \"#utility.yul\":14456:14523   */\n      tag_307\n        /* \"#utility.yul\":14520:14522   */\n      0x20\n        /* \"#utility.yul\":14515:14518   */\n      dup4\n        /* \"#utility.yul\":14456:14523   */\n      tag_114\n      jump\t// in\n    tag_307:\n        /* \"#utility.yul\":14449:14523   */\n      swap2\n      pop\n        /* \"#utility.yul\":14532:14625   */\n      tag_308\n        /* \"#utility.yul\":14621:14624   */\n      dup3\n        /* \"#utility.yul\":14532:14625   */\n      tag_149\n      jump\t// in\n    tag_308:\n        /* \"#utility.yul\":14650:14652   */\n      0x20\n        /* \"#utility.yul\":14645:14648   */\n      dup3\n        /* \"#utility.yul\":14641:14653   */\n      add\n        /* \"#utility.yul\":14634:14653   */\n      swap1\n      pop\n        /* \"#utility.yul\":14293:14659   */\n      swap2\n      swap1\n      pop\n      jump\t// out\n        /* \"#utility.yul\":14665:15084   */\n    tag_101:\n        /* \"#utility.yul\":14831:14835   */\n      0x00\n        /* \"#utility.yul\":14869:14871   */\n      0x20\n        /* \"#utility.yul\":14858:14867   */\n      dup3\n        /* \"#utility.yul\":14854:14872   */\n      add\n        /* \"#utility.yul\":14846:14872   */\n      swap1\n      pop\n        /* \"#utility.yul\":14918:14927   */\n      dup2\n        /* \"#utility.yul\":14912:14916   */\n      dup2\n        /* \"#utility.yul\":14908:14928   */\n      sub\n        /* \"#utility.yul\":14904:14905   */\n      0x00\n        /* \"#utility.yul\":14893:14902   */\n      dup4\n        /* \"#utility.yul\":14889:14906   */\n      add\n        /* \"#utility.yul\":14882:14929   */\n      mstore\n        /* \"#utility.yul\":14946:15077   */\n      tag_310\n        /* \"#utility.yul\":15072:15076   */\n      dup2\n        /* \"#utility.yul\":14946:15077   */\n      tag_150\n      jump\t// in\n    tag_310:\n        /* \"#utility.yul\":14938:15077   */\n      swap1\n      pop\n        /* \"#utility.yul\":14665:15084   */\n      swap2\n      swap1\n      pop\n      jump\t// out\n\n    auxdata: 0xa2646970667358221220ef9fa6e2db7bb63e62fabd44ea7debcc3c29f9d3cb552c45c9001aabf1d63c5364736f6c63430008150033\n}\n",
				"bytecode": {
					"linkReferences": {},
					"object": "608060405234801561000f575f80fd5b5061002c61002161003160201b60201c565b61003860201b60201c565b6100f9565b5f33905090565b5f805f9054906101000a900473ffffffffffffffffffffffffffffffffffffffff169050815f806101000a81548173ffffffffffffffffffffffffffffffffffffffff021916908373ffffffffffffffffffffffffffffffffffffffff1602179055508173ffffffffffffffffffffffffffffffffffffffff168173ffffffffffffffffffffffffffffffffffffffff167f8be0079c531659141344cd1fd0a4f28419497f9722a3daafe3b4186f6b6457e060405160405180910390a35050565b6110ed806101065f395ff3fe608060405234801561000f575f80fd5b506004361061007b575f3560e01c80638da5cb5b116100595780638da5cb5b146100ec578063ab47a2f91461010a578063f1520abd1461013d578063f2fde38b146101595761007b565b806338d160111461007f578063715018a6146100af5780637eb606e8146100b9575b5f80fd5b61009960048036038101906100949190610931565b610175565b6040516100a69190610976565b60405180910390f35b6100b76101c9565b005b6100d360048036038101906100ce9190610931565b6101dc565b6040516100e39493929190610a19565b60405180910390f35b6100f46103a6565b6040516101019190610a80565b60405180910390f35b610124600480360381019061011f9190610931565b6103cd565b6040516101349493929190610a19565b60405180910390f35b61015760048036038101906101529190610bef565b6105dd565b005b610173600480360381019061016e9190610931565b6106fe565b005b5f60015f8373ffffffffffffffffffffffffffffffffffffffff1673ffffffffffffffffffffffffffffffffffffffff1681526020019081526020015f205f015f9054906101000a900460ff169050919050565b6101d1610780565b6101da5f6107fe565b565b6001602052805f5260405f205f91509050805f015f9054906101000a900460ff169080600101805461020d90610ce7565b80601f016020809104026020016040519081016040528092919081815260200182805461023990610ce7565b80156102845780601f1061025b57610100808354040283529160200191610284565b820191905f5260205f20905b81548152906001019060200180831161026757829003601f168201915b50505050509080600201805461029990610ce7565b80601f01602080910402602001604051908101604052809291908181526020018280546102c590610ce7565b80156103105780601f106102e757610100808354040283529160200191610310565b820191905f5260205f20905b8154815290600101906020018083116102f357829003601f168201915b50505050509080600301805461032590610ce7565b80601f016020809104026020016040519081016040528092919081815260200182805461035190610ce7565b801561039c5780601f106103735761010080835404028352916020019161039c565b820191905f5260205f20905b81548152906001019060200180831161037f57829003601f168201915b5050505050905084565b5f805f9054906101000a900473ffffffffffffffffffffffffffffffffffffffff16905090565b5f60608060605f60015f8773ffffffffffffffffffffffffffffffffffffffff1673ffffffffffffffffffffffffffffffffffffffff1681526020019081526020015f209050805f015f9054906101000a900460ff1681600101826002018360030182805461043b90610ce7565b80601f016020809104026020016040519081016040528092919081815260200182805461046790610ce7565b80156104b25780601f10610489576101008083540402835291602001916104b2565b820191905f5260205f20905b81548152906001019060200180831161049557829003601f168201915b505050505092508180546104c590610ce7565b80601f01602080910402602001604051908101604052809291908181526020018280546104f190610ce7565b801561053c5780601f106105135761010080835404028352916020019161053c565b820191905f5260205f20905b81548152906001019060200180831161051f57829003601f168201915b5050505050915080805461054f90610ce7565b80601f016020809104026020016040519081016040528092919081815260200182805461057b90610ce7565b80156105c65780601f1061059d576101008083540402835291602001916105c6565b820191905f5260205f20905b8154815290600101906020018083116105a957829003601f168201915b505050505090509450945094509450509193509193565b6105e5610780565b604051806080016040528085151581526020018481526020018381526020018281525060015f8773ffffffffffffffffffffffffffffffffffffffff1673ffffffffffffffffffffffffffffffffffffffff1681526020019081526020015f205f820151815f015f6101000a81548160ff02191690831515021790555060208201518160010190816106779190610ebd565b50604082015181600201908161068d9190610ebd565b5060608201518160030190816106a39190610ebd565b509050508473ffffffffffffffffffffffffffffffffffffffff167f63fd455a87b20232703553b6bb33d5c1aad29d7eb6a8f9c48fb90df9d3f080f184846040516106ef929190610f8c565b60405180910390a25050505050565b610706610780565b5f73ffffffffffffffffffffffffffffffffffffffff168173ffffffffffffffffffffffffffffffffffffffff1603610774576040517f08c379a000000000000000000000000000000000000000000000000000000000815260040161076b90611031565b60405180910390fd5b61077d816107fe565b50565b6107886108bf565b73ffffffffffffffffffffffffffffffffffffffff166107a66103a6565b73ffffffffffffffffffffffffffffffffffffffff16146107fc576040517f08c379a00000000000000000000000000000000000000000000000000000000081526004016107f390611099565b60405180910390fd5b565b5f805f9054906101000a900473ffffffffffffffffffffffffffffffffffffffff169050815f806101000a81548173ffffffffffffffffffffffffffffffffffffffff021916908373ffffffffffffffffffffffffffffffffffffffff1602179055508173ffffffffffffffffffffffffffffffffffffffff168173ffffffffffffffffffffffffffffffffffffffff167f8be0079c531659141344cd1fd0a4f28419497f9722a3daafe3b4186f6b6457e060405160405180910390a35050565b5f33905090565b5f604051905090565b5f80fd5b5f80fd5b5f73ffffffffffffffffffffffffffffffffffffffff82169050919050565b5f610900826108d7565b9050919050565b610910816108f6565b811461091a575f80fd5b50565b5f8135905061092b81610907565b92915050565b5f60208284031215610946576109456108cf565b5b5f6109538482850161091d565b91505092915050565b5f8115159050919050565b6109708161095c565b82525050565b5f6020820190506109895f830184610967565b92915050565b5f81519050919050565b5f82825260208201905092915050565b5f5b838110156109c65780820151818401526020810190506109ab565b5f8484015250505050565b5f601f19601f8301169050919050565b5f6109eb8261098f565b6109f58185610999565b9350610a058185602086016109a9565b610a0e816109d1565b840191505092915050565b5f608082019050610a2c5f830187610967565b8181036020830152610a3e81866109e1565b90508181036040830152610a5281856109e1565b90508181036060830152610a6681846109e1565b905095945050505050565b610a7a816108f6565b82525050565b5f602082019050610a935f830184610a71565b92915050565b610aa28161095c565b8114610aac575f80fd5b50565b5f81359050610abd81610a99565b92915050565b5f80fd5b5f80fd5b7f4e487b71000000000000000000000000000000000000000000000000000000005f52604160045260245ffd5b610b01826109d1565b810181811067ffffffffffffffff82111715610b2057610b1f610acb565b5b80604052505050565b5f610b326108c6565b9050610b3e8282610af8565b919050565b5f67ffffffffffffffff821115610b5d57610b5c610acb565b5b610b66826109d1565b9050602081019050919050565b828183375f83830152505050565b5f610b93610b8e84610b43565b610b29565b905082815260208101848484011115610baf57610bae610ac7565b5b610bba848285610b73565b509392505050565b5f82601f830112610bd657610bd5610ac3565b5b8135610be6848260208601610b81565b91505092915050565b5f805f805f60a08688031215610c0857610c076108cf565b5b5f610c158882890161091d565b9550506020610c2688828901610aaf565b945050604086013567ffffffffffffffff811115610c4757610c466108d3565b5b610c5388828901610bc2565b935050606086013567ffffffffffffffff811115610c7457610c736108d3565b5b610c8088828901610bc2565b925050608086013567ffffffffffffffff811115610ca157610ca06108d3565b5b610cad88828901610bc2565b9150509295509295909350565b7f4e487b71000000000000000000000000000000000000000000000000000000005f52602260045260245ffd5b5f6002820490506001821680610cfe57607f821691505b602082108103610d1157610d10610cba565b5b50919050565b5f819050815f5260205f209050919050565b5f6020601f8301049050919050565b5f82821b905092915050565b5f60088302610d737fffffffffffffffffffffffffffffffffffffffffffffffffffffffffffffffff82610d38565b610d7d8683610d38565b95508019841693508086168417925050509392505050565b5f819050919050565b5f819050919050565b5f610dc1610dbc610db784610d95565b610d9e565b610d95565b9050919050565b5f819050919050565b610dda83610da7565b610dee610de682610dc8565b848454610d44565b825550505050565b5f90565b610e02610df6565b610e0d818484610dd1565b505050565b5b81811015610e3057610e255f82610dfa565b600181019050610e13565b5050565b601f821115610e7557610e4681610d17565b610e4f84610d29565b81016020851015610e5e578190505b610e72610e6a85610d29565b830182610e12565b50505b505050565b5f82821c905092915050565b5f610e955f1984600802610e7a565b1980831691505092915050565b5f610ead8383610e86565b9150826002028217905092915050565b610ec68261098f565b67ffffffffffffffff811115610edf57610ede610acb565b5b610ee98254610ce7565b610ef4828285610e34565b5f60209050601f831160018114610f25575f8415610f13578287015190505b610f1d8582610ea2565b865550610f84565b601f198416610f3386610d17565b5f5b82811015610f5a57848901518255600182019150602085019450602081019050610f35565b86831015610f775784890151610f73601f891682610e86565b8355505b6001600288020188555050505b505050505050565b5f6040820190508181035f830152610fa481856109e1565b90508181036020830152610fb881846109e1565b90509392505050565b7f4f776e61626c653a206e6577206f776e657220697320746865207a65726f20615f8201527f6464726573730000000000000000000000000000000000000000000000000000602082015250565b5f61101b602683610999565b915061102682610fc1565b604082019050919050565b5f6020820190508181035f8301526110488161100f565b9050919050565b7f4f776e61626c653a2063616c6c6572206973206e6f7420746865206f776e65725f82015250565b5f611083602083610999565b915061108e8261104f565b602082019050919050565b5f6020820190508181035f8301526110b081611077565b905091905056fea2646970667358221220ef9fa6e2db7bb63e62fabd44ea7debcc3c29f9d3cb552c45c9001aabf1d63c5364736f6c63430008150033",
					"opcodes": "PUSH1 0x80 PUSH1 0x40 MSTORE CALLVALUE DUP1 ISZERO PUSH2 0xF JUMPI PUSH0 DUP1 REVERT JUMPDEST POP PUSH2 0x2C PUSH2 0x21 PUSH2 0x31 PUSH1 0x20 SHL PUSH1 0x20 SHR JUMP JUMPDEST PUSH2 0x38 PUSH1 0x20 SHL PUSH1 0x20 SHR JUMP JUMPDEST PUSH2 0xF9 JUMP JUMPDEST PUSH0 CALLER SWAP1 POP SWAP1 JUMP JUMPDEST PUSH0 DUP1 PUSH0 SWAP1 SLOAD SWAP1 PUSH2 0x100 EXP SWAP1 DIV PUSH20 0xFFFFFFFFFFFFFFFFFFFFFFFFFFFFFFFFFFFFFFFF AND SWAP1 POP DUP2 PUSH0 DUP1 PUSH2 0x100 EXP DUP2 SLOAD DUP2 PUSH20 0xFFFFFFFFFFFFFFFFFFFFFFFFFFFFFFFFFFFFFFFF MUL NOT AND SWAP1 DUP4 PUSH20 0xFFFFFFFFFFFFFFFFFFFFFFFFFFFFFFFFFFFFFFFF AND MUL OR SWAP1 SSTORE POP DUP2 PUSH20 0xFFFFFFFFFFFFFFFFFFFFFFFFFFFFFFFFFFFFFFFF AND DUP2 PUSH20 0xFFFFFFFFFFFFFFFFFFFFFFFFFFFFFFFFFFFFFFFF AND PUSH32 0x8BE0079C531659141344CD1FD0A4F28419497F9722A3DAAFE3B4186F6B6457E0 PUSH1 0x40 MLOAD PUSH1 0x40 MLOAD DUP1 SWAP2 SUB SWAP1 LOG3 POP POP JUMP JUMPDEST PUSH2 0x10ED DUP1 PUSH2 0x106 PUSH0 CODECOPY PUSH0 RETURN INVALID PUSH1 0x80 PUSH1 0x40 MSTORE CALLVALUE DUP1 ISZERO PUSH2 0xF JUMPI PUSH0 DUP1 REVERT JUMPDEST POP PUSH1 0x4 CALLDATASIZE LT PUSH2 0x7B JUMPI PUSH0 CALLDATALOAD PUSH1 0xE0 SHR DUP1 PUSH4 0x8DA5CB5B GT PUSH2 0x59 JUMPI DUP1 PUSH4 0x8DA5CB5B EQ PUSH2 0xEC JUMPI DUP1 PUSH4 0xAB47A2F9 EQ PUSH2 0x10A JUMPI DUP1 PUSH4 0xF1520ABD EQ PUSH2 0x13D JUMPI DUP1 PUSH4 0xF2FDE38B EQ PUSH2 0x159 JUMPI PUSH2 0x7B JUMP JUMPDEST DUP1 PUSH4 0x38D16011 EQ PUSH2 0x7F JUMPI DUP1 PUSH4 0x715018A6 EQ PUSH2 0xAF JUMPI DUP1 PUSH4 0x7EB606E8 EQ PUSH2 0xB9 JUMPI JUMPDEST PUSH0 DUP1 REVERT JUMPDEST PUSH2 0x99 PUSH1 0x4 DUP1 CALLDATASIZE SUB DUP2 ADD SWAP1 PUSH2 0x94 SWAP2 SWAP1 PUSH2 0x931 JUMP JUMPDEST PUSH2 0x175 JUMP JUMPDEST PUSH1 0x40 MLOAD PUSH2 0xA6 SWAP2 SWAP1 PUSH2 0x976 JUMP JUMPDEST PUSH1 0x40 MLOAD DUP1 SWAP2 SUB SWAP1 RETURN JUMPDEST PUSH2 0xB7 PUSH2 0x1C9 JUMP JUMPDEST STOP JUMPDEST PUSH2 0xD3 PUSH1 0x4 DUP1 CALLDATASIZE SUB DUP2 ADD SWAP1 PUSH2 0xCE SWAP2 SWAP1 PUSH2 0x931 JUMP JUMPDEST PUSH2 0x1DC JUMP JUMPDEST PUSH1 0x40 MLOAD PUSH2 0xE3 SWAP5 SWAP4 SWAP3 SWAP2 SWAP1 PUSH2 0xA19 JUMP JUMPDEST PUSH1 0x40 MLOAD DUP1 SWAP2 SUB SWAP1 RETURN JUMPDEST PUSH2 0xF4 PUSH2 0x3A6 JUMP JUMPDEST PUSH1 0x40 MLOAD PUSH2 0x101 SWAP2 SWAP1 PUSH2 0xA80 JUMP JUMPDEST PUSH1 0x40 MLOAD DUP1 SWAP2 SUB SWAP1 RETURN JUMPDEST PUSH2 0x124 PUSH1 0x4 DUP1 CALLDATASIZE SUB DUP2 ADD SWAP1 PUSH2 0x11F SWAP2 SWAP1 PUSH2 0x931 JUMP JUMPDEST PUSH2 0x3CD JUMP JUMPDEST PUSH1 0x40 MLOAD PUSH2 0x134 SWAP5 SWAP4 SWAP3 SWAP2 SWAP1 PUSH2 0xA19 JUMP JUMPDEST PUSH1 0x40 MLOAD DUP1 SWAP2 SUB SWAP1 RETURN JUMPDEST PUSH2 0x157 PUSH1 0x4 DUP1 CALLDATASIZE SUB DUP2 ADD SWAP1 PUSH2 0x152 SWAP2 SWAP1 PUSH2 0xBEF JUMP JUMPDEST PUSH2 0x5DD JUMP JUMPDEST STOP JUMPDEST PUSH2 0x173 PUSH1 0x4 DUP1 CALLDATASIZE SUB DUP2 ADD SWAP1 PUSH2 0x16E SWAP2 SWAP1 PUSH2 0x931 JUMP JUMPDEST PUSH2 0x6FE JUMP JUMPDEST STOP JUMPDEST PUSH0 PUSH1 0x1 PUSH0 DUP4 PUSH20 0xFFFFFFFFFFFFFFFFFFFFFFFFFFFFFFFFFFFFFFFF AND PUSH20 0xFFFFFFFFFFFFFFFFFFFFFFFFFFFFFFFFFFFFFFFF AND DUP2 MSTORE PUSH1 0x20 ADD SWAP1 DUP2 MSTORE PUSH1 0x20 ADD PUSH0 KECCAK256 PUSH0 ADD PUSH0 SWAP1 SLOAD SWAP1 PUSH2 0x100 EXP SWAP1 DIV PUSH1 0xFF AND SWAP1 POP SWAP2 SWAP1 POP JUMP JUMPDEST PUSH2 0x1D1 PUSH2 0x780 JUMP JUMPDEST PUSH2 0x1DA PUSH0 PUSH2 0x7FE JUMP JUMPDEST JUMP JUMPDEST PUSH1 0x1 PUSH1 0x20 MSTORE DUP1 PUSH0 MSTORE PUSH1 0x40 PUSH0 KECCAK256 PUSH0 SWAP2 POP SWAP1 POP DUP1 PUSH0 ADD PUSH0 SWAP1 SLOAD SWAP1 PUSH2 0x100 EXP SWAP1 DIV PUSH1 0xFF AND SWAP1 DUP1 PUSH1 0x1 ADD DUP1 SLOAD PUSH2 0x20D SWAP1 PUSH2 0xCE7 JUMP JUMPDEST DUP1 PUSH1 0x1F ADD PUSH1 0x20 DUP1 SWAP2 DIV MUL PUSH1 0x20 ADD PUSH1 0x40 MLOAD SWAP1 DUP2 ADD PUSH1 0x40 MSTORE DUP1 SWAP3 SWAP2 SWAP1 DUP2 DUP2 MSTORE PUSH1 0x20 ADD DUP3 DUP1 SLOAD PUSH2 0x239 SWAP1 PUSH2 0xCE7 JUMP JUMPDEST DUP1 ISZERO PUSH2 0x284 JUMPI DUP1 PUSH1 0x1F LT PUSH2 0x25B JUMPI PUSH2 0x100 DUP1 DUP4 SLOAD DIV MUL DUP4 MSTORE SWAP2 PUSH1 0x20 ADD SWAP2 PUSH2 0x284 JUMP JUMPDEST DUP3 ADD SWAP2 SWAP1 PUSH0 MSTORE PUSH1 0x20 PUSH0 KECCAK256 SWAP1 JUMPDEST DUP2 SLOAD DUP2 MSTORE SWAP1 PUSH1 0x1 ADD SWAP1 PUSH1 0x20 ADD DUP1 DUP4 GT PUSH2 0x267 JUMPI DUP3 SWAP1 SUB PUSH1 0x1F AND DUP3 ADD SWAP2 JUMPDEST POP POP POP POP POP SWAP1 DUP1 PUSH1 0x2 ADD DUP1 SLOAD PUSH2 0x299 SWAP1 PUSH2 0xCE7 JUMP JUMPDEST DUP1 PUSH1 0x1F ADD PUSH1 0x20 DUP1 SWAP2 DIV MUL PUSH1 0x20 ADD PUSH1 0x40 MLOAD SWAP1 DUP2 ADD PUSH1 0x40 MSTORE DUP1 SWAP3 SWAP2 SWAP1 DUP2 DUP2 MSTORE PUSH1 0x20 ADD DUP3 DUP1 SLOAD PUSH2 0x2C5 SWAP1 PUSH2 0xCE7 JUMP JUMPDEST DUP1 ISZERO PUSH2 0x310 JUMPI DUP1 PUSH1 0x1F LT PUSH2 0x2E7 JUMPI PUSH2 0x100 DUP1 DUP4 SLOAD DIV MUL DUP4 MSTORE SWAP2 PUSH1 0x20 ADD SWAP2 PUSH2 0x310 JUMP JUMPDEST DUP3 ADD SWAP2 SWAP1 PUSH0 MSTORE PUSH1 0x20 PUSH0 KECCAK256 SWAP1 JUMPDEST DUP2 SLOAD DUP2 MSTORE SWAP1 PUSH1 0x1 ADD SWAP1 PUSH1 0x20 ADD DUP1 DUP4 GT PUSH2 0x2F3 JUMPI DUP3 SWAP1 SUB PUSH1 0x1F AND DUP3 ADD SWAP2 JUMPDEST POP POP POP POP POP SWAP1 DUP1 PUSH1 0x3 ADD DUP1 SLOAD PUSH2 0x325 SWAP1 PUSH2 0xCE7 JUMP JUMPDEST DUP1 PUSH1 0x1F ADD PUSH1 0x20 DUP1 SWAP2 DIV MUL PUSH1 0x20 ADD PUSH1 0x40 MLOAD SWAP1 DUP2 ADD PUSH1 0x40 MSTORE DUP1 SWAP3 SWAP2 SWAP1 DUP2 DUP2 MSTORE PUSH1 0x20 ADD DUP3 DUP1 SLOAD PUSH2 0x351 SWAP1 PUSH2 0xCE7 JUMP JUMPDEST DUP1 ISZERO PUSH2 0x39C JUMPI DUP1 PUSH1 0x1F LT PUSH2 0x373 JUMPI PUSH2 0x100 DUP1 DUP4 SLOAD DIV MUL DUP4 MSTORE SWAP2 PUSH1 0x20 ADD SWAP2 PUSH2 0x39C JUMP JUMPDEST DUP3 ADD SWAP2 SWAP1 PUSH0 MSTORE PUSH1 0x20 PUSH0 KECCAK256 SWAP1 JUMPDEST DUP2 SLOAD DUP2 MSTORE SWAP1 PUSH1 0x1 ADD SWAP1 PUSH1 0x20 ADD DUP1 DUP4 GT PUSH2 0x37F JUMPI DUP3 SWAP1 SUB PUSH1 0x1F AND DUP3 ADD SWAP2 JUMPDEST POP POP POP POP POP SWAP1 POP DUP5 JUMP JUMPDEST PUSH0 DUP1 PUSH0 SWAP1 SLOAD SWAP1 PUSH2 0x100 EXP SWAP1 DIV PUSH20 0xFFFFFFFFFFFFFFFFFFFFFFFFFFFFFFFFFFFFFFFF AND SWAP1 POP SWAP1 JUMP JUMPDEST PUSH0 PUSH1 0x60 DUP1 PUSH1 0x60 PUSH0 PUSH1 0x1 PUSH0 DUP8 PUSH20 0xFFFFFFFFFFFFFFFFFFFFFFFFFFFFFFFFFFFFFFFF AND PUSH20 0xFFFFFFFFFFFFFFFFFFFFFFFFFFFFFFFFFFFFFFFF AND DUP2 MSTORE PUSH1 0x20 ADD SWAP1 DUP2 MSTORE PUSH1 0x20 ADD PUSH0 KECCAK256 SWAP1 POP DUP1 PUSH0 ADD PUSH0 SWAP1 SLOAD SWAP1 PUSH2 0x100 EXP SWAP1 DIV PUSH1 0xFF AND DUP2 PUSH1 0x1 ADD DUP3 PUSH1 0x2 ADD DUP4 PUSH1 0x3 ADD DUP3 DUP1 SLOAD PUSH2 0x43B SWAP1 PUSH2 0xCE7 JUMP JUMPDEST DUP1 PUSH1 0x1F ADD PUSH1 0x20 DUP1 SWAP2 DIV MUL PUSH1 0x20 ADD PUSH1 0x40 MLOAD SWAP1 DUP2 ADD PUSH1 0x40 MSTORE DUP1 SWAP3 SWAP2 SWAP1 DUP2 DUP2 MSTORE PUSH1 0x20 ADD DUP3 DUP1 SLOAD PUSH2 0x467 SWAP1 PUSH2 0xCE7 JUMP JUMPDEST DUP1 ISZERO PUSH2 0x4B2 JUMPI DUP1 PUSH1 0x1F LT PUSH2 0x489 JUMPI PUSH2 0x100 DUP1 DUP4 SLOAD DIV MUL DUP4 MSTORE SWAP2 PUSH1 0x20 ADD SWAP2 PUSH2 0x4B2 JUMP JUMPDEST DUP3 ADD SWAP2 SWAP1 PUSH0 MSTORE PUSH1 0x20 PUSH0 KECCAK256 SWAP1 JUMPDEST DUP2 SLOAD DUP2 MSTORE SWAP1 PUSH1 0x1 ADD SWAP1 PUSH1 0x20 ADD DUP1 DUP4 GT PUSH2 0x495 JUMPI DUP3 SWAP1 SUB PUSH1 0x1F AND DUP3 ADD SWAP2 JUMPDEST POP POP POP POP POP SWAP3 POP DUP2 DUP1 SLOAD PUSH2 0x4C5 SWAP1 PUSH2 0xCE7 JUMP JUMPDEST DUP1 PUSH1 0x1F ADD PUSH1 0x20 DUP1 SWAP2 DIV MUL PUSH1 0x20 ADD PUSH1 0x40 MLOAD SWAP1 DUP2 ADD PUSH1 0x40 MSTORE DUP1 SWAP3 SWAP2 SWAP1 DUP2 DUP2 MSTORE PUSH1 0x20 ADD DUP3 DUP1 SLOAD PUSH2 0x4F1 SWAP1 PUSH2 0xCE7 JUMP JUMPDEST DUP1 ISZERO PUSH2 0x53C JUMPI DUP1 PUSH1 0x1F LT PUSH2 0x513 JUMPI PUSH2 0x100 DUP1 DUP4 SLOAD DIV MUL DUP4 MSTORE SWAP2 PUSH1 0x20 ADD SWAP2 PUSH2 0x53C JUMP JUMPDEST DUP3 ADD SWAP2 SWAP1 PUSH0 MSTORE PUSH1 0x20 PUSH0 KECCAK256 SWAP1 JUMPDEST DUP2 SLOAD DUP2 MSTORE SWAP1 PUSH1 0x1 ADD SWAP1 PUSH1 0x20 ADD DUP1 DUP4 GT PUSH2 0x51F JUMPI DUP3 SWAP1 SUB PUSH1 0x1F AND DUP3 ADD SWAP2 JUMPDEST POP POP POP POP POP SWAP2 POP DUP1 DUP1 SLOAD PUSH2 0x54F SWAP1 PUSH2 0xCE7 JUMP JUMPDEST DUP1 PUSH1 0x1F ADD PUSH1 0x20 DUP1 SWAP2 DIV MUL PUSH1 0x20 ADD PUSH1 0x40 MLOAD SWAP1 DUP2 ADD PUSH1 0x40 MSTORE DUP1 SWAP3 SWAP2 SWAP1 DUP2 DUP2 MSTORE PUSH1 0x20 ADD DUP3 DUP1 SLOAD PUSH2 0x57B SWAP1 PUSH2 0xCE7 JUMP JUMPDEST DUP1 ISZERO PUSH2 0x5C6 JUMPI DUP1 PUSH1 0x1F LT PUSH2 0x59D JUMPI PUSH2 0x100 DUP1 DUP4 SLOAD DIV MUL DUP4 MSTORE SWAP2 PUSH1 0x20 ADD SWAP2 PUSH2 0x5C6 JUMP JUMPDEST DUP3 ADD SWAP2 SWAP1 PUSH0 MSTORE PUSH1 0x20 PUSH0 KECCAK256 SWAP1 JUMPDEST DUP2 SLOAD DUP2 MSTORE SWAP1 PUSH1 0x1 ADD SWAP1 PUSH1 0x20 ADD DUP1 DUP4 GT PUSH2 0x5A9 JUMPI DUP3 SWAP1 SUB PUSH1 0x1F AND DUP3 ADD SWAP2 JUMPDEST POP POP POP POP POP SWAP1 POP SWAP5 POP SWAP5 POP SWAP5 POP SWAP5 POP POP SWAP2 SWAP4 POP SWAP2 SWAP4 JUMP JUMPDEST PUSH2 0x5E5 PUSH2 0x780 JUMP JUMPDEST PUSH1 0x40 MLOAD DUP1 PUSH1 0x80 ADD PUSH1 0x40 MSTORE DUP1 DUP6 ISZERO ISZERO DUP2 MSTORE PUSH1 0x20 ADD DUP5 DUP2 MSTORE PUSH1 0x20 ADD DUP4 DUP2 MSTORE PUSH1 0x20 ADD DUP3 DUP2 MSTORE POP PUSH1 0x1 PUSH0 DUP8 PUSH20 0xFFFFFFFFFFFFFFFFFFFFFFFFFFFFFFFFFFFFFFFF AND PUSH20 0xFFFFFFFFFFFFFFFFFFFFFFFFFFFFFFFFFFFFFFFF AND DUP2 MSTORE PUSH1 0x20 ADD SWAP1 DUP2 MSTORE PUSH1 0x20 ADD PUSH0 KECCAK256 PUSH0 DUP3 ADD MLOAD DUP2 PUSH0 ADD PUSH0 PUSH2 0x100 EXP DUP2 SLOAD DUP2 PUSH1 0xFF MUL NOT AND SWAP1 DUP4 ISZERO ISZERO MUL OR SWAP1 SSTORE POP PUSH1 0x20 DUP3 ADD MLOAD DUP2 PUSH1 0x1 ADD SWAP1 DUP2 PUSH2 0x677 SWAP2 SWAP1 PUSH2 0xEBD JUMP JUMPDEST POP PUSH1 0x40 DUP3 ADD MLOAD DUP2 PUSH1 0x2 ADD SWAP1 DUP2 PUSH2 0x68D SWAP2 SWAP1 PUSH2 0xEBD JUMP JUMPDEST POP PUSH1 0x60 DUP3 ADD MLOAD DUP2 PUSH1 0x3 ADD SWAP1 DUP2 PUSH2 0x6A3 SWAP2 SWAP1 PUSH2 0xEBD JUMP JUMPDEST POP SWAP1 POP POP DUP5 PUSH20 0xFFFFFFFFFFFFFFFFFFFFFFFFFFFFFFFFFFFFFFFF AND PUSH32 0x63FD455A87B20232703553B6BB33D5C1AAD29D7EB6A8F9C48FB90DF9D3F080F1 DUP5 DUP5 PUSH1 0x40 MLOAD PUSH2 0x6EF SWAP3 SWAP2 SWAP1 PUSH2 0xF8C JUMP JUMPDEST PUSH1 0x40 MLOAD DUP1 SWAP2 SUB SWAP1 LOG2 POP POP POP POP POP JUMP JUMPDEST PUSH2 0x706 PUSH2 0x780 JUMP JUMPDEST PUSH0 PUSH20 0xFFFFFFFFFFFFFFFFFFFFFFFFFFFFFFFFFFFFFFFF AND DUP2 PUSH20 0xFFFFFFFFFFFFFFFFFFFFFFFFFFFFFFFFFFFFFFFF AND SUB PUSH2 0x774 JUMPI PUSH1 0x40 MLOAD PUSH32 0x8C379A000000000000000000000000000000000000000000000000000000000 DUP2 MSTORE PUSH1 0x4 ADD PUSH2 0x76B SWAP1 PUSH2 0x1031 JUMP JUMPDEST PUSH1 0x40 MLOAD DUP1 SWAP2 SUB SWAP1 REVERT JUMPDEST PUSH2 0x77D DUP2 PUSH2 0x7FE JUMP JUMPDEST POP JUMP JUMPDEST PUSH2 0x788 PUSH2 0x8BF JUMP JUMPDEST PUSH20 0xFFFFFFFFFFFFFFFFFFFFFFFFFFFFFFFFFFFFFFFF AND PUSH2 0x7A6 PUSH2 0x3A6 JUMP JUMPDEST PUSH20 0xFFFFFFFFFFFFFFFFFFFFFFFFFFFFFFFFFFFFFFFF AND EQ PUSH2 0x7FC JUMPI PUSH1 0x40 MLOAD PUSH32 0x8C379A000000000000000000000000000000000000000000000000000000000 DUP2 MSTORE PUSH1 0x4 ADD PUSH2 0x7F3 SWAP1 PUSH2 0x1099 JUMP JUMPDEST PUSH1 0x40 MLOAD DUP1 SWAP2 SUB SWAP1 REVERT JUMPDEST JUMP JUMPDEST PUSH0 DUP1 PUSH0 SWAP1 SLOAD SWAP1 PUSH2 0x100 EXP SWAP1 DIV PUSH20 0xFFFFFFFFFFFFFFFFFFFFFFFFFFFFFFFFFFFFFFFF AND SWAP1 POP DUP2 PUSH0 DUP1 PUSH2 0x100 EXP DUP2 SLOAD DUP2 PUSH20 0xFFFFFFFFFFFFFFFFFFFFFFFFFFFFFFFFFFFFFFFF MUL NOT AND SWAP1 DUP4 PUSH20 0xFFFFFFFFFFFFFFFFFFFFFFFFFFFFFFFFFFFFFFFF AND MUL OR SWAP1 SSTORE POP DUP2 PUSH20 0xFFFFFFFFFFFFFFFFFFFFFFFFFFFFFFFFFFFFFFFF AND DUP2 PUSH20 0xFFFFFFFFFFFFFFFFFFFFFFFFFFFFFFFFFFFFFFFF AND PUSH32 0x8BE0079C531659141344CD1FD0A4F28419497F9722A3DAAFE3B4186F6B6457E0 PUSH1 0x40 MLOAD PUSH1 0x40 MLOAD DUP1 SWAP2 SUB SWAP1 LOG3 POP POP JUMP JUMPDEST PUSH0 CALLER SWAP1 POP SWAP1 JUMP JUMPDEST PUSH0 PUSH1 0x40 MLOAD SWAP1 POP SWAP1 JUMP JUMPDEST PUSH0 DUP1 REVERT JUMPDEST PUSH0 DUP1 REVERT JUMPDEST PUSH0 PUSH20 0xFFFFFFFFFFFFFFFFFFFFFFFFFFFFFFFFFFFFFFFF DUP3 AND SWAP1 POP SWAP2 SWAP1 POP JUMP JUMPDEST PUSH0 PUSH2 0x900 DUP3 PUSH2 0x8D7 JUMP JUMPDEST SWAP1 POP SWAP2 SWAP1 POP JUMP JUMPDEST PUSH2 0x910 DUP2 PUSH2 0x8F6 JUMP JUMPDEST DUP2 EQ PUSH2 0x91A JUMPI PUSH0 DUP1 REVERT JUMPDEST POP JUMP JUMPDEST PUSH0 DUP2 CALLDATALOAD SWAP1 POP PUSH2 0x92B DUP2 PUSH2 0x907 JUMP JUMPDEST SWAP3 SWAP2 POP POP JUMP JUMPDEST PUSH0 PUSH1 0x20 DUP3 DUP5 SUB SLT ISZERO PUSH2 0x946 JUMPI PUSH2 0x945 PUSH2 0x8CF JUMP JUMPDEST JUMPDEST PUSH0 PUSH2 0x953 DUP5 DUP3 DUP6 ADD PUSH2 0x91D JUMP JUMPDEST SWAP2 POP POP SWAP3 SWAP2 POP POP JUMP JUMPDEST PUSH0 DUP2 ISZERO ISZERO SWAP1 POP SWAP2 SWAP1 POP JUMP JUMPDEST PUSH2 0x970 DUP2 PUSH2 0x95C JUMP JUMPDEST DUP3 MSTORE POP POP JUMP JUMPDEST PUSH0 PUSH1 0x20 DUP3 ADD SWAP1 POP PUSH2 0x989 PUSH0 DUP4 ADD DUP5 PUSH2 0x967 JUMP JUMPDEST SWAP3 SWAP2 POP POP JUMP JUMPDEST PUSH0 DUP2 MLOAD SWAP1 POP SWAP2 SWAP1 POP JUMP JUMPDEST PUSH0 DUP3 DUP3 MSTORE PUSH1 0x20 DUP3 ADD SWAP1 POP SWAP3 SWAP2 POP POP JUMP JUMPDEST PUSH0 JUMPDEST DUP4 DUP2 LT ISZERO PUSH2 0x9C6 JUMPI DUP1 DUP3 ADD MLOAD DUP2 DUP5 ADD MSTORE PUSH1 0x20 DUP2 ADD SWAP1 POP PUSH2 0x9AB JUMP JUMPDEST PUSH0 DUP5 DUP5 ADD MSTORE POP POP POP POP JUMP JUMPDEST PUSH0 PUSH1 0x1F NOT PUSH1 0x1F DUP4 ADD AND SWAP1 POP SWAP2 SWAP1 POP JUMP JUMPDEST PUSH0 PUSH2 0x9EB DUP3 PUSH2 0x98F JUMP JUMPDEST PUSH2 0x9F5 DUP2 DUP6 PUSH2 0x999 JUMP JUMPDEST SWAP4 POP PUSH2 0xA05 DUP2 DUP6 PUSH1 0x20 DUP7 ADD PUSH2 0x9A9 JUMP JUMPDEST PUSH2 0xA0E DUP2 PUSH2 0x9D1 JUMP JUMPDEST DUP5 ADD SWAP2 POP POP SWAP3 SWAP2 POP POP JUMP JUMPDEST PUSH0 PUSH1 0x80 DUP3 ADD SWAP1 POP PUSH2 0xA2C PUSH0 DUP4 ADD DUP8 PUSH2 0x967 JUMP JUMPDEST DUP2 DUP2 SUB PUSH1 0x20 DUP4 ADD MSTORE PUSH2 0xA3E DUP2 DUP7 PUSH2 0x9E1 JUMP JUMPDEST SWAP1 POP DUP2 DUP2 SUB PUSH1 0x40 DUP4 ADD MSTORE PUSH2 0xA52 DUP2 DUP6 PUSH2 0x9E1 JUMP JUMPDEST SWAP1 POP DUP2 DUP2 SUB PUSH1 0x60 DUP4 ADD MSTORE PUSH2 0xA66 DUP2 DUP5 PUSH2 0x9E1 JUMP JUMPDEST SWAP1 POP SWAP6 SWAP5 POP POP POP POP POP JUMP JUMPDEST PUSH2 0xA7A DUP2 PUSH2 0x8F6 JUMP JUMPDEST DUP3 MSTORE POP POP JUMP JUMPDEST PUSH0 PUSH1 0x20 DUP3 ADD SWAP1 POP PUSH2 0xA93 PUSH0 DUP4 ADD DUP5 PUSH2 0xA71 JUMP JUMPDEST SWAP3 SWAP2 POP POP JUMP JUMPDEST PUSH2 0xAA2 DUP2 PUSH2 0x95C JUMP JUMPDEST DUP2 EQ PUSH2 0xAAC JUMPI PUSH0 DUP1 REVERT JUMPDEST POP JUMP JUMPDEST PUSH0 DUP2 CALLDATALOAD SWAP1 POP PUSH2 0xABD DUP2 PUSH2 0xA99 JUMP JUMPDEST SWAP3 SWAP2 POP POP JUMP JUMPDEST PUSH0 DUP1 REVERT JUMPDEST PUSH0 DUP1 REVERT JUMPDEST PUSH32 0x4E487B7100000000000000000000000000000000000000000000000000000000 PUSH0 MSTORE PUSH1 0x41 PUSH1 0x4 MSTORE PUSH1 0x24 PUSH0 REVERT JUMPDEST PUSH2 0xB01 DUP3 PUSH2 0x9D1 JUMP JUMPDEST DUP2 ADD DUP2 DUP2 LT PUSH8 0xFFFFFFFFFFFFFFFF DUP3 GT OR ISZERO PUSH2 0xB20 JUMPI PUSH2 0xB1F PUSH2 0xACB JUMP JUMPDEST JUMPDEST DUP1 PUSH1 0x40 MSTORE POP POP POP JUMP JUMPDEST PUSH0 PUSH2 0xB32 PUSH2 0x8C6 JUMP JUMPDEST SWAP1 POP PUSH2 0xB3E DUP3 DUP3 PUSH2 0xAF8 JUMP JUMPDEST SWAP2 SWAP1 POP JUMP JUMPDEST PUSH0 PUSH8 0xFFFFFFFFFFFFFFFF DUP3 GT ISZERO PUSH2 0xB5D JUMPI PUSH2 0xB5C PUSH2 0xACB JUMP JUMPDEST JUMPDEST PUSH2 0xB66 DUP3 PUSH2 0x9D1 JUMP JUMPDEST SWAP1 POP PUSH1 0x20 DUP2 ADD SWAP1 POP SWAP2 SWAP1 POP JUMP JUMPDEST DUP3 DUP2 DUP4 CALLDATACOPY PUSH0 DUP4 DUP4 ADD MSTORE POP POP POP JUMP JUMPDEST PUSH0 PUSH2 0xB93 PUSH2 0xB8E DUP5 PUSH2 0xB43 JUMP JUMPDEST PUSH2 0xB29 JUMP JUMPDEST SWAP1 POP DUP3 DUP2 MSTORE PUSH1 0x20 DUP2 ADD DUP5 DUP5 DUP5 ADD GT ISZERO PUSH2 0xBAF JUMPI PUSH2 0xBAE PUSH2 0xAC7 JUMP JUMPDEST JUMPDEST PUSH2 0xBBA DUP5 DUP3 DUP6 PUSH2 0xB73 JUMP JUMPDEST POP SWAP4 SWAP3 POP POP POP JUMP JUMPDEST PUSH0 DUP3 PUSH1 0x1F DUP4 ADD SLT PUSH2 0xBD6 JUMPI PUSH2 0xBD5 PUSH2 0xAC3 JUMP JUMPDEST JUMPDEST DUP2 CALLDATALOAD PUSH2 0xBE6 DUP5 DUP3 PUSH1 0x20 DUP7 ADD PUSH2 0xB81 JUMP JUMPDEST SWAP2 POP POP SWAP3 SWAP2 POP POP JUMP JUMPDEST PUSH0 DUP1 PUSH0 DUP1 PUSH0 PUSH1 0xA0 DUP7 DUP9 SUB SLT ISZERO PUSH2 0xC08 JUMPI PUSH2 0xC07 PUSH2 0x8CF JUMP JUMPDEST JUMPDEST PUSH0 PUSH2 0xC15 DUP9 DUP3 DUP10 ADD PUSH2 0x91D JUMP JUMPDEST SWAP6 POP POP PUSH1 0x20 PUSH2 0xC26 DUP9 DUP3 DUP10 ADD PUSH2 0xAAF JUMP JUMPDEST SWAP5 POP POP PUSH1 0x40 DUP7 ADD CALLDATALOAD PUSH8 0xFFFFFFFFFFFFFFFF DUP2 GT ISZERO PUSH2 0xC47 JUMPI PUSH2 0xC46 PUSH2 0x8D3 JUMP JUMPDEST JUMPDEST PUSH2 0xC53 DUP9 DUP3 DUP10 ADD PUSH2 0xBC2 JUMP JUMPDEST SWAP4 POP POP PUSH1 0x60 DUP7 ADD CALLDATALOAD PUSH8 0xFFFFFFFFFFFFFFFF DUP2 GT ISZERO PUSH2 0xC74 JUMPI PUSH2 0xC73 PUSH2 0x8D3 JUMP JUMPDEST JUMPDEST PUSH2 0xC80 DUP9 DUP3 DUP10 ADD PUSH2 0xBC2 JUMP JUMPDEST SWAP3 POP POP PUSH1 0x80 DUP7 ADD CALLDATALOAD PUSH8 0xFFFFFFFFFFFFFFFF DUP2 GT ISZERO PUSH2 0xCA1 JUMPI PUSH2 0xCA0 PUSH2 0x8D3 JUMP JUMPDEST JUMPDEST PUSH2 0xCAD DUP9 DUP3 DUP10 ADD PUSH2 0xBC2 JUMP JUMPDEST SWAP2 POP POP SWAP3 SWAP6 POP SWAP3 SWAP6 SWAP1 SWAP4 POP JUMP JUMPDEST PUSH32 0x4E487B7100000000000000000000000000000000000000000000000000000000 PUSH0 MSTORE PUSH1 0x22 PUSH1 0x4 MSTORE PUSH1 0x24 PUSH0 REVERT JUMPDEST PUSH0 PUSH1 0x2 DUP3 DIV SWAP1 POP PUSH1 0x1 DUP3 AND DUP1 PUSH2 0xCFE JUMPI PUSH1 0x7F DUP3 AND SWAP2 POP JUMPDEST PUSH1 0x20 DUP3 LT DUP2 SUB PUSH2 0xD11 JUMPI PUSH2 0xD10 PUSH2 0xCBA JUMP JUMPDEST JUMPDEST POP SWAP2 SWAP1 POP JUMP JUMPDEST PUSH0 DUP2 SWAP1 POP DUP2 PUSH0 MSTORE PUSH1 0x20 PUSH0 KECCAK256 SWAP1 POP SWAP2 SWAP1 POP JUMP JUMPDEST PUSH0 PUSH1 0x20 PUSH1 0x1F DUP4 ADD DIV SWAP1 POP SWAP2 SWAP1 POP JUMP JUMPDEST PUSH0 DUP3 DUP3 SHL SWAP1 POP SWAP3 SWAP2 POP POP JUMP JUMPDEST PUSH0 PUSH1 0x8 DUP4 MUL PUSH2 0xD73 PUSH32 0xFFFFFFFFFFFFFFFFFFFFFFFFFFFFFFFFFFFFFFFFFFFFFFFFFFFFFFFFFFFFFFFF DUP3 PUSH2 0xD38 JUMP JUMPDEST PUSH2 0xD7D DUP7 DUP4 PUSH2 0xD38 JUMP JUMPDEST SWAP6 POP DUP1 NOT DUP5 AND SWAP4 POP DUP1 DUP7 AND DUP5 OR SWAP3 POP POP POP SWAP4 SWAP3 POP POP POP JUMP JUMPDEST PUSH0 DUP2 SWAP1 POP SWAP2 SWAP1 POP JUMP JUMPDEST PUSH0 DUP2 SWAP1 POP SWAP2 SWAP1 POP JUMP JUMPDEST PUSH0 PUSH2 0xDC1 PUSH2 0xDBC PUSH2 0xDB7 DUP5 PUSH2 0xD95 JUMP JUMPDEST PUSH2 0xD9E JUMP JUMPDEST PUSH2 0xD95 JUMP JUMPDEST SWAP1 POP SWAP2 SWAP1 POP JUMP JUMPDEST PUSH0 DUP2 SWAP1 POP SWAP2 SWAP1 POP JUMP JUMPDEST PUSH2 0xDDA DUP4 PUSH2 0xDA7 JUMP JUMPDEST PUSH2 0xDEE PUSH2 0xDE6 DUP3 PUSH2 0xDC8 JUMP JUMPDEST DUP5 DUP5 SLOAD PUSH2 0xD44 JUMP JUMPDEST DUP3 SSTORE POP POP POP POP JUMP JUMPDEST PUSH0 SWAP1 JUMP JUMPDEST PUSH2 0xE02 PUSH2 0xDF6 JUMP JUMPDEST PUSH2 0xE0D DUP2 DUP5 DUP5 PUSH2 0xDD1 JUMP JUMPDEST POP POP POP JUMP JUMPDEST JUMPDEST DUP2 DUP2 LT ISZERO PUSH2 0xE30 JUMPI PUSH2 0xE25 PUSH0 DUP3 PUSH2 0xDFA JUMP JUMPDEST PUSH1 0x1 DUP2 ADD SWAP1 POP PUSH2 0xE13 JUMP JUMPDEST POP POP JUMP JUMPDEST PUSH1 0x1F DUP3 GT ISZERO PUSH2 0xE75 JUMPI PUSH2 0xE46 DUP2 PUSH2 0xD17 JUMP JUMPDEST PUSH2 0xE4F DUP5 PUSH2 0xD29 JUMP JUMPDEST DUP2 ADD PUSH1 0x20 DUP6 LT ISZERO PUSH2 0xE5E JUMPI DUP2 SWAP1 POP JUMPDEST PUSH2 0xE72 PUSH2 0xE6A DUP6 PUSH2 0xD29 JUMP JUMPDEST DUP4 ADD DUP3 PUSH2 0xE12 JUMP JUMPDEST POP POP JUMPDEST POP POP POP JUMP JUMPDEST PUSH0 DUP3 DUP3 SHR SWAP1 POP SWAP3 SWAP2 POP POP JUMP JUMPDEST PUSH0 PUSH2 0xE95 PUSH0 NOT DUP5 PUSH1 0x8 MUL PUSH2 0xE7A JUMP JUMPDEST NOT DUP1 DUP4 AND SWAP2 POP POP SWAP3 SWAP2 POP POP JUMP JUMPDEST PUSH0 PUSH2 0xEAD DUP4 DUP4 PUSH2 0xE86 JUMP JUMPDEST SWAP2 POP DUP3 PUSH1 0x2 MUL DUP3 OR SWAP1 POP SWAP3 SWAP2 POP POP JUMP JUMPDEST PUSH2 0xEC6 DUP3 PUSH2 0x98F JUMP JUMPDEST PUSH8 0xFFFFFFFFFFFFFFFF DUP2 GT ISZERO PUSH2 0xEDF JUMPI PUSH2 0xEDE PUSH2 0xACB JUMP JUMPDEST JUMPDEST PUSH2 0xEE9 DUP3 SLOAD PUSH2 0xCE7 JUMP JUMPDEST PUSH2 0xEF4 DUP3 DUP3 DUP6 PUSH2 0xE34 JUMP JUMPDEST PUSH0 PUSH1 0x20 SWAP1 POP PUSH1 0x1F DUP4 GT PUSH1 0x1 DUP2 EQ PUSH2 0xF25 JUMPI PUSH0 DUP5 ISZERO PUSH2 0xF13 JUMPI DUP3 DUP8 ADD MLOAD SWAP1 POP JUMPDEST PUSH2 0xF1D DUP6 DUP3 PUSH2 0xEA2 JUMP JUMPDEST DUP7 SSTORE POP PUSH2 0xF84 JUMP JUMPDEST PUSH1 0x1F NOT DUP5 AND PUSH2 0xF33 DUP7 PUSH2 0xD17 JUMP JUMPDEST PUSH0 JUMPDEST DUP3 DUP2 LT ISZERO PUSH2 0xF5A JUMPI DUP5 DUP10 ADD MLOAD DUP3 SSTORE PUSH1 0x1 DUP3 ADD SWAP2 POP PUSH1 0x20 DUP6 ADD SWAP5 POP PUSH1 0x20 DUP2 ADD SWAP1 POP PUSH2 0xF35 JUMP JUMPDEST DUP7 DUP4 LT ISZERO PUSH2 0xF77 JUMPI DUP5 DUP10 ADD MLOAD PUSH2 0xF73 PUSH1 0x1F DUP10 AND DUP3 PUSH2 0xE86 JUMP JUMPDEST DUP4 SSTORE POP JUMPDEST PUSH1 0x1 PUSH1 0x2 DUP9 MUL ADD DUP9 SSTORE POP POP POP JUMPDEST POP POP POP POP POP POP JUMP JUMPDEST PUSH0 PUSH1 0x40 DUP3 ADD SWAP1 POP DUP2 DUP2 SUB PUSH0 DUP4 ADD MSTORE PUSH2 0xFA4 DUP2 DUP6 PUSH2 0x9E1 JUMP JUMPDEST SWAP1 POP DUP2 DUP2 SUB PUSH1 0x20 DUP4 ADD MSTORE PUSH2 0xFB8 DUP2 DUP5 PUSH2 0x9E1 JUMP JUMPDEST SWAP1 POP SWAP4 SWAP3 POP POP POP JUMP JUMPDEST PUSH32 0x4F776E61626C653A206E6577206F776E657220697320746865207A65726F2061 PUSH0 DUP3 ADD MSTORE PUSH32 0x6464726573730000000000000000000000000000000000000000000000000000 PUSH1 0x20 DUP3 ADD MSTORE POP JUMP JUMPDEST PUSH0 PUSH2 0x101B PUSH1 0x26 DUP4 PUSH2 0x999 JUMP JUMPDEST SWAP2 POP PUSH2 0x1026 DUP3 PUSH2 0xFC1 JUMP JUMPDEST PUSH1 0x40 DUP3 ADD SWAP1 POP SWAP2 SWAP1 POP JUMP JUMPDEST PUSH0 PUSH1 0x20 DUP3 ADD SWAP1 POP DUP2 DUP2 SUB PUSH0 DUP4 ADD MSTORE PUSH2 0x1048 DUP2 PUSH2 0x100F JUMP JUMPDEST SWAP1 POP SWAP2 SWAP1 POP JUMP JUMPDEST PUSH32 0x4F776E61626C653A2063616C6C6572206973206E6F7420746865206F776E6572 PUSH0 DUP3 ADD MSTORE POP JUMP JUMPDEST PUSH0 PUSH2 0x1083 PUSH1 0x20 DUP4 PUSH2 0x999 JUMP JUMPDEST SWAP2 POP PUSH2 0x108E DUP3 PUSH2 0x104F JUMP JUMPDEST PUSH1 0x20 DUP3 ADD SWAP1 POP SWAP2 SWAP1 POP JUMP JUMPDEST PUSH0 PUSH1 0x20 DUP3 ADD SWAP1 POP DUP2 DUP2 SUB PUSH0 DUP4 ADD MSTORE PUSH2 0x10B0 DUP2 PUSH2 0x1077 JUMP JUMPDEST SWAP1 POP SWAP2 SWAP1 POP JUMP INVALID LOG2 PUSH5 0x6970667358 0x22 SLT KECCAK256 0xEF SWAP16 0xA6 0xE2 0xDB PUSH28 0xB63E62FABD44EA7DEBCC3C29F9D3CB552C45C9001AABF1D63C536473 PUSH16 0x6C634300081500330000000000000000 "
				},
				"gasEstimates": {
					"creation": {
						"codeDepositCost": "866600",
						"executionCost": "infinite",
						"totalCost": "infinite"
					},
					"external": {
						"getKYCData(address)": "infinite",
						"kycRecords(address)": "infinite",
						"owner()": "2515",
						"renounceOwnership()": "30413",
						"setKYCData(address,bool,string,string,string)": "infinite",
						"transferOwnership(address)": "30797",
						"verifyKYC(address)": "2876"
					}
				},
				"methodIdentifiers": {
					"getKYCData(address)": "ab47a2f9",
					"kycRecords(address)": "7eb606e8",
					"owner()": "8da5cb5b",
					"renounceOwnership()": "715018a6",
					"setKYCData(address,bool,string,string,string)": "f1520abd",
					"transferOwnership(address)": "f2fde38b",
					"verifyKYC(address)": "38d16011"
				}
			},
			"storageLayout": {
				"storage": [
					{
						"astId": 7,
						"contract": "Kyc.sol:KYC",
						"label": "_owner",
						"offset": 0,
						"slot": "0",
						"type": "t_address"
					},
					{
						"astId": 153,
						"contract": "Kyc.sol:KYC",
						"label": "kycRecords",
						"offset": 0,
						"slot": "1",
						"type": "t_mapping(t_address,t_struct(KYCData)148_storage)"
					}
				],
				"types": {
					"t_address": {
						"encoding": "inplace",
						"label": "address",
						"numberOfBytes": "20"
					},
					"t_bool": {
						"encoding": "inplace",
						"label": "bool",
						"numberOfBytes": "1"
					},
					"t_mapping(t_address,t_struct(KYCData)148_storage)": {
						"encoding": "mapping",
						"key": "t_address",
						"label": "mapping(address => struct KYC.KYCData)",
						"numberOfBytes": "32",
						"value": "t_struct(KYCData)148_storage"
					},
					"t_string_storage": {
						"encoding": "bytes",
						"label": "string",
						"numberOfBytes": "32"
					},
					"t_struct(KYCData)148_storage": {
						"encoding": "inplace",
						"label": "struct KYC.KYCData",
						"members": [
							{
								"astId": 141,
								"contract": "Kyc.sol:KYC",
								"label": "isVerified",
								"offset": 0,
								"slot": "0",
								"type": "t_bool"
							},
							{
								"astId": 143,
								"contract": "Kyc.sol:KYC",
								"label": "firstName",
								"offset": 0,
								"slot": "1",
								"type": "t_string_storage"
							},
							{
								"astId": 145,
								"contract": "Kyc.sol:KYC",
								"label": "lastName",
								"offset": 0,
								"slot": "2",
								"type": "t_string_storage"
							},
							{
								"astId": 147,
								"contract": "Kyc.sol:KYC",
								"label": "documentHash",
								"offset": 0,
								"slot": "3",
								"type": "t_string_storage"
							}
						],
						"numberOfBytes": "128"
					}
				}
			},
			"userdoc": {
				"kind": "user",
				"methods": {},
				"version": 1
			}
		}
	}
}