{
	"NEW.sol": {
		"YourContract": {
			"abi": [
				{
					"inputs": [
						{
							"internalType": "address",
							"name": "_comptrollerAddress",
							"type": "address"
						},
						{
							"internalType": "address",
							"name": "_usdtAddress",
							"type": "address"
						},
						{
							"internalType": "address",
							"name": "_nftContractAddress",
							"type": "address"
						},
						{
							"internalType": "address",
							"name": "_cTokenAddress",
							"type": "address"
						}
					],
					"stateMutability": "nonpayable",
					"type": "constructor"
				},
				{
					"anonymous": false,
					"inputs": [
						{
							"indexed": true,
							"internalType": "address",
							"name": "previousOwner",
							"type": "address"
						},
						{
							"indexed": true,
							"internalType": "address",
							"name": "newOwner",
							"type": "address"
						}
					],
					"name": "OwnershipTransferred",
					"type": "event"
				},
				{
					"inputs": [],
					"name": "cToken",
					"outputs": [
						{
							"internalType": "address",
							"name": "",
							"type": "address"
						}
					],
					"stateMutability": "view",
					"type": "function"
				},
				{
					"inputs": [],
					"name": "comptroller",
					"outputs": [
						{
							"internalType": "contract IComptroller",
							"name": "",
							"type": "address"
						}
					],
					"stateMutability": "view",
					"type": "function"
				},
				{
					"inputs": [
						{
							"internalType": "uint256",
							"name": "usdtAmount",
							"type": "uint256"
						}
					],
					"name": "depositAndMintNFT",
					"outputs": [],
					"stateMutability": "nonpayable",
					"type": "function"
				},
				{
					"inputs": [],
					"name": "nftContract",
					"outputs": [
						{
							"internalType": "contract IERC721",
							"name": "",
							"type": "address"
						}
					],
					"stateMutability": "view",
					"type": "function"
				},
				{
					"inputs": [],
					"name": "owner",
					"outputs": [
						{
							"internalType": "address",
							"name": "",
							"type": "address"
						}
					],
					"stateMutability": "view",
					"type": "function"
				},
				{
					"inputs": [],
					"name": "renounceOwnership",
					"outputs": [],
					"stateMutability": "nonpayable",
					"type": "function"
				},
				{
					"inputs": [
						{
							"internalType": "address",
							"name": "newOwner",
							"type": "address"
						}
					],
					"name": "transferOwnership",
					"outputs": [],
					"stateMutability": "nonpayable",
					"type": "function"
				},
				{
					"inputs": [],
					"name": "usdt",
					"outputs": [
						{
							"internalType": "contract IERC20",
							"name": "",
							"type": "address"
						}
					],
					"stateMutability": "view",
					"type": "function"
				},
				{
					"inputs": [
						{
							"internalType": "address",
							"name": "",
							"type": "address"
						}
					],
					"name": "userDeposits",
					"outputs": [
						{
							"internalType": "uint256",
							"name": "",
							"type": "uint256"
						}
					],
					"stateMutability": "view",
					"type": "function"
				},
				{
					"inputs": [],
					"name": "withdraw",
					"outputs": [],
					"stateMutability": "nonpayable",
					"type": "function"
				}
			],
			"devdoc": {
				"kind": "dev",
				"methods": {
					"owner()": {
						"details": "Returns the address of the current owner."
					},
					"renounceOwnership()": {
						"details": "Leaves the contract without owner. It will not be possible to call `onlyOwner` functions. Can only be called by the current owner. NOTE: Renouncing ownership will leave the contract without an owner, thereby disabling any functionality that is only available to the owner."
					},
					"transferOwnership(address)": {
						"details": "Transfers ownership of the contract to a new account (`newOwner`). Can only be called by the current owner."
					}
				},
				"version": 1
			},
			"evm": {
				"assembly": "    /* \"NEW.sol\":2989:6529  contract YourContract is Ownable {... */\n  mstore(0x40, 0x80)\n    /* \"NEW.sol\":3300:3607  constructor(address _comptrollerAddress, address _usdtAddress, address _nftContractAddress, address _cTokenAddress) {... */\n  callvalue\n  dup1\n  iszero\n  tag_1\n  jumpi\n  0x00\n  dup1\n  revert\ntag_1:\n  pop\n  mload(0x40)\n  sub(codesize, bytecodeSize)\n  dup1\n  bytecodeSize\n  dup4\n  codecopy\n  dup2\n  dup2\n  add\n  0x40\n  mstore\n  dup2\n  add\n  swap1\n  tag_2\n  swap2\n  swap1\n  tag_3\n  jump\t// in\ntag_2:\n    /* \"@openzeppelin/contracts/access/Ownable.sol\":936:968  _transferOwnership(_msgSender()) */\n  tag_7\n    /* \"@openzeppelin/contracts/access/Ownable.sol\":955:967  _msgSender() */\n  tag_8\n    /* \"@openzeppelin/contracts/access/Ownable.sol\":955:965  _msgSender */\n  shl(0x20, tag_9)\n    /* \"@openzeppelin/contracts/access/Ownable.sol\":955:967  _msgSender() */\n  0x20\n  shr\n  jump\t// in\ntag_8:\n    /* \"@openzeppelin/contracts/access/Ownable.sol\":936:954  _transferOwnership */\n  shl(0x20, tag_10)\n    /* \"@openzeppelin/contracts/access/Ownable.sol\":936:968  _transferOwnership(_msgSender()) */\n  0x20\n  shr\n  jump\t// in\ntag_7:\n    /* \"NEW.sol\":3454:3473  _comptrollerAddress */\n  dup4\n    /* \"NEW.sol\":3427:3438  comptroller */\n  0x01\n  0x00\n    /* \"NEW.sol\":3427:3474  comptroller = IComptroller(_comptrollerAddress) */\n  0x0100\n  exp\n  dup2\n  sload\n  dup2\n  0xffffffffffffffffffffffffffffffffffffffff\n  mul\n  not\n  and\n  swap1\n  dup4\n  0xffffffffffffffffffffffffffffffffffffffff\n  and\n  mul\n  or\n  swap1\n  sstore\n  pop\n    /* \"NEW.sol\":3499:3511  _usdtAddress */\n  dup3\n    /* \"NEW.sol\":3485:3489  usdt */\n  0x02\n  0x00\n    /* \"NEW.sol\":3485:3512  usdt = IERC20(_usdtAddress) */\n  0x0100\n  exp\n  dup2\n  sload\n  dup2\n  0xffffffffffffffffffffffffffffffffffffffff\n  mul\n  not\n  and\n  swap1\n  dup4\n  0xffffffffffffffffffffffffffffffffffffffff\n  and\n  mul\n  or\n  swap1\n  sstore\n  pop\n    /* \"NEW.sol\":3545:3564  _nftContractAddress */\n  dup2\n    /* \"NEW.sol\":3523:3534  nftContract */\n  0x03\n  0x00\n    /* \"NEW.sol\":3523:3565  nftContract = IERC721(_nftContractAddress) */\n  0x0100\n  exp\n  dup2\n  sload\n  dup2\n  0xffffffffffffffffffffffffffffffffffffffff\n  mul\n  not\n  and\n  swap1\n  dup4\n  0xffffffffffffffffffffffffffffffffffffffff\n  and\n  mul\n  or\n  swap1\n  sstore\n  pop\n    /* \"NEW.sol\":3585:3599  _cTokenAddress */\n  dup1\n    /* \"NEW.sol\":3576:3582  cToken */\n  0x04\n  0x00\n    /* \"NEW.sol\":3576:3599  cToken = _cTokenAddress */\n  0x0100\n  exp\n  dup2\n  sload\n  dup2\n  0xffffffffffffffffffffffffffffffffffffffff\n  mul\n  not\n  and\n  swap1\n  dup4\n  0xffffffffffffffffffffffffffffffffffffffff\n  and\n  mul\n  or\n  swap1\n  sstore\n  pop\n    /* \"NEW.sol\":3300:3607  constructor(address _comptrollerAddress, address _usdtAddress, address _nftContractAddress, address _cTokenAddress) {... */\n  pop\n  pop\n  pop\n  pop\n    /* \"NEW.sol\":2989:6529  contract YourContract is Ownable {... */\n  jump(tag_12)\n    /* \"@openzeppelin/contracts/utils/Context.sol\":640:736  function _msgSender() internal view virtual returns (address) {... */\ntag_9:\n    /* \"@openzeppelin/contracts/utils/Context.sol\":693:700  address */\n  0x00\n    /* \"@openzeppelin/contracts/utils/Context.sol\":719:729  msg.sender */\n  caller\n    /* \"@openzeppelin/contracts/utils/Context.sol\":712:729  return msg.sender */\n  swap1\n  pop\n    /* \"@openzeppelin/contracts/utils/Context.sol\":640:736  function _msgSender() internal view virtual returns (address) {... */\n  swap1\n  jump\t// out\n    /* \"@openzeppelin/contracts/access/Ownable.sol\":2426:2613  function _transferOwnership(address newOwner) internal virtual {... */\ntag_10:\n    /* \"@openzeppelin/contracts/access/Ownable.sol\":2499:2515  address oldOwner */\n  0x00\n    /* \"@openzeppelin/contracts/access/Ownable.sol\":2518:2524  _owner */\n  dup1\n  0x00\n  swap1\n  sload\n  swap1\n  0x0100\n  exp\n  swap1\n  div\n  0xffffffffffffffffffffffffffffffffffffffff\n  and\n    /* \"@openzeppelin/contracts/access/Ownable.sol\":2499:2524  address oldOwner = _owner */\n  swap1\n  pop\n    /* \"@openzeppelin/contracts/access/Ownable.sol\":2543:2551  newOwner */\n  dup2\n    /* \"@openzeppelin/contracts/access/Ownable.sol\":2534:2540  _owner */\n  0x00\n  dup1\n    /* \"@openzeppelin/contracts/access/Ownable.sol\":2534:2551  _owner = newOwner */\n  0x0100\n  exp\n  dup2\n  sload\n  dup2\n  0xffffffffffffffffffffffffffffffffffffffff\n  mul\n  not\n  and\n  swap1\n  dup4\n  0xffffffffffffffffffffffffffffffffffffffff\n  and\n  mul\n  or\n  swap1\n  sstore\n  pop\n    /* \"@openzeppelin/contracts/access/Ownable.sol\":2597:2605  newOwner */\n  dup2\n    /* \"@openzeppelin/contracts/access/Ownable.sol\":2566:2606  OwnershipTransferred(oldOwner, newOwner) */\n  0xffffffffffffffffffffffffffffffffffffffff\n  and\n    /* \"@openzeppelin/contracts/access/Ownable.sol\":2587:2595  oldOwner */\n  dup2\n    /* \"@openzeppelin/contracts/access/Ownable.sol\":2566:2606  OwnershipTransferred(oldOwner, newOwner) */\n  0xffffffffffffffffffffffffffffffffffffffff\n  and\n  0x8be0079c531659141344cd1fd0a4f28419497f9722a3daafe3b4186f6b6457e0\n  mload(0x40)\n  mload(0x40)\n  dup1\n  swap2\n  sub\n  swap1\n  log3\n    /* \"@openzeppelin/contracts/access/Ownable.sol\":2489:2613  {... */\n  pop\n    /* \"@openzeppelin/contracts/access/Ownable.sol\":2426:2613  function _transferOwnership(address newOwner) internal virtual {... */\n  pop\n  jump\t// out\n    /* \"#utility.yul\":88:205   */\ntag_16:\n    /* \"#utility.yul\":197:198   */\n  0x00\n    /* \"#utility.yul\":194:195   */\n  dup1\n    /* \"#utility.yul\":187:199   */\n  revert\n    /* \"#utility.yul\":334:460   */\ntag_18:\n    /* \"#utility.yul\":371:378   */\n  0x00\n    /* \"#utility.yul\":411:453   */\n  0xffffffffffffffffffffffffffffffffffffffff\n    /* \"#utility.yul\":404:409   */\n  dup3\n    /* \"#utility.yul\":400:454   */\n  and\n    /* \"#utility.yul\":389:454   */\n  swap1\n  pop\n    /* \"#utility.yul\":334:460   */\n  swap2\n  swap1\n  pop\n  jump\t// out\n    /* \"#utility.yul\":466:562   */\ntag_19:\n    /* \"#utility.yul\":503:510   */\n  0x00\n    /* \"#utility.yul\":532:556   */\n  tag_28\n    /* \"#utility.yul\":550:555   */\n  dup3\n    /* \"#utility.yul\":532:556   */\n  tag_18\n  jump\t// in\ntag_28:\n    /* \"#utility.yul\":521:556   */\n  swap1\n  pop\n    /* \"#utility.yul\":466:562   */\n  swap2\n  swap1\n  pop\n  jump\t// out\n    /* \"#utility.yul\":568:690   */\ntag_20:\n    /* \"#utility.yul\":641:665   */\n  tag_30\n    /* \"#utility.yul\":659:664   */\n  dup2\n    /* \"#utility.yul\":641:665   */\n  tag_19\n  jump\t// in\ntag_30:\n    /* \"#utility.yul\":634:639   */\n  dup2\n    /* \"#utility.yul\":631:666   */\n  eq\n    /* \"#utility.yul\":621:684   */\n  tag_31\n  jumpi\n    /* \"#utility.yul\":680:681   */\n  0x00\n    /* \"#utility.yul\":677:678   */\n  dup1\n    /* \"#utility.yul\":670:682   */\n  revert\n    /* \"#utility.yul\":621:684   */\ntag_31:\n    /* \"#utility.yul\":568:690   */\n  pop\n  jump\t// out\n    /* \"#utility.yul\":696:839   */\ntag_21:\n    /* \"#utility.yul\":753:758   */\n  0x00\n    /* \"#utility.yul\":784:790   */\n  dup2\n    /* \"#utility.yul\":778:791   */\n  mload\n    /* \"#utility.yul\":769:791   */\n  swap1\n  pop\n    /* \"#utility.yul\":800:833   */\n  tag_33\n    /* \"#utility.yul\":827:832   */\n  dup2\n    /* \"#utility.yul\":800:833   */\n  tag_20\n  jump\t// in\ntag_33:\n    /* \"#utility.yul\":696:839   */\n  swap3\n  swap2\n  pop\n  pop\n  jump\t// out\n    /* \"#utility.yul\":845:1665   */\ntag_3:\n    /* \"#utility.yul\":942:948   */\n  0x00\n    /* \"#utility.yul\":950:956   */\n  dup1\n    /* \"#utility.yul\":958:964   */\n  0x00\n    /* \"#utility.yul\":966:972   */\n  dup1\n    /* \"#utility.yul\":1015:1018   */\n  0x80\n    /* \"#utility.yul\":1003:1012   */\n  dup6\n    /* \"#utility.yul\":994:1001   */\n  dup8\n    /* \"#utility.yul\":990:1013   */\n  sub\n    /* \"#utility.yul\":986:1019   */\n  slt\n    /* \"#utility.yul\":983:1103   */\n  iszero\n  tag_35\n  jumpi\n    /* \"#utility.yul\":1022:1101   */\n  tag_36\n  tag_16\n  jump\t// in\ntag_36:\n    /* \"#utility.yul\":983:1103   */\ntag_35:\n    /* \"#utility.yul\":1142:1143   */\n  0x00\n    /* \"#utility.yul\":1167:1231   */\n  tag_37\n    /* \"#utility.yul\":1223:1230   */\n  dup8\n    /* \"#utility.yul\":1214:1220   */\n  dup3\n    /* \"#utility.yul\":1203:1212   */\n  dup9\n    /* \"#utility.yul\":1199:1221   */\n  add\n    /* \"#utility.yul\":1167:1231   */\n  tag_21\n  jump\t// in\ntag_37:\n    /* \"#utility.yul\":1157:1231   */\n  swap5\n  pop\n    /* \"#utility.yul\":1113:1241   */\n  pop\n    /* \"#utility.yul\":1280:1282   */\n  0x20\n    /* \"#utility.yul\":1306:1370   */\n  tag_38\n    /* \"#utility.yul\":1362:1369   */\n  dup8\n    /* \"#utility.yul\":1353:1359   */\n  dup3\n    /* \"#utility.yul\":1342:1351   */\n  dup9\n    /* \"#utility.yul\":1338:1360   */\n  add\n    /* \"#utility.yul\":1306:1370   */\n  tag_21\n  jump\t// in\ntag_38:\n    /* \"#utility.yul\":1296:1370   */\n  swap4\n  pop\n    /* \"#utility.yul\":1251:1380   */\n  pop\n    /* \"#utility.yul\":1419:1421   */\n  0x40\n    /* \"#utility.yul\":1445:1509   */\n  tag_39\n    /* \"#utility.yul\":1501:1508   */\n  dup8\n    /* \"#utility.yul\":1492:1498   */\n  dup3\n    /* \"#utility.yul\":1481:1490   */\n  dup9\n    /* \"#utility.yul\":1477:1499   */\n  add\n    /* \"#utility.yul\":1445:1509   */\n  tag_21\n  jump\t// in\ntag_39:\n    /* \"#utility.yul\":1435:1509   */\n  swap3\n  pop\n    /* \"#utility.yul\":1390:1519   */\n  pop\n    /* \"#utility.yul\":1558:1560   */\n  0x60\n    /* \"#utility.yul\":1584:1648   */\n  tag_40\n    /* \"#utility.yul\":1640:1647   */\n  dup8\n    /* \"#utility.yul\":1631:1637   */\n  dup3\n    /* \"#utility.yul\":1620:1629   */\n  dup9\n    /* \"#utility.yul\":1616:1638   */\n  add\n    /* \"#utility.yul\":1584:1648   */\n  tag_21\n  jump\t// in\ntag_40:\n    /* \"#utility.yul\":1574:1648   */\n  swap2\n  pop\n    /* \"#utility.yul\":1529:1658   */\n  pop\n    /* \"#utility.yul\":845:1665   */\n  swap3\n  swap6\n  swap2\n  swap5\n  pop\n  swap3\n  pop\n  jump\t// out\n    /* \"NEW.sol\":2989:6529  contract YourContract is Ownable {... */\ntag_12:\n  dataSize(sub_0)\n  dup1\n  dataOffset(sub_0)\n  0x00\n  codecopy\n  0x00\n  return\nstop\n\nsub_0: assembly {\n        /* \"NEW.sol\":2989:6529  contract YourContract is Ownable {... */\n      mstore(0x40, 0x80)\n      callvalue\n      dup1\n      iszero\n      tag_1\n      jumpi\n      0x00\n      dup1\n      revert\n    tag_1:\n      pop\n      jumpi(tag_2, lt(calldatasize, 0x04))\n      shr(0xe0, calldataload(0x00))\n      dup1\n      0x69e527da\n      gt\n      tag_13\n      jumpi\n      dup1\n      0x69e527da\n      eq\n      tag_8\n      jumpi\n      dup1\n      0x715018a6\n      eq\n      tag_9\n      jumpi\n      dup1\n      0x8da5cb5b\n      eq\n      tag_10\n      jumpi\n      dup1\n      0xd56d229d\n      eq\n      tag_11\n      jumpi\n      dup1\n      0xf2fde38b\n      eq\n      tag_12\n      jumpi\n      jump(tag_2)\n    tag_13:\n      dup1\n      0x0ba36dcd\n      eq\n      tag_3\n      jumpi\n      dup1\n      0x26bd2b60\n      eq\n      tag_4\n      jumpi\n      dup1\n      0x2f48ab7d\n      eq\n      tag_5\n      jumpi\n      dup1\n      0x3ccfd60b\n      eq\n      tag_6\n      jumpi\n      dup1\n      0x5fe3b567\n      eq\n      tag_7\n      jumpi\n    tag_2:\n      0x00\n      dup1\n      revert\n        /* \"NEW.sol\":3244:3291  mapping(address => uint256) public userDeposits */\n    tag_3:\n      tag_14\n      0x04\n      dup1\n      calldatasize\n      sub\n      dup2\n      add\n      swap1\n      tag_15\n      swap2\n      swap1\n      tag_16\n      jump\t// in\n    tag_15:\n      tag_17\n      jump\t// in\n    tag_14:\n      mload(0x40)\n      tag_18\n      swap2\n      swap1\n      tag_19\n      jump\t// in\n    tag_18:\n      mload(0x40)\n      dup1\n      swap2\n      sub\n      swap1\n      return\n        /* \"NEW.sol\":3615:4417  function depositAndMintNFT(uint256 usdtAmount) external {... */\n    tag_4:\n      tag_20\n      0x04\n      dup1\n      calldatasize\n      sub\n      dup2\n      add\n      swap1\n      tag_21\n      swap2\n      swap1\n      tag_22\n      jump\t// in\n    tag_21:\n      tag_23\n      jump\t// in\n    tag_20:\n      stop\n        /* \"NEW.sol\":3067:3085  IERC20 public usdt */\n    tag_5:\n      tag_24\n      tag_25\n      jump\t// in\n    tag_24:\n      mload(0x40)\n      tag_26\n      swap2\n      swap1\n      tag_27\n      jump\t// in\n    tag_26:\n      mload(0x40)\n      dup1\n      swap2\n      sub\n      swap1\n      return\n        /* \"NEW.sol\":4425:5215  function withdraw() external {... */\n    tag_6:\n      tag_28\n      tag_29\n      jump\t// in\n    tag_28:\n      stop\n        /* \"NEW.sol\":3029:3060  IComptroller public comptroller */\n    tag_7:\n      tag_30\n      tag_31\n      jump\t// in\n    tag_30:\n      mload(0x40)\n      tag_32\n      swap2\n      swap1\n      tag_33\n      jump\t// in\n    tag_32:\n      mload(0x40)\n      dup1\n      swap2\n      sub\n      swap1\n      return\n        /* \"NEW.sol\":3164:3185  address public cToken */\n    tag_8:\n      tag_34\n      tag_35\n      jump\t// in\n    tag_34:\n      mload(0x40)\n      tag_36\n      swap2\n      swap1\n      tag_37\n      jump\t// in\n    tag_36:\n      mload(0x40)\n      dup1\n      swap2\n      sub\n      swap1\n      return\n        /* \"@openzeppelin/contracts/access/Ownable.sol\":1824:1925  function renounceOwnership() public virtual onlyOwner {... */\n    tag_9:\n      tag_38\n      tag_39\n      jump\t// in\n    tag_38:\n      stop\n        /* \"@openzeppelin/contracts/access/Ownable.sol\":1201:1286  function owner() public view virtual returns (address) {... */\n    tag_10:\n      tag_40\n      tag_41\n      jump\t// in\n    tag_40:\n      mload(0x40)\n      tag_42\n      swap2\n      swap1\n      tag_37\n      jump\t// in\n    tag_42:\n      mload(0x40)\n      dup1\n      swap2\n      sub\n      swap1\n      return\n        /* \"NEW.sol\":3115:3141  IERC721 public nftContract */\n    tag_11:\n      tag_43\n      tag_44\n      jump\t// in\n    tag_43:\n      mload(0x40)\n      tag_45\n      swap2\n      swap1\n      tag_46\n      jump\t// in\n    tag_45:\n      mload(0x40)\n      dup1\n      swap2\n      sub\n      swap1\n      return\n        /* \"@openzeppelin/contracts/access/Ownable.sol\":2074:2272  function transferOwnership(address newOwner) public virtual onlyOwner {... */\n    tag_12:\n      tag_47\n      0x04\n      dup1\n      calldatasize\n      sub\n      dup2\n      add\n      swap1\n      tag_48\n      swap2\n      swap1\n      tag_16\n      jump\t// in\n    tag_48:\n      tag_49\n      jump\t// in\n    tag_47:\n      stop\n        /* \"NEW.sol\":3244:3291  mapping(address => uint256) public userDeposits */\n    tag_17:\n      mstore(0x20, 0x05)\n      dup1\n      0x00\n      mstore\n      keccak256(0x00, 0x40)\n      0x00\n      swap2\n      pop\n      swap1\n      pop\n      sload\n      dup2\n      jump\t// out\n        /* \"NEW.sol\":3615:4417  function depositAndMintNFT(uint256 usdtAmount) external {... */\n    tag_23:\n        /* \"NEW.sol\":3771:3781  usdtAmount */\n      dup1\n        /* \"NEW.sol\":3741:3745  usdt */\n      0x02\n      0x00\n      swap1\n      sload\n      swap1\n      0x0100\n      exp\n      swap1\n      div\n      0xffffffffffffffffffffffffffffffffffffffff\n      and\n        /* \"NEW.sol\":3741:3755  usdt.balanceOf */\n      0xffffffffffffffffffffffffffffffffffffffff\n      and\n      0x70a08231\n        /* \"NEW.sol\":3756:3766  msg.sender */\n      caller\n        /* \"NEW.sol\":3741:3767  usdt.balanceOf(msg.sender) */\n      mload(0x40)\n      dup3\n      0xffffffff\n      and\n      0xe0\n      shl\n      dup2\n      mstore\n      0x04\n      add\n      tag_51\n      swap2\n      swap1\n      tag_37\n      jump\t// in\n    tag_51:\n      0x20\n      mload(0x40)\n      dup1\n      dup4\n      sub\n      dup2\n      dup7\n      gas\n      staticcall\n      iszero\n      dup1\n      iszero\n      tag_53\n      jumpi\n      returndatasize\n      0x00\n      dup1\n      returndatacopy\n      revert(0x00, returndatasize)\n    tag_53:\n      pop\n      pop\n      pop\n      pop\n      mload(0x40)\n      returndatasize\n      not(0x1f)\n      0x1f\n      dup3\n      add\n      and\n      dup3\n      add\n      dup1\n      0x40\n      mstore\n      pop\n      dup2\n      add\n      swap1\n      tag_54\n      swap2\n      swap1\n      tag_55\n      jump\t// in\n    tag_54:\n        /* \"NEW.sol\":3741:3781  usdt.balanceOf(msg.sender) >= usdtAmount */\n      lt\n      iszero\n        /* \"NEW.sol\":3733:3811  require(usdt.balanceOf(msg.sender) >= usdtAmount, \"Insufficient USDT balance\") */\n      tag_56\n      jumpi\n      mload(0x40)\n      0x08c379a000000000000000000000000000000000000000000000000000000000\n      dup2\n      mstore\n      0x04\n      add\n      tag_57\n      swap1\n      tag_58\n      jump\t// in\n    tag_57:\n      mload(0x40)\n      dup1\n      swap2\n      sub\n      swap1\n      revert\n    tag_56:\n        /* \"NEW.sol\":3897:3901  usdt */\n      0x02\n      0x00\n      swap1\n      sload\n      swap1\n      0x0100\n      exp\n      swap1\n      div\n      0xffffffffffffffffffffffffffffffffffffffff\n      and\n        /* \"NEW.sol\":3897:3914  usdt.transferFrom */\n      0xffffffffffffffffffffffffffffffffffffffff\n      and\n      0x23b872dd\n        /* \"NEW.sol\":3915:3925  msg.sender */\n      caller\n        /* \"NEW.sol\":3935:3939  this */\n      address\n        /* \"NEW.sol\":3942:3952  usdtAmount */\n      dup5\n        /* \"NEW.sol\":3897:3953  usdt.transferFrom(msg.sender, address(this), usdtAmount) */\n      mload(0x40)\n      dup5\n      0xffffffff\n      and\n      0xe0\n      shl\n      dup2\n      mstore\n      0x04\n      add\n      tag_59\n      swap4\n      swap3\n      swap2\n      swap1\n      tag_60\n      jump\t// in\n    tag_59:\n      0x20\n      mload(0x40)\n      dup1\n      dup4\n      sub\n      dup2\n      0x00\n      dup8\n      gas\n      call\n      iszero\n      dup1\n      iszero\n      tag_62\n      jumpi\n      returndatasize\n      0x00\n      dup1\n      returndatacopy\n      revert(0x00, returndatasize)\n    tag_62:\n      pop\n      pop\n      pop\n      pop\n      mload(0x40)\n      returndatasize\n      not(0x1f)\n      0x1f\n      dup3\n      add\n      and\n      dup3\n      add\n      dup1\n      0x40\n      mstore\n      pop\n      dup2\n      add\n      swap1\n      tag_63\n      swap2\n      swap1\n      tag_64\n      jump\t// in\n    tag_63:\n        /* \"NEW.sol\":3889:3978  require(usdt.transferFrom(msg.sender, address(this), usdtAmount), \"USDT transfer failed\") */\n      tag_65\n      jumpi\n      mload(0x40)\n      0x08c379a000000000000000000000000000000000000000000000000000000000\n      dup2\n      mstore\n      0x04\n      add\n      tag_66\n      swap1\n      tag_67\n      jump\t// in\n    tag_66:\n      mload(0x40)\n      dup1\n      swap2\n      sub\n      swap1\n      revert\n    tag_65:\n        /* \"NEW.sol\":4030:4045  uint256 tokenId */\n      0x00\n        /* \"NEW.sol\":4048:4067  mintNFT(msg.sender) */\n      tag_68\n        /* \"NEW.sol\":4056:4066  msg.sender */\n      caller\n        /* \"NEW.sol\":4048:4055  mintNFT */\n      tag_69\n        /* \"NEW.sol\":4048:4067  mintNFT(msg.sender) */\n      jump\t// in\n    tag_68:\n        /* \"NEW.sol\":4030:4067  uint256 tokenId = mintNFT(msg.sender) */\n      swap1\n      pop\n        /* \"NEW.sol\":4152:4162  usdtAmount */\n      dup2\n        /* \"NEW.sol\":4124:4136  userDeposits */\n      0x05\n        /* \"NEW.sol\":4124:4148  userDeposits[msg.sender] */\n      0x00\n        /* \"NEW.sol\":4137:4147  msg.sender */\n      caller\n        /* \"NEW.sol\":4124:4148  userDeposits[msg.sender] */\n      0xffffffffffffffffffffffffffffffffffffffff\n      and\n      0xffffffffffffffffffffffffffffffffffffffff\n      and\n      dup2\n      mstore\n      0x20\n      add\n      swap1\n      dup2\n      mstore\n      0x20\n      add\n      0x00\n      keccak256\n      0x00\n        /* \"NEW.sol\":4124:4162  userDeposits[msg.sender] += usdtAmount */\n      dup3\n      dup3\n      sload\n      tag_70\n      swap2\n      swap1\n      tag_71\n      jump\t// in\n    tag_70:\n      swap3\n      pop\n      pop\n      dup2\n      swap1\n      sstore\n      pop\n        /* \"NEW.sol\":4233:4261  investInCompound(usdtAmount) */\n      tag_72\n        /* \"NEW.sol\":4250:4260  usdtAmount */\n      dup3\n        /* \"NEW.sol\":4233:4249  investInCompound */\n      tag_73\n        /* \"NEW.sol\":4233:4261  investInCompound(usdtAmount) */\n      jump\t// in\n    tag_72:\n        /* \"NEW.sol\":3671:4417  {... */\n      pop\n        /* \"NEW.sol\":3615:4417  function depositAndMintNFT(uint256 usdtAmount) external {... */\n      pop\n      jump\t// out\n        /* \"NEW.sol\":3067:3085  IERC20 public usdt */\n    tag_25:\n      0x02\n      0x00\n      swap1\n      sload\n      swap1\n      0x0100\n      exp\n      swap1\n      div\n      0xffffffffffffffffffffffffffffffffffffffff\n      and\n      dup2\n      jump\t// out\n        /* \"NEW.sol\":4425:5215  function withdraw() external {... */\n    tag_29:\n        /* \"NEW.sol\":4550:4551  0 */\n      0x00\n        /* \"NEW.sol\":4514:4525  nftContract */\n      0x03\n      0x00\n      swap1\n      sload\n      swap1\n      0x0100\n      exp\n      swap1\n      div\n      0xffffffffffffffffffffffffffffffffffffffff\n      and\n        /* \"NEW.sol\":4514:4535  nftContract.balanceOf */\n      0xffffffffffffffffffffffffffffffffffffffff\n      and\n      0x70a08231\n        /* \"NEW.sol\":4536:4546  msg.sender */\n      caller\n        /* \"NEW.sol\":4514:4547  nftContract.balanceOf(msg.sender) */\n      mload(0x40)\n      dup3\n      0xffffffff\n      and\n      0xe0\n      shl\n      dup2\n      mstore\n      0x04\n      add\n      tag_75\n      swap2\n      swap1\n      tag_37\n      jump\t// in\n    tag_75:\n      0x20\n      mload(0x40)\n      dup1\n      dup4\n      sub\n      dup2\n      dup7\n      gas\n      staticcall\n      iszero\n      dup1\n      iszero\n      tag_77\n      jumpi\n      returndatasize\n      0x00\n      dup1\n      returndatacopy\n      revert(0x00, returndatasize)\n    tag_77:\n      pop\n      pop\n      pop\n      pop\n      mload(0x40)\n      returndatasize\n      not(0x1f)\n      0x1f\n      dup3\n      add\n      and\n      dup3\n      add\n      dup1\n      0x40\n      mstore\n      pop\n      dup2\n      add\n      swap1\n      tag_78\n      swap2\n      swap1\n      tag_55\n      jump\t// in\n    tag_78:\n        /* \"NEW.sol\":4514:4551  nftContract.balanceOf(msg.sender) > 0 */\n      gt\n        /* \"NEW.sol\":4506:4574  require(nftContract.balanceOf(msg.sender) > 0, \"No NFT to withdraw\") */\n      tag_79\n      jumpi\n      mload(0x40)\n      0x08c379a000000000000000000000000000000000000000000000000000000000\n      dup2\n      mstore\n      0x04\n      add\n      tag_80\n      swap1\n      tag_81\n      jump\t// in\n    tag_80:\n      mload(0x40)\n      dup1\n      swap2\n      sub\n      swap1\n      revert\n    tag_79:\n        /* \"NEW.sol\":4619:4634  uint256 tokenId */\n      0x00\n        /* \"NEW.sol\":4637:4656  burnNFT(msg.sender) */\n      tag_82\n        /* \"NEW.sol\":4645:4655  msg.sender */\n      caller\n        /* \"NEW.sol\":4637:4644  burnNFT */\n      tag_83\n        /* \"NEW.sol\":4637:4656  burnNFT(msg.sender) */\n      jump\t// in\n    tag_82:\n        /* \"NEW.sol\":4619:4656  uint256 tokenId = burnNFT(msg.sender) */\n      swap1\n      pop\n        /* \"NEW.sol\":4732:4748  uint256 interest */\n      0x00\n        /* \"NEW.sol\":4751:4767  redeemInterest() */\n      tag_84\n        /* \"NEW.sol\":4751:4765  redeemInterest */\n      tag_85\n        /* \"NEW.sol\":4751:4767  redeemInterest() */\n      jump\t// in\n    tag_84:\n        /* \"NEW.sol\":4732:4767  uint256 interest = redeemInterest() */\n      swap1\n      pop\n        /* \"NEW.sol\":4855:4874  uint256 totalAmount */\n      0x00\n        /* \"NEW.sol\":4904:4912  interest */\n      dup2\n        /* \"NEW.sol\":4877:4889  userDeposits */\n      0x05\n        /* \"NEW.sol\":4877:4901  userDeposits[msg.sender] */\n      0x00\n        /* \"NEW.sol\":4890:4900  msg.sender */\n      caller\n        /* \"NEW.sol\":4877:4901  userDeposits[msg.sender] */\n      0xffffffffffffffffffffffffffffffffffffffff\n      and\n      0xffffffffffffffffffffffffffffffffffffffff\n      and\n      dup2\n      mstore\n      0x20\n      add\n      swap1\n      dup2\n      mstore\n      0x20\n      add\n      0x00\n      keccak256\n      sload\n        /* \"NEW.sol\":4877:4912  userDeposits[msg.sender] + interest */\n      tag_86\n      swap2\n      swap1\n      tag_71\n      jump\t// in\n    tag_86:\n        /* \"NEW.sol\":4855:4912  uint256 totalAmount = userDeposits[msg.sender] + interest */\n      swap1\n      pop\n        /* \"NEW.sol\":4931:4935  usdt */\n      0x02\n      0x00\n      swap1\n      sload\n      swap1\n      0x0100\n      exp\n      swap1\n      div\n      0xffffffffffffffffffffffffffffffffffffffff\n      and\n        /* \"NEW.sol\":4931:4944  usdt.transfer */\n      0xffffffffffffffffffffffffffffffffffffffff\n      and\n      0xa9059cbb\n        /* \"NEW.sol\":4945:4955  msg.sender */\n      caller\n        /* \"NEW.sol\":4957:4968  totalAmount */\n      dup4\n        /* \"NEW.sol\":4931:4969  usdt.transfer(msg.sender, totalAmount) */\n      mload(0x40)\n      dup4\n      0xffffffff\n      and\n      0xe0\n      shl\n      dup2\n      mstore\n      0x04\n      add\n      tag_87\n      swap3\n      swap2\n      swap1\n      tag_88\n      jump\t// in\n    tag_87:\n      0x20\n      mload(0x40)\n      dup1\n      dup4\n      sub\n      dup2\n      0x00\n      dup8\n      gas\n      call\n      iszero\n      dup1\n      iszero\n      tag_90\n      jumpi\n      returndatasize\n      0x00\n      dup1\n      returndatacopy\n      revert(0x00, returndatasize)\n    tag_90:\n      pop\n      pop\n      pop\n      pop\n      mload(0x40)\n      returndatasize\n      not(0x1f)\n      0x1f\n      dup3\n      add\n      and\n      dup3\n      add\n      dup1\n      0x40\n      mstore\n      pop\n      dup2\n      add\n      swap1\n      tag_91\n      swap2\n      swap1\n      tag_64\n      jump\t// in\n    tag_91:\n        /* \"NEW.sol\":4923:4994  require(usdt.transfer(msg.sender, totalAmount), \"USDT transfer failed\") */\n      tag_92\n      jumpi\n      mload(0x40)\n      0x08c379a000000000000000000000000000000000000000000000000000000000\n      dup2\n      mstore\n      0x04\n      add\n      tag_93\n      swap1\n      tag_67\n      jump\t// in\n    tag_93:\n      mload(0x40)\n      dup1\n      swap2\n      sub\n      swap1\n      revert\n    tag_92:\n        /* \"NEW.sol\":5071:5072  0 */\n      0x00\n        /* \"NEW.sol\":5044:5056  userDeposits */\n      0x05\n        /* \"NEW.sol\":5044:5068  userDeposits[msg.sender] */\n      0x00\n        /* \"NEW.sol\":5057:5067  msg.sender */\n      caller\n        /* \"NEW.sol\":5044:5068  userDeposits[msg.sender] */\n      0xffffffffffffffffffffffffffffffffffffffff\n      and\n      0xffffffffffffffffffffffffffffffffffffffff\n      and\n      dup2\n      mstore\n      0x20\n      add\n      swap1\n      dup2\n      mstore\n      0x20\n      add\n      0x00\n      keccak256\n        /* \"NEW.sol\":5044:5072  userDeposits[msg.sender] = 0 */\n      dup2\n      swap1\n      sstore\n      pop\n        /* \"NEW.sol\":4454:5215  {... */\n      pop\n      pop\n      pop\n        /* \"NEW.sol\":4425:5215  function withdraw() external {... */\n      jump\t// out\n        /* \"NEW.sol\":3029:3060  IComptroller public comptroller */\n    tag_31:\n      0x01\n      0x00\n      swap1\n      sload\n      swap1\n      0x0100\n      exp\n      swap1\n      div\n      0xffffffffffffffffffffffffffffffffffffffff\n      and\n      dup2\n      jump\t// out\n        /* \"NEW.sol\":3164:3185  address public cToken */\n    tag_35:\n      0x04\n      0x00\n      swap1\n      sload\n      swap1\n      0x0100\n      exp\n      swap1\n      div\n      0xffffffffffffffffffffffffffffffffffffffff\n      and\n      dup2\n      jump\t// out\n        /* \"@openzeppelin/contracts/access/Ownable.sol\":1824:1925  function renounceOwnership() public virtual onlyOwner {... */\n    tag_39:\n        /* \"@openzeppelin/contracts/access/Ownable.sol\":1094:1107  _checkOwner() */\n      tag_95\n        /* \"@openzeppelin/contracts/access/Ownable.sol\":1094:1105  _checkOwner */\n      tag_96\n        /* \"@openzeppelin/contracts/access/Ownable.sol\":1094:1107  _checkOwner() */\n      jump\t// in\n    tag_95:\n        /* \"@openzeppelin/contracts/access/Ownable.sol\":1888:1918  _transferOwnership(address(0)) */\n      tag_98\n        /* \"@openzeppelin/contracts/access/Ownable.sol\":1915:1916  0 */\n      0x00\n        /* \"@openzeppelin/contracts/access/Ownable.sol\":1888:1906  _transferOwnership */\n      tag_99\n        /* \"@openzeppelin/contracts/access/Ownable.sol\":1888:1918  _transferOwnership(address(0)) */\n      jump\t// in\n    tag_98:\n        /* \"@openzeppelin/contracts/access/Ownable.sol\":1824:1925  function renounceOwnership() public virtual onlyOwner {... */\n      jump\t// out\n        /* \"@openzeppelin/contracts/access/Ownable.sol\":1201:1286  function owner() public view virtual returns (address) {... */\n    tag_41:\n        /* \"@openzeppelin/contracts/access/Ownable.sol\":1247:1254  address */\n      0x00\n        /* \"@openzeppelin/contracts/access/Ownable.sol\":1273:1279  _owner */\n      dup1\n      0x00\n      swap1\n      sload\n      swap1\n      0x0100\n      exp\n      swap1\n      div\n      0xffffffffffffffffffffffffffffffffffffffff\n      and\n        /* \"@openzeppelin/contracts/access/Ownable.sol\":1266:1279  return _owner */\n      swap1\n      pop\n        /* \"@openzeppelin/contracts/access/Ownable.sol\":1201:1286  function owner() public view virtual returns (address) {... */\n      swap1\n      jump\t// out\n        /* \"NEW.sol\":3115:3141  IERC721 public nftContract */\n    tag_44:\n      0x03\n      0x00\n      swap1\n      sload\n      swap1\n      0x0100\n      exp\n      swap1\n      div\n      0xffffffffffffffffffffffffffffffffffffffff\n      and\n      dup2\n      jump\t// out\n        /* \"@openzeppelin/contracts/access/Ownable.sol\":2074:2272  function transferOwnership(address newOwner) public virtual onlyOwner {... */\n    tag_49:\n        /* \"@openzeppelin/contracts/access/Ownable.sol\":1094:1107  _checkOwner() */\n      tag_102\n        /* \"@openzeppelin/contracts/access/Ownable.sol\":1094:1105  _checkOwner */\n      tag_96\n        /* \"@openzeppelin/contracts/access/Ownable.sol\":1094:1107  _checkOwner() */\n      jump\t// in\n    tag_102:\n        /* \"@openzeppelin/contracts/access/Ownable.sol\":2182:2183  0 */\n      0x00\n        /* \"@openzeppelin/contracts/access/Ownable.sol\":2162:2184  newOwner != address(0) */\n      0xffffffffffffffffffffffffffffffffffffffff\n      and\n        /* \"@openzeppelin/contracts/access/Ownable.sol\":2162:2170  newOwner */\n      dup2\n        /* \"@openzeppelin/contracts/access/Ownable.sol\":2162:2184  newOwner != address(0) */\n      0xffffffffffffffffffffffffffffffffffffffff\n      and\n      sub\n        /* \"@openzeppelin/contracts/access/Ownable.sol\":2154:2227  require(newOwner != address(0), \"Ownable: new owner is the zero address\") */\n      tag_104\n      jumpi\n      mload(0x40)\n      0x08c379a000000000000000000000000000000000000000000000000000000000\n      dup2\n      mstore\n      0x04\n      add\n      tag_105\n      swap1\n      tag_106\n      jump\t// in\n    tag_105:\n      mload(0x40)\n      dup1\n      swap2\n      sub\n      swap1\n      revert\n    tag_104:\n        /* \"@openzeppelin/contracts/access/Ownable.sol\":2237:2265  _transferOwnership(newOwner) */\n      tag_107\n        /* \"@openzeppelin/contracts/access/Ownable.sol\":2256:2264  newOwner */\n      dup2\n        /* \"@openzeppelin/contracts/access/Ownable.sol\":2237:2255  _transferOwnership */\n      tag_99\n        /* \"@openzeppelin/contracts/access/Ownable.sol\":2237:2265  _transferOwnership(newOwner) */\n      jump\t// in\n    tag_107:\n        /* \"@openzeppelin/contracts/access/Ownable.sol\":2074:2272  function transferOwnership(address newOwner) public virtual onlyOwner {... */\n      pop\n      jump\t// out\n        /* \"NEW.sol\":5307:5511  function mintNFT(address recipient) internal returns (uint256) {... */\n    tag_69:\n        /* \"NEW.sol\":5361:5368  uint256 */\n      0x00\n        /* \"NEW.sol\":5307:5511  function mintNFT(address recipient) internal returns (uint256) {... */\n      swap2\n      swap1\n      pop\n      jump\t// out\n        /* \"NEW.sol\":5887:6148  function investInCompound(uint256 amount) internal {... */\n    tag_73:\n      pop\n      jump\t// out\n        /* \"NEW.sol\":5603:5804  function burnNFT(address owner) internal returns (uint256) {... */\n    tag_83:\n        /* \"NEW.sol\":5653:5660  uint256 */\n      0x00\n        /* \"NEW.sol\":5603:5804  function burnNFT(address owner) internal returns (uint256) {... */\n      swap2\n      swap1\n      pop\n      jump\t// out\n        /* \"NEW.sol\":6215:6463  function redeemInterest() internal returns (uint256) {... */\n    tag_85:\n        /* \"NEW.sol\":6259:6266  uint256 */\n      0x00\n        /* \"NEW.sol\":6215:6463  function redeemInterest() internal returns (uint256) {... */\n      swap1\n      jump\t// out\n        /* \"@openzeppelin/contracts/access/Ownable.sol\":1359:1489  function _checkOwner() internal view virtual {... */\n    tag_96:\n        /* \"@openzeppelin/contracts/access/Ownable.sol\":1433:1445  _msgSender() */\n      tag_113\n        /* \"@openzeppelin/contracts/access/Ownable.sol\":1433:1443  _msgSender */\n      tag_114\n        /* \"@openzeppelin/contracts/access/Ownable.sol\":1433:1445  _msgSender() */\n      jump\t// in\n    tag_113:\n        /* \"@openzeppelin/contracts/access/Ownable.sol\":1422:1445  owner() == _msgSender() */\n      0xffffffffffffffffffffffffffffffffffffffff\n      and\n        /* \"@openzeppelin/contracts/access/Ownable.sol\":1422:1429  owner() */\n      tag_115\n        /* \"@openzeppelin/contracts/access/Ownable.sol\":1422:1427  owner */\n      tag_41\n        /* \"@openzeppelin/contracts/access/Ownable.sol\":1422:1429  owner() */\n      jump\t// in\n    tag_115:\n        /* \"@openzeppelin/contracts/access/Ownable.sol\":1422:1445  owner() == _msgSender() */\n      0xffffffffffffffffffffffffffffffffffffffff\n      and\n      eq\n        /* \"@openzeppelin/contracts/access/Ownable.sol\":1414:1482  require(owner() == _msgSender(), \"Ownable: caller is not the owner\") */\n      tag_116\n      jumpi\n      mload(0x40)\n      0x08c379a000000000000000000000000000000000000000000000000000000000\n      dup2\n      mstore\n      0x04\n      add\n      tag_117\n      swap1\n      tag_118\n      jump\t// in\n    tag_117:\n      mload(0x40)\n      dup1\n      swap2\n      sub\n      swap1\n      revert\n    tag_116:\n        /* \"@openzeppelin/contracts/access/Ownable.sol\":1359:1489  function _checkOwner() internal view virtual {... */\n      jump\t// out\n        /* \"@openzeppelin/contracts/access/Ownable.sol\":2426:2613  function _transferOwnership(address newOwner) internal virtual {... */\n    tag_99:\n        /* \"@openzeppelin/contracts/access/Ownable.sol\":2499:2515  address oldOwner */\n      0x00\n        /* \"@openzeppelin/contracts/access/Ownable.sol\":2518:2524  _owner */\n      dup1\n      0x00\n      swap1\n      sload\n      swap1\n      0x0100\n      exp\n      swap1\n      div\n      0xffffffffffffffffffffffffffffffffffffffff\n      and\n        /* \"@openzeppelin/contracts/access/Ownable.sol\":2499:2524  address oldOwner = _owner */\n      swap1\n      pop\n        /* \"@openzeppelin/contracts/access/Ownable.sol\":2543:2551  newOwner */\n      dup2\n        /* \"@openzeppelin/contracts/access/Ownable.sol\":2534:2540  _owner */\n      0x00\n      dup1\n        /* \"@openzeppelin/contracts/access/Ownable.sol\":2534:2551  _owner = newOwner */\n      0x0100\n      exp\n      dup2\n      sload\n      dup2\n      0xffffffffffffffffffffffffffffffffffffffff\n      mul\n      not\n      and\n      swap1\n      dup4\n      0xffffffffffffffffffffffffffffffffffffffff\n      and\n      mul\n      or\n      swap1\n      sstore\n      pop\n        /* \"@openzeppelin/contracts/access/Ownable.sol\":2597:2605  newOwner */\n      dup2\n        /* \"@openzeppelin/contracts/access/Ownable.sol\":2566:2606  OwnershipTransferred(oldOwner, newOwner) */\n      0xffffffffffffffffffffffffffffffffffffffff\n      and\n        /* \"@openzeppelin/contracts/access/Ownable.sol\":2587:2595  oldOwner */\n      dup2\n        /* \"@openzeppelin/contracts/access/Ownable.sol\":2566:2606  OwnershipTransferred(oldOwner, newOwner) */\n      0xffffffffffffffffffffffffffffffffffffffff\n      and\n      0x8be0079c531659141344cd1fd0a4f28419497f9722a3daafe3b4186f6b6457e0\n      mload(0x40)\n      mload(0x40)\n      dup1\n      swap2\n      sub\n      swap1\n      log3\n        /* \"@openzeppelin/contracts/access/Ownable.sol\":2489:2613  {... */\n      pop\n        /* \"@openzeppelin/contracts/access/Ownable.sol\":2426:2613  function _transferOwnership(address newOwner) internal virtual {... */\n      pop\n      jump\t// out\n        /* \"@openzeppelin/contracts/utils/Context.sol\":640:736  function _msgSender() internal view virtual returns (address) {... */\n    tag_114:\n        /* \"@openzeppelin/contracts/utils/Context.sol\":693:700  address */\n      0x00\n        /* \"@openzeppelin/contracts/utils/Context.sol\":719:729  msg.sender */\n      caller\n        /* \"@openzeppelin/contracts/utils/Context.sol\":712:729  return msg.sender */\n      swap1\n      pop\n        /* \"@openzeppelin/contracts/utils/Context.sol\":640:736  function _msgSender() internal view virtual returns (address) {... */\n      swap1\n      jump\t// out\n        /* \"#utility.yul\":88:205   */\n    tag_122:\n        /* \"#utility.yul\":197:198   */\n      0x00\n        /* \"#utility.yul\":194:195   */\n      dup1\n        /* \"#utility.yul\":187:199   */\n      revert\n        /* \"#utility.yul\":334:460   */\n    tag_124:\n        /* \"#utility.yul\":371:378   */\n      0x00\n        /* \"#utility.yul\":411:453   */\n      0xffffffffffffffffffffffffffffffffffffffff\n        /* \"#utility.yul\":404:409   */\n      dup3\n        /* \"#utility.yul\":400:454   */\n      and\n        /* \"#utility.yul\":389:454   */\n      swap1\n      pop\n        /* \"#utility.yul\":334:460   */\n      swap2\n      swap1\n      pop\n      jump\t// out\n        /* \"#utility.yul\":466:562   */\n    tag_125:\n        /* \"#utility.yul\":503:510   */\n      0x00\n        /* \"#utility.yul\":532:556   */\n      tag_164\n        /* \"#utility.yul\":550:555   */\n      dup3\n        /* \"#utility.yul\":532:556   */\n      tag_124\n      jump\t// in\n    tag_164:\n        /* \"#utility.yul\":521:556   */\n      swap1\n      pop\n        /* \"#utility.yul\":466:562   */\n      swap2\n      swap1\n      pop\n      jump\t// out\n        /* \"#utility.yul\":568:690   */\n    tag_126:\n        /* \"#utility.yul\":641:665   */\n      tag_166\n        /* \"#utility.yul\":659:664   */\n      dup2\n        /* \"#utility.yul\":641:665   */\n      tag_125\n      jump\t// in\n    tag_166:\n        /* \"#utility.yul\":634:639   */\n      dup2\n        /* \"#utility.yul\":631:666   */\n      eq\n        /* \"#utility.yul\":621:684   */\n      tag_167\n      jumpi\n        /* \"#utility.yul\":680:681   */\n      0x00\n        /* \"#utility.yul\":677:678   */\n      dup1\n        /* \"#utility.yul\":670:682   */\n      revert\n        /* \"#utility.yul\":621:684   */\n    tag_167:\n        /* \"#utility.yul\":568:690   */\n      pop\n      jump\t// out\n        /* \"#utility.yul\":696:835   */\n    tag_127:\n        /* \"#utility.yul\":742:747   */\n      0x00\n        /* \"#utility.yul\":780:786   */\n      dup2\n        /* \"#utility.yul\":767:787   */\n      calldataload\n        /* \"#utility.yul\":758:787   */\n      swap1\n      pop\n        /* \"#utility.yul\":796:829   */\n      tag_169\n        /* \"#utility.yul\":823:828   */\n      dup2\n        /* \"#utility.yul\":796:829   */\n      tag_126\n      jump\t// in\n    tag_169:\n        /* \"#utility.yul\":696:835   */\n      swap3\n      swap2\n      pop\n      pop\n      jump\t// out\n        /* \"#utility.yul\":841:1170   */\n    tag_16:\n        /* \"#utility.yul\":900:906   */\n      0x00\n        /* \"#utility.yul\":949:951   */\n      0x20\n        /* \"#utility.yul\":937:946   */\n      dup3\n        /* \"#utility.yul\":928:935   */\n      dup5\n        /* \"#utility.yul\":924:947   */\n      sub\n        /* \"#utility.yul\":920:952   */\n      slt\n        /* \"#utility.yul\":917:1036   */\n      iszero\n      tag_171\n      jumpi\n        /* \"#utility.yul\":955:1034   */\n      tag_172\n      tag_122\n      jump\t// in\n    tag_172:\n        /* \"#utility.yul\":917:1036   */\n    tag_171:\n        /* \"#utility.yul\":1075:1076   */\n      0x00\n        /* \"#utility.yul\":1100:1153   */\n      tag_173\n        /* \"#utility.yul\":1145:1152   */\n      dup5\n        /* \"#utility.yul\":1136:1142   */\n      dup3\n        /* \"#utility.yul\":1125:1134   */\n      dup6\n        /* \"#utility.yul\":1121:1143   */\n      add\n        /* \"#utility.yul\":1100:1153   */\n      tag_127\n      jump\t// in\n    tag_173:\n        /* \"#utility.yul\":1090:1153   */\n      swap2\n      pop\n        /* \"#utility.yul\":1046:1163   */\n      pop\n        /* \"#utility.yul\":841:1170   */\n      swap3\n      swap2\n      pop\n      pop\n      jump\t// out\n        /* \"#utility.yul\":1176:1253   */\n    tag_128:\n        /* \"#utility.yul\":1213:1220   */\n      0x00\n        /* \"#utility.yul\":1242:1247   */\n      dup2\n        /* \"#utility.yul\":1231:1247   */\n      swap1\n      pop\n        /* \"#utility.yul\":1176:1253   */\n      swap2\n      swap1\n      pop\n      jump\t// out\n        /* \"#utility.yul\":1259:1377   */\n    tag_129:\n        /* \"#utility.yul\":1346:1370   */\n      tag_176\n        /* \"#utility.yul\":1364:1369   */\n      dup2\n        /* \"#utility.yul\":1346:1370   */\n      tag_128\n      jump\t// in\n    tag_176:\n        /* \"#utility.yul\":1341:1344   */\n      dup3\n        /* \"#utility.yul\":1334:1371   */\n      mstore\n        /* \"#utility.yul\":1259:1377   */\n      pop\n      pop\n      jump\t// out\n        /* \"#utility.yul\":1383:1605   */\n    tag_19:\n        /* \"#utility.yul\":1476:1480   */\n      0x00\n        /* \"#utility.yul\":1514:1516   */\n      0x20\n        /* \"#utility.yul\":1503:1512   */\n      dup3\n        /* \"#utility.yul\":1499:1517   */\n      add\n        /* \"#utility.yul\":1491:1517   */\n      swap1\n      pop\n        /* \"#utility.yul\":1527:1598   */\n      tag_178\n        /* \"#utility.yul\":1595:1596   */\n      0x00\n        /* \"#utility.yul\":1584:1593   */\n      dup4\n        /* \"#utility.yul\":1580:1597   */\n      add\n        /* \"#utility.yul\":1571:1577   */\n      dup5\n        /* \"#utility.yul\":1527:1598   */\n      tag_129\n      jump\t// in\n    tag_178:\n        /* \"#utility.yul\":1383:1605   */\n      swap3\n      swap2\n      pop\n      pop\n      jump\t// out\n        /* \"#utility.yul\":1611:1733   */\n    tag_130:\n        /* \"#utility.yul\":1684:1708   */\n      tag_180\n        /* \"#utility.yul\":1702:1707   */\n      dup2\n        /* \"#utility.yul\":1684:1708   */\n      tag_128\n      jump\t// in\n    tag_180:\n        /* \"#utility.yul\":1677:1682   */\n      dup2\n        /* \"#utility.yul\":1674:1709   */\n      eq\n        /* \"#utility.yul\":1664:1727   */\n      tag_181\n      jumpi\n        /* \"#utility.yul\":1723:1724   */\n      0x00\n        /* \"#utility.yul\":1720:1721   */\n      dup1\n        /* \"#utility.yul\":1713:1725   */\n      revert\n        /* \"#utility.yul\":1664:1727   */\n    tag_181:\n        /* \"#utility.yul\":1611:1733   */\n      pop\n      jump\t// out\n        /* \"#utility.yul\":1739:1878   */\n    tag_131:\n        /* \"#utility.yul\":1785:1790   */\n      0x00\n        /* \"#utility.yul\":1823:1829   */\n      dup2\n        /* \"#utility.yul\":1810:1830   */\n      calldataload\n        /* \"#utility.yul\":1801:1830   */\n      swap1\n      pop\n        /* \"#utility.yul\":1839:1872   */\n      tag_183\n        /* \"#utility.yul\":1866:1871   */\n      dup2\n        /* \"#utility.yul\":1839:1872   */\n      tag_130\n      jump\t// in\n    tag_183:\n        /* \"#utility.yul\":1739:1878   */\n      swap3\n      swap2\n      pop\n      pop\n      jump\t// out\n        /* \"#utility.yul\":1884:2213   */\n    tag_22:\n        /* \"#utility.yul\":1943:1949   */\n      0x00\n        /* \"#utility.yul\":1992:1994   */\n      0x20\n        /* \"#utility.yul\":1980:1989   */\n      dup3\n        /* \"#utility.yul\":1971:1978   */\n      dup5\n        /* \"#utility.yul\":1967:1990   */\n      sub\n        /* \"#utility.yul\":1963:1995   */\n      slt\n        /* \"#utility.yul\":1960:2079   */\n      iszero\n      tag_185\n      jumpi\n        /* \"#utility.yul\":1998:2077   */\n      tag_186\n      tag_122\n      jump\t// in\n    tag_186:\n        /* \"#utility.yul\":1960:2079   */\n    tag_185:\n        /* \"#utility.yul\":2118:2119   */\n      0x00\n        /* \"#utility.yul\":2143:2196   */\n      tag_187\n        /* \"#utility.yul\":2188:2195   */\n      dup5\n        /* \"#utility.yul\":2179:2185   */\n      dup3\n        /* \"#utility.yul\":2168:2177   */\n      dup6\n        /* \"#utility.yul\":2164:2186   */\n      add\n        /* \"#utility.yul\":2143:2196   */\n      tag_131\n      jump\t// in\n    tag_187:\n        /* \"#utility.yul\":2133:2196   */\n      swap2\n      pop\n        /* \"#utility.yul\":2089:2206   */\n      pop\n        /* \"#utility.yul\":1884:2213   */\n      swap3\n      swap2\n      pop\n      pop\n      jump\t// out\n        /* \"#utility.yul\":2219:2279   */\n    tag_132:\n        /* \"#utility.yul\":2247:2250   */\n      0x00\n        /* \"#utility.yul\":2268:2273   */\n      dup2\n        /* \"#utility.yul\":2261:2273   */\n      swap1\n      pop\n        /* \"#utility.yul\":2219:2279   */\n      swap2\n      swap1\n      pop\n      jump\t// out\n        /* \"#utility.yul\":2285:2427   */\n    tag_133:\n        /* \"#utility.yul\":2335:2344   */\n      0x00\n        /* \"#utility.yul\":2368:2421   */\n      tag_190\n        /* \"#utility.yul\":2386:2420   */\n      tag_191\n        /* \"#utility.yul\":2395:2419   */\n      tag_192\n        /* \"#utility.yul\":2413:2418   */\n      dup5\n        /* \"#utility.yul\":2395:2419   */\n      tag_124\n      jump\t// in\n    tag_192:\n        /* \"#utility.yul\":2386:2420   */\n      tag_132\n      jump\t// in\n    tag_191:\n        /* \"#utility.yul\":2368:2421   */\n      tag_124\n      jump\t// in\n    tag_190:\n        /* \"#utility.yul\":2355:2421   */\n      swap1\n      pop\n        /* \"#utility.yul\":2285:2427   */\n      swap2\n      swap1\n      pop\n      jump\t// out\n        /* \"#utility.yul\":2433:2559   */\n    tag_134:\n        /* \"#utility.yul\":2483:2492   */\n      0x00\n        /* \"#utility.yul\":2516:2553   */\n      tag_194\n        /* \"#utility.yul\":2547:2552   */\n      dup3\n        /* \"#utility.yul\":2516:2553   */\n      tag_133\n      jump\t// in\n    tag_194:\n        /* \"#utility.yul\":2503:2553   */\n      swap1\n      pop\n        /* \"#utility.yul\":2433:2559   */\n      swap2\n      swap1\n      pop\n      jump\t// out\n        /* \"#utility.yul\":2565:2705   */\n    tag_135:\n        /* \"#utility.yul\":2629:2638   */\n      0x00\n        /* \"#utility.yul\":2662:2699   */\n      tag_196\n        /* \"#utility.yul\":2693:2698   */\n      dup3\n        /* \"#utility.yul\":2662:2699   */\n      tag_134\n      jump\t// in\n    tag_196:\n        /* \"#utility.yul\":2649:2699   */\n      swap1\n      pop\n        /* \"#utility.yul\":2565:2705   */\n      swap2\n      swap1\n      pop\n      jump\t// out\n        /* \"#utility.yul\":2711:2870   */\n    tag_136:\n        /* \"#utility.yul\":2812:2863   */\n      tag_198\n        /* \"#utility.yul\":2857:2862   */\n      dup2\n        /* \"#utility.yul\":2812:2863   */\n      tag_135\n      jump\t// in\n    tag_198:\n        /* \"#utility.yul\":2807:2810   */\n      dup3\n        /* \"#utility.yul\":2800:2864   */\n      mstore\n        /* \"#utility.yul\":2711:2870   */\n      pop\n      pop\n      jump\t// out\n        /* \"#utility.yul\":2876:3126   */\n    tag_27:\n        /* \"#utility.yul\":2983:2987   */\n      0x00\n        /* \"#utility.yul\":3021:3023   */\n      0x20\n        /* \"#utility.yul\":3010:3019   */\n      dup3\n        /* \"#utility.yul\":3006:3024   */\n      add\n        /* \"#utility.yul\":2998:3024   */\n      swap1\n      pop\n        /* \"#utility.yul\":3034:3119   */\n      tag_200\n        /* \"#utility.yul\":3116:3117   */\n      0x00\n        /* \"#utility.yul\":3105:3114   */\n      dup4\n        /* \"#utility.yul\":3101:3118   */\n      add\n        /* \"#utility.yul\":3092:3098   */\n      dup5\n        /* \"#utility.yul\":3034:3119   */\n      tag_136\n      jump\t// in\n    tag_200:\n        /* \"#utility.yul\":2876:3126   */\n      swap3\n      swap2\n      pop\n      pop\n      jump\t// out\n        /* \"#utility.yul\":3132:3278   */\n    tag_137:\n        /* \"#utility.yul\":3202:3211   */\n      0x00\n        /* \"#utility.yul\":3235:3272   */\n      tag_202\n        /* \"#utility.yul\":3266:3271   */\n      dup3\n        /* \"#utility.yul\":3235:3272   */\n      tag_134\n      jump\t// in\n    tag_202:\n        /* \"#utility.yul\":3222:3272   */\n      swap1\n      pop\n        /* \"#utility.yul\":3132:3278   */\n      swap2\n      swap1\n      pop\n      jump\t// out\n        /* \"#utility.yul\":3284:3455   */\n    tag_138:\n        /* \"#utility.yul\":3391:3448   */\n      tag_204\n        /* \"#utility.yul\":3442:3447   */\n      dup2\n        /* \"#utility.yul\":3391:3448   */\n      tag_137\n      jump\t// in\n    tag_204:\n        /* \"#utility.yul\":3386:3389   */\n      dup3\n        /* \"#utility.yul\":3379:3449   */\n      mstore\n        /* \"#utility.yul\":3284:3455   */\n      pop\n      pop\n      jump\t// out\n        /* \"#utility.yul\":3461:3723   */\n    tag_33:\n        /* \"#utility.yul\":3574:3578   */\n      0x00\n        /* \"#utility.yul\":3612:3614   */\n      0x20\n        /* \"#utility.yul\":3601:3610   */\n      dup3\n        /* \"#utility.yul\":3597:3615   */\n      add\n        /* \"#utility.yul\":3589:3615   */\n      swap1\n      pop\n        /* \"#utility.yul\":3625:3716   */\n      tag_206\n        /* \"#utility.yul\":3713:3714   */\n      0x00\n        /* \"#utility.yul\":3702:3711   */\n      dup4\n        /* \"#utility.yul\":3698:3715   */\n      add\n        /* \"#utility.yul\":3689:3695   */\n      dup5\n        /* \"#utility.yul\":3625:3716   */\n      tag_138\n      jump\t// in\n    tag_206:\n        /* \"#utility.yul\":3461:3723   */\n      swap3\n      swap2\n      pop\n      pop\n      jump\t// out\n        /* \"#utility.yul\":3729:3847   */\n    tag_139:\n        /* \"#utility.yul\":3816:3840   */\n      tag_208\n        /* \"#utility.yul\":3834:3839   */\n      dup2\n        /* \"#utility.yul\":3816:3840   */\n      tag_125\n      jump\t// in\n    tag_208:\n        /* \"#utility.yul\":3811:3814   */\n      dup3\n        /* \"#utility.yul\":3804:3841   */\n      mstore\n        /* \"#utility.yul\":3729:3847   */\n      pop\n      pop\n      jump\t// out\n        /* \"#utility.yul\":3853:4075   */\n    tag_37:\n        /* \"#utility.yul\":3946:3950   */\n      0x00\n        /* \"#utility.yul\":3984:3986   */\n      0x20\n        /* \"#utility.yul\":3973:3982   */\n      dup3\n        /* \"#utility.yul\":3969:3987   */\n      add\n        /* \"#utility.yul\":3961:3987   */\n      swap1\n      pop\n        /* \"#utility.yul\":3997:4068   */\n      tag_210\n        /* \"#utility.yul\":4065:4066   */\n      0x00\n        /* \"#utility.yul\":4054:4063   */\n      dup4\n        /* \"#utility.yul\":4050:4067   */\n      add\n        /* \"#utility.yul\":4041:4047   */\n      dup5\n        /* \"#utility.yul\":3997:4068   */\n      tag_139\n      jump\t// in\n    tag_210:\n        /* \"#utility.yul\":3853:4075   */\n      swap3\n      swap2\n      pop\n      pop\n      jump\t// out\n        /* \"#utility.yul\":4081:4222   */\n    tag_140:\n        /* \"#utility.yul\":4146:4155   */\n      0x00\n        /* \"#utility.yul\":4179:4216   */\n      tag_212\n        /* \"#utility.yul\":4210:4215   */\n      dup3\n        /* \"#utility.yul\":4179:4216   */\n      tag_134\n      jump\t// in\n    tag_212:\n        /* \"#utility.yul\":4166:4216   */\n      swap1\n      pop\n        /* \"#utility.yul\":4081:4222   */\n      swap2\n      swap1\n      pop\n      jump\t// out\n        /* \"#utility.yul\":4228:4389   */\n    tag_141:\n        /* \"#utility.yul\":4330:4382   */\n      tag_214\n        /* \"#utility.yul\":4376:4381   */\n      dup2\n        /* \"#utility.yul\":4330:4382   */\n      tag_140\n      jump\t// in\n    tag_214:\n        /* \"#utility.yul\":4325:4328   */\n      dup3\n        /* \"#utility.yul\":4318:4383   */\n      mstore\n        /* \"#utility.yul\":4228:4389   */\n      pop\n      pop\n      jump\t// out\n        /* \"#utility.yul\":4395:4647   */\n    tag_46:\n        /* \"#utility.yul\":4503:4507   */\n      0x00\n        /* \"#utility.yul\":4541:4543   */\n      0x20\n        /* \"#utility.yul\":4530:4539   */\n      dup3\n        /* \"#utility.yul\":4526:4544   */\n      add\n        /* \"#utility.yul\":4518:4544   */\n      swap1\n      pop\n        /* \"#utility.yul\":4554:4640   */\n      tag_216\n        /* \"#utility.yul\":4637:4638   */\n      0x00\n        /* \"#utility.yul\":4626:4635   */\n      dup4\n        /* \"#utility.yul\":4622:4639   */\n      add\n        /* \"#utility.yul\":4613:4619   */\n      dup5\n        /* \"#utility.yul\":4554:4640   */\n      tag_141\n      jump\t// in\n    tag_216:\n        /* \"#utility.yul\":4395:4647   */\n      swap3\n      swap2\n      pop\n      pop\n      jump\t// out\n        /* \"#utility.yul\":4653:4796   */\n    tag_142:\n        /* \"#utility.yul\":4710:4715   */\n      0x00\n        /* \"#utility.yul\":4741:4747   */\n      dup2\n        /* \"#utility.yul\":4735:4748   */\n      mload\n        /* \"#utility.yul\":4726:4748   */\n      swap1\n      pop\n        /* \"#utility.yul\":4757:4790   */\n      tag_218\n        /* \"#utility.yul\":4784:4789   */\n      dup2\n        /* \"#utility.yul\":4757:4790   */\n      tag_130\n      jump\t// in\n    tag_218:\n        /* \"#utility.yul\":4653:4796   */\n      swap3\n      swap2\n      pop\n      pop\n      jump\t// out\n        /* \"#utility.yul\":4802:5153   */\n    tag_55:\n        /* \"#utility.yul\":4872:4878   */\n      0x00\n        /* \"#utility.yul\":4921:4923   */\n      0x20\n        /* \"#utility.yul\":4909:4918   */\n      dup3\n        /* \"#utility.yul\":4900:4907   */\n      dup5\n        /* \"#utility.yul\":4896:4919   */\n      sub\n        /* \"#utility.yul\":4892:4924   */\n      slt\n        /* \"#utility.yul\":4889:5008   */\n      iszero\n      tag_220\n      jumpi\n        /* \"#utility.yul\":4927:5006   */\n      tag_221\n      tag_122\n      jump\t// in\n    tag_221:\n        /* \"#utility.yul\":4889:5008   */\n    tag_220:\n        /* \"#utility.yul\":5047:5048   */\n      0x00\n        /* \"#utility.yul\":5072:5136   */\n      tag_222\n        /* \"#utility.yul\":5128:5135   */\n      dup5\n        /* \"#utility.yul\":5119:5125   */\n      dup3\n        /* \"#utility.yul\":5108:5117   */\n      dup6\n        /* \"#utility.yul\":5104:5126   */\n      add\n        /* \"#utility.yul\":5072:5136   */\n      tag_142\n      jump\t// in\n    tag_222:\n        /* \"#utility.yul\":5062:5136   */\n      swap2\n      pop\n        /* \"#utility.yul\":5018:5146   */\n      pop\n        /* \"#utility.yul\":4802:5153   */\n      swap3\n      swap2\n      pop\n      pop\n      jump\t// out\n        /* \"#utility.yul\":5159:5328   */\n    tag_143:\n        /* \"#utility.yul\":5243:5254   */\n      0x00\n        /* \"#utility.yul\":5277:5283   */\n      dup3\n        /* \"#utility.yul\":5272:5275   */\n      dup3\n        /* \"#utility.yul\":5265:5284   */\n      mstore\n        /* \"#utility.yul\":5317:5321   */\n      0x20\n        /* \"#utility.yul\":5312:5315   */\n      dup3\n        /* \"#utility.yul\":5308:5322   */\n      add\n        /* \"#utility.yul\":5293:5322   */\n      swap1\n      pop\n        /* \"#utility.yul\":5159:5328   */\n      swap3\n      swap2\n      pop\n      pop\n      jump\t// out\n        /* \"#utility.yul\":5334:5509   */\n    tag_144:\n        /* \"#utility.yul\":5474:5501   */\n      0x496e73756666696369656e7420555344542062616c616e636500000000000000\n        /* \"#utility.yul\":5470:5471   */\n      0x00\n        /* \"#utility.yul\":5462:5468   */\n      dup3\n        /* \"#utility.yul\":5458:5472   */\n      add\n        /* \"#utility.yul\":5451:5502   */\n      mstore\n        /* \"#utility.yul\":5334:5509   */\n      pop\n      jump\t// out\n        /* \"#utility.yul\":5515:5881   */\n    tag_145:\n        /* \"#utility.yul\":5657:5660   */\n      0x00\n        /* \"#utility.yul\":5678:5745   */\n      tag_226\n        /* \"#utility.yul\":5742:5744   */\n      0x19\n        /* \"#utility.yul\":5737:5740   */\n      dup4\n        /* \"#utility.yul\":5678:5745   */\n      tag_143\n      jump\t// in\n    tag_226:\n        /* \"#utility.yul\":5671:5745   */\n      swap2\n      pop\n        /* \"#utility.yul\":5754:5847   */\n      tag_227\n        /* \"#utility.yul\":5843:5846   */\n      dup3\n        /* \"#utility.yul\":5754:5847   */\n      tag_144\n      jump\t// in\n    tag_227:\n        /* \"#utility.yul\":5872:5874   */\n      0x20\n        /* \"#utility.yul\":5867:5870   */\n      dup3\n        /* \"#utility.yul\":5863:5875   */\n      add\n        /* \"#utility.yul\":5856:5875   */\n      swap1\n      pop\n        /* \"#utility.yul\":5515:5881   */\n      swap2\n      swap1\n      pop\n      jump\t// out\n        /* \"#utility.yul\":5887:6306   */\n    tag_58:\n        /* \"#utility.yul\":6053:6057   */\n      0x00\n        /* \"#utility.yul\":6091:6093   */\n      0x20\n        /* \"#utility.yul\":6080:6089   */\n      dup3\n        /* \"#utility.yul\":6076:6094   */\n      add\n        /* \"#utility.yul\":6068:6094   */\n      swap1\n      pop\n        /* \"#utility.yul\":6140:6149   */\n      dup2\n        /* \"#utility.yul\":6134:6138   */\n      dup2\n        /* \"#utility.yul\":6130:6150   */\n      sub\n        /* \"#utility.yul\":6126:6127   */\n      0x00\n        /* \"#utility.yul\":6115:6124   */\n      dup4\n        /* \"#utility.yul\":6111:6128   */\n      add\n        /* \"#utility.yul\":6104:6151   */\n      mstore\n        /* \"#utility.yul\":6168:6299   */\n      tag_229\n        /* \"#utility.yul\":6294:6298   */\n      dup2\n        /* \"#utility.yul\":6168:6299   */\n      tag_145\n      jump\t// in\n    tag_229:\n        /* \"#utility.yul\":6160:6299   */\n      swap1\n      pop\n        /* \"#utility.yul\":5887:6306   */\n      swap2\n      swap1\n      pop\n      jump\t// out\n        /* \"#utility.yul\":6312:6754   */\n    tag_60:\n        /* \"#utility.yul\":6461:6465   */\n      0x00\n        /* \"#utility.yul\":6499:6501   */\n      0x60\n        /* \"#utility.yul\":6488:6497   */\n      dup3\n        /* \"#utility.yul\":6484:6502   */\n      add\n        /* \"#utility.yul\":6476:6502   */\n      swap1\n      pop\n        /* \"#utility.yul\":6512:6583   */\n      tag_231\n        /* \"#utility.yul\":6580:6581   */\n      0x00\n        /* \"#utility.yul\":6569:6578   */\n      dup4\n        /* \"#utility.yul\":6565:6582   */\n      add\n        /* \"#utility.yul\":6556:6562   */\n      dup7\n        /* \"#utility.yul\":6512:6583   */\n      tag_139\n      jump\t// in\n    tag_231:\n        /* \"#utility.yul\":6593:6665   */\n      tag_232\n        /* \"#utility.yul\":6661:6663   */\n      0x20\n        /* \"#utility.yul\":6650:6659   */\n      dup4\n        /* \"#utility.yul\":6646:6664   */\n      add\n        /* \"#utility.yul\":6637:6643   */\n      dup6\n        /* \"#utility.yul\":6593:6665   */\n      tag_139\n      jump\t// in\n    tag_232:\n        /* \"#utility.yul\":6675:6747   */\n      tag_233\n        /* \"#utility.yul\":6743:6745   */\n      0x40\n        /* \"#utility.yul\":6732:6741   */\n      dup4\n        /* \"#utility.yul\":6728:6746   */\n      add\n        /* \"#utility.yul\":6719:6725   */\n      dup5\n        /* \"#utility.yul\":6675:6747   */\n      tag_129\n      jump\t// in\n    tag_233:\n        /* \"#utility.yul\":6312:6754   */\n      swap5\n      swap4\n      pop\n      pop\n      pop\n      pop\n      jump\t// out\n        /* \"#utility.yul\":6760:6850   */\n    tag_146:\n        /* \"#utility.yul\":6794:6801   */\n      0x00\n        /* \"#utility.yul\":6837:6842   */\n      dup2\n        /* \"#utility.yul\":6830:6843   */\n      iszero\n        /* \"#utility.yul\":6823:6844   */\n      iszero\n        /* \"#utility.yul\":6812:6844   */\n      swap1\n      pop\n        /* \"#utility.yul\":6760:6850   */\n      swap2\n      swap1\n      pop\n      jump\t// out\n        /* \"#utility.yul\":6856:6972   */\n    tag_147:\n        /* \"#utility.yul\":6926:6947   */\n      tag_236\n        /* \"#utility.yul\":6941:6946   */\n      dup2\n        /* \"#utility.yul\":6926:6947   */\n      tag_146\n      jump\t// in\n    tag_236:\n        /* \"#utility.yul\":6919:6924   */\n      dup2\n        /* \"#utility.yul\":6916:6948   */\n      eq\n        /* \"#utility.yul\":6906:6966   */\n      tag_237\n      jumpi\n        /* \"#utility.yul\":6962:6963   */\n      0x00\n        /* \"#utility.yul\":6959:6960   */\n      dup1\n        /* \"#utility.yul\":6952:6964   */\n      revert\n        /* \"#utility.yul\":6906:6966   */\n    tag_237:\n        /* \"#utility.yul\":6856:6972   */\n      pop\n      jump\t// out\n        /* \"#utility.yul\":6978:7115   */\n    tag_148:\n        /* \"#utility.yul\":7032:7037   */\n      0x00\n        /* \"#utility.yul\":7063:7069   */\n      dup2\n        /* \"#utility.yul\":7057:7070   */\n      mload\n        /* \"#utility.yul\":7048:7070   */\n      swap1\n      pop\n        /* \"#utility.yul\":7079:7109   */\n      tag_239\n        /* \"#utility.yul\":7103:7108   */\n      dup2\n        /* \"#utility.yul\":7079:7109   */\n      tag_147\n      jump\t// in\n    tag_239:\n        /* \"#utility.yul\":6978:7115   */\n      swap3\n      swap2\n      pop\n      pop\n      jump\t// out\n        /* \"#utility.yul\":7121:7466   */\n    tag_64:\n        /* \"#utility.yul\":7188:7194   */\n      0x00\n        /* \"#utility.yul\":7237:7239   */\n      0x20\n        /* \"#utility.yul\":7225:7234   */\n      dup3\n        /* \"#utility.yul\":7216:7223   */\n      dup5\n        /* \"#utility.yul\":7212:7235   */\n      sub\n        /* \"#utility.yul\":7208:7240   */\n      slt\n        /* \"#utility.yul\":7205:7324   */\n      iszero\n      tag_241\n      jumpi\n        /* \"#utility.yul\":7243:7322   */\n      tag_242\n      tag_122\n      jump\t// in\n    tag_242:\n        /* \"#utility.yul\":7205:7324   */\n    tag_241:\n        /* \"#utility.yul\":7363:7364   */\n      0x00\n        /* \"#utility.yul\":7388:7449   */\n      tag_243\n        /* \"#utility.yul\":7441:7448   */\n      dup5\n        /* \"#utility.yul\":7432:7438   */\n      dup3\n        /* \"#utility.yul\":7421:7430   */\n      dup6\n        /* \"#utility.yul\":7417:7439   */\n      add\n        /* \"#utility.yul\":7388:7449   */\n      tag_148\n      jump\t// in\n    tag_243:\n        /* \"#utility.yul\":7378:7449   */\n      swap2\n      pop\n        /* \"#utility.yul\":7334:7459   */\n      pop\n        /* \"#utility.yul\":7121:7466   */\n      swap3\n      swap2\n      pop\n      pop\n      jump\t// out\n        /* \"#utility.yul\":7472:7642   */\n    tag_149:\n        /* \"#utility.yul\":7612:7634   */\n      0x55534454207472616e73666572206661696c6564000000000000000000000000\n        /* \"#utility.yul\":7608:7609   */\n      0x00\n        /* \"#utility.yul\":7600:7606   */\n      dup3\n        /* \"#utility.yul\":7596:7610   */\n      add\n        /* \"#utility.yul\":7589:7635   */\n      mstore\n        /* \"#utility.yul\":7472:7642   */\n      pop\n      jump\t// out\n        /* \"#utility.yul\":7648:8014   */\n    tag_150:\n        /* \"#utility.yul\":7790:7793   */\n      0x00\n        /* \"#utility.yul\":7811:7878   */\n      tag_246\n        /* \"#utility.yul\":7875:7877   */\n      0x14\n        /* \"#utility.yul\":7870:7873   */\n      dup4\n        /* \"#utility.yul\":7811:7878   */\n      tag_143\n      jump\t// in\n    tag_246:\n        /* \"#utility.yul\":7804:7878   */\n      swap2\n      pop\n        /* \"#utility.yul\":7887:7980   */\n      tag_247\n        /* \"#utility.yul\":7976:7979   */\n      dup3\n        /* \"#utility.yul\":7887:7980   */\n      tag_149\n      jump\t// in\n    tag_247:\n        /* \"#utility.yul\":8005:8007   */\n      0x20\n        /* \"#utility.yul\":8000:8003   */\n      dup3\n        /* \"#utility.yul\":7996:8008   */\n      add\n        /* \"#utility.yul\":7989:8008   */\n      swap1\n      pop\n        /* \"#utility.yul\":7648:8014   */\n      swap2\n      swap1\n      pop\n      jump\t// out\n        /* \"#utility.yul\":8020:8439   */\n    tag_67:\n        /* \"#utility.yul\":8186:8190   */\n      0x00\n        /* \"#utility.yul\":8224:8226   */\n      0x20\n        /* \"#utility.yul\":8213:8222   */\n      dup3\n        /* \"#utility.yul\":8209:8227   */\n      add\n        /* \"#utility.yul\":8201:8227   */\n      swap1\n      pop\n        /* \"#utility.yul\":8273:8282   */\n      dup2\n        /* \"#utility.yul\":8267:8271   */\n      dup2\n        /* \"#utility.yul\":8263:8283   */\n      sub\n        /* \"#utility.yul\":8259:8260   */\n      0x00\n        /* \"#utility.yul\":8248:8257   */\n      dup4\n        /* \"#utility.yul\":8244:8261   */\n      add\n        /* \"#utility.yul\":8237:8284   */\n      mstore\n        /* \"#utility.yul\":8301:8432   */\n      tag_249\n        /* \"#utility.yul\":8427:8431   */\n      dup2\n        /* \"#utility.yul\":8301:8432   */\n      tag_150\n      jump\t// in\n    tag_249:\n        /* \"#utility.yul\":8293:8432   */\n      swap1\n      pop\n        /* \"#utility.yul\":8020:8439   */\n      swap2\n      swap1\n      pop\n      jump\t// out\n        /* \"#utility.yul\":8445:8625   */\n    tag_151:\n        /* \"#utility.yul\":8493:8570   */\n      0x4e487b7100000000000000000000000000000000000000000000000000000000\n        /* \"#utility.yul\":8490:8491   */\n      0x00\n        /* \"#utility.yul\":8483:8571   */\n      mstore\n        /* \"#utility.yul\":8590:8594   */\n      0x11\n        /* \"#utility.yul\":8587:8588   */\n      0x04\n        /* \"#utility.yul\":8580:8595   */\n      mstore\n        /* \"#utility.yul\":8614:8618   */\n      0x24\n        /* \"#utility.yul\":8611:8612   */\n      0x00\n        /* \"#utility.yul\":8604:8619   */\n      revert\n        /* \"#utility.yul\":8631:8822   */\n    tag_71:\n        /* \"#utility.yul\":8671:8674   */\n      0x00\n        /* \"#utility.yul\":8690:8710   */\n      tag_252\n        /* \"#utility.yul\":8708:8709   */\n      dup3\n        /* \"#utility.yul\":8690:8710   */\n      tag_128\n      jump\t// in\n    tag_252:\n        /* \"#utility.yul\":8685:8710   */\n      swap2\n      pop\n        /* \"#utility.yul\":8724:8744   */\n      tag_253\n        /* \"#utility.yul\":8742:8743   */\n      dup4\n        /* \"#utility.yul\":8724:8744   */\n      tag_128\n      jump\t// in\n    tag_253:\n        /* \"#utility.yul\":8719:8744   */\n      swap3\n      pop\n        /* \"#utility.yul\":8767:8768   */\n      dup3\n        /* \"#utility.yul\":8764:8765   */\n      dup3\n        /* \"#utility.yul\":8760:8769   */\n      add\n        /* \"#utility.yul\":8753:8769   */\n      swap1\n      pop\n        /* \"#utility.yul\":8788:8791   */\n      dup1\n        /* \"#utility.yul\":8785:8786   */\n      dup3\n        /* \"#utility.yul\":8782:8792   */\n      gt\n        /* \"#utility.yul\":8779:8815   */\n      iszero\n      tag_254\n      jumpi\n        /* \"#utility.yul\":8795:8813   */\n      tag_255\n      tag_151\n      jump\t// in\n    tag_255:\n        /* \"#utility.yul\":8779:8815   */\n    tag_254:\n        /* \"#utility.yul\":8631:8822   */\n      swap3\n      swap2\n      pop\n      pop\n      jump\t// out\n        /* \"#utility.yul\":8828:8996   */\n    tag_152:\n        /* \"#utility.yul\":8968:8988   */\n      0x4e6f204e465420746f2077697468647261770000000000000000000000000000\n        /* \"#utility.yul\":8964:8965   */\n      0x00\n        /* \"#utility.yul\":8956:8962   */\n      dup3\n        /* \"#utility.yul\":8952:8966   */\n      add\n        /* \"#utility.yul\":8945:8989   */\n      mstore\n        /* \"#utility.yul\":8828:8996   */\n      pop\n      jump\t// out\n        /* \"#utility.yul\":9002:9368   */\n    tag_153:\n        /* \"#utility.yul\":9144:9147   */\n      0x00\n        /* \"#utility.yul\":9165:9232   */\n      tag_258\n        /* \"#utility.yul\":9229:9231   */\n      0x12\n        /* \"#utility.yul\":9224:9227   */\n      dup4\n        /* \"#utility.yul\":9165:9232   */\n      tag_143\n      jump\t// in\n    tag_258:\n        /* \"#utility.yul\":9158:9232   */\n      swap2\n      pop\n        /* \"#utility.yul\":9241:9334   */\n      tag_259\n        /* \"#utility.yul\":9330:9333   */\n      dup3\n        /* \"#utility.yul\":9241:9334   */\n      tag_152\n      jump\t// in\n    tag_259:\n        /* \"#utility.yul\":9359:9361   */\n      0x20\n        /* \"#utility.yul\":9354:9357   */\n      dup3\n        /* \"#utility.yul\":9350:9362   */\n      add\n        /* \"#utility.yul\":9343:9362   */\n      swap1\n      pop\n        /* \"#utility.yul\":9002:9368   */\n      swap2\n      swap1\n      pop\n      jump\t// out\n        /* \"#utility.yul\":9374:9793   */\n    tag_81:\n        /* \"#utility.yul\":9540:9544   */\n      0x00\n        /* \"#utility.yul\":9578:9580   */\n      0x20\n        /* \"#utility.yul\":9567:9576   */\n      dup3\n        /* \"#utility.yul\":9563:9581   */\n      add\n        /* \"#utility.yul\":9555:9581   */\n      swap1\n      pop\n        /* \"#utility.yul\":9627:9636   */\n      dup2\n        /* \"#utility.yul\":9621:9625   */\n      dup2\n        /* \"#utility.yul\":9617:9637   */\n      sub\n        /* \"#utility.yul\":9613:9614   */\n      0x00\n        /* \"#utility.yul\":9602:9611   */\n      dup4\n        /* \"#utility.yul\":9598:9615   */\n      add\n        /* \"#utility.yul\":9591:9638   */\n      mstore\n        /* \"#utility.yul\":9655:9786   */\n      tag_261\n        /* \"#utility.yul\":9781:9785   */\n      dup2\n        /* \"#utility.yul\":9655:9786   */\n      tag_153\n      jump\t// in\n    tag_261:\n        /* \"#utility.yul\":9647:9786   */\n      swap1\n      pop\n        /* \"#utility.yul\":9374:9793   */\n      swap2\n      swap1\n      pop\n      jump\t// out\n        /* \"#utility.yul\":9799:10131   */\n    tag_88:\n        /* \"#utility.yul\":9920:9924   */\n      0x00\n        /* \"#utility.yul\":9958:9960   */\n      0x40\n        /* \"#utility.yul\":9947:9956   */\n      dup3\n        /* \"#utility.yul\":9943:9961   */\n      add\n        /* \"#utility.yul\":9935:9961   */\n      swap1\n      pop\n        /* \"#utility.yul\":9971:10042   */\n      tag_263\n        /* \"#utility.yul\":10039:10040   */\n      0x00\n        /* \"#utility.yul\":10028:10037   */\n      dup4\n        /* \"#utility.yul\":10024:10041   */\n      add\n        /* \"#utility.yul\":10015:10021   */\n      dup6\n        /* \"#utility.yul\":9971:10042   */\n      tag_139\n      jump\t// in\n    tag_263:\n        /* \"#utility.yul\":10052:10124   */\n      tag_264\n        /* \"#utility.yul\":10120:10122   */\n      0x20\n        /* \"#utility.yul\":10109:10118   */\n      dup4\n        /* \"#utility.yul\":10105:10123   */\n      add\n        /* \"#utility.yul\":10096:10102   */\n      dup5\n        /* \"#utility.yul\":10052:10124   */\n      tag_129\n      jump\t// in\n    tag_264:\n        /* \"#utility.yul\":9799:10131   */\n      swap4\n      swap3\n      pop\n      pop\n      pop\n      jump\t// out\n        /* \"#utility.yul\":10137:10362   */\n    tag_154:\n        /* \"#utility.yul\":10277:10311   */\n      0x4f776e61626c653a206e6577206f776e657220697320746865207a65726f2061\n        /* \"#utility.yul\":10273:10274   */\n      0x00\n        /* \"#utility.yul\":10265:10271   */\n      dup3\n        /* \"#utility.yul\":10261:10275   */\n      add\n        /* \"#utility.yul\":10254:10312   */\n      mstore\n        /* \"#utility.yul\":10346:10354   */\n      0x6464726573730000000000000000000000000000000000000000000000000000\n        /* \"#utility.yul\":10341:10343   */\n      0x20\n        /* \"#utility.yul\":10333:10339   */\n      dup3\n        /* \"#utility.yul\":10329:10344   */\n      add\n        /* \"#utility.yul\":10322:10355   */\n      mstore\n        /* \"#utility.yul\":10137:10362   */\n      pop\n      jump\t// out\n        /* \"#utility.yul\":10368:10734   */\n    tag_155:\n        /* \"#utility.yul\":10510:10513   */\n      0x00\n        /* \"#utility.yul\":10531:10598   */\n      tag_267\n        /* \"#utility.yul\":10595:10597   */\n      0x26\n        /* \"#utility.yul\":10590:10593   */\n      dup4\n        /* \"#utility.yul\":10531:10598   */\n      tag_143\n      jump\t// in\n    tag_267:\n        /* \"#utility.yul\":10524:10598   */\n      swap2\n      pop\n        /* \"#utility.yul\":10607:10700   */\n      tag_268\n        /* \"#utility.yul\":10696:10699   */\n      dup3\n        /* \"#utility.yul\":10607:10700   */\n      tag_154\n      jump\t// in\n    tag_268:\n        /* \"#utility.yul\":10725:10727   */\n      0x40\n        /* \"#utility.yul\":10720:10723   */\n      dup3\n        /* \"#utility.yul\":10716:10728   */\n      add\n        /* \"#utility.yul\":10709:10728   */\n      swap1\n      pop\n        /* \"#utility.yul\":10368:10734   */\n      swap2\n      swap1\n      pop\n      jump\t// out\n        /* \"#utility.yul\":10740:11159   */\n    tag_106:\n        /* \"#utility.yul\":10906:10910   */\n      0x00\n        /* \"#utility.yul\":10944:10946   */\n      0x20\n        /* \"#utility.yul\":10933:10942   */\n      dup3\n        /* \"#utility.yul\":10929:10947   */\n      add\n        /* \"#utility.yul\":10921:10947   */\n      swap1\n      pop\n        /* \"#utility.yul\":10993:11002   */\n      dup2\n        /* \"#utility.yul\":10987:10991   */\n      dup2\n        /* \"#utility.yul\":10983:11003   */\n      sub\n        /* \"#utility.yul\":10979:10980   */\n      0x00\n        /* \"#utility.yul\":10968:10977   */\n      dup4\n        /* \"#utility.yul\":10964:10981   */\n      add\n        /* \"#utility.yul\":10957:11004   */\n      mstore\n        /* \"#utility.yul\":11021:11152   */\n      tag_270\n        /* \"#utility.yul\":11147:11151   */\n      dup2\n        /* \"#utility.yul\":11021:11152   */\n      tag_155\n      jump\t// in\n    tag_270:\n        /* \"#utility.yul\":11013:11152   */\n      swap1\n      pop\n        /* \"#utility.yul\":10740:11159   */\n      swap2\n      swap1\n      pop\n      jump\t// out\n        /* \"#utility.yul\":11165:11347   */\n    tag_156:\n        /* \"#utility.yul\":11305:11339   */\n      0x4f776e61626c653a2063616c6c6572206973206e6f7420746865206f776e6572\n        /* \"#utility.yul\":11301:11302   */\n      0x00\n        /* \"#utility.yul\":11293:11299   */\n      dup3\n        /* \"#utility.yul\":11289:11303   */\n      add\n        /* \"#utility.yul\":11282:11340   */\n      mstore\n        /* \"#utility.yul\":11165:11347   */\n      pop\n      jump\t// out\n        /* \"#utility.yul\":11353:11719   */\n    tag_157:\n        /* \"#utility.yul\":11495:11498   */\n      0x00\n        /* \"#utility.yul\":11516:11583   */\n      tag_273\n        /* \"#utility.yul\":11580:11582   */\n      0x20\n        /* \"#utility.yul\":11575:11578   */\n      dup4\n        /* \"#utility.yul\":11516:11583   */\n      tag_143\n      jump\t// in\n    tag_273:\n        /* \"#utility.yul\":11509:11583   */\n      swap2\n      pop\n        /* \"#utility.yul\":11592:11685   */\n      tag_274\n        /* \"#utility.yul\":11681:11684   */\n      dup3\n        /* \"#utility.yul\":11592:11685   */\n      tag_156\n      jump\t// in\n    tag_274:\n        /* \"#utility.yul\":11710:11712   */\n      0x20\n        /* \"#utility.yul\":11705:11708   */\n      dup3\n        /* \"#utility.yul\":11701:11713   */\n      add\n        /* \"#utility.yul\":11694:11713   */\n      swap1\n      pop\n        /* \"#utility.yul\":11353:11719   */\n      swap2\n      swap1\n      pop\n      jump\t// out\n        /* \"#utility.yul\":11725:12144   */\n    tag_118:\n        /* \"#utility.yul\":11891:11895   */\n      0x00\n        /* \"#utility.yul\":11929:11931   */\n      0x20\n        /* \"#utility.yul\":11918:11927   */\n      dup3\n        /* \"#utility.yul\":11914:11932   */\n      add\n        /* \"#utility.yul\":11906:11932   */\n      swap1\n      pop\n        /* \"#utility.yul\":11978:11987   */\n      dup2\n        /* \"#utility.yul\":11972:11976   */\n      dup2\n        /* \"#utility.yul\":11968:11988   */\n      sub\n        /* \"#utility.yul\":11964:11965   */\n      0x00\n        /* \"#utility.yul\":11953:11962   */\n      dup4\n        /* \"#utility.yul\":11949:11966   */\n      add\n        /* \"#utility.yul\":11942:11989   */\n      mstore\n        /* \"#utility.yul\":12006:12137   */\n      tag_276\n        /* \"#utility.yul\":12132:12136   */\n      dup2\n        /* \"#utility.yul\":12006:12137   */\n      tag_157\n      jump\t// in\n    tag_276:\n        /* \"#utility.yul\":11998:12137   */\n      swap1\n      pop\n        /* \"#utility.yul\":11725:12144   */\n      swap2\n      swap1\n      pop\n      jump\t// out\n\n    auxdata: 0xa26469706673582212200dc86d815cf4cc46d0d26fa70ac1582c35d56fad9b273fd65a01c6225cbcf19964736f6c63430008150033\n}\n",
				"bytecode": {
					"linkReferences": {},
					"object": "608060405234801562000010575f80fd5b50604051620011e9380380620011e983398181016040528101906200003691906200028d565b620000566200004a6200016060201b60201c565b6200016760201b60201c565b8360015f6101000a81548173ffffffffffffffffffffffffffffffffffffffff021916908373ffffffffffffffffffffffffffffffffffffffff1602179055508260025f6101000a81548173ffffffffffffffffffffffffffffffffffffffff021916908373ffffffffffffffffffffffffffffffffffffffff1602179055508160035f6101000a81548173ffffffffffffffffffffffffffffffffffffffff021916908373ffffffffffffffffffffffffffffffffffffffff1602179055508060045f6101000a81548173ffffffffffffffffffffffffffffffffffffffff021916908373ffffffffffffffffffffffffffffffffffffffff16021790555050505050620002fc565b5f33905090565b5f805f9054906101000a900473ffffffffffffffffffffffffffffffffffffffff169050815f806101000a81548173ffffffffffffffffffffffffffffffffffffffff021916908373ffffffffffffffffffffffffffffffffffffffff1602179055508173ffffffffffffffffffffffffffffffffffffffff168173ffffffffffffffffffffffffffffffffffffffff167f8be0079c531659141344cd1fd0a4f28419497f9722a3daafe3b4186f6b6457e060405160405180910390a35050565b5f80fd5b5f73ffffffffffffffffffffffffffffffffffffffff82169050919050565b5f62000257826200022c565b9050919050565b62000269816200024b565b811462000274575f80fd5b50565b5f8151905062000287816200025e565b92915050565b5f805f8060808587031215620002a857620002a762000228565b5b5f620002b78782880162000277565b9450506020620002ca8782880162000277565b9350506040620002dd8782880162000277565b9250506060620002f08782880162000277565b91505092959194509250565b610edf806200030a5f395ff3fe608060405234801561000f575f80fd5b506004361061009c575f3560e01c806369e527da1161006457806369e527da14610132578063715018a6146101505780638da5cb5b1461015a578063d56d229d14610178578063f2fde38b146101965761009c565b80630ba36dcd146100a057806326bd2b60146100d05780632f48ab7d146100ec5780633ccfd60b1461010a5780635fe3b56714610114575b5f80fd5b6100ba60048036038101906100b59190610951565b6101b2565b6040516100c79190610994565b60405180910390f35b6100ea60048036038101906100e591906109d7565b6101c7565b005b6100f46103eb565b6040516101019190610a5d565b60405180910390f35b610112610410565b005b61011c61066f565b6040516101299190610a96565b60405180910390f35b61013a610694565b6040516101479190610abe565b60405180910390f35b6101586106b9565b005b6101626106cc565b60405161016f9190610abe565b60405180910390f35b6101806106f3565b60405161018d9190610af7565b60405180910390f35b6101b060048036038101906101ab9190610951565b610718565b005b6005602052805f5260405f205f915090505481565b8060025f9054906101000a900473ffffffffffffffffffffffffffffffffffffffff1673ffffffffffffffffffffffffffffffffffffffff166370a08231336040518263ffffffff1660e01b81526004016102229190610abe565b602060405180830381865afa15801561023d573d5f803e3d5ffd5b505050506040513d601f19601f820116820180604052508101906102619190610b24565b10156102a2576040517f08c379a000000000000000000000000000000000000000000000000000000000815260040161029990610ba9565b60405180910390fd5b60025f9054906101000a900473ffffffffffffffffffffffffffffffffffffffff1673ffffffffffffffffffffffffffffffffffffffff166323b872dd3330846040518463ffffffff1660e01b815260040161030093929190610bc7565b6020604051808303815f875af115801561031c573d5f803e3d5ffd5b505050506040513d601f19601f820116820180604052508101906103409190610c31565b61037f576040517f08c379a000000000000000000000000000000000000000000000000000000000815260040161037690610ca6565b60405180910390fd5b5f6103893361079a565b90508160055f3373ffffffffffffffffffffffffffffffffffffffff1673ffffffffffffffffffffffffffffffffffffffff1681526020019081526020015f205f8282546103d79190610cf1565b925050819055506103e7826107a0565b5050565b60025f9054906101000a900473ffffffffffffffffffffffffffffffffffffffff1681565b5f60035f9054906101000a900473ffffffffffffffffffffffffffffffffffffffff1673ffffffffffffffffffffffffffffffffffffffff166370a08231336040518263ffffffff1660e01b815260040161046b9190610abe565b602060405180830381865afa158015610486573d5f803e3d5ffd5b505050506040513d601f19601f820116820180604052508101906104aa9190610b24565b116104ea576040517f08c379a00000000000000000000000000000000000000000000000000000000081526004016104e190610d6e565b60405180910390fd5b5f6104f4336107a3565b90505f6104ff6107a9565b90505f8160055f3373ffffffffffffffffffffffffffffffffffffffff1673ffffffffffffffffffffffffffffffffffffffff1681526020019081526020015f205461054b9190610cf1565b905060025f9054906101000a900473ffffffffffffffffffffffffffffffffffffffff1673ffffffffffffffffffffffffffffffffffffffff1663a9059cbb33836040518363ffffffff1660e01b81526004016105a9929190610d8c565b6020604051808303815f875af11580156105c5573d5f803e3d5ffd5b505050506040513d601f19601f820116820180604052508101906105e99190610c31565b610628576040517f08c379a000000000000000000000000000000000000000000000000000000000815260040161061f90610ca6565b60405180910390fd5b5f60055f3373ffffffffffffffffffffffffffffffffffffffff1673ffffffffffffffffffffffffffffffffffffffff1681526020019081526020015f2081905550505050565b60015f9054906101000a900473ffffffffffffffffffffffffffffffffffffffff1681565b60045f9054906101000a900473ffffffffffffffffffffffffffffffffffffffff1681565b6106c16107ad565b6106ca5f61082b565b565b5f805f9054906101000a900473ffffffffffffffffffffffffffffffffffffffff16905090565b60035f9054906101000a900473ffffffffffffffffffffffffffffffffffffffff1681565b6107206107ad565b5f73ffffffffffffffffffffffffffffffffffffffff168173ffffffffffffffffffffffffffffffffffffffff160361078e576040517f08c379a000000000000000000000000000000000000000000000000000000000815260040161078590610e23565b60405180910390fd5b6107978161082b565b50565b5f919050565b50565b5f919050565b5f90565b6107b56108ec565b73ffffffffffffffffffffffffffffffffffffffff166107d36106cc565b73ffffffffffffffffffffffffffffffffffffffff1614610829576040517f08c379a000000000000000000000000000000000000000000000000000000000815260040161082090610e8b565b60405180910390fd5b565b5f805f9054906101000a900473ffffffffffffffffffffffffffffffffffffffff169050815f806101000a81548173ffffffffffffffffffffffffffffffffffffffff021916908373ffffffffffffffffffffffffffffffffffffffff1602179055508173ffffffffffffffffffffffffffffffffffffffff168173ffffffffffffffffffffffffffffffffffffffff167f8be0079c531659141344cd1fd0a4f28419497f9722a3daafe3b4186f6b6457e060405160405180910390a35050565b5f33905090565b5f80fd5b5f73ffffffffffffffffffffffffffffffffffffffff82169050919050565b5f610920826108f7565b9050919050565b61093081610916565b811461093a575f80fd5b50565b5f8135905061094b81610927565b92915050565b5f60208284031215610966576109656108f3565b5b5f6109738482850161093d565b91505092915050565b5f819050919050565b61098e8161097c565b82525050565b5f6020820190506109a75f830184610985565b92915050565b6109b68161097c565b81146109c0575f80fd5b50565b5f813590506109d1816109ad565b92915050565b5f602082840312156109ec576109eb6108f3565b5b5f6109f9848285016109c3565b91505092915050565b5f819050919050565b5f610a25610a20610a1b846108f7565b610a02565b6108f7565b9050919050565b5f610a3682610a0b565b9050919050565b5f610a4782610a2c565b9050919050565b610a5781610a3d565b82525050565b5f602082019050610a705f830184610a4e565b92915050565b5f610a8082610a2c565b9050919050565b610a9081610a76565b82525050565b5f602082019050610aa95f830184610a87565b92915050565b610ab881610916565b82525050565b5f602082019050610ad15f830184610aaf565b92915050565b5f610ae182610a2c565b9050919050565b610af181610ad7565b82525050565b5f602082019050610b0a5f830184610ae8565b92915050565b5f81519050610b1e816109ad565b92915050565b5f60208284031215610b3957610b386108f3565b5b5f610b4684828501610b10565b91505092915050565b5f82825260208201905092915050565b7f496e73756666696369656e7420555344542062616c616e6365000000000000005f82015250565b5f610b93601983610b4f565b9150610b9e82610b5f565b602082019050919050565b5f6020820190508181035f830152610bc081610b87565b9050919050565b5f606082019050610bda5f830186610aaf565b610be76020830185610aaf565b610bf46040830184610985565b949350505050565b5f8115159050919050565b610c1081610bfc565b8114610c1a575f80fd5b50565b5f81519050610c2b81610c07565b92915050565b5f60208284031215610c4657610c456108f3565b5b5f610c5384828501610c1d565b91505092915050565b7f55534454207472616e73666572206661696c65640000000000000000000000005f82015250565b5f610c90601483610b4f565b9150610c9b82610c5c565b602082019050919050565b5f6020820190508181035f830152610cbd81610c84565b9050919050565b7f4e487b71000000000000000000000000000000000000000000000000000000005f52601160045260245ffd5b5f610cfb8261097c565b9150610d068361097c565b9250828201905080821115610d1e57610d1d610cc4565b5b92915050565b7f4e6f204e465420746f20776974686472617700000000000000000000000000005f82015250565b5f610d58601283610b4f565b9150610d6382610d24565b602082019050919050565b5f6020820190508181035f830152610d8581610d4c565b9050919050565b5f604082019050610d9f5f830185610aaf565b610dac6020830184610985565b9392505050565b7f4f776e61626c653a206e6577206f776e657220697320746865207a65726f20615f8201527f6464726573730000000000000000000000000000000000000000000000000000602082015250565b5f610e0d602683610b4f565b9150610e1882610db3565b604082019050919050565b5f6020820190508181035f830152610e3a81610e01565b9050919050565b7f4f776e61626c653a2063616c6c6572206973206e6f7420746865206f776e65725f82015250565b5f610e75602083610b4f565b9150610e8082610e41565b602082019050919050565b5f6020820190508181035f830152610ea281610e69565b905091905056fea26469706673582212200dc86d815cf4cc46d0d26fa70ac1582c35d56fad9b273fd65a01c6225cbcf19964736f6c63430008150033",
					"opcodes": "PUSH1 0x80 PUSH1 0x40 MSTORE CALLVALUE DUP1 ISZERO PUSH3 0x10 JUMPI PUSH0 DUP1 REVERT JUMPDEST POP PUSH1 0x40 MLOAD PUSH3 0x11E9 CODESIZE SUB DUP1 PUSH3 0x11E9 DUP4 CODECOPY DUP2 DUP2 ADD PUSH1 0x40 MSTORE DUP2 ADD SWAP1 PUSH3 0x36 SWAP2 SWAP1 PUSH3 0x28D JUMP JUMPDEST PUSH3 0x56 PUSH3 0x4A PUSH3 0x160 PUSH1 0x20 SHL PUSH1 0x20 SHR JUMP JUMPDEST PUSH3 0x167 PUSH1 0x20 SHL PUSH1 0x20 SHR JUMP JUMPDEST DUP4 PUSH1 0x1 PUSH0 PUSH2 0x100 EXP DUP2 SLOAD DUP2 PUSH20 0xFFFFFFFFFFFFFFFFFFFFFFFFFFFFFFFFFFFFFFFF MUL NOT AND SWAP1 DUP4 PUSH20 0xFFFFFFFFFFFFFFFFFFFFFFFFFFFFFFFFFFFFFFFF AND MUL OR SWAP1 SSTORE POP DUP3 PUSH1 0x2 PUSH0 PUSH2 0x100 EXP DUP2 SLOAD DUP2 PUSH20 0xFFFFFFFFFFFFFFFFFFFFFFFFFFFFFFFFFFFFFFFF MUL NOT AND SWAP1 DUP4 PUSH20 0xFFFFFFFFFFFFFFFFFFFFFFFFFFFFFFFFFFFFFFFF AND MUL OR SWAP1 SSTORE POP DUP2 PUSH1 0x3 PUSH0 PUSH2 0x100 EXP DUP2 SLOAD DUP2 PUSH20 0xFFFFFFFFFFFFFFFFFFFFFFFFFFFFFFFFFFFFFFFF MUL NOT AND SWAP1 DUP4 PUSH20 0xFFFFFFFFFFFFFFFFFFFFFFFFFFFFFFFFFFFFFFFF AND MUL OR SWAP1 SSTORE POP DUP1 PUSH1 0x4 PUSH0 PUSH2 0x100 EXP DUP2 SLOAD DUP2 PUSH20 0xFFFFFFFFFFFFFFFFFFFFFFFFFFFFFFFFFFFFFFFF MUL NOT AND SWAP1 DUP4 PUSH20 0xFFFFFFFFFFFFFFFFFFFFFFFFFFFFFFFFFFFFFFFF AND MUL OR SWAP1 SSTORE POP POP POP POP POP PUSH3 0x2FC JUMP JUMPDEST PUSH0 CALLER SWAP1 POP SWAP1 JUMP JUMPDEST PUSH0 DUP1 PUSH0 SWAP1 SLOAD SWAP1 PUSH2 0x100 EXP SWAP1 DIV PUSH20 0xFFFFFFFFFFFFFFFFFFFFFFFFFFFFFFFFFFFFFFFF AND SWAP1 POP DUP2 PUSH0 DUP1 PUSH2 0x100 EXP DUP2 SLOAD DUP2 PUSH20 0xFFFFFFFFFFFFFFFFFFFFFFFFFFFFFFFFFFFFFFFF MUL NOT AND SWAP1 DUP4 PUSH20 0xFFFFFFFFFFFFFFFFFFFFFFFFFFFFFFFFFFFFFFFF AND MUL OR SWAP1 SSTORE POP DUP2 PUSH20 0xFFFFFFFFFFFFFFFFFFFFFFFFFFFFFFFFFFFFFFFF AND DUP2 PUSH20 0xFFFFFFFFFFFFFFFFFFFFFFFFFFFFFFFFFFFFFFFF AND PUSH32 0x8BE0079C531659141344CD1FD0A4F28419497F9722A3DAAFE3B4186F6B6457E0 PUSH1 0x40 MLOAD PUSH1 0x40 MLOAD DUP1 SWAP2 SUB SWAP1 LOG3 POP POP JUMP JUMPDEST PUSH0 DUP1 REVERT JUMPDEST PUSH0 PUSH20 0xFFFFFFFFFFFFFFFFFFFFFFFFFFFFFFFFFFFFFFFF DUP3 AND SWAP1 POP SWAP2 SWAP1 POP JUMP JUMPDEST PUSH0 PUSH3 0x257 DUP3 PUSH3 0x22C JUMP JUMPDEST SWAP1 POP SWAP2 SWAP1 POP JUMP JUMPDEST PUSH3 0x269 DUP2 PUSH3 0x24B JUMP JUMPDEST DUP2 EQ PUSH3 0x274 JUMPI PUSH0 DUP1 REVERT JUMPDEST POP JUMP JUMPDEST PUSH0 DUP2 MLOAD SWAP1 POP PUSH3 0x287 DUP2 PUSH3 0x25E JUMP JUMPDEST SWAP3 SWAP2 POP POP JUMP JUMPDEST PUSH0 DUP1 PUSH0 DUP1 PUSH1 0x80 DUP6 DUP8 SUB SLT ISZERO PUSH3 0x2A8 JUMPI PUSH3 0x2A7 PUSH3 0x228 JUMP JUMPDEST JUMPDEST PUSH0 PUSH3 0x2B7 DUP8 DUP3 DUP9 ADD PUSH3 0x277 JUMP JUMPDEST SWAP5 POP POP PUSH1 0x20 PUSH3 0x2CA DUP8 DUP3 DUP9 ADD PUSH3 0x277 JUMP JUMPDEST SWAP4 POP POP PUSH1 0x40 PUSH3 0x2DD DUP8 DUP3 DUP9 ADD PUSH3 0x277 JUMP JUMPDEST SWAP3 POP POP PUSH1 0x60 PUSH3 0x2F0 DUP8 DUP3 DUP9 ADD PUSH3 0x277 JUMP JUMPDEST SWAP2 POP POP SWAP3 SWAP6 SWAP2 SWAP5 POP SWAP3 POP JUMP JUMPDEST PUSH2 0xEDF DUP1 PUSH3 0x30A PUSH0 CODECOPY PUSH0 RETURN INVALID PUSH1 0x80 PUSH1 0x40 MSTORE CALLVALUE DUP1 ISZERO PUSH2 0xF JUMPI PUSH0 DUP1 REVERT JUMPDEST POP PUSH1 0x4 CALLDATASIZE LT PUSH2 0x9C JUMPI PUSH0 CALLDATALOAD PUSH1 0xE0 SHR DUP1 PUSH4 0x69E527DA GT PUSH2 0x64 JUMPI DUP1 PUSH4 0x69E527DA EQ PUSH2 0x132 JUMPI DUP1 PUSH4 0x715018A6 EQ PUSH2 0x150 JUMPI DUP1 PUSH4 0x8DA5CB5B EQ PUSH2 0x15A JUMPI DUP1 PUSH4 0xD56D229D EQ PUSH2 0x178 JUMPI DUP1 PUSH4 0xF2FDE38B EQ PUSH2 0x196 JUMPI PUSH2 0x9C JUMP JUMPDEST DUP1 PUSH4 0xBA36DCD EQ PUSH2 0xA0 JUMPI DUP1 PUSH4 0x26BD2B60 EQ PUSH2 0xD0 JUMPI DUP1 PUSH4 0x2F48AB7D EQ PUSH2 0xEC JUMPI DUP1 PUSH4 0x3CCFD60B EQ PUSH2 0x10A JUMPI DUP1 PUSH4 0x5FE3B567 EQ PUSH2 0x114 JUMPI JUMPDEST PUSH0 DUP1 REVERT JUMPDEST PUSH2 0xBA PUSH1 0x4 DUP1 CALLDATASIZE SUB DUP2 ADD SWAP1 PUSH2 0xB5 SWAP2 SWAP1 PUSH2 0x951 JUMP JUMPDEST PUSH2 0x1B2 JUMP JUMPDEST PUSH1 0x40 MLOAD PUSH2 0xC7 SWAP2 SWAP1 PUSH2 0x994 JUMP JUMPDEST PUSH1 0x40 MLOAD DUP1 SWAP2 SUB SWAP1 RETURN JUMPDEST PUSH2 0xEA PUSH1 0x4 DUP1 CALLDATASIZE SUB DUP2 ADD SWAP1 PUSH2 0xE5 SWAP2 SWAP1 PUSH2 0x9D7 JUMP JUMPDEST PUSH2 0x1C7 JUMP JUMPDEST STOP JUMPDEST PUSH2 0xF4 PUSH2 0x3EB JUMP JUMPDEST PUSH1 0x40 MLOAD PUSH2 0x101 SWAP2 SWAP1 PUSH2 0xA5D JUMP JUMPDEST PUSH1 0x40 MLOAD DUP1 SWAP2 SUB SWAP1 RETURN JUMPDEST PUSH2 0x112 PUSH2 0x410 JUMP JUMPDEST STOP JUMPDEST PUSH2 0x11C PUSH2 0x66F JUMP JUMPDEST PUSH1 0x40 MLOAD PUSH2 0x129 SWAP2 SWAP1 PUSH2 0xA96 JUMP JUMPDEST PUSH1 0x40 MLOAD DUP1 SWAP2 SUB SWAP1 RETURN JUMPDEST PUSH2 0x13A PUSH2 0x694 JUMP JUMPDEST PUSH1 0x40 MLOAD PUSH2 0x147 SWAP2 SWAP1 PUSH2 0xABE JUMP JUMPDEST PUSH1 0x40 MLOAD DUP1 SWAP2 SUB SWAP1 RETURN JUMPDEST PUSH2 0x158 PUSH2 0x6B9 JUMP JUMPDEST STOP JUMPDEST PUSH2 0x162 PUSH2 0x6CC JUMP JUMPDEST PUSH1 0x40 MLOAD PUSH2 0x16F SWAP2 SWAP1 PUSH2 0xABE JUMP JUMPDEST PUSH1 0x40 MLOAD DUP1 SWAP2 SUB SWAP1 RETURN JUMPDEST PUSH2 0x180 PUSH2 0x6F3 JUMP JUMPDEST PUSH1 0x40 MLOAD PUSH2 0x18D SWAP2 SWAP1 PUSH2 0xAF7 JUMP JUMPDEST PUSH1 0x40 MLOAD DUP1 SWAP2 SUB SWAP1 RETURN JUMPDEST PUSH2 0x1B0 PUSH1 0x4 DUP1 CALLDATASIZE SUB DUP2 ADD SWAP1 PUSH2 0x1AB SWAP2 SWAP1 PUSH2 0x951 JUMP JUMPDEST PUSH2 0x718 JUMP JUMPDEST STOP JUMPDEST PUSH1 0x5 PUSH1 0x20 MSTORE DUP1 PUSH0 MSTORE PUSH1 0x40 PUSH0 KECCAK256 PUSH0 SWAP2 POP SWAP1 POP SLOAD DUP2 JUMP JUMPDEST DUP1 PUSH1 0x2 PUSH0 SWAP1 SLOAD SWAP1 PUSH2 0x100 EXP SWAP1 DIV PUSH20 0xFFFFFFFFFFFFFFFFFFFFFFFFFFFFFFFFFFFFFFFF AND PUSH20 0xFFFFFFFFFFFFFFFFFFFFFFFFFFFFFFFFFFFFFFFF AND PUSH4 0x70A08231 CALLER PUSH1 0x40 MLOAD DUP3 PUSH4 0xFFFFFFFF AND PUSH1 0xE0 SHL DUP2 MSTORE PUSH1 0x4 ADD PUSH2 0x222 SWAP2 SWAP1 PUSH2 0xABE JUMP JUMPDEST PUSH1 0x20 PUSH1 0x40 MLOAD DUP1 DUP4 SUB DUP2 DUP7 GAS STATICCALL ISZERO DUP1 ISZERO PUSH2 0x23D JUMPI RETURNDATASIZE PUSH0 DUP1 RETURNDATACOPY RETURNDATASIZE PUSH0 REVERT JUMPDEST POP POP POP POP PUSH1 0x40 MLOAD RETURNDATASIZE PUSH1 0x1F NOT PUSH1 0x1F DUP3 ADD AND DUP3 ADD DUP1 PUSH1 0x40 MSTORE POP DUP2 ADD SWAP1 PUSH2 0x261 SWAP2 SWAP1 PUSH2 0xB24 JUMP JUMPDEST LT ISZERO PUSH2 0x2A2 JUMPI PUSH1 0x40 MLOAD PUSH32 0x8C379A000000000000000000000000000000000000000000000000000000000 DUP2 MSTORE PUSH1 0x4 ADD PUSH2 0x299 SWAP1 PUSH2 0xBA9 JUMP JUMPDEST PUSH1 0x40 MLOAD DUP1 SWAP2 SUB SWAP1 REVERT JUMPDEST PUSH1 0x2 PUSH0 SWAP1 SLOAD SWAP1 PUSH2 0x100 EXP SWAP1 DIV PUSH20 0xFFFFFFFFFFFFFFFFFFFFFFFFFFFFFFFFFFFFFFFF AND PUSH20 0xFFFFFFFFFFFFFFFFFFFFFFFFFFFFFFFFFFFFFFFF AND PUSH4 0x23B872DD CALLER ADDRESS DUP5 PUSH1 0x40 MLOAD DUP5 PUSH4 0xFFFFFFFF AND PUSH1 0xE0 SHL DUP2 MSTORE PUSH1 0x4 ADD PUSH2 0x300 SWAP4 SWAP3 SWAP2 SWAP1 PUSH2 0xBC7 JUMP JUMPDEST PUSH1 0x20 PUSH1 0x40 MLOAD DUP1 DUP4 SUB DUP2 PUSH0 DUP8 GAS CALL ISZERO DUP1 ISZERO PUSH2 0x31C JUMPI RETURNDATASIZE PUSH0 DUP1 RETURNDATACOPY RETURNDATASIZE PUSH0 REVERT JUMPDEST POP POP POP POP PUSH1 0x40 MLOAD RETURNDATASIZE PUSH1 0x1F NOT PUSH1 0x1F DUP3 ADD AND DUP3 ADD DUP1 PUSH1 0x40 MSTORE POP DUP2 ADD SWAP1 PUSH2 0x340 SWAP2 SWAP1 PUSH2 0xC31 JUMP JUMPDEST PUSH2 0x37F JUMPI PUSH1 0x40 MLOAD PUSH32 0x8C379A000000000000000000000000000000000000000000000000000000000 DUP2 MSTORE PUSH1 0x4 ADD PUSH2 0x376 SWAP1 PUSH2 0xCA6 JUMP JUMPDEST PUSH1 0x40 MLOAD DUP1 SWAP2 SUB SWAP1 REVERT JUMPDEST PUSH0 PUSH2 0x389 CALLER PUSH2 0x79A JUMP JUMPDEST SWAP1 POP DUP2 PUSH1 0x5 PUSH0 CALLER PUSH20 0xFFFFFFFFFFFFFFFFFFFFFFFFFFFFFFFFFFFFFFFF AND PUSH20 0xFFFFFFFFFFFFFFFFFFFFFFFFFFFFFFFFFFFFFFFF AND DUP2 MSTORE PUSH1 0x20 ADD SWAP1 DUP2 MSTORE PUSH1 0x20 ADD PUSH0 KECCAK256 PUSH0 DUP3 DUP3 SLOAD PUSH2 0x3D7 SWAP2 SWAP1 PUSH2 0xCF1 JUMP JUMPDEST SWAP3 POP POP DUP2 SWAP1 SSTORE POP PUSH2 0x3E7 DUP3 PUSH2 0x7A0 JUMP JUMPDEST POP POP JUMP JUMPDEST PUSH1 0x2 PUSH0 SWAP1 SLOAD SWAP1 PUSH2 0x100 EXP SWAP1 DIV PUSH20 0xFFFFFFFFFFFFFFFFFFFFFFFFFFFFFFFFFFFFFFFF AND DUP2 JUMP JUMPDEST PUSH0 PUSH1 0x3 PUSH0 SWAP1 SLOAD SWAP1 PUSH2 0x100 EXP SWAP1 DIV PUSH20 0xFFFFFFFFFFFFFFFFFFFFFFFFFFFFFFFFFFFFFFFF AND PUSH20 0xFFFFFFFFFFFFFFFFFFFFFFFFFFFFFFFFFFFFFFFF AND PUSH4 0x70A08231 CALLER PUSH1 0x40 MLOAD DUP3 PUSH4 0xFFFFFFFF AND PUSH1 0xE0 SHL DUP2 MSTORE PUSH1 0x4 ADD PUSH2 0x46B SWAP2 SWAP1 PUSH2 0xABE JUMP JUMPDEST PUSH1 0x20 PUSH1 0x40 MLOAD DUP1 DUP4 SUB DUP2 DUP7 GAS STATICCALL ISZERO DUP1 ISZERO PUSH2 0x486 JUMPI RETURNDATASIZE PUSH0 DUP1 RETURNDATACOPY RETURNDATASIZE PUSH0 REVERT JUMPDEST POP POP POP POP PUSH1 0x40 MLOAD RETURNDATASIZE PUSH1 0x1F NOT PUSH1 0x1F DUP3 ADD AND DUP3 ADD DUP1 PUSH1 0x40 MSTORE POP DUP2 ADD SWAP1 PUSH2 0x4AA SWAP2 SWAP1 PUSH2 0xB24 JUMP JUMPDEST GT PUSH2 0x4EA JUMPI PUSH1 0x40 MLOAD PUSH32 0x8C379A000000000000000000000000000000000000000000000000000000000 DUP2 MSTORE PUSH1 0x4 ADD PUSH2 0x4E1 SWAP1 PUSH2 0xD6E JUMP JUMPDEST PUSH1 0x40 MLOAD DUP1 SWAP2 SUB SWAP1 REVERT JUMPDEST PUSH0 PUSH2 0x4F4 CALLER PUSH2 0x7A3 JUMP JUMPDEST SWAP1 POP PUSH0 PUSH2 0x4FF PUSH2 0x7A9 JUMP JUMPDEST SWAP1 POP PUSH0 DUP2 PUSH1 0x5 PUSH0 CALLER PUSH20 0xFFFFFFFFFFFFFFFFFFFFFFFFFFFFFFFFFFFFFFFF AND PUSH20 0xFFFFFFFFFFFFFFFFFFFFFFFFFFFFFFFFFFFFFFFF AND DUP2 MSTORE PUSH1 0x20 ADD SWAP1 DUP2 MSTORE PUSH1 0x20 ADD PUSH0 KECCAK256 SLOAD PUSH2 0x54B SWAP2 SWAP1 PUSH2 0xCF1 JUMP JUMPDEST SWAP1 POP PUSH1 0x2 PUSH0 SWAP1 SLOAD SWAP1 PUSH2 0x100 EXP SWAP1 DIV PUSH20 0xFFFFFFFFFFFFFFFFFFFFFFFFFFFFFFFFFFFFFFFF AND PUSH20 0xFFFFFFFFFFFFFFFFFFFFFFFFFFFFFFFFFFFFFFFF AND PUSH4 0xA9059CBB CALLER DUP4 PUSH1 0x40 MLOAD DUP4 PUSH4 0xFFFFFFFF AND PUSH1 0xE0 SHL DUP2 MSTORE PUSH1 0x4 ADD PUSH2 0x5A9 SWAP3 SWAP2 SWAP1 PUSH2 0xD8C JUMP JUMPDEST PUSH1 0x20 PUSH1 0x40 MLOAD DUP1 DUP4 SUB DUP2 PUSH0 DUP8 GAS CALL ISZERO DUP1 ISZERO PUSH2 0x5C5 JUMPI RETURNDATASIZE PUSH0 DUP1 RETURNDATACOPY RETURNDATASIZE PUSH0 REVERT JUMPDEST POP POP POP POP PUSH1 0x40 MLOAD RETURNDATASIZE PUSH1 0x1F NOT PUSH1 0x1F DUP3 ADD AND DUP3 ADD DUP1 PUSH1 0x40 MSTORE POP DUP2 ADD SWAP1 PUSH2 0x5E9 SWAP2 SWAP1 PUSH2 0xC31 JUMP JUMPDEST PUSH2 0x628 JUMPI PUSH1 0x40 MLOAD PUSH32 0x8C379A000000000000000000000000000000000000000000000000000000000 DUP2 MSTORE PUSH1 0x4 ADD PUSH2 0x61F SWAP1 PUSH2 0xCA6 JUMP JUMPDEST PUSH1 0x40 MLOAD DUP1 SWAP2 SUB SWAP1 REVERT JUMPDEST PUSH0 PUSH1 0x5 PUSH0 CALLER PUSH20 0xFFFFFFFFFFFFFFFFFFFFFFFFFFFFFFFFFFFFFFFF AND PUSH20 0xFFFFFFFFFFFFFFFFFFFFFFFFFFFFFFFFFFFFFFFF AND DUP2 MSTORE PUSH1 0x20 ADD SWAP1 DUP2 MSTORE PUSH1 0x20 ADD PUSH0 KECCAK256 DUP2 SWAP1 SSTORE POP POP POP POP JUMP JUMPDEST PUSH1 0x1 PUSH0 SWAP1 SLOAD SWAP1 PUSH2 0x100 EXP SWAP1 DIV PUSH20 0xFFFFFFFFFFFFFFFFFFFFFFFFFFFFFFFFFFFFFFFF AND DUP2 JUMP JUMPDEST PUSH1 0x4 PUSH0 SWAP1 SLOAD SWAP1 PUSH2 0x100 EXP SWAP1 DIV PUSH20 0xFFFFFFFFFFFFFFFFFFFFFFFFFFFFFFFFFFFFFFFF AND DUP2 JUMP JUMPDEST PUSH2 0x6C1 PUSH2 0x7AD JUMP JUMPDEST PUSH2 0x6CA PUSH0 PUSH2 0x82B JUMP JUMPDEST JUMP JUMPDEST PUSH0 DUP1 PUSH0 SWAP1 SLOAD SWAP1 PUSH2 0x100 EXP SWAP1 DIV PUSH20 0xFFFFFFFFFFFFFFFFFFFFFFFFFFFFFFFFFFFFFFFF AND SWAP1 POP SWAP1 JUMP JUMPDEST PUSH1 0x3 PUSH0 SWAP1 SLOAD SWAP1 PUSH2 0x100 EXP SWAP1 DIV PUSH20 0xFFFFFFFFFFFFFFFFFFFFFFFFFFFFFFFFFFFFFFFF AND DUP2 JUMP JUMPDEST PUSH2 0x720 PUSH2 0x7AD JUMP JUMPDEST PUSH0 PUSH20 0xFFFFFFFFFFFFFFFFFFFFFFFFFFFFFFFFFFFFFFFF AND DUP2 PUSH20 0xFFFFFFFFFFFFFFFFFFFFFFFFFFFFFFFFFFFFFFFF AND SUB PUSH2 0x78E JUMPI PUSH1 0x40 MLOAD PUSH32 0x8C379A000000000000000000000000000000000000000000000000000000000 DUP2 MSTORE PUSH1 0x4 ADD PUSH2 0x785 SWAP1 PUSH2 0xE23 JUMP JUMPDEST PUSH1 0x40 MLOAD DUP1 SWAP2 SUB SWAP1 REVERT JUMPDEST PUSH2 0x797 DUP2 PUSH2 0x82B JUMP JUMPDEST POP JUMP JUMPDEST PUSH0 SWAP2 SWAP1 POP JUMP JUMPDEST POP JUMP JUMPDEST PUSH0 SWAP2 SWAP1 POP JUMP JUMPDEST PUSH0 SWAP1 JUMP JUMPDEST PUSH2 0x7B5 PUSH2 0x8EC JUMP JUMPDEST PUSH20 0xFFFFFFFFFFFFFFFFFFFFFFFFFFFFFFFFFFFFFFFF AND PUSH2 0x7D3 PUSH2 0x6CC JUMP JUMPDEST PUSH20 0xFFFFFFFFFFFFFFFFFFFFFFFFFFFFFFFFFFFFFFFF AND EQ PUSH2 0x829 JUMPI PUSH1 0x40 MLOAD PUSH32 0x8C379A000000000000000000000000000000000000000000000000000000000 DUP2 MSTORE PUSH1 0x4 ADD PUSH2 0x820 SWAP1 PUSH2 0xE8B JUMP JUMPDEST PUSH1 0x40 MLOAD DUP1 SWAP2 SUB SWAP1 REVERT JUMPDEST JUMP JUMPDEST PUSH0 DUP1 PUSH0 SWAP1 SLOAD SWAP1 PUSH2 0x100 EXP SWAP1 DIV PUSH20 0xFFFFFFFFFFFFFFFFFFFFFFFFFFFFFFFFFFFFFFFF AND SWAP1 POP DUP2 PUSH0 DUP1 PUSH2 0x100 EXP DUP2 SLOAD DUP2 PUSH20 0xFFFFFFFFFFFFFFFFFFFFFFFFFFFFFFFFFFFFFFFF MUL NOT AND SWAP1 DUP4 PUSH20 0xFFFFFFFFFFFFFFFFFFFFFFFFFFFFFFFFFFFFFFFF AND MUL OR SWAP1 SSTORE POP DUP2 PUSH20 0xFFFFFFFFFFFFFFFFFFFFFFFFFFFFFFFFFFFFFFFF AND DUP2 PUSH20 0xFFFFFFFFFFFFFFFFFFFFFFFFFFFFFFFFFFFFFFFF AND PUSH32 0x8BE0079C531659141344CD1FD0A4F28419497F9722A3DAAFE3B4186F6B6457E0 PUSH1 0x40 MLOAD PUSH1 0x40 MLOAD DUP1 SWAP2 SUB SWAP1 LOG3 POP POP JUMP JUMPDEST PUSH0 CALLER SWAP1 POP SWAP1 JUMP JUMPDEST PUSH0 DUP1 REVERT JUMPDEST PUSH0 PUSH20 0xFFFFFFFFFFFFFFFFFFFFFFFFFFFFFFFFFFFFFFFF DUP3 AND SWAP1 POP SWAP2 SWAP1 POP JUMP JUMPDEST PUSH0 PUSH2 0x920 DUP3 PUSH2 0x8F7 JUMP JUMPDEST SWAP1 POP SWAP2 SWAP1 POP JUMP JUMPDEST PUSH2 0x930 DUP2 PUSH2 0x916 JUMP JUMPDEST DUP2 EQ PUSH2 0x93A JUMPI PUSH0 DUP1 REVERT JUMPDEST POP JUMP JUMPDEST PUSH0 DUP2 CALLDATALOAD SWAP1 POP PUSH2 0x94B DUP2 PUSH2 0x927 JUMP JUMPDEST SWAP3 SWAP2 POP POP JUMP JUMPDEST PUSH0 PUSH1 0x20 DUP3 DUP5 SUB SLT ISZERO PUSH2 0x966 JUMPI PUSH2 0x965 PUSH2 0x8F3 JUMP JUMPDEST JUMPDEST PUSH0 PUSH2 0x973 DUP5 DUP3 DUP6 ADD PUSH2 0x93D JUMP JUMPDEST SWAP2 POP POP SWAP3 SWAP2 POP POP JUMP JUMPDEST PUSH0 DUP2 SWAP1 POP SWAP2 SWAP1 POP JUMP JUMPDEST PUSH2 0x98E DUP2 PUSH2 0x97C JUMP JUMPDEST DUP3 MSTORE POP POP JUMP JUMPDEST PUSH0 PUSH1 0x20 DUP3 ADD SWAP1 POP PUSH2 0x9A7 PUSH0 DUP4 ADD DUP5 PUSH2 0x985 JUMP JUMPDEST SWAP3 SWAP2 POP POP JUMP JUMPDEST PUSH2 0x9B6 DUP2 PUSH2 0x97C JUMP JUMPDEST DUP2 EQ PUSH2 0x9C0 JUMPI PUSH0 DUP1 REVERT JUMPDEST POP JUMP JUMPDEST PUSH0 DUP2 CALLDATALOAD SWAP1 POP PUSH2 0x9D1 DUP2 PUSH2 0x9AD JUMP JUMPDEST SWAP3 SWAP2 POP POP JUMP JUMPDEST PUSH0 PUSH1 0x20 DUP3 DUP5 SUB SLT ISZERO PUSH2 0x9EC JUMPI PUSH2 0x9EB PUSH2 0x8F3 JUMP JUMPDEST JUMPDEST PUSH0 PUSH2 0x9F9 DUP5 DUP3 DUP6 ADD PUSH2 0x9C3 JUMP JUMPDEST SWAP2 POP POP SWAP3 SWAP2 POP POP JUMP JUMPDEST PUSH0 DUP2 SWAP1 POP SWAP2 SWAP1 POP JUMP JUMPDEST PUSH0 PUSH2 0xA25 PUSH2 0xA20 PUSH2 0xA1B DUP5 PUSH2 0x8F7 JUMP JUMPDEST PUSH2 0xA02 JUMP JUMPDEST PUSH2 0x8F7 JUMP JUMPDEST SWAP1 POP SWAP2 SWAP1 POP JUMP JUMPDEST PUSH0 PUSH2 0xA36 DUP3 PUSH2 0xA0B JUMP JUMPDEST SWAP1 POP SWAP2 SWAP1 POP JUMP JUMPDEST PUSH0 PUSH2 0xA47 DUP3 PUSH2 0xA2C JUMP JUMPDEST SWAP1 POP SWAP2 SWAP1 POP JUMP JUMPDEST PUSH2 0xA57 DUP2 PUSH2 0xA3D JUMP JUMPDEST DUP3 MSTORE POP POP JUMP JUMPDEST PUSH0 PUSH1 0x20 DUP3 ADD SWAP1 POP PUSH2 0xA70 PUSH0 DUP4 ADD DUP5 PUSH2 0xA4E JUMP JUMPDEST SWAP3 SWAP2 POP POP JUMP JUMPDEST PUSH0 PUSH2 0xA80 DUP3 PUSH2 0xA2C JUMP JUMPDEST SWAP1 POP SWAP2 SWAP1 POP JUMP JUMPDEST PUSH2 0xA90 DUP2 PUSH2 0xA76 JUMP JUMPDEST DUP3 MSTORE POP POP JUMP JUMPDEST PUSH0 PUSH1 0x20 DUP3 ADD SWAP1 POP PUSH2 0xAA9 PUSH0 DUP4 ADD DUP5 PUSH2 0xA87 JUMP JUMPDEST SWAP3 SWAP2 POP POP JUMP JUMPDEST PUSH2 0xAB8 DUP2 PUSH2 0x916 JUMP JUMPDEST DUP3 MSTORE POP POP JUMP JUMPDEST PUSH0 PUSH1 0x20 DUP3 ADD SWAP1 POP PUSH2 0xAD1 PUSH0 DUP4 ADD DUP5 PUSH2 0xAAF JUMP JUMPDEST SWAP3 SWAP2 POP POP JUMP JUMPDEST PUSH0 PUSH2 0xAE1 DUP3 PUSH2 0xA2C JUMP JUMPDEST SWAP1 POP SWAP2 SWAP1 POP JUMP JUMPDEST PUSH2 0xAF1 DUP2 PUSH2 0xAD7 JUMP JUMPDEST DUP3 MSTORE POP POP JUMP JUMPDEST PUSH0 PUSH1 0x20 DUP3 ADD SWAP1 POP PUSH2 0xB0A PUSH0 DUP4 ADD DUP5 PUSH2 0xAE8 JUMP JUMPDEST SWAP3 SWAP2 POP POP JUMP JUMPDEST PUSH0 DUP2 MLOAD SWAP1 POP PUSH2 0xB1E DUP2 PUSH2 0x9AD JUMP JUMPDEST SWAP3 SWAP2 POP POP JUMP JUMPDEST PUSH0 PUSH1 0x20 DUP3 DUP5 SUB SLT ISZERO PUSH2 0xB39 JUMPI PUSH2 0xB38 PUSH2 0x8F3 JUMP JUMPDEST JUMPDEST PUSH0 PUSH2 0xB46 DUP5 DUP3 DUP6 ADD PUSH2 0xB10 JUMP JUMPDEST SWAP2 POP POP SWAP3 SWAP2 POP POP JUMP JUMPDEST PUSH0 DUP3 DUP3 MSTORE PUSH1 0x20 DUP3 ADD SWAP1 POP SWAP3 SWAP2 POP POP JUMP JUMPDEST PUSH32 0x496E73756666696369656E7420555344542062616C616E636500000000000000 PUSH0 DUP3 ADD MSTORE POP JUMP JUMPDEST PUSH0 PUSH2 0xB93 PUSH1 0x19 DUP4 PUSH2 0xB4F JUMP JUMPDEST SWAP2 POP PUSH2 0xB9E DUP3 PUSH2 0xB5F JUMP JUMPDEST PUSH1 0x20 DUP3 ADD SWAP1 POP SWAP2 SWAP1 POP JUMP JUMPDEST PUSH0 PUSH1 0x20 DUP3 ADD SWAP1 POP DUP2 DUP2 SUB PUSH0 DUP4 ADD MSTORE PUSH2 0xBC0 DUP2 PUSH2 0xB87 JUMP JUMPDEST SWAP1 POP SWAP2 SWAP1 POP JUMP JUMPDEST PUSH0 PUSH1 0x60 DUP3 ADD SWAP1 POP PUSH2 0xBDA PUSH0 DUP4 ADD DUP7 PUSH2 0xAAF JUMP JUMPDEST PUSH2 0xBE7 PUSH1 0x20 DUP4 ADD DUP6 PUSH2 0xAAF JUMP JUMPDEST PUSH2 0xBF4 PUSH1 0x40 DUP4 ADD DUP5 PUSH2 0x985 JUMP JUMPDEST SWAP5 SWAP4 POP POP POP POP JUMP JUMPDEST PUSH0 DUP2 ISZERO ISZERO SWAP1 POP SWAP2 SWAP1 POP JUMP JUMPDEST PUSH2 0xC10 DUP2 PUSH2 0xBFC JUMP JUMPDEST DUP2 EQ PUSH2 0xC1A JUMPI PUSH0 DUP1 REVERT JUMPDEST POP JUMP JUMPDEST PUSH0 DUP2 MLOAD SWAP1 POP PUSH2 0xC2B DUP2 PUSH2 0xC07 JUMP JUMPDEST SWAP3 SWAP2 POP POP JUMP JUMPDEST PUSH0 PUSH1 0x20 DUP3 DUP5 SUB SLT ISZERO PUSH2 0xC46 JUMPI PUSH2 0xC45 PUSH2 0x8F3 JUMP JUMPDEST JUMPDEST PUSH0 PUSH2 0xC53 DUP5 DUP3 DUP6 ADD PUSH2 0xC1D JUMP JUMPDEST SWAP2 POP POP SWAP3 SWAP2 POP POP JUMP JUMPDEST PUSH32 0x55534454207472616E73666572206661696C6564000000000000000000000000 PUSH0 DUP3 ADD MSTORE POP JUMP JUMPDEST PUSH0 PUSH2 0xC90 PUSH1 0x14 DUP4 PUSH2 0xB4F JUMP JUMPDEST SWAP2 POP PUSH2 0xC9B DUP3 PUSH2 0xC5C JUMP JUMPDEST PUSH1 0x20 DUP3 ADD SWAP1 POP SWAP2 SWAP1 POP JUMP JUMPDEST PUSH0 PUSH1 0x20 DUP3 ADD SWAP1 POP DUP2 DUP2 SUB PUSH0 DUP4 ADD MSTORE PUSH2 0xCBD DUP2 PUSH2 0xC84 JUMP JUMPDEST SWAP1 POP SWAP2 SWAP1 POP JUMP JUMPDEST PUSH32 0x4E487B7100000000000000000000000000000000000000000000000000000000 PUSH0 MSTORE PUSH1 0x11 PUSH1 0x4 MSTORE PUSH1 0x24 PUSH0 REVERT JUMPDEST PUSH0 PUSH2 0xCFB DUP3 PUSH2 0x97C JUMP JUMPDEST SWAP2 POP PUSH2 0xD06 DUP4 PUSH2 0x97C JUMP JUMPDEST SWAP3 POP DUP3 DUP3 ADD SWAP1 POP DUP1 DUP3 GT ISZERO PUSH2 0xD1E JUMPI PUSH2 0xD1D PUSH2 0xCC4 JUMP JUMPDEST JUMPDEST SWAP3 SWAP2 POP POP JUMP JUMPDEST PUSH32 0x4E6F204E465420746F2077697468647261770000000000000000000000000000 PUSH0 DUP3 ADD MSTORE POP JUMP JUMPDEST PUSH0 PUSH2 0xD58 PUSH1 0x12 DUP4 PUSH2 0xB4F JUMP JUMPDEST SWAP2 POP PUSH2 0xD63 DUP3 PUSH2 0xD24 JUMP JUMPDEST PUSH1 0x20 DUP3 ADD SWAP1 POP SWAP2 SWAP1 POP JUMP JUMPDEST PUSH0 PUSH1 0x20 DUP3 ADD SWAP1 POP DUP2 DUP2 SUB PUSH0 DUP4 ADD MSTORE PUSH2 0xD85 DUP2 PUSH2 0xD4C JUMP JUMPDEST SWAP1 POP SWAP2 SWAP1 POP JUMP JUMPDEST PUSH0 PUSH1 0x40 DUP3 ADD SWAP1 POP PUSH2 0xD9F PUSH0 DUP4 ADD DUP6 PUSH2 0xAAF JUMP JUMPDEST PUSH2 0xDAC PUSH1 0x20 DUP4 ADD DUP5 PUSH2 0x985 JUMP JUMPDEST SWAP4 SWAP3 POP POP POP JUMP JUMPDEST PUSH32 0x4F776E61626C653A206E6577206F776E657220697320746865207A65726F2061 PUSH0 DUP3 ADD MSTORE PUSH32 0x6464726573730000000000000000000000000000000000000000000000000000 PUSH1 0x20 DUP3 ADD MSTORE POP JUMP JUMPDEST PUSH0 PUSH2 0xE0D PUSH1 0x26 DUP4 PUSH2 0xB4F JUMP JUMPDEST SWAP2 POP PUSH2 0xE18 DUP3 PUSH2 0xDB3 JUMP JUMPDEST PUSH1 0x40 DUP3 ADD SWAP1 POP SWAP2 SWAP1 POP JUMP JUMPDEST PUSH0 PUSH1 0x20 DUP3 ADD SWAP1 POP DUP2 DUP2 SUB PUSH0 DUP4 ADD MSTORE PUSH2 0xE3A DUP2 PUSH2 0xE01 JUMP JUMPDEST SWAP1 POP SWAP2 SWAP1 POP JUMP JUMPDEST PUSH32 0x4F776E61626C653A2063616C6C6572206973206E6F7420746865206F776E6572 PUSH0 DUP3 ADD MSTORE POP JUMP JUMPDEST PUSH0 PUSH2 0xE75 PUSH1 0x20 DUP4 PUSH2 0xB4F JUMP JUMPDEST SWAP2 POP PUSH2 0xE80 DUP3 PUSH2 0xE41 JUMP JUMPDEST PUSH1 0x20 DUP3 ADD SWAP1 POP SWAP2 SWAP1 POP JUMP JUMPDEST PUSH0 PUSH1 0x20 DUP3 ADD SWAP1 POP DUP2 DUP2 SUB PUSH0 DUP4 ADD MSTORE PUSH2 0xEA2 DUP2 PUSH2 0xE69 JUMP JUMPDEST SWAP1 POP SWAP2 SWAP1 POP JUMP INVALID LOG2 PUSH5 0x6970667358 0x22 SLT KECCAK256 0xD 0xC8 PUSH14 0x815CF4CC46D0D26FA70AC1582C35 0xD5 PUSH16 0xAD9B273FD65A01C6225CBCF19964736F PUSH13 0x63430008150033000000000000 "
				},
				"gasEstimates": {
					"creation": {
						"codeDepositCost": "761400",
						"executionCost": "infinite",
						"totalCost": "infinite"
					},
					"external": {
						"cToken()": "2508",
						"comptroller()": "infinite",
						"depositAndMintNFT(uint256)": "infinite",
						"nftContract()": "infinite",
						"owner()": "2559",
						"renounceOwnership()": "30412",
						"transferOwnership(address)": "30819",
						"usdt()": "infinite",
						"userDeposits(address)": "2803",
						"withdraw()": "infinite"
					},
					"internal": {
						"burnNFT(address)": "19",
						"investInCompound(uint256)": "11",
						"mintNFT(address)": "19",
						"redeemInterest()": "14"
					}
				},
				"methodIdentifiers": {
					"cToken()": "69e527da",
					"comptroller()": "5fe3b567",
					"depositAndMintNFT(uint256)": "26bd2b60",
					"nftContract()": "d56d229d",
					"owner()": "8da5cb5b",
					"renounceOwnership()": "715018a6",
					"transferOwnership(address)": "f2fde38b",
					"usdt()": "2f48ab7d",
					"userDeposits(address)": "0ba36dcd",
					"withdraw()": "3ccfd60b"
				}
			},
			"storageLayout": {
				"storage": [
					{
						"astId": 7,
						"contract": "NEW.sol:YourContract",
						"label": "_owner",
						"offset": 0,
						"slot": "0",
						"type": "t_address"
					},
					{
						"astId": 580,
						"contract": "NEW.sol:YourContract",
						"label": "comptroller",
						"offset": 0,
						"slot": "1",
						"type": "t_contract(IComptroller)575"
					},
					{
						"astId": 583,
						"contract": "NEW.sol:YourContract",
						"label": "usdt",
						"offset": 0,
						"slot": "2",
						"type": "t_contract(IERC20)190"
					},
					{
						"astId": 586,
						"contract": "NEW.sol:YourContract",
						"label": "nftContract",
						"offset": 0,
						"slot": "3",
						"type": "t_contract(IERC721)306"
					},
					{
						"astId": 588,
						"contract": "NEW.sol:YourContract",
						"label": "cToken",
						"offset": 0,
						"slot": "4",
						"type": "t_address"
					},
					{
						"astId": 592,
						"contract": "NEW.sol:YourContract",
						"label": "userDeposits",
						"offset": 0,
						"slot": "5",
						"type": "t_mapping(t_address,t_uint256)"
					}
				],
				"types": {
					"t_address": {
						"encoding": "inplace",
						"label": "address",
						"numberOfBytes": "20"
					},
					"t_contract(IComptroller)575": {
						"encoding": "inplace",
						"label": "contract IComptroller",
						"numberOfBytes": "20"
					},
					"t_contract(IERC20)190": {
						"encoding": "inplace",
						"label": "contract IERC20",
						"numberOfBytes": "20"
					},
					"t_contract(IERC721)306": {
						"encoding": "inplace",
						"label": "contract IERC721",
						"numberOfBytes": "20"
					},
					"t_mapping(t_address,t_uint256)": {
						"encoding": "mapping",
						"key": "t_address",
						"label": "mapping(address => uint256)",
						"numberOfBytes": "32",
						"value": "t_uint256"
					},
					"t_uint256": {
						"encoding": "inplace",
						"label": "uint256",
						"numberOfBytes": "32"
					}
				}
			},
			"userdoc": {
				"kind": "user",
				"methods": {},
				"version": 1
			}
		}
	}
}