{
	"NewStakeing.sol": {
		"MyStakingContract": {
			"abi": [
				{
					"inputs": [
						{
							"internalType": "contract MyToken",
							"name": "_token",
							"type": "address"
						}
					],
					"stateMutability": "nonpayable",
					"type": "constructor"
				},
				{
					"inputs": [
						{
							"internalType": "uint256",
							"name": "userid",
							"type": "uint256"
						}
					],
					"name": "ClaimReward",
					"outputs": [],
					"stateMutability": "nonpayable",
					"type": "function"
				},
				{
					"inputs": [
						{
							"internalType": "address",
							"name": "ads",
							"type": "address"
						}
					],
					"name": "ViewDetail",
					"outputs": [
						{
							"components": [
								{
									"internalType": "uint256",
									"name": "tokenIdc",
									"type": "uint256"
								},
								{
									"internalType": "uint256",
									"name": "amount",
									"type": "uint256"
								},
								{
									"internalType": "uint256",
									"name": "duration",
									"type": "uint256"
								},
								{
									"internalType": "uint256",
									"name": "startTime",
									"type": "uint256"
								},
								{
									"internalType": "address",
									"name": "userads",
									"type": "address"
								},
								{
									"internalType": "bool",
									"name": "isClaimed",
									"type": "bool"
								},
								{
									"internalType": "bool",
									"name": "isAmountc",
									"type": "bool"
								}
							],
							"internalType": "struct MyStakingContract.Stake[]",
							"name": "",
							"type": "tuple[]"
						}
					],
					"stateMutability": "view",
					"type": "function"
				},
				{
					"inputs": [
						{
							"internalType": "uint256",
							"name": "userid",
							"type": "uint256"
						}
					],
					"name": "calculateReward",
					"outputs": [
						{
							"internalType": "address",
							"name": "",
							"type": "address"
						},
						{
							"internalType": "uint256",
							"name": "",
							"type": "uint256"
						},
						{
							"internalType": "uint256",
							"name": "",
							"type": "uint256"
						},
						{
							"internalType": "uint256",
							"name": "",
							"type": "uint256"
						}
					],
					"stateMutability": "view",
					"type": "function"
				},
				{
					"inputs": [],
					"name": "check_duration",
					"outputs": [
						{
							"internalType": "uint256[]",
							"name": "",
							"type": "uint256[]"
						}
					],
					"stateMutability": "view",
					"type": "function"
				},
				{
					"inputs": [
						{
							"internalType": "uint256",
							"name": "id",
							"type": "uint256"
						}
					],
					"name": "chkid",
					"outputs": [
						{
							"components": [
								{
									"internalType": "uint256",
									"name": "tokenIdc",
									"type": "uint256"
								},
								{
									"internalType": "uint256",
									"name": "amount",
									"type": "uint256"
								},
								{
									"internalType": "uint256",
									"name": "duration",
									"type": "uint256"
								},
								{
									"internalType": "uint256",
									"name": "startTime",
									"type": "uint256"
								},
								{
									"internalType": "address",
									"name": "userads",
									"type": "address"
								},
								{
									"internalType": "bool",
									"name": "isClaimed",
									"type": "bool"
								},
								{
									"internalType": "bool",
									"name": "isAmountc",
									"type": "bool"
								}
							],
							"internalType": "struct MyStakingContract.Stake",
							"name": "",
							"type": "tuple"
						}
					],
					"stateMutability": "view",
					"type": "function"
				},
				{
					"inputs": [
						{
							"internalType": "uint256",
							"name": "",
							"type": "uint256"
						}
					],
					"name": "cid",
					"outputs": [
						{
							"internalType": "uint256",
							"name": "tokenIdc",
							"type": "uint256"
						},
						{
							"internalType": "uint256",
							"name": "amount",
							"type": "uint256"
						},
						{
							"internalType": "uint256",
							"name": "duration",
							"type": "uint256"
						},
						{
							"internalType": "uint256",
							"name": "startTime",
							"type": "uint256"
						},
						{
							"internalType": "address",
							"name": "userads",
							"type": "address"
						},
						{
							"internalType": "bool",
							"name": "isClaimed",
							"type": "bool"
						},
						{
							"internalType": "bool",
							"name": "isAmountc",
							"type": "bool"
						}
					],
					"stateMutability": "view",
					"type": "function"
				},
				{
					"inputs": [
						{
							"internalType": "uint256",
							"name": "userid",
							"type": "uint256"
						}
					],
					"name": "claimStakedAmount",
					"outputs": [],
					"stateMutability": "nonpayable",
					"type": "function"
				},
				{
					"inputs": [
						{
							"internalType": "address",
							"name": "adrs",
							"type": "address"
						}
					],
					"name": "getBal",
					"outputs": [
						{
							"internalType": "uint256",
							"name": "",
							"type": "uint256"
						}
					],
					"stateMutability": "view",
					"type": "function"
				},
				{
					"inputs": [],
					"name": "owner",
					"outputs": [
						{
							"internalType": "address",
							"name": "",
							"type": "address"
						}
					],
					"stateMutability": "view",
					"type": "function"
				},
				{
					"inputs": [
						{
							"internalType": "uint256",
							"name": "amount",
							"type": "uint256"
						},
						{
							"internalType": "uint256",
							"name": "duration",
							"type": "uint256"
						}
					],
					"name": "stakenow",
					"outputs": [
						{
							"components": [
								{
									"internalType": "uint256",
									"name": "tokenIdc",
									"type": "uint256"
								},
								{
									"internalType": "uint256",
									"name": "amount",
									"type": "uint256"
								},
								{
									"internalType": "uint256",
									"name": "duration",
									"type": "uint256"
								},
								{
									"internalType": "uint256",
									"name": "startTime",
									"type": "uint256"
								},
								{
									"internalType": "address",
									"name": "userads",
									"type": "address"
								},
								{
									"internalType": "bool",
									"name": "isClaimed",
									"type": "bool"
								},
								{
									"internalType": "bool",
									"name": "isAmountc",
									"type": "bool"
								}
							],
							"internalType": "struct MyStakingContract.Stake",
							"name": "",
							"type": "tuple"
						}
					],
					"stateMutability": "nonpayable",
					"type": "function"
				},
				{
					"inputs": [],
					"name": "token",
					"outputs": [
						{
							"internalType": "contract MyToken",
							"name": "",
							"type": "address"
						}
					],
					"stateMutability": "view",
					"type": "function"
				},
				{
					"inputs": [
						{
							"internalType": "address",
							"name": "",
							"type": "address"
						},
						{
							"internalType": "uint256",
							"name": "",
							"type": "uint256"
						}
					],
					"name": "userStakes",
					"outputs": [
						{
							"internalType": "uint256",
							"name": "tokenIdc",
							"type": "uint256"
						},
						{
							"internalType": "uint256",
							"name": "amount",
							"type": "uint256"
						},
						{
							"internalType": "uint256",
							"name": "duration",
							"type": "uint256"
						},
						{
							"internalType": "uint256",
							"name": "startTime",
							"type": "uint256"
						},
						{
							"internalType": "address",
							"name": "userads",
							"type": "address"
						},
						{
							"internalType": "bool",
							"name": "isClaimed",
							"type": "bool"
						},
						{
							"internalType": "bool",
							"name": "isAmountc",
							"type": "bool"
						}
					],
					"stateMutability": "view",
					"type": "function"
				}
			],
			"devdoc": {
				"author": "The name of the author",
				"details": "Explain to a developer any extra details",
				"kind": "dev",
				"methods": {},
				"title": "A title that should describe the contract/interface",
				"version": 1
			},
			"evm": {
				"assembly": "    /* \"NewStakeing.sol\":340:4325  contract MyStakingContract {... */\n  mstore(0x40, 0xc0)\n    /* \"NewStakeing.sol\":538:571  uint256[] time = [2, 4, 6, 8, 10] */\n  mload(0x40)\n  dup1\n  0xa0\n  add\n  0x40\n  mstore\n  dup1\n    /* \"NewStakeing.sol\":556:557  2 */\n  0x02\n    /* \"NewStakeing.sol\":538:571  uint256[] time = [2, 4, 6, 8, 10] */\n  0xff\n  and\n  dup2\n  mstore\n  0x20\n  add\n    /* \"NewStakeing.sol\":559:560  4 */\n  0x04\n    /* \"NewStakeing.sol\":538:571  uint256[] time = [2, 4, 6, 8, 10] */\n  0xff\n  and\n  dup2\n  mstore\n  0x20\n  add\n    /* \"NewStakeing.sol\":562:563  6 */\n  0x06\n    /* \"NewStakeing.sol\":538:571  uint256[] time = [2, 4, 6, 8, 10] */\n  0xff\n  and\n  dup2\n  mstore\n  0x20\n  add\n    /* \"NewStakeing.sol\":565:566  8 */\n  0x08\n    /* \"NewStakeing.sol\":538:571  uint256[] time = [2, 4, 6, 8, 10] */\n  0xff\n  and\n  dup2\n  mstore\n  0x20\n  add\n    /* \"NewStakeing.sol\":568:570  10 */\n  0x0a\n    /* \"NewStakeing.sol\":538:571  uint256[] time = [2, 4, 6, 8, 10] */\n  0xff\n  and\n  dup2\n  mstore\n  pop\n  0x01\n  swap1\n  0x05\n  tag_1\n  swap3\n  swap2\n  swap1\n  tag_2\n  jump\t// in\ntag_1:\n  pop\n    /* \"NewStakeing.sol\":580:680  constructor(MyToken _token) {... */\n  callvalue\n  dup1\n  iszero\n  tag_3\n  jumpi\n  0x00\n  dup1\n  revert\ntag_3:\n  pop\n  mload(0x40)\n  sub(codesize, bytecodeSize)\n  dup1\n  bytecodeSize\n  dup4\n  codecopy\n  dup2\n  dup2\n  add\n  0x40\n  mstore\n  dup2\n  add\n  swap1\n  tag_4\n  swap2\n  swap1\n  tag_5\n  jump\t// in\ntag_4:\n    /* \"NewStakeing.sol\":635:641  _token */\n  dup1\n    /* \"NewStakeing.sol\":619:642  token = MyToken(_token) */\n  0xffffffffffffffffffffffffffffffffffffffff\n  and\n  0x80\n  dup2\n  0xffffffffffffffffffffffffffffffffffffffff\n  and\n  dup2\n  mstore\n  pop\n  pop\n    /* \"NewStakeing.sol\":662:672  msg.sender */\n  caller\n    /* \"NewStakeing.sol\":653:672  owner  = msg.sender */\n  0xffffffffffffffffffffffffffffffffffffffff\n  and\n  0xa0\n  dup2\n  0xffffffffffffffffffffffffffffffffffffffff\n  and\n  dup2\n  mstore\n  pop\n  pop\n    /* \"NewStakeing.sol\":580:680  constructor(MyToken _token) {... */\n  pop\n    /* \"NewStakeing.sol\":340:4325  contract MyStakingContract {... */\n  jump(tag_8)\ntag_2:\n  dup3\n  dup1\n  sload\n  dup3\n  dup3\n  sstore\n  swap1\n  0x00\n  mstore\n  keccak256(0x00, 0x20)\n  swap1\n  dup2\n  add\n  swap3\n  dup3\n  iszero\n  tag_9\n  jumpi\n  swap2\n  0x20\n  mul\n  dup3\n  add\ntag_10:\n  dup3\n  dup2\n  gt\n  iszero\n  tag_11\n  jumpi\n  dup3\n  mload\n  dup3\n  swap1\n  0xff\n  and\n  swap1\n  sstore\n  swap2\n  0x20\n  add\n  swap2\n  swap1\n  0x01\n  add\n  swap1\n  jump(tag_10)\ntag_11:\ntag_9:\n  pop\n  swap1\n  pop\n  tag_12\n  swap2\n  swap1\n  tag_13\n  jump\t// in\ntag_12:\n  pop\n  swap1\n  jump\t// out\ntag_13:\ntag_14:\n  dup1\n  dup3\n  gt\n  iszero\n  tag_15\n  jumpi\n  0x00\n  dup2\n  0x00\n  swap1\n  sstore\n  pop\n  0x01\n  add\n  jump(tag_14)\ntag_15:\n  pop\n  swap1\n  jump\t// out\n    /* \"#utility.yul\":88:205   */\ntag_17:\n    /* \"#utility.yul\":197:198   */\n  0x00\n    /* \"#utility.yul\":194:195   */\n  dup1\n    /* \"#utility.yul\":187:199   */\n  revert\n    /* \"#utility.yul\":334:460   */\ntag_19:\n    /* \"#utility.yul\":371:378   */\n  0x00\n    /* \"#utility.yul\":411:453   */\n  0xffffffffffffffffffffffffffffffffffffffff\n    /* \"#utility.yul\":404:409   */\n  dup3\n    /* \"#utility.yul\":400:454   */\n  and\n    /* \"#utility.yul\":389:454   */\n  swap1\n  pop\n    /* \"#utility.yul\":334:460   */\n  swap2\n  swap1\n  pop\n  jump\t// out\n    /* \"#utility.yul\":466:562   */\ntag_20:\n    /* \"#utility.yul\":503:510   */\n  0x00\n    /* \"#utility.yul\":532:556   */\n  tag_30\n    /* \"#utility.yul\":550:555   */\n  dup3\n    /* \"#utility.yul\":532:556   */\n  tag_19\n  jump\t// in\ntag_30:\n    /* \"#utility.yul\":521:556   */\n  swap1\n  pop\n    /* \"#utility.yul\":466:562   */\n  swap2\n  swap1\n  pop\n  jump\t// out\n    /* \"#utility.yul\":568:680   */\ntag_21:\n    /* \"#utility.yul\":621:628   */\n  0x00\n    /* \"#utility.yul\":650:674   */\n  tag_32\n    /* \"#utility.yul\":668:673   */\n  dup3\n    /* \"#utility.yul\":650:674   */\n  tag_20\n  jump\t// in\ntag_32:\n    /* \"#utility.yul\":639:674   */\n  swap1\n  pop\n    /* \"#utility.yul\":568:680   */\n  swap2\n  swap1\n  pop\n  jump\t// out\n    /* \"#utility.yul\":686:840   */\ntag_22:\n    /* \"#utility.yul\":775:815   */\n  tag_34\n    /* \"#utility.yul\":809:814   */\n  dup2\n    /* \"#utility.yul\":775:815   */\n  tag_21\n  jump\t// in\ntag_34:\n    /* \"#utility.yul\":768:773   */\n  dup2\n    /* \"#utility.yul\":765:816   */\n  eq\n    /* \"#utility.yul\":755:834   */\n  tag_35\n  jumpi\n    /* \"#utility.yul\":830:831   */\n  0x00\n    /* \"#utility.yul\":827:828   */\n  dup1\n    /* \"#utility.yul\":820:832   */\n  revert\n    /* \"#utility.yul\":755:834   */\ntag_35:\n    /* \"#utility.yul\":686:840   */\n  pop\n  jump\t// out\n    /* \"#utility.yul\":846:1021   */\ntag_23:\n    /* \"#utility.yul\":919:924   */\n  0x00\n    /* \"#utility.yul\":950:956   */\n  dup2\n    /* \"#utility.yul\":944:957   */\n  mload\n    /* \"#utility.yul\":935:957   */\n  swap1\n  pop\n    /* \"#utility.yul\":966:1015   */\n  tag_37\n    /* \"#utility.yul\":1009:1014   */\n  dup2\n    /* \"#utility.yul\":966:1015   */\n  tag_22\n  jump\t// in\ntag_37:\n    /* \"#utility.yul\":846:1021   */\n  swap3\n  swap2\n  pop\n  pop\n  jump\t// out\n    /* \"#utility.yul\":1027:1410   */\ntag_5:\n    /* \"#utility.yul\":1113:1119   */\n  0x00\n    /* \"#utility.yul\":1162:1164   */\n  0x20\n    /* \"#utility.yul\":1150:1159   */\n  dup3\n    /* \"#utility.yul\":1141:1148   */\n  dup5\n    /* \"#utility.yul\":1137:1160   */\n  sub\n    /* \"#utility.yul\":1133:1165   */\n  slt\n    /* \"#utility.yul\":1130:1249   */\n  iszero\n  tag_39\n  jumpi\n    /* \"#utility.yul\":1168:1247   */\n  tag_40\n  tag_17\n  jump\t// in\ntag_40:\n    /* \"#utility.yul\":1130:1249   */\ntag_39:\n    /* \"#utility.yul\":1288:1289   */\n  0x00\n    /* \"#utility.yul\":1313:1393   */\n  tag_41\n    /* \"#utility.yul\":1385:1392   */\n  dup5\n    /* \"#utility.yul\":1376:1382   */\n  dup3\n    /* \"#utility.yul\":1365:1374   */\n  dup6\n    /* \"#utility.yul\":1361:1383   */\n  add\n    /* \"#utility.yul\":1313:1393   */\n  tag_23\n  jump\t// in\ntag_41:\n    /* \"#utility.yul\":1303:1393   */\n  swap2\n  pop\n    /* \"#utility.yul\":1259:1403   */\n  pop\n    /* \"#utility.yul\":1027:1410   */\n  swap3\n  swap2\n  pop\n  pop\n  jump\t// out\n    /* \"NewStakeing.sol\":340:4325  contract MyStakingContract {... */\ntag_8:\n  mload(0x80)\n  mload(0xa0)\n  codecopy(0x00, dataOffset(sub_0), dataSize(sub_0))\n  0x00\n  assignImmutable(\"0x1069acefefa00bf0f327a7661e77e50424d69531627561e1a6ab260aa8994529\")\n  0x00\n  assignImmutable(\"0x3be13e3889ed1ce49da1c0df26b4313d4959f2ec77a18162387c5e1766a078a7\")\n  return(0x00, dataSize(sub_0))\nstop\n\nsub_0: assembly {\n        /* \"NewStakeing.sol\":340:4325  contract MyStakingContract {... */\n      mstore(0x40, 0x80)\n      callvalue\n      dup1\n      iszero\n      tag_1\n      jumpi\n      0x00\n      dup1\n      revert\n    tag_1:\n      pop\n      jumpi(tag_2, lt(calldatasize, 0x04))\n      shr(0xe0, calldataload(0x00))\n      dup1\n      0x92ceb12d\n      gt\n      tag_15\n      jumpi\n      dup1\n      0x92ceb12d\n      eq\n      tag_9\n      jumpi\n      dup1\n      0xb0c479a5\n      eq\n      tag_10\n      jumpi\n      dup1\n      0xb5d5b5fa\n      eq\n      tag_11\n      jumpi\n      dup1\n      0xc9757417\n      eq\n      tag_12\n      jumpi\n      dup1\n      0xd2d7231f\n      eq\n      tag_13\n      jumpi\n      dup1\n      0xfc0c546a\n      eq\n      tag_14\n      jumpi\n      jump(tag_2)\n    tag_15:\n      dup1\n      0x0b46ba99\n      eq\n      tag_3\n      jumpi\n      dup1\n      0x2fa78085\n      eq\n      tag_4\n      jumpi\n      dup1\n      0x41324ec5\n      eq\n      tag_5\n      jumpi\n      dup1\n      0x47c4d742\n      eq\n      tag_6\n      jumpi\n      dup1\n      0x5ee0d9b4\n      eq\n      tag_7\n      jumpi\n      dup1\n      0x8da5cb5b\n      eq\n      tag_8\n      jumpi\n    tag_2:\n      0x00\n      dup1\n      revert\n        /* \"NewStakeing.sol\":1847:1942  function check_duration() public view returns (uint256[] memory) {... */\n    tag_3:\n      tag_16\n      tag_17\n      jump\t// in\n    tag_16:\n      mload(0x40)\n      tag_18\n      swap2\n      swap1\n      tag_19\n      jump\t// in\n    tag_18:\n      mload(0x40)\n      dup1\n      swap2\n      sub\n      swap1\n      return\n        /* \"NewStakeing.sol\":1007:1114  function getBal(address adrs) public view returns (uint256) {... */\n    tag_4:\n      tag_20\n      0x04\n      dup1\n      calldatasize\n      sub\n      dup2\n      add\n      swap1\n      tag_21\n      swap2\n      swap1\n      tag_22\n      jump\t// in\n    tag_21:\n      tag_23\n      jump\t// in\n    tag_20:\n      mload(0x40)\n      tag_24\n      swap2\n      swap1\n      tag_25\n      jump\t// in\n    tag_24:\n      mload(0x40)\n      dup1\n      swap2\n      sub\n      swap1\n      return\n        /* \"NewStakeing.sol\":3379:4318  function claimStakedAmount(uint256 userid) public {... */\n    tag_5:\n      tag_26\n      0x04\n      dup1\n      calldatasize\n      sub\n      dup2\n      add\n      swap1\n      tag_27\n      swap2\n      swap1\n      tag_28\n      jump\t// in\n    tag_27:\n      tag_29\n      jump\t// in\n    tag_26:\n      stop\n        /* \"NewStakeing.sol\":1122:1834  function stakenow(uint amount, uint duration ) public returns (Stake memory ){... */\n    tag_6:\n      tag_30\n      0x04\n      dup1\n      calldatasize\n      sub\n      dup2\n      add\n      swap1\n      tag_31\n      swap2\n      swap1\n      tag_32\n      jump\t// in\n    tag_31:\n      tag_33\n      jump\t// in\n    tag_30:\n      mload(0x40)\n      tag_34\n      swap2\n      swap1\n      tag_35\n      jump\t// in\n    tag_34:\n      mload(0x40)\n      dup1\n      swap2\n      sub\n      swap1\n      return\n        /* \"NewStakeing.sol\":2056:2163  function ViewDetail(address ads) public view returns (Stake[] memory) {... */\n    tag_7:\n      tag_36\n      0x04\n      dup1\n      calldatasize\n      sub\n      dup2\n      add\n      swap1\n      tag_37\n      swap2\n      swap1\n      tag_22\n      jump\t// in\n    tag_37:\n      tag_38\n      jump\t// in\n    tag_36:\n      mload(0x40)\n      tag_39\n      swap2\n      swap1\n      tag_40\n      jump\t// in\n    tag_39:\n      mload(0x40)\n      dup1\n      swap2\n      sub\n      swap1\n      return\n        /* \"NewStakeing.sol\":501:531  address public immutable owner */\n    tag_8:\n      tag_41\n      tag_42\n      jump\t// in\n    tag_41:\n      mload(0x40)\n      tag_43\n      swap2\n      swap1\n      tag_44\n      jump\t// in\n    tag_43:\n      mload(0x40)\n      dup1\n      swap2\n      sub\n      swap1\n      return\n        /* \"NewStakeing.sol\":2798:3371  function ClaimReward(uint256 userid) public {... */\n    tag_9:\n      tag_45\n      0x04\n      dup1\n      calldatasize\n      sub\n      dup2\n      add\n      swap1\n      tag_46\n      swap2\n      swap1\n      tag_28\n      jump\t// in\n    tag_46:\n      tag_47\n      jump\t// in\n    tag_45:\n      stop\n        /* \"NewStakeing.sol\":958:991  mapping(uint => Stake) public cid */\n    tag_10:\n      tag_48\n      0x04\n      dup1\n      calldatasize\n      sub\n      dup2\n      add\n      swap1\n      tag_49\n      swap2\n      swap1\n      tag_28\n      jump\t// in\n    tag_49:\n      tag_50\n      jump\t// in\n    tag_48:\n      mload(0x40)\n      tag_51\n      swap8\n      swap7\n      swap6\n      swap5\n      swap4\n      swap3\n      swap2\n      swap1\n      tag_52\n      jump\t// in\n    tag_51:\n      mload(0x40)\n      dup1\n      swap2\n      sub\n      swap1\n      return\n        /* \"NewStakeing.sol\":905:950  mapping(address => Stake[]) public userStakes */\n    tag_11:\n      tag_53\n      0x04\n      dup1\n      calldatasize\n      sub\n      dup2\n      add\n      swap1\n      tag_54\n      swap2\n      swap1\n      tag_55\n      jump\t// in\n    tag_54:\n      tag_56\n      jump\t// in\n    tag_53:\n      mload(0x40)\n      tag_57\n      swap8\n      swap7\n      swap6\n      swap5\n      swap4\n      swap3\n      swap2\n      swap1\n      tag_52\n      jump\t// in\n    tag_57:\n      mload(0x40)\n      dup1\n      swap2\n      sub\n      swap1\n      return\n        /* \"NewStakeing.sol\":1950:2050  function chkid(uint id) public view returns(Stake memory){... */\n    tag_12:\n      tag_58\n      0x04\n      dup1\n      calldatasize\n      sub\n      dup2\n      add\n      swap1\n      tag_59\n      swap2\n      swap1\n      tag_28\n      jump\t// in\n    tag_59:\n      tag_60\n      jump\t// in\n    tag_58:\n      mload(0x40)\n      tag_61\n      swap2\n      swap1\n      tag_35\n      jump\t// in\n    tag_61:\n      mload(0x40)\n      dup1\n      swap2\n      sub\n      swap1\n      return\n        /* \"NewStakeing.sol\":2170:2788  function calculateReward(uint256 userid) public view returns (address,uint256, uint256, uint256)... */\n    tag_13:\n      tag_62\n      0x04\n      dup1\n      calldatasize\n      sub\n      dup2\n      add\n      swap1\n      tag_63\n      swap2\n      swap1\n      tag_28\n      jump\t// in\n    tag_63:\n      tag_64\n      jump\t// in\n    tag_62:\n      mload(0x40)\n      tag_65\n      swap5\n      swap4\n      swap3\n      swap2\n      swap1\n      tag_66\n      jump\t// in\n    tag_65:\n      mload(0x40)\n      dup1\n      swap2\n      sub\n      swap1\n      return\n        /* \"NewStakeing.sol\":464:494  MyToken public immutable token */\n    tag_14:\n      tag_67\n      tag_68\n      jump\t// in\n    tag_67:\n      mload(0x40)\n      tag_69\n      swap2\n      swap1\n      tag_70\n      jump\t// in\n    tag_69:\n      mload(0x40)\n      dup1\n      swap2\n      sub\n      swap1\n      return\n        /* \"NewStakeing.sol\":1847:1942  function check_duration() public view returns (uint256[] memory) {... */\n    tag_17:\n        /* \"NewStakeing.sol\":1894:1910  uint256[] memory */\n      0x60\n        /* \"NewStakeing.sol\":1930:1934  time */\n      0x01\n        /* \"NewStakeing.sol\":1923:1934  return time */\n      dup1\n      sload\n      dup1\n      0x20\n      mul\n      0x20\n      add\n      mload(0x40)\n      swap1\n      dup2\n      add\n      0x40\n      mstore\n      dup1\n      swap3\n      swap2\n      swap1\n      dup2\n      dup2\n      mstore\n      0x20\n      add\n      dup3\n      dup1\n      sload\n      dup1\n      iszero\n      tag_72\n      jumpi\n      0x20\n      mul\n      dup3\n      add\n      swap2\n      swap1\n      0x00\n      mstore\n      keccak256(0x00, 0x20)\n      swap1\n    tag_73:\n      dup2\n      sload\n      dup2\n      mstore\n      0x20\n      add\n      swap1\n      0x01\n      add\n      swap1\n      dup1\n      dup4\n      gt\n      tag_73\n      jumpi\n    tag_72:\n      pop\n      pop\n      pop\n      pop\n      pop\n      swap1\n      pop\n        /* \"NewStakeing.sol\":1847:1942  function check_duration() public view returns (uint256[] memory) {... */\n      swap1\n      jump\t// out\n        /* \"NewStakeing.sol\":1007:1114  function getBal(address adrs) public view returns (uint256) {... */\n    tag_23:\n        /* \"NewStakeing.sol\":1058:1065  uint256 */\n      0x00\n        /* \"NewStakeing.sol\":1085:1090  token */\n      immutable(\"0x3be13e3889ed1ce49da1c0df26b4313d4959f2ec77a18162387c5e1766a078a7\")\n        /* \"NewStakeing.sol\":1085:1100  token.balanceOf */\n      0xffffffffffffffffffffffffffffffffffffffff\n      and\n      0x70a08231\n        /* \"NewStakeing.sol\":1101:1105  adrs */\n      dup4\n        /* \"NewStakeing.sol\":1085:1106  token.balanceOf(adrs) */\n      mload(0x40)\n      dup3\n      0xffffffff\n      and\n      0xe0\n      shl\n      dup2\n      mstore\n      0x04\n      add\n      tag_75\n      swap2\n      swap1\n      tag_44\n      jump\t// in\n    tag_75:\n      0x20\n      mload(0x40)\n      dup1\n      dup4\n      sub\n      dup2\n      dup7\n      gas\n      staticcall\n      iszero\n      dup1\n      iszero\n      tag_77\n      jumpi\n      returndatasize\n      0x00\n      dup1\n      returndatacopy\n      revert(0x00, returndatasize)\n    tag_77:\n      pop\n      pop\n      pop\n      pop\n      mload(0x40)\n      returndatasize\n      not(0x1f)\n      0x1f\n      dup3\n      add\n      and\n      dup3\n      add\n      dup1\n      0x40\n      mstore\n      pop\n      dup2\n      add\n      swap1\n      tag_78\n      swap2\n      swap1\n      tag_79\n      jump\t// in\n    tag_78:\n        /* \"NewStakeing.sol\":1078:1106  return token.balanceOf(adrs) */\n      swap1\n      pop\n        /* \"NewStakeing.sol\":1007:1114  function getBal(address adrs) public view returns (uint256) {... */\n      swap2\n      swap1\n      pop\n      jump\t// out\n        /* \"NewStakeing.sol\":3379:4318  function claimStakedAmount(uint256 userid) public {... */\n    tag_29:\n        /* \"NewStakeing.sol\":3462:3465  cid */\n      0x03\n        /* \"NewStakeing.sol\":3462:3473  cid[userid] */\n      0x00\n        /* \"NewStakeing.sol\":3466:3472  userid */\n      dup3\n        /* \"NewStakeing.sol\":3462:3473  cid[userid] */\n      dup2\n      mstore\n      0x20\n      add\n      swap1\n      dup2\n      mstore\n      0x20\n      add\n      0x00\n      keccak256\n        /* \"NewStakeing.sol\":3462:3481  cid[userid].userads */\n      0x04\n      add\n      0x00\n      swap1\n      sload\n      swap1\n      0x0100\n      exp\n      swap1\n      div\n      0xffffffffffffffffffffffffffffffffffffffff\n      and\n        /* \"NewStakeing.sol\":3448:3481  msg.sender == cid[userid].userads */\n      0xffffffffffffffffffffffffffffffffffffffff\n      and\n        /* \"NewStakeing.sol\":3448:3458  msg.sender */\n      caller\n        /* \"NewStakeing.sol\":3448:3481  msg.sender == cid[userid].userads */\n      0xffffffffffffffffffffffffffffffffffffffff\n      and\n      eq\n        /* \"NewStakeing.sol\":3440:3527  require(msg.sender == cid[userid].userads, \"You can only claim your own staked amount\") */\n      tag_81\n      jumpi\n      mload(0x40)\n      0x08c379a000000000000000000000000000000000000000000000000000000000\n      dup2\n      mstore\n      0x04\n      add\n      tag_82\n      swap1\n      tag_83\n      jump\t// in\n    tag_82:\n      mload(0x40)\n      dup1\n      swap2\n      sub\n      swap1\n      revert\n    tag_81:\n        /* \"NewStakeing.sol\":3547:3550  cid */\n      0x03\n        /* \"NewStakeing.sol\":3547:3558  cid[userid] */\n      0x00\n        /* \"NewStakeing.sol\":3551:3557  userid */\n      dup3\n        /* \"NewStakeing.sol\":3547:3558  cid[userid] */\n      dup2\n      mstore\n      0x20\n      add\n      swap1\n      dup2\n      mstore\n      0x20\n      add\n      0x00\n      keccak256\n        /* \"NewStakeing.sol\":3547:3568  cid[userid].isAmountc */\n      0x04\n      add\n      0x15\n      swap1\n      sload\n      swap1\n      0x0100\n      exp\n      swap1\n      div\n      0xff\n      and\n        /* \"NewStakeing.sol\":3546:3568  !cid[userid].isAmountc */\n      iszero\n        /* \"NewStakeing.sol\":3538:3607  require(!cid[userid].isAmountc, \"Reward already claimed your amount\") */\n      tag_84\n      jumpi\n      mload(0x40)\n      0x08c379a000000000000000000000000000000000000000000000000000000000\n      dup2\n      mstore\n      0x04\n      add\n      tag_85\n      swap1\n      tag_86\n      jump\t// in\n    tag_85:\n      mload(0x40)\n      dup1\n      swap2\n      sub\n      swap1\n      revert\n    tag_84:\n        /* \"NewStakeing.sol\":3692:3701  1 minutes */\n      0x3c\n        /* \"NewStakeing.sol\":3669:3672  cid */\n      0x03\n        /* \"NewStakeing.sol\":3669:3680  cid[userid] */\n      0x00\n        /* \"NewStakeing.sol\":3673:3679  userid */\n      dup4\n        /* \"NewStakeing.sol\":3669:3680  cid[userid] */\n      dup2\n      mstore\n      0x20\n      add\n      swap1\n      dup2\n      mstore\n      0x20\n      add\n      0x00\n      keccak256\n        /* \"NewStakeing.sol\":3669:3689  cid[userid].duration */\n      0x02\n      add\n      sload\n        /* \"NewStakeing.sol\":3669:3701  cid[userid].duration * 1 minutes */\n      tag_87\n      swap2\n      swap1\n      tag_88\n      jump\t// in\n    tag_87:\n        /* \"NewStakeing.sol\":3645:3648  cid */\n      0x03\n        /* \"NewStakeing.sol\":3645:3656  cid[userid] */\n      0x00\n        /* \"NewStakeing.sol\":3649:3655  userid */\n      dup4\n        /* \"NewStakeing.sol\":3645:3656  cid[userid] */\n      dup2\n      mstore\n      0x20\n      add\n      swap1\n      dup2\n      mstore\n      0x20\n      add\n      0x00\n      keccak256\n        /* \"NewStakeing.sol\":3645:3666  cid[userid].startTime */\n      0x03\n      add\n      sload\n        /* \"NewStakeing.sol\":3645:3701  cid[userid].startTime + cid[userid].duration * 1 minutes */\n      tag_89\n      swap2\n      swap1\n      tag_90\n      jump\t// in\n    tag_89:\n        /* \"NewStakeing.sol\":3626:3641  block.timestamp */\n      timestamp\n        /* \"NewStakeing.sol\":3626:3701  block.timestamp >= cid[userid].startTime + cid[userid].duration * 1 minutes */\n      lt\n      iszero\n        /* \"NewStakeing.sol\":3618:3762  require(block.timestamp >= cid[userid].startTime + cid[userid].duration * 1 minutes, \"You can only claim after the staking duration has passed\") */\n      tag_91\n      jumpi\n      mload(0x40)\n      0x08c379a000000000000000000000000000000000000000000000000000000000\n      dup2\n      mstore\n      0x04\n      add\n      tag_92\n      swap1\n      tag_93\n      jump\t// in\n    tag_92:\n      mload(0x40)\n      dup1\n      swap2\n      sub\n      swap1\n      revert\n    tag_91:\n        /* \"NewStakeing.sol\":3837:3841  true */\n      0x01\n        /* \"NewStakeing.sol\":3813:3816  cid */\n      0x03\n        /* \"NewStakeing.sol\":3813:3824  cid[userid] */\n      0x00\n        /* \"NewStakeing.sol\":3817:3823  userid */\n      dup4\n        /* \"NewStakeing.sol\":3813:3824  cid[userid] */\n      dup2\n      mstore\n      0x20\n      add\n      swap1\n      dup2\n      mstore\n      0x20\n      add\n      0x00\n      keccak256\n        /* \"NewStakeing.sol\":3813:3834  cid[userid].isAmountc */\n      0x04\n      add\n      0x15\n        /* \"NewStakeing.sol\":3813:3841  cid[userid].isAmountc = true */\n      0x0100\n      exp\n      dup2\n      sload\n      dup2\n      0xff\n      mul\n      not\n      and\n      swap1\n      dup4\n      iszero\n      iszero\n      mul\n      or\n      swap1\n      sstore\n      pop\n        /* \"NewStakeing.sol\":3855:3874  address userAddress */\n      0x00\n        /* \"NewStakeing.sol\":3876:3891  uint256 tokenId */\n      dup1\n        /* \"NewStakeing.sol\":3893:3907  uint256 reward */\n      0x00\n        /* \"NewStakeing.sol\":3909:3923  uint256 Amount */\n      dup1\n        /* \"NewStakeing.sol\":3927:3950  calculateReward(userid) */\n      tag_94\n        /* \"NewStakeing.sol\":3943:3949  userid */\n      dup6\n        /* \"NewStakeing.sol\":3927:3942  calculateReward */\n      tag_64\n        /* \"NewStakeing.sol\":3927:3950  calculateReward(userid) */\n      jump\t// in\n    tag_94:\n        /* \"NewStakeing.sol\":3854:3950  (address userAddress, uint256 tokenId, uint256 reward, uint256 Amount) = calculateReward(userid) */\n      swap4\n      pop\n      swap4\n      pop\n      swap4\n      pop\n      swap4\n      pop\n        /* \"NewStakeing.sol\":3965:3985  uint256 stakedAmount */\n      0x00\n        /* \"NewStakeing.sol\":3988:3991  cid */\n      0x03\n        /* \"NewStakeing.sol\":3988:3999  cid[userid] */\n      0x00\n        /* \"NewStakeing.sol\":3992:3998  userid */\n      dup8\n        /* \"NewStakeing.sol\":3988:3999  cid[userid] */\n      dup2\n      mstore\n      0x20\n      add\n      swap1\n      dup2\n      mstore\n      0x20\n      add\n      0x00\n      keccak256\n        /* \"NewStakeing.sol\":3988:4006  cid[userid].amount */\n      0x01\n      add\n      sload\n        /* \"NewStakeing.sol\":3965:4006  uint256 stakedAmount = cid[userid].amount */\n      swap1\n      pop\n        /* \"NewStakeing.sol\":4081:4082  0 */\n      0x00\n        /* \"NewStakeing.sol\":4060:4063  cid */\n      0x03\n        /* \"NewStakeing.sol\":4060:4071  cid[userid] */\n      0x00\n        /* \"NewStakeing.sol\":4064:4070  userid */\n      dup9\n        /* \"NewStakeing.sol\":4060:4071  cid[userid] */\n      dup2\n      mstore\n      0x20\n      add\n      swap1\n      dup2\n      mstore\n      0x20\n      add\n      0x00\n      keccak256\n        /* \"NewStakeing.sol\":4060:4078  cid[userid].amount */\n      0x01\n      add\n        /* \"NewStakeing.sol\":4060:4082  cid[userid].amount = 0 */\n      dup2\n      swap1\n      sstore\n      pop\n        /* \"NewStakeing.sol\":4199:4211  bool success */\n      0x00\n        /* \"NewStakeing.sol\":4214:4219  token */\n      immutable(\"0x3be13e3889ed1ce49da1c0df26b4313d4959f2ec77a18162387c5e1766a078a7\")\n        /* \"NewStakeing.sol\":4214:4228  token.transfer */\n      0xffffffffffffffffffffffffffffffffffffffff\n      and\n      0xa9059cbb\n        /* \"NewStakeing.sol\":4229:4240  userAddress */\n      dup8\n        /* \"NewStakeing.sol\":4242:4254  stakedAmount */\n      dup5\n        /* \"NewStakeing.sol\":4214:4255  token.transfer(userAddress, stakedAmount) */\n      mload(0x40)\n      dup4\n      0xffffffff\n      and\n      0xe0\n      shl\n      dup2\n      mstore\n      0x04\n      add\n      tag_95\n      swap3\n      swap2\n      swap1\n      tag_96\n      jump\t// in\n    tag_95:\n      0x20\n      mload(0x40)\n      dup1\n      dup4\n      sub\n      dup2\n      0x00\n      dup8\n      gas\n      call\n      iszero\n      dup1\n      iszero\n      tag_98\n      jumpi\n      returndatasize\n      0x00\n      dup1\n      returndatacopy\n      revert(0x00, returndatasize)\n    tag_98:\n      pop\n      pop\n      pop\n      pop\n      mload(0x40)\n      returndatasize\n      not(0x1f)\n      0x1f\n      dup3\n      add\n      and\n      dup3\n      add\n      dup1\n      0x40\n      mstore\n      pop\n      dup2\n      add\n      swap1\n      tag_99\n      swap2\n      swap1\n      tag_100\n      jump\t// in\n    tag_99:\n        /* \"NewStakeing.sol\":4199:4255  bool success = token.transfer(userAddress, stakedAmount) */\n      swap1\n      pop\n        /* \"NewStakeing.sol\":4275:4282  success */\n      dup1\n        /* \"NewStakeing.sol\":4267:4308  require(success, \"Token transfer failed\") */\n      tag_101\n      jumpi\n      mload(0x40)\n      0x08c379a000000000000000000000000000000000000000000000000000000000\n      dup2\n      mstore\n      0x04\n      add\n      tag_102\n      swap1\n      tag_103\n      jump\t// in\n    tag_102:\n      mload(0x40)\n      dup1\n      swap2\n      sub\n      swap1\n      revert\n    tag_101:\n        /* \"NewStakeing.sol\":3429:4318  {... */\n      pop\n      pop\n      pop\n      pop\n      pop\n      pop\n        /* \"NewStakeing.sol\":3379:4318  function claimStakedAmount(uint256 userid) public {... */\n      pop\n      jump\t// out\n        /* \"NewStakeing.sol\":1122:1834  function stakenow(uint amount, uint duration ) public returns (Stake memory ){... */\n    tag_33:\n        /* \"NewStakeing.sol\":1185:1197  Stake memory */\n      tag_104\n      tag_105\n      jump\t// in\n    tag_104:\n        /* \"NewStakeing.sol\":1237:1238  0 */\n      0x00\n        /* \"NewStakeing.sol\":1228:1234  amount */\n      dup4\n        /* \"NewStakeing.sol\":1228:1238  amount > 0 */\n      gt\n        /* \"NewStakeing.sol\":1220:1275  require(amount > 0, \"Amount must be greater than zero\") */\n      tag_107\n      jumpi\n      mload(0x40)\n      0x08c379a000000000000000000000000000000000000000000000000000000000\n      dup2\n      mstore\n      0x04\n      add\n      tag_108\n      swap1\n      tag_109\n      jump\t// in\n    tag_108:\n      mload(0x40)\n      dup1\n      swap2\n      sub\n      swap1\n      revert\n    tag_107:\n        /* \"NewStakeing.sol\":1309:1310  2 */\n      0x02\n        /* \"NewStakeing.sol\":1297:1305  duration */\n      dup3\n        /* \"NewStakeing.sol\":1297:1310  duration == 2 */\n      eq\n        /* \"NewStakeing.sol\":1297:1327  duration == 2 || duration == 4 */\n      dup1\n      tag_110\n      jumpi\n      pop\n        /* \"NewStakeing.sol\":1326:1327  4 */\n      0x04\n        /* \"NewStakeing.sol\":1314:1322  duration */\n      dup3\n        /* \"NewStakeing.sol\":1314:1327  duration == 4 */\n      eq\n        /* \"NewStakeing.sol\":1297:1327  duration == 2 || duration == 4 */\n    tag_110:\n        /* \"NewStakeing.sol\":1297:1344  duration == 2 || duration == 4 || duration == 6 */\n      dup1\n      tag_111\n      jumpi\n      pop\n        /* \"NewStakeing.sol\":1343:1344  6 */\n      0x06\n        /* \"NewStakeing.sol\":1331:1339  duration */\n      dup3\n        /* \"NewStakeing.sol\":1331:1344  duration == 6 */\n      eq\n        /* \"NewStakeing.sol\":1297:1344  duration == 2 || duration == 4 || duration == 6 */\n    tag_111:\n        /* \"NewStakeing.sol\":1297:1361  duration == 2 || duration == 4 || duration == 6 || duration == 8 */\n      dup1\n      tag_112\n      jumpi\n      pop\n        /* \"NewStakeing.sol\":1360:1361  8 */\n      0x08\n        /* \"NewStakeing.sol\":1348:1356  duration */\n      dup3\n        /* \"NewStakeing.sol\":1348:1361  duration == 8 */\n      eq\n        /* \"NewStakeing.sol\":1297:1361  duration == 2 || duration == 4 || duration == 6 || duration == 8 */\n    tag_112:\n        /* \"NewStakeing.sol\":1297:1379  duration == 2 || duration == 4 || duration == 6 || duration == 8 || duration == 10 */\n      dup1\n      tag_113\n      jumpi\n      pop\n        /* \"NewStakeing.sol\":1377:1379  10 */\n      0x0a\n        /* \"NewStakeing.sol\":1365:1373  duration */\n      dup3\n        /* \"NewStakeing.sol\":1365:1379  duration == 10 */\n      eq\n        /* \"NewStakeing.sol\":1297:1379  duration == 2 || duration == 4 || duration == 6 || duration == 8 || duration == 10 */\n    tag_113:\n        /* \"NewStakeing.sol\":1288:1438  require( duration == 2 || duration == 4 || duration == 6 || duration == 8 || duration == 10,... */\n      tag_114\n      jumpi\n      mload(0x40)\n      0x08c379a000000000000000000000000000000000000000000000000000000000\n      dup2\n      mstore\n      0x04\n      add\n      tag_115\n      swap1\n      tag_116\n      jump\t// in\n    tag_115:\n      mload(0x40)\n      dup1\n      swap2\n      sub\n      swap1\n      revert\n    tag_114:\n        /* \"NewStakeing.sol\":1451:1475  tokenIdCounter.current() */\n      tag_117\n        /* \"NewStakeing.sol\":1451:1465  tokenIdCounter */\n      0x00\n        /* \"NewStakeing.sol\":1451:1473  tokenIdCounter.current */\n      tag_118\n        /* \"NewStakeing.sol\":1451:1475  tokenIdCounter.current() */\n      jump\t// in\n    tag_117:\n      pop\n        /* \"NewStakeing.sol\":1486:1507  Stake memory newStake */\n      0x00\n        /* \"NewStakeing.sol\":1510:1600  Stake(tokenIdCounter.current(), amount, duration, block.timestamp, msg.sender,false,false) */\n      mload(0x40)\n      dup1\n      0xe0\n      add\n      0x40\n      mstore\n      dup1\n        /* \"NewStakeing.sol\":1516:1540  tokenIdCounter.current() */\n      tag_119\n        /* \"NewStakeing.sol\":1516:1530  tokenIdCounter */\n      0x00\n        /* \"NewStakeing.sol\":1516:1538  tokenIdCounter.current */\n      tag_118\n        /* \"NewStakeing.sol\":1516:1540  tokenIdCounter.current() */\n      jump\t// in\n    tag_119:\n        /* \"NewStakeing.sol\":1510:1600  Stake(tokenIdCounter.current(), amount, duration, block.timestamp, msg.sender,false,false) */\n      dup2\n      mstore\n      0x20\n      add\n        /* \"NewStakeing.sol\":1542:1548  amount */\n      dup6\n        /* \"NewStakeing.sol\":1510:1600  Stake(tokenIdCounter.current(), amount, duration, block.timestamp, msg.sender,false,false) */\n      dup2\n      mstore\n      0x20\n      add\n        /* \"NewStakeing.sol\":1550:1558  duration */\n      dup5\n        /* \"NewStakeing.sol\":1510:1600  Stake(tokenIdCounter.current(), amount, duration, block.timestamp, msg.sender,false,false) */\n      dup2\n      mstore\n      0x20\n      add\n        /* \"NewStakeing.sol\":1560:1575  block.timestamp */\n      timestamp\n        /* \"NewStakeing.sol\":1510:1600  Stake(tokenIdCounter.current(), amount, duration, block.timestamp, msg.sender,false,false) */\n      dup2\n      mstore\n      0x20\n      add\n        /* \"NewStakeing.sol\":1577:1587  msg.sender */\n      caller\n        /* \"NewStakeing.sol\":1510:1600  Stake(tokenIdCounter.current(), amount, duration, block.timestamp, msg.sender,false,false) */\n      0xffffffffffffffffffffffffffffffffffffffff\n      and\n      dup2\n      mstore\n      0x20\n      add\n        /* \"NewStakeing.sol\":1588:1593  false */\n      0x00\n        /* \"NewStakeing.sol\":1510:1600  Stake(tokenIdCounter.current(), amount, duration, block.timestamp, msg.sender,false,false) */\n      iszero\n      iszero\n      dup2\n      mstore\n      0x20\n      add\n        /* \"NewStakeing.sol\":1594:1599  false */\n      0x00\n        /* \"NewStakeing.sol\":1510:1600  Stake(tokenIdCounter.current(), amount, duration, block.timestamp, msg.sender,false,false) */\n      iszero\n      iszero\n      dup2\n      mstore\n      pop\n        /* \"NewStakeing.sol\":1486:1600  Stake memory newStake = Stake(tokenIdCounter.current(), amount, duration, block.timestamp, msg.sender,false,false) */\n      swap1\n      pop\n        /* \"NewStakeing.sol\":1611:1621  userStakes */\n      0x02\n        /* \"NewStakeing.sol\":1611:1633  userStakes[msg.sender] */\n      0x00\n        /* \"NewStakeing.sol\":1622:1632  msg.sender */\n      caller\n        /* \"NewStakeing.sol\":1611:1633  userStakes[msg.sender] */\n      0xffffffffffffffffffffffffffffffffffffffff\n      and\n      0xffffffffffffffffffffffffffffffffffffffff\n      and\n      dup2\n      mstore\n      0x20\n      add\n      swap1\n      dup2\n      mstore\n      0x20\n      add\n      0x00\n      keccak256\n        /* \"NewStakeing.sol\":1639:1647  newStake */\n      dup2\n        /* \"NewStakeing.sol\":1611:1648  userStakes[msg.sender].push(newStake) */\n      swap1\n      dup1\n      0x01\n      dup2\n      sload\n      add\n      dup1\n      dup3\n      sstore\n      dup1\n      swap2\n      pop\n      pop\n      0x01\n      swap1\n      sub\n      swap1\n      0x00\n      mstore\n      keccak256(0x00, 0x20)\n      swap1\n      0x05\n      mul\n      add\n      0x00\n      swap1\n      swap2\n      swap1\n      swap2\n      swap1\n      swap2\n      pop\n      0x00\n      dup3\n      add\n      mload\n      dup2\n      0x00\n      add\n      sstore\n      0x20\n      dup3\n      add\n      mload\n      dup2\n      0x01\n      add\n      sstore\n      0x40\n      dup3\n      add\n      mload\n      dup2\n      0x02\n      add\n      sstore\n      0x60\n      dup3\n      add\n      mload\n      dup2\n      0x03\n      add\n      sstore\n      0x80\n      dup3\n      add\n      mload\n      dup2\n      0x04\n      add\n      exp(0x0100, 0x00)\n      dup2\n      sload\n      dup2\n      0xffffffffffffffffffffffffffffffffffffffff\n      mul\n      not\n      and\n      swap1\n      dup4\n      0xffffffffffffffffffffffffffffffffffffffff\n      and\n      mul\n      or\n      swap1\n      sstore\n      pop\n      0xa0\n      dup3\n      add\n      mload\n      dup2\n      0x04\n      add\n      exp(0x0100, 0x14)\n      dup2\n      sload\n      dup2\n      0xff\n      mul\n      not\n      and\n      swap1\n      dup4\n      iszero\n      iszero\n      mul\n      or\n      swap1\n      sstore\n      pop\n      0xc0\n      dup3\n      add\n      mload\n      dup2\n      0x04\n      add\n      exp(0x0100, 0x15)\n      dup2\n      sload\n      dup2\n      0xff\n      mul\n      not\n      and\n      swap1\n      dup4\n      iszero\n      iszero\n      mul\n      or\n      swap1\n      sstore\n      pop\n      pop\n      pop\n        /* \"NewStakeing.sol\":1659:1664  token */\n      immutable(\"0x3be13e3889ed1ce49da1c0df26b4313d4959f2ec77a18162387c5e1766a078a7\")\n        /* \"NewStakeing.sol\":1659:1677  token.transferFrom */\n      0xffffffffffffffffffffffffffffffffffffffff\n      and\n      0x23b872dd\n        /* \"NewStakeing.sol\":1678:1688  msg.sender */\n      caller\n        /* \"NewStakeing.sol\":1698:1702  this */\n      address\n        /* \"NewStakeing.sol\":1705:1711  amount */\n      dup8\n        /* \"NewStakeing.sol\":1659:1712  token.transferFrom(msg.sender, address(this), amount) */\n      mload(0x40)\n      dup5\n      0xffffffff\n      and\n      0xe0\n      shl\n      dup2\n      mstore\n      0x04\n      add\n      tag_121\n      swap4\n      swap3\n      swap2\n      swap1\n      tag_122\n      jump\t// in\n    tag_121:\n      0x20\n      mload(0x40)\n      dup1\n      dup4\n      sub\n      dup2\n      0x00\n      dup8\n      gas\n      call\n      iszero\n      dup1\n      iszero\n      tag_124\n      jumpi\n      returndatasize\n      0x00\n      dup1\n      returndatacopy\n      revert(0x00, returndatasize)\n    tag_124:\n      pop\n      pop\n      pop\n      pop\n      mload(0x40)\n      returndatasize\n      not(0x1f)\n      0x1f\n      dup3\n      add\n      and\n      dup3\n      add\n      dup1\n      0x40\n      mstore\n      pop\n      dup2\n      add\n      swap1\n      tag_125\n      swap2\n      swap1\n      tag_100\n      jump\t// in\n    tag_125:\n      pop\n        /* \"NewStakeing.sol\":1753:1761  newStake */\n      dup1\n        /* \"NewStakeing.sol\":1723:1726  cid */\n      0x03\n        /* \"NewStakeing.sol\":1723:1752  cid[tokenIdCounter.current()] */\n      0x00\n        /* \"NewStakeing.sol\":1727:1751  tokenIdCounter.current() */\n      tag_126\n        /* \"NewStakeing.sol\":1727:1741  tokenIdCounter */\n      0x00\n        /* \"NewStakeing.sol\":1727:1749  tokenIdCounter.current */\n      tag_118\n        /* \"NewStakeing.sol\":1727:1751  tokenIdCounter.current() */\n      jump\t// in\n    tag_126:\n        /* \"NewStakeing.sol\":1723:1752  cid[tokenIdCounter.current()] */\n      dup2\n      mstore\n      0x20\n      add\n      swap1\n      dup2\n      mstore\n      0x20\n      add\n      0x00\n      keccak256\n        /* \"NewStakeing.sol\":1723:1761  cid[tokenIdCounter.current()]=newStake */\n      0x00\n      dup3\n      add\n      mload\n      dup2\n      0x00\n      add\n      sstore\n      0x20\n      dup3\n      add\n      mload\n      dup2\n      0x01\n      add\n      sstore\n      0x40\n      dup3\n      add\n      mload\n      dup2\n      0x02\n      add\n      sstore\n      0x60\n      dup3\n      add\n      mload\n      dup2\n      0x03\n      add\n      sstore\n      0x80\n      dup3\n      add\n      mload\n      dup2\n      0x04\n      add\n      exp(0x0100, 0x00)\n      dup2\n      sload\n      dup2\n      0xffffffffffffffffffffffffffffffffffffffff\n      mul\n      not\n      and\n      swap1\n      dup4\n      0xffffffffffffffffffffffffffffffffffffffff\n      and\n      mul\n      or\n      swap1\n      sstore\n      pop\n      0xa0\n      dup3\n      add\n      mload\n      dup2\n      0x04\n      add\n      exp(0x0100, 0x14)\n      dup2\n      sload\n      dup2\n      0xff\n      mul\n      not\n      and\n      swap1\n      dup4\n      iszero\n      iszero\n      mul\n      or\n      swap1\n      sstore\n      pop\n      0xc0\n      dup3\n      add\n      mload\n      dup2\n      0x04\n      add\n      exp(0x0100, 0x15)\n      dup2\n      sload\n      dup2\n      0xff\n      mul\n      not\n      and\n      swap1\n      dup4\n      iszero\n      iszero\n      mul\n      or\n      swap1\n      sstore\n      pop\n      swap1\n      pop\n      pop\n        /* \"NewStakeing.sol\":1772:1798  tokenIdCounter.increment() */\n      tag_127\n        /* \"NewStakeing.sol\":1772:1786  tokenIdCounter */\n      0x00\n        /* \"NewStakeing.sol\":1772:1796  tokenIdCounter.increment */\n      tag_128\n        /* \"NewStakeing.sol\":1772:1798  tokenIdCounter.increment() */\n      jump\t// in\n    tag_127:\n        /* \"NewStakeing.sol\":1816:1824  newStake */\n      dup1\n        /* \"NewStakeing.sol\":1809:1824  return newStake */\n      swap2\n      pop\n      pop\n        /* \"NewStakeing.sol\":1122:1834  function stakenow(uint amount, uint duration ) public returns (Stake memory ){... */\n      swap3\n      swap2\n      pop\n      pop\n      jump\t// out\n        /* \"NewStakeing.sol\":2056:2163  function ViewDetail(address ads) public view returns (Stake[] memory) {... */\n    tag_38:\n        /* \"NewStakeing.sol\":2110:2124  Stake[] memory */\n      0x60\n        /* \"NewStakeing.sol\":2140:2150  userStakes */\n      0x02\n        /* \"NewStakeing.sol\":2140:2155  userStakes[ads] */\n      0x00\n        /* \"NewStakeing.sol\":2151:2154  ads */\n      dup4\n        /* \"NewStakeing.sol\":2140:2155  userStakes[ads] */\n      0xffffffffffffffffffffffffffffffffffffffff\n      and\n      0xffffffffffffffffffffffffffffffffffffffff\n      and\n      dup2\n      mstore\n      0x20\n      add\n      swap1\n      dup2\n      mstore\n      0x20\n      add\n      0x00\n      keccak256\n        /* \"NewStakeing.sol\":2133:2155  return userStakes[ads] */\n      dup1\n      sload\n      dup1\n      0x20\n      mul\n      0x20\n      add\n      mload(0x40)\n      swap1\n      dup2\n      add\n      0x40\n      mstore\n      dup1\n      swap3\n      swap2\n      swap1\n      dup2\n      dup2\n      mstore\n      0x20\n      add\n      0x00\n      swap1\n    tag_130:\n      dup3\n      dup3\n      lt\n      iszero\n      tag_131\n      jumpi\n      dup4\n      dup3\n      swap1\n      0x00\n      mstore\n      keccak256(0x00, 0x20)\n      swap1\n      0x05\n      mul\n      add\n      mload(0x40)\n      dup1\n      0xe0\n      add\n      0x40\n      mstore\n      swap1\n      dup2\n      0x00\n      dup3\n      add\n      sload\n      dup2\n      mstore\n      0x20\n      add\n      0x01\n      dup3\n      add\n      sload\n      dup2\n      mstore\n      0x20\n      add\n      0x02\n      dup3\n      add\n      sload\n      dup2\n      mstore\n      0x20\n      add\n      0x03\n      dup3\n      add\n      sload\n      dup2\n      mstore\n      0x20\n      add\n      0x04\n      dup3\n      add\n      0x00\n      swap1\n      sload\n      swap1\n      0x0100\n      exp\n      swap1\n      div\n      0xffffffffffffffffffffffffffffffffffffffff\n      and\n      0xffffffffffffffffffffffffffffffffffffffff\n      and\n      0xffffffffffffffffffffffffffffffffffffffff\n      and\n      dup2\n      mstore\n      0x20\n      add\n      0x04\n      dup3\n      add\n      0x14\n      swap1\n      sload\n      swap1\n      0x0100\n      exp\n      swap1\n      div\n      0xff\n      and\n      iszero\n      iszero\n      iszero\n      iszero\n      dup2\n      mstore\n      0x20\n      add\n      0x04\n      dup3\n      add\n      0x15\n      swap1\n      sload\n      swap1\n      0x0100\n      exp\n      swap1\n      div\n      0xff\n      and\n      iszero\n      iszero\n      iszero\n      iszero\n      dup2\n      mstore\n      pop\n      pop\n      dup2\n      mstore\n      0x20\n      add\n      swap1\n      0x01\n      add\n      swap1\n      jump(tag_130)\n    tag_131:\n      pop\n      pop\n      pop\n      pop\n      swap1\n      pop\n        /* \"NewStakeing.sol\":2056:2163  function ViewDetail(address ads) public view returns (Stake[] memory) {... */\n      swap2\n      swap1\n      pop\n      jump\t// out\n        /* \"NewStakeing.sol\":501:531  address public immutable owner */\n    tag_42:\n      immutable(\"0x1069acefefa00bf0f327a7661e77e50424d69531627561e1a6ab260aa8994529\")\n      dup2\n      jump\t// out\n        /* \"NewStakeing.sol\":2798:3371  function ClaimReward(uint256 userid) public {... */\n    tag_47:\n        /* \"NewStakeing.sol\":2875:2878  cid */\n      0x03\n        /* \"NewStakeing.sol\":2875:2886  cid[userid] */\n      0x00\n        /* \"NewStakeing.sol\":2879:2885  userid */\n      dup3\n        /* \"NewStakeing.sol\":2875:2886  cid[userid] */\n      dup2\n      mstore\n      0x20\n      add\n      swap1\n      dup2\n      mstore\n      0x20\n      add\n      0x00\n      keccak256\n        /* \"NewStakeing.sol\":2875:2894  cid[userid].userads */\n      0x04\n      add\n      0x00\n      swap1\n      sload\n      swap1\n      0x0100\n      exp\n      swap1\n      div\n      0xffffffffffffffffffffffffffffffffffffffff\n      and\n        /* \"NewStakeing.sol\":2861:2894  msg.sender == cid[userid].userads */\n      0xffffffffffffffffffffffffffffffffffffffff\n      and\n        /* \"NewStakeing.sol\":2861:2871  msg.sender */\n      caller\n        /* \"NewStakeing.sol\":2861:2894  msg.sender == cid[userid].userads */\n      0xffffffffffffffffffffffffffffffffffffffff\n      and\n      eq\n        /* \"NewStakeing.sol\":2853:2934  require(msg.sender == cid[userid].userads, \"You can only claim your own rewards\") */\n      tag_134\n      jumpi\n      mload(0x40)\n      0x08c379a000000000000000000000000000000000000000000000000000000000\n      dup2\n      mstore\n      0x04\n      add\n      tag_135\n      swap1\n      tag_136\n      jump\t// in\n    tag_135:\n      mload(0x40)\n      dup1\n      swap2\n      sub\n      swap1\n      revert\n    tag_134:\n        /* \"NewStakeing.sol\":2954:2957  cid */\n      0x03\n        /* \"NewStakeing.sol\":2954:2965  cid[userid] */\n      0x00\n        /* \"NewStakeing.sol\":2958:2964  userid */\n      dup3\n        /* \"NewStakeing.sol\":2954:2965  cid[userid] */\n      dup2\n      mstore\n      0x20\n      add\n      swap1\n      dup2\n      mstore\n      0x20\n      add\n      0x00\n      keccak256\n        /* \"NewStakeing.sol\":2954:2975  cid[userid].isClaimed */\n      0x04\n      add\n      0x14\n      swap1\n      sload\n      swap1\n      0x0100\n      exp\n      swap1\n      div\n      0xff\n      and\n        /* \"NewStakeing.sol\":2953:2975  !cid[userid].isClaimed */\n      iszero\n        /* \"NewStakeing.sol\":2945:3002  require(!cid[userid].isClaimed, \"Reward already claimed\") */\n      tag_137\n      jumpi\n      mload(0x40)\n      0x08c379a000000000000000000000000000000000000000000000000000000000\n      dup2\n      mstore\n      0x04\n      add\n      tag_138\n      swap1\n      tag_139\n      jump\t// in\n    tag_138:\n      mload(0x40)\n      dup1\n      swap2\n      sub\n      swap1\n      revert\n    tag_137:\n        /* \"NewStakeing.sol\":3077:3081  true */\n      0x01\n        /* \"NewStakeing.sol\":3053:3056  cid */\n      0x03\n        /* \"NewStakeing.sol\":3053:3064  cid[userid] */\n      0x00\n        /* \"NewStakeing.sol\":3057:3063  userid */\n      dup4\n        /* \"NewStakeing.sol\":3053:3064  cid[userid] */\n      dup2\n      mstore\n      0x20\n      add\n      swap1\n      dup2\n      mstore\n      0x20\n      add\n      0x00\n      keccak256\n        /* \"NewStakeing.sol\":3053:3074  cid[userid].isClaimed */\n      0x04\n      add\n      0x14\n        /* \"NewStakeing.sol\":3053:3081  cid[userid].isClaimed = true */\n      0x0100\n      exp\n      dup2\n      sload\n      dup2\n      0xff\n      mul\n      not\n      and\n      swap1\n      dup4\n      iszero\n      iszero\n      mul\n      or\n      swap1\n      sstore\n      pop\n        /* \"NewStakeing.sol\":3095:3114  address userAddress */\n      0x00\n        /* \"NewStakeing.sol\":3116:3131  uint256 tokenId */\n      dup1\n        /* \"NewStakeing.sol\":3133:3147  uint256 reward */\n      0x00\n        /* \"NewStakeing.sol\":3149:3168  uint256 totalAmount */\n      dup1\n        /* \"NewStakeing.sol\":3172:3195  calculateReward(userid) */\n      tag_140\n        /* \"NewStakeing.sol\":3188:3194  userid */\n      dup6\n        /* \"NewStakeing.sol\":3172:3187  calculateReward */\n      tag_64\n        /* \"NewStakeing.sol\":3172:3195  calculateReward(userid) */\n      jump\t// in\n    tag_140:\n        /* \"NewStakeing.sol\":3094:3195  (address userAddress, uint256 tokenId, uint256 reward, uint256 totalAmount) = calculateReward(userid) */\n      swap4\n      pop\n      swap4\n      pop\n      swap4\n      pop\n      swap4\n      pop\n        /* \"NewStakeing.sol\":3258:3270  bool success */\n      0x00\n        /* \"NewStakeing.sol\":3272:3277  token */\n      immutable(\"0x3be13e3889ed1ce49da1c0df26b4313d4959f2ec77a18162387c5e1766a078a7\")\n        /* \"NewStakeing.sol\":3272:3286  token.transfer */\n      0xffffffffffffffffffffffffffffffffffffffff\n      and\n      0xa9059cbb\n        /* \"NewStakeing.sol\":3287:3298  userAddress */\n      dup7\n        /* \"NewStakeing.sol\":3300:3306  reward */\n      dup6\n        /* \"NewStakeing.sol\":3272:3307  token.transfer(userAddress, reward) */\n      mload(0x40)\n      dup4\n      0xffffffff\n      and\n      0xe0\n      shl\n      dup2\n      mstore\n      0x04\n      add\n      tag_141\n      swap3\n      swap2\n      swap1\n      tag_96\n      jump\t// in\n    tag_141:\n      0x20\n      mload(0x40)\n      dup1\n      dup4\n      sub\n      dup2\n      0x00\n      dup8\n      gas\n      call\n      iszero\n      dup1\n      iszero\n      tag_143\n      jumpi\n      returndatasize\n      0x00\n      dup1\n      returndatacopy\n      revert(0x00, returndatasize)\n    tag_143:\n      pop\n      pop\n      pop\n      pop\n      mload(0x40)\n      returndatasize\n      not(0x1f)\n      0x1f\n      dup3\n      add\n      and\n      dup3\n      add\n      dup1\n      0x40\n      mstore\n      pop\n      dup2\n      add\n      swap1\n      tag_144\n      swap2\n      swap1\n      tag_100\n      jump\t// in\n    tag_144:\n        /* \"NewStakeing.sol\":3258:3307  bool success= token.transfer(userAddress, reward) */\n      swap1\n      pop\n        /* \"NewStakeing.sol\":3326:3333  success */\n      dup1\n        /* \"NewStakeing.sol\":3318:3359  require(success, \"Token transfer failed\") */\n      tag_145\n      jumpi\n      mload(0x40)\n      0x08c379a000000000000000000000000000000000000000000000000000000000\n      dup2\n      mstore\n      0x04\n      add\n      tag_146\n      swap1\n      tag_103\n      jump\t// in\n    tag_146:\n      mload(0x40)\n      dup1\n      swap2\n      sub\n      swap1\n      revert\n    tag_145:\n        /* \"NewStakeing.sol\":2842:3371  {... */\n      pop\n      pop\n      pop\n      pop\n      pop\n        /* \"NewStakeing.sol\":2798:3371  function ClaimReward(uint256 userid) public {... */\n      pop\n      jump\t// out\n        /* \"NewStakeing.sol\":958:991  mapping(uint => Stake) public cid */\n    tag_50:\n      mstore(0x20, 0x03)\n      dup1\n      0x00\n      mstore\n      keccak256(0x00, 0x40)\n      0x00\n      swap2\n      pop\n      swap1\n      pop\n      dup1\n      0x00\n      add\n      sload\n      swap1\n      dup1\n      0x01\n      add\n      sload\n      swap1\n      dup1\n      0x02\n      add\n      sload\n      swap1\n      dup1\n      0x03\n      add\n      sload\n      swap1\n      dup1\n      0x04\n      add\n      0x00\n      swap1\n      sload\n      swap1\n      0x0100\n      exp\n      swap1\n      div\n      0xffffffffffffffffffffffffffffffffffffffff\n      and\n      swap1\n      dup1\n      0x04\n      add\n      0x14\n      swap1\n      sload\n      swap1\n      0x0100\n      exp\n      swap1\n      div\n      0xff\n      and\n      swap1\n      dup1\n      0x04\n      add\n      0x15\n      swap1\n      sload\n      swap1\n      0x0100\n      exp\n      swap1\n      div\n      0xff\n      and\n      swap1\n      pop\n      dup8\n      jump\t// out\n        /* \"NewStakeing.sol\":905:950  mapping(address => Stake[]) public userStakes */\n    tag_56:\n      mstore(0x20, 0x02)\n      dup2\n      0x00\n      mstore\n      keccak256(0x00, 0x40)\n      dup2\n      dup2\n      sload\n      dup2\n      lt\n      tag_147\n      jumpi\n      0x00\n      dup1\n      revert\n    tag_147:\n      swap1\n      0x00\n      mstore\n      keccak256(0x00, 0x20)\n      swap1\n      0x05\n      mul\n      add\n      0x00\n      swap2\n      pop\n      swap2\n      pop\n      pop\n      dup1\n      0x00\n      add\n      sload\n      swap1\n      dup1\n      0x01\n      add\n      sload\n      swap1\n      dup1\n      0x02\n      add\n      sload\n      swap1\n      dup1\n      0x03\n      add\n      sload\n      swap1\n      dup1\n      0x04\n      add\n      0x00\n      swap1\n      sload\n      swap1\n      0x0100\n      exp\n      swap1\n      div\n      0xffffffffffffffffffffffffffffffffffffffff\n      and\n      swap1\n      dup1\n      0x04\n      add\n      0x14\n      swap1\n      sload\n      swap1\n      0x0100\n      exp\n      swap1\n      div\n      0xff\n      and\n      swap1\n      dup1\n      0x04\n      add\n      0x15\n      swap1\n      sload\n      swap1\n      0x0100\n      exp\n      swap1\n      div\n      0xff\n      and\n      swap1\n      pop\n      dup8\n      jump\t// out\n        /* \"NewStakeing.sol\":1950:2050  function chkid(uint id) public view returns(Stake memory){... */\n    tag_60:\n        /* \"NewStakeing.sol\":1994:2006  Stake memory */\n      tag_149\n      tag_105\n      jump\t// in\n    tag_149:\n        /* \"NewStakeing.sol\":2023:2026  cid */\n      0x03\n        /* \"NewStakeing.sol\":2023:2030  cid[id] */\n      0x00\n        /* \"NewStakeing.sol\":2027:2029  id */\n      dup4\n        /* \"NewStakeing.sol\":2023:2030  cid[id] */\n      dup2\n      mstore\n      0x20\n      add\n      swap1\n      dup2\n      mstore\n      0x20\n      add\n      0x00\n      keccak256\n        /* \"NewStakeing.sol\":2016:2030  return cid[id] */\n      mload(0x40)\n      dup1\n      0xe0\n      add\n      0x40\n      mstore\n      swap1\n      dup2\n      0x00\n      dup3\n      add\n      sload\n      dup2\n      mstore\n      0x20\n      add\n      0x01\n      dup3\n      add\n      sload\n      dup2\n      mstore\n      0x20\n      add\n      0x02\n      dup3\n      add\n      sload\n      dup2\n      mstore\n      0x20\n      add\n      0x03\n      dup3\n      add\n      sload\n      dup2\n      mstore\n      0x20\n      add\n      0x04\n      dup3\n      add\n      0x00\n      swap1\n      sload\n      swap1\n      0x0100\n      exp\n      swap1\n      div\n      0xffffffffffffffffffffffffffffffffffffffff\n      and\n      0xffffffffffffffffffffffffffffffffffffffff\n      and\n      0xffffffffffffffffffffffffffffffffffffffff\n      and\n      dup2\n      mstore\n      0x20\n      add\n      0x04\n      dup3\n      add\n      0x14\n      swap1\n      sload\n      swap1\n      0x0100\n      exp\n      swap1\n      div\n      0xff\n      and\n      iszero\n      iszero\n      iszero\n      iszero\n      dup2\n      mstore\n      0x20\n      add\n      0x04\n      dup3\n      add\n      0x15\n      swap1\n      sload\n      swap1\n      0x0100\n      exp\n      swap1\n      div\n      0xff\n      and\n      iszero\n      iszero\n      iszero\n      iszero\n      dup2\n      mstore\n      pop\n      pop\n      swap1\n      pop\n        /* \"NewStakeing.sol\":1950:2050  function chkid(uint id) public view returns(Stake memory){... */\n      swap2\n      swap1\n      pop\n      jump\t// out\n        /* \"NewStakeing.sol\":2170:2788  function calculateReward(uint256 userid) public view returns (address,uint256, uint256, uint256)... */\n    tag_64:\n        /* \"NewStakeing.sol\":2232:2239  address */\n      0x00\n        /* \"NewStakeing.sol\":2240:2247  uint256 */\n      dup1\n        /* \"NewStakeing.sol\":2249:2256  uint256 */\n      0x00\n        /* \"NewStakeing.sol\":2258:2265  uint256 */\n      dup1\n        /* \"NewStakeing.sol\":2292:2307  uint256 endTime */\n      0x00\n        /* \"NewStakeing.sol\":2310:2325  block.timestamp */\n      timestamp\n        /* \"NewStakeing.sol\":2292:2325  uint256 endTime = block.timestamp */\n      swap1\n      pop\n        /* \"NewStakeing.sol\":2338:2354  uint256 duration */\n      0x00\n        /* \"NewStakeing.sol\":2368:2371  cid */\n      0x03\n        /* \"NewStakeing.sol\":2368:2379  cid[userid] */\n      0x00\n        /* \"NewStakeing.sol\":2372:2378  userid */\n      dup9\n        /* \"NewStakeing.sol\":2368:2379  cid[userid] */\n      dup2\n      mstore\n      0x20\n      add\n      swap1\n      dup2\n      mstore\n      0x20\n      add\n      0x00\n      keccak256\n        /* \"NewStakeing.sol\":2368:2389  cid[userid].startTime */\n      0x03\n      add\n      sload\n        /* \"NewStakeing.sol\":2357:2364  endTime */\n      dup3\n        /* \"NewStakeing.sol\":2357:2389  endTime -  cid[userid].startTime */\n      tag_152\n      swap2\n      swap1\n      tag_153\n      jump\t// in\n    tag_152:\n        /* \"NewStakeing.sol\":2338:2389  uint256 duration = endTime -  cid[userid].startTime */\n      swap1\n      pop\n        /* \"NewStakeing.sol\":2439:2441  60 */\n      0x3c\n        /* \"NewStakeing.sol\":2416:2419  cid */\n      0x03\n        /* \"NewStakeing.sol\":2416:2427  cid[userid] */\n      0x00\n        /* \"NewStakeing.sol\":2420:2426  userid */\n      dup10\n        /* \"NewStakeing.sol\":2416:2427  cid[userid] */\n      dup2\n      mstore\n      0x20\n      add\n      swap1\n      dup2\n      mstore\n      0x20\n      add\n      0x00\n      keccak256\n        /* \"NewStakeing.sol\":2416:2436  cid[userid].duration */\n      0x02\n      add\n      sload\n        /* \"NewStakeing.sol\":2416:2441  cid[userid].duration * 60 */\n      tag_154\n      swap2\n      swap1\n      tag_88\n      jump\t// in\n    tag_154:\n        /* \"NewStakeing.sol\":2404:2412  duration */\n      dup2\n        /* \"NewStakeing.sol\":2404:2441  duration >  cid[userid].duration * 60 */\n      gt\n        /* \"NewStakeing.sol\":2400:2506  if (duration >  cid[userid].duration * 60) {... */\n      iszero\n      tag_155\n      jumpi\n        /* \"NewStakeing.sol\":2492:2494  60 */\n      0x3c\n        /* \"NewStakeing.sol\":2469:2472  cid */\n      0x03\n        /* \"NewStakeing.sol\":2469:2480  cid[userid] */\n      0x00\n        /* \"NewStakeing.sol\":2473:2479  userid */\n      dup10\n        /* \"NewStakeing.sol\":2469:2480  cid[userid] */\n      dup2\n      mstore\n      0x20\n      add\n      swap1\n      dup2\n      mstore\n      0x20\n      add\n      0x00\n      keccak256\n        /* \"NewStakeing.sol\":2469:2489  cid[userid].duration */\n      0x02\n      add\n      sload\n        /* \"NewStakeing.sol\":2469:2494  cid[userid].duration * 60 */\n      tag_156\n      swap2\n      swap1\n      tag_88\n      jump\t// in\n    tag_156:\n        /* \"NewStakeing.sol\":2458:2494  duration = cid[userid].duration * 60 */\n      swap1\n      pop\n        /* \"NewStakeing.sol\":2400:2506  if (duration >  cid[userid].duration * 60) {... */\n    tag_155:\n        /* \"NewStakeing.sol\":2648:2662  uint256 reward */\n      0x00\n        /* \"NewStakeing.sol\":2676:2677  1 */\n      0x01\n        /* \"NewStakeing.sol\":2665:2673  duration */\n      dup3\n        /* \"NewStakeing.sol\":2665:2677  duration * 1 */\n      tag_157\n      swap2\n      swap1\n      tag_88\n      jump\t// in\n    tag_157:\n        /* \"NewStakeing.sol\":2648:2677  uint256 reward = duration * 1 */\n      swap1\n      pop\n        /* \"NewStakeing.sol\":2698:2701  cid */\n      0x03\n        /* \"NewStakeing.sol\":2698:2709  cid[userid] */\n      0x00\n        /* \"NewStakeing.sol\":2702:2708  userid */\n      dup10\n        /* \"NewStakeing.sol\":2698:2709  cid[userid] */\n      dup2\n      mstore\n      0x20\n      add\n      swap1\n      dup2\n      mstore\n      0x20\n      add\n      0x00\n      keccak256\n        /* \"NewStakeing.sol\":2698:2717  cid[userid].userads */\n      0x04\n      add\n      0x00\n      swap1\n      sload\n      swap1\n      0x0100\n      exp\n      swap1\n      div\n      0xffffffffffffffffffffffffffffffffffffffff\n      and\n        /* \"NewStakeing.sol\":2719:2722  cid */\n      0x03\n        /* \"NewStakeing.sol\":2719:2730  cid[userid] */\n      0x00\n        /* \"NewStakeing.sol\":2723:2729  userid */\n      dup11\n        /* \"NewStakeing.sol\":2719:2730  cid[userid] */\n      dup2\n      mstore\n      0x20\n      add\n      swap1\n      dup2\n      mstore\n      0x20\n      add\n      0x00\n      keccak256\n        /* \"NewStakeing.sol\":2719:2739  cid[userid].tokenIdc */\n      0x00\n      add\n      sload\n        /* \"NewStakeing.sol\":2741:2747  reward */\n      dup3\n        /* \"NewStakeing.sol\":2760:2763  cid */\n      0x03\n        /* \"NewStakeing.sol\":2760:2771  cid[userid] */\n      0x00\n        /* \"NewStakeing.sol\":2764:2770  userid */\n      dup13\n        /* \"NewStakeing.sol\":2760:2771  cid[userid] */\n      dup2\n      mstore\n      0x20\n      add\n      swap1\n      dup2\n      mstore\n      0x20\n      add\n      0x00\n      keccak256\n        /* \"NewStakeing.sol\":2760:2778  cid[userid].amount */\n      0x01\n      add\n      sload\n        /* \"NewStakeing.sol\":2750:2756  reward */\n      dup5\n        /* \"NewStakeing.sol\":2750:2778  reward +  cid[userid].amount */\n      tag_158\n      swap2\n      swap1\n      tag_90\n      jump\t// in\n    tag_158:\n        /* \"NewStakeing.sol\":2690:2780  return (cid[userid].userads, cid[userid].tokenIdc, reward, (reward +  cid[userid].amount)) */\n      swap7\n      pop\n      swap7\n      pop\n      swap7\n      pop\n      swap7\n      pop\n      pop\n      pop\n      pop\n        /* \"NewStakeing.sol\":2170:2788  function calculateReward(uint256 userid) public view returns (address,uint256, uint256, uint256)... */\n      swap2\n      swap4\n      pop\n      swap2\n      swap4\n      jump\t// out\n        /* \"NewStakeing.sol\":464:494  MyToken public immutable token */\n    tag_68:\n      immutable(\"0x3be13e3889ed1ce49da1c0df26b4313d4959f2ec77a18162387c5e1766a078a7\")\n      dup2\n      jump\t// out\n        /* \"@openzeppelin/contracts/utils/Counters.sol\":827:939  function current(Counter storage counter) internal view returns (uint256) {... */\n    tag_118:\n        /* \"@openzeppelin/contracts/utils/Counters.sol\":892:899  uint256 */\n      0x00\n        /* \"@openzeppelin/contracts/utils/Counters.sol\":918:925  counter */\n      dup2\n        /* \"@openzeppelin/contracts/utils/Counters.sol\":918:932  counter._value */\n      0x00\n      add\n      sload\n        /* \"@openzeppelin/contracts/utils/Counters.sol\":911:932  return counter._value */\n      swap1\n      pop\n        /* \"@openzeppelin/contracts/utils/Counters.sol\":827:939  function current(Counter storage counter) internal view returns (uint256) {... */\n      swap2\n      swap1\n      pop\n      jump\t// out\n        /* \"@openzeppelin/contracts/utils/Counters.sol\":945:1068  function increment(Counter storage counter) internal {... */\n    tag_128:\n        /* \"@openzeppelin/contracts/utils/Counters.sol\":1050:1051  1 */\n      0x01\n        /* \"@openzeppelin/contracts/utils/Counters.sol\":1032:1039  counter */\n      dup2\n        /* \"@openzeppelin/contracts/utils/Counters.sol\":1032:1046  counter._value */\n      0x00\n      add\n      0x00\n        /* \"@openzeppelin/contracts/utils/Counters.sol\":1032:1051  counter._value += 1 */\n      dup3\n      dup3\n      sload\n      add\n      swap3\n      pop\n      pop\n      dup2\n      swap1\n      sstore\n      pop\n        /* \"@openzeppelin/contracts/utils/Counters.sol\":945:1068  function increment(Counter storage counter) internal {... */\n      pop\n      jump\t// out\n    tag_105:\n      mload(0x40)\n      dup1\n      0xe0\n      add\n      0x40\n      mstore\n      dup1\n      0x00\n      dup2\n      mstore\n      0x20\n      add\n      0x00\n      dup2\n      mstore\n      0x20\n      add\n      0x00\n      dup2\n      mstore\n      0x20\n      add\n      0x00\n      dup2\n      mstore\n      0x20\n      add\n      and(0xffffffffffffffffffffffffffffffffffffffff, 0x00)\n      dup2\n      mstore\n      0x20\n      add\n      iszero(iszero(0x00))\n      dup2\n      mstore\n      0x20\n      add\n      iszero(iszero(0x00))\n      dup2\n      mstore\n      pop\n      swap1\n      jump\t// out\n        /* \"#utility.yul\":7:121   */\n    tag_161:\n        /* \"#utility.yul\":74:80   */\n      0x00\n        /* \"#utility.yul\":108:113   */\n      dup2\n        /* \"#utility.yul\":102:114   */\n      mload\n        /* \"#utility.yul\":92:114   */\n      swap1\n      pop\n        /* \"#utility.yul\":7:121   */\n      swap2\n      swap1\n      pop\n      jump\t// out\n        /* \"#utility.yul\":127:311   */\n    tag_162:\n        /* \"#utility.yul\":226:237   */\n      0x00\n        /* \"#utility.yul\":260:266   */\n      dup3\n        /* \"#utility.yul\":255:258   */\n      dup3\n        /* \"#utility.yul\":248:267   */\n      mstore\n        /* \"#utility.yul\":300:304   */\n      0x20\n        /* \"#utility.yul\":295:298   */\n      dup3\n        /* \"#utility.yul\":291:305   */\n      add\n        /* \"#utility.yul\":276:305   */\n      swap1\n      pop\n        /* \"#utility.yul\":127:311   */\n      swap3\n      swap2\n      pop\n      pop\n      jump\t// out\n        /* \"#utility.yul\":317:449   */\n    tag_163:\n        /* \"#utility.yul\":384:388   */\n      0x00\n        /* \"#utility.yul\":407:410   */\n      dup2\n        /* \"#utility.yul\":399:410   */\n      swap1\n      pop\n        /* \"#utility.yul\":437:441   */\n      0x20\n        /* \"#utility.yul\":432:435   */\n      dup3\n        /* \"#utility.yul\":428:442   */\n      add\n        /* \"#utility.yul\":420:442   */\n      swap1\n      pop\n        /* \"#utility.yul\":317:449   */\n      swap2\n      swap1\n      pop\n      jump\t// out\n        /* \"#utility.yul\":455:532   */\n    tag_164:\n        /* \"#utility.yul\":492:499   */\n      0x00\n        /* \"#utility.yul\":521:526   */\n      dup2\n        /* \"#utility.yul\":510:526   */\n      swap1\n      pop\n        /* \"#utility.yul\":455:532   */\n      swap2\n      swap1\n      pop\n      jump\t// out\n        /* \"#utility.yul\":538:646   */\n    tag_165:\n        /* \"#utility.yul\":615:639   */\n      tag_224\n        /* \"#utility.yul\":633:638   */\n      dup2\n        /* \"#utility.yul\":615:639   */\n      tag_164\n      jump\t// in\n    tag_224:\n        /* \"#utility.yul\":610:613   */\n      dup3\n        /* \"#utility.yul\":603:640   */\n      mstore\n        /* \"#utility.yul\":538:646   */\n      pop\n      pop\n      jump\t// out\n        /* \"#utility.yul\":652:831   */\n    tag_166:\n        /* \"#utility.yul\":721:731   */\n      0x00\n        /* \"#utility.yul\":742:788   */\n      tag_226\n        /* \"#utility.yul\":784:787   */\n      dup4\n        /* \"#utility.yul\":776:782   */\n      dup4\n        /* \"#utility.yul\":742:788   */\n      tag_165\n      jump\t// in\n    tag_226:\n        /* \"#utility.yul\":820:824   */\n      0x20\n        /* \"#utility.yul\":815:818   */\n      dup4\n        /* \"#utility.yul\":811:825   */\n      add\n        /* \"#utility.yul\":797:825   */\n      swap1\n      pop\n        /* \"#utility.yul\":652:831   */\n      swap3\n      swap2\n      pop\n      pop\n      jump\t// out\n        /* \"#utility.yul\":837:950   */\n    tag_167:\n        /* \"#utility.yul\":907:911   */\n      0x00\n        /* \"#utility.yul\":939:943   */\n      0x20\n        /* \"#utility.yul\":934:937   */\n      dup3\n        /* \"#utility.yul\":930:944   */\n      add\n        /* \"#utility.yul\":922:944   */\n      swap1\n      pop\n        /* \"#utility.yul\":837:950   */\n      swap2\n      swap1\n      pop\n      jump\t// out\n        /* \"#utility.yul\":986:1718   */\n    tag_168:\n        /* \"#utility.yul\":1105:1108   */\n      0x00\n        /* \"#utility.yul\":1134:1188   */\n      tag_229\n        /* \"#utility.yul\":1182:1187   */\n      dup3\n        /* \"#utility.yul\":1134:1188   */\n      tag_161\n      jump\t// in\n    tag_229:\n        /* \"#utility.yul\":1204:1290   */\n      tag_230\n        /* \"#utility.yul\":1283:1289   */\n      dup2\n        /* \"#utility.yul\":1278:1281   */\n      dup6\n        /* \"#utility.yul\":1204:1290   */\n      tag_162\n      jump\t// in\n    tag_230:\n        /* \"#utility.yul\":1197:1290   */\n      swap4\n      pop\n        /* \"#utility.yul\":1314:1370   */\n      tag_231\n        /* \"#utility.yul\":1364:1369   */\n      dup4\n        /* \"#utility.yul\":1314:1370   */\n      tag_163\n      jump\t// in\n    tag_231:\n        /* \"#utility.yul\":1393:1400   */\n      dup1\n        /* \"#utility.yul\":1424:1425   */\n      0x00\n        /* \"#utility.yul\":1409:1693   */\n    tag_232:\n        /* \"#utility.yul\":1434:1440   */\n      dup4\n        /* \"#utility.yul\":1431:1432   */\n      dup2\n        /* \"#utility.yul\":1428:1441   */\n      lt\n        /* \"#utility.yul\":1409:1693   */\n      iszero\n      tag_234\n      jumpi\n        /* \"#utility.yul\":1510:1516   */\n      dup2\n        /* \"#utility.yul\":1504:1517   */\n      mload\n        /* \"#utility.yul\":1537:1600   */\n      tag_235\n        /* \"#utility.yul\":1596:1599   */\n      dup9\n        /* \"#utility.yul\":1581:1594   */\n      dup3\n        /* \"#utility.yul\":1537:1600   */\n      tag_166\n      jump\t// in\n    tag_235:\n        /* \"#utility.yul\":1530:1600   */\n      swap8\n      pop\n        /* \"#utility.yul\":1623:1683   */\n      tag_236\n        /* \"#utility.yul\":1676:1682   */\n      dup4\n        /* \"#utility.yul\":1623:1683   */\n      tag_167\n      jump\t// in\n    tag_236:\n        /* \"#utility.yul\":1613:1683   */\n      swap3\n      pop\n        /* \"#utility.yul\":1469:1693   */\n      pop\n        /* \"#utility.yul\":1456:1457   */\n      0x01\n        /* \"#utility.yul\":1453:1454   */\n      dup2\n        /* \"#utility.yul\":1449:1458   */\n      add\n        /* \"#utility.yul\":1444:1458   */\n      swap1\n      pop\n        /* \"#utility.yul\":1409:1693   */\n      jump(tag_232)\n    tag_234:\n        /* \"#utility.yul\":1413:1427   */\n      pop\n        /* \"#utility.yul\":1709:1712   */\n      dup6\n        /* \"#utility.yul\":1702:1712   */\n      swap4\n      pop\n        /* \"#utility.yul\":1110:1718   */\n      pop\n      pop\n      pop\n        /* \"#utility.yul\":986:1718   */\n      swap3\n      swap2\n      pop\n      pop\n      jump\t// out\n        /* \"#utility.yul\":1724:2097   */\n    tag_19:\n        /* \"#utility.yul\":1867:1871   */\n      0x00\n        /* \"#utility.yul\":1905:1907   */\n      0x20\n        /* \"#utility.yul\":1894:1903   */\n      dup3\n        /* \"#utility.yul\":1890:1908   */\n      add\n        /* \"#utility.yul\":1882:1908   */\n      swap1\n      pop\n        /* \"#utility.yul\":1954:1963   */\n      dup2\n        /* \"#utility.yul\":1948:1952   */\n      dup2\n        /* \"#utility.yul\":1944:1964   */\n      sub\n        /* \"#utility.yul\":1940:1941   */\n      0x00\n        /* \"#utility.yul\":1929:1938   */\n      dup4\n        /* \"#utility.yul\":1925:1942   */\n      add\n        /* \"#utility.yul\":1918:1965   */\n      mstore\n        /* \"#utility.yul\":1982:2090   */\n      tag_238\n        /* \"#utility.yul\":2085:2089   */\n      dup2\n        /* \"#utility.yul\":2076:2082   */\n      dup5\n        /* \"#utility.yul\":1982:2090   */\n      tag_168\n      jump\t// in\n    tag_238:\n        /* \"#utility.yul\":1974:2090   */\n      swap1\n      pop\n        /* \"#utility.yul\":1724:2097   */\n      swap3\n      swap2\n      pop\n      pop\n      jump\t// out\n        /* \"#utility.yul\":2184:2301   */\n    tag_170:\n        /* \"#utility.yul\":2293:2294   */\n      0x00\n        /* \"#utility.yul\":2290:2291   */\n      dup1\n        /* \"#utility.yul\":2283:2295   */\n      revert\n        /* \"#utility.yul\":2430:2556   */\n    tag_172:\n        /* \"#utility.yul\":2467:2474   */\n      0x00\n        /* \"#utility.yul\":2507:2549   */\n      0xffffffffffffffffffffffffffffffffffffffff\n        /* \"#utility.yul\":2500:2505   */\n      dup3\n        /* \"#utility.yul\":2496:2550   */\n      and\n        /* \"#utility.yul\":2485:2550   */\n      swap1\n      pop\n        /* \"#utility.yul\":2430:2556   */\n      swap2\n      swap1\n      pop\n      jump\t// out\n        /* \"#utility.yul\":2562:2658   */\n    tag_173:\n        /* \"#utility.yul\":2599:2606   */\n      0x00\n        /* \"#utility.yul\":2628:2652   */\n      tag_244\n        /* \"#utility.yul\":2646:2651   */\n      dup3\n        /* \"#utility.yul\":2628:2652   */\n      tag_172\n      jump\t// in\n    tag_244:\n        /* \"#utility.yul\":2617:2652   */\n      swap1\n      pop\n        /* \"#utility.yul\":2562:2658   */\n      swap2\n      swap1\n      pop\n      jump\t// out\n        /* \"#utility.yul\":2664:2786   */\n    tag_174:\n        /* \"#utility.yul\":2737:2761   */\n      tag_246\n        /* \"#utility.yul\":2755:2760   */\n      dup2\n        /* \"#utility.yul\":2737:2761   */\n      tag_173\n      jump\t// in\n    tag_246:\n        /* \"#utility.yul\":2730:2735   */\n      dup2\n        /* \"#utility.yul\":2727:2762   */\n      eq\n        /* \"#utility.yul\":2717:2780   */\n      tag_247\n      jumpi\n        /* \"#utility.yul\":2776:2777   */\n      0x00\n        /* \"#utility.yul\":2773:2774   */\n      dup1\n        /* \"#utility.yul\":2766:2778   */\n      revert\n        /* \"#utility.yul\":2717:2780   */\n    tag_247:\n        /* \"#utility.yul\":2664:2786   */\n      pop\n      jump\t// out\n        /* \"#utility.yul\":2792:2931   */\n    tag_175:\n        /* \"#utility.yul\":2838:2843   */\n      0x00\n        /* \"#utility.yul\":2876:2882   */\n      dup2\n        /* \"#utility.yul\":2863:2883   */\n      calldataload\n        /* \"#utility.yul\":2854:2883   */\n      swap1\n      pop\n        /* \"#utility.yul\":2892:2925   */\n      tag_249\n        /* \"#utility.yul\":2919:2924   */\n      dup2\n        /* \"#utility.yul\":2892:2925   */\n      tag_174\n      jump\t// in\n    tag_249:\n        /* \"#utility.yul\":2792:2931   */\n      swap3\n      swap2\n      pop\n      pop\n      jump\t// out\n        /* \"#utility.yul\":2937:3266   */\n    tag_22:\n        /* \"#utility.yul\":2996:3002   */\n      0x00\n        /* \"#utility.yul\":3045:3047   */\n      0x20\n        /* \"#utility.yul\":3033:3042   */\n      dup3\n        /* \"#utility.yul\":3024:3031   */\n      dup5\n        /* \"#utility.yul\":3020:3043   */\n      sub\n        /* \"#utility.yul\":3016:3048   */\n      slt\n        /* \"#utility.yul\":3013:3132   */\n      iszero\n      tag_251\n      jumpi\n        /* \"#utility.yul\":3051:3130   */\n      tag_252\n      tag_170\n      jump\t// in\n    tag_252:\n        /* \"#utility.yul\":3013:3132   */\n    tag_251:\n        /* \"#utility.yul\":3171:3172   */\n      0x00\n        /* \"#utility.yul\":3196:3249   */\n      tag_253\n        /* \"#utility.yul\":3241:3248   */\n      dup5\n        /* \"#utility.yul\":3232:3238   */\n      dup3\n        /* \"#utility.yul\":3221:3230   */\n      dup6\n        /* \"#utility.yul\":3217:3239   */\n      add\n        /* \"#utility.yul\":3196:3249   */\n      tag_175\n      jump\t// in\n    tag_253:\n        /* \"#utility.yul\":3186:3249   */\n      swap2\n      pop\n        /* \"#utility.yul\":3142:3259   */\n      pop\n        /* \"#utility.yul\":2937:3266   */\n      swap3\n      swap2\n      pop\n      pop\n      jump\t// out\n        /* \"#utility.yul\":3272:3390   */\n    tag_176:\n        /* \"#utility.yul\":3359:3383   */\n      tag_255\n        /* \"#utility.yul\":3377:3382   */\n      dup2\n        /* \"#utility.yul\":3359:3383   */\n      tag_164\n      jump\t// in\n    tag_255:\n        /* \"#utility.yul\":3354:3357   */\n      dup3\n        /* \"#utility.yul\":3347:3384   */\n      mstore\n        /* \"#utility.yul\":3272:3390   */\n      pop\n      pop\n      jump\t// out\n        /* \"#utility.yul\":3396:3618   */\n    tag_25:\n        /* \"#utility.yul\":3489:3493   */\n      0x00\n        /* \"#utility.yul\":3527:3529   */\n      0x20\n        /* \"#utility.yul\":3516:3525   */\n      dup3\n        /* \"#utility.yul\":3512:3530   */\n      add\n        /* \"#utility.yul\":3504:3530   */\n      swap1\n      pop\n        /* \"#utility.yul\":3540:3611   */\n      tag_257\n        /* \"#utility.yul\":3608:3609   */\n      0x00\n        /* \"#utility.yul\":3597:3606   */\n      dup4\n        /* \"#utility.yul\":3593:3610   */\n      add\n        /* \"#utility.yul\":3584:3590   */\n      dup5\n        /* \"#utility.yul\":3540:3611   */\n      tag_176\n      jump\t// in\n    tag_257:\n        /* \"#utility.yul\":3396:3618   */\n      swap3\n      swap2\n      pop\n      pop\n      jump\t// out\n        /* \"#utility.yul\":3624:3746   */\n    tag_177:\n        /* \"#utility.yul\":3697:3721   */\n      tag_259\n        /* \"#utility.yul\":3715:3720   */\n      dup2\n        /* \"#utility.yul\":3697:3721   */\n      tag_164\n      jump\t// in\n    tag_259:\n        /* \"#utility.yul\":3690:3695   */\n      dup2\n        /* \"#utility.yul\":3687:3722   */\n      eq\n        /* \"#utility.yul\":3677:3740   */\n      tag_260\n      jumpi\n        /* \"#utility.yul\":3736:3737   */\n      0x00\n        /* \"#utility.yul\":3733:3734   */\n      dup1\n        /* \"#utility.yul\":3726:3738   */\n      revert\n        /* \"#utility.yul\":3677:3740   */\n    tag_260:\n        /* \"#utility.yul\":3624:3746   */\n      pop\n      jump\t// out\n        /* \"#utility.yul\":3752:3891   */\n    tag_178:\n        /* \"#utility.yul\":3798:3803   */\n      0x00\n        /* \"#utility.yul\":3836:3842   */\n      dup2\n        /* \"#utility.yul\":3823:3843   */\n      calldataload\n        /* \"#utility.yul\":3814:3843   */\n      swap1\n      pop\n        /* \"#utility.yul\":3852:3885   */\n      tag_262\n        /* \"#utility.yul\":3879:3884   */\n      dup2\n        /* \"#utility.yul\":3852:3885   */\n      tag_177\n      jump\t// in\n    tag_262:\n        /* \"#utility.yul\":3752:3891   */\n      swap3\n      swap2\n      pop\n      pop\n      jump\t// out\n        /* \"#utility.yul\":3897:4226   */\n    tag_28:\n        /* \"#utility.yul\":3956:3962   */\n      0x00\n        /* \"#utility.yul\":4005:4007   */\n      0x20\n        /* \"#utility.yul\":3993:4002   */\n      dup3\n        /* \"#utility.yul\":3984:3991   */\n      dup5\n        /* \"#utility.yul\":3980:4003   */\n      sub\n        /* \"#utility.yul\":3976:4008   */\n      slt\n        /* \"#utility.yul\":3973:4092   */\n      iszero\n      tag_264\n      jumpi\n        /* \"#utility.yul\":4011:4090   */\n      tag_265\n      tag_170\n      jump\t// in\n    tag_265:\n        /* \"#utility.yul\":3973:4092   */\n    tag_264:\n        /* \"#utility.yul\":4131:4132   */\n      0x00\n        /* \"#utility.yul\":4156:4209   */\n      tag_266\n        /* \"#utility.yul\":4201:4208   */\n      dup5\n        /* \"#utility.yul\":4192:4198   */\n      dup3\n        /* \"#utility.yul\":4181:4190   */\n      dup6\n        /* \"#utility.yul\":4177:4199   */\n      add\n        /* \"#utility.yul\":4156:4209   */\n      tag_178\n      jump\t// in\n    tag_266:\n        /* \"#utility.yul\":4146:4209   */\n      swap2\n      pop\n        /* \"#utility.yul\":4102:4219   */\n      pop\n        /* \"#utility.yul\":3897:4226   */\n      swap3\n      swap2\n      pop\n      pop\n      jump\t// out\n        /* \"#utility.yul\":4232:4706   */\n    tag_32:\n        /* \"#utility.yul\":4300:4306   */\n      0x00\n        /* \"#utility.yul\":4308:4314   */\n      dup1\n        /* \"#utility.yul\":4357:4359   */\n      0x40\n        /* \"#utility.yul\":4345:4354   */\n      dup4\n        /* \"#utility.yul\":4336:4343   */\n      dup6\n        /* \"#utility.yul\":4332:4355   */\n      sub\n        /* \"#utility.yul\":4328:4360   */\n      slt\n        /* \"#utility.yul\":4325:4444   */\n      iszero\n      tag_268\n      jumpi\n        /* \"#utility.yul\":4363:4442   */\n      tag_269\n      tag_170\n      jump\t// in\n    tag_269:\n        /* \"#utility.yul\":4325:4444   */\n    tag_268:\n        /* \"#utility.yul\":4483:4484   */\n      0x00\n        /* \"#utility.yul\":4508:4561   */\n      tag_270\n        /* \"#utility.yul\":4553:4560   */\n      dup6\n        /* \"#utility.yul\":4544:4550   */\n      dup3\n        /* \"#utility.yul\":4533:4542   */\n      dup7\n        /* \"#utility.yul\":4529:4551   */\n      add\n        /* \"#utility.yul\":4508:4561   */\n      tag_178\n      jump\t// in\n    tag_270:\n        /* \"#utility.yul\":4498:4561   */\n      swap3\n      pop\n        /* \"#utility.yul\":4454:4571   */\n      pop\n        /* \"#utility.yul\":4610:4612   */\n      0x20\n        /* \"#utility.yul\":4636:4689   */\n      tag_271\n        /* \"#utility.yul\":4681:4688   */\n      dup6\n        /* \"#utility.yul\":4672:4678   */\n      dup3\n        /* \"#utility.yul\":4661:4670   */\n      dup7\n        /* \"#utility.yul\":4657:4679   */\n      add\n        /* \"#utility.yul\":4636:4689   */\n      tag_178\n      jump\t// in\n    tag_271:\n        /* \"#utility.yul\":4626:4689   */\n      swap2\n      pop\n        /* \"#utility.yul\":4581:4699   */\n      pop\n        /* \"#utility.yul\":4232:4706   */\n      swap3\n      pop\n      swap3\n      swap1\n      pop\n      jump\t// out\n        /* \"#utility.yul\":4712:4820   */\n    tag_179:\n        /* \"#utility.yul\":4789:4813   */\n      tag_273\n        /* \"#utility.yul\":4807:4812   */\n      dup2\n        /* \"#utility.yul\":4789:4813   */\n      tag_173\n      jump\t// in\n    tag_273:\n        /* \"#utility.yul\":4784:4787   */\n      dup3\n        /* \"#utility.yul\":4777:4814   */\n      mstore\n        /* \"#utility.yul\":4712:4820   */\n      pop\n      pop\n      jump\t// out\n        /* \"#utility.yul\":4826:4916   */\n    tag_180:\n        /* \"#utility.yul\":4860:4867   */\n      0x00\n        /* \"#utility.yul\":4903:4908   */\n      dup2\n        /* \"#utility.yul\":4896:4909   */\n      iszero\n        /* \"#utility.yul\":4889:4910   */\n      iszero\n        /* \"#utility.yul\":4878:4910   */\n      swap1\n      pop\n        /* \"#utility.yul\":4826:4916   */\n      swap2\n      swap1\n      pop\n      jump\t// out\n        /* \"#utility.yul\":4922:5021   */\n    tag_181:\n        /* \"#utility.yul\":4993:5014   */\n      tag_276\n        /* \"#utility.yul\":5008:5013   */\n      dup2\n        /* \"#utility.yul\":4993:5014   */\n      tag_180\n      jump\t// in\n    tag_276:\n        /* \"#utility.yul\":4988:4991   */\n      dup3\n        /* \"#utility.yul\":4981:5015   */\n      mstore\n        /* \"#utility.yul\":4922:5021   */\n      pop\n      pop\n      jump\t// out\n        /* \"#utility.yul\":5099:6488   */\n    tag_182:\n        /* \"#utility.yul\":5242:5246   */\n      0xe0\n        /* \"#utility.yul\":5237:5240   */\n      dup3\n        /* \"#utility.yul\":5233:5247   */\n      add\n        /* \"#utility.yul\":5333:5337   */\n      0x00\n        /* \"#utility.yul\":5326:5331   */\n      dup3\n        /* \"#utility.yul\":5322:5338   */\n      add\n        /* \"#utility.yul\":5316:5339   */\n      mload\n        /* \"#utility.yul\":5352:5415   */\n      tag_278\n        /* \"#utility.yul\":5409:5413   */\n      0x00\n        /* \"#utility.yul\":5404:5407   */\n      dup6\n        /* \"#utility.yul\":5400:5414   */\n      add\n        /* \"#utility.yul\":5386:5398   */\n      dup3\n        /* \"#utility.yul\":5352:5415   */\n      tag_165\n      jump\t// in\n    tag_278:\n        /* \"#utility.yul\":5257:5425   */\n      pop\n        /* \"#utility.yul\":5509:5513   */\n      0x20\n        /* \"#utility.yul\":5502:5507   */\n      dup3\n        /* \"#utility.yul\":5498:5514   */\n      add\n        /* \"#utility.yul\":5492:5515   */\n      mload\n        /* \"#utility.yul\":5528:5591   */\n      tag_279\n        /* \"#utility.yul\":5585:5589   */\n      0x20\n        /* \"#utility.yul\":5580:5583   */\n      dup6\n        /* \"#utility.yul\":5576:5590   */\n      add\n        /* \"#utility.yul\":5562:5574   */\n      dup3\n        /* \"#utility.yul\":5528:5591   */\n      tag_165\n      jump\t// in\n    tag_279:\n        /* \"#utility.yul\":5435:5601   */\n      pop\n        /* \"#utility.yul\":5687:5691   */\n      0x40\n        /* \"#utility.yul\":5680:5685   */\n      dup3\n        /* \"#utility.yul\":5676:5692   */\n      add\n        /* \"#utility.yul\":5670:5693   */\n      mload\n        /* \"#utility.yul\":5706:5769   */\n      tag_280\n        /* \"#utility.yul\":5763:5767   */\n      0x40\n        /* \"#utility.yul\":5758:5761   */\n      dup6\n        /* \"#utility.yul\":5754:5768   */\n      add\n        /* \"#utility.yul\":5740:5752   */\n      dup3\n        /* \"#utility.yul\":5706:5769   */\n      tag_165\n      jump\t// in\n    tag_280:\n        /* \"#utility.yul\":5611:5779   */\n      pop\n        /* \"#utility.yul\":5866:5870   */\n      0x60\n        /* \"#utility.yul\":5859:5864   */\n      dup3\n        /* \"#utility.yul\":5855:5871   */\n      add\n        /* \"#utility.yul\":5849:5872   */\n      mload\n        /* \"#utility.yul\":5885:5948   */\n      tag_281\n        /* \"#utility.yul\":5942:5946   */\n      0x60\n        /* \"#utility.yul\":5937:5940   */\n      dup6\n        /* \"#utility.yul\":5933:5947   */\n      add\n        /* \"#utility.yul\":5919:5931   */\n      dup3\n        /* \"#utility.yul\":5885:5948   */\n      tag_165\n      jump\t// in\n    tag_281:\n        /* \"#utility.yul\":5789:5958   */\n      pop\n        /* \"#utility.yul\":6043:6047   */\n      0x80\n        /* \"#utility.yul\":6036:6041   */\n      dup3\n        /* \"#utility.yul\":6032:6048   */\n      add\n        /* \"#utility.yul\":6026:6049   */\n      mload\n        /* \"#utility.yul\":6062:6125   */\n      tag_282\n        /* \"#utility.yul\":6119:6123   */\n      0x80\n        /* \"#utility.yul\":6114:6117   */\n      dup6\n        /* \"#utility.yul\":6110:6124   */\n      add\n        /* \"#utility.yul\":6096:6108   */\n      dup3\n        /* \"#utility.yul\":6062:6125   */\n      tag_179\n      jump\t// in\n    tag_282:\n        /* \"#utility.yul\":5968:6135   */\n      pop\n        /* \"#utility.yul\":6222:6226   */\n      0xa0\n        /* \"#utility.yul\":6215:6220   */\n      dup3\n        /* \"#utility.yul\":6211:6227   */\n      add\n        /* \"#utility.yul\":6205:6228   */\n      mload\n        /* \"#utility.yul\":6241:6298   */\n      tag_283\n        /* \"#utility.yul\":6292:6296   */\n      0xa0\n        /* \"#utility.yul\":6287:6290   */\n      dup6\n        /* \"#utility.yul\":6283:6297   */\n      add\n        /* \"#utility.yul\":6269:6281   */\n      dup3\n        /* \"#utility.yul\":6241:6298   */\n      tag_181\n      jump\t// in\n    tag_283:\n        /* \"#utility.yul\":6145:6308   */\n      pop\n        /* \"#utility.yul\":6395:6399   */\n      0xc0\n        /* \"#utility.yul\":6388:6393   */\n      dup3\n        /* \"#utility.yul\":6384:6400   */\n      add\n        /* \"#utility.yul\":6378:6401   */\n      mload\n        /* \"#utility.yul\":6414:6471   */\n      tag_284\n        /* \"#utility.yul\":6465:6469   */\n      0xc0\n        /* \"#utility.yul\":6460:6463   */\n      dup6\n        /* \"#utility.yul\":6456:6470   */\n      add\n        /* \"#utility.yul\":6442:6454   */\n      dup3\n        /* \"#utility.yul\":6414:6471   */\n      tag_181\n      jump\t// in\n    tag_284:\n        /* \"#utility.yul\":6318:6481   */\n      pop\n        /* \"#utility.yul\":5211:6488   */\n      pop\n        /* \"#utility.yul\":5099:6488   */\n      pop\n      pop\n      jump\t// out\n        /* \"#utility.yul\":6494:6809   */\n    tag_35:\n        /* \"#utility.yul\":6633:6637   */\n      0x00\n        /* \"#utility.yul\":6671:6674   */\n      0xe0\n        /* \"#utility.yul\":6660:6669   */\n      dup3\n        /* \"#utility.yul\":6656:6675   */\n      add\n        /* \"#utility.yul\":6648:6675   */\n      swap1\n      pop\n        /* \"#utility.yul\":6685:6802   */\n      tag_286\n        /* \"#utility.yul\":6799:6800   */\n      0x00\n        /* \"#utility.yul\":6788:6797   */\n      dup4\n        /* \"#utility.yul\":6784:6801   */\n      add\n        /* \"#utility.yul\":6775:6781   */\n      dup5\n        /* \"#utility.yul\":6685:6802   */\n      tag_182\n      jump\t// in\n    tag_286:\n        /* \"#utility.yul\":6494:6809   */\n      swap3\n      swap2\n      pop\n      pop\n      jump\t// out\n        /* \"#utility.yul\":6815:6952   */\n    tag_183:\n        /* \"#utility.yul\":6905:6911   */\n      0x00\n        /* \"#utility.yul\":6939:6944   */\n      dup2\n        /* \"#utility.yul\":6933:6945   */\n      mload\n        /* \"#utility.yul\":6923:6945   */\n      swap1\n      pop\n        /* \"#utility.yul\":6815:6952   */\n      swap2\n      swap1\n      pop\n      jump\t// out\n        /* \"#utility.yul\":6958:7165   */\n    tag_184:\n        /* \"#utility.yul\":7080:7091   */\n      0x00\n        /* \"#utility.yul\":7114:7120   */\n      dup3\n        /* \"#utility.yul\":7109:7112   */\n      dup3\n        /* \"#utility.yul\":7102:7121   */\n      mstore\n        /* \"#utility.yul\":7154:7158   */\n      0x20\n        /* \"#utility.yul\":7149:7152   */\n      dup3\n        /* \"#utility.yul\":7145:7159   */\n      add\n        /* \"#utility.yul\":7130:7159   */\n      swap1\n      pop\n        /* \"#utility.yul\":6958:7165   */\n      swap3\n      swap2\n      pop\n      pop\n      jump\t// out\n        /* \"#utility.yul\":7171:7326   */\n    tag_185:\n        /* \"#utility.yul\":7261:7265   */\n      0x00\n        /* \"#utility.yul\":7284:7287   */\n      dup2\n        /* \"#utility.yul\":7276:7287   */\n      swap1\n      pop\n        /* \"#utility.yul\":7314:7318   */\n      0x20\n        /* \"#utility.yul\":7309:7312   */\n      dup3\n        /* \"#utility.yul\":7305:7319   */\n      add\n        /* \"#utility.yul\":7297:7319   */\n      swap1\n      pop\n        /* \"#utility.yul\":7171:7326   */\n      swap2\n      swap1\n      pop\n      jump\t// out\n        /* \"#utility.yul\":7404:8783   */\n    tag_186:\n        /* \"#utility.yul\":7537:7541   */\n      0xe0\n        /* \"#utility.yul\":7532:7535   */\n      dup3\n        /* \"#utility.yul\":7528:7542   */\n      add\n        /* \"#utility.yul\":7628:7632   */\n      0x00\n        /* \"#utility.yul\":7621:7626   */\n      dup3\n        /* \"#utility.yul\":7617:7633   */\n      add\n        /* \"#utility.yul\":7611:7634   */\n      mload\n        /* \"#utility.yul\":7647:7710   */\n      tag_291\n        /* \"#utility.yul\":7704:7708   */\n      0x00\n        /* \"#utility.yul\":7699:7702   */\n      dup6\n        /* \"#utility.yul\":7695:7709   */\n      add\n        /* \"#utility.yul\":7681:7693   */\n      dup3\n        /* \"#utility.yul\":7647:7710   */\n      tag_165\n      jump\t// in\n    tag_291:\n        /* \"#utility.yul\":7552:7720   */\n      pop\n        /* \"#utility.yul\":7804:7808   */\n      0x20\n        /* \"#utility.yul\":7797:7802   */\n      dup3\n        /* \"#utility.yul\":7793:7809   */\n      add\n        /* \"#utility.yul\":7787:7810   */\n      mload\n        /* \"#utility.yul\":7823:7886   */\n      tag_292\n        /* \"#utility.yul\":7880:7884   */\n      0x20\n        /* \"#utility.yul\":7875:7878   */\n      dup6\n        /* \"#utility.yul\":7871:7885   */\n      add\n        /* \"#utility.yul\":7857:7869   */\n      dup3\n        /* \"#utility.yul\":7823:7886   */\n      tag_165\n      jump\t// in\n    tag_292:\n        /* \"#utility.yul\":7730:7896   */\n      pop\n        /* \"#utility.yul\":7982:7986   */\n      0x40\n        /* \"#utility.yul\":7975:7980   */\n      dup3\n        /* \"#utility.yul\":7971:7987   */\n      add\n        /* \"#utility.yul\":7965:7988   */\n      mload\n        /* \"#utility.yul\":8001:8064   */\n      tag_293\n        /* \"#utility.yul\":8058:8062   */\n      0x40\n        /* \"#utility.yul\":8053:8056   */\n      dup6\n        /* \"#utility.yul\":8049:8063   */\n      add\n        /* \"#utility.yul\":8035:8047   */\n      dup3\n        /* \"#utility.yul\":8001:8064   */\n      tag_165\n      jump\t// in\n    tag_293:\n        /* \"#utility.yul\":7906:8074   */\n      pop\n        /* \"#utility.yul\":8161:8165   */\n      0x60\n        /* \"#utility.yul\":8154:8159   */\n      dup3\n        /* \"#utility.yul\":8150:8166   */\n      add\n        /* \"#utility.yul\":8144:8167   */\n      mload\n        /* \"#utility.yul\":8180:8243   */\n      tag_294\n        /* \"#utility.yul\":8237:8241   */\n      0x60\n        /* \"#utility.yul\":8232:8235   */\n      dup6\n        /* \"#utility.yul\":8228:8242   */\n      add\n        /* \"#utility.yul\":8214:8226   */\n      dup3\n        /* \"#utility.yul\":8180:8243   */\n      tag_165\n      jump\t// in\n    tag_294:\n        /* \"#utility.yul\":8084:8253   */\n      pop\n        /* \"#utility.yul\":8338:8342   */\n      0x80\n        /* \"#utility.yul\":8331:8336   */\n      dup3\n        /* \"#utility.yul\":8327:8343   */\n      add\n        /* \"#utility.yul\":8321:8344   */\n      mload\n        /* \"#utility.yul\":8357:8420   */\n      tag_295\n        /* \"#utility.yul\":8414:8418   */\n      0x80\n        /* \"#utility.yul\":8409:8412   */\n      dup6\n        /* \"#utility.yul\":8405:8419   */\n      add\n        /* \"#utility.yul\":8391:8403   */\n      dup3\n        /* \"#utility.yul\":8357:8420   */\n      tag_179\n      jump\t// in\n    tag_295:\n        /* \"#utility.yul\":8263:8430   */\n      pop\n        /* \"#utility.yul\":8517:8521   */\n      0xa0\n        /* \"#utility.yul\":8510:8515   */\n      dup3\n        /* \"#utility.yul\":8506:8522   */\n      add\n        /* \"#utility.yul\":8500:8523   */\n      mload\n        /* \"#utility.yul\":8536:8593   */\n      tag_296\n        /* \"#utility.yul\":8587:8591   */\n      0xa0\n        /* \"#utility.yul\":8582:8585   */\n      dup6\n        /* \"#utility.yul\":8578:8592   */\n      add\n        /* \"#utility.yul\":8564:8576   */\n      dup3\n        /* \"#utility.yul\":8536:8593   */\n      tag_181\n      jump\t// in\n    tag_296:\n        /* \"#utility.yul\":8440:8603   */\n      pop\n        /* \"#utility.yul\":8690:8694   */\n      0xc0\n        /* \"#utility.yul\":8683:8688   */\n      dup3\n        /* \"#utility.yul\":8679:8695   */\n      add\n        /* \"#utility.yul\":8673:8696   */\n      mload\n        /* \"#utility.yul\":8709:8766   */\n      tag_297\n        /* \"#utility.yul\":8760:8764   */\n      0xc0\n        /* \"#utility.yul\":8755:8758   */\n      dup6\n        /* \"#utility.yul\":8751:8765   */\n      add\n        /* \"#utility.yul\":8737:8749   */\n      dup3\n        /* \"#utility.yul\":8709:8766   */\n      tag_181\n      jump\t// in\n    tag_297:\n        /* \"#utility.yul\":8613:8776   */\n      pop\n        /* \"#utility.yul\":7506:8783   */\n      pop\n        /* \"#utility.yul\":7404:8783   */\n      pop\n      pop\n      jump\t// out\n        /* \"#utility.yul\":8789:9060   */\n    tag_187:\n        /* \"#utility.yul\":8904:8914   */\n      0x00\n        /* \"#utility.yul\":8925:9017   */\n      tag_299\n        /* \"#utility.yul\":9013:9016   */\n      dup4\n        /* \"#utility.yul\":9005:9011   */\n      dup4\n        /* \"#utility.yul\":8925:9017   */\n      tag_186\n      jump\t// in\n    tag_299:\n        /* \"#utility.yul\":9049:9053   */\n      0xe0\n        /* \"#utility.yul\":9044:9047   */\n      dup4\n        /* \"#utility.yul\":9040:9054   */\n      add\n        /* \"#utility.yul\":9026:9054   */\n      swap1\n      pop\n        /* \"#utility.yul\":8789:9060   */\n      swap3\n      swap2\n      pop\n      pop\n      jump\t// out\n        /* \"#utility.yul\":9066:9202   */\n    tag_188:\n        /* \"#utility.yul\":9159:9163   */\n      0x00\n        /* \"#utility.yul\":9191:9195   */\n      0x20\n        /* \"#utility.yul\":9186:9189   */\n      dup3\n        /* \"#utility.yul\":9182:9196   */\n      add\n        /* \"#utility.yul\":9174:9196   */\n      swap1\n      pop\n        /* \"#utility.yul\":9066:9202   */\n      swap2\n      swap1\n      pop\n      jump\t// out\n        /* \"#utility.yul\":9284:10200   */\n    tag_189:\n        /* \"#utility.yul\":9449:9452   */\n      0x00\n        /* \"#utility.yul\":9478:9555   */\n      tag_302\n        /* \"#utility.yul\":9549:9554   */\n      dup3\n        /* \"#utility.yul\":9478:9555   */\n      tag_183\n      jump\t// in\n    tag_302:\n        /* \"#utility.yul\":9571:9680   */\n      tag_303\n        /* \"#utility.yul\":9673:9679   */\n      dup2\n        /* \"#utility.yul\":9668:9671   */\n      dup6\n        /* \"#utility.yul\":9571:9680   */\n      tag_184\n      jump\t// in\n    tag_303:\n        /* \"#utility.yul\":9564:9680   */\n      swap4\n      pop\n        /* \"#utility.yul\":9704:9783   */\n      tag_304\n        /* \"#utility.yul\":9777:9782   */\n      dup4\n        /* \"#utility.yul\":9704:9783   */\n      tag_185\n      jump\t// in\n    tag_304:\n        /* \"#utility.yul\":9806:9813   */\n      dup1\n        /* \"#utility.yul\":9837:9838   */\n      0x00\n        /* \"#utility.yul\":9822:10175   */\n    tag_305:\n        /* \"#utility.yul\":9847:9853   */\n      dup4\n        /* \"#utility.yul\":9844:9845   */\n      dup2\n        /* \"#utility.yul\":9841:9854   */\n      lt\n        /* \"#utility.yul\":9822:10175   */\n      iszero\n      tag_307\n      jumpi\n        /* \"#utility.yul\":9923:9929   */\n      dup2\n        /* \"#utility.yul\":9917:9930   */\n      mload\n        /* \"#utility.yul\":9950:10059   */\n      tag_308\n        /* \"#utility.yul\":10055:10058   */\n      dup9\n        /* \"#utility.yul\":10040:10053   */\n      dup3\n        /* \"#utility.yul\":9950:10059   */\n      tag_187\n      jump\t// in\n    tag_308:\n        /* \"#utility.yul\":9943:10059   */\n      swap8\n      pop\n        /* \"#utility.yul\":10082:10165   */\n      tag_309\n        /* \"#utility.yul\":10158:10164   */\n      dup4\n        /* \"#utility.yul\":10082:10165   */\n      tag_188\n      jump\t// in\n    tag_309:\n        /* \"#utility.yul\":10072:10165   */\n      swap3\n      pop\n        /* \"#utility.yul\":9882:10175   */\n      pop\n        /* \"#utility.yul\":9869:9870   */\n      0x01\n        /* \"#utility.yul\":9866:9867   */\n      dup2\n        /* \"#utility.yul\":9862:9871   */\n      add\n        /* \"#utility.yul\":9857:9871   */\n      swap1\n      pop\n        /* \"#utility.yul\":9822:10175   */\n      jump(tag_305)\n    tag_307:\n        /* \"#utility.yul\":9826:9840   */\n      pop\n        /* \"#utility.yul\":10191:10194   */\n      dup6\n        /* \"#utility.yul\":10184:10194   */\n      swap4\n      pop\n        /* \"#utility.yul\":9454:10200   */\n      pop\n      pop\n      pop\n        /* \"#utility.yul\":9284:10200   */\n      swap3\n      swap2\n      pop\n      pop\n      jump\t// out\n        /* \"#utility.yul\":10206:10671   */\n    tag_40:\n        /* \"#utility.yul\":10395:10399   */\n      0x00\n        /* \"#utility.yul\":10433:10435   */\n      0x20\n        /* \"#utility.yul\":10422:10431   */\n      dup3\n        /* \"#utility.yul\":10418:10436   */\n      add\n        /* \"#utility.yul\":10410:10436   */\n      swap1\n      pop\n        /* \"#utility.yul\":10482:10491   */\n      dup2\n        /* \"#utility.yul\":10476:10480   */\n      dup2\n        /* \"#utility.yul\":10472:10492   */\n      sub\n        /* \"#utility.yul\":10468:10469   */\n      0x00\n        /* \"#utility.yul\":10457:10466   */\n      dup4\n        /* \"#utility.yul\":10453:10470   */\n      add\n        /* \"#utility.yul\":10446:10493   */\n      mstore\n        /* \"#utility.yul\":10510:10664   */\n      tag_311\n        /* \"#utility.yul\":10659:10663   */\n      dup2\n        /* \"#utility.yul\":10650:10656   */\n      dup5\n        /* \"#utility.yul\":10510:10664   */\n      tag_189\n      jump\t// in\n    tag_311:\n        /* \"#utility.yul\":10502:10664   */\n      swap1\n      pop\n        /* \"#utility.yul\":10206:10671   */\n      swap3\n      swap2\n      pop\n      pop\n      jump\t// out\n        /* \"#utility.yul\":10677:10795   */\n    tag_190:\n        /* \"#utility.yul\":10764:10788   */\n      tag_313\n        /* \"#utility.yul\":10782:10787   */\n      dup2\n        /* \"#utility.yul\":10764:10788   */\n      tag_173\n      jump\t// in\n    tag_313:\n        /* \"#utility.yul\":10759:10762   */\n      dup3\n        /* \"#utility.yul\":10752:10789   */\n      mstore\n        /* \"#utility.yul\":10677:10795   */\n      pop\n      pop\n      jump\t// out\n        /* \"#utility.yul\":10801:11023   */\n    tag_44:\n        /* \"#utility.yul\":10894:10898   */\n      0x00\n        /* \"#utility.yul\":10932:10934   */\n      0x20\n        /* \"#utility.yul\":10921:10930   */\n      dup3\n        /* \"#utility.yul\":10917:10935   */\n      add\n        /* \"#utility.yul\":10909:10935   */\n      swap1\n      pop\n        /* \"#utility.yul\":10945:11016   */\n      tag_315\n        /* \"#utility.yul\":11013:11014   */\n      0x00\n        /* \"#utility.yul\":11002:11011   */\n      dup4\n        /* \"#utility.yul\":10998:11015   */\n      add\n        /* \"#utility.yul\":10989:10995   */\n      dup5\n        /* \"#utility.yul\":10945:11016   */\n      tag_190\n      jump\t// in\n    tag_315:\n        /* \"#utility.yul\":10801:11023   */\n      swap3\n      swap2\n      pop\n      pop\n      jump\t// out\n        /* \"#utility.yul\":11029:11138   */\n    tag_191:\n        /* \"#utility.yul\":11110:11131   */\n      tag_317\n        /* \"#utility.yul\":11125:11130   */\n      dup2\n        /* \"#utility.yul\":11110:11131   */\n      tag_180\n      jump\t// in\n    tag_317:\n        /* \"#utility.yul\":11105:11108   */\n      dup3\n        /* \"#utility.yul\":11098:11132   */\n      mstore\n        /* \"#utility.yul\":11029:11138   */\n      pop\n      pop\n      jump\t// out\n        /* \"#utility.yul\":11144:12006   */\n    tag_52:\n        /* \"#utility.yul\":11393:11397   */\n      0x00\n        /* \"#utility.yul\":11431:11434   */\n      0xe0\n        /* \"#utility.yul\":11420:11429   */\n      dup3\n        /* \"#utility.yul\":11416:11435   */\n      add\n        /* \"#utility.yul\":11408:11435   */\n      swap1\n      pop\n        /* \"#utility.yul\":11445:11516   */\n      tag_319\n        /* \"#utility.yul\":11513:11514   */\n      0x00\n        /* \"#utility.yul\":11502:11511   */\n      dup4\n        /* \"#utility.yul\":11498:11515   */\n      add\n        /* \"#utility.yul\":11489:11495   */\n      dup11\n        /* \"#utility.yul\":11445:11516   */\n      tag_176\n      jump\t// in\n    tag_319:\n        /* \"#utility.yul\":11526:11598   */\n      tag_320\n        /* \"#utility.yul\":11594:11596   */\n      0x20\n        /* \"#utility.yul\":11583:11592   */\n      dup4\n        /* \"#utility.yul\":11579:11597   */\n      add\n        /* \"#utility.yul\":11570:11576   */\n      dup10\n        /* \"#utility.yul\":11526:11598   */\n      tag_176\n      jump\t// in\n    tag_320:\n        /* \"#utility.yul\":11608:11680   */\n      tag_321\n        /* \"#utility.yul\":11676:11678   */\n      0x40\n        /* \"#utility.yul\":11665:11674   */\n      dup4\n        /* \"#utility.yul\":11661:11679   */\n      add\n        /* \"#utility.yul\":11652:11658   */\n      dup9\n        /* \"#utility.yul\":11608:11680   */\n      tag_176\n      jump\t// in\n    tag_321:\n        /* \"#utility.yul\":11690:11762   */\n      tag_322\n        /* \"#utility.yul\":11758:11760   */\n      0x60\n        /* \"#utility.yul\":11747:11756   */\n      dup4\n        /* \"#utility.yul\":11743:11761   */\n      add\n        /* \"#utility.yul\":11734:11740   */\n      dup8\n        /* \"#utility.yul\":11690:11762   */\n      tag_176\n      jump\t// in\n    tag_322:\n        /* \"#utility.yul\":11772:11845   */\n      tag_323\n        /* \"#utility.yul\":11840:11843   */\n      0x80\n        /* \"#utility.yul\":11829:11838   */\n      dup4\n        /* \"#utility.yul\":11825:11844   */\n      add\n        /* \"#utility.yul\":11816:11822   */\n      dup7\n        /* \"#utility.yul\":11772:11845   */\n      tag_190\n      jump\t// in\n    tag_323:\n        /* \"#utility.yul\":11855:11922   */\n      tag_324\n        /* \"#utility.yul\":11917:11920   */\n      0xa0\n        /* \"#utility.yul\":11906:11915   */\n      dup4\n        /* \"#utility.yul\":11902:11921   */\n      add\n        /* \"#utility.yul\":11893:11899   */\n      dup6\n        /* \"#utility.yul\":11855:11922   */\n      tag_191\n      jump\t// in\n    tag_324:\n        /* \"#utility.yul\":11932:11999   */\n      tag_325\n        /* \"#utility.yul\":11994:11997   */\n      0xc0\n        /* \"#utility.yul\":11983:11992   */\n      dup4\n        /* \"#utility.yul\":11979:11998   */\n      add\n        /* \"#utility.yul\":11970:11976   */\n      dup5\n        /* \"#utility.yul\":11932:11999   */\n      tag_191\n      jump\t// in\n    tag_325:\n        /* \"#utility.yul\":11144:12006   */\n      swap9\n      swap8\n      pop\n      pop\n      pop\n      pop\n      pop\n      pop\n      pop\n      pop\n      jump\t// out\n        /* \"#utility.yul\":12012:12486   */\n    tag_55:\n        /* \"#utility.yul\":12080:12086   */\n      0x00\n        /* \"#utility.yul\":12088:12094   */\n      dup1\n        /* \"#utility.yul\":12137:12139   */\n      0x40\n        /* \"#utility.yul\":12125:12134   */\n      dup4\n        /* \"#utility.yul\":12116:12123   */\n      dup6\n        /* \"#utility.yul\":12112:12135   */\n      sub\n        /* \"#utility.yul\":12108:12140   */\n      slt\n        /* \"#utility.yul\":12105:12224   */\n      iszero\n      tag_327\n      jumpi\n        /* \"#utility.yul\":12143:12222   */\n      tag_328\n      tag_170\n      jump\t// in\n    tag_328:\n        /* \"#utility.yul\":12105:12224   */\n    tag_327:\n        /* \"#utility.yul\":12263:12264   */\n      0x00\n        /* \"#utility.yul\":12288:12341   */\n      tag_329\n        /* \"#utility.yul\":12333:12340   */\n      dup6\n        /* \"#utility.yul\":12324:12330   */\n      dup3\n        /* \"#utility.yul\":12313:12322   */\n      dup7\n        /* \"#utility.yul\":12309:12331   */\n      add\n        /* \"#utility.yul\":12288:12341   */\n      tag_175\n      jump\t// in\n    tag_329:\n        /* \"#utility.yul\":12278:12341   */\n      swap3\n      pop\n        /* \"#utility.yul\":12234:12351   */\n      pop\n        /* \"#utility.yul\":12390:12392   */\n      0x20\n        /* \"#utility.yul\":12416:12469   */\n      tag_330\n        /* \"#utility.yul\":12461:12468   */\n      dup6\n        /* \"#utility.yul\":12452:12458   */\n      dup3\n        /* \"#utility.yul\":12441:12450   */\n      dup7\n        /* \"#utility.yul\":12437:12459   */\n      add\n        /* \"#utility.yul\":12416:12469   */\n      tag_178\n      jump\t// in\n    tag_330:\n        /* \"#utility.yul\":12406:12469   */\n      swap2\n      pop\n        /* \"#utility.yul\":12361:12479   */\n      pop\n        /* \"#utility.yul\":12012:12486   */\n      swap3\n      pop\n      swap3\n      swap1\n      pop\n      jump\t// out\n        /* \"#utility.yul\":12492:13045   */\n    tag_66:\n        /* \"#utility.yul\":12669:12673   */\n      0x00\n        /* \"#utility.yul\":12707:12710   */\n      0x80\n        /* \"#utility.yul\":12696:12705   */\n      dup3\n        /* \"#utility.yul\":12692:12711   */\n      add\n        /* \"#utility.yul\":12684:12711   */\n      swap1\n      pop\n        /* \"#utility.yul\":12721:12792   */\n      tag_332\n        /* \"#utility.yul\":12789:12790   */\n      0x00\n        /* \"#utility.yul\":12778:12787   */\n      dup4\n        /* \"#utility.yul\":12774:12791   */\n      add\n        /* \"#utility.yul\":12765:12771   */\n      dup8\n        /* \"#utility.yul\":12721:12792   */\n      tag_190\n      jump\t// in\n    tag_332:\n        /* \"#utility.yul\":12802:12874   */\n      tag_333\n        /* \"#utility.yul\":12870:12872   */\n      0x20\n        /* \"#utility.yul\":12859:12868   */\n      dup4\n        /* \"#utility.yul\":12855:12873   */\n      add\n        /* \"#utility.yul\":12846:12852   */\n      dup7\n        /* \"#utility.yul\":12802:12874   */\n      tag_176\n      jump\t// in\n    tag_333:\n        /* \"#utility.yul\":12884:12956   */\n      tag_334\n        /* \"#utility.yul\":12952:12954   */\n      0x40\n        /* \"#utility.yul\":12941:12950   */\n      dup4\n        /* \"#utility.yul\":12937:12955   */\n      add\n        /* \"#utility.yul\":12928:12934   */\n      dup6\n        /* \"#utility.yul\":12884:12956   */\n      tag_176\n      jump\t// in\n    tag_334:\n        /* \"#utility.yul\":12966:13038   */\n      tag_335\n        /* \"#utility.yul\":13034:13036   */\n      0x60\n        /* \"#utility.yul\":13023:13032   */\n      dup4\n        /* \"#utility.yul\":13019:13037   */\n      add\n        /* \"#utility.yul\":13010:13016   */\n      dup5\n        /* \"#utility.yul\":12966:13038   */\n      tag_176\n      jump\t// in\n    tag_335:\n        /* \"#utility.yul\":12492:13045   */\n      swap6\n      swap5\n      pop\n      pop\n      pop\n      pop\n      pop\n      jump\t// out\n        /* \"#utility.yul\":13051:13111   */\n    tag_192:\n        /* \"#utility.yul\":13079:13082   */\n      0x00\n        /* \"#utility.yul\":13100:13105   */\n      dup2\n        /* \"#utility.yul\":13093:13105   */\n      swap1\n      pop\n        /* \"#utility.yul\":13051:13111   */\n      swap2\n      swap1\n      pop\n      jump\t// out\n        /* \"#utility.yul\":13117:13259   */\n    tag_193:\n        /* \"#utility.yul\":13167:13176   */\n      0x00\n        /* \"#utility.yul\":13200:13253   */\n      tag_338\n        /* \"#utility.yul\":13218:13252   */\n      tag_339\n        /* \"#utility.yul\":13227:13251   */\n      tag_340\n        /* \"#utility.yul\":13245:13250   */\n      dup5\n        /* \"#utility.yul\":13227:13251   */\n      tag_172\n      jump\t// in\n    tag_340:\n        /* \"#utility.yul\":13218:13252   */\n      tag_192\n      jump\t// in\n    tag_339:\n        /* \"#utility.yul\":13200:13253   */\n      tag_172\n      jump\t// in\n    tag_338:\n        /* \"#utility.yul\":13187:13253   */\n      swap1\n      pop\n        /* \"#utility.yul\":13117:13259   */\n      swap2\n      swap1\n      pop\n      jump\t// out\n        /* \"#utility.yul\":13265:13391   */\n    tag_194:\n        /* \"#utility.yul\":13315:13324   */\n      0x00\n        /* \"#utility.yul\":13348:13385   */\n      tag_342\n        /* \"#utility.yul\":13379:13384   */\n      dup3\n        /* \"#utility.yul\":13348:13385   */\n      tag_193\n      jump\t// in\n    tag_342:\n        /* \"#utility.yul\":13335:13385   */\n      swap1\n      pop\n        /* \"#utility.yul\":13265:13391   */\n      swap2\n      swap1\n      pop\n      jump\t// out\n        /* \"#utility.yul\":13397:13539   */\n    tag_195:\n        /* \"#utility.yul\":13463:13472   */\n      0x00\n        /* \"#utility.yul\":13496:13533   */\n      tag_344\n        /* \"#utility.yul\":13527:13532   */\n      dup3\n        /* \"#utility.yul\":13496:13533   */\n      tag_194\n      jump\t// in\n    tag_344:\n        /* \"#utility.yul\":13483:13533   */\n      swap1\n      pop\n        /* \"#utility.yul\":13397:13539   */\n      swap2\n      swap1\n      pop\n      jump\t// out\n        /* \"#utility.yul\":13545:13708   */\n    tag_196:\n        /* \"#utility.yul\":13648:13701   */\n      tag_346\n        /* \"#utility.yul\":13695:13700   */\n      dup2\n        /* \"#utility.yul\":13648:13701   */\n      tag_195\n      jump\t// in\n    tag_346:\n        /* \"#utility.yul\":13643:13646   */\n      dup3\n        /* \"#utility.yul\":13636:13702   */\n      mstore\n        /* \"#utility.yul\":13545:13708   */\n      pop\n      pop\n      jump\t// out\n        /* \"#utility.yul\":13714:13968   */\n    tag_70:\n        /* \"#utility.yul\":13823:13827   */\n      0x00\n        /* \"#utility.yul\":13861:13863   */\n      0x20\n        /* \"#utility.yul\":13850:13859   */\n      dup3\n        /* \"#utility.yul\":13846:13864   */\n      add\n        /* \"#utility.yul\":13838:13864   */\n      swap1\n      pop\n        /* \"#utility.yul\":13874:13961   */\n      tag_348\n        /* \"#utility.yul\":13958:13959   */\n      0x00\n        /* \"#utility.yul\":13947:13956   */\n      dup4\n        /* \"#utility.yul\":13943:13960   */\n      add\n        /* \"#utility.yul\":13934:13940   */\n      dup5\n        /* \"#utility.yul\":13874:13961   */\n      tag_196\n      jump\t// in\n    tag_348:\n        /* \"#utility.yul\":13714:13968   */\n      swap3\n      swap2\n      pop\n      pop\n      jump\t// out\n        /* \"#utility.yul\":13974:14117   */\n    tag_197:\n        /* \"#utility.yul\":14031:14036   */\n      0x00\n        /* \"#utility.yul\":14062:14068   */\n      dup2\n        /* \"#utility.yul\":14056:14069   */\n      mload\n        /* \"#utility.yul\":14047:14069   */\n      swap1\n      pop\n        /* \"#utility.yul\":14078:14111   */\n      tag_350\n        /* \"#utility.yul\":14105:14110   */\n      dup2\n        /* \"#utility.yul\":14078:14111   */\n      tag_177\n      jump\t// in\n    tag_350:\n        /* \"#utility.yul\":13974:14117   */\n      swap3\n      swap2\n      pop\n      pop\n      jump\t// out\n        /* \"#utility.yul\":14123:14474   */\n    tag_79:\n        /* \"#utility.yul\":14193:14199   */\n      0x00\n        /* \"#utility.yul\":14242:14244   */\n      0x20\n        /* \"#utility.yul\":14230:14239   */\n      dup3\n        /* \"#utility.yul\":14221:14228   */\n      dup5\n        /* \"#utility.yul\":14217:14240   */\n      sub\n        /* \"#utility.yul\":14213:14245   */\n      slt\n        /* \"#utility.yul\":14210:14329   */\n      iszero\n      tag_352\n      jumpi\n        /* \"#utility.yul\":14248:14327   */\n      tag_353\n      tag_170\n      jump\t// in\n    tag_353:\n        /* \"#utility.yul\":14210:14329   */\n    tag_352:\n        /* \"#utility.yul\":14368:14369   */\n      0x00\n        /* \"#utility.yul\":14393:14457   */\n      tag_354\n        /* \"#utility.yul\":14449:14456   */\n      dup5\n        /* \"#utility.yul\":14440:14446   */\n      dup3\n        /* \"#utility.yul\":14429:14438   */\n      dup6\n        /* \"#utility.yul\":14425:14447   */\n      add\n        /* \"#utility.yul\":14393:14457   */\n      tag_197\n      jump\t// in\n    tag_354:\n        /* \"#utility.yul\":14383:14457   */\n      swap2\n      pop\n        /* \"#utility.yul\":14339:14467   */\n      pop\n        /* \"#utility.yul\":14123:14474   */\n      swap3\n      swap2\n      pop\n      pop\n      jump\t// out\n        /* \"#utility.yul\":14480:14649   */\n    tag_198:\n        /* \"#utility.yul\":14564:14575   */\n      0x00\n        /* \"#utility.yul\":14598:14604   */\n      dup3\n        /* \"#utility.yul\":14593:14596   */\n      dup3\n        /* \"#utility.yul\":14586:14605   */\n      mstore\n        /* \"#utility.yul\":14638:14642   */\n      0x20\n        /* \"#utility.yul\":14633:14636   */\n      dup3\n        /* \"#utility.yul\":14629:14643   */\n      add\n        /* \"#utility.yul\":14614:14643   */\n      swap1\n      pop\n        /* \"#utility.yul\":14480:14649   */\n      swap3\n      swap2\n      pop\n      pop\n      jump\t// out\n        /* \"#utility.yul\":14655:14883   */\n    tag_199:\n        /* \"#utility.yul\":14795:14829   */\n      0x596f752063616e206f6e6c7920636c61696d20796f7572206f776e207374616b\n        /* \"#utility.yul\":14791:14792   */\n      0x00\n        /* \"#utility.yul\":14783:14789   */\n      dup3\n        /* \"#utility.yul\":14779:14793   */\n      add\n        /* \"#utility.yul\":14772:14830   */\n      mstore\n        /* \"#utility.yul\":14864:14875   */\n      0x656420616d6f756e740000000000000000000000000000000000000000000000\n        /* \"#utility.yul\":14859:14861   */\n      0x20\n        /* \"#utility.yul\":14851:14857   */\n      dup3\n        /* \"#utility.yul\":14847:14862   */\n      add\n        /* \"#utility.yul\":14840:14876   */\n      mstore\n        /* \"#utility.yul\":14655:14883   */\n      pop\n      jump\t// out\n        /* \"#utility.yul\":14889:15255   */\n    tag_200:\n        /* \"#utility.yul\":15031:15034   */\n      0x00\n        /* \"#utility.yul\":15052:15119   */\n      tag_358\n        /* \"#utility.yul\":15116:15118   */\n      0x29\n        /* \"#utility.yul\":15111:15114   */\n      dup4\n        /* \"#utility.yul\":15052:15119   */\n      tag_198\n      jump\t// in\n    tag_358:\n        /* \"#utility.yul\":15045:15119   */\n      swap2\n      pop\n        /* \"#utility.yul\":15128:15221   */\n      tag_359\n        /* \"#utility.yul\":15217:15220   */\n      dup3\n        /* \"#utility.yul\":15128:15221   */\n      tag_199\n      jump\t// in\n    tag_359:\n        /* \"#utility.yul\":15246:15248   */\n      0x40\n        /* \"#utility.yul\":15241:15244   */\n      dup3\n        /* \"#utility.yul\":15237:15249   */\n      add\n        /* \"#utility.yul\":15230:15249   */\n      swap1\n      pop\n        /* \"#utility.yul\":14889:15255   */\n      swap2\n      swap1\n      pop\n      jump\t// out\n        /* \"#utility.yul\":15261:15680   */\n    tag_83:\n        /* \"#utility.yul\":15427:15431   */\n      0x00\n        /* \"#utility.yul\":15465:15467   */\n      0x20\n        /* \"#utility.yul\":15454:15463   */\n      dup3\n        /* \"#utility.yul\":15450:15468   */\n      add\n        /* \"#utility.yul\":15442:15468   */\n      swap1\n      pop\n        /* \"#utility.yul\":15514:15523   */\n      dup2\n        /* \"#utility.yul\":15508:15512   */\n      dup2\n        /* \"#utility.yul\":15504:15524   */\n      sub\n        /* \"#utility.yul\":15500:15501   */\n      0x00\n        /* \"#utility.yul\":15489:15498   */\n      dup4\n        /* \"#utility.yul\":15485:15502   */\n      add\n        /* \"#utility.yul\":15478:15525   */\n      mstore\n        /* \"#utility.yul\":15542:15673   */\n      tag_361\n        /* \"#utility.yul\":15668:15672   */\n      dup2\n        /* \"#utility.yul\":15542:15673   */\n      tag_200\n      jump\t// in\n    tag_361:\n        /* \"#utility.yul\":15534:15673   */\n      swap1\n      pop\n        /* \"#utility.yul\":15261:15680   */\n      swap2\n      swap1\n      pop\n      jump\t// out\n        /* \"#utility.yul\":15686:15907   */\n    tag_201:\n        /* \"#utility.yul\":15826:15860   */\n      0x52657761726420616c726561647920636c61696d656420796f757220616d6f75\n        /* \"#utility.yul\":15822:15823   */\n      0x00\n        /* \"#utility.yul\":15814:15820   */\n      dup3\n        /* \"#utility.yul\":15810:15824   */\n      add\n        /* \"#utility.yul\":15803:15861   */\n      mstore\n        /* \"#utility.yul\":15895:15899   */\n      0x6e74000000000000000000000000000000000000000000000000000000000000\n        /* \"#utility.yul\":15890:15892   */\n      0x20\n        /* \"#utility.yul\":15882:15888   */\n      dup3\n        /* \"#utility.yul\":15878:15893   */\n      add\n        /* \"#utility.yul\":15871:15900   */\n      mstore\n        /* \"#utility.yul\":15686:15907   */\n      pop\n      jump\t// out\n        /* \"#utility.yul\":15913:16279   */\n    tag_202:\n        /* \"#utility.yul\":16055:16058   */\n      0x00\n        /* \"#utility.yul\":16076:16143   */\n      tag_364\n        /* \"#utility.yul\":16140:16142   */\n      0x22\n        /* \"#utility.yul\":16135:16138   */\n      dup4\n        /* \"#utility.yul\":16076:16143   */\n      tag_198\n      jump\t// in\n    tag_364:\n        /* \"#utility.yul\":16069:16143   */\n      swap2\n      pop\n        /* \"#utility.yul\":16152:16245   */\n      tag_365\n        /* \"#utility.yul\":16241:16244   */\n      dup3\n        /* \"#utility.yul\":16152:16245   */\n      tag_201\n      jump\t// in\n    tag_365:\n        /* \"#utility.yul\":16270:16272   */\n      0x40\n        /* \"#utility.yul\":16265:16268   */\n      dup3\n        /* \"#utility.yul\":16261:16273   */\n      add\n        /* \"#utility.yul\":16254:16273   */\n      swap1\n      pop\n        /* \"#utility.yul\":15913:16279   */\n      swap2\n      swap1\n      pop\n      jump\t// out\n        /* \"#utility.yul\":16285:16704   */\n    tag_86:\n        /* \"#utility.yul\":16451:16455   */\n      0x00\n        /* \"#utility.yul\":16489:16491   */\n      0x20\n        /* \"#utility.yul\":16478:16487   */\n      dup3\n        /* \"#utility.yul\":16474:16492   */\n      add\n        /* \"#utility.yul\":16466:16492   */\n      swap1\n      pop\n        /* \"#utility.yul\":16538:16547   */\n      dup2\n        /* \"#utility.yul\":16532:16536   */\n      dup2\n        /* \"#utility.yul\":16528:16548   */\n      sub\n        /* \"#utility.yul\":16524:16525   */\n      0x00\n        /* \"#utility.yul\":16513:16522   */\n      dup4\n        /* \"#utility.yul\":16509:16526   */\n      add\n        /* \"#utility.yul\":16502:16549   */\n      mstore\n        /* \"#utility.yul\":16566:16697   */\n      tag_367\n        /* \"#utility.yul\":16692:16696   */\n      dup2\n        /* \"#utility.yul\":16566:16697   */\n      tag_202\n      jump\t// in\n    tag_367:\n        /* \"#utility.yul\":16558:16697   */\n      swap1\n      pop\n        /* \"#utility.yul\":16285:16704   */\n      swap2\n      swap1\n      pop\n      jump\t// out\n        /* \"#utility.yul\":16710:16890   */\n    tag_203:\n        /* \"#utility.yul\":16758:16835   */\n      0x4e487b7100000000000000000000000000000000000000000000000000000000\n        /* \"#utility.yul\":16755:16756   */\n      0x00\n        /* \"#utility.yul\":16748:16836   */\n      mstore\n        /* \"#utility.yul\":16855:16859   */\n      0x11\n        /* \"#utility.yul\":16852:16853   */\n      0x04\n        /* \"#utility.yul\":16845:16860   */\n      mstore\n        /* \"#utility.yul\":16879:16883   */\n      0x24\n        /* \"#utility.yul\":16876:16877   */\n      0x00\n        /* \"#utility.yul\":16869:16884   */\n      revert\n        /* \"#utility.yul\":16896:17306   */\n    tag_88:\n        /* \"#utility.yul\":16936:16943   */\n      0x00\n        /* \"#utility.yul\":16959:16979   */\n      tag_370\n        /* \"#utility.yul\":16977:16978   */\n      dup3\n        /* \"#utility.yul\":16959:16979   */\n      tag_164\n      jump\t// in\n    tag_370:\n        /* \"#utility.yul\":16954:16979   */\n      swap2\n      pop\n        /* \"#utility.yul\":16993:17013   */\n      tag_371\n        /* \"#utility.yul\":17011:17012   */\n      dup4\n        /* \"#utility.yul\":16993:17013   */\n      tag_164\n      jump\t// in\n    tag_371:\n        /* \"#utility.yul\":16988:17013   */\n      swap3\n      pop\n        /* \"#utility.yul\":17048:17049   */\n      dup3\n        /* \"#utility.yul\":17045:17046   */\n      dup3\n        /* \"#utility.yul\":17041:17050   */\n      mul\n        /* \"#utility.yul\":17070:17100   */\n      tag_372\n        /* \"#utility.yul\":17088:17099   */\n      dup2\n        /* \"#utility.yul\":17070:17100   */\n      tag_164\n      jump\t// in\n    tag_372:\n        /* \"#utility.yul\":17059:17100   */\n      swap2\n      pop\n        /* \"#utility.yul\":17249:17250   */\n      dup3\n        /* \"#utility.yul\":17240:17247   */\n      dup3\n        /* \"#utility.yul\":17236:17251   */\n      div\n        /* \"#utility.yul\":17233:17234   */\n      dup5\n        /* \"#utility.yul\":17230:17252   */\n      eq\n        /* \"#utility.yul\":17210:17211   */\n      dup4\n        /* \"#utility.yul\":17203:17212   */\n      iszero\n        /* \"#utility.yul\":17183:17266   */\n      or\n        /* \"#utility.yul\":17160:17299   */\n      tag_373\n      jumpi\n        /* \"#utility.yul\":17279:17297   */\n      tag_374\n      tag_203\n      jump\t// in\n    tag_374:\n        /* \"#utility.yul\":17160:17299   */\n    tag_373:\n        /* \"#utility.yul\":16944:17306   */\n      pop\n        /* \"#utility.yul\":16896:17306   */\n      swap3\n      swap2\n      pop\n      pop\n      jump\t// out\n        /* \"#utility.yul\":17312:17503   */\n    tag_90:\n        /* \"#utility.yul\":17352:17355   */\n      0x00\n        /* \"#utility.yul\":17371:17391   */\n      tag_376\n        /* \"#utility.yul\":17389:17390   */\n      dup3\n        /* \"#utility.yul\":17371:17391   */\n      tag_164\n      jump\t// in\n    tag_376:\n        /* \"#utility.yul\":17366:17391   */\n      swap2\n      pop\n        /* \"#utility.yul\":17405:17425   */\n      tag_377\n        /* \"#utility.yul\":17423:17424   */\n      dup4\n        /* \"#utility.yul\":17405:17425   */\n      tag_164\n      jump\t// in\n    tag_377:\n        /* \"#utility.yul\":17400:17425   */\n      swap3\n      pop\n        /* \"#utility.yul\":17448:17449   */\n      dup3\n        /* \"#utility.yul\":17445:17446   */\n      dup3\n        /* \"#utility.yul\":17441:17450   */\n      add\n        /* \"#utility.yul\":17434:17450   */\n      swap1\n      pop\n        /* \"#utility.yul\":17469:17472   */\n      dup1\n        /* \"#utility.yul\":17466:17467   */\n      dup3\n        /* \"#utility.yul\":17463:17473   */\n      gt\n        /* \"#utility.yul\":17460:17496   */\n      iszero\n      tag_378\n      jumpi\n        /* \"#utility.yul\":17476:17494   */\n      tag_379\n      tag_203\n      jump\t// in\n    tag_379:\n        /* \"#utility.yul\":17460:17496   */\n    tag_378:\n        /* \"#utility.yul\":17312:17503   */\n      swap3\n      swap2\n      pop\n      pop\n      jump\t// out\n        /* \"#utility.yul\":17509:17752   */\n    tag_204:\n        /* \"#utility.yul\":17649:17683   */\n      0x596f752063616e206f6e6c7920636c61696d2061667465722074686520737461\n        /* \"#utility.yul\":17645:17646   */\n      0x00\n        /* \"#utility.yul\":17637:17643   */\n      dup3\n        /* \"#utility.yul\":17633:17647   */\n      add\n        /* \"#utility.yul\":17626:17684   */\n      mstore\n        /* \"#utility.yul\":17718:17744   */\n      0x6b696e67206475726174696f6e20686173207061737365640000000000000000\n        /* \"#utility.yul\":17713:17715   */\n      0x20\n        /* \"#utility.yul\":17705:17711   */\n      dup3\n        /* \"#utility.yul\":17701:17716   */\n      add\n        /* \"#utility.yul\":17694:17745   */\n      mstore\n        /* \"#utility.yul\":17509:17752   */\n      pop\n      jump\t// out\n        /* \"#utility.yul\":17758:18124   */\n    tag_205:\n        /* \"#utility.yul\":17900:17903   */\n      0x00\n        /* \"#utility.yul\":17921:17988   */\n      tag_382\n        /* \"#utility.yul\":17985:17987   */\n      0x38\n        /* \"#utility.yul\":17980:17983   */\n      dup4\n        /* \"#utility.yul\":17921:17988   */\n      tag_198\n      jump\t// in\n    tag_382:\n        /* \"#utility.yul\":17914:17988   */\n      swap2\n      pop\n        /* \"#utility.yul\":17997:18090   */\n      tag_383\n        /* \"#utility.yul\":18086:18089   */\n      dup3\n        /* \"#utility.yul\":17997:18090   */\n      tag_204\n      jump\t// in\n    tag_383:\n        /* \"#utility.yul\":18115:18117   */\n      0x40\n        /* \"#utility.yul\":18110:18113   */\n      dup3\n        /* \"#utility.yul\":18106:18118   */\n      add\n        /* \"#utility.yul\":18099:18118   */\n      swap1\n      pop\n        /* \"#utility.yul\":17758:18124   */\n      swap2\n      swap1\n      pop\n      jump\t// out\n        /* \"#utility.yul\":18130:18549   */\n    tag_93:\n        /* \"#utility.yul\":18296:18300   */\n      0x00\n        /* \"#utility.yul\":18334:18336   */\n      0x20\n        /* \"#utility.yul\":18323:18332   */\n      dup3\n        /* \"#utility.yul\":18319:18337   */\n      add\n        /* \"#utility.yul\":18311:18337   */\n      swap1\n      pop\n        /* \"#utility.yul\":18383:18392   */\n      dup2\n        /* \"#utility.yul\":18377:18381   */\n      dup2\n        /* \"#utility.yul\":18373:18393   */\n      sub\n        /* \"#utility.yul\":18369:18370   */\n      0x00\n        /* \"#utility.yul\":18358:18367   */\n      dup4\n        /* \"#utility.yul\":18354:18371   */\n      add\n        /* \"#utility.yul\":18347:18394   */\n      mstore\n        /* \"#utility.yul\":18411:18542   */\n      tag_385\n        /* \"#utility.yul\":18537:18541   */\n      dup2\n        /* \"#utility.yul\":18411:18542   */\n      tag_205\n      jump\t// in\n    tag_385:\n        /* \"#utility.yul\":18403:18542   */\n      swap1\n      pop\n        /* \"#utility.yul\":18130:18549   */\n      swap2\n      swap1\n      pop\n      jump\t// out\n        /* \"#utility.yul\":18555:18887   */\n    tag_96:\n        /* \"#utility.yul\":18676:18680   */\n      0x00\n        /* \"#utility.yul\":18714:18716   */\n      0x40\n        /* \"#utility.yul\":18703:18712   */\n      dup3\n        /* \"#utility.yul\":18699:18717   */\n      add\n        /* \"#utility.yul\":18691:18717   */\n      swap1\n      pop\n        /* \"#utility.yul\":18727:18798   */\n      tag_387\n        /* \"#utility.yul\":18795:18796   */\n      0x00\n        /* \"#utility.yul\":18784:18793   */\n      dup4\n        /* \"#utility.yul\":18780:18797   */\n      add\n        /* \"#utility.yul\":18771:18777   */\n      dup6\n        /* \"#utility.yul\":18727:18798   */\n      tag_190\n      jump\t// in\n    tag_387:\n        /* \"#utility.yul\":18808:18880   */\n      tag_388\n        /* \"#utility.yul\":18876:18878   */\n      0x20\n        /* \"#utility.yul\":18865:18874   */\n      dup4\n        /* \"#utility.yul\":18861:18879   */\n      add\n        /* \"#utility.yul\":18852:18858   */\n      dup5\n        /* \"#utility.yul\":18808:18880   */\n      tag_176\n      jump\t// in\n    tag_388:\n        /* \"#utility.yul\":18555:18887   */\n      swap4\n      swap3\n      pop\n      pop\n      pop\n      jump\t// out\n        /* \"#utility.yul\":18893:19009   */\n    tag_206:\n        /* \"#utility.yul\":18963:18984   */\n      tag_390\n        /* \"#utility.yul\":18978:18983   */\n      dup2\n        /* \"#utility.yul\":18963:18984   */\n      tag_180\n      jump\t// in\n    tag_390:\n        /* \"#utility.yul\":18956:18961   */\n      dup2\n        /* \"#utility.yul\":18953:18985   */\n      eq\n        /* \"#utility.yul\":18943:19003   */\n      tag_391\n      jumpi\n        /* \"#utility.yul\":18999:19000   */\n      0x00\n        /* \"#utility.yul\":18996:18997   */\n      dup1\n        /* \"#utility.yul\":18989:19001   */\n      revert\n        /* \"#utility.yul\":18943:19003   */\n    tag_391:\n        /* \"#utility.yul\":18893:19009   */\n      pop\n      jump\t// out\n        /* \"#utility.yul\":19015:19152   */\n    tag_207:\n        /* \"#utility.yul\":19069:19074   */\n      0x00\n        /* \"#utility.yul\":19100:19106   */\n      dup2\n        /* \"#utility.yul\":19094:19107   */\n      mload\n        /* \"#utility.yul\":19085:19107   */\n      swap1\n      pop\n        /* \"#utility.yul\":19116:19146   */\n      tag_393\n        /* \"#utility.yul\":19140:19145   */\n      dup2\n        /* \"#utility.yul\":19116:19146   */\n      tag_206\n      jump\t// in\n    tag_393:\n        /* \"#utility.yul\":19015:19152   */\n      swap3\n      swap2\n      pop\n      pop\n      jump\t// out\n        /* \"#utility.yul\":19158:19503   */\n    tag_100:\n        /* \"#utility.yul\":19225:19231   */\n      0x00\n        /* \"#utility.yul\":19274:19276   */\n      0x20\n        /* \"#utility.yul\":19262:19271   */\n      dup3\n        /* \"#utility.yul\":19253:19260   */\n      dup5\n        /* \"#utility.yul\":19249:19272   */\n      sub\n        /* \"#utility.yul\":19245:19277   */\n      slt\n        /* \"#utility.yul\":19242:19361   */\n      iszero\n      tag_395\n      jumpi\n        /* \"#utility.yul\":19280:19359   */\n      tag_396\n      tag_170\n      jump\t// in\n    tag_396:\n        /* \"#utility.yul\":19242:19361   */\n    tag_395:\n        /* \"#utility.yul\":19400:19401   */\n      0x00\n        /* \"#utility.yul\":19425:19486   */\n      tag_397\n        /* \"#utility.yul\":19478:19485   */\n      dup5\n        /* \"#utility.yul\":19469:19475   */\n      dup3\n        /* \"#utility.yul\":19458:19467   */\n      dup6\n        /* \"#utility.yul\":19454:19476   */\n      add\n        /* \"#utility.yul\":19425:19486   */\n      tag_207\n      jump\t// in\n    tag_397:\n        /* \"#utility.yul\":19415:19486   */\n      swap2\n      pop\n        /* \"#utility.yul\":19371:19496   */\n      pop\n        /* \"#utility.yul\":19158:19503   */\n      swap3\n      swap2\n      pop\n      pop\n      jump\t// out\n        /* \"#utility.yul\":19509:19680   */\n    tag_208:\n        /* \"#utility.yul\":19649:19672   */\n      0x546f6b656e207472616e73666572206661696c65640000000000000000000000\n        /* \"#utility.yul\":19645:19646   */\n      0x00\n        /* \"#utility.yul\":19637:19643   */\n      dup3\n        /* \"#utility.yul\":19633:19647   */\n      add\n        /* \"#utility.yul\":19626:19673   */\n      mstore\n        /* \"#utility.yul\":19509:19680   */\n      pop\n      jump\t// out\n        /* \"#utility.yul\":19686:20052   */\n    tag_209:\n        /* \"#utility.yul\":19828:19831   */\n      0x00\n        /* \"#utility.yul\":19849:19916   */\n      tag_400\n        /* \"#utility.yul\":19913:19915   */\n      0x15\n        /* \"#utility.yul\":19908:19911   */\n      dup4\n        /* \"#utility.yul\":19849:19916   */\n      tag_198\n      jump\t// in\n    tag_400:\n        /* \"#utility.yul\":19842:19916   */\n      swap2\n      pop\n        /* \"#utility.yul\":19925:20018   */\n      tag_401\n        /* \"#utility.yul\":20014:20017   */\n      dup3\n        /* \"#utility.yul\":19925:20018   */\n      tag_208\n      jump\t// in\n    tag_401:\n        /* \"#utility.yul\":20043:20045   */\n      0x20\n        /* \"#utility.yul\":20038:20041   */\n      dup3\n        /* \"#utility.yul\":20034:20046   */\n      add\n        /* \"#utility.yul\":20027:20046   */\n      swap1\n      pop\n        /* \"#utility.yul\":19686:20052   */\n      swap2\n      swap1\n      pop\n      jump\t// out\n        /* \"#utility.yul\":20058:20477   */\n    tag_103:\n        /* \"#utility.yul\":20224:20228   */\n      0x00\n        /* \"#utility.yul\":20262:20264   */\n      0x20\n        /* \"#utility.yul\":20251:20260   */\n      dup3\n        /* \"#utility.yul\":20247:20265   */\n      add\n        /* \"#utility.yul\":20239:20265   */\n      swap1\n      pop\n        /* \"#utility.yul\":20311:20320   */\n      dup2\n        /* \"#utility.yul\":20305:20309   */\n      dup2\n        /* \"#utility.yul\":20301:20321   */\n      sub\n        /* \"#utility.yul\":20297:20298   */\n      0x00\n        /* \"#utility.yul\":20286:20295   */\n      dup4\n        /* \"#utility.yul\":20282:20299   */\n      add\n        /* \"#utility.yul\":20275:20322   */\n      mstore\n        /* \"#utility.yul\":20339:20470   */\n      tag_403\n        /* \"#utility.yul\":20465:20469   */\n      dup2\n        /* \"#utility.yul\":20339:20470   */\n      tag_209\n      jump\t// in\n    tag_403:\n        /* \"#utility.yul\":20331:20470   */\n      swap1\n      pop\n        /* \"#utility.yul\":20058:20477   */\n      swap2\n      swap1\n      pop\n      jump\t// out\n        /* \"#utility.yul\":20483:20665   */\n    tag_210:\n        /* \"#utility.yul\":20623:20657   */\n      0x416d6f756e74206d7573742062652067726561746572207468616e207a65726f\n        /* \"#utility.yul\":20619:20620   */\n      0x00\n        /* \"#utility.yul\":20611:20617   */\n      dup3\n        /* \"#utility.yul\":20607:20621   */\n      add\n        /* \"#utility.yul\":20600:20658   */\n      mstore\n        /* \"#utility.yul\":20483:20665   */\n      pop\n      jump\t// out\n        /* \"#utility.yul\":20671:21037   */\n    tag_211:\n        /* \"#utility.yul\":20813:20816   */\n      0x00\n        /* \"#utility.yul\":20834:20901   */\n      tag_406\n        /* \"#utility.yul\":20898:20900   */\n      0x20\n        /* \"#utility.yul\":20893:20896   */\n      dup4\n        /* \"#utility.yul\":20834:20901   */\n      tag_198\n      jump\t// in\n    tag_406:\n        /* \"#utility.yul\":20827:20901   */\n      swap2\n      pop\n        /* \"#utility.yul\":20910:21003   */\n      tag_407\n        /* \"#utility.yul\":20999:21002   */\n      dup3\n        /* \"#utility.yul\":20910:21003   */\n      tag_210\n      jump\t// in\n    tag_407:\n        /* \"#utility.yul\":21028:21030   */\n      0x20\n        /* \"#utility.yul\":21023:21026   */\n      dup3\n        /* \"#utility.yul\":21019:21031   */\n      add\n        /* \"#utility.yul\":21012:21031   */\n      swap1\n      pop\n        /* \"#utility.yul\":20671:21037   */\n      swap2\n      swap1\n      pop\n      jump\t// out\n        /* \"#utility.yul\":21043:21462   */\n    tag_109:\n        /* \"#utility.yul\":21209:21213   */\n      0x00\n        /* \"#utility.yul\":21247:21249   */\n      0x20\n        /* \"#utility.yul\":21236:21245   */\n      dup3\n        /* \"#utility.yul\":21232:21250   */\n      add\n        /* \"#utility.yul\":21224:21250   */\n      swap1\n      pop\n        /* \"#utility.yul\":21296:21305   */\n      dup2\n        /* \"#utility.yul\":21290:21294   */\n      dup2\n        /* \"#utility.yul\":21286:21306   */\n      sub\n        /* \"#utility.yul\":21282:21283   */\n      0x00\n        /* \"#utility.yul\":21271:21280   */\n      dup4\n        /* \"#utility.yul\":21267:21284   */\n      add\n        /* \"#utility.yul\":21260:21307   */\n      mstore\n        /* \"#utility.yul\":21324:21455   */\n      tag_409\n        /* \"#utility.yul\":21450:21454   */\n      dup2\n        /* \"#utility.yul\":21324:21455   */\n      tag_211\n      jump\t// in\n    tag_409:\n        /* \"#utility.yul\":21316:21455   */\n      swap1\n      pop\n        /* \"#utility.yul\":21043:21462   */\n      swap2\n      swap1\n      pop\n      jump\t// out\n        /* \"#utility.yul\":21468:21695   */\n    tag_212:\n        /* \"#utility.yul\":21608:21642   */\n      0x456e746572204475726174696f6e20696e20666f726d61746520636865636b20\n        /* \"#utility.yul\":21604:21605   */\n      0x00\n        /* \"#utility.yul\":21596:21602   */\n      dup3\n        /* \"#utility.yul\":21592:21606   */\n      add\n        /* \"#utility.yul\":21585:21643   */\n      mstore\n        /* \"#utility.yul\":21677:21687   */\n      0x6475726174696f6e000000000000000000000000000000000000000000000000\n        /* \"#utility.yul\":21672:21674   */\n      0x20\n        /* \"#utility.yul\":21664:21670   */\n      dup3\n        /* \"#utility.yul\":21660:21675   */\n      add\n        /* \"#utility.yul\":21653:21688   */\n      mstore\n        /* \"#utility.yul\":21468:21695   */\n      pop\n      jump\t// out\n        /* \"#utility.yul\":21701:22067   */\n    tag_213:\n        /* \"#utility.yul\":21843:21846   */\n      0x00\n        /* \"#utility.yul\":21864:21931   */\n      tag_412\n        /* \"#utility.yul\":21928:21930   */\n      0x28\n        /* \"#utility.yul\":21923:21926   */\n      dup4\n        /* \"#utility.yul\":21864:21931   */\n      tag_198\n      jump\t// in\n    tag_412:\n        /* \"#utility.yul\":21857:21931   */\n      swap2\n      pop\n        /* \"#utility.yul\":21940:22033   */\n      tag_413\n        /* \"#utility.yul\":22029:22032   */\n      dup3\n        /* \"#utility.yul\":21940:22033   */\n      tag_212\n      jump\t// in\n    tag_413:\n        /* \"#utility.yul\":22058:22060   */\n      0x40\n        /* \"#utility.yul\":22053:22056   */\n      dup3\n        /* \"#utility.yul\":22049:22061   */\n      add\n        /* \"#utility.yul\":22042:22061   */\n      swap1\n      pop\n        /* \"#utility.yul\":21701:22067   */\n      swap2\n      swap1\n      pop\n      jump\t// out\n        /* \"#utility.yul\":22073:22492   */\n    tag_116:\n        /* \"#utility.yul\":22239:22243   */\n      0x00\n        /* \"#utility.yul\":22277:22279   */\n      0x20\n        /* \"#utility.yul\":22266:22275   */\n      dup3\n        /* \"#utility.yul\":22262:22280   */\n      add\n        /* \"#utility.yul\":22254:22280   */\n      swap1\n      pop\n        /* \"#utility.yul\":22326:22335   */\n      dup2\n        /* \"#utility.yul\":22320:22324   */\n      dup2\n        /* \"#utility.yul\":22316:22336   */\n      sub\n        /* \"#utility.yul\":22312:22313   */\n      0x00\n        /* \"#utility.yul\":22301:22310   */\n      dup4\n        /* \"#utility.yul\":22297:22314   */\n      add\n        /* \"#utility.yul\":22290:22337   */\n      mstore\n        /* \"#utility.yul\":22354:22485   */\n      tag_415\n        /* \"#utility.yul\":22480:22484   */\n      dup2\n        /* \"#utility.yul\":22354:22485   */\n      tag_213\n      jump\t// in\n    tag_415:\n        /* \"#utility.yul\":22346:22485   */\n      swap1\n      pop\n        /* \"#utility.yul\":22073:22492   */\n      swap2\n      swap1\n      pop\n      jump\t// out\n        /* \"#utility.yul\":22498:22940   */\n    tag_122:\n        /* \"#utility.yul\":22647:22651   */\n      0x00\n        /* \"#utility.yul\":22685:22687   */\n      0x60\n        /* \"#utility.yul\":22674:22683   */\n      dup3\n        /* \"#utility.yul\":22670:22688   */\n      add\n        /* \"#utility.yul\":22662:22688   */\n      swap1\n      pop\n        /* \"#utility.yul\":22698:22769   */\n      tag_417\n        /* \"#utility.yul\":22766:22767   */\n      0x00\n        /* \"#utility.yul\":22755:22764   */\n      dup4\n        /* \"#utility.yul\":22751:22768   */\n      add\n        /* \"#utility.yul\":22742:22748   */\n      dup7\n        /* \"#utility.yul\":22698:22769   */\n      tag_190\n      jump\t// in\n    tag_417:\n        /* \"#utility.yul\":22779:22851   */\n      tag_418\n        /* \"#utility.yul\":22847:22849   */\n      0x20\n        /* \"#utility.yul\":22836:22845   */\n      dup4\n        /* \"#utility.yul\":22832:22850   */\n      add\n        /* \"#utility.yul\":22823:22829   */\n      dup6\n        /* \"#utility.yul\":22779:22851   */\n      tag_190\n      jump\t// in\n    tag_418:\n        /* \"#utility.yul\":22861:22933   */\n      tag_419\n        /* \"#utility.yul\":22929:22931   */\n      0x40\n        /* \"#utility.yul\":22918:22927   */\n      dup4\n        /* \"#utility.yul\":22914:22932   */\n      add\n        /* \"#utility.yul\":22905:22911   */\n      dup5\n        /* \"#utility.yul\":22861:22933   */\n      tag_176\n      jump\t// in\n    tag_419:\n        /* \"#utility.yul\":22498:22940   */\n      swap5\n      swap4\n      pop\n      pop\n      pop\n      pop\n      jump\t// out\n        /* \"#utility.yul\":22946:23168   */\n    tag_214:\n        /* \"#utility.yul\":23086:23120   */\n      0x596f752063616e206f6e6c7920636c61696d20796f7572206f776e2072657761\n        /* \"#utility.yul\":23082:23083   */\n      0x00\n        /* \"#utility.yul\":23074:23080   */\n      dup3\n        /* \"#utility.yul\":23070:23084   */\n      add\n        /* \"#utility.yul\":23063:23121   */\n      mstore\n        /* \"#utility.yul\":23155:23160   */\n      0x7264730000000000000000000000000000000000000000000000000000000000\n        /* \"#utility.yul\":23150:23152   */\n      0x20\n        /* \"#utility.yul\":23142:23148   */\n      dup3\n        /* \"#utility.yul\":23138:23153   */\n      add\n        /* \"#utility.yul\":23131:23161   */\n      mstore\n        /* \"#utility.yul\":22946:23168   */\n      pop\n      jump\t// out\n        /* \"#utility.yul\":23174:23540   */\n    tag_215:\n        /* \"#utility.yul\":23316:23319   */\n      0x00\n        /* \"#utility.yul\":23337:23404   */\n      tag_422\n        /* \"#utility.yul\":23401:23403   */\n      0x23\n        /* \"#utility.yul\":23396:23399   */\n      dup4\n        /* \"#utility.yul\":23337:23404   */\n      tag_198\n      jump\t// in\n    tag_422:\n        /* \"#utility.yul\":23330:23404   */\n      swap2\n      pop\n        /* \"#utility.yul\":23413:23506   */\n      tag_423\n        /* \"#utility.yul\":23502:23505   */\n      dup3\n        /* \"#utility.yul\":23413:23506   */\n      tag_214\n      jump\t// in\n    tag_423:\n        /* \"#utility.yul\":23531:23533   */\n      0x40\n        /* \"#utility.yul\":23526:23529   */\n      dup3\n        /* \"#utility.yul\":23522:23534   */\n      add\n        /* \"#utility.yul\":23515:23534   */\n      swap1\n      pop\n        /* \"#utility.yul\":23174:23540   */\n      swap2\n      swap1\n      pop\n      jump\t// out\n        /* \"#utility.yul\":23546:23965   */\n    tag_136:\n        /* \"#utility.yul\":23712:23716   */\n      0x00\n        /* \"#utility.yul\":23750:23752   */\n      0x20\n        /* \"#utility.yul\":23739:23748   */\n      dup3\n        /* \"#utility.yul\":23735:23753   */\n      add\n        /* \"#utility.yul\":23727:23753   */\n      swap1\n      pop\n        /* \"#utility.yul\":23799:23808   */\n      dup2\n        /* \"#utility.yul\":23793:23797   */\n      dup2\n        /* \"#utility.yul\":23789:23809   */\n      sub\n        /* \"#utility.yul\":23785:23786   */\n      0x00\n        /* \"#utility.yul\":23774:23783   */\n      dup4\n        /* \"#utility.yul\":23770:23787   */\n      add\n        /* \"#utility.yul\":23763:23810   */\n      mstore\n        /* \"#utility.yul\":23827:23958   */\n      tag_425\n        /* \"#utility.yul\":23953:23957   */\n      dup2\n        /* \"#utility.yul\":23827:23958   */\n      tag_215\n      jump\t// in\n    tag_425:\n        /* \"#utility.yul\":23819:23958   */\n      swap1\n      pop\n        /* \"#utility.yul\":23546:23965   */\n      swap2\n      swap1\n      pop\n      jump\t// out\n        /* \"#utility.yul\":23971:24143   */\n    tag_216:\n        /* \"#utility.yul\":24111:24135   */\n      0x52657761726420616c726561647920636c61696d656400000000000000000000\n        /* \"#utility.yul\":24107:24108   */\n      0x00\n        /* \"#utility.yul\":24099:24105   */\n      dup3\n        /* \"#utility.yul\":24095:24109   */\n      add\n        /* \"#utility.yul\":24088:24136   */\n      mstore\n        /* \"#utility.yul\":23971:24143   */\n      pop\n      jump\t// out\n        /* \"#utility.yul\":24149:24515   */\n    tag_217:\n        /* \"#utility.yul\":24291:24294   */\n      0x00\n        /* \"#utility.yul\":24312:24379   */\n      tag_428\n        /* \"#utility.yul\":24376:24378   */\n      0x16\n        /* \"#utility.yul\":24371:24374   */\n      dup4\n        /* \"#utility.yul\":24312:24379   */\n      tag_198\n      jump\t// in\n    tag_428:\n        /* \"#utility.yul\":24305:24379   */\n      swap2\n      pop\n        /* \"#utility.yul\":24388:24481   */\n      tag_429\n        /* \"#utility.yul\":24477:24480   */\n      dup3\n        /* \"#utility.yul\":24388:24481   */\n      tag_216\n      jump\t// in\n    tag_429:\n        /* \"#utility.yul\":24506:24508   */\n      0x20\n        /* \"#utility.yul\":24501:24504   */\n      dup3\n        /* \"#utility.yul\":24497:24509   */\n      add\n        /* \"#utility.yul\":24490:24509   */\n      swap1\n      pop\n        /* \"#utility.yul\":24149:24515   */\n      swap2\n      swap1\n      pop\n      jump\t// out\n        /* \"#utility.yul\":24521:24940   */\n    tag_139:\n        /* \"#utility.yul\":24687:24691   */\n      0x00\n        /* \"#utility.yul\":24725:24727   */\n      0x20\n        /* \"#utility.yul\":24714:24723   */\n      dup3\n        /* \"#utility.yul\":24710:24728   */\n      add\n        /* \"#utility.yul\":24702:24728   */\n      swap1\n      pop\n        /* \"#utility.yul\":24774:24783   */\n      dup2\n        /* \"#utility.yul\":24768:24772   */\n      dup2\n        /* \"#utility.yul\":24764:24784   */\n      sub\n        /* \"#utility.yul\":24760:24761   */\n      0x00\n        /* \"#utility.yul\":24749:24758   */\n      dup4\n        /* \"#utility.yul\":24745:24762   */\n      add\n        /* \"#utility.yul\":24738:24785   */\n      mstore\n        /* \"#utility.yul\":24802:24933   */\n      tag_431\n        /* \"#utility.yul\":24928:24932   */\n      dup2\n        /* \"#utility.yul\":24802:24933   */\n      tag_217\n      jump\t// in\n    tag_431:\n        /* \"#utility.yul\":24794:24933   */\n      swap1\n      pop\n        /* \"#utility.yul\":24521:24940   */\n      swap2\n      swap1\n      pop\n      jump\t// out\n        /* \"#utility.yul\":24946:25140   */\n    tag_153:\n        /* \"#utility.yul\":24986:24990   */\n      0x00\n        /* \"#utility.yul\":25006:25026   */\n      tag_433\n        /* \"#utility.yul\":25024:25025   */\n      dup3\n        /* \"#utility.yul\":25006:25026   */\n      tag_164\n      jump\t// in\n    tag_433:\n        /* \"#utility.yul\":25001:25026   */\n      swap2\n      pop\n        /* \"#utility.yul\":25040:25060   */\n      tag_434\n        /* \"#utility.yul\":25058:25059   */\n      dup4\n        /* \"#utility.yul\":25040:25060   */\n      tag_164\n      jump\t// in\n    tag_434:\n        /* \"#utility.yul\":25035:25060   */\n      swap3\n      pop\n        /* \"#utility.yul\":25084:25085   */\n      dup3\n        /* \"#utility.yul\":25081:25082   */\n      dup3\n        /* \"#utility.yul\":25077:25086   */\n      sub\n        /* \"#utility.yul\":25069:25086   */\n      swap1\n      pop\n        /* \"#utility.yul\":25108:25109   */\n      dup2\n        /* \"#utility.yul\":25102:25106   */\n      dup2\n        /* \"#utility.yul\":25099:25110   */\n      gt\n        /* \"#utility.yul\":25096:25133   */\n      iszero\n      tag_435\n      jumpi\n        /* \"#utility.yul\":25113:25131   */\n      tag_436\n      tag_203\n      jump\t// in\n    tag_436:\n        /* \"#utility.yul\":25096:25133   */\n    tag_435:\n        /* \"#utility.yul\":24946:25140   */\n      swap3\n      swap2\n      pop\n      pop\n      jump\t// out\n\n    auxdata: 0xa26469706673582212203e3a773a39fe0d77236fb576fabfc304716ad5bd708d462b92b2ea64d825430864736f6c63430008150033\n}\n",
				"bytecode": {
					"linkReferences": {},
					"object": "60c06040526040518060a00160405280600260ff168152602001600460ff168152602001600660ff168152602001600860ff168152602001600a60ff16815250600190600562000051929190620000f3565b503480156200005e575f80fd5b5060405162001f6a38038062001f6a8339818101604052810190620000849190620001dd565b8073ffffffffffffffffffffffffffffffffffffffff1660808173ffffffffffffffffffffffffffffffffffffffff16815250503373ffffffffffffffffffffffffffffffffffffffff1660a08173ffffffffffffffffffffffffffffffffffffffff1681525050506200020d565b828054828255905f5260205f2090810192821562000135579160200282015b8281111562000134578251829060ff1690559160200191906001019062000112565b5b50905062000144919062000148565b5090565b5b8082111562000161575f815f90555060010162000149565b5090565b5f80fd5b5f73ffffffffffffffffffffffffffffffffffffffff82169050919050565b5f620001948262000169565b9050919050565b5f620001a78262000188565b9050919050565b620001b9816200019b565b8114620001c4575f80fd5b50565b5f81519050620001d781620001ae565b92915050565b5f60208284031215620001f557620001f462000165565b5b5f6200020484828501620001c7565b91505092915050565b60805160a051611d1f6200024b5f395f610b7001525f818161030001528181610598015281816108ab01528181610cda01526110a60152611d1f5ff3fe608060405234801561000f575f80fd5b50600436106100b2575f3560e01c806392ceb12d1161006f57806392ceb12d1461019e578063b0c479a5146101ba578063b5d5b5fa146101f0578063c975741714610226578063d2d7231f14610256578063fc0c546a14610289576100b2565b80630b46ba99146100b65780632fa78085146100d457806341324ec51461010457806347c4d742146101205780635ee0d9b4146101505780638da5cb5b14610180575b5f80fd5b6100be6102a7565b6040516100cb91906111f8565b60405180910390f35b6100ee60048036038101906100e99190611276565b6102fd565b6040516100fb91906112b0565b60405180910390f35b61011e600480360381019061011991906112f3565b61039d565b005b61013a6004803603810190610135919061131e565b61067c565b6040516101479190611411565b60405180910390f35b61016a60048036038101906101659190611276565b610a23565b604051610177919061155e565b60405180910390f35b610188610b6e565b604051610195919061158d565b60405180910390f35b6101b860048036038101906101b391906112f3565b610b92565b005b6101d460048036038101906101cf91906112f3565b610dbd565b6040516101e797969594939291906115b5565b60405180910390f35b61020a60048036038101906102059190611622565b610e34565b60405161021d97969594939291906115b5565b60405180910390f35b610240600480360381019061023b91906112f3565b610ec5565b60405161024d9190611411565b60405180910390f35b610270600480360381019061026b91906112f3565b610fa2565b6040516102809493929190611660565b60405180910390f35b6102916110a4565b60405161029e91906116fe565b60405180910390f35b606060018054806020026020016040519081016040528092919081815260200182805480156102f357602002820191905f5260205f20905b8154815260200190600101908083116102df575b5050505050905090565b5f7f000000000000000000000000000000000000000000000000000000000000000073ffffffffffffffffffffffffffffffffffffffff166370a08231836040518263ffffffff1660e01b8152600401610357919061158d565b602060405180830381865afa158015610372573d5f803e3d5ffd5b505050506040513d601f19601f82011682018060405250810190610396919061172b565b9050919050565b60035f8281526020019081526020015f206004015f9054906101000a900473ffffffffffffffffffffffffffffffffffffffff1673ffffffffffffffffffffffffffffffffffffffff163373ffffffffffffffffffffffffffffffffffffffff161461043e576040517f08c379a0000000000000000000000000000000000000000000000000000000008152600401610435906117d6565b60405180910390fd5b60035f8281526020019081526020015f2060040160159054906101000a900460ff16156104a0576040517f08c379a000000000000000000000000000000000000000000000000000000000815260040161049790611864565b60405180910390fd5b603c60035f8381526020019081526020015f20600201546104c191906118af565b60035f8381526020019081526020015f20600301546104e091906118f0565b421015610522576040517f08c379a000000000000000000000000000000000000000000000000000000000815260040161051990611993565b60405180910390fd5b600160035f8381526020019081526020015f2060040160156101000a81548160ff0219169083151502179055505f805f8061055c85610fa2565b93509350935093505f60035f8781526020019081526020015f206001015490505f60035f8881526020019081526020015f20600101819055505f7f000000000000000000000000000000000000000000000000000000000000000073ffffffffffffffffffffffffffffffffffffffff1663a9059cbb87846040518363ffffffff1660e01b81526004016105f19291906119b1565b6020604051808303815f875af115801561060d573d5f803e3d5ffd5b505050506040513d601f19601f820116820180604052508101906106319190611a02565b905080610673576040517f08c379a000000000000000000000000000000000000000000000000000000000815260040161066a90611a77565b60405180910390fd5b50505050505050565b6106846110e8565b5f83116106c6576040517f08c379a00000000000000000000000000000000000000000000000000000000081526004016106bd90611adf565b60405180910390fd5b60028214806106d55750600482145b806106e05750600682145b806106eb5750600882145b806106f65750600a82145b610735576040517f08c379a000000000000000000000000000000000000000000000000000000000815260040161072c90611b6d565b60405180910390fd5b61073e5f6110c8565b505f6040518060e001604052806107545f6110c8565b81526020018581526020018481526020014281526020013373ffffffffffffffffffffffffffffffffffffffff1681526020015f151581526020015f1515815250905060025f3373ffffffffffffffffffffffffffffffffffffffff1673ffffffffffffffffffffffffffffffffffffffff1681526020019081526020015f2081908060018154018082558091505060019003905f5260205f2090600502015f909190919091505f820151815f01556020820151816001015560408201518160020155606082015181600301556080820151816004015f6101000a81548173ffffffffffffffffffffffffffffffffffffffff021916908373ffffffffffffffffffffffffffffffffffffffff16021790555060a08201518160040160146101000a81548160ff02191690831515021790555060c08201518160040160156101000a81548160ff02191690831515021790555050507f000000000000000000000000000000000000000000000000000000000000000073ffffffffffffffffffffffffffffffffffffffff166323b872dd3330876040518463ffffffff1660e01b815260040161090693929190611b8b565b6020604051808303815f875af1158015610922573d5f803e3d5ffd5b505050506040513d601f19601f820116820180604052508101906109469190611a02565b508060035f6109545f6110c8565b81526020019081526020015f205f820151815f01556020820151816001015560408201518160020155606082015181600301556080820151816004015f6101000a81548173ffffffffffffffffffffffffffffffffffffffff021916908373ffffffffffffffffffffffffffffffffffffffff16021790555060a08201518160040160146101000a81548160ff02191690831515021790555060c08201518160040160156101000a81548160ff021916908315150217905550905050610a195f6110d4565b8091505092915050565b606060025f8373ffffffffffffffffffffffffffffffffffffffff1673ffffffffffffffffffffffffffffffffffffffff1681526020019081526020015f20805480602002602001604051908101604052809291908181526020015f905b82821015610b63578382905f5260205f2090600502016040518060e00160405290815f8201548152602001600182015481526020016002820154815260200160038201548152602001600482015f9054906101000a900473ffffffffffffffffffffffffffffffffffffffff1673ffffffffffffffffffffffffffffffffffffffff1673ffffffffffffffffffffffffffffffffffffffff1681526020016004820160149054906101000a900460ff161515151581526020016004820160159054906101000a900460ff16151515158152505081526020019060010190610a81565b505050509050919050565b7f000000000000000000000000000000000000000000000000000000000000000081565b60035f8281526020019081526020015f206004015f9054906101000a900473ffffffffffffffffffffffffffffffffffffffff1673ffffffffffffffffffffffffffffffffffffffff163373ffffffffffffffffffffffffffffffffffffffff1614610c33576040517f08c379a0000000000000000000000000000000000000000000000000000000008152600401610c2a90611c30565b60405180910390fd5b60035f8281526020019081526020015f2060040160149054906101000a900460ff1615610c95576040517f08c379a0000000000000000000000000000000000000000000000000000000008152600401610c8c90611c98565b60405180910390fd5b600160035f8381526020019081526020015f2060040160146101000a81548160ff0219169083151502179055505f805f80610ccf85610fa2565b93509350935093505f7f000000000000000000000000000000000000000000000000000000000000000073ffffffffffffffffffffffffffffffffffffffff1663a9059cbb86856040518363ffffffff1660e01b8152600401610d339291906119b1565b6020604051808303815f875af1158015610d4f573d5f803e3d5ffd5b505050506040513d601f19601f82011682018060405250810190610d739190611a02565b905080610db5576040517f08c379a0000000000000000000000000000000000000000000000000000000008152600401610dac90611a77565b60405180910390fd5b505050505050565b6003602052805f5260405f205f91509050805f015490806001015490806002015490806003015490806004015f9054906101000a900473ffffffffffffffffffffffffffffffffffffffff16908060040160149054906101000a900460ff16908060040160159054906101000a900460ff16905087565b6002602052815f5260405f208181548110610e4d575f80fd5b905f5260205f2090600502015f9150915050805f015490806001015490806002015490806003015490806004015f9054906101000a900473ffffffffffffffffffffffffffffffffffffffff16908060040160149054906101000a900460ff16908060040160159054906101000a900460ff16905087565b610ecd6110e8565b60035f8381526020019081526020015f206040518060e00160405290815f8201548152602001600182015481526020016002820154815260200160038201548152602001600482015f9054906101000a900473ffffffffffffffffffffffffffffffffffffffff1673ffffffffffffffffffffffffffffffffffffffff1673ffffffffffffffffffffffffffffffffffffffff1681526020016004820160149054906101000a900460ff161515151581526020016004820160159054906101000a900460ff1615151515815250509050919050565b5f805f805f4290505f60035f8881526020019081526020015f206003015482610fcb9190611cb6565b9050603c60035f8981526020019081526020015f2060020154610fee91906118af565b81111561101957603c60035f8981526020019081526020015f206002015461101691906118af565b90505b5f60018261102791906118af565b905060035f8981526020019081526020015f206004015f9054906101000a900473ffffffffffffffffffffffffffffffffffffffff1660035f8a81526020019081526020015f205f01548260035f8c81526020019081526020015f20600101548461109291906118f0565b96509650965096505050509193509193565b7f000000000000000000000000000000000000000000000000000000000000000081565b5f815f01549050919050565b6001815f015f828254019250508190555050565b6040518060e001604052805f81526020015f81526020015f81526020015f81526020015f73ffffffffffffffffffffffffffffffffffffffff1681526020015f151581526020015f151581525090565b5f81519050919050565b5f82825260208201905092915050565b5f819050602082019050919050565b5f819050919050565b61117381611161565b82525050565b5f611184838361116a565b60208301905092915050565b5f602082019050919050565b5f6111a682611138565b6111b08185611142565b93506111bb83611152565b805f5b838110156111eb5781516111d28882611179565b97506111dd83611190565b9250506001810190506111be565b5085935050505092915050565b5f6020820190508181035f830152611210818461119c565b905092915050565b5f80fd5b5f73ffffffffffffffffffffffffffffffffffffffff82169050919050565b5f6112458261121c565b9050919050565b6112558161123b565b811461125f575f80fd5b50565b5f813590506112708161124c565b92915050565b5f6020828403121561128b5761128a611218565b5b5f61129884828501611262565b91505092915050565b6112aa81611161565b82525050565b5f6020820190506112c35f8301846112a1565b92915050565b6112d281611161565b81146112dc575f80fd5b50565b5f813590506112ed816112c9565b92915050565b5f6020828403121561130857611307611218565b5b5f611315848285016112df565b91505092915050565b5f806040838503121561133457611333611218565b5b5f611341858286016112df565b9250506020611352858286016112df565b9150509250929050565b6113658161123b565b82525050565b5f8115159050919050565b61137f8161136b565b82525050565b60e082015f8201516113995f85018261116a565b5060208201516113ac602085018261116a565b5060408201516113bf604085018261116a565b5060608201516113d2606085018261116a565b5060808201516113e5608085018261135c565b5060a08201516113f860a0850182611376565b5060c082015161140b60c0850182611376565b50505050565b5f60e0820190506114245f830184611385565b92915050565b5f81519050919050565b5f82825260208201905092915050565b5f819050602082019050919050565b60e082015f8201516114675f85018261116a565b50602082015161147a602085018261116a565b50604082015161148d604085018261116a565b5060608201516114a0606085018261116a565b5060808201516114b3608085018261135c565b5060a08201516114c660a0850182611376565b5060c08201516114d960c0850182611376565b50505050565b5f6114ea8383611453565b60e08301905092915050565b5f602082019050919050565b5f61150c8261142a565b6115168185611434565b935061152183611444565b805f5b8381101561155157815161153888826114df565b9750611543836114f6565b925050600181019050611524565b5085935050505092915050565b5f6020820190508181035f8301526115768184611502565b905092915050565b6115878161123b565b82525050565b5f6020820190506115a05f83018461157e565b92915050565b6115af8161136b565b82525050565b5f60e0820190506115c85f83018a6112a1565b6115d560208301896112a1565b6115e260408301886112a1565b6115ef60608301876112a1565b6115fc608083018661157e565b61160960a08301856115a6565b61161660c08301846115a6565b98975050505050505050565b5f806040838503121561163857611637611218565b5b5f61164585828601611262565b9250506020611656858286016112df565b9150509250929050565b5f6080820190506116735f83018761157e565b61168060208301866112a1565b61168d60408301856112a1565b61169a60608301846112a1565b95945050505050565b5f819050919050565b5f6116c66116c16116bc8461121c565b6116a3565b61121c565b9050919050565b5f6116d7826116ac565b9050919050565b5f6116e8826116cd565b9050919050565b6116f8816116de565b82525050565b5f6020820190506117115f8301846116ef565b92915050565b5f81519050611725816112c9565b92915050565b5f602082840312156117405761173f611218565b5b5f61174d84828501611717565b91505092915050565b5f82825260208201905092915050565b7f596f752063616e206f6e6c7920636c61696d20796f7572206f776e207374616b5f8201527f656420616d6f756e740000000000000000000000000000000000000000000000602082015250565b5f6117c0602983611756565b91506117cb82611766565b604082019050919050565b5f6020820190508181035f8301526117ed816117b4565b9050919050565b7f52657761726420616c726561647920636c61696d656420796f757220616d6f755f8201527f6e74000000000000000000000000000000000000000000000000000000000000602082015250565b5f61184e602283611756565b9150611859826117f4565b604082019050919050565b5f6020820190508181035f83015261187b81611842565b9050919050565b7f4e487b71000000000000000000000000000000000000000000000000000000005f52601160045260245ffd5b5f6118b982611161565b91506118c483611161565b92508282026118d281611161565b915082820484148315176118e9576118e8611882565b5b5092915050565b5f6118fa82611161565b915061190583611161565b925082820190508082111561191d5761191c611882565b5b92915050565b7f596f752063616e206f6e6c7920636c61696d20616674657220746865207374615f8201527f6b696e67206475726174696f6e20686173207061737365640000000000000000602082015250565b5f61197d603883611756565b915061198882611923565b604082019050919050565b5f6020820190508181035f8301526119aa81611971565b9050919050565b5f6040820190506119c45f83018561157e565b6119d160208301846112a1565b9392505050565b6119e18161136b565b81146119eb575f80fd5b50565b5f815190506119fc816119d8565b92915050565b5f60208284031215611a1757611a16611218565b5b5f611a24848285016119ee565b91505092915050565b7f546f6b656e207472616e73666572206661696c656400000000000000000000005f82015250565b5f611a61601583611756565b9150611a6c82611a2d565b602082019050919050565b5f6020820190508181035f830152611a8e81611a55565b9050919050565b7f416d6f756e74206d7573742062652067726561746572207468616e207a65726f5f82015250565b5f611ac9602083611756565b9150611ad482611a95565b602082019050919050565b5f6020820190508181035f830152611af681611abd565b9050919050565b7f456e746572204475726174696f6e20696e20666f726d61746520636865636b205f8201527f6475726174696f6e000000000000000000000000000000000000000000000000602082015250565b5f611b57602883611756565b9150611b6282611afd565b604082019050919050565b5f6020820190508181035f830152611b8481611b4b565b9050919050565b5f606082019050611b9e5f83018661157e565b611bab602083018561157e565b611bb860408301846112a1565b949350505050565b7f596f752063616e206f6e6c7920636c61696d20796f7572206f776e20726577615f8201527f7264730000000000000000000000000000000000000000000000000000000000602082015250565b5f611c1a602383611756565b9150611c2582611bc0565b604082019050919050565b5f6020820190508181035f830152611c4781611c0e565b9050919050565b7f52657761726420616c726561647920636c61696d6564000000000000000000005f82015250565b5f611c82601683611756565b9150611c8d82611c4e565b602082019050919050565b5f6020820190508181035f830152611caf81611c76565b9050919050565b5f611cc082611161565b9150611ccb83611161565b9250828203905081811115611ce357611ce2611882565b5b9291505056fea26469706673582212203e3a773a39fe0d77236fb576fabfc304716ad5bd708d462b92b2ea64d825430864736f6c63430008150033",
					"opcodes": "PUSH1 0xC0 PUSH1 0x40 MSTORE PUSH1 0x40 MLOAD DUP1 PUSH1 0xA0 ADD PUSH1 0x40 MSTORE DUP1 PUSH1 0x2 PUSH1 0xFF AND DUP2 MSTORE PUSH1 0x20 ADD PUSH1 0x4 PUSH1 0xFF AND DUP2 MSTORE PUSH1 0x20 ADD PUSH1 0x6 PUSH1 0xFF AND DUP2 MSTORE PUSH1 0x20 ADD PUSH1 0x8 PUSH1 0xFF AND DUP2 MSTORE PUSH1 0x20 ADD PUSH1 0xA PUSH1 0xFF AND DUP2 MSTORE POP PUSH1 0x1 SWAP1 PUSH1 0x5 PUSH3 0x51 SWAP3 SWAP2 SWAP1 PUSH3 0xF3 JUMP JUMPDEST POP CALLVALUE DUP1 ISZERO PUSH3 0x5E JUMPI PUSH0 DUP1 REVERT JUMPDEST POP PUSH1 0x40 MLOAD PUSH3 0x1F6A CODESIZE SUB DUP1 PUSH3 0x1F6A DUP4 CODECOPY DUP2 DUP2 ADD PUSH1 0x40 MSTORE DUP2 ADD SWAP1 PUSH3 0x84 SWAP2 SWAP1 PUSH3 0x1DD JUMP JUMPDEST DUP1 PUSH20 0xFFFFFFFFFFFFFFFFFFFFFFFFFFFFFFFFFFFFFFFF AND PUSH1 0x80 DUP2 PUSH20 0xFFFFFFFFFFFFFFFFFFFFFFFFFFFFFFFFFFFFFFFF AND DUP2 MSTORE POP POP CALLER PUSH20 0xFFFFFFFFFFFFFFFFFFFFFFFFFFFFFFFFFFFFFFFF AND PUSH1 0xA0 DUP2 PUSH20 0xFFFFFFFFFFFFFFFFFFFFFFFFFFFFFFFFFFFFFFFF AND DUP2 MSTORE POP POP POP PUSH3 0x20D JUMP JUMPDEST DUP3 DUP1 SLOAD DUP3 DUP3 SSTORE SWAP1 PUSH0 MSTORE PUSH1 0x20 PUSH0 KECCAK256 SWAP1 DUP2 ADD SWAP3 DUP3 ISZERO PUSH3 0x135 JUMPI SWAP2 PUSH1 0x20 MUL DUP3 ADD JUMPDEST DUP3 DUP2 GT ISZERO PUSH3 0x134 JUMPI DUP3 MLOAD DUP3 SWAP1 PUSH1 0xFF AND SWAP1 SSTORE SWAP2 PUSH1 0x20 ADD SWAP2 SWAP1 PUSH1 0x1 ADD SWAP1 PUSH3 0x112 JUMP JUMPDEST JUMPDEST POP SWAP1 POP PUSH3 0x144 SWAP2 SWAP1 PUSH3 0x148 JUMP JUMPDEST POP SWAP1 JUMP JUMPDEST JUMPDEST DUP1 DUP3 GT ISZERO PUSH3 0x161 JUMPI PUSH0 DUP2 PUSH0 SWAP1 SSTORE POP PUSH1 0x1 ADD PUSH3 0x149 JUMP JUMPDEST POP SWAP1 JUMP JUMPDEST PUSH0 DUP1 REVERT JUMPDEST PUSH0 PUSH20 0xFFFFFFFFFFFFFFFFFFFFFFFFFFFFFFFFFFFFFFFF DUP3 AND SWAP1 POP SWAP2 SWAP1 POP JUMP JUMPDEST PUSH0 PUSH3 0x194 DUP3 PUSH3 0x169 JUMP JUMPDEST SWAP1 POP SWAP2 SWAP1 POP JUMP JUMPDEST PUSH0 PUSH3 0x1A7 DUP3 PUSH3 0x188 JUMP JUMPDEST SWAP1 POP SWAP2 SWAP1 POP JUMP JUMPDEST PUSH3 0x1B9 DUP2 PUSH3 0x19B JUMP JUMPDEST DUP2 EQ PUSH3 0x1C4 JUMPI PUSH0 DUP1 REVERT JUMPDEST POP JUMP JUMPDEST PUSH0 DUP2 MLOAD SWAP1 POP PUSH3 0x1D7 DUP2 PUSH3 0x1AE JUMP JUMPDEST SWAP3 SWAP2 POP POP JUMP JUMPDEST PUSH0 PUSH1 0x20 DUP3 DUP5 SUB SLT ISZERO PUSH3 0x1F5 JUMPI PUSH3 0x1F4 PUSH3 0x165 JUMP JUMPDEST JUMPDEST PUSH0 PUSH3 0x204 DUP5 DUP3 DUP6 ADD PUSH3 0x1C7 JUMP JUMPDEST SWAP2 POP POP SWAP3 SWAP2 POP POP JUMP JUMPDEST PUSH1 0x80 MLOAD PUSH1 0xA0 MLOAD PUSH2 0x1D1F PUSH3 0x24B PUSH0 CODECOPY PUSH0 PUSH2 0xB70 ADD MSTORE PUSH0 DUP2 DUP2 PUSH2 0x300 ADD MSTORE DUP2 DUP2 PUSH2 0x598 ADD MSTORE DUP2 DUP2 PUSH2 0x8AB ADD MSTORE DUP2 DUP2 PUSH2 0xCDA ADD MSTORE PUSH2 0x10A6 ADD MSTORE PUSH2 0x1D1F PUSH0 RETURN INVALID PUSH1 0x80 PUSH1 0x40 MSTORE CALLVALUE DUP1 ISZERO PUSH2 0xF JUMPI PUSH0 DUP1 REVERT JUMPDEST POP PUSH1 0x4 CALLDATASIZE LT PUSH2 0xB2 JUMPI PUSH0 CALLDATALOAD PUSH1 0xE0 SHR DUP1 PUSH4 0x92CEB12D GT PUSH2 0x6F JUMPI DUP1 PUSH4 0x92CEB12D EQ PUSH2 0x19E JUMPI DUP1 PUSH4 0xB0C479A5 EQ PUSH2 0x1BA JUMPI DUP1 PUSH4 0xB5D5B5FA EQ PUSH2 0x1F0 JUMPI DUP1 PUSH4 0xC9757417 EQ PUSH2 0x226 JUMPI DUP1 PUSH4 0xD2D7231F EQ PUSH2 0x256 JUMPI DUP1 PUSH4 0xFC0C546A EQ PUSH2 0x289 JUMPI PUSH2 0xB2 JUMP JUMPDEST DUP1 PUSH4 0xB46BA99 EQ PUSH2 0xB6 JUMPI DUP1 PUSH4 0x2FA78085 EQ PUSH2 0xD4 JUMPI DUP1 PUSH4 0x41324EC5 EQ PUSH2 0x104 JUMPI DUP1 PUSH4 0x47C4D742 EQ PUSH2 0x120 JUMPI DUP1 PUSH4 0x5EE0D9B4 EQ PUSH2 0x150 JUMPI DUP1 PUSH4 0x8DA5CB5B EQ PUSH2 0x180 JUMPI JUMPDEST PUSH0 DUP1 REVERT JUMPDEST PUSH2 0xBE PUSH2 0x2A7 JUMP JUMPDEST PUSH1 0x40 MLOAD PUSH2 0xCB SWAP2 SWAP1 PUSH2 0x11F8 JUMP JUMPDEST PUSH1 0x40 MLOAD DUP1 SWAP2 SUB SWAP1 RETURN JUMPDEST PUSH2 0xEE PUSH1 0x4 DUP1 CALLDATASIZE SUB DUP2 ADD SWAP1 PUSH2 0xE9 SWAP2 SWAP1 PUSH2 0x1276 JUMP JUMPDEST PUSH2 0x2FD JUMP JUMPDEST PUSH1 0x40 MLOAD PUSH2 0xFB SWAP2 SWAP1 PUSH2 0x12B0 JUMP JUMPDEST PUSH1 0x40 MLOAD DUP1 SWAP2 SUB SWAP1 RETURN JUMPDEST PUSH2 0x11E PUSH1 0x4 DUP1 CALLDATASIZE SUB DUP2 ADD SWAP1 PUSH2 0x119 SWAP2 SWAP1 PUSH2 0x12F3 JUMP JUMPDEST PUSH2 0x39D JUMP JUMPDEST STOP JUMPDEST PUSH2 0x13A PUSH1 0x4 DUP1 CALLDATASIZE SUB DUP2 ADD SWAP1 PUSH2 0x135 SWAP2 SWAP1 PUSH2 0x131E JUMP JUMPDEST PUSH2 0x67C JUMP JUMPDEST PUSH1 0x40 MLOAD PUSH2 0x147 SWAP2 SWAP1 PUSH2 0x1411 JUMP JUMPDEST PUSH1 0x40 MLOAD DUP1 SWAP2 SUB SWAP1 RETURN JUMPDEST PUSH2 0x16A PUSH1 0x4 DUP1 CALLDATASIZE SUB DUP2 ADD SWAP1 PUSH2 0x165 SWAP2 SWAP1 PUSH2 0x1276 JUMP JUMPDEST PUSH2 0xA23 JUMP JUMPDEST PUSH1 0x40 MLOAD PUSH2 0x177 SWAP2 SWAP1 PUSH2 0x155E JUMP JUMPDEST PUSH1 0x40 MLOAD DUP1 SWAP2 SUB SWAP1 RETURN JUMPDEST PUSH2 0x188 PUSH2 0xB6E JUMP JUMPDEST PUSH1 0x40 MLOAD PUSH2 0x195 SWAP2 SWAP1 PUSH2 0x158D JUMP JUMPDEST PUSH1 0x40 MLOAD DUP1 SWAP2 SUB SWAP1 RETURN JUMPDEST PUSH2 0x1B8 PUSH1 0x4 DUP1 CALLDATASIZE SUB DUP2 ADD SWAP1 PUSH2 0x1B3 SWAP2 SWAP1 PUSH2 0x12F3 JUMP JUMPDEST PUSH2 0xB92 JUMP JUMPDEST STOP JUMPDEST PUSH2 0x1D4 PUSH1 0x4 DUP1 CALLDATASIZE SUB DUP2 ADD SWAP1 PUSH2 0x1CF SWAP2 SWAP1 PUSH2 0x12F3 JUMP JUMPDEST PUSH2 0xDBD JUMP JUMPDEST PUSH1 0x40 MLOAD PUSH2 0x1E7 SWAP8 SWAP7 SWAP6 SWAP5 SWAP4 SWAP3 SWAP2 SWAP1 PUSH2 0x15B5 JUMP JUMPDEST PUSH1 0x40 MLOAD DUP1 SWAP2 SUB SWAP1 RETURN JUMPDEST PUSH2 0x20A PUSH1 0x4 DUP1 CALLDATASIZE SUB DUP2 ADD SWAP1 PUSH2 0x205 SWAP2 SWAP1 PUSH2 0x1622 JUMP JUMPDEST PUSH2 0xE34 JUMP JUMPDEST PUSH1 0x40 MLOAD PUSH2 0x21D SWAP8 SWAP7 SWAP6 SWAP5 SWAP4 SWAP3 SWAP2 SWAP1 PUSH2 0x15B5 JUMP JUMPDEST PUSH1 0x40 MLOAD DUP1 SWAP2 SUB SWAP1 RETURN JUMPDEST PUSH2 0x240 PUSH1 0x4 DUP1 CALLDATASIZE SUB DUP2 ADD SWAP1 PUSH2 0x23B SWAP2 SWAP1 PUSH2 0x12F3 JUMP JUMPDEST PUSH2 0xEC5 JUMP JUMPDEST PUSH1 0x40 MLOAD PUSH2 0x24D SWAP2 SWAP1 PUSH2 0x1411 JUMP JUMPDEST PUSH1 0x40 MLOAD DUP1 SWAP2 SUB SWAP1 RETURN JUMPDEST PUSH2 0x270 PUSH1 0x4 DUP1 CALLDATASIZE SUB DUP2 ADD SWAP1 PUSH2 0x26B SWAP2 SWAP1 PUSH2 0x12F3 JUMP JUMPDEST PUSH2 0xFA2 JUMP JUMPDEST PUSH1 0x40 MLOAD PUSH2 0x280 SWAP5 SWAP4 SWAP3 SWAP2 SWAP1 PUSH2 0x1660 JUMP JUMPDEST PUSH1 0x40 MLOAD DUP1 SWAP2 SUB SWAP1 RETURN JUMPDEST PUSH2 0x291 PUSH2 0x10A4 JUMP JUMPDEST PUSH1 0x40 MLOAD PUSH2 0x29E SWAP2 SWAP1 PUSH2 0x16FE JUMP JUMPDEST PUSH1 0x40 MLOAD DUP1 SWAP2 SUB SWAP1 RETURN JUMPDEST PUSH1 0x60 PUSH1 0x1 DUP1 SLOAD DUP1 PUSH1 0x20 MUL PUSH1 0x20 ADD PUSH1 0x40 MLOAD SWAP1 DUP2 ADD PUSH1 0x40 MSTORE DUP1 SWAP3 SWAP2 SWAP1 DUP2 DUP2 MSTORE PUSH1 0x20 ADD DUP3 DUP1 SLOAD DUP1 ISZERO PUSH2 0x2F3 JUMPI PUSH1 0x20 MUL DUP3 ADD SWAP2 SWAP1 PUSH0 MSTORE PUSH1 0x20 PUSH0 KECCAK256 SWAP1 JUMPDEST DUP2 SLOAD DUP2 MSTORE PUSH1 0x20 ADD SWAP1 PUSH1 0x1 ADD SWAP1 DUP1 DUP4 GT PUSH2 0x2DF JUMPI JUMPDEST POP POP POP POP POP SWAP1 POP SWAP1 JUMP JUMPDEST PUSH0 PUSH32 0x0 PUSH20 0xFFFFFFFFFFFFFFFFFFFFFFFFFFFFFFFFFFFFFFFF AND PUSH4 0x70A08231 DUP4 PUSH1 0x40 MLOAD DUP3 PUSH4 0xFFFFFFFF AND PUSH1 0xE0 SHL DUP2 MSTORE PUSH1 0x4 ADD PUSH2 0x357 SWAP2 SWAP1 PUSH2 0x158D JUMP JUMPDEST PUSH1 0x20 PUSH1 0x40 MLOAD DUP1 DUP4 SUB DUP2 DUP7 GAS STATICCALL ISZERO DUP1 ISZERO PUSH2 0x372 JUMPI RETURNDATASIZE PUSH0 DUP1 RETURNDATACOPY RETURNDATASIZE PUSH0 REVERT JUMPDEST POP POP POP POP PUSH1 0x40 MLOAD RETURNDATASIZE PUSH1 0x1F NOT PUSH1 0x1F DUP3 ADD AND DUP3 ADD DUP1 PUSH1 0x40 MSTORE POP DUP2 ADD SWAP1 PUSH2 0x396 SWAP2 SWAP1 PUSH2 0x172B JUMP JUMPDEST SWAP1 POP SWAP2 SWAP1 POP JUMP JUMPDEST PUSH1 0x3 PUSH0 DUP3 DUP2 MSTORE PUSH1 0x20 ADD SWAP1 DUP2 MSTORE PUSH1 0x20 ADD PUSH0 KECCAK256 PUSH1 0x4 ADD PUSH0 SWAP1 SLOAD SWAP1 PUSH2 0x100 EXP SWAP1 DIV PUSH20 0xFFFFFFFFFFFFFFFFFFFFFFFFFFFFFFFFFFFFFFFF AND PUSH20 0xFFFFFFFFFFFFFFFFFFFFFFFFFFFFFFFFFFFFFFFF AND CALLER PUSH20 0xFFFFFFFFFFFFFFFFFFFFFFFFFFFFFFFFFFFFFFFF AND EQ PUSH2 0x43E JUMPI PUSH1 0x40 MLOAD PUSH32 0x8C379A000000000000000000000000000000000000000000000000000000000 DUP2 MSTORE PUSH1 0x4 ADD PUSH2 0x435 SWAP1 PUSH2 0x17D6 JUMP JUMPDEST PUSH1 0x40 MLOAD DUP1 SWAP2 SUB SWAP1 REVERT JUMPDEST PUSH1 0x3 PUSH0 DUP3 DUP2 MSTORE PUSH1 0x20 ADD SWAP1 DUP2 MSTORE PUSH1 0x20 ADD PUSH0 KECCAK256 PUSH1 0x4 ADD PUSH1 0x15 SWAP1 SLOAD SWAP1 PUSH2 0x100 EXP SWAP1 DIV PUSH1 0xFF AND ISZERO PUSH2 0x4A0 JUMPI PUSH1 0x40 MLOAD PUSH32 0x8C379A000000000000000000000000000000000000000000000000000000000 DUP2 MSTORE PUSH1 0x4 ADD PUSH2 0x497 SWAP1 PUSH2 0x1864 JUMP JUMPDEST PUSH1 0x40 MLOAD DUP1 SWAP2 SUB SWAP1 REVERT JUMPDEST PUSH1 0x3C PUSH1 0x3 PUSH0 DUP4 DUP2 MSTORE PUSH1 0x20 ADD SWAP1 DUP2 MSTORE PUSH1 0x20 ADD PUSH0 KECCAK256 PUSH1 0x2 ADD SLOAD PUSH2 0x4C1 SWAP2 SWAP1 PUSH2 0x18AF JUMP JUMPDEST PUSH1 0x3 PUSH0 DUP4 DUP2 MSTORE PUSH1 0x20 ADD SWAP1 DUP2 MSTORE PUSH1 0x20 ADD PUSH0 KECCAK256 PUSH1 0x3 ADD SLOAD PUSH2 0x4E0 SWAP2 SWAP1 PUSH2 0x18F0 JUMP JUMPDEST TIMESTAMP LT ISZERO PUSH2 0x522 JUMPI PUSH1 0x40 MLOAD PUSH32 0x8C379A000000000000000000000000000000000000000000000000000000000 DUP2 MSTORE PUSH1 0x4 ADD PUSH2 0x519 SWAP1 PUSH2 0x1993 JUMP JUMPDEST PUSH1 0x40 MLOAD DUP1 SWAP2 SUB SWAP1 REVERT JUMPDEST PUSH1 0x1 PUSH1 0x3 PUSH0 DUP4 DUP2 MSTORE PUSH1 0x20 ADD SWAP1 DUP2 MSTORE PUSH1 0x20 ADD PUSH0 KECCAK256 PUSH1 0x4 ADD PUSH1 0x15 PUSH2 0x100 EXP DUP2 SLOAD DUP2 PUSH1 0xFF MUL NOT AND SWAP1 DUP4 ISZERO ISZERO MUL OR SWAP1 SSTORE POP PUSH0 DUP1 PUSH0 DUP1 PUSH2 0x55C DUP6 PUSH2 0xFA2 JUMP JUMPDEST SWAP4 POP SWAP4 POP SWAP4 POP SWAP4 POP PUSH0 PUSH1 0x3 PUSH0 DUP8 DUP2 MSTORE PUSH1 0x20 ADD SWAP1 DUP2 MSTORE PUSH1 0x20 ADD PUSH0 KECCAK256 PUSH1 0x1 ADD SLOAD SWAP1 POP PUSH0 PUSH1 0x3 PUSH0 DUP9 DUP2 MSTORE PUSH1 0x20 ADD SWAP1 DUP2 MSTORE PUSH1 0x20 ADD PUSH0 KECCAK256 PUSH1 0x1 ADD DUP2 SWAP1 SSTORE POP PUSH0 PUSH32 0x0 PUSH20 0xFFFFFFFFFFFFFFFFFFFFFFFFFFFFFFFFFFFFFFFF AND PUSH4 0xA9059CBB DUP8 DUP5 PUSH1 0x40 MLOAD DUP4 PUSH4 0xFFFFFFFF AND PUSH1 0xE0 SHL DUP2 MSTORE PUSH1 0x4 ADD PUSH2 0x5F1 SWAP3 SWAP2 SWAP1 PUSH2 0x19B1 JUMP JUMPDEST PUSH1 0x20 PUSH1 0x40 MLOAD DUP1 DUP4 SUB DUP2 PUSH0 DUP8 GAS CALL ISZERO DUP1 ISZERO PUSH2 0x60D JUMPI RETURNDATASIZE PUSH0 DUP1 RETURNDATACOPY RETURNDATASIZE PUSH0 REVERT JUMPDEST POP POP POP POP PUSH1 0x40 MLOAD RETURNDATASIZE PUSH1 0x1F NOT PUSH1 0x1F DUP3 ADD AND DUP3 ADD DUP1 PUSH1 0x40 MSTORE POP DUP2 ADD SWAP1 PUSH2 0x631 SWAP2 SWAP1 PUSH2 0x1A02 JUMP JUMPDEST SWAP1 POP DUP1 PUSH2 0x673 JUMPI PUSH1 0x40 MLOAD PUSH32 0x8C379A000000000000000000000000000000000000000000000000000000000 DUP2 MSTORE PUSH1 0x4 ADD PUSH2 0x66A SWAP1 PUSH2 0x1A77 JUMP JUMPDEST PUSH1 0x40 MLOAD DUP1 SWAP2 SUB SWAP1 REVERT JUMPDEST POP POP POP POP POP POP POP JUMP JUMPDEST PUSH2 0x684 PUSH2 0x10E8 JUMP JUMPDEST PUSH0 DUP4 GT PUSH2 0x6C6 JUMPI PUSH1 0x40 MLOAD PUSH32 0x8C379A000000000000000000000000000000000000000000000000000000000 DUP2 MSTORE PUSH1 0x4 ADD PUSH2 0x6BD SWAP1 PUSH2 0x1ADF JUMP JUMPDEST PUSH1 0x40 MLOAD DUP1 SWAP2 SUB SWAP1 REVERT JUMPDEST PUSH1 0x2 DUP3 EQ DUP1 PUSH2 0x6D5 JUMPI POP PUSH1 0x4 DUP3 EQ JUMPDEST DUP1 PUSH2 0x6E0 JUMPI POP PUSH1 0x6 DUP3 EQ JUMPDEST DUP1 PUSH2 0x6EB JUMPI POP PUSH1 0x8 DUP3 EQ JUMPDEST DUP1 PUSH2 0x6F6 JUMPI POP PUSH1 0xA DUP3 EQ JUMPDEST PUSH2 0x735 JUMPI PUSH1 0x40 MLOAD PUSH32 0x8C379A000000000000000000000000000000000000000000000000000000000 DUP2 MSTORE PUSH1 0x4 ADD PUSH2 0x72C SWAP1 PUSH2 0x1B6D JUMP JUMPDEST PUSH1 0x40 MLOAD DUP1 SWAP2 SUB SWAP1 REVERT JUMPDEST PUSH2 0x73E PUSH0 PUSH2 0x10C8 JUMP JUMPDEST POP PUSH0 PUSH1 0x40 MLOAD DUP1 PUSH1 0xE0 ADD PUSH1 0x40 MSTORE DUP1 PUSH2 0x754 PUSH0 PUSH2 0x10C8 JUMP JUMPDEST DUP2 MSTORE PUSH1 0x20 ADD DUP6 DUP2 MSTORE PUSH1 0x20 ADD DUP5 DUP2 MSTORE PUSH1 0x20 ADD TIMESTAMP DUP2 MSTORE PUSH1 0x20 ADD CALLER PUSH20 0xFFFFFFFFFFFFFFFFFFFFFFFFFFFFFFFFFFFFFFFF AND DUP2 MSTORE PUSH1 0x20 ADD PUSH0 ISZERO ISZERO DUP2 MSTORE PUSH1 0x20 ADD PUSH0 ISZERO ISZERO DUP2 MSTORE POP SWAP1 POP PUSH1 0x2 PUSH0 CALLER PUSH20 0xFFFFFFFFFFFFFFFFFFFFFFFFFFFFFFFFFFFFFFFF AND PUSH20 0xFFFFFFFFFFFFFFFFFFFFFFFFFFFFFFFFFFFFFFFF AND DUP2 MSTORE PUSH1 0x20 ADD SWAP1 DUP2 MSTORE PUSH1 0x20 ADD PUSH0 KECCAK256 DUP2 SWAP1 DUP1 PUSH1 0x1 DUP2 SLOAD ADD DUP1 DUP3 SSTORE DUP1 SWAP2 POP POP PUSH1 0x1 SWAP1 SUB SWAP1 PUSH0 MSTORE PUSH1 0x20 PUSH0 KECCAK256 SWAP1 PUSH1 0x5 MUL ADD PUSH0 SWAP1 SWAP2 SWAP1 SWAP2 SWAP1 SWAP2 POP PUSH0 DUP3 ADD MLOAD DUP2 PUSH0 ADD SSTORE PUSH1 0x20 DUP3 ADD MLOAD DUP2 PUSH1 0x1 ADD SSTORE PUSH1 0x40 DUP3 ADD MLOAD DUP2 PUSH1 0x2 ADD SSTORE PUSH1 0x60 DUP3 ADD MLOAD DUP2 PUSH1 0x3 ADD SSTORE PUSH1 0x80 DUP3 ADD MLOAD DUP2 PUSH1 0x4 ADD PUSH0 PUSH2 0x100 EXP DUP2 SLOAD DUP2 PUSH20 0xFFFFFFFFFFFFFFFFFFFFFFFFFFFFFFFFFFFFFFFF MUL NOT AND SWAP1 DUP4 PUSH20 0xFFFFFFFFFFFFFFFFFFFFFFFFFFFFFFFFFFFFFFFF AND MUL OR SWAP1 SSTORE POP PUSH1 0xA0 DUP3 ADD MLOAD DUP2 PUSH1 0x4 ADD PUSH1 0x14 PUSH2 0x100 EXP DUP2 SLOAD DUP2 PUSH1 0xFF MUL NOT AND SWAP1 DUP4 ISZERO ISZERO MUL OR SWAP1 SSTORE POP PUSH1 0xC0 DUP3 ADD MLOAD DUP2 PUSH1 0x4 ADD PUSH1 0x15 PUSH2 0x100 EXP DUP2 SLOAD DUP2 PUSH1 0xFF MUL NOT AND SWAP1 DUP4 ISZERO ISZERO MUL OR SWAP1 SSTORE POP POP POP PUSH32 0x0 PUSH20 0xFFFFFFFFFFFFFFFFFFFFFFFFFFFFFFFFFFFFFFFF AND PUSH4 0x23B872DD CALLER ADDRESS DUP8 PUSH1 0x40 MLOAD DUP5 PUSH4 0xFFFFFFFF AND PUSH1 0xE0 SHL DUP2 MSTORE PUSH1 0x4 ADD PUSH2 0x906 SWAP4 SWAP3 SWAP2 SWAP1 PUSH2 0x1B8B JUMP JUMPDEST PUSH1 0x20 PUSH1 0x40 MLOAD DUP1 DUP4 SUB DUP2 PUSH0 DUP8 GAS CALL ISZERO DUP1 ISZERO PUSH2 0x922 JUMPI RETURNDATASIZE PUSH0 DUP1 RETURNDATACOPY RETURNDATASIZE PUSH0 REVERT JUMPDEST POP POP POP POP PUSH1 0x40 MLOAD RETURNDATASIZE PUSH1 0x1F NOT PUSH1 0x1F DUP3 ADD AND DUP3 ADD DUP1 PUSH1 0x40 MSTORE POP DUP2 ADD SWAP1 PUSH2 0x946 SWAP2 SWAP1 PUSH2 0x1A02 JUMP JUMPDEST POP DUP1 PUSH1 0x3 PUSH0 PUSH2 0x954 PUSH0 PUSH2 0x10C8 JUMP JUMPDEST DUP2 MSTORE PUSH1 0x20 ADD SWAP1 DUP2 MSTORE PUSH1 0x20 ADD PUSH0 KECCAK256 PUSH0 DUP3 ADD MLOAD DUP2 PUSH0 ADD SSTORE PUSH1 0x20 DUP3 ADD MLOAD DUP2 PUSH1 0x1 ADD SSTORE PUSH1 0x40 DUP3 ADD MLOAD DUP2 PUSH1 0x2 ADD SSTORE PUSH1 0x60 DUP3 ADD MLOAD DUP2 PUSH1 0x3 ADD SSTORE PUSH1 0x80 DUP3 ADD MLOAD DUP2 PUSH1 0x4 ADD PUSH0 PUSH2 0x100 EXP DUP2 SLOAD DUP2 PUSH20 0xFFFFFFFFFFFFFFFFFFFFFFFFFFFFFFFFFFFFFFFF MUL NOT AND SWAP1 DUP4 PUSH20 0xFFFFFFFFFFFFFFFFFFFFFFFFFFFFFFFFFFFFFFFF AND MUL OR SWAP1 SSTORE POP PUSH1 0xA0 DUP3 ADD MLOAD DUP2 PUSH1 0x4 ADD PUSH1 0x14 PUSH2 0x100 EXP DUP2 SLOAD DUP2 PUSH1 0xFF MUL NOT AND SWAP1 DUP4 ISZERO ISZERO MUL OR SWAP1 SSTORE POP PUSH1 0xC0 DUP3 ADD MLOAD DUP2 PUSH1 0x4 ADD PUSH1 0x15 PUSH2 0x100 EXP DUP2 SLOAD DUP2 PUSH1 0xFF MUL NOT AND SWAP1 DUP4 ISZERO ISZERO MUL OR SWAP1 SSTORE POP SWAP1 POP POP PUSH2 0xA19 PUSH0 PUSH2 0x10D4 JUMP JUMPDEST DUP1 SWAP2 POP POP SWAP3 SWAP2 POP POP JUMP JUMPDEST PUSH1 0x60 PUSH1 0x2 PUSH0 DUP4 PUSH20 0xFFFFFFFFFFFFFFFFFFFFFFFFFFFFFFFFFFFFFFFF AND PUSH20 0xFFFFFFFFFFFFFFFFFFFFFFFFFFFFFFFFFFFFFFFF AND DUP2 MSTORE PUSH1 0x20 ADD SWAP1 DUP2 MSTORE PUSH1 0x20 ADD PUSH0 KECCAK256 DUP1 SLOAD DUP1 PUSH1 0x20 MUL PUSH1 0x20 ADD PUSH1 0x40 MLOAD SWAP1 DUP2 ADD PUSH1 0x40 MSTORE DUP1 SWAP3 SWAP2 SWAP1 DUP2 DUP2 MSTORE PUSH1 0x20 ADD PUSH0 SWAP1 JUMPDEST DUP3 DUP3 LT ISZERO PUSH2 0xB63 JUMPI DUP4 DUP3 SWAP1 PUSH0 MSTORE PUSH1 0x20 PUSH0 KECCAK256 SWAP1 PUSH1 0x5 MUL ADD PUSH1 0x40 MLOAD DUP1 PUSH1 0xE0 ADD PUSH1 0x40 MSTORE SWAP1 DUP2 PUSH0 DUP3 ADD SLOAD DUP2 MSTORE PUSH1 0x20 ADD PUSH1 0x1 DUP3 ADD SLOAD DUP2 MSTORE PUSH1 0x20 ADD PUSH1 0x2 DUP3 ADD SLOAD DUP2 MSTORE PUSH1 0x20 ADD PUSH1 0x3 DUP3 ADD SLOAD DUP2 MSTORE PUSH1 0x20 ADD PUSH1 0x4 DUP3 ADD PUSH0 SWAP1 SLOAD SWAP1 PUSH2 0x100 EXP SWAP1 DIV PUSH20 0xFFFFFFFFFFFFFFFFFFFFFFFFFFFFFFFFFFFFFFFF AND PUSH20 0xFFFFFFFFFFFFFFFFFFFFFFFFFFFFFFFFFFFFFFFF AND PUSH20 0xFFFFFFFFFFFFFFFFFFFFFFFFFFFFFFFFFFFFFFFF AND DUP2 MSTORE PUSH1 0x20 ADD PUSH1 0x4 DUP3 ADD PUSH1 0x14 SWAP1 SLOAD SWAP1 PUSH2 0x100 EXP SWAP1 DIV PUSH1 0xFF AND ISZERO ISZERO ISZERO ISZERO DUP2 MSTORE PUSH1 0x20 ADD PUSH1 0x4 DUP3 ADD PUSH1 0x15 SWAP1 SLOAD SWAP1 PUSH2 0x100 EXP SWAP1 DIV PUSH1 0xFF AND ISZERO ISZERO ISZERO ISZERO DUP2 MSTORE POP POP DUP2 MSTORE PUSH1 0x20 ADD SWAP1 PUSH1 0x1 ADD SWAP1 PUSH2 0xA81 JUMP JUMPDEST POP POP POP POP SWAP1 POP SWAP2 SWAP1 POP JUMP JUMPDEST PUSH32 0x0 DUP2 JUMP JUMPDEST PUSH1 0x3 PUSH0 DUP3 DUP2 MSTORE PUSH1 0x20 ADD SWAP1 DUP2 MSTORE PUSH1 0x20 ADD PUSH0 KECCAK256 PUSH1 0x4 ADD PUSH0 SWAP1 SLOAD SWAP1 PUSH2 0x100 EXP SWAP1 DIV PUSH20 0xFFFFFFFFFFFFFFFFFFFFFFFFFFFFFFFFFFFFFFFF AND PUSH20 0xFFFFFFFFFFFFFFFFFFFFFFFFFFFFFFFFFFFFFFFF AND CALLER PUSH20 0xFFFFFFFFFFFFFFFFFFFFFFFFFFFFFFFFFFFFFFFF AND EQ PUSH2 0xC33 JUMPI PUSH1 0x40 MLOAD PUSH32 0x8C379A000000000000000000000000000000000000000000000000000000000 DUP2 MSTORE PUSH1 0x4 ADD PUSH2 0xC2A SWAP1 PUSH2 0x1C30 JUMP JUMPDEST PUSH1 0x40 MLOAD DUP1 SWAP2 SUB SWAP1 REVERT JUMPDEST PUSH1 0x3 PUSH0 DUP3 DUP2 MSTORE PUSH1 0x20 ADD SWAP1 DUP2 MSTORE PUSH1 0x20 ADD PUSH0 KECCAK256 PUSH1 0x4 ADD PUSH1 0x14 SWAP1 SLOAD SWAP1 PUSH2 0x100 EXP SWAP1 DIV PUSH1 0xFF AND ISZERO PUSH2 0xC95 JUMPI PUSH1 0x40 MLOAD PUSH32 0x8C379A000000000000000000000000000000000000000000000000000000000 DUP2 MSTORE PUSH1 0x4 ADD PUSH2 0xC8C SWAP1 PUSH2 0x1C98 JUMP JUMPDEST PUSH1 0x40 MLOAD DUP1 SWAP2 SUB SWAP1 REVERT JUMPDEST PUSH1 0x1 PUSH1 0x3 PUSH0 DUP4 DUP2 MSTORE PUSH1 0x20 ADD SWAP1 DUP2 MSTORE PUSH1 0x20 ADD PUSH0 KECCAK256 PUSH1 0x4 ADD PUSH1 0x14 PUSH2 0x100 EXP DUP2 SLOAD DUP2 PUSH1 0xFF MUL NOT AND SWAP1 DUP4 ISZERO ISZERO MUL OR SWAP1 SSTORE POP PUSH0 DUP1 PUSH0 DUP1 PUSH2 0xCCF DUP6 PUSH2 0xFA2 JUMP JUMPDEST SWAP4 POP SWAP4 POP SWAP4 POP SWAP4 POP PUSH0 PUSH32 0x0 PUSH20 0xFFFFFFFFFFFFFFFFFFFFFFFFFFFFFFFFFFFFFFFF AND PUSH4 0xA9059CBB DUP7 DUP6 PUSH1 0x40 MLOAD DUP4 PUSH4 0xFFFFFFFF AND PUSH1 0xE0 SHL DUP2 MSTORE PUSH1 0x4 ADD PUSH2 0xD33 SWAP3 SWAP2 SWAP1 PUSH2 0x19B1 JUMP JUMPDEST PUSH1 0x20 PUSH1 0x40 MLOAD DUP1 DUP4 SUB DUP2 PUSH0 DUP8 GAS CALL ISZERO DUP1 ISZERO PUSH2 0xD4F JUMPI RETURNDATASIZE PUSH0 DUP1 RETURNDATACOPY RETURNDATASIZE PUSH0 REVERT JUMPDEST POP POP POP POP PUSH1 0x40 MLOAD RETURNDATASIZE PUSH1 0x1F NOT PUSH1 0x1F DUP3 ADD AND DUP3 ADD DUP1 PUSH1 0x40 MSTORE POP DUP2 ADD SWAP1 PUSH2 0xD73 SWAP2 SWAP1 PUSH2 0x1A02 JUMP JUMPDEST SWAP1 POP DUP1 PUSH2 0xDB5 JUMPI PUSH1 0x40 MLOAD PUSH32 0x8C379A000000000000000000000000000000000000000000000000000000000 DUP2 MSTORE PUSH1 0x4 ADD PUSH2 0xDAC SWAP1 PUSH2 0x1A77 JUMP JUMPDEST PUSH1 0x40 MLOAD DUP1 SWAP2 SUB SWAP1 REVERT JUMPDEST POP POP POP POP POP POP JUMP JUMPDEST PUSH1 0x3 PUSH1 0x20 MSTORE DUP1 PUSH0 MSTORE PUSH1 0x40 PUSH0 KECCAK256 PUSH0 SWAP2 POP SWAP1 POP DUP1 PUSH0 ADD SLOAD SWAP1 DUP1 PUSH1 0x1 ADD SLOAD SWAP1 DUP1 PUSH1 0x2 ADD SLOAD SWAP1 DUP1 PUSH1 0x3 ADD SLOAD SWAP1 DUP1 PUSH1 0x4 ADD PUSH0 SWAP1 SLOAD SWAP1 PUSH2 0x100 EXP SWAP1 DIV PUSH20 0xFFFFFFFFFFFFFFFFFFFFFFFFFFFFFFFFFFFFFFFF AND SWAP1 DUP1 PUSH1 0x4 ADD PUSH1 0x14 SWAP1 SLOAD SWAP1 PUSH2 0x100 EXP SWAP1 DIV PUSH1 0xFF AND SWAP1 DUP1 PUSH1 0x4 ADD PUSH1 0x15 SWAP1 SLOAD SWAP1 PUSH2 0x100 EXP SWAP1 DIV PUSH1 0xFF AND SWAP1 POP DUP8 JUMP JUMPDEST PUSH1 0x2 PUSH1 0x20 MSTORE DUP2 PUSH0 MSTORE PUSH1 0x40 PUSH0 KECCAK256 DUP2 DUP2 SLOAD DUP2 LT PUSH2 0xE4D JUMPI PUSH0 DUP1 REVERT JUMPDEST SWAP1 PUSH0 MSTORE PUSH1 0x20 PUSH0 KECCAK256 SWAP1 PUSH1 0x5 MUL ADD PUSH0 SWAP2 POP SWAP2 POP POP DUP1 PUSH0 ADD SLOAD SWAP1 DUP1 PUSH1 0x1 ADD SLOAD SWAP1 DUP1 PUSH1 0x2 ADD SLOAD SWAP1 DUP1 PUSH1 0x3 ADD SLOAD SWAP1 DUP1 PUSH1 0x4 ADD PUSH0 SWAP1 SLOAD SWAP1 PUSH2 0x100 EXP SWAP1 DIV PUSH20 0xFFFFFFFFFFFFFFFFFFFFFFFFFFFFFFFFFFFFFFFF AND SWAP1 DUP1 PUSH1 0x4 ADD PUSH1 0x14 SWAP1 SLOAD SWAP1 PUSH2 0x100 EXP SWAP1 DIV PUSH1 0xFF AND SWAP1 DUP1 PUSH1 0x4 ADD PUSH1 0x15 SWAP1 SLOAD SWAP1 PUSH2 0x100 EXP SWAP1 DIV PUSH1 0xFF AND SWAP1 POP DUP8 JUMP JUMPDEST PUSH2 0xECD PUSH2 0x10E8 JUMP JUMPDEST PUSH1 0x3 PUSH0 DUP4 DUP2 MSTORE PUSH1 0x20 ADD SWAP1 DUP2 MSTORE PUSH1 0x20 ADD PUSH0 KECCAK256 PUSH1 0x40 MLOAD DUP1 PUSH1 0xE0 ADD PUSH1 0x40 MSTORE SWAP1 DUP2 PUSH0 DUP3 ADD SLOAD DUP2 MSTORE PUSH1 0x20 ADD PUSH1 0x1 DUP3 ADD SLOAD DUP2 MSTORE PUSH1 0x20 ADD PUSH1 0x2 DUP3 ADD SLOAD DUP2 MSTORE PUSH1 0x20 ADD PUSH1 0x3 DUP3 ADD SLOAD DUP2 MSTORE PUSH1 0x20 ADD PUSH1 0x4 DUP3 ADD PUSH0 SWAP1 SLOAD SWAP1 PUSH2 0x100 EXP SWAP1 DIV PUSH20 0xFFFFFFFFFFFFFFFFFFFFFFFFFFFFFFFFFFFFFFFF AND PUSH20 0xFFFFFFFFFFFFFFFFFFFFFFFFFFFFFFFFFFFFFFFF AND PUSH20 0xFFFFFFFFFFFFFFFFFFFFFFFFFFFFFFFFFFFFFFFF AND DUP2 MSTORE PUSH1 0x20 ADD PUSH1 0x4 DUP3 ADD PUSH1 0x14 SWAP1 SLOAD SWAP1 PUSH2 0x100 EXP SWAP1 DIV PUSH1 0xFF AND ISZERO ISZERO ISZERO ISZERO DUP2 MSTORE PUSH1 0x20 ADD PUSH1 0x4 DUP3 ADD PUSH1 0x15 SWAP1 SLOAD SWAP1 PUSH2 0x100 EXP SWAP1 DIV PUSH1 0xFF AND ISZERO ISZERO ISZERO ISZERO DUP2 MSTORE POP POP SWAP1 POP SWAP2 SWAP1 POP JUMP JUMPDEST PUSH0 DUP1 PUSH0 DUP1 PUSH0 TIMESTAMP SWAP1 POP PUSH0 PUSH1 0x3 PUSH0 DUP9 DUP2 MSTORE PUSH1 0x20 ADD SWAP1 DUP2 MSTORE PUSH1 0x20 ADD PUSH0 KECCAK256 PUSH1 0x3 ADD SLOAD DUP3 PUSH2 0xFCB SWAP2 SWAP1 PUSH2 0x1CB6 JUMP JUMPDEST SWAP1 POP PUSH1 0x3C PUSH1 0x3 PUSH0 DUP10 DUP2 MSTORE PUSH1 0x20 ADD SWAP1 DUP2 MSTORE PUSH1 0x20 ADD PUSH0 KECCAK256 PUSH1 0x2 ADD SLOAD PUSH2 0xFEE SWAP2 SWAP1 PUSH2 0x18AF JUMP JUMPDEST DUP2 GT ISZERO PUSH2 0x1019 JUMPI PUSH1 0x3C PUSH1 0x3 PUSH0 DUP10 DUP2 MSTORE PUSH1 0x20 ADD SWAP1 DUP2 MSTORE PUSH1 0x20 ADD PUSH0 KECCAK256 PUSH1 0x2 ADD SLOAD PUSH2 0x1016 SWAP2 SWAP1 PUSH2 0x18AF JUMP JUMPDEST SWAP1 POP JUMPDEST PUSH0 PUSH1 0x1 DUP3 PUSH2 0x1027 SWAP2 SWAP1 PUSH2 0x18AF JUMP JUMPDEST SWAP1 POP PUSH1 0x3 PUSH0 DUP10 DUP2 MSTORE PUSH1 0x20 ADD SWAP1 DUP2 MSTORE PUSH1 0x20 ADD PUSH0 KECCAK256 PUSH1 0x4 ADD PUSH0 SWAP1 SLOAD SWAP1 PUSH2 0x100 EXP SWAP1 DIV PUSH20 0xFFFFFFFFFFFFFFFFFFFFFFFFFFFFFFFFFFFFFFFF AND PUSH1 0x3 PUSH0 DUP11 DUP2 MSTORE PUSH1 0x20 ADD SWAP1 DUP2 MSTORE PUSH1 0x20 ADD PUSH0 KECCAK256 PUSH0 ADD SLOAD DUP3 PUSH1 0x3 PUSH0 DUP13 DUP2 MSTORE PUSH1 0x20 ADD SWAP1 DUP2 MSTORE PUSH1 0x20 ADD PUSH0 KECCAK256 PUSH1 0x1 ADD SLOAD DUP5 PUSH2 0x1092 SWAP2 SWAP1 PUSH2 0x18F0 JUMP JUMPDEST SWAP7 POP SWAP7 POP SWAP7 POP SWAP7 POP POP POP POP SWAP2 SWAP4 POP SWAP2 SWAP4 JUMP JUMPDEST PUSH32 0x0 DUP2 JUMP JUMPDEST PUSH0 DUP2 PUSH0 ADD SLOAD SWAP1 POP SWAP2 SWAP1 POP JUMP JUMPDEST PUSH1 0x1 DUP2 PUSH0 ADD PUSH0 DUP3 DUP3 SLOAD ADD SWAP3 POP POP DUP2 SWAP1 SSTORE POP POP JUMP JUMPDEST PUSH1 0x40 MLOAD DUP1 PUSH1 0xE0 ADD PUSH1 0x40 MSTORE DUP1 PUSH0 DUP2 MSTORE PUSH1 0x20 ADD PUSH0 DUP2 MSTORE PUSH1 0x20 ADD PUSH0 DUP2 MSTORE PUSH1 0x20 ADD PUSH0 DUP2 MSTORE PUSH1 0x20 ADD PUSH0 PUSH20 0xFFFFFFFFFFFFFFFFFFFFFFFFFFFFFFFFFFFFFFFF AND DUP2 MSTORE PUSH1 0x20 ADD PUSH0 ISZERO ISZERO DUP2 MSTORE PUSH1 0x20 ADD PUSH0 ISZERO ISZERO DUP2 MSTORE POP SWAP1 JUMP JUMPDEST PUSH0 DUP2 MLOAD SWAP1 POP SWAP2 SWAP1 POP JUMP JUMPDEST PUSH0 DUP3 DUP3 MSTORE PUSH1 0x20 DUP3 ADD SWAP1 POP SWAP3 SWAP2 POP POP JUMP JUMPDEST PUSH0 DUP2 SWAP1 POP PUSH1 0x20 DUP3 ADD SWAP1 POP SWAP2 SWAP1 POP JUMP JUMPDEST PUSH0 DUP2 SWAP1 POP SWAP2 SWAP1 POP JUMP JUMPDEST PUSH2 0x1173 DUP2 PUSH2 0x1161 JUMP JUMPDEST DUP3 MSTORE POP POP JUMP JUMPDEST PUSH0 PUSH2 0x1184 DUP4 DUP4 PUSH2 0x116A JUMP JUMPDEST PUSH1 0x20 DUP4 ADD SWAP1 POP SWAP3 SWAP2 POP POP JUMP JUMPDEST PUSH0 PUSH1 0x20 DUP3 ADD SWAP1 POP SWAP2 SWAP1 POP JUMP JUMPDEST PUSH0 PUSH2 0x11A6 DUP3 PUSH2 0x1138 JUMP JUMPDEST PUSH2 0x11B0 DUP2 DUP6 PUSH2 0x1142 JUMP JUMPDEST SWAP4 POP PUSH2 0x11BB DUP4 PUSH2 0x1152 JUMP JUMPDEST DUP1 PUSH0 JUMPDEST DUP4 DUP2 LT ISZERO PUSH2 0x11EB JUMPI DUP2 MLOAD PUSH2 0x11D2 DUP9 DUP3 PUSH2 0x1179 JUMP JUMPDEST SWAP8 POP PUSH2 0x11DD DUP4 PUSH2 0x1190 JUMP JUMPDEST SWAP3 POP POP PUSH1 0x1 DUP2 ADD SWAP1 POP PUSH2 0x11BE JUMP JUMPDEST POP DUP6 SWAP4 POP POP POP POP SWAP3 SWAP2 POP POP JUMP JUMPDEST PUSH0 PUSH1 0x20 DUP3 ADD SWAP1 POP DUP2 DUP2 SUB PUSH0 DUP4 ADD MSTORE PUSH2 0x1210 DUP2 DUP5 PUSH2 0x119C JUMP JUMPDEST SWAP1 POP SWAP3 SWAP2 POP POP JUMP JUMPDEST PUSH0 DUP1 REVERT JUMPDEST PUSH0 PUSH20 0xFFFFFFFFFFFFFFFFFFFFFFFFFFFFFFFFFFFFFFFF DUP3 AND SWAP1 POP SWAP2 SWAP1 POP JUMP JUMPDEST PUSH0 PUSH2 0x1245 DUP3 PUSH2 0x121C JUMP JUMPDEST SWAP1 POP SWAP2 SWAP1 POP JUMP JUMPDEST PUSH2 0x1255 DUP2 PUSH2 0x123B JUMP JUMPDEST DUP2 EQ PUSH2 0x125F JUMPI PUSH0 DUP1 REVERT JUMPDEST POP JUMP JUMPDEST PUSH0 DUP2 CALLDATALOAD SWAP1 POP PUSH2 0x1270 DUP2 PUSH2 0x124C JUMP JUMPDEST SWAP3 SWAP2 POP POP JUMP JUMPDEST PUSH0 PUSH1 0x20 DUP3 DUP5 SUB SLT ISZERO PUSH2 0x128B JUMPI PUSH2 0x128A PUSH2 0x1218 JUMP JUMPDEST JUMPDEST PUSH0 PUSH2 0x1298 DUP5 DUP3 DUP6 ADD PUSH2 0x1262 JUMP JUMPDEST SWAP2 POP POP SWAP3 SWAP2 POP POP JUMP JUMPDEST PUSH2 0x12AA DUP2 PUSH2 0x1161 JUMP JUMPDEST DUP3 MSTORE POP POP JUMP JUMPDEST PUSH0 PUSH1 0x20 DUP3 ADD SWAP1 POP PUSH2 0x12C3 PUSH0 DUP4 ADD DUP5 PUSH2 0x12A1 JUMP JUMPDEST SWAP3 SWAP2 POP POP JUMP JUMPDEST PUSH2 0x12D2 DUP2 PUSH2 0x1161 JUMP JUMPDEST DUP2 EQ PUSH2 0x12DC JUMPI PUSH0 DUP1 REVERT JUMPDEST POP JUMP JUMPDEST PUSH0 DUP2 CALLDATALOAD SWAP1 POP PUSH2 0x12ED DUP2 PUSH2 0x12C9 JUMP JUMPDEST SWAP3 SWAP2 POP POP JUMP JUMPDEST PUSH0 PUSH1 0x20 DUP3 DUP5 SUB SLT ISZERO PUSH2 0x1308 JUMPI PUSH2 0x1307 PUSH2 0x1218 JUMP JUMPDEST JUMPDEST PUSH0 PUSH2 0x1315 DUP5 DUP3 DUP6 ADD PUSH2 0x12DF JUMP JUMPDEST SWAP2 POP POP SWAP3 SWAP2 POP POP JUMP JUMPDEST PUSH0 DUP1 PUSH1 0x40 DUP4 DUP6 SUB SLT ISZERO PUSH2 0x1334 JUMPI PUSH2 0x1333 PUSH2 0x1218 JUMP JUMPDEST JUMPDEST PUSH0 PUSH2 0x1341 DUP6 DUP3 DUP7 ADD PUSH2 0x12DF JUMP JUMPDEST SWAP3 POP POP PUSH1 0x20 PUSH2 0x1352 DUP6 DUP3 DUP7 ADD PUSH2 0x12DF JUMP JUMPDEST SWAP2 POP POP SWAP3 POP SWAP3 SWAP1 POP JUMP JUMPDEST PUSH2 0x1365 DUP2 PUSH2 0x123B JUMP JUMPDEST DUP3 MSTORE POP POP JUMP JUMPDEST PUSH0 DUP2 ISZERO ISZERO SWAP1 POP SWAP2 SWAP1 POP JUMP JUMPDEST PUSH2 0x137F DUP2 PUSH2 0x136B JUMP JUMPDEST DUP3 MSTORE POP POP JUMP JUMPDEST PUSH1 0xE0 DUP3 ADD PUSH0 DUP3 ADD MLOAD PUSH2 0x1399 PUSH0 DUP6 ADD DUP3 PUSH2 0x116A JUMP JUMPDEST POP PUSH1 0x20 DUP3 ADD MLOAD PUSH2 0x13AC PUSH1 0x20 DUP6 ADD DUP3 PUSH2 0x116A JUMP JUMPDEST POP PUSH1 0x40 DUP3 ADD MLOAD PUSH2 0x13BF PUSH1 0x40 DUP6 ADD DUP3 PUSH2 0x116A JUMP JUMPDEST POP PUSH1 0x60 DUP3 ADD MLOAD PUSH2 0x13D2 PUSH1 0x60 DUP6 ADD DUP3 PUSH2 0x116A JUMP JUMPDEST POP PUSH1 0x80 DUP3 ADD MLOAD PUSH2 0x13E5 PUSH1 0x80 DUP6 ADD DUP3 PUSH2 0x135C JUMP JUMPDEST POP PUSH1 0xA0 DUP3 ADD MLOAD PUSH2 0x13F8 PUSH1 0xA0 DUP6 ADD DUP3 PUSH2 0x1376 JUMP JUMPDEST POP PUSH1 0xC0 DUP3 ADD MLOAD PUSH2 0x140B PUSH1 0xC0 DUP6 ADD DUP3 PUSH2 0x1376 JUMP JUMPDEST POP POP POP POP JUMP JUMPDEST PUSH0 PUSH1 0xE0 DUP3 ADD SWAP1 POP PUSH2 0x1424 PUSH0 DUP4 ADD DUP5 PUSH2 0x1385 JUMP JUMPDEST SWAP3 SWAP2 POP POP JUMP JUMPDEST PUSH0 DUP2 MLOAD SWAP1 POP SWAP2 SWAP1 POP JUMP JUMPDEST PUSH0 DUP3 DUP3 MSTORE PUSH1 0x20 DUP3 ADD SWAP1 POP SWAP3 SWAP2 POP POP JUMP JUMPDEST PUSH0 DUP2 SWAP1 POP PUSH1 0x20 DUP3 ADD SWAP1 POP SWAP2 SWAP1 POP JUMP JUMPDEST PUSH1 0xE0 DUP3 ADD PUSH0 DUP3 ADD MLOAD PUSH2 0x1467 PUSH0 DUP6 ADD DUP3 PUSH2 0x116A JUMP JUMPDEST POP PUSH1 0x20 DUP3 ADD MLOAD PUSH2 0x147A PUSH1 0x20 DUP6 ADD DUP3 PUSH2 0x116A JUMP JUMPDEST POP PUSH1 0x40 DUP3 ADD MLOAD PUSH2 0x148D PUSH1 0x40 DUP6 ADD DUP3 PUSH2 0x116A JUMP JUMPDEST POP PUSH1 0x60 DUP3 ADD MLOAD PUSH2 0x14A0 PUSH1 0x60 DUP6 ADD DUP3 PUSH2 0x116A JUMP JUMPDEST POP PUSH1 0x80 DUP3 ADD MLOAD PUSH2 0x14B3 PUSH1 0x80 DUP6 ADD DUP3 PUSH2 0x135C JUMP JUMPDEST POP PUSH1 0xA0 DUP3 ADD MLOAD PUSH2 0x14C6 PUSH1 0xA0 DUP6 ADD DUP3 PUSH2 0x1376 JUMP JUMPDEST POP PUSH1 0xC0 DUP3 ADD MLOAD PUSH2 0x14D9 PUSH1 0xC0 DUP6 ADD DUP3 PUSH2 0x1376 JUMP JUMPDEST POP POP POP POP JUMP JUMPDEST PUSH0 PUSH2 0x14EA DUP4 DUP4 PUSH2 0x1453 JUMP JUMPDEST PUSH1 0xE0 DUP4 ADD SWAP1 POP SWAP3 SWAP2 POP POP JUMP JUMPDEST PUSH0 PUSH1 0x20 DUP3 ADD SWAP1 POP SWAP2 SWAP1 POP JUMP JUMPDEST PUSH0 PUSH2 0x150C DUP3 PUSH2 0x142A JUMP JUMPDEST PUSH2 0x1516 DUP2 DUP6 PUSH2 0x1434 JUMP JUMPDEST SWAP4 POP PUSH2 0x1521 DUP4 PUSH2 0x1444 JUMP JUMPDEST DUP1 PUSH0 JUMPDEST DUP4 DUP2 LT ISZERO PUSH2 0x1551 JUMPI DUP2 MLOAD PUSH2 0x1538 DUP9 DUP3 PUSH2 0x14DF JUMP JUMPDEST SWAP8 POP PUSH2 0x1543 DUP4 PUSH2 0x14F6 JUMP JUMPDEST SWAP3 POP POP PUSH1 0x1 DUP2 ADD SWAP1 POP PUSH2 0x1524 JUMP JUMPDEST POP DUP6 SWAP4 POP POP POP POP SWAP3 SWAP2 POP POP JUMP JUMPDEST PUSH0 PUSH1 0x20 DUP3 ADD SWAP1 POP DUP2 DUP2 SUB PUSH0 DUP4 ADD MSTORE PUSH2 0x1576 DUP2 DUP5 PUSH2 0x1502 JUMP JUMPDEST SWAP1 POP SWAP3 SWAP2 POP POP JUMP JUMPDEST PUSH2 0x1587 DUP2 PUSH2 0x123B JUMP JUMPDEST DUP3 MSTORE POP POP JUMP JUMPDEST PUSH0 PUSH1 0x20 DUP3 ADD SWAP1 POP PUSH2 0x15A0 PUSH0 DUP4 ADD DUP5 PUSH2 0x157E JUMP JUMPDEST SWAP3 SWAP2 POP POP JUMP JUMPDEST PUSH2 0x15AF DUP2 PUSH2 0x136B JUMP JUMPDEST DUP3 MSTORE POP POP JUMP JUMPDEST PUSH0 PUSH1 0xE0 DUP3 ADD SWAP1 POP PUSH2 0x15C8 PUSH0 DUP4 ADD DUP11 PUSH2 0x12A1 JUMP JUMPDEST PUSH2 0x15D5 PUSH1 0x20 DUP4 ADD DUP10 PUSH2 0x12A1 JUMP JUMPDEST PUSH2 0x15E2 PUSH1 0x40 DUP4 ADD DUP9 PUSH2 0x12A1 JUMP JUMPDEST PUSH2 0x15EF PUSH1 0x60 DUP4 ADD DUP8 PUSH2 0x12A1 JUMP JUMPDEST PUSH2 0x15FC PUSH1 0x80 DUP4 ADD DUP7 PUSH2 0x157E JUMP JUMPDEST PUSH2 0x1609 PUSH1 0xA0 DUP4 ADD DUP6 PUSH2 0x15A6 JUMP JUMPDEST PUSH2 0x1616 PUSH1 0xC0 DUP4 ADD DUP5 PUSH2 0x15A6 JUMP JUMPDEST SWAP9 SWAP8 POP POP POP POP POP POP POP POP JUMP JUMPDEST PUSH0 DUP1 PUSH1 0x40 DUP4 DUP6 SUB SLT ISZERO PUSH2 0x1638 JUMPI PUSH2 0x1637 PUSH2 0x1218 JUMP JUMPDEST JUMPDEST PUSH0 PUSH2 0x1645 DUP6 DUP3 DUP7 ADD PUSH2 0x1262 JUMP JUMPDEST SWAP3 POP POP PUSH1 0x20 PUSH2 0x1656 DUP6 DUP3 DUP7 ADD PUSH2 0x12DF JUMP JUMPDEST SWAP2 POP POP SWAP3 POP SWAP3 SWAP1 POP JUMP JUMPDEST PUSH0 PUSH1 0x80 DUP3 ADD SWAP1 POP PUSH2 0x1673 PUSH0 DUP4 ADD DUP8 PUSH2 0x157E JUMP JUMPDEST PUSH2 0x1680 PUSH1 0x20 DUP4 ADD DUP7 PUSH2 0x12A1 JUMP JUMPDEST PUSH2 0x168D PUSH1 0x40 DUP4 ADD DUP6 PUSH2 0x12A1 JUMP JUMPDEST PUSH2 0x169A PUSH1 0x60 DUP4 ADD DUP5 PUSH2 0x12A1 JUMP JUMPDEST SWAP6 SWAP5 POP POP POP POP POP JUMP JUMPDEST PUSH0 DUP2 SWAP1 POP SWAP2 SWAP1 POP JUMP JUMPDEST PUSH0 PUSH2 0x16C6 PUSH2 0x16C1 PUSH2 0x16BC DUP5 PUSH2 0x121C JUMP JUMPDEST PUSH2 0x16A3 JUMP JUMPDEST PUSH2 0x121C JUMP JUMPDEST SWAP1 POP SWAP2 SWAP1 POP JUMP JUMPDEST PUSH0 PUSH2 0x16D7 DUP3 PUSH2 0x16AC JUMP JUMPDEST SWAP1 POP SWAP2 SWAP1 POP JUMP JUMPDEST PUSH0 PUSH2 0x16E8 DUP3 PUSH2 0x16CD JUMP JUMPDEST SWAP1 POP SWAP2 SWAP1 POP JUMP JUMPDEST PUSH2 0x16F8 DUP2 PUSH2 0x16DE JUMP JUMPDEST DUP3 MSTORE POP POP JUMP JUMPDEST PUSH0 PUSH1 0x20 DUP3 ADD SWAP1 POP PUSH2 0x1711 PUSH0 DUP4 ADD DUP5 PUSH2 0x16EF JUMP JUMPDEST SWAP3 SWAP2 POP POP JUMP JUMPDEST PUSH0 DUP2 MLOAD SWAP1 POP PUSH2 0x1725 DUP2 PUSH2 0x12C9 JUMP JUMPDEST SWAP3 SWAP2 POP POP JUMP JUMPDEST PUSH0 PUSH1 0x20 DUP3 DUP5 SUB SLT ISZERO PUSH2 0x1740 JUMPI PUSH2 0x173F PUSH2 0x1218 JUMP JUMPDEST JUMPDEST PUSH0 PUSH2 0x174D DUP5 DUP3 DUP6 ADD PUSH2 0x1717 JUMP JUMPDEST SWAP2 POP POP SWAP3 SWAP2 POP POP JUMP JUMPDEST PUSH0 DUP3 DUP3 MSTORE PUSH1 0x20 DUP3 ADD SWAP1 POP SWAP3 SWAP2 POP POP JUMP JUMPDEST PUSH32 0x596F752063616E206F6E6C7920636C61696D20796F7572206F776E207374616B PUSH0 DUP3 ADD MSTORE PUSH32 0x656420616D6F756E740000000000000000000000000000000000000000000000 PUSH1 0x20 DUP3 ADD MSTORE POP JUMP JUMPDEST PUSH0 PUSH2 0x17C0 PUSH1 0x29 DUP4 PUSH2 0x1756 JUMP JUMPDEST SWAP2 POP PUSH2 0x17CB DUP3 PUSH2 0x1766 JUMP JUMPDEST PUSH1 0x40 DUP3 ADD SWAP1 POP SWAP2 SWAP1 POP JUMP JUMPDEST PUSH0 PUSH1 0x20 DUP3 ADD SWAP1 POP DUP2 DUP2 SUB PUSH0 DUP4 ADD MSTORE PUSH2 0x17ED DUP2 PUSH2 0x17B4 JUMP JUMPDEST SWAP1 POP SWAP2 SWAP1 POP JUMP JUMPDEST PUSH32 0x52657761726420616C726561647920636C61696D656420796F757220616D6F75 PUSH0 DUP3 ADD MSTORE PUSH32 0x6E74000000000000000000000000000000000000000000000000000000000000 PUSH1 0x20 DUP3 ADD MSTORE POP JUMP JUMPDEST PUSH0 PUSH2 0x184E PUSH1 0x22 DUP4 PUSH2 0x1756 JUMP JUMPDEST SWAP2 POP PUSH2 0x1859 DUP3 PUSH2 0x17F4 JUMP JUMPDEST PUSH1 0x40 DUP3 ADD SWAP1 POP SWAP2 SWAP1 POP JUMP JUMPDEST PUSH0 PUSH1 0x20 DUP3 ADD SWAP1 POP DUP2 DUP2 SUB PUSH0 DUP4 ADD MSTORE PUSH2 0x187B DUP2 PUSH2 0x1842 JUMP JUMPDEST SWAP1 POP SWAP2 SWAP1 POP JUMP JUMPDEST PUSH32 0x4E487B7100000000000000000000000000000000000000000000000000000000 PUSH0 MSTORE PUSH1 0x11 PUSH1 0x4 MSTORE PUSH1 0x24 PUSH0 REVERT JUMPDEST PUSH0 PUSH2 0x18B9 DUP3 PUSH2 0x1161 JUMP JUMPDEST SWAP2 POP PUSH2 0x18C4 DUP4 PUSH2 0x1161 JUMP JUMPDEST SWAP3 POP DUP3 DUP3 MUL PUSH2 0x18D2 DUP2 PUSH2 0x1161 JUMP JUMPDEST SWAP2 POP DUP3 DUP3 DIV DUP5 EQ DUP4 ISZERO OR PUSH2 0x18E9 JUMPI PUSH2 0x18E8 PUSH2 0x1882 JUMP JUMPDEST JUMPDEST POP SWAP3 SWAP2 POP POP JUMP JUMPDEST PUSH0 PUSH2 0x18FA DUP3 PUSH2 0x1161 JUMP JUMPDEST SWAP2 POP PUSH2 0x1905 DUP4 PUSH2 0x1161 JUMP JUMPDEST SWAP3 POP DUP3 DUP3 ADD SWAP1 POP DUP1 DUP3 GT ISZERO PUSH2 0x191D JUMPI PUSH2 0x191C PUSH2 0x1882 JUMP JUMPDEST JUMPDEST SWAP3 SWAP2 POP POP JUMP JUMPDEST PUSH32 0x596F752063616E206F6E6C7920636C61696D2061667465722074686520737461 PUSH0 DUP3 ADD MSTORE PUSH32 0x6B696E67206475726174696F6E20686173207061737365640000000000000000 PUSH1 0x20 DUP3 ADD MSTORE POP JUMP JUMPDEST PUSH0 PUSH2 0x197D PUSH1 0x38 DUP4 PUSH2 0x1756 JUMP JUMPDEST SWAP2 POP PUSH2 0x1988 DUP3 PUSH2 0x1923 JUMP JUMPDEST PUSH1 0x40 DUP3 ADD SWAP1 POP SWAP2 SWAP1 POP JUMP JUMPDEST PUSH0 PUSH1 0x20 DUP3 ADD SWAP1 POP DUP2 DUP2 SUB PUSH0 DUP4 ADD MSTORE PUSH2 0x19AA DUP2 PUSH2 0x1971 JUMP JUMPDEST SWAP1 POP SWAP2 SWAP1 POP JUMP JUMPDEST PUSH0 PUSH1 0x40 DUP3 ADD SWAP1 POP PUSH2 0x19C4 PUSH0 DUP4 ADD DUP6 PUSH2 0x157E JUMP JUMPDEST PUSH2 0x19D1 PUSH1 0x20 DUP4 ADD DUP5 PUSH2 0x12A1 JUMP JUMPDEST SWAP4 SWAP3 POP POP POP JUMP JUMPDEST PUSH2 0x19E1 DUP2 PUSH2 0x136B JUMP JUMPDEST DUP2 EQ PUSH2 0x19EB JUMPI PUSH0 DUP1 REVERT JUMPDEST POP JUMP JUMPDEST PUSH0 DUP2 MLOAD SWAP1 POP PUSH2 0x19FC DUP2 PUSH2 0x19D8 JUMP JUMPDEST SWAP3 SWAP2 POP POP JUMP JUMPDEST PUSH0 PUSH1 0x20 DUP3 DUP5 SUB SLT ISZERO PUSH2 0x1A17 JUMPI PUSH2 0x1A16 PUSH2 0x1218 JUMP JUMPDEST JUMPDEST PUSH0 PUSH2 0x1A24 DUP5 DUP3 DUP6 ADD PUSH2 0x19EE JUMP JUMPDEST SWAP2 POP POP SWAP3 SWAP2 POP POP JUMP JUMPDEST PUSH32 0x546F6B656E207472616E73666572206661696C65640000000000000000000000 PUSH0 DUP3 ADD MSTORE POP JUMP JUMPDEST PUSH0 PUSH2 0x1A61 PUSH1 0x15 DUP4 PUSH2 0x1756 JUMP JUMPDEST SWAP2 POP PUSH2 0x1A6C DUP3 PUSH2 0x1A2D JUMP JUMPDEST PUSH1 0x20 DUP3 ADD SWAP1 POP SWAP2 SWAP1 POP JUMP JUMPDEST PUSH0 PUSH1 0x20 DUP3 ADD SWAP1 POP DUP2 DUP2 SUB PUSH0 DUP4 ADD MSTORE PUSH2 0x1A8E DUP2 PUSH2 0x1A55 JUMP JUMPDEST SWAP1 POP SWAP2 SWAP1 POP JUMP JUMPDEST PUSH32 0x416D6F756E74206D7573742062652067726561746572207468616E207A65726F PUSH0 DUP3 ADD MSTORE POP JUMP JUMPDEST PUSH0 PUSH2 0x1AC9 PUSH1 0x20 DUP4 PUSH2 0x1756 JUMP JUMPDEST SWAP2 POP PUSH2 0x1AD4 DUP3 PUSH2 0x1A95 JUMP JUMPDEST PUSH1 0x20 DUP3 ADD SWAP1 POP SWAP2 SWAP1 POP JUMP JUMPDEST PUSH0 PUSH1 0x20 DUP3 ADD SWAP1 POP DUP2 DUP2 SUB PUSH0 DUP4 ADD MSTORE PUSH2 0x1AF6 DUP2 PUSH2 0x1ABD JUMP JUMPDEST SWAP1 POP SWAP2 SWAP1 POP JUMP JUMPDEST PUSH32 0x456E746572204475726174696F6E20696E20666F726D61746520636865636B20 PUSH0 DUP3 ADD MSTORE PUSH32 0x6475726174696F6E000000000000000000000000000000000000000000000000 PUSH1 0x20 DUP3 ADD MSTORE POP JUMP JUMPDEST PUSH0 PUSH2 0x1B57 PUSH1 0x28 DUP4 PUSH2 0x1756 JUMP JUMPDEST SWAP2 POP PUSH2 0x1B62 DUP3 PUSH2 0x1AFD JUMP JUMPDEST PUSH1 0x40 DUP3 ADD SWAP1 POP SWAP2 SWAP1 POP JUMP JUMPDEST PUSH0 PUSH1 0x20 DUP3 ADD SWAP1 POP DUP2 DUP2 SUB PUSH0 DUP4 ADD MSTORE PUSH2 0x1B84 DUP2 PUSH2 0x1B4B JUMP JUMPDEST SWAP1 POP SWAP2 SWAP1 POP JUMP JUMPDEST PUSH0 PUSH1 0x60 DUP3 ADD SWAP1 POP PUSH2 0x1B9E PUSH0 DUP4 ADD DUP7 PUSH2 0x157E JUMP JUMPDEST PUSH2 0x1BAB PUSH1 0x20 DUP4 ADD DUP6 PUSH2 0x157E JUMP JUMPDEST PUSH2 0x1BB8 PUSH1 0x40 DUP4 ADD DUP5 PUSH2 0x12A1 JUMP JUMPDEST SWAP5 SWAP4 POP POP POP POP JUMP JUMPDEST PUSH32 0x596F752063616E206F6E6C7920636C61696D20796F7572206F776E2072657761 PUSH0 DUP3 ADD MSTORE PUSH32 0x7264730000000000000000000000000000000000000000000000000000000000 PUSH1 0x20 DUP3 ADD MSTORE POP JUMP JUMPDEST PUSH0 PUSH2 0x1C1A PUSH1 0x23 DUP4 PUSH2 0x1756 JUMP JUMPDEST SWAP2 POP PUSH2 0x1C25 DUP3 PUSH2 0x1BC0 JUMP JUMPDEST PUSH1 0x40 DUP3 ADD SWAP1 POP SWAP2 SWAP1 POP JUMP JUMPDEST PUSH0 PUSH1 0x20 DUP3 ADD SWAP1 POP DUP2 DUP2 SUB PUSH0 DUP4 ADD MSTORE PUSH2 0x1C47 DUP2 PUSH2 0x1C0E JUMP JUMPDEST SWAP1 POP SWAP2 SWAP1 POP JUMP JUMPDEST PUSH32 0x52657761726420616C726561647920636C61696D656400000000000000000000 PUSH0 DUP3 ADD MSTORE POP JUMP JUMPDEST PUSH0 PUSH2 0x1C82 PUSH1 0x16 DUP4 PUSH2 0x1756 JUMP JUMPDEST SWAP2 POP PUSH2 0x1C8D DUP3 PUSH2 0x1C4E JUMP JUMPDEST PUSH1 0x20 DUP3 ADD SWAP1 POP SWAP2 SWAP1 POP JUMP JUMPDEST PUSH0 PUSH1 0x20 DUP3 ADD SWAP1 POP DUP2 DUP2 SUB PUSH0 DUP4 ADD MSTORE PUSH2 0x1CAF DUP2 PUSH2 0x1C76 JUMP JUMPDEST SWAP1 POP SWAP2 SWAP1 POP JUMP JUMPDEST PUSH0 PUSH2 0x1CC0 DUP3 PUSH2 0x1161 JUMP JUMPDEST SWAP2 POP PUSH2 0x1CCB DUP4 PUSH2 0x1161 JUMP JUMPDEST SWAP3 POP DUP3 DUP3 SUB SWAP1 POP DUP2 DUP2 GT ISZERO PUSH2 0x1CE3 JUMPI PUSH2 0x1CE2 PUSH2 0x1882 JUMP JUMPDEST JUMPDEST SWAP3 SWAP2 POP POP JUMP INVALID LOG2 PUSH5 0x6970667358 0x22 SLT KECCAK256 RETURNDATACOPY GASPRICE PUSH24 0x3A39FE0D77236FB576FABFC304716AD5BD708D462B92B2EA PUSH5 0xD825430864 PUSH20 0x6F6C634300081500330000000000000000000000 "
				},
				"gasEstimates": {
					"creation": {
						"codeDepositCost": "1491000",
						"executionCost": "infinite",
						"totalCost": "infinite"
					},
					"external": {
						"ClaimReward(uint256)": "infinite",
						"ViewDetail(address)": "infinite",
						"calculateReward(uint256)": "infinite",
						"check_duration()": "infinite",
						"chkid(uint256)": "infinite",
						"cid(uint256)": "infinite",
						"claimStakedAmount(uint256)": "infinite",
						"getBal(address)": "infinite",
						"owner()": "infinite",
						"stakenow(uint256,uint256)": "infinite",
						"token()": "infinite",
						"userStakes(address,uint256)": "infinite"
					}
				},
				"methodIdentifiers": {
					"ClaimReward(uint256)": "92ceb12d",
					"ViewDetail(address)": "5ee0d9b4",
					"calculateReward(uint256)": "d2d7231f",
					"check_duration()": "0b46ba99",
					"chkid(uint256)": "c9757417",
					"cid(uint256)": "b0c479a5",
					"claimStakedAmount(uint256)": "41324ec5",
					"getBal(address)": "2fa78085",
					"owner()": "8da5cb5b",
					"stakenow(uint256,uint256)": "47c4d742",
					"token()": "fc0c546a",
					"userStakes(address,uint256)": "b5d5b5fa"
				}
			},
			"storageLayout": {
				"storage": [
					{
						"astId": 1042,
						"contract": "NewStakeing.sol:MyStakingContract",
						"label": "tokenIdCounter",
						"offset": 0,
						"slot": "0",
						"type": "t_struct(Counter)931_storage"
					},
					{
						"astId": 1056,
						"contract": "NewStakeing.sol:MyStakingContract",
						"label": "time",
						"offset": 0,
						"slot": "1",
						"type": "t_array(t_uint256)dyn_storage"
					},
					{
						"astId": 1095,
						"contract": "NewStakeing.sol:MyStakingContract",
						"label": "userStakes",
						"offset": 0,
						"slot": "2",
						"type": "t_mapping(t_address,t_array(t_struct(Stake)1089_storage)dyn_storage)"
					},
					{
						"astId": 1100,
						"contract": "NewStakeing.sol:MyStakingContract",
						"label": "cid",
						"offset": 0,
						"slot": "3",
						"type": "t_mapping(t_uint256,t_struct(Stake)1089_storage)"
					}
				],
				"types": {
					"t_address": {
						"encoding": "inplace",
						"label": "address",
						"numberOfBytes": "20"
					},
					"t_array(t_struct(Stake)1089_storage)dyn_storage": {
						"base": "t_struct(Stake)1089_storage",
						"encoding": "dynamic_array",
						"label": "struct MyStakingContract.Stake[]",
						"numberOfBytes": "32"
					},
					"t_array(t_uint256)dyn_storage": {
						"base": "t_uint256",
						"encoding": "dynamic_array",
						"label": "uint256[]",
						"numberOfBytes": "32"
					},
					"t_bool": {
						"encoding": "inplace",
						"label": "bool",
						"numberOfBytes": "1"
					},
					"t_mapping(t_address,t_array(t_struct(Stake)1089_storage)dyn_storage)": {
						"encoding": "mapping",
						"key": "t_address",
						"label": "mapping(address => struct MyStakingContract.Stake[])",
						"numberOfBytes": "32",
						"value": "t_array(t_struct(Stake)1089_storage)dyn_storage"
					},
					"t_mapping(t_uint256,t_struct(Stake)1089_storage)": {
						"encoding": "mapping",
						"key": "t_uint256",
						"label": "mapping(uint256 => struct MyStakingContract.Stake)",
						"numberOfBytes": "32",
						"value": "t_struct(Stake)1089_storage"
					},
					"t_struct(Counter)931_storage": {
						"encoding": "inplace",
						"label": "struct Counters.Counter",
						"members": [
							{
								"astId": 930,
								"contract": "NewStakeing.sol:MyStakingContract",
								"label": "_value",
								"offset": 0,
								"slot": "0",
								"type": "t_uint256"
							}
						],
						"numberOfBytes": "32"
					},
					"t_struct(Stake)1089_storage": {
						"encoding": "inplace",
						"label": "struct MyStakingContract.Stake",
						"members": [
							{
								"astId": 1076,
								"contract": "NewStakeing.sol:MyStakingContract",
								"label": "tokenIdc",
								"offset": 0,
								"slot": "0",
								"type": "t_uint256"
							},
							{
								"astId": 1078,
								"contract": "NewStakeing.sol:MyStakingContract",
								"label": "amount",
								"offset": 0,
								"slot": "1",
								"type": "t_uint256"
							},
							{
								"astId": 1080,
								"contract": "NewStakeing.sol:MyStakingContract",
								"label": "duration",
								"offset": 0,
								"slot": "2",
								"type": "t_uint256"
							},
							{
								"astId": 1082,
								"contract": "NewStakeing.sol:MyStakingContract",
								"label": "startTime",
								"offset": 0,
								"slot": "3",
								"type": "t_uint256"
							},
							{
								"astId": 1084,
								"contract": "NewStakeing.sol:MyStakingContract",
								"label": "userads",
								"offset": 0,
								"slot": "4",
								"type": "t_address"
							},
							{
								"astId": 1086,
								"contract": "NewStakeing.sol:MyStakingContract",
								"label": "isClaimed",
								"offset": 20,
								"slot": "4",
								"type": "t_bool"
							},
							{
								"astId": 1088,
								"contract": "NewStakeing.sol:MyStakingContract",
								"label": "isAmountc",
								"offset": 21,
								"slot": "4",
								"type": "t_bool"
							}
						],
						"numberOfBytes": "160"
					},
					"t_uint256": {
						"encoding": "inplace",
						"label": "uint256",
						"numberOfBytes": "32"
					}
				}
			},
			"userdoc": {
				"kind": "user",
				"methods": {},
				"notice": "Explain to an end user what this does",
				"version": 1
			}
		}
	}
}