{
	"mycontract.sol": {
		"DelegatedWithdrawal": {
			"abi": [
				{
					"inputs": [
						{
							"internalType": "address",
							"name": "_delegatorAddress",
							"type": "address"
						}
					],
					"stateMutability": "nonpayable",
					"type": "constructor"
				},
				{
					"inputs": [],
					"name": "delegatorContract",
					"outputs": [
						{
							"internalType": "contract Delegator",
							"name": "",
							"type": "address"
						}
					],
					"stateMutability": "view",
					"type": "function"
				},
				{
					"inputs": [],
					"name": "deposit",
					"outputs": [],
					"stateMutability": "payable",
					"type": "function"
				},
				{
					"inputs": [],
					"name": "getBalance",
					"outputs": [
						{
							"internalType": "uint256",
							"name": "",
							"type": "uint256"
						}
					],
					"stateMutability": "view",
					"type": "function"
				},
				{
					"inputs": [
						{
							"internalType": "uint256",
							"name": "amount",
							"type": "uint256"
						}
					],
					"name": "initiateWithdrawal",
					"outputs": [],
					"stateMutability": "nonpayable",
					"type": "function"
				},
				{
					"inputs": [
						{
							"internalType": "uint256",
							"name": "amount",
							"type": "uint256"
						}
					],
					"name": "withdraw",
					"outputs": [],
					"stateMutability": "nonpayable",
					"type": "function"
				}
			],
			"devdoc": {
				"kind": "dev",
				"methods": {},
				"version": 1
			},
			"evm": {
				"assembly": "    /* \"mycontract.sol\":123:1572  contract DelegatedWithdrawal {... */\n  mstore(0x40, 0x80)\n    /* \"mycontract.sol\":202:362  constructor(address _delegatorAddress) {... */\n  callvalue\n  dup1\n  iszero\n  tag_1\n  jumpi\n  0x00\n  dup1\n  revert\ntag_1:\n  pop\n  mload(0x40)\n  sub(codesize, bytecodeSize)\n  dup1\n  bytecodeSize\n  dup4\n  codecopy\n  dup2\n  dup2\n  add\n  0x40\n  mstore\n  dup2\n  add\n  swap1\n  tag_2\n  swap2\n  swap1\n  tag_3\n  jump\t// in\ntag_2:\n    /* \"mycontract.sol\":336:353  _delegatorAddress */\n  dup1\n    /* \"mycontract.sol\":306:323  delegatorContract */\n  0x00\n  dup1\n    /* \"mycontract.sol\":306:354  delegatorContract = Delegator(_delegatorAddress) */\n  0x0100\n  exp\n  dup2\n  sload\n  dup2\n  0xffffffffffffffffffffffffffffffffffffffff\n  mul\n  not\n  and\n  swap1\n  dup4\n  0xffffffffffffffffffffffffffffffffffffffff\n  and\n  mul\n  or\n  swap1\n  sstore\n  pop\n    /* \"mycontract.sol\":202:362  constructor(address _delegatorAddress) {... */\n  pop\n    /* \"mycontract.sol\":123:1572  contract DelegatedWithdrawal {... */\n  jump(tag_6)\n    /* \"#utility.yul\":88:205   */\ntag_8:\n    /* \"#utility.yul\":197:198   */\n  0x00\n    /* \"#utility.yul\":194:195   */\n  dup1\n    /* \"#utility.yul\":187:199   */\n  revert\n    /* \"#utility.yul\":334:460   */\ntag_10:\n    /* \"#utility.yul\":371:378   */\n  0x00\n    /* \"#utility.yul\":411:453   */\n  0xffffffffffffffffffffffffffffffffffffffff\n    /* \"#utility.yul\":404:409   */\n  dup3\n    /* \"#utility.yul\":400:454   */\n  and\n    /* \"#utility.yul\":389:454   */\n  swap1\n  pop\n    /* \"#utility.yul\":334:460   */\n  swap2\n  swap1\n  pop\n  jump\t// out\n    /* \"#utility.yul\":466:562   */\ntag_11:\n    /* \"#utility.yul\":503:510   */\n  0x00\n    /* \"#utility.yul\":532:556   */\n  tag_20\n    /* \"#utility.yul\":550:555   */\n  dup3\n    /* \"#utility.yul\":532:556   */\n  tag_10\n  jump\t// in\ntag_20:\n    /* \"#utility.yul\":521:556   */\n  swap1\n  pop\n    /* \"#utility.yul\":466:562   */\n  swap2\n  swap1\n  pop\n  jump\t// out\n    /* \"#utility.yul\":568:690   */\ntag_12:\n    /* \"#utility.yul\":641:665   */\n  tag_22\n    /* \"#utility.yul\":659:664   */\n  dup2\n    /* \"#utility.yul\":641:665   */\n  tag_11\n  jump\t// in\ntag_22:\n    /* \"#utility.yul\":634:639   */\n  dup2\n    /* \"#utility.yul\":631:666   */\n  eq\n    /* \"#utility.yul\":621:684   */\n  tag_23\n  jumpi\n    /* \"#utility.yul\":680:681   */\n  0x00\n    /* \"#utility.yul\":677:678   */\n  dup1\n    /* \"#utility.yul\":670:682   */\n  revert\n    /* \"#utility.yul\":621:684   */\ntag_23:\n    /* \"#utility.yul\":568:690   */\n  pop\n  jump\t// out\n    /* \"#utility.yul\":696:839   */\ntag_13:\n    /* \"#utility.yul\":753:758   */\n  0x00\n    /* \"#utility.yul\":784:790   */\n  dup2\n    /* \"#utility.yul\":778:791   */\n  mload\n    /* \"#utility.yul\":769:791   */\n  swap1\n  pop\n    /* \"#utility.yul\":800:833   */\n  tag_25\n    /* \"#utility.yul\":827:832   */\n  dup2\n    /* \"#utility.yul\":800:833   */\n  tag_12\n  jump\t// in\ntag_25:\n    /* \"#utility.yul\":696:839   */\n  swap3\n  swap2\n  pop\n  pop\n  jump\t// out\n    /* \"#utility.yul\":845:1196   */\ntag_3:\n    /* \"#utility.yul\":915:921   */\n  0x00\n    /* \"#utility.yul\":964:966   */\n  0x20\n    /* \"#utility.yul\":952:961   */\n  dup3\n    /* \"#utility.yul\":943:950   */\n  dup5\n    /* \"#utility.yul\":939:962   */\n  sub\n    /* \"#utility.yul\":935:967   */\n  slt\n    /* \"#utility.yul\":932:1051   */\n  iszero\n  tag_27\n  jumpi\n    /* \"#utility.yul\":970:1049   */\n  tag_28\n  tag_8\n  jump\t// in\ntag_28:\n    /* \"#utility.yul\":932:1051   */\ntag_27:\n    /* \"#utility.yul\":1090:1091   */\n  0x00\n    /* \"#utility.yul\":1115:1179   */\n  tag_29\n    /* \"#utility.yul\":1171:1178   */\n  dup5\n    /* \"#utility.yul\":1162:1168   */\n  dup3\n    /* \"#utility.yul\":1151:1160   */\n  dup6\n    /* \"#utility.yul\":1147:1169   */\n  add\n    /* \"#utility.yul\":1115:1179   */\n  tag_13\n  jump\t// in\ntag_29:\n    /* \"#utility.yul\":1105:1179   */\n  swap2\n  pop\n    /* \"#utility.yul\":1061:1189   */\n  pop\n    /* \"#utility.yul\":845:1196   */\n  swap3\n  swap2\n  pop\n  pop\n  jump\t// out\n    /* \"mycontract.sol\":123:1572  contract DelegatedWithdrawal {... */\ntag_6:\n  dataSize(sub_0)\n  dup1\n  dataOffset(sub_0)\n  0x00\n  codecopy\n  0x00\n  return\nstop\n\nsub_0: assembly {\n        /* \"mycontract.sol\":123:1572  contract DelegatedWithdrawal {... */\n      mstore(0x40, 0x80)\n      jumpi(tag_1, lt(calldatasize, 0x04))\n      shr(0xe0, calldataload(0x00))\n      dup1\n      0x12065fe0\n      eq\n      tag_2\n      jumpi\n      dup1\n      0x12edde5e\n      eq\n      tag_3\n      jumpi\n      dup1\n      0x2e1a7d4d\n      eq\n      tag_4\n      jumpi\n      dup1\n      0x4014a07c\n      eq\n      tag_5\n      jumpi\n      dup1\n      0xd0e30db0\n      eq\n      tag_6\n      jumpi\n    tag_1:\n      0x00\n      dup1\n      revert\n        /* \"mycontract.sol\":1468:1569  function getBalance() external view returns (uint256) {... */\n    tag_2:\n      callvalue\n      dup1\n      iszero\n      tag_7\n      jumpi\n      0x00\n      dup1\n      revert\n    tag_7:\n      pop\n      tag_8\n      tag_9\n      jump\t// in\n    tag_8:\n      mload(0x40)\n      tag_10\n      swap2\n      swap1\n      tag_11\n      jump\t// in\n    tag_10:\n      mload(0x40)\n      dup1\n      swap2\n      sub\n      swap1\n      return\n        /* \"mycontract.sol\":557:1014  function initiateWithdrawal(uint256 amount) external {... */\n    tag_3:\n      callvalue\n      dup1\n      iszero\n      tag_12\n      jumpi\n      0x00\n      dup1\n      revert\n    tag_12:\n      pop\n      tag_13\n      0x04\n      dup1\n      calldatasize\n      sub\n      dup2\n      add\n      swap1\n      tag_14\n      swap2\n      swap1\n      tag_15\n      jump\t// in\n    tag_14:\n      tag_16\n      jump\t// in\n    tag_13:\n      stop\n        /* \"mycontract.sol\":1096:1411  function withdraw(uint256 amount) external {... */\n    tag_4:\n      callvalue\n      dup1\n      iszero\n      tag_17\n      jumpi\n      0x00\n      dup1\n      revert\n    tag_17:\n      pop\n      tag_18\n      0x04\n      dup1\n      calldatasize\n      sub\n      dup2\n      add\n      swap1\n      tag_19\n      swap2\n      swap1\n      tag_15\n      jump\t// in\n    tag_19:\n      tag_20\n      jump\t// in\n    tag_18:\n      stop\n        /* \"mycontract.sol\":159:193  Delegator public delegatorContract */\n    tag_5:\n      callvalue\n      dup1\n      iszero\n      tag_21\n      jumpi\n      0x00\n      dup1\n      revert\n    tag_21:\n      pop\n      tag_22\n      tag_23\n      jump\t// in\n    tag_22:\n      mload(0x40)\n      tag_24\n      swap2\n      swap1\n      tag_25\n      jump\t// in\n    tag_24:\n      mload(0x40)\n      dup1\n      swap2\n      sub\n      swap1\n      return\n        /* \"mycontract.sol\":404:479  function deposit() external payable {... */\n    tag_6:\n      tag_26\n      tag_27\n      jump\t// in\n    tag_26:\n      stop\n        /* \"mycontract.sol\":1468:1569  function getBalance() external view returns (uint256) {... */\n    tag_9:\n        /* \"mycontract.sol\":1513:1520  uint256 */\n      0x00\n        /* \"mycontract.sol\":1540:1561  address(this).balance */\n      selfbalance\n        /* \"mycontract.sol\":1533:1561  return address(this).balance */\n      swap1\n      pop\n        /* \"mycontract.sol\":1468:1569  function getBalance() external view returns (uint256) {... */\n      swap1\n      jump\t// out\n        /* \"mycontract.sol\":557:1014  function initiateWithdrawal(uint256 amount) external {... */\n    tag_16:\n        /* \"mycontract.sol\":698:719  address(this).balance */\n      selfbalance\n        /* \"mycontract.sol\":688:694  amount */\n      dup2\n        /* \"mycontract.sol\":688:719  amount <= address(this).balance */\n      gt\n      iszero\n        /* \"mycontract.sol\":680:744  require(amount <= address(this).balance, \"Insufficient balance\") */\n      tag_30\n      jumpi\n      mload(0x40)\n      0x08c379a000000000000000000000000000000000000000000000000000000000\n      dup2\n      mstore\n      0x04\n      add\n      tag_31\n      swap1\n      tag_32\n      jump\t// in\n    tag_31:\n      mload(0x40)\n      dup1\n      swap2\n      sub\n      swap1\n      revert\n    tag_30:\n        /* \"mycontract.sol\":815:832  bytes memory data */\n      0x00\n        /* \"mycontract.sol\":880:886  amount */\n      dup2\n        /* \"mycontract.sol\":835:887  abi.encodeWithSignature(\"withdraw(uint256)\", amount) */\n      add(0x24, mload(0x40))\n      tag_33\n      swap2\n      swap1\n      tag_11\n      jump\t// in\n    tag_33:\n      mload(0x40)\n      0x20\n      dup2\n      dup4\n      sub\n      sub\n      dup2\n      mstore\n      swap1\n      0x40\n      mstore\n      and(not(0xffffffffffffffffffffffffffffffffffffffffffffffffffffffff), 0x2e1a7d4d00000000000000000000000000000000000000000000000000000000)\n      0x20\n      dup3\n      add\n      dup1\n      mload\n      0xffffffffffffffffffffffffffffffffffffffffffffffffffffffff\n      dup4\n      dup2\n      dup4\n      and\n      or\n      dup4\n      mstore\n      pop\n      pop\n      pop\n      pop\n        /* \"mycontract.sol\":815:887  bytes memory data = abi.encodeWithSignature(\"withdraw(uint256)\", amount) */\n      swap1\n      pop\n        /* \"mycontract.sol\":946:963  delegatorContract */\n      0x00\n      dup1\n      sload\n      swap1\n      0x0100\n      exp\n      swap1\n      div\n      0xffffffffffffffffffffffffffffffffffffffff\n      and\n        /* \"mycontract.sol\":946:982  delegatorContract.executeTransaction */\n      0xffffffffffffffffffffffffffffffffffffffff\n      and\n      0x3f579f42\n        /* \"mycontract.sol\":991:995  this */\n      address\n        /* \"mycontract.sol\":998:999  0 */\n      0x00\n        /* \"mycontract.sol\":1001:1005  data */\n      dup5\n        /* \"mycontract.sol\":946:1006  delegatorContract.executeTransaction(address(this), 0, data) */\n      mload(0x40)\n      dup5\n      0xffffffff\n      and\n      0xe0\n      shl\n      dup2\n      mstore\n      0x04\n      add\n      tag_34\n      swap4\n      swap3\n      swap2\n      swap1\n      tag_35\n      jump\t// in\n    tag_34:\n      0x00\n      mload(0x40)\n      dup1\n      dup4\n      sub\n      dup2\n      0x00\n      dup8\n      dup1\n      extcodesize\n      iszero\n      dup1\n      iszero\n      tag_36\n      jumpi\n      0x00\n      dup1\n      revert\n    tag_36:\n      pop\n      gas\n      call\n      iszero\n      dup1\n      iszero\n      tag_38\n      jumpi\n      returndatasize\n      0x00\n      dup1\n      returndatacopy\n      revert(0x00, returndatasize)\n    tag_38:\n      pop\n      pop\n      pop\n      pop\n        /* \"mycontract.sol\":610:1014  {... */\n      pop\n        /* \"mycontract.sol\":557:1014  function initiateWithdrawal(uint256 amount) external {... */\n      pop\n      jump\t// out\n        /* \"mycontract.sol\":1096:1411  function withdraw(uint256 amount) external {... */\n    tag_20:\n        /* \"mycontract.sol\":1255:1272  delegatorContract */\n      0x00\n      dup1\n      sload\n      swap1\n      0x0100\n      exp\n      swap1\n      div\n      0xffffffffffffffffffffffffffffffffffffffff\n      and\n        /* \"mycontract.sol\":1233:1273  msg.sender == address(delegatorContract) */\n      0xffffffffffffffffffffffffffffffffffffffff\n      and\n        /* \"mycontract.sol\":1233:1243  msg.sender */\n      caller\n        /* \"mycontract.sol\":1233:1273  msg.sender == address(delegatorContract) */\n      0xffffffffffffffffffffffffffffffffffffffff\n      and\n      eq\n        /* \"mycontract.sol\":1225:1319  require(msg.sender == address(delegatorContract), \"Only the Delegator can call this function\") */\n      tag_40\n      jumpi\n      mload(0x40)\n      0x08c379a000000000000000000000000000000000000000000000000000000000\n      dup2\n      mstore\n      0x04\n      add\n      tag_41\n      swap1\n      tag_42\n      jump\t// in\n    tag_41:\n      mload(0x40)\n      dup1\n      swap2\n      sub\n      swap1\n      revert\n    tag_40:\n        /* \"mycontract.sol\":1375:1385  msg.sender */\n      caller\n        /* \"mycontract.sol\":1367:1395  payable(msg.sender).transfer */\n      0xffffffffffffffffffffffffffffffffffffffff\n      and\n        /* \"mycontract.sol\":1367:1403  payable(msg.sender).transfer(amount) */\n      0x08fc\n        /* \"mycontract.sol\":1396:1402  amount */\n      dup3\n        /* \"mycontract.sol\":1367:1403  payable(msg.sender).transfer(amount) */\n      swap1\n      dup2\n      iszero\n      mul\n      swap1\n      mload(0x40)\n      0x00\n      mload(0x40)\n      dup1\n      dup4\n      sub\n      dup2\n      dup6\n      dup9\n      dup9\n      call\n      swap4\n      pop\n      pop\n      pop\n      pop\n      iszero\n      dup1\n      iszero\n      tag_44\n      jumpi\n      returndatasize\n      0x00\n      dup1\n      returndatacopy\n      revert(0x00, returndatasize)\n    tag_44:\n      pop\n        /* \"mycontract.sol\":1096:1411  function withdraw(uint256 amount) external {... */\n      pop\n      jump\t// out\n        /* \"mycontract.sol\":159:193  Delegator public delegatorContract */\n    tag_23:\n      0x00\n      dup1\n      sload\n      swap1\n      0x0100\n      exp\n      swap1\n      div\n      0xffffffffffffffffffffffffffffffffffffffff\n      and\n      dup2\n      jump\t// out\n        /* \"mycontract.sol\":404:479  function deposit() external payable {... */\n    tag_27:\n      jump\t// out\n        /* \"#utility.yul\":7:84   */\n    tag_46:\n        /* \"#utility.yul\":44:51   */\n      0x00\n        /* \"#utility.yul\":73:78   */\n      dup2\n        /* \"#utility.yul\":62:78   */\n      swap1\n      pop\n        /* \"#utility.yul\":7:84   */\n      swap2\n      swap1\n      pop\n      jump\t// out\n        /* \"#utility.yul\":90:208   */\n    tag_47:\n        /* \"#utility.yul\":177:201   */\n      tag_77\n        /* \"#utility.yul\":195:200   */\n      dup2\n        /* \"#utility.yul\":177:201   */\n      tag_46\n      jump\t// in\n    tag_77:\n        /* \"#utility.yul\":172:175   */\n      dup3\n        /* \"#utility.yul\":165:202   */\n      mstore\n        /* \"#utility.yul\":90:208   */\n      pop\n      pop\n      jump\t// out\n        /* \"#utility.yul\":214:436   */\n    tag_11:\n        /* \"#utility.yul\":307:311   */\n      0x00\n        /* \"#utility.yul\":345:347   */\n      0x20\n        /* \"#utility.yul\":334:343   */\n      dup3\n        /* \"#utility.yul\":330:348   */\n      add\n        /* \"#utility.yul\":322:348   */\n      swap1\n      pop\n        /* \"#utility.yul\":358:429   */\n      tag_79\n        /* \"#utility.yul\":426:427   */\n      0x00\n        /* \"#utility.yul\":415:424   */\n      dup4\n        /* \"#utility.yul\":411:428   */\n      add\n        /* \"#utility.yul\":402:408   */\n      dup5\n        /* \"#utility.yul\":358:429   */\n      tag_47\n      jump\t// in\n    tag_79:\n        /* \"#utility.yul\":214:436   */\n      swap3\n      swap2\n      pop\n      pop\n      jump\t// out\n        /* \"#utility.yul\":523:640   */\n    tag_49:\n        /* \"#utility.yul\":632:633   */\n      0x00\n        /* \"#utility.yul\":629:630   */\n      dup1\n        /* \"#utility.yul\":622:634   */\n      revert\n        /* \"#utility.yul\":769:891   */\n    tag_51:\n        /* \"#utility.yul\":842:866   */\n      tag_84\n        /* \"#utility.yul\":860:865   */\n      dup2\n        /* \"#utility.yul\":842:866   */\n      tag_46\n      jump\t// in\n    tag_84:\n        /* \"#utility.yul\":835:840   */\n      dup2\n        /* \"#utility.yul\":832:867   */\n      eq\n        /* \"#utility.yul\":822:885   */\n      tag_85\n      jumpi\n        /* \"#utility.yul\":881:882   */\n      0x00\n        /* \"#utility.yul\":878:879   */\n      dup1\n        /* \"#utility.yul\":871:883   */\n      revert\n        /* \"#utility.yul\":822:885   */\n    tag_85:\n        /* \"#utility.yul\":769:891   */\n      pop\n      jump\t// out\n        /* \"#utility.yul\":897:1036   */\n    tag_52:\n        /* \"#utility.yul\":943:948   */\n      0x00\n        /* \"#utility.yul\":981:987   */\n      dup2\n        /* \"#utility.yul\":968:988   */\n      calldataload\n        /* \"#utility.yul\":959:988   */\n      swap1\n      pop\n        /* \"#utility.yul\":997:1030   */\n      tag_87\n        /* \"#utility.yul\":1024:1029   */\n      dup2\n        /* \"#utility.yul\":997:1030   */\n      tag_51\n      jump\t// in\n    tag_87:\n        /* \"#utility.yul\":897:1036   */\n      swap3\n      swap2\n      pop\n      pop\n      jump\t// out\n        /* \"#utility.yul\":1042:1371   */\n    tag_15:\n        /* \"#utility.yul\":1101:1107   */\n      0x00\n        /* \"#utility.yul\":1150:1152   */\n      0x20\n        /* \"#utility.yul\":1138:1147   */\n      dup3\n        /* \"#utility.yul\":1129:1136   */\n      dup5\n        /* \"#utility.yul\":1125:1148   */\n      sub\n        /* \"#utility.yul\":1121:1153   */\n      slt\n        /* \"#utility.yul\":1118:1237   */\n      iszero\n      tag_89\n      jumpi\n        /* \"#utility.yul\":1156:1235   */\n      tag_90\n      tag_49\n      jump\t// in\n    tag_90:\n        /* \"#utility.yul\":1118:1237   */\n    tag_89:\n        /* \"#utility.yul\":1276:1277   */\n      0x00\n        /* \"#utility.yul\":1301:1354   */\n      tag_91\n        /* \"#utility.yul\":1346:1353   */\n      dup5\n        /* \"#utility.yul\":1337:1343   */\n      dup3\n        /* \"#utility.yul\":1326:1335   */\n      dup6\n        /* \"#utility.yul\":1322:1344   */\n      add\n        /* \"#utility.yul\":1301:1354   */\n      tag_52\n      jump\t// in\n    tag_91:\n        /* \"#utility.yul\":1291:1354   */\n      swap2\n      pop\n        /* \"#utility.yul\":1247:1364   */\n      pop\n        /* \"#utility.yul\":1042:1371   */\n      swap3\n      swap2\n      pop\n      pop\n      jump\t// out\n        /* \"#utility.yul\":1377:1503   */\n    tag_53:\n        /* \"#utility.yul\":1414:1421   */\n      0x00\n        /* \"#utility.yul\":1454:1496   */\n      0xffffffffffffffffffffffffffffffffffffffff\n        /* \"#utility.yul\":1447:1452   */\n      dup3\n        /* \"#utility.yul\":1443:1497   */\n      and\n        /* \"#utility.yul\":1432:1497   */\n      swap1\n      pop\n        /* \"#utility.yul\":1377:1503   */\n      swap2\n      swap1\n      pop\n      jump\t// out\n        /* \"#utility.yul\":1509:1569   */\n    tag_54:\n        /* \"#utility.yul\":1537:1540   */\n      0x00\n        /* \"#utility.yul\":1558:1563   */\n      dup2\n        /* \"#utility.yul\":1551:1563   */\n      swap1\n      pop\n        /* \"#utility.yul\":1509:1569   */\n      swap2\n      swap1\n      pop\n      jump\t// out\n        /* \"#utility.yul\":1575:1717   */\n    tag_55:\n        /* \"#utility.yul\":1625:1634   */\n      0x00\n        /* \"#utility.yul\":1658:1711   */\n      tag_95\n        /* \"#utility.yul\":1676:1710   */\n      tag_96\n        /* \"#utility.yul\":1685:1709   */\n      tag_97\n        /* \"#utility.yul\":1703:1708   */\n      dup5\n        /* \"#utility.yul\":1685:1709   */\n      tag_53\n      jump\t// in\n    tag_97:\n        /* \"#utility.yul\":1676:1710   */\n      tag_54\n      jump\t// in\n    tag_96:\n        /* \"#utility.yul\":1658:1711   */\n      tag_53\n      jump\t// in\n    tag_95:\n        /* \"#utility.yul\":1645:1711   */\n      swap1\n      pop\n        /* \"#utility.yul\":1575:1717   */\n      swap2\n      swap1\n      pop\n      jump\t// out\n        /* \"#utility.yul\":1723:1849   */\n    tag_56:\n        /* \"#utility.yul\":1773:1782   */\n      0x00\n        /* \"#utility.yul\":1806:1843   */\n      tag_99\n        /* \"#utility.yul\":1837:1842   */\n      dup3\n        /* \"#utility.yul\":1806:1843   */\n      tag_55\n      jump\t// in\n    tag_99:\n        /* \"#utility.yul\":1793:1843   */\n      swap1\n      pop\n        /* \"#utility.yul\":1723:1849   */\n      swap2\n      swap1\n      pop\n      jump\t// out\n        /* \"#utility.yul\":1855:1997   */\n    tag_57:\n        /* \"#utility.yul\":1921:1930   */\n      0x00\n        /* \"#utility.yul\":1954:1991   */\n      tag_101\n        /* \"#utility.yul\":1985:1990   */\n      dup3\n        /* \"#utility.yul\":1954:1991   */\n      tag_56\n      jump\t// in\n    tag_101:\n        /* \"#utility.yul\":1941:1991   */\n      swap1\n      pop\n        /* \"#utility.yul\":1855:1997   */\n      swap2\n      swap1\n      pop\n      jump\t// out\n        /* \"#utility.yul\":2003:2166   */\n    tag_58:\n        /* \"#utility.yul\":2106:2159   */\n      tag_103\n        /* \"#utility.yul\":2153:2158   */\n      dup2\n        /* \"#utility.yul\":2106:2159   */\n      tag_57\n      jump\t// in\n    tag_103:\n        /* \"#utility.yul\":2101:2104   */\n      dup3\n        /* \"#utility.yul\":2094:2160   */\n      mstore\n        /* \"#utility.yul\":2003:2166   */\n      pop\n      pop\n      jump\t// out\n        /* \"#utility.yul\":2172:2426   */\n    tag_25:\n        /* \"#utility.yul\":2281:2285   */\n      0x00\n        /* \"#utility.yul\":2319:2321   */\n      0x20\n        /* \"#utility.yul\":2308:2317   */\n      dup3\n        /* \"#utility.yul\":2304:2322   */\n      add\n        /* \"#utility.yul\":2296:2322   */\n      swap1\n      pop\n        /* \"#utility.yul\":2332:2419   */\n      tag_105\n        /* \"#utility.yul\":2416:2417   */\n      0x00\n        /* \"#utility.yul\":2405:2414   */\n      dup4\n        /* \"#utility.yul\":2401:2418   */\n      add\n        /* \"#utility.yul\":2392:2398   */\n      dup5\n        /* \"#utility.yul\":2332:2419   */\n      tag_58\n      jump\t// in\n    tag_105:\n        /* \"#utility.yul\":2172:2426   */\n      swap3\n      swap2\n      pop\n      pop\n      jump\t// out\n        /* \"#utility.yul\":2432:2601   */\n    tag_59:\n        /* \"#utility.yul\":2516:2527   */\n      0x00\n        /* \"#utility.yul\":2550:2556   */\n      dup3\n        /* \"#utility.yul\":2545:2548   */\n      dup3\n        /* \"#utility.yul\":2538:2557   */\n      mstore\n        /* \"#utility.yul\":2590:2594   */\n      0x20\n        /* \"#utility.yul\":2585:2588   */\n      dup3\n        /* \"#utility.yul\":2581:2595   */\n      add\n        /* \"#utility.yul\":2566:2595   */\n      swap1\n      pop\n        /* \"#utility.yul\":2432:2601   */\n      swap3\n      swap2\n      pop\n      pop\n      jump\t// out\n        /* \"#utility.yul\":2607:2777   */\n    tag_60:\n        /* \"#utility.yul\":2747:2769   */\n      0x496e73756666696369656e742062616c616e6365000000000000000000000000\n        /* \"#utility.yul\":2743:2744   */\n      0x00\n        /* \"#utility.yul\":2735:2741   */\n      dup3\n        /* \"#utility.yul\":2731:2745   */\n      add\n        /* \"#utility.yul\":2724:2770   */\n      mstore\n        /* \"#utility.yul\":2607:2777   */\n      pop\n      jump\t// out\n        /* \"#utility.yul\":2783:3149   */\n    tag_61:\n        /* \"#utility.yul\":2925:2928   */\n      0x00\n        /* \"#utility.yul\":2946:3013   */\n      tag_109\n        /* \"#utility.yul\":3010:3012   */\n      0x14\n        /* \"#utility.yul\":3005:3008   */\n      dup4\n        /* \"#utility.yul\":2946:3013   */\n      tag_59\n      jump\t// in\n    tag_109:\n        /* \"#utility.yul\":2939:3013   */\n      swap2\n      pop\n        /* \"#utility.yul\":3022:3115   */\n      tag_110\n        /* \"#utility.yul\":3111:3114   */\n      dup3\n        /* \"#utility.yul\":3022:3115   */\n      tag_60\n      jump\t// in\n    tag_110:\n        /* \"#utility.yul\":3140:3142   */\n      0x20\n        /* \"#utility.yul\":3135:3138   */\n      dup3\n        /* \"#utility.yul\":3131:3143   */\n      add\n        /* \"#utility.yul\":3124:3143   */\n      swap1\n      pop\n        /* \"#utility.yul\":2783:3149   */\n      swap2\n      swap1\n      pop\n      jump\t// out\n        /* \"#utility.yul\":3155:3574   */\n    tag_32:\n        /* \"#utility.yul\":3321:3325   */\n      0x00\n        /* \"#utility.yul\":3359:3361   */\n      0x20\n        /* \"#utility.yul\":3348:3357   */\n      dup3\n        /* \"#utility.yul\":3344:3362   */\n      add\n        /* \"#utility.yul\":3336:3362   */\n      swap1\n      pop\n        /* \"#utility.yul\":3408:3417   */\n      dup2\n        /* \"#utility.yul\":3402:3406   */\n      dup2\n        /* \"#utility.yul\":3398:3418   */\n      sub\n        /* \"#utility.yul\":3394:3395   */\n      0x00\n        /* \"#utility.yul\":3383:3392   */\n      dup4\n        /* \"#utility.yul\":3379:3396   */\n      add\n        /* \"#utility.yul\":3372:3419   */\n      mstore\n        /* \"#utility.yul\":3436:3567   */\n      tag_112\n        /* \"#utility.yul\":3562:3566   */\n      dup2\n        /* \"#utility.yul\":3436:3567   */\n      tag_61\n      jump\t// in\n    tag_112:\n        /* \"#utility.yul\":3428:3567   */\n      swap1\n      pop\n        /* \"#utility.yul\":3155:3574   */\n      swap2\n      swap1\n      pop\n      jump\t// out\n        /* \"#utility.yul\":3580:3676   */\n    tag_62:\n        /* \"#utility.yul\":3617:3624   */\n      0x00\n        /* \"#utility.yul\":3646:3670   */\n      tag_114\n        /* \"#utility.yul\":3664:3669   */\n      dup3\n        /* \"#utility.yul\":3646:3670   */\n      tag_53\n      jump\t// in\n    tag_114:\n        /* \"#utility.yul\":3635:3670   */\n      swap1\n      pop\n        /* \"#utility.yul\":3580:3676   */\n      swap2\n      swap1\n      pop\n      jump\t// out\n        /* \"#utility.yul\":3682:3800   */\n    tag_63:\n        /* \"#utility.yul\":3769:3793   */\n      tag_116\n        /* \"#utility.yul\":3787:3792   */\n      dup2\n        /* \"#utility.yul\":3769:3793   */\n      tag_62\n      jump\t// in\n    tag_116:\n        /* \"#utility.yul\":3764:3767   */\n      dup3\n        /* \"#utility.yul\":3757:3794   */\n      mstore\n        /* \"#utility.yul\":3682:3800   */\n      pop\n      pop\n      jump\t// out\n        /* \"#utility.yul\":3806:3891   */\n    tag_64:\n        /* \"#utility.yul\":3851:3858   */\n      0x00\n        /* \"#utility.yul\":3880:3885   */\n      dup2\n        /* \"#utility.yul\":3869:3885   */\n      swap1\n      pop\n        /* \"#utility.yul\":3806:3891   */\n      swap2\n      swap1\n      pop\n      jump\t// out\n        /* \"#utility.yul\":3897:4055   */\n    tag_65:\n        /* \"#utility.yul\":3955:3964   */\n      0x00\n        /* \"#utility.yul\":3988:4049   */\n      tag_119\n        /* \"#utility.yul\":4006:4048   */\n      tag_120\n        /* \"#utility.yul\":4015:4047   */\n      tag_121\n        /* \"#utility.yul\":4041:4046   */\n      dup5\n        /* \"#utility.yul\":4015:4047   */\n      tag_64\n      jump\t// in\n    tag_121:\n        /* \"#utility.yul\":4006:4048   */\n      tag_54\n      jump\t// in\n    tag_120:\n        /* \"#utility.yul\":3988:4049   */\n      tag_46\n      jump\t// in\n    tag_119:\n        /* \"#utility.yul\":3975:4049   */\n      swap1\n      pop\n        /* \"#utility.yul\":3897:4055   */\n      swap2\n      swap1\n      pop\n      jump\t// out\n        /* \"#utility.yul\":4061:4208   */\n    tag_66:\n        /* \"#utility.yul\":4156:4201   */\n      tag_123\n        /* \"#utility.yul\":4195:4200   */\n      dup2\n        /* \"#utility.yul\":4156:4201   */\n      tag_65\n      jump\t// in\n    tag_123:\n        /* \"#utility.yul\":4151:4154   */\n      dup3\n        /* \"#utility.yul\":4144:4202   */\n      mstore\n        /* \"#utility.yul\":4061:4208   */\n      pop\n      pop\n      jump\t// out\n        /* \"#utility.yul\":4214:4312   */\n    tag_67:\n        /* \"#utility.yul\":4265:4271   */\n      0x00\n        /* \"#utility.yul\":4299:4304   */\n      dup2\n        /* \"#utility.yul\":4293:4305   */\n      mload\n        /* \"#utility.yul\":4283:4305   */\n      swap1\n      pop\n        /* \"#utility.yul\":4214:4312   */\n      swap2\n      swap1\n      pop\n      jump\t// out\n        /* \"#utility.yul\":4318:4486   */\n    tag_68:\n        /* \"#utility.yul\":4401:4412   */\n      0x00\n        /* \"#utility.yul\":4435:4441   */\n      dup3\n        /* \"#utility.yul\":4430:4433   */\n      dup3\n        /* \"#utility.yul\":4423:4442   */\n      mstore\n        /* \"#utility.yul\":4475:4479   */\n      0x20\n        /* \"#utility.yul\":4470:4473   */\n      dup3\n        /* \"#utility.yul\":4466:4480   */\n      add\n        /* \"#utility.yul\":4451:4480   */\n      swap1\n      pop\n        /* \"#utility.yul\":4318:4486   */\n      swap3\n      swap2\n      pop\n      pop\n      jump\t// out\n        /* \"#utility.yul\":4492:4738   */\n    tag_69:\n        /* \"#utility.yul\":4573:4574   */\n      0x00\n        /* \"#utility.yul\":4583:4696   */\n    tag_127:\n        /* \"#utility.yul\":4597:4603   */\n      dup4\n        /* \"#utility.yul\":4594:4595   */\n      dup2\n        /* \"#utility.yul\":4591:4604   */\n      lt\n        /* \"#utility.yul\":4583:4696   */\n      iszero\n      tag_129\n      jumpi\n        /* \"#utility.yul\":4682:4683   */\n      dup1\n        /* \"#utility.yul\":4677:4680   */\n      dup3\n        /* \"#utility.yul\":4673:4684   */\n      add\n        /* \"#utility.yul\":4667:4685   */\n      mload\n        /* \"#utility.yul\":4663:4664   */\n      dup2\n        /* \"#utility.yul\":4658:4661   */\n      dup5\n        /* \"#utility.yul\":4654:4665   */\n      add\n        /* \"#utility.yul\":4647:4686   */\n      mstore\n        /* \"#utility.yul\":4619:4621   */\n      0x20\n        /* \"#utility.yul\":4616:4617   */\n      dup2\n        /* \"#utility.yul\":4612:4622   */\n      add\n        /* \"#utility.yul\":4607:4622   */\n      swap1\n      pop\n        /* \"#utility.yul\":4583:4696   */\n      jump(tag_127)\n    tag_129:\n        /* \"#utility.yul\":4730:4731   */\n      0x00\n        /* \"#utility.yul\":4721:4727   */\n      dup5\n        /* \"#utility.yul\":4716:4719   */\n      dup5\n        /* \"#utility.yul\":4712:4728   */\n      add\n        /* \"#utility.yul\":4705:4732   */\n      mstore\n        /* \"#utility.yul\":4554:4738   */\n      pop\n        /* \"#utility.yul\":4492:4738   */\n      pop\n      pop\n      pop\n      jump\t// out\n        /* \"#utility.yul\":4744:4846   */\n    tag_70:\n        /* \"#utility.yul\":4785:4791   */\n      0x00\n        /* \"#utility.yul\":4836:4838   */\n      0x1f\n        /* \"#utility.yul\":4832:4839   */\n      not\n        /* \"#utility.yul\":4827:4829   */\n      0x1f\n        /* \"#utility.yul\":4820:4825   */\n      dup4\n        /* \"#utility.yul\":4816:4830   */\n      add\n        /* \"#utility.yul\":4812:4840   */\n      and\n        /* \"#utility.yul\":4802:4840   */\n      swap1\n      pop\n        /* \"#utility.yul\":4744:4846   */\n      swap2\n      swap1\n      pop\n      jump\t// out\n        /* \"#utility.yul\":4852:5225   */\n    tag_71:\n        /* \"#utility.yul\":4938:4941   */\n      0x00\n        /* \"#utility.yul\":4966:5004   */\n      tag_132\n        /* \"#utility.yul\":4998:5003   */\n      dup3\n        /* \"#utility.yul\":4966:5004   */\n      tag_67\n      jump\t// in\n    tag_132:\n        /* \"#utility.yul\":5020:5090   */\n      tag_133\n        /* \"#utility.yul\":5083:5089   */\n      dup2\n        /* \"#utility.yul\":5078:5081   */\n      dup6\n        /* \"#utility.yul\":5020:5090   */\n      tag_68\n      jump\t// in\n    tag_133:\n        /* \"#utility.yul\":5013:5090   */\n      swap4\n      pop\n        /* \"#utility.yul\":5099:5164   */\n      tag_134\n        /* \"#utility.yul\":5157:5163   */\n      dup2\n        /* \"#utility.yul\":5152:5155   */\n      dup6\n        /* \"#utility.yul\":5145:5149   */\n      0x20\n        /* \"#utility.yul\":5138:5143   */\n      dup7\n        /* \"#utility.yul\":5134:5150   */\n      add\n        /* \"#utility.yul\":5099:5164   */\n      tag_69\n      jump\t// in\n    tag_134:\n        /* \"#utility.yul\":5189:5218   */\n      tag_135\n        /* \"#utility.yul\":5211:5217   */\n      dup2\n        /* \"#utility.yul\":5189:5218   */\n      tag_70\n      jump\t// in\n    tag_135:\n        /* \"#utility.yul\":5184:5187   */\n      dup5\n        /* \"#utility.yul\":5180:5219   */\n      add\n        /* \"#utility.yul\":5173:5219   */\n      swap2\n      pop\n        /* \"#utility.yul\":4942:5225   */\n      pop\n        /* \"#utility.yul\":4852:5225   */\n      swap3\n      swap2\n      pop\n      pop\n      jump\t// out\n        /* \"#utility.yul\":5231:5776   */\n    tag_35:\n        /* \"#utility.yul\":5406:5410   */\n      0x00\n        /* \"#utility.yul\":5444:5446   */\n      0x60\n        /* \"#utility.yul\":5433:5442   */\n      dup3\n        /* \"#utility.yul\":5429:5447   */\n      add\n        /* \"#utility.yul\":5421:5447   */\n      swap1\n      pop\n        /* \"#utility.yul\":5457:5528   */\n      tag_137\n        /* \"#utility.yul\":5525:5526   */\n      0x00\n        /* \"#utility.yul\":5514:5523   */\n      dup4\n        /* \"#utility.yul\":5510:5527   */\n      add\n        /* \"#utility.yul\":5501:5507   */\n      dup7\n        /* \"#utility.yul\":5457:5528   */\n      tag_63\n      jump\t// in\n    tag_137:\n        /* \"#utility.yul\":5538:5618   */\n      tag_138\n        /* \"#utility.yul\":5614:5616   */\n      0x20\n        /* \"#utility.yul\":5603:5612   */\n      dup4\n        /* \"#utility.yul\":5599:5617   */\n      add\n        /* \"#utility.yul\":5590:5596   */\n      dup6\n        /* \"#utility.yul\":5538:5618   */\n      tag_66\n      jump\t// in\n    tag_138:\n        /* \"#utility.yul\":5665:5674   */\n      dup2\n        /* \"#utility.yul\":5659:5663   */\n      dup2\n        /* \"#utility.yul\":5655:5675   */\n      sub\n        /* \"#utility.yul\":5650:5652   */\n      0x40\n        /* \"#utility.yul\":5639:5648   */\n      dup4\n        /* \"#utility.yul\":5635:5653   */\n      add\n        /* \"#utility.yul\":5628:5676   */\n      mstore\n        /* \"#utility.yul\":5693:5769   */\n      tag_139\n        /* \"#utility.yul\":5764:5768   */\n      dup2\n        /* \"#utility.yul\":5755:5761   */\n      dup5\n        /* \"#utility.yul\":5693:5769   */\n      tag_71\n      jump\t// in\n    tag_139:\n        /* \"#utility.yul\":5685:5769   */\n      swap1\n      pop\n        /* \"#utility.yul\":5231:5776   */\n      swap5\n      swap4\n      pop\n      pop\n      pop\n      pop\n      jump\t// out\n        /* \"#utility.yul\":5782:6010   */\n    tag_72:\n        /* \"#utility.yul\":5922:5956   */\n      0x4f6e6c79207468652044656c656761746f722063616e2063616c6c2074686973\n        /* \"#utility.yul\":5918:5919   */\n      0x00\n        /* \"#utility.yul\":5910:5916   */\n      dup3\n        /* \"#utility.yul\":5906:5920   */\n      add\n        /* \"#utility.yul\":5899:5957   */\n      mstore\n        /* \"#utility.yul\":5991:6002   */\n      0x2066756e6374696f6e0000000000000000000000000000000000000000000000\n        /* \"#utility.yul\":5986:5988   */\n      0x20\n        /* \"#utility.yul\":5978:5984   */\n      dup3\n        /* \"#utility.yul\":5974:5989   */\n      add\n        /* \"#utility.yul\":5967:6003   */\n      mstore\n        /* \"#utility.yul\":5782:6010   */\n      pop\n      jump\t// out\n        /* \"#utility.yul\":6016:6382   */\n    tag_73:\n        /* \"#utility.yul\":6158:6161   */\n      0x00\n        /* \"#utility.yul\":6179:6246   */\n      tag_142\n        /* \"#utility.yul\":6243:6245   */\n      0x29\n        /* \"#utility.yul\":6238:6241   */\n      dup4\n        /* \"#utility.yul\":6179:6246   */\n      tag_59\n      jump\t// in\n    tag_142:\n        /* \"#utility.yul\":6172:6246   */\n      swap2\n      pop\n        /* \"#utility.yul\":6255:6348   */\n      tag_143\n        /* \"#utility.yul\":6344:6347   */\n      dup3\n        /* \"#utility.yul\":6255:6348   */\n      tag_72\n      jump\t// in\n    tag_143:\n        /* \"#utility.yul\":6373:6375   */\n      0x40\n        /* \"#utility.yul\":6368:6371   */\n      dup3\n        /* \"#utility.yul\":6364:6376   */\n      add\n        /* \"#utility.yul\":6357:6376   */\n      swap1\n      pop\n        /* \"#utility.yul\":6016:6382   */\n      swap2\n      swap1\n      pop\n      jump\t// out\n        /* \"#utility.yul\":6388:6807   */\n    tag_42:\n        /* \"#utility.yul\":6554:6558   */\n      0x00\n        /* \"#utility.yul\":6592:6594   */\n      0x20\n        /* \"#utility.yul\":6581:6590   */\n      dup3\n        /* \"#utility.yul\":6577:6595   */\n      add\n        /* \"#utility.yul\":6569:6595   */\n      swap1\n      pop\n        /* \"#utility.yul\":6641:6650   */\n      dup2\n        /* \"#utility.yul\":6635:6639   */\n      dup2\n        /* \"#utility.yul\":6631:6651   */\n      sub\n        /* \"#utility.yul\":6627:6628   */\n      0x00\n        /* \"#utility.yul\":6616:6625   */\n      dup4\n        /* \"#utility.yul\":6612:6629   */\n      add\n        /* \"#utility.yul\":6605:6652   */\n      mstore\n        /* \"#utility.yul\":6669:6800   */\n      tag_145\n        /* \"#utility.yul\":6795:6799   */\n      dup2\n        /* \"#utility.yul\":6669:6800   */\n      tag_73\n      jump\t// in\n    tag_145:\n        /* \"#utility.yul\":6661:6800   */\n      swap1\n      pop\n        /* \"#utility.yul\":6388:6807   */\n      swap2\n      swap1\n      pop\n      jump\t// out\n\n    auxdata: 0xa2646970667358221220e57e32b451ddaceb00a0b63ee9d73f4fc077e2cfd7fdb06a23bee3f9b6a04c9b64736f6c63430008150033\n}\n",
				"bytecode": {
					"linkReferences": {},
					"object": "608060405234801561000f575f80fd5b506040516107e03803806107e0833981810160405281019061003191906100d4565b805f806101000a81548173ffffffffffffffffffffffffffffffffffffffff021916908373ffffffffffffffffffffffffffffffffffffffff160217905550506100ff565b5f80fd5b5f73ffffffffffffffffffffffffffffffffffffffff82169050919050565b5f6100a38261007a565b9050919050565b6100b381610099565b81146100bd575f80fd5b50565b5f815190506100ce816100aa565b92915050565b5f602082840312156100e9576100e8610076565b5b5f6100f6848285016100c0565b91505092915050565b6106d48061010c5f395ff3fe608060405260043610610049575f3560e01c806312065fe01461004d57806312edde5e146100775780632e1a7d4d1461009f5780634014a07c146100c7578063d0e30db0146100f1575b5f80fd5b348015610058575f80fd5b506100616100fb565b60405161006e9190610374565b60405180910390f35b348015610082575f80fd5b5061009d600480360381019061009891906103bb565b610102565b005b3480156100aa575f80fd5b506100c560048036038101906100c091906103bb565b610263565b005b3480156100d2575f80fd5b506100db610337565b6040516100e89190610460565b60405180910390f35b6100f961035a565b005b5f47905090565b47811115610145576040517f08c379a000000000000000000000000000000000000000000000000000000000815260040161013c906104d3565b60405180910390fd5b5f816040516024016101579190610374565b6040516020818303038152906040527f2e1a7d4d000000000000000000000000000000000000000000000000000000007bffffffffffffffffffffffffffffffffffffffffffffffffffffffff19166020820180517bffffffffffffffffffffffffffffffffffffffffffffffffffffffff838183161783525050505090505f8054906101000a900473ffffffffffffffffffffffffffffffffffffffff1673ffffffffffffffffffffffffffffffffffffffff16633f579f42305f846040518463ffffffff1660e01b8152600401610232939291906105d4565b5f604051808303815f87803b158015610249575f80fd5b505af115801561025b573d5f803e3d5ffd5b505050505050565b5f8054906101000a900473ffffffffffffffffffffffffffffffffffffffff1673ffffffffffffffffffffffffffffffffffffffff163373ffffffffffffffffffffffffffffffffffffffff16146102f0576040517f08c379a00000000000000000000000000000000000000000000000000000000081526004016102e790610680565b60405180910390fd5b3373ffffffffffffffffffffffffffffffffffffffff166108fc8290811502906040515f60405180830381858888f19350505050158015610333573d5f803e3d5ffd5b5050565b5f8054906101000a900473ffffffffffffffffffffffffffffffffffffffff1681565b565b5f819050919050565b61036e8161035c565b82525050565b5f6020820190506103875f830184610365565b92915050565b5f80fd5b61039a8161035c565b81146103a4575f80fd5b50565b5f813590506103b581610391565b92915050565b5f602082840312156103d0576103cf61038d565b5b5f6103dd848285016103a7565b91505092915050565b5f73ffffffffffffffffffffffffffffffffffffffff82169050919050565b5f819050919050565b5f61042861042361041e846103e6565b610405565b6103e6565b9050919050565b5f6104398261040e565b9050919050565b5f61044a8261042f565b9050919050565b61045a81610440565b82525050565b5f6020820190506104735f830184610451565b92915050565b5f82825260208201905092915050565b7f496e73756666696369656e742062616c616e63650000000000000000000000005f82015250565b5f6104bd601483610479565b91506104c882610489565b602082019050919050565b5f6020820190508181035f8301526104ea816104b1565b9050919050565b5f6104fb826103e6565b9050919050565b61050b816104f1565b82525050565b5f819050919050565b5f61053461052f61052a84610511565b610405565b61035c565b9050919050565b6105448161051a565b82525050565b5f81519050919050565b5f82825260208201905092915050565b5f5b83811015610581578082015181840152602081019050610566565b5f8484015250505050565b5f601f19601f8301169050919050565b5f6105a68261054a565b6105b08185610554565b93506105c0818560208601610564565b6105c98161058c565b840191505092915050565b5f6060820190506105e75f830186610502565b6105f4602083018561053b565b8181036040830152610606818461059c565b9050949350505050565b7f4f6e6c79207468652044656c656761746f722063616e2063616c6c20746869735f8201527f2066756e6374696f6e0000000000000000000000000000000000000000000000602082015250565b5f61066a602983610479565b915061067582610610565b604082019050919050565b5f6020820190508181035f8301526106978161065e565b905091905056fea2646970667358221220e57e32b451ddaceb00a0b63ee9d73f4fc077e2cfd7fdb06a23bee3f9b6a04c9b64736f6c63430008150033",
					"opcodes": "PUSH1 0x80 PUSH1 0x40 MSTORE CALLVALUE DUP1 ISZERO PUSH2 0xF JUMPI PUSH0 DUP1 REVERT JUMPDEST POP PUSH1 0x40 MLOAD PUSH2 0x7E0 CODESIZE SUB DUP1 PUSH2 0x7E0 DUP4 CODECOPY DUP2 DUP2 ADD PUSH1 0x40 MSTORE DUP2 ADD SWAP1 PUSH2 0x31 SWAP2 SWAP1 PUSH2 0xD4 JUMP JUMPDEST DUP1 PUSH0 DUP1 PUSH2 0x100 EXP DUP2 SLOAD DUP2 PUSH20 0xFFFFFFFFFFFFFFFFFFFFFFFFFFFFFFFFFFFFFFFF MUL NOT AND SWAP1 DUP4 PUSH20 0xFFFFFFFFFFFFFFFFFFFFFFFFFFFFFFFFFFFFFFFF AND MUL OR SWAP1 SSTORE POP POP PUSH2 0xFF JUMP JUMPDEST PUSH0 DUP1 REVERT JUMPDEST PUSH0 PUSH20 0xFFFFFFFFFFFFFFFFFFFFFFFFFFFFFFFFFFFFFFFF DUP3 AND SWAP1 POP SWAP2 SWAP1 POP JUMP JUMPDEST PUSH0 PUSH2 0xA3 DUP3 PUSH2 0x7A JUMP JUMPDEST SWAP1 POP SWAP2 SWAP1 POP JUMP JUMPDEST PUSH2 0xB3 DUP2 PUSH2 0x99 JUMP JUMPDEST DUP2 EQ PUSH2 0xBD JUMPI PUSH0 DUP1 REVERT JUMPDEST POP JUMP JUMPDEST PUSH0 DUP2 MLOAD SWAP1 POP PUSH2 0xCE DUP2 PUSH2 0xAA JUMP JUMPDEST SWAP3 SWAP2 POP POP JUMP JUMPDEST PUSH0 PUSH1 0x20 DUP3 DUP5 SUB SLT ISZERO PUSH2 0xE9 JUMPI PUSH2 0xE8 PUSH2 0x76 JUMP JUMPDEST JUMPDEST PUSH0 PUSH2 0xF6 DUP5 DUP3 DUP6 ADD PUSH2 0xC0 JUMP JUMPDEST SWAP2 POP POP SWAP3 SWAP2 POP POP JUMP JUMPDEST PUSH2 0x6D4 DUP1 PUSH2 0x10C PUSH0 CODECOPY PUSH0 RETURN INVALID PUSH1 0x80 PUSH1 0x40 MSTORE PUSH1 0x4 CALLDATASIZE LT PUSH2 0x49 JUMPI PUSH0 CALLDATALOAD PUSH1 0xE0 SHR DUP1 PUSH4 0x12065FE0 EQ PUSH2 0x4D JUMPI DUP1 PUSH4 0x12EDDE5E EQ PUSH2 0x77 JUMPI DUP1 PUSH4 0x2E1A7D4D EQ PUSH2 0x9F JUMPI DUP1 PUSH4 0x4014A07C EQ PUSH2 0xC7 JUMPI DUP1 PUSH4 0xD0E30DB0 EQ PUSH2 0xF1 JUMPI JUMPDEST PUSH0 DUP1 REVERT JUMPDEST CALLVALUE DUP1 ISZERO PUSH2 0x58 JUMPI PUSH0 DUP1 REVERT JUMPDEST POP PUSH2 0x61 PUSH2 0xFB JUMP JUMPDEST PUSH1 0x40 MLOAD PUSH2 0x6E SWAP2 SWAP1 PUSH2 0x374 JUMP JUMPDEST PUSH1 0x40 MLOAD DUP1 SWAP2 SUB SWAP1 RETURN JUMPDEST CALLVALUE DUP1 ISZERO PUSH2 0x82 JUMPI PUSH0 DUP1 REVERT JUMPDEST POP PUSH2 0x9D PUSH1 0x4 DUP1 CALLDATASIZE SUB DUP2 ADD SWAP1 PUSH2 0x98 SWAP2 SWAP1 PUSH2 0x3BB JUMP JUMPDEST PUSH2 0x102 JUMP JUMPDEST STOP JUMPDEST CALLVALUE DUP1 ISZERO PUSH2 0xAA JUMPI PUSH0 DUP1 REVERT JUMPDEST POP PUSH2 0xC5 PUSH1 0x4 DUP1 CALLDATASIZE SUB DUP2 ADD SWAP1 PUSH2 0xC0 SWAP2 SWAP1 PUSH2 0x3BB JUMP JUMPDEST PUSH2 0x263 JUMP JUMPDEST STOP JUMPDEST CALLVALUE DUP1 ISZERO PUSH2 0xD2 JUMPI PUSH0 DUP1 REVERT JUMPDEST POP PUSH2 0xDB PUSH2 0x337 JUMP JUMPDEST PUSH1 0x40 MLOAD PUSH2 0xE8 SWAP2 SWAP1 PUSH2 0x460 JUMP JUMPDEST PUSH1 0x40 MLOAD DUP1 SWAP2 SUB SWAP1 RETURN JUMPDEST PUSH2 0xF9 PUSH2 0x35A JUMP JUMPDEST STOP JUMPDEST PUSH0 SELFBALANCE SWAP1 POP SWAP1 JUMP JUMPDEST SELFBALANCE DUP2 GT ISZERO PUSH2 0x145 JUMPI PUSH1 0x40 MLOAD PUSH32 0x8C379A000000000000000000000000000000000000000000000000000000000 DUP2 MSTORE PUSH1 0x4 ADD PUSH2 0x13C SWAP1 PUSH2 0x4D3 JUMP JUMPDEST PUSH1 0x40 MLOAD DUP1 SWAP2 SUB SWAP1 REVERT JUMPDEST PUSH0 DUP2 PUSH1 0x40 MLOAD PUSH1 0x24 ADD PUSH2 0x157 SWAP2 SWAP1 PUSH2 0x374 JUMP JUMPDEST PUSH1 0x40 MLOAD PUSH1 0x20 DUP2 DUP4 SUB SUB DUP2 MSTORE SWAP1 PUSH1 0x40 MSTORE PUSH32 0x2E1A7D4D00000000000000000000000000000000000000000000000000000000 PUSH28 0xFFFFFFFFFFFFFFFFFFFFFFFFFFFFFFFFFFFFFFFFFFFFFFFFFFFFFFFF NOT AND PUSH1 0x20 DUP3 ADD DUP1 MLOAD PUSH28 0xFFFFFFFFFFFFFFFFFFFFFFFFFFFFFFFFFFFFFFFFFFFFFFFFFFFFFFFF DUP4 DUP2 DUP4 AND OR DUP4 MSTORE POP POP POP POP SWAP1 POP PUSH0 DUP1 SLOAD SWAP1 PUSH2 0x100 EXP SWAP1 DIV PUSH20 0xFFFFFFFFFFFFFFFFFFFFFFFFFFFFFFFFFFFFFFFF AND PUSH20 0xFFFFFFFFFFFFFFFFFFFFFFFFFFFFFFFFFFFFFFFF AND PUSH4 0x3F579F42 ADDRESS PUSH0 DUP5 PUSH1 0x40 MLOAD DUP5 PUSH4 0xFFFFFFFF AND PUSH1 0xE0 SHL DUP2 MSTORE PUSH1 0x4 ADD PUSH2 0x232 SWAP4 SWAP3 SWAP2 SWAP1 PUSH2 0x5D4 JUMP JUMPDEST PUSH0 PUSH1 0x40 MLOAD DUP1 DUP4 SUB DUP2 PUSH0 DUP8 DUP1 EXTCODESIZE ISZERO DUP1 ISZERO PUSH2 0x249 JUMPI PUSH0 DUP1 REVERT JUMPDEST POP GAS CALL ISZERO DUP1 ISZERO PUSH2 0x25B JUMPI RETURNDATASIZE PUSH0 DUP1 RETURNDATACOPY RETURNDATASIZE PUSH0 REVERT JUMPDEST POP POP POP POP POP POP JUMP JUMPDEST PUSH0 DUP1 SLOAD SWAP1 PUSH2 0x100 EXP SWAP1 DIV PUSH20 0xFFFFFFFFFFFFFFFFFFFFFFFFFFFFFFFFFFFFFFFF AND PUSH20 0xFFFFFFFFFFFFFFFFFFFFFFFFFFFFFFFFFFFFFFFF AND CALLER PUSH20 0xFFFFFFFFFFFFFFFFFFFFFFFFFFFFFFFFFFFFFFFF AND EQ PUSH2 0x2F0 JUMPI PUSH1 0x40 MLOAD PUSH32 0x8C379A000000000000000000000000000000000000000000000000000000000 DUP2 MSTORE PUSH1 0x4 ADD PUSH2 0x2E7 SWAP1 PUSH2 0x680 JUMP JUMPDEST PUSH1 0x40 MLOAD DUP1 SWAP2 SUB SWAP1 REVERT JUMPDEST CALLER PUSH20 0xFFFFFFFFFFFFFFFFFFFFFFFFFFFFFFFFFFFFFFFF AND PUSH2 0x8FC DUP3 SWAP1 DUP2 ISZERO MUL SWAP1 PUSH1 0x40 MLOAD PUSH0 PUSH1 0x40 MLOAD DUP1 DUP4 SUB DUP2 DUP6 DUP9 DUP9 CALL SWAP4 POP POP POP POP ISZERO DUP1 ISZERO PUSH2 0x333 JUMPI RETURNDATASIZE PUSH0 DUP1 RETURNDATACOPY RETURNDATASIZE PUSH0 REVERT JUMPDEST POP POP JUMP JUMPDEST PUSH0 DUP1 SLOAD SWAP1 PUSH2 0x100 EXP SWAP1 DIV PUSH20 0xFFFFFFFFFFFFFFFFFFFFFFFFFFFFFFFFFFFFFFFF AND DUP2 JUMP JUMPDEST JUMP JUMPDEST PUSH0 DUP2 SWAP1 POP SWAP2 SWAP1 POP JUMP JUMPDEST PUSH2 0x36E DUP2 PUSH2 0x35C JUMP JUMPDEST DUP3 MSTORE POP POP JUMP JUMPDEST PUSH0 PUSH1 0x20 DUP3 ADD SWAP1 POP PUSH2 0x387 PUSH0 DUP4 ADD DUP5 PUSH2 0x365 JUMP JUMPDEST SWAP3 SWAP2 POP POP JUMP JUMPDEST PUSH0 DUP1 REVERT JUMPDEST PUSH2 0x39A DUP2 PUSH2 0x35C JUMP JUMPDEST DUP2 EQ PUSH2 0x3A4 JUMPI PUSH0 DUP1 REVERT JUMPDEST POP JUMP JUMPDEST PUSH0 DUP2 CALLDATALOAD SWAP1 POP PUSH2 0x3B5 DUP2 PUSH2 0x391 JUMP JUMPDEST SWAP3 SWAP2 POP POP JUMP JUMPDEST PUSH0 PUSH1 0x20 DUP3 DUP5 SUB SLT ISZERO PUSH2 0x3D0 JUMPI PUSH2 0x3CF PUSH2 0x38D JUMP JUMPDEST JUMPDEST PUSH0 PUSH2 0x3DD DUP5 DUP3 DUP6 ADD PUSH2 0x3A7 JUMP JUMPDEST SWAP2 POP POP SWAP3 SWAP2 POP POP JUMP JUMPDEST PUSH0 PUSH20 0xFFFFFFFFFFFFFFFFFFFFFFFFFFFFFFFFFFFFFFFF DUP3 AND SWAP1 POP SWAP2 SWAP1 POP JUMP JUMPDEST PUSH0 DUP2 SWAP1 POP SWAP2 SWAP1 POP JUMP JUMPDEST PUSH0 PUSH2 0x428 PUSH2 0x423 PUSH2 0x41E DUP5 PUSH2 0x3E6 JUMP JUMPDEST PUSH2 0x405 JUMP JUMPDEST PUSH2 0x3E6 JUMP JUMPDEST SWAP1 POP SWAP2 SWAP1 POP JUMP JUMPDEST PUSH0 PUSH2 0x439 DUP3 PUSH2 0x40E JUMP JUMPDEST SWAP1 POP SWAP2 SWAP1 POP JUMP JUMPDEST PUSH0 PUSH2 0x44A DUP3 PUSH2 0x42F JUMP JUMPDEST SWAP1 POP SWAP2 SWAP1 POP JUMP JUMPDEST PUSH2 0x45A DUP2 PUSH2 0x440 JUMP JUMPDEST DUP3 MSTORE POP POP JUMP JUMPDEST PUSH0 PUSH1 0x20 DUP3 ADD SWAP1 POP PUSH2 0x473 PUSH0 DUP4 ADD DUP5 PUSH2 0x451 JUMP JUMPDEST SWAP3 SWAP2 POP POP JUMP JUMPDEST PUSH0 DUP3 DUP3 MSTORE PUSH1 0x20 DUP3 ADD SWAP1 POP SWAP3 SWAP2 POP POP JUMP JUMPDEST PUSH32 0x496E73756666696369656E742062616C616E6365000000000000000000000000 PUSH0 DUP3 ADD MSTORE POP JUMP JUMPDEST PUSH0 PUSH2 0x4BD PUSH1 0x14 DUP4 PUSH2 0x479 JUMP JUMPDEST SWAP2 POP PUSH2 0x4C8 DUP3 PUSH2 0x489 JUMP JUMPDEST PUSH1 0x20 DUP3 ADD SWAP1 POP SWAP2 SWAP1 POP JUMP JUMPDEST PUSH0 PUSH1 0x20 DUP3 ADD SWAP1 POP DUP2 DUP2 SUB PUSH0 DUP4 ADD MSTORE PUSH2 0x4EA DUP2 PUSH2 0x4B1 JUMP JUMPDEST SWAP1 POP SWAP2 SWAP1 POP JUMP JUMPDEST PUSH0 PUSH2 0x4FB DUP3 PUSH2 0x3E6 JUMP JUMPDEST SWAP1 POP SWAP2 SWAP1 POP JUMP JUMPDEST PUSH2 0x50B DUP2 PUSH2 0x4F1 JUMP JUMPDEST DUP3 MSTORE POP POP JUMP JUMPDEST PUSH0 DUP2 SWAP1 POP SWAP2 SWAP1 POP JUMP JUMPDEST PUSH0 PUSH2 0x534 PUSH2 0x52F PUSH2 0x52A DUP5 PUSH2 0x511 JUMP JUMPDEST PUSH2 0x405 JUMP JUMPDEST PUSH2 0x35C JUMP JUMPDEST SWAP1 POP SWAP2 SWAP1 POP JUMP JUMPDEST PUSH2 0x544 DUP2 PUSH2 0x51A JUMP JUMPDEST DUP3 MSTORE POP POP JUMP JUMPDEST PUSH0 DUP2 MLOAD SWAP1 POP SWAP2 SWAP1 POP JUMP JUMPDEST PUSH0 DUP3 DUP3 MSTORE PUSH1 0x20 DUP3 ADD SWAP1 POP SWAP3 SWAP2 POP POP JUMP JUMPDEST PUSH0 JUMPDEST DUP4 DUP2 LT ISZERO PUSH2 0x581 JUMPI DUP1 DUP3 ADD MLOAD DUP2 DUP5 ADD MSTORE PUSH1 0x20 DUP2 ADD SWAP1 POP PUSH2 0x566 JUMP JUMPDEST PUSH0 DUP5 DUP5 ADD MSTORE POP POP POP POP JUMP JUMPDEST PUSH0 PUSH1 0x1F NOT PUSH1 0x1F DUP4 ADD AND SWAP1 POP SWAP2 SWAP1 POP JUMP JUMPDEST PUSH0 PUSH2 0x5A6 DUP3 PUSH2 0x54A JUMP JUMPDEST PUSH2 0x5B0 DUP2 DUP6 PUSH2 0x554 JUMP JUMPDEST SWAP4 POP PUSH2 0x5C0 DUP2 DUP6 PUSH1 0x20 DUP7 ADD PUSH2 0x564 JUMP JUMPDEST PUSH2 0x5C9 DUP2 PUSH2 0x58C JUMP JUMPDEST DUP5 ADD SWAP2 POP POP SWAP3 SWAP2 POP POP JUMP JUMPDEST PUSH0 PUSH1 0x60 DUP3 ADD SWAP1 POP PUSH2 0x5E7 PUSH0 DUP4 ADD DUP7 PUSH2 0x502 JUMP JUMPDEST PUSH2 0x5F4 PUSH1 0x20 DUP4 ADD DUP6 PUSH2 0x53B JUMP JUMPDEST DUP2 DUP2 SUB PUSH1 0x40 DUP4 ADD MSTORE PUSH2 0x606 DUP2 DUP5 PUSH2 0x59C JUMP JUMPDEST SWAP1 POP SWAP5 SWAP4 POP POP POP POP JUMP JUMPDEST PUSH32 0x4F6E6C79207468652044656C656761746F722063616E2063616C6C2074686973 PUSH0 DUP3 ADD MSTORE PUSH32 0x2066756E6374696F6E0000000000000000000000000000000000000000000000 PUSH1 0x20 DUP3 ADD MSTORE POP JUMP JUMPDEST PUSH0 PUSH2 0x66A PUSH1 0x29 DUP4 PUSH2 0x479 JUMP JUMPDEST SWAP2 POP PUSH2 0x675 DUP3 PUSH2 0x610 JUMP JUMPDEST PUSH1 0x40 DUP3 ADD SWAP1 POP SWAP2 SWAP1 POP JUMP JUMPDEST PUSH0 PUSH1 0x20 DUP3 ADD SWAP1 POP DUP2 DUP2 SUB PUSH0 DUP4 ADD MSTORE PUSH2 0x697 DUP2 PUSH2 0x65E JUMP JUMPDEST SWAP1 POP SWAP2 SWAP1 POP JUMP INVALID LOG2 PUSH5 0x6970667358 0x22 SLT KECCAK256 0xE5 PUSH31 0x32B451DDACEB00A0B63EE9D73F4FC077E2CFD7FDB06A23BEE3F9B6A04C9B64 PUSH20 0x6F6C634300081500330000000000000000000000 "
				},
				"gasEstimates": {
					"creation": {
						"codeDepositCost": "349600",
						"executionCost": "infinite",
						"totalCost": "infinite"
					},
					"external": {
						"delegatorContract()": "infinite",
						"deposit()": "185",
						"getBalance()": "312",
						"initiateWithdrawal(uint256)": "infinite",
						"withdraw(uint256)": "infinite"
					}
				},
				"methodIdentifiers": {
					"delegatorContract()": "4014a07c",
					"deposit()": "d0e30db0",
					"getBalance()": "12065fe0",
					"initiateWithdrawal(uint256)": "12edde5e",
					"withdraw(uint256)": "2e1a7d4d"
				}
			},
			"storageLayout": {
				"storage": [
					{
						"astId": 57,
						"contract": "mycontract.sol:DelegatedWithdrawal",
						"label": "delegatorContract",
						"offset": 0,
						"slot": "0",
						"type": "t_contract(Delegator)51"
					}
				],
				"types": {
					"t_contract(Delegator)51": {
						"encoding": "inplace",
						"label": "contract Delegator",
						"numberOfBytes": "20"
					}
				}
			},
			"userdoc": {
				"kind": "user",
				"methods": {},
				"version": 1
			}
		}
	}
}