{
	"erc721A.sol": {
		"E721A": {
			"abi": [
				{
					"inputs": [],
					"stateMutability": "nonpayable",
					"type": "constructor"
				},
				{
					"inputs": [],
					"name": "ApprovalCallerNotOwnerNorApproved",
					"type": "error"
				},
				{
					"inputs": [],
					"name": "ApprovalQueryForNonexistentToken",
					"type": "error"
				},
				{
					"inputs": [],
					"name": "BalanceQueryForZeroAddress",
					"type": "error"
				},
				{
					"inputs": [],
					"name": "MintERC2309QuantityExceedsLimit",
					"type": "error"
				},
				{
					"inputs": [],
					"name": "MintToZeroAddress",
					"type": "error"
				},
				{
					"inputs": [],
					"name": "MintZeroQuantity",
					"type": "error"
				},
				{
					"inputs": [
						{
							"internalType": "address",
							"name": "owner",
							"type": "address"
						}
					],
					"name": "OwnableInvalidOwner",
					"type": "error"
				},
				{
					"inputs": [
						{
							"internalType": "address",
							"name": "account",
							"type": "address"
						}
					],
					"name": "OwnableUnauthorizedAccount",
					"type": "error"
				},
				{
					"inputs": [],
					"name": "OwnerQueryForNonexistentToken",
					"type": "error"
				},
				{
					"inputs": [],
					"name": "OwnershipNotInitializedForExtraData",
					"type": "error"
				},
				{
					"inputs": [],
					"name": "TransferCallerNotOwnerNorApproved",
					"type": "error"
				},
				{
					"inputs": [],
					"name": "TransferFromIncorrectOwner",
					"type": "error"
				},
				{
					"inputs": [],
					"name": "TransferToNonERC721ReceiverImplementer",
					"type": "error"
				},
				{
					"inputs": [],
					"name": "TransferToZeroAddress",
					"type": "error"
				},
				{
					"inputs": [],
					"name": "URIQueryForNonexistentToken",
					"type": "error"
				},
				{
					"anonymous": false,
					"inputs": [
						{
							"indexed": true,
							"internalType": "address",
							"name": "owner",
							"type": "address"
						},
						{
							"indexed": true,
							"internalType": "address",
							"name": "approved",
							"type": "address"
						},
						{
							"indexed": true,
							"internalType": "uint256",
							"name": "tokenId",
							"type": "uint256"
						}
					],
					"name": "Approval",
					"type": "event"
				},
				{
					"anonymous": false,
					"inputs": [
						{
							"indexed": true,
							"internalType": "address",
							"name": "owner",
							"type": "address"
						},
						{
							"indexed": true,
							"internalType": "address",
							"name": "operator",
							"type": "address"
						},
						{
							"indexed": false,
							"internalType": "bool",
							"name": "approved",
							"type": "bool"
						}
					],
					"name": "ApprovalForAll",
					"type": "event"
				},
				{
					"anonymous": false,
					"inputs": [
						{
							"indexed": true,
							"internalType": "uint256",
							"name": "fromTokenId",
							"type": "uint256"
						},
						{
							"indexed": false,
							"internalType": "uint256",
							"name": "toTokenId",
							"type": "uint256"
						},
						{
							"indexed": true,
							"internalType": "address",
							"name": "from",
							"type": "address"
						},
						{
							"indexed": true,
							"internalType": "address",
							"name": "to",
							"type": "address"
						}
					],
					"name": "ConsecutiveTransfer",
					"type": "event"
				},
				{
					"anonymous": false,
					"inputs": [
						{
							"indexed": true,
							"internalType": "address",
							"name": "previousOwner",
							"type": "address"
						},
						{
							"indexed": true,
							"internalType": "address",
							"name": "newOwner",
							"type": "address"
						}
					],
					"name": "OwnershipTransferred",
					"type": "event"
				},
				{
					"anonymous": false,
					"inputs": [
						{
							"indexed": true,
							"internalType": "address",
							"name": "from",
							"type": "address"
						},
						{
							"indexed": true,
							"internalType": "address",
							"name": "to",
							"type": "address"
						},
						{
							"indexed": true,
							"internalType": "uint256",
							"name": "tokenId",
							"type": "uint256"
						}
					],
					"name": "Transfer",
					"type": "event"
				},
				{
					"inputs": [
						{
							"internalType": "address",
							"name": "to",
							"type": "address"
						},
						{
							"internalType": "uint256",
							"name": "tokenId",
							"type": "uint256"
						}
					],
					"name": "approve",
					"outputs": [],
					"stateMutability": "nonpayable",
					"type": "function"
				},
				{
					"inputs": [
						{
							"internalType": "address",
							"name": "owner",
							"type": "address"
						}
					],
					"name": "balanceOf",
					"outputs": [
						{
							"internalType": "uint256",
							"name": "",
							"type": "uint256"
						}
					],
					"stateMutability": "view",
					"type": "function"
				},
				{
					"inputs": [
						{
							"internalType": "uint256",
							"name": "tokenId",
							"type": "uint256"
						}
					],
					"name": "getApproved",
					"outputs": [
						{
							"internalType": "address",
							"name": "",
							"type": "address"
						}
					],
					"stateMutability": "view",
					"type": "function"
				},
				{
					"inputs": [
						{
							"internalType": "address",
							"name": "owner",
							"type": "address"
						},
						{
							"internalType": "address",
							"name": "operator",
							"type": "address"
						}
					],
					"name": "isApprovedForAll",
					"outputs": [
						{
							"internalType": "bool",
							"name": "",
							"type": "bool"
						}
					],
					"stateMutability": "view",
					"type": "function"
				},
				{
					"inputs": [
						{
							"internalType": "uint256",
							"name": "n",
							"type": "uint256"
						}
					],
					"name": "mint",
					"outputs": [],
					"stateMutability": "nonpayable",
					"type": "function"
				},
				{
					"inputs": [],
					"name": "name",
					"outputs": [
						{
							"internalType": "string",
							"name": "",
							"type": "string"
						}
					],
					"stateMutability": "view",
					"type": "function"
				},
				{
					"inputs": [],
					"name": "owner",
					"outputs": [
						{
							"internalType": "address",
							"name": "",
							"type": "address"
						}
					],
					"stateMutability": "view",
					"type": "function"
				},
				{
					"inputs": [
						{
							"internalType": "uint256",
							"name": "tokenId",
							"type": "uint256"
						}
					],
					"name": "ownerOf",
					"outputs": [
						{
							"internalType": "address",
							"name": "",
							"type": "address"
						}
					],
					"stateMutability": "view",
					"type": "function"
				},
				{
					"inputs": [],
					"name": "renounceOwnership",
					"outputs": [],
					"stateMutability": "nonpayable",
					"type": "function"
				},
				{
					"inputs": [
						{
							"internalType": "address",
							"name": "from",
							"type": "address"
						},
						{
							"internalType": "address",
							"name": "to",
							"type": "address"
						},
						{
							"internalType": "uint256",
							"name": "tokenId",
							"type": "uint256"
						},
						{
							"internalType": "bytes",
							"name": "data",
							"type": "bytes"
						}
					],
					"name": "safetransferfrom",
					"outputs": [],
					"stateMutability": "nonpayable",
					"type": "function"
				},
				{
					"inputs": [
						{
							"internalType": "address",
							"name": "from",
							"type": "address"
						},
						{
							"internalType": "address",
							"name": "to",
							"type": "address"
						},
						{
							"internalType": "uint256",
							"name": "tokenId",
							"type": "uint256"
						}
					],
					"name": "safetransferfrom",
					"outputs": [],
					"stateMutability": "nonpayable",
					"type": "function"
				},
				{
					"inputs": [
						{
							"internalType": "address",
							"name": "operator",
							"type": "address"
						},
						{
							"internalType": "bool",
							"name": "approved",
							"type": "bool"
						}
					],
					"name": "setApprovalForAll",
					"outputs": [],
					"stateMutability": "nonpayable",
					"type": "function"
				},
				{
					"inputs": [
						{
							"internalType": "bytes4",
							"name": "interfaceId",
							"type": "bytes4"
						}
					],
					"name": "supportsInterface",
					"outputs": [
						{
							"internalType": "bool",
							"name": "",
							"type": "bool"
						}
					],
					"stateMutability": "view",
					"type": "function"
				},
				{
					"inputs": [],
					"name": "symbol",
					"outputs": [
						{
							"internalType": "string",
							"name": "",
							"type": "string"
						}
					],
					"stateMutability": "view",
					"type": "function"
				},
				{
					"inputs": [
						{
							"internalType": "uint256",
							"name": "tokenId",
							"type": "uint256"
						}
					],
					"name": "tokenURI",
					"outputs": [
						{
							"internalType": "string",
							"name": "",
							"type": "string"
						}
					],
					"stateMutability": "view",
					"type": "function"
				},
				{
					"inputs": [],
					"name": "totalSupply",
					"outputs": [
						{
							"internalType": "uint256",
							"name": "",
							"type": "uint256"
						}
					],
					"stateMutability": "view",
					"type": "function"
				},
				{
					"inputs": [
						{
							"internalType": "address",
							"name": "from",
							"type": "address"
						},
						{
							"internalType": "address",
							"name": "to",
							"type": "address"
						},
						{
							"internalType": "uint256",
							"name": "tokenId",
							"type": "uint256"
						}
					],
					"name": "transferFrom",
					"outputs": [],
					"stateMutability": "nonpayable",
					"type": "function"
				},
				{
					"inputs": [
						{
							"internalType": "address",
							"name": "newOwner",
							"type": "address"
						}
					],
					"name": "transferOwnership",
					"outputs": [],
					"stateMutability": "nonpayable",
					"type": "function"
				}
			],
			"devdoc": {
				"errors": {
					"OwnableInvalidOwner(address)": [
						{
							"details": "The owner is not a valid owner account. (eg. `address(0)`)"
						}
					],
					"OwnableUnauthorizedAccount(address)": [
						{
							"details": "The caller account is not authorized to perform an operation."
						}
					]
				},
				"events": {
					"Approval(address,address,uint256)": {
						"details": "Emitted when `owner` enables `approved` to manage the `tokenId` token."
					},
					"ApprovalForAll(address,address,bool)": {
						"details": "Emitted when `owner` enables or disables (`approved`) `operator` to manage all of its assets."
					},
					"ConsecutiveTransfer(uint256,uint256,address,address)": {
						"details": "Emitted when tokens in `fromTokenId` to `toTokenId` (inclusive) is transferred from `from` to `to`, as defined in the [ERC2309](https://eips.ethereum.org/EIPS/eip-2309) standard. See {_mintERC2309} for more details."
					},
					"Transfer(address,address,uint256)": {
						"details": "Emitted when `tokenId` token is transferred from `from` to `to`."
					}
				},
				"kind": "dev",
				"methods": {
					"approve(address,uint256)": {
						"details": "Gives permission to `to` to transfer `tokenId` token to another account. See {ERC721A-_approve}. Requirements: - The caller must own the token or be an approved operator."
					},
					"balanceOf(address)": {
						"details": "Returns the number of tokens in `owner`'s account."
					},
					"getApproved(uint256)": {
						"details": "Returns the account approved for `tokenId` token. Requirements: - `tokenId` must exist."
					},
					"isApprovedForAll(address,address)": {
						"details": "Returns if the `operator` is allowed to manage all of the assets of `owner`. See {setApprovalForAll}."
					},
					"name()": {
						"details": "Returns the token collection name."
					},
					"owner()": {
						"details": "Returns the address of the current owner."
					},
					"ownerOf(uint256)": {
						"details": "Returns the owner of the `tokenId` token. Requirements: - `tokenId` must exist."
					},
					"renounceOwnership()": {
						"details": "Leaves the contract without owner. It will not be possible to call `onlyOwner` functions. Can only be called by the current owner. NOTE: Renouncing ownership will leave the contract without an owner, thereby disabling any functionality that is only available to the owner."
					},
					"safetransferfrom(address,address,uint256)": {
						"details": "Equivalent to `safetransferfrom(from, to, tokenId, '')`."
					},
					"safetransferfrom(address,address,uint256,bytes)": {
						"details": "Safely transfers `tokenId` token from `from` to `to`. Requirements: - `from` cannot be the zero address. - `to` cannot be the zero address. - `tokenId` token must exist and be owned by `from`. - If the caller is not `from`, it must be approved to move this token by either {approve} or {setApprovalForAll}. - If `to` refers to a smart contract, it must implement {IERC721Receiver-onERC721Received}, which is called upon a safe transfer. Emits a {Transfer} event."
					},
					"setApprovalForAll(address,bool)": {
						"details": "Approve or remove `operator` as an operator for the caller. Operators can call {transferFrom} or {safetransferfrom} for any token owned by the caller. Requirements: - The `operator` cannot be the caller. Emits an {ApprovalForAll} event."
					},
					"supportsInterface(bytes4)": {
						"details": "Returns true if this contract implements the interface defined by `interfaceId`. See the corresponding [EIP section](https://eips.ethereum.org/EIPS/eip-165#how-interfaces-are-identified) to learn more about how these ids are created. This function call must use less than 30000 gas."
					},
					"symbol()": {
						"details": "Returns the token collection symbol."
					},
					"tokenURI(uint256)": {
						"details": "Returns the Uniform Resource Identifier (URI) for `tokenId` token."
					},
					"totalSupply()": {
						"details": "Returns the total number of tokens in existence. Burned tokens will reduce the count. To get the total number of tokens minted, please see {_totalMinted}."
					},
					"transferFrom(address,address,uint256)": {
						"details": "Transfers `tokenId` from `from` to `to`. Requirements: - `from` cannot be the zero address. - `to` cannot be the zero address. - `tokenId` token must be owned by `from`. - If the caller is not `from`, it must be approved to move this token by either {approve} or {setApprovalForAll}. Emits a {Transfer} event."
					},
					"transferOwnership(address)": {
						"details": "Transfers ownership of the contract to a new account (`newOwner`). Can only be called by the current owner."
					}
				},
				"version": 1
			},
			"evm": {
				"assembly": "    /* \"erc721A.sol\":47041:47589  contract E721A is ERC721A, Ownable(msg.sender) {... */\n  mstore(0x40, 0x80)\n    /* \"erc721A.sol\":47097:47138  constructor() ERC721A(\"e721a\", \"721a\") {} */\n  callvalue\n  dup1\n  iszero\n  tag_1\n  jumpi\n  0x00\n  dup1\n  revert\ntag_1:\n  pop\n    /* \"erc721A.sol\":47076:47086  msg.sender */\n  caller\n    /* \"erc721A.sol\":18147:18305  constructor(string memory name_, string memory symbol_) {... */\n  mload(0x40)\n  dup1\n  0x40\n  add\n  0x40\n  mstore\n  dup1\n  0x05\n  dup2\n  mstore\n  0x20\n  add\n  0x6537323161000000000000000000000000000000000000000000000000000000\n  dup2\n  mstore\n  pop\n  mload(0x40)\n  dup1\n  0x40\n  add\n  0x40\n  mstore\n  dup1\n  0x04\n  dup2\n  mstore\n  0x20\n  add\n  0x3732316100000000000000000000000000000000000000000000000000000000\n  dup2\n  mstore\n  pop\n    /* \"erc721A.sol\":18222:18227  name_ */\n  dup2\n    /* \"erc721A.sol\":18214:18219  _name */\n  0x02\n    /* \"erc721A.sol\":18214:18227  _name = name_ */\n  swap1\n  dup2\n  tag_6\n  swap2\n  swap1\n  tag_7\n  jump\t// in\ntag_6:\n  pop\n    /* \"erc721A.sol\":18248:18255  symbol_ */\n  dup1\n    /* \"erc721A.sol\":18238:18245  _symbol */\n  0x03\n    /* \"erc721A.sol\":18238:18255  _symbol = symbol_ */\n  swap1\n  dup2\n  tag_8\n  swap2\n  swap1\n  tag_7\n  jump\t// in\ntag_8:\n  pop\n    /* \"erc721A.sol\":18282:18297  _startTokenId() */\n  tag_9\n    /* \"erc721A.sol\":18282:18295  _startTokenId */\n  shl(0x20, tag_10)\n    /* \"erc721A.sol\":18282:18297  _startTokenId() */\n  0x20\n  shr\n  jump\t// in\ntag_9:\n    /* \"erc721A.sol\":18266:18279  _currentIndex */\n  0x00\n    /* \"erc721A.sol\":18266:18297  _currentIndex = _startTokenId() */\n  dup2\n  swap1\n  sstore\n  pop\n    /* \"erc721A.sol\":18147:18305  constructor(string memory name_, string memory symbol_) {... */\n  pop\n  pop\n    /* \"erc721A.sol\":2147:2148  0 */\n  0x00\n    /* \"erc721A.sol\":2123:2149  initialOwner == address(0) */\n  0xffffffffffffffffffffffffffffffffffffffff\n  and\n    /* \"erc721A.sol\":2123:2135  initialOwner */\n  dup2\n    /* \"erc721A.sol\":2123:2149  initialOwner == address(0) */\n  0xffffffffffffffffffffffffffffffffffffffff\n  and\n  sub\n    /* \"erc721A.sol\":2119:2216  if (initialOwner == address(0)) {... */\n  tag_12\n  jumpi\n    /* \"erc721A.sol\":2201:2202  0 */\n  0x00\n    /* \"erc721A.sol\":2173:2204  OwnableInvalidOwner(address(0)) */\n  mload(0x40)\n  0x1e4fbdf700000000000000000000000000000000000000000000000000000000\n  dup2\n  mstore\n  0x04\n  add\n  tag_13\n  swap2\n  swap1\n  tag_14\n  jump\t// in\ntag_13:\n  mload(0x40)\n  dup1\n  swap2\n  sub\n  swap1\n  revert\n    /* \"erc721A.sol\":2119:2216  if (initialOwner == address(0)) {... */\ntag_12:\n    /* \"erc721A.sol\":2226:2258  _transferOwnership(initialOwner) */\n  tag_15\n    /* \"erc721A.sol\":2245:2257  initialOwner */\n  dup2\n    /* \"erc721A.sol\":2226:2244  _transferOwnership */\n  shl(0x20, tag_16)\n    /* \"erc721A.sol\":2226:2258  _transferOwnership(initialOwner) */\n  0x20\n  shr\n  jump\t// in\ntag_15:\n    /* \"erc721A.sol\":2074:2266  constructor(address initialOwner) {... */\n  pop\n    /* \"erc721A.sol\":47041:47589  contract E721A is ERC721A, Ownable(msg.sender) {... */\n  jump(tag_18)\n    /* \"erc721A.sol\":18641:18733  function _startTokenId() internal view virtual returns (uint256) {... */\ntag_10:\n    /* \"erc721A.sol\":18697:18704  uint256 */\n  0x00\n    /* \"erc721A.sol\":18641:18733  function _startTokenId() internal view virtual returns (uint256) {... */\n  swap1\n  jump\t// out\n    /* \"erc721A.sol\":3818:4009  function _transferOwnership(address newOwner) internal virtual {... */\ntag_16:\n    /* \"erc721A.sol\":3892:3908  address oldOwner */\n  0x00\n    /* \"erc721A.sol\":3911:3917  _owner */\n  0x08\n  0x00\n  swap1\n  sload\n  swap1\n  0x0100\n  exp\n  swap1\n  div\n  0xffffffffffffffffffffffffffffffffffffffff\n  and\n    /* \"erc721A.sol\":3892:3917  address oldOwner = _owner */\n  swap1\n  pop\n    /* \"erc721A.sol\":3937:3945  newOwner */\n  dup2\n    /* \"erc721A.sol\":3928:3934  _owner */\n  0x08\n  0x00\n    /* \"erc721A.sol\":3928:3945  _owner = newOwner */\n  0x0100\n  exp\n  dup2\n  sload\n  dup2\n  0xffffffffffffffffffffffffffffffffffffffff\n  mul\n  not\n  and\n  swap1\n  dup4\n  0xffffffffffffffffffffffffffffffffffffffff\n  and\n  mul\n  or\n  swap1\n  sstore\n  pop\n    /* \"erc721A.sol\":3992:4000  newOwner */\n  dup2\n    /* \"erc721A.sol\":3961:4001  OwnershipTransferred(oldOwner, newOwner) */\n  0xffffffffffffffffffffffffffffffffffffffff\n  and\n    /* \"erc721A.sol\":3982:3990  oldOwner */\n  dup2\n    /* \"erc721A.sol\":3961:4001  OwnershipTransferred(oldOwner, newOwner) */\n  0xffffffffffffffffffffffffffffffffffffffff\n  and\n  0x8be0079c531659141344cd1fd0a4f28419497f9722a3daafe3b4186f6b6457e0\n  mload(0x40)\n  mload(0x40)\n  dup1\n  swap2\n  sub\n  swap1\n  log3\n    /* \"erc721A.sol\":3881:4009  {... */\n  pop\n    /* \"erc721A.sol\":3818:4009  function _transferOwnership(address newOwner) internal virtual {... */\n  pop\n  jump\t// out\n    /* \"#utility.yul\":7:106   */\ntag_21:\n    /* \"#utility.yul\":59:65   */\n  0x00\n    /* \"#utility.yul\":93:98   */\n  dup2\n    /* \"#utility.yul\":87:99   */\n  mload\n    /* \"#utility.yul\":77:99   */\n  swap1\n  pop\n    /* \"#utility.yul\":7:106   */\n  swap2\n  swap1\n  pop\n  jump\t// out\n    /* \"#utility.yul\":112:292   */\ntag_22:\n    /* \"#utility.yul\":160:237   */\n  0x4e487b7100000000000000000000000000000000000000000000000000000000\n    /* \"#utility.yul\":157:158   */\n  0x00\n    /* \"#utility.yul\":150:238   */\n  mstore\n    /* \"#utility.yul\":257:261   */\n  0x41\n    /* \"#utility.yul\":254:255   */\n  0x04\n    /* \"#utility.yul\":247:262   */\n  mstore\n    /* \"#utility.yul\":281:285   */\n  0x24\n    /* \"#utility.yul\":278:279   */\n  0x00\n    /* \"#utility.yul\":271:286   */\n  revert\n    /* \"#utility.yul\":298:478   */\ntag_23:\n    /* \"#utility.yul\":346:423   */\n  0x4e487b7100000000000000000000000000000000000000000000000000000000\n    /* \"#utility.yul\":343:344   */\n  0x00\n    /* \"#utility.yul\":336:424   */\n  mstore\n    /* \"#utility.yul\":443:447   */\n  0x22\n    /* \"#utility.yul\":440:441   */\n  0x04\n    /* \"#utility.yul\":433:448   */\n  mstore\n    /* \"#utility.yul\":467:471   */\n  0x24\n    /* \"#utility.yul\":464:465   */\n  0x00\n    /* \"#utility.yul\":457:472   */\n  revert\n    /* \"#utility.yul\":484:804   */\ntag_24:\n    /* \"#utility.yul\":528:534   */\n  0x00\n    /* \"#utility.yul\":565:566   */\n  0x02\n    /* \"#utility.yul\":559:563   */\n  dup3\n    /* \"#utility.yul\":555:567   */\n  div\n    /* \"#utility.yul\":545:567   */\n  swap1\n  pop\n    /* \"#utility.yul\":612:613   */\n  0x01\n    /* \"#utility.yul\":606:610   */\n  dup3\n    /* \"#utility.yul\":602:614   */\n  and\n    /* \"#utility.yul\":633:651   */\n  dup1\n    /* \"#utility.yul\":623:704   */\n  tag_49\n  jumpi\n    /* \"#utility.yul\":689:693   */\n  0x7f\n    /* \"#utility.yul\":681:687   */\n  dup3\n    /* \"#utility.yul\":677:694   */\n  and\n    /* \"#utility.yul\":667:694   */\n  swap2\n  pop\n    /* \"#utility.yul\":623:704   */\ntag_49:\n    /* \"#utility.yul\":751:753   */\n  0x20\n    /* \"#utility.yul\":743:749   */\n  dup3\n    /* \"#utility.yul\":740:754   */\n  lt\n    /* \"#utility.yul\":720:738   */\n  dup2\n    /* \"#utility.yul\":717:755   */\n  sub\n    /* \"#utility.yul\":714:798   */\n  tag_50\n  jumpi\n    /* \"#utility.yul\":770:788   */\n  tag_51\n  tag_23\n  jump\t// in\ntag_51:\n    /* \"#utility.yul\":714:798   */\ntag_50:\n    /* \"#utility.yul\":535:804   */\n  pop\n    /* \"#utility.yul\":484:804   */\n  swap2\n  swap1\n  pop\n  jump\t// out\n    /* \"#utility.yul\":810:951   */\ntag_25:\n    /* \"#utility.yul\":859:863   */\n  0x00\n    /* \"#utility.yul\":882:885   */\n  dup2\n    /* \"#utility.yul\":874:885   */\n  swap1\n  pop\n    /* \"#utility.yul\":905:908   */\n  dup2\n    /* \"#utility.yul\":902:903   */\n  0x00\n    /* \"#utility.yul\":895:909   */\n  mstore\n    /* \"#utility.yul\":939:943   */\n  0x20\n    /* \"#utility.yul\":936:937   */\n  0x00\n    /* \"#utility.yul\":926:944   */\n  keccak256\n    /* \"#utility.yul\":918:944   */\n  swap1\n  pop\n    /* \"#utility.yul\":810:951   */\n  swap2\n  swap1\n  pop\n  jump\t// out\n    /* \"#utility.yul\":957:1050   */\ntag_26:\n    /* \"#utility.yul\":994:1000   */\n  0x00\n    /* \"#utility.yul\":1041:1043   */\n  0x20\n    /* \"#utility.yul\":1036:1038   */\n  0x1f\n    /* \"#utility.yul\":1029:1034   */\n  dup4\n    /* \"#utility.yul\":1025:1039   */\n  add\n    /* \"#utility.yul\":1021:1044   */\n  div\n    /* \"#utility.yul\":1011:1044   */\n  swap1\n  pop\n    /* \"#utility.yul\":957:1050   */\n  swap2\n  swap1\n  pop\n  jump\t// out\n    /* \"#utility.yul\":1056:1163   */\ntag_27:\n    /* \"#utility.yul\":1100:1108   */\n  0x00\n    /* \"#utility.yul\":1150:1155   */\n  dup3\n    /* \"#utility.yul\":1144:1148   */\n  dup3\n    /* \"#utility.yul\":1140:1156   */\n  shl\n    /* \"#utility.yul\":1119:1156   */\n  swap1\n  pop\n    /* \"#utility.yul\":1056:1163   */\n  swap3\n  swap2\n  pop\n  pop\n  jump\t// out\n    /* \"#utility.yul\":1169:1562   */\ntag_28:\n    /* \"#utility.yul\":1238:1244   */\n  0x00\n    /* \"#utility.yul\":1288:1289   */\n  0x08\n    /* \"#utility.yul\":1276:1286   */\n  dup4\n    /* \"#utility.yul\":1272:1290   */\n  mul\n    /* \"#utility.yul\":1311:1408   */\n  tag_56\n    /* \"#utility.yul\":1341:1407   */\n  0xffffffffffffffffffffffffffffffffffffffffffffffffffffffffffffffff\n    /* \"#utility.yul\":1330:1339   */\n  dup3\n    /* \"#utility.yul\":1311:1408   */\n  tag_27\n  jump\t// in\ntag_56:\n    /* \"#utility.yul\":1429:1468   */\n  tag_57\n    /* \"#utility.yul\":1459:1467   */\n  dup7\n    /* \"#utility.yul\":1448:1457   */\n  dup4\n    /* \"#utility.yul\":1429:1468   */\n  tag_27\n  jump\t// in\ntag_57:\n    /* \"#utility.yul\":1417:1468   */\n  swap6\n  pop\n    /* \"#utility.yul\":1501:1505   */\n  dup1\n    /* \"#utility.yul\":1497:1506   */\n  not\n    /* \"#utility.yul\":1490:1495   */\n  dup5\n    /* \"#utility.yul\":1486:1507   */\n  and\n    /* \"#utility.yul\":1477:1507   */\n  swap4\n  pop\n    /* \"#utility.yul\":1550:1554   */\n  dup1\n    /* \"#utility.yul\":1540:1548   */\n  dup7\n    /* \"#utility.yul\":1536:1555   */\n  and\n    /* \"#utility.yul\":1529:1534   */\n  dup5\n    /* \"#utility.yul\":1526:1556   */\n  or\n    /* \"#utility.yul\":1516:1556   */\n  swap3\n  pop\n    /* \"#utility.yul\":1245:1562   */\n  pop\n  pop\n    /* \"#utility.yul\":1169:1562   */\n  swap4\n  swap3\n  pop\n  pop\n  pop\n  jump\t// out\n    /* \"#utility.yul\":1568:1645   */\ntag_29:\n    /* \"#utility.yul\":1605:1612   */\n  0x00\n    /* \"#utility.yul\":1634:1639   */\n  dup2\n    /* \"#utility.yul\":1623:1639   */\n  swap1\n  pop\n    /* \"#utility.yul\":1568:1645   */\n  swap2\n  swap1\n  pop\n  jump\t// out\n    /* \"#utility.yul\":1651:1711   */\ntag_30:\n    /* \"#utility.yul\":1679:1682   */\n  0x00\n    /* \"#utility.yul\":1700:1705   */\n  dup2\n    /* \"#utility.yul\":1693:1705   */\n  swap1\n  pop\n    /* \"#utility.yul\":1651:1711   */\n  swap2\n  swap1\n  pop\n  jump\t// out\n    /* \"#utility.yul\":1717:1859   */\ntag_31:\n    /* \"#utility.yul\":1767:1776   */\n  0x00\n    /* \"#utility.yul\":1800:1853   */\n  tag_61\n    /* \"#utility.yul\":1818:1852   */\n  tag_62\n    /* \"#utility.yul\":1827:1851   */\n  tag_63\n    /* \"#utility.yul\":1845:1850   */\n  dup5\n    /* \"#utility.yul\":1827:1851   */\n  tag_29\n  jump\t// in\ntag_63:\n    /* \"#utility.yul\":1818:1852   */\n  tag_30\n  jump\t// in\ntag_62:\n    /* \"#utility.yul\":1800:1853   */\n  tag_29\n  jump\t// in\ntag_61:\n    /* \"#utility.yul\":1787:1853   */\n  swap1\n  pop\n    /* \"#utility.yul\":1717:1859   */\n  swap2\n  swap1\n  pop\n  jump\t// out\n    /* \"#utility.yul\":1865:1940   */\ntag_32:\n    /* \"#utility.yul\":1908:1911   */\n  0x00\n    /* \"#utility.yul\":1929:1934   */\n  dup2\n    /* \"#utility.yul\":1922:1934   */\n  swap1\n  pop\n    /* \"#utility.yul\":1865:1940   */\n  swap2\n  swap1\n  pop\n  jump\t// out\n    /* \"#utility.yul\":1946:2215   */\ntag_33:\n    /* \"#utility.yul\":2056:2095   */\n  tag_66\n    /* \"#utility.yul\":2087:2094   */\n  dup4\n    /* \"#utility.yul\":2056:2095   */\n  tag_31\n  jump\t// in\ntag_66:\n    /* \"#utility.yul\":2117:2208   */\n  tag_67\n    /* \"#utility.yul\":2166:2207   */\n  tag_68\n    /* \"#utility.yul\":2190:2206   */\n  dup3\n    /* \"#utility.yul\":2166:2207   */\n  tag_32\n  jump\t// in\ntag_68:\n    /* \"#utility.yul\":2158:2164   */\n  dup5\n    /* \"#utility.yul\":2151:2155   */\n  dup5\n    /* \"#utility.yul\":2145:2156   */\n  sload\n    /* \"#utility.yul\":2117:2208   */\n  tag_28\n  jump\t// in\ntag_67:\n    /* \"#utility.yul\":2111:2115   */\n  dup3\n    /* \"#utility.yul\":2104:2209   */\n  sstore\n    /* \"#utility.yul\":2022:2215   */\n  pop\n    /* \"#utility.yul\":1946:2215   */\n  pop\n  pop\n  pop\n  jump\t// out\n    /* \"#utility.yul\":2221:2294   */\ntag_34:\n    /* \"#utility.yul\":2266:2269   */\n  0x00\n    /* \"#utility.yul\":2221:2294   */\n  swap1\n  jump\t// out\n    /* \"#utility.yul\":2300:2489   */\ntag_35:\n    /* \"#utility.yul\":2377:2409   */\n  tag_71\n  tag_34\n  jump\t// in\ntag_71:\n    /* \"#utility.yul\":2418:2483   */\n  tag_72\n    /* \"#utility.yul\":2476:2482   */\n  dup2\n    /* \"#utility.yul\":2468:2474   */\n  dup5\n    /* \"#utility.yul\":2462:2466   */\n  dup5\n    /* \"#utility.yul\":2418:2483   */\n  tag_33\n  jump\t// in\ntag_72:\n    /* \"#utility.yul\":2353:2489   */\n  pop\n    /* \"#utility.yul\":2300:2489   */\n  pop\n  pop\n  jump\t// out\n    /* \"#utility.yul\":2495:2681   */\ntag_36:\n    /* \"#utility.yul\":2555:2675   */\ntag_74:\n    /* \"#utility.yul\":2572:2575   */\n  dup2\n    /* \"#utility.yul\":2565:2570   */\n  dup2\n    /* \"#utility.yul\":2562:2576   */\n  lt\n    /* \"#utility.yul\":2555:2675   */\n  iszero\n  tag_76\n  jumpi\n    /* \"#utility.yul\":2626:2665   */\n  tag_77\n    /* \"#utility.yul\":2663:2664   */\n  0x00\n    /* \"#utility.yul\":2656:2661   */\n  dup3\n    /* \"#utility.yul\":2626:2665   */\n  tag_35\n  jump\t// in\ntag_77:\n    /* \"#utility.yul\":2599:2600   */\n  0x01\n    /* \"#utility.yul\":2592:2597   */\n  dup2\n    /* \"#utility.yul\":2588:2601   */\n  add\n    /* \"#utility.yul\":2579:2601   */\n  swap1\n  pop\n    /* \"#utility.yul\":2555:2675   */\n  jump(tag_74)\ntag_76:\n    /* \"#utility.yul\":2495:2681   */\n  pop\n  pop\n  jump\t// out\n    /* \"#utility.yul\":2687:3230   */\ntag_37:\n    /* \"#utility.yul\":2788:2790   */\n  0x1f\n    /* \"#utility.yul\":2783:2786   */\n  dup3\n    /* \"#utility.yul\":2780:2791   */\n  gt\n    /* \"#utility.yul\":2777:3223   */\n  iszero\n  tag_79\n  jumpi\n    /* \"#utility.yul\":2822:2860   */\n  tag_80\n    /* \"#utility.yul\":2854:2859   */\n  dup2\n    /* \"#utility.yul\":2822:2860   */\n  tag_25\n  jump\t// in\ntag_80:\n    /* \"#utility.yul\":2906:2935   */\n  tag_81\n    /* \"#utility.yul\":2924:2934   */\n  dup5\n    /* \"#utility.yul\":2906:2935   */\n  tag_26\n  jump\t// in\ntag_81:\n    /* \"#utility.yul\":2896:2904   */\n  dup2\n    /* \"#utility.yul\":2892:2936   */\n  add\n    /* \"#utility.yul\":3089:3091   */\n  0x20\n    /* \"#utility.yul\":3077:3087   */\n  dup6\n    /* \"#utility.yul\":3074:3092   */\n  lt\n    /* \"#utility.yul\":3071:3120   */\n  iszero\n  tag_82\n  jumpi\n    /* \"#utility.yul\":3110:3118   */\n  dup2\n    /* \"#utility.yul\":3095:3118   */\n  swap1\n  pop\n    /* \"#utility.yul\":3071:3120   */\ntag_82:\n    /* \"#utility.yul\":3133:3213   */\n  tag_83\n    /* \"#utility.yul\":3189:3211   */\n  tag_84\n    /* \"#utility.yul\":3207:3210   */\n  dup6\n    /* \"#utility.yul\":3189:3211   */\n  tag_26\n  jump\t// in\ntag_84:\n    /* \"#utility.yul\":3179:3187   */\n  dup4\n    /* \"#utility.yul\":3175:3212   */\n  add\n    /* \"#utility.yul\":3162:3173   */\n  dup3\n    /* \"#utility.yul\":3133:3213   */\n  tag_36\n  jump\t// in\ntag_83:\n    /* \"#utility.yul\":2792:3223   */\n  pop\n  pop\n    /* \"#utility.yul\":2777:3223   */\ntag_79:\n    /* \"#utility.yul\":2687:3230   */\n  pop\n  pop\n  pop\n  jump\t// out\n    /* \"#utility.yul\":3236:3353   */\ntag_38:\n    /* \"#utility.yul\":3290:3298   */\n  0x00\n    /* \"#utility.yul\":3340:3345   */\n  dup3\n    /* \"#utility.yul\":3334:3338   */\n  dup3\n    /* \"#utility.yul\":3330:3346   */\n  shr\n    /* \"#utility.yul\":3309:3346   */\n  swap1\n  pop\n    /* \"#utility.yul\":3236:3353   */\n  swap3\n  swap2\n  pop\n  pop\n  jump\t// out\n    /* \"#utility.yul\":3359:3528   */\ntag_39:\n    /* \"#utility.yul\":3403:3409   */\n  0x00\n    /* \"#utility.yul\":3436:3487   */\n  tag_87\n    /* \"#utility.yul\":3484:3485   */\n  0x00\n    /* \"#utility.yul\":3480:3486   */\n  not\n    /* \"#utility.yul\":3472:3477   */\n  dup5\n    /* \"#utility.yul\":3469:3470   */\n  0x08\n    /* \"#utility.yul\":3465:3478   */\n  mul\n    /* \"#utility.yul\":3436:3487   */\n  tag_38\n  jump\t// in\ntag_87:\n    /* \"#utility.yul\":3432:3488   */\n  not\n    /* \"#utility.yul\":3517:3521   */\n  dup1\n    /* \"#utility.yul\":3511:3515   */\n  dup4\n    /* \"#utility.yul\":3507:3522   */\n  and\n    /* \"#utility.yul\":3497:3522   */\n  swap2\n  pop\n    /* \"#utility.yul\":3410:3528   */\n  pop\n    /* \"#utility.yul\":3359:3528   */\n  swap3\n  swap2\n  pop\n  pop\n  jump\t// out\n    /* \"#utility.yul\":3533:3828   */\ntag_40:\n    /* \"#utility.yul\":3609:3613   */\n  0x00\n    /* \"#utility.yul\":3755:3784   */\n  tag_89\n    /* \"#utility.yul\":3780:3783   */\n  dup4\n    /* \"#utility.yul\":3774:3778   */\n  dup4\n    /* \"#utility.yul\":3755:3784   */\n  tag_39\n  jump\t// in\ntag_89:\n    /* \"#utility.yul\":3747:3784   */\n  swap2\n  pop\n    /* \"#utility.yul\":3817:3820   */\n  dup3\n    /* \"#utility.yul\":3814:3815   */\n  0x02\n    /* \"#utility.yul\":3810:3821   */\n  mul\n    /* \"#utility.yul\":3804:3808   */\n  dup3\n    /* \"#utility.yul\":3801:3822   */\n  or\n    /* \"#utility.yul\":3793:3822   */\n  swap1\n  pop\n    /* \"#utility.yul\":3533:3828   */\n  swap3\n  swap2\n  pop\n  pop\n  jump\t// out\n    /* \"#utility.yul\":3833:5228   */\ntag_7:\n    /* \"#utility.yul\":3950:3987   */\n  tag_91\n    /* \"#utility.yul\":3983:3986   */\n  dup3\n    /* \"#utility.yul\":3950:3987   */\n  tag_21\n  jump\t// in\ntag_91:\n    /* \"#utility.yul\":4052:4070   */\n  0xffffffffffffffff\n    /* \"#utility.yul\":4044:4050   */\n  dup2\n    /* \"#utility.yul\":4041:4071   */\n  gt\n    /* \"#utility.yul\":4038:4094   */\n  iszero\n  tag_92\n  jumpi\n    /* \"#utility.yul\":4074:4092   */\n  tag_93\n  tag_22\n  jump\t// in\ntag_93:\n    /* \"#utility.yul\":4038:4094   */\ntag_92:\n    /* \"#utility.yul\":4118:4156   */\n  tag_94\n    /* \"#utility.yul\":4150:4154   */\n  dup3\n    /* \"#utility.yul\":4144:4155   */\n  sload\n    /* \"#utility.yul\":4118:4156   */\n  tag_24\n  jump\t// in\ntag_94:\n    /* \"#utility.yul\":4203:4270   */\n  tag_95\n    /* \"#utility.yul\":4263:4269   */\n  dup3\n    /* \"#utility.yul\":4255:4261   */\n  dup3\n    /* \"#utility.yul\":4249:4253   */\n  dup6\n    /* \"#utility.yul\":4203:4270   */\n  tag_37\n  jump\t// in\ntag_95:\n    /* \"#utility.yul\":4297:4298   */\n  0x00\n    /* \"#utility.yul\":4321:4325   */\n  0x20\n    /* \"#utility.yul\":4308:4325   */\n  swap1\n  pop\n    /* \"#utility.yul\":4353:4355   */\n  0x1f\n    /* \"#utility.yul\":4345:4351   */\n  dup4\n    /* \"#utility.yul\":4342:4356   */\n  gt\n    /* \"#utility.yul\":4370:4371   */\n  0x01\n    /* \"#utility.yul\":4365:4983   */\n  dup2\n  eq\n  tag_97\n  jumpi\n    /* \"#utility.yul\":5027:5028   */\n  0x00\n    /* \"#utility.yul\":5044:5050   */\n  dup5\n    /* \"#utility.yul\":5041:5118   */\n  iszero\n  tag_98\n  jumpi\n    /* \"#utility.yul\":5093:5102   */\n  dup3\n    /* \"#utility.yul\":5088:5091   */\n  dup8\n    /* \"#utility.yul\":5084:5103   */\n  add\n    /* \"#utility.yul\":5078:5104   */\n  mload\n    /* \"#utility.yul\":5069:5104   */\n  swap1\n  pop\n    /* \"#utility.yul\":5041:5118   */\ntag_98:\n    /* \"#utility.yul\":5144:5211   */\n  tag_99\n    /* \"#utility.yul\":5204:5210   */\n  dup6\n    /* \"#utility.yul\":5197:5202   */\n  dup3\n    /* \"#utility.yul\":5144:5211   */\n  tag_40\n  jump\t// in\ntag_99:\n    /* \"#utility.yul\":5138:5142   */\n  dup7\n    /* \"#utility.yul\":5131:5212   */\n  sstore\n    /* \"#utility.yul\":5000:5222   */\n  pop\n    /* \"#utility.yul\":4335:5222   */\n  jump(tag_96)\n    /* \"#utility.yul\":4365:4983   */\ntag_97:\n    /* \"#utility.yul\":4417:4421   */\n  0x1f\n    /* \"#utility.yul\":4413:4422   */\n  not\n    /* \"#utility.yul\":4405:4411   */\n  dup5\n    /* \"#utility.yul\":4401:4423   */\n  and\n    /* \"#utility.yul\":4451:4488   */\n  tag_100\n    /* \"#utility.yul\":4483:4487   */\n  dup7\n    /* \"#utility.yul\":4451:4488   */\n  tag_25\n  jump\t// in\ntag_100:\n    /* \"#utility.yul\":4510:4511   */\n  0x00\n    /* \"#utility.yul\":4524:4732   */\ntag_101:\n    /* \"#utility.yul\":4538:4545   */\n  dup3\n    /* \"#utility.yul\":4535:4536   */\n  dup2\n    /* \"#utility.yul\":4532:4546   */\n  lt\n    /* \"#utility.yul\":4524:4732   */\n  iszero\n  tag_103\n  jumpi\n    /* \"#utility.yul\":4617:4626   */\n  dup5\n    /* \"#utility.yul\":4612:4615   */\n  dup10\n    /* \"#utility.yul\":4608:4627   */\n  add\n    /* \"#utility.yul\":4602:4628   */\n  mload\n    /* \"#utility.yul\":4594:4600   */\n  dup3\n    /* \"#utility.yul\":4587:4629   */\n  sstore\n    /* \"#utility.yul\":4668:4669   */\n  0x01\n    /* \"#utility.yul\":4660:4666   */\n  dup3\n    /* \"#utility.yul\":4656:4670   */\n  add\n    /* \"#utility.yul\":4646:4670   */\n  swap2\n  pop\n    /* \"#utility.yul\":4715:4717   */\n  0x20\n    /* \"#utility.yul\":4704:4713   */\n  dup6\n    /* \"#utility.yul\":4700:4718   */\n  add\n    /* \"#utility.yul\":4687:4718   */\n  swap5\n  pop\n    /* \"#utility.yul\":4561:4565   */\n  0x20\n    /* \"#utility.yul\":4558:4559   */\n  dup2\n    /* \"#utility.yul\":4554:4566   */\n  add\n    /* \"#utility.yul\":4549:4566   */\n  swap1\n  pop\n    /* \"#utility.yul\":4524:4732   */\n  jump(tag_101)\ntag_103:\n    /* \"#utility.yul\":4760:4766   */\n  dup7\n    /* \"#utility.yul\":4751:4758   */\n  dup4\n    /* \"#utility.yul\":4748:4767   */\n  lt\n    /* \"#utility.yul\":4745:4924   */\n  iszero\n  tag_104\n  jumpi\n    /* \"#utility.yul\":4818:4827   */\n  dup5\n    /* \"#utility.yul\":4813:4816   */\n  dup10\n    /* \"#utility.yul\":4809:4828   */\n  add\n    /* \"#utility.yul\":4803:4829   */\n  mload\n    /* \"#utility.yul\":4861:4909   */\n  tag_105\n    /* \"#utility.yul\":4903:4907   */\n  0x1f\n    /* \"#utility.yul\":4895:4901   */\n  dup10\n    /* \"#utility.yul\":4891:4908   */\n  and\n    /* \"#utility.yul\":4880:4889   */\n  dup3\n    /* \"#utility.yul\":4861:4909   */\n  tag_39\n  jump\t// in\ntag_105:\n    /* \"#utility.yul\":4853:4859   */\n  dup4\n    /* \"#utility.yul\":4846:4910   */\n  sstore\n    /* \"#utility.yul\":4768:4924   */\n  pop\n    /* \"#utility.yul\":4745:4924   */\ntag_104:\n    /* \"#utility.yul\":4970:4971   */\n  0x01\n    /* \"#utility.yul\":4966:4967   */\n  0x02\n    /* \"#utility.yul\":4958:4964   */\n  dup9\n    /* \"#utility.yul\":4954:4968   */\n  mul\n    /* \"#utility.yul\":4950:4972   */\n  add\n    /* \"#utility.yul\":4944:4948   */\n  dup9\n    /* \"#utility.yul\":4937:4973   */\n  sstore\n    /* \"#utility.yul\":4372:4983   */\n  pop\n  pop\n  pop\n    /* \"#utility.yul\":4335:5222   */\ntag_96:\n  pop\n    /* \"#utility.yul\":3925:5228   */\n  pop\n  pop\n  pop\n    /* \"#utility.yul\":3833:5228   */\n  pop\n  pop\n  jump\t// out\n    /* \"#utility.yul\":5234:5360   */\ntag_41:\n    /* \"#utility.yul\":5271:5278   */\n  0x00\n    /* \"#utility.yul\":5311:5353   */\n  0xffffffffffffffffffffffffffffffffffffffff\n    /* \"#utility.yul\":5304:5309   */\n  dup3\n    /* \"#utility.yul\":5300:5354   */\n  and\n    /* \"#utility.yul\":5289:5354   */\n  swap1\n  pop\n    /* \"#utility.yul\":5234:5360   */\n  swap2\n  swap1\n  pop\n  jump\t// out\n    /* \"#utility.yul\":5366:5462   */\ntag_42:\n    /* \"#utility.yul\":5403:5410   */\n  0x00\n    /* \"#utility.yul\":5432:5456   */\n  tag_108\n    /* \"#utility.yul\":5450:5455   */\n  dup3\n    /* \"#utility.yul\":5432:5456   */\n  tag_41\n  jump\t// in\ntag_108:\n    /* \"#utility.yul\":5421:5456   */\n  swap1\n  pop\n    /* \"#utility.yul\":5366:5462   */\n  swap2\n  swap1\n  pop\n  jump\t// out\n    /* \"#utility.yul\":5468:5586   */\ntag_43:\n    /* \"#utility.yul\":5555:5579   */\n  tag_110\n    /* \"#utility.yul\":5573:5578   */\n  dup2\n    /* \"#utility.yul\":5555:5579   */\n  tag_42\n  jump\t// in\ntag_110:\n    /* \"#utility.yul\":5550:5553   */\n  dup3\n    /* \"#utility.yul\":5543:5580   */\n  mstore\n    /* \"#utility.yul\":5468:5586   */\n  pop\n  pop\n  jump\t// out\n    /* \"#utility.yul\":5592:5814   */\ntag_14:\n    /* \"#utility.yul\":5685:5689   */\n  0x00\n    /* \"#utility.yul\":5723:5725   */\n  0x20\n    /* \"#utility.yul\":5712:5721   */\n  dup3\n    /* \"#utility.yul\":5708:5726   */\n  add\n    /* \"#utility.yul\":5700:5726   */\n  swap1\n  pop\n    /* \"#utility.yul\":5736:5807   */\n  tag_112\n    /* \"#utility.yul\":5804:5805   */\n  0x00\n    /* \"#utility.yul\":5793:5802   */\n  dup4\n    /* \"#utility.yul\":5789:5806   */\n  add\n    /* \"#utility.yul\":5780:5786   */\n  dup5\n    /* \"#utility.yul\":5736:5807   */\n  tag_43\n  jump\t// in\ntag_112:\n    /* \"#utility.yul\":5592:5814   */\n  swap3\n  swap2\n  pop\n  pop\n  jump\t// out\n    /* \"erc721A.sol\":47041:47589  contract E721A is ERC721A, Ownable(msg.sender) {... */\ntag_18:\n  dataSize(sub_0)\n  dup1\n  dataOffset(sub_0)\n  0x00\n  codecopy\n  0x00\n  return\nstop\n\nsub_0: assembly {\n        /* \"erc721A.sol\":47041:47589  contract E721A is ERC721A, Ownable(msg.sender) {... */\n      mstore(0x40, 0x80)\n      callvalue\n      dup1\n      iszero\n      tag_1\n      jumpi\n      0x00\n      dup1\n      revert\n    tag_1:\n      pop\n      jumpi(tag_2, lt(calldatasize, 0x04))\n      shr(0xe0, calldataload(0x00))\n      dup1\n      0x8da5cb5b\n      gt\n      tag_21\n      jumpi\n      dup1\n      0xc772ded1\n      gt\n      tag_22\n      jumpi\n      dup1\n      0xc772ded1\n      eq\n      tag_16\n      jumpi\n      dup1\n      0xc87b56dd\n      eq\n      tag_17\n      jumpi\n      dup1\n      0xd94b34b6\n      eq\n      tag_18\n      jumpi\n      dup1\n      0xe985e9c5\n      eq\n      tag_19\n      jumpi\n      dup1\n      0xf2fde38b\n      eq\n      tag_20\n      jumpi\n      jump(tag_2)\n    tag_22:\n      dup1\n      0x8da5cb5b\n      eq\n      tag_12\n      jumpi\n      dup1\n      0x95d89b41\n      eq\n      tag_13\n      jumpi\n      dup1\n      0xa0712d68\n      eq\n      tag_14\n      jumpi\n      dup1\n      0xa22cb465\n      eq\n      tag_15\n      jumpi\n      jump(tag_2)\n    tag_21:\n      dup1\n      0x18160ddd\n      gt\n      tag_23\n      jumpi\n      dup1\n      0x18160ddd\n      eq\n      tag_7\n      jumpi\n      dup1\n      0x23b872dd\n      eq\n      tag_8\n      jumpi\n      dup1\n      0x6352211e\n      eq\n      tag_9\n      jumpi\n      dup1\n      0x70a08231\n      eq\n      tag_10\n      jumpi\n      dup1\n      0x715018a6\n      eq\n      tag_11\n      jumpi\n      jump(tag_2)\n    tag_23:\n      dup1\n      0x01ffc9a7\n      eq\n      tag_3\n      jumpi\n      dup1\n      0x06fdde03\n      eq\n      tag_4\n      jumpi\n      dup1\n      0x081812fc\n      eq\n      tag_5\n      jumpi\n      dup1\n      0x095ea7b3\n      eq\n      tag_6\n      jumpi\n    tag_2:\n      0x00\n      dup1\n      revert\n        /* \"erc721A.sol\":20353:20992  function supportsInterface(bytes4 interfaceId) public view virtual override returns (bool) {... */\n    tag_3:\n      tag_24\n      0x04\n      dup1\n      calldatasize\n      sub\n      dup2\n      add\n      swap1\n      tag_25\n      swap2\n      swap1\n      tag_26\n      jump\t// in\n    tag_25:\n      tag_27\n      jump\t// in\n    tag_24:\n      mload(0x40)\n      tag_28\n      swap2\n      swap1\n      tag_29\n      jump\t// in\n    tag_28:\n      mload(0x40)\n      dup1\n      swap2\n      sub\n      swap1\n      return\n        /* \"erc721A.sol\":21255:21355  function name() public view virtual override returns (string memory) {... */\n    tag_4:\n      tag_30\n      tag_31\n      jump\t// in\n    tag_30:\n      mload(0x40)\n      tag_32\n      swap2\n      swap1\n      tag_33\n      jump\t// in\n    tag_32:\n      mload(0x40)\n      dup1\n      swap2\n      sub\n      swap1\n      return\n        /* \"erc721A.sol\":26872:27099  function getApproved(uint256 tokenId) public view virtual override returns (address) {... */\n    tag_5:\n      tag_34\n      0x04\n      dup1\n      calldatasize\n      sub\n      dup2\n      add\n      swap1\n      tag_35\n      swap2\n      swap1\n      tag_36\n      jump\t// in\n    tag_35:\n      tag_37\n      jump\t// in\n    tag_34:\n      mload(0x40)\n      tag_38\n      swap2\n      swap1\n      tag_39\n      jump\t// in\n    tag_38:\n      mload(0x40)\n      dup1\n      swap2\n      sub\n      swap1\n      return\n        /* \"erc721A.sol\":26597:26713  function approve(address to, uint256 tokenId) public virtual override {... */\n    tag_6:\n      tag_40\n      0x04\n      dup1\n      calldatasize\n      sub\n      dup2\n      add\n      swap1\n      tag_41\n      swap2\n      swap1\n      tag_42\n      jump\t// in\n    tag_41:\n      tag_43\n      jump\t// in\n    tag_40:\n      stop\n        /* \"erc721A.sol\":18943:19266  function totalSupply() public view virtual override returns (uint256) {... */\n    tag_7:\n      tag_44\n      tag_45\n      jump\t// in\n    tag_44:\n      mload(0x40)\n      tag_46\n      swap2\n      swap1\n      tag_47\n      jump\t// in\n    tag_46:\n      mload(0x40)\n      dup1\n      swap2\n      sub\n      swap1\n      return\n        /* \"erc721A.sol\":30606:34121  function transferFrom(... */\n    tag_8:\n      tag_48\n      0x04\n      dup1\n      calldatasize\n      sub\n      dup2\n      add\n      swap1\n      tag_49\n      swap2\n      swap1\n      tag_50\n      jump\t// in\n    tag_49:\n      tag_51\n      jump\t// in\n    tag_48:\n      stop\n        /* \"erc721A.sol\":22702:22854  function ownerOf(uint256 tokenId) public view virtual override returns (address) {... */\n    tag_9:\n      tag_52\n      0x04\n      dup1\n      calldatasize\n      sub\n      dup2\n      add\n      swap1\n      tag_53\n      swap2\n      swap1\n      tag_36\n      jump\t// in\n    tag_53:\n      tag_54\n      jump\t// in\n    tag_52:\n      mload(0x40)\n      tag_55\n      swap2\n      swap1\n      tag_39\n      jump\t// in\n    tag_55:\n      mload(0x40)\n      dup1\n      swap2\n      sub\n      swap1\n      return\n        /* \"erc721A.sol\":19553:19795  function balanceOf(address owner) public view virtual override returns (uint256) {... */\n    tag_10:\n      tag_56\n      0x04\n      dup1\n      calldatasize\n      sub\n      dup2\n      add\n      swap1\n      tag_57\n      swap2\n      swap1\n      tag_58\n      jump\t// in\n    tag_57:\n      tag_59\n      jump\t// in\n    tag_56:\n      mload(0x40)\n      tag_60\n      swap2\n      swap1\n      tag_47\n      jump\t// in\n    tag_60:\n      mload(0x40)\n      dup1\n      swap2\n      sub\n      swap1\n      return\n        /* \"erc721A.sol\":3180:3283  function renounceOwnership() public virtual onlyOwner {... */\n    tag_11:\n      tag_61\n      tag_62\n      jump\t// in\n    tag_61:\n      stop\n        /* \"erc721A.sol\":2505:2592  function owner() public view virtual returns (address) {... */\n    tag_12:\n      tag_63\n      tag_64\n      jump\t// in\n    tag_63:\n      mload(0x40)\n      tag_65\n      swap2\n      swap1\n      tag_39\n      jump\t// in\n    tag_65:\n      mload(0x40)\n      dup1\n      swap2\n      sub\n      swap1\n      return\n        /* \"erc721A.sol\":21431:21535  function symbol() public view virtual override returns (string memory) {... */\n    tag_13:\n      tag_66\n      tag_67\n      jump\t// in\n    tag_66:\n      mload(0x40)\n      tag_68\n      swap2\n      swap1\n      tag_33\n      jump\t// in\n    tag_68:\n      mload(0x40)\n      dup1\n      swap2\n      sub\n      swap1\n      return\n        /* \"erc721A.sol\":47154:47241  function mint(uint n) public onlyOwner ... */\n    tag_14:\n      tag_69\n      0x04\n      dup1\n      calldatasize\n      sub\n      dup2\n      add\n      swap1\n      tag_70\n      swap2\n      swap1\n      tag_36\n      jump\t// in\n    tag_70:\n      tag_71\n      jump\t// in\n    tag_69:\n      stop\n        /* \"erc721A.sol\":27439:27673  function setApprovalForAll(address operator, bool approved) public virtual override {... */\n    tag_15:\n      tag_72\n      0x04\n      dup1\n      calldatasize\n      sub\n      dup2\n      add\n      swap1\n      tag_73\n      swap2\n      swap1\n      tag_74\n      jump\t// in\n    tag_73:\n      tag_75\n      jump\t// in\n    tag_72:\n      stop\n        /* \"erc721A.sol\":35000:35406  function safetransferfrom(... */\n    tag_16:\n      tag_76\n      0x04\n      dup1\n      calldatasize\n      sub\n      dup2\n      add\n      swap1\n      tag_77\n      swap2\n      swap1\n      tag_78\n      jump\t// in\n    tag_77:\n      tag_79\n      jump\t// in\n    tag_76:\n      stop\n        /* \"erc721A.sol\":47249:47586  function tokenURI(uint256 tokenId) public view virtual override returns (string memory) {... */\n    tag_17:\n      tag_80\n      0x04\n      dup1\n      calldatasize\n      sub\n      dup2\n      add\n      swap1\n      tag_81\n      swap2\n      swap1\n      tag_36\n      jump\t// in\n    tag_81:\n      tag_82\n      jump\t// in\n    tag_80:\n      mload(0x40)\n      tag_83\n      swap2\n      swap1\n      tag_33\n      jump\t// in\n    tag_83:\n      mload(0x40)\n      dup1\n      swap2\n      sub\n      swap1\n      return\n        /* \"erc721A.sol\":34217:34402  function safetransferfrom(... */\n    tag_18:\n      tag_84\n      0x04\n      dup1\n      calldatasize\n      sub\n      dup2\n      add\n      swap1\n      tag_85\n      swap2\n      swap1\n      tag_50\n      jump\t// in\n    tag_85:\n      tag_86\n      jump\t// in\n    tag_84:\n      stop\n        /* \"erc721A.sol\":27830:27994  function isApprovedForAll(address owner, address operator) public view virtual override returns (bool) {... */\n    tag_19:\n      tag_87\n      0x04\n      dup1\n      calldatasize\n      sub\n      dup2\n      add\n      swap1\n      tag_88\n      swap2\n      swap1\n      tag_89\n      jump\t// in\n    tag_88:\n      tag_90\n      jump\t// in\n    tag_87:\n      mload(0x40)\n      tag_91\n      swap2\n      swap1\n      tag_29\n      jump\t// in\n    tag_91:\n      mload(0x40)\n      dup1\n      swap2\n      sub\n      swap1\n      return\n        /* \"erc721A.sol\":3438:3658  function transferOwnership(address newOwner) public virtual onlyOwner {... */\n    tag_20:\n      tag_92\n      0x04\n      dup1\n      calldatasize\n      sub\n      dup2\n      add\n      swap1\n      tag_93\n      swap2\n      swap1\n      tag_58\n      jump\t// in\n    tag_93:\n      tag_94\n      jump\t// in\n    tag_92:\n      stop\n        /* \"erc721A.sol\":20353:20992  function supportsInterface(bytes4 interfaceId) public view virtual override returns (bool) {... */\n    tag_27:\n        /* \"erc721A.sol\":20438:20442  bool */\n      0x00\n        /* \"erc721A.sol\":20777:20787  0x01ffc9a7 */\n      0x01ffc9a7\n        /* \"erc721A.sol\":20762:20787  interfaceId == 0x01ffc9a7 */\n      0xe0\n      shl\n        /* \"erc721A.sol\":20762:20773  interfaceId */\n      dup3\n        /* \"erc721A.sol\":20762:20787  interfaceId == 0x01ffc9a7 */\n      not(0xffffffffffffffffffffffffffffffffffffffffffffffffffffffff)\n      and\n      eq\n        /* \"erc721A.sol\":20762:20864  interfaceId == 0x01ffc9a7 || // ERC165 interface ID for ERC165.... */\n      dup1\n      tag_96\n      jumpi\n      pop\n        /* \"erc721A.sol\":20854:20864  0x80ac58cd */\n      0x80ac58cd\n        /* \"erc721A.sol\":20839:20864  interfaceId == 0x80ac58cd */\n      0xe0\n      shl\n        /* \"erc721A.sol\":20839:20850  interfaceId */\n      dup3\n        /* \"erc721A.sol\":20839:20864  interfaceId == 0x80ac58cd */\n      not(0xffffffffffffffffffffffffffffffffffffffffffffffffffffffff)\n      and\n      eq\n        /* \"erc721A.sol\":20762:20864  interfaceId == 0x01ffc9a7 || // ERC165 interface ID for ERC165.... */\n    tag_96:\n        /* \"erc721A.sol\":20762:20941  interfaceId == 0x01ffc9a7 || // ERC165 interface ID for ERC165.... */\n      dup1\n      tag_97\n      jumpi\n      pop\n        /* \"erc721A.sol\":20931:20941  0x5b5e139f */\n      0x5b5e139f\n        /* \"erc721A.sol\":20916:20941  interfaceId == 0x5b5e139f */\n      0xe0\n      shl\n        /* \"erc721A.sol\":20916:20927  interfaceId */\n      dup3\n        /* \"erc721A.sol\":20916:20941  interfaceId == 0x5b5e139f */\n      not(0xffffffffffffffffffffffffffffffffffffffffffffffffffffffff)\n      and\n      eq\n        /* \"erc721A.sol\":20762:20941  interfaceId == 0x01ffc9a7 || // ERC165 interface ID for ERC165.... */\n    tag_97:\n        /* \"erc721A.sol\":20742:20941  return... */\n      swap1\n      pop\n        /* \"erc721A.sol\":20353:20992  function supportsInterface(bytes4 interfaceId) public view virtual override returns (bool) {... */\n      swap2\n      swap1\n      pop\n      jump\t// out\n        /* \"erc721A.sol\":21255:21355  function name() public view virtual override returns (string memory) {... */\n    tag_31:\n        /* \"erc721A.sol\":21309:21322  string memory */\n      0x60\n        /* \"erc721A.sol\":21342:21347  _name */\n      0x02\n        /* \"erc721A.sol\":21335:21347  return _name */\n      dup1\n      sload\n      tag_99\n      swap1\n      tag_100\n      jump\t// in\n    tag_99:\n      dup1\n      0x1f\n      add\n      0x20\n      dup1\n      swap2\n      div\n      mul\n      0x20\n      add\n      mload(0x40)\n      swap1\n      dup2\n      add\n      0x40\n      mstore\n      dup1\n      swap3\n      swap2\n      swap1\n      dup2\n      dup2\n      mstore\n      0x20\n      add\n      dup3\n      dup1\n      sload\n      tag_101\n      swap1\n      tag_100\n      jump\t// in\n    tag_101:\n      dup1\n      iszero\n      tag_102\n      jumpi\n      dup1\n      0x1f\n      lt\n      tag_103\n      jumpi\n      0x0100\n      dup1\n      dup4\n      sload\n      div\n      mul\n      dup4\n      mstore\n      swap2\n      0x20\n      add\n      swap2\n      jump(tag_102)\n    tag_103:\n      dup3\n      add\n      swap2\n      swap1\n      0x00\n      mstore\n      keccak256(0x00, 0x20)\n      swap1\n    tag_104:\n      dup2\n      sload\n      dup2\n      mstore\n      swap1\n      0x01\n      add\n      swap1\n      0x20\n      add\n      dup1\n      dup4\n      gt\n      tag_104\n      jumpi\n      dup3\n      swap1\n      sub\n      0x1f\n      and\n      dup3\n      add\n      swap2\n    tag_102:\n      pop\n      pop\n      pop\n      pop\n      pop\n      swap1\n      pop\n        /* \"erc721A.sol\":21255:21355  function name() public view virtual override returns (string memory) {... */\n      swap1\n      jump\t// out\n        /* \"erc721A.sol\":26872:27099  function getApproved(uint256 tokenId) public view virtual override returns (address) {... */\n    tag_37:\n        /* \"erc721A.sol\":26948:26955  address */\n      0x00\n        /* \"erc721A.sol\":26973:26989  _exists(tokenId) */\n      tag_106\n        /* \"erc721A.sol\":26981:26988  tokenId */\n      dup3\n        /* \"erc721A.sol\":26973:26980  _exists */\n      tag_107\n        /* \"erc721A.sol\":26973:26989  _exists(tokenId) */\n      jump\t// in\n    tag_106:\n        /* \"erc721A.sol\":26968:27041  if (!_exists(tokenId)) _revert(ApprovalQueryForNonexistentToken.selector) */\n      tag_108\n      jumpi\n        /* \"erc721A.sol\":26991:27041  _revert(ApprovalQueryForNonexistentToken.selector) */\n      tag_109\n        /* \"erc721A.sol\":26999:27040  ApprovalQueryForNonexistentToken.selector */\n      shl(0xe0, 0xcf4700e4)\n        /* \"erc721A.sol\":26991:26998  _revert */\n      tag_110\n        /* \"erc721A.sol\":26991:27041  _revert(ApprovalQueryForNonexistentToken.selector) */\n      jump\t// in\n    tag_109:\n        /* \"erc721A.sol\":26968:27041  if (!_exists(tokenId)) _revert(ApprovalQueryForNonexistentToken.selector) */\n    tag_108:\n        /* \"erc721A.sol\":27061:27076  _tokenApprovals */\n      0x06\n        /* \"erc721A.sol\":27061:27085  _tokenApprovals[tokenId] */\n      0x00\n        /* \"erc721A.sol\":27077:27084  tokenId */\n      dup4\n        /* \"erc721A.sol\":27061:27085  _tokenApprovals[tokenId] */\n      dup2\n      mstore\n      0x20\n      add\n      swap1\n      dup2\n      mstore\n      0x20\n      add\n      0x00\n      keccak256\n        /* \"erc721A.sol\":27061:27091  _tokenApprovals[tokenId].value */\n      0x00\n      add\n      0x00\n      swap1\n      sload\n      swap1\n      0x0100\n      exp\n      swap1\n      div\n      0xffffffffffffffffffffffffffffffffffffffff\n      and\n        /* \"erc721A.sol\":27054:27091  return _tokenApprovals[tokenId].value */\n      swap1\n      pop\n        /* \"erc721A.sol\":26872:27099  function getApproved(uint256 tokenId) public view virtual override returns (address) {... */\n      swap2\n      swap1\n      pop\n      jump\t// out\n        /* \"erc721A.sol\":26597:26713  function approve(address to, uint256 tokenId) public virtual override {... */\n    tag_43:\n        /* \"erc721A.sol\":26678:26705  _approve(to, tokenId, true) */\n      tag_112\n        /* \"erc721A.sol\":26687:26689  to */\n      dup3\n        /* \"erc721A.sol\":26691:26698  tokenId */\n      dup3\n        /* \"erc721A.sol\":26700:26704  true */\n      0x01\n        /* \"erc721A.sol\":26678:26686  _approve */\n      tag_113\n        /* \"erc721A.sol\":26678:26705  _approve(to, tokenId, true) */\n      jump\t// in\n    tag_112:\n        /* \"erc721A.sol\":26597:26713  function approve(address to, uint256 tokenId) public virtual override {... */\n      pop\n      pop\n      jump\t// out\n        /* \"erc721A.sol\":18943:19266  function totalSupply() public view virtual override returns (uint256) {... */\n    tag_45:\n        /* \"erc721A.sol\":19004:19011  uint256 */\n      0x00\n        /* \"erc721A.sol\":19232:19247  _startTokenId() */\n      tag_115\n        /* \"erc721A.sol\":19232:19245  _startTokenId */\n      tag_116\n        /* \"erc721A.sol\":19232:19247  _startTokenId() */\n      jump\t// in\n    tag_115:\n        /* \"erc721A.sol\":19217:19229  _burnCounter */\n      sload(0x01)\n        /* \"erc721A.sol\":19201:19214  _currentIndex */\n      sload(0x00)\n        /* \"erc721A.sol\":19201:19229  _currentIndex - _burnCounter */\n      sub\n        /* \"erc721A.sol\":19201:19247  _currentIndex - _burnCounter - _startTokenId() */\n      sub\n        /* \"erc721A.sol\":19194:19247  return _currentIndex - _burnCounter - _startTokenId() */\n      swap1\n      pop\n        /* \"erc721A.sol\":18943:19266  function totalSupply() public view virtual override returns (uint256) {... */\n      swap1\n      jump\t// out\n        /* \"erc721A.sol\":30606:34121  function transferFrom(... */\n    tag_51:\n        /* \"erc721A.sol\":30740:30767  uint256 prevOwnershipPacked */\n      0x00\n        /* \"erc721A.sol\":30770:30797  _packedOwnershipOf(tokenId) */\n      tag_118\n        /* \"erc721A.sol\":30789:30796  tokenId */\n      dup3\n        /* \"erc721A.sol\":30770:30788  _packedOwnershipOf */\n      tag_119\n        /* \"erc721A.sol\":30770:30797  _packedOwnershipOf(tokenId) */\n      jump\t// in\n    tag_118:\n        /* \"erc721A.sol\":30740:30797  uint256 prevOwnershipPacked = _packedOwnershipOf(tokenId) */\n      swap1\n      pop\n        /* \"erc721A.sol\":15926:15940  (1 << 160) - 1 */\n      0xffffffffffffffffffffffffffffffffffffffff\n        /* \"erc721A.sol\":30941:30945  from */\n      dup5\n        /* \"erc721A.sol\":30925:30947  uint256(uint160(from)) */\n      0xffffffffffffffffffffffffffffffffffffffff\n      and\n        /* \"erc721A.sol\":30925:30966  uint256(uint160(from)) & _BITMASK_ADDRESS */\n      and\n        /* \"erc721A.sol\":30902:30968  from = address(uint160(uint256(uint160(from)) & _BITMASK_ADDRESS)) */\n      swap4\n      pop\n        /* \"erc721A.sol\":31026:31030  from */\n      dup4\n        /* \"erc721A.sol\":30985:31030  address(uint160(prevOwnershipPacked)) != from */\n      0xffffffffffffffffffffffffffffffffffffffff\n      and\n        /* \"erc721A.sol\":31001:31020  prevOwnershipPacked */\n      dup2\n        /* \"erc721A.sol\":30985:31030  address(uint160(prevOwnershipPacked)) != from */\n      0xffffffffffffffffffffffffffffffffffffffff\n      and\n      eq\n        /* \"erc721A.sol\":30981:31076  if (address(uint160(prevOwnershipPacked)) != from) _revert(TransferFromIncorrectOwner.selector) */\n      tag_120\n      jumpi\n        /* \"erc721A.sol\":31032:31076  _revert(TransferFromIncorrectOwner.selector) */\n      tag_121\n        /* \"erc721A.sol\":31040:31075  TransferFromIncorrectOwner.selector */\n      shl(0xe0, 0xa1148100)\n        /* \"erc721A.sol\":31032:31039  _revert */\n      tag_110\n        /* \"erc721A.sol\":31032:31076  _revert(TransferFromIncorrectOwner.selector) */\n      jump\t// in\n    tag_121:\n        /* \"erc721A.sol\":30981:31076  if (address(uint160(prevOwnershipPacked)) != from) _revert(TransferFromIncorrectOwner.selector) */\n    tag_120:\n        /* \"erc721A.sol\":31090:31117  uint256 approvedAddressSlot */\n      0x00\n        /* \"erc721A.sol\":31119:31142  address approvedAddress */\n      dup1\n        /* \"erc721A.sol\":31146:31181  _getApprovedSlotAndAddress(tokenId) */\n      tag_122\n        /* \"erc721A.sol\":31173:31180  tokenId */\n      dup5\n        /* \"erc721A.sol\":31146:31172  _getApprovedSlotAndAddress */\n      tag_123\n        /* \"erc721A.sol\":31146:31181  _getApprovedSlotAndAddress(tokenId) */\n      jump\t// in\n    tag_122:\n        /* \"erc721A.sol\":31089:31181  (uint256 approvedAddressSlot, address approvedAddress) = _getApprovedSlotAndAddress(tokenId) */\n      swap2\n      pop\n      swap2\n      pop\n        /* \"erc721A.sol\":31281:31349  _isSenderApprovedOrOwner(approvedAddress, from, _msgSenderERC721A()) */\n      tag_124\n        /* \"erc721A.sol\":31306:31321  approvedAddress */\n      dup2\n        /* \"erc721A.sol\":31323:31327  from */\n      dup8\n        /* \"erc721A.sol\":31329:31348  _msgSenderERC721A() */\n      tag_125\n        /* \"erc721A.sol\":31329:31346  _msgSenderERC721A */\n      tag_126\n        /* \"erc721A.sol\":31329:31348  _msgSenderERC721A() */\n      jump\t// in\n    tag_125:\n        /* \"erc721A.sol\":31281:31305  _isSenderApprovedOrOwner */\n      tag_127\n        /* \"erc721A.sol\":31281:31349  _isSenderApprovedOrOwner(approvedAddress, from, _msgSenderERC721A()) */\n      jump\t// in\n    tag_124:\n        /* \"erc721A.sol\":31276:31465  if (!_isSenderApprovedOrOwner(approvedAddress, from, _msgSenderERC721A()))... */\n      tag_128\n      jumpi\n        /* \"erc721A.sol\":31369:31412  isApprovedForAll(from, _msgSenderERC721A()) */\n      tag_129\n        /* \"erc721A.sol\":31386:31390  from */\n      dup7\n        /* \"erc721A.sol\":31392:31411  _msgSenderERC721A() */\n      tag_130\n        /* \"erc721A.sol\":31392:31409  _msgSenderERC721A */\n      tag_126\n        /* \"erc721A.sol\":31392:31411  _msgSenderERC721A() */\n      jump\t// in\n    tag_130:\n        /* \"erc721A.sol\":31369:31385  isApprovedForAll */\n      tag_90\n        /* \"erc721A.sol\":31369:31412  isApprovedForAll(from, _msgSenderERC721A()) */\n      jump\t// in\n    tag_129:\n        /* \"erc721A.sol\":31364:31465  if (!isApprovedForAll(from, _msgSenderERC721A())) _revert(TransferCallerNotOwnerNorApproved.selector) */\n      tag_131\n      jumpi\n        /* \"erc721A.sol\":31414:31465  _revert(TransferCallerNotOwnerNorApproved.selector) */\n      tag_132\n        /* \"erc721A.sol\":31422:31464  TransferCallerNotOwnerNorApproved.selector */\n      shl(0xe0, 0x59c896be)\n        /* \"erc721A.sol\":31414:31421  _revert */\n      tag_110\n        /* \"erc721A.sol\":31414:31465  _revert(TransferCallerNotOwnerNorApproved.selector) */\n      jump\t// in\n    tag_132:\n        /* \"erc721A.sol\":31364:31465  if (!isApprovedForAll(from, _msgSenderERC721A())) _revert(TransferCallerNotOwnerNorApproved.selector) */\n    tag_131:\n        /* \"erc721A.sol\":31276:31465  if (!_isSenderApprovedOrOwner(approvedAddress, from, _msgSenderERC721A()))... */\n    tag_128:\n        /* \"erc721A.sol\":31478:31521  _beforeTokenTransfers(from, to, tokenId, 1) */\n      tag_133\n        /* \"erc721A.sol\":31500:31504  from */\n      dup7\n        /* \"erc721A.sol\":31506:31508  to */\n      dup7\n        /* \"erc721A.sol\":31510:31517  tokenId */\n      dup7\n        /* \"erc721A.sol\":31519:31520  1 */\n      0x01\n        /* \"erc721A.sol\":31478:31499  _beforeTokenTransfers */\n      tag_134\n        /* \"erc721A.sol\":31478:31521  _beforeTokenTransfers(from, to, tokenId, 1) */\n      jump\t// in\n    tag_133:\n        /* \"erc721A.sol\":31614:31629  approvedAddress */\n      dup1\n        /* \"erc721A.sol\":31611:31771  if approvedAddress {... */\n      iszero\n      tag_135\n      jumpi\n        /* \"erc721A.sol\":31754:31755  0 */\n      0x00\n        /* \"erc721A.sol\":31733:31752  approvedAddressSlot */\n      dup3\n        /* \"erc721A.sol\":31726:31756  sstore(approvedAddressSlot, 0) */\n      sstore\n        /* \"erc721A.sol\":31611:31771  if approvedAddress {... */\n    tag_135:\n        /* \"erc721A.sol\":32151:32169  _packedAddressData */\n      0x05\n        /* \"erc721A.sol\":32151:32175  _packedAddressData[from] */\n      0x00\n        /* \"erc721A.sol\":32170:32174  from */\n      dup8\n        /* \"erc721A.sol\":32151:32175  _packedAddressData[from] */\n      0xffffffffffffffffffffffffffffffffffffffff\n      and\n      0xffffffffffffffffffffffffffffffffffffffff\n      and\n      dup2\n      mstore\n      0x20\n      add\n      swap1\n      dup2\n      mstore\n      0x20\n      add\n      0x00\n      keccak256\n      0x00\n        /* \"erc721A.sol\":32149:32175  --_packedAddressData[from] */\n      dup2\n      sload\n      0x01\n      swap1\n      sub\n      swap2\n      swap1\n      pop\n      dup2\n      swap1\n      sstore\n      pop\n        /* \"erc721A.sol\":32220:32238  _packedAddressData */\n      0x05\n        /* \"erc721A.sol\":32220:32242  _packedAddressData[to] */\n      0x00\n        /* \"erc721A.sol\":32239:32241  to */\n      dup7\n        /* \"erc721A.sol\":32220:32242  _packedAddressData[to] */\n      0xffffffffffffffffffffffffffffffffffffffff\n      and\n      0xffffffffffffffffffffffffffffffffffffffff\n      and\n      dup2\n      mstore\n      0x20\n      add\n      swap1\n      dup2\n      mstore\n      0x20\n      add\n      0x00\n      keccak256\n      0x00\n        /* \"erc721A.sol\":32218:32242  ++_packedAddressData[to] */\n      dup2\n      sload\n      0x01\n      add\n      swap2\n      swap1\n      pop\n      dup2\n      swap1\n      sstore\n      pop\n        /* \"erc721A.sol\":32542:32688  _packOwnershipData(... */\n      tag_136\n        /* \"erc721A.sol\":32579:32581  to */\n      dup6\n        /* \"erc721A.sol\":32628:32673  _nextExtraData(from, to, prevOwnershipPacked) */\n      tag_137\n        /* \"erc721A.sol\":32643:32647  from */\n      dup9\n        /* \"erc721A.sol\":32649:32651  to */\n      dup9\n        /* \"erc721A.sol\":32653:32672  prevOwnershipPacked */\n      dup8\n        /* \"erc721A.sol\":32628:32642  _nextExtraData */\n      tag_138\n        /* \"erc721A.sol\":32628:32673  _nextExtraData(from, to, prevOwnershipPacked) */\n      jump\t// in\n    tag_137:\n        /* \"erc721A.sol\":15524:15532  1 << 225 */\n      0x0200000000000000000000000000000000000000000000000000000000\n        /* \"erc721A.sol\":32600:32673  _BITMASK_NEXT_INITIALIZED | _nextExtraData(from, to, prevOwnershipPacked) */\n      or\n        /* \"erc721A.sol\":32542:32560  _packOwnershipData */\n      tag_139\n        /* \"erc721A.sol\":32542:32688  _packOwnershipData(... */\n      jump\t// in\n    tag_136:\n        /* \"erc721A.sol\":32513:32530  _packedOwnerships */\n      0x04\n        /* \"erc721A.sol\":32513:32539  _packedOwnerships[tokenId] */\n      0x00\n        /* \"erc721A.sol\":32531:32538  tokenId */\n      dup7\n        /* \"erc721A.sol\":32513:32539  _packedOwnerships[tokenId] */\n      dup2\n      mstore\n      0x20\n      add\n      swap1\n      dup2\n      mstore\n      0x20\n      add\n      0x00\n      keccak256\n        /* \"erc721A.sol\":32513:32688  _packedOwnerships[tokenId] = _packOwnershipData(... */\n      dup2\n      swap1\n      sstore\n      pop\n        /* \"erc721A.sol\":32859:32860  0 */\n      0x00\n        /* \"erc721A.sol\":15524:15532  1 << 225 */\n      0x0200000000000000000000000000000000000000000000000000000000\n        /* \"erc721A.sol\":32808:32827  prevOwnershipPacked */\n      dup5\n        /* \"erc721A.sol\":32808:32855  prevOwnershipPacked & _BITMASK_NEXT_INITIALIZED */\n      and\n        /* \"erc721A.sol\":32808:32860  prevOwnershipPacked & _BITMASK_NEXT_INITIALIZED == 0 */\n      sub\n        /* \"erc721A.sol\":32804:33431  if (prevOwnershipPacked & _BITMASK_NEXT_INITIALIZED == 0) {... */\n      tag_140\n      jumpi\n        /* \"erc721A.sol\":32881:32900  uint256 nextTokenId */\n      0x00\n        /* \"erc721A.sol\":32913:32914  1 */\n      0x01\n        /* \"erc721A.sol\":32903:32910  tokenId */\n      dup6\n        /* \"erc721A.sol\":32903:32914  tokenId + 1 */\n      add\n        /* \"erc721A.sol\":32881:32914  uint256 nextTokenId = tokenId + 1 */\n      swap1\n      pop\n        /* \"erc721A.sol\":33070:33071  0 */\n      0x00\n        /* \"erc721A.sol\":33036:33053  _packedOwnerships */\n      0x04\n        /* \"erc721A.sol\":33036:33066  _packedOwnerships[nextTokenId] */\n      0x00\n        /* \"erc721A.sol\":33054:33065  nextTokenId */\n      dup4\n        /* \"erc721A.sol\":33036:33066  _packedOwnerships[nextTokenId] */\n      dup2\n      mstore\n      0x20\n      add\n      swap1\n      dup2\n      mstore\n      0x20\n      add\n      0x00\n      keccak256\n      sload\n        /* \"erc721A.sol\":33036:33071  _packedOwnerships[nextTokenId] == 0 */\n      sub\n        /* \"erc721A.sol\":33032:33416  if (_packedOwnerships[nextTokenId] == 0) {... */\n      tag_141\n      jumpi\n        /* \"erc721A.sol\":33174:33187  _currentIndex */\n      sload(0x00)\n        /* \"erc721A.sol\":33159:33170  nextTokenId */\n      dup2\n        /* \"erc721A.sol\":33159:33187  nextTokenId != _currentIndex */\n      eq\n        /* \"erc721A.sol\":33155:33397  if (nextTokenId != _currentIndex) {... */\n      tag_142\n      jumpi\n        /* \"erc721A.sol\":33354:33373  prevOwnershipPacked */\n      dup4\n        /* \"erc721A.sol\":33321:33338  _packedOwnerships */\n      0x04\n        /* \"erc721A.sol\":33321:33351  _packedOwnerships[nextTokenId] */\n      0x00\n        /* \"erc721A.sol\":33339:33350  nextTokenId */\n      dup4\n        /* \"erc721A.sol\":33321:33351  _packedOwnerships[nextTokenId] */\n      dup2\n      mstore\n      0x20\n      add\n      swap1\n      dup2\n      mstore\n      0x20\n      add\n      0x00\n      keccak256\n        /* \"erc721A.sol\":33321:33373  _packedOwnerships[nextTokenId] = prevOwnershipPacked */\n      dup2\n      swap1\n      sstore\n      pop\n        /* \"erc721A.sol\":33155:33397  if (nextTokenId != _currentIndex) {... */\n    tag_142:\n        /* \"erc721A.sol\":33032:33416  if (_packedOwnerships[nextTokenId] == 0) {... */\n    tag_141:\n        /* \"erc721A.sol\":32862:33431  {... */\n      pop\n        /* \"erc721A.sol\":32804:33431  if (prevOwnershipPacked & _BITMASK_NEXT_INITIALIZED == 0) {... */\n    tag_140:\n        /* \"erc721A.sol\":33544:33560  uint256 toMasked */\n      0x00\n        /* \"erc721A.sol\":15926:15940  (1 << 160) - 1 */\n      0xffffffffffffffffffffffffffffffffffffffff\n        /* \"erc721A.sol\":33579:33581  to */\n      dup7\n        /* \"erc721A.sol\":33563:33583  uint256(uint160(to)) */\n      0xffffffffffffffffffffffffffffffffffffffff\n      and\n        /* \"erc721A.sol\":33563:33602  uint256(uint160(to)) & _BITMASK_ADDRESS */\n      and\n        /* \"erc721A.sol\":33544:33602  uint256 toMasked = uint256(uint160(to)) & _BITMASK_ADDRESS */\n      swap1\n      pop\n        /* \"erc721A.sol\":33943:33950  tokenId */\n      dup5\n        /* \"erc721A.sol\":33907:33915  toMasked */\n      dup2\n        /* \"erc721A.sol\":33873:33877  from */\n      dup9\n        /* \"erc721A.sol\":33815:33840  _TRANSFER_EVENT_SIGNATURE */\n      0xddf252ad1be2c89b69c2b068fc378daa952ba7f163c4a11628f55a4df523b3ef\n        /* \"erc721A.sol\":33760:33761  0 */\n      0x00\n        /* \"erc721A.sol\":33703:33704  0 */\n      dup1\n        /* \"erc721A.sol\":33680:33979  log4(... */\n      log4\n        /* \"erc721A.sol\":34016:34017  0 */\n      0x00\n        /* \"erc721A.sol\":34004:34012  toMasked */\n      dup2\n        /* \"erc721A.sol\":34004:34017  toMasked == 0 */\n      sub\n        /* \"erc721A.sol\":34000:34058  if (toMasked == 0) _revert(TransferToZeroAddress.selector) */\n      tag_143\n      jumpi\n        /* \"erc721A.sol\":34019:34058  _revert(TransferToZeroAddress.selector) */\n      tag_144\n        /* \"erc721A.sol\":34027:34057  TransferToZeroAddress.selector */\n      shl(0xe0, 0xea553b34)\n        /* \"erc721A.sol\":34019:34026  _revert */\n      tag_110\n        /* \"erc721A.sol\":34019:34058  _revert(TransferToZeroAddress.selector) */\n      jump\t// in\n    tag_144:\n        /* \"erc721A.sol\":34000:34058  if (toMasked == 0) _revert(TransferToZeroAddress.selector) */\n    tag_143:\n        /* \"erc721A.sol\":34071:34113  _afterTokenTransfers(from, to, tokenId, 1) */\n      tag_145\n        /* \"erc721A.sol\":34092:34096  from */\n      dup8\n        /* \"erc721A.sol\":34098:34100  to */\n      dup8\n        /* \"erc721A.sol\":34102:34109  tokenId */\n      dup8\n        /* \"erc721A.sol\":34111:34112  1 */\n      0x01\n        /* \"erc721A.sol\":34071:34091  _afterTokenTransfers */\n      tag_146\n        /* \"erc721A.sol\":34071:34113  _afterTokenTransfers(from, to, tokenId, 1) */\n      jump\t// in\n    tag_145:\n        /* \"erc721A.sol\":30729:34121  {... */\n      pop\n      pop\n      pop\n      pop\n        /* \"erc721A.sol\":30606:34121  function transferFrom(... */\n      pop\n      pop\n      pop\n      jump\t// out\n        /* \"erc721A.sol\":22702:22854  function ownerOf(uint256 tokenId) public view virtual override returns (address) {... */\n    tag_54:\n        /* \"erc721A.sol\":22774:22781  address */\n      0x00\n        /* \"erc721A.sol\":22817:22844  _packedOwnershipOf(tokenId) */\n      tag_148\n        /* \"erc721A.sol\":22836:22843  tokenId */\n      dup3\n        /* \"erc721A.sol\":22817:22835  _packedOwnershipOf */\n      tag_119\n        /* \"erc721A.sol\":22817:22844  _packedOwnershipOf(tokenId) */\n      jump\t// in\n    tag_148:\n        /* \"erc721A.sol\":22794:22846  return address(uint160(_packedOwnershipOf(tokenId))) */\n      swap1\n      pop\n        /* \"erc721A.sol\":22702:22854  function ownerOf(uint256 tokenId) public view virtual override returns (address) {... */\n      swap2\n      swap1\n      pop\n      jump\t// out\n        /* \"erc721A.sol\":19553:19795  function balanceOf(address owner) public view virtual override returns (uint256) {... */\n    tag_59:\n        /* \"erc721A.sol\":19625:19632  uint256 */\n      0x00\n        /* \"erc721A.sol\":19666:19667  0 */\n      dup1\n        /* \"erc721A.sol\":19649:19668  owner == address(0) */\n      0xffffffffffffffffffffffffffffffffffffffff\n      and\n        /* \"erc721A.sol\":19649:19654  owner */\n      dup3\n        /* \"erc721A.sol\":19649:19668  owner == address(0) */\n      0xffffffffffffffffffffffffffffffffffffffff\n      and\n      sub\n        /* \"erc721A.sol\":19645:19714  if (owner == address(0)) _revert(BalanceQueryForZeroAddress.selector) */\n      tag_150\n      jumpi\n        /* \"erc721A.sol\":19670:19714  _revert(BalanceQueryForZeroAddress.selector) */\n      tag_151\n        /* \"erc721A.sol\":19678:19713  BalanceQueryForZeroAddress.selector */\n      shl(0xe0, 0x8f4eb604)\n        /* \"erc721A.sol\":19670:19677  _revert */\n      tag_110\n        /* \"erc721A.sol\":19670:19714  _revert(BalanceQueryForZeroAddress.selector) */\n      jump\t// in\n    tag_151:\n        /* \"erc721A.sol\":19645:19714  if (owner == address(0)) _revert(BalanceQueryForZeroAddress.selector) */\n    tag_150:\n        /* \"erc721A.sol\":14468:14481  (1 << 64) - 1 */\n      0xffffffffffffffff\n        /* \"erc721A.sol\":19732:19750  _packedAddressData */\n      0x05\n        /* \"erc721A.sol\":19732:19757  _packedAddressData[owner] */\n      0x00\n        /* \"erc721A.sol\":19751:19756  owner */\n      dup5\n        /* \"erc721A.sol\":19732:19757  _packedAddressData[owner] */\n      0xffffffffffffffffffffffffffffffffffffffff\n      and\n      0xffffffffffffffffffffffffffffffffffffffff\n      and\n      dup2\n      mstore\n      0x20\n      add\n      swap1\n      dup2\n      mstore\n      0x20\n      add\n      0x00\n      keccak256\n      sload\n        /* \"erc721A.sol\":19732:19787  _packedAddressData[owner] & _BITMASK_ADDRESS_DATA_ENTRY */\n      and\n        /* \"erc721A.sol\":19725:19787  return _packedAddressData[owner] & _BITMASK_ADDRESS_DATA_ENTRY */\n      swap1\n      pop\n        /* \"erc721A.sol\":19553:19795  function balanceOf(address owner) public view virtual override returns (uint256) {... */\n      swap2\n      swap1\n      pop\n      jump\t// out\n        /* \"erc721A.sol\":3180:3283  function renounceOwnership() public virtual onlyOwner {... */\n    tag_62:\n        /* \"erc721A.sol\":2391:2404  _checkOwner() */\n      tag_153\n        /* \"erc721A.sol\":2391:2402  _checkOwner */\n      tag_154\n        /* \"erc721A.sol\":2391:2404  _checkOwner() */\n      jump\t// in\n    tag_153:\n        /* \"erc721A.sol\":3245:3275  _transferOwnership(address(0)) */\n      tag_156\n        /* \"erc721A.sol\":3272:3273  0 */\n      0x00\n        /* \"erc721A.sol\":3245:3263  _transferOwnership */\n      tag_157\n        /* \"erc721A.sol\":3245:3275  _transferOwnership(address(0)) */\n      jump\t// in\n    tag_156:\n        /* \"erc721A.sol\":3180:3283  function renounceOwnership() public virtual onlyOwner {... */\n      jump\t// out\n        /* \"erc721A.sol\":2505:2592  function owner() public view virtual returns (address) {... */\n    tag_64:\n        /* \"erc721A.sol\":2551:2558  address */\n      0x00\n        /* \"erc721A.sol\":2578:2584  _owner */\n      0x08\n      0x00\n      swap1\n      sload\n      swap1\n      0x0100\n      exp\n      swap1\n      div\n      0xffffffffffffffffffffffffffffffffffffffff\n      and\n        /* \"erc721A.sol\":2571:2584  return _owner */\n      swap1\n      pop\n        /* \"erc721A.sol\":2505:2592  function owner() public view virtual returns (address) {... */\n      swap1\n      jump\t// out\n        /* \"erc721A.sol\":21431:21535  function symbol() public view virtual override returns (string memory) {... */\n    tag_67:\n        /* \"erc721A.sol\":21487:21500  string memory */\n      0x60\n        /* \"erc721A.sol\":21520:21527  _symbol */\n      0x03\n        /* \"erc721A.sol\":21513:21527  return _symbol */\n      dup1\n      sload\n      tag_160\n      swap1\n      tag_100\n      jump\t// in\n    tag_160:\n      dup1\n      0x1f\n      add\n      0x20\n      dup1\n      swap2\n      div\n      mul\n      0x20\n      add\n      mload(0x40)\n      swap1\n      dup2\n      add\n      0x40\n      mstore\n      dup1\n      swap3\n      swap2\n      swap1\n      dup2\n      dup2\n      mstore\n      0x20\n      add\n      dup3\n      dup1\n      sload\n      tag_161\n      swap1\n      tag_100\n      jump\t// in\n    tag_161:\n      dup1\n      iszero\n      tag_162\n      jumpi\n      dup1\n      0x1f\n      lt\n      tag_163\n      jumpi\n      0x0100\n      dup1\n      dup4\n      sload\n      div\n      mul\n      dup4\n      mstore\n      swap2\n      0x20\n      add\n      swap2\n      jump(tag_162)\n    tag_163:\n      dup3\n      add\n      swap2\n      swap1\n      0x00\n      mstore\n      keccak256(0x00, 0x20)\n      swap1\n    tag_164:\n      dup2\n      sload\n      dup2\n      mstore\n      swap1\n      0x01\n      add\n      swap1\n      0x20\n      add\n      dup1\n      dup4\n      gt\n      tag_164\n      jumpi\n      dup3\n      swap1\n      sub\n      0x1f\n      and\n      dup3\n      add\n      swap2\n    tag_162:\n      pop\n      pop\n      pop\n      pop\n      pop\n      swap1\n      pop\n        /* \"erc721A.sol\":21431:21535  function symbol() public view virtual override returns (string memory) {... */\n      swap1\n      jump\t// out\n        /* \"erc721A.sol\":47154:47241  function mint(uint n) public onlyOwner ... */\n    tag_71:\n        /* \"erc721A.sol\":2391:2404  _checkOwner() */\n      tag_166\n        /* \"erc721A.sol\":2391:2402  _checkOwner */\n      tag_154\n        /* \"erc721A.sol\":2391:2404  _checkOwner() */\n      jump\t// in\n    tag_166:\n        /* \"erc721A.sol\":47210:47233  _safeMint(msg.sender,n) */\n      tag_168\n        /* \"erc721A.sol\":47220:47230  msg.sender */\n      caller\n        /* \"erc721A.sol\":47231:47232  n */\n      dup3\n        /* \"erc721A.sol\":47210:47219  _safeMint */\n      tag_169\n        /* \"erc721A.sol\":47210:47233  _safeMint(msg.sender,n) */\n      jump\t// in\n    tag_168:\n        /* \"erc721A.sol\":47154:47241  function mint(uint n) public onlyOwner ... */\n      pop\n      jump\t// out\n        /* \"erc721A.sol\":27439:27673  function setApprovalForAll(address operator, bool approved) public virtual override {... */\n    tag_75:\n        /* \"erc721A.sol\":27586:27594  approved */\n      dup1\n        /* \"erc721A.sol\":27534:27552  _operatorApprovals */\n      0x07\n        /* \"erc721A.sol\":27534:27573  _operatorApprovals[_msgSenderERC721A()] */\n      0x00\n        /* \"erc721A.sol\":27553:27572  _msgSenderERC721A() */\n      tag_171\n        /* \"erc721A.sol\":27553:27570  _msgSenderERC721A */\n      tag_126\n        /* \"erc721A.sol\":27553:27572  _msgSenderERC721A() */\n      jump\t// in\n    tag_171:\n        /* \"erc721A.sol\":27534:27573  _operatorApprovals[_msgSenderERC721A()] */\n      0xffffffffffffffffffffffffffffffffffffffff\n      and\n      0xffffffffffffffffffffffffffffffffffffffff\n      and\n      dup2\n      mstore\n      0x20\n      add\n      swap1\n      dup2\n      mstore\n      0x20\n      add\n      0x00\n      keccak256\n        /* \"erc721A.sol\":27534:27583  _operatorApprovals[_msgSenderERC721A()][operator] */\n      0x00\n        /* \"erc721A.sol\":27574:27582  operator */\n      dup5\n        /* \"erc721A.sol\":27534:27583  _operatorApprovals[_msgSenderERC721A()][operator] */\n      0xffffffffffffffffffffffffffffffffffffffff\n      and\n      0xffffffffffffffffffffffffffffffffffffffff\n      and\n      dup2\n      mstore\n      0x20\n      add\n      swap1\n      dup2\n      mstore\n      0x20\n      add\n      0x00\n      keccak256\n      0x00\n        /* \"erc721A.sol\":27534:27594  _operatorApprovals[_msgSenderERC721A()][operator] = approved */\n      0x0100\n      exp\n      dup2\n      sload\n      dup2\n      0xff\n      mul\n      not\n      and\n      swap1\n      dup4\n      iszero\n      iszero\n      mul\n      or\n      swap1\n      sstore\n      pop\n        /* \"erc721A.sol\":27646:27654  operator */\n      dup2\n        /* \"erc721A.sol\":27610:27665  ApprovalForAll(_msgSenderERC721A(), operator, approved) */\n      0xffffffffffffffffffffffffffffffffffffffff\n      and\n        /* \"erc721A.sol\":27625:27644  _msgSenderERC721A() */\n      tag_172\n        /* \"erc721A.sol\":27625:27642  _msgSenderERC721A */\n      tag_126\n        /* \"erc721A.sol\":27625:27644  _msgSenderERC721A() */\n      jump\t// in\n    tag_172:\n        /* \"erc721A.sol\":27610:27665  ApprovalForAll(_msgSenderERC721A(), operator, approved) */\n      0xffffffffffffffffffffffffffffffffffffffff\n      and\n      0x17307eab39ab6107e8899845ad3d59bd9653f200f220920489ca2b5937696c31\n        /* \"erc721A.sol\":27656:27664  approved */\n      dup4\n        /* \"erc721A.sol\":27610:27665  ApprovalForAll(_msgSenderERC721A(), operator, approved) */\n      mload(0x40)\n      tag_173\n      swap2\n      swap1\n      tag_29\n      jump\t// in\n    tag_173:\n      mload(0x40)\n      dup1\n      swap2\n      sub\n      swap1\n      log3\n        /* \"erc721A.sol\":27439:27673  function setApprovalForAll(address operator, bool approved) public virtual override {... */\n      pop\n      pop\n      jump\t// out\n        /* \"erc721A.sol\":35000:35406  function safetransferfrom(... */\n    tag_79:\n        /* \"erc721A.sol\":35166:35197  transferFrom(from, to, tokenId) */\n      tag_175\n        /* \"erc721A.sol\":35179:35183  from */\n      dup5\n        /* \"erc721A.sol\":35185:35187  to */\n      dup5\n        /* \"erc721A.sol\":35189:35196  tokenId */\n      dup5\n        /* \"erc721A.sol\":35166:35178  transferFrom */\n      tag_51\n        /* \"erc721A.sol\":35166:35197  transferFrom(from, to, tokenId) */\n      jump\t// in\n    tag_175:\n        /* \"erc721A.sol\":35230:35231  0 */\n      0x00\n        /* \"erc721A.sol\":35212:35214  to */\n      dup4\n        /* \"erc721A.sol\":35212:35226  to.code.length */\n      0xffffffffffffffffffffffffffffffffffffffff\n      and\n      extcodesize\n        /* \"erc721A.sol\":35212:35231  to.code.length != 0 */\n      eq\n        /* \"erc721A.sol\":35208:35399  if (to.code.length != 0)... */\n      tag_176\n      jumpi\n        /* \"erc721A.sol\":35251:35306  _checkContractOnERC721Received(from, to, tokenId, data) */\n      tag_177\n        /* \"erc721A.sol\":35282:35286  from */\n      dup5\n        /* \"erc721A.sol\":35288:35290  to */\n      dup5\n        /* \"erc721A.sol\":35292:35299  tokenId */\n      dup5\n        /* \"erc721A.sol\":35301:35305  data */\n      dup5\n        /* \"erc721A.sol\":35251:35281  _checkContractOnERC721Received */\n      tag_178\n        /* \"erc721A.sol\":35251:35306  _checkContractOnERC721Received(from, to, tokenId, data) */\n      jump\t// in\n    tag_177:\n        /* \"erc721A.sol\":35246:35399  if (!_checkContractOnERC721Received(from, to, tokenId, data)) {... */\n      tag_179\n      jumpi\n        /* \"erc721A.sol\":35327:35383  _revert(TransferToNonERC721ReceiverImplementer.selector) */\n      tag_180\n        /* \"erc721A.sol\":35335:35382  TransferToNonERC721ReceiverImplementer.selector */\n      shl(0xe0, 0xd1a57ed6)\n        /* \"erc721A.sol\":35327:35334  _revert */\n      tag_110\n        /* \"erc721A.sol\":35327:35383  _revert(TransferToNonERC721ReceiverImplementer.selector) */\n      jump\t// in\n    tag_180:\n        /* \"erc721A.sol\":35246:35399  if (!_checkContractOnERC721Received(from, to, tokenId, data)) {... */\n    tag_179:\n        /* \"erc721A.sol\":35208:35399  if (to.code.length != 0)... */\n    tag_176:\n        /* \"erc721A.sol\":35000:35406  function safetransferfrom(... */\n      pop\n      pop\n      pop\n      pop\n      jump\t// out\n        /* \"erc721A.sol\":47249:47586  function tokenURI(uint256 tokenId) public view virtual override returns (string memory) {... */\n    tag_82:\n        /* \"erc721A.sol\":47322:47335  string memory */\n      0x60\n        /* \"erc721A.sol\":47353:47369  _exists(tokenId) */\n      tag_182\n        /* \"erc721A.sol\":47361:47368  tokenId */\n      dup3\n        /* \"erc721A.sol\":47353:47360  _exists */\n      tag_107\n        /* \"erc721A.sol\":47353:47369  _exists(tokenId) */\n      jump\t// in\n    tag_182:\n        /* \"erc721A.sol\":47348:47416  if (!_exists(tokenId)) _revert(URIQueryForNonexistentToken.selector) */\n      tag_183\n      jumpi\n        /* \"erc721A.sol\":47371:47416  _revert(URIQueryForNonexistentToken.selector) */\n      tag_184\n        /* \"erc721A.sol\":47379:47415  URIQueryForNonexistentToken.selector */\n      shl(0xe0, 0xa14c4b50)\n        /* \"erc721A.sol\":47371:47378  _revert */\n      tag_110\n        /* \"erc721A.sol\":47371:47416  _revert(URIQueryForNonexistentToken.selector) */\n      jump\t// in\n    tag_184:\n        /* \"erc721A.sol\":47348:47416  if (!_exists(tokenId)) _revert(URIQueryForNonexistentToken.selector) */\n    tag_183:\n        /* \"erc721A.sol\":47429:47450  string memory baseURI */\n      0x00\n        /* \"erc721A.sol\":47453:47463  _baseURI() */\n      tag_185\n        /* \"erc721A.sol\":47453:47461  _baseURI */\n      tag_186\n        /* \"erc721A.sol\":47453:47463  _baseURI() */\n      jump\t// in\n    tag_185:\n        /* \"erc721A.sol\":47429:47463  string memory baseURI = _baseURI() */\n      swap1\n      pop\n        /* \"erc721A.sol\":47506:47507  0 */\n      0x00\n        /* \"erc721A.sol\":47487:47494  baseURI */\n      dup2\n        /* \"erc721A.sol\":47481:47502  bytes(baseURI).length */\n      mload\n        /* \"erc721A.sol\":47481:47507  bytes(baseURI).length != 0 */\n      sub\n        /* \"erc721A.sol\":47481:47578  bytes(baseURI).length != 0 ? string(abi.encodePacked(_baseURI(), toString(tokenId),\".json\")) : '' */\n      tag_187\n      jumpi\n      mload(0x40)\n      dup1\n      0x20\n      add\n      0x40\n      mstore\n      dup1\n      0x00\n      dup2\n      mstore\n      pop\n      jump(tag_188)\n    tag_187:\n        /* \"erc721A.sol\":47534:47544  _baseURI() */\n      tag_189\n        /* \"erc721A.sol\":47534:47542  _baseURI */\n      tag_186\n        /* \"erc721A.sol\":47534:47544  _baseURI() */\n      jump\t// in\n    tag_189:\n        /* \"erc721A.sol\":47546:47563  toString(tokenId) */\n      tag_190\n        /* \"erc721A.sol\":47555:47562  tokenId */\n      dup5\n        /* \"erc721A.sol\":47546:47554  toString */\n      tag_191\n        /* \"erc721A.sol\":47546:47563  toString(tokenId) */\n      jump\t// in\n    tag_190:\n        /* \"erc721A.sol\":47517:47572  abi.encodePacked(_baseURI(), toString(tokenId),\".json\") */\n      add(0x20, mload(0x40))\n      tag_192\n      swap3\n      swap2\n      swap1\n      tag_193\n      jump\t// in\n    tag_192:\n      mload(0x40)\n      0x20\n      dup2\n      dup4\n      sub\n      sub\n      dup2\n      mstore\n      swap1\n      0x40\n      mstore\n        /* \"erc721A.sol\":47481:47578  bytes(baseURI).length != 0 ? string(abi.encodePacked(_baseURI(), toString(tokenId),\".json\")) : '' */\n    tag_188:\n        /* \"erc721A.sol\":47474:47578  return bytes(baseURI).length != 0 ? string(abi.encodePacked(_baseURI(), toString(tokenId),\".json\")) : '' */\n      swap2\n      pop\n      pop\n        /* \"erc721A.sol\":47249:47586  function tokenURI(uint256 tokenId) public view virtual override returns (string memory) {... */\n      swap2\n      swap1\n      pop\n      jump\t// out\n        /* \"erc721A.sol\":34217:34402  function safetransferfrom(... */\n    tag_86:\n        /* \"erc721A.sol\":34355:34394  safetransferfrom(from, to, tokenId, '') */\n      tag_195\n        /* \"erc721A.sol\":34372:34376  from */\n      dup4\n        /* \"erc721A.sol\":34378:34380  to */\n      dup4\n        /* \"erc721A.sol\":34382:34389  tokenId */\n      dup4\n        /* \"erc721A.sol\":34355:34394  safetransferfrom(from, to, tokenId, '') */\n      mload(0x40)\n      dup1\n      0x20\n      add\n      0x40\n      mstore\n      dup1\n      0x00\n      dup2\n      mstore\n      pop\n        /* \"erc721A.sol\":34355:34371  safetransferfrom */\n      tag_79\n        /* \"erc721A.sol\":34355:34394  safetransferfrom(from, to, tokenId, '') */\n      jump\t// in\n    tag_195:\n        /* \"erc721A.sol\":34217:34402  function safetransferfrom(... */\n      pop\n      pop\n      pop\n      jump\t// out\n        /* \"erc721A.sol\":27830:27994  function isApprovedForAll(address owner, address operator) public view virtual override returns (bool) {... */\n    tag_90:\n        /* \"erc721A.sol\":27927:27931  bool */\n      0x00\n        /* \"erc721A.sol\":27951:27969  _operatorApprovals */\n      0x07\n        /* \"erc721A.sol\":27951:27976  _operatorApprovals[owner] */\n      0x00\n        /* \"erc721A.sol\":27970:27975  owner */\n      dup5\n        /* \"erc721A.sol\":27951:27976  _operatorApprovals[owner] */\n      0xffffffffffffffffffffffffffffffffffffffff\n      and\n      0xffffffffffffffffffffffffffffffffffffffff\n      and\n      dup2\n      mstore\n      0x20\n      add\n      swap1\n      dup2\n      mstore\n      0x20\n      add\n      0x00\n      keccak256\n        /* \"erc721A.sol\":27951:27986  _operatorApprovals[owner][operator] */\n      0x00\n        /* \"erc721A.sol\":27977:27985  operator */\n      dup4\n        /* \"erc721A.sol\":27951:27986  _operatorApprovals[owner][operator] */\n      0xffffffffffffffffffffffffffffffffffffffff\n      and\n      0xffffffffffffffffffffffffffffffffffffffff\n      and\n      dup2\n      mstore\n      0x20\n      add\n      swap1\n      dup2\n      mstore\n      0x20\n      add\n      0x00\n      keccak256\n      0x00\n      swap1\n      sload\n      swap1\n      0x0100\n      exp\n      swap1\n      div\n      0xff\n      and\n        /* \"erc721A.sol\":27944:27986  return _operatorApprovals[owner][operator] */\n      swap1\n      pop\n        /* \"erc721A.sol\":27830:27994  function isApprovedForAll(address owner, address operator) public view virtual override returns (bool) {... */\n      swap3\n      swap2\n      pop\n      pop\n      jump\t// out\n        /* \"erc721A.sol\":3438:3658  function transferOwnership(address newOwner) public virtual onlyOwner {... */\n    tag_94:\n        /* \"erc721A.sol\":2391:2404  _checkOwner() */\n      tag_198\n        /* \"erc721A.sol\":2391:2402  _checkOwner */\n      tag_154\n        /* \"erc721A.sol\":2391:2404  _checkOwner() */\n      jump\t// in\n    tag_198:\n        /* \"erc721A.sol\":3543:3544  0 */\n      0x00\n        /* \"erc721A.sol\":3523:3545  newOwner == address(0) */\n      0xffffffffffffffffffffffffffffffffffffffff\n      and\n        /* \"erc721A.sol\":3523:3531  newOwner */\n      dup2\n        /* \"erc721A.sol\":3523:3545  newOwner == address(0) */\n      0xffffffffffffffffffffffffffffffffffffffff\n      and\n      sub\n        /* \"erc721A.sol\":3519:3612  if (newOwner == address(0)) {... */\n      tag_200\n      jumpi\n        /* \"erc721A.sol\":3597:3598  0 */\n      0x00\n        /* \"erc721A.sol\":3569:3600  OwnableInvalidOwner(address(0)) */\n      mload(0x40)\n      0x1e4fbdf700000000000000000000000000000000000000000000000000000000\n      dup2\n      mstore\n      0x04\n      add\n      tag_201\n      swap2\n      swap1\n      tag_39\n      jump\t// in\n    tag_201:\n      mload(0x40)\n      dup1\n      swap2\n      sub\n      swap1\n      revert\n        /* \"erc721A.sol\":3519:3612  if (newOwner == address(0)) {... */\n    tag_200:\n        /* \"erc721A.sol\":3622:3650  _transferOwnership(newOwner) */\n      tag_202\n        /* \"erc721A.sol\":3641:3649  newOwner */\n      dup2\n        /* \"erc721A.sol\":3622:3640  _transferOwnership */\n      tag_157\n        /* \"erc721A.sol\":3622:3650  _transferOwnership(newOwner) */\n      jump\t// in\n    tag_202:\n        /* \"erc721A.sol\":3438:3658  function transferOwnership(address newOwner) public virtual onlyOwner {... */\n      pop\n      jump\t// out\n        /* \"erc721A.sol\":28252:28620  function _exists(uint256 tokenId) internal view virtual returns (bool result) {... */\n    tag_107:\n        /* \"erc721A.sol\":28317:28328  bool result */\n      0x00\n        /* \"erc721A.sol\":28364:28371  tokenId */\n      dup2\n        /* \"erc721A.sol\":28345:28360  _startTokenId() */\n      tag_204\n        /* \"erc721A.sol\":28345:28358  _startTokenId */\n      tag_116\n        /* \"erc721A.sol\":28345:28360  _startTokenId() */\n      jump\t// in\n    tag_204:\n        /* \"erc721A.sol\":28345:28371  _startTokenId() <= tokenId */\n      gt\n        /* \"erc721A.sol\":28341:28613  if (_startTokenId() <= tokenId) {... */\n      tag_205\n      jumpi\n        /* \"erc721A.sol\":28402:28415  _currentIndex */\n      sload(0x00)\n        /* \"erc721A.sol\":28392:28399  tokenId */\n      dup3\n        /* \"erc721A.sol\":28392:28415  tokenId < _currentIndex */\n      lt\n        /* \"erc721A.sol\":28388:28602  if (tokenId < _currentIndex) {... */\n      iszero\n      tag_206\n      jumpi\n        /* \"erc721A.sol\":28436:28450  uint256 packed */\n      0x00\n        /* \"erc721A.sol\":28469:28529  while ((packed = _packedOwnerships[tokenId]) == 0) --tokenId */\n    tag_207:\n        /* \"erc721A.sol\":28517:28518  0 */\n      0x00\n        /* \"erc721A.sol\":28486:28503  _packedOwnerships */\n      0x04\n        /* \"erc721A.sol\":28486:28512  _packedOwnerships[tokenId] */\n      0x00\n        /* \"erc721A.sol\":28504:28511  tokenId */\n      dup6\n        /* \"erc721A.sol\":28486:28512  _packedOwnerships[tokenId] */\n      dup2\n      mstore\n      0x20\n      add\n      swap1\n      dup2\n      mstore\n      0x20\n      add\n      0x00\n      keccak256\n      sload\n        /* \"erc721A.sol\":28477:28512  packed = _packedOwnerships[tokenId] */\n      swap2\n      pop\n      dup2\n        /* \"erc721A.sol\":28476:28518  (packed = _packedOwnerships[tokenId]) == 0 */\n      sub\n        /* \"erc721A.sol\":28469:28529  while ((packed = _packedOwnerships[tokenId]) == 0) --tokenId */\n      tag_208\n      jumpi\n        /* \"erc721A.sol\":28520:28529  --tokenId */\n      dup3\n      tag_209\n      swap1\n      tag_210\n      jump\t// in\n    tag_209:\n      swap3\n      pop\n        /* \"erc721A.sol\":28469:28529  while ((packed = _packedOwnerships[tokenId]) == 0) --tokenId */\n      jump(tag_207)\n    tag_208:\n        /* \"erc721A.sol\":28585:28586  0 */\n      0x00\n        /* \"erc721A.sol\":15244:15252  1 << 224 */\n      0x0100000000000000000000000000000000000000000000000000000000\n        /* \"erc721A.sol\":28557:28563  packed */\n      dup3\n        /* \"erc721A.sol\":28557:28581  packed & _BITMASK_BURNED */\n      and\n        /* \"erc721A.sol\":28557:28586  packed & _BITMASK_BURNED == 0 */\n      eq\n        /* \"erc721A.sol\":28548:28586  result = packed & _BITMASK_BURNED == 0 */\n      swap2\n      pop\n        /* \"erc721A.sol\":28417:28602  {... */\n      pop\n        /* \"erc721A.sol\":28388:28602  if (tokenId < _currentIndex) {... */\n    tag_206:\n        /* \"erc721A.sol\":28341:28613  if (_startTokenId() <= tokenId) {... */\n    tag_205:\n        /* \"erc721A.sol\":28252:28620  function _exists(uint256 tokenId) internal view virtual returns (bool result) {... */\n      swap2\n      swap1\n      pop\n      jump\t// out\n        /* \"erc721A.sol\":46807:46972  function _revert(bytes4 errorSelector) internal pure {... */\n    tag_110:\n        /* \"erc721A.sol\":46908:46921  errorSelector */\n      dup1\n        /* \"erc721A.sol\":46902:46906  0x00 */\n      0x00\n        /* \"erc721A.sol\":46895:46922  mstore(0x00, errorSelector) */\n      mstore\n        /* \"erc721A.sol\":46949:46953  0x04 */\n      0x04\n        /* \"erc721A.sol\":46943:46947  0x00 */\n      0x00\n        /* \"erc721A.sol\":46936:46954  revert(0x00, 0x04) */\n      revert\n        /* \"erc721A.sol\":43735:44209  function _approve(... */\n    tag_113:\n        /* \"erc721A.sol\":43864:43877  address owner */\n      0x00\n        /* \"erc721A.sol\":43880:43896  ownerOf(tokenId) */\n      tag_213\n        /* \"erc721A.sol\":43888:43895  tokenId */\n      dup4\n        /* \"erc721A.sol\":43880:43887  ownerOf */\n      tag_54\n        /* \"erc721A.sol\":43880:43896  ownerOf(tokenId) */\n      jump\t// in\n    tag_213:\n        /* \"erc721A.sol\":43864:43896  address owner = ownerOf(tokenId) */\n      swap1\n      pop\n        /* \"erc721A.sol\":43913:43926  approvalCheck */\n      dup2\n        /* \"erc721A.sol\":43913:43958  approvalCheck && _msgSenderERC721A() != owner */\n      dup1\n      iszero\n      tag_214\n      jumpi\n      pop\n        /* \"erc721A.sol\":43953:43958  owner */\n      dup1\n        /* \"erc721A.sol\":43930:43958  _msgSenderERC721A() != owner */\n      0xffffffffffffffffffffffffffffffffffffffff\n      and\n        /* \"erc721A.sol\":43930:43949  _msgSenderERC721A() */\n      tag_215\n        /* \"erc721A.sol\":43930:43947  _msgSenderERC721A */\n      tag_126\n        /* \"erc721A.sol\":43930:43949  _msgSenderERC721A() */\n      jump\t// in\n    tag_215:\n        /* \"erc721A.sol\":43930:43958  _msgSenderERC721A() != owner */\n      0xffffffffffffffffffffffffffffffffffffffff\n      and\n      eq\n      iszero\n        /* \"erc721A.sol\":43913:43958  approvalCheck && _msgSenderERC721A() != owner */\n    tag_214:\n        /* \"erc721A.sol\":43909:44110  if (approvalCheck && _msgSenderERC721A() != owner)... */\n      iszero\n      tag_216\n      jumpi\n        /* \"erc721A.sol\":43978:44022  isApprovedForAll(owner, _msgSenderERC721A()) */\n      tag_217\n        /* \"erc721A.sol\":43995:44000  owner */\n      dup2\n        /* \"erc721A.sol\":44002:44021  _msgSenderERC721A() */\n      tag_218\n        /* \"erc721A.sol\":44002:44019  _msgSenderERC721A */\n      tag_126\n        /* \"erc721A.sol\":44002:44021  _msgSenderERC721A() */\n      jump\t// in\n    tag_218:\n        /* \"erc721A.sol\":43978:43994  isApprovedForAll */\n      tag_90\n        /* \"erc721A.sol\":43978:44022  isApprovedForAll(owner, _msgSenderERC721A()) */\n      jump\t// in\n    tag_217:\n        /* \"erc721A.sol\":43973:44110  if (!isApprovedForAll(owner, _msgSenderERC721A())) {... */\n      tag_219\n      jumpi\n        /* \"erc721A.sol\":44043:44094  _revert(ApprovalCallerNotOwnerNorApproved.selector) */\n      tag_220\n        /* \"erc721A.sol\":44051:44093  ApprovalCallerNotOwnerNorApproved.selector */\n      shl(0xe0, 0xcfb3b942)\n        /* \"erc721A.sol\":44043:44050  _revert */\n      tag_110\n        /* \"erc721A.sol\":44043:44094  _revert(ApprovalCallerNotOwnerNorApproved.selector) */\n      jump\t// in\n    tag_220:\n        /* \"erc721A.sol\":43973:44110  if (!isApprovedForAll(owner, _msgSenderERC721A())) {... */\n    tag_219:\n        /* \"erc721A.sol\":43909:44110  if (approvalCheck && _msgSenderERC721A() != owner)... */\n    tag_216:\n        /* \"erc721A.sol\":44155:44157  to */\n      dup4\n        /* \"erc721A.sol\":44122:44137  _tokenApprovals */\n      0x06\n        /* \"erc721A.sol\":44122:44146  _tokenApprovals[tokenId] */\n      0x00\n        /* \"erc721A.sol\":44138:44145  tokenId */\n      dup6\n        /* \"erc721A.sol\":44122:44146  _tokenApprovals[tokenId] */\n      dup2\n      mstore\n      0x20\n      add\n      swap1\n      dup2\n      mstore\n      0x20\n      add\n      0x00\n      keccak256\n        /* \"erc721A.sol\":44122:44152  _tokenApprovals[tokenId].value */\n      0x00\n      add\n      0x00\n        /* \"erc721A.sol\":44122:44157  _tokenApprovals[tokenId].value = to */\n      0x0100\n      exp\n      dup2\n      sload\n      dup2\n      0xffffffffffffffffffffffffffffffffffffffff\n      mul\n      not\n      and\n      swap1\n      dup4\n      0xffffffffffffffffffffffffffffffffffffffff\n      and\n      mul\n      or\n      swap1\n      sstore\n      pop\n        /* \"erc721A.sol\":44193:44200  tokenId */\n      dup3\n        /* \"erc721A.sol\":44189:44191  to */\n      dup5\n        /* \"erc721A.sol\":44173:44201  Approval(owner, to, tokenId) */\n      0xffffffffffffffffffffffffffffffffffffffff\n      and\n        /* \"erc721A.sol\":44182:44187  owner */\n      dup3\n        /* \"erc721A.sol\":44173:44201  Approval(owner, to, tokenId) */\n      0xffffffffffffffffffffffffffffffffffffffff\n      and\n      0x8c5be1e5ebec7d5bd14f71427d1e84f3dd0314c0f7b2291e5b200ac8c7c3b925\n      mload(0x40)\n      mload(0x40)\n      dup1\n      swap2\n      sub\n      swap1\n      log4\n        /* \"erc721A.sol\":43853:44209  {... */\n      pop\n        /* \"erc721A.sol\":43735:44209  function _approve(... */\n      pop\n      pop\n      pop\n      jump\t// out\n        /* \"erc721A.sol\":18641:18733  function _startTokenId() internal view virtual returns (uint256) {... */\n    tag_116:\n        /* \"erc721A.sol\":18697:18704  uint256 */\n      0x00\n        /* \"erc721A.sol\":18641:18733  function _startTokenId() internal view virtual returns (uint256) {... */\n      swap1\n      jump\t// out\n        /* \"erc721A.sol\":22944:24956  function _packedOwnershipOf(uint256 tokenId) private view returns (uint256 packed) {... */\n    tag_119:\n        /* \"erc721A.sol\":23011:23025  uint256 packed */\n      0x00\n        /* \"erc721A.sol\":23061:23068  tokenId */\n      dup2\n        /* \"erc721A.sol\":23042:23057  _startTokenId() */\n      tag_223\n        /* \"erc721A.sol\":23042:23055  _startTokenId */\n      tag_116\n        /* \"erc721A.sol\":23042:23057  _startTokenId() */\n      jump\t// in\n    tag_223:\n        /* \"erc721A.sol\":23042:23068  _startTokenId() <= tokenId */\n      gt\n        /* \"erc721A.sol\":23038:24891  if (_startTokenId() <= tokenId) {... */\n      tag_224\n      jumpi\n        /* \"erc721A.sol\":23094:23111  _packedOwnerships */\n      0x04\n        /* \"erc721A.sol\":23094:23120  _packedOwnerships[tokenId] */\n      0x00\n        /* \"erc721A.sol\":23112:23119  tokenId */\n      dup4\n        /* \"erc721A.sol\":23094:23120  _packedOwnerships[tokenId] */\n      dup2\n      mstore\n      0x20\n      add\n      swap1\n      dup2\n      mstore\n      0x20\n      add\n      0x00\n      keccak256\n      sload\n        /* \"erc721A.sol\":23085:23120  packed = _packedOwnerships[tokenId] */\n      swap1\n      pop\n        /* \"erc721A.sol\":23230:23231  0 */\n      0x00\n        /* \"erc721A.sol\":23220:23226  packed */\n      dup2\n        /* \"erc721A.sol\":23220:23231  packed == 0 */\n      sub\n        /* \"erc721A.sol\":23216:24508  if (packed == 0) {... */\n      tag_225\n      jumpi\n        /* \"erc721A.sol\":23267:23280  _currentIndex */\n      sload(0x00)\n        /* \"erc721A.sol\":23256:23263  tokenId */\n      dup3\n        /* \"erc721A.sol\":23256:23280  tokenId >= _currentIndex */\n      lt\n        /* \"erc721A.sol\":23252:23329  if (tokenId >= _currentIndex) _revert(OwnerQueryForNonexistentToken.selector) */\n      tag_226\n      jumpi\n        /* \"erc721A.sol\":23282:23329  _revert(OwnerQueryForNonexistentToken.selector) */\n      tag_227\n        /* \"erc721A.sol\":23290:23328  OwnerQueryForNonexistentToken.selector */\n      shl(0xe0, 0xdf2d9b42)\n        /* \"erc721A.sol\":23282:23289  _revert */\n      tag_110\n        /* \"erc721A.sol\":23282:23329  _revert(OwnerQueryForNonexistentToken.selector) */\n      jump\t// in\n    tag_227:\n        /* \"erc721A.sol\":23252:23329  if (tokenId >= _currentIndex) _revert(OwnerQueryForNonexistentToken.selector) */\n    tag_226:\n        /* \"erc721A.sol\":23886:24493  for (;;) {... */\n    tag_228:\n        /* \"erc721A.sol\":23964:23981  _packedOwnerships */\n      0x04\n        /* \"erc721A.sol\":23964:23992  _packedOwnerships[--tokenId] */\n      0x00\n        /* \"erc721A.sol\":23982:23991  --tokenId */\n      dup4\n      0x01\n      swap1\n      sub\n      swap4\n      pop\n      dup4\n        /* \"erc721A.sol\":23964:23992  _packedOwnerships[--tokenId] */\n      dup2\n      mstore\n      0x20\n      add\n      swap1\n      dup2\n      mstore\n      0x20\n      add\n      0x00\n      keccak256\n      sload\n        /* \"erc721A.sol\":23955:23992  packed = _packedOwnerships[--tokenId] */\n      swap1\n      pop\n        /* \"erc721A.sol\":24052:24053  0 */\n      0x00\n        /* \"erc721A.sol\":24042:24048  packed */\n      dup2\n        /* \"erc721A.sol\":24042:24053  packed == 0 */\n      sub\n        /* \"erc721A.sol\":24038:24063  if (packed == 0) continue */\n      iszero\n        /* \"erc721A.sol\":24055:24063  continue */\n      tag_230\n        /* \"erc721A.sol\":24038:24063  if (packed == 0) continue */\n      jumpi\n        /* \"erc721A.sol\":24118:24119  0 */\n      0x00\n        /* \"erc721A.sol\":15244:15252  1 << 224 */\n      0x0100000000000000000000000000000000000000000000000000000000\n        /* \"erc721A.sol\":24090:24096  packed */\n      dup3\n        /* \"erc721A.sol\":24090:24114  packed & _BITMASK_BURNED */\n      and\n        /* \"erc721A.sol\":24090:24119  packed & _BITMASK_BURNED == 0 */\n      sub\n        /* \"erc721A.sol\":24086:24134  if (packed & _BITMASK_BURNED == 0) return packed */\n      iszero\n        /* \"erc721A.sol\":24121:24134  return packed */\n      tag_222\n        /* \"erc721A.sol\":24086:24134  if (packed & _BITMASK_BURNED == 0) return packed */\n      jumpi\n        /* \"erc721A.sol\":24426:24473  _revert(OwnerQueryForNonexistentToken.selector) */\n      tag_233\n        /* \"erc721A.sol\":24434:24472  OwnerQueryForNonexistentToken.selector */\n      shl(0xe0, 0xdf2d9b42)\n        /* \"erc721A.sol\":24426:24433  _revert */\n      tag_110\n        /* \"erc721A.sol\":24426:24473  _revert(OwnerQueryForNonexistentToken.selector) */\n      jump\t// in\n    tag_233:\n        /* \"erc721A.sol\":23886:24493  for (;;) {... */\n    tag_230:\n      jump(tag_228)\n        /* \"erc721A.sol\":23216:24508  if (packed == 0) {... */\n    tag_225:\n        /* \"erc721A.sol\":24863:24864  0 */\n      0x00\n        /* \"erc721A.sol\":15244:15252  1 << 224 */\n      0x0100000000000000000000000000000000000000000000000000000000\n        /* \"erc721A.sol\":24835:24841  packed */\n      dup3\n        /* \"erc721A.sol\":24835:24859  packed & _BITMASK_BURNED */\n      and\n        /* \"erc721A.sol\":24835:24864  packed & _BITMASK_BURNED == 0 */\n      sub\n        /* \"erc721A.sol\":24831:24879  if (packed & _BITMASK_BURNED == 0) return packed */\n      iszero\n        /* \"erc721A.sol\":24866:24879  return packed */\n      tag_222\n        /* \"erc721A.sol\":24831:24879  if (packed & _BITMASK_BURNED == 0) return packed */\n      jumpi\n        /* \"erc721A.sol\":23038:24891  if (_startTokenId() <= tokenId) {... */\n    tag_224:\n        /* \"erc721A.sol\":24901:24948  _revert(OwnerQueryForNonexistentToken.selector) */\n      tag_235\n        /* \"erc721A.sol\":24909:24947  OwnerQueryForNonexistentToken.selector */\n      shl(0xe0, 0xdf2d9b42)\n        /* \"erc721A.sol\":24901:24908  _revert */\n      tag_110\n        /* \"erc721A.sol\":24901:24948  _revert(OwnerQueryForNonexistentToken.selector) */\n      jump\t// in\n    tag_235:\n        /* \"erc721A.sol\":22944:24956  function _packedOwnershipOf(uint256 tokenId) private view returns (uint256 packed) {... */\n    tag_222:\n      swap2\n      swap1\n      pop\n      jump\t// out\n        /* \"erc721A.sol\":29501:29986  function _getApprovedSlotAndAddress(uint256 tokenId)... */\n    tag_123:\n        /* \"erc721A.sol\":29603:29630  uint256 approvedAddressSlot */\n      0x00\n        /* \"erc721A.sol\":29632:29655  address approvedAddress */\n      dup1\n        /* \"erc721A.sol\":29673:29711  TokenApprovalRef storage tokenApproval */\n      0x00\n        /* \"erc721A.sol\":29714:29729  _tokenApprovals */\n      0x06\n        /* \"erc721A.sol\":29714:29738  _tokenApprovals[tokenId] */\n      0x00\n        /* \"erc721A.sol\":29730:29737  tokenId */\n      dup6\n        /* \"erc721A.sol\":29714:29738  _tokenApprovals[tokenId] */\n      dup2\n      mstore\n      0x20\n      add\n      swap1\n      dup2\n      mstore\n      0x20\n      add\n      0x00\n      keccak256\n        /* \"erc721A.sol\":29673:29738  TokenApprovalRef storage tokenApproval = _tokenApprovals[tokenId] */\n      swap1\n      pop\n        /* \"erc721A.sol\":29891:29909  tokenApproval.slot */\n      dup1\n        /* \"erc721A.sol\":29868:29909  approvedAddressSlot := tokenApproval.slot */\n      swap3\n      pop\n        /* \"erc721A.sol\":29948:29967  approvedAddressSlot */\n      dup3\n        /* \"erc721A.sol\":29942:29968  sload(approvedAddressSlot) */\n      sload\n        /* \"erc721A.sol\":29923:29968  approvedAddress := sload(approvedAddressSlot) */\n      swap2\n      pop\n        /* \"erc721A.sol\":29853:29979  {... */\n      pop\n        /* \"erc721A.sol\":29501:29986  function _getApprovedSlotAndAddress(uint256 tokenId)... */\n      swap2\n      pop\n      swap2\n      jump\t// out\n        /* \"erc721A.sol\":45980:46085  function _msgSenderERC721A() internal view virtual returns (address) {... */\n    tag_126:\n        /* \"erc721A.sol\":46040:46047  address */\n      0x00\n        /* \"erc721A.sol\":46067:46077  msg.sender */\n      caller\n        /* \"erc721A.sol\":46060:46077  return msg.sender */\n      swap1\n      pop\n        /* \"erc721A.sol\":45980:46085  function _msgSenderERC721A() internal view virtual returns (address) {... */\n      swap1\n      jump\t// out\n        /* \"erc721A.sol\":28729:29388  function _isSenderApprovedOrOwner(... */\n    tag_127:\n        /* \"erc721A.sol\":28878:28889  bool result */\n      0x00\n        /* \"erc721A.sol\":29043:29059  _BITMASK_ADDRESS */\n      0xffffffffffffffffffffffffffffffffffffffff\n        /* \"erc721A.sol\":29036:29041  owner */\n      dup4\n        /* \"erc721A.sol\":29032:29060  and(owner, _BITMASK_ADDRESS) */\n      and\n        /* \"erc721A.sol\":29023:29060  owner := and(owner, _BITMASK_ADDRESS) */\n      swap3\n      pop\n        /* \"erc721A.sol\":29203:29219  _BITMASK_ADDRESS */\n      0xffffffffffffffffffffffffffffffffffffffff\n        /* \"erc721A.sol\":29192:29201  msgSender */\n      dup3\n        /* \"erc721A.sol\":29188:29220  and(msgSender, _BITMASK_ADDRESS) */\n      and\n        /* \"erc721A.sol\":29175:29220  msgSender := and(msgSender, _BITMASK_ADDRESS) */\n      swap2\n      pop\n        /* \"erc721A.sol\":29353:29368  approvedAddress */\n      dup4\n        /* \"erc721A.sol\":29342:29351  msgSender */\n      dup3\n        /* \"erc721A.sol\":29339:29369  eq(msgSender, approvedAddress) */\n      eq\n        /* \"erc721A.sol\":29331:29336  owner */\n      dup4\n        /* \"erc721A.sol\":29320:29329  msgSender */\n      dup4\n        /* \"erc721A.sol\":29317:29337  eq(msgSender, owner) */\n      eq\n        /* \"erc721A.sol\":29314:29370  or(eq(msgSender, owner), eq(msgSender, approvedAddress)) */\n      or\n        /* \"erc721A.sol\":29304:29370  result := or(eq(msgSender, owner), eq(msgSender, approvedAddress)) */\n      swap1\n      pop\n        /* \"erc721A.sol\":28729:29388  function _isSenderApprovedOrOwner(... */\n      swap4\n      swap3\n      pop\n      pop\n      pop\n      jump\t// out\n        /* \"erc721A.sol\":36068:36227  function _beforeTokenTransfers(... */\n    tag_134:\n      pop\n      pop\n      pop\n      pop\n      jump\t// out\n        /* \"erc721A.sol\":45289:45600  function _nextExtraData(... */\n    tag_138:\n        /* \"erc721A.sol\":45424:45431  uint256 */\n      0x00\n        /* \"erc721A.sol\":45444:45460  uint24 extraData */\n      dup1\n        /* \"erc721A.sol\":15648:15651  232 */\n      0xe8\n        /* \"erc721A.sol\":45470:45489  prevOwnershipPacked */\n      dup4\n        /* \"erc721A.sol\":45470:45511  prevOwnershipPacked >> _BITPOS_EXTRA_DATA */\n      swap1\n      shr\n        /* \"erc721A.sol\":45444:45512  uint24 extraData = uint24(prevOwnershipPacked >> _BITPOS_EXTRA_DATA) */\n      swap1\n      pop\n        /* \"erc721A.sol\":15648:15651  232 */\n      0xe8\n        /* \"erc721A.sol\":45538:45569  _extraData(from, to, extraData) */\n      tag_241\n        /* \"erc721A.sol\":45549:45553  from */\n      dup7\n        /* \"erc721A.sol\":45555:45557  to */\n      dup7\n        /* \"erc721A.sol\":45559:45568  extraData */\n      dup5\n        /* \"erc721A.sol\":45538:45548  _extraData */\n      tag_242\n        /* \"erc721A.sol\":45538:45569  _extraData(from, to, extraData) */\n      jump\t// in\n    tag_241:\n        /* \"erc721A.sol\":45530:45570  uint256(_extraData(from, to, extraData)) */\n      0xffffff\n      and\n        /* \"erc721A.sol\":45530:45592  uint256(_extraData(from, to, extraData)) << _BITPOS_EXTRA_DATA */\n      swap1\n      shl\n        /* \"erc721A.sol\":45523:45592  return uint256(_extraData(from, to, extraData)) << _BITPOS_EXTRA_DATA */\n      swap2\n      pop\n      pop\n        /* \"erc721A.sol\":45289:45600  function _nextExtraData(... */\n      swap4\n      swap3\n      pop\n      pop\n      pop\n      jump\t// out\n        /* \"erc721A.sol\":25041:25732  function _packOwnershipData(address owner, uint256 flags) private view returns (uint256 result) {... */\n    tag_139:\n        /* \"erc721A.sol\":25121:25135  uint256 result */\n      0x00\n        /* \"erc721A.sol\":25289:25331  0xFFFFFFFFFFFFFFFFFFFFFFFFFFFFFFFFFFFFFFFF */\n      0xffffffffffffffffffffffffffffffffffffffff\n        /* \"erc721A.sol\":25282:25287  owner */\n      dup4\n        /* \"erc721A.sol\":25278:25332  and(owner, 0xFFFFFFFFFFFFFFFFFFFFFFFFFFFFFFFFFFFFFFFF) */\n      and\n        /* \"erc721A.sol\":25269:25332  owner := and(owner, 0xFFFFFFFFFFFFFFFFFFFFFFFFFFFFFFFFFFFFFFFF) */\n      swap3\n      pop\n        /* \"erc721A.sol\":25439:25450  timestamp() */\n      timestamp\n        /* \"erc721A.sol\":25576:25592  currentTimestamp */\n      dup1\n        /* \"erc721A.sol\":25572:25574  96 */\n      0x60\n        /* \"erc721A.sol\":25568:25593  shl(96, currentTimestamp) */\n      shl\n        /* \"erc721A.sol\":25548:25593  currentTimestamp := shl(96, currentTimestamp) */\n      swap1\n      pop\n        /* \"erc721A.sol\":25707:25712  flags */\n      dup3\n        /* \"erc721A.sol\":25689:25705  currentTimestamp */\n      dup2\n        /* \"erc721A.sol\":25686:25713  or(currentTimestamp, flags) */\n      or\n        /* \"erc721A.sol\":25679:25684  owner */\n      dup5\n        /* \"erc721A.sol\":25676:25714  or(owner, or(currentTimestamp, flags)) */\n      or\n        /* \"erc721A.sol\":25666:25714  result := or(owner, or(currentTimestamp, flags)) */\n      swap2\n      pop\n        /* \"erc721A.sol\":25157:25725  {... */\n      pop\n        /* \"erc721A.sol\":25041:25732  function _packOwnershipData(address owner, uint256 flags) private view returns (uint256 result) {... */\n      swap3\n      swap2\n      pop\n      pop\n      jump\t// out\n        /* \"erc721A.sol\":36892:37050  function _afterTokenTransfers(... */\n    tag_146:\n      pop\n      pop\n      pop\n      pop\n      jump\t// out\n        /* \"erc721A.sol\":2670:2836  function _checkOwner() internal view virtual {... */\n    tag_154:\n        /* \"erc721A.sol\":2741:2753  _msgSender() */\n      tag_246\n        /* \"erc721A.sol\":2741:2751  _msgSender */\n      tag_247\n        /* \"erc721A.sol\":2741:2753  _msgSender() */\n      jump\t// in\n    tag_246:\n        /* \"erc721A.sol\":2730:2753  owner() != _msgSender() */\n      0xffffffffffffffffffffffffffffffffffffffff\n      and\n        /* \"erc721A.sol\":2730:2737  owner() */\n      tag_248\n        /* \"erc721A.sol\":2730:2735  owner */\n      tag_64\n        /* \"erc721A.sol\":2730:2737  owner() */\n      jump\t// in\n    tag_248:\n        /* \"erc721A.sol\":2730:2753  owner() != _msgSender() */\n      0xffffffffffffffffffffffffffffffffffffffff\n      and\n      eq\n        /* \"erc721A.sol\":2726:2829  if (owner() != _msgSender()) {... */\n      tag_249\n      jumpi\n        /* \"erc721A.sol\":2804:2816  _msgSender() */\n      tag_250\n        /* \"erc721A.sol\":2804:2814  _msgSender */\n      tag_247\n        /* \"erc721A.sol\":2804:2816  _msgSender() */\n      jump\t// in\n    tag_250:\n        /* \"erc721A.sol\":2777:2817  OwnableUnauthorizedAccount(_msgSender()) */\n      mload(0x40)\n      0x118cdaa700000000000000000000000000000000000000000000000000000000\n      dup2\n      mstore\n      0x04\n      add\n      tag_251\n      swap2\n      swap1\n      tag_39\n      jump\t// in\n    tag_251:\n      mload(0x40)\n      dup1\n      swap2\n      sub\n      swap1\n      revert\n        /* \"erc721A.sol\":2726:2829  if (owner() != _msgSender()) {... */\n    tag_249:\n        /* \"erc721A.sol\":2670:2836  function _checkOwner() internal view virtual {... */\n      jump\t// out\n        /* \"erc721A.sol\":3818:4009  function _transferOwnership(address newOwner) internal virtual {... */\n    tag_157:\n        /* \"erc721A.sol\":3892:3908  address oldOwner */\n      0x00\n        /* \"erc721A.sol\":3911:3917  _owner */\n      0x08\n      0x00\n      swap1\n      sload\n      swap1\n      0x0100\n      exp\n      swap1\n      div\n      0xffffffffffffffffffffffffffffffffffffffff\n      and\n        /* \"erc721A.sol\":3892:3917  address oldOwner = _owner */\n      swap1\n      pop\n        /* \"erc721A.sol\":3937:3945  newOwner */\n      dup2\n        /* \"erc721A.sol\":3928:3934  _owner */\n      0x08\n      0x00\n        /* \"erc721A.sol\":3928:3945  _owner = newOwner */\n      0x0100\n      exp\n      dup2\n      sload\n      dup2\n      0xffffffffffffffffffffffffffffffffffffffff\n      mul\n      not\n      and\n      swap1\n      dup4\n      0xffffffffffffffffffffffffffffffffffffffff\n      and\n      mul\n      or\n      swap1\n      sstore\n      pop\n        /* \"erc721A.sol\":3992:4000  newOwner */\n      dup2\n        /* \"erc721A.sol\":3961:4001  OwnershipTransferred(oldOwner, newOwner) */\n      0xffffffffffffffffffffffffffffffffffffffff\n      and\n        /* \"erc721A.sol\":3982:3990  oldOwner */\n      dup2\n        /* \"erc721A.sol\":3961:4001  OwnershipTransferred(oldOwner, newOwner) */\n      0xffffffffffffffffffffffffffffffffffffffff\n      and\n      0x8be0079c531659141344cd1fd0a4f28419497f9722a3daafe3b4186f6b6457e0\n      mload(0x40)\n      mload(0x40)\n      dup1\n      swap2\n      sub\n      swap1\n      log3\n        /* \"erc721A.sol\":3881:4009  {... */\n      pop\n        /* \"erc721A.sol\":3818:4009  function _transferOwnership(address newOwner) internal virtual {... */\n      pop\n      jump\t// out\n        /* \"erc721A.sol\":43007:43119  function _safeMint(address to, uint256 quantity) internal virtual {... */\n    tag_169:\n        /* \"erc721A.sol\":43084:43111  _safeMint(to, quantity, '') */\n      tag_254\n        /* \"erc721A.sol\":43094:43096  to */\n      dup3\n        /* \"erc721A.sol\":43098:43106  quantity */\n      dup3\n        /* \"erc721A.sol\":43084:43111  _safeMint(to, quantity, '') */\n      mload(0x40)\n      dup1\n      0x20\n      add\n      0x40\n      mstore\n      dup1\n      0x00\n      dup2\n      mstore\n      pop\n        /* \"erc721A.sol\":43084:43093  _safeMint */\n      tag_255\n        /* \"erc721A.sol\":43084:43111  _safeMint(to, quantity, '') */\n      jump\t// in\n    tag_254:\n        /* \"erc721A.sol\":43007:43119  function _safeMint(address to, uint256 quantity) internal virtual {... */\n      pop\n      pop\n      jump\t// out\n        /* \"erc721A.sol\":37490:38177  function _checkContractOnERC721Received(... */\n    tag_178:\n        /* \"erc721A.sol\":37653:37657  bool */\n      0x00\n        /* \"erc721A.sol\":37697:37699  to */\n      dup4\n        /* \"erc721A.sol\":37674:37717  ERC721AIERC721RECEIVER(to).onERC721Received */\n      0xffffffffffffffffffffffffffffffffffffffff\n      and\n      0x150b7a02\n        /* \"erc721A.sol\":37718:37737  _msgSenderERC721A() */\n      tag_257\n        /* \"erc721A.sol\":37718:37735  _msgSenderERC721A */\n      tag_126\n        /* \"erc721A.sol\":37718:37737  _msgSenderERC721A() */\n      jump\t// in\n    tag_257:\n        /* \"erc721A.sol\":37739:37743  from */\n      dup8\n        /* \"erc721A.sol\":37745:37752  tokenId */\n      dup7\n        /* \"erc721A.sol\":37754:37759  _data */\n      dup7\n        /* \"erc721A.sol\":37674:37760  ERC721AIERC721RECEIVER(to).onERC721Received(_msgSenderERC721A(), from, tokenId, _data) */\n      mload(0x40)\n      dup6\n      0xffffffff\n      and\n      0xe0\n      shl\n      dup2\n      mstore\n      0x04\n      add\n      tag_258\n      swap5\n      swap4\n      swap3\n      swap2\n      swap1\n      tag_259\n      jump\t// in\n    tag_258:\n      0x20\n      mload(0x40)\n      dup1\n      dup4\n      sub\n      dup2\n      0x00\n      dup8\n      gas\n      call\n      swap3\n      pop\n      pop\n      pop\n      dup1\n      iszero\n      tag_260\n      jumpi\n      pop\n      mload(0x40)\n      returndatasize\n      not(0x1f)\n      0x1f\n      dup3\n      add\n      and\n      dup3\n      add\n      dup1\n      0x40\n      mstore\n      pop\n      dup2\n      add\n      swap1\n      tag_261\n      swap2\n      swap1\n      tag_262\n      jump\t// in\n    tag_261:\n      0x01\n    tag_260:\n        /* \"erc721A.sol\":37670:38170  try ERC721AIERC721RECEIVER(to).onERC721Received(_msgSenderERC721A(), from, tokenId, _data) returns (... */\n      tag_263\n      jumpi\n      returndatasize\n      dup1\n      0x00\n      dup2\n      eq\n      tag_268\n      jumpi\n      mload(0x40)\n      swap2\n      pop\n      and(add(returndatasize, 0x3f), not(0x1f))\n      dup3\n      add\n      0x40\n      mstore\n      returndatasize\n      dup3\n      mstore\n      returndatasize\n      0x00\n      0x20\n      dup5\n      add\n      returndatacopy\n      jump(tag_267)\n    tag_268:\n      0x60\n      swap2\n      pop\n    tag_267:\n      pop\n        /* \"erc721A.sol\":37970:37971  0 */\n      0x00\n        /* \"erc721A.sol\":37953:37959  reason */\n      dup2\n        /* \"erc721A.sol\":37953:37966  reason.length */\n      mload\n        /* \"erc721A.sol\":37953:37971  reason.length == 0 */\n      sub\n        /* \"erc721A.sol\":37949:38064  if (reason.length == 0) {... */\n      tag_269\n      jumpi\n        /* \"erc721A.sol\":37992:38048  _revert(TransferToNonERC721ReceiverImplementer.selector) */\n      tag_270\n        /* \"erc721A.sol\":38000:38047  TransferToNonERC721ReceiverImplementer.selector */\n      shl(0xe0, 0xd1a57ed6)\n        /* \"erc721A.sol\":37992:37999  _revert */\n      tag_110\n        /* \"erc721A.sol\":37992:38048  _revert(TransferToNonERC721ReceiverImplementer.selector) */\n      jump\t// in\n    tag_270:\n        /* \"erc721A.sol\":37949:38064  if (reason.length == 0) {... */\n    tag_269:\n        /* \"erc721A.sol\":38136:38142  reason */\n      dup1\n        /* \"erc721A.sol\":38130:38143  mload(reason) */\n      mload\n        /* \"erc721A.sol\":38121:38127  reason */\n      dup2\n        /* \"erc721A.sol\":38117:38119  32 */\n      0x20\n        /* \"erc721A.sol\":38113:38128  add(32, reason) */\n      add\n        /* \"erc721A.sol\":38106:38144  revert(add(32, reason), mload(reason)) */\n      revert\n        /* \"erc721A.sol\":37670:38170  try ERC721AIERC721RECEIVER(to).onERC721Received(_msgSenderERC721A(), from, tokenId, _data) returns (... */\n    tag_263:\n        /* \"erc721A.sol\":37841:37893  ERC721AIERC721RECEIVER(to).onERC721Received.selector */\n      shl(0xe0, 0x150b7a02)\n        /* \"erc721A.sol\":37831:37893  retval == ERC721AIERC721RECEIVER(to).onERC721Received.selector */\n      not(0xffffffffffffffffffffffffffffffffffffffffffffffffffffffff)\n      and\n        /* \"erc721A.sol\":37831:37837  retval */\n      dup2\n        /* \"erc721A.sol\":37831:37893  retval == ERC721AIERC721RECEIVER(to).onERC721Received.selector */\n      not(0xffffffffffffffffffffffffffffffffffffffffffffffffffffffff)\n      and\n      eq\n        /* \"erc721A.sol\":37824:37893  return retval == ERC721AIERC721RECEIVER(to).onERC721Received.selector */\n      swap2\n      pop\n      pop\n        /* \"erc721A.sol\":37490:38177  function _checkContractOnERC721Received(... */\n      swap5\n      swap4\n      pop\n      pop\n      pop\n      pop\n      jump\t// out\n        /* \"erc721A.sol\":22219:22359  function _baseURI() internal pure returns (string memory) {... */\n    tag_186:\n        /* \"erc721A.sol\":22262:22275  string memory */\n      0x60\n        /* \"erc721A.sol\":22288:22351  return \"ipfs://Qmac89sZTSGvKkyYa2vrxdRakPREaGFJSNJRRWetzTLQTM/\" */\n      mload(0x40)\n      dup1\n      0x60\n      add\n      0x40\n      mstore\n      dup1\n      0x36\n      dup2\n      mstore\n      0x20\n      add\n      data_1250311f865916c0c48ec18be7711c5b67f23674d6e827435103b8b03cf0ba32\n      0x36\n      swap2\n      codecopy\n      swap1\n      pop\n        /* \"erc721A.sol\":22219:22359  function _baseURI() internal pure returns (string memory) {... */\n      swap1\n      jump\t// out\n        /* \"erc721A.sol\":46187:46740  function toString(uint256 value) internal pure returns (string memory) {... */\n    tag_191:\n        /* \"erc721A.sol\":46243:46256  string memory */\n      0x60\n        /* \"erc721A.sol\":46282:46283  0 */\n      0x00\n        /* \"erc721A.sol\":46273:46278  value */\n      dup3\n        /* \"erc721A.sol\":46273:46283  value == 0 */\n      sub\n        /* \"erc721A.sol\":46269:46322  if (value == 0) {... */\n      tag_274\n      jumpi\n        /* \"erc721A.sol\":46300:46310  return \"0\" */\n      mload(0x40)\n      dup1\n      0x40\n      add\n      0x40\n      mstore\n      dup1\n      0x01\n      dup2\n      mstore\n      0x20\n      add\n      0x3000000000000000000000000000000000000000000000000000000000000000\n      dup2\n      mstore\n      pop\n      swap1\n      pop\n      jump(tag_273)\n        /* \"erc721A.sol\":46269:46322  if (value == 0) {... */\n    tag_274:\n        /* \"erc721A.sol\":46342:46354  uint256 temp */\n      0x00\n        /* \"erc721A.sol\":46357:46362  value */\n      dup3\n        /* \"erc721A.sol\":46342:46362  uint256 temp = value */\n      swap1\n      pop\n        /* \"erc721A.sol\":46373:46387  uint256 digits */\n      0x00\n        /* \"erc721A.sol\":46398:46476  while (temp != 0) {... */\n    tag_275:\n        /* \"erc721A.sol\":46413:46414  0 */\n      0x00\n        /* \"erc721A.sol\":46405:46409  temp */\n      dup3\n        /* \"erc721A.sol\":46405:46414  temp != 0 */\n      eq\n        /* \"erc721A.sol\":46398:46476  while (temp != 0) {... */\n      tag_276\n      jumpi\n        /* \"erc721A.sol\":46431:46439  digits++ */\n      dup1\n      dup1\n      tag_277\n      swap1\n      tag_278\n      jump\t// in\n    tag_277:\n      swap2\n      pop\n      pop\n        /* \"erc721A.sol\":46462:46464  10 */\n      0x0a\n        /* \"erc721A.sol\":46454:46464  temp /= 10 */\n      dup3\n      tag_279\n      swap2\n      swap1\n      tag_280\n      jump\t// in\n    tag_279:\n      swap2\n      pop\n        /* \"erc721A.sol\":46398:46476  while (temp != 0) {... */\n      jump(tag_275)\n    tag_276:\n        /* \"erc721A.sol\":46496:46515  bytes memory buffer */\n      0x00\n        /* \"erc721A.sol\":46528:46534  digits */\n      dup2\n        /* \"erc721A.sol\":46518:46535  new bytes(digits) */\n      0xffffffffffffffff\n      dup2\n      gt\n      iszero\n      tag_281\n      jumpi\n      tag_282\n      tag_283\n      jump\t// in\n    tag_282:\n    tag_281:\n      mload(0x40)\n      swap1\n      dup1\n      dup3\n      mstore\n      dup1\n      0x1f\n      add\n      not(0x1f)\n      and\n      0x20\n      add\n      dup3\n      add\n      0x40\n      mstore\n      dup1\n      iszero\n      tag_284\n      jumpi\n      dup2\n      0x20\n      add\n      0x01\n      dup3\n      mul\n      dup1\n      calldatasize\n      dup4\n      calldatacopy\n      dup1\n      dup3\n      add\n      swap2\n      pop\n      pop\n      swap1\n      pop\n    tag_284:\n      pop\n        /* \"erc721A.sol\":46496:46535  bytes memory buffer = new bytes(digits) */\n      swap1\n      pop\n        /* \"erc721A.sol\":46546:46691  while (value != 0) {... */\n    tag_285:\n        /* \"erc721A.sol\":46562:46563  0 */\n      0x00\n        /* \"erc721A.sol\":46553:46558  value */\n      dup6\n        /* \"erc721A.sol\":46553:46563  value != 0 */\n      eq\n        /* \"erc721A.sol\":46546:46691  while (value != 0) {... */\n      tag_286\n      jumpi\n        /* \"erc721A.sol\":46590:46591  1 */\n      0x01\n        /* \"erc721A.sol\":46580:46591  digits -= 1 */\n      dup3\n      tag_287\n      swap2\n      swap1\n      tag_288\n      jump\t// in\n    tag_287:\n      swap2\n      pop\n        /* \"erc721A.sol\":46649:46651  10 */\n      0x0a\n        /* \"erc721A.sol\":46641:46646  value */\n      dup6\n        /* \"erc721A.sol\":46641:46651  value % 10 */\n      tag_289\n      swap2\n      swap1\n      tag_290\n      jump\t// in\n    tag_289:\n        /* \"erc721A.sol\":46636:46638  48 */\n      0x30\n        /* \"erc721A.sol\":46636:46651  48 + value % 10 */\n      tag_291\n      swap2\n      swap1\n      tag_292\n      jump\t// in\n    tag_291:\n        /* \"erc721A.sol\":46623:46653  bytes1(uint8(48 + value % 10)) */\n      0xf8\n      shl\n        /* \"erc721A.sol\":46606:46612  buffer */\n      dup2\n        /* \"erc721A.sol\":46613:46619  digits */\n      dup4\n        /* \"erc721A.sol\":46606:46620  buffer[digits] */\n      dup2\n      mload\n      dup2\n      lt\n      tag_293\n      jumpi\n      tag_294\n      tag_295\n      jump\t// in\n    tag_294:\n    tag_293:\n      0x20\n      add\n      add\n        /* \"erc721A.sol\":46606:46653  buffer[digits] = bytes1(uint8(48 + value % 10)) */\n      swap1\n      not(0xffffffffffffffffffffffffffffffffffffffffffffffffffffffffffffff)\n      and\n      swap1\n      dup2\n      0x00\n      byte\n      swap1\n      mstore8\n      pop\n        /* \"erc721A.sol\":46677:46679  10 */\n      0x0a\n        /* \"erc721A.sol\":46668:46679  value /= 10 */\n      dup6\n      tag_296\n      swap2\n      swap1\n      tag_280\n      jump\t// in\n    tag_296:\n      swap5\n      pop\n        /* \"erc721A.sol\":46546:46691  while (value != 0) {... */\n      jump(tag_285)\n    tag_286:\n        /* \"erc721A.sol\":46725:46731  buffer */\n      dup1\n        /* \"erc721A.sol\":46711:46732  return string(buffer) */\n      swap4\n      pop\n      pop\n      pop\n      pop\n        /* \"erc721A.sol\":46187:46740  function toString(uint256 value) internal pure returns (string memory) {... */\n    tag_273:\n      swap2\n      swap1\n      pop\n      jump\t// out\n        /* \"erc721A.sol\":44990:45137  function _extraData(... */\n    tag_242:\n        /* \"erc721A.sol\":45127:45133  uint24 */\n      0x00\n        /* \"erc721A.sol\":44990:45137  function _extraData(... */\n      swap4\n      swap3\n      pop\n      pop\n      pop\n      jump\t// out\n        /* \"erc721A.sol\":728:826  function _msgSender() internal view virtual returns (address) {... */\n    tag_247:\n        /* \"erc721A.sol\":781:788  address */\n      0x00\n        /* \"erc721A.sol\":808:818  msg.sender */\n      caller\n        /* \"erc721A.sol\":801:818  return msg.sender */\n      swap1\n      pop\n        /* \"erc721A.sol\":728:826  function _msgSender() internal view virtual returns (address) {... */\n      swap1\n      jump\t// out\n        /* \"erc721A.sol\":42215:42923  function _safeMint(... */\n    tag_255:\n        /* \"erc721A.sol\":42346:42365  _mint(to, quantity) */\n      tag_300\n        /* \"erc721A.sol\":42352:42354  to */\n      dup4\n        /* \"erc721A.sol\":42356:42364  quantity */\n      dup4\n        /* \"erc721A.sol\":42346:42351  _mint */\n      tag_301\n        /* \"erc721A.sol\":42346:42365  _mint(to, quantity) */\n      jump\t// in\n    tag_300:\n        /* \"erc721A.sol\":42425:42426  0 */\n      0x00\n        /* \"erc721A.sol\":42407:42409  to */\n      dup4\n        /* \"erc721A.sol\":42407:42421  to.code.length */\n      0xffffffffffffffffffffffffffffffffffffffff\n      and\n      extcodesize\n        /* \"erc721A.sol\":42407:42426  to.code.length != 0 */\n      eq\n        /* \"erc721A.sol\":42403:42905  if (to.code.length != 0) {... */\n      tag_302\n      jumpi\n        /* \"erc721A.sol\":42447:42458  uint256 end */\n      0x00\n        /* \"erc721A.sol\":42461:42474  _currentIndex */\n      dup1\n      sload\n        /* \"erc721A.sol\":42447:42474  uint256 end = _currentIndex */\n      swap1\n      pop\n        /* \"erc721A.sol\":42493:42506  uint256 index */\n      0x00\n        /* \"erc721A.sol\":42515:42523  quantity */\n      dup4\n        /* \"erc721A.sol\":42509:42512  end */\n      dup3\n        /* \"erc721A.sol\":42509:42523  end - quantity */\n      sub\n        /* \"erc721A.sol\":42493:42523  uint256 index = end - quantity */\n      swap1\n      pop\n        /* \"erc721A.sol\":42542:42784  do {... */\n    tag_303:\n        /* \"erc721A.sol\":42573:42635  _checkContractOnERC721Received(address(0), to, index++, _data) */\n      tag_306\n        /* \"erc721A.sol\":42612:42613  0 */\n      0x00\n        /* \"erc721A.sol\":42616:42618  to */\n      dup7\n        /* \"erc721A.sol\":42620:42627  index++ */\n      dup4\n      dup1\n      0x01\n      add\n      swap5\n      pop\n        /* \"erc721A.sol\":42629:42634  _data */\n      dup7\n        /* \"erc721A.sol\":42573:42603  _checkContractOnERC721Received */\n      tag_178\n        /* \"erc721A.sol\":42573:42635  _checkContractOnERC721Received(address(0), to, index++, _data) */\n      jump\t// in\n    tag_306:\n        /* \"erc721A.sol\":42568:42744  if (!_checkContractOnERC721Received(address(0), to, index++, _data)) {... */\n      tag_307\n      jumpi\n        /* \"erc721A.sol\":42664:42720  _revert(TransferToNonERC721ReceiverImplementer.selector) */\n      tag_308\n        /* \"erc721A.sol\":42672:42719  TransferToNonERC721ReceiverImplementer.selector */\n      shl(0xe0, 0xd1a57ed6)\n        /* \"erc721A.sol\":42664:42671  _revert */\n      tag_110\n        /* \"erc721A.sol\":42664:42720  _revert(TransferToNonERC721ReceiverImplementer.selector) */\n      jump\t// in\n    tag_308:\n        /* \"erc721A.sol\":42568:42744  if (!_checkContractOnERC721Received(address(0), to, index++, _data)) {... */\n    tag_307:\n        /* \"erc721A.sol\":42779:42782  end */\n      dup2\n        /* \"erc721A.sol\":42771:42776  index */\n      dup2\n        /* \"erc721A.sol\":42771:42782  index < end */\n      lt\n        /* \"erc721A.sol\":42542:42784  do {... */\n      tag_303\n      jumpi\n        /* \"erc721A.sol\":42866:42869  end */\n      dup2\n        /* \"erc721A.sol\":42849:42862  _currentIndex */\n      sload(0x00)\n        /* \"erc721A.sol\":42849:42869  _currentIndex != end */\n      eq\n        /* \"erc721A.sol\":42845:42889  if (_currentIndex != end) _revert(bytes4(0)) */\n      tag_309\n      jumpi\n        /* \"erc721A.sol\":42871:42889  _revert(bytes4(0)) */\n      tag_310\n        /* \"erc721A.sol\":42886:42887  0 */\n      0x00\n        /* \"erc721A.sol\":42879:42888  bytes4(0) */\n      0xe0\n      shl\n        /* \"erc721A.sol\":42871:42878  _revert */\n      tag_110\n        /* \"erc721A.sol\":42871:42889  _revert(bytes4(0)) */\n      jump\t// in\n    tag_310:\n        /* \"erc721A.sol\":42845:42889  if (_currentIndex != end) _revert(bytes4(0)) */\n    tag_309:\n        /* \"erc721A.sol\":42428:42905  {... */\n      pop\n      pop\n        /* \"erc721A.sol\":42403:42905  if (to.code.length != 0) {... */\n    tag_302:\n        /* \"erc721A.sol\":42215:42923  function _safeMint(... */\n      pop\n      pop\n      pop\n      jump\t// out\n        /* \"erc721A.sol\":38639:40944  function _mint(address to, uint256 quantity) internal virtual {... */\n    tag_301:\n        /* \"erc721A.sol\":38712:38732  uint256 startTokenId */\n      0x00\n        /* \"erc721A.sol\":38735:38748  _currentIndex */\n      dup1\n      sload\n        /* \"erc721A.sol\":38712:38748  uint256 startTokenId = _currentIndex */\n      swap1\n      pop\n        /* \"erc721A.sol\":38775:38776  0 */\n      0x00\n        /* \"erc721A.sol\":38763:38771  quantity */\n      dup3\n        /* \"erc721A.sol\":38763:38776  quantity == 0 */\n      sub\n        /* \"erc721A.sol\":38759:38812  if (quantity == 0) _revert(MintZeroQuantity.selector) */\n      tag_312\n      jumpi\n        /* \"erc721A.sol\":38778:38812  _revert(MintZeroQuantity.selector) */\n      tag_313\n        /* \"erc721A.sol\":38786:38811  MintZeroQuantity.selector */\n      shl(0xe0, 0xb562e8dd)\n        /* \"erc721A.sol\":38778:38785  _revert */\n      tag_110\n        /* \"erc721A.sol\":38778:38812  _revert(MintZeroQuantity.selector) */\n      jump\t// in\n    tag_313:\n        /* \"erc721A.sol\":38759:38812  if (quantity == 0) _revert(MintZeroQuantity.selector) */\n    tag_312:\n        /* \"erc721A.sol\":38825:38886  _beforeTokenTransfers(address(0), to, startTokenId, quantity) */\n      tag_314\n        /* \"erc721A.sol\":38855:38856  0 */\n      0x00\n        /* \"erc721A.sol\":38859:38861  to */\n      dup5\n        /* \"erc721A.sol\":38863:38875  startTokenId */\n      dup4\n        /* \"erc721A.sol\":38877:38885  quantity */\n      dup6\n        /* \"erc721A.sol\":38825:38846  _beforeTokenTransfers */\n      tag_134\n        /* \"erc721A.sol\":38825:38886  _beforeTokenTransfers(address(0), to, startTokenId, quantity) */\n      jump\t// in\n    tag_314:\n        /* \"erc721A.sol\":39359:39498  _packOwnershipData(... */\n      tag_315\n        /* \"erc721A.sol\":39396:39398  to */\n      dup4\n        /* \"erc721A.sol\":39450:39483  _nextExtraData(address(0), to, 0) */\n      tag_316\n        /* \"erc721A.sol\":39473:39474  0 */\n      0x00\n        /* \"erc721A.sol\":39477:39479  to */\n      dup7\n        /* \"erc721A.sol\":39481:39482  0 */\n      0x00\n        /* \"erc721A.sol\":39450:39464  _nextExtraData */\n      tag_138\n        /* \"erc721A.sol\":39450:39483  _nextExtraData(address(0), to, 0) */\n      jump\t// in\n    tag_316:\n        /* \"erc721A.sol\":39417:39447  _nextInitializedFlag(quantity) */\n      tag_317\n        /* \"erc721A.sol\":39438:39446  quantity */\n      dup6\n        /* \"erc721A.sol\":39417:39437  _nextInitializedFlag */\n      tag_318\n        /* \"erc721A.sol\":39417:39447  _nextInitializedFlag(quantity) */\n      jump\t// in\n    tag_317:\n        /* \"erc721A.sol\":39417:39483  _nextInitializedFlag(quantity) | _nextExtraData(address(0), to, 0) */\n      or\n        /* \"erc721A.sol\":39359:39377  _packOwnershipData */\n      tag_139\n        /* \"erc721A.sol\":39359:39498  _packOwnershipData(... */\n      jump\t// in\n    tag_315:\n        /* \"erc721A.sol\":39325:39342  _packedOwnerships */\n      0x04\n        /* \"erc721A.sol\":39325:39356  _packedOwnerships[startTokenId] */\n      0x00\n        /* \"erc721A.sol\":39343:39355  startTokenId */\n      dup4\n        /* \"erc721A.sol\":39325:39356  _packedOwnerships[startTokenId] */\n      dup2\n      mstore\n      0x20\n      add\n      swap1\n      dup2\n      mstore\n      0x20\n      add\n      0x00\n      keccak256\n        /* \"erc721A.sol\":39325:39498  _packedOwnerships[startTokenId] = _packOwnershipData(... */\n      dup2\n      swap1\n      sstore\n      pop\n        /* \"erc721A.sol\":39785:39786  1 */\n      0x01\n        /* \"erc721A.sol\":14606:14608  64 */\n      0x40\n        /* \"erc721A.sol\":39755:39756  1 */\n      0x01\n        /* \"erc721A.sol\":39755:39781  1 << _BITPOS_NUMBER_MINTED */\n      swap1\n      shl\n        /* \"erc721A.sol\":39754:39786  (1 << _BITPOS_NUMBER_MINTED) | 1 */\n      or\n        /* \"erc721A.sol\":39742:39750  quantity */\n      dup3\n        /* \"erc721A.sol\":39742:39787  quantity * ((1 << _BITPOS_NUMBER_MINTED) | 1) */\n      mul\n        /* \"erc721A.sol\":39716:39734  _packedAddressData */\n      0x05\n        /* \"erc721A.sol\":39716:39738  _packedAddressData[to] */\n      0x00\n        /* \"erc721A.sol\":39735:39737  to */\n      dup6\n        /* \"erc721A.sol\":39716:39738  _packedAddressData[to] */\n      0xffffffffffffffffffffffffffffffffffffffff\n      and\n      0xffffffffffffffffffffffffffffffffffffffff\n      and\n      dup2\n      mstore\n      0x20\n      add\n      swap1\n      dup2\n      mstore\n      0x20\n      add\n      0x00\n      keccak256\n      0x00\n        /* \"erc721A.sol\":39716:39787  _packedAddressData[to] += quantity * ((1 << _BITPOS_NUMBER_MINTED) | 1) */\n      dup3\n      dup3\n      sload\n      add\n      swap3\n      pop\n      pop\n      dup2\n      swap1\n      sstore\n      pop\n        /* \"erc721A.sol\":39898:39914  uint256 toMasked */\n      0x00\n        /* \"erc721A.sol\":15926:15940  (1 << 160) - 1 */\n      0xffffffffffffffffffffffffffffffffffffffff\n        /* \"erc721A.sol\":39933:39935  to */\n      dup5\n        /* \"erc721A.sol\":39917:39937  uint256(uint160(to)) */\n      0xffffffffffffffffffffffffffffffffffffffff\n      and\n        /* \"erc721A.sol\":39917:39956  uint256(uint160(to)) & _BITMASK_ADDRESS */\n      and\n        /* \"erc721A.sol\":39898:39956  uint256 toMasked = uint256(uint160(to)) & _BITMASK_ADDRESS */\n      swap1\n      pop\n        /* \"erc721A.sol\":39989:39990  0 */\n      0x00\n        /* \"erc721A.sol\":39977:39985  toMasked */\n      dup2\n        /* \"erc721A.sol\":39977:39990  toMasked == 0 */\n      sub\n        /* \"erc721A.sol\":39973:40027  if (toMasked == 0) _revert(MintToZeroAddress.selector) */\n      tag_319\n      jumpi\n        /* \"erc721A.sol\":39992:40027  _revert(MintToZeroAddress.selector) */\n      tag_320\n        /* \"erc721A.sol\":40000:40026  MintToZeroAddress.selector */\n      shl(0xe0, 0x2e076300)\n        /* \"erc721A.sol\":39992:39999  _revert */\n      tag_110\n        /* \"erc721A.sol\":39992:40027  _revert(MintToZeroAddress.selector) */\n      jump\t// in\n    tag_320:\n        /* \"erc721A.sol\":39973:40027  if (toMasked == 0) _revert(MintToZeroAddress.selector) */\n    tag_319:\n        /* \"erc721A.sol\":40044:40055  uint256 end */\n      0x00\n        /* \"erc721A.sol\":40073:40081  quantity */\n      dup4\n        /* \"erc721A.sol\":40058:40070  startTokenId */\n      dup4\n        /* \"erc721A.sol\":40058:40081  startTokenId + quantity */\n      add\n        /* \"erc721A.sol\":40044:40081  uint256 end = startTokenId + quantity */\n      swap1\n      pop\n        /* \"erc721A.sol\":40096:40111  uint256 tokenId */\n      0x00\n        /* \"erc721A.sol\":40114:40126  startTokenId */\n      dup4\n        /* \"erc721A.sol\":40096:40126  uint256 tokenId = startTokenId */\n      swap1\n      pop\n        /* \"erc721A.sol\":40143:40819  do {... */\n    tag_321:\n        /* \"erc721A.sol\":40562:40569  tokenId */\n      dup1\n        /* \"erc721A.sol\":40518:40526  toMasked */\n      dup4\n        /* \"erc721A.sol\":40473:40474  0 */\n      0x00\n        /* \"erc721A.sol\":40407:40432  _TRANSFER_EVENT_SIGNATURE */\n      0xddf252ad1be2c89b69c2b068fc378daa952ba7f163c4a11628f55a4df523b3ef\n        /* \"erc721A.sol\":40344:40345  0 */\n      0x00\n        /* \"erc721A.sol\":40279:40280  0 */\n      dup1\n        /* \"erc721A.sol\":40248:40606  log4(... */\n      log4\n        /* \"erc721A.sol\":40814:40817  end */\n      dup2\n        /* \"erc721A.sol\":40801:40810  ++tokenId */\n      dup2\n      0x01\n      add\n      swap2\n      pop\n      dup2\n        /* \"erc721A.sol\":40801:40817  ++tokenId != end */\n      sub\n        /* \"erc721A.sol\":40143:40819  do {... */\n      tag_321\n      jumpi\n        /* \"erc721A.sol\":40851:40854  end */\n      dup2\n        /* \"erc721A.sol\":40835:40848  _currentIndex */\n      0x00\n        /* \"erc721A.sol\":40835:40854  _currentIndex = end */\n      dup2\n      swap1\n      sstore\n      pop\n        /* \"erc721A.sol\":39074:40866  unchecked {... */\n      pop\n      pop\n      pop\n        /* \"erc721A.sol\":40876:40936  _afterTokenTransfers(address(0), to, startTokenId, quantity) */\n      tag_324\n        /* \"erc721A.sol\":40905:40906  0 */\n      0x00\n        /* \"erc721A.sol\":40909:40911  to */\n      dup5\n        /* \"erc721A.sol\":40913:40925  startTokenId */\n      dup4\n        /* \"erc721A.sol\":40927:40935  quantity */\n      dup6\n        /* \"erc721A.sol\":40876:40896  _afterTokenTransfers */\n      tag_146\n        /* \"erc721A.sol\":40876:40936  _afterTokenTransfers(address(0), to, startTokenId, quantity) */\n      jump\t// in\n    tag_324:\n        /* \"erc721A.sol\":38701:40944  {... */\n      pop\n        /* \"erc721A.sol\":38639:40944  function _mint(address to, uint256 quantity) internal virtual {... */\n      pop\n      pop\n      jump\t// out\n        /* \"erc721A.sol\":25840:26164  function _nextInitializedFlag(uint256 quantity) private pure returns (uint256 result) {... */\n    tag_318:\n        /* \"erc721A.sol\":25910:25924  uint256 result */\n      0x00\n        /* \"erc721A.sol\":26143:26144  1 */\n      0x01\n        /* \"erc721A.sol\":26133:26141  quantity */\n      dup3\n        /* \"erc721A.sol\":26130:26145  eq(quantity, 1) */\n      eq\n        /* \"erc721A.sol\":26104:26128  _BITPOS_NEXT_INITIALIZED */\n      0xe1\n        /* \"erc721A.sol\":26100:26146  shl(_BITPOS_NEXT_INITIALIZED, eq(quantity, 1)) */\n      shl\n        /* \"erc721A.sol\":26090:26146  result := shl(_BITPOS_NEXT_INITIALIZED, eq(quantity, 1)) */\n      swap1\n      pop\n        /* \"erc721A.sol\":25840:26164  function _nextInitializedFlag(uint256 quantity) private pure returns (uint256 result) {... */\n      swap2\n      swap1\n      pop\n      jump\t// out\n        /* \"#utility.yul\":7:82   */\n    tag_326:\n        /* \"#utility.yul\":40:46   */\n      0x00\n        /* \"#utility.yul\":73:75   */\n      0x40\n        /* \"#utility.yul\":67:76   */\n      mload\n        /* \"#utility.yul\":57:76   */\n      swap1\n      pop\n        /* \"#utility.yul\":7:82   */\n      swap1\n      jump\t// out\n        /* \"#utility.yul\":88:205   */\n    tag_327:\n        /* \"#utility.yul\":197:198   */\n      0x00\n        /* \"#utility.yul\":194:195   */\n      dup1\n        /* \"#utility.yul\":187:199   */\n      revert\n        /* \"#utility.yul\":211:328   */\n    tag_328:\n        /* \"#utility.yul\":320:321   */\n      0x00\n        /* \"#utility.yul\":317:318   */\n      dup1\n        /* \"#utility.yul\":310:322   */\n      revert\n        /* \"#utility.yul\":334:483   */\n    tag_329:\n        /* \"#utility.yul\":370:377   */\n      0x00\n        /* \"#utility.yul\":410:476   */\n      0xffffffff00000000000000000000000000000000000000000000000000000000\n        /* \"#utility.yul\":403:408   */\n      dup3\n        /* \"#utility.yul\":399:477   */\n      and\n        /* \"#utility.yul\":388:477   */\n      swap1\n      pop\n        /* \"#utility.yul\":334:483   */\n      swap2\n      swap1\n      pop\n      jump\t// out\n        /* \"#utility.yul\":489:609   */\n    tag_330:\n        /* \"#utility.yul\":561:584   */\n      tag_375\n        /* \"#utility.yul\":578:583   */\n      dup2\n        /* \"#utility.yul\":561:584   */\n      tag_329\n      jump\t// in\n    tag_375:\n        /* \"#utility.yul\":554:559   */\n      dup2\n        /* \"#utility.yul\":551:585   */\n      eq\n        /* \"#utility.yul\":541:603   */\n      tag_376\n      jumpi\n        /* \"#utility.yul\":599:600   */\n      0x00\n        /* \"#utility.yul\":596:597   */\n      dup1\n        /* \"#utility.yul\":589:601   */\n      revert\n        /* \"#utility.yul\":541:603   */\n    tag_376:\n        /* \"#utility.yul\":489:609   */\n      pop\n      jump\t// out\n        /* \"#utility.yul\":615:752   */\n    tag_331:\n        /* \"#utility.yul\":660:665   */\n      0x00\n        /* \"#utility.yul\":698:704   */\n      dup2\n        /* \"#utility.yul\":685:705   */\n      calldataload\n        /* \"#utility.yul\":676:705   */\n      swap1\n      pop\n        /* \"#utility.yul\":714:746   */\n      tag_378\n        /* \"#utility.yul\":740:745   */\n      dup2\n        /* \"#utility.yul\":714:746   */\n      tag_330\n      jump\t// in\n    tag_378:\n        /* \"#utility.yul\":615:752   */\n      swap3\n      swap2\n      pop\n      pop\n      jump\t// out\n        /* \"#utility.yul\":758:1085   */\n    tag_26:\n        /* \"#utility.yul\":816:822   */\n      0x00\n        /* \"#utility.yul\":865:867   */\n      0x20\n        /* \"#utility.yul\":853:862   */\n      dup3\n        /* \"#utility.yul\":844:851   */\n      dup5\n        /* \"#utility.yul\":840:863   */\n      sub\n        /* \"#utility.yul\":836:868   */\n      slt\n        /* \"#utility.yul\":833:952   */\n      iszero\n      tag_380\n      jumpi\n        /* \"#utility.yul\":871:950   */\n      tag_381\n      tag_327\n      jump\t// in\n    tag_381:\n        /* \"#utility.yul\":833:952   */\n    tag_380:\n        /* \"#utility.yul\":991:992   */\n      0x00\n        /* \"#utility.yul\":1016:1068   */\n      tag_382\n        /* \"#utility.yul\":1060:1067   */\n      dup5\n        /* \"#utility.yul\":1051:1057   */\n      dup3\n        /* \"#utility.yul\":1040:1049   */\n      dup6\n        /* \"#utility.yul\":1036:1058   */\n      add\n        /* \"#utility.yul\":1016:1068   */\n      tag_331\n      jump\t// in\n    tag_382:\n        /* \"#utility.yul\":1006:1068   */\n      swap2\n      pop\n        /* \"#utility.yul\":962:1078   */\n      pop\n        /* \"#utility.yul\":758:1085   */\n      swap3\n      swap2\n      pop\n      pop\n      jump\t// out\n        /* \"#utility.yul\":1091:1181   */\n    tag_332:\n        /* \"#utility.yul\":1125:1132   */\n      0x00\n        /* \"#utility.yul\":1168:1173   */\n      dup2\n        /* \"#utility.yul\":1161:1174   */\n      iszero\n        /* \"#utility.yul\":1154:1175   */\n      iszero\n        /* \"#utility.yul\":1143:1175   */\n      swap1\n      pop\n        /* \"#utility.yul\":1091:1181   */\n      swap2\n      swap1\n      pop\n      jump\t// out\n        /* \"#utility.yul\":1187:1296   */\n    tag_333:\n        /* \"#utility.yul\":1268:1289   */\n      tag_385\n        /* \"#utility.yul\":1283:1288   */\n      dup2\n        /* \"#utility.yul\":1268:1289   */\n      tag_332\n      jump\t// in\n    tag_385:\n        /* \"#utility.yul\":1263:1266   */\n      dup3\n        /* \"#utility.yul\":1256:1290   */\n      mstore\n        /* \"#utility.yul\":1187:1296   */\n      pop\n      pop\n      jump\t// out\n        /* \"#utility.yul\":1302:1512   */\n    tag_29:\n        /* \"#utility.yul\":1389:1393   */\n      0x00\n        /* \"#utility.yul\":1427:1429   */\n      0x20\n        /* \"#utility.yul\":1416:1425   */\n      dup3\n        /* \"#utility.yul\":1412:1430   */\n      add\n        /* \"#utility.yul\":1404:1430   */\n      swap1\n      pop\n        /* \"#utility.yul\":1440:1505   */\n      tag_387\n        /* \"#utility.yul\":1502:1503   */\n      0x00\n        /* \"#utility.yul\":1491:1500   */\n      dup4\n        /* \"#utility.yul\":1487:1504   */\n      add\n        /* \"#utility.yul\":1478:1484   */\n      dup5\n        /* \"#utility.yul\":1440:1505   */\n      tag_333\n      jump\t// in\n    tag_387:\n        /* \"#utility.yul\":1302:1512   */\n      swap3\n      swap2\n      pop\n      pop\n      jump\t// out\n        /* \"#utility.yul\":1518:1617   */\n    tag_334:\n        /* \"#utility.yul\":1570:1576   */\n      0x00\n        /* \"#utility.yul\":1604:1609   */\n      dup2\n        /* \"#utility.yul\":1598:1610   */\n      mload\n        /* \"#utility.yul\":1588:1610   */\n      swap1\n      pop\n        /* \"#utility.yul\":1518:1617   */\n      swap2\n      swap1\n      pop\n      jump\t// out\n        /* \"#utility.yul\":1623:1792   */\n    tag_335:\n        /* \"#utility.yul\":1707:1718   */\n      0x00\n        /* \"#utility.yul\":1741:1747   */\n      dup3\n        /* \"#utility.yul\":1736:1739   */\n      dup3\n        /* \"#utility.yul\":1729:1748   */\n      mstore\n        /* \"#utility.yul\":1781:1785   */\n      0x20\n        /* \"#utility.yul\":1776:1779   */\n      dup3\n        /* \"#utility.yul\":1772:1786   */\n      add\n        /* \"#utility.yul\":1757:1786   */\n      swap1\n      pop\n        /* \"#utility.yul\":1623:1792   */\n      swap3\n      swap2\n      pop\n      pop\n      jump\t// out\n        /* \"#utility.yul\":1798:2044   */\n    tag_336:\n        /* \"#utility.yul\":1879:1880   */\n      0x00\n        /* \"#utility.yul\":1889:2002   */\n    tag_391:\n        /* \"#utility.yul\":1903:1909   */\n      dup4\n        /* \"#utility.yul\":1900:1901   */\n      dup2\n        /* \"#utility.yul\":1897:1910   */\n      lt\n        /* \"#utility.yul\":1889:2002   */\n      iszero\n      tag_393\n      jumpi\n        /* \"#utility.yul\":1988:1989   */\n      dup1\n        /* \"#utility.yul\":1983:1986   */\n      dup3\n        /* \"#utility.yul\":1979:1990   */\n      add\n        /* \"#utility.yul\":1973:1991   */\n      mload\n        /* \"#utility.yul\":1969:1970   */\n      dup2\n        /* \"#utility.yul\":1964:1967   */\n      dup5\n        /* \"#utility.yul\":1960:1971   */\n      add\n        /* \"#utility.yul\":1953:1992   */\n      mstore\n        /* \"#utility.yul\":1925:1927   */\n      0x20\n        /* \"#utility.yul\":1922:1923   */\n      dup2\n        /* \"#utility.yul\":1918:1928   */\n      add\n        /* \"#utility.yul\":1913:1928   */\n      swap1\n      pop\n        /* \"#utility.yul\":1889:2002   */\n      jump(tag_391)\n    tag_393:\n        /* \"#utility.yul\":2036:2037   */\n      0x00\n        /* \"#utility.yul\":2027:2033   */\n      dup5\n        /* \"#utility.yul\":2022:2025   */\n      dup5\n        /* \"#utility.yul\":2018:2034   */\n      add\n        /* \"#utility.yul\":2011:2038   */\n      mstore\n        /* \"#utility.yul\":1860:2044   */\n      pop\n        /* \"#utility.yul\":1798:2044   */\n      pop\n      pop\n      pop\n      jump\t// out\n        /* \"#utility.yul\":2050:2152   */\n    tag_337:\n        /* \"#utility.yul\":2091:2097   */\n      0x00\n        /* \"#utility.yul\":2142:2144   */\n      0x1f\n        /* \"#utility.yul\":2138:2145   */\n      not\n        /* \"#utility.yul\":2133:2135   */\n      0x1f\n        /* \"#utility.yul\":2126:2131   */\n      dup4\n        /* \"#utility.yul\":2122:2136   */\n      add\n        /* \"#utility.yul\":2118:2146   */\n      and\n        /* \"#utility.yul\":2108:2146   */\n      swap1\n      pop\n        /* \"#utility.yul\":2050:2152   */\n      swap2\n      swap1\n      pop\n      jump\t// out\n        /* \"#utility.yul\":2158:2535   */\n    tag_338:\n        /* \"#utility.yul\":2246:2249   */\n      0x00\n        /* \"#utility.yul\":2274:2313   */\n      tag_396\n        /* \"#utility.yul\":2307:2312   */\n      dup3\n        /* \"#utility.yul\":2274:2313   */\n      tag_334\n      jump\t// in\n    tag_396:\n        /* \"#utility.yul\":2329:2400   */\n      tag_397\n        /* \"#utility.yul\":2393:2399   */\n      dup2\n        /* \"#utility.yul\":2388:2391   */\n      dup6\n        /* \"#utility.yul\":2329:2400   */\n      tag_335\n      jump\t// in\n    tag_397:\n        /* \"#utility.yul\":2322:2400   */\n      swap4\n      pop\n        /* \"#utility.yul\":2409:2474   */\n      tag_398\n        /* \"#utility.yul\":2467:2473   */\n      dup2\n        /* \"#utility.yul\":2462:2465   */\n      dup6\n        /* \"#utility.yul\":2455:2459   */\n      0x20\n        /* \"#utility.yul\":2448:2453   */\n      dup7\n        /* \"#utility.yul\":2444:2460   */\n      add\n        /* \"#utility.yul\":2409:2474   */\n      tag_336\n      jump\t// in\n    tag_398:\n        /* \"#utility.yul\":2499:2528   */\n      tag_399\n        /* \"#utility.yul\":2521:2527   */\n      dup2\n        /* \"#utility.yul\":2499:2528   */\n      tag_337\n      jump\t// in\n    tag_399:\n        /* \"#utility.yul\":2494:2497   */\n      dup5\n        /* \"#utility.yul\":2490:2529   */\n      add\n        /* \"#utility.yul\":2483:2529   */\n      swap2\n      pop\n        /* \"#utility.yul\":2250:2535   */\n      pop\n        /* \"#utility.yul\":2158:2535   */\n      swap3\n      swap2\n      pop\n      pop\n      jump\t// out\n        /* \"#utility.yul\":2541:2854   */\n    tag_33:\n        /* \"#utility.yul\":2654:2658   */\n      0x00\n        /* \"#utility.yul\":2692:2694   */\n      0x20\n        /* \"#utility.yul\":2681:2690   */\n      dup3\n        /* \"#utility.yul\":2677:2695   */\n      add\n        /* \"#utility.yul\":2669:2695   */\n      swap1\n      pop\n        /* \"#utility.yul\":2741:2750   */\n      dup2\n        /* \"#utility.yul\":2735:2739   */\n      dup2\n        /* \"#utility.yul\":2731:2751   */\n      sub\n        /* \"#utility.yul\":2727:2728   */\n      0x00\n        /* \"#utility.yul\":2716:2725   */\n      dup4\n        /* \"#utility.yul\":2712:2729   */\n      add\n        /* \"#utility.yul\":2705:2752   */\n      mstore\n        /* \"#utility.yul\":2769:2847   */\n      tag_401\n        /* \"#utility.yul\":2842:2846   */\n      dup2\n        /* \"#utility.yul\":2833:2839   */\n      dup5\n        /* \"#utility.yul\":2769:2847   */\n      tag_338\n      jump\t// in\n    tag_401:\n        /* \"#utility.yul\":2761:2847   */\n      swap1\n      pop\n        /* \"#utility.yul\":2541:2854   */\n      swap3\n      swap2\n      pop\n      pop\n      jump\t// out\n        /* \"#utility.yul\":2860:2937   */\n    tag_339:\n        /* \"#utility.yul\":2897:2904   */\n      0x00\n        /* \"#utility.yul\":2926:2931   */\n      dup2\n        /* \"#utility.yul\":2915:2931   */\n      swap1\n      pop\n        /* \"#utility.yul\":2860:2937   */\n      swap2\n      swap1\n      pop\n      jump\t// out\n        /* \"#utility.yul\":2943:3065   */\n    tag_340:\n        /* \"#utility.yul\":3016:3040   */\n      tag_404\n        /* \"#utility.yul\":3034:3039   */\n      dup2\n        /* \"#utility.yul\":3016:3040   */\n      tag_339\n      jump\t// in\n    tag_404:\n        /* \"#utility.yul\":3009:3014   */\n      dup2\n        /* \"#utility.yul\":3006:3041   */\n      eq\n        /* \"#utility.yul\":2996:3059   */\n      tag_405\n      jumpi\n        /* \"#utility.yul\":3055:3056   */\n      0x00\n        /* \"#utility.yul\":3052:3053   */\n      dup1\n        /* \"#utility.yul\":3045:3057   */\n      revert\n        /* \"#utility.yul\":2996:3059   */\n    tag_405:\n        /* \"#utility.yul\":2943:3065   */\n      pop\n      jump\t// out\n        /* \"#utility.yul\":3071:3210   */\n    tag_341:\n        /* \"#utility.yul\":3117:3122   */\n      0x00\n        /* \"#utility.yul\":3155:3161   */\n      dup2\n        /* \"#utility.yul\":3142:3162   */\n      calldataload\n        /* \"#utility.yul\":3133:3162   */\n      swap1\n      pop\n        /* \"#utility.yul\":3171:3204   */\n      tag_407\n        /* \"#utility.yul\":3198:3203   */\n      dup2\n        /* \"#utility.yul\":3171:3204   */\n      tag_340\n      jump\t// in\n    tag_407:\n        /* \"#utility.yul\":3071:3210   */\n      swap3\n      swap2\n      pop\n      pop\n      jump\t// out\n        /* \"#utility.yul\":3216:3545   */\n    tag_36:\n        /* \"#utility.yul\":3275:3281   */\n      0x00\n        /* \"#utility.yul\":3324:3326   */\n      0x20\n        /* \"#utility.yul\":3312:3321   */\n      dup3\n        /* \"#utility.yul\":3303:3310   */\n      dup5\n        /* \"#utility.yul\":3299:3322   */\n      sub\n        /* \"#utility.yul\":3295:3327   */\n      slt\n        /* \"#utility.yul\":3292:3411   */\n      iszero\n      tag_409\n      jumpi\n        /* \"#utility.yul\":3330:3409   */\n      tag_410\n      tag_327\n      jump\t// in\n    tag_410:\n        /* \"#utility.yul\":3292:3411   */\n    tag_409:\n        /* \"#utility.yul\":3450:3451   */\n      0x00\n        /* \"#utility.yul\":3475:3528   */\n      tag_411\n        /* \"#utility.yul\":3520:3527   */\n      dup5\n        /* \"#utility.yul\":3511:3517   */\n      dup3\n        /* \"#utility.yul\":3500:3509   */\n      dup6\n        /* \"#utility.yul\":3496:3518   */\n      add\n        /* \"#utility.yul\":3475:3528   */\n      tag_341\n      jump\t// in\n    tag_411:\n        /* \"#utility.yul\":3465:3528   */\n      swap2\n      pop\n        /* \"#utility.yul\":3421:3538   */\n      pop\n        /* \"#utility.yul\":3216:3545   */\n      swap3\n      swap2\n      pop\n      pop\n      jump\t// out\n        /* \"#utility.yul\":3551:3677   */\n    tag_342:\n        /* \"#utility.yul\":3588:3595   */\n      0x00\n        /* \"#utility.yul\":3628:3670   */\n      0xffffffffffffffffffffffffffffffffffffffff\n        /* \"#utility.yul\":3621:3626   */\n      dup3\n        /* \"#utility.yul\":3617:3671   */\n      and\n        /* \"#utility.yul\":3606:3671   */\n      swap1\n      pop\n        /* \"#utility.yul\":3551:3677   */\n      swap2\n      swap1\n      pop\n      jump\t// out\n        /* \"#utility.yul\":3683:3779   */\n    tag_343:\n        /* \"#utility.yul\":3720:3727   */\n      0x00\n        /* \"#utility.yul\":3749:3773   */\n      tag_414\n        /* \"#utility.yul\":3767:3772   */\n      dup3\n        /* \"#utility.yul\":3749:3773   */\n      tag_342\n      jump\t// in\n    tag_414:\n        /* \"#utility.yul\":3738:3773   */\n      swap1\n      pop\n        /* \"#utility.yul\":3683:3779   */\n      swap2\n      swap1\n      pop\n      jump\t// out\n        /* \"#utility.yul\":3785:3903   */\n    tag_344:\n        /* \"#utility.yul\":3872:3896   */\n      tag_416\n        /* \"#utility.yul\":3890:3895   */\n      dup2\n        /* \"#utility.yul\":3872:3896   */\n      tag_343\n      jump\t// in\n    tag_416:\n        /* \"#utility.yul\":3867:3870   */\n      dup3\n        /* \"#utility.yul\":3860:3897   */\n      mstore\n        /* \"#utility.yul\":3785:3903   */\n      pop\n      pop\n      jump\t// out\n        /* \"#utility.yul\":3909:4131   */\n    tag_39:\n        /* \"#utility.yul\":4002:4006   */\n      0x00\n        /* \"#utility.yul\":4040:4042   */\n      0x20\n        /* \"#utility.yul\":4029:4038   */\n      dup3\n        /* \"#utility.yul\":4025:4043   */\n      add\n        /* \"#utility.yul\":4017:4043   */\n      swap1\n      pop\n        /* \"#utility.yul\":4053:4124   */\n      tag_418\n        /* \"#utility.yul\":4121:4122   */\n      0x00\n        /* \"#utility.yul\":4110:4119   */\n      dup4\n        /* \"#utility.yul\":4106:4123   */\n      add\n        /* \"#utility.yul\":4097:4103   */\n      dup5\n        /* \"#utility.yul\":4053:4124   */\n      tag_344\n      jump\t// in\n    tag_418:\n        /* \"#utility.yul\":3909:4131   */\n      swap3\n      swap2\n      pop\n      pop\n      jump\t// out\n        /* \"#utility.yul\":4137:4259   */\n    tag_345:\n        /* \"#utility.yul\":4210:4234   */\n      tag_420\n        /* \"#utility.yul\":4228:4233   */\n      dup2\n        /* \"#utility.yul\":4210:4234   */\n      tag_343\n      jump\t// in\n    tag_420:\n        /* \"#utility.yul\":4203:4208   */\n      dup2\n        /* \"#utility.yul\":4200:4235   */\n      eq\n        /* \"#utility.yul\":4190:4253   */\n      tag_421\n      jumpi\n        /* \"#utility.yul\":4249:4250   */\n      0x00\n        /* \"#utility.yul\":4246:4247   */\n      dup1\n        /* \"#utility.yul\":4239:4251   */\n      revert\n        /* \"#utility.yul\":4190:4253   */\n    tag_421:\n        /* \"#utility.yul\":4137:4259   */\n      pop\n      jump\t// out\n        /* \"#utility.yul\":4265:4404   */\n    tag_346:\n        /* \"#utility.yul\":4311:4316   */\n      0x00\n        /* \"#utility.yul\":4349:4355   */\n      dup2\n        /* \"#utility.yul\":4336:4356   */\n      calldataload\n        /* \"#utility.yul\":4327:4356   */\n      swap1\n      pop\n        /* \"#utility.yul\":4365:4398   */\n      tag_423\n        /* \"#utility.yul\":4392:4397   */\n      dup2\n        /* \"#utility.yul\":4365:4398   */\n      tag_345\n      jump\t// in\n    tag_423:\n        /* \"#utility.yul\":4265:4404   */\n      swap3\n      swap2\n      pop\n      pop\n      jump\t// out\n        /* \"#utility.yul\":4410:4884   */\n    tag_42:\n        /* \"#utility.yul\":4478:4484   */\n      0x00\n        /* \"#utility.yul\":4486:4492   */\n      dup1\n        /* \"#utility.yul\":4535:4537   */\n      0x40\n        /* \"#utility.yul\":4523:4532   */\n      dup4\n        /* \"#utility.yul\":4514:4521   */\n      dup6\n        /* \"#utility.yul\":4510:4533   */\n      sub\n        /* \"#utility.yul\":4506:4538   */\n      slt\n        /* \"#utility.yul\":4503:4622   */\n      iszero\n      tag_425\n      jumpi\n        /* \"#utility.yul\":4541:4620   */\n      tag_426\n      tag_327\n      jump\t// in\n    tag_426:\n        /* \"#utility.yul\":4503:4622   */\n    tag_425:\n        /* \"#utility.yul\":4661:4662   */\n      0x00\n        /* \"#utility.yul\":4686:4739   */\n      tag_427\n        /* \"#utility.yul\":4731:4738   */\n      dup6\n        /* \"#utility.yul\":4722:4728   */\n      dup3\n        /* \"#utility.yul\":4711:4720   */\n      dup7\n        /* \"#utility.yul\":4707:4729   */\n      add\n        /* \"#utility.yul\":4686:4739   */\n      tag_346\n      jump\t// in\n    tag_427:\n        /* \"#utility.yul\":4676:4739   */\n      swap3\n      pop\n        /* \"#utility.yul\":4632:4749   */\n      pop\n        /* \"#utility.yul\":4788:4790   */\n      0x20\n        /* \"#utility.yul\":4814:4867   */\n      tag_428\n        /* \"#utility.yul\":4859:4866   */\n      dup6\n        /* \"#utility.yul\":4850:4856   */\n      dup3\n        /* \"#utility.yul\":4839:4848   */\n      dup7\n        /* \"#utility.yul\":4835:4857   */\n      add\n        /* \"#utility.yul\":4814:4867   */\n      tag_341\n      jump\t// in\n    tag_428:\n        /* \"#utility.yul\":4804:4867   */\n      swap2\n      pop\n        /* \"#utility.yul\":4759:4877   */\n      pop\n        /* \"#utility.yul\":4410:4884   */\n      swap3\n      pop\n      swap3\n      swap1\n      pop\n      jump\t// out\n        /* \"#utility.yul\":4890:5008   */\n    tag_347:\n        /* \"#utility.yul\":4977:5001   */\n      tag_430\n        /* \"#utility.yul\":4995:5000   */\n      dup2\n        /* \"#utility.yul\":4977:5001   */\n      tag_339\n      jump\t// in\n    tag_430:\n        /* \"#utility.yul\":4972:4975   */\n      dup3\n        /* \"#utility.yul\":4965:5002   */\n      mstore\n        /* \"#utility.yul\":4890:5008   */\n      pop\n      pop\n      jump\t// out\n        /* \"#utility.yul\":5014:5236   */\n    tag_47:\n        /* \"#utility.yul\":5107:5111   */\n      0x00\n        /* \"#utility.yul\":5145:5147   */\n      0x20\n        /* \"#utility.yul\":5134:5143   */\n      dup3\n        /* \"#utility.yul\":5130:5148   */\n      add\n        /* \"#utility.yul\":5122:5148   */\n      swap1\n      pop\n        /* \"#utility.yul\":5158:5229   */\n      tag_432\n        /* \"#utility.yul\":5226:5227   */\n      0x00\n        /* \"#utility.yul\":5215:5224   */\n      dup4\n        /* \"#utility.yul\":5211:5228   */\n      add\n        /* \"#utility.yul\":5202:5208   */\n      dup5\n        /* \"#utility.yul\":5158:5229   */\n      tag_347\n      jump\t// in\n    tag_432:\n        /* \"#utility.yul\":5014:5236   */\n      swap3\n      swap2\n      pop\n      pop\n      jump\t// out\n        /* \"#utility.yul\":5242:5861   */\n    tag_50:\n        /* \"#utility.yul\":5319:5325   */\n      0x00\n        /* \"#utility.yul\":5327:5333   */\n      dup1\n        /* \"#utility.yul\":5335:5341   */\n      0x00\n        /* \"#utility.yul\":5384:5386   */\n      0x60\n        /* \"#utility.yul\":5372:5381   */\n      dup5\n        /* \"#utility.yul\":5363:5370   */\n      dup7\n        /* \"#utility.yul\":5359:5382   */\n      sub\n        /* \"#utility.yul\":5355:5387   */\n      slt\n        /* \"#utility.yul\":5352:5471   */\n      iszero\n      tag_434\n      jumpi\n        /* \"#utility.yul\":5390:5469   */\n      tag_435\n      tag_327\n      jump\t// in\n    tag_435:\n        /* \"#utility.yul\":5352:5471   */\n    tag_434:\n        /* \"#utility.yul\":5510:5511   */\n      0x00\n        /* \"#utility.yul\":5535:5588   */\n      tag_436\n        /* \"#utility.yul\":5580:5587   */\n      dup7\n        /* \"#utility.yul\":5571:5577   */\n      dup3\n        /* \"#utility.yul\":5560:5569   */\n      dup8\n        /* \"#utility.yul\":5556:5578   */\n      add\n        /* \"#utility.yul\":5535:5588   */\n      tag_346\n      jump\t// in\n    tag_436:\n        /* \"#utility.yul\":5525:5588   */\n      swap4\n      pop\n        /* \"#utility.yul\":5481:5598   */\n      pop\n        /* \"#utility.yul\":5637:5639   */\n      0x20\n        /* \"#utility.yul\":5663:5716   */\n      tag_437\n        /* \"#utility.yul\":5708:5715   */\n      dup7\n        /* \"#utility.yul\":5699:5705   */\n      dup3\n        /* \"#utility.yul\":5688:5697   */\n      dup8\n        /* \"#utility.yul\":5684:5706   */\n      add\n        /* \"#utility.yul\":5663:5716   */\n      tag_346\n      jump\t// in\n    tag_437:\n        /* \"#utility.yul\":5653:5716   */\n      swap3\n      pop\n        /* \"#utility.yul\":5608:5726   */\n      pop\n        /* \"#utility.yul\":5765:5767   */\n      0x40\n        /* \"#utility.yul\":5791:5844   */\n      tag_438\n        /* \"#utility.yul\":5836:5843   */\n      dup7\n        /* \"#utility.yul\":5827:5833   */\n      dup3\n        /* \"#utility.yul\":5816:5825   */\n      dup8\n        /* \"#utility.yul\":5812:5834   */\n      add\n        /* \"#utility.yul\":5791:5844   */\n      tag_341\n      jump\t// in\n    tag_438:\n        /* \"#utility.yul\":5781:5844   */\n      swap2\n      pop\n        /* \"#utility.yul\":5736:5854   */\n      pop\n        /* \"#utility.yul\":5242:5861   */\n      swap3\n      pop\n      swap3\n      pop\n      swap3\n      jump\t// out\n        /* \"#utility.yul\":5867:6196   */\n    tag_58:\n        /* \"#utility.yul\":5926:5932   */\n      0x00\n        /* \"#utility.yul\":5975:5977   */\n      0x20\n        /* \"#utility.yul\":5963:5972   */\n      dup3\n        /* \"#utility.yul\":5954:5961   */\n      dup5\n        /* \"#utility.yul\":5950:5973   */\n      sub\n        /* \"#utility.yul\":5946:5978   */\n      slt\n        /* \"#utility.yul\":5943:6062   */\n      iszero\n      tag_440\n      jumpi\n        /* \"#utility.yul\":5981:6060   */\n      tag_441\n      tag_327\n      jump\t// in\n    tag_441:\n        /* \"#utility.yul\":5943:6062   */\n    tag_440:\n        /* \"#utility.yul\":6101:6102   */\n      0x00\n        /* \"#utility.yul\":6126:6179   */\n      tag_442\n        /* \"#utility.yul\":6171:6178   */\n      dup5\n        /* \"#utility.yul\":6162:6168   */\n      dup3\n        /* \"#utility.yul\":6151:6160   */\n      dup6\n        /* \"#utility.yul\":6147:6169   */\n      add\n        /* \"#utility.yul\":6126:6179   */\n      tag_346\n      jump\t// in\n    tag_442:\n        /* \"#utility.yul\":6116:6179   */\n      swap2\n      pop\n        /* \"#utility.yul\":6072:6189   */\n      pop\n        /* \"#utility.yul\":5867:6196   */\n      swap3\n      swap2\n      pop\n      pop\n      jump\t// out\n        /* \"#utility.yul\":6202:6318   */\n    tag_348:\n        /* \"#utility.yul\":6272:6293   */\n      tag_444\n        /* \"#utility.yul\":6287:6292   */\n      dup2\n        /* \"#utility.yul\":6272:6293   */\n      tag_332\n      jump\t// in\n    tag_444:\n        /* \"#utility.yul\":6265:6270   */\n      dup2\n        /* \"#utility.yul\":6262:6294   */\n      eq\n        /* \"#utility.yul\":6252:6312   */\n      tag_445\n      jumpi\n        /* \"#utility.yul\":6308:6309   */\n      0x00\n        /* \"#utility.yul\":6305:6306   */\n      dup1\n        /* \"#utility.yul\":6298:6310   */\n      revert\n        /* \"#utility.yul\":6252:6312   */\n    tag_445:\n        /* \"#utility.yul\":6202:6318   */\n      pop\n      jump\t// out\n        /* \"#utility.yul\":6324:6457   */\n    tag_349:\n        /* \"#utility.yul\":6367:6372   */\n      0x00\n        /* \"#utility.yul\":6405:6411   */\n      dup2\n        /* \"#utility.yul\":6392:6412   */\n      calldataload\n        /* \"#utility.yul\":6383:6412   */\n      swap1\n      pop\n        /* \"#utility.yul\":6421:6451   */\n      tag_447\n        /* \"#utility.yul\":6445:6450   */\n      dup2\n        /* \"#utility.yul\":6421:6451   */\n      tag_348\n      jump\t// in\n    tag_447:\n        /* \"#utility.yul\":6324:6457   */\n      swap3\n      swap2\n      pop\n      pop\n      jump\t// out\n        /* \"#utility.yul\":6463:6931   */\n    tag_74:\n        /* \"#utility.yul\":6528:6534   */\n      0x00\n        /* \"#utility.yul\":6536:6542   */\n      dup1\n        /* \"#utility.yul\":6585:6587   */\n      0x40\n        /* \"#utility.yul\":6573:6582   */\n      dup4\n        /* \"#utility.yul\":6564:6571   */\n      dup6\n        /* \"#utility.yul\":6560:6583   */\n      sub\n        /* \"#utility.yul\":6556:6588   */\n      slt\n        /* \"#utility.yul\":6553:6672   */\n      iszero\n      tag_449\n      jumpi\n        /* \"#utility.yul\":6591:6670   */\n      tag_450\n      tag_327\n      jump\t// in\n    tag_450:\n        /* \"#utility.yul\":6553:6672   */\n    tag_449:\n        /* \"#utility.yul\":6711:6712   */\n      0x00\n        /* \"#utility.yul\":6736:6789   */\n      tag_451\n        /* \"#utility.yul\":6781:6788   */\n      dup6\n        /* \"#utility.yul\":6772:6778   */\n      dup3\n        /* \"#utility.yul\":6761:6770   */\n      dup7\n        /* \"#utility.yul\":6757:6779   */\n      add\n        /* \"#utility.yul\":6736:6789   */\n      tag_346\n      jump\t// in\n    tag_451:\n        /* \"#utility.yul\":6726:6789   */\n      swap3\n      pop\n        /* \"#utility.yul\":6682:6799   */\n      pop\n        /* \"#utility.yul\":6838:6840   */\n      0x20\n        /* \"#utility.yul\":6864:6914   */\n      tag_452\n        /* \"#utility.yul\":6906:6913   */\n      dup6\n        /* \"#utility.yul\":6897:6903   */\n      dup3\n        /* \"#utility.yul\":6886:6895   */\n      dup7\n        /* \"#utility.yul\":6882:6904   */\n      add\n        /* \"#utility.yul\":6864:6914   */\n      tag_349\n      jump\t// in\n    tag_452:\n        /* \"#utility.yul\":6854:6914   */\n      swap2\n      pop\n        /* \"#utility.yul\":6809:6924   */\n      pop\n        /* \"#utility.yul\":6463:6931   */\n      swap3\n      pop\n      swap3\n      swap1\n      pop\n      jump\t// out\n        /* \"#utility.yul\":6937:7054   */\n    tag_350:\n        /* \"#utility.yul\":7046:7047   */\n      0x00\n        /* \"#utility.yul\":7043:7044   */\n      dup1\n        /* \"#utility.yul\":7036:7048   */\n      revert\n        /* \"#utility.yul\":7060:7177   */\n    tag_351:\n        /* \"#utility.yul\":7169:7170   */\n      0x00\n        /* \"#utility.yul\":7166:7167   */\n      dup1\n        /* \"#utility.yul\":7159:7171   */\n      revert\n        /* \"#utility.yul\":7183:7363   */\n    tag_283:\n        /* \"#utility.yul\":7231:7308   */\n      0x4e487b7100000000000000000000000000000000000000000000000000000000\n        /* \"#utility.yul\":7228:7229   */\n      0x00\n        /* \"#utility.yul\":7221:7309   */\n      mstore\n        /* \"#utility.yul\":7328:7332   */\n      0x41\n        /* \"#utility.yul\":7325:7326   */\n      0x04\n        /* \"#utility.yul\":7318:7333   */\n      mstore\n        /* \"#utility.yul\":7352:7356   */\n      0x24\n        /* \"#utility.yul\":7349:7350   */\n      0x00\n        /* \"#utility.yul\":7342:7357   */\n      revert\n        /* \"#utility.yul\":7369:7650   */\n    tag_352:\n        /* \"#utility.yul\":7452:7479   */\n      tag_457\n        /* \"#utility.yul\":7474:7478   */\n      dup3\n        /* \"#utility.yul\":7452:7479   */\n      tag_337\n      jump\t// in\n    tag_457:\n        /* \"#utility.yul\":7444:7450   */\n      dup2\n        /* \"#utility.yul\":7440:7480   */\n      add\n        /* \"#utility.yul\":7582:7588   */\n      dup2\n        /* \"#utility.yul\":7570:7580   */\n      dup2\n        /* \"#utility.yul\":7567:7589   */\n      lt\n        /* \"#utility.yul\":7546:7564   */\n      0xffffffffffffffff\n        /* \"#utility.yul\":7534:7544   */\n      dup3\n        /* \"#utility.yul\":7531:7565   */\n      gt\n        /* \"#utility.yul\":7528:7590   */\n      or\n        /* \"#utility.yul\":7525:7613   */\n      iszero\n      tag_458\n      jumpi\n        /* \"#utility.yul\":7593:7611   */\n      tag_459\n      tag_283\n      jump\t// in\n    tag_459:\n        /* \"#utility.yul\":7525:7613   */\n    tag_458:\n        /* \"#utility.yul\":7633:7643   */\n      dup1\n        /* \"#utility.yul\":7629:7631   */\n      0x40\n        /* \"#utility.yul\":7622:7644   */\n      mstore\n        /* \"#utility.yul\":7412:7650   */\n      pop\n        /* \"#utility.yul\":7369:7650   */\n      pop\n      pop\n      jump\t// out\n        /* \"#utility.yul\":7656:7785   */\n    tag_353:\n        /* \"#utility.yul\":7690:7696   */\n      0x00\n        /* \"#utility.yul\":7717:7737   */\n      tag_461\n      tag_326\n      jump\t// in\n    tag_461:\n        /* \"#utility.yul\":7707:7737   */\n      swap1\n      pop\n        /* \"#utility.yul\":7746:7779   */\n      tag_462\n        /* \"#utility.yul\":7774:7778   */\n      dup3\n        /* \"#utility.yul\":7766:7772   */\n      dup3\n        /* \"#utility.yul\":7746:7779   */\n      tag_352\n      jump\t// in\n    tag_462:\n        /* \"#utility.yul\":7656:7785   */\n      swap2\n      swap1\n      pop\n      jump\t// out\n        /* \"#utility.yul\":7791:8098   */\n    tag_354:\n        /* \"#utility.yul\":7852:7856   */\n      0x00\n        /* \"#utility.yul\":7942:7960   */\n      0xffffffffffffffff\n        /* \"#utility.yul\":7934:7940   */\n      dup3\n        /* \"#utility.yul\":7931:7961   */\n      gt\n        /* \"#utility.yul\":7928:7984   */\n      iszero\n      tag_464\n      jumpi\n        /* \"#utility.yul\":7964:7982   */\n      tag_465\n      tag_283\n      jump\t// in\n    tag_465:\n        /* \"#utility.yul\":7928:7984   */\n    tag_464:\n        /* \"#utility.yul\":8002:8031   */\n      tag_466\n        /* \"#utility.yul\":8024:8030   */\n      dup3\n        /* \"#utility.yul\":8002:8031   */\n      tag_337\n      jump\t// in\n    tag_466:\n        /* \"#utility.yul\":7994:8031   */\n      swap1\n      pop\n        /* \"#utility.yul\":8086:8090   */\n      0x20\n        /* \"#utility.yul\":8080:8084   */\n      dup2\n        /* \"#utility.yul\":8076:8091   */\n      add\n        /* \"#utility.yul\":8068:8091   */\n      swap1\n      pop\n        /* \"#utility.yul\":7791:8098   */\n      swap2\n      swap1\n      pop\n      jump\t// out\n        /* \"#utility.yul\":8104:8250   */\n    tag_355:\n        /* \"#utility.yul\":8201:8207   */\n      dup3\n        /* \"#utility.yul\":8196:8199   */\n      dup2\n        /* \"#utility.yul\":8191:8194   */\n      dup4\n        /* \"#utility.yul\":8178:8208   */\n      calldatacopy\n        /* \"#utility.yul\":8242:8243   */\n      0x00\n        /* \"#utility.yul\":8233:8239   */\n      dup4\n        /* \"#utility.yul\":8228:8231   */\n      dup4\n        /* \"#utility.yul\":8224:8240   */\n      add\n        /* \"#utility.yul\":8217:8244   */\n      mstore\n        /* \"#utility.yul\":8104:8250   */\n      pop\n      pop\n      pop\n      jump\t// out\n        /* \"#utility.yul\":8256:8679   */\n    tag_356:\n        /* \"#utility.yul\":8333:8338   */\n      0x00\n        /* \"#utility.yul\":8358:8423   */\n      tag_469\n        /* \"#utility.yul\":8374:8422   */\n      tag_470\n        /* \"#utility.yul\":8415:8421   */\n      dup5\n        /* \"#utility.yul\":8374:8422   */\n      tag_354\n      jump\t// in\n    tag_470:\n        /* \"#utility.yul\":8358:8423   */\n      tag_353\n      jump\t// in\n    tag_469:\n        /* \"#utility.yul\":8349:8423   */\n      swap1\n      pop\n        /* \"#utility.yul\":8446:8452   */\n      dup3\n        /* \"#utility.yul\":8439:8444   */\n      dup2\n        /* \"#utility.yul\":8432:8453   */\n      mstore\n        /* \"#utility.yul\":8484:8488   */\n      0x20\n        /* \"#utility.yul\":8477:8482   */\n      dup2\n        /* \"#utility.yul\":8473:8489   */\n      add\n        /* \"#utility.yul\":8522:8525   */\n      dup5\n        /* \"#utility.yul\":8513:8519   */\n      dup5\n        /* \"#utility.yul\":8508:8511   */\n      dup5\n        /* \"#utility.yul\":8504:8520   */\n      add\n        /* \"#utility.yul\":8501:8526   */\n      gt\n        /* \"#utility.yul\":8498:8610   */\n      iszero\n      tag_471\n      jumpi\n        /* \"#utility.yul\":8529:8608   */\n      tag_472\n      tag_351\n      jump\t// in\n    tag_472:\n        /* \"#utility.yul\":8498:8610   */\n    tag_471:\n        /* \"#utility.yul\":8619:8673   */\n      tag_473\n        /* \"#utility.yul\":8666:8672   */\n      dup5\n        /* \"#utility.yul\":8661:8664   */\n      dup3\n        /* \"#utility.yul\":8656:8659   */\n      dup6\n        /* \"#utility.yul\":8619:8673   */\n      tag_355\n      jump\t// in\n    tag_473:\n        /* \"#utility.yul\":8339:8679   */\n      pop\n        /* \"#utility.yul\":8256:8679   */\n      swap4\n      swap3\n      pop\n      pop\n      pop\n      jump\t// out\n        /* \"#utility.yul\":8698:9036   */\n    tag_357:\n        /* \"#utility.yul\":8753:8758   */\n      0x00\n        /* \"#utility.yul\":8802:8805   */\n      dup3\n        /* \"#utility.yul\":8795:8799   */\n      0x1f\n        /* \"#utility.yul\":8787:8793   */\n      dup4\n        /* \"#utility.yul\":8783:8800   */\n      add\n        /* \"#utility.yul\":8779:8806   */\n      slt\n        /* \"#utility.yul\":8769:8891   */\n      tag_475\n      jumpi\n        /* \"#utility.yul\":8810:8889   */\n      tag_476\n      tag_350\n      jump\t// in\n    tag_476:\n        /* \"#utility.yul\":8769:8891   */\n    tag_475:\n        /* \"#utility.yul\":8927:8933   */\n      dup2\n        /* \"#utility.yul\":8914:8934   */\n      calldataload\n        /* \"#utility.yul\":8952:9030   */\n      tag_477\n        /* \"#utility.yul\":9026:9029   */\n      dup5\n        /* \"#utility.yul\":9018:9024   */\n      dup3\n        /* \"#utility.yul\":9011:9015   */\n      0x20\n        /* \"#utility.yul\":9003:9009   */\n      dup7\n        /* \"#utility.yul\":8999:9016   */\n      add\n        /* \"#utility.yul\":8952:9030   */\n      tag_356\n      jump\t// in\n    tag_477:\n        /* \"#utility.yul\":8943:9030   */\n      swap2\n      pop\n        /* \"#utility.yul\":8759:9036   */\n      pop\n        /* \"#utility.yul\":8698:9036   */\n      swap3\n      swap2\n      pop\n      pop\n      jump\t// out\n        /* \"#utility.yul\":9042:9985   */\n    tag_78:\n        /* \"#utility.yul\":9137:9143   */\n      0x00\n        /* \"#utility.yul\":9145:9151   */\n      dup1\n        /* \"#utility.yul\":9153:9159   */\n      0x00\n        /* \"#utility.yul\":9161:9167   */\n      dup1\n        /* \"#utility.yul\":9210:9213   */\n      0x80\n        /* \"#utility.yul\":9198:9207   */\n      dup6\n        /* \"#utility.yul\":9189:9196   */\n      dup8\n        /* \"#utility.yul\":9185:9208   */\n      sub\n        /* \"#utility.yul\":9181:9214   */\n      slt\n        /* \"#utility.yul\":9178:9298   */\n      iszero\n      tag_479\n      jumpi\n        /* \"#utility.yul\":9217:9296   */\n      tag_480\n      tag_327\n      jump\t// in\n    tag_480:\n        /* \"#utility.yul\":9178:9298   */\n    tag_479:\n        /* \"#utility.yul\":9337:9338   */\n      0x00\n        /* \"#utility.yul\":9362:9415   */\n      tag_481\n        /* \"#utility.yul\":9407:9414   */\n      dup8\n        /* \"#utility.yul\":9398:9404   */\n      dup3\n        /* \"#utility.yul\":9387:9396   */\n      dup9\n        /* \"#utility.yul\":9383:9405   */\n      add\n        /* \"#utility.yul\":9362:9415   */\n      tag_346\n      jump\t// in\n    tag_481:\n        /* \"#utility.yul\":9352:9415   */\n      swap5\n      pop\n        /* \"#utility.yul\":9308:9425   */\n      pop\n        /* \"#utility.yul\":9464:9466   */\n      0x20\n        /* \"#utility.yul\":9490:9543   */\n      tag_482\n        /* \"#utility.yul\":9535:9542   */\n      dup8\n        /* \"#utility.yul\":9526:9532   */\n      dup3\n        /* \"#utility.yul\":9515:9524   */\n      dup9\n        /* \"#utility.yul\":9511:9533   */\n      add\n        /* \"#utility.yul\":9490:9543   */\n      tag_346\n      jump\t// in\n    tag_482:\n        /* \"#utility.yul\":9480:9543   */\n      swap4\n      pop\n        /* \"#utility.yul\":9435:9553   */\n      pop\n        /* \"#utility.yul\":9592:9594   */\n      0x40\n        /* \"#utility.yul\":9618:9671   */\n      tag_483\n        /* \"#utility.yul\":9663:9670   */\n      dup8\n        /* \"#utility.yul\":9654:9660   */\n      dup3\n        /* \"#utility.yul\":9643:9652   */\n      dup9\n        /* \"#utility.yul\":9639:9661   */\n      add\n        /* \"#utility.yul\":9618:9671   */\n      tag_341\n      jump\t// in\n    tag_483:\n        /* \"#utility.yul\":9608:9671   */\n      swap3\n      pop\n        /* \"#utility.yul\":9563:9681   */\n      pop\n        /* \"#utility.yul\":9748:9750   */\n      0x60\n        /* \"#utility.yul\":9737:9746   */\n      dup6\n        /* \"#utility.yul\":9733:9751   */\n      add\n        /* \"#utility.yul\":9720:9752   */\n      calldataload\n        /* \"#utility.yul\":9779:9797   */\n      0xffffffffffffffff\n        /* \"#utility.yul\":9771:9777   */\n      dup2\n        /* \"#utility.yul\":9768:9798   */\n      gt\n        /* \"#utility.yul\":9765:9882   */\n      iszero\n      tag_484\n      jumpi\n        /* \"#utility.yul\":9801:9880   */\n      tag_485\n      tag_328\n      jump\t// in\n    tag_485:\n        /* \"#utility.yul\":9765:9882   */\n    tag_484:\n        /* \"#utility.yul\":9906:9968   */\n      tag_486\n        /* \"#utility.yul\":9960:9967   */\n      dup8\n        /* \"#utility.yul\":9951:9957   */\n      dup3\n        /* \"#utility.yul\":9940:9949   */\n      dup9\n        /* \"#utility.yul\":9936:9958   */\n      add\n        /* \"#utility.yul\":9906:9968   */\n      tag_357\n      jump\t// in\n    tag_486:\n        /* \"#utility.yul\":9896:9968   */\n      swap2\n      pop\n        /* \"#utility.yul\":9691:9978   */\n      pop\n        /* \"#utility.yul\":9042:9985   */\n      swap3\n      swap6\n      swap2\n      swap5\n      pop\n      swap3\n      pop\n      jump\t// out\n        /* \"#utility.yul\":9991:10465   */\n    tag_89:\n        /* \"#utility.yul\":10059:10065   */\n      0x00\n        /* \"#utility.yul\":10067:10073   */\n      dup1\n        /* \"#utility.yul\":10116:10118   */\n      0x40\n        /* \"#utility.yul\":10104:10113   */\n      dup4\n        /* \"#utility.yul\":10095:10102   */\n      dup6\n        /* \"#utility.yul\":10091:10114   */\n      sub\n        /* \"#utility.yul\":10087:10119   */\n      slt\n        /* \"#utility.yul\":10084:10203   */\n      iszero\n      tag_488\n      jumpi\n        /* \"#utility.yul\":10122:10201   */\n      tag_489\n      tag_327\n      jump\t// in\n    tag_489:\n        /* \"#utility.yul\":10084:10203   */\n    tag_488:\n        /* \"#utility.yul\":10242:10243   */\n      0x00\n        /* \"#utility.yul\":10267:10320   */\n      tag_490\n        /* \"#utility.yul\":10312:10319   */\n      dup6\n        /* \"#utility.yul\":10303:10309   */\n      dup3\n        /* \"#utility.yul\":10292:10301   */\n      dup7\n        /* \"#utility.yul\":10288:10310   */\n      add\n        /* \"#utility.yul\":10267:10320   */\n      tag_346\n      jump\t// in\n    tag_490:\n        /* \"#utility.yul\":10257:10320   */\n      swap3\n      pop\n        /* \"#utility.yul\":10213:10330   */\n      pop\n        /* \"#utility.yul\":10369:10371   */\n      0x20\n        /* \"#utility.yul\":10395:10448   */\n      tag_491\n        /* \"#utility.yul\":10440:10447   */\n      dup6\n        /* \"#utility.yul\":10431:10437   */\n      dup3\n        /* \"#utility.yul\":10420:10429   */\n      dup7\n        /* \"#utility.yul\":10416:10438   */\n      add\n        /* \"#utility.yul\":10395:10448   */\n      tag_346\n      jump\t// in\n    tag_491:\n        /* \"#utility.yul\":10385:10448   */\n      swap2\n      pop\n        /* \"#utility.yul\":10340:10458   */\n      pop\n        /* \"#utility.yul\":9991:10465   */\n      swap3\n      pop\n      swap3\n      swap1\n      pop\n      jump\t// out\n        /* \"#utility.yul\":10471:10651   */\n    tag_358:\n        /* \"#utility.yul\":10519:10596   */\n      0x4e487b7100000000000000000000000000000000000000000000000000000000\n        /* \"#utility.yul\":10516:10517   */\n      0x00\n        /* \"#utility.yul\":10509:10597   */\n      mstore\n        /* \"#utility.yul\":10616:10620   */\n      0x22\n        /* \"#utility.yul\":10613:10614   */\n      0x04\n        /* \"#utility.yul\":10606:10621   */\n      mstore\n        /* \"#utility.yul\":10640:10644   */\n      0x24\n        /* \"#utility.yul\":10637:10638   */\n      0x00\n        /* \"#utility.yul\":10630:10645   */\n      revert\n        /* \"#utility.yul\":10657:10977   */\n    tag_100:\n        /* \"#utility.yul\":10701:10707   */\n      0x00\n        /* \"#utility.yul\":10738:10739   */\n      0x02\n        /* \"#utility.yul\":10732:10736   */\n      dup3\n        /* \"#utility.yul\":10728:10740   */\n      div\n        /* \"#utility.yul\":10718:10740   */\n      swap1\n      pop\n        /* \"#utility.yul\":10785:10786   */\n      0x01\n        /* \"#utility.yul\":10779:10783   */\n      dup3\n        /* \"#utility.yul\":10775:10787   */\n      and\n        /* \"#utility.yul\":10806:10824   */\n      dup1\n        /* \"#utility.yul\":10796:10877   */\n      tag_494\n      jumpi\n        /* \"#utility.yul\":10862:10866   */\n      0x7f\n        /* \"#utility.yul\":10854:10860   */\n      dup3\n        /* \"#utility.yul\":10850:10867   */\n      and\n        /* \"#utility.yul\":10840:10867   */\n      swap2\n      pop\n        /* \"#utility.yul\":10796:10877   */\n    tag_494:\n        /* \"#utility.yul\":10924:10926   */\n      0x20\n        /* \"#utility.yul\":10916:10922   */\n      dup3\n        /* \"#utility.yul\":10913:10927   */\n      lt\n        /* \"#utility.yul\":10893:10911   */\n      dup2\n        /* \"#utility.yul\":10890:10928   */\n      sub\n        /* \"#utility.yul\":10887:10971   */\n      tag_495\n      jumpi\n        /* \"#utility.yul\":10943:10961   */\n      tag_496\n      tag_358\n      jump\t// in\n    tag_496:\n        /* \"#utility.yul\":10887:10971   */\n    tag_495:\n        /* \"#utility.yul\":10708:10977   */\n      pop\n        /* \"#utility.yul\":10657:10977   */\n      swap2\n      swap1\n      pop\n      jump\t// out\n        /* \"#utility.yul\":10983:11131   */\n    tag_359:\n        /* \"#utility.yul\":11085:11096   */\n      0x00\n        /* \"#utility.yul\":11122:11125   */\n      dup2\n        /* \"#utility.yul\":11107:11125   */\n      swap1\n      pop\n        /* \"#utility.yul\":10983:11131   */\n      swap3\n      swap2\n      pop\n      pop\n      jump\t// out\n        /* \"#utility.yul\":11137:11527   */\n    tag_360:\n        /* \"#utility.yul\":11243:11246   */\n      0x00\n        /* \"#utility.yul\":11271:11310   */\n      tag_499\n        /* \"#utility.yul\":11304:11309   */\n      dup3\n        /* \"#utility.yul\":11271:11310   */\n      tag_334\n      jump\t// in\n    tag_499:\n        /* \"#utility.yul\":11326:11415   */\n      tag_500\n        /* \"#utility.yul\":11408:11414   */\n      dup2\n        /* \"#utility.yul\":11403:11406   */\n      dup6\n        /* \"#utility.yul\":11326:11415   */\n      tag_359\n      jump\t// in\n    tag_500:\n        /* \"#utility.yul\":11319:11415   */\n      swap4\n      pop\n        /* \"#utility.yul\":11424:11489   */\n      tag_501\n        /* \"#utility.yul\":11482:11488   */\n      dup2\n        /* \"#utility.yul\":11477:11480   */\n      dup6\n        /* \"#utility.yul\":11470:11474   */\n      0x20\n        /* \"#utility.yul\":11463:11468   */\n      dup7\n        /* \"#utility.yul\":11459:11475   */\n      add\n        /* \"#utility.yul\":11424:11489   */\n      tag_336\n      jump\t// in\n    tag_501:\n        /* \"#utility.yul\":11514:11520   */\n      dup1\n        /* \"#utility.yul\":11509:11512   */\n      dup5\n        /* \"#utility.yul\":11505:11521   */\n      add\n        /* \"#utility.yul\":11498:11521   */\n      swap2\n      pop\n        /* \"#utility.yul\":11247:11527   */\n      pop\n        /* \"#utility.yul\":11137:11527   */\n      swap3\n      swap2\n      pop\n      pop\n      jump\t// out\n        /* \"#utility.yul\":11533:11688   */\n    tag_361:\n        /* \"#utility.yul\":11673:11680   */\n      0x2e6a736f6e000000000000000000000000000000000000000000000000000000\n        /* \"#utility.yul\":11669:11670   */\n      0x00\n        /* \"#utility.yul\":11661:11667   */\n      dup3\n        /* \"#utility.yul\":11657:11671   */\n      add\n        /* \"#utility.yul\":11650:11681   */\n      mstore\n        /* \"#utility.yul\":11533:11688   */\n      pop\n      jump\t// out\n        /* \"#utility.yul\":11694:12094   */\n    tag_362:\n        /* \"#utility.yul\":11854:11857   */\n      0x00\n        /* \"#utility.yul\":11875:11959   */\n      tag_504\n        /* \"#utility.yul\":11957:11958   */\n      0x05\n        /* \"#utility.yul\":11952:11955   */\n      dup4\n        /* \"#utility.yul\":11875:11959   */\n      tag_359\n      jump\t// in\n    tag_504:\n        /* \"#utility.yul\":11868:11959   */\n      swap2\n      pop\n        /* \"#utility.yul\":11968:12061   */\n      tag_505\n        /* \"#utility.yul\":12057:12060   */\n      dup3\n        /* \"#utility.yul\":11968:12061   */\n      tag_361\n      jump\t// in\n    tag_505:\n        /* \"#utility.yul\":12086:12087   */\n      0x05\n        /* \"#utility.yul\":12081:12084   */\n      dup3\n        /* \"#utility.yul\":12077:12088   */\n      add\n        /* \"#utility.yul\":12070:12088   */\n      swap1\n      pop\n        /* \"#utility.yul\":11694:12094   */\n      swap2\n      swap1\n      pop\n      jump\t// out\n        /* \"#utility.yul\":12100:12801   */\n    tag_193:\n        /* \"#utility.yul\":12381:12384   */\n      0x00\n        /* \"#utility.yul\":12403:12498   */\n      tag_507\n        /* \"#utility.yul\":12494:12497   */\n      dup3\n        /* \"#utility.yul\":12485:12491   */\n      dup6\n        /* \"#utility.yul\":12403:12498   */\n      tag_360\n      jump\t// in\n    tag_507:\n        /* \"#utility.yul\":12396:12498   */\n      swap2\n      pop\n        /* \"#utility.yul\":12515:12610   */\n      tag_508\n        /* \"#utility.yul\":12606:12609   */\n      dup3\n        /* \"#utility.yul\":12597:12603   */\n      dup5\n        /* \"#utility.yul\":12515:12610   */\n      tag_360\n      jump\t// in\n    tag_508:\n        /* \"#utility.yul\":12508:12610   */\n      swap2\n      pop\n        /* \"#utility.yul\":12627:12775   */\n      tag_509\n        /* \"#utility.yul\":12771:12774   */\n      dup3\n        /* \"#utility.yul\":12627:12775   */\n      tag_362\n      jump\t// in\n    tag_509:\n        /* \"#utility.yul\":12620:12775   */\n      swap2\n      pop\n        /* \"#utility.yul\":12792:12795   */\n      dup2\n        /* \"#utility.yul\":12785:12795   */\n      swap1\n      pop\n        /* \"#utility.yul\":12100:12801   */\n      swap4\n      swap3\n      pop\n      pop\n      pop\n      jump\t// out\n        /* \"#utility.yul\":12807:12987   */\n    tag_363:\n        /* \"#utility.yul\":12855:12932   */\n      0x4e487b7100000000000000000000000000000000000000000000000000000000\n        /* \"#utility.yul\":12852:12853   */\n      0x00\n        /* \"#utility.yul\":12845:12933   */\n      mstore\n        /* \"#utility.yul\":12952:12956   */\n      0x11\n        /* \"#utility.yul\":12949:12950   */\n      0x04\n        /* \"#utility.yul\":12942:12957   */\n      mstore\n        /* \"#utility.yul\":12976:12980   */\n      0x24\n        /* \"#utility.yul\":12973:12974   */\n      0x00\n        /* \"#utility.yul\":12966:12981   */\n      revert\n        /* \"#utility.yul\":12993:13164   */\n    tag_210:\n        /* \"#utility.yul\":13032:13035   */\n      0x00\n        /* \"#utility.yul\":13055:13079   */\n      tag_512\n        /* \"#utility.yul\":13073:13078   */\n      dup3\n        /* \"#utility.yul\":13055:13079   */\n      tag_339\n      jump\t// in\n    tag_512:\n        /* \"#utility.yul\":13046:13079   */\n      swap2\n      pop\n        /* \"#utility.yul\":13101:13105   */\n      0x00\n        /* \"#utility.yul\":13094:13099   */\n      dup3\n        /* \"#utility.yul\":13091:13106   */\n      sub\n        /* \"#utility.yul\":13088:13129   */\n      tag_513\n      jumpi\n        /* \"#utility.yul\":13109:13127   */\n      tag_514\n      tag_363\n      jump\t// in\n    tag_514:\n        /* \"#utility.yul\":13088:13129   */\n    tag_513:\n        /* \"#utility.yul\":13156:13157   */\n      0x01\n        /* \"#utility.yul\":13149:13154   */\n      dup3\n        /* \"#utility.yul\":13145:13158   */\n      sub\n        /* \"#utility.yul\":13138:13158   */\n      swap1\n      pop\n        /* \"#utility.yul\":12993:13164   */\n      swap2\n      swap1\n      pop\n      jump\t// out\n        /* \"#utility.yul\":13170:13268   */\n    tag_364:\n        /* \"#utility.yul\":13221:13227   */\n      0x00\n        /* \"#utility.yul\":13255:13260   */\n      dup2\n        /* \"#utility.yul\":13249:13261   */\n      mload\n        /* \"#utility.yul\":13239:13261   */\n      swap1\n      pop\n        /* \"#utility.yul\":13170:13268   */\n      swap2\n      swap1\n      pop\n      jump\t// out\n        /* \"#utility.yul\":13274:13442   */\n    tag_365:\n        /* \"#utility.yul\":13357:13368   */\n      0x00\n        /* \"#utility.yul\":13391:13397   */\n      dup3\n        /* \"#utility.yul\":13386:13389   */\n      dup3\n        /* \"#utility.yul\":13379:13398   */\n      mstore\n        /* \"#utility.yul\":13431:13435   */\n      0x20\n        /* \"#utility.yul\":13426:13429   */\n      dup3\n        /* \"#utility.yul\":13422:13436   */\n      add\n        /* \"#utility.yul\":13407:13436   */\n      swap1\n      pop\n        /* \"#utility.yul\":13274:13442   */\n      swap3\n      swap2\n      pop\n      pop\n      jump\t// out\n        /* \"#utility.yul\":13448:13821   */\n    tag_366:\n        /* \"#utility.yul\":13534:13537   */\n      0x00\n        /* \"#utility.yul\":13562:13600   */\n      tag_518\n        /* \"#utility.yul\":13594:13599   */\n      dup3\n        /* \"#utility.yul\":13562:13600   */\n      tag_364\n      jump\t// in\n    tag_518:\n        /* \"#utility.yul\":13616:13686   */\n      tag_519\n        /* \"#utility.yul\":13679:13685   */\n      dup2\n        /* \"#utility.yul\":13674:13677   */\n      dup6\n        /* \"#utility.yul\":13616:13686   */\n      tag_365\n      jump\t// in\n    tag_519:\n        /* \"#utility.yul\":13609:13686   */\n      swap4\n      pop\n        /* \"#utility.yul\":13695:13760   */\n      tag_520\n        /* \"#utility.yul\":13753:13759   */\n      dup2\n        /* \"#utility.yul\":13748:13751   */\n      dup6\n        /* \"#utility.yul\":13741:13745   */\n      0x20\n        /* \"#utility.yul\":13734:13739   */\n      dup7\n        /* \"#utility.yul\":13730:13746   */\n      add\n        /* \"#utility.yul\":13695:13760   */\n      tag_336\n      jump\t// in\n    tag_520:\n        /* \"#utility.yul\":13785:13814   */\n      tag_521\n        /* \"#utility.yul\":13807:13813   */\n      dup2\n        /* \"#utility.yul\":13785:13814   */\n      tag_337\n      jump\t// in\n    tag_521:\n        /* \"#utility.yul\":13780:13783   */\n      dup5\n        /* \"#utility.yul\":13776:13815   */\n      add\n        /* \"#utility.yul\":13769:13815   */\n      swap2\n      pop\n        /* \"#utility.yul\":13538:13821   */\n      pop\n        /* \"#utility.yul\":13448:13821   */\n      swap3\n      swap2\n      pop\n      pop\n      jump\t// out\n        /* \"#utility.yul\":13827:14467   */\n    tag_259:\n        /* \"#utility.yul\":14022:14026   */\n      0x00\n        /* \"#utility.yul\":14060:14063   */\n      0x80\n        /* \"#utility.yul\":14049:14058   */\n      dup3\n        /* \"#utility.yul\":14045:14064   */\n      add\n        /* \"#utility.yul\":14037:14064   */\n      swap1\n      pop\n        /* \"#utility.yul\":14074:14145   */\n      tag_523\n        /* \"#utility.yul\":14142:14143   */\n      0x00\n        /* \"#utility.yul\":14131:14140   */\n      dup4\n        /* \"#utility.yul\":14127:14144   */\n      add\n        /* \"#utility.yul\":14118:14124   */\n      dup8\n        /* \"#utility.yul\":14074:14145   */\n      tag_344\n      jump\t// in\n    tag_523:\n        /* \"#utility.yul\":14155:14227   */\n      tag_524\n        /* \"#utility.yul\":14223:14225   */\n      0x20\n        /* \"#utility.yul\":14212:14221   */\n      dup4\n        /* \"#utility.yul\":14208:14226   */\n      add\n        /* \"#utility.yul\":14199:14205   */\n      dup7\n        /* \"#utility.yul\":14155:14227   */\n      tag_344\n      jump\t// in\n    tag_524:\n        /* \"#utility.yul\":14237:14309   */\n      tag_525\n        /* \"#utility.yul\":14305:14307   */\n      0x40\n        /* \"#utility.yul\":14294:14303   */\n      dup4\n        /* \"#utility.yul\":14290:14308   */\n      add\n        /* \"#utility.yul\":14281:14287   */\n      dup6\n        /* \"#utility.yul\":14237:14309   */\n      tag_347\n      jump\t// in\n    tag_525:\n        /* \"#utility.yul\":14356:14365   */\n      dup2\n        /* \"#utility.yul\":14350:14354   */\n      dup2\n        /* \"#utility.yul\":14346:14366   */\n      sub\n        /* \"#utility.yul\":14341:14343   */\n      0x60\n        /* \"#utility.yul\":14330:14339   */\n      dup4\n        /* \"#utility.yul\":14326:14344   */\n      add\n        /* \"#utility.yul\":14319:14367   */\n      mstore\n        /* \"#utility.yul\":14384:14460   */\n      tag_526\n        /* \"#utility.yul\":14455:14459   */\n      dup2\n        /* \"#utility.yul\":14446:14452   */\n      dup5\n        /* \"#utility.yul\":14384:14460   */\n      tag_366\n      jump\t// in\n    tag_526:\n        /* \"#utility.yul\":14376:14460   */\n      swap1\n      pop\n        /* \"#utility.yul\":13827:14467   */\n      swap6\n      swap5\n      pop\n      pop\n      pop\n      pop\n      pop\n      jump\t// out\n        /* \"#utility.yul\":14473:14614   */\n    tag_367:\n        /* \"#utility.yul\":14529:14534   */\n      0x00\n        /* \"#utility.yul\":14560:14566   */\n      dup2\n        /* \"#utility.yul\":14554:14567   */\n      mload\n        /* \"#utility.yul\":14545:14567   */\n      swap1\n      pop\n        /* \"#utility.yul\":14576:14608   */\n      tag_528\n        /* \"#utility.yul\":14602:14607   */\n      dup2\n        /* \"#utility.yul\":14576:14608   */\n      tag_330\n      jump\t// in\n    tag_528:\n        /* \"#utility.yul\":14473:14614   */\n      swap3\n      swap2\n      pop\n      pop\n      jump\t// out\n        /* \"#utility.yul\":14620:14969   */\n    tag_262:\n        /* \"#utility.yul\":14689:14695   */\n      0x00\n        /* \"#utility.yul\":14738:14740   */\n      0x20\n        /* \"#utility.yul\":14726:14735   */\n      dup3\n        /* \"#utility.yul\":14717:14724   */\n      dup5\n        /* \"#utility.yul\":14713:14736   */\n      sub\n        /* \"#utility.yul\":14709:14741   */\n      slt\n        /* \"#utility.yul\":14706:14825   */\n      iszero\n      tag_530\n      jumpi\n        /* \"#utility.yul\":14744:14823   */\n      tag_531\n      tag_327\n      jump\t// in\n    tag_531:\n        /* \"#utility.yul\":14706:14825   */\n    tag_530:\n        /* \"#utility.yul\":14864:14865   */\n      0x00\n        /* \"#utility.yul\":14889:14952   */\n      tag_532\n        /* \"#utility.yul\":14944:14951   */\n      dup5\n        /* \"#utility.yul\":14935:14941   */\n      dup3\n        /* \"#utility.yul\":14924:14933   */\n      dup6\n        /* \"#utility.yul\":14920:14942   */\n      add\n        /* \"#utility.yul\":14889:14952   */\n      tag_367\n      jump\t// in\n    tag_532:\n        /* \"#utility.yul\":14879:14952   */\n      swap2\n      pop\n        /* \"#utility.yul\":14835:14962   */\n      pop\n        /* \"#utility.yul\":14620:14969   */\n      swap3\n      swap2\n      pop\n      pop\n      jump\t// out\n        /* \"#utility.yul\":14975:15208   */\n    tag_278:\n        /* \"#utility.yul\":15014:15017   */\n      0x00\n        /* \"#utility.yul\":15037:15061   */\n      tag_534\n        /* \"#utility.yul\":15055:15060   */\n      dup3\n        /* \"#utility.yul\":15037:15061   */\n      tag_339\n      jump\t// in\n    tag_534:\n        /* \"#utility.yul\":15028:15061   */\n      swap2\n      pop\n        /* \"#utility.yul\":15083:15149   */\n      0xffffffffffffffffffffffffffffffffffffffffffffffffffffffffffffffff\n        /* \"#utility.yul\":15076:15081   */\n      dup3\n        /* \"#utility.yul\":15073:15150   */\n      sub\n        /* \"#utility.yul\":15070:15173   */\n      tag_535\n      jumpi\n        /* \"#utility.yul\":15153:15171   */\n      tag_536\n      tag_363\n      jump\t// in\n    tag_536:\n        /* \"#utility.yul\":15070:15173   */\n    tag_535:\n        /* \"#utility.yul\":15200:15201   */\n      0x01\n        /* \"#utility.yul\":15193:15198   */\n      dup3\n        /* \"#utility.yul\":15189:15202   */\n      add\n        /* \"#utility.yul\":15182:15202   */\n      swap1\n      pop\n        /* \"#utility.yul\":14975:15208   */\n      swap2\n      swap1\n      pop\n      jump\t// out\n        /* \"#utility.yul\":15214:15394   */\n    tag_368:\n        /* \"#utility.yul\":15262:15339   */\n      0x4e487b7100000000000000000000000000000000000000000000000000000000\n        /* \"#utility.yul\":15259:15260   */\n      0x00\n        /* \"#utility.yul\":15252:15340   */\n      mstore\n        /* \"#utility.yul\":15359:15363   */\n      0x12\n        /* \"#utility.yul\":15356:15357   */\n      0x04\n        /* \"#utility.yul\":15349:15364   */\n      mstore\n        /* \"#utility.yul\":15383:15387   */\n      0x24\n        /* \"#utility.yul\":15380:15381   */\n      0x00\n        /* \"#utility.yul\":15373:15388   */\n      revert\n        /* \"#utility.yul\":15400:15585   */\n    tag_280:\n        /* \"#utility.yul\":15440:15441   */\n      0x00\n        /* \"#utility.yul\":15457:15477   */\n      tag_539\n        /* \"#utility.yul\":15475:15476   */\n      dup3\n        /* \"#utility.yul\":15457:15477   */\n      tag_339\n      jump\t// in\n    tag_539:\n        /* \"#utility.yul\":15452:15477   */\n      swap2\n      pop\n        /* \"#utility.yul\":15491:15511   */\n      tag_540\n        /* \"#utility.yul\":15509:15510   */\n      dup4\n        /* \"#utility.yul\":15491:15511   */\n      tag_339\n      jump\t// in\n    tag_540:\n        /* \"#utility.yul\":15486:15511   */\n      swap3\n      pop\n        /* \"#utility.yul\":15530:15531   */\n      dup3\n        /* \"#utility.yul\":15520:15555   */\n      tag_541\n      jumpi\n        /* \"#utility.yul\":15535:15553   */\n      tag_542\n      tag_368\n      jump\t// in\n    tag_542:\n        /* \"#utility.yul\":15520:15555   */\n    tag_541:\n        /* \"#utility.yul\":15577:15578   */\n      dup3\n        /* \"#utility.yul\":15574:15575   */\n      dup3\n        /* \"#utility.yul\":15570:15579   */\n      div\n        /* \"#utility.yul\":15565:15579   */\n      swap1\n      pop\n        /* \"#utility.yul\":15400:15585   */\n      swap3\n      swap2\n      pop\n      pop\n      jump\t// out\n        /* \"#utility.yul\":15591:15785   */\n    tag_288:\n        /* \"#utility.yul\":15631:15635   */\n      0x00\n        /* \"#utility.yul\":15651:15671   */\n      tag_544\n        /* \"#utility.yul\":15669:15670   */\n      dup3\n        /* \"#utility.yul\":15651:15671   */\n      tag_339\n      jump\t// in\n    tag_544:\n        /* \"#utility.yul\":15646:15671   */\n      swap2\n      pop\n        /* \"#utility.yul\":15685:15705   */\n      tag_545\n        /* \"#utility.yul\":15703:15704   */\n      dup4\n        /* \"#utility.yul\":15685:15705   */\n      tag_339\n      jump\t// in\n    tag_545:\n        /* \"#utility.yul\":15680:15705   */\n      swap3\n      pop\n        /* \"#utility.yul\":15729:15730   */\n      dup3\n        /* \"#utility.yul\":15726:15727   */\n      dup3\n        /* \"#utility.yul\":15722:15731   */\n      sub\n        /* \"#utility.yul\":15714:15731   */\n      swap1\n      pop\n        /* \"#utility.yul\":15753:15754   */\n      dup2\n        /* \"#utility.yul\":15747:15751   */\n      dup2\n        /* \"#utility.yul\":15744:15755   */\n      gt\n        /* \"#utility.yul\":15741:15778   */\n      iszero\n      tag_546\n      jumpi\n        /* \"#utility.yul\":15758:15776   */\n      tag_547\n      tag_363\n      jump\t// in\n    tag_547:\n        /* \"#utility.yul\":15741:15778   */\n    tag_546:\n        /* \"#utility.yul\":15591:15785   */\n      swap3\n      swap2\n      pop\n      pop\n      jump\t// out\n        /* \"#utility.yul\":15791:15967   */\n    tag_290:\n        /* \"#utility.yul\":15823:15824   */\n      0x00\n        /* \"#utility.yul\":15840:15860   */\n      tag_549\n        /* \"#utility.yul\":15858:15859   */\n      dup3\n        /* \"#utility.yul\":15840:15860   */\n      tag_339\n      jump\t// in\n    tag_549:\n        /* \"#utility.yul\":15835:15860   */\n      swap2\n      pop\n        /* \"#utility.yul\":15874:15894   */\n      tag_550\n        /* \"#utility.yul\":15892:15893   */\n      dup4\n        /* \"#utility.yul\":15874:15894   */\n      tag_339\n      jump\t// in\n    tag_550:\n        /* \"#utility.yul\":15869:15894   */\n      swap3\n      pop\n        /* \"#utility.yul\":15913:15914   */\n      dup3\n        /* \"#utility.yul\":15903:15938   */\n      tag_551\n      jumpi\n        /* \"#utility.yul\":15918:15936   */\n      tag_552\n      tag_368\n      jump\t// in\n    tag_552:\n        /* \"#utility.yul\":15903:15938   */\n    tag_551:\n        /* \"#utility.yul\":15959:15960   */\n      dup3\n        /* \"#utility.yul\":15956:15957   */\n      dup3\n        /* \"#utility.yul\":15952:15961   */\n      mod\n        /* \"#utility.yul\":15947:15961   */\n      swap1\n      pop\n        /* \"#utility.yul\":15791:15967   */\n      swap3\n      swap2\n      pop\n      pop\n      jump\t// out\n        /* \"#utility.yul\":15973:16164   */\n    tag_292:\n        /* \"#utility.yul\":16013:16016   */\n      0x00\n        /* \"#utility.yul\":16032:16052   */\n      tag_554\n        /* \"#utility.yul\":16050:16051   */\n      dup3\n        /* \"#utility.yul\":16032:16052   */\n      tag_339\n      jump\t// in\n    tag_554:\n        /* \"#utility.yul\":16027:16052   */\n      swap2\n      pop\n        /* \"#utility.yul\":16066:16086   */\n      tag_555\n        /* \"#utility.yul\":16084:16085   */\n      dup4\n        /* \"#utility.yul\":16066:16086   */\n      tag_339\n      jump\t// in\n    tag_555:\n        /* \"#utility.yul\":16061:16086   */\n      swap3\n      pop\n        /* \"#utility.yul\":16109:16110   */\n      dup3\n        /* \"#utility.yul\":16106:16107   */\n      dup3\n        /* \"#utility.yul\":16102:16111   */\n      add\n        /* \"#utility.yul\":16095:16111   */\n      swap1\n      pop\n        /* \"#utility.yul\":16130:16133   */\n      dup1\n        /* \"#utility.yul\":16127:16128   */\n      dup3\n        /* \"#utility.yul\":16124:16134   */\n      gt\n        /* \"#utility.yul\":16121:16157   */\n      iszero\n      tag_556\n      jumpi\n        /* \"#utility.yul\":16137:16155   */\n      tag_557\n      tag_363\n      jump\t// in\n    tag_557:\n        /* \"#utility.yul\":16121:16157   */\n    tag_556:\n        /* \"#utility.yul\":15973:16164   */\n      swap3\n      swap2\n      pop\n      pop\n      jump\t// out\n        /* \"#utility.yul\":16170:16350   */\n    tag_295:\n        /* \"#utility.yul\":16218:16295   */\n      0x4e487b7100000000000000000000000000000000000000000000000000000000\n        /* \"#utility.yul\":16215:16216   */\n      0x00\n        /* \"#utility.yul\":16208:16296   */\n      mstore\n        /* \"#utility.yul\":16315:16319   */\n      0x32\n        /* \"#utility.yul\":16312:16313   */\n      0x04\n        /* \"#utility.yul\":16305:16320   */\n      mstore\n        /* \"#utility.yul\":16339:16343   */\n      0x24\n        /* \"#utility.yul\":16336:16337   */\n      0x00\n        /* \"#utility.yul\":16329:16344   */\n      revert\n    stop\n    data_1250311f865916c0c48ec18be7711c5b67f23674d6e827435103b8b03cf0ba32 697066733a2f2f516d61633839735a545347764b6b795961327672786452616b5052456147464a534e4a52525765747a544c51544d2f\n\n    auxdata: 0xa2646970667358221220e58cd974b2fd045bd84336a24505dc18c9ddda7f181e4529cbd18bd4ad2d435d64736f6c63430008150033\n}\n",
				"bytecode": {
					"linkReferences": {},
					"object": "608060405234801562000010575f80fd5b50336040518060400160405280600581526020017f65373231610000000000000000000000000000000000000000000000000000008152506040518060400160405280600481526020017f373231610000000000000000000000000000000000000000000000000000000081525081600290816200008f91906200046f565b508060039081620000a191906200046f565b50620000b26200014460201b60201c565b5f8190555050505f73ffffffffffffffffffffffffffffffffffffffff168173ffffffffffffffffffffffffffffffffffffffff16036200012c575f6040517f1e4fbdf700000000000000000000000000000000000000000000000000000000815260040162000123919062000596565b60405180910390fd5b6200013d816200014860201b60201c565b50620005b1565b5f90565b5f60085f9054906101000a900473ffffffffffffffffffffffffffffffffffffffff1690508160085f6101000a81548173ffffffffffffffffffffffffffffffffffffffff021916908373ffffffffffffffffffffffffffffffffffffffff1602179055508173ffffffffffffffffffffffffffffffffffffffff168173ffffffffffffffffffffffffffffffffffffffff167f8be0079c531659141344cd1fd0a4f28419497f9722a3daafe3b4186f6b6457e060405160405180910390a35050565b5f81519050919050565b7f4e487b71000000000000000000000000000000000000000000000000000000005f52604160045260245ffd5b7f4e487b71000000000000000000000000000000000000000000000000000000005f52602260045260245ffd5b5f60028204905060018216806200028757607f821691505b6020821081036200029d576200029c62000242565b5b50919050565b5f819050815f5260205f209050919050565b5f6020601f8301049050919050565b5f82821b905092915050565b5f60088302620003017fffffffffffffffffffffffffffffffffffffffffffffffffffffffffffffffff82620002c4565b6200030d8683620002c4565b95508019841693508086168417925050509392505050565b5f819050919050565b5f819050919050565b5f62000357620003516200034b8462000325565b6200032e565b62000325565b9050919050565b5f819050919050565b620003728362000337565b6200038a62000381826200035e565b848454620002d0565b825550505050565b5f90565b620003a062000392565b620003ad81848462000367565b505050565b5b81811015620003d457620003c85f8262000396565b600181019050620003b3565b5050565b601f8211156200042357620003ed81620002a3565b620003f884620002b5565b8101602085101562000408578190505b620004206200041785620002b5565b830182620003b2565b50505b505050565b5f82821c905092915050565b5f620004455f198460080262000428565b1980831691505092915050565b5f6200045f838362000434565b9150826002028217905092915050565b6200047a826200020b565b67ffffffffffffffff81111562000496576200049562000215565b5b620004a282546200026f565b620004af828285620003d8565b5f60209050601f831160018114620004e5575f8415620004d0578287015190505b620004dc858262000452565b8655506200054b565b601f198416620004f586620002a3565b5f5b828110156200051e57848901518255600182019150602085019450602081019050620004f7565b868310156200053e57848901516200053a601f89168262000434565b8355505b6001600288020188555050505b505050505050565b5f73ffffffffffffffffffffffffffffffffffffffff82169050919050565b5f6200057e8262000553565b9050919050565b620005908162000572565b82525050565b5f602082019050620005ab5f83018462000585565b92915050565b611f3980620005bf5f395ff3fe608060405234801561000f575f80fd5b5060043610610114575f3560e01c80638da5cb5b116100a0578063c772ded11161006f578063c772ded1146102ca578063c87b56dd146102e6578063d94b34b614610316578063e985e9c514610332578063f2fde38b1461036257610114565b80638da5cb5b1461025657806395d89b4114610274578063a0712d6814610292578063a22cb465146102ae57610114565b806318160ddd116100e757806318160ddd146101b257806323b872dd146101d05780636352211e146101ec57806370a082311461021c578063715018a61461024c57610114565b806301ffc9a71461011857806306fdde0314610148578063081812fc14610166578063095ea7b314610196575b5f80fd5b610132600480360381019061012d919061160d565b61037e565b60405161013f9190611652565b60405180910390f35b61015061040f565b60405161015d91906116f5565b60405180910390f35b610180600480360381019061017b9190611748565b61049f565b60405161018d91906117b2565b60405180910390f35b6101b060048036038101906101ab91906117f5565b6104f8565b005b6101ba610508565b6040516101c79190611842565b60405180910390f35b6101ea60048036038101906101e5919061185b565b61051d565b005b61020660048036038101906102019190611748565b6107c8565b60405161021391906117b2565b60405180910390f35b610236600480360381019061023191906118ab565b6107d9565b6040516102439190611842565b60405180910390f35b61025461086d565b005b61025e610880565b60405161026b91906117b2565b60405180910390f35b61027c6108a8565b60405161028991906116f5565b60405180910390f35b6102ac60048036038101906102a79190611748565b610938565b005b6102c860048036038101906102c39190611900565b61094d565b005b6102e460048036038101906102df9190611a6a565b610a53565b005b61030060048036038101906102fb9190611748565b610aa4565b60405161030d91906116f5565b60405180910390f35b610330600480360381019061032b919061185b565b610b25565b005b61034c60048036038101906103479190611aea565b610b44565b6040516103599190611652565b60405180910390f35b61037c600480360381019061037791906118ab565b610bd2565b005b5f6301ffc9a760e01b827bffffffffffffffffffffffffffffffffffffffffffffffffffffffff191614806103d857506380ac58cd60e01b827bffffffffffffffffffffffffffffffffffffffffffffffffffffffff1916145b806104085750635b5e139f60e01b827bffffffffffffffffffffffffffffffffffffffffffffffffffffffff1916145b9050919050565b60606002805461041e90611b55565b80601f016020809104026020016040519081016040528092919081815260200182805461044a90611b55565b80156104955780601f1061046c57610100808354040283529160200191610495565b820191905f5260205f20905b81548152906001019060200180831161047857829003601f168201915b5050505050905090565b5f6104a982610c56565b6104be576104bd63cf4700e460e01b610cc8565b5b60065f8381526020019081526020015f205f015f9054906101000a900473ffffffffffffffffffffffffffffffffffffffff169050919050565b61050482826001610cd0565b5050565b5f610511610dfa565b6001545f540303905090565b5f61052782610dfe565b905073ffffffffffffffffffffffffffffffffffffffff8473ffffffffffffffffffffffffffffffffffffffff161693508373ffffffffffffffffffffffffffffffffffffffff168173ffffffffffffffffffffffffffffffffffffffff161461059c5761059b63a114810060e01b610cc8565b5b5f806105a784610ee0565b915091506105bd81876105b8610f03565b610f0a565b6105e8576105d2866105cd610f03565b610b44565b6105e7576105e66359c896be60e01b610cc8565b5b5b6105f58686866001610f4d565b80156105ff575f82555b60055f8773ffffffffffffffffffffffffffffffffffffffff1673ffffffffffffffffffffffffffffffffffffffff1681526020019081526020015f205f8154600190039190508190555060055f8673ffffffffffffffffffffffffffffffffffffffff1673ffffffffffffffffffffffffffffffffffffffff1681526020019081526020015f205f8154600101919050819055506106c7856106a3888887610f53565b7c020000000000000000000000000000000000000000000000000000000017610f7a565b60045f8681526020019081526020015f20819055505f7c0200000000000000000000000000000000000000000000000000000000841603610743575f6001850190505f60045f8381526020019081526020015f205403610741575f548114610740578360045f8381526020019081526020015f20819055505b5b505b5f73ffffffffffffffffffffffffffffffffffffffff8673ffffffffffffffffffffffffffffffffffffffff161690508481887fddf252ad1be2c89b69c2b068fc378daa952ba7f163c4a11628f55a4df523b3ef5f80a45f81036107b2576107b163ea553b3460e01b610cc8565b5b6107bf8787876001610fa9565b50505050505050565b5f6107d282610dfe565b9050919050565b5f8073ffffffffffffffffffffffffffffffffffffffff168273ffffffffffffffffffffffffffffffffffffffff160361081e5761081d638f4eb60460e01b610cc8565b5b67ffffffffffffffff60055f8473ffffffffffffffffffffffffffffffffffffffff1673ffffffffffffffffffffffffffffffffffffffff1681526020019081526020015f2054169050919050565b610875610faf565b61087e5f611036565b565b5f60085f9054906101000a900473ffffffffffffffffffffffffffffffffffffffff16905090565b6060600380546108b790611b55565b80601f01602080910402602001604051908101604052809291908181526020018280546108e390611b55565b801561092e5780601f106109055761010080835404028352916020019161092e565b820191905f5260205f20905b81548152906001019060200180831161091157829003601f168201915b5050505050905090565b610940610faf565b61094a33826110f9565b50565b8060075f610959610f03565b73ffffffffffffffffffffffffffffffffffffffff1673ffffffffffffffffffffffffffffffffffffffff1681526020019081526020015f205f8473ffffffffffffffffffffffffffffffffffffffff1673ffffffffffffffffffffffffffffffffffffffff1681526020019081526020015f205f6101000a81548160ff0219169083151502179055508173ffffffffffffffffffffffffffffffffffffffff16610a02610f03565b73ffffffffffffffffffffffffffffffffffffffff167f17307eab39ab6107e8899845ad3d59bd9653f200f220920489ca2b5937696c3183604051610a479190611652565b60405180910390a35050565b610a5e84848461051d565b5f8373ffffffffffffffffffffffffffffffffffffffff163b14610a9e57610a8884848484611116565b610a9d57610a9c63d1a57ed660e01b610cc8565b5b5b50505050565b6060610aaf82610c56565b610ac457610ac363a14c4b5060e01b610cc8565b5b5f610acd611240565b90505f815103610aeb5760405180602001604052805f815250610b1d565b610af3611240565b610afc84611260565b604051602001610b0d929190611c09565b6040516020818303038152906040525b915050919050565b610b3f83838360405180602001604052805f815250610a53565b505050565b5f60075f8473ffffffffffffffffffffffffffffffffffffffff1673ffffffffffffffffffffffffffffffffffffffff1681526020019081526020015f205f8373ffffffffffffffffffffffffffffffffffffffff1673ffffffffffffffffffffffffffffffffffffffff1681526020019081526020015f205f9054906101000a900460ff16905092915050565b610bda610faf565b5f73ffffffffffffffffffffffffffffffffffffffff168173ffffffffffffffffffffffffffffffffffffffff1603610c4a575f6040517f1e4fbdf7000000000000000000000000000000000000000000000000000000008152600401610c4191906117b2565b60405180910390fd5b610c5381611036565b50565b5f81610c60610dfa565b11610cc3575f54821015610cc2575f5b5f60045f8581526020019081526020015f205491508103610c9c5782610c9590611c64565b9250610c70565b5f7c01000000000000000000000000000000000000000000000000000000008216149150505b5b919050565b805f5260045ffd5b5f610cda836107c8565b9050818015610d1c57508073ffffffffffffffffffffffffffffffffffffffff16610d03610f03565b73ffffffffffffffffffffffffffffffffffffffff1614155b15610d4857610d3281610d2d610f03565b610b44565b610d4757610d4663cfb3b94260e01b610cc8565b5b5b8360065f8581526020019081526020015f205f015f6101000a81548173ffffffffffffffffffffffffffffffffffffffff021916908373ffffffffffffffffffffffffffffffffffffffff160217905550828473ffffffffffffffffffffffffffffffffffffffff168273ffffffffffffffffffffffffffffffffffffffff167f8c5be1e5ebec7d5bd14f71427d1e84f3dd0314c0f7b2291e5b200ac8c7c3b92560405160405180910390a450505050565b5f90565b5f81610e08610dfa565b11610eca5760045f8381526020019081526020015f205490505f8103610ea2575f548210610e4157610e4063df2d9b4260e01b610cc8565b5b5b60045f836001900393508381526020019081526020015f205490505f810315610e9d575f7c010000000000000000000000000000000000000000000000000000000082160315610edb57610e9c63df2d9b4260e01b610cc8565b5b610e42565b5f7c010000000000000000000000000000000000000000000000000000000082160315610edb575b610eda63df2d9b4260e01b610cc8565b5b919050565b5f805f60065f8581526020019081526020015f2090508092508254915050915091565b5f33905090565b5f73ffffffffffffffffffffffffffffffffffffffff8316925073ffffffffffffffffffffffffffffffffffffffff821691508382148383141790509392505050565b50505050565b5f8060e883901c905060e8610f698686846113b9565b62ffffff16901b9150509392505050565b5f73ffffffffffffffffffffffffffffffffffffffff83169250428060601b9050828117841791505092915050565b50505050565b610fb76113c1565b73ffffffffffffffffffffffffffffffffffffffff16610fd5610880565b73ffffffffffffffffffffffffffffffffffffffff161461103457610ff86113c1565b6040517f118cdaa700000000000000000000000000000000000000000000000000000000815260040161102b91906117b2565b60405180910390fd5b565b5f60085f9054906101000a900473ffffffffffffffffffffffffffffffffffffffff1690508160085f6101000a81548173ffffffffffffffffffffffffffffffffffffffff021916908373ffffffffffffffffffffffffffffffffffffffff1602179055508173ffffffffffffffffffffffffffffffffffffffff168173ffffffffffffffffffffffffffffffffffffffff167f8be0079c531659141344cd1fd0a4f28419497f9722a3daafe3b4186f6b6457e060405160405180910390a35050565b611112828260405180602001604052805f8152506113c8565b5050565b5f8373ffffffffffffffffffffffffffffffffffffffff1663150b7a0261113b610f03565b8786866040518563ffffffff1660e01b815260040161115d9493929190611cdd565b6020604051808303815f875af192505050801561119857506040513d601f19601f820116820180604052508101906111959190611d3b565b60015b6111ed573d805f81146111c6576040519150601f19603f3d011682016040523d82523d5f602084013e6111cb565b606091505b505f8151036111e5576111e463d1a57ed660e01b610cc8565b5b805181602001fd5b63150b7a0260e01b7bffffffffffffffffffffffffffffffffffffffffffffffffffffffff1916817bffffffffffffffffffffffffffffffffffffffffffffffffffffffff191614915050949350505050565b6060604051806060016040528060368152602001611ece60369139905090565b60605f82036112a6576040518060400160405280600181526020017f300000000000000000000000000000000000000000000000000000000000000081525090506113b4565b5f8290505f5b5f82146112d55780806112be90611d66565b915050600a826112ce9190611dda565b91506112ac565b5f8167ffffffffffffffff8111156112f0576112ef611946565b5b6040519080825280601f01601f1916602001820160405280156113225781602001600182028036833780820191505090505b5090505b5f85146113ad5760018261133a9190611e0a565b9150600a856113499190611e3d565b60306113559190611e6d565b60f81b81838151811061136b5761136a611ea0565b5b60200101907effffffffffffffffffffffffffffffffffffffffffffffffffffffffffffff191690815f1a905350600a856113a69190611dda565b9450611326565b8093505050505b919050565b5f9392505050565b5f33905090565b6113d28383611447565b5f8373ffffffffffffffffffffffffffffffffffffffff163b14611442575f805490505f83820390505b61140e5f868380600101945086611116565b6114235761142263d1a57ed660e01b610cc8565b5b8181106113fc57815f541461143f5761143e5f60e01b610cc8565b5b50505b505050565b5f805490505f82036114645761146363b562e8dd60e01b610cc8565b5b6114705f848385610f4d565b61148e8361147f5f865f610f53565b61148885611598565b17610f7a565b60045f8381526020019081526020015f2081905550600160406001901b17820260055f8573ffffffffffffffffffffffffffffffffffffffff1673ffffffffffffffffffffffffffffffffffffffff1681526020019081526020015f205f82825401925050819055505f73ffffffffffffffffffffffffffffffffffffffff8473ffffffffffffffffffffffffffffffffffffffff161690505f810361153f5761153e632e07630060e01b610cc8565b5b5f83830190505f8390505b80835f7fddf252ad1be2c89b69c2b068fc378daa952ba7f163c4a11628f55a4df523b3ef5f80a481816001019150810361154a57815f819055505050506115935f848385610fa9565b505050565b5f6001821460e11b9050919050565b5f604051905090565b5f80fd5b5f80fd5b5f7fffffffff0000000000000000000000000000000000000000000000000000000082169050919050565b6115ec816115b8565b81146115f6575f80fd5b50565b5f81359050611607816115e3565b92915050565b5f60208284031215611622576116216115b0565b5b5f61162f848285016115f9565b91505092915050565b5f8115159050919050565b61164c81611638565b82525050565b5f6020820190506116655f830184611643565b92915050565b5f81519050919050565b5f82825260208201905092915050565b5f5b838110156116a2578082015181840152602081019050611687565b5f8484015250505050565b5f601f19601f8301169050919050565b5f6116c78261166b565b6116d18185611675565b93506116e1818560208601611685565b6116ea816116ad565b840191505092915050565b5f6020820190508181035f83015261170d81846116bd565b905092915050565b5f819050919050565b61172781611715565b8114611731575f80fd5b50565b5f813590506117428161171e565b92915050565b5f6020828403121561175d5761175c6115b0565b5b5f61176a84828501611734565b91505092915050565b5f73ffffffffffffffffffffffffffffffffffffffff82169050919050565b5f61179c82611773565b9050919050565b6117ac81611792565b82525050565b5f6020820190506117c55f8301846117a3565b92915050565b6117d481611792565b81146117de575f80fd5b50565b5f813590506117ef816117cb565b92915050565b5f806040838503121561180b5761180a6115b0565b5b5f611818858286016117e1565b925050602061182985828601611734565b9150509250929050565b61183c81611715565b82525050565b5f6020820190506118555f830184611833565b92915050565b5f805f60608486031215611872576118716115b0565b5b5f61187f868287016117e1565b9350506020611890868287016117e1565b92505060406118a186828701611734565b9150509250925092565b5f602082840312156118c0576118bf6115b0565b5b5f6118cd848285016117e1565b91505092915050565b6118df81611638565b81146118e9575f80fd5b50565b5f813590506118fa816118d6565b92915050565b5f8060408385031215611916576119156115b0565b5b5f611923858286016117e1565b9250506020611934858286016118ec565b9150509250929050565b5f80fd5b5f80fd5b7f4e487b71000000000000000000000000000000000000000000000000000000005f52604160045260245ffd5b61197c826116ad565b810181811067ffffffffffffffff8211171561199b5761199a611946565b5b80604052505050565b5f6119ad6115a7565b90506119b98282611973565b919050565b5f67ffffffffffffffff8211156119d8576119d7611946565b5b6119e1826116ad565b9050602081019050919050565b828183375f83830152505050565b5f611a0e611a09846119be565b6119a4565b905082815260208101848484011115611a2a57611a29611942565b5b611a358482856119ee565b509392505050565b5f82601f830112611a5157611a5061193e565b5b8135611a618482602086016119fc565b91505092915050565b5f805f8060808587031215611a8257611a816115b0565b5b5f611a8f878288016117e1565b9450506020611aa0878288016117e1565b9350506040611ab187828801611734565b925050606085013567ffffffffffffffff811115611ad257611ad16115b4565b5b611ade87828801611a3d565b91505092959194509250565b5f8060408385031215611b0057611aff6115b0565b5b5f611b0d858286016117e1565b9250506020611b1e858286016117e1565b9150509250929050565b7f4e487b71000000000000000000000000000000000000000000000000000000005f52602260045260245ffd5b5f6002820490506001821680611b6c57607f821691505b602082108103611b7f57611b7e611b28565b5b50919050565b5f81905092915050565b5f611b998261166b565b611ba38185611b85565b9350611bb3818560208601611685565b80840191505092915050565b7f2e6a736f6e0000000000000000000000000000000000000000000000000000005f82015250565b5f611bf3600583611b85565b9150611bfe82611bbf565b600582019050919050565b5f611c148285611b8f565b9150611c208284611b8f565b9150611c2b82611be7565b91508190509392505050565b7f4e487b71000000000000000000000000000000000000000000000000000000005f52601160045260245ffd5b5f611c6e82611715565b91505f8203611c8057611c7f611c37565b5b600182039050919050565b5f81519050919050565b5f82825260208201905092915050565b5f611caf82611c8b565b611cb98185611c95565b9350611cc9818560208601611685565b611cd2816116ad565b840191505092915050565b5f608082019050611cf05f8301876117a3565b611cfd60208301866117a3565b611d0a6040830185611833565b8181036060830152611d1c8184611ca5565b905095945050505050565b5f81519050611d35816115e3565b92915050565b5f60208284031215611d5057611d4f6115b0565b5b5f611d5d84828501611d27565b91505092915050565b5f611d7082611715565b91507fffffffffffffffffffffffffffffffffffffffffffffffffffffffffffffffff8203611da257611da1611c37565b5b600182019050919050565b7f4e487b71000000000000000000000000000000000000000000000000000000005f52601260045260245ffd5b5f611de482611715565b9150611def83611715565b925082611dff57611dfe611dad565b5b828204905092915050565b5f611e1482611715565b9150611e1f83611715565b9250828203905081811115611e3757611e36611c37565b5b92915050565b5f611e4782611715565b9150611e5283611715565b925082611e6257611e61611dad565b5b828206905092915050565b5f611e7782611715565b9150611e8283611715565b9250828201905080821115611e9a57611e99611c37565b5b92915050565b7f4e487b71000000000000000000000000000000000000000000000000000000005f52603260045260245ffdfe697066733a2f2f516d61633839735a545347764b6b795961327672786452616b5052456147464a534e4a52525765747a544c51544d2fa2646970667358221220e58cd974b2fd045bd84336a24505dc18c9ddda7f181e4529cbd18bd4ad2d435d64736f6c63430008150033",
					"opcodes": "PUSH1 0x80 PUSH1 0x40 MSTORE CALLVALUE DUP1 ISZERO PUSH3 0x10 JUMPI PUSH0 DUP1 REVERT JUMPDEST POP CALLER PUSH1 0x40 MLOAD DUP1 PUSH1 0x40 ADD PUSH1 0x40 MSTORE DUP1 PUSH1 0x5 DUP2 MSTORE PUSH1 0x20 ADD PUSH32 0x6537323161000000000000000000000000000000000000000000000000000000 DUP2 MSTORE POP PUSH1 0x40 MLOAD DUP1 PUSH1 0x40 ADD PUSH1 0x40 MSTORE DUP1 PUSH1 0x4 DUP2 MSTORE PUSH1 0x20 ADD PUSH32 0x3732316100000000000000000000000000000000000000000000000000000000 DUP2 MSTORE POP DUP2 PUSH1 0x2 SWAP1 DUP2 PUSH3 0x8F SWAP2 SWAP1 PUSH3 0x46F JUMP JUMPDEST POP DUP1 PUSH1 0x3 SWAP1 DUP2 PUSH3 0xA1 SWAP2 SWAP1 PUSH3 0x46F JUMP JUMPDEST POP PUSH3 0xB2 PUSH3 0x144 PUSH1 0x20 SHL PUSH1 0x20 SHR JUMP JUMPDEST PUSH0 DUP2 SWAP1 SSTORE POP POP POP PUSH0 PUSH20 0xFFFFFFFFFFFFFFFFFFFFFFFFFFFFFFFFFFFFFFFF AND DUP2 PUSH20 0xFFFFFFFFFFFFFFFFFFFFFFFFFFFFFFFFFFFFFFFF AND SUB PUSH3 0x12C JUMPI PUSH0 PUSH1 0x40 MLOAD PUSH32 0x1E4FBDF700000000000000000000000000000000000000000000000000000000 DUP2 MSTORE PUSH1 0x4 ADD PUSH3 0x123 SWAP2 SWAP1 PUSH3 0x596 JUMP JUMPDEST PUSH1 0x40 MLOAD DUP1 SWAP2 SUB SWAP1 REVERT JUMPDEST PUSH3 0x13D DUP2 PUSH3 0x148 PUSH1 0x20 SHL PUSH1 0x20 SHR JUMP JUMPDEST POP PUSH3 0x5B1 JUMP JUMPDEST PUSH0 SWAP1 JUMP JUMPDEST PUSH0 PUSH1 0x8 PUSH0 SWAP1 SLOAD SWAP1 PUSH2 0x100 EXP SWAP1 DIV PUSH20 0xFFFFFFFFFFFFFFFFFFFFFFFFFFFFFFFFFFFFFFFF AND SWAP1 POP DUP2 PUSH1 0x8 PUSH0 PUSH2 0x100 EXP DUP2 SLOAD DUP2 PUSH20 0xFFFFFFFFFFFFFFFFFFFFFFFFFFFFFFFFFFFFFFFF MUL NOT AND SWAP1 DUP4 PUSH20 0xFFFFFFFFFFFFFFFFFFFFFFFFFFFFFFFFFFFFFFFF AND MUL OR SWAP1 SSTORE POP DUP2 PUSH20 0xFFFFFFFFFFFFFFFFFFFFFFFFFFFFFFFFFFFFFFFF AND DUP2 PUSH20 0xFFFFFFFFFFFFFFFFFFFFFFFFFFFFFFFFFFFFFFFF AND PUSH32 0x8BE0079C531659141344CD1FD0A4F28419497F9722A3DAAFE3B4186F6B6457E0 PUSH1 0x40 MLOAD PUSH1 0x40 MLOAD DUP1 SWAP2 SUB SWAP1 LOG3 POP POP JUMP JUMPDEST PUSH0 DUP2 MLOAD SWAP1 POP SWAP2 SWAP1 POP JUMP JUMPDEST PUSH32 0x4E487B7100000000000000000000000000000000000000000000000000000000 PUSH0 MSTORE PUSH1 0x41 PUSH1 0x4 MSTORE PUSH1 0x24 PUSH0 REVERT JUMPDEST PUSH32 0x4E487B7100000000000000000000000000000000000000000000000000000000 PUSH0 MSTORE PUSH1 0x22 PUSH1 0x4 MSTORE PUSH1 0x24 PUSH0 REVERT JUMPDEST PUSH0 PUSH1 0x2 DUP3 DIV SWAP1 POP PUSH1 0x1 DUP3 AND DUP1 PUSH3 0x287 JUMPI PUSH1 0x7F DUP3 AND SWAP2 POP JUMPDEST PUSH1 0x20 DUP3 LT DUP2 SUB PUSH3 0x29D JUMPI PUSH3 0x29C PUSH3 0x242 JUMP JUMPDEST JUMPDEST POP SWAP2 SWAP1 POP JUMP JUMPDEST PUSH0 DUP2 SWAP1 POP DUP2 PUSH0 MSTORE PUSH1 0x20 PUSH0 KECCAK256 SWAP1 POP SWAP2 SWAP1 POP JUMP JUMPDEST PUSH0 PUSH1 0x20 PUSH1 0x1F DUP4 ADD DIV SWAP1 POP SWAP2 SWAP1 POP JUMP JUMPDEST PUSH0 DUP3 DUP3 SHL SWAP1 POP SWAP3 SWAP2 POP POP JUMP JUMPDEST PUSH0 PUSH1 0x8 DUP4 MUL PUSH3 0x301 PUSH32 0xFFFFFFFFFFFFFFFFFFFFFFFFFFFFFFFFFFFFFFFFFFFFFFFFFFFFFFFFFFFFFFFF DUP3 PUSH3 0x2C4 JUMP JUMPDEST PUSH3 0x30D DUP7 DUP4 PUSH3 0x2C4 JUMP JUMPDEST SWAP6 POP DUP1 NOT DUP5 AND SWAP4 POP DUP1 DUP7 AND DUP5 OR SWAP3 POP POP POP SWAP4 SWAP3 POP POP POP JUMP JUMPDEST PUSH0 DUP2 SWAP1 POP SWAP2 SWAP1 POP JUMP JUMPDEST PUSH0 DUP2 SWAP1 POP SWAP2 SWAP1 POP JUMP JUMPDEST PUSH0 PUSH3 0x357 PUSH3 0x351 PUSH3 0x34B DUP5 PUSH3 0x325 JUMP JUMPDEST PUSH3 0x32E JUMP JUMPDEST PUSH3 0x325 JUMP JUMPDEST SWAP1 POP SWAP2 SWAP1 POP JUMP JUMPDEST PUSH0 DUP2 SWAP1 POP SWAP2 SWAP1 POP JUMP JUMPDEST PUSH3 0x372 DUP4 PUSH3 0x337 JUMP JUMPDEST PUSH3 0x38A PUSH3 0x381 DUP3 PUSH3 0x35E JUMP JUMPDEST DUP5 DUP5 SLOAD PUSH3 0x2D0 JUMP JUMPDEST DUP3 SSTORE POP POP POP POP JUMP JUMPDEST PUSH0 SWAP1 JUMP JUMPDEST PUSH3 0x3A0 PUSH3 0x392 JUMP JUMPDEST PUSH3 0x3AD DUP2 DUP5 DUP5 PUSH3 0x367 JUMP JUMPDEST POP POP POP JUMP JUMPDEST JUMPDEST DUP2 DUP2 LT ISZERO PUSH3 0x3D4 JUMPI PUSH3 0x3C8 PUSH0 DUP3 PUSH3 0x396 JUMP JUMPDEST PUSH1 0x1 DUP2 ADD SWAP1 POP PUSH3 0x3B3 JUMP JUMPDEST POP POP JUMP JUMPDEST PUSH1 0x1F DUP3 GT ISZERO PUSH3 0x423 JUMPI PUSH3 0x3ED DUP2 PUSH3 0x2A3 JUMP JUMPDEST PUSH3 0x3F8 DUP5 PUSH3 0x2B5 JUMP JUMPDEST DUP2 ADD PUSH1 0x20 DUP6 LT ISZERO PUSH3 0x408 JUMPI DUP2 SWAP1 POP JUMPDEST PUSH3 0x420 PUSH3 0x417 DUP6 PUSH3 0x2B5 JUMP JUMPDEST DUP4 ADD DUP3 PUSH3 0x3B2 JUMP JUMPDEST POP POP JUMPDEST POP POP POP JUMP JUMPDEST PUSH0 DUP3 DUP3 SHR SWAP1 POP SWAP3 SWAP2 POP POP JUMP JUMPDEST PUSH0 PUSH3 0x445 PUSH0 NOT DUP5 PUSH1 0x8 MUL PUSH3 0x428 JUMP JUMPDEST NOT DUP1 DUP4 AND SWAP2 POP POP SWAP3 SWAP2 POP POP JUMP JUMPDEST PUSH0 PUSH3 0x45F DUP4 DUP4 PUSH3 0x434 JUMP JUMPDEST SWAP2 POP DUP3 PUSH1 0x2 MUL DUP3 OR SWAP1 POP SWAP3 SWAP2 POP POP JUMP JUMPDEST PUSH3 0x47A DUP3 PUSH3 0x20B JUMP JUMPDEST PUSH8 0xFFFFFFFFFFFFFFFF DUP2 GT ISZERO PUSH3 0x496 JUMPI PUSH3 0x495 PUSH3 0x215 JUMP JUMPDEST JUMPDEST PUSH3 0x4A2 DUP3 SLOAD PUSH3 0x26F JUMP JUMPDEST PUSH3 0x4AF DUP3 DUP3 DUP6 PUSH3 0x3D8 JUMP JUMPDEST PUSH0 PUSH1 0x20 SWAP1 POP PUSH1 0x1F DUP4 GT PUSH1 0x1 DUP2 EQ PUSH3 0x4E5 JUMPI PUSH0 DUP5 ISZERO PUSH3 0x4D0 JUMPI DUP3 DUP8 ADD MLOAD SWAP1 POP JUMPDEST PUSH3 0x4DC DUP6 DUP3 PUSH3 0x452 JUMP JUMPDEST DUP7 SSTORE POP PUSH3 0x54B JUMP JUMPDEST PUSH1 0x1F NOT DUP5 AND PUSH3 0x4F5 DUP7 PUSH3 0x2A3 JUMP JUMPDEST PUSH0 JUMPDEST DUP3 DUP2 LT ISZERO PUSH3 0x51E JUMPI DUP5 DUP10 ADD MLOAD DUP3 SSTORE PUSH1 0x1 DUP3 ADD SWAP2 POP PUSH1 0x20 DUP6 ADD SWAP5 POP PUSH1 0x20 DUP2 ADD SWAP1 POP PUSH3 0x4F7 JUMP JUMPDEST DUP7 DUP4 LT ISZERO PUSH3 0x53E JUMPI DUP5 DUP10 ADD MLOAD PUSH3 0x53A PUSH1 0x1F DUP10 AND DUP3 PUSH3 0x434 JUMP JUMPDEST DUP4 SSTORE POP JUMPDEST PUSH1 0x1 PUSH1 0x2 DUP9 MUL ADD DUP9 SSTORE POP POP POP JUMPDEST POP POP POP POP POP POP JUMP JUMPDEST PUSH0 PUSH20 0xFFFFFFFFFFFFFFFFFFFFFFFFFFFFFFFFFFFFFFFF DUP3 AND SWAP1 POP SWAP2 SWAP1 POP JUMP JUMPDEST PUSH0 PUSH3 0x57E DUP3 PUSH3 0x553 JUMP JUMPDEST SWAP1 POP SWAP2 SWAP1 POP JUMP JUMPDEST PUSH3 0x590 DUP2 PUSH3 0x572 JUMP JUMPDEST DUP3 MSTORE POP POP JUMP JUMPDEST PUSH0 PUSH1 0x20 DUP3 ADD SWAP1 POP PUSH3 0x5AB PUSH0 DUP4 ADD DUP5 PUSH3 0x585 JUMP JUMPDEST SWAP3 SWAP2 POP POP JUMP JUMPDEST PUSH2 0x1F39 DUP1 PUSH3 0x5BF PUSH0 CODECOPY PUSH0 RETURN INVALID PUSH1 0x80 PUSH1 0x40 MSTORE CALLVALUE DUP1 ISZERO PUSH2 0xF JUMPI PUSH0 DUP1 REVERT JUMPDEST POP PUSH1 0x4 CALLDATASIZE LT PUSH2 0x114 JUMPI PUSH0 CALLDATALOAD PUSH1 0xE0 SHR DUP1 PUSH4 0x8DA5CB5B GT PUSH2 0xA0 JUMPI DUP1 PUSH4 0xC772DED1 GT PUSH2 0x6F JUMPI DUP1 PUSH4 0xC772DED1 EQ PUSH2 0x2CA JUMPI DUP1 PUSH4 0xC87B56DD EQ PUSH2 0x2E6 JUMPI DUP1 PUSH4 0xD94B34B6 EQ PUSH2 0x316 JUMPI DUP1 PUSH4 0xE985E9C5 EQ PUSH2 0x332 JUMPI DUP1 PUSH4 0xF2FDE38B EQ PUSH2 0x362 JUMPI PUSH2 0x114 JUMP JUMPDEST DUP1 PUSH4 0x8DA5CB5B EQ PUSH2 0x256 JUMPI DUP1 PUSH4 0x95D89B41 EQ PUSH2 0x274 JUMPI DUP1 PUSH4 0xA0712D68 EQ PUSH2 0x292 JUMPI DUP1 PUSH4 0xA22CB465 EQ PUSH2 0x2AE JUMPI PUSH2 0x114 JUMP JUMPDEST DUP1 PUSH4 0x18160DDD GT PUSH2 0xE7 JUMPI DUP1 PUSH4 0x18160DDD EQ PUSH2 0x1B2 JUMPI DUP1 PUSH4 0x23B872DD EQ PUSH2 0x1D0 JUMPI DUP1 PUSH4 0x6352211E EQ PUSH2 0x1EC JUMPI DUP1 PUSH4 0x70A08231 EQ PUSH2 0x21C JUMPI DUP1 PUSH4 0x715018A6 EQ PUSH2 0x24C JUMPI PUSH2 0x114 JUMP JUMPDEST DUP1 PUSH4 0x1FFC9A7 EQ PUSH2 0x118 JUMPI DUP1 PUSH4 0x6FDDE03 EQ PUSH2 0x148 JUMPI DUP1 PUSH4 0x81812FC EQ PUSH2 0x166 JUMPI DUP1 PUSH4 0x95EA7B3 EQ PUSH2 0x196 JUMPI JUMPDEST PUSH0 DUP1 REVERT JUMPDEST PUSH2 0x132 PUSH1 0x4 DUP1 CALLDATASIZE SUB DUP2 ADD SWAP1 PUSH2 0x12D SWAP2 SWAP1 PUSH2 0x160D JUMP JUMPDEST PUSH2 0x37E JUMP JUMPDEST PUSH1 0x40 MLOAD PUSH2 0x13F SWAP2 SWAP1 PUSH2 0x1652 JUMP JUMPDEST PUSH1 0x40 MLOAD DUP1 SWAP2 SUB SWAP1 RETURN JUMPDEST PUSH2 0x150 PUSH2 0x40F JUMP JUMPDEST PUSH1 0x40 MLOAD PUSH2 0x15D SWAP2 SWAP1 PUSH2 0x16F5 JUMP JUMPDEST PUSH1 0x40 MLOAD DUP1 SWAP2 SUB SWAP1 RETURN JUMPDEST PUSH2 0x180 PUSH1 0x4 DUP1 CALLDATASIZE SUB DUP2 ADD SWAP1 PUSH2 0x17B SWAP2 SWAP1 PUSH2 0x1748 JUMP JUMPDEST PUSH2 0x49F JUMP JUMPDEST PUSH1 0x40 MLOAD PUSH2 0x18D SWAP2 SWAP1 PUSH2 0x17B2 JUMP JUMPDEST PUSH1 0x40 MLOAD DUP1 SWAP2 SUB SWAP1 RETURN JUMPDEST PUSH2 0x1B0 PUSH1 0x4 DUP1 CALLDATASIZE SUB DUP2 ADD SWAP1 PUSH2 0x1AB SWAP2 SWAP1 PUSH2 0x17F5 JUMP JUMPDEST PUSH2 0x4F8 JUMP JUMPDEST STOP JUMPDEST PUSH2 0x1BA PUSH2 0x508 JUMP JUMPDEST PUSH1 0x40 MLOAD PUSH2 0x1C7 SWAP2 SWAP1 PUSH2 0x1842 JUMP JUMPDEST PUSH1 0x40 MLOAD DUP1 SWAP2 SUB SWAP1 RETURN JUMPDEST PUSH2 0x1EA PUSH1 0x4 DUP1 CALLDATASIZE SUB DUP2 ADD SWAP1 PUSH2 0x1E5 SWAP2 SWAP1 PUSH2 0x185B JUMP JUMPDEST PUSH2 0x51D JUMP JUMPDEST STOP JUMPDEST PUSH2 0x206 PUSH1 0x4 DUP1 CALLDATASIZE SUB DUP2 ADD SWAP1 PUSH2 0x201 SWAP2 SWAP1 PUSH2 0x1748 JUMP JUMPDEST PUSH2 0x7C8 JUMP JUMPDEST PUSH1 0x40 MLOAD PUSH2 0x213 SWAP2 SWAP1 PUSH2 0x17B2 JUMP JUMPDEST PUSH1 0x40 MLOAD DUP1 SWAP2 SUB SWAP1 RETURN JUMPDEST PUSH2 0x236 PUSH1 0x4 DUP1 CALLDATASIZE SUB DUP2 ADD SWAP1 PUSH2 0x231 SWAP2 SWAP1 PUSH2 0x18AB JUMP JUMPDEST PUSH2 0x7D9 JUMP JUMPDEST PUSH1 0x40 MLOAD PUSH2 0x243 SWAP2 SWAP1 PUSH2 0x1842 JUMP JUMPDEST PUSH1 0x40 MLOAD DUP1 SWAP2 SUB SWAP1 RETURN JUMPDEST PUSH2 0x254 PUSH2 0x86D JUMP JUMPDEST STOP JUMPDEST PUSH2 0x25E PUSH2 0x880 JUMP JUMPDEST PUSH1 0x40 MLOAD PUSH2 0x26B SWAP2 SWAP1 PUSH2 0x17B2 JUMP JUMPDEST PUSH1 0x40 MLOAD DUP1 SWAP2 SUB SWAP1 RETURN JUMPDEST PUSH2 0x27C PUSH2 0x8A8 JUMP JUMPDEST PUSH1 0x40 MLOAD PUSH2 0x289 SWAP2 SWAP1 PUSH2 0x16F5 JUMP JUMPDEST PUSH1 0x40 MLOAD DUP1 SWAP2 SUB SWAP1 RETURN JUMPDEST PUSH2 0x2AC PUSH1 0x4 DUP1 CALLDATASIZE SUB DUP2 ADD SWAP1 PUSH2 0x2A7 SWAP2 SWAP1 PUSH2 0x1748 JUMP JUMPDEST PUSH2 0x938 JUMP JUMPDEST STOP JUMPDEST PUSH2 0x2C8 PUSH1 0x4 DUP1 CALLDATASIZE SUB DUP2 ADD SWAP1 PUSH2 0x2C3 SWAP2 SWAP1 PUSH2 0x1900 JUMP JUMPDEST PUSH2 0x94D JUMP JUMPDEST STOP JUMPDEST PUSH2 0x2E4 PUSH1 0x4 DUP1 CALLDATASIZE SUB DUP2 ADD SWAP1 PUSH2 0x2DF SWAP2 SWAP1 PUSH2 0x1A6A JUMP JUMPDEST PUSH2 0xA53 JUMP JUMPDEST STOP JUMPDEST PUSH2 0x300 PUSH1 0x4 DUP1 CALLDATASIZE SUB DUP2 ADD SWAP1 PUSH2 0x2FB SWAP2 SWAP1 PUSH2 0x1748 JUMP JUMPDEST PUSH2 0xAA4 JUMP JUMPDEST PUSH1 0x40 MLOAD PUSH2 0x30D SWAP2 SWAP1 PUSH2 0x16F5 JUMP JUMPDEST PUSH1 0x40 MLOAD DUP1 SWAP2 SUB SWAP1 RETURN JUMPDEST PUSH2 0x330 PUSH1 0x4 DUP1 CALLDATASIZE SUB DUP2 ADD SWAP1 PUSH2 0x32B SWAP2 SWAP1 PUSH2 0x185B JUMP JUMPDEST PUSH2 0xB25 JUMP JUMPDEST STOP JUMPDEST PUSH2 0x34C PUSH1 0x4 DUP1 CALLDATASIZE SUB DUP2 ADD SWAP1 PUSH2 0x347 SWAP2 SWAP1 PUSH2 0x1AEA JUMP JUMPDEST PUSH2 0xB44 JUMP JUMPDEST PUSH1 0x40 MLOAD PUSH2 0x359 SWAP2 SWAP1 PUSH2 0x1652 JUMP JUMPDEST PUSH1 0x40 MLOAD DUP1 SWAP2 SUB SWAP1 RETURN JUMPDEST PUSH2 0x37C PUSH1 0x4 DUP1 CALLDATASIZE SUB DUP2 ADD SWAP1 PUSH2 0x377 SWAP2 SWAP1 PUSH2 0x18AB JUMP JUMPDEST PUSH2 0xBD2 JUMP JUMPDEST STOP JUMPDEST PUSH0 PUSH4 0x1FFC9A7 PUSH1 0xE0 SHL DUP3 PUSH28 0xFFFFFFFFFFFFFFFFFFFFFFFFFFFFFFFFFFFFFFFFFFFFFFFFFFFFFFFF NOT AND EQ DUP1 PUSH2 0x3D8 JUMPI POP PUSH4 0x80AC58CD PUSH1 0xE0 SHL DUP3 PUSH28 0xFFFFFFFFFFFFFFFFFFFFFFFFFFFFFFFFFFFFFFFFFFFFFFFFFFFFFFFF NOT AND EQ JUMPDEST DUP1 PUSH2 0x408 JUMPI POP PUSH4 0x5B5E139F PUSH1 0xE0 SHL DUP3 PUSH28 0xFFFFFFFFFFFFFFFFFFFFFFFFFFFFFFFFFFFFFFFFFFFFFFFFFFFFFFFF NOT AND EQ JUMPDEST SWAP1 POP SWAP2 SWAP1 POP JUMP JUMPDEST PUSH1 0x60 PUSH1 0x2 DUP1 SLOAD PUSH2 0x41E SWAP1 PUSH2 0x1B55 JUMP JUMPDEST DUP1 PUSH1 0x1F ADD PUSH1 0x20 DUP1 SWAP2 DIV MUL PUSH1 0x20 ADD PUSH1 0x40 MLOAD SWAP1 DUP2 ADD PUSH1 0x40 MSTORE DUP1 SWAP3 SWAP2 SWAP1 DUP2 DUP2 MSTORE PUSH1 0x20 ADD DUP3 DUP1 SLOAD PUSH2 0x44A SWAP1 PUSH2 0x1B55 JUMP JUMPDEST DUP1 ISZERO PUSH2 0x495 JUMPI DUP1 PUSH1 0x1F LT PUSH2 0x46C JUMPI PUSH2 0x100 DUP1 DUP4 SLOAD DIV MUL DUP4 MSTORE SWAP2 PUSH1 0x20 ADD SWAP2 PUSH2 0x495 JUMP JUMPDEST DUP3 ADD SWAP2 SWAP1 PUSH0 MSTORE PUSH1 0x20 PUSH0 KECCAK256 SWAP1 JUMPDEST DUP2 SLOAD DUP2 MSTORE SWAP1 PUSH1 0x1 ADD SWAP1 PUSH1 0x20 ADD DUP1 DUP4 GT PUSH2 0x478 JUMPI DUP3 SWAP1 SUB PUSH1 0x1F AND DUP3 ADD SWAP2 JUMPDEST POP POP POP POP POP SWAP1 POP SWAP1 JUMP JUMPDEST PUSH0 PUSH2 0x4A9 DUP3 PUSH2 0xC56 JUMP JUMPDEST PUSH2 0x4BE JUMPI PUSH2 0x4BD PUSH4 0xCF4700E4 PUSH1 0xE0 SHL PUSH2 0xCC8 JUMP JUMPDEST JUMPDEST PUSH1 0x6 PUSH0 DUP4 DUP2 MSTORE PUSH1 0x20 ADD SWAP1 DUP2 MSTORE PUSH1 0x20 ADD PUSH0 KECCAK256 PUSH0 ADD PUSH0 SWAP1 SLOAD SWAP1 PUSH2 0x100 EXP SWAP1 DIV PUSH20 0xFFFFFFFFFFFFFFFFFFFFFFFFFFFFFFFFFFFFFFFF AND SWAP1 POP SWAP2 SWAP1 POP JUMP JUMPDEST PUSH2 0x504 DUP3 DUP3 PUSH1 0x1 PUSH2 0xCD0 JUMP JUMPDEST POP POP JUMP JUMPDEST PUSH0 PUSH2 0x511 PUSH2 0xDFA JUMP JUMPDEST PUSH1 0x1 SLOAD PUSH0 SLOAD SUB SUB SWAP1 POP SWAP1 JUMP JUMPDEST PUSH0 PUSH2 0x527 DUP3 PUSH2 0xDFE JUMP JUMPDEST SWAP1 POP PUSH20 0xFFFFFFFFFFFFFFFFFFFFFFFFFFFFFFFFFFFFFFFF DUP5 PUSH20 0xFFFFFFFFFFFFFFFFFFFFFFFFFFFFFFFFFFFFFFFF AND AND SWAP4 POP DUP4 PUSH20 0xFFFFFFFFFFFFFFFFFFFFFFFFFFFFFFFFFFFFFFFF AND DUP2 PUSH20 0xFFFFFFFFFFFFFFFFFFFFFFFFFFFFFFFFFFFFFFFF AND EQ PUSH2 0x59C JUMPI PUSH2 0x59B PUSH4 0xA1148100 PUSH1 0xE0 SHL PUSH2 0xCC8 JUMP JUMPDEST JUMPDEST PUSH0 DUP1 PUSH2 0x5A7 DUP5 PUSH2 0xEE0 JUMP JUMPDEST SWAP2 POP SWAP2 POP PUSH2 0x5BD DUP2 DUP8 PUSH2 0x5B8 PUSH2 0xF03 JUMP JUMPDEST PUSH2 0xF0A JUMP JUMPDEST PUSH2 0x5E8 JUMPI PUSH2 0x5D2 DUP7 PUSH2 0x5CD PUSH2 0xF03 JUMP JUMPDEST PUSH2 0xB44 JUMP JUMPDEST PUSH2 0x5E7 JUMPI PUSH2 0x5E6 PUSH4 0x59C896BE PUSH1 0xE0 SHL PUSH2 0xCC8 JUMP JUMPDEST JUMPDEST JUMPDEST PUSH2 0x5F5 DUP7 DUP7 DUP7 PUSH1 0x1 PUSH2 0xF4D JUMP JUMPDEST DUP1 ISZERO PUSH2 0x5FF JUMPI PUSH0 DUP3 SSTORE JUMPDEST PUSH1 0x5 PUSH0 DUP8 PUSH20 0xFFFFFFFFFFFFFFFFFFFFFFFFFFFFFFFFFFFFFFFF AND PUSH20 0xFFFFFFFFFFFFFFFFFFFFFFFFFFFFFFFFFFFFFFFF AND DUP2 MSTORE PUSH1 0x20 ADD SWAP1 DUP2 MSTORE PUSH1 0x20 ADD PUSH0 KECCAK256 PUSH0 DUP2 SLOAD PUSH1 0x1 SWAP1 SUB SWAP2 SWAP1 POP DUP2 SWAP1 SSTORE POP PUSH1 0x5 PUSH0 DUP7 PUSH20 0xFFFFFFFFFFFFFFFFFFFFFFFFFFFFFFFFFFFFFFFF AND PUSH20 0xFFFFFFFFFFFFFFFFFFFFFFFFFFFFFFFFFFFFFFFF AND DUP2 MSTORE PUSH1 0x20 ADD SWAP1 DUP2 MSTORE PUSH1 0x20 ADD PUSH0 KECCAK256 PUSH0 DUP2 SLOAD PUSH1 0x1 ADD SWAP2 SWAP1 POP DUP2 SWAP1 SSTORE POP PUSH2 0x6C7 DUP6 PUSH2 0x6A3 DUP9 DUP9 DUP8 PUSH2 0xF53 JUMP JUMPDEST PUSH29 0x200000000000000000000000000000000000000000000000000000000 OR PUSH2 0xF7A JUMP JUMPDEST PUSH1 0x4 PUSH0 DUP7 DUP2 MSTORE PUSH1 0x20 ADD SWAP1 DUP2 MSTORE PUSH1 0x20 ADD PUSH0 KECCAK256 DUP2 SWAP1 SSTORE POP PUSH0 PUSH29 0x200000000000000000000000000000000000000000000000000000000 DUP5 AND SUB PUSH2 0x743 JUMPI PUSH0 PUSH1 0x1 DUP6 ADD SWAP1 POP PUSH0 PUSH1 0x4 PUSH0 DUP4 DUP2 MSTORE PUSH1 0x20 ADD SWAP1 DUP2 MSTORE PUSH1 0x20 ADD PUSH0 KECCAK256 SLOAD SUB PUSH2 0x741 JUMPI PUSH0 SLOAD DUP2 EQ PUSH2 0x740 JUMPI DUP4 PUSH1 0x4 PUSH0 DUP4 DUP2 MSTORE PUSH1 0x20 ADD SWAP1 DUP2 MSTORE PUSH1 0x20 ADD PUSH0 KECCAK256 DUP2 SWAP1 SSTORE POP JUMPDEST JUMPDEST POP JUMPDEST PUSH0 PUSH20 0xFFFFFFFFFFFFFFFFFFFFFFFFFFFFFFFFFFFFFFFF DUP7 PUSH20 0xFFFFFFFFFFFFFFFFFFFFFFFFFFFFFFFFFFFFFFFF AND AND SWAP1 POP DUP5 DUP2 DUP9 PUSH32 0xDDF252AD1BE2C89B69C2B068FC378DAA952BA7F163C4A11628F55A4DF523B3EF PUSH0 DUP1 LOG4 PUSH0 DUP2 SUB PUSH2 0x7B2 JUMPI PUSH2 0x7B1 PUSH4 0xEA553B34 PUSH1 0xE0 SHL PUSH2 0xCC8 JUMP JUMPDEST JUMPDEST PUSH2 0x7BF DUP8 DUP8 DUP8 PUSH1 0x1 PUSH2 0xFA9 JUMP JUMPDEST POP POP POP POP POP POP POP JUMP JUMPDEST PUSH0 PUSH2 0x7D2 DUP3 PUSH2 0xDFE JUMP JUMPDEST SWAP1 POP SWAP2 SWAP1 POP JUMP JUMPDEST PUSH0 DUP1 PUSH20 0xFFFFFFFFFFFFFFFFFFFFFFFFFFFFFFFFFFFFFFFF AND DUP3 PUSH20 0xFFFFFFFFFFFFFFFFFFFFFFFFFFFFFFFFFFFFFFFF AND SUB PUSH2 0x81E JUMPI PUSH2 0x81D PUSH4 0x8F4EB604 PUSH1 0xE0 SHL PUSH2 0xCC8 JUMP JUMPDEST JUMPDEST PUSH8 0xFFFFFFFFFFFFFFFF PUSH1 0x5 PUSH0 DUP5 PUSH20 0xFFFFFFFFFFFFFFFFFFFFFFFFFFFFFFFFFFFFFFFF AND PUSH20 0xFFFFFFFFFFFFFFFFFFFFFFFFFFFFFFFFFFFFFFFF AND DUP2 MSTORE PUSH1 0x20 ADD SWAP1 DUP2 MSTORE PUSH1 0x20 ADD PUSH0 KECCAK256 SLOAD AND SWAP1 POP SWAP2 SWAP1 POP JUMP JUMPDEST PUSH2 0x875 PUSH2 0xFAF JUMP JUMPDEST PUSH2 0x87E PUSH0 PUSH2 0x1036 JUMP JUMPDEST JUMP JUMPDEST PUSH0 PUSH1 0x8 PUSH0 SWAP1 SLOAD SWAP1 PUSH2 0x100 EXP SWAP1 DIV PUSH20 0xFFFFFFFFFFFFFFFFFFFFFFFFFFFFFFFFFFFFFFFF AND SWAP1 POP SWAP1 JUMP JUMPDEST PUSH1 0x60 PUSH1 0x3 DUP1 SLOAD PUSH2 0x8B7 SWAP1 PUSH2 0x1B55 JUMP JUMPDEST DUP1 PUSH1 0x1F ADD PUSH1 0x20 DUP1 SWAP2 DIV MUL PUSH1 0x20 ADD PUSH1 0x40 MLOAD SWAP1 DUP2 ADD PUSH1 0x40 MSTORE DUP1 SWAP3 SWAP2 SWAP1 DUP2 DUP2 MSTORE PUSH1 0x20 ADD DUP3 DUP1 SLOAD PUSH2 0x8E3 SWAP1 PUSH2 0x1B55 JUMP JUMPDEST DUP1 ISZERO PUSH2 0x92E JUMPI DUP1 PUSH1 0x1F LT PUSH2 0x905 JUMPI PUSH2 0x100 DUP1 DUP4 SLOAD DIV MUL DUP4 MSTORE SWAP2 PUSH1 0x20 ADD SWAP2 PUSH2 0x92E JUMP JUMPDEST DUP3 ADD SWAP2 SWAP1 PUSH0 MSTORE PUSH1 0x20 PUSH0 KECCAK256 SWAP1 JUMPDEST DUP2 SLOAD DUP2 MSTORE SWAP1 PUSH1 0x1 ADD SWAP1 PUSH1 0x20 ADD DUP1 DUP4 GT PUSH2 0x911 JUMPI DUP3 SWAP1 SUB PUSH1 0x1F AND DUP3 ADD SWAP2 JUMPDEST POP POP POP POP POP SWAP1 POP SWAP1 JUMP JUMPDEST PUSH2 0x940 PUSH2 0xFAF JUMP JUMPDEST PUSH2 0x94A CALLER DUP3 PUSH2 0x10F9 JUMP JUMPDEST POP JUMP JUMPDEST DUP1 PUSH1 0x7 PUSH0 PUSH2 0x959 PUSH2 0xF03 JUMP JUMPDEST PUSH20 0xFFFFFFFFFFFFFFFFFFFFFFFFFFFFFFFFFFFFFFFF AND PUSH20 0xFFFFFFFFFFFFFFFFFFFFFFFFFFFFFFFFFFFFFFFF AND DUP2 MSTORE PUSH1 0x20 ADD SWAP1 DUP2 MSTORE PUSH1 0x20 ADD PUSH0 KECCAK256 PUSH0 DUP5 PUSH20 0xFFFFFFFFFFFFFFFFFFFFFFFFFFFFFFFFFFFFFFFF AND PUSH20 0xFFFFFFFFFFFFFFFFFFFFFFFFFFFFFFFFFFFFFFFF AND DUP2 MSTORE PUSH1 0x20 ADD SWAP1 DUP2 MSTORE PUSH1 0x20 ADD PUSH0 KECCAK256 PUSH0 PUSH2 0x100 EXP DUP2 SLOAD DUP2 PUSH1 0xFF MUL NOT AND SWAP1 DUP4 ISZERO ISZERO MUL OR SWAP1 SSTORE POP DUP2 PUSH20 0xFFFFFFFFFFFFFFFFFFFFFFFFFFFFFFFFFFFFFFFF AND PUSH2 0xA02 PUSH2 0xF03 JUMP JUMPDEST PUSH20 0xFFFFFFFFFFFFFFFFFFFFFFFFFFFFFFFFFFFFFFFF AND PUSH32 0x17307EAB39AB6107E8899845AD3D59BD9653F200F220920489CA2B5937696C31 DUP4 PUSH1 0x40 MLOAD PUSH2 0xA47 SWAP2 SWAP1 PUSH2 0x1652 JUMP JUMPDEST PUSH1 0x40 MLOAD DUP1 SWAP2 SUB SWAP1 LOG3 POP POP JUMP JUMPDEST PUSH2 0xA5E DUP5 DUP5 DUP5 PUSH2 0x51D JUMP JUMPDEST PUSH0 DUP4 PUSH20 0xFFFFFFFFFFFFFFFFFFFFFFFFFFFFFFFFFFFFFFFF AND EXTCODESIZE EQ PUSH2 0xA9E JUMPI PUSH2 0xA88 DUP5 DUP5 DUP5 DUP5 PUSH2 0x1116 JUMP JUMPDEST PUSH2 0xA9D JUMPI PUSH2 0xA9C PUSH4 0xD1A57ED6 PUSH1 0xE0 SHL PUSH2 0xCC8 JUMP JUMPDEST JUMPDEST JUMPDEST POP POP POP POP JUMP JUMPDEST PUSH1 0x60 PUSH2 0xAAF DUP3 PUSH2 0xC56 JUMP JUMPDEST PUSH2 0xAC4 JUMPI PUSH2 0xAC3 PUSH4 0xA14C4B50 PUSH1 0xE0 SHL PUSH2 0xCC8 JUMP JUMPDEST JUMPDEST PUSH0 PUSH2 0xACD PUSH2 0x1240 JUMP JUMPDEST SWAP1 POP PUSH0 DUP2 MLOAD SUB PUSH2 0xAEB JUMPI PUSH1 0x40 MLOAD DUP1 PUSH1 0x20 ADD PUSH1 0x40 MSTORE DUP1 PUSH0 DUP2 MSTORE POP PUSH2 0xB1D JUMP JUMPDEST PUSH2 0xAF3 PUSH2 0x1240 JUMP JUMPDEST PUSH2 0xAFC DUP5 PUSH2 0x1260 JUMP JUMPDEST PUSH1 0x40 MLOAD PUSH1 0x20 ADD PUSH2 0xB0D SWAP3 SWAP2 SWAP1 PUSH2 0x1C09 JUMP JUMPDEST PUSH1 0x40 MLOAD PUSH1 0x20 DUP2 DUP4 SUB SUB DUP2 MSTORE SWAP1 PUSH1 0x40 MSTORE JUMPDEST SWAP2 POP POP SWAP2 SWAP1 POP JUMP JUMPDEST PUSH2 0xB3F DUP4 DUP4 DUP4 PUSH1 0x40 MLOAD DUP1 PUSH1 0x20 ADD PUSH1 0x40 MSTORE DUP1 PUSH0 DUP2 MSTORE POP PUSH2 0xA53 JUMP JUMPDEST POP POP POP JUMP JUMPDEST PUSH0 PUSH1 0x7 PUSH0 DUP5 PUSH20 0xFFFFFFFFFFFFFFFFFFFFFFFFFFFFFFFFFFFFFFFF AND PUSH20 0xFFFFFFFFFFFFFFFFFFFFFFFFFFFFFFFFFFFFFFFF AND DUP2 MSTORE PUSH1 0x20 ADD SWAP1 DUP2 MSTORE PUSH1 0x20 ADD PUSH0 KECCAK256 PUSH0 DUP4 PUSH20 0xFFFFFFFFFFFFFFFFFFFFFFFFFFFFFFFFFFFFFFFF AND PUSH20 0xFFFFFFFFFFFFFFFFFFFFFFFFFFFFFFFFFFFFFFFF AND DUP2 MSTORE PUSH1 0x20 ADD SWAP1 DUP2 MSTORE PUSH1 0x20 ADD PUSH0 KECCAK256 PUSH0 SWAP1 SLOAD SWAP1 PUSH2 0x100 EXP SWAP1 DIV PUSH1 0xFF AND SWAP1 POP SWAP3 SWAP2 POP POP JUMP JUMPDEST PUSH2 0xBDA PUSH2 0xFAF JUMP JUMPDEST PUSH0 PUSH20 0xFFFFFFFFFFFFFFFFFFFFFFFFFFFFFFFFFFFFFFFF AND DUP2 PUSH20 0xFFFFFFFFFFFFFFFFFFFFFFFFFFFFFFFFFFFFFFFF AND SUB PUSH2 0xC4A JUMPI PUSH0 PUSH1 0x40 MLOAD PUSH32 0x1E4FBDF700000000000000000000000000000000000000000000000000000000 DUP2 MSTORE PUSH1 0x4 ADD PUSH2 0xC41 SWAP2 SWAP1 PUSH2 0x17B2 JUMP JUMPDEST PUSH1 0x40 MLOAD DUP1 SWAP2 SUB SWAP1 REVERT JUMPDEST PUSH2 0xC53 DUP2 PUSH2 0x1036 JUMP JUMPDEST POP JUMP JUMPDEST PUSH0 DUP2 PUSH2 0xC60 PUSH2 0xDFA JUMP JUMPDEST GT PUSH2 0xCC3 JUMPI PUSH0 SLOAD DUP3 LT ISZERO PUSH2 0xCC2 JUMPI PUSH0 JUMPDEST PUSH0 PUSH1 0x4 PUSH0 DUP6 DUP2 MSTORE PUSH1 0x20 ADD SWAP1 DUP2 MSTORE PUSH1 0x20 ADD PUSH0 KECCAK256 SLOAD SWAP2 POP DUP2 SUB PUSH2 0xC9C JUMPI DUP3 PUSH2 0xC95 SWAP1 PUSH2 0x1C64 JUMP JUMPDEST SWAP3 POP PUSH2 0xC70 JUMP JUMPDEST PUSH0 PUSH29 0x100000000000000000000000000000000000000000000000000000000 DUP3 AND EQ SWAP2 POP POP JUMPDEST JUMPDEST SWAP2 SWAP1 POP JUMP JUMPDEST DUP1 PUSH0 MSTORE PUSH1 0x4 PUSH0 REVERT JUMPDEST PUSH0 PUSH2 0xCDA DUP4 PUSH2 0x7C8 JUMP JUMPDEST SWAP1 POP DUP2 DUP1 ISZERO PUSH2 0xD1C JUMPI POP DUP1 PUSH20 0xFFFFFFFFFFFFFFFFFFFFFFFFFFFFFFFFFFFFFFFF AND PUSH2 0xD03 PUSH2 0xF03 JUMP JUMPDEST PUSH20 0xFFFFFFFFFFFFFFFFFFFFFFFFFFFFFFFFFFFFFFFF AND EQ ISZERO JUMPDEST ISZERO PUSH2 0xD48 JUMPI PUSH2 0xD32 DUP2 PUSH2 0xD2D PUSH2 0xF03 JUMP JUMPDEST PUSH2 0xB44 JUMP JUMPDEST PUSH2 0xD47 JUMPI PUSH2 0xD46 PUSH4 0xCFB3B942 PUSH1 0xE0 SHL PUSH2 0xCC8 JUMP JUMPDEST JUMPDEST JUMPDEST DUP4 PUSH1 0x6 PUSH0 DUP6 DUP2 MSTORE PUSH1 0x20 ADD SWAP1 DUP2 MSTORE PUSH1 0x20 ADD PUSH0 KECCAK256 PUSH0 ADD PUSH0 PUSH2 0x100 EXP DUP2 SLOAD DUP2 PUSH20 0xFFFFFFFFFFFFFFFFFFFFFFFFFFFFFFFFFFFFFFFF MUL NOT AND SWAP1 DUP4 PUSH20 0xFFFFFFFFFFFFFFFFFFFFFFFFFFFFFFFFFFFFFFFF AND MUL OR SWAP1 SSTORE POP DUP3 DUP5 PUSH20 0xFFFFFFFFFFFFFFFFFFFFFFFFFFFFFFFFFFFFFFFF AND DUP3 PUSH20 0xFFFFFFFFFFFFFFFFFFFFFFFFFFFFFFFFFFFFFFFF AND PUSH32 0x8C5BE1E5EBEC7D5BD14F71427D1E84F3DD0314C0F7B2291E5B200AC8C7C3B925 PUSH1 0x40 MLOAD PUSH1 0x40 MLOAD DUP1 SWAP2 SUB SWAP1 LOG4 POP POP POP POP JUMP JUMPDEST PUSH0 SWAP1 JUMP JUMPDEST PUSH0 DUP2 PUSH2 0xE08 PUSH2 0xDFA JUMP JUMPDEST GT PUSH2 0xECA JUMPI PUSH1 0x4 PUSH0 DUP4 DUP2 MSTORE PUSH1 0x20 ADD SWAP1 DUP2 MSTORE PUSH1 0x20 ADD PUSH0 KECCAK256 SLOAD SWAP1 POP PUSH0 DUP2 SUB PUSH2 0xEA2 JUMPI PUSH0 SLOAD DUP3 LT PUSH2 0xE41 JUMPI PUSH2 0xE40 PUSH4 0xDF2D9B42 PUSH1 0xE0 SHL PUSH2 0xCC8 JUMP JUMPDEST JUMPDEST JUMPDEST PUSH1 0x4 PUSH0 DUP4 PUSH1 0x1 SWAP1 SUB SWAP4 POP DUP4 DUP2 MSTORE PUSH1 0x20 ADD SWAP1 DUP2 MSTORE PUSH1 0x20 ADD PUSH0 KECCAK256 SLOAD SWAP1 POP PUSH0 DUP2 SUB ISZERO PUSH2 0xE9D JUMPI PUSH0 PUSH29 0x100000000000000000000000000000000000000000000000000000000 DUP3 AND SUB ISZERO PUSH2 0xEDB JUMPI PUSH2 0xE9C PUSH4 0xDF2D9B42 PUSH1 0xE0 SHL PUSH2 0xCC8 JUMP JUMPDEST JUMPDEST PUSH2 0xE42 JUMP JUMPDEST PUSH0 PUSH29 0x100000000000000000000000000000000000000000000000000000000 DUP3 AND SUB ISZERO PUSH2 0xEDB JUMPI JUMPDEST PUSH2 0xEDA PUSH4 0xDF2D9B42 PUSH1 0xE0 SHL PUSH2 0xCC8 JUMP JUMPDEST JUMPDEST SWAP2 SWAP1 POP JUMP JUMPDEST PUSH0 DUP1 PUSH0 PUSH1 0x6 PUSH0 DUP6 DUP2 MSTORE PUSH1 0x20 ADD SWAP1 DUP2 MSTORE PUSH1 0x20 ADD PUSH0 KECCAK256 SWAP1 POP DUP1 SWAP3 POP DUP3 SLOAD SWAP2 POP POP SWAP2 POP SWAP2 JUMP JUMPDEST PUSH0 CALLER SWAP1 POP SWAP1 JUMP JUMPDEST PUSH0 PUSH20 0xFFFFFFFFFFFFFFFFFFFFFFFFFFFFFFFFFFFFFFFF DUP4 AND SWAP3 POP PUSH20 0xFFFFFFFFFFFFFFFFFFFFFFFFFFFFFFFFFFFFFFFF DUP3 AND SWAP2 POP DUP4 DUP3 EQ DUP4 DUP4 EQ OR SWAP1 POP SWAP4 SWAP3 POP POP POP JUMP JUMPDEST POP POP POP POP JUMP JUMPDEST PUSH0 DUP1 PUSH1 0xE8 DUP4 SWAP1 SHR SWAP1 POP PUSH1 0xE8 PUSH2 0xF69 DUP7 DUP7 DUP5 PUSH2 0x13B9 JUMP JUMPDEST PUSH3 0xFFFFFF AND SWAP1 SHL SWAP2 POP POP SWAP4 SWAP3 POP POP POP JUMP JUMPDEST PUSH0 PUSH20 0xFFFFFFFFFFFFFFFFFFFFFFFFFFFFFFFFFFFFFFFF DUP4 AND SWAP3 POP TIMESTAMP DUP1 PUSH1 0x60 SHL SWAP1 POP DUP3 DUP2 OR DUP5 OR SWAP2 POP POP SWAP3 SWAP2 POP POP JUMP JUMPDEST POP POP POP POP JUMP JUMPDEST PUSH2 0xFB7 PUSH2 0x13C1 JUMP JUMPDEST PUSH20 0xFFFFFFFFFFFFFFFFFFFFFFFFFFFFFFFFFFFFFFFF AND PUSH2 0xFD5 PUSH2 0x880 JUMP JUMPDEST PUSH20 0xFFFFFFFFFFFFFFFFFFFFFFFFFFFFFFFFFFFFFFFF AND EQ PUSH2 0x1034 JUMPI PUSH2 0xFF8 PUSH2 0x13C1 JUMP JUMPDEST PUSH1 0x40 MLOAD PUSH32 0x118CDAA700000000000000000000000000000000000000000000000000000000 DUP2 MSTORE PUSH1 0x4 ADD PUSH2 0x102B SWAP2 SWAP1 PUSH2 0x17B2 JUMP JUMPDEST PUSH1 0x40 MLOAD DUP1 SWAP2 SUB SWAP1 REVERT JUMPDEST JUMP JUMPDEST PUSH0 PUSH1 0x8 PUSH0 SWAP1 SLOAD SWAP1 PUSH2 0x100 EXP SWAP1 DIV PUSH20 0xFFFFFFFFFFFFFFFFFFFFFFFFFFFFFFFFFFFFFFFF AND SWAP1 POP DUP2 PUSH1 0x8 PUSH0 PUSH2 0x100 EXP DUP2 SLOAD DUP2 PUSH20 0xFFFFFFFFFFFFFFFFFFFFFFFFFFFFFFFFFFFFFFFF MUL NOT AND SWAP1 DUP4 PUSH20 0xFFFFFFFFFFFFFFFFFFFFFFFFFFFFFFFFFFFFFFFF AND MUL OR SWAP1 SSTORE POP DUP2 PUSH20 0xFFFFFFFFFFFFFFFFFFFFFFFFFFFFFFFFFFFFFFFF AND DUP2 PUSH20 0xFFFFFFFFFFFFFFFFFFFFFFFFFFFFFFFFFFFFFFFF AND PUSH32 0x8BE0079C531659141344CD1FD0A4F28419497F9722A3DAAFE3B4186F6B6457E0 PUSH1 0x40 MLOAD PUSH1 0x40 MLOAD DUP1 SWAP2 SUB SWAP1 LOG3 POP POP JUMP JUMPDEST PUSH2 0x1112 DUP3 DUP3 PUSH1 0x40 MLOAD DUP1 PUSH1 0x20 ADD PUSH1 0x40 MSTORE DUP1 PUSH0 DUP2 MSTORE POP PUSH2 0x13C8 JUMP JUMPDEST POP POP JUMP JUMPDEST PUSH0 DUP4 PUSH20 0xFFFFFFFFFFFFFFFFFFFFFFFFFFFFFFFFFFFFFFFF AND PUSH4 0x150B7A02 PUSH2 0x113B PUSH2 0xF03 JUMP JUMPDEST DUP8 DUP7 DUP7 PUSH1 0x40 MLOAD DUP6 PUSH4 0xFFFFFFFF AND PUSH1 0xE0 SHL DUP2 MSTORE PUSH1 0x4 ADD PUSH2 0x115D SWAP5 SWAP4 SWAP3 SWAP2 SWAP1 PUSH2 0x1CDD JUMP JUMPDEST PUSH1 0x20 PUSH1 0x40 MLOAD DUP1 DUP4 SUB DUP2 PUSH0 DUP8 GAS CALL SWAP3 POP POP POP DUP1 ISZERO PUSH2 0x1198 JUMPI POP PUSH1 0x40 MLOAD RETURNDATASIZE PUSH1 0x1F NOT PUSH1 0x1F DUP3 ADD AND DUP3 ADD DUP1 PUSH1 0x40 MSTORE POP DUP2 ADD SWAP1 PUSH2 0x1195 SWAP2 SWAP1 PUSH2 0x1D3B JUMP JUMPDEST PUSH1 0x1 JUMPDEST PUSH2 0x11ED JUMPI RETURNDATASIZE DUP1 PUSH0 DUP2 EQ PUSH2 0x11C6 JUMPI PUSH1 0x40 MLOAD SWAP2 POP PUSH1 0x1F NOT PUSH1 0x3F RETURNDATASIZE ADD AND DUP3 ADD PUSH1 0x40 MSTORE RETURNDATASIZE DUP3 MSTORE RETURNDATASIZE PUSH0 PUSH1 0x20 DUP5 ADD RETURNDATACOPY PUSH2 0x11CB JUMP JUMPDEST PUSH1 0x60 SWAP2 POP JUMPDEST POP PUSH0 DUP2 MLOAD SUB PUSH2 0x11E5 JUMPI PUSH2 0x11E4 PUSH4 0xD1A57ED6 PUSH1 0xE0 SHL PUSH2 0xCC8 JUMP JUMPDEST JUMPDEST DUP1 MLOAD DUP2 PUSH1 0x20 ADD REVERT JUMPDEST PUSH4 0x150B7A02 PUSH1 0xE0 SHL PUSH28 0xFFFFFFFFFFFFFFFFFFFFFFFFFFFFFFFFFFFFFFFFFFFFFFFFFFFFFFFF NOT AND DUP2 PUSH28 0xFFFFFFFFFFFFFFFFFFFFFFFFFFFFFFFFFFFFFFFFFFFFFFFFFFFFFFFF NOT AND EQ SWAP2 POP POP SWAP5 SWAP4 POP POP POP POP JUMP JUMPDEST PUSH1 0x60 PUSH1 0x40 MLOAD DUP1 PUSH1 0x60 ADD PUSH1 0x40 MSTORE DUP1 PUSH1 0x36 DUP2 MSTORE PUSH1 0x20 ADD PUSH2 0x1ECE PUSH1 0x36 SWAP2 CODECOPY SWAP1 POP SWAP1 JUMP JUMPDEST PUSH1 0x60 PUSH0 DUP3 SUB PUSH2 0x12A6 JUMPI PUSH1 0x40 MLOAD DUP1 PUSH1 0x40 ADD PUSH1 0x40 MSTORE DUP1 PUSH1 0x1 DUP2 MSTORE PUSH1 0x20 ADD PUSH32 0x3000000000000000000000000000000000000000000000000000000000000000 DUP2 MSTORE POP SWAP1 POP PUSH2 0x13B4 JUMP JUMPDEST PUSH0 DUP3 SWAP1 POP PUSH0 JUMPDEST PUSH0 DUP3 EQ PUSH2 0x12D5 JUMPI DUP1 DUP1 PUSH2 0x12BE SWAP1 PUSH2 0x1D66 JUMP JUMPDEST SWAP2 POP POP PUSH1 0xA DUP3 PUSH2 0x12CE SWAP2 SWAP1 PUSH2 0x1DDA JUMP JUMPDEST SWAP2 POP PUSH2 0x12AC JUMP JUMPDEST PUSH0 DUP2 PUSH8 0xFFFFFFFFFFFFFFFF DUP2 GT ISZERO PUSH2 0x12F0 JUMPI PUSH2 0x12EF PUSH2 0x1946 JUMP JUMPDEST JUMPDEST PUSH1 0x40 MLOAD SWAP1 DUP1 DUP3 MSTORE DUP1 PUSH1 0x1F ADD PUSH1 0x1F NOT AND PUSH1 0x20 ADD DUP3 ADD PUSH1 0x40 MSTORE DUP1 ISZERO PUSH2 0x1322 JUMPI DUP2 PUSH1 0x20 ADD PUSH1 0x1 DUP3 MUL DUP1 CALLDATASIZE DUP4 CALLDATACOPY DUP1 DUP3 ADD SWAP2 POP POP SWAP1 POP JUMPDEST POP SWAP1 POP JUMPDEST PUSH0 DUP6 EQ PUSH2 0x13AD JUMPI PUSH1 0x1 DUP3 PUSH2 0x133A SWAP2 SWAP1 PUSH2 0x1E0A JUMP JUMPDEST SWAP2 POP PUSH1 0xA DUP6 PUSH2 0x1349 SWAP2 SWAP1 PUSH2 0x1E3D JUMP JUMPDEST PUSH1 0x30 PUSH2 0x1355 SWAP2 SWAP1 PUSH2 0x1E6D JUMP JUMPDEST PUSH1 0xF8 SHL DUP2 DUP4 DUP2 MLOAD DUP2 LT PUSH2 0x136B JUMPI PUSH2 0x136A PUSH2 0x1EA0 JUMP JUMPDEST JUMPDEST PUSH1 0x20 ADD ADD SWAP1 PUSH31 0xFFFFFFFFFFFFFFFFFFFFFFFFFFFFFFFFFFFFFFFFFFFFFFFFFFFFFFFFFFFFFF NOT AND SWAP1 DUP2 PUSH0 BYTE SWAP1 MSTORE8 POP PUSH1 0xA DUP6 PUSH2 0x13A6 SWAP2 SWAP1 PUSH2 0x1DDA JUMP JUMPDEST SWAP5 POP PUSH2 0x1326 JUMP JUMPDEST DUP1 SWAP4 POP POP POP POP JUMPDEST SWAP2 SWAP1 POP JUMP JUMPDEST PUSH0 SWAP4 SWAP3 POP POP POP JUMP JUMPDEST PUSH0 CALLER SWAP1 POP SWAP1 JUMP JUMPDEST PUSH2 0x13D2 DUP4 DUP4 PUSH2 0x1447 JUMP JUMPDEST PUSH0 DUP4 PUSH20 0xFFFFFFFFFFFFFFFFFFFFFFFFFFFFFFFFFFFFFFFF AND EXTCODESIZE EQ PUSH2 0x1442 JUMPI PUSH0 DUP1 SLOAD SWAP1 POP PUSH0 DUP4 DUP3 SUB SWAP1 POP JUMPDEST PUSH2 0x140E PUSH0 DUP7 DUP4 DUP1 PUSH1 0x1 ADD SWAP5 POP DUP7 PUSH2 0x1116 JUMP JUMPDEST PUSH2 0x1423 JUMPI PUSH2 0x1422 PUSH4 0xD1A57ED6 PUSH1 0xE0 SHL PUSH2 0xCC8 JUMP JUMPDEST JUMPDEST DUP2 DUP2 LT PUSH2 0x13FC JUMPI DUP2 PUSH0 SLOAD EQ PUSH2 0x143F JUMPI PUSH2 0x143E PUSH0 PUSH1 0xE0 SHL PUSH2 0xCC8 JUMP JUMPDEST JUMPDEST POP POP JUMPDEST POP POP POP JUMP JUMPDEST PUSH0 DUP1 SLOAD SWAP1 POP PUSH0 DUP3 SUB PUSH2 0x1464 JUMPI PUSH2 0x1463 PUSH4 0xB562E8DD PUSH1 0xE0 SHL PUSH2 0xCC8 JUMP JUMPDEST JUMPDEST PUSH2 0x1470 PUSH0 DUP5 DUP4 DUP6 PUSH2 0xF4D JUMP JUMPDEST PUSH2 0x148E DUP4 PUSH2 0x147F PUSH0 DUP7 PUSH0 PUSH2 0xF53 JUMP JUMPDEST PUSH2 0x1488 DUP6 PUSH2 0x1598 JUMP JUMPDEST OR PUSH2 0xF7A JUMP JUMPDEST PUSH1 0x4 PUSH0 DUP4 DUP2 MSTORE PUSH1 0x20 ADD SWAP1 DUP2 MSTORE PUSH1 0x20 ADD PUSH0 KECCAK256 DUP2 SWAP1 SSTORE POP PUSH1 0x1 PUSH1 0x40 PUSH1 0x1 SWAP1 SHL OR DUP3 MUL PUSH1 0x5 PUSH0 DUP6 PUSH20 0xFFFFFFFFFFFFFFFFFFFFFFFFFFFFFFFFFFFFFFFF AND PUSH20 0xFFFFFFFFFFFFFFFFFFFFFFFFFFFFFFFFFFFFFFFF AND DUP2 MSTORE PUSH1 0x20 ADD SWAP1 DUP2 MSTORE PUSH1 0x20 ADD PUSH0 KECCAK256 PUSH0 DUP3 DUP3 SLOAD ADD SWAP3 POP POP DUP2 SWAP1 SSTORE POP PUSH0 PUSH20 0xFFFFFFFFFFFFFFFFFFFFFFFFFFFFFFFFFFFFFFFF DUP5 PUSH20 0xFFFFFFFFFFFFFFFFFFFFFFFFFFFFFFFFFFFFFFFF AND AND SWAP1 POP PUSH0 DUP2 SUB PUSH2 0x153F JUMPI PUSH2 0x153E PUSH4 0x2E076300 PUSH1 0xE0 SHL PUSH2 0xCC8 JUMP JUMPDEST JUMPDEST PUSH0 DUP4 DUP4 ADD SWAP1 POP PUSH0 DUP4 SWAP1 POP JUMPDEST DUP1 DUP4 PUSH0 PUSH32 0xDDF252AD1BE2C89B69C2B068FC378DAA952BA7F163C4A11628F55A4DF523B3EF PUSH0 DUP1 LOG4 DUP2 DUP2 PUSH1 0x1 ADD SWAP2 POP DUP2 SUB PUSH2 0x154A JUMPI DUP2 PUSH0 DUP2 SWAP1 SSTORE POP POP POP POP PUSH2 0x1593 PUSH0 DUP5 DUP4 DUP6 PUSH2 0xFA9 JUMP JUMPDEST POP POP POP JUMP JUMPDEST PUSH0 PUSH1 0x1 DUP3 EQ PUSH1 0xE1 SHL SWAP1 POP SWAP2 SWAP1 POP JUMP JUMPDEST PUSH0 PUSH1 0x40 MLOAD SWAP1 POP SWAP1 JUMP JUMPDEST PUSH0 DUP1 REVERT JUMPDEST PUSH0 DUP1 REVERT JUMPDEST PUSH0 PUSH32 0xFFFFFFFF00000000000000000000000000000000000000000000000000000000 DUP3 AND SWAP1 POP SWAP2 SWAP1 POP JUMP JUMPDEST PUSH2 0x15EC DUP2 PUSH2 0x15B8 JUMP JUMPDEST DUP2 EQ PUSH2 0x15F6 JUMPI PUSH0 DUP1 REVERT JUMPDEST POP JUMP JUMPDEST PUSH0 DUP2 CALLDATALOAD SWAP1 POP PUSH2 0x1607 DUP2 PUSH2 0x15E3 JUMP JUMPDEST SWAP3 SWAP2 POP POP JUMP JUMPDEST PUSH0 PUSH1 0x20 DUP3 DUP5 SUB SLT ISZERO PUSH2 0x1622 JUMPI PUSH2 0x1621 PUSH2 0x15B0 JUMP JUMPDEST JUMPDEST PUSH0 PUSH2 0x162F DUP5 DUP3 DUP6 ADD PUSH2 0x15F9 JUMP JUMPDEST SWAP2 POP POP SWAP3 SWAP2 POP POP JUMP JUMPDEST PUSH0 DUP2 ISZERO ISZERO SWAP1 POP SWAP2 SWAP1 POP JUMP JUMPDEST PUSH2 0x164C DUP2 PUSH2 0x1638 JUMP JUMPDEST DUP3 MSTORE POP POP JUMP JUMPDEST PUSH0 PUSH1 0x20 DUP3 ADD SWAP1 POP PUSH2 0x1665 PUSH0 DUP4 ADD DUP5 PUSH2 0x1643 JUMP JUMPDEST SWAP3 SWAP2 POP POP JUMP JUMPDEST PUSH0 DUP2 MLOAD SWAP1 POP SWAP2 SWAP1 POP JUMP JUMPDEST PUSH0 DUP3 DUP3 MSTORE PUSH1 0x20 DUP3 ADD SWAP1 POP SWAP3 SWAP2 POP POP JUMP JUMPDEST PUSH0 JUMPDEST DUP4 DUP2 LT ISZERO PUSH2 0x16A2 JUMPI DUP1 DUP3 ADD MLOAD DUP2 DUP5 ADD MSTORE PUSH1 0x20 DUP2 ADD SWAP1 POP PUSH2 0x1687 JUMP JUMPDEST PUSH0 DUP5 DUP5 ADD MSTORE POP POP POP POP JUMP JUMPDEST PUSH0 PUSH1 0x1F NOT PUSH1 0x1F DUP4 ADD AND SWAP1 POP SWAP2 SWAP1 POP JUMP JUMPDEST PUSH0 PUSH2 0x16C7 DUP3 PUSH2 0x166B JUMP JUMPDEST PUSH2 0x16D1 DUP2 DUP6 PUSH2 0x1675 JUMP JUMPDEST SWAP4 POP PUSH2 0x16E1 DUP2 DUP6 PUSH1 0x20 DUP7 ADD PUSH2 0x1685 JUMP JUMPDEST PUSH2 0x16EA DUP2 PUSH2 0x16AD JUMP JUMPDEST DUP5 ADD SWAP2 POP POP SWAP3 SWAP2 POP POP JUMP JUMPDEST PUSH0 PUSH1 0x20 DUP3 ADD SWAP1 POP DUP2 DUP2 SUB PUSH0 DUP4 ADD MSTORE PUSH2 0x170D DUP2 DUP5 PUSH2 0x16BD JUMP JUMPDEST SWAP1 POP SWAP3 SWAP2 POP POP JUMP JUMPDEST PUSH0 DUP2 SWAP1 POP SWAP2 SWAP1 POP JUMP JUMPDEST PUSH2 0x1727 DUP2 PUSH2 0x1715 JUMP JUMPDEST DUP2 EQ PUSH2 0x1731 JUMPI PUSH0 DUP1 REVERT JUMPDEST POP JUMP JUMPDEST PUSH0 DUP2 CALLDATALOAD SWAP1 POP PUSH2 0x1742 DUP2 PUSH2 0x171E JUMP JUMPDEST SWAP3 SWAP2 POP POP JUMP JUMPDEST PUSH0 PUSH1 0x20 DUP3 DUP5 SUB SLT ISZERO PUSH2 0x175D JUMPI PUSH2 0x175C PUSH2 0x15B0 JUMP JUMPDEST JUMPDEST PUSH0 PUSH2 0x176A DUP5 DUP3 DUP6 ADD PUSH2 0x1734 JUMP JUMPDEST SWAP2 POP POP SWAP3 SWAP2 POP POP JUMP JUMPDEST PUSH0 PUSH20 0xFFFFFFFFFFFFFFFFFFFFFFFFFFFFFFFFFFFFFFFF DUP3 AND SWAP1 POP SWAP2 SWAP1 POP JUMP JUMPDEST PUSH0 PUSH2 0x179C DUP3 PUSH2 0x1773 JUMP JUMPDEST SWAP1 POP SWAP2 SWAP1 POP JUMP JUMPDEST PUSH2 0x17AC DUP2 PUSH2 0x1792 JUMP JUMPDEST DUP3 MSTORE POP POP JUMP JUMPDEST PUSH0 PUSH1 0x20 DUP3 ADD SWAP1 POP PUSH2 0x17C5 PUSH0 DUP4 ADD DUP5 PUSH2 0x17A3 JUMP JUMPDEST SWAP3 SWAP2 POP POP JUMP JUMPDEST PUSH2 0x17D4 DUP2 PUSH2 0x1792 JUMP JUMPDEST DUP2 EQ PUSH2 0x17DE JUMPI PUSH0 DUP1 REVERT JUMPDEST POP JUMP JUMPDEST PUSH0 DUP2 CALLDATALOAD SWAP1 POP PUSH2 0x17EF DUP2 PUSH2 0x17CB JUMP JUMPDEST SWAP3 SWAP2 POP POP JUMP JUMPDEST PUSH0 DUP1 PUSH1 0x40 DUP4 DUP6 SUB SLT ISZERO PUSH2 0x180B JUMPI PUSH2 0x180A PUSH2 0x15B0 JUMP JUMPDEST JUMPDEST PUSH0 PUSH2 0x1818 DUP6 DUP3 DUP7 ADD PUSH2 0x17E1 JUMP JUMPDEST SWAP3 POP POP PUSH1 0x20 PUSH2 0x1829 DUP6 DUP3 DUP7 ADD PUSH2 0x1734 JUMP JUMPDEST SWAP2 POP POP SWAP3 POP SWAP3 SWAP1 POP JUMP JUMPDEST PUSH2 0x183C DUP2 PUSH2 0x1715 JUMP JUMPDEST DUP3 MSTORE POP POP JUMP JUMPDEST PUSH0 PUSH1 0x20 DUP3 ADD SWAP1 POP PUSH2 0x1855 PUSH0 DUP4 ADD DUP5 PUSH2 0x1833 JUMP JUMPDEST SWAP3 SWAP2 POP POP JUMP JUMPDEST PUSH0 DUP1 PUSH0 PUSH1 0x60 DUP5 DUP7 SUB SLT ISZERO PUSH2 0x1872 JUMPI PUSH2 0x1871 PUSH2 0x15B0 JUMP JUMPDEST JUMPDEST PUSH0 PUSH2 0x187F DUP7 DUP3 DUP8 ADD PUSH2 0x17E1 JUMP JUMPDEST SWAP4 POP POP PUSH1 0x20 PUSH2 0x1890 DUP7 DUP3 DUP8 ADD PUSH2 0x17E1 JUMP JUMPDEST SWAP3 POP POP PUSH1 0x40 PUSH2 0x18A1 DUP7 DUP3 DUP8 ADD PUSH2 0x1734 JUMP JUMPDEST SWAP2 POP POP SWAP3 POP SWAP3 POP SWAP3 JUMP JUMPDEST PUSH0 PUSH1 0x20 DUP3 DUP5 SUB SLT ISZERO PUSH2 0x18C0 JUMPI PUSH2 0x18BF PUSH2 0x15B0 JUMP JUMPDEST JUMPDEST PUSH0 PUSH2 0x18CD DUP5 DUP3 DUP6 ADD PUSH2 0x17E1 JUMP JUMPDEST SWAP2 POP POP SWAP3 SWAP2 POP POP JUMP JUMPDEST PUSH2 0x18DF DUP2 PUSH2 0x1638 JUMP JUMPDEST DUP2 EQ PUSH2 0x18E9 JUMPI PUSH0 DUP1 REVERT JUMPDEST POP JUMP JUMPDEST PUSH0 DUP2 CALLDATALOAD SWAP1 POP PUSH2 0x18FA DUP2 PUSH2 0x18D6 JUMP JUMPDEST SWAP3 SWAP2 POP POP JUMP JUMPDEST PUSH0 DUP1 PUSH1 0x40 DUP4 DUP6 SUB SLT ISZERO PUSH2 0x1916 JUMPI PUSH2 0x1915 PUSH2 0x15B0 JUMP JUMPDEST JUMPDEST PUSH0 PUSH2 0x1923 DUP6 DUP3 DUP7 ADD PUSH2 0x17E1 JUMP JUMPDEST SWAP3 POP POP PUSH1 0x20 PUSH2 0x1934 DUP6 DUP3 DUP7 ADD PUSH2 0x18EC JUMP JUMPDEST SWAP2 POP POP SWAP3 POP SWAP3 SWAP1 POP JUMP JUMPDEST PUSH0 DUP1 REVERT JUMPDEST PUSH0 DUP1 REVERT JUMPDEST PUSH32 0x4E487B7100000000000000000000000000000000000000000000000000000000 PUSH0 MSTORE PUSH1 0x41 PUSH1 0x4 MSTORE PUSH1 0x24 PUSH0 REVERT JUMPDEST PUSH2 0x197C DUP3 PUSH2 0x16AD JUMP JUMPDEST DUP2 ADD DUP2 DUP2 LT PUSH8 0xFFFFFFFFFFFFFFFF DUP3 GT OR ISZERO PUSH2 0x199B JUMPI PUSH2 0x199A PUSH2 0x1946 JUMP JUMPDEST JUMPDEST DUP1 PUSH1 0x40 MSTORE POP POP POP JUMP JUMPDEST PUSH0 PUSH2 0x19AD PUSH2 0x15A7 JUMP JUMPDEST SWAP1 POP PUSH2 0x19B9 DUP3 DUP3 PUSH2 0x1973 JUMP JUMPDEST SWAP2 SWAP1 POP JUMP JUMPDEST PUSH0 PUSH8 0xFFFFFFFFFFFFFFFF DUP3 GT ISZERO PUSH2 0x19D8 JUMPI PUSH2 0x19D7 PUSH2 0x1946 JUMP JUMPDEST JUMPDEST PUSH2 0x19E1 DUP3 PUSH2 0x16AD JUMP JUMPDEST SWAP1 POP PUSH1 0x20 DUP2 ADD SWAP1 POP SWAP2 SWAP1 POP JUMP JUMPDEST DUP3 DUP2 DUP4 CALLDATACOPY PUSH0 DUP4 DUP4 ADD MSTORE POP POP POP JUMP JUMPDEST PUSH0 PUSH2 0x1A0E PUSH2 0x1A09 DUP5 PUSH2 0x19BE JUMP JUMPDEST PUSH2 0x19A4 JUMP JUMPDEST SWAP1 POP DUP3 DUP2 MSTORE PUSH1 0x20 DUP2 ADD DUP5 DUP5 DUP5 ADD GT ISZERO PUSH2 0x1A2A JUMPI PUSH2 0x1A29 PUSH2 0x1942 JUMP JUMPDEST JUMPDEST PUSH2 0x1A35 DUP5 DUP3 DUP6 PUSH2 0x19EE JUMP JUMPDEST POP SWAP4 SWAP3 POP POP POP JUMP JUMPDEST PUSH0 DUP3 PUSH1 0x1F DUP4 ADD SLT PUSH2 0x1A51 JUMPI PUSH2 0x1A50 PUSH2 0x193E JUMP JUMPDEST JUMPDEST DUP2 CALLDATALOAD PUSH2 0x1A61 DUP5 DUP3 PUSH1 0x20 DUP7 ADD PUSH2 0x19FC JUMP JUMPDEST SWAP2 POP POP SWAP3 SWAP2 POP POP JUMP JUMPDEST PUSH0 DUP1 PUSH0 DUP1 PUSH1 0x80 DUP6 DUP8 SUB SLT ISZERO PUSH2 0x1A82 JUMPI PUSH2 0x1A81 PUSH2 0x15B0 JUMP JUMPDEST JUMPDEST PUSH0 PUSH2 0x1A8F DUP8 DUP3 DUP9 ADD PUSH2 0x17E1 JUMP JUMPDEST SWAP5 POP POP PUSH1 0x20 PUSH2 0x1AA0 DUP8 DUP3 DUP9 ADD PUSH2 0x17E1 JUMP JUMPDEST SWAP4 POP POP PUSH1 0x40 PUSH2 0x1AB1 DUP8 DUP3 DUP9 ADD PUSH2 0x1734 JUMP JUMPDEST SWAP3 POP POP PUSH1 0x60 DUP6 ADD CALLDATALOAD PUSH8 0xFFFFFFFFFFFFFFFF DUP2 GT ISZERO PUSH2 0x1AD2 JUMPI PUSH2 0x1AD1 PUSH2 0x15B4 JUMP JUMPDEST JUMPDEST PUSH2 0x1ADE DUP8 DUP3 DUP9 ADD PUSH2 0x1A3D JUMP JUMPDEST SWAP2 POP POP SWAP3 SWAP6 SWAP2 SWAP5 POP SWAP3 POP JUMP JUMPDEST PUSH0 DUP1 PUSH1 0x40 DUP4 DUP6 SUB SLT ISZERO PUSH2 0x1B00 JUMPI PUSH2 0x1AFF PUSH2 0x15B0 JUMP JUMPDEST JUMPDEST PUSH0 PUSH2 0x1B0D DUP6 DUP3 DUP7 ADD PUSH2 0x17E1 JUMP JUMPDEST SWAP3 POP POP PUSH1 0x20 PUSH2 0x1B1E DUP6 DUP3 DUP7 ADD PUSH2 0x17E1 JUMP JUMPDEST SWAP2 POP POP SWAP3 POP SWAP3 SWAP1 POP JUMP JUMPDEST PUSH32 0x4E487B7100000000000000000000000000000000000000000000000000000000 PUSH0 MSTORE PUSH1 0x22 PUSH1 0x4 MSTORE PUSH1 0x24 PUSH0 REVERT JUMPDEST PUSH0 PUSH1 0x2 DUP3 DIV SWAP1 POP PUSH1 0x1 DUP3 AND DUP1 PUSH2 0x1B6C JUMPI PUSH1 0x7F DUP3 AND SWAP2 POP JUMPDEST PUSH1 0x20 DUP3 LT DUP2 SUB PUSH2 0x1B7F JUMPI PUSH2 0x1B7E PUSH2 0x1B28 JUMP JUMPDEST JUMPDEST POP SWAP2 SWAP1 POP JUMP JUMPDEST PUSH0 DUP2 SWAP1 POP SWAP3 SWAP2 POP POP JUMP JUMPDEST PUSH0 PUSH2 0x1B99 DUP3 PUSH2 0x166B JUMP JUMPDEST PUSH2 0x1BA3 DUP2 DUP6 PUSH2 0x1B85 JUMP JUMPDEST SWAP4 POP PUSH2 0x1BB3 DUP2 DUP6 PUSH1 0x20 DUP7 ADD PUSH2 0x1685 JUMP JUMPDEST DUP1 DUP5 ADD SWAP2 POP POP SWAP3 SWAP2 POP POP JUMP JUMPDEST PUSH32 0x2E6A736F6E000000000000000000000000000000000000000000000000000000 PUSH0 DUP3 ADD MSTORE POP JUMP JUMPDEST PUSH0 PUSH2 0x1BF3 PUSH1 0x5 DUP4 PUSH2 0x1B85 JUMP JUMPDEST SWAP2 POP PUSH2 0x1BFE DUP3 PUSH2 0x1BBF JUMP JUMPDEST PUSH1 0x5 DUP3 ADD SWAP1 POP SWAP2 SWAP1 POP JUMP JUMPDEST PUSH0 PUSH2 0x1C14 DUP3 DUP6 PUSH2 0x1B8F JUMP JUMPDEST SWAP2 POP PUSH2 0x1C20 DUP3 DUP5 PUSH2 0x1B8F JUMP JUMPDEST SWAP2 POP PUSH2 0x1C2B DUP3 PUSH2 0x1BE7 JUMP JUMPDEST SWAP2 POP DUP2 SWAP1 POP SWAP4 SWAP3 POP POP POP JUMP JUMPDEST PUSH32 0x4E487B7100000000000000000000000000000000000000000000000000000000 PUSH0 MSTORE PUSH1 0x11 PUSH1 0x4 MSTORE PUSH1 0x24 PUSH0 REVERT JUMPDEST PUSH0 PUSH2 0x1C6E DUP3 PUSH2 0x1715 JUMP JUMPDEST SWAP2 POP PUSH0 DUP3 SUB PUSH2 0x1C80 JUMPI PUSH2 0x1C7F PUSH2 0x1C37 JUMP JUMPDEST JUMPDEST PUSH1 0x1 DUP3 SUB SWAP1 POP SWAP2 SWAP1 POP JUMP JUMPDEST PUSH0 DUP2 MLOAD SWAP1 POP SWAP2 SWAP1 POP JUMP JUMPDEST PUSH0 DUP3 DUP3 MSTORE PUSH1 0x20 DUP3 ADD SWAP1 POP SWAP3 SWAP2 POP POP JUMP JUMPDEST PUSH0 PUSH2 0x1CAF DUP3 PUSH2 0x1C8B JUMP JUMPDEST PUSH2 0x1CB9 DUP2 DUP6 PUSH2 0x1C95 JUMP JUMPDEST SWAP4 POP PUSH2 0x1CC9 DUP2 DUP6 PUSH1 0x20 DUP7 ADD PUSH2 0x1685 JUMP JUMPDEST PUSH2 0x1CD2 DUP2 PUSH2 0x16AD JUMP JUMPDEST DUP5 ADD SWAP2 POP POP SWAP3 SWAP2 POP POP JUMP JUMPDEST PUSH0 PUSH1 0x80 DUP3 ADD SWAP1 POP PUSH2 0x1CF0 PUSH0 DUP4 ADD DUP8 PUSH2 0x17A3 JUMP JUMPDEST PUSH2 0x1CFD PUSH1 0x20 DUP4 ADD DUP7 PUSH2 0x17A3 JUMP JUMPDEST PUSH2 0x1D0A PUSH1 0x40 DUP4 ADD DUP6 PUSH2 0x1833 JUMP JUMPDEST DUP2 DUP2 SUB PUSH1 0x60 DUP4 ADD MSTORE PUSH2 0x1D1C DUP2 DUP5 PUSH2 0x1CA5 JUMP JUMPDEST SWAP1 POP SWAP6 SWAP5 POP POP POP POP POP JUMP JUMPDEST PUSH0 DUP2 MLOAD SWAP1 POP PUSH2 0x1D35 DUP2 PUSH2 0x15E3 JUMP JUMPDEST SWAP3 SWAP2 POP POP JUMP JUMPDEST PUSH0 PUSH1 0x20 DUP3 DUP5 SUB SLT ISZERO PUSH2 0x1D50 JUMPI PUSH2 0x1D4F PUSH2 0x15B0 JUMP JUMPDEST JUMPDEST PUSH0 PUSH2 0x1D5D DUP5 DUP3 DUP6 ADD PUSH2 0x1D27 JUMP JUMPDEST SWAP2 POP POP SWAP3 SWAP2 POP POP JUMP JUMPDEST PUSH0 PUSH2 0x1D70 DUP3 PUSH2 0x1715 JUMP JUMPDEST SWAP2 POP PUSH32 0xFFFFFFFFFFFFFFFFFFFFFFFFFFFFFFFFFFFFFFFFFFFFFFFFFFFFFFFFFFFFFFFF DUP3 SUB PUSH2 0x1DA2 JUMPI PUSH2 0x1DA1 PUSH2 0x1C37 JUMP JUMPDEST JUMPDEST PUSH1 0x1 DUP3 ADD SWAP1 POP SWAP2 SWAP1 POP JUMP JUMPDEST PUSH32 0x4E487B7100000000000000000000000000000000000000000000000000000000 PUSH0 MSTORE PUSH1 0x12 PUSH1 0x4 MSTORE PUSH1 0x24 PUSH0 REVERT JUMPDEST PUSH0 PUSH2 0x1DE4 DUP3 PUSH2 0x1715 JUMP JUMPDEST SWAP2 POP PUSH2 0x1DEF DUP4 PUSH2 0x1715 JUMP JUMPDEST SWAP3 POP DUP3 PUSH2 0x1DFF JUMPI PUSH2 0x1DFE PUSH2 0x1DAD JUMP JUMPDEST JUMPDEST DUP3 DUP3 DIV SWAP1 POP SWAP3 SWAP2 POP POP JUMP JUMPDEST PUSH0 PUSH2 0x1E14 DUP3 PUSH2 0x1715 JUMP JUMPDEST SWAP2 POP PUSH2 0x1E1F DUP4 PUSH2 0x1715 JUMP JUMPDEST SWAP3 POP DUP3 DUP3 SUB SWAP1 POP DUP2 DUP2 GT ISZERO PUSH2 0x1E37 JUMPI PUSH2 0x1E36 PUSH2 0x1C37 JUMP JUMPDEST JUMPDEST SWAP3 SWAP2 POP POP JUMP JUMPDEST PUSH0 PUSH2 0x1E47 DUP3 PUSH2 0x1715 JUMP JUMPDEST SWAP2 POP PUSH2 0x1E52 DUP4 PUSH2 0x1715 JUMP JUMPDEST SWAP3 POP DUP3 PUSH2 0x1E62 JUMPI PUSH2 0x1E61 PUSH2 0x1DAD JUMP JUMPDEST JUMPDEST DUP3 DUP3 MOD SWAP1 POP SWAP3 SWAP2 POP POP JUMP JUMPDEST PUSH0 PUSH2 0x1E77 DUP3 PUSH2 0x1715 JUMP JUMPDEST SWAP2 POP PUSH2 0x1E82 DUP4 PUSH2 0x1715 JUMP JUMPDEST SWAP3 POP DUP3 DUP3 ADD SWAP1 POP DUP1 DUP3 GT ISZERO PUSH2 0x1E9A JUMPI PUSH2 0x1E99 PUSH2 0x1C37 JUMP JUMPDEST JUMPDEST SWAP3 SWAP2 POP POP JUMP JUMPDEST PUSH32 0x4E487B7100000000000000000000000000000000000000000000000000000000 PUSH0 MSTORE PUSH1 0x32 PUSH1 0x4 MSTORE PUSH1 0x24 PUSH0 REVERT INVALID PUSH10 0x7066733A2F2F516D6163 CODESIZE CODECOPY PUSH20 0x5A545347764B6B795961327672786452616B5052 GASLIMIT PUSH2 0x4746 0x4A MSTORE8 0x4E 0x4A MSTORE MSTORE JUMPI PUSH6 0x747A544C5154 0x4D 0x2F LOG2 PUSH5 0x6970667358 0x22 SLT KECCAK256 0xE5 DUP13 0xD9 PUSH21 0xB2FD045BD84336A24505DC18C9DDDA7F181E4529CB 0xD1 DUP12 0xD4 0xAD 0x2D NUMBER 0x5D PUSH5 0x736F6C6343 STOP ADDMOD ISZERO STOP CALLER "
				},
				"gasEstimates": {
					"creation": {
						"codeDepositCost": "1598600",
						"executionCost": "infinite",
						"totalCost": "infinite"
					},
					"external": {
						"approve(address,uint256)": "infinite",
						"balanceOf(address)": "2959",
						"getApproved(uint256)": "infinite",
						"isApprovedForAll(address,address)": "infinite",
						"mint(uint256)": "infinite",
						"name()": "infinite",
						"owner()": "2538",
						"ownerOf(uint256)": "infinite",
						"renounceOwnership()": "infinite",
						"safetransferfrom(address,address,uint256)": "infinite",
						"safetransferfrom(address,address,uint256,bytes)": "infinite",
						"setApprovalForAll(address,bool)": "infinite",
						"supportsInterface(bytes4)": "736",
						"symbol()": "infinite",
						"tokenURI(uint256)": "infinite",
						"totalSupply()": "4592",
						"transferFrom(address,address,uint256)": "infinite",
						"transferOwnership(address)": "infinite"
					}
				},
				"methodIdentifiers": {
					"approve(address,uint256)": "095ea7b3",
					"balanceOf(address)": "70a08231",
					"getApproved(uint256)": "081812fc",
					"isApprovedForAll(address,address)": "e985e9c5",
					"mint(uint256)": "a0712d68",
					"name()": "06fdde03",
					"owner()": "8da5cb5b",
					"ownerOf(uint256)": "6352211e",
					"renounceOwnership()": "715018a6",
					"safetransferfrom(address,address,uint256)": "d94b34b6",
					"safetransferfrom(address,address,uint256,bytes)": "c772ded1",
					"setApprovalForAll(address,bool)": "a22cb465",
					"supportsInterface(bytes4)": "01ffc9a7",
					"symbol()": "95d89b41",
					"tokenURI(uint256)": "c87b56dd",
					"totalSupply()": "18160ddd",
					"transferFrom(address,address,uint256)": "23b872dd",
					"transferOwnership(address)": "f2fde38b"
				}
			},
			"storageLayout": {
				"storage": [
					{
						"astId": 452,
						"contract": "erc721A.sol:E721A",
						"label": "_currentIndex",
						"offset": 0,
						"slot": "0",
						"type": "t_uint256"
					},
					{
						"astId": 454,
						"contract": "erc721A.sol:E721A",
						"label": "_burnCounter",
						"offset": 0,
						"slot": "1",
						"type": "t_uint256"
					},
					{
						"astId": 456,
						"contract": "erc721A.sol:E721A",
						"label": "_name",
						"offset": 0,
						"slot": "2",
						"type": "t_string_storage"
					},
					{
						"astId": 458,
						"contract": "erc721A.sol:E721A",
						"label": "_symbol",
						"offset": 0,
						"slot": "3",
						"type": "t_string_storage"
					},
					{
						"astId": 462,
						"contract": "erc721A.sol:E721A",
						"label": "_packedOwnerships",
						"offset": 0,
						"slot": "4",
						"type": "t_mapping(t_uint256,t_uint256)"
					},
					{
						"astId": 466,
						"contract": "erc721A.sol:E721A",
						"label": "_packedAddressData",
						"offset": 0,
						"slot": "5",
						"type": "t_mapping(t_address,t_uint256)"
					},
					{
						"astId": 471,
						"contract": "erc721A.sol:E721A",
						"label": "_tokenApprovals",
						"offset": 0,
						"slot": "6",
						"type": "t_mapping(t_uint256,t_struct(TokenApprovalRef)384_storage)"
					},
					{
						"astId": 477,
						"contract": "erc721A.sol:E721A",
						"label": "_operatorApprovals",
						"offset": 0,
						"slot": "7",
						"type": "t_mapping(t_address,t_mapping(t_address,t_bool))"
					},
					{
						"astId": 18,
						"contract": "erc721A.sol:E721A",
						"label": "_owner",
						"offset": 0,
						"slot": "8",
						"type": "t_address"
					}
				],
				"types": {
					"t_address": {
						"encoding": "inplace",
						"label": "address",
						"numberOfBytes": "20"
					},
					"t_bool": {
						"encoding": "inplace",
						"label": "bool",
						"numberOfBytes": "1"
					},
					"t_mapping(t_address,t_bool)": {
						"encoding": "mapping",
						"key": "t_address",
						"label": "mapping(address => bool)",
						"numberOfBytes": "32",
						"value": "t_bool"
					},
					"t_mapping(t_address,t_mapping(t_address,t_bool))": {
						"encoding": "mapping",
						"key": "t_address",
						"label": "mapping(address => mapping(address => bool))",
						"numberOfBytes": "32",
						"value": "t_mapping(t_address,t_bool)"
					},
					"t_mapping(t_address,t_uint256)": {
						"encoding": "mapping",
						"key": "t_address",
						"label": "mapping(address => uint256)",
						"numberOfBytes": "32",
						"value": "t_uint256"
					},
					"t_mapping(t_uint256,t_struct(TokenApprovalRef)384_storage)": {
						"encoding": "mapping",
						"key": "t_uint256",
						"label": "mapping(uint256 => struct ERC721A.TokenApprovalRef)",
						"numberOfBytes": "32",
						"value": "t_struct(TokenApprovalRef)384_storage"
					},
					"t_mapping(t_uint256,t_uint256)": {
						"encoding": "mapping",
						"key": "t_uint256",
						"label": "mapping(uint256 => uint256)",
						"numberOfBytes": "32",
						"value": "t_uint256"
					},
					"t_string_storage": {
						"encoding": "bytes",
						"label": "string",
						"numberOfBytes": "32"
					},
					"t_struct(TokenApprovalRef)384_storage": {
						"encoding": "inplace",
						"label": "struct ERC721A.TokenApprovalRef",
						"members": [
							{
								"astId": 383,
								"contract": "erc721A.sol:E721A",
								"label": "value",
								"offset": 0,
								"slot": "0",
								"type": "t_address"
							}
						],
						"numberOfBytes": "32"
					},
					"t_uint256": {
						"encoding": "inplace",
						"label": "uint256",
						"numberOfBytes": "32"
					}
				}
			},
			"userdoc": {
				"errors": {
					"ApprovalCallerNotOwnerNorApproved()": [
						{
							"notice": "The caller must own the token or be an approved operator."
						}
					],
					"ApprovalQueryForNonexistentToken()": [
						{
							"notice": "The token does not exist."
						}
					],
					"BalanceQueryForZeroAddress()": [
						{
							"notice": "Cannot query the balance for the zero address."
						}
					],
					"MintERC2309QuantityExceedsLimit()": [
						{
							"notice": "The `quantity` minted with ERC2309 exceeds the safety limit."
						}
					],
					"MintToZeroAddress()": [
						{
							"notice": "Cannot mint to the zero address."
						}
					],
					"MintZeroQuantity()": [
						{
							"notice": "The quantity of tokens minted must be more than zero."
						}
					],
					"OwnerQueryForNonexistentToken()": [
						{
							"notice": "The token does not exist."
						}
					],
					"OwnershipNotInitializedForExtraData()": [
						{
							"notice": "The `extraData` cannot be set on an unintialized ownership slot."
						}
					],
					"TransferCallerNotOwnerNorApproved()": [
						{
							"notice": "The caller must own the token or be an approved operator."
						}
					],
					"TransferFromIncorrectOwner()": [
						{
							"notice": "The token must be owned by `from`."
						}
					],
					"TransferToNonERC721ReceiverImplementer()": [
						{
							"notice": "Cannot safely transfer to a contract that does not implement the ERC721Receiver interface."
						}
					],
					"TransferToZeroAddress()": [
						{
							"notice": "Cannot transfer to the zero address."
						}
					],
					"URIQueryForNonexistentToken()": [
						{
							"notice": "The token does not exist."
						}
					]
				},
				"kind": "user",
				"methods": {},
				"version": 1
			}
		}
	}
}