{
	"erc721A.sol": {
		"ERC721A": {
			"abi": [
				{
					"inputs": [
						{
							"internalType": "string",
							"name": "name_",
							"type": "string"
						},
						{
							"internalType": "string",
							"name": "symbol_",
							"type": "string"
						}
					],
					"stateMutability": "nonpayable",
					"type": "constructor"
				},
				{
					"inputs": [],
					"name": "ApprovalCallerNotOwnerNorApproved",
					"type": "error"
				},
				{
					"inputs": [],
					"name": "ApprovalQueryForNonexistentToken",
					"type": "error"
				},
				{
					"inputs": [],
					"name": "BalanceQueryForZeroAddress",
					"type": "error"
				},
				{
					"inputs": [],
					"name": "MintERC2309QuantityExceedsLimit",
					"type": "error"
				},
				{
					"inputs": [],
					"name": "MintToZeroAddress",
					"type": "error"
				},
				{
					"inputs": [],
					"name": "MintZeroQuantity",
					"type": "error"
				},
				{
					"inputs": [],
					"name": "OwnerQueryForNonexistentToken",
					"type": "error"
				},
				{
					"inputs": [],
					"name": "OwnershipNotInitializedForExtraData",
					"type": "error"
				},
				{
					"inputs": [],
					"name": "TransferCallerNotOwnerNorApproved",
					"type": "error"
				},
				{
					"inputs": [],
					"name": "TransferFromIncorrectOwner",
					"type": "error"
				},
				{
					"inputs": [],
					"name": "TransferToNonERC721ReceiverImplementer",
					"type": "error"
				},
				{
					"inputs": [],
					"name": "TransferToZeroAddress",
					"type": "error"
				},
				{
					"inputs": [],
					"name": "URIQueryForNonexistentToken",
					"type": "error"
				},
				{
					"anonymous": false,
					"inputs": [
						{
							"indexed": true,
							"internalType": "address",
							"name": "owner",
							"type": "address"
						},
						{
							"indexed": true,
							"internalType": "address",
							"name": "approved",
							"type": "address"
						},
						{
							"indexed": true,
							"internalType": "uint256",
							"name": "tokenId",
							"type": "uint256"
						}
					],
					"name": "Approval",
					"type": "event"
				},
				{
					"anonymous": false,
					"inputs": [
						{
							"indexed": true,
							"internalType": "address",
							"name": "owner",
							"type": "address"
						},
						{
							"indexed": true,
							"internalType": "address",
							"name": "operator",
							"type": "address"
						},
						{
							"indexed": false,
							"internalType": "bool",
							"name": "approved",
							"type": "bool"
						}
					],
					"name": "ApprovalForAll",
					"type": "event"
				},
				{
					"anonymous": false,
					"inputs": [
						{
							"indexed": true,
							"internalType": "uint256",
							"name": "fromTokenId",
							"type": "uint256"
						},
						{
							"indexed": false,
							"internalType": "uint256",
							"name": "toTokenId",
							"type": "uint256"
						},
						{
							"indexed": true,
							"internalType": "address",
							"name": "from",
							"type": "address"
						},
						{
							"indexed": true,
							"internalType": "address",
							"name": "to",
							"type": "address"
						}
					],
					"name": "ConsecutiveTransfer",
					"type": "event"
				},
				{
					"anonymous": false,
					"inputs": [
						{
							"indexed": true,
							"internalType": "address",
							"name": "from",
							"type": "address"
						},
						{
							"indexed": true,
							"internalType": "address",
							"name": "to",
							"type": "address"
						},
						{
							"indexed": true,
							"internalType": "uint256",
							"name": "tokenId",
							"type": "uint256"
						}
					],
					"name": "Transfer",
					"type": "event"
				},
				{
					"inputs": [
						{
							"internalType": "address",
							"name": "to",
							"type": "address"
						},
						{
							"internalType": "uint256",
							"name": "tokenId",
							"type": "uint256"
						}
					],
					"name": "approve",
					"outputs": [],
					"stateMutability": "nonpayable",
					"type": "function"
				},
				{
					"inputs": [
						{
							"internalType": "address",
							"name": "owner",
							"type": "address"
						}
					],
					"name": "balanceOf",
					"outputs": [
						{
							"internalType": "uint256",
							"name": "",
							"type": "uint256"
						}
					],
					"stateMutability": "view",
					"type": "function"
				},
				{
					"inputs": [
						{
							"internalType": "uint256",
							"name": "tokenId",
							"type": "uint256"
						}
					],
					"name": "getApproved",
					"outputs": [
						{
							"internalType": "address",
							"name": "",
							"type": "address"
						}
					],
					"stateMutability": "view",
					"type": "function"
				},
				{
					"inputs": [
						{
							"internalType": "address",
							"name": "owner",
							"type": "address"
						},
						{
							"internalType": "address",
							"name": "operator",
							"type": "address"
						}
					],
					"name": "isApprovedForAll",
					"outputs": [
						{
							"internalType": "bool",
							"name": "",
							"type": "bool"
						}
					],
					"stateMutability": "view",
					"type": "function"
				},
				{
					"inputs": [],
					"name": "name",
					"outputs": [
						{
							"internalType": "string",
							"name": "",
							"type": "string"
						}
					],
					"stateMutability": "view",
					"type": "function"
				},
				{
					"inputs": [
						{
							"internalType": "uint256",
							"name": "tokenId",
							"type": "uint256"
						}
					],
					"name": "ownerOf",
					"outputs": [
						{
							"internalType": "address",
							"name": "",
							"type": "address"
						}
					],
					"stateMutability": "view",
					"type": "function"
				},
				{
					"inputs": [
						{
							"internalType": "address",
							"name": "from",
							"type": "address"
						},
						{
							"internalType": "address",
							"name": "to",
							"type": "address"
						},
						{
							"internalType": "uint256",
							"name": "tokenId",
							"type": "uint256"
						},
						{
							"internalType": "bytes",
							"name": "data",
							"type": "bytes"
						}
					],
					"name": "safetransferfrom",
					"outputs": [],
					"stateMutability": "nonpayable",
					"type": "function"
				},
				{
					"inputs": [
						{
							"internalType": "address",
							"name": "from",
							"type": "address"
						},
						{
							"internalType": "address",
							"name": "to",
							"type": "address"
						},
						{
							"internalType": "uint256",
							"name": "tokenId",
							"type": "uint256"
						}
					],
					"name": "safetransferfrom",
					"outputs": [],
					"stateMutability": "nonpayable",
					"type": "function"
				},
				{
					"inputs": [
						{
							"internalType": "address",
							"name": "operator",
							"type": "address"
						},
						{
							"internalType": "bool",
							"name": "approved",
							"type": "bool"
						}
					],
					"name": "setApprovalForAll",
					"outputs": [],
					"stateMutability": "nonpayable",
					"type": "function"
				},
				{
					"inputs": [
						{
							"internalType": "bytes4",
							"name": "interfaceId",
							"type": "bytes4"
						}
					],
					"name": "supportsInterface",
					"outputs": [
						{
							"internalType": "bool",
							"name": "",
							"type": "bool"
						}
					],
					"stateMutability": "view",
					"type": "function"
				},
				{
					"inputs": [],
					"name": "symbol",
					"outputs": [
						{
							"internalType": "string",
							"name": "",
							"type": "string"
						}
					],
					"stateMutability": "view",
					"type": "function"
				},
				{
					"inputs": [
						{
							"internalType": "uint256",
							"name": "tokenId",
							"type": "uint256"
						}
					],
					"name": "tokenURI",
					"outputs": [
						{
							"internalType": "string",
							"name": "",
							"type": "string"
						}
					],
					"stateMutability": "view",
					"type": "function"
				},
				{
					"inputs": [],
					"name": "totalSupply",
					"outputs": [
						{
							"internalType": "uint256",
							"name": "",
							"type": "uint256"
						}
					],
					"stateMutability": "view",
					"type": "function"
				},
				{
					"inputs": [
						{
							"internalType": "address",
							"name": "from",
							"type": "address"
						},
						{
							"internalType": "address",
							"name": "to",
							"type": "address"
						},
						{
							"internalType": "uint256",
							"name": "tokenId",
							"type": "uint256"
						}
					],
					"name": "transferFrom",
					"outputs": [],
					"stateMutability": "nonpayable",
					"type": "function"
				}
			],
			"devdoc": {
				"details": "Implementation of the [ERC721](https://eips.ethereum.org/EIPS/eip-721) Non-Fungible Token Standard, including the Metadata extension. Optimized for lower gas during batch mints. Token IDs are minted in sequential order (e.g. 0, 1, 2, 3, ...) starting from `_startTokenId()`. Assumptions: - An owner cannot have more than 2**64 - 1 (max value of uint64) of supply. - The maximum token ID cannot exceed 2**256 - 1 (max value of uint256).",
				"events": {
					"Approval(address,address,uint256)": {
						"details": "Emitted when `owner` enables `approved` to manage the `tokenId` token."
					},
					"ApprovalForAll(address,address,bool)": {
						"details": "Emitted when `owner` enables or disables (`approved`) `operator` to manage all of its assets."
					},
					"ConsecutiveTransfer(uint256,uint256,address,address)": {
						"details": "Emitted when tokens in `fromTokenId` to `toTokenId` (inclusive) is transferred from `from` to `to`, as defined in the [ERC2309](https://eips.ethereum.org/EIPS/eip-2309) standard. See {_mintERC2309} for more details."
					},
					"Transfer(address,address,uint256)": {
						"details": "Emitted when `tokenId` token is transferred from `from` to `to`."
					}
				},
				"kind": "dev",
				"methods": {
					"approve(address,uint256)": {
						"details": "Gives permission to `to` to transfer `tokenId` token to another account. See {ERC721A-_approve}. Requirements: - The caller must own the token or be an approved operator."
					},
					"balanceOf(address)": {
						"details": "Returns the number of tokens in `owner`'s account."
					},
					"getApproved(uint256)": {
						"details": "Returns the account approved for `tokenId` token. Requirements: - `tokenId` must exist."
					},
					"isApprovedForAll(address,address)": {
						"details": "Returns if the `operator` is allowed to manage all of the assets of `owner`. See {setApprovalForAll}."
					},
					"name()": {
						"details": "Returns the token collection name."
					},
					"ownerOf(uint256)": {
						"details": "Returns the owner of the `tokenId` token. Requirements: - `tokenId` must exist."
					},
					"safetransferfrom(address,address,uint256)": {
						"details": "Equivalent to `safetransferfrom(from, to, tokenId, '')`."
					},
					"safetransferfrom(address,address,uint256,bytes)": {
						"details": "Safely transfers `tokenId` token from `from` to `to`. Requirements: - `from` cannot be the zero address. - `to` cannot be the zero address. - `tokenId` token must exist and be owned by `from`. - If the caller is not `from`, it must be approved to move this token by either {approve} or {setApprovalForAll}. - If `to` refers to a smart contract, it must implement {IERC721Receiver-onERC721Received}, which is called upon a safe transfer. Emits a {Transfer} event."
					},
					"setApprovalForAll(address,bool)": {
						"details": "Approve or remove `operator` as an operator for the caller. Operators can call {transferFrom} or {safetransferfrom} for any token owned by the caller. Requirements: - The `operator` cannot be the caller. Emits an {ApprovalForAll} event."
					},
					"supportsInterface(bytes4)": {
						"details": "Returns true if this contract implements the interface defined by `interfaceId`. See the corresponding [EIP section](https://eips.ethereum.org/EIPS/eip-165#how-interfaces-are-identified) to learn more about how these ids are created. This function call must use less than 30000 gas."
					},
					"symbol()": {
						"details": "Returns the token collection symbol."
					},
					"tokenURI(uint256)": {
						"details": "Returns the Uniform Resource Identifier (URI) for `tokenId` token."
					},
					"totalSupply()": {
						"details": "Returns the total number of tokens in existence. Burned tokens will reduce the count. To get the total number of tokens minted, please see {_totalMinted}."
					},
					"transferFrom(address,address,uint256)": {
						"details": "Transfers `tokenId` from `from` to `to`. Requirements: - `from` cannot be the zero address. - `to` cannot be the zero address. - `tokenId` token must be owned by `from`. - If the caller is not `from`, it must be approved to move this token by either {approve} or {setApprovalForAll}. Emits a {Transfer} event."
					}
				},
				"title": "ERC721A",
				"version": 1
			},
			"evm": {
				"assembly": "    /* \"erc721A.sol\":13992:46975  contract ERC721A is IERC721A {... */\n  mstore(0x40, 0x80)\n    /* \"erc721A.sol\":18147:18305  constructor(string memory name_, string memory symbol_) {... */\n  callvalue\n  dup1\n  iszero\n  tag_1\n  jumpi\n  0x00\n  dup1\n  revert\ntag_1:\n  pop\n  mload(0x40)\n  sub(codesize, bytecodeSize)\n  dup1\n  bytecodeSize\n  dup4\n  codecopy\n  dup2\n  dup2\n  add\n  0x40\n  mstore\n  dup2\n  add\n  swap1\n  tag_2\n  swap2\n  swap1\n  tag_3\n  jump\t// in\ntag_2:\n    /* \"erc721A.sol\":18222:18227  name_ */\n  dup2\n    /* \"erc721A.sol\":18214:18219  _name */\n  0x02\n    /* \"erc721A.sol\":18214:18227  _name = name_ */\n  swap1\n  dup2\n  tag_6\n  swap2\n  swap1\n  tag_7\n  jump\t// in\ntag_6:\n  pop\n    /* \"erc721A.sol\":18248:18255  symbol_ */\n  dup1\n    /* \"erc721A.sol\":18238:18245  _symbol */\n  0x03\n    /* \"erc721A.sol\":18238:18255  _symbol = symbol_ */\n  swap1\n  dup2\n  tag_8\n  swap2\n  swap1\n  tag_7\n  jump\t// in\ntag_8:\n  pop\n    /* \"erc721A.sol\":18282:18297  _startTokenId() */\n  tag_9\n    /* \"erc721A.sol\":18282:18295  _startTokenId */\n  shl(0x20, tag_10)\n    /* \"erc721A.sol\":18282:18297  _startTokenId() */\n  0x20\n  shr\n  jump\t// in\ntag_9:\n    /* \"erc721A.sol\":18266:18279  _currentIndex */\n  0x00\n    /* \"erc721A.sol\":18266:18297  _currentIndex = _startTokenId() */\n  dup2\n  swap1\n  sstore\n  pop\n    /* \"erc721A.sol\":18147:18305  constructor(string memory name_, string memory symbol_) {... */\n  pop\n  pop\n    /* \"erc721A.sol\":13992:46975  contract ERC721A is IERC721A {... */\n  jump(tag_11)\n    /* \"erc721A.sol\":18641:18733  function _startTokenId() internal view virtual returns (uint256) {... */\ntag_10:\n    /* \"erc721A.sol\":18697:18704  uint256 */\n  0x00\n    /* \"erc721A.sol\":18641:18733  function _startTokenId() internal view virtual returns (uint256) {... */\n  swap1\n  jump\t// out\n    /* \"#utility.yul\":7:82   */\ntag_13:\n    /* \"#utility.yul\":40:46   */\n  0x00\n    /* \"#utility.yul\":73:75   */\n  0x40\n    /* \"#utility.yul\":67:76   */\n  mload\n    /* \"#utility.yul\":57:76   */\n  swap1\n  pop\n    /* \"#utility.yul\":7:82   */\n  swap1\n  jump\t// out\n    /* \"#utility.yul\":88:205   */\ntag_14:\n    /* \"#utility.yul\":197:198   */\n  0x00\n    /* \"#utility.yul\":194:195   */\n  dup1\n    /* \"#utility.yul\":187:199   */\n  revert\n    /* \"#utility.yul\":211:328   */\ntag_15:\n    /* \"#utility.yul\":320:321   */\n  0x00\n    /* \"#utility.yul\":317:318   */\n  dup1\n    /* \"#utility.yul\":310:322   */\n  revert\n    /* \"#utility.yul\":334:451   */\ntag_16:\n    /* \"#utility.yul\":443:444   */\n  0x00\n    /* \"#utility.yul\":440:441   */\n  dup1\n    /* \"#utility.yul\":433:445   */\n  revert\n    /* \"#utility.yul\":457:574   */\ntag_17:\n    /* \"#utility.yul\":566:567   */\n  0x00\n    /* \"#utility.yul\":563:564   */\n  dup1\n    /* \"#utility.yul\":556:568   */\n  revert\n    /* \"#utility.yul\":580:682   */\ntag_18:\n    /* \"#utility.yul\":621:627   */\n  0x00\n    /* \"#utility.yul\":672:674   */\n  0x1f\n    /* \"#utility.yul\":668:675   */\n  not\n    /* \"#utility.yul\":663:665   */\n  0x1f\n    /* \"#utility.yul\":656:661   */\n  dup4\n    /* \"#utility.yul\":652:666   */\n  add\n    /* \"#utility.yul\":648:676   */\n  and\n    /* \"#utility.yul\":638:676   */\n  swap1\n  pop\n    /* \"#utility.yul\":580:682   */\n  swap2\n  swap1\n  pop\n  jump\t// out\n    /* \"#utility.yul\":688:868   */\ntag_19:\n    /* \"#utility.yul\":736:813   */\n  0x4e487b7100000000000000000000000000000000000000000000000000000000\n    /* \"#utility.yul\":733:734   */\n  0x00\n    /* \"#utility.yul\":726:814   */\n  mstore\n    /* \"#utility.yul\":833:837   */\n  0x41\n    /* \"#utility.yul\":830:831   */\n  0x04\n    /* \"#utility.yul\":823:838   */\n  mstore\n    /* \"#utility.yul\":857:861   */\n  0x24\n    /* \"#utility.yul\":854:855   */\n  0x00\n    /* \"#utility.yul\":847:862   */\n  revert\n    /* \"#utility.yul\":874:1155   */\ntag_20:\n    /* \"#utility.yul\":957:984   */\n  tag_54\n    /* \"#utility.yul\":979:983   */\n  dup3\n    /* \"#utility.yul\":957:984   */\n  tag_18\n  jump\t// in\ntag_54:\n    /* \"#utility.yul\":949:955   */\n  dup2\n    /* \"#utility.yul\":945:985   */\n  add\n    /* \"#utility.yul\":1087:1093   */\n  dup2\n    /* \"#utility.yul\":1075:1085   */\n  dup2\n    /* \"#utility.yul\":1072:1094   */\n  lt\n    /* \"#utility.yul\":1051:1069   */\n  0xffffffffffffffff\n    /* \"#utility.yul\":1039:1049   */\n  dup3\n    /* \"#utility.yul\":1036:1070   */\n  gt\n    /* \"#utility.yul\":1033:1095   */\n  or\n    /* \"#utility.yul\":1030:1118   */\n  iszero\n  tag_55\n  jumpi\n    /* \"#utility.yul\":1098:1116   */\n  tag_56\n  tag_19\n  jump\t// in\ntag_56:\n    /* \"#utility.yul\":1030:1118   */\ntag_55:\n    /* \"#utility.yul\":1138:1148   */\n  dup1\n    /* \"#utility.yul\":1134:1136   */\n  0x40\n    /* \"#utility.yul\":1127:1149   */\n  mstore\n    /* \"#utility.yul\":917:1155   */\n  pop\n    /* \"#utility.yul\":874:1155   */\n  pop\n  pop\n  jump\t// out\n    /* \"#utility.yul\":1161:1290   */\ntag_21:\n    /* \"#utility.yul\":1195:1201   */\n  0x00\n    /* \"#utility.yul\":1222:1242   */\n  tag_58\n  tag_13\n  jump\t// in\ntag_58:\n    /* \"#utility.yul\":1212:1242   */\n  swap1\n  pop\n    /* \"#utility.yul\":1251:1284   */\n  tag_59\n    /* \"#utility.yul\":1279:1283   */\n  dup3\n    /* \"#utility.yul\":1271:1277   */\n  dup3\n    /* \"#utility.yul\":1251:1284   */\n  tag_20\n  jump\t// in\ntag_59:\n    /* \"#utility.yul\":1161:1290   */\n  swap2\n  swap1\n  pop\n  jump\t// out\n    /* \"#utility.yul\":1296:1604   */\ntag_22:\n    /* \"#utility.yul\":1358:1362   */\n  0x00\n    /* \"#utility.yul\":1448:1466   */\n  0xffffffffffffffff\n    /* \"#utility.yul\":1440:1446   */\n  dup3\n    /* \"#utility.yul\":1437:1467   */\n  gt\n    /* \"#utility.yul\":1434:1490   */\n  iszero\n  tag_61\n  jumpi\n    /* \"#utility.yul\":1470:1488   */\n  tag_62\n  tag_19\n  jump\t// in\ntag_62:\n    /* \"#utility.yul\":1434:1490   */\ntag_61:\n    /* \"#utility.yul\":1508:1537   */\n  tag_63\n    /* \"#utility.yul\":1530:1536   */\n  dup3\n    /* \"#utility.yul\":1508:1537   */\n  tag_18\n  jump\t// in\ntag_63:\n    /* \"#utility.yul\":1500:1537   */\n  swap1\n  pop\n    /* \"#utility.yul\":1592:1596   */\n  0x20\n    /* \"#utility.yul\":1586:1590   */\n  dup2\n    /* \"#utility.yul\":1582:1597   */\n  add\n    /* \"#utility.yul\":1574:1597   */\n  swap1\n  pop\n    /* \"#utility.yul\":1296:1604   */\n  swap2\n  swap1\n  pop\n  jump\t// out\n    /* \"#utility.yul\":1610:1856   */\ntag_23:\n    /* \"#utility.yul\":1691:1692   */\n  0x00\n    /* \"#utility.yul\":1701:1814   */\ntag_65:\n    /* \"#utility.yul\":1715:1721   */\n  dup4\n    /* \"#utility.yul\":1712:1713   */\n  dup2\n    /* \"#utility.yul\":1709:1722   */\n  lt\n    /* \"#utility.yul\":1701:1814   */\n  iszero\n  tag_67\n  jumpi\n    /* \"#utility.yul\":1800:1801   */\n  dup1\n    /* \"#utility.yul\":1795:1798   */\n  dup3\n    /* \"#utility.yul\":1791:1802   */\n  add\n    /* \"#utility.yul\":1785:1803   */\n  mload\n    /* \"#utility.yul\":1781:1782   */\n  dup2\n    /* \"#utility.yul\":1776:1779   */\n  dup5\n    /* \"#utility.yul\":1772:1783   */\n  add\n    /* \"#utility.yul\":1765:1804   */\n  mstore\n    /* \"#utility.yul\":1737:1739   */\n  0x20\n    /* \"#utility.yul\":1734:1735   */\n  dup2\n    /* \"#utility.yul\":1730:1740   */\n  add\n    /* \"#utility.yul\":1725:1740   */\n  swap1\n  pop\n    /* \"#utility.yul\":1701:1814   */\n  jump(tag_65)\ntag_67:\n    /* \"#utility.yul\":1848:1849   */\n  0x00\n    /* \"#utility.yul\":1839:1845   */\n  dup5\n    /* \"#utility.yul\":1834:1837   */\n  dup5\n    /* \"#utility.yul\":1830:1846   */\n  add\n    /* \"#utility.yul\":1823:1850   */\n  mstore\n    /* \"#utility.yul\":1672:1856   */\n  pop\n    /* \"#utility.yul\":1610:1856   */\n  pop\n  pop\n  pop\n  jump\t// out\n    /* \"#utility.yul\":1862:2296   */\ntag_24:\n    /* \"#utility.yul\":1951:1956   */\n  0x00\n    /* \"#utility.yul\":1976:2042   */\n  tag_69\n    /* \"#utility.yul\":1992:2041   */\n  tag_70\n    /* \"#utility.yul\":2034:2040   */\n  dup5\n    /* \"#utility.yul\":1992:2041   */\n  tag_22\n  jump\t// in\ntag_70:\n    /* \"#utility.yul\":1976:2042   */\n  tag_21\n  jump\t// in\ntag_69:\n    /* \"#utility.yul\":1967:2042   */\n  swap1\n  pop\n    /* \"#utility.yul\":2065:2071   */\n  dup3\n    /* \"#utility.yul\":2058:2063   */\n  dup2\n    /* \"#utility.yul\":2051:2072   */\n  mstore\n    /* \"#utility.yul\":2103:2107   */\n  0x20\n    /* \"#utility.yul\":2096:2101   */\n  dup2\n    /* \"#utility.yul\":2092:2108   */\n  add\n    /* \"#utility.yul\":2141:2144   */\n  dup5\n    /* \"#utility.yul\":2132:2138   */\n  dup5\n    /* \"#utility.yul\":2127:2130   */\n  dup5\n    /* \"#utility.yul\":2123:2139   */\n  add\n    /* \"#utility.yul\":2120:2145   */\n  gt\n    /* \"#utility.yul\":2117:2229   */\n  iszero\n  tag_71\n  jumpi\n    /* \"#utility.yul\":2148:2227   */\n  tag_72\n  tag_17\n  jump\t// in\ntag_72:\n    /* \"#utility.yul\":2117:2229   */\ntag_71:\n    /* \"#utility.yul\":2238:2290   */\n  tag_73\n    /* \"#utility.yul\":2283:2289   */\n  dup5\n    /* \"#utility.yul\":2278:2281   */\n  dup3\n    /* \"#utility.yul\":2273:2276   */\n  dup6\n    /* \"#utility.yul\":2238:2290   */\n  tag_23\n  jump\t// in\ntag_73:\n    /* \"#utility.yul\":1957:2296   */\n  pop\n    /* \"#utility.yul\":1862:2296   */\n  swap4\n  swap3\n  pop\n  pop\n  pop\n  jump\t// out\n    /* \"#utility.yul\":2316:2671   */\ntag_25:\n    /* \"#utility.yul\":2383:2388   */\n  0x00\n    /* \"#utility.yul\":2432:2435   */\n  dup3\n    /* \"#utility.yul\":2425:2429   */\n  0x1f\n    /* \"#utility.yul\":2417:2423   */\n  dup4\n    /* \"#utility.yul\":2413:2430   */\n  add\n    /* \"#utility.yul\":2409:2436   */\n  slt\n    /* \"#utility.yul\":2399:2521   */\n  tag_75\n  jumpi\n    /* \"#utility.yul\":2440:2519   */\n  tag_76\n  tag_16\n  jump\t// in\ntag_76:\n    /* \"#utility.yul\":2399:2521   */\ntag_75:\n    /* \"#utility.yul\":2550:2556   */\n  dup2\n    /* \"#utility.yul\":2544:2557   */\n  mload\n    /* \"#utility.yul\":2575:2665   */\n  tag_77\n    /* \"#utility.yul\":2661:2664   */\n  dup5\n    /* \"#utility.yul\":2653:2659   */\n  dup3\n    /* \"#utility.yul\":2646:2650   */\n  0x20\n    /* \"#utility.yul\":2638:2644   */\n  dup7\n    /* \"#utility.yul\":2634:2651   */\n  add\n    /* \"#utility.yul\":2575:2665   */\n  tag_24\n  jump\t// in\ntag_77:\n    /* \"#utility.yul\":2566:2665   */\n  swap2\n  pop\n    /* \"#utility.yul\":2389:2671   */\n  pop\n    /* \"#utility.yul\":2316:2671   */\n  swap3\n  swap2\n  pop\n  pop\n  jump\t// out\n    /* \"#utility.yul\":2677:3530   */\ntag_3:\n    /* \"#utility.yul\":2776:2782   */\n  0x00\n    /* \"#utility.yul\":2784:2790   */\n  dup1\n    /* \"#utility.yul\":2833:2835   */\n  0x40\n    /* \"#utility.yul\":2821:2830   */\n  dup4\n    /* \"#utility.yul\":2812:2819   */\n  dup6\n    /* \"#utility.yul\":2808:2831   */\n  sub\n    /* \"#utility.yul\":2804:2836   */\n  slt\n    /* \"#utility.yul\":2801:2920   */\n  iszero\n  tag_79\n  jumpi\n    /* \"#utility.yul\":2839:2918   */\n  tag_80\n  tag_14\n  jump\t// in\ntag_80:\n    /* \"#utility.yul\":2801:2920   */\ntag_79:\n    /* \"#utility.yul\":2980:2981   */\n  0x00\n    /* \"#utility.yul\":2969:2978   */\n  dup4\n    /* \"#utility.yul\":2965:2982   */\n  add\n    /* \"#utility.yul\":2959:2983   */\n  mload\n    /* \"#utility.yul\":3010:3028   */\n  0xffffffffffffffff\n    /* \"#utility.yul\":3002:3008   */\n  dup2\n    /* \"#utility.yul\":2999:3029   */\n  gt\n    /* \"#utility.yul\":2996:3113   */\n  iszero\n  tag_81\n  jumpi\n    /* \"#utility.yul\":3032:3111   */\n  tag_82\n  tag_15\n  jump\t// in\ntag_82:\n    /* \"#utility.yul\":2996:3113   */\ntag_81:\n    /* \"#utility.yul\":3137:3211   */\n  tag_83\n    /* \"#utility.yul\":3203:3210   */\n  dup6\n    /* \"#utility.yul\":3194:3200   */\n  dup3\n    /* \"#utility.yul\":3183:3192   */\n  dup7\n    /* \"#utility.yul\":3179:3201   */\n  add\n    /* \"#utility.yul\":3137:3211   */\n  tag_25\n  jump\t// in\ntag_83:\n    /* \"#utility.yul\":3127:3211   */\n  swap3\n  pop\n    /* \"#utility.yul\":2930:3221   */\n  pop\n    /* \"#utility.yul\":3281:3283   */\n  0x20\n    /* \"#utility.yul\":3270:3279   */\n  dup4\n    /* \"#utility.yul\":3266:3284   */\n  add\n    /* \"#utility.yul\":3260:3285   */\n  mload\n    /* \"#utility.yul\":3312:3330   */\n  0xffffffffffffffff\n    /* \"#utility.yul\":3304:3310   */\n  dup2\n    /* \"#utility.yul\":3301:3331   */\n  gt\n    /* \"#utility.yul\":3298:3415   */\n  iszero\n  tag_84\n  jumpi\n    /* \"#utility.yul\":3334:3413   */\n  tag_85\n  tag_15\n  jump\t// in\ntag_85:\n    /* \"#utility.yul\":3298:3415   */\ntag_84:\n    /* \"#utility.yul\":3439:3513   */\n  tag_86\n    /* \"#utility.yul\":3505:3512   */\n  dup6\n    /* \"#utility.yul\":3496:3502   */\n  dup3\n    /* \"#utility.yul\":3485:3494   */\n  dup7\n    /* \"#utility.yul\":3481:3503   */\n  add\n    /* \"#utility.yul\":3439:3513   */\n  tag_25\n  jump\t// in\ntag_86:\n    /* \"#utility.yul\":3429:3513   */\n  swap2\n  pop\n    /* \"#utility.yul\":3231:3523   */\n  pop\n    /* \"#utility.yul\":2677:3530   */\n  swap3\n  pop\n  swap3\n  swap1\n  pop\n  jump\t// out\n    /* \"#utility.yul\":3536:3635   */\ntag_26:\n    /* \"#utility.yul\":3588:3594   */\n  0x00\n    /* \"#utility.yul\":3622:3627   */\n  dup2\n    /* \"#utility.yul\":3616:3628   */\n  mload\n    /* \"#utility.yul\":3606:3628   */\n  swap1\n  pop\n    /* \"#utility.yul\":3536:3635   */\n  swap2\n  swap1\n  pop\n  jump\t// out\n    /* \"#utility.yul\":3641:3821   */\ntag_27:\n    /* \"#utility.yul\":3689:3766   */\n  0x4e487b7100000000000000000000000000000000000000000000000000000000\n    /* \"#utility.yul\":3686:3687   */\n  0x00\n    /* \"#utility.yul\":3679:3767   */\n  mstore\n    /* \"#utility.yul\":3786:3790   */\n  0x22\n    /* \"#utility.yul\":3783:3784   */\n  0x04\n    /* \"#utility.yul\":3776:3791   */\n  mstore\n    /* \"#utility.yul\":3810:3814   */\n  0x24\n    /* \"#utility.yul\":3807:3808   */\n  0x00\n    /* \"#utility.yul\":3800:3815   */\n  revert\n    /* \"#utility.yul\":3827:4147   */\ntag_28:\n    /* \"#utility.yul\":3871:3877   */\n  0x00\n    /* \"#utility.yul\":3908:3909   */\n  0x02\n    /* \"#utility.yul\":3902:3906   */\n  dup3\n    /* \"#utility.yul\":3898:3910   */\n  div\n    /* \"#utility.yul\":3888:3910   */\n  swap1\n  pop\n    /* \"#utility.yul\":3955:3956   */\n  0x01\n    /* \"#utility.yul\":3949:3953   */\n  dup3\n    /* \"#utility.yul\":3945:3957   */\n  and\n    /* \"#utility.yul\":3976:3994   */\n  dup1\n    /* \"#utility.yul\":3966:4047   */\n  tag_90\n  jumpi\n    /* \"#utility.yul\":4032:4036   */\n  0x7f\n    /* \"#utility.yul\":4024:4030   */\n  dup3\n    /* \"#utility.yul\":4020:4037   */\n  and\n    /* \"#utility.yul\":4010:4037   */\n  swap2\n  pop\n    /* \"#utility.yul\":3966:4047   */\ntag_90:\n    /* \"#utility.yul\":4094:4096   */\n  0x20\n    /* \"#utility.yul\":4086:4092   */\n  dup3\n    /* \"#utility.yul\":4083:4097   */\n  lt\n    /* \"#utility.yul\":4063:4081   */\n  dup2\n    /* \"#utility.yul\":4060:4098   */\n  sub\n    /* \"#utility.yul\":4057:4141   */\n  tag_91\n  jumpi\n    /* \"#utility.yul\":4113:4131   */\n  tag_92\n  tag_27\n  jump\t// in\ntag_92:\n    /* \"#utility.yul\":4057:4141   */\ntag_91:\n    /* \"#utility.yul\":3878:4147   */\n  pop\n    /* \"#utility.yul\":3827:4147   */\n  swap2\n  swap1\n  pop\n  jump\t// out\n    /* \"#utility.yul\":4153:4294   */\ntag_29:\n    /* \"#utility.yul\":4202:4206   */\n  0x00\n    /* \"#utility.yul\":4225:4228   */\n  dup2\n    /* \"#utility.yul\":4217:4228   */\n  swap1\n  pop\n    /* \"#utility.yul\":4248:4251   */\n  dup2\n    /* \"#utility.yul\":4245:4246   */\n  0x00\n    /* \"#utility.yul\":4238:4252   */\n  mstore\n    /* \"#utility.yul\":4282:4286   */\n  0x20\n    /* \"#utility.yul\":4279:4280   */\n  0x00\n    /* \"#utility.yul\":4269:4287   */\n  keccak256\n    /* \"#utility.yul\":4261:4287   */\n  swap1\n  pop\n    /* \"#utility.yul\":4153:4294   */\n  swap2\n  swap1\n  pop\n  jump\t// out\n    /* \"#utility.yul\":4300:4393   */\ntag_30:\n    /* \"#utility.yul\":4337:4343   */\n  0x00\n    /* \"#utility.yul\":4384:4386   */\n  0x20\n    /* \"#utility.yul\":4379:4381   */\n  0x1f\n    /* \"#utility.yul\":4372:4377   */\n  dup4\n    /* \"#utility.yul\":4368:4382   */\n  add\n    /* \"#utility.yul\":4364:4387   */\n  div\n    /* \"#utility.yul\":4354:4387   */\n  swap1\n  pop\n    /* \"#utility.yul\":4300:4393   */\n  swap2\n  swap1\n  pop\n  jump\t// out\n    /* \"#utility.yul\":4399:4506   */\ntag_31:\n    /* \"#utility.yul\":4443:4451   */\n  0x00\n    /* \"#utility.yul\":4493:4498   */\n  dup3\n    /* \"#utility.yul\":4487:4491   */\n  dup3\n    /* \"#utility.yul\":4483:4499   */\n  shl\n    /* \"#utility.yul\":4462:4499   */\n  swap1\n  pop\n    /* \"#utility.yul\":4399:4506   */\n  swap3\n  swap2\n  pop\n  pop\n  jump\t// out\n    /* \"#utility.yul\":4512:4905   */\ntag_32:\n    /* \"#utility.yul\":4581:4587   */\n  0x00\n    /* \"#utility.yul\":4631:4632   */\n  0x08\n    /* \"#utility.yul\":4619:4629   */\n  dup4\n    /* \"#utility.yul\":4615:4633   */\n  mul\n    /* \"#utility.yul\":4654:4751   */\n  tag_97\n    /* \"#utility.yul\":4684:4750   */\n  0xffffffffffffffffffffffffffffffffffffffffffffffffffffffffffffffff\n    /* \"#utility.yul\":4673:4682   */\n  dup3\n    /* \"#utility.yul\":4654:4751   */\n  tag_31\n  jump\t// in\ntag_97:\n    /* \"#utility.yul\":4772:4811   */\n  tag_98\n    /* \"#utility.yul\":4802:4810   */\n  dup7\n    /* \"#utility.yul\":4791:4800   */\n  dup4\n    /* \"#utility.yul\":4772:4811   */\n  tag_31\n  jump\t// in\ntag_98:\n    /* \"#utility.yul\":4760:4811   */\n  swap6\n  pop\n    /* \"#utility.yul\":4844:4848   */\n  dup1\n    /* \"#utility.yul\":4840:4849   */\n  not\n    /* \"#utility.yul\":4833:4838   */\n  dup5\n    /* \"#utility.yul\":4829:4850   */\n  and\n    /* \"#utility.yul\":4820:4850   */\n  swap4\n  pop\n    /* \"#utility.yul\":4893:4897   */\n  dup1\n    /* \"#utility.yul\":4883:4891   */\n  dup7\n    /* \"#utility.yul\":4879:4898   */\n  and\n    /* \"#utility.yul\":4872:4877   */\n  dup5\n    /* \"#utility.yul\":4869:4899   */\n  or\n    /* \"#utility.yul\":4859:4899   */\n  swap3\n  pop\n    /* \"#utility.yul\":4588:4905   */\n  pop\n  pop\n    /* \"#utility.yul\":4512:4905   */\n  swap4\n  swap3\n  pop\n  pop\n  pop\n  jump\t// out\n    /* \"#utility.yul\":4911:4988   */\ntag_33:\n    /* \"#utility.yul\":4948:4955   */\n  0x00\n    /* \"#utility.yul\":4977:4982   */\n  dup2\n    /* \"#utility.yul\":4966:4982   */\n  swap1\n  pop\n    /* \"#utility.yul\":4911:4988   */\n  swap2\n  swap1\n  pop\n  jump\t// out\n    /* \"#utility.yul\":4994:5054   */\ntag_34:\n    /* \"#utility.yul\":5022:5025   */\n  0x00\n    /* \"#utility.yul\":5043:5048   */\n  dup2\n    /* \"#utility.yul\":5036:5048   */\n  swap1\n  pop\n    /* \"#utility.yul\":4994:5054   */\n  swap2\n  swap1\n  pop\n  jump\t// out\n    /* \"#utility.yul\":5060:5202   */\ntag_35:\n    /* \"#utility.yul\":5110:5119   */\n  0x00\n    /* \"#utility.yul\":5143:5196   */\n  tag_102\n    /* \"#utility.yul\":5161:5195   */\n  tag_103\n    /* \"#utility.yul\":5170:5194   */\n  tag_104\n    /* \"#utility.yul\":5188:5193   */\n  dup5\n    /* \"#utility.yul\":5170:5194   */\n  tag_33\n  jump\t// in\ntag_104:\n    /* \"#utility.yul\":5161:5195   */\n  tag_34\n  jump\t// in\ntag_103:\n    /* \"#utility.yul\":5143:5196   */\n  tag_33\n  jump\t// in\ntag_102:\n    /* \"#utility.yul\":5130:5196   */\n  swap1\n  pop\n    /* \"#utility.yul\":5060:5202   */\n  swap2\n  swap1\n  pop\n  jump\t// out\n    /* \"#utility.yul\":5208:5283   */\ntag_36:\n    /* \"#utility.yul\":5251:5254   */\n  0x00\n    /* \"#utility.yul\":5272:5277   */\n  dup2\n    /* \"#utility.yul\":5265:5277   */\n  swap1\n  pop\n    /* \"#utility.yul\":5208:5283   */\n  swap2\n  swap1\n  pop\n  jump\t// out\n    /* \"#utility.yul\":5289:5558   */\ntag_37:\n    /* \"#utility.yul\":5399:5438   */\n  tag_107\n    /* \"#utility.yul\":5430:5437   */\n  dup4\n    /* \"#utility.yul\":5399:5438   */\n  tag_35\n  jump\t// in\ntag_107:\n    /* \"#utility.yul\":5460:5551   */\n  tag_108\n    /* \"#utility.yul\":5509:5550   */\n  tag_109\n    /* \"#utility.yul\":5533:5549   */\n  dup3\n    /* \"#utility.yul\":5509:5550   */\n  tag_36\n  jump\t// in\ntag_109:\n    /* \"#utility.yul\":5501:5507   */\n  dup5\n    /* \"#utility.yul\":5494:5498   */\n  dup5\n    /* \"#utility.yul\":5488:5499   */\n  sload\n    /* \"#utility.yul\":5460:5551   */\n  tag_32\n  jump\t// in\ntag_108:\n    /* \"#utility.yul\":5454:5458   */\n  dup3\n    /* \"#utility.yul\":5447:5552   */\n  sstore\n    /* \"#utility.yul\":5365:5558   */\n  pop\n    /* \"#utility.yul\":5289:5558   */\n  pop\n  pop\n  pop\n  jump\t// out\n    /* \"#utility.yul\":5564:5637   */\ntag_38:\n    /* \"#utility.yul\":5609:5612   */\n  0x00\n    /* \"#utility.yul\":5564:5637   */\n  swap1\n  jump\t// out\n    /* \"#utility.yul\":5643:5832   */\ntag_39:\n    /* \"#utility.yul\":5720:5752   */\n  tag_112\n  tag_38\n  jump\t// in\ntag_112:\n    /* \"#utility.yul\":5761:5826   */\n  tag_113\n    /* \"#utility.yul\":5819:5825   */\n  dup2\n    /* \"#utility.yul\":5811:5817   */\n  dup5\n    /* \"#utility.yul\":5805:5809   */\n  dup5\n    /* \"#utility.yul\":5761:5826   */\n  tag_37\n  jump\t// in\ntag_113:\n    /* \"#utility.yul\":5696:5832   */\n  pop\n    /* \"#utility.yul\":5643:5832   */\n  pop\n  pop\n  jump\t// out\n    /* \"#utility.yul\":5838:6024   */\ntag_40:\n    /* \"#utility.yul\":5898:6018   */\ntag_115:\n    /* \"#utility.yul\":5915:5918   */\n  dup2\n    /* \"#utility.yul\":5908:5913   */\n  dup2\n    /* \"#utility.yul\":5905:5919   */\n  lt\n    /* \"#utility.yul\":5898:6018   */\n  iszero\n  tag_117\n  jumpi\n    /* \"#utility.yul\":5969:6008   */\n  tag_118\n    /* \"#utility.yul\":6006:6007   */\n  0x00\n    /* \"#utility.yul\":5999:6004   */\n  dup3\n    /* \"#utility.yul\":5969:6008   */\n  tag_39\n  jump\t// in\ntag_118:\n    /* \"#utility.yul\":5942:5943   */\n  0x01\n    /* \"#utility.yul\":5935:5940   */\n  dup2\n    /* \"#utility.yul\":5931:5944   */\n  add\n    /* \"#utility.yul\":5922:5944   */\n  swap1\n  pop\n    /* \"#utility.yul\":5898:6018   */\n  jump(tag_115)\ntag_117:\n    /* \"#utility.yul\":5838:6024   */\n  pop\n  pop\n  jump\t// out\n    /* \"#utility.yul\":6030:6573   */\ntag_41:\n    /* \"#utility.yul\":6131:6133   */\n  0x1f\n    /* \"#utility.yul\":6126:6129   */\n  dup3\n    /* \"#utility.yul\":6123:6134   */\n  gt\n    /* \"#utility.yul\":6120:6566   */\n  iszero\n  tag_120\n  jumpi\n    /* \"#utility.yul\":6165:6203   */\n  tag_121\n    /* \"#utility.yul\":6197:6202   */\n  dup2\n    /* \"#utility.yul\":6165:6203   */\n  tag_29\n  jump\t// in\ntag_121:\n    /* \"#utility.yul\":6249:6278   */\n  tag_122\n    /* \"#utility.yul\":6267:6277   */\n  dup5\n    /* \"#utility.yul\":6249:6278   */\n  tag_30\n  jump\t// in\ntag_122:\n    /* \"#utility.yul\":6239:6247   */\n  dup2\n    /* \"#utility.yul\":6235:6279   */\n  add\n    /* \"#utility.yul\":6432:6434   */\n  0x20\n    /* \"#utility.yul\":6420:6430   */\n  dup6\n    /* \"#utility.yul\":6417:6435   */\n  lt\n    /* \"#utility.yul\":6414:6463   */\n  iszero\n  tag_123\n  jumpi\n    /* \"#utility.yul\":6453:6461   */\n  dup2\n    /* \"#utility.yul\":6438:6461   */\n  swap1\n  pop\n    /* \"#utility.yul\":6414:6463   */\ntag_123:\n    /* \"#utility.yul\":6476:6556   */\n  tag_124\n    /* \"#utility.yul\":6532:6554   */\n  tag_125\n    /* \"#utility.yul\":6550:6553   */\n  dup6\n    /* \"#utility.yul\":6532:6554   */\n  tag_30\n  jump\t// in\ntag_125:\n    /* \"#utility.yul\":6522:6530   */\n  dup4\n    /* \"#utility.yul\":6518:6555   */\n  add\n    /* \"#utility.yul\":6505:6516   */\n  dup3\n    /* \"#utility.yul\":6476:6556   */\n  tag_40\n  jump\t// in\ntag_124:\n    /* \"#utility.yul\":6135:6566   */\n  pop\n  pop\n    /* \"#utility.yul\":6120:6566   */\ntag_120:\n    /* \"#utility.yul\":6030:6573   */\n  pop\n  pop\n  pop\n  jump\t// out\n    /* \"#utility.yul\":6579:6696   */\ntag_42:\n    /* \"#utility.yul\":6633:6641   */\n  0x00\n    /* \"#utility.yul\":6683:6688   */\n  dup3\n    /* \"#utility.yul\":6677:6681   */\n  dup3\n    /* \"#utility.yul\":6673:6689   */\n  shr\n    /* \"#utility.yul\":6652:6689   */\n  swap1\n  pop\n    /* \"#utility.yul\":6579:6696   */\n  swap3\n  swap2\n  pop\n  pop\n  jump\t// out\n    /* \"#utility.yul\":6702:6871   */\ntag_43:\n    /* \"#utility.yul\":6746:6752   */\n  0x00\n    /* \"#utility.yul\":6779:6830   */\n  tag_128\n    /* \"#utility.yul\":6827:6828   */\n  0x00\n    /* \"#utility.yul\":6823:6829   */\n  not\n    /* \"#utility.yul\":6815:6820   */\n  dup5\n    /* \"#utility.yul\":6812:6813   */\n  0x08\n    /* \"#utility.yul\":6808:6821   */\n  mul\n    /* \"#utility.yul\":6779:6830   */\n  tag_42\n  jump\t// in\ntag_128:\n    /* \"#utility.yul\":6775:6831   */\n  not\n    /* \"#utility.yul\":6860:6864   */\n  dup1\n    /* \"#utility.yul\":6854:6858   */\n  dup4\n    /* \"#utility.yul\":6850:6865   */\n  and\n    /* \"#utility.yul\":6840:6865   */\n  swap2\n  pop\n    /* \"#utility.yul\":6753:6871   */\n  pop\n    /* \"#utility.yul\":6702:6871   */\n  swap3\n  swap2\n  pop\n  pop\n  jump\t// out\n    /* \"#utility.yul\":6876:7171   */\ntag_44:\n    /* \"#utility.yul\":6952:6956   */\n  0x00\n    /* \"#utility.yul\":7098:7127   */\n  tag_130\n    /* \"#utility.yul\":7123:7126   */\n  dup4\n    /* \"#utility.yul\":7117:7121   */\n  dup4\n    /* \"#utility.yul\":7098:7127   */\n  tag_43\n  jump\t// in\ntag_130:\n    /* \"#utility.yul\":7090:7127   */\n  swap2\n  pop\n    /* \"#utility.yul\":7160:7163   */\n  dup3\n    /* \"#utility.yul\":7157:7158   */\n  0x02\n    /* \"#utility.yul\":7153:7164   */\n  mul\n    /* \"#utility.yul\":7147:7151   */\n  dup3\n    /* \"#utility.yul\":7144:7165   */\n  or\n    /* \"#utility.yul\":7136:7165   */\n  swap1\n  pop\n    /* \"#utility.yul\":6876:7171   */\n  swap3\n  swap2\n  pop\n  pop\n  jump\t// out\n    /* \"#utility.yul\":7176:8571   */\ntag_7:\n    /* \"#utility.yul\":7293:7330   */\n  tag_132\n    /* \"#utility.yul\":7326:7329   */\n  dup3\n    /* \"#utility.yul\":7293:7330   */\n  tag_26\n  jump\t// in\ntag_132:\n    /* \"#utility.yul\":7395:7413   */\n  0xffffffffffffffff\n    /* \"#utility.yul\":7387:7393   */\n  dup2\n    /* \"#utility.yul\":7384:7414   */\n  gt\n    /* \"#utility.yul\":7381:7437   */\n  iszero\n  tag_133\n  jumpi\n    /* \"#utility.yul\":7417:7435   */\n  tag_134\n  tag_19\n  jump\t// in\ntag_134:\n    /* \"#utility.yul\":7381:7437   */\ntag_133:\n    /* \"#utility.yul\":7461:7499   */\n  tag_135\n    /* \"#utility.yul\":7493:7497   */\n  dup3\n    /* \"#utility.yul\":7487:7498   */\n  sload\n    /* \"#utility.yul\":7461:7499   */\n  tag_28\n  jump\t// in\ntag_135:\n    /* \"#utility.yul\":7546:7613   */\n  tag_136\n    /* \"#utility.yul\":7606:7612   */\n  dup3\n    /* \"#utility.yul\":7598:7604   */\n  dup3\n    /* \"#utility.yul\":7592:7596   */\n  dup6\n    /* \"#utility.yul\":7546:7613   */\n  tag_41\n  jump\t// in\ntag_136:\n    /* \"#utility.yul\":7640:7641   */\n  0x00\n    /* \"#utility.yul\":7664:7668   */\n  0x20\n    /* \"#utility.yul\":7651:7668   */\n  swap1\n  pop\n    /* \"#utility.yul\":7696:7698   */\n  0x1f\n    /* \"#utility.yul\":7688:7694   */\n  dup4\n    /* \"#utility.yul\":7685:7699   */\n  gt\n    /* \"#utility.yul\":7713:7714   */\n  0x01\n    /* \"#utility.yul\":7708:8326   */\n  dup2\n  eq\n  tag_138\n  jumpi\n    /* \"#utility.yul\":8370:8371   */\n  0x00\n    /* \"#utility.yul\":8387:8393   */\n  dup5\n    /* \"#utility.yul\":8384:8461   */\n  iszero\n  tag_139\n  jumpi\n    /* \"#utility.yul\":8436:8445   */\n  dup3\n    /* \"#utility.yul\":8431:8434   */\n  dup8\n    /* \"#utility.yul\":8427:8446   */\n  add\n    /* \"#utility.yul\":8421:8447   */\n  mload\n    /* \"#utility.yul\":8412:8447   */\n  swap1\n  pop\n    /* \"#utility.yul\":8384:8461   */\ntag_139:\n    /* \"#utility.yul\":8487:8554   */\n  tag_140\n    /* \"#utility.yul\":8547:8553   */\n  dup6\n    /* \"#utility.yul\":8540:8545   */\n  dup3\n    /* \"#utility.yul\":8487:8554   */\n  tag_44\n  jump\t// in\ntag_140:\n    /* \"#utility.yul\":8481:8485   */\n  dup7\n    /* \"#utility.yul\":8474:8555   */\n  sstore\n    /* \"#utility.yul\":8343:8565   */\n  pop\n    /* \"#utility.yul\":7678:8565   */\n  jump(tag_137)\n    /* \"#utility.yul\":7708:8326   */\ntag_138:\n    /* \"#utility.yul\":7760:7764   */\n  0x1f\n    /* \"#utility.yul\":7756:7765   */\n  not\n    /* \"#utility.yul\":7748:7754   */\n  dup5\n    /* \"#utility.yul\":7744:7766   */\n  and\n    /* \"#utility.yul\":7794:7831   */\n  tag_141\n    /* \"#utility.yul\":7826:7830   */\n  dup7\n    /* \"#utility.yul\":7794:7831   */\n  tag_29\n  jump\t// in\ntag_141:\n    /* \"#utility.yul\":7853:7854   */\n  0x00\n    /* \"#utility.yul\":7867:8075   */\ntag_142:\n    /* \"#utility.yul\":7881:7888   */\n  dup3\n    /* \"#utility.yul\":7878:7879   */\n  dup2\n    /* \"#utility.yul\":7875:7889   */\n  lt\n    /* \"#utility.yul\":7867:8075   */\n  iszero\n  tag_144\n  jumpi\n    /* \"#utility.yul\":7960:7969   */\n  dup5\n    /* \"#utility.yul\":7955:7958   */\n  dup10\n    /* \"#utility.yul\":7951:7970   */\n  add\n    /* \"#utility.yul\":7945:7971   */\n  mload\n    /* \"#utility.yul\":7937:7943   */\n  dup3\n    /* \"#utility.yul\":7930:7972   */\n  sstore\n    /* \"#utility.yul\":8011:8012   */\n  0x01\n    /* \"#utility.yul\":8003:8009   */\n  dup3\n    /* \"#utility.yul\":7999:8013   */\n  add\n    /* \"#utility.yul\":7989:8013   */\n  swap2\n  pop\n    /* \"#utility.yul\":8058:8060   */\n  0x20\n    /* \"#utility.yul\":8047:8056   */\n  dup6\n    /* \"#utility.yul\":8043:8061   */\n  add\n    /* \"#utility.yul\":8030:8061   */\n  swap5\n  pop\n    /* \"#utility.yul\":7904:7908   */\n  0x20\n    /* \"#utility.yul\":7901:7902   */\n  dup2\n    /* \"#utility.yul\":7897:7909   */\n  add\n    /* \"#utility.yul\":7892:7909   */\n  swap1\n  pop\n    /* \"#utility.yul\":7867:8075   */\n  jump(tag_142)\ntag_144:\n    /* \"#utility.yul\":8103:8109   */\n  dup7\n    /* \"#utility.yul\":8094:8101   */\n  dup4\n    /* \"#utility.yul\":8091:8110   */\n  lt\n    /* \"#utility.yul\":8088:8267   */\n  iszero\n  tag_145\n  jumpi\n    /* \"#utility.yul\":8161:8170   */\n  dup5\n    /* \"#utility.yul\":8156:8159   */\n  dup10\n    /* \"#utility.yul\":8152:8171   */\n  add\n    /* \"#utility.yul\":8146:8172   */\n  mload\n    /* \"#utility.yul\":8204:8252   */\n  tag_146\n    /* \"#utility.yul\":8246:8250   */\n  0x1f\n    /* \"#utility.yul\":8238:8244   */\n  dup10\n    /* \"#utility.yul\":8234:8251   */\n  and\n    /* \"#utility.yul\":8223:8232   */\n  dup3\n    /* \"#utility.yul\":8204:8252   */\n  tag_43\n  jump\t// in\ntag_146:\n    /* \"#utility.yul\":8196:8202   */\n  dup4\n    /* \"#utility.yul\":8189:8253   */\n  sstore\n    /* \"#utility.yul\":8111:8267   */\n  pop\n    /* \"#utility.yul\":8088:8267   */\ntag_145:\n    /* \"#utility.yul\":8313:8314   */\n  0x01\n    /* \"#utility.yul\":8309:8310   */\n  0x02\n    /* \"#utility.yul\":8301:8307   */\n  dup9\n    /* \"#utility.yul\":8297:8311   */\n  mul\n    /* \"#utility.yul\":8293:8315   */\n  add\n    /* \"#utility.yul\":8287:8291   */\n  dup9\n    /* \"#utility.yul\":8280:8316   */\n  sstore\n    /* \"#utility.yul\":7715:8326   */\n  pop\n  pop\n  pop\n    /* \"#utility.yul\":7678:8565   */\ntag_137:\n  pop\n    /* \"#utility.yul\":7268:8571   */\n  pop\n  pop\n  pop\n    /* \"#utility.yul\":7176:8571   */\n  pop\n  pop\n  jump\t// out\n    /* \"erc721A.sol\":13992:46975  contract ERC721A is IERC721A {... */\ntag_11:\n  dataSize(sub_0)\n  dup1\n  dataOffset(sub_0)\n  0x00\n  codecopy\n  0x00\n  return\nstop\n\nsub_0: assembly {\n        /* \"erc721A.sol\":13992:46975  contract ERC721A is IERC721A {... */\n      mstore(0x40, 0x80)\n      callvalue\n      dup1\n      iszero\n      tag_1\n      jumpi\n      0x00\n      dup1\n      revert\n    tag_1:\n      pop\n      jumpi(tag_2, lt(calldatasize, 0x04))\n      shr(0xe0, calldataload(0x00))\n      dup1\n      0x70a08231\n      gt\n      tag_17\n      jumpi\n      dup1\n      0xc772ded1\n      gt\n      tag_18\n      jumpi\n      dup1\n      0xc772ded1\n      eq\n      tag_13\n      jumpi\n      dup1\n      0xc87b56dd\n      eq\n      tag_14\n      jumpi\n      dup1\n      0xd94b34b6\n      eq\n      tag_15\n      jumpi\n      dup1\n      0xe985e9c5\n      eq\n      tag_16\n      jumpi\n      jump(tag_2)\n    tag_18:\n      dup1\n      0x70a08231\n      eq\n      tag_10\n      jumpi\n      dup1\n      0x95d89b41\n      eq\n      tag_11\n      jumpi\n      dup1\n      0xa22cb465\n      eq\n      tag_12\n      jumpi\n      jump(tag_2)\n    tag_17:\n      dup1\n      0x095ea7b3\n      gt\n      tag_19\n      jumpi\n      dup1\n      0x095ea7b3\n      eq\n      tag_6\n      jumpi\n      dup1\n      0x18160ddd\n      eq\n      tag_7\n      jumpi\n      dup1\n      0x23b872dd\n      eq\n      tag_8\n      jumpi\n      dup1\n      0x6352211e\n      eq\n      tag_9\n      jumpi\n      jump(tag_2)\n    tag_19:\n      dup1\n      0x01ffc9a7\n      eq\n      tag_3\n      jumpi\n      dup1\n      0x06fdde03\n      eq\n      tag_4\n      jumpi\n      dup1\n      0x081812fc\n      eq\n      tag_5\n      jumpi\n    tag_2:\n      0x00\n      dup1\n      revert\n        /* \"erc721A.sol\":20353:20992  function supportsInterface(bytes4 interfaceId) public view virtual override returns (bool) {... */\n    tag_3:\n      tag_20\n      0x04\n      dup1\n      calldatasize\n      sub\n      dup2\n      add\n      swap1\n      tag_21\n      swap2\n      swap1\n      tag_22\n      jump\t// in\n    tag_21:\n      tag_23\n      jump\t// in\n    tag_20:\n      mload(0x40)\n      tag_24\n      swap2\n      swap1\n      tag_25\n      jump\t// in\n    tag_24:\n      mload(0x40)\n      dup1\n      swap2\n      sub\n      swap1\n      return\n        /* \"erc721A.sol\":21255:21355  function name() public view virtual override returns (string memory) {... */\n    tag_4:\n      tag_26\n      tag_27\n      jump\t// in\n    tag_26:\n      mload(0x40)\n      tag_28\n      swap2\n      swap1\n      tag_29\n      jump\t// in\n    tag_28:\n      mload(0x40)\n      dup1\n      swap2\n      sub\n      swap1\n      return\n        /* \"erc721A.sol\":26872:27099  function getApproved(uint256 tokenId) public view virtual override returns (address) {... */\n    tag_5:\n      tag_30\n      0x04\n      dup1\n      calldatasize\n      sub\n      dup2\n      add\n      swap1\n      tag_31\n      swap2\n      swap1\n      tag_32\n      jump\t// in\n    tag_31:\n      tag_33\n      jump\t// in\n    tag_30:\n      mload(0x40)\n      tag_34\n      swap2\n      swap1\n      tag_35\n      jump\t// in\n    tag_34:\n      mload(0x40)\n      dup1\n      swap2\n      sub\n      swap1\n      return\n        /* \"erc721A.sol\":26597:26713  function approve(address to, uint256 tokenId) public virtual override {... */\n    tag_6:\n      tag_36\n      0x04\n      dup1\n      calldatasize\n      sub\n      dup2\n      add\n      swap1\n      tag_37\n      swap2\n      swap1\n      tag_38\n      jump\t// in\n    tag_37:\n      tag_39\n      jump\t// in\n    tag_36:\n      stop\n        /* \"erc721A.sol\":18943:19266  function totalSupply() public view virtual override returns (uint256) {... */\n    tag_7:\n      tag_40\n      tag_41\n      jump\t// in\n    tag_40:\n      mload(0x40)\n      tag_42\n      swap2\n      swap1\n      tag_43\n      jump\t// in\n    tag_42:\n      mload(0x40)\n      dup1\n      swap2\n      sub\n      swap1\n      return\n        /* \"erc721A.sol\":30606:34121  function transferFrom(... */\n    tag_8:\n      tag_44\n      0x04\n      dup1\n      calldatasize\n      sub\n      dup2\n      add\n      swap1\n      tag_45\n      swap2\n      swap1\n      tag_46\n      jump\t// in\n    tag_45:\n      tag_47\n      jump\t// in\n    tag_44:\n      stop\n        /* \"erc721A.sol\":22702:22854  function ownerOf(uint256 tokenId) public view virtual override returns (address) {... */\n    tag_9:\n      tag_48\n      0x04\n      dup1\n      calldatasize\n      sub\n      dup2\n      add\n      swap1\n      tag_49\n      swap2\n      swap1\n      tag_32\n      jump\t// in\n    tag_49:\n      tag_50\n      jump\t// in\n    tag_48:\n      mload(0x40)\n      tag_51\n      swap2\n      swap1\n      tag_35\n      jump\t// in\n    tag_51:\n      mload(0x40)\n      dup1\n      swap2\n      sub\n      swap1\n      return\n        /* \"erc721A.sol\":19553:19795  function balanceOf(address owner) public view virtual override returns (uint256) {... */\n    tag_10:\n      tag_52\n      0x04\n      dup1\n      calldatasize\n      sub\n      dup2\n      add\n      swap1\n      tag_53\n      swap2\n      swap1\n      tag_54\n      jump\t// in\n    tag_53:\n      tag_55\n      jump\t// in\n    tag_52:\n      mload(0x40)\n      tag_56\n      swap2\n      swap1\n      tag_43\n      jump\t// in\n    tag_56:\n      mload(0x40)\n      dup1\n      swap2\n      sub\n      swap1\n      return\n        /* \"erc721A.sol\":21431:21535  function symbol() public view virtual override returns (string memory) {... */\n    tag_11:\n      tag_57\n      tag_58\n      jump\t// in\n    tag_57:\n      mload(0x40)\n      tag_59\n      swap2\n      swap1\n      tag_29\n      jump\t// in\n    tag_59:\n      mload(0x40)\n      dup1\n      swap2\n      sub\n      swap1\n      return\n        /* \"erc721A.sol\":27439:27673  function setApprovalForAll(address operator, bool approved) public virtual override {... */\n    tag_12:\n      tag_60\n      0x04\n      dup1\n      calldatasize\n      sub\n      dup2\n      add\n      swap1\n      tag_61\n      swap2\n      swap1\n      tag_62\n      jump\t// in\n    tag_61:\n      tag_63\n      jump\t// in\n    tag_60:\n      stop\n        /* \"erc721A.sol\":35000:35406  function safetransferfrom(... */\n    tag_13:\n      tag_64\n      0x04\n      dup1\n      calldatasize\n      sub\n      dup2\n      add\n      swap1\n      tag_65\n      swap2\n      swap1\n      tag_66\n      jump\t// in\n    tag_65:\n      tag_67\n      jump\t// in\n    tag_64:\n      stop\n        /* \"erc721A.sol\":21641:21967  function tokenURI(uint256 tokenId) public view virtual override returns (string memory) {... */\n    tag_14:\n      tag_68\n      0x04\n      dup1\n      calldatasize\n      sub\n      dup2\n      add\n      swap1\n      tag_69\n      swap2\n      swap1\n      tag_32\n      jump\t// in\n    tag_69:\n      tag_70\n      jump\t// in\n    tag_68:\n      mload(0x40)\n      tag_71\n      swap2\n      swap1\n      tag_29\n      jump\t// in\n    tag_71:\n      mload(0x40)\n      dup1\n      swap2\n      sub\n      swap1\n      return\n        /* \"erc721A.sol\":34217:34402  function safetransferfrom(... */\n    tag_15:\n      tag_72\n      0x04\n      dup1\n      calldatasize\n      sub\n      dup2\n      add\n      swap1\n      tag_73\n      swap2\n      swap1\n      tag_46\n      jump\t// in\n    tag_73:\n      tag_74\n      jump\t// in\n    tag_72:\n      stop\n        /* \"erc721A.sol\":27830:27994  function isApprovedForAll(address owner, address operator) public view virtual override returns (bool) {... */\n    tag_16:\n      tag_75\n      0x04\n      dup1\n      calldatasize\n      sub\n      dup2\n      add\n      swap1\n      tag_76\n      swap2\n      swap1\n      tag_77\n      jump\t// in\n    tag_76:\n      tag_78\n      jump\t// in\n    tag_75:\n      mload(0x40)\n      tag_79\n      swap2\n      swap1\n      tag_25\n      jump\t// in\n    tag_79:\n      mload(0x40)\n      dup1\n      swap2\n      sub\n      swap1\n      return\n        /* \"erc721A.sol\":20353:20992  function supportsInterface(bytes4 interfaceId) public view virtual override returns (bool) {... */\n    tag_23:\n        /* \"erc721A.sol\":20438:20442  bool */\n      0x00\n        /* \"erc721A.sol\":20777:20787  0x01ffc9a7 */\n      0x01ffc9a7\n        /* \"erc721A.sol\":20762:20787  interfaceId == 0x01ffc9a7 */\n      0xe0\n      shl\n        /* \"erc721A.sol\":20762:20773  interfaceId */\n      dup3\n        /* \"erc721A.sol\":20762:20787  interfaceId == 0x01ffc9a7 */\n      not(0xffffffffffffffffffffffffffffffffffffffffffffffffffffffff)\n      and\n      eq\n        /* \"erc721A.sol\":20762:20864  interfaceId == 0x01ffc9a7 || // ERC165 interface ID for ERC165.... */\n      dup1\n      tag_81\n      jumpi\n      pop\n        /* \"erc721A.sol\":20854:20864  0x80ac58cd */\n      0x80ac58cd\n        /* \"erc721A.sol\":20839:20864  interfaceId == 0x80ac58cd */\n      0xe0\n      shl\n        /* \"erc721A.sol\":20839:20850  interfaceId */\n      dup3\n        /* \"erc721A.sol\":20839:20864  interfaceId == 0x80ac58cd */\n      not(0xffffffffffffffffffffffffffffffffffffffffffffffffffffffff)\n      and\n      eq\n        /* \"erc721A.sol\":20762:20864  interfaceId == 0x01ffc9a7 || // ERC165 interface ID for ERC165.... */\n    tag_81:\n        /* \"erc721A.sol\":20762:20941  interfaceId == 0x01ffc9a7 || // ERC165 interface ID for ERC165.... */\n      dup1\n      tag_82\n      jumpi\n      pop\n        /* \"erc721A.sol\":20931:20941  0x5b5e139f */\n      0x5b5e139f\n        /* \"erc721A.sol\":20916:20941  interfaceId == 0x5b5e139f */\n      0xe0\n      shl\n        /* \"erc721A.sol\":20916:20927  interfaceId */\n      dup3\n        /* \"erc721A.sol\":20916:20941  interfaceId == 0x5b5e139f */\n      not(0xffffffffffffffffffffffffffffffffffffffffffffffffffffffff)\n      and\n      eq\n        /* \"erc721A.sol\":20762:20941  interfaceId == 0x01ffc9a7 || // ERC165 interface ID for ERC165.... */\n    tag_82:\n        /* \"erc721A.sol\":20742:20941  return... */\n      swap1\n      pop\n        /* \"erc721A.sol\":20353:20992  function supportsInterface(bytes4 interfaceId) public view virtual override returns (bool) {... */\n      swap2\n      swap1\n      pop\n      jump\t// out\n        /* \"erc721A.sol\":21255:21355  function name() public view virtual override returns (string memory) {... */\n    tag_27:\n        /* \"erc721A.sol\":21309:21322  string memory */\n      0x60\n        /* \"erc721A.sol\":21342:21347  _name */\n      0x02\n        /* \"erc721A.sol\":21335:21347  return _name */\n      dup1\n      sload\n      tag_84\n      swap1\n      tag_85\n      jump\t// in\n    tag_84:\n      dup1\n      0x1f\n      add\n      0x20\n      dup1\n      swap2\n      div\n      mul\n      0x20\n      add\n      mload(0x40)\n      swap1\n      dup2\n      add\n      0x40\n      mstore\n      dup1\n      swap3\n      swap2\n      swap1\n      dup2\n      dup2\n      mstore\n      0x20\n      add\n      dup3\n      dup1\n      sload\n      tag_86\n      swap1\n      tag_85\n      jump\t// in\n    tag_86:\n      dup1\n      iszero\n      tag_87\n      jumpi\n      dup1\n      0x1f\n      lt\n      tag_88\n      jumpi\n      0x0100\n      dup1\n      dup4\n      sload\n      div\n      mul\n      dup4\n      mstore\n      swap2\n      0x20\n      add\n      swap2\n      jump(tag_87)\n    tag_88:\n      dup3\n      add\n      swap2\n      swap1\n      0x00\n      mstore\n      keccak256(0x00, 0x20)\n      swap1\n    tag_89:\n      dup2\n      sload\n      dup2\n      mstore\n      swap1\n      0x01\n      add\n      swap1\n      0x20\n      add\n      dup1\n      dup4\n      gt\n      tag_89\n      jumpi\n      dup3\n      swap1\n      sub\n      0x1f\n      and\n      dup3\n      add\n      swap2\n    tag_87:\n      pop\n      pop\n      pop\n      pop\n      pop\n      swap1\n      pop\n        /* \"erc721A.sol\":21255:21355  function name() public view virtual override returns (string memory) {... */\n      swap1\n      jump\t// out\n        /* \"erc721A.sol\":26872:27099  function getApproved(uint256 tokenId) public view virtual override returns (address) {... */\n    tag_33:\n        /* \"erc721A.sol\":26948:26955  address */\n      0x00\n        /* \"erc721A.sol\":26973:26989  _exists(tokenId) */\n      tag_91\n        /* \"erc721A.sol\":26981:26988  tokenId */\n      dup3\n        /* \"erc721A.sol\":26973:26980  _exists */\n      tag_92\n        /* \"erc721A.sol\":26973:26989  _exists(tokenId) */\n      jump\t// in\n    tag_91:\n        /* \"erc721A.sol\":26968:27041  if (!_exists(tokenId)) _revert(ApprovalQueryForNonexistentToken.selector) */\n      tag_93\n      jumpi\n        /* \"erc721A.sol\":26991:27041  _revert(ApprovalQueryForNonexistentToken.selector) */\n      tag_94\n        /* \"erc721A.sol\":26999:27040  ApprovalQueryForNonexistentToken.selector */\n      shl(0xe0, 0xcf4700e4)\n        /* \"erc721A.sol\":26991:26998  _revert */\n      tag_95\n        /* \"erc721A.sol\":26991:27041  _revert(ApprovalQueryForNonexistentToken.selector) */\n      jump\t// in\n    tag_94:\n        /* \"erc721A.sol\":26968:27041  if (!_exists(tokenId)) _revert(ApprovalQueryForNonexistentToken.selector) */\n    tag_93:\n        /* \"erc721A.sol\":27061:27076  _tokenApprovals */\n      0x06\n        /* \"erc721A.sol\":27061:27085  _tokenApprovals[tokenId] */\n      0x00\n        /* \"erc721A.sol\":27077:27084  tokenId */\n      dup4\n        /* \"erc721A.sol\":27061:27085  _tokenApprovals[tokenId] */\n      dup2\n      mstore\n      0x20\n      add\n      swap1\n      dup2\n      mstore\n      0x20\n      add\n      0x00\n      keccak256\n        /* \"erc721A.sol\":27061:27091  _tokenApprovals[tokenId].value */\n      0x00\n      add\n      0x00\n      swap1\n      sload\n      swap1\n      0x0100\n      exp\n      swap1\n      div\n      0xffffffffffffffffffffffffffffffffffffffff\n      and\n        /* \"erc721A.sol\":27054:27091  return _tokenApprovals[tokenId].value */\n      swap1\n      pop\n        /* \"erc721A.sol\":26872:27099  function getApproved(uint256 tokenId) public view virtual override returns (address) {... */\n      swap2\n      swap1\n      pop\n      jump\t// out\n        /* \"erc721A.sol\":26597:26713  function approve(address to, uint256 tokenId) public virtual override {... */\n    tag_39:\n        /* \"erc721A.sol\":26678:26705  _approve(to, tokenId, true) */\n      tag_97\n        /* \"erc721A.sol\":26687:26689  to */\n      dup3\n        /* \"erc721A.sol\":26691:26698  tokenId */\n      dup3\n        /* \"erc721A.sol\":26700:26704  true */\n      0x01\n        /* \"erc721A.sol\":26678:26686  _approve */\n      tag_98\n        /* \"erc721A.sol\":26678:26705  _approve(to, tokenId, true) */\n      jump\t// in\n    tag_97:\n        /* \"erc721A.sol\":26597:26713  function approve(address to, uint256 tokenId) public virtual override {... */\n      pop\n      pop\n      jump\t// out\n        /* \"erc721A.sol\":18943:19266  function totalSupply() public view virtual override returns (uint256) {... */\n    tag_41:\n        /* \"erc721A.sol\":19004:19011  uint256 */\n      0x00\n        /* \"erc721A.sol\":19232:19247  _startTokenId() */\n      tag_100\n        /* \"erc721A.sol\":19232:19245  _startTokenId */\n      tag_101\n        /* \"erc721A.sol\":19232:19247  _startTokenId() */\n      jump\t// in\n    tag_100:\n        /* \"erc721A.sol\":19217:19229  _burnCounter */\n      sload(0x01)\n        /* \"erc721A.sol\":19201:19214  _currentIndex */\n      sload(0x00)\n        /* \"erc721A.sol\":19201:19229  _currentIndex - _burnCounter */\n      sub\n        /* \"erc721A.sol\":19201:19247  _currentIndex - _burnCounter - _startTokenId() */\n      sub\n        /* \"erc721A.sol\":19194:19247  return _currentIndex - _burnCounter - _startTokenId() */\n      swap1\n      pop\n        /* \"erc721A.sol\":18943:19266  function totalSupply() public view virtual override returns (uint256) {... */\n      swap1\n      jump\t// out\n        /* \"erc721A.sol\":30606:34121  function transferFrom(... */\n    tag_47:\n        /* \"erc721A.sol\":30740:30767  uint256 prevOwnershipPacked */\n      0x00\n        /* \"erc721A.sol\":30770:30797  _packedOwnershipOf(tokenId) */\n      tag_103\n        /* \"erc721A.sol\":30789:30796  tokenId */\n      dup3\n        /* \"erc721A.sol\":30770:30788  _packedOwnershipOf */\n      tag_104\n        /* \"erc721A.sol\":30770:30797  _packedOwnershipOf(tokenId) */\n      jump\t// in\n    tag_103:\n        /* \"erc721A.sol\":30740:30797  uint256 prevOwnershipPacked = _packedOwnershipOf(tokenId) */\n      swap1\n      pop\n        /* \"erc721A.sol\":15926:15940  (1 << 160) - 1 */\n      0xffffffffffffffffffffffffffffffffffffffff\n        /* \"erc721A.sol\":30941:30945  from */\n      dup5\n        /* \"erc721A.sol\":30925:30947  uint256(uint160(from)) */\n      0xffffffffffffffffffffffffffffffffffffffff\n      and\n        /* \"erc721A.sol\":30925:30966  uint256(uint160(from)) & _BITMASK_ADDRESS */\n      and\n        /* \"erc721A.sol\":30902:30968  from = address(uint160(uint256(uint160(from)) & _BITMASK_ADDRESS)) */\n      swap4\n      pop\n        /* \"erc721A.sol\":31026:31030  from */\n      dup4\n        /* \"erc721A.sol\":30985:31030  address(uint160(prevOwnershipPacked)) != from */\n      0xffffffffffffffffffffffffffffffffffffffff\n      and\n        /* \"erc721A.sol\":31001:31020  prevOwnershipPacked */\n      dup2\n        /* \"erc721A.sol\":30985:31030  address(uint160(prevOwnershipPacked)) != from */\n      0xffffffffffffffffffffffffffffffffffffffff\n      and\n      eq\n        /* \"erc721A.sol\":30981:31076  if (address(uint160(prevOwnershipPacked)) != from) _revert(TransferFromIncorrectOwner.selector) */\n      tag_105\n      jumpi\n        /* \"erc721A.sol\":31032:31076  _revert(TransferFromIncorrectOwner.selector) */\n      tag_106\n        /* \"erc721A.sol\":31040:31075  TransferFromIncorrectOwner.selector */\n      shl(0xe0, 0xa1148100)\n        /* \"erc721A.sol\":31032:31039  _revert */\n      tag_95\n        /* \"erc721A.sol\":31032:31076  _revert(TransferFromIncorrectOwner.selector) */\n      jump\t// in\n    tag_106:\n        /* \"erc721A.sol\":30981:31076  if (address(uint160(prevOwnershipPacked)) != from) _revert(TransferFromIncorrectOwner.selector) */\n    tag_105:\n        /* \"erc721A.sol\":31090:31117  uint256 approvedAddressSlot */\n      0x00\n        /* \"erc721A.sol\":31119:31142  address approvedAddress */\n      dup1\n        /* \"erc721A.sol\":31146:31181  _getApprovedSlotAndAddress(tokenId) */\n      tag_107\n        /* \"erc721A.sol\":31173:31180  tokenId */\n      dup5\n        /* \"erc721A.sol\":31146:31172  _getApprovedSlotAndAddress */\n      tag_108\n        /* \"erc721A.sol\":31146:31181  _getApprovedSlotAndAddress(tokenId) */\n      jump\t// in\n    tag_107:\n        /* \"erc721A.sol\":31089:31181  (uint256 approvedAddressSlot, address approvedAddress) = _getApprovedSlotAndAddress(tokenId) */\n      swap2\n      pop\n      swap2\n      pop\n        /* \"erc721A.sol\":31281:31349  _isSenderApprovedOrOwner(approvedAddress, from, _msgSenderERC721A()) */\n      tag_109\n        /* \"erc721A.sol\":31306:31321  approvedAddress */\n      dup2\n        /* \"erc721A.sol\":31323:31327  from */\n      dup8\n        /* \"erc721A.sol\":31329:31348  _msgSenderERC721A() */\n      tag_110\n        /* \"erc721A.sol\":31329:31346  _msgSenderERC721A */\n      tag_111\n        /* \"erc721A.sol\":31329:31348  _msgSenderERC721A() */\n      jump\t// in\n    tag_110:\n        /* \"erc721A.sol\":31281:31305  _isSenderApprovedOrOwner */\n      tag_112\n        /* \"erc721A.sol\":31281:31349  _isSenderApprovedOrOwner(approvedAddress, from, _msgSenderERC721A()) */\n      jump\t// in\n    tag_109:\n        /* \"erc721A.sol\":31276:31465  if (!_isSenderApprovedOrOwner(approvedAddress, from, _msgSenderERC721A()))... */\n      tag_113\n      jumpi\n        /* \"erc721A.sol\":31369:31412  isApprovedForAll(from, _msgSenderERC721A()) */\n      tag_114\n        /* \"erc721A.sol\":31386:31390  from */\n      dup7\n        /* \"erc721A.sol\":31392:31411  _msgSenderERC721A() */\n      tag_115\n        /* \"erc721A.sol\":31392:31409  _msgSenderERC721A */\n      tag_111\n        /* \"erc721A.sol\":31392:31411  _msgSenderERC721A() */\n      jump\t// in\n    tag_115:\n        /* \"erc721A.sol\":31369:31385  isApprovedForAll */\n      tag_78\n        /* \"erc721A.sol\":31369:31412  isApprovedForAll(from, _msgSenderERC721A()) */\n      jump\t// in\n    tag_114:\n        /* \"erc721A.sol\":31364:31465  if (!isApprovedForAll(from, _msgSenderERC721A())) _revert(TransferCallerNotOwnerNorApproved.selector) */\n      tag_116\n      jumpi\n        /* \"erc721A.sol\":31414:31465  _revert(TransferCallerNotOwnerNorApproved.selector) */\n      tag_117\n        /* \"erc721A.sol\":31422:31464  TransferCallerNotOwnerNorApproved.selector */\n      shl(0xe0, 0x59c896be)\n        /* \"erc721A.sol\":31414:31421  _revert */\n      tag_95\n        /* \"erc721A.sol\":31414:31465  _revert(TransferCallerNotOwnerNorApproved.selector) */\n      jump\t// in\n    tag_117:\n        /* \"erc721A.sol\":31364:31465  if (!isApprovedForAll(from, _msgSenderERC721A())) _revert(TransferCallerNotOwnerNorApproved.selector) */\n    tag_116:\n        /* \"erc721A.sol\":31276:31465  if (!_isSenderApprovedOrOwner(approvedAddress, from, _msgSenderERC721A()))... */\n    tag_113:\n        /* \"erc721A.sol\":31478:31521  _beforeTokenTransfers(from, to, tokenId, 1) */\n      tag_118\n        /* \"erc721A.sol\":31500:31504  from */\n      dup7\n        /* \"erc721A.sol\":31506:31508  to */\n      dup7\n        /* \"erc721A.sol\":31510:31517  tokenId */\n      dup7\n        /* \"erc721A.sol\":31519:31520  1 */\n      0x01\n        /* \"erc721A.sol\":31478:31499  _beforeTokenTransfers */\n      tag_119\n        /* \"erc721A.sol\":31478:31521  _beforeTokenTransfers(from, to, tokenId, 1) */\n      jump\t// in\n    tag_118:\n        /* \"erc721A.sol\":31614:31629  approvedAddress */\n      dup1\n        /* \"erc721A.sol\":31611:31771  if approvedAddress {... */\n      iszero\n      tag_120\n      jumpi\n        /* \"erc721A.sol\":31754:31755  0 */\n      0x00\n        /* \"erc721A.sol\":31733:31752  approvedAddressSlot */\n      dup3\n        /* \"erc721A.sol\":31726:31756  sstore(approvedAddressSlot, 0) */\n      sstore\n        /* \"erc721A.sol\":31611:31771  if approvedAddress {... */\n    tag_120:\n        /* \"erc721A.sol\":32151:32169  _packedAddressData */\n      0x05\n        /* \"erc721A.sol\":32151:32175  _packedAddressData[from] */\n      0x00\n        /* \"erc721A.sol\":32170:32174  from */\n      dup8\n        /* \"erc721A.sol\":32151:32175  _packedAddressData[from] */\n      0xffffffffffffffffffffffffffffffffffffffff\n      and\n      0xffffffffffffffffffffffffffffffffffffffff\n      and\n      dup2\n      mstore\n      0x20\n      add\n      swap1\n      dup2\n      mstore\n      0x20\n      add\n      0x00\n      keccak256\n      0x00\n        /* \"erc721A.sol\":32149:32175  --_packedAddressData[from] */\n      dup2\n      sload\n      0x01\n      swap1\n      sub\n      swap2\n      swap1\n      pop\n      dup2\n      swap1\n      sstore\n      pop\n        /* \"erc721A.sol\":32220:32238  _packedAddressData */\n      0x05\n        /* \"erc721A.sol\":32220:32242  _packedAddressData[to] */\n      0x00\n        /* \"erc721A.sol\":32239:32241  to */\n      dup7\n        /* \"erc721A.sol\":32220:32242  _packedAddressData[to] */\n      0xffffffffffffffffffffffffffffffffffffffff\n      and\n      0xffffffffffffffffffffffffffffffffffffffff\n      and\n      dup2\n      mstore\n      0x20\n      add\n      swap1\n      dup2\n      mstore\n      0x20\n      add\n      0x00\n      keccak256\n      0x00\n        /* \"erc721A.sol\":32218:32242  ++_packedAddressData[to] */\n      dup2\n      sload\n      0x01\n      add\n      swap2\n      swap1\n      pop\n      dup2\n      swap1\n      sstore\n      pop\n        /* \"erc721A.sol\":32542:32688  _packOwnershipData(... */\n      tag_121\n        /* \"erc721A.sol\":32579:32581  to */\n      dup6\n        /* \"erc721A.sol\":32628:32673  _nextExtraData(from, to, prevOwnershipPacked) */\n      tag_122\n        /* \"erc721A.sol\":32643:32647  from */\n      dup9\n        /* \"erc721A.sol\":32649:32651  to */\n      dup9\n        /* \"erc721A.sol\":32653:32672  prevOwnershipPacked */\n      dup8\n        /* \"erc721A.sol\":32628:32642  _nextExtraData */\n      tag_123\n        /* \"erc721A.sol\":32628:32673  _nextExtraData(from, to, prevOwnershipPacked) */\n      jump\t// in\n    tag_122:\n        /* \"erc721A.sol\":15524:15532  1 << 225 */\n      0x0200000000000000000000000000000000000000000000000000000000\n        /* \"erc721A.sol\":32600:32673  _BITMASK_NEXT_INITIALIZED | _nextExtraData(from, to, prevOwnershipPacked) */\n      or\n        /* \"erc721A.sol\":32542:32560  _packOwnershipData */\n      tag_124\n        /* \"erc721A.sol\":32542:32688  _packOwnershipData(... */\n      jump\t// in\n    tag_121:\n        /* \"erc721A.sol\":32513:32530  _packedOwnerships */\n      0x04\n        /* \"erc721A.sol\":32513:32539  _packedOwnerships[tokenId] */\n      0x00\n        /* \"erc721A.sol\":32531:32538  tokenId */\n      dup7\n        /* \"erc721A.sol\":32513:32539  _packedOwnerships[tokenId] */\n      dup2\n      mstore\n      0x20\n      add\n      swap1\n      dup2\n      mstore\n      0x20\n      add\n      0x00\n      keccak256\n        /* \"erc721A.sol\":32513:32688  _packedOwnerships[tokenId] = _packOwnershipData(... */\n      dup2\n      swap1\n      sstore\n      pop\n        /* \"erc721A.sol\":32859:32860  0 */\n      0x00\n        /* \"erc721A.sol\":15524:15532  1 << 225 */\n      0x0200000000000000000000000000000000000000000000000000000000\n        /* \"erc721A.sol\":32808:32827  prevOwnershipPacked */\n      dup5\n        /* \"erc721A.sol\":32808:32855  prevOwnershipPacked & _BITMASK_NEXT_INITIALIZED */\n      and\n        /* \"erc721A.sol\":32808:32860  prevOwnershipPacked & _BITMASK_NEXT_INITIALIZED == 0 */\n      sub\n        /* \"erc721A.sol\":32804:33431  if (prevOwnershipPacked & _BITMASK_NEXT_INITIALIZED == 0) {... */\n      tag_125\n      jumpi\n        /* \"erc721A.sol\":32881:32900  uint256 nextTokenId */\n      0x00\n        /* \"erc721A.sol\":32913:32914  1 */\n      0x01\n        /* \"erc721A.sol\":32903:32910  tokenId */\n      dup6\n        /* \"erc721A.sol\":32903:32914  tokenId + 1 */\n      add\n        /* \"erc721A.sol\":32881:32914  uint256 nextTokenId = tokenId + 1 */\n      swap1\n      pop\n        /* \"erc721A.sol\":33070:33071  0 */\n      0x00\n        /* \"erc721A.sol\":33036:33053  _packedOwnerships */\n      0x04\n        /* \"erc721A.sol\":33036:33066  _packedOwnerships[nextTokenId] */\n      0x00\n        /* \"erc721A.sol\":33054:33065  nextTokenId */\n      dup4\n        /* \"erc721A.sol\":33036:33066  _packedOwnerships[nextTokenId] */\n      dup2\n      mstore\n      0x20\n      add\n      swap1\n      dup2\n      mstore\n      0x20\n      add\n      0x00\n      keccak256\n      sload\n        /* \"erc721A.sol\":33036:33071  _packedOwnerships[nextTokenId] == 0 */\n      sub\n        /* \"erc721A.sol\":33032:33416  if (_packedOwnerships[nextTokenId] == 0) {... */\n      tag_126\n      jumpi\n        /* \"erc721A.sol\":33174:33187  _currentIndex */\n      sload(0x00)\n        /* \"erc721A.sol\":33159:33170  nextTokenId */\n      dup2\n        /* \"erc721A.sol\":33159:33187  nextTokenId != _currentIndex */\n      eq\n        /* \"erc721A.sol\":33155:33397  if (nextTokenId != _currentIndex) {... */\n      tag_127\n      jumpi\n        /* \"erc721A.sol\":33354:33373  prevOwnershipPacked */\n      dup4\n        /* \"erc721A.sol\":33321:33338  _packedOwnerships */\n      0x04\n        /* \"erc721A.sol\":33321:33351  _packedOwnerships[nextTokenId] */\n      0x00\n        /* \"erc721A.sol\":33339:33350  nextTokenId */\n      dup4\n        /* \"erc721A.sol\":33321:33351  _packedOwnerships[nextTokenId] */\n      dup2\n      mstore\n      0x20\n      add\n      swap1\n      dup2\n      mstore\n      0x20\n      add\n      0x00\n      keccak256\n        /* \"erc721A.sol\":33321:33373  _packedOwnerships[nextTokenId] = prevOwnershipPacked */\n      dup2\n      swap1\n      sstore\n      pop\n        /* \"erc721A.sol\":33155:33397  if (nextTokenId != _currentIndex) {... */\n    tag_127:\n        /* \"erc721A.sol\":33032:33416  if (_packedOwnerships[nextTokenId] == 0) {... */\n    tag_126:\n        /* \"erc721A.sol\":32862:33431  {... */\n      pop\n        /* \"erc721A.sol\":32804:33431  if (prevOwnershipPacked & _BITMASK_NEXT_INITIALIZED == 0) {... */\n    tag_125:\n        /* \"erc721A.sol\":33544:33560  uint256 toMasked */\n      0x00\n        /* \"erc721A.sol\":15926:15940  (1 << 160) - 1 */\n      0xffffffffffffffffffffffffffffffffffffffff\n        /* \"erc721A.sol\":33579:33581  to */\n      dup7\n        /* \"erc721A.sol\":33563:33583  uint256(uint160(to)) */\n      0xffffffffffffffffffffffffffffffffffffffff\n      and\n        /* \"erc721A.sol\":33563:33602  uint256(uint160(to)) & _BITMASK_ADDRESS */\n      and\n        /* \"erc721A.sol\":33544:33602  uint256 toMasked = uint256(uint160(to)) & _BITMASK_ADDRESS */\n      swap1\n      pop\n        /* \"erc721A.sol\":33943:33950  tokenId */\n      dup5\n        /* \"erc721A.sol\":33907:33915  toMasked */\n      dup2\n        /* \"erc721A.sol\":33873:33877  from */\n      dup9\n        /* \"erc721A.sol\":33815:33840  _TRANSFER_EVENT_SIGNATURE */\n      0xddf252ad1be2c89b69c2b068fc378daa952ba7f163c4a11628f55a4df523b3ef\n        /* \"erc721A.sol\":33760:33761  0 */\n      0x00\n        /* \"erc721A.sol\":33703:33704  0 */\n      dup1\n        /* \"erc721A.sol\":33680:33979  log4(... */\n      log4\n        /* \"erc721A.sol\":34016:34017  0 */\n      0x00\n        /* \"erc721A.sol\":34004:34012  toMasked */\n      dup2\n        /* \"erc721A.sol\":34004:34017  toMasked == 0 */\n      sub\n        /* \"erc721A.sol\":34000:34058  if (toMasked == 0) _revert(TransferToZeroAddress.selector) */\n      tag_128\n      jumpi\n        /* \"erc721A.sol\":34019:34058  _revert(TransferToZeroAddress.selector) */\n      tag_129\n        /* \"erc721A.sol\":34027:34057  TransferToZeroAddress.selector */\n      shl(0xe0, 0xea553b34)\n        /* \"erc721A.sol\":34019:34026  _revert */\n      tag_95\n        /* \"erc721A.sol\":34019:34058  _revert(TransferToZeroAddress.selector) */\n      jump\t// in\n    tag_129:\n        /* \"erc721A.sol\":34000:34058  if (toMasked == 0) _revert(TransferToZeroAddress.selector) */\n    tag_128:\n        /* \"erc721A.sol\":34071:34113  _afterTokenTransfers(from, to, tokenId, 1) */\n      tag_130\n        /* \"erc721A.sol\":34092:34096  from */\n      dup8\n        /* \"erc721A.sol\":34098:34100  to */\n      dup8\n        /* \"erc721A.sol\":34102:34109  tokenId */\n      dup8\n        /* \"erc721A.sol\":34111:34112  1 */\n      0x01\n        /* \"erc721A.sol\":34071:34091  _afterTokenTransfers */\n      tag_131\n        /* \"erc721A.sol\":34071:34113  _afterTokenTransfers(from, to, tokenId, 1) */\n      jump\t// in\n    tag_130:\n        /* \"erc721A.sol\":30729:34121  {... */\n      pop\n      pop\n      pop\n      pop\n        /* \"erc721A.sol\":30606:34121  function transferFrom(... */\n      pop\n      pop\n      pop\n      jump\t// out\n        /* \"erc721A.sol\":22702:22854  function ownerOf(uint256 tokenId) public view virtual override returns (address) {... */\n    tag_50:\n        /* \"erc721A.sol\":22774:22781  address */\n      0x00\n        /* \"erc721A.sol\":22817:22844  _packedOwnershipOf(tokenId) */\n      tag_133\n        /* \"erc721A.sol\":22836:22843  tokenId */\n      dup3\n        /* \"erc721A.sol\":22817:22835  _packedOwnershipOf */\n      tag_104\n        /* \"erc721A.sol\":22817:22844  _packedOwnershipOf(tokenId) */\n      jump\t// in\n    tag_133:\n        /* \"erc721A.sol\":22794:22846  return address(uint160(_packedOwnershipOf(tokenId))) */\n      swap1\n      pop\n        /* \"erc721A.sol\":22702:22854  function ownerOf(uint256 tokenId) public view virtual override returns (address) {... */\n      swap2\n      swap1\n      pop\n      jump\t// out\n        /* \"erc721A.sol\":19553:19795  function balanceOf(address owner) public view virtual override returns (uint256) {... */\n    tag_55:\n        /* \"erc721A.sol\":19625:19632  uint256 */\n      0x00\n        /* \"erc721A.sol\":19666:19667  0 */\n      dup1\n        /* \"erc721A.sol\":19649:19668  owner == address(0) */\n      0xffffffffffffffffffffffffffffffffffffffff\n      and\n        /* \"erc721A.sol\":19649:19654  owner */\n      dup3\n        /* \"erc721A.sol\":19649:19668  owner == address(0) */\n      0xffffffffffffffffffffffffffffffffffffffff\n      and\n      sub\n        /* \"erc721A.sol\":19645:19714  if (owner == address(0)) _revert(BalanceQueryForZeroAddress.selector) */\n      tag_135\n      jumpi\n        /* \"erc721A.sol\":19670:19714  _revert(BalanceQueryForZeroAddress.selector) */\n      tag_136\n        /* \"erc721A.sol\":19678:19713  BalanceQueryForZeroAddress.selector */\n      shl(0xe0, 0x8f4eb604)\n        /* \"erc721A.sol\":19670:19677  _revert */\n      tag_95\n        /* \"erc721A.sol\":19670:19714  _revert(BalanceQueryForZeroAddress.selector) */\n      jump\t// in\n    tag_136:\n        /* \"erc721A.sol\":19645:19714  if (owner == address(0)) _revert(BalanceQueryForZeroAddress.selector) */\n    tag_135:\n        /* \"erc721A.sol\":14468:14481  (1 << 64) - 1 */\n      0xffffffffffffffff\n        /* \"erc721A.sol\":19732:19750  _packedAddressData */\n      0x05\n        /* \"erc721A.sol\":19732:19757  _packedAddressData[owner] */\n      0x00\n        /* \"erc721A.sol\":19751:19756  owner */\n      dup5\n        /* \"erc721A.sol\":19732:19757  _packedAddressData[owner] */\n      0xffffffffffffffffffffffffffffffffffffffff\n      and\n      0xffffffffffffffffffffffffffffffffffffffff\n      and\n      dup2\n      mstore\n      0x20\n      add\n      swap1\n      dup2\n      mstore\n      0x20\n      add\n      0x00\n      keccak256\n      sload\n        /* \"erc721A.sol\":19732:19787  _packedAddressData[owner] & _BITMASK_ADDRESS_DATA_ENTRY */\n      and\n        /* \"erc721A.sol\":19725:19787  return _packedAddressData[owner] & _BITMASK_ADDRESS_DATA_ENTRY */\n      swap1\n      pop\n        /* \"erc721A.sol\":19553:19795  function balanceOf(address owner) public view virtual override returns (uint256) {... */\n      swap2\n      swap1\n      pop\n      jump\t// out\n        /* \"erc721A.sol\":21431:21535  function symbol() public view virtual override returns (string memory) {... */\n    tag_58:\n        /* \"erc721A.sol\":21487:21500  string memory */\n      0x60\n        /* \"erc721A.sol\":21520:21527  _symbol */\n      0x03\n        /* \"erc721A.sol\":21513:21527  return _symbol */\n      dup1\n      sload\n      tag_138\n      swap1\n      tag_85\n      jump\t// in\n    tag_138:\n      dup1\n      0x1f\n      add\n      0x20\n      dup1\n      swap2\n      div\n      mul\n      0x20\n      add\n      mload(0x40)\n      swap1\n      dup2\n      add\n      0x40\n      mstore\n      dup1\n      swap3\n      swap2\n      swap1\n      dup2\n      dup2\n      mstore\n      0x20\n      add\n      dup3\n      dup1\n      sload\n      tag_139\n      swap1\n      tag_85\n      jump\t// in\n    tag_139:\n      dup1\n      iszero\n      tag_140\n      jumpi\n      dup1\n      0x1f\n      lt\n      tag_141\n      jumpi\n      0x0100\n      dup1\n      dup4\n      sload\n      div\n      mul\n      dup4\n      mstore\n      swap2\n      0x20\n      add\n      swap2\n      jump(tag_140)\n    tag_141:\n      dup3\n      add\n      swap2\n      swap1\n      0x00\n      mstore\n      keccak256(0x00, 0x20)\n      swap1\n    tag_142:\n      dup2\n      sload\n      dup2\n      mstore\n      swap1\n      0x01\n      add\n      swap1\n      0x20\n      add\n      dup1\n      dup4\n      gt\n      tag_142\n      jumpi\n      dup3\n      swap1\n      sub\n      0x1f\n      and\n      dup3\n      add\n      swap2\n    tag_140:\n      pop\n      pop\n      pop\n      pop\n      pop\n      swap1\n      pop\n        /* \"erc721A.sol\":21431:21535  function symbol() public view virtual override returns (string memory) {... */\n      swap1\n      jump\t// out\n        /* \"erc721A.sol\":27439:27673  function setApprovalForAll(address operator, bool approved) public virtual override {... */\n    tag_63:\n        /* \"erc721A.sol\":27586:27594  approved */\n      dup1\n        /* \"erc721A.sol\":27534:27552  _operatorApprovals */\n      0x07\n        /* \"erc721A.sol\":27534:27573  _operatorApprovals[_msgSenderERC721A()] */\n      0x00\n        /* \"erc721A.sol\":27553:27572  _msgSenderERC721A() */\n      tag_144\n        /* \"erc721A.sol\":27553:27570  _msgSenderERC721A */\n      tag_111\n        /* \"erc721A.sol\":27553:27572  _msgSenderERC721A() */\n      jump\t// in\n    tag_144:\n        /* \"erc721A.sol\":27534:27573  _operatorApprovals[_msgSenderERC721A()] */\n      0xffffffffffffffffffffffffffffffffffffffff\n      and\n      0xffffffffffffffffffffffffffffffffffffffff\n      and\n      dup2\n      mstore\n      0x20\n      add\n      swap1\n      dup2\n      mstore\n      0x20\n      add\n      0x00\n      keccak256\n        /* \"erc721A.sol\":27534:27583  _operatorApprovals[_msgSenderERC721A()][operator] */\n      0x00\n        /* \"erc721A.sol\":27574:27582  operator */\n      dup5\n        /* \"erc721A.sol\":27534:27583  _operatorApprovals[_msgSenderERC721A()][operator] */\n      0xffffffffffffffffffffffffffffffffffffffff\n      and\n      0xffffffffffffffffffffffffffffffffffffffff\n      and\n      dup2\n      mstore\n      0x20\n      add\n      swap1\n      dup2\n      mstore\n      0x20\n      add\n      0x00\n      keccak256\n      0x00\n        /* \"erc721A.sol\":27534:27594  _operatorApprovals[_msgSenderERC721A()][operator] = approved */\n      0x0100\n      exp\n      dup2\n      sload\n      dup2\n      0xff\n      mul\n      not\n      and\n      swap1\n      dup4\n      iszero\n      iszero\n      mul\n      or\n      swap1\n      sstore\n      pop\n        /* \"erc721A.sol\":27646:27654  operator */\n      dup2\n        /* \"erc721A.sol\":27610:27665  ApprovalForAll(_msgSenderERC721A(), operator, approved) */\n      0xffffffffffffffffffffffffffffffffffffffff\n      and\n        /* \"erc721A.sol\":27625:27644  _msgSenderERC721A() */\n      tag_145\n        /* \"erc721A.sol\":27625:27642  _msgSenderERC721A */\n      tag_111\n        /* \"erc721A.sol\":27625:27644  _msgSenderERC721A() */\n      jump\t// in\n    tag_145:\n        /* \"erc721A.sol\":27610:27665  ApprovalForAll(_msgSenderERC721A(), operator, approved) */\n      0xffffffffffffffffffffffffffffffffffffffff\n      and\n      0x17307eab39ab6107e8899845ad3d59bd9653f200f220920489ca2b5937696c31\n        /* \"erc721A.sol\":27656:27664  approved */\n      dup4\n        /* \"erc721A.sol\":27610:27665  ApprovalForAll(_msgSenderERC721A(), operator, approved) */\n      mload(0x40)\n      tag_146\n      swap2\n      swap1\n      tag_25\n      jump\t// in\n    tag_146:\n      mload(0x40)\n      dup1\n      swap2\n      sub\n      swap1\n      log3\n        /* \"erc721A.sol\":27439:27673  function setApprovalForAll(address operator, bool approved) public virtual override {... */\n      pop\n      pop\n      jump\t// out\n        /* \"erc721A.sol\":35000:35406  function safetransferfrom(... */\n    tag_67:\n        /* \"erc721A.sol\":35166:35197  transferFrom(from, to, tokenId) */\n      tag_148\n        /* \"erc721A.sol\":35179:35183  from */\n      dup5\n        /* \"erc721A.sol\":35185:35187  to */\n      dup5\n        /* \"erc721A.sol\":35189:35196  tokenId */\n      dup5\n        /* \"erc721A.sol\":35166:35178  transferFrom */\n      tag_47\n        /* \"erc721A.sol\":35166:35197  transferFrom(from, to, tokenId) */\n      jump\t// in\n    tag_148:\n        /* \"erc721A.sol\":35230:35231  0 */\n      0x00\n        /* \"erc721A.sol\":35212:35214  to */\n      dup4\n        /* \"erc721A.sol\":35212:35226  to.code.length */\n      0xffffffffffffffffffffffffffffffffffffffff\n      and\n      extcodesize\n        /* \"erc721A.sol\":35212:35231  to.code.length != 0 */\n      eq\n        /* \"erc721A.sol\":35208:35399  if (to.code.length != 0)... */\n      tag_149\n      jumpi\n        /* \"erc721A.sol\":35251:35306  _checkContractOnERC721Received(from, to, tokenId, data) */\n      tag_150\n        /* \"erc721A.sol\":35282:35286  from */\n      dup5\n        /* \"erc721A.sol\":35288:35290  to */\n      dup5\n        /* \"erc721A.sol\":35292:35299  tokenId */\n      dup5\n        /* \"erc721A.sol\":35301:35305  data */\n      dup5\n        /* \"erc721A.sol\":35251:35281  _checkContractOnERC721Received */\n      tag_151\n        /* \"erc721A.sol\":35251:35306  _checkContractOnERC721Received(from, to, tokenId, data) */\n      jump\t// in\n    tag_150:\n        /* \"erc721A.sol\":35246:35399  if (!_checkContractOnERC721Received(from, to, tokenId, data)) {... */\n      tag_152\n      jumpi\n        /* \"erc721A.sol\":35327:35383  _revert(TransferToNonERC721ReceiverImplementer.selector) */\n      tag_153\n        /* \"erc721A.sol\":35335:35382  TransferToNonERC721ReceiverImplementer.selector */\n      shl(0xe0, 0xd1a57ed6)\n        /* \"erc721A.sol\":35327:35334  _revert */\n      tag_95\n        /* \"erc721A.sol\":35327:35383  _revert(TransferToNonERC721ReceiverImplementer.selector) */\n      jump\t// in\n    tag_153:\n        /* \"erc721A.sol\":35246:35399  if (!_checkContractOnERC721Received(from, to, tokenId, data)) {... */\n    tag_152:\n        /* \"erc721A.sol\":35208:35399  if (to.code.length != 0)... */\n    tag_149:\n        /* \"erc721A.sol\":35000:35406  function safetransferfrom(... */\n      pop\n      pop\n      pop\n      pop\n      jump\t// out\n        /* \"erc721A.sol\":21641:21967  function tokenURI(uint256 tokenId) public view virtual override returns (string memory) {... */\n    tag_70:\n        /* \"erc721A.sol\":21714:21727  string memory */\n      0x60\n        /* \"erc721A.sol\":21745:21761  _exists(tokenId) */\n      tag_155\n        /* \"erc721A.sol\":21753:21760  tokenId */\n      dup3\n        /* \"erc721A.sol\":21745:21752  _exists */\n      tag_92\n        /* \"erc721A.sol\":21745:21761  _exists(tokenId) */\n      jump\t// in\n    tag_155:\n        /* \"erc721A.sol\":21740:21808  if (!_exists(tokenId)) _revert(URIQueryForNonexistentToken.selector) */\n      tag_156\n      jumpi\n        /* \"erc721A.sol\":21763:21808  _revert(URIQueryForNonexistentToken.selector) */\n      tag_157\n        /* \"erc721A.sol\":21771:21807  URIQueryForNonexistentToken.selector */\n      shl(0xe0, 0xa14c4b50)\n        /* \"erc721A.sol\":21763:21770  _revert */\n      tag_95\n        /* \"erc721A.sol\":21763:21808  _revert(URIQueryForNonexistentToken.selector) */\n      jump\t// in\n    tag_157:\n        /* \"erc721A.sol\":21740:21808  if (!_exists(tokenId)) _revert(URIQueryForNonexistentToken.selector) */\n    tag_156:\n        /* \"erc721A.sol\":21821:21842  string memory baseURI */\n      0x00\n        /* \"erc721A.sol\":21845:21855  _baseURI() */\n      tag_158\n        /* \"erc721A.sol\":21845:21853  _baseURI */\n      tag_159\n        /* \"erc721A.sol\":21845:21855  _baseURI() */\n      jump\t// in\n    tag_158:\n        /* \"erc721A.sol\":21821:21855  string memory baseURI = _baseURI() */\n      swap1\n      pop\n        /* \"erc721A.sol\":21898:21899  0 */\n      0x00\n        /* \"erc721A.sol\":21879:21886  baseURI */\n      dup2\n        /* \"erc721A.sol\":21873:21894  bytes(baseURI).length */\n      mload\n        /* \"erc721A.sol\":21873:21899  bytes(baseURI).length != 0 */\n      sub\n        /* \"erc721A.sol\":21873:21959  bytes(baseURI).length != 0 ? string(abi.encodePacked(baseURI, toString(tokenId))) : '' */\n      tag_160\n      jumpi\n      mload(0x40)\n      dup1\n      0x20\n      add\n      0x40\n      mstore\n      dup1\n      0x00\n      dup2\n      mstore\n      pop\n      jump(tag_161)\n    tag_160:\n        /* \"erc721A.sol\":21926:21933  baseURI */\n      dup1\n        /* \"erc721A.sol\":21935:21952  toString(tokenId) */\n      tag_162\n        /* \"erc721A.sol\":21944:21951  tokenId */\n      dup5\n        /* \"erc721A.sol\":21935:21943  toString */\n      tag_163\n        /* \"erc721A.sol\":21935:21952  toString(tokenId) */\n      jump\t// in\n    tag_162:\n        /* \"erc721A.sol\":21909:21953  abi.encodePacked(baseURI, toString(tokenId)) */\n      add(0x20, mload(0x40))\n      tag_164\n      swap3\n      swap2\n      swap1\n      tag_165\n      jump\t// in\n    tag_164:\n      mload(0x40)\n      0x20\n      dup2\n      dup4\n      sub\n      sub\n      dup2\n      mstore\n      swap1\n      0x40\n      mstore\n        /* \"erc721A.sol\":21873:21959  bytes(baseURI).length != 0 ? string(abi.encodePacked(baseURI, toString(tokenId))) : '' */\n    tag_161:\n        /* \"erc721A.sol\":21866:21959  return bytes(baseURI).length != 0 ? string(abi.encodePacked(baseURI, toString(tokenId))) : '' */\n      swap2\n      pop\n      pop\n        /* \"erc721A.sol\":21641:21967  function tokenURI(uint256 tokenId) public view virtual override returns (string memory) {... */\n      swap2\n      swap1\n      pop\n      jump\t// out\n        /* \"erc721A.sol\":34217:34402  function safetransferfrom(... */\n    tag_74:\n        /* \"erc721A.sol\":34355:34394  safetransferfrom(from, to, tokenId, '') */\n      tag_167\n        /* \"erc721A.sol\":34372:34376  from */\n      dup4\n        /* \"erc721A.sol\":34378:34380  to */\n      dup4\n        /* \"erc721A.sol\":34382:34389  tokenId */\n      dup4\n        /* \"erc721A.sol\":34355:34394  safetransferfrom(from, to, tokenId, '') */\n      mload(0x40)\n      dup1\n      0x20\n      add\n      0x40\n      mstore\n      dup1\n      0x00\n      dup2\n      mstore\n      pop\n        /* \"erc721A.sol\":34355:34371  safetransferfrom */\n      tag_67\n        /* \"erc721A.sol\":34355:34394  safetransferfrom(from, to, tokenId, '') */\n      jump\t// in\n    tag_167:\n        /* \"erc721A.sol\":34217:34402  function safetransferfrom(... */\n      pop\n      pop\n      pop\n      jump\t// out\n        /* \"erc721A.sol\":27830:27994  function isApprovedForAll(address owner, address operator) public view virtual override returns (bool) {... */\n    tag_78:\n        /* \"erc721A.sol\":27927:27931  bool */\n      0x00\n        /* \"erc721A.sol\":27951:27969  _operatorApprovals */\n      0x07\n        /* \"erc721A.sol\":27951:27976  _operatorApprovals[owner] */\n      0x00\n        /* \"erc721A.sol\":27970:27975  owner */\n      dup5\n        /* \"erc721A.sol\":27951:27976  _operatorApprovals[owner] */\n      0xffffffffffffffffffffffffffffffffffffffff\n      and\n      0xffffffffffffffffffffffffffffffffffffffff\n      and\n      dup2\n      mstore\n      0x20\n      add\n      swap1\n      dup2\n      mstore\n      0x20\n      add\n      0x00\n      keccak256\n        /* \"erc721A.sol\":27951:27986  _operatorApprovals[owner][operator] */\n      0x00\n        /* \"erc721A.sol\":27977:27985  operator */\n      dup4\n        /* \"erc721A.sol\":27951:27986  _operatorApprovals[owner][operator] */\n      0xffffffffffffffffffffffffffffffffffffffff\n      and\n      0xffffffffffffffffffffffffffffffffffffffff\n      and\n      dup2\n      mstore\n      0x20\n      add\n      swap1\n      dup2\n      mstore\n      0x20\n      add\n      0x00\n      keccak256\n      0x00\n      swap1\n      sload\n      swap1\n      0x0100\n      exp\n      swap1\n      div\n      0xff\n      and\n        /* \"erc721A.sol\":27944:27986  return _operatorApprovals[owner][operator] */\n      swap1\n      pop\n        /* \"erc721A.sol\":27830:27994  function isApprovedForAll(address owner, address operator) public view virtual override returns (bool) {... */\n      swap3\n      swap2\n      pop\n      pop\n      jump\t// out\n        /* \"erc721A.sol\":28252:28620  function _exists(uint256 tokenId) internal view virtual returns (bool result) {... */\n    tag_92:\n        /* \"erc721A.sol\":28317:28328  bool result */\n      0x00\n        /* \"erc721A.sol\":28364:28371  tokenId */\n      dup2\n        /* \"erc721A.sol\":28345:28360  _startTokenId() */\n      tag_170\n        /* \"erc721A.sol\":28345:28358  _startTokenId */\n      tag_101\n        /* \"erc721A.sol\":28345:28360  _startTokenId() */\n      jump\t// in\n    tag_170:\n        /* \"erc721A.sol\":28345:28371  _startTokenId() <= tokenId */\n      gt\n        /* \"erc721A.sol\":28341:28613  if (_startTokenId() <= tokenId) {... */\n      tag_171\n      jumpi\n        /* \"erc721A.sol\":28402:28415  _currentIndex */\n      sload(0x00)\n        /* \"erc721A.sol\":28392:28399  tokenId */\n      dup3\n        /* \"erc721A.sol\":28392:28415  tokenId < _currentIndex */\n      lt\n        /* \"erc721A.sol\":28388:28602  if (tokenId < _currentIndex) {... */\n      iszero\n      tag_172\n      jumpi\n        /* \"erc721A.sol\":28436:28450  uint256 packed */\n      0x00\n        /* \"erc721A.sol\":28469:28529  while ((packed = _packedOwnerships[tokenId]) == 0) --tokenId */\n    tag_173:\n        /* \"erc721A.sol\":28517:28518  0 */\n      0x00\n        /* \"erc721A.sol\":28486:28503  _packedOwnerships */\n      0x04\n        /* \"erc721A.sol\":28486:28512  _packedOwnerships[tokenId] */\n      0x00\n        /* \"erc721A.sol\":28504:28511  tokenId */\n      dup6\n        /* \"erc721A.sol\":28486:28512  _packedOwnerships[tokenId] */\n      dup2\n      mstore\n      0x20\n      add\n      swap1\n      dup2\n      mstore\n      0x20\n      add\n      0x00\n      keccak256\n      sload\n        /* \"erc721A.sol\":28477:28512  packed = _packedOwnerships[tokenId] */\n      swap2\n      pop\n      dup2\n        /* \"erc721A.sol\":28476:28518  (packed = _packedOwnerships[tokenId]) == 0 */\n      sub\n        /* \"erc721A.sol\":28469:28529  while ((packed = _packedOwnerships[tokenId]) == 0) --tokenId */\n      tag_174\n      jumpi\n        /* \"erc721A.sol\":28520:28529  --tokenId */\n      dup3\n      tag_175\n      swap1\n      tag_176\n      jump\t// in\n    tag_175:\n      swap3\n      pop\n        /* \"erc721A.sol\":28469:28529  while ((packed = _packedOwnerships[tokenId]) == 0) --tokenId */\n      jump(tag_173)\n    tag_174:\n        /* \"erc721A.sol\":28585:28586  0 */\n      0x00\n        /* \"erc721A.sol\":15244:15252  1 << 224 */\n      0x0100000000000000000000000000000000000000000000000000000000\n        /* \"erc721A.sol\":28557:28563  packed */\n      dup3\n        /* \"erc721A.sol\":28557:28581  packed & _BITMASK_BURNED */\n      and\n        /* \"erc721A.sol\":28557:28586  packed & _BITMASK_BURNED == 0 */\n      eq\n        /* \"erc721A.sol\":28548:28586  result = packed & _BITMASK_BURNED == 0 */\n      swap2\n      pop\n        /* \"erc721A.sol\":28417:28602  {... */\n      pop\n        /* \"erc721A.sol\":28388:28602  if (tokenId < _currentIndex) {... */\n    tag_172:\n        /* \"erc721A.sol\":28341:28613  if (_startTokenId() <= tokenId) {... */\n    tag_171:\n        /* \"erc721A.sol\":28252:28620  function _exists(uint256 tokenId) internal view virtual returns (bool result) {... */\n      swap2\n      swap1\n      pop\n      jump\t// out\n        /* \"erc721A.sol\":46807:46972  function _revert(bytes4 errorSelector) internal pure {... */\n    tag_95:\n        /* \"erc721A.sol\":46908:46921  errorSelector */\n      dup1\n        /* \"erc721A.sol\":46902:46906  0x00 */\n      0x00\n        /* \"erc721A.sol\":46895:46922  mstore(0x00, errorSelector) */\n      mstore\n        /* \"erc721A.sol\":46949:46953  0x04 */\n      0x04\n        /* \"erc721A.sol\":46943:46947  0x00 */\n      0x00\n        /* \"erc721A.sol\":46936:46954  revert(0x00, 0x04) */\n      revert\n        /* \"erc721A.sol\":43735:44209  function _approve(... */\n    tag_98:\n        /* \"erc721A.sol\":43864:43877  address owner */\n      0x00\n        /* \"erc721A.sol\":43880:43896  ownerOf(tokenId) */\n      tag_179\n        /* \"erc721A.sol\":43888:43895  tokenId */\n      dup4\n        /* \"erc721A.sol\":43880:43887  ownerOf */\n      tag_50\n        /* \"erc721A.sol\":43880:43896  ownerOf(tokenId) */\n      jump\t// in\n    tag_179:\n        /* \"erc721A.sol\":43864:43896  address owner = ownerOf(tokenId) */\n      swap1\n      pop\n        /* \"erc721A.sol\":43913:43926  approvalCheck */\n      dup2\n        /* \"erc721A.sol\":43913:43958  approvalCheck && _msgSenderERC721A() != owner */\n      dup1\n      iszero\n      tag_180\n      jumpi\n      pop\n        /* \"erc721A.sol\":43953:43958  owner */\n      dup1\n        /* \"erc721A.sol\":43930:43958  _msgSenderERC721A() != owner */\n      0xffffffffffffffffffffffffffffffffffffffff\n      and\n        /* \"erc721A.sol\":43930:43949  _msgSenderERC721A() */\n      tag_181\n        /* \"erc721A.sol\":43930:43947  _msgSenderERC721A */\n      tag_111\n        /* \"erc721A.sol\":43930:43949  _msgSenderERC721A() */\n      jump\t// in\n    tag_181:\n        /* \"erc721A.sol\":43930:43958  _msgSenderERC721A() != owner */\n      0xffffffffffffffffffffffffffffffffffffffff\n      and\n      eq\n      iszero\n        /* \"erc721A.sol\":43913:43958  approvalCheck && _msgSenderERC721A() != owner */\n    tag_180:\n        /* \"erc721A.sol\":43909:44110  if (approvalCheck && _msgSenderERC721A() != owner)... */\n      iszero\n      tag_182\n      jumpi\n        /* \"erc721A.sol\":43978:44022  isApprovedForAll(owner, _msgSenderERC721A()) */\n      tag_183\n        /* \"erc721A.sol\":43995:44000  owner */\n      dup2\n        /* \"erc721A.sol\":44002:44021  _msgSenderERC721A() */\n      tag_184\n        /* \"erc721A.sol\":44002:44019  _msgSenderERC721A */\n      tag_111\n        /* \"erc721A.sol\":44002:44021  _msgSenderERC721A() */\n      jump\t// in\n    tag_184:\n        /* \"erc721A.sol\":43978:43994  isApprovedForAll */\n      tag_78\n        /* \"erc721A.sol\":43978:44022  isApprovedForAll(owner, _msgSenderERC721A()) */\n      jump\t// in\n    tag_183:\n        /* \"erc721A.sol\":43973:44110  if (!isApprovedForAll(owner, _msgSenderERC721A())) {... */\n      tag_185\n      jumpi\n        /* \"erc721A.sol\":44043:44094  _revert(ApprovalCallerNotOwnerNorApproved.selector) */\n      tag_186\n        /* \"erc721A.sol\":44051:44093  ApprovalCallerNotOwnerNorApproved.selector */\n      shl(0xe0, 0xcfb3b942)\n        /* \"erc721A.sol\":44043:44050  _revert */\n      tag_95\n        /* \"erc721A.sol\":44043:44094  _revert(ApprovalCallerNotOwnerNorApproved.selector) */\n      jump\t// in\n    tag_186:\n        /* \"erc721A.sol\":43973:44110  if (!isApprovedForAll(owner, _msgSenderERC721A())) {... */\n    tag_185:\n        /* \"erc721A.sol\":43909:44110  if (approvalCheck && _msgSenderERC721A() != owner)... */\n    tag_182:\n        /* \"erc721A.sol\":44155:44157  to */\n      dup4\n        /* \"erc721A.sol\":44122:44137  _tokenApprovals */\n      0x06\n        /* \"erc721A.sol\":44122:44146  _tokenApprovals[tokenId] */\n      0x00\n        /* \"erc721A.sol\":44138:44145  tokenId */\n      dup6\n        /* \"erc721A.sol\":44122:44146  _tokenApprovals[tokenId] */\n      dup2\n      mstore\n      0x20\n      add\n      swap1\n      dup2\n      mstore\n      0x20\n      add\n      0x00\n      keccak256\n        /* \"erc721A.sol\":44122:44152  _tokenApprovals[tokenId].value */\n      0x00\n      add\n      0x00\n        /* \"erc721A.sol\":44122:44157  _tokenApprovals[tokenId].value = to */\n      0x0100\n      exp\n      dup2\n      sload\n      dup2\n      0xffffffffffffffffffffffffffffffffffffffff\n      mul\n      not\n      and\n      swap1\n      dup4\n      0xffffffffffffffffffffffffffffffffffffffff\n      and\n      mul\n      or\n      swap1\n      sstore\n      pop\n        /* \"erc721A.sol\":44193:44200  tokenId */\n      dup3\n        /* \"erc721A.sol\":44189:44191  to */\n      dup5\n        /* \"erc721A.sol\":44173:44201  Approval(owner, to, tokenId) */\n      0xffffffffffffffffffffffffffffffffffffffff\n      and\n        /* \"erc721A.sol\":44182:44187  owner */\n      dup3\n        /* \"erc721A.sol\":44173:44201  Approval(owner, to, tokenId) */\n      0xffffffffffffffffffffffffffffffffffffffff\n      and\n      0x8c5be1e5ebec7d5bd14f71427d1e84f3dd0314c0f7b2291e5b200ac8c7c3b925\n      mload(0x40)\n      mload(0x40)\n      dup1\n      swap2\n      sub\n      swap1\n      log4\n        /* \"erc721A.sol\":43853:44209  {... */\n      pop\n        /* \"erc721A.sol\":43735:44209  function _approve(... */\n      pop\n      pop\n      pop\n      jump\t// out\n        /* \"erc721A.sol\":18641:18733  function _startTokenId() internal view virtual returns (uint256) {... */\n    tag_101:\n        /* \"erc721A.sol\":18697:18704  uint256 */\n      0x00\n        /* \"erc721A.sol\":18641:18733  function _startTokenId() internal view virtual returns (uint256) {... */\n      swap1\n      jump\t// out\n        /* \"erc721A.sol\":22944:24956  function _packedOwnershipOf(uint256 tokenId) private view returns (uint256 packed) {... */\n    tag_104:\n        /* \"erc721A.sol\":23011:23025  uint256 packed */\n      0x00\n        /* \"erc721A.sol\":23061:23068  tokenId */\n      dup2\n        /* \"erc721A.sol\":23042:23057  _startTokenId() */\n      tag_189\n        /* \"erc721A.sol\":23042:23055  _startTokenId */\n      tag_101\n        /* \"erc721A.sol\":23042:23057  _startTokenId() */\n      jump\t// in\n    tag_189:\n        /* \"erc721A.sol\":23042:23068  _startTokenId() <= tokenId */\n      gt\n        /* \"erc721A.sol\":23038:24891  if (_startTokenId() <= tokenId) {... */\n      tag_190\n      jumpi\n        /* \"erc721A.sol\":23094:23111  _packedOwnerships */\n      0x04\n        /* \"erc721A.sol\":23094:23120  _packedOwnerships[tokenId] */\n      0x00\n        /* \"erc721A.sol\":23112:23119  tokenId */\n      dup4\n        /* \"erc721A.sol\":23094:23120  _packedOwnerships[tokenId] */\n      dup2\n      mstore\n      0x20\n      add\n      swap1\n      dup2\n      mstore\n      0x20\n      add\n      0x00\n      keccak256\n      sload\n        /* \"erc721A.sol\":23085:23120  packed = _packedOwnerships[tokenId] */\n      swap1\n      pop\n        /* \"erc721A.sol\":23230:23231  0 */\n      0x00\n        /* \"erc721A.sol\":23220:23226  packed */\n      dup2\n        /* \"erc721A.sol\":23220:23231  packed == 0 */\n      sub\n        /* \"erc721A.sol\":23216:24508  if (packed == 0) {... */\n      tag_191\n      jumpi\n        /* \"erc721A.sol\":23267:23280  _currentIndex */\n      sload(0x00)\n        /* \"erc721A.sol\":23256:23263  tokenId */\n      dup3\n        /* \"erc721A.sol\":23256:23280  tokenId >= _currentIndex */\n      lt\n        /* \"erc721A.sol\":23252:23329  if (tokenId >= _currentIndex) _revert(OwnerQueryForNonexistentToken.selector) */\n      tag_192\n      jumpi\n        /* \"erc721A.sol\":23282:23329  _revert(OwnerQueryForNonexistentToken.selector) */\n      tag_193\n        /* \"erc721A.sol\":23290:23328  OwnerQueryForNonexistentToken.selector */\n      shl(0xe0, 0xdf2d9b42)\n        /* \"erc721A.sol\":23282:23289  _revert */\n      tag_95\n        /* \"erc721A.sol\":23282:23329  _revert(OwnerQueryForNonexistentToken.selector) */\n      jump\t// in\n    tag_193:\n        /* \"erc721A.sol\":23252:23329  if (tokenId >= _currentIndex) _revert(OwnerQueryForNonexistentToken.selector) */\n    tag_192:\n        /* \"erc721A.sol\":23886:24493  for (;;) {... */\n    tag_194:\n        /* \"erc721A.sol\":23964:23981  _packedOwnerships */\n      0x04\n        /* \"erc721A.sol\":23964:23992  _packedOwnerships[--tokenId] */\n      0x00\n        /* \"erc721A.sol\":23982:23991  --tokenId */\n      dup4\n      0x01\n      swap1\n      sub\n      swap4\n      pop\n      dup4\n        /* \"erc721A.sol\":23964:23992  _packedOwnerships[--tokenId] */\n      dup2\n      mstore\n      0x20\n      add\n      swap1\n      dup2\n      mstore\n      0x20\n      add\n      0x00\n      keccak256\n      sload\n        /* \"erc721A.sol\":23955:23992  packed = _packedOwnerships[--tokenId] */\n      swap1\n      pop\n        /* \"erc721A.sol\":24052:24053  0 */\n      0x00\n        /* \"erc721A.sol\":24042:24048  packed */\n      dup2\n        /* \"erc721A.sol\":24042:24053  packed == 0 */\n      sub\n        /* \"erc721A.sol\":24038:24063  if (packed == 0) continue */\n      iszero\n        /* \"erc721A.sol\":24055:24063  continue */\n      tag_196\n        /* \"erc721A.sol\":24038:24063  if (packed == 0) continue */\n      jumpi\n        /* \"erc721A.sol\":24118:24119  0 */\n      0x00\n        /* \"erc721A.sol\":15244:15252  1 << 224 */\n      0x0100000000000000000000000000000000000000000000000000000000\n        /* \"erc721A.sol\":24090:24096  packed */\n      dup3\n        /* \"erc721A.sol\":24090:24114  packed & _BITMASK_BURNED */\n      and\n        /* \"erc721A.sol\":24090:24119  packed & _BITMASK_BURNED == 0 */\n      sub\n        /* \"erc721A.sol\":24086:24134  if (packed & _BITMASK_BURNED == 0) return packed */\n      iszero\n        /* \"erc721A.sol\":24121:24134  return packed */\n      tag_188\n        /* \"erc721A.sol\":24086:24134  if (packed & _BITMASK_BURNED == 0) return packed */\n      jumpi\n        /* \"erc721A.sol\":24426:24473  _revert(OwnerQueryForNonexistentToken.selector) */\n      tag_199\n        /* \"erc721A.sol\":24434:24472  OwnerQueryForNonexistentToken.selector */\n      shl(0xe0, 0xdf2d9b42)\n        /* \"erc721A.sol\":24426:24433  _revert */\n      tag_95\n        /* \"erc721A.sol\":24426:24473  _revert(OwnerQueryForNonexistentToken.selector) */\n      jump\t// in\n    tag_199:\n        /* \"erc721A.sol\":23886:24493  for (;;) {... */\n    tag_196:\n      jump(tag_194)\n        /* \"erc721A.sol\":23216:24508  if (packed == 0) {... */\n    tag_191:\n        /* \"erc721A.sol\":24863:24864  0 */\n      0x00\n        /* \"erc721A.sol\":15244:15252  1 << 224 */\n      0x0100000000000000000000000000000000000000000000000000000000\n        /* \"erc721A.sol\":24835:24841  packed */\n      dup3\n        /* \"erc721A.sol\":24835:24859  packed & _BITMASK_BURNED */\n      and\n        /* \"erc721A.sol\":24835:24864  packed & _BITMASK_BURNED == 0 */\n      sub\n        /* \"erc721A.sol\":24831:24879  if (packed & _BITMASK_BURNED == 0) return packed */\n      iszero\n        /* \"erc721A.sol\":24866:24879  return packed */\n      tag_188\n        /* \"erc721A.sol\":24831:24879  if (packed & _BITMASK_BURNED == 0) return packed */\n      jumpi\n        /* \"erc721A.sol\":23038:24891  if (_startTokenId() <= tokenId) {... */\n    tag_190:\n        /* \"erc721A.sol\":24901:24948  _revert(OwnerQueryForNonexistentToken.selector) */\n      tag_201\n        /* \"erc721A.sol\":24909:24947  OwnerQueryForNonexistentToken.selector */\n      shl(0xe0, 0xdf2d9b42)\n        /* \"erc721A.sol\":24901:24908  _revert */\n      tag_95\n        /* \"erc721A.sol\":24901:24948  _revert(OwnerQueryForNonexistentToken.selector) */\n      jump\t// in\n    tag_201:\n        /* \"erc721A.sol\":22944:24956  function _packedOwnershipOf(uint256 tokenId) private view returns (uint256 packed) {... */\n    tag_188:\n      swap2\n      swap1\n      pop\n      jump\t// out\n        /* \"erc721A.sol\":29501:29986  function _getApprovedSlotAndAddress(uint256 tokenId)... */\n    tag_108:\n        /* \"erc721A.sol\":29603:29630  uint256 approvedAddressSlot */\n      0x00\n        /* \"erc721A.sol\":29632:29655  address approvedAddress */\n      dup1\n        /* \"erc721A.sol\":29673:29711  TokenApprovalRef storage tokenApproval */\n      0x00\n        /* \"erc721A.sol\":29714:29729  _tokenApprovals */\n      0x06\n        /* \"erc721A.sol\":29714:29738  _tokenApprovals[tokenId] */\n      0x00\n        /* \"erc721A.sol\":29730:29737  tokenId */\n      dup6\n        /* \"erc721A.sol\":29714:29738  _tokenApprovals[tokenId] */\n      dup2\n      mstore\n      0x20\n      add\n      swap1\n      dup2\n      mstore\n      0x20\n      add\n      0x00\n      keccak256\n        /* \"erc721A.sol\":29673:29738  TokenApprovalRef storage tokenApproval = _tokenApprovals[tokenId] */\n      swap1\n      pop\n        /* \"erc721A.sol\":29891:29909  tokenApproval.slot */\n      dup1\n        /* \"erc721A.sol\":29868:29909  approvedAddressSlot := tokenApproval.slot */\n      swap3\n      pop\n        /* \"erc721A.sol\":29948:29967  approvedAddressSlot */\n      dup3\n        /* \"erc721A.sol\":29942:29968  sload(approvedAddressSlot) */\n      sload\n        /* \"erc721A.sol\":29923:29968  approvedAddress := sload(approvedAddressSlot) */\n      swap2\n      pop\n        /* \"erc721A.sol\":29853:29979  {... */\n      pop\n        /* \"erc721A.sol\":29501:29986  function _getApprovedSlotAndAddress(uint256 tokenId)... */\n      swap2\n      pop\n      swap2\n      jump\t// out\n        /* \"erc721A.sol\":45980:46085  function _msgSenderERC721A() internal view virtual returns (address) {... */\n    tag_111:\n        /* \"erc721A.sol\":46040:46047  address */\n      0x00\n        /* \"erc721A.sol\":46067:46077  msg.sender */\n      caller\n        /* \"erc721A.sol\":46060:46077  return msg.sender */\n      swap1\n      pop\n        /* \"erc721A.sol\":45980:46085  function _msgSenderERC721A() internal view virtual returns (address) {... */\n      swap1\n      jump\t// out\n        /* \"erc721A.sol\":28729:29388  function _isSenderApprovedOrOwner(... */\n    tag_112:\n        /* \"erc721A.sol\":28878:28889  bool result */\n      0x00\n        /* \"erc721A.sol\":29043:29059  _BITMASK_ADDRESS */\n      0xffffffffffffffffffffffffffffffffffffffff\n        /* \"erc721A.sol\":29036:29041  owner */\n      dup4\n        /* \"erc721A.sol\":29032:29060  and(owner, _BITMASK_ADDRESS) */\n      and\n        /* \"erc721A.sol\":29023:29060  owner := and(owner, _BITMASK_ADDRESS) */\n      swap3\n      pop\n        /* \"erc721A.sol\":29203:29219  _BITMASK_ADDRESS */\n      0xffffffffffffffffffffffffffffffffffffffff\n        /* \"erc721A.sol\":29192:29201  msgSender */\n      dup3\n        /* \"erc721A.sol\":29188:29220  and(msgSender, _BITMASK_ADDRESS) */\n      and\n        /* \"erc721A.sol\":29175:29220  msgSender := and(msgSender, _BITMASK_ADDRESS) */\n      swap2\n      pop\n        /* \"erc721A.sol\":29353:29368  approvedAddress */\n      dup4\n        /* \"erc721A.sol\":29342:29351  msgSender */\n      dup3\n        /* \"erc721A.sol\":29339:29369  eq(msgSender, approvedAddress) */\n      eq\n        /* \"erc721A.sol\":29331:29336  owner */\n      dup4\n        /* \"erc721A.sol\":29320:29329  msgSender */\n      dup4\n        /* \"erc721A.sol\":29317:29337  eq(msgSender, owner) */\n      eq\n        /* \"erc721A.sol\":29314:29370  or(eq(msgSender, owner), eq(msgSender, approvedAddress)) */\n      or\n        /* \"erc721A.sol\":29304:29370  result := or(eq(msgSender, owner), eq(msgSender, approvedAddress)) */\n      swap1\n      pop\n        /* \"erc721A.sol\":28729:29388  function _isSenderApprovedOrOwner(... */\n      swap4\n      swap3\n      pop\n      pop\n      pop\n      jump\t// out\n        /* \"erc721A.sol\":36068:36227  function _beforeTokenTransfers(... */\n    tag_119:\n      pop\n      pop\n      pop\n      pop\n      jump\t// out\n        /* \"erc721A.sol\":45289:45600  function _nextExtraData(... */\n    tag_123:\n        /* \"erc721A.sol\":45424:45431  uint256 */\n      0x00\n        /* \"erc721A.sol\":45444:45460  uint24 extraData */\n      dup1\n        /* \"erc721A.sol\":15648:15651  232 */\n      0xe8\n        /* \"erc721A.sol\":45470:45489  prevOwnershipPacked */\n      dup4\n        /* \"erc721A.sol\":45470:45511  prevOwnershipPacked >> _BITPOS_EXTRA_DATA */\n      swap1\n      shr\n        /* \"erc721A.sol\":45444:45512  uint24 extraData = uint24(prevOwnershipPacked >> _BITPOS_EXTRA_DATA) */\n      swap1\n      pop\n        /* \"erc721A.sol\":15648:15651  232 */\n      0xe8\n        /* \"erc721A.sol\":45538:45569  _extraData(from, to, extraData) */\n      tag_207\n        /* \"erc721A.sol\":45549:45553  from */\n      dup7\n        /* \"erc721A.sol\":45555:45557  to */\n      dup7\n        /* \"erc721A.sol\":45559:45568  extraData */\n      dup5\n        /* \"erc721A.sol\":45538:45548  _extraData */\n      tag_208\n        /* \"erc721A.sol\":45538:45569  _extraData(from, to, extraData) */\n      jump\t// in\n    tag_207:\n        /* \"erc721A.sol\":45530:45570  uint256(_extraData(from, to, extraData)) */\n      0xffffff\n      and\n        /* \"erc721A.sol\":45530:45592  uint256(_extraData(from, to, extraData)) << _BITPOS_EXTRA_DATA */\n      swap1\n      shl\n        /* \"erc721A.sol\":45523:45592  return uint256(_extraData(from, to, extraData)) << _BITPOS_EXTRA_DATA */\n      swap2\n      pop\n      pop\n        /* \"erc721A.sol\":45289:45600  function _nextExtraData(... */\n      swap4\n      swap3\n      pop\n      pop\n      pop\n      jump\t// out\n        /* \"erc721A.sol\":25041:25732  function _packOwnershipData(address owner, uint256 flags) private view returns (uint256 result) {... */\n    tag_124:\n        /* \"erc721A.sol\":25121:25135  uint256 result */\n      0x00\n        /* \"erc721A.sol\":25289:25331  0xFFFFFFFFFFFFFFFFFFFFFFFFFFFFFFFFFFFFFFFF */\n      0xffffffffffffffffffffffffffffffffffffffff\n        /* \"erc721A.sol\":25282:25287  owner */\n      dup4\n        /* \"erc721A.sol\":25278:25332  and(owner, 0xFFFFFFFFFFFFFFFFFFFFFFFFFFFFFFFFFFFFFFFF) */\n      and\n        /* \"erc721A.sol\":25269:25332  owner := and(owner, 0xFFFFFFFFFFFFFFFFFFFFFFFFFFFFFFFFFFFFFFFF) */\n      swap3\n      pop\n        /* \"erc721A.sol\":25439:25450  timestamp() */\n      timestamp\n        /* \"erc721A.sol\":25576:25592  currentTimestamp */\n      dup1\n        /* \"erc721A.sol\":25572:25574  96 */\n      0x60\n        /* \"erc721A.sol\":25568:25593  shl(96, currentTimestamp) */\n      shl\n        /* \"erc721A.sol\":25548:25593  currentTimestamp := shl(96, currentTimestamp) */\n      swap1\n      pop\n        /* \"erc721A.sol\":25707:25712  flags */\n      dup3\n        /* \"erc721A.sol\":25689:25705  currentTimestamp */\n      dup2\n        /* \"erc721A.sol\":25686:25713  or(currentTimestamp, flags) */\n      or\n        /* \"erc721A.sol\":25679:25684  owner */\n      dup5\n        /* \"erc721A.sol\":25676:25714  or(owner, or(currentTimestamp, flags)) */\n      or\n        /* \"erc721A.sol\":25666:25714  result := or(owner, or(currentTimestamp, flags)) */\n      swap2\n      pop\n        /* \"erc721A.sol\":25157:25725  {... */\n      pop\n        /* \"erc721A.sol\":25041:25732  function _packOwnershipData(address owner, uint256 flags) private view returns (uint256 result) {... */\n      swap3\n      swap2\n      pop\n      pop\n      jump\t// out\n        /* \"erc721A.sol\":36892:37050  function _afterTokenTransfers(... */\n    tag_131:\n      pop\n      pop\n      pop\n      pop\n      jump\t// out\n        /* \"erc721A.sol\":37490:38177  function _checkContractOnERC721Received(... */\n    tag_151:\n        /* \"erc721A.sol\":37653:37657  bool */\n      0x00\n        /* \"erc721A.sol\":37697:37699  to */\n      dup4\n        /* \"erc721A.sol\":37674:37717  ERC721AIERC721RECEIVER(to).onERC721Received */\n      0xffffffffffffffffffffffffffffffffffffffff\n      and\n      0x150b7a02\n        /* \"erc721A.sol\":37718:37737  _msgSenderERC721A() */\n      tag_212\n        /* \"erc721A.sol\":37718:37735  _msgSenderERC721A */\n      tag_111\n        /* \"erc721A.sol\":37718:37737  _msgSenderERC721A() */\n      jump\t// in\n    tag_212:\n        /* \"erc721A.sol\":37739:37743  from */\n      dup8\n        /* \"erc721A.sol\":37745:37752  tokenId */\n      dup7\n        /* \"erc721A.sol\":37754:37759  _data */\n      dup7\n        /* \"erc721A.sol\":37674:37760  ERC721AIERC721RECEIVER(to).onERC721Received(_msgSenderERC721A(), from, tokenId, _data) */\n      mload(0x40)\n      dup6\n      0xffffffff\n      and\n      0xe0\n      shl\n      dup2\n      mstore\n      0x04\n      add\n      tag_213\n      swap5\n      swap4\n      swap3\n      swap2\n      swap1\n      tag_214\n      jump\t// in\n    tag_213:\n      0x20\n      mload(0x40)\n      dup1\n      dup4\n      sub\n      dup2\n      0x00\n      dup8\n      gas\n      call\n      swap3\n      pop\n      pop\n      pop\n      dup1\n      iszero\n      tag_215\n      jumpi\n      pop\n      mload(0x40)\n      returndatasize\n      not(0x1f)\n      0x1f\n      dup3\n      add\n      and\n      dup3\n      add\n      dup1\n      0x40\n      mstore\n      pop\n      dup2\n      add\n      swap1\n      tag_216\n      swap2\n      swap1\n      tag_217\n      jump\t// in\n    tag_216:\n      0x01\n    tag_215:\n        /* \"erc721A.sol\":37670:38170  try ERC721AIERC721RECEIVER(to).onERC721Received(_msgSenderERC721A(), from, tokenId, _data) returns (... */\n      tag_218\n      jumpi\n      returndatasize\n      dup1\n      0x00\n      dup2\n      eq\n      tag_223\n      jumpi\n      mload(0x40)\n      swap2\n      pop\n      and(add(returndatasize, 0x3f), not(0x1f))\n      dup3\n      add\n      0x40\n      mstore\n      returndatasize\n      dup3\n      mstore\n      returndatasize\n      0x00\n      0x20\n      dup5\n      add\n      returndatacopy\n      jump(tag_222)\n    tag_223:\n      0x60\n      swap2\n      pop\n    tag_222:\n      pop\n        /* \"erc721A.sol\":37970:37971  0 */\n      0x00\n        /* \"erc721A.sol\":37953:37959  reason */\n      dup2\n        /* \"erc721A.sol\":37953:37966  reason.length */\n      mload\n        /* \"erc721A.sol\":37953:37971  reason.length == 0 */\n      sub\n        /* \"erc721A.sol\":37949:38064  if (reason.length == 0) {... */\n      tag_224\n      jumpi\n        /* \"erc721A.sol\":37992:38048  _revert(TransferToNonERC721ReceiverImplementer.selector) */\n      tag_225\n        /* \"erc721A.sol\":38000:38047  TransferToNonERC721ReceiverImplementer.selector */\n      shl(0xe0, 0xd1a57ed6)\n        /* \"erc721A.sol\":37992:37999  _revert */\n      tag_95\n        /* \"erc721A.sol\":37992:38048  _revert(TransferToNonERC721ReceiverImplementer.selector) */\n      jump\t// in\n    tag_225:\n        /* \"erc721A.sol\":37949:38064  if (reason.length == 0) {... */\n    tag_224:\n        /* \"erc721A.sol\":38136:38142  reason */\n      dup1\n        /* \"erc721A.sol\":38130:38143  mload(reason) */\n      mload\n        /* \"erc721A.sol\":38121:38127  reason */\n      dup2\n        /* \"erc721A.sol\":38117:38119  32 */\n      0x20\n        /* \"erc721A.sol\":38113:38128  add(32, reason) */\n      add\n        /* \"erc721A.sol\":38106:38144  revert(add(32, reason), mload(reason)) */\n      revert\n        /* \"erc721A.sol\":37670:38170  try ERC721AIERC721RECEIVER(to).onERC721Received(_msgSenderERC721A(), from, tokenId, _data) returns (... */\n    tag_218:\n        /* \"erc721A.sol\":37841:37893  ERC721AIERC721RECEIVER(to).onERC721Received.selector */\n      shl(0xe0, 0x150b7a02)\n        /* \"erc721A.sol\":37831:37893  retval == ERC721AIERC721RECEIVER(to).onERC721Received.selector */\n      not(0xffffffffffffffffffffffffffffffffffffffffffffffffffffffff)\n      and\n        /* \"erc721A.sol\":37831:37837  retval */\n      dup2\n        /* \"erc721A.sol\":37831:37893  retval == ERC721AIERC721RECEIVER(to).onERC721Received.selector */\n      not(0xffffffffffffffffffffffffffffffffffffffffffffffffffffffff)\n      and\n      eq\n        /* \"erc721A.sol\":37824:37893  return retval == ERC721AIERC721RECEIVER(to).onERC721Received.selector */\n      swap2\n      pop\n      pop\n        /* \"erc721A.sol\":37490:38177  function _checkContractOnERC721Received(... */\n      swap5\n      swap4\n      pop\n      pop\n      pop\n      pop\n      jump\t// out\n        /* \"erc721A.sol\":22219:22359  function _baseURI() internal pure returns (string memory) {... */\n    tag_159:\n        /* \"erc721A.sol\":22262:22275  string memory */\n      0x60\n        /* \"erc721A.sol\":22288:22351  return \"ipfs://Qmac89sZTSGvKkyYa2vrxdRakPREaGFJSNJRRWetzTLQTM/\" */\n      mload(0x40)\n      dup1\n      0x60\n      add\n      0x40\n      mstore\n      dup1\n      0x36\n      dup2\n      mstore\n      0x20\n      add\n      data_1250311f865916c0c48ec18be7711c5b67f23674d6e827435103b8b03cf0ba32\n      0x36\n      swap2\n      codecopy\n      swap1\n      pop\n        /* \"erc721A.sol\":22219:22359  function _baseURI() internal pure returns (string memory) {... */\n      swap1\n      jump\t// out\n        /* \"erc721A.sol\":46187:46740  function toString(uint256 value) internal pure returns (string memory) {... */\n    tag_163:\n        /* \"erc721A.sol\":46243:46256  string memory */\n      0x60\n        /* \"erc721A.sol\":46282:46283  0 */\n      0x00\n        /* \"erc721A.sol\":46273:46278  value */\n      dup3\n        /* \"erc721A.sol\":46273:46283  value == 0 */\n      sub\n        /* \"erc721A.sol\":46269:46322  if (value == 0) {... */\n      tag_229\n      jumpi\n        /* \"erc721A.sol\":46300:46310  return \"0\" */\n      mload(0x40)\n      dup1\n      0x40\n      add\n      0x40\n      mstore\n      dup1\n      0x01\n      dup2\n      mstore\n      0x20\n      add\n      0x3000000000000000000000000000000000000000000000000000000000000000\n      dup2\n      mstore\n      pop\n      swap1\n      pop\n      jump(tag_228)\n        /* \"erc721A.sol\":46269:46322  if (value == 0) {... */\n    tag_229:\n        /* \"erc721A.sol\":46342:46354  uint256 temp */\n      0x00\n        /* \"erc721A.sol\":46357:46362  value */\n      dup3\n        /* \"erc721A.sol\":46342:46362  uint256 temp = value */\n      swap1\n      pop\n        /* \"erc721A.sol\":46373:46387  uint256 digits */\n      0x00\n        /* \"erc721A.sol\":46398:46476  while (temp != 0) {... */\n    tag_230:\n        /* \"erc721A.sol\":46413:46414  0 */\n      0x00\n        /* \"erc721A.sol\":46405:46409  temp */\n      dup3\n        /* \"erc721A.sol\":46405:46414  temp != 0 */\n      eq\n        /* \"erc721A.sol\":46398:46476  while (temp != 0) {... */\n      tag_231\n      jumpi\n        /* \"erc721A.sol\":46431:46439  digits++ */\n      dup1\n      dup1\n      tag_232\n      swap1\n      tag_233\n      jump\t// in\n    tag_232:\n      swap2\n      pop\n      pop\n        /* \"erc721A.sol\":46462:46464  10 */\n      0x0a\n        /* \"erc721A.sol\":46454:46464  temp /= 10 */\n      dup3\n      tag_234\n      swap2\n      swap1\n      tag_235\n      jump\t// in\n    tag_234:\n      swap2\n      pop\n        /* \"erc721A.sol\":46398:46476  while (temp != 0) {... */\n      jump(tag_230)\n    tag_231:\n        /* \"erc721A.sol\":46496:46515  bytes memory buffer */\n      0x00\n        /* \"erc721A.sol\":46528:46534  digits */\n      dup2\n        /* \"erc721A.sol\":46518:46535  new bytes(digits) */\n      0xffffffffffffffff\n      dup2\n      gt\n      iszero\n      tag_236\n      jumpi\n      tag_237\n      tag_238\n      jump\t// in\n    tag_237:\n    tag_236:\n      mload(0x40)\n      swap1\n      dup1\n      dup3\n      mstore\n      dup1\n      0x1f\n      add\n      not(0x1f)\n      and\n      0x20\n      add\n      dup3\n      add\n      0x40\n      mstore\n      dup1\n      iszero\n      tag_239\n      jumpi\n      dup2\n      0x20\n      add\n      0x01\n      dup3\n      mul\n      dup1\n      calldatasize\n      dup4\n      calldatacopy\n      dup1\n      dup3\n      add\n      swap2\n      pop\n      pop\n      swap1\n      pop\n    tag_239:\n      pop\n        /* \"erc721A.sol\":46496:46535  bytes memory buffer = new bytes(digits) */\n      swap1\n      pop\n        /* \"erc721A.sol\":46546:46691  while (value != 0) {... */\n    tag_240:\n        /* \"erc721A.sol\":46562:46563  0 */\n      0x00\n        /* \"erc721A.sol\":46553:46558  value */\n      dup6\n        /* \"erc721A.sol\":46553:46563  value != 0 */\n      eq\n        /* \"erc721A.sol\":46546:46691  while (value != 0) {... */\n      tag_241\n      jumpi\n        /* \"erc721A.sol\":46590:46591  1 */\n      0x01\n        /* \"erc721A.sol\":46580:46591  digits -= 1 */\n      dup3\n      tag_242\n      swap2\n      swap1\n      tag_243\n      jump\t// in\n    tag_242:\n      swap2\n      pop\n        /* \"erc721A.sol\":46649:46651  10 */\n      0x0a\n        /* \"erc721A.sol\":46641:46646  value */\n      dup6\n        /* \"erc721A.sol\":46641:46651  value % 10 */\n      tag_244\n      swap2\n      swap1\n      tag_245\n      jump\t// in\n    tag_244:\n        /* \"erc721A.sol\":46636:46638  48 */\n      0x30\n        /* \"erc721A.sol\":46636:46651  48 + value % 10 */\n      tag_246\n      swap2\n      swap1\n      tag_247\n      jump\t// in\n    tag_246:\n        /* \"erc721A.sol\":46623:46653  bytes1(uint8(48 + value % 10)) */\n      0xf8\n      shl\n        /* \"erc721A.sol\":46606:46612  buffer */\n      dup2\n        /* \"erc721A.sol\":46613:46619  digits */\n      dup4\n        /* \"erc721A.sol\":46606:46620  buffer[digits] */\n      dup2\n      mload\n      dup2\n      lt\n      tag_248\n      jumpi\n      tag_249\n      tag_250\n      jump\t// in\n    tag_249:\n    tag_248:\n      0x20\n      add\n      add\n        /* \"erc721A.sol\":46606:46653  buffer[digits] = bytes1(uint8(48 + value % 10)) */\n      swap1\n      not(0xffffffffffffffffffffffffffffffffffffffffffffffffffffffffffffff)\n      and\n      swap1\n      dup2\n      0x00\n      byte\n      swap1\n      mstore8\n      pop\n        /* \"erc721A.sol\":46677:46679  10 */\n      0x0a\n        /* \"erc721A.sol\":46668:46679  value /= 10 */\n      dup6\n      tag_251\n      swap2\n      swap1\n      tag_235\n      jump\t// in\n    tag_251:\n      swap5\n      pop\n        /* \"erc721A.sol\":46546:46691  while (value != 0) {... */\n      jump(tag_240)\n    tag_241:\n        /* \"erc721A.sol\":46725:46731  buffer */\n      dup1\n        /* \"erc721A.sol\":46711:46732  return string(buffer) */\n      swap4\n      pop\n      pop\n      pop\n      pop\n        /* \"erc721A.sol\":46187:46740  function toString(uint256 value) internal pure returns (string memory) {... */\n    tag_228:\n      swap2\n      swap1\n      pop\n      jump\t// out\n        /* \"erc721A.sol\":44990:45137  function _extraData(... */\n    tag_208:\n        /* \"erc721A.sol\":45127:45133  uint24 */\n      0x00\n        /* \"erc721A.sol\":44990:45137  function _extraData(... */\n      swap4\n      swap3\n      pop\n      pop\n      pop\n      jump\t// out\n        /* \"#utility.yul\":7:82   */\n    tag_253:\n        /* \"#utility.yul\":40:46   */\n      0x00\n        /* \"#utility.yul\":73:75   */\n      0x40\n        /* \"#utility.yul\":67:76   */\n      mload\n        /* \"#utility.yul\":57:76   */\n      swap1\n      pop\n        /* \"#utility.yul\":7:82   */\n      swap1\n      jump\t// out\n        /* \"#utility.yul\":88:205   */\n    tag_254:\n        /* \"#utility.yul\":197:198   */\n      0x00\n        /* \"#utility.yul\":194:195   */\n      dup1\n        /* \"#utility.yul\":187:199   */\n      revert\n        /* \"#utility.yul\":211:328   */\n    tag_255:\n        /* \"#utility.yul\":320:321   */\n      0x00\n        /* \"#utility.yul\":317:318   */\n      dup1\n        /* \"#utility.yul\":310:322   */\n      revert\n        /* \"#utility.yul\":334:483   */\n    tag_256:\n        /* \"#utility.yul\":370:377   */\n      0x00\n        /* \"#utility.yul\":410:476   */\n      0xffffffff00000000000000000000000000000000000000000000000000000000\n        /* \"#utility.yul\":403:408   */\n      dup3\n        /* \"#utility.yul\":399:477   */\n      and\n        /* \"#utility.yul\":388:477   */\n      swap1\n      pop\n        /* \"#utility.yul\":334:483   */\n      swap2\n      swap1\n      pop\n      jump\t// out\n        /* \"#utility.yul\":489:609   */\n    tag_257:\n        /* \"#utility.yul\":561:584   */\n      tag_300\n        /* \"#utility.yul\":578:583   */\n      dup2\n        /* \"#utility.yul\":561:584   */\n      tag_256\n      jump\t// in\n    tag_300:\n        /* \"#utility.yul\":554:559   */\n      dup2\n        /* \"#utility.yul\":551:585   */\n      eq\n        /* \"#utility.yul\":541:603   */\n      tag_301\n      jumpi\n        /* \"#utility.yul\":599:600   */\n      0x00\n        /* \"#utility.yul\":596:597   */\n      dup1\n        /* \"#utility.yul\":589:601   */\n      revert\n        /* \"#utility.yul\":541:603   */\n    tag_301:\n        /* \"#utility.yul\":489:609   */\n      pop\n      jump\t// out\n        /* \"#utility.yul\":615:752   */\n    tag_258:\n        /* \"#utility.yul\":660:665   */\n      0x00\n        /* \"#utility.yul\":698:704   */\n      dup2\n        /* \"#utility.yul\":685:705   */\n      calldataload\n        /* \"#utility.yul\":676:705   */\n      swap1\n      pop\n        /* \"#utility.yul\":714:746   */\n      tag_303\n        /* \"#utility.yul\":740:745   */\n      dup2\n        /* \"#utility.yul\":714:746   */\n      tag_257\n      jump\t// in\n    tag_303:\n        /* \"#utility.yul\":615:752   */\n      swap3\n      swap2\n      pop\n      pop\n      jump\t// out\n        /* \"#utility.yul\":758:1085   */\n    tag_22:\n        /* \"#utility.yul\":816:822   */\n      0x00\n        /* \"#utility.yul\":865:867   */\n      0x20\n        /* \"#utility.yul\":853:862   */\n      dup3\n        /* \"#utility.yul\":844:851   */\n      dup5\n        /* \"#utility.yul\":840:863   */\n      sub\n        /* \"#utility.yul\":836:868   */\n      slt\n        /* \"#utility.yul\":833:952   */\n      iszero\n      tag_305\n      jumpi\n        /* \"#utility.yul\":871:950   */\n      tag_306\n      tag_254\n      jump\t// in\n    tag_306:\n        /* \"#utility.yul\":833:952   */\n    tag_305:\n        /* \"#utility.yul\":991:992   */\n      0x00\n        /* \"#utility.yul\":1016:1068   */\n      tag_307\n        /* \"#utility.yul\":1060:1067   */\n      dup5\n        /* \"#utility.yul\":1051:1057   */\n      dup3\n        /* \"#utility.yul\":1040:1049   */\n      dup6\n        /* \"#utility.yul\":1036:1058   */\n      add\n        /* \"#utility.yul\":1016:1068   */\n      tag_258\n      jump\t// in\n    tag_307:\n        /* \"#utility.yul\":1006:1068   */\n      swap2\n      pop\n        /* \"#utility.yul\":962:1078   */\n      pop\n        /* \"#utility.yul\":758:1085   */\n      swap3\n      swap2\n      pop\n      pop\n      jump\t// out\n        /* \"#utility.yul\":1091:1181   */\n    tag_259:\n        /* \"#utility.yul\":1125:1132   */\n      0x00\n        /* \"#utility.yul\":1168:1173   */\n      dup2\n        /* \"#utility.yul\":1161:1174   */\n      iszero\n        /* \"#utility.yul\":1154:1175   */\n      iszero\n        /* \"#utility.yul\":1143:1175   */\n      swap1\n      pop\n        /* \"#utility.yul\":1091:1181   */\n      swap2\n      swap1\n      pop\n      jump\t// out\n        /* \"#utility.yul\":1187:1296   */\n    tag_260:\n        /* \"#utility.yul\":1268:1289   */\n      tag_310\n        /* \"#utility.yul\":1283:1288   */\n      dup2\n        /* \"#utility.yul\":1268:1289   */\n      tag_259\n      jump\t// in\n    tag_310:\n        /* \"#utility.yul\":1263:1266   */\n      dup3\n        /* \"#utility.yul\":1256:1290   */\n      mstore\n        /* \"#utility.yul\":1187:1296   */\n      pop\n      pop\n      jump\t// out\n        /* \"#utility.yul\":1302:1512   */\n    tag_25:\n        /* \"#utility.yul\":1389:1393   */\n      0x00\n        /* \"#utility.yul\":1427:1429   */\n      0x20\n        /* \"#utility.yul\":1416:1425   */\n      dup3\n        /* \"#utility.yul\":1412:1430   */\n      add\n        /* \"#utility.yul\":1404:1430   */\n      swap1\n      pop\n        /* \"#utility.yul\":1440:1505   */\n      tag_312\n        /* \"#utility.yul\":1502:1503   */\n      0x00\n        /* \"#utility.yul\":1491:1500   */\n      dup4\n        /* \"#utility.yul\":1487:1504   */\n      add\n        /* \"#utility.yul\":1478:1484   */\n      dup5\n        /* \"#utility.yul\":1440:1505   */\n      tag_260\n      jump\t// in\n    tag_312:\n        /* \"#utility.yul\":1302:1512   */\n      swap3\n      swap2\n      pop\n      pop\n      jump\t// out\n        /* \"#utility.yul\":1518:1617   */\n    tag_261:\n        /* \"#utility.yul\":1570:1576   */\n      0x00\n        /* \"#utility.yul\":1604:1609   */\n      dup2\n        /* \"#utility.yul\":1598:1610   */\n      mload\n        /* \"#utility.yul\":1588:1610   */\n      swap1\n      pop\n        /* \"#utility.yul\":1518:1617   */\n      swap2\n      swap1\n      pop\n      jump\t// out\n        /* \"#utility.yul\":1623:1792   */\n    tag_262:\n        /* \"#utility.yul\":1707:1718   */\n      0x00\n        /* \"#utility.yul\":1741:1747   */\n      dup3\n        /* \"#utility.yul\":1736:1739   */\n      dup3\n        /* \"#utility.yul\":1729:1748   */\n      mstore\n        /* \"#utility.yul\":1781:1785   */\n      0x20\n        /* \"#utility.yul\":1776:1779   */\n      dup3\n        /* \"#utility.yul\":1772:1786   */\n      add\n        /* \"#utility.yul\":1757:1786   */\n      swap1\n      pop\n        /* \"#utility.yul\":1623:1792   */\n      swap3\n      swap2\n      pop\n      pop\n      jump\t// out\n        /* \"#utility.yul\":1798:2044   */\n    tag_263:\n        /* \"#utility.yul\":1879:1880   */\n      0x00\n        /* \"#utility.yul\":1889:2002   */\n    tag_316:\n        /* \"#utility.yul\":1903:1909   */\n      dup4\n        /* \"#utility.yul\":1900:1901   */\n      dup2\n        /* \"#utility.yul\":1897:1910   */\n      lt\n        /* \"#utility.yul\":1889:2002   */\n      iszero\n      tag_318\n      jumpi\n        /* \"#utility.yul\":1988:1989   */\n      dup1\n        /* \"#utility.yul\":1983:1986   */\n      dup3\n        /* \"#utility.yul\":1979:1990   */\n      add\n        /* \"#utility.yul\":1973:1991   */\n      mload\n        /* \"#utility.yul\":1969:1970   */\n      dup2\n        /* \"#utility.yul\":1964:1967   */\n      dup5\n        /* \"#utility.yul\":1960:1971   */\n      add\n        /* \"#utility.yul\":1953:1992   */\n      mstore\n        /* \"#utility.yul\":1925:1927   */\n      0x20\n        /* \"#utility.yul\":1922:1923   */\n      dup2\n        /* \"#utility.yul\":1918:1928   */\n      add\n        /* \"#utility.yul\":1913:1928   */\n      swap1\n      pop\n        /* \"#utility.yul\":1889:2002   */\n      jump(tag_316)\n    tag_318:\n        /* \"#utility.yul\":2036:2037   */\n      0x00\n        /* \"#utility.yul\":2027:2033   */\n      dup5\n        /* \"#utility.yul\":2022:2025   */\n      dup5\n        /* \"#utility.yul\":2018:2034   */\n      add\n        /* \"#utility.yul\":2011:2038   */\n      mstore\n        /* \"#utility.yul\":1860:2044   */\n      pop\n        /* \"#utility.yul\":1798:2044   */\n      pop\n      pop\n      pop\n      jump\t// out\n        /* \"#utility.yul\":2050:2152   */\n    tag_264:\n        /* \"#utility.yul\":2091:2097   */\n      0x00\n        /* \"#utility.yul\":2142:2144   */\n      0x1f\n        /* \"#utility.yul\":2138:2145   */\n      not\n        /* \"#utility.yul\":2133:2135   */\n      0x1f\n        /* \"#utility.yul\":2126:2131   */\n      dup4\n        /* \"#utility.yul\":2122:2136   */\n      add\n        /* \"#utility.yul\":2118:2146   */\n      and\n        /* \"#utility.yul\":2108:2146   */\n      swap1\n      pop\n        /* \"#utility.yul\":2050:2152   */\n      swap2\n      swap1\n      pop\n      jump\t// out\n        /* \"#utility.yul\":2158:2535   */\n    tag_265:\n        /* \"#utility.yul\":2246:2249   */\n      0x00\n        /* \"#utility.yul\":2274:2313   */\n      tag_321\n        /* \"#utility.yul\":2307:2312   */\n      dup3\n        /* \"#utility.yul\":2274:2313   */\n      tag_261\n      jump\t// in\n    tag_321:\n        /* \"#utility.yul\":2329:2400   */\n      tag_322\n        /* \"#utility.yul\":2393:2399   */\n      dup2\n        /* \"#utility.yul\":2388:2391   */\n      dup6\n        /* \"#utility.yul\":2329:2400   */\n      tag_262\n      jump\t// in\n    tag_322:\n        /* \"#utility.yul\":2322:2400   */\n      swap4\n      pop\n        /* \"#utility.yul\":2409:2474   */\n      tag_323\n        /* \"#utility.yul\":2467:2473   */\n      dup2\n        /* \"#utility.yul\":2462:2465   */\n      dup6\n        /* \"#utility.yul\":2455:2459   */\n      0x20\n        /* \"#utility.yul\":2448:2453   */\n      dup7\n        /* \"#utility.yul\":2444:2460   */\n      add\n        /* \"#utility.yul\":2409:2474   */\n      tag_263\n      jump\t// in\n    tag_323:\n        /* \"#utility.yul\":2499:2528   */\n      tag_324\n        /* \"#utility.yul\":2521:2527   */\n      dup2\n        /* \"#utility.yul\":2499:2528   */\n      tag_264\n      jump\t// in\n    tag_324:\n        /* \"#utility.yul\":2494:2497   */\n      dup5\n        /* \"#utility.yul\":2490:2529   */\n      add\n        /* \"#utility.yul\":2483:2529   */\n      swap2\n      pop\n        /* \"#utility.yul\":2250:2535   */\n      pop\n        /* \"#utility.yul\":2158:2535   */\n      swap3\n      swap2\n      pop\n      pop\n      jump\t// out\n        /* \"#utility.yul\":2541:2854   */\n    tag_29:\n        /* \"#utility.yul\":2654:2658   */\n      0x00\n        /* \"#utility.yul\":2692:2694   */\n      0x20\n        /* \"#utility.yul\":2681:2690   */\n      dup3\n        /* \"#utility.yul\":2677:2695   */\n      add\n        /* \"#utility.yul\":2669:2695   */\n      swap1\n      pop\n        /* \"#utility.yul\":2741:2750   */\n      dup2\n        /* \"#utility.yul\":2735:2739   */\n      dup2\n        /* \"#utility.yul\":2731:2751   */\n      sub\n        /* \"#utility.yul\":2727:2728   */\n      0x00\n        /* \"#utility.yul\":2716:2725   */\n      dup4\n        /* \"#utility.yul\":2712:2729   */\n      add\n        /* \"#utility.yul\":2705:2752   */\n      mstore\n        /* \"#utility.yul\":2769:2847   */\n      tag_326\n        /* \"#utility.yul\":2842:2846   */\n      dup2\n        /* \"#utility.yul\":2833:2839   */\n      dup5\n        /* \"#utility.yul\":2769:2847   */\n      tag_265\n      jump\t// in\n    tag_326:\n        /* \"#utility.yul\":2761:2847   */\n      swap1\n      pop\n        /* \"#utility.yul\":2541:2854   */\n      swap3\n      swap2\n      pop\n      pop\n      jump\t// out\n        /* \"#utility.yul\":2860:2937   */\n    tag_266:\n        /* \"#utility.yul\":2897:2904   */\n      0x00\n        /* \"#utility.yul\":2926:2931   */\n      dup2\n        /* \"#utility.yul\":2915:2931   */\n      swap1\n      pop\n        /* \"#utility.yul\":2860:2937   */\n      swap2\n      swap1\n      pop\n      jump\t// out\n        /* \"#utility.yul\":2943:3065   */\n    tag_267:\n        /* \"#utility.yul\":3016:3040   */\n      tag_329\n        /* \"#utility.yul\":3034:3039   */\n      dup2\n        /* \"#utility.yul\":3016:3040   */\n      tag_266\n      jump\t// in\n    tag_329:\n        /* \"#utility.yul\":3009:3014   */\n      dup2\n        /* \"#utility.yul\":3006:3041   */\n      eq\n        /* \"#utility.yul\":2996:3059   */\n      tag_330\n      jumpi\n        /* \"#utility.yul\":3055:3056   */\n      0x00\n        /* \"#utility.yul\":3052:3053   */\n      dup1\n        /* \"#utility.yul\":3045:3057   */\n      revert\n        /* \"#utility.yul\":2996:3059   */\n    tag_330:\n        /* \"#utility.yul\":2943:3065   */\n      pop\n      jump\t// out\n        /* \"#utility.yul\":3071:3210   */\n    tag_268:\n        /* \"#utility.yul\":3117:3122   */\n      0x00\n        /* \"#utility.yul\":3155:3161   */\n      dup2\n        /* \"#utility.yul\":3142:3162   */\n      calldataload\n        /* \"#utility.yul\":3133:3162   */\n      swap1\n      pop\n        /* \"#utility.yul\":3171:3204   */\n      tag_332\n        /* \"#utility.yul\":3198:3203   */\n      dup2\n        /* \"#utility.yul\":3171:3204   */\n      tag_267\n      jump\t// in\n    tag_332:\n        /* \"#utility.yul\":3071:3210   */\n      swap3\n      swap2\n      pop\n      pop\n      jump\t// out\n        /* \"#utility.yul\":3216:3545   */\n    tag_32:\n        /* \"#utility.yul\":3275:3281   */\n      0x00\n        /* \"#utility.yul\":3324:3326   */\n      0x20\n        /* \"#utility.yul\":3312:3321   */\n      dup3\n        /* \"#utility.yul\":3303:3310   */\n      dup5\n        /* \"#utility.yul\":3299:3322   */\n      sub\n        /* \"#utility.yul\":3295:3327   */\n      slt\n        /* \"#utility.yul\":3292:3411   */\n      iszero\n      tag_334\n      jumpi\n        /* \"#utility.yul\":3330:3409   */\n      tag_335\n      tag_254\n      jump\t// in\n    tag_335:\n        /* \"#utility.yul\":3292:3411   */\n    tag_334:\n        /* \"#utility.yul\":3450:3451   */\n      0x00\n        /* \"#utility.yul\":3475:3528   */\n      tag_336\n        /* \"#utility.yul\":3520:3527   */\n      dup5\n        /* \"#utility.yul\":3511:3517   */\n      dup3\n        /* \"#utility.yul\":3500:3509   */\n      dup6\n        /* \"#utility.yul\":3496:3518   */\n      add\n        /* \"#utility.yul\":3475:3528   */\n      tag_268\n      jump\t// in\n    tag_336:\n        /* \"#utility.yul\":3465:3528   */\n      swap2\n      pop\n        /* \"#utility.yul\":3421:3538   */\n      pop\n        /* \"#utility.yul\":3216:3545   */\n      swap3\n      swap2\n      pop\n      pop\n      jump\t// out\n        /* \"#utility.yul\":3551:3677   */\n    tag_269:\n        /* \"#utility.yul\":3588:3595   */\n      0x00\n        /* \"#utility.yul\":3628:3670   */\n      0xffffffffffffffffffffffffffffffffffffffff\n        /* \"#utility.yul\":3621:3626   */\n      dup3\n        /* \"#utility.yul\":3617:3671   */\n      and\n        /* \"#utility.yul\":3606:3671   */\n      swap1\n      pop\n        /* \"#utility.yul\":3551:3677   */\n      swap2\n      swap1\n      pop\n      jump\t// out\n        /* \"#utility.yul\":3683:3779   */\n    tag_270:\n        /* \"#utility.yul\":3720:3727   */\n      0x00\n        /* \"#utility.yul\":3749:3773   */\n      tag_339\n        /* \"#utility.yul\":3767:3772   */\n      dup3\n        /* \"#utility.yul\":3749:3773   */\n      tag_269\n      jump\t// in\n    tag_339:\n        /* \"#utility.yul\":3738:3773   */\n      swap1\n      pop\n        /* \"#utility.yul\":3683:3779   */\n      swap2\n      swap1\n      pop\n      jump\t// out\n        /* \"#utility.yul\":3785:3903   */\n    tag_271:\n        /* \"#utility.yul\":3872:3896   */\n      tag_341\n        /* \"#utility.yul\":3890:3895   */\n      dup2\n        /* \"#utility.yul\":3872:3896   */\n      tag_270\n      jump\t// in\n    tag_341:\n        /* \"#utility.yul\":3867:3870   */\n      dup3\n        /* \"#utility.yul\":3860:3897   */\n      mstore\n        /* \"#utility.yul\":3785:3903   */\n      pop\n      pop\n      jump\t// out\n        /* \"#utility.yul\":3909:4131   */\n    tag_35:\n        /* \"#utility.yul\":4002:4006   */\n      0x00\n        /* \"#utility.yul\":4040:4042   */\n      0x20\n        /* \"#utility.yul\":4029:4038   */\n      dup3\n        /* \"#utility.yul\":4025:4043   */\n      add\n        /* \"#utility.yul\":4017:4043   */\n      swap1\n      pop\n        /* \"#utility.yul\":4053:4124   */\n      tag_343\n        /* \"#utility.yul\":4121:4122   */\n      0x00\n        /* \"#utility.yul\":4110:4119   */\n      dup4\n        /* \"#utility.yul\":4106:4123   */\n      add\n        /* \"#utility.yul\":4097:4103   */\n      dup5\n        /* \"#utility.yul\":4053:4124   */\n      tag_271\n      jump\t// in\n    tag_343:\n        /* \"#utility.yul\":3909:4131   */\n      swap3\n      swap2\n      pop\n      pop\n      jump\t// out\n        /* \"#utility.yul\":4137:4259   */\n    tag_272:\n        /* \"#utility.yul\":4210:4234   */\n      tag_345\n        /* \"#utility.yul\":4228:4233   */\n      dup2\n        /* \"#utility.yul\":4210:4234   */\n      tag_270\n      jump\t// in\n    tag_345:\n        /* \"#utility.yul\":4203:4208   */\n      dup2\n        /* \"#utility.yul\":4200:4235   */\n      eq\n        /* \"#utility.yul\":4190:4253   */\n      tag_346\n      jumpi\n        /* \"#utility.yul\":4249:4250   */\n      0x00\n        /* \"#utility.yul\":4246:4247   */\n      dup1\n        /* \"#utility.yul\":4239:4251   */\n      revert\n        /* \"#utility.yul\":4190:4253   */\n    tag_346:\n        /* \"#utility.yul\":4137:4259   */\n      pop\n      jump\t// out\n        /* \"#utility.yul\":4265:4404   */\n    tag_273:\n        /* \"#utility.yul\":4311:4316   */\n      0x00\n        /* \"#utility.yul\":4349:4355   */\n      dup2\n        /* \"#utility.yul\":4336:4356   */\n      calldataload\n        /* \"#utility.yul\":4327:4356   */\n      swap1\n      pop\n        /* \"#utility.yul\":4365:4398   */\n      tag_348\n        /* \"#utility.yul\":4392:4397   */\n      dup2\n        /* \"#utility.yul\":4365:4398   */\n      tag_272\n      jump\t// in\n    tag_348:\n        /* \"#utility.yul\":4265:4404   */\n      swap3\n      swap2\n      pop\n      pop\n      jump\t// out\n        /* \"#utility.yul\":4410:4884   */\n    tag_38:\n        /* \"#utility.yul\":4478:4484   */\n      0x00\n        /* \"#utility.yul\":4486:4492   */\n      dup1\n        /* \"#utility.yul\":4535:4537   */\n      0x40\n        /* \"#utility.yul\":4523:4532   */\n      dup4\n        /* \"#utility.yul\":4514:4521   */\n      dup6\n        /* \"#utility.yul\":4510:4533   */\n      sub\n        /* \"#utility.yul\":4506:4538   */\n      slt\n        /* \"#utility.yul\":4503:4622   */\n      iszero\n      tag_350\n      jumpi\n        /* \"#utility.yul\":4541:4620   */\n      tag_351\n      tag_254\n      jump\t// in\n    tag_351:\n        /* \"#utility.yul\":4503:4622   */\n    tag_350:\n        /* \"#utility.yul\":4661:4662   */\n      0x00\n        /* \"#utility.yul\":4686:4739   */\n      tag_352\n        /* \"#utility.yul\":4731:4738   */\n      dup6\n        /* \"#utility.yul\":4722:4728   */\n      dup3\n        /* \"#utility.yul\":4711:4720   */\n      dup7\n        /* \"#utility.yul\":4707:4729   */\n      add\n        /* \"#utility.yul\":4686:4739   */\n      tag_273\n      jump\t// in\n    tag_352:\n        /* \"#utility.yul\":4676:4739   */\n      swap3\n      pop\n        /* \"#utility.yul\":4632:4749   */\n      pop\n        /* \"#utility.yul\":4788:4790   */\n      0x20\n        /* \"#utility.yul\":4814:4867   */\n      tag_353\n        /* \"#utility.yul\":4859:4866   */\n      dup6\n        /* \"#utility.yul\":4850:4856   */\n      dup3\n        /* \"#utility.yul\":4839:4848   */\n      dup7\n        /* \"#utility.yul\":4835:4857   */\n      add\n        /* \"#utility.yul\":4814:4867   */\n      tag_268\n      jump\t// in\n    tag_353:\n        /* \"#utility.yul\":4804:4867   */\n      swap2\n      pop\n        /* \"#utility.yul\":4759:4877   */\n      pop\n        /* \"#utility.yul\":4410:4884   */\n      swap3\n      pop\n      swap3\n      swap1\n      pop\n      jump\t// out\n        /* \"#utility.yul\":4890:5008   */\n    tag_274:\n        /* \"#utility.yul\":4977:5001   */\n      tag_355\n        /* \"#utility.yul\":4995:5000   */\n      dup2\n        /* \"#utility.yul\":4977:5001   */\n      tag_266\n      jump\t// in\n    tag_355:\n        /* \"#utility.yul\":4972:4975   */\n      dup3\n        /* \"#utility.yul\":4965:5002   */\n      mstore\n        /* \"#utility.yul\":4890:5008   */\n      pop\n      pop\n      jump\t// out\n        /* \"#utility.yul\":5014:5236   */\n    tag_43:\n        /* \"#utility.yul\":5107:5111   */\n      0x00\n        /* \"#utility.yul\":5145:5147   */\n      0x20\n        /* \"#utility.yul\":5134:5143   */\n      dup3\n        /* \"#utility.yul\":5130:5148   */\n      add\n        /* \"#utility.yul\":5122:5148   */\n      swap1\n      pop\n        /* \"#utility.yul\":5158:5229   */\n      tag_357\n        /* \"#utility.yul\":5226:5227   */\n      0x00\n        /* \"#utility.yul\":5215:5224   */\n      dup4\n        /* \"#utility.yul\":5211:5228   */\n      add\n        /* \"#utility.yul\":5202:5208   */\n      dup5\n        /* \"#utility.yul\":5158:5229   */\n      tag_274\n      jump\t// in\n    tag_357:\n        /* \"#utility.yul\":5014:5236   */\n      swap3\n      swap2\n      pop\n      pop\n      jump\t// out\n        /* \"#utility.yul\":5242:5861   */\n    tag_46:\n        /* \"#utility.yul\":5319:5325   */\n      0x00\n        /* \"#utility.yul\":5327:5333   */\n      dup1\n        /* \"#utility.yul\":5335:5341   */\n      0x00\n        /* \"#utility.yul\":5384:5386   */\n      0x60\n        /* \"#utility.yul\":5372:5381   */\n      dup5\n        /* \"#utility.yul\":5363:5370   */\n      dup7\n        /* \"#utility.yul\":5359:5382   */\n      sub\n        /* \"#utility.yul\":5355:5387   */\n      slt\n        /* \"#utility.yul\":5352:5471   */\n      iszero\n      tag_359\n      jumpi\n        /* \"#utility.yul\":5390:5469   */\n      tag_360\n      tag_254\n      jump\t// in\n    tag_360:\n        /* \"#utility.yul\":5352:5471   */\n    tag_359:\n        /* \"#utility.yul\":5510:5511   */\n      0x00\n        /* \"#utility.yul\":5535:5588   */\n      tag_361\n        /* \"#utility.yul\":5580:5587   */\n      dup7\n        /* \"#utility.yul\":5571:5577   */\n      dup3\n        /* \"#utility.yul\":5560:5569   */\n      dup8\n        /* \"#utility.yul\":5556:5578   */\n      add\n        /* \"#utility.yul\":5535:5588   */\n      tag_273\n      jump\t// in\n    tag_361:\n        /* \"#utility.yul\":5525:5588   */\n      swap4\n      pop\n        /* \"#utility.yul\":5481:5598   */\n      pop\n        /* \"#utility.yul\":5637:5639   */\n      0x20\n        /* \"#utility.yul\":5663:5716   */\n      tag_362\n        /* \"#utility.yul\":5708:5715   */\n      dup7\n        /* \"#utility.yul\":5699:5705   */\n      dup3\n        /* \"#utility.yul\":5688:5697   */\n      dup8\n        /* \"#utility.yul\":5684:5706   */\n      add\n        /* \"#utility.yul\":5663:5716   */\n      tag_273\n      jump\t// in\n    tag_362:\n        /* \"#utility.yul\":5653:5716   */\n      swap3\n      pop\n        /* \"#utility.yul\":5608:5726   */\n      pop\n        /* \"#utility.yul\":5765:5767   */\n      0x40\n        /* \"#utility.yul\":5791:5844   */\n      tag_363\n        /* \"#utility.yul\":5836:5843   */\n      dup7\n        /* \"#utility.yul\":5827:5833   */\n      dup3\n        /* \"#utility.yul\":5816:5825   */\n      dup8\n        /* \"#utility.yul\":5812:5834   */\n      add\n        /* \"#utility.yul\":5791:5844   */\n      tag_268\n      jump\t// in\n    tag_363:\n        /* \"#utility.yul\":5781:5844   */\n      swap2\n      pop\n        /* \"#utility.yul\":5736:5854   */\n      pop\n        /* \"#utility.yul\":5242:5861   */\n      swap3\n      pop\n      swap3\n      pop\n      swap3\n      jump\t// out\n        /* \"#utility.yul\":5867:6196   */\n    tag_54:\n        /* \"#utility.yul\":5926:5932   */\n      0x00\n        /* \"#utility.yul\":5975:5977   */\n      0x20\n        /* \"#utility.yul\":5963:5972   */\n      dup3\n        /* \"#utility.yul\":5954:5961   */\n      dup5\n        /* \"#utility.yul\":5950:5973   */\n      sub\n        /* \"#utility.yul\":5946:5978   */\n      slt\n        /* \"#utility.yul\":5943:6062   */\n      iszero\n      tag_365\n      jumpi\n        /* \"#utility.yul\":5981:6060   */\n      tag_366\n      tag_254\n      jump\t// in\n    tag_366:\n        /* \"#utility.yul\":5943:6062   */\n    tag_365:\n        /* \"#utility.yul\":6101:6102   */\n      0x00\n        /* \"#utility.yul\":6126:6179   */\n      tag_367\n        /* \"#utility.yul\":6171:6178   */\n      dup5\n        /* \"#utility.yul\":6162:6168   */\n      dup3\n        /* \"#utility.yul\":6151:6160   */\n      dup6\n        /* \"#utility.yul\":6147:6169   */\n      add\n        /* \"#utility.yul\":6126:6179   */\n      tag_273\n      jump\t// in\n    tag_367:\n        /* \"#utility.yul\":6116:6179   */\n      swap2\n      pop\n        /* \"#utility.yul\":6072:6189   */\n      pop\n        /* \"#utility.yul\":5867:6196   */\n      swap3\n      swap2\n      pop\n      pop\n      jump\t// out\n        /* \"#utility.yul\":6202:6318   */\n    tag_275:\n        /* \"#utility.yul\":6272:6293   */\n      tag_369\n        /* \"#utility.yul\":6287:6292   */\n      dup2\n        /* \"#utility.yul\":6272:6293   */\n      tag_259\n      jump\t// in\n    tag_369:\n        /* \"#utility.yul\":6265:6270   */\n      dup2\n        /* \"#utility.yul\":6262:6294   */\n      eq\n        /* \"#utility.yul\":6252:6312   */\n      tag_370\n      jumpi\n        /* \"#utility.yul\":6308:6309   */\n      0x00\n        /* \"#utility.yul\":6305:6306   */\n      dup1\n        /* \"#utility.yul\":6298:6310   */\n      revert\n        /* \"#utility.yul\":6252:6312   */\n    tag_370:\n        /* \"#utility.yul\":6202:6318   */\n      pop\n      jump\t// out\n        /* \"#utility.yul\":6324:6457   */\n    tag_276:\n        /* \"#utility.yul\":6367:6372   */\n      0x00\n        /* \"#utility.yul\":6405:6411   */\n      dup2\n        /* \"#utility.yul\":6392:6412   */\n      calldataload\n        /* \"#utility.yul\":6383:6412   */\n      swap1\n      pop\n        /* \"#utility.yul\":6421:6451   */\n      tag_372\n        /* \"#utility.yul\":6445:6450   */\n      dup2\n        /* \"#utility.yul\":6421:6451   */\n      tag_275\n      jump\t// in\n    tag_372:\n        /* \"#utility.yul\":6324:6457   */\n      swap3\n      swap2\n      pop\n      pop\n      jump\t// out\n        /* \"#utility.yul\":6463:6931   */\n    tag_62:\n        /* \"#utility.yul\":6528:6534   */\n      0x00\n        /* \"#utility.yul\":6536:6542   */\n      dup1\n        /* \"#utility.yul\":6585:6587   */\n      0x40\n        /* \"#utility.yul\":6573:6582   */\n      dup4\n        /* \"#utility.yul\":6564:6571   */\n      dup6\n        /* \"#utility.yul\":6560:6583   */\n      sub\n        /* \"#utility.yul\":6556:6588   */\n      slt\n        /* \"#utility.yul\":6553:6672   */\n      iszero\n      tag_374\n      jumpi\n        /* \"#utility.yul\":6591:6670   */\n      tag_375\n      tag_254\n      jump\t// in\n    tag_375:\n        /* \"#utility.yul\":6553:6672   */\n    tag_374:\n        /* \"#utility.yul\":6711:6712   */\n      0x00\n        /* \"#utility.yul\":6736:6789   */\n      tag_376\n        /* \"#utility.yul\":6781:6788   */\n      dup6\n        /* \"#utility.yul\":6772:6778   */\n      dup3\n        /* \"#utility.yul\":6761:6770   */\n      dup7\n        /* \"#utility.yul\":6757:6779   */\n      add\n        /* \"#utility.yul\":6736:6789   */\n      tag_273\n      jump\t// in\n    tag_376:\n        /* \"#utility.yul\":6726:6789   */\n      swap3\n      pop\n        /* \"#utility.yul\":6682:6799   */\n      pop\n        /* \"#utility.yul\":6838:6840   */\n      0x20\n        /* \"#utility.yul\":6864:6914   */\n      tag_377\n        /* \"#utility.yul\":6906:6913   */\n      dup6\n        /* \"#utility.yul\":6897:6903   */\n      dup3\n        /* \"#utility.yul\":6886:6895   */\n      dup7\n        /* \"#utility.yul\":6882:6904   */\n      add\n        /* \"#utility.yul\":6864:6914   */\n      tag_276\n      jump\t// in\n    tag_377:\n        /* \"#utility.yul\":6854:6914   */\n      swap2\n      pop\n        /* \"#utility.yul\":6809:6924   */\n      pop\n        /* \"#utility.yul\":6463:6931   */\n      swap3\n      pop\n      swap3\n      swap1\n      pop\n      jump\t// out\n        /* \"#utility.yul\":6937:7054   */\n    tag_277:\n        /* \"#utility.yul\":7046:7047   */\n      0x00\n        /* \"#utility.yul\":7043:7044   */\n      dup1\n        /* \"#utility.yul\":7036:7048   */\n      revert\n        /* \"#utility.yul\":7060:7177   */\n    tag_278:\n        /* \"#utility.yul\":7169:7170   */\n      0x00\n        /* \"#utility.yul\":7166:7167   */\n      dup1\n        /* \"#utility.yul\":7159:7171   */\n      revert\n        /* \"#utility.yul\":7183:7363   */\n    tag_238:\n        /* \"#utility.yul\":7231:7308   */\n      0x4e487b7100000000000000000000000000000000000000000000000000000000\n        /* \"#utility.yul\":7228:7229   */\n      0x00\n        /* \"#utility.yul\":7221:7309   */\n      mstore\n        /* \"#utility.yul\":7328:7332   */\n      0x41\n        /* \"#utility.yul\":7325:7326   */\n      0x04\n        /* \"#utility.yul\":7318:7333   */\n      mstore\n        /* \"#utility.yul\":7352:7356   */\n      0x24\n        /* \"#utility.yul\":7349:7350   */\n      0x00\n        /* \"#utility.yul\":7342:7357   */\n      revert\n        /* \"#utility.yul\":7369:7650   */\n    tag_279:\n        /* \"#utility.yul\":7452:7479   */\n      tag_382\n        /* \"#utility.yul\":7474:7478   */\n      dup3\n        /* \"#utility.yul\":7452:7479   */\n      tag_264\n      jump\t// in\n    tag_382:\n        /* \"#utility.yul\":7444:7450   */\n      dup2\n        /* \"#utility.yul\":7440:7480   */\n      add\n        /* \"#utility.yul\":7582:7588   */\n      dup2\n        /* \"#utility.yul\":7570:7580   */\n      dup2\n        /* \"#utility.yul\":7567:7589   */\n      lt\n        /* \"#utility.yul\":7546:7564   */\n      0xffffffffffffffff\n        /* \"#utility.yul\":7534:7544   */\n      dup3\n        /* \"#utility.yul\":7531:7565   */\n      gt\n        /* \"#utility.yul\":7528:7590   */\n      or\n        /* \"#utility.yul\":7525:7613   */\n      iszero\n      tag_383\n      jumpi\n        /* \"#utility.yul\":7593:7611   */\n      tag_384\n      tag_238\n      jump\t// in\n    tag_384:\n        /* \"#utility.yul\":7525:7613   */\n    tag_383:\n        /* \"#utility.yul\":7633:7643   */\n      dup1\n        /* \"#utility.yul\":7629:7631   */\n      0x40\n        /* \"#utility.yul\":7622:7644   */\n      mstore\n        /* \"#utility.yul\":7412:7650   */\n      pop\n        /* \"#utility.yul\":7369:7650   */\n      pop\n      pop\n      jump\t// out\n        /* \"#utility.yul\":7656:7785   */\n    tag_280:\n        /* \"#utility.yul\":7690:7696   */\n      0x00\n        /* \"#utility.yul\":7717:7737   */\n      tag_386\n      tag_253\n      jump\t// in\n    tag_386:\n        /* \"#utility.yul\":7707:7737   */\n      swap1\n      pop\n        /* \"#utility.yul\":7746:7779   */\n      tag_387\n        /* \"#utility.yul\":7774:7778   */\n      dup3\n        /* \"#utility.yul\":7766:7772   */\n      dup3\n        /* \"#utility.yul\":7746:7779   */\n      tag_279\n      jump\t// in\n    tag_387:\n        /* \"#utility.yul\":7656:7785   */\n      swap2\n      swap1\n      pop\n      jump\t// out\n        /* \"#utility.yul\":7791:8098   */\n    tag_281:\n        /* \"#utility.yul\":7852:7856   */\n      0x00\n        /* \"#utility.yul\":7942:7960   */\n      0xffffffffffffffff\n        /* \"#utility.yul\":7934:7940   */\n      dup3\n        /* \"#utility.yul\":7931:7961   */\n      gt\n        /* \"#utility.yul\":7928:7984   */\n      iszero\n      tag_389\n      jumpi\n        /* \"#utility.yul\":7964:7982   */\n      tag_390\n      tag_238\n      jump\t// in\n    tag_390:\n        /* \"#utility.yul\":7928:7984   */\n    tag_389:\n        /* \"#utility.yul\":8002:8031   */\n      tag_391\n        /* \"#utility.yul\":8024:8030   */\n      dup3\n        /* \"#utility.yul\":8002:8031   */\n      tag_264\n      jump\t// in\n    tag_391:\n        /* \"#utility.yul\":7994:8031   */\n      swap1\n      pop\n        /* \"#utility.yul\":8086:8090   */\n      0x20\n        /* \"#utility.yul\":8080:8084   */\n      dup2\n        /* \"#utility.yul\":8076:8091   */\n      add\n        /* \"#utility.yul\":8068:8091   */\n      swap1\n      pop\n        /* \"#utility.yul\":7791:8098   */\n      swap2\n      swap1\n      pop\n      jump\t// out\n        /* \"#utility.yul\":8104:8250   */\n    tag_282:\n        /* \"#utility.yul\":8201:8207   */\n      dup3\n        /* \"#utility.yul\":8196:8199   */\n      dup2\n        /* \"#utility.yul\":8191:8194   */\n      dup4\n        /* \"#utility.yul\":8178:8208   */\n      calldatacopy\n        /* \"#utility.yul\":8242:8243   */\n      0x00\n        /* \"#utility.yul\":8233:8239   */\n      dup4\n        /* \"#utility.yul\":8228:8231   */\n      dup4\n        /* \"#utility.yul\":8224:8240   */\n      add\n        /* \"#utility.yul\":8217:8244   */\n      mstore\n        /* \"#utility.yul\":8104:8250   */\n      pop\n      pop\n      pop\n      jump\t// out\n        /* \"#utility.yul\":8256:8679   */\n    tag_283:\n        /* \"#utility.yul\":8333:8338   */\n      0x00\n        /* \"#utility.yul\":8358:8423   */\n      tag_394\n        /* \"#utility.yul\":8374:8422   */\n      tag_395\n        /* \"#utility.yul\":8415:8421   */\n      dup5\n        /* \"#utility.yul\":8374:8422   */\n      tag_281\n      jump\t// in\n    tag_395:\n        /* \"#utility.yul\":8358:8423   */\n      tag_280\n      jump\t// in\n    tag_394:\n        /* \"#utility.yul\":8349:8423   */\n      swap1\n      pop\n        /* \"#utility.yul\":8446:8452   */\n      dup3\n        /* \"#utility.yul\":8439:8444   */\n      dup2\n        /* \"#utility.yul\":8432:8453   */\n      mstore\n        /* \"#utility.yul\":8484:8488   */\n      0x20\n        /* \"#utility.yul\":8477:8482   */\n      dup2\n        /* \"#utility.yul\":8473:8489   */\n      add\n        /* \"#utility.yul\":8522:8525   */\n      dup5\n        /* \"#utility.yul\":8513:8519   */\n      dup5\n        /* \"#utility.yul\":8508:8511   */\n      dup5\n        /* \"#utility.yul\":8504:8520   */\n      add\n        /* \"#utility.yul\":8501:8526   */\n      gt\n        /* \"#utility.yul\":8498:8610   */\n      iszero\n      tag_396\n      jumpi\n        /* \"#utility.yul\":8529:8608   */\n      tag_397\n      tag_278\n      jump\t// in\n    tag_397:\n        /* \"#utility.yul\":8498:8610   */\n    tag_396:\n        /* \"#utility.yul\":8619:8673   */\n      tag_398\n        /* \"#utility.yul\":8666:8672   */\n      dup5\n        /* \"#utility.yul\":8661:8664   */\n      dup3\n        /* \"#utility.yul\":8656:8659   */\n      dup6\n        /* \"#utility.yul\":8619:8673   */\n      tag_282\n      jump\t// in\n    tag_398:\n        /* \"#utility.yul\":8339:8679   */\n      pop\n        /* \"#utility.yul\":8256:8679   */\n      swap4\n      swap3\n      pop\n      pop\n      pop\n      jump\t// out\n        /* \"#utility.yul\":8698:9036   */\n    tag_284:\n        /* \"#utility.yul\":8753:8758   */\n      0x00\n        /* \"#utility.yul\":8802:8805   */\n      dup3\n        /* \"#utility.yul\":8795:8799   */\n      0x1f\n        /* \"#utility.yul\":8787:8793   */\n      dup4\n        /* \"#utility.yul\":8783:8800   */\n      add\n        /* \"#utility.yul\":8779:8806   */\n      slt\n        /* \"#utility.yul\":8769:8891   */\n      tag_400\n      jumpi\n        /* \"#utility.yul\":8810:8889   */\n      tag_401\n      tag_277\n      jump\t// in\n    tag_401:\n        /* \"#utility.yul\":8769:8891   */\n    tag_400:\n        /* \"#utility.yul\":8927:8933   */\n      dup2\n        /* \"#utility.yul\":8914:8934   */\n      calldataload\n        /* \"#utility.yul\":8952:9030   */\n      tag_402\n        /* \"#utility.yul\":9026:9029   */\n      dup5\n        /* \"#utility.yul\":9018:9024   */\n      dup3\n        /* \"#utility.yul\":9011:9015   */\n      0x20\n        /* \"#utility.yul\":9003:9009   */\n      dup7\n        /* \"#utility.yul\":8999:9016   */\n      add\n        /* \"#utility.yul\":8952:9030   */\n      tag_283\n      jump\t// in\n    tag_402:\n        /* \"#utility.yul\":8943:9030   */\n      swap2\n      pop\n        /* \"#utility.yul\":8759:9036   */\n      pop\n        /* \"#utility.yul\":8698:9036   */\n      swap3\n      swap2\n      pop\n      pop\n      jump\t// out\n        /* \"#utility.yul\":9042:9985   */\n    tag_66:\n        /* \"#utility.yul\":9137:9143   */\n      0x00\n        /* \"#utility.yul\":9145:9151   */\n      dup1\n        /* \"#utility.yul\":9153:9159   */\n      0x00\n        /* \"#utility.yul\":9161:9167   */\n      dup1\n        /* \"#utility.yul\":9210:9213   */\n      0x80\n        /* \"#utility.yul\":9198:9207   */\n      dup6\n        /* \"#utility.yul\":9189:9196   */\n      dup8\n        /* \"#utility.yul\":9185:9208   */\n      sub\n        /* \"#utility.yul\":9181:9214   */\n      slt\n        /* \"#utility.yul\":9178:9298   */\n      iszero\n      tag_404\n      jumpi\n        /* \"#utility.yul\":9217:9296   */\n      tag_405\n      tag_254\n      jump\t// in\n    tag_405:\n        /* \"#utility.yul\":9178:9298   */\n    tag_404:\n        /* \"#utility.yul\":9337:9338   */\n      0x00\n        /* \"#utility.yul\":9362:9415   */\n      tag_406\n        /* \"#utility.yul\":9407:9414   */\n      dup8\n        /* \"#utility.yul\":9398:9404   */\n      dup3\n        /* \"#utility.yul\":9387:9396   */\n      dup9\n        /* \"#utility.yul\":9383:9405   */\n      add\n        /* \"#utility.yul\":9362:9415   */\n      tag_273\n      jump\t// in\n    tag_406:\n        /* \"#utility.yul\":9352:9415   */\n      swap5\n      pop\n        /* \"#utility.yul\":9308:9425   */\n      pop\n        /* \"#utility.yul\":9464:9466   */\n      0x20\n        /* \"#utility.yul\":9490:9543   */\n      tag_407\n        /* \"#utility.yul\":9535:9542   */\n      dup8\n        /* \"#utility.yul\":9526:9532   */\n      dup3\n        /* \"#utility.yul\":9515:9524   */\n      dup9\n        /* \"#utility.yul\":9511:9533   */\n      add\n        /* \"#utility.yul\":9490:9543   */\n      tag_273\n      jump\t// in\n    tag_407:\n        /* \"#utility.yul\":9480:9543   */\n      swap4\n      pop\n        /* \"#utility.yul\":9435:9553   */\n      pop\n        /* \"#utility.yul\":9592:9594   */\n      0x40\n        /* \"#utility.yul\":9618:9671   */\n      tag_408\n        /* \"#utility.yul\":9663:9670   */\n      dup8\n        /* \"#utility.yul\":9654:9660   */\n      dup3\n        /* \"#utility.yul\":9643:9652   */\n      dup9\n        /* \"#utility.yul\":9639:9661   */\n      add\n        /* \"#utility.yul\":9618:9671   */\n      tag_268\n      jump\t// in\n    tag_408:\n        /* \"#utility.yul\":9608:9671   */\n      swap3\n      pop\n        /* \"#utility.yul\":9563:9681   */\n      pop\n        /* \"#utility.yul\":9748:9750   */\n      0x60\n        /* \"#utility.yul\":9737:9746   */\n      dup6\n        /* \"#utility.yul\":9733:9751   */\n      add\n        /* \"#utility.yul\":9720:9752   */\n      calldataload\n        /* \"#utility.yul\":9779:9797   */\n      0xffffffffffffffff\n        /* \"#utility.yul\":9771:9777   */\n      dup2\n        /* \"#utility.yul\":9768:9798   */\n      gt\n        /* \"#utility.yul\":9765:9882   */\n      iszero\n      tag_409\n      jumpi\n        /* \"#utility.yul\":9801:9880   */\n      tag_410\n      tag_255\n      jump\t// in\n    tag_410:\n        /* \"#utility.yul\":9765:9882   */\n    tag_409:\n        /* \"#utility.yul\":9906:9968   */\n      tag_411\n        /* \"#utility.yul\":9960:9967   */\n      dup8\n        /* \"#utility.yul\":9951:9957   */\n      dup3\n        /* \"#utility.yul\":9940:9949   */\n      dup9\n        /* \"#utility.yul\":9936:9958   */\n      add\n        /* \"#utility.yul\":9906:9968   */\n      tag_284\n      jump\t// in\n    tag_411:\n        /* \"#utility.yul\":9896:9968   */\n      swap2\n      pop\n        /* \"#utility.yul\":9691:9978   */\n      pop\n        /* \"#utility.yul\":9042:9985   */\n      swap3\n      swap6\n      swap2\n      swap5\n      pop\n      swap3\n      pop\n      jump\t// out\n        /* \"#utility.yul\":9991:10465   */\n    tag_77:\n        /* \"#utility.yul\":10059:10065   */\n      0x00\n        /* \"#utility.yul\":10067:10073   */\n      dup1\n        /* \"#utility.yul\":10116:10118   */\n      0x40\n        /* \"#utility.yul\":10104:10113   */\n      dup4\n        /* \"#utility.yul\":10095:10102   */\n      dup6\n        /* \"#utility.yul\":10091:10114   */\n      sub\n        /* \"#utility.yul\":10087:10119   */\n      slt\n        /* \"#utility.yul\":10084:10203   */\n      iszero\n      tag_413\n      jumpi\n        /* \"#utility.yul\":10122:10201   */\n      tag_414\n      tag_254\n      jump\t// in\n    tag_414:\n        /* \"#utility.yul\":10084:10203   */\n    tag_413:\n        /* \"#utility.yul\":10242:10243   */\n      0x00\n        /* \"#utility.yul\":10267:10320   */\n      tag_415\n        /* \"#utility.yul\":10312:10319   */\n      dup6\n        /* \"#utility.yul\":10303:10309   */\n      dup3\n        /* \"#utility.yul\":10292:10301   */\n      dup7\n        /* \"#utility.yul\":10288:10310   */\n      add\n        /* \"#utility.yul\":10267:10320   */\n      tag_273\n      jump\t// in\n    tag_415:\n        /* \"#utility.yul\":10257:10320   */\n      swap3\n      pop\n        /* \"#utility.yul\":10213:10330   */\n      pop\n        /* \"#utility.yul\":10369:10371   */\n      0x20\n        /* \"#utility.yul\":10395:10448   */\n      tag_416\n        /* \"#utility.yul\":10440:10447   */\n      dup6\n        /* \"#utility.yul\":10431:10437   */\n      dup3\n        /* \"#utility.yul\":10420:10429   */\n      dup7\n        /* \"#utility.yul\":10416:10438   */\n      add\n        /* \"#utility.yul\":10395:10448   */\n      tag_273\n      jump\t// in\n    tag_416:\n        /* \"#utility.yul\":10385:10448   */\n      swap2\n      pop\n        /* \"#utility.yul\":10340:10458   */\n      pop\n        /* \"#utility.yul\":9991:10465   */\n      swap3\n      pop\n      swap3\n      swap1\n      pop\n      jump\t// out\n        /* \"#utility.yul\":10471:10651   */\n    tag_285:\n        /* \"#utility.yul\":10519:10596   */\n      0x4e487b7100000000000000000000000000000000000000000000000000000000\n        /* \"#utility.yul\":10516:10517   */\n      0x00\n        /* \"#utility.yul\":10509:10597   */\n      mstore\n        /* \"#utility.yul\":10616:10620   */\n      0x22\n        /* \"#utility.yul\":10613:10614   */\n      0x04\n        /* \"#utility.yul\":10606:10621   */\n      mstore\n        /* \"#utility.yul\":10640:10644   */\n      0x24\n        /* \"#utility.yul\":10637:10638   */\n      0x00\n        /* \"#utility.yul\":10630:10645   */\n      revert\n        /* \"#utility.yul\":10657:10977   */\n    tag_85:\n        /* \"#utility.yul\":10701:10707   */\n      0x00\n        /* \"#utility.yul\":10738:10739   */\n      0x02\n        /* \"#utility.yul\":10732:10736   */\n      dup3\n        /* \"#utility.yul\":10728:10740   */\n      div\n        /* \"#utility.yul\":10718:10740   */\n      swap1\n      pop\n        /* \"#utility.yul\":10785:10786   */\n      0x01\n        /* \"#utility.yul\":10779:10783   */\n      dup3\n        /* \"#utility.yul\":10775:10787   */\n      and\n        /* \"#utility.yul\":10806:10824   */\n      dup1\n        /* \"#utility.yul\":10796:10877   */\n      tag_419\n      jumpi\n        /* \"#utility.yul\":10862:10866   */\n      0x7f\n        /* \"#utility.yul\":10854:10860   */\n      dup3\n        /* \"#utility.yul\":10850:10867   */\n      and\n        /* \"#utility.yul\":10840:10867   */\n      swap2\n      pop\n        /* \"#utility.yul\":10796:10877   */\n    tag_419:\n        /* \"#utility.yul\":10924:10926   */\n      0x20\n        /* \"#utility.yul\":10916:10922   */\n      dup3\n        /* \"#utility.yul\":10913:10927   */\n      lt\n        /* \"#utility.yul\":10893:10911   */\n      dup2\n        /* \"#utility.yul\":10890:10928   */\n      sub\n        /* \"#utility.yul\":10887:10971   */\n      tag_420\n      jumpi\n        /* \"#utility.yul\":10943:10961   */\n      tag_421\n      tag_285\n      jump\t// in\n    tag_421:\n        /* \"#utility.yul\":10887:10971   */\n    tag_420:\n        /* \"#utility.yul\":10708:10977   */\n      pop\n        /* \"#utility.yul\":10657:10977   */\n      swap2\n      swap1\n      pop\n      jump\t// out\n        /* \"#utility.yul\":10983:11131   */\n    tag_286:\n        /* \"#utility.yul\":11085:11096   */\n      0x00\n        /* \"#utility.yul\":11122:11125   */\n      dup2\n        /* \"#utility.yul\":11107:11125   */\n      swap1\n      pop\n        /* \"#utility.yul\":10983:11131   */\n      swap3\n      swap2\n      pop\n      pop\n      jump\t// out\n        /* \"#utility.yul\":11137:11527   */\n    tag_287:\n        /* \"#utility.yul\":11243:11246   */\n      0x00\n        /* \"#utility.yul\":11271:11310   */\n      tag_424\n        /* \"#utility.yul\":11304:11309   */\n      dup3\n        /* \"#utility.yul\":11271:11310   */\n      tag_261\n      jump\t// in\n    tag_424:\n        /* \"#utility.yul\":11326:11415   */\n      tag_425\n        /* \"#utility.yul\":11408:11414   */\n      dup2\n        /* \"#utility.yul\":11403:11406   */\n      dup6\n        /* \"#utility.yul\":11326:11415   */\n      tag_286\n      jump\t// in\n    tag_425:\n        /* \"#utility.yul\":11319:11415   */\n      swap4\n      pop\n        /* \"#utility.yul\":11424:11489   */\n      tag_426\n        /* \"#utility.yul\":11482:11488   */\n      dup2\n        /* \"#utility.yul\":11477:11480   */\n      dup6\n        /* \"#utility.yul\":11470:11474   */\n      0x20\n        /* \"#utility.yul\":11463:11468   */\n      dup7\n        /* \"#utility.yul\":11459:11475   */\n      add\n        /* \"#utility.yul\":11424:11489   */\n      tag_263\n      jump\t// in\n    tag_426:\n        /* \"#utility.yul\":11514:11520   */\n      dup1\n        /* \"#utility.yul\":11509:11512   */\n      dup5\n        /* \"#utility.yul\":11505:11521   */\n      add\n        /* \"#utility.yul\":11498:11521   */\n      swap2\n      pop\n        /* \"#utility.yul\":11247:11527   */\n      pop\n        /* \"#utility.yul\":11137:11527   */\n      swap3\n      swap2\n      pop\n      pop\n      jump\t// out\n        /* \"#utility.yul\":11533:11968   */\n    tag_165:\n        /* \"#utility.yul\":11713:11716   */\n      0x00\n        /* \"#utility.yul\":11735:11830   */\n      tag_428\n        /* \"#utility.yul\":11826:11829   */\n      dup3\n        /* \"#utility.yul\":11817:11823   */\n      dup6\n        /* \"#utility.yul\":11735:11830   */\n      tag_287\n      jump\t// in\n    tag_428:\n        /* \"#utility.yul\":11728:11830   */\n      swap2\n      pop\n        /* \"#utility.yul\":11847:11942   */\n      tag_429\n        /* \"#utility.yul\":11938:11941   */\n      dup3\n        /* \"#utility.yul\":11929:11935   */\n      dup5\n        /* \"#utility.yul\":11847:11942   */\n      tag_287\n      jump\t// in\n    tag_429:\n        /* \"#utility.yul\":11840:11942   */\n      swap2\n      pop\n        /* \"#utility.yul\":11959:11962   */\n      dup2\n        /* \"#utility.yul\":11952:11962   */\n      swap1\n      pop\n        /* \"#utility.yul\":11533:11968   */\n      swap4\n      swap3\n      pop\n      pop\n      pop\n      jump\t// out\n        /* \"#utility.yul\":11974:12154   */\n    tag_288:\n        /* \"#utility.yul\":12022:12099   */\n      0x4e487b7100000000000000000000000000000000000000000000000000000000\n        /* \"#utility.yul\":12019:12020   */\n      0x00\n        /* \"#utility.yul\":12012:12100   */\n      mstore\n        /* \"#utility.yul\":12119:12123   */\n      0x11\n        /* \"#utility.yul\":12116:12117   */\n      0x04\n        /* \"#utility.yul\":12109:12124   */\n      mstore\n        /* \"#utility.yul\":12143:12147   */\n      0x24\n        /* \"#utility.yul\":12140:12141   */\n      0x00\n        /* \"#utility.yul\":12133:12148   */\n      revert\n        /* \"#utility.yul\":12160:12331   */\n    tag_176:\n        /* \"#utility.yul\":12199:12202   */\n      0x00\n        /* \"#utility.yul\":12222:12246   */\n      tag_432\n        /* \"#utility.yul\":12240:12245   */\n      dup3\n        /* \"#utility.yul\":12222:12246   */\n      tag_266\n      jump\t// in\n    tag_432:\n        /* \"#utility.yul\":12213:12246   */\n      swap2\n      pop\n        /* \"#utility.yul\":12268:12272   */\n      0x00\n        /* \"#utility.yul\":12261:12266   */\n      dup3\n        /* \"#utility.yul\":12258:12273   */\n      sub\n        /* \"#utility.yul\":12255:12296   */\n      tag_433\n      jumpi\n        /* \"#utility.yul\":12276:12294   */\n      tag_434\n      tag_288\n      jump\t// in\n    tag_434:\n        /* \"#utility.yul\":12255:12296   */\n    tag_433:\n        /* \"#utility.yul\":12323:12324   */\n      0x01\n        /* \"#utility.yul\":12316:12321   */\n      dup3\n        /* \"#utility.yul\":12312:12325   */\n      sub\n        /* \"#utility.yul\":12305:12325   */\n      swap1\n      pop\n        /* \"#utility.yul\":12160:12331   */\n      swap2\n      swap1\n      pop\n      jump\t// out\n        /* \"#utility.yul\":12337:12435   */\n    tag_289:\n        /* \"#utility.yul\":12388:12394   */\n      0x00\n        /* \"#utility.yul\":12422:12427   */\n      dup2\n        /* \"#utility.yul\":12416:12428   */\n      mload\n        /* \"#utility.yul\":12406:12428   */\n      swap1\n      pop\n        /* \"#utility.yul\":12337:12435   */\n      swap2\n      swap1\n      pop\n      jump\t// out\n        /* \"#utility.yul\":12441:12609   */\n    tag_290:\n        /* \"#utility.yul\":12524:12535   */\n      0x00\n        /* \"#utility.yul\":12558:12564   */\n      dup3\n        /* \"#utility.yul\":12553:12556   */\n      dup3\n        /* \"#utility.yul\":12546:12565   */\n      mstore\n        /* \"#utility.yul\":12598:12602   */\n      0x20\n        /* \"#utility.yul\":12593:12596   */\n      dup3\n        /* \"#utility.yul\":12589:12603   */\n      add\n        /* \"#utility.yul\":12574:12603   */\n      swap1\n      pop\n        /* \"#utility.yul\":12441:12609   */\n      swap3\n      swap2\n      pop\n      pop\n      jump\t// out\n        /* \"#utility.yul\":12615:12988   */\n    tag_291:\n        /* \"#utility.yul\":12701:12704   */\n      0x00\n        /* \"#utility.yul\":12729:12767   */\n      tag_438\n        /* \"#utility.yul\":12761:12766   */\n      dup3\n        /* \"#utility.yul\":12729:12767   */\n      tag_289\n      jump\t// in\n    tag_438:\n        /* \"#utility.yul\":12783:12853   */\n      tag_439\n        /* \"#utility.yul\":12846:12852   */\n      dup2\n        /* \"#utility.yul\":12841:12844   */\n      dup6\n        /* \"#utility.yul\":12783:12853   */\n      tag_290\n      jump\t// in\n    tag_439:\n        /* \"#utility.yul\":12776:12853   */\n      swap4\n      pop\n        /* \"#utility.yul\":12862:12927   */\n      tag_440\n        /* \"#utility.yul\":12920:12926   */\n      dup2\n        /* \"#utility.yul\":12915:12918   */\n      dup6\n        /* \"#utility.yul\":12908:12912   */\n      0x20\n        /* \"#utility.yul\":12901:12906   */\n      dup7\n        /* \"#utility.yul\":12897:12913   */\n      add\n        /* \"#utility.yul\":12862:12927   */\n      tag_263\n      jump\t// in\n    tag_440:\n        /* \"#utility.yul\":12952:12981   */\n      tag_441\n        /* \"#utility.yul\":12974:12980   */\n      dup2\n        /* \"#utility.yul\":12952:12981   */\n      tag_264\n      jump\t// in\n    tag_441:\n        /* \"#utility.yul\":12947:12950   */\n      dup5\n        /* \"#utility.yul\":12943:12982   */\n      add\n        /* \"#utility.yul\":12936:12982   */\n      swap2\n      pop\n        /* \"#utility.yul\":12705:12988   */\n      pop\n        /* \"#utility.yul\":12615:12988   */\n      swap3\n      swap2\n      pop\n      pop\n      jump\t// out\n        /* \"#utility.yul\":12994:13634   */\n    tag_214:\n        /* \"#utility.yul\":13189:13193   */\n      0x00\n        /* \"#utility.yul\":13227:13230   */\n      0x80\n        /* \"#utility.yul\":13216:13225   */\n      dup3\n        /* \"#utility.yul\":13212:13231   */\n      add\n        /* \"#utility.yul\":13204:13231   */\n      swap1\n      pop\n        /* \"#utility.yul\":13241:13312   */\n      tag_443\n        /* \"#utility.yul\":13309:13310   */\n      0x00\n        /* \"#utility.yul\":13298:13307   */\n      dup4\n        /* \"#utility.yul\":13294:13311   */\n      add\n        /* \"#utility.yul\":13285:13291   */\n      dup8\n        /* \"#utility.yul\":13241:13312   */\n      tag_271\n      jump\t// in\n    tag_443:\n        /* \"#utility.yul\":13322:13394   */\n      tag_444\n        /* \"#utility.yul\":13390:13392   */\n      0x20\n        /* \"#utility.yul\":13379:13388   */\n      dup4\n        /* \"#utility.yul\":13375:13393   */\n      add\n        /* \"#utility.yul\":13366:13372   */\n      dup7\n        /* \"#utility.yul\":13322:13394   */\n      tag_271\n      jump\t// in\n    tag_444:\n        /* \"#utility.yul\":13404:13476   */\n      tag_445\n        /* \"#utility.yul\":13472:13474   */\n      0x40\n        /* \"#utility.yul\":13461:13470   */\n      dup4\n        /* \"#utility.yul\":13457:13475   */\n      add\n        /* \"#utility.yul\":13448:13454   */\n      dup6\n        /* \"#utility.yul\":13404:13476   */\n      tag_274\n      jump\t// in\n    tag_445:\n        /* \"#utility.yul\":13523:13532   */\n      dup2\n        /* \"#utility.yul\":13517:13521   */\n      dup2\n        /* \"#utility.yul\":13513:13533   */\n      sub\n        /* \"#utility.yul\":13508:13510   */\n      0x60\n        /* \"#utility.yul\":13497:13506   */\n      dup4\n        /* \"#utility.yul\":13493:13511   */\n      add\n        /* \"#utility.yul\":13486:13534   */\n      mstore\n        /* \"#utility.yul\":13551:13627   */\n      tag_446\n        /* \"#utility.yul\":13622:13626   */\n      dup2\n        /* \"#utility.yul\":13613:13619   */\n      dup5\n        /* \"#utility.yul\":13551:13627   */\n      tag_291\n      jump\t// in\n    tag_446:\n        /* \"#utility.yul\":13543:13627   */\n      swap1\n      pop\n        /* \"#utility.yul\":12994:13634   */\n      swap6\n      swap5\n      pop\n      pop\n      pop\n      pop\n      pop\n      jump\t// out\n        /* \"#utility.yul\":13640:13781   */\n    tag_292:\n        /* \"#utility.yul\":13696:13701   */\n      0x00\n        /* \"#utility.yul\":13727:13733   */\n      dup2\n        /* \"#utility.yul\":13721:13734   */\n      mload\n        /* \"#utility.yul\":13712:13734   */\n      swap1\n      pop\n        /* \"#utility.yul\":13743:13775   */\n      tag_448\n        /* \"#utility.yul\":13769:13774   */\n      dup2\n        /* \"#utility.yul\":13743:13775   */\n      tag_257\n      jump\t// in\n    tag_448:\n        /* \"#utility.yul\":13640:13781   */\n      swap3\n      swap2\n      pop\n      pop\n      jump\t// out\n        /* \"#utility.yul\":13787:14136   */\n    tag_217:\n        /* \"#utility.yul\":13856:13862   */\n      0x00\n        /* \"#utility.yul\":13905:13907   */\n      0x20\n        /* \"#utility.yul\":13893:13902   */\n      dup3\n        /* \"#utility.yul\":13884:13891   */\n      dup5\n        /* \"#utility.yul\":13880:13903   */\n      sub\n        /* \"#utility.yul\":13876:13908   */\n      slt\n        /* \"#utility.yul\":13873:13992   */\n      iszero\n      tag_450\n      jumpi\n        /* \"#utility.yul\":13911:13990   */\n      tag_451\n      tag_254\n      jump\t// in\n    tag_451:\n        /* \"#utility.yul\":13873:13992   */\n    tag_450:\n        /* \"#utility.yul\":14031:14032   */\n      0x00\n        /* \"#utility.yul\":14056:14119   */\n      tag_452\n        /* \"#utility.yul\":14111:14118   */\n      dup5\n        /* \"#utility.yul\":14102:14108   */\n      dup3\n        /* \"#utility.yul\":14091:14100   */\n      dup6\n        /* \"#utility.yul\":14087:14109   */\n      add\n        /* \"#utility.yul\":14056:14119   */\n      tag_292\n      jump\t// in\n    tag_452:\n        /* \"#utility.yul\":14046:14119   */\n      swap2\n      pop\n        /* \"#utility.yul\":14002:14129   */\n      pop\n        /* \"#utility.yul\":13787:14136   */\n      swap3\n      swap2\n      pop\n      pop\n      jump\t// out\n        /* \"#utility.yul\":14142:14375   */\n    tag_233:\n        /* \"#utility.yul\":14181:14184   */\n      0x00\n        /* \"#utility.yul\":14204:14228   */\n      tag_454\n        /* \"#utility.yul\":14222:14227   */\n      dup3\n        /* \"#utility.yul\":14204:14228   */\n      tag_266\n      jump\t// in\n    tag_454:\n        /* \"#utility.yul\":14195:14228   */\n      swap2\n      pop\n        /* \"#utility.yul\":14250:14316   */\n      0xffffffffffffffffffffffffffffffffffffffffffffffffffffffffffffffff\n        /* \"#utility.yul\":14243:14248   */\n      dup3\n        /* \"#utility.yul\":14240:14317   */\n      sub\n        /* \"#utility.yul\":14237:14340   */\n      tag_455\n      jumpi\n        /* \"#utility.yul\":14320:14338   */\n      tag_456\n      tag_288\n      jump\t// in\n    tag_456:\n        /* \"#utility.yul\":14237:14340   */\n    tag_455:\n        /* \"#utility.yul\":14367:14368   */\n      0x01\n        /* \"#utility.yul\":14360:14365   */\n      dup3\n        /* \"#utility.yul\":14356:14369   */\n      add\n        /* \"#utility.yul\":14349:14369   */\n      swap1\n      pop\n        /* \"#utility.yul\":14142:14375   */\n      swap2\n      swap1\n      pop\n      jump\t// out\n        /* \"#utility.yul\":14381:14561   */\n    tag_293:\n        /* \"#utility.yul\":14429:14506   */\n      0x4e487b7100000000000000000000000000000000000000000000000000000000\n        /* \"#utility.yul\":14426:14427   */\n      0x00\n        /* \"#utility.yul\":14419:14507   */\n      mstore\n        /* \"#utility.yul\":14526:14530   */\n      0x12\n        /* \"#utility.yul\":14523:14524   */\n      0x04\n        /* \"#utility.yul\":14516:14531   */\n      mstore\n        /* \"#utility.yul\":14550:14554   */\n      0x24\n        /* \"#utility.yul\":14547:14548   */\n      0x00\n        /* \"#utility.yul\":14540:14555   */\n      revert\n        /* \"#utility.yul\":14567:14752   */\n    tag_235:\n        /* \"#utility.yul\":14607:14608   */\n      0x00\n        /* \"#utility.yul\":14624:14644   */\n      tag_459\n        /* \"#utility.yul\":14642:14643   */\n      dup3\n        /* \"#utility.yul\":14624:14644   */\n      tag_266\n      jump\t// in\n    tag_459:\n        /* \"#utility.yul\":14619:14644   */\n      swap2\n      pop\n        /* \"#utility.yul\":14658:14678   */\n      tag_460\n        /* \"#utility.yul\":14676:14677   */\n      dup4\n        /* \"#utility.yul\":14658:14678   */\n      tag_266\n      jump\t// in\n    tag_460:\n        /* \"#utility.yul\":14653:14678   */\n      swap3\n      pop\n        /* \"#utility.yul\":14697:14698   */\n      dup3\n        /* \"#utility.yul\":14687:14722   */\n      tag_461\n      jumpi\n        /* \"#utility.yul\":14702:14720   */\n      tag_462\n      tag_293\n      jump\t// in\n    tag_462:\n        /* \"#utility.yul\":14687:14722   */\n    tag_461:\n        /* \"#utility.yul\":14744:14745   */\n      dup3\n        /* \"#utility.yul\":14741:14742   */\n      dup3\n        /* \"#utility.yul\":14737:14746   */\n      div\n        /* \"#utility.yul\":14732:14746   */\n      swap1\n      pop\n        /* \"#utility.yul\":14567:14752   */\n      swap3\n      swap2\n      pop\n      pop\n      jump\t// out\n        /* \"#utility.yul\":14758:14952   */\n    tag_243:\n        /* \"#utility.yul\":14798:14802   */\n      0x00\n        /* \"#utility.yul\":14818:14838   */\n      tag_464\n        /* \"#utility.yul\":14836:14837   */\n      dup3\n        /* \"#utility.yul\":14818:14838   */\n      tag_266\n      jump\t// in\n    tag_464:\n        /* \"#utility.yul\":14813:14838   */\n      swap2\n      pop\n        /* \"#utility.yul\":14852:14872   */\n      tag_465\n        /* \"#utility.yul\":14870:14871   */\n      dup4\n        /* \"#utility.yul\":14852:14872   */\n      tag_266\n      jump\t// in\n    tag_465:\n        /* \"#utility.yul\":14847:14872   */\n      swap3\n      pop\n        /* \"#utility.yul\":14896:14897   */\n      dup3\n        /* \"#utility.yul\":14893:14894   */\n      dup3\n        /* \"#utility.yul\":14889:14898   */\n      sub\n        /* \"#utility.yul\":14881:14898   */\n      swap1\n      pop\n        /* \"#utility.yul\":14920:14921   */\n      dup2\n        /* \"#utility.yul\":14914:14918   */\n      dup2\n        /* \"#utility.yul\":14911:14922   */\n      gt\n        /* \"#utility.yul\":14908:14945   */\n      iszero\n      tag_466\n      jumpi\n        /* \"#utility.yul\":14925:14943   */\n      tag_467\n      tag_288\n      jump\t// in\n    tag_467:\n        /* \"#utility.yul\":14908:14945   */\n    tag_466:\n        /* \"#utility.yul\":14758:14952   */\n      swap3\n      swap2\n      pop\n      pop\n      jump\t// out\n        /* \"#utility.yul\":14958:15134   */\n    tag_245:\n        /* \"#utility.yul\":14990:14991   */\n      0x00\n        /* \"#utility.yul\":15007:15027   */\n      tag_469\n        /* \"#utility.yul\":15025:15026   */\n      dup3\n        /* \"#utility.yul\":15007:15027   */\n      tag_266\n      jump\t// in\n    tag_469:\n        /* \"#utility.yul\":15002:15027   */\n      swap2\n      pop\n        /* \"#utility.yul\":15041:15061   */\n      tag_470\n        /* \"#utility.yul\":15059:15060   */\n      dup4\n        /* \"#utility.yul\":15041:15061   */\n      tag_266\n      jump\t// in\n    tag_470:\n        /* \"#utility.yul\":15036:15061   */\n      swap3\n      pop\n        /* \"#utility.yul\":15080:15081   */\n      dup3\n        /* \"#utility.yul\":15070:15105   */\n      tag_471\n      jumpi\n        /* \"#utility.yul\":15085:15103   */\n      tag_472\n      tag_293\n      jump\t// in\n    tag_472:\n        /* \"#utility.yul\":15070:15105   */\n    tag_471:\n        /* \"#utility.yul\":15126:15127   */\n      dup3\n        /* \"#utility.yul\":15123:15124   */\n      dup3\n        /* \"#utility.yul\":15119:15128   */\n      mod\n        /* \"#utility.yul\":15114:15128   */\n      swap1\n      pop\n        /* \"#utility.yul\":14958:15134   */\n      swap3\n      swap2\n      pop\n      pop\n      jump\t// out\n        /* \"#utility.yul\":15140:15331   */\n    tag_247:\n        /* \"#utility.yul\":15180:15183   */\n      0x00\n        /* \"#utility.yul\":15199:15219   */\n      tag_474\n        /* \"#utility.yul\":15217:15218   */\n      dup3\n        /* \"#utility.yul\":15199:15219   */\n      tag_266\n      jump\t// in\n    tag_474:\n        /* \"#utility.yul\":15194:15219   */\n      swap2\n      pop\n        /* \"#utility.yul\":15233:15253   */\n      tag_475\n        /* \"#utility.yul\":15251:15252   */\n      dup4\n        /* \"#utility.yul\":15233:15253   */\n      tag_266\n      jump\t// in\n    tag_475:\n        /* \"#utility.yul\":15228:15253   */\n      swap3\n      pop\n        /* \"#utility.yul\":15276:15277   */\n      dup3\n        /* \"#utility.yul\":15273:15274   */\n      dup3\n        /* \"#utility.yul\":15269:15278   */\n      add\n        /* \"#utility.yul\":15262:15278   */\n      swap1\n      pop\n        /* \"#utility.yul\":15297:15300   */\n      dup1\n        /* \"#utility.yul\":15294:15295   */\n      dup3\n        /* \"#utility.yul\":15291:15301   */\n      gt\n        /* \"#utility.yul\":15288:15324   */\n      iszero\n      tag_476\n      jumpi\n        /* \"#utility.yul\":15304:15322   */\n      tag_477\n      tag_288\n      jump\t// in\n    tag_477:\n        /* \"#utility.yul\":15288:15324   */\n    tag_476:\n        /* \"#utility.yul\":15140:15331   */\n      swap3\n      swap2\n      pop\n      pop\n      jump\t// out\n        /* \"#utility.yul\":15337:15517   */\n    tag_250:\n        /* \"#utility.yul\":15385:15462   */\n      0x4e487b7100000000000000000000000000000000000000000000000000000000\n        /* \"#utility.yul\":15382:15383   */\n      0x00\n        /* \"#utility.yul\":15375:15463   */\n      mstore\n        /* \"#utility.yul\":15482:15486   */\n      0x32\n        /* \"#utility.yul\":15479:15480   */\n      0x04\n        /* \"#utility.yul\":15472:15487   */\n      mstore\n        /* \"#utility.yul\":15506:15510   */\n      0x24\n        /* \"#utility.yul\":15503:15504   */\n      0x00\n        /* \"#utility.yul\":15496:15511   */\n      revert\n    stop\n    data_1250311f865916c0c48ec18be7711c5b67f23674d6e827435103b8b03cf0ba32 697066733a2f2f516d61633839735a545347764b6b795961327672786452616b5052456147464a534e4a52525765747a544c51544d2f\n\n    auxdata: 0xa26469706673582212204020244db0b084f990d2b87e02afaa661aa1739269a964a1abb8eaab42d9bf2664736f6c63430008150033\n}\n",
				"bytecode": {
					"linkReferences": {},
					"object": "608060405234801562000010575f80fd5b5060405162001fdc38038062001fdc833981810160405281019062000036919062000200565b8160029081620000479190620004ba565b508060039081620000599190620004ba565b506200006a6200007760201b60201c565b5f8190555050506200059e565b5f90565b5f604051905090565b5f80fd5b5f80fd5b5f80fd5b5f80fd5b5f601f19601f8301169050919050565b7f4e487b71000000000000000000000000000000000000000000000000000000005f52604160045260245ffd5b620000dc8262000094565b810181811067ffffffffffffffff82111715620000fe57620000fd620000a4565b5b80604052505050565b5f620001126200007b565b9050620001208282620000d1565b919050565b5f67ffffffffffffffff821115620001425762000141620000a4565b5b6200014d8262000094565b9050602081019050919050565b5f5b83811015620001795780820151818401526020810190506200015c565b5f8484015250505050565b5f6200019a620001948462000125565b62000107565b905082815260208101848484011115620001b957620001b862000090565b5b620001c68482856200015a565b509392505050565b5f82601f830112620001e557620001e46200008c565b5b8151620001f784826020860162000184565b91505092915050565b5f806040838503121562000219576200021862000084565b5b5f83015167ffffffffffffffff81111562000239576200023862000088565b5b6200024785828601620001ce565b925050602083015167ffffffffffffffff8111156200026b576200026a62000088565b5b6200027985828601620001ce565b9150509250929050565b5f81519050919050565b7f4e487b71000000000000000000000000000000000000000000000000000000005f52602260045260245ffd5b5f6002820490506001821680620002d257607f821691505b602082108103620002e857620002e76200028d565b5b50919050565b5f819050815f5260205f209050919050565b5f6020601f8301049050919050565b5f82821b905092915050565b5f600883026200034c7fffffffffffffffffffffffffffffffffffffffffffffffffffffffffffffffff826200030f565b6200035886836200030f565b95508019841693508086168417925050509392505050565b5f819050919050565b5f819050919050565b5f620003a26200039c620003968462000370565b62000379565b62000370565b9050919050565b5f819050919050565b620003bd8362000382565b620003d5620003cc82620003a9565b8484546200031b565b825550505050565b5f90565b620003eb620003dd565b620003f8818484620003b2565b505050565b5b818110156200041f57620004135f82620003e1565b600181019050620003fe565b5050565b601f8211156200046e576200043881620002ee565b620004438462000300565b8101602085101562000453578190505b6200046b620004628562000300565b830182620003fd565b50505b505050565b5f82821c905092915050565b5f620004905f198460080262000473565b1980831691505092915050565b5f620004aa83836200047f565b9150826002028217905092915050565b620004c58262000283565b67ffffffffffffffff811115620004e157620004e0620000a4565b5b620004ed8254620002ba565b620004fa82828562000423565b5f60209050601f83116001811462000530575f84156200051b578287015190505b6200052785826200049d565b86555062000596565b601f1984166200054086620002ee565b5f5b82811015620005695784890151825560018201915060208501945060208101905062000542565b8683101562000589578489015162000585601f8916826200047f565b8355505b6001600288020188555050505b505050505050565b611a3080620005ac5f395ff3fe608060405234801561000f575f80fd5b50600436106100e8575f3560e01c806370a082311161008a578063c772ded111610064578063c772ded11461025a578063c87b56dd14610276578063d94b34b6146102a6578063e985e9c5146102c2576100e8565b806370a08231146101f057806395d89b4114610220578063a22cb4651461023e576100e8565b8063095ea7b3116100c6578063095ea7b31461016a57806318160ddd1461018657806323b872dd146101a45780636352211e146101c0576100e8565b806301ffc9a7146100ec57806306fdde031461011c578063081812fc1461013a575b5f80fd5b61010660048036038101906101019190611159565b6102f2565b604051610113919061119e565b60405180910390f35b610124610383565b6040516101319190611241565b60405180910390f35b610154600480360381019061014f9190611294565b610413565b60405161016191906112fe565b60405180910390f35b610184600480360381019061017f9190611341565b61046c565b005b61018e61047c565b60405161019b919061138e565b60405180910390f35b6101be60048036038101906101b991906113a7565b610491565b005b6101da60048036038101906101d59190611294565b61073c565b6040516101e791906112fe565b60405180910390f35b61020a600480360381019061020591906113f7565b61074d565b604051610217919061138e565b60405180910390f35b6102286107e1565b6040516102359190611241565b60405180910390f35b6102586004803603810190610253919061144c565b610871565b005b610274600480360381019061026f91906115b6565b610977565b005b610290600480360381019061028b9190611294565b6109c8565b60405161029d9190611241565b60405180910390f35b6102c060048036038101906102bb91906113a7565b610a42565b005b6102dc60048036038101906102d79190611636565b610a61565b6040516102e9919061119e565b60405180910390f35b5f6301ffc9a760e01b827bffffffffffffffffffffffffffffffffffffffffffffffffffffffff1916148061034c57506380ac58cd60e01b827bffffffffffffffffffffffffffffffffffffffffffffffffffffffff1916145b8061037c5750635b5e139f60e01b827bffffffffffffffffffffffffffffffffffffffffffffffffffffffff1916145b9050919050565b606060028054610392906116a1565b80601f01602080910402602001604051908101604052809291908181526020018280546103be906116a1565b80156104095780601f106103e057610100808354040283529160200191610409565b820191905f5260205f20905b8154815290600101906020018083116103ec57829003601f168201915b5050505050905090565b5f61041d82610aef565b6104325761043163cf4700e460e01b610b61565b5b60065f8381526020019081526020015f205f015f9054906101000a900473ffffffffffffffffffffffffffffffffffffffff169050919050565b61047882826001610b69565b5050565b5f610485610c93565b6001545f540303905090565b5f61049b82610c97565b905073ffffffffffffffffffffffffffffffffffffffff8473ffffffffffffffffffffffffffffffffffffffff161693508373ffffffffffffffffffffffffffffffffffffffff168173ffffffffffffffffffffffffffffffffffffffff16146105105761050f63a114810060e01b610b61565b5b5f8061051b84610d79565b91509150610531818761052c610d9c565b610da3565b61055c5761054686610541610d9c565b610a61565b61055b5761055a6359c896be60e01b610b61565b5b5b6105698686866001610de6565b8015610573575f82555b60055f8773ffffffffffffffffffffffffffffffffffffffff1673ffffffffffffffffffffffffffffffffffffffff1681526020019081526020015f205f8154600190039190508190555060055f8673ffffffffffffffffffffffffffffffffffffffff1673ffffffffffffffffffffffffffffffffffffffff1681526020019081526020015f205f81546001019190508190555061063b85610617888887610dec565b7c020000000000000000000000000000000000000000000000000000000017610e13565b60045f8681526020019081526020015f20819055505f7c02000000000000000000000000000000000000000000000000000000008416036106b7575f6001850190505f60045f8381526020019081526020015f2054036106b5575f5481146106b4578360045f8381526020019081526020015f20819055505b5b505b5f73ffffffffffffffffffffffffffffffffffffffff8673ffffffffffffffffffffffffffffffffffffffff161690508481887fddf252ad1be2c89b69c2b068fc378daa952ba7f163c4a11628f55a4df523b3ef5f80a45f81036107265761072563ea553b3460e01b610b61565b5b6107338787876001610e42565b50505050505050565b5f61074682610c97565b9050919050565b5f8073ffffffffffffffffffffffffffffffffffffffff168273ffffffffffffffffffffffffffffffffffffffff160361079257610791638f4eb60460e01b610b61565b5b67ffffffffffffffff60055f8473ffffffffffffffffffffffffffffffffffffffff1673ffffffffffffffffffffffffffffffffffffffff1681526020019081526020015f2054169050919050565b6060600380546107f0906116a1565b80601f016020809104026020016040519081016040528092919081815260200182805461081c906116a1565b80156108675780601f1061083e57610100808354040283529160200191610867565b820191905f5260205f20905b81548152906001019060200180831161084a57829003601f168201915b5050505050905090565b8060075f61087d610d9c565b73ffffffffffffffffffffffffffffffffffffffff1673ffffffffffffffffffffffffffffffffffffffff1681526020019081526020015f205f8473ffffffffffffffffffffffffffffffffffffffff1673ffffffffffffffffffffffffffffffffffffffff1681526020019081526020015f205f6101000a81548160ff0219169083151502179055508173ffffffffffffffffffffffffffffffffffffffff16610926610d9c565b73ffffffffffffffffffffffffffffffffffffffff167f17307eab39ab6107e8899845ad3d59bd9653f200f220920489ca2b5937696c318360405161096b919061119e565b60405180910390a35050565b610982848484610491565b5f8373ffffffffffffffffffffffffffffffffffffffff163b146109c2576109ac84848484610e48565b6109c1576109c063d1a57ed660e01b610b61565b5b5b50505050565b60606109d382610aef565b6109e8576109e763a14c4b5060e01b610b61565b5b5f6109f1610f72565b90505f815103610a0f5760405180602001604052805f815250610a3a565b80610a1984610f92565b604051602001610a2a92919061170b565b6040516020818303038152906040525b915050919050565b610a5c83838360405180602001604052805f815250610977565b505050565b5f60075f8473ffffffffffffffffffffffffffffffffffffffff1673ffffffffffffffffffffffffffffffffffffffff1681526020019081526020015f205f8373ffffffffffffffffffffffffffffffffffffffff1673ffffffffffffffffffffffffffffffffffffffff1681526020019081526020015f205f9054906101000a900460ff16905092915050565b5f81610af9610c93565b11610b5c575f54821015610b5b575f5b5f60045f8581526020019081526020015f205491508103610b355782610b2e9061175b565b9250610b09565b5f7c01000000000000000000000000000000000000000000000000000000008216149150505b5b919050565b805f5260045ffd5b5f610b738361073c565b9050818015610bb557508073ffffffffffffffffffffffffffffffffffffffff16610b9c610d9c565b73ffffffffffffffffffffffffffffffffffffffff1614155b15610be157610bcb81610bc6610d9c565b610a61565b610be057610bdf63cfb3b94260e01b610b61565b5b5b8360065f8581526020019081526020015f205f015f6101000a81548173ffffffffffffffffffffffffffffffffffffffff021916908373ffffffffffffffffffffffffffffffffffffffff160217905550828473ffffffffffffffffffffffffffffffffffffffff168273ffffffffffffffffffffffffffffffffffffffff167f8c5be1e5ebec7d5bd14f71427d1e84f3dd0314c0f7b2291e5b200ac8c7c3b92560405160405180910390a450505050565b5f90565b5f81610ca1610c93565b11610d635760045f8381526020019081526020015f205490505f8103610d3b575f548210610cda57610cd963df2d9b4260e01b610b61565b5b5b60045f836001900393508381526020019081526020015f205490505f810315610d36575f7c010000000000000000000000000000000000000000000000000000000082160315610d7457610d3563df2d9b4260e01b610b61565b5b610cdb565b5f7c010000000000000000000000000000000000000000000000000000000082160315610d74575b610d7363df2d9b4260e01b610b61565b5b919050565b5f805f60065f8581526020019081526020015f2090508092508254915050915091565b5f33905090565b5f73ffffffffffffffffffffffffffffffffffffffff8316925073ffffffffffffffffffffffffffffffffffffffff821691508382148383141790509392505050565b50505050565b5f8060e883901c905060e8610e028686846110eb565b62ffffff16901b9150509392505050565b5f73ffffffffffffffffffffffffffffffffffffffff83169250428060601b9050828117841791505092915050565b50505050565b5f8373ffffffffffffffffffffffffffffffffffffffff1663150b7a02610e6d610d9c565b8786866040518563ffffffff1660e01b8152600401610e8f94939291906117d4565b6020604051808303815f875af1925050508015610eca57506040513d601f19601f82011682018060405250810190610ec79190611832565b60015b610f1f573d805f8114610ef8576040519150601f19603f3d011682016040523d82523d5f602084013e610efd565b606091505b505f815103610f1757610f1663d1a57ed660e01b610b61565b5b805181602001fd5b63150b7a0260e01b7bffffffffffffffffffffffffffffffffffffffffffffffffffffffff1916817bffffffffffffffffffffffffffffffffffffffffffffffffffffffff191614915050949350505050565b60606040518060600160405280603681526020016119c560369139905090565b60605f8203610fd8576040518060400160405280600181526020017f300000000000000000000000000000000000000000000000000000000000000081525090506110e6565b5f8290505f5b5f8214611007578080610ff09061185d565b915050600a8261100091906118d1565b9150610fde565b5f8167ffffffffffffffff81111561102257611021611492565b5b6040519080825280601f01601f1916602001820160405280156110545781602001600182028036833780820191505090505b5090505b5f85146110df5760018261106c9190611901565b9150600a8561107b9190611934565b60306110879190611964565b60f81b81838151811061109d5761109c611997565b5b60200101907effffffffffffffffffffffffffffffffffffffffffffffffffffffffffffff191690815f1a905350600a856110d891906118d1565b9450611058565b8093505050505b919050565b5f9392505050565b5f604051905090565b5f80fd5b5f80fd5b5f7fffffffff0000000000000000000000000000000000000000000000000000000082169050919050565b61113881611104565b8114611142575f80fd5b50565b5f813590506111538161112f565b92915050565b5f6020828403121561116e5761116d6110fc565b5b5f61117b84828501611145565b91505092915050565b5f8115159050919050565b61119881611184565b82525050565b5f6020820190506111b15f83018461118f565b92915050565b5f81519050919050565b5f82825260208201905092915050565b5f5b838110156111ee5780820151818401526020810190506111d3565b5f8484015250505050565b5f601f19601f8301169050919050565b5f611213826111b7565b61121d81856111c1565b935061122d8185602086016111d1565b611236816111f9565b840191505092915050565b5f6020820190508181035f8301526112598184611209565b905092915050565b5f819050919050565b61127381611261565b811461127d575f80fd5b50565b5f8135905061128e8161126a565b92915050565b5f602082840312156112a9576112a86110fc565b5b5f6112b684828501611280565b91505092915050565b5f73ffffffffffffffffffffffffffffffffffffffff82169050919050565b5f6112e8826112bf565b9050919050565b6112f8816112de565b82525050565b5f6020820190506113115f8301846112ef565b92915050565b611320816112de565b811461132a575f80fd5b50565b5f8135905061133b81611317565b92915050565b5f8060408385031215611357576113566110fc565b5b5f6113648582860161132d565b925050602061137585828601611280565b9150509250929050565b61138881611261565b82525050565b5f6020820190506113a15f83018461137f565b92915050565b5f805f606084860312156113be576113bd6110fc565b5b5f6113cb8682870161132d565b93505060206113dc8682870161132d565b92505060406113ed86828701611280565b9150509250925092565b5f6020828403121561140c5761140b6110fc565b5b5f6114198482850161132d565b91505092915050565b61142b81611184565b8114611435575f80fd5b50565b5f8135905061144681611422565b92915050565b5f8060408385031215611462576114616110fc565b5b5f61146f8582860161132d565b925050602061148085828601611438565b9150509250929050565b5f80fd5b5f80fd5b7f4e487b71000000000000000000000000000000000000000000000000000000005f52604160045260245ffd5b6114c8826111f9565b810181811067ffffffffffffffff821117156114e7576114e6611492565b5b80604052505050565b5f6114f96110f3565b905061150582826114bf565b919050565b5f67ffffffffffffffff82111561152457611523611492565b5b61152d826111f9565b9050602081019050919050565b828183375f83830152505050565b5f61155a6115558461150a565b6114f0565b9050828152602081018484840111156115765761157561148e565b5b61158184828561153a565b509392505050565b5f82601f83011261159d5761159c61148a565b5b81356115ad848260208601611548565b91505092915050565b5f805f80608085870312156115ce576115cd6110fc565b5b5f6115db8782880161132d565b94505060206115ec8782880161132d565b93505060406115fd87828801611280565b925050606085013567ffffffffffffffff81111561161e5761161d611100565b5b61162a87828801611589565b91505092959194509250565b5f806040838503121561164c5761164b6110fc565b5b5f6116598582860161132d565b925050602061166a8582860161132d565b9150509250929050565b7f4e487b71000000000000000000000000000000000000000000000000000000005f52602260045260245ffd5b5f60028204905060018216806116b857607f821691505b6020821081036116cb576116ca611674565b5b50919050565b5f81905092915050565b5f6116e5826111b7565b6116ef81856116d1565b93506116ff8185602086016111d1565b80840191505092915050565b5f61171682856116db565b915061172282846116db565b91508190509392505050565b7f4e487b71000000000000000000000000000000000000000000000000000000005f52601160045260245ffd5b5f61176582611261565b91505f82036117775761177661172e565b5b600182039050919050565b5f81519050919050565b5f82825260208201905092915050565b5f6117a682611782565b6117b0818561178c565b93506117c08185602086016111d1565b6117c9816111f9565b840191505092915050565b5f6080820190506117e75f8301876112ef565b6117f460208301866112ef565b611801604083018561137f565b8181036060830152611813818461179c565b905095945050505050565b5f8151905061182c8161112f565b92915050565b5f60208284031215611847576118466110fc565b5b5f6118548482850161181e565b91505092915050565b5f61186782611261565b91507fffffffffffffffffffffffffffffffffffffffffffffffffffffffffffffffff82036118995761189861172e565b5b600182019050919050565b7f4e487b71000000000000000000000000000000000000000000000000000000005f52601260045260245ffd5b5f6118db82611261565b91506118e683611261565b9250826118f6576118f56118a4565b5b828204905092915050565b5f61190b82611261565b915061191683611261565b925082820390508181111561192e5761192d61172e565b5b92915050565b5f61193e82611261565b915061194983611261565b925082611959576119586118a4565b5b828206905092915050565b5f61196e82611261565b915061197983611261565b92508282019050808211156119915761199061172e565b5b92915050565b7f4e487b71000000000000000000000000000000000000000000000000000000005f52603260045260245ffdfe697066733a2f2f516d61633839735a545347764b6b795961327672786452616b5052456147464a534e4a52525765747a544c51544d2fa26469706673582212204020244db0b084f990d2b87e02afaa661aa1739269a964a1abb8eaab42d9bf2664736f6c63430008150033",
					"opcodes": "PUSH1 0x80 PUSH1 0x40 MSTORE CALLVALUE DUP1 ISZERO PUSH3 0x10 JUMPI PUSH0 DUP1 REVERT JUMPDEST POP PUSH1 0x40 MLOAD PUSH3 0x1FDC CODESIZE SUB DUP1 PUSH3 0x1FDC DUP4 CODECOPY DUP2 DUP2 ADD PUSH1 0x40 MSTORE DUP2 ADD SWAP1 PUSH3 0x36 SWAP2 SWAP1 PUSH3 0x200 JUMP JUMPDEST DUP2 PUSH1 0x2 SWAP1 DUP2 PUSH3 0x47 SWAP2 SWAP1 PUSH3 0x4BA JUMP JUMPDEST POP DUP1 PUSH1 0x3 SWAP1 DUP2 PUSH3 0x59 SWAP2 SWAP1 PUSH3 0x4BA JUMP JUMPDEST POP PUSH3 0x6A PUSH3 0x77 PUSH1 0x20 SHL PUSH1 0x20 SHR JUMP JUMPDEST PUSH0 DUP2 SWAP1 SSTORE POP POP POP PUSH3 0x59E JUMP JUMPDEST PUSH0 SWAP1 JUMP JUMPDEST PUSH0 PUSH1 0x40 MLOAD SWAP1 POP SWAP1 JUMP JUMPDEST PUSH0 DUP1 REVERT JUMPDEST PUSH0 DUP1 REVERT JUMPDEST PUSH0 DUP1 REVERT JUMPDEST PUSH0 DUP1 REVERT JUMPDEST PUSH0 PUSH1 0x1F NOT PUSH1 0x1F DUP4 ADD AND SWAP1 POP SWAP2 SWAP1 POP JUMP JUMPDEST PUSH32 0x4E487B7100000000000000000000000000000000000000000000000000000000 PUSH0 MSTORE PUSH1 0x41 PUSH1 0x4 MSTORE PUSH1 0x24 PUSH0 REVERT JUMPDEST PUSH3 0xDC DUP3 PUSH3 0x94 JUMP JUMPDEST DUP2 ADD DUP2 DUP2 LT PUSH8 0xFFFFFFFFFFFFFFFF DUP3 GT OR ISZERO PUSH3 0xFE JUMPI PUSH3 0xFD PUSH3 0xA4 JUMP JUMPDEST JUMPDEST DUP1 PUSH1 0x40 MSTORE POP POP POP JUMP JUMPDEST PUSH0 PUSH3 0x112 PUSH3 0x7B JUMP JUMPDEST SWAP1 POP PUSH3 0x120 DUP3 DUP3 PUSH3 0xD1 JUMP JUMPDEST SWAP2 SWAP1 POP JUMP JUMPDEST PUSH0 PUSH8 0xFFFFFFFFFFFFFFFF DUP3 GT ISZERO PUSH3 0x142 JUMPI PUSH3 0x141 PUSH3 0xA4 JUMP JUMPDEST JUMPDEST PUSH3 0x14D DUP3 PUSH3 0x94 JUMP JUMPDEST SWAP1 POP PUSH1 0x20 DUP2 ADD SWAP1 POP SWAP2 SWAP1 POP JUMP JUMPDEST PUSH0 JUMPDEST DUP4 DUP2 LT ISZERO PUSH3 0x179 JUMPI DUP1 DUP3 ADD MLOAD DUP2 DUP5 ADD MSTORE PUSH1 0x20 DUP2 ADD SWAP1 POP PUSH3 0x15C JUMP JUMPDEST PUSH0 DUP5 DUP5 ADD MSTORE POP POP POP POP JUMP JUMPDEST PUSH0 PUSH3 0x19A PUSH3 0x194 DUP5 PUSH3 0x125 JUMP JUMPDEST PUSH3 0x107 JUMP JUMPDEST SWAP1 POP DUP3 DUP2 MSTORE PUSH1 0x20 DUP2 ADD DUP5 DUP5 DUP5 ADD GT ISZERO PUSH3 0x1B9 JUMPI PUSH3 0x1B8 PUSH3 0x90 JUMP JUMPDEST JUMPDEST PUSH3 0x1C6 DUP5 DUP3 DUP6 PUSH3 0x15A JUMP JUMPDEST POP SWAP4 SWAP3 POP POP POP JUMP JUMPDEST PUSH0 DUP3 PUSH1 0x1F DUP4 ADD SLT PUSH3 0x1E5 JUMPI PUSH3 0x1E4 PUSH3 0x8C JUMP JUMPDEST JUMPDEST DUP2 MLOAD PUSH3 0x1F7 DUP5 DUP3 PUSH1 0x20 DUP7 ADD PUSH3 0x184 JUMP JUMPDEST SWAP2 POP POP SWAP3 SWAP2 POP POP JUMP JUMPDEST PUSH0 DUP1 PUSH1 0x40 DUP4 DUP6 SUB SLT ISZERO PUSH3 0x219 JUMPI PUSH3 0x218 PUSH3 0x84 JUMP JUMPDEST JUMPDEST PUSH0 DUP4 ADD MLOAD PUSH8 0xFFFFFFFFFFFFFFFF DUP2 GT ISZERO PUSH3 0x239 JUMPI PUSH3 0x238 PUSH3 0x88 JUMP JUMPDEST JUMPDEST PUSH3 0x247 DUP6 DUP3 DUP7 ADD PUSH3 0x1CE JUMP JUMPDEST SWAP3 POP POP PUSH1 0x20 DUP4 ADD MLOAD PUSH8 0xFFFFFFFFFFFFFFFF DUP2 GT ISZERO PUSH3 0x26B JUMPI PUSH3 0x26A PUSH3 0x88 JUMP JUMPDEST JUMPDEST PUSH3 0x279 DUP6 DUP3 DUP7 ADD PUSH3 0x1CE JUMP JUMPDEST SWAP2 POP POP SWAP3 POP SWAP3 SWAP1 POP JUMP JUMPDEST PUSH0 DUP2 MLOAD SWAP1 POP SWAP2 SWAP1 POP JUMP JUMPDEST PUSH32 0x4E487B7100000000000000000000000000000000000000000000000000000000 PUSH0 MSTORE PUSH1 0x22 PUSH1 0x4 MSTORE PUSH1 0x24 PUSH0 REVERT JUMPDEST PUSH0 PUSH1 0x2 DUP3 DIV SWAP1 POP PUSH1 0x1 DUP3 AND DUP1 PUSH3 0x2D2 JUMPI PUSH1 0x7F DUP3 AND SWAP2 POP JUMPDEST PUSH1 0x20 DUP3 LT DUP2 SUB PUSH3 0x2E8 JUMPI PUSH3 0x2E7 PUSH3 0x28D JUMP JUMPDEST JUMPDEST POP SWAP2 SWAP1 POP JUMP JUMPDEST PUSH0 DUP2 SWAP1 POP DUP2 PUSH0 MSTORE PUSH1 0x20 PUSH0 KECCAK256 SWAP1 POP SWAP2 SWAP1 POP JUMP JUMPDEST PUSH0 PUSH1 0x20 PUSH1 0x1F DUP4 ADD DIV SWAP1 POP SWAP2 SWAP1 POP JUMP JUMPDEST PUSH0 DUP3 DUP3 SHL SWAP1 POP SWAP3 SWAP2 POP POP JUMP JUMPDEST PUSH0 PUSH1 0x8 DUP4 MUL PUSH3 0x34C PUSH32 0xFFFFFFFFFFFFFFFFFFFFFFFFFFFFFFFFFFFFFFFFFFFFFFFFFFFFFFFFFFFFFFFF DUP3 PUSH3 0x30F JUMP JUMPDEST PUSH3 0x358 DUP7 DUP4 PUSH3 0x30F JUMP JUMPDEST SWAP6 POP DUP1 NOT DUP5 AND SWAP4 POP DUP1 DUP7 AND DUP5 OR SWAP3 POP POP POP SWAP4 SWAP3 POP POP POP JUMP JUMPDEST PUSH0 DUP2 SWAP1 POP SWAP2 SWAP1 POP JUMP JUMPDEST PUSH0 DUP2 SWAP1 POP SWAP2 SWAP1 POP JUMP JUMPDEST PUSH0 PUSH3 0x3A2 PUSH3 0x39C PUSH3 0x396 DUP5 PUSH3 0x370 JUMP JUMPDEST PUSH3 0x379 JUMP JUMPDEST PUSH3 0x370 JUMP JUMPDEST SWAP1 POP SWAP2 SWAP1 POP JUMP JUMPDEST PUSH0 DUP2 SWAP1 POP SWAP2 SWAP1 POP JUMP JUMPDEST PUSH3 0x3BD DUP4 PUSH3 0x382 JUMP JUMPDEST PUSH3 0x3D5 PUSH3 0x3CC DUP3 PUSH3 0x3A9 JUMP JUMPDEST DUP5 DUP5 SLOAD PUSH3 0x31B JUMP JUMPDEST DUP3 SSTORE POP POP POP POP JUMP JUMPDEST PUSH0 SWAP1 JUMP JUMPDEST PUSH3 0x3EB PUSH3 0x3DD JUMP JUMPDEST PUSH3 0x3F8 DUP2 DUP5 DUP5 PUSH3 0x3B2 JUMP JUMPDEST POP POP POP JUMP JUMPDEST JUMPDEST DUP2 DUP2 LT ISZERO PUSH3 0x41F JUMPI PUSH3 0x413 PUSH0 DUP3 PUSH3 0x3E1 JUMP JUMPDEST PUSH1 0x1 DUP2 ADD SWAP1 POP PUSH3 0x3FE JUMP JUMPDEST POP POP JUMP JUMPDEST PUSH1 0x1F DUP3 GT ISZERO PUSH3 0x46E JUMPI PUSH3 0x438 DUP2 PUSH3 0x2EE JUMP JUMPDEST PUSH3 0x443 DUP5 PUSH3 0x300 JUMP JUMPDEST DUP2 ADD PUSH1 0x20 DUP6 LT ISZERO PUSH3 0x453 JUMPI DUP2 SWAP1 POP JUMPDEST PUSH3 0x46B PUSH3 0x462 DUP6 PUSH3 0x300 JUMP JUMPDEST DUP4 ADD DUP3 PUSH3 0x3FD JUMP JUMPDEST POP POP JUMPDEST POP POP POP JUMP JUMPDEST PUSH0 DUP3 DUP3 SHR SWAP1 POP SWAP3 SWAP2 POP POP JUMP JUMPDEST PUSH0 PUSH3 0x490 PUSH0 NOT DUP5 PUSH1 0x8 MUL PUSH3 0x473 JUMP JUMPDEST NOT DUP1 DUP4 AND SWAP2 POP POP SWAP3 SWAP2 POP POP JUMP JUMPDEST PUSH0 PUSH3 0x4AA DUP4 DUP4 PUSH3 0x47F JUMP JUMPDEST SWAP2 POP DUP3 PUSH1 0x2 MUL DUP3 OR SWAP1 POP SWAP3 SWAP2 POP POP JUMP JUMPDEST PUSH3 0x4C5 DUP3 PUSH3 0x283 JUMP JUMPDEST PUSH8 0xFFFFFFFFFFFFFFFF DUP2 GT ISZERO PUSH3 0x4E1 JUMPI PUSH3 0x4E0 PUSH3 0xA4 JUMP JUMPDEST JUMPDEST PUSH3 0x4ED DUP3 SLOAD PUSH3 0x2BA JUMP JUMPDEST PUSH3 0x4FA DUP3 DUP3 DUP6 PUSH3 0x423 JUMP JUMPDEST PUSH0 PUSH1 0x20 SWAP1 POP PUSH1 0x1F DUP4 GT PUSH1 0x1 DUP2 EQ PUSH3 0x530 JUMPI PUSH0 DUP5 ISZERO PUSH3 0x51B JUMPI DUP3 DUP8 ADD MLOAD SWAP1 POP JUMPDEST PUSH3 0x527 DUP6 DUP3 PUSH3 0x49D JUMP JUMPDEST DUP7 SSTORE POP PUSH3 0x596 JUMP JUMPDEST PUSH1 0x1F NOT DUP5 AND PUSH3 0x540 DUP7 PUSH3 0x2EE JUMP JUMPDEST PUSH0 JUMPDEST DUP3 DUP2 LT ISZERO PUSH3 0x569 JUMPI DUP5 DUP10 ADD MLOAD DUP3 SSTORE PUSH1 0x1 DUP3 ADD SWAP2 POP PUSH1 0x20 DUP6 ADD SWAP5 POP PUSH1 0x20 DUP2 ADD SWAP1 POP PUSH3 0x542 JUMP JUMPDEST DUP7 DUP4 LT ISZERO PUSH3 0x589 JUMPI DUP5 DUP10 ADD MLOAD PUSH3 0x585 PUSH1 0x1F DUP10 AND DUP3 PUSH3 0x47F JUMP JUMPDEST DUP4 SSTORE POP JUMPDEST PUSH1 0x1 PUSH1 0x2 DUP9 MUL ADD DUP9 SSTORE POP POP POP JUMPDEST POP POP POP POP POP POP JUMP JUMPDEST PUSH2 0x1A30 DUP1 PUSH3 0x5AC PUSH0 CODECOPY PUSH0 RETURN INVALID PUSH1 0x80 PUSH1 0x40 MSTORE CALLVALUE DUP1 ISZERO PUSH2 0xF JUMPI PUSH0 DUP1 REVERT JUMPDEST POP PUSH1 0x4 CALLDATASIZE LT PUSH2 0xE8 JUMPI PUSH0 CALLDATALOAD PUSH1 0xE0 SHR DUP1 PUSH4 0x70A08231 GT PUSH2 0x8A JUMPI DUP1 PUSH4 0xC772DED1 GT PUSH2 0x64 JUMPI DUP1 PUSH4 0xC772DED1 EQ PUSH2 0x25A JUMPI DUP1 PUSH4 0xC87B56DD EQ PUSH2 0x276 JUMPI DUP1 PUSH4 0xD94B34B6 EQ PUSH2 0x2A6 JUMPI DUP1 PUSH4 0xE985E9C5 EQ PUSH2 0x2C2 JUMPI PUSH2 0xE8 JUMP JUMPDEST DUP1 PUSH4 0x70A08231 EQ PUSH2 0x1F0 JUMPI DUP1 PUSH4 0x95D89B41 EQ PUSH2 0x220 JUMPI DUP1 PUSH4 0xA22CB465 EQ PUSH2 0x23E JUMPI PUSH2 0xE8 JUMP JUMPDEST DUP1 PUSH4 0x95EA7B3 GT PUSH2 0xC6 JUMPI DUP1 PUSH4 0x95EA7B3 EQ PUSH2 0x16A JUMPI DUP1 PUSH4 0x18160DDD EQ PUSH2 0x186 JUMPI DUP1 PUSH4 0x23B872DD EQ PUSH2 0x1A4 JUMPI DUP1 PUSH4 0x6352211E EQ PUSH2 0x1C0 JUMPI PUSH2 0xE8 JUMP JUMPDEST DUP1 PUSH4 0x1FFC9A7 EQ PUSH2 0xEC JUMPI DUP1 PUSH4 0x6FDDE03 EQ PUSH2 0x11C JUMPI DUP1 PUSH4 0x81812FC EQ PUSH2 0x13A JUMPI JUMPDEST PUSH0 DUP1 REVERT JUMPDEST PUSH2 0x106 PUSH1 0x4 DUP1 CALLDATASIZE SUB DUP2 ADD SWAP1 PUSH2 0x101 SWAP2 SWAP1 PUSH2 0x1159 JUMP JUMPDEST PUSH2 0x2F2 JUMP JUMPDEST PUSH1 0x40 MLOAD PUSH2 0x113 SWAP2 SWAP1 PUSH2 0x119E JUMP JUMPDEST PUSH1 0x40 MLOAD DUP1 SWAP2 SUB SWAP1 RETURN JUMPDEST PUSH2 0x124 PUSH2 0x383 JUMP JUMPDEST PUSH1 0x40 MLOAD PUSH2 0x131 SWAP2 SWAP1 PUSH2 0x1241 JUMP JUMPDEST PUSH1 0x40 MLOAD DUP1 SWAP2 SUB SWAP1 RETURN JUMPDEST PUSH2 0x154 PUSH1 0x4 DUP1 CALLDATASIZE SUB DUP2 ADD SWAP1 PUSH2 0x14F SWAP2 SWAP1 PUSH2 0x1294 JUMP JUMPDEST PUSH2 0x413 JUMP JUMPDEST PUSH1 0x40 MLOAD PUSH2 0x161 SWAP2 SWAP1 PUSH2 0x12FE JUMP JUMPDEST PUSH1 0x40 MLOAD DUP1 SWAP2 SUB SWAP1 RETURN JUMPDEST PUSH2 0x184 PUSH1 0x4 DUP1 CALLDATASIZE SUB DUP2 ADD SWAP1 PUSH2 0x17F SWAP2 SWAP1 PUSH2 0x1341 JUMP JUMPDEST PUSH2 0x46C JUMP JUMPDEST STOP JUMPDEST PUSH2 0x18E PUSH2 0x47C JUMP JUMPDEST PUSH1 0x40 MLOAD PUSH2 0x19B SWAP2 SWAP1 PUSH2 0x138E JUMP JUMPDEST PUSH1 0x40 MLOAD DUP1 SWAP2 SUB SWAP1 RETURN JUMPDEST PUSH2 0x1BE PUSH1 0x4 DUP1 CALLDATASIZE SUB DUP2 ADD SWAP1 PUSH2 0x1B9 SWAP2 SWAP1 PUSH2 0x13A7 JUMP JUMPDEST PUSH2 0x491 JUMP JUMPDEST STOP JUMPDEST PUSH2 0x1DA PUSH1 0x4 DUP1 CALLDATASIZE SUB DUP2 ADD SWAP1 PUSH2 0x1D5 SWAP2 SWAP1 PUSH2 0x1294 JUMP JUMPDEST PUSH2 0x73C JUMP JUMPDEST PUSH1 0x40 MLOAD PUSH2 0x1E7 SWAP2 SWAP1 PUSH2 0x12FE JUMP JUMPDEST PUSH1 0x40 MLOAD DUP1 SWAP2 SUB SWAP1 RETURN JUMPDEST PUSH2 0x20A PUSH1 0x4 DUP1 CALLDATASIZE SUB DUP2 ADD SWAP1 PUSH2 0x205 SWAP2 SWAP1 PUSH2 0x13F7 JUMP JUMPDEST PUSH2 0x74D JUMP JUMPDEST PUSH1 0x40 MLOAD PUSH2 0x217 SWAP2 SWAP1 PUSH2 0x138E JUMP JUMPDEST PUSH1 0x40 MLOAD DUP1 SWAP2 SUB SWAP1 RETURN JUMPDEST PUSH2 0x228 PUSH2 0x7E1 JUMP JUMPDEST PUSH1 0x40 MLOAD PUSH2 0x235 SWAP2 SWAP1 PUSH2 0x1241 JUMP JUMPDEST PUSH1 0x40 MLOAD DUP1 SWAP2 SUB SWAP1 RETURN JUMPDEST PUSH2 0x258 PUSH1 0x4 DUP1 CALLDATASIZE SUB DUP2 ADD SWAP1 PUSH2 0x253 SWAP2 SWAP1 PUSH2 0x144C JUMP JUMPDEST PUSH2 0x871 JUMP JUMPDEST STOP JUMPDEST PUSH2 0x274 PUSH1 0x4 DUP1 CALLDATASIZE SUB DUP2 ADD SWAP1 PUSH2 0x26F SWAP2 SWAP1 PUSH2 0x15B6 JUMP JUMPDEST PUSH2 0x977 JUMP JUMPDEST STOP JUMPDEST PUSH2 0x290 PUSH1 0x4 DUP1 CALLDATASIZE SUB DUP2 ADD SWAP1 PUSH2 0x28B SWAP2 SWAP1 PUSH2 0x1294 JUMP JUMPDEST PUSH2 0x9C8 JUMP JUMPDEST PUSH1 0x40 MLOAD PUSH2 0x29D SWAP2 SWAP1 PUSH2 0x1241 JUMP JUMPDEST PUSH1 0x40 MLOAD DUP1 SWAP2 SUB SWAP1 RETURN JUMPDEST PUSH2 0x2C0 PUSH1 0x4 DUP1 CALLDATASIZE SUB DUP2 ADD SWAP1 PUSH2 0x2BB SWAP2 SWAP1 PUSH2 0x13A7 JUMP JUMPDEST PUSH2 0xA42 JUMP JUMPDEST STOP JUMPDEST PUSH2 0x2DC PUSH1 0x4 DUP1 CALLDATASIZE SUB DUP2 ADD SWAP1 PUSH2 0x2D7 SWAP2 SWAP1 PUSH2 0x1636 JUMP JUMPDEST PUSH2 0xA61 JUMP JUMPDEST PUSH1 0x40 MLOAD PUSH2 0x2E9 SWAP2 SWAP1 PUSH2 0x119E JUMP JUMPDEST PUSH1 0x40 MLOAD DUP1 SWAP2 SUB SWAP1 RETURN JUMPDEST PUSH0 PUSH4 0x1FFC9A7 PUSH1 0xE0 SHL DUP3 PUSH28 0xFFFFFFFFFFFFFFFFFFFFFFFFFFFFFFFFFFFFFFFFFFFFFFFFFFFFFFFF NOT AND EQ DUP1 PUSH2 0x34C JUMPI POP PUSH4 0x80AC58CD PUSH1 0xE0 SHL DUP3 PUSH28 0xFFFFFFFFFFFFFFFFFFFFFFFFFFFFFFFFFFFFFFFFFFFFFFFFFFFFFFFF NOT AND EQ JUMPDEST DUP1 PUSH2 0x37C JUMPI POP PUSH4 0x5B5E139F PUSH1 0xE0 SHL DUP3 PUSH28 0xFFFFFFFFFFFFFFFFFFFFFFFFFFFFFFFFFFFFFFFFFFFFFFFFFFFFFFFF NOT AND EQ JUMPDEST SWAP1 POP SWAP2 SWAP1 POP JUMP JUMPDEST PUSH1 0x60 PUSH1 0x2 DUP1 SLOAD PUSH2 0x392 SWAP1 PUSH2 0x16A1 JUMP JUMPDEST DUP1 PUSH1 0x1F ADD PUSH1 0x20 DUP1 SWAP2 DIV MUL PUSH1 0x20 ADD PUSH1 0x40 MLOAD SWAP1 DUP2 ADD PUSH1 0x40 MSTORE DUP1 SWAP3 SWAP2 SWAP1 DUP2 DUP2 MSTORE PUSH1 0x20 ADD DUP3 DUP1 SLOAD PUSH2 0x3BE SWAP1 PUSH2 0x16A1 JUMP JUMPDEST DUP1 ISZERO PUSH2 0x409 JUMPI DUP1 PUSH1 0x1F LT PUSH2 0x3E0 JUMPI PUSH2 0x100 DUP1 DUP4 SLOAD DIV MUL DUP4 MSTORE SWAP2 PUSH1 0x20 ADD SWAP2 PUSH2 0x409 JUMP JUMPDEST DUP3 ADD SWAP2 SWAP1 PUSH0 MSTORE PUSH1 0x20 PUSH0 KECCAK256 SWAP1 JUMPDEST DUP2 SLOAD DUP2 MSTORE SWAP1 PUSH1 0x1 ADD SWAP1 PUSH1 0x20 ADD DUP1 DUP4 GT PUSH2 0x3EC JUMPI DUP3 SWAP1 SUB PUSH1 0x1F AND DUP3 ADD SWAP2 JUMPDEST POP POP POP POP POP SWAP1 POP SWAP1 JUMP JUMPDEST PUSH0 PUSH2 0x41D DUP3 PUSH2 0xAEF JUMP JUMPDEST PUSH2 0x432 JUMPI PUSH2 0x431 PUSH4 0xCF4700E4 PUSH1 0xE0 SHL PUSH2 0xB61 JUMP JUMPDEST JUMPDEST PUSH1 0x6 PUSH0 DUP4 DUP2 MSTORE PUSH1 0x20 ADD SWAP1 DUP2 MSTORE PUSH1 0x20 ADD PUSH0 KECCAK256 PUSH0 ADD PUSH0 SWAP1 SLOAD SWAP1 PUSH2 0x100 EXP SWAP1 DIV PUSH20 0xFFFFFFFFFFFFFFFFFFFFFFFFFFFFFFFFFFFFFFFF AND SWAP1 POP SWAP2 SWAP1 POP JUMP JUMPDEST PUSH2 0x478 DUP3 DUP3 PUSH1 0x1 PUSH2 0xB69 JUMP JUMPDEST POP POP JUMP JUMPDEST PUSH0 PUSH2 0x485 PUSH2 0xC93 JUMP JUMPDEST PUSH1 0x1 SLOAD PUSH0 SLOAD SUB SUB SWAP1 POP SWAP1 JUMP JUMPDEST PUSH0 PUSH2 0x49B DUP3 PUSH2 0xC97 JUMP JUMPDEST SWAP1 POP PUSH20 0xFFFFFFFFFFFFFFFFFFFFFFFFFFFFFFFFFFFFFFFF DUP5 PUSH20 0xFFFFFFFFFFFFFFFFFFFFFFFFFFFFFFFFFFFFFFFF AND AND SWAP4 POP DUP4 PUSH20 0xFFFFFFFFFFFFFFFFFFFFFFFFFFFFFFFFFFFFFFFF AND DUP2 PUSH20 0xFFFFFFFFFFFFFFFFFFFFFFFFFFFFFFFFFFFFFFFF AND EQ PUSH2 0x510 JUMPI PUSH2 0x50F PUSH4 0xA1148100 PUSH1 0xE0 SHL PUSH2 0xB61 JUMP JUMPDEST JUMPDEST PUSH0 DUP1 PUSH2 0x51B DUP5 PUSH2 0xD79 JUMP JUMPDEST SWAP2 POP SWAP2 POP PUSH2 0x531 DUP2 DUP8 PUSH2 0x52C PUSH2 0xD9C JUMP JUMPDEST PUSH2 0xDA3 JUMP JUMPDEST PUSH2 0x55C JUMPI PUSH2 0x546 DUP7 PUSH2 0x541 PUSH2 0xD9C JUMP JUMPDEST PUSH2 0xA61 JUMP JUMPDEST PUSH2 0x55B JUMPI PUSH2 0x55A PUSH4 0x59C896BE PUSH1 0xE0 SHL PUSH2 0xB61 JUMP JUMPDEST JUMPDEST JUMPDEST PUSH2 0x569 DUP7 DUP7 DUP7 PUSH1 0x1 PUSH2 0xDE6 JUMP JUMPDEST DUP1 ISZERO PUSH2 0x573 JUMPI PUSH0 DUP3 SSTORE JUMPDEST PUSH1 0x5 PUSH0 DUP8 PUSH20 0xFFFFFFFFFFFFFFFFFFFFFFFFFFFFFFFFFFFFFFFF AND PUSH20 0xFFFFFFFFFFFFFFFFFFFFFFFFFFFFFFFFFFFFFFFF AND DUP2 MSTORE PUSH1 0x20 ADD SWAP1 DUP2 MSTORE PUSH1 0x20 ADD PUSH0 KECCAK256 PUSH0 DUP2 SLOAD PUSH1 0x1 SWAP1 SUB SWAP2 SWAP1 POP DUP2 SWAP1 SSTORE POP PUSH1 0x5 PUSH0 DUP7 PUSH20 0xFFFFFFFFFFFFFFFFFFFFFFFFFFFFFFFFFFFFFFFF AND PUSH20 0xFFFFFFFFFFFFFFFFFFFFFFFFFFFFFFFFFFFFFFFF AND DUP2 MSTORE PUSH1 0x20 ADD SWAP1 DUP2 MSTORE PUSH1 0x20 ADD PUSH0 KECCAK256 PUSH0 DUP2 SLOAD PUSH1 0x1 ADD SWAP2 SWAP1 POP DUP2 SWAP1 SSTORE POP PUSH2 0x63B DUP6 PUSH2 0x617 DUP9 DUP9 DUP8 PUSH2 0xDEC JUMP JUMPDEST PUSH29 0x200000000000000000000000000000000000000000000000000000000 OR PUSH2 0xE13 JUMP JUMPDEST PUSH1 0x4 PUSH0 DUP7 DUP2 MSTORE PUSH1 0x20 ADD SWAP1 DUP2 MSTORE PUSH1 0x20 ADD PUSH0 KECCAK256 DUP2 SWAP1 SSTORE POP PUSH0 PUSH29 0x200000000000000000000000000000000000000000000000000000000 DUP5 AND SUB PUSH2 0x6B7 JUMPI PUSH0 PUSH1 0x1 DUP6 ADD SWAP1 POP PUSH0 PUSH1 0x4 PUSH0 DUP4 DUP2 MSTORE PUSH1 0x20 ADD SWAP1 DUP2 MSTORE PUSH1 0x20 ADD PUSH0 KECCAK256 SLOAD SUB PUSH2 0x6B5 JUMPI PUSH0 SLOAD DUP2 EQ PUSH2 0x6B4 JUMPI DUP4 PUSH1 0x4 PUSH0 DUP4 DUP2 MSTORE PUSH1 0x20 ADD SWAP1 DUP2 MSTORE PUSH1 0x20 ADD PUSH0 KECCAK256 DUP2 SWAP1 SSTORE POP JUMPDEST JUMPDEST POP JUMPDEST PUSH0 PUSH20 0xFFFFFFFFFFFFFFFFFFFFFFFFFFFFFFFFFFFFFFFF DUP7 PUSH20 0xFFFFFFFFFFFFFFFFFFFFFFFFFFFFFFFFFFFFFFFF AND AND SWAP1 POP DUP5 DUP2 DUP9 PUSH32 0xDDF252AD1BE2C89B69C2B068FC378DAA952BA7F163C4A11628F55A4DF523B3EF PUSH0 DUP1 LOG4 PUSH0 DUP2 SUB PUSH2 0x726 JUMPI PUSH2 0x725 PUSH4 0xEA553B34 PUSH1 0xE0 SHL PUSH2 0xB61 JUMP JUMPDEST JUMPDEST PUSH2 0x733 DUP8 DUP8 DUP8 PUSH1 0x1 PUSH2 0xE42 JUMP JUMPDEST POP POP POP POP POP POP POP JUMP JUMPDEST PUSH0 PUSH2 0x746 DUP3 PUSH2 0xC97 JUMP JUMPDEST SWAP1 POP SWAP2 SWAP1 POP JUMP JUMPDEST PUSH0 DUP1 PUSH20 0xFFFFFFFFFFFFFFFFFFFFFFFFFFFFFFFFFFFFFFFF AND DUP3 PUSH20 0xFFFFFFFFFFFFFFFFFFFFFFFFFFFFFFFFFFFFFFFF AND SUB PUSH2 0x792 JUMPI PUSH2 0x791 PUSH4 0x8F4EB604 PUSH1 0xE0 SHL PUSH2 0xB61 JUMP JUMPDEST JUMPDEST PUSH8 0xFFFFFFFFFFFFFFFF PUSH1 0x5 PUSH0 DUP5 PUSH20 0xFFFFFFFFFFFFFFFFFFFFFFFFFFFFFFFFFFFFFFFF AND PUSH20 0xFFFFFFFFFFFFFFFFFFFFFFFFFFFFFFFFFFFFFFFF AND DUP2 MSTORE PUSH1 0x20 ADD SWAP1 DUP2 MSTORE PUSH1 0x20 ADD PUSH0 KECCAK256 SLOAD AND SWAP1 POP SWAP2 SWAP1 POP JUMP JUMPDEST PUSH1 0x60 PUSH1 0x3 DUP1 SLOAD PUSH2 0x7F0 SWAP1 PUSH2 0x16A1 JUMP JUMPDEST DUP1 PUSH1 0x1F ADD PUSH1 0x20 DUP1 SWAP2 DIV MUL PUSH1 0x20 ADD PUSH1 0x40 MLOAD SWAP1 DUP2 ADD PUSH1 0x40 MSTORE DUP1 SWAP3 SWAP2 SWAP1 DUP2 DUP2 MSTORE PUSH1 0x20 ADD DUP3 DUP1 SLOAD PUSH2 0x81C SWAP1 PUSH2 0x16A1 JUMP JUMPDEST DUP1 ISZERO PUSH2 0x867 JUMPI DUP1 PUSH1 0x1F LT PUSH2 0x83E JUMPI PUSH2 0x100 DUP1 DUP4 SLOAD DIV MUL DUP4 MSTORE SWAP2 PUSH1 0x20 ADD SWAP2 PUSH2 0x867 JUMP JUMPDEST DUP3 ADD SWAP2 SWAP1 PUSH0 MSTORE PUSH1 0x20 PUSH0 KECCAK256 SWAP1 JUMPDEST DUP2 SLOAD DUP2 MSTORE SWAP1 PUSH1 0x1 ADD SWAP1 PUSH1 0x20 ADD DUP1 DUP4 GT PUSH2 0x84A JUMPI DUP3 SWAP1 SUB PUSH1 0x1F AND DUP3 ADD SWAP2 JUMPDEST POP POP POP POP POP SWAP1 POP SWAP1 JUMP JUMPDEST DUP1 PUSH1 0x7 PUSH0 PUSH2 0x87D PUSH2 0xD9C JUMP JUMPDEST PUSH20 0xFFFFFFFFFFFFFFFFFFFFFFFFFFFFFFFFFFFFFFFF AND PUSH20 0xFFFFFFFFFFFFFFFFFFFFFFFFFFFFFFFFFFFFFFFF AND DUP2 MSTORE PUSH1 0x20 ADD SWAP1 DUP2 MSTORE PUSH1 0x20 ADD PUSH0 KECCAK256 PUSH0 DUP5 PUSH20 0xFFFFFFFFFFFFFFFFFFFFFFFFFFFFFFFFFFFFFFFF AND PUSH20 0xFFFFFFFFFFFFFFFFFFFFFFFFFFFFFFFFFFFFFFFF AND DUP2 MSTORE PUSH1 0x20 ADD SWAP1 DUP2 MSTORE PUSH1 0x20 ADD PUSH0 KECCAK256 PUSH0 PUSH2 0x100 EXP DUP2 SLOAD DUP2 PUSH1 0xFF MUL NOT AND SWAP1 DUP4 ISZERO ISZERO MUL OR SWAP1 SSTORE POP DUP2 PUSH20 0xFFFFFFFFFFFFFFFFFFFFFFFFFFFFFFFFFFFFFFFF AND PUSH2 0x926 PUSH2 0xD9C JUMP JUMPDEST PUSH20 0xFFFFFFFFFFFFFFFFFFFFFFFFFFFFFFFFFFFFFFFF AND PUSH32 0x17307EAB39AB6107E8899845AD3D59BD9653F200F220920489CA2B5937696C31 DUP4 PUSH1 0x40 MLOAD PUSH2 0x96B SWAP2 SWAP1 PUSH2 0x119E JUMP JUMPDEST PUSH1 0x40 MLOAD DUP1 SWAP2 SUB SWAP1 LOG3 POP POP JUMP JUMPDEST PUSH2 0x982 DUP5 DUP5 DUP5 PUSH2 0x491 JUMP JUMPDEST PUSH0 DUP4 PUSH20 0xFFFFFFFFFFFFFFFFFFFFFFFFFFFFFFFFFFFFFFFF AND EXTCODESIZE EQ PUSH2 0x9C2 JUMPI PUSH2 0x9AC DUP5 DUP5 DUP5 DUP5 PUSH2 0xE48 JUMP JUMPDEST PUSH2 0x9C1 JUMPI PUSH2 0x9C0 PUSH4 0xD1A57ED6 PUSH1 0xE0 SHL PUSH2 0xB61 JUMP JUMPDEST JUMPDEST JUMPDEST POP POP POP POP JUMP JUMPDEST PUSH1 0x60 PUSH2 0x9D3 DUP3 PUSH2 0xAEF JUMP JUMPDEST PUSH2 0x9E8 JUMPI PUSH2 0x9E7 PUSH4 0xA14C4B50 PUSH1 0xE0 SHL PUSH2 0xB61 JUMP JUMPDEST JUMPDEST PUSH0 PUSH2 0x9F1 PUSH2 0xF72 JUMP JUMPDEST SWAP1 POP PUSH0 DUP2 MLOAD SUB PUSH2 0xA0F JUMPI PUSH1 0x40 MLOAD DUP1 PUSH1 0x20 ADD PUSH1 0x40 MSTORE DUP1 PUSH0 DUP2 MSTORE POP PUSH2 0xA3A JUMP JUMPDEST DUP1 PUSH2 0xA19 DUP5 PUSH2 0xF92 JUMP JUMPDEST PUSH1 0x40 MLOAD PUSH1 0x20 ADD PUSH2 0xA2A SWAP3 SWAP2 SWAP1 PUSH2 0x170B JUMP JUMPDEST PUSH1 0x40 MLOAD PUSH1 0x20 DUP2 DUP4 SUB SUB DUP2 MSTORE SWAP1 PUSH1 0x40 MSTORE JUMPDEST SWAP2 POP POP SWAP2 SWAP1 POP JUMP JUMPDEST PUSH2 0xA5C DUP4 DUP4 DUP4 PUSH1 0x40 MLOAD DUP1 PUSH1 0x20 ADD PUSH1 0x40 MSTORE DUP1 PUSH0 DUP2 MSTORE POP PUSH2 0x977 JUMP JUMPDEST POP POP POP JUMP JUMPDEST PUSH0 PUSH1 0x7 PUSH0 DUP5 PUSH20 0xFFFFFFFFFFFFFFFFFFFFFFFFFFFFFFFFFFFFFFFF AND PUSH20 0xFFFFFFFFFFFFFFFFFFFFFFFFFFFFFFFFFFFFFFFF AND DUP2 MSTORE PUSH1 0x20 ADD SWAP1 DUP2 MSTORE PUSH1 0x20 ADD PUSH0 KECCAK256 PUSH0 DUP4 PUSH20 0xFFFFFFFFFFFFFFFFFFFFFFFFFFFFFFFFFFFFFFFF AND PUSH20 0xFFFFFFFFFFFFFFFFFFFFFFFFFFFFFFFFFFFFFFFF AND DUP2 MSTORE PUSH1 0x20 ADD SWAP1 DUP2 MSTORE PUSH1 0x20 ADD PUSH0 KECCAK256 PUSH0 SWAP1 SLOAD SWAP1 PUSH2 0x100 EXP SWAP1 DIV PUSH1 0xFF AND SWAP1 POP SWAP3 SWAP2 POP POP JUMP JUMPDEST PUSH0 DUP2 PUSH2 0xAF9 PUSH2 0xC93 JUMP JUMPDEST GT PUSH2 0xB5C JUMPI PUSH0 SLOAD DUP3 LT ISZERO PUSH2 0xB5B JUMPI PUSH0 JUMPDEST PUSH0 PUSH1 0x4 PUSH0 DUP6 DUP2 MSTORE PUSH1 0x20 ADD SWAP1 DUP2 MSTORE PUSH1 0x20 ADD PUSH0 KECCAK256 SLOAD SWAP2 POP DUP2 SUB PUSH2 0xB35 JUMPI DUP3 PUSH2 0xB2E SWAP1 PUSH2 0x175B JUMP JUMPDEST SWAP3 POP PUSH2 0xB09 JUMP JUMPDEST PUSH0 PUSH29 0x100000000000000000000000000000000000000000000000000000000 DUP3 AND EQ SWAP2 POP POP JUMPDEST JUMPDEST SWAP2 SWAP1 POP JUMP JUMPDEST DUP1 PUSH0 MSTORE PUSH1 0x4 PUSH0 REVERT JUMPDEST PUSH0 PUSH2 0xB73 DUP4 PUSH2 0x73C JUMP JUMPDEST SWAP1 POP DUP2 DUP1 ISZERO PUSH2 0xBB5 JUMPI POP DUP1 PUSH20 0xFFFFFFFFFFFFFFFFFFFFFFFFFFFFFFFFFFFFFFFF AND PUSH2 0xB9C PUSH2 0xD9C JUMP JUMPDEST PUSH20 0xFFFFFFFFFFFFFFFFFFFFFFFFFFFFFFFFFFFFFFFF AND EQ ISZERO JUMPDEST ISZERO PUSH2 0xBE1 JUMPI PUSH2 0xBCB DUP2 PUSH2 0xBC6 PUSH2 0xD9C JUMP JUMPDEST PUSH2 0xA61 JUMP JUMPDEST PUSH2 0xBE0 JUMPI PUSH2 0xBDF PUSH4 0xCFB3B942 PUSH1 0xE0 SHL PUSH2 0xB61 JUMP JUMPDEST JUMPDEST JUMPDEST DUP4 PUSH1 0x6 PUSH0 DUP6 DUP2 MSTORE PUSH1 0x20 ADD SWAP1 DUP2 MSTORE PUSH1 0x20 ADD PUSH0 KECCAK256 PUSH0 ADD PUSH0 PUSH2 0x100 EXP DUP2 SLOAD DUP2 PUSH20 0xFFFFFFFFFFFFFFFFFFFFFFFFFFFFFFFFFFFFFFFF MUL NOT AND SWAP1 DUP4 PUSH20 0xFFFFFFFFFFFFFFFFFFFFFFFFFFFFFFFFFFFFFFFF AND MUL OR SWAP1 SSTORE POP DUP3 DUP5 PUSH20 0xFFFFFFFFFFFFFFFFFFFFFFFFFFFFFFFFFFFFFFFF AND DUP3 PUSH20 0xFFFFFFFFFFFFFFFFFFFFFFFFFFFFFFFFFFFFFFFF AND PUSH32 0x8C5BE1E5EBEC7D5BD14F71427D1E84F3DD0314C0F7B2291E5B200AC8C7C3B925 PUSH1 0x40 MLOAD PUSH1 0x40 MLOAD DUP1 SWAP2 SUB SWAP1 LOG4 POP POP POP POP JUMP JUMPDEST PUSH0 SWAP1 JUMP JUMPDEST PUSH0 DUP2 PUSH2 0xCA1 PUSH2 0xC93 JUMP JUMPDEST GT PUSH2 0xD63 JUMPI PUSH1 0x4 PUSH0 DUP4 DUP2 MSTORE PUSH1 0x20 ADD SWAP1 DUP2 MSTORE PUSH1 0x20 ADD PUSH0 KECCAK256 SLOAD SWAP1 POP PUSH0 DUP2 SUB PUSH2 0xD3B JUMPI PUSH0 SLOAD DUP3 LT PUSH2 0xCDA JUMPI PUSH2 0xCD9 PUSH4 0xDF2D9B42 PUSH1 0xE0 SHL PUSH2 0xB61 JUMP JUMPDEST JUMPDEST JUMPDEST PUSH1 0x4 PUSH0 DUP4 PUSH1 0x1 SWAP1 SUB SWAP4 POP DUP4 DUP2 MSTORE PUSH1 0x20 ADD SWAP1 DUP2 MSTORE PUSH1 0x20 ADD PUSH0 KECCAK256 SLOAD SWAP1 POP PUSH0 DUP2 SUB ISZERO PUSH2 0xD36 JUMPI PUSH0 PUSH29 0x100000000000000000000000000000000000000000000000000000000 DUP3 AND SUB ISZERO PUSH2 0xD74 JUMPI PUSH2 0xD35 PUSH4 0xDF2D9B42 PUSH1 0xE0 SHL PUSH2 0xB61 JUMP JUMPDEST JUMPDEST PUSH2 0xCDB JUMP JUMPDEST PUSH0 PUSH29 0x100000000000000000000000000000000000000000000000000000000 DUP3 AND SUB ISZERO PUSH2 0xD74 JUMPI JUMPDEST PUSH2 0xD73 PUSH4 0xDF2D9B42 PUSH1 0xE0 SHL PUSH2 0xB61 JUMP JUMPDEST JUMPDEST SWAP2 SWAP1 POP JUMP JUMPDEST PUSH0 DUP1 PUSH0 PUSH1 0x6 PUSH0 DUP6 DUP2 MSTORE PUSH1 0x20 ADD SWAP1 DUP2 MSTORE PUSH1 0x20 ADD PUSH0 KECCAK256 SWAP1 POP DUP1 SWAP3 POP DUP3 SLOAD SWAP2 POP POP SWAP2 POP SWAP2 JUMP JUMPDEST PUSH0 CALLER SWAP1 POP SWAP1 JUMP JUMPDEST PUSH0 PUSH20 0xFFFFFFFFFFFFFFFFFFFFFFFFFFFFFFFFFFFFFFFF DUP4 AND SWAP3 POP PUSH20 0xFFFFFFFFFFFFFFFFFFFFFFFFFFFFFFFFFFFFFFFF DUP3 AND SWAP2 POP DUP4 DUP3 EQ DUP4 DUP4 EQ OR SWAP1 POP SWAP4 SWAP3 POP POP POP JUMP JUMPDEST POP POP POP POP JUMP JUMPDEST PUSH0 DUP1 PUSH1 0xE8 DUP4 SWAP1 SHR SWAP1 POP PUSH1 0xE8 PUSH2 0xE02 DUP7 DUP7 DUP5 PUSH2 0x10EB JUMP JUMPDEST PUSH3 0xFFFFFF AND SWAP1 SHL SWAP2 POP POP SWAP4 SWAP3 POP POP POP JUMP JUMPDEST PUSH0 PUSH20 0xFFFFFFFFFFFFFFFFFFFFFFFFFFFFFFFFFFFFFFFF DUP4 AND SWAP3 POP TIMESTAMP DUP1 PUSH1 0x60 SHL SWAP1 POP DUP3 DUP2 OR DUP5 OR SWAP2 POP POP SWAP3 SWAP2 POP POP JUMP JUMPDEST POP POP POP POP JUMP JUMPDEST PUSH0 DUP4 PUSH20 0xFFFFFFFFFFFFFFFFFFFFFFFFFFFFFFFFFFFFFFFF AND PUSH4 0x150B7A02 PUSH2 0xE6D PUSH2 0xD9C JUMP JUMPDEST DUP8 DUP7 DUP7 PUSH1 0x40 MLOAD DUP6 PUSH4 0xFFFFFFFF AND PUSH1 0xE0 SHL DUP2 MSTORE PUSH1 0x4 ADD PUSH2 0xE8F SWAP5 SWAP4 SWAP3 SWAP2 SWAP1 PUSH2 0x17D4 JUMP JUMPDEST PUSH1 0x20 PUSH1 0x40 MLOAD DUP1 DUP4 SUB DUP2 PUSH0 DUP8 GAS CALL SWAP3 POP POP POP DUP1 ISZERO PUSH2 0xECA JUMPI POP PUSH1 0x40 MLOAD RETURNDATASIZE PUSH1 0x1F NOT PUSH1 0x1F DUP3 ADD AND DUP3 ADD DUP1 PUSH1 0x40 MSTORE POP DUP2 ADD SWAP1 PUSH2 0xEC7 SWAP2 SWAP1 PUSH2 0x1832 JUMP JUMPDEST PUSH1 0x1 JUMPDEST PUSH2 0xF1F JUMPI RETURNDATASIZE DUP1 PUSH0 DUP2 EQ PUSH2 0xEF8 JUMPI PUSH1 0x40 MLOAD SWAP2 POP PUSH1 0x1F NOT PUSH1 0x3F RETURNDATASIZE ADD AND DUP3 ADD PUSH1 0x40 MSTORE RETURNDATASIZE DUP3 MSTORE RETURNDATASIZE PUSH0 PUSH1 0x20 DUP5 ADD RETURNDATACOPY PUSH2 0xEFD JUMP JUMPDEST PUSH1 0x60 SWAP2 POP JUMPDEST POP PUSH0 DUP2 MLOAD SUB PUSH2 0xF17 JUMPI PUSH2 0xF16 PUSH4 0xD1A57ED6 PUSH1 0xE0 SHL PUSH2 0xB61 JUMP JUMPDEST JUMPDEST DUP1 MLOAD DUP2 PUSH1 0x20 ADD REVERT JUMPDEST PUSH4 0x150B7A02 PUSH1 0xE0 SHL PUSH28 0xFFFFFFFFFFFFFFFFFFFFFFFFFFFFFFFFFFFFFFFFFFFFFFFFFFFFFFFF NOT AND DUP2 PUSH28 0xFFFFFFFFFFFFFFFFFFFFFFFFFFFFFFFFFFFFFFFFFFFFFFFFFFFFFFFF NOT AND EQ SWAP2 POP POP SWAP5 SWAP4 POP POP POP POP JUMP JUMPDEST PUSH1 0x60 PUSH1 0x40 MLOAD DUP1 PUSH1 0x60 ADD PUSH1 0x40 MSTORE DUP1 PUSH1 0x36 DUP2 MSTORE PUSH1 0x20 ADD PUSH2 0x19C5 PUSH1 0x36 SWAP2 CODECOPY SWAP1 POP SWAP1 JUMP JUMPDEST PUSH1 0x60 PUSH0 DUP3 SUB PUSH2 0xFD8 JUMPI PUSH1 0x40 MLOAD DUP1 PUSH1 0x40 ADD PUSH1 0x40 MSTORE DUP1 PUSH1 0x1 DUP2 MSTORE PUSH1 0x20 ADD PUSH32 0x3000000000000000000000000000000000000000000000000000000000000000 DUP2 MSTORE POP SWAP1 POP PUSH2 0x10E6 JUMP JUMPDEST PUSH0 DUP3 SWAP1 POP PUSH0 JUMPDEST PUSH0 DUP3 EQ PUSH2 0x1007 JUMPI DUP1 DUP1 PUSH2 0xFF0 SWAP1 PUSH2 0x185D JUMP JUMPDEST SWAP2 POP POP PUSH1 0xA DUP3 PUSH2 0x1000 SWAP2 SWAP1 PUSH2 0x18D1 JUMP JUMPDEST SWAP2 POP PUSH2 0xFDE JUMP JUMPDEST PUSH0 DUP2 PUSH8 0xFFFFFFFFFFFFFFFF DUP2 GT ISZERO PUSH2 0x1022 JUMPI PUSH2 0x1021 PUSH2 0x1492 JUMP JUMPDEST JUMPDEST PUSH1 0x40 MLOAD SWAP1 DUP1 DUP3 MSTORE DUP1 PUSH1 0x1F ADD PUSH1 0x1F NOT AND PUSH1 0x20 ADD DUP3 ADD PUSH1 0x40 MSTORE DUP1 ISZERO PUSH2 0x1054 JUMPI DUP2 PUSH1 0x20 ADD PUSH1 0x1 DUP3 MUL DUP1 CALLDATASIZE DUP4 CALLDATACOPY DUP1 DUP3 ADD SWAP2 POP POP SWAP1 POP JUMPDEST POP SWAP1 POP JUMPDEST PUSH0 DUP6 EQ PUSH2 0x10DF JUMPI PUSH1 0x1 DUP3 PUSH2 0x106C SWAP2 SWAP1 PUSH2 0x1901 JUMP JUMPDEST SWAP2 POP PUSH1 0xA DUP6 PUSH2 0x107B SWAP2 SWAP1 PUSH2 0x1934 JUMP JUMPDEST PUSH1 0x30 PUSH2 0x1087 SWAP2 SWAP1 PUSH2 0x1964 JUMP JUMPDEST PUSH1 0xF8 SHL DUP2 DUP4 DUP2 MLOAD DUP2 LT PUSH2 0x109D JUMPI PUSH2 0x109C PUSH2 0x1997 JUMP JUMPDEST JUMPDEST PUSH1 0x20 ADD ADD SWAP1 PUSH31 0xFFFFFFFFFFFFFFFFFFFFFFFFFFFFFFFFFFFFFFFFFFFFFFFFFFFFFFFFFFFFFF NOT AND SWAP1 DUP2 PUSH0 BYTE SWAP1 MSTORE8 POP PUSH1 0xA DUP6 PUSH2 0x10D8 SWAP2 SWAP1 PUSH2 0x18D1 JUMP JUMPDEST SWAP5 POP PUSH2 0x1058 JUMP JUMPDEST DUP1 SWAP4 POP POP POP POP JUMPDEST SWAP2 SWAP1 POP JUMP JUMPDEST PUSH0 SWAP4 SWAP3 POP POP POP JUMP JUMPDEST PUSH0 PUSH1 0x40 MLOAD SWAP1 POP SWAP1 JUMP JUMPDEST PUSH0 DUP1 REVERT JUMPDEST PUSH0 DUP1 REVERT JUMPDEST PUSH0 PUSH32 0xFFFFFFFF00000000000000000000000000000000000000000000000000000000 DUP3 AND SWAP1 POP SWAP2 SWAP1 POP JUMP JUMPDEST PUSH2 0x1138 DUP2 PUSH2 0x1104 JUMP JUMPDEST DUP2 EQ PUSH2 0x1142 JUMPI PUSH0 DUP1 REVERT JUMPDEST POP JUMP JUMPDEST PUSH0 DUP2 CALLDATALOAD SWAP1 POP PUSH2 0x1153 DUP2 PUSH2 0x112F JUMP JUMPDEST SWAP3 SWAP2 POP POP JUMP JUMPDEST PUSH0 PUSH1 0x20 DUP3 DUP5 SUB SLT ISZERO PUSH2 0x116E JUMPI PUSH2 0x116D PUSH2 0x10FC JUMP JUMPDEST JUMPDEST PUSH0 PUSH2 0x117B DUP5 DUP3 DUP6 ADD PUSH2 0x1145 JUMP JUMPDEST SWAP2 POP POP SWAP3 SWAP2 POP POP JUMP JUMPDEST PUSH0 DUP2 ISZERO ISZERO SWAP1 POP SWAP2 SWAP1 POP JUMP JUMPDEST PUSH2 0x1198 DUP2 PUSH2 0x1184 JUMP JUMPDEST DUP3 MSTORE POP POP JUMP JUMPDEST PUSH0 PUSH1 0x20 DUP3 ADD SWAP1 POP PUSH2 0x11B1 PUSH0 DUP4 ADD DUP5 PUSH2 0x118F JUMP JUMPDEST SWAP3 SWAP2 POP POP JUMP JUMPDEST PUSH0 DUP2 MLOAD SWAP1 POP SWAP2 SWAP1 POP JUMP JUMPDEST PUSH0 DUP3 DUP3 MSTORE PUSH1 0x20 DUP3 ADD SWAP1 POP SWAP3 SWAP2 POP POP JUMP JUMPDEST PUSH0 JUMPDEST DUP4 DUP2 LT ISZERO PUSH2 0x11EE JUMPI DUP1 DUP3 ADD MLOAD DUP2 DUP5 ADD MSTORE PUSH1 0x20 DUP2 ADD SWAP1 POP PUSH2 0x11D3 JUMP JUMPDEST PUSH0 DUP5 DUP5 ADD MSTORE POP POP POP POP JUMP JUMPDEST PUSH0 PUSH1 0x1F NOT PUSH1 0x1F DUP4 ADD AND SWAP1 POP SWAP2 SWAP1 POP JUMP JUMPDEST PUSH0 PUSH2 0x1213 DUP3 PUSH2 0x11B7 JUMP JUMPDEST PUSH2 0x121D DUP2 DUP6 PUSH2 0x11C1 JUMP JUMPDEST SWAP4 POP PUSH2 0x122D DUP2 DUP6 PUSH1 0x20 DUP7 ADD PUSH2 0x11D1 JUMP JUMPDEST PUSH2 0x1236 DUP2 PUSH2 0x11F9 JUMP JUMPDEST DUP5 ADD SWAP2 POP POP SWAP3 SWAP2 POP POP JUMP JUMPDEST PUSH0 PUSH1 0x20 DUP3 ADD SWAP1 POP DUP2 DUP2 SUB PUSH0 DUP4 ADD MSTORE PUSH2 0x1259 DUP2 DUP5 PUSH2 0x1209 JUMP JUMPDEST SWAP1 POP SWAP3 SWAP2 POP POP JUMP JUMPDEST PUSH0 DUP2 SWAP1 POP SWAP2 SWAP1 POP JUMP JUMPDEST PUSH2 0x1273 DUP2 PUSH2 0x1261 JUMP JUMPDEST DUP2 EQ PUSH2 0x127D JUMPI PUSH0 DUP1 REVERT JUMPDEST POP JUMP JUMPDEST PUSH0 DUP2 CALLDATALOAD SWAP1 POP PUSH2 0x128E DUP2 PUSH2 0x126A JUMP JUMPDEST SWAP3 SWAP2 POP POP JUMP JUMPDEST PUSH0 PUSH1 0x20 DUP3 DUP5 SUB SLT ISZERO PUSH2 0x12A9 JUMPI PUSH2 0x12A8 PUSH2 0x10FC JUMP JUMPDEST JUMPDEST PUSH0 PUSH2 0x12B6 DUP5 DUP3 DUP6 ADD PUSH2 0x1280 JUMP JUMPDEST SWAP2 POP POP SWAP3 SWAP2 POP POP JUMP JUMPDEST PUSH0 PUSH20 0xFFFFFFFFFFFFFFFFFFFFFFFFFFFFFFFFFFFFFFFF DUP3 AND SWAP1 POP SWAP2 SWAP1 POP JUMP JUMPDEST PUSH0 PUSH2 0x12E8 DUP3 PUSH2 0x12BF JUMP JUMPDEST SWAP1 POP SWAP2 SWAP1 POP JUMP JUMPDEST PUSH2 0x12F8 DUP2 PUSH2 0x12DE JUMP JUMPDEST DUP3 MSTORE POP POP JUMP JUMPDEST PUSH0 PUSH1 0x20 DUP3 ADD SWAP1 POP PUSH2 0x1311 PUSH0 DUP4 ADD DUP5 PUSH2 0x12EF JUMP JUMPDEST SWAP3 SWAP2 POP POP JUMP JUMPDEST PUSH2 0x1320 DUP2 PUSH2 0x12DE JUMP JUMPDEST DUP2 EQ PUSH2 0x132A JUMPI PUSH0 DUP1 REVERT JUMPDEST POP JUMP JUMPDEST PUSH0 DUP2 CALLDATALOAD SWAP1 POP PUSH2 0x133B DUP2 PUSH2 0x1317 JUMP JUMPDEST SWAP3 SWAP2 POP POP JUMP JUMPDEST PUSH0 DUP1 PUSH1 0x40 DUP4 DUP6 SUB SLT ISZERO PUSH2 0x1357 JUMPI PUSH2 0x1356 PUSH2 0x10FC JUMP JUMPDEST JUMPDEST PUSH0 PUSH2 0x1364 DUP6 DUP3 DUP7 ADD PUSH2 0x132D JUMP JUMPDEST SWAP3 POP POP PUSH1 0x20 PUSH2 0x1375 DUP6 DUP3 DUP7 ADD PUSH2 0x1280 JUMP JUMPDEST SWAP2 POP POP SWAP3 POP SWAP3 SWAP1 POP JUMP JUMPDEST PUSH2 0x1388 DUP2 PUSH2 0x1261 JUMP JUMPDEST DUP3 MSTORE POP POP JUMP JUMPDEST PUSH0 PUSH1 0x20 DUP3 ADD SWAP1 POP PUSH2 0x13A1 PUSH0 DUP4 ADD DUP5 PUSH2 0x137F JUMP JUMPDEST SWAP3 SWAP2 POP POP JUMP JUMPDEST PUSH0 DUP1 PUSH0 PUSH1 0x60 DUP5 DUP7 SUB SLT ISZERO PUSH2 0x13BE JUMPI PUSH2 0x13BD PUSH2 0x10FC JUMP JUMPDEST JUMPDEST PUSH0 PUSH2 0x13CB DUP7 DUP3 DUP8 ADD PUSH2 0x132D JUMP JUMPDEST SWAP4 POP POP PUSH1 0x20 PUSH2 0x13DC DUP7 DUP3 DUP8 ADD PUSH2 0x132D JUMP JUMPDEST SWAP3 POP POP PUSH1 0x40 PUSH2 0x13ED DUP7 DUP3 DUP8 ADD PUSH2 0x1280 JUMP JUMPDEST SWAP2 POP POP SWAP3 POP SWAP3 POP SWAP3 JUMP JUMPDEST PUSH0 PUSH1 0x20 DUP3 DUP5 SUB SLT ISZERO PUSH2 0x140C JUMPI PUSH2 0x140B PUSH2 0x10FC JUMP JUMPDEST JUMPDEST PUSH0 PUSH2 0x1419 DUP5 DUP3 DUP6 ADD PUSH2 0x132D JUMP JUMPDEST SWAP2 POP POP SWAP3 SWAP2 POP POP JUMP JUMPDEST PUSH2 0x142B DUP2 PUSH2 0x1184 JUMP JUMPDEST DUP2 EQ PUSH2 0x1435 JUMPI PUSH0 DUP1 REVERT JUMPDEST POP JUMP JUMPDEST PUSH0 DUP2 CALLDATALOAD SWAP1 POP PUSH2 0x1446 DUP2 PUSH2 0x1422 JUMP JUMPDEST SWAP3 SWAP2 POP POP JUMP JUMPDEST PUSH0 DUP1 PUSH1 0x40 DUP4 DUP6 SUB SLT ISZERO PUSH2 0x1462 JUMPI PUSH2 0x1461 PUSH2 0x10FC JUMP JUMPDEST JUMPDEST PUSH0 PUSH2 0x146F DUP6 DUP3 DUP7 ADD PUSH2 0x132D JUMP JUMPDEST SWAP3 POP POP PUSH1 0x20 PUSH2 0x1480 DUP6 DUP3 DUP7 ADD PUSH2 0x1438 JUMP JUMPDEST SWAP2 POP POP SWAP3 POP SWAP3 SWAP1 POP JUMP JUMPDEST PUSH0 DUP1 REVERT JUMPDEST PUSH0 DUP1 REVERT JUMPDEST PUSH32 0x4E487B7100000000000000000000000000000000000000000000000000000000 PUSH0 MSTORE PUSH1 0x41 PUSH1 0x4 MSTORE PUSH1 0x24 PUSH0 REVERT JUMPDEST PUSH2 0x14C8 DUP3 PUSH2 0x11F9 JUMP JUMPDEST DUP2 ADD DUP2 DUP2 LT PUSH8 0xFFFFFFFFFFFFFFFF DUP3 GT OR ISZERO PUSH2 0x14E7 JUMPI PUSH2 0x14E6 PUSH2 0x1492 JUMP JUMPDEST JUMPDEST DUP1 PUSH1 0x40 MSTORE POP POP POP JUMP JUMPDEST PUSH0 PUSH2 0x14F9 PUSH2 0x10F3 JUMP JUMPDEST SWAP1 POP PUSH2 0x1505 DUP3 DUP3 PUSH2 0x14BF JUMP JUMPDEST SWAP2 SWAP1 POP JUMP JUMPDEST PUSH0 PUSH8 0xFFFFFFFFFFFFFFFF DUP3 GT ISZERO PUSH2 0x1524 JUMPI PUSH2 0x1523 PUSH2 0x1492 JUMP JUMPDEST JUMPDEST PUSH2 0x152D DUP3 PUSH2 0x11F9 JUMP JUMPDEST SWAP1 POP PUSH1 0x20 DUP2 ADD SWAP1 POP SWAP2 SWAP1 POP JUMP JUMPDEST DUP3 DUP2 DUP4 CALLDATACOPY PUSH0 DUP4 DUP4 ADD MSTORE POP POP POP JUMP JUMPDEST PUSH0 PUSH2 0x155A PUSH2 0x1555 DUP5 PUSH2 0x150A JUMP JUMPDEST PUSH2 0x14F0 JUMP JUMPDEST SWAP1 POP DUP3 DUP2 MSTORE PUSH1 0x20 DUP2 ADD DUP5 DUP5 DUP5 ADD GT ISZERO PUSH2 0x1576 JUMPI PUSH2 0x1575 PUSH2 0x148E JUMP JUMPDEST JUMPDEST PUSH2 0x1581 DUP5 DUP3 DUP6 PUSH2 0x153A JUMP JUMPDEST POP SWAP4 SWAP3 POP POP POP JUMP JUMPDEST PUSH0 DUP3 PUSH1 0x1F DUP4 ADD SLT PUSH2 0x159D JUMPI PUSH2 0x159C PUSH2 0x148A JUMP JUMPDEST JUMPDEST DUP2 CALLDATALOAD PUSH2 0x15AD DUP5 DUP3 PUSH1 0x20 DUP7 ADD PUSH2 0x1548 JUMP JUMPDEST SWAP2 POP POP SWAP3 SWAP2 POP POP JUMP JUMPDEST PUSH0 DUP1 PUSH0 DUP1 PUSH1 0x80 DUP6 DUP8 SUB SLT ISZERO PUSH2 0x15CE JUMPI PUSH2 0x15CD PUSH2 0x10FC JUMP JUMPDEST JUMPDEST PUSH0 PUSH2 0x15DB DUP8 DUP3 DUP9 ADD PUSH2 0x132D JUMP JUMPDEST SWAP5 POP POP PUSH1 0x20 PUSH2 0x15EC DUP8 DUP3 DUP9 ADD PUSH2 0x132D JUMP JUMPDEST SWAP4 POP POP PUSH1 0x40 PUSH2 0x15FD DUP8 DUP3 DUP9 ADD PUSH2 0x1280 JUMP JUMPDEST SWAP3 POP POP PUSH1 0x60 DUP6 ADD CALLDATALOAD PUSH8 0xFFFFFFFFFFFFFFFF DUP2 GT ISZERO PUSH2 0x161E JUMPI PUSH2 0x161D PUSH2 0x1100 JUMP JUMPDEST JUMPDEST PUSH2 0x162A DUP8 DUP3 DUP9 ADD PUSH2 0x1589 JUMP JUMPDEST SWAP2 POP POP SWAP3 SWAP6 SWAP2 SWAP5 POP SWAP3 POP JUMP JUMPDEST PUSH0 DUP1 PUSH1 0x40 DUP4 DUP6 SUB SLT ISZERO PUSH2 0x164C JUMPI PUSH2 0x164B PUSH2 0x10FC JUMP JUMPDEST JUMPDEST PUSH0 PUSH2 0x1659 DUP6 DUP3 DUP7 ADD PUSH2 0x132D JUMP JUMPDEST SWAP3 POP POP PUSH1 0x20 PUSH2 0x166A DUP6 DUP3 DUP7 ADD PUSH2 0x132D JUMP JUMPDEST SWAP2 POP POP SWAP3 POP SWAP3 SWAP1 POP JUMP JUMPDEST PUSH32 0x4E487B7100000000000000000000000000000000000000000000000000000000 PUSH0 MSTORE PUSH1 0x22 PUSH1 0x4 MSTORE PUSH1 0x24 PUSH0 REVERT JUMPDEST PUSH0 PUSH1 0x2 DUP3 DIV SWAP1 POP PUSH1 0x1 DUP3 AND DUP1 PUSH2 0x16B8 JUMPI PUSH1 0x7F DUP3 AND SWAP2 POP JUMPDEST PUSH1 0x20 DUP3 LT DUP2 SUB PUSH2 0x16CB JUMPI PUSH2 0x16CA PUSH2 0x1674 JUMP JUMPDEST JUMPDEST POP SWAP2 SWAP1 POP JUMP JUMPDEST PUSH0 DUP2 SWAP1 POP SWAP3 SWAP2 POP POP JUMP JUMPDEST PUSH0 PUSH2 0x16E5 DUP3 PUSH2 0x11B7 JUMP JUMPDEST PUSH2 0x16EF DUP2 DUP6 PUSH2 0x16D1 JUMP JUMPDEST SWAP4 POP PUSH2 0x16FF DUP2 DUP6 PUSH1 0x20 DUP7 ADD PUSH2 0x11D1 JUMP JUMPDEST DUP1 DUP5 ADD SWAP2 POP POP SWAP3 SWAP2 POP POP JUMP JUMPDEST PUSH0 PUSH2 0x1716 DUP3 DUP6 PUSH2 0x16DB JUMP JUMPDEST SWAP2 POP PUSH2 0x1722 DUP3 DUP5 PUSH2 0x16DB JUMP JUMPDEST SWAP2 POP DUP2 SWAP1 POP SWAP4 SWAP3 POP POP POP JUMP JUMPDEST PUSH32 0x4E487B7100000000000000000000000000000000000000000000000000000000 PUSH0 MSTORE PUSH1 0x11 PUSH1 0x4 MSTORE PUSH1 0x24 PUSH0 REVERT JUMPDEST PUSH0 PUSH2 0x1765 DUP3 PUSH2 0x1261 JUMP JUMPDEST SWAP2 POP PUSH0 DUP3 SUB PUSH2 0x1777 JUMPI PUSH2 0x1776 PUSH2 0x172E JUMP JUMPDEST JUMPDEST PUSH1 0x1 DUP3 SUB SWAP1 POP SWAP2 SWAP1 POP JUMP JUMPDEST PUSH0 DUP2 MLOAD SWAP1 POP SWAP2 SWAP1 POP JUMP JUMPDEST PUSH0 DUP3 DUP3 MSTORE PUSH1 0x20 DUP3 ADD SWAP1 POP SWAP3 SWAP2 POP POP JUMP JUMPDEST PUSH0 PUSH2 0x17A6 DUP3 PUSH2 0x1782 JUMP JUMPDEST PUSH2 0x17B0 DUP2 DUP6 PUSH2 0x178C JUMP JUMPDEST SWAP4 POP PUSH2 0x17C0 DUP2 DUP6 PUSH1 0x20 DUP7 ADD PUSH2 0x11D1 JUMP JUMPDEST PUSH2 0x17C9 DUP2 PUSH2 0x11F9 JUMP JUMPDEST DUP5 ADD SWAP2 POP POP SWAP3 SWAP2 POP POP JUMP JUMPDEST PUSH0 PUSH1 0x80 DUP3 ADD SWAP1 POP PUSH2 0x17E7 PUSH0 DUP4 ADD DUP8 PUSH2 0x12EF JUMP JUMPDEST PUSH2 0x17F4 PUSH1 0x20 DUP4 ADD DUP7 PUSH2 0x12EF JUMP JUMPDEST PUSH2 0x1801 PUSH1 0x40 DUP4 ADD DUP6 PUSH2 0x137F JUMP JUMPDEST DUP2 DUP2 SUB PUSH1 0x60 DUP4 ADD MSTORE PUSH2 0x1813 DUP2 DUP5 PUSH2 0x179C JUMP JUMPDEST SWAP1 POP SWAP6 SWAP5 POP POP POP POP POP JUMP JUMPDEST PUSH0 DUP2 MLOAD SWAP1 POP PUSH2 0x182C DUP2 PUSH2 0x112F JUMP JUMPDEST SWAP3 SWAP2 POP POP JUMP JUMPDEST PUSH0 PUSH1 0x20 DUP3 DUP5 SUB SLT ISZERO PUSH2 0x1847 JUMPI PUSH2 0x1846 PUSH2 0x10FC JUMP JUMPDEST JUMPDEST PUSH0 PUSH2 0x1854 DUP5 DUP3 DUP6 ADD PUSH2 0x181E JUMP JUMPDEST SWAP2 POP POP SWAP3 SWAP2 POP POP JUMP JUMPDEST PUSH0 PUSH2 0x1867 DUP3 PUSH2 0x1261 JUMP JUMPDEST SWAP2 POP PUSH32 0xFFFFFFFFFFFFFFFFFFFFFFFFFFFFFFFFFFFFFFFFFFFFFFFFFFFFFFFFFFFFFFFF DUP3 SUB PUSH2 0x1899 JUMPI PUSH2 0x1898 PUSH2 0x172E JUMP JUMPDEST JUMPDEST PUSH1 0x1 DUP3 ADD SWAP1 POP SWAP2 SWAP1 POP JUMP JUMPDEST PUSH32 0x4E487B7100000000000000000000000000000000000000000000000000000000 PUSH0 MSTORE PUSH1 0x12 PUSH1 0x4 MSTORE PUSH1 0x24 PUSH0 REVERT JUMPDEST PUSH0 PUSH2 0x18DB DUP3 PUSH2 0x1261 JUMP JUMPDEST SWAP2 POP PUSH2 0x18E6 DUP4 PUSH2 0x1261 JUMP JUMPDEST SWAP3 POP DUP3 PUSH2 0x18F6 JUMPI PUSH2 0x18F5 PUSH2 0x18A4 JUMP JUMPDEST JUMPDEST DUP3 DUP3 DIV SWAP1 POP SWAP3 SWAP2 POP POP JUMP JUMPDEST PUSH0 PUSH2 0x190B DUP3 PUSH2 0x1261 JUMP JUMPDEST SWAP2 POP PUSH2 0x1916 DUP4 PUSH2 0x1261 JUMP JUMPDEST SWAP3 POP DUP3 DUP3 SUB SWAP1 POP DUP2 DUP2 GT ISZERO PUSH2 0x192E JUMPI PUSH2 0x192D PUSH2 0x172E JUMP JUMPDEST JUMPDEST SWAP3 SWAP2 POP POP JUMP JUMPDEST PUSH0 PUSH2 0x193E DUP3 PUSH2 0x1261 JUMP JUMPDEST SWAP2 POP PUSH2 0x1949 DUP4 PUSH2 0x1261 JUMP JUMPDEST SWAP3 POP DUP3 PUSH2 0x1959 JUMPI PUSH2 0x1958 PUSH2 0x18A4 JUMP JUMPDEST JUMPDEST DUP3 DUP3 MOD SWAP1 POP SWAP3 SWAP2 POP POP JUMP JUMPDEST PUSH0 PUSH2 0x196E DUP3 PUSH2 0x1261 JUMP JUMPDEST SWAP2 POP PUSH2 0x1979 DUP4 PUSH2 0x1261 JUMP JUMPDEST SWAP3 POP DUP3 DUP3 ADD SWAP1 POP DUP1 DUP3 GT ISZERO PUSH2 0x1991 JUMPI PUSH2 0x1990 PUSH2 0x172E JUMP JUMPDEST JUMPDEST SWAP3 SWAP2 POP POP JUMP JUMPDEST PUSH32 0x4E487B7100000000000000000000000000000000000000000000000000000000 PUSH0 MSTORE PUSH1 0x32 PUSH1 0x4 MSTORE PUSH1 0x24 PUSH0 REVERT INVALID PUSH10 0x7066733A2F2F516D6163 CODESIZE CODECOPY PUSH20 0x5A545347764B6B795961327672786452616B5052 GASLIMIT PUSH2 0x4746 0x4A MSTORE8 0x4E 0x4A MSTORE MSTORE JUMPI PUSH6 0x747A544C5154 0x4D 0x2F LOG2 PUSH5 0x6970667358 0x22 SLT KECCAK256 BLOCKHASH KECCAK256 0x24 0x4D 0xB0 0xB0 DUP5 0xF9 SWAP1 0xD2 0xB8 PUSH31 0x2AFAA661AA1739269A964A1ABB8EAAB42D9BF2664736F6C63430008150033 "
				},
				"gasEstimates": {
					"creation": {
						"codeDepositCost": "1340800",
						"executionCost": "infinite",
						"totalCost": "infinite"
					},
					"external": {
						"approve(address,uint256)": "infinite",
						"balanceOf(address)": "2893",
						"getApproved(uint256)": "infinite",
						"isApprovedForAll(address,address)": "infinite",
						"name()": "infinite",
						"ownerOf(uint256)": "infinite",
						"safetransferfrom(address,address,uint256)": "infinite",
						"safetransferfrom(address,address,uint256,bytes)": "infinite",
						"setApprovalForAll(address,bool)": "infinite",
						"supportsInterface(bytes4)": "736",
						"symbol()": "infinite",
						"tokenURI(uint256)": "infinite",
						"totalSupply()": "4614",
						"transferFrom(address,address,uint256)": "infinite"
					},
					"internal": {
						"_afterTokenTransfers(address,address,uint256,uint256)": "17",
						"_approve(address,uint256,bool)": "infinite",
						"_baseURI()": "infinite",
						"_beforeTokenTransfers(address,address,uint256,uint256)": "17",
						"_checkContractOnERC721Received(address,address,uint256,bytes memory)": "infinite",
						"_exists(uint256)": "infinite",
						"_extraData(address,address,uint24)": "23",
						"_getApprovedSlotAndAddress(uint256)": "2232",
						"_isSenderApprovedOrOwner(address,address,address)": "77",
						"_mint(address,uint256)": "infinite",
						"_msgSenderERC721A()": "21",
						"_nextExtraData(address,address,uint256)": "112",
						"_nextInitializedFlag(uint256)": "infinite",
						"_packOwnershipData(address,uint256)": "73",
						"_packedOwnershipOf(uint256)": "infinite",
						"_revert(bytes4)": "17",
						"_safeMint(address,uint256)": "infinite",
						"_safeMint(address,uint256,bytes memory)": "infinite",
						"_startTokenId()": "14",
						"toString(uint256)": "infinite"
					}
				},
				"methodIdentifiers": {
					"approve(address,uint256)": "095ea7b3",
					"balanceOf(address)": "70a08231",
					"getApproved(uint256)": "081812fc",
					"isApprovedForAll(address,address)": "e985e9c5",
					"name()": "06fdde03",
					"ownerOf(uint256)": "6352211e",
					"safetransferfrom(address,address,uint256)": "d94b34b6",
					"safetransferfrom(address,address,uint256,bytes)": "c772ded1",
					"setApprovalForAll(address,bool)": "a22cb465",
					"supportsInterface(bytes4)": "01ffc9a7",
					"symbol()": "95d89b41",
					"tokenURI(uint256)": "c87b56dd",
					"totalSupply()": "18160ddd",
					"transferFrom(address,address,uint256)": "23b872dd"
				}
			},
			"storageLayout": {
				"storage": [
					{
						"astId": 452,
						"contract": "erc721A.sol:ERC721A",
						"label": "_currentIndex",
						"offset": 0,
						"slot": "0",
						"type": "t_uint256"
					},
					{
						"astId": 454,
						"contract": "erc721A.sol:ERC721A",
						"label": "_burnCounter",
						"offset": 0,
						"slot": "1",
						"type": "t_uint256"
					},
					{
						"astId": 456,
						"contract": "erc721A.sol:ERC721A",
						"label": "_name",
						"offset": 0,
						"slot": "2",
						"type": "t_string_storage"
					},
					{
						"astId": 458,
						"contract": "erc721A.sol:ERC721A",
						"label": "_symbol",
						"offset": 0,
						"slot": "3",
						"type": "t_string_storage"
					},
					{
						"astId": 462,
						"contract": "erc721A.sol:ERC721A",
						"label": "_packedOwnerships",
						"offset": 0,
						"slot": "4",
						"type": "t_mapping(t_uint256,t_uint256)"
					},
					{
						"astId": 466,
						"contract": "erc721A.sol:ERC721A",
						"label": "_packedAddressData",
						"offset": 0,
						"slot": "5",
						"type": "t_mapping(t_address,t_uint256)"
					},
					{
						"astId": 471,
						"contract": "erc721A.sol:ERC721A",
						"label": "_tokenApprovals",
						"offset": 0,
						"slot": "6",
						"type": "t_mapping(t_uint256,t_struct(TokenApprovalRef)384_storage)"
					},
					{
						"astId": 477,
						"contract": "erc721A.sol:ERC721A",
						"label": "_operatorApprovals",
						"offset": 0,
						"slot": "7",
						"type": "t_mapping(t_address,t_mapping(t_address,t_bool))"
					}
				],
				"types": {
					"t_address": {
						"encoding": "inplace",
						"label": "address",
						"numberOfBytes": "20"
					},
					"t_bool": {
						"encoding": "inplace",
						"label": "bool",
						"numberOfBytes": "1"
					},
					"t_mapping(t_address,t_bool)": {
						"encoding": "mapping",
						"key": "t_address",
						"label": "mapping(address => bool)",
						"numberOfBytes": "32",
						"value": "t_bool"
					},
					"t_mapping(t_address,t_mapping(t_address,t_bool))": {
						"encoding": "mapping",
						"key": "t_address",
						"label": "mapping(address => mapping(address => bool))",
						"numberOfBytes": "32",
						"value": "t_mapping(t_address,t_bool)"
					},
					"t_mapping(t_address,t_uint256)": {
						"encoding": "mapping",
						"key": "t_address",
						"label": "mapping(address => uint256)",
						"numberOfBytes": "32",
						"value": "t_uint256"
					},
					"t_mapping(t_uint256,t_struct(TokenApprovalRef)384_storage)": {
						"encoding": "mapping",
						"key": "t_uint256",
						"label": "mapping(uint256 => struct ERC721A.TokenApprovalRef)",
						"numberOfBytes": "32",
						"value": "t_struct(TokenApprovalRef)384_storage"
					},
					"t_mapping(t_uint256,t_uint256)": {
						"encoding": "mapping",
						"key": "t_uint256",
						"label": "mapping(uint256 => uint256)",
						"numberOfBytes": "32",
						"value": "t_uint256"
					},
					"t_string_storage": {
						"encoding": "bytes",
						"label": "string",
						"numberOfBytes": "32"
					},
					"t_struct(TokenApprovalRef)384_storage": {
						"encoding": "inplace",
						"label": "struct ERC721A.TokenApprovalRef",
						"members": [
							{
								"astId": 383,
								"contract": "erc721A.sol:ERC721A",
								"label": "value",
								"offset": 0,
								"slot": "0",
								"type": "t_address"
							}
						],
						"numberOfBytes": "32"
					},
					"t_uint256": {
						"encoding": "inplace",
						"label": "uint256",
						"numberOfBytes": "32"
					}
				}
			},
			"userdoc": {
				"errors": {
					"ApprovalCallerNotOwnerNorApproved()": [
						{
							"notice": "The caller must own the token or be an approved operator."
						}
					],
					"ApprovalQueryForNonexistentToken()": [
						{
							"notice": "The token does not exist."
						}
					],
					"BalanceQueryForZeroAddress()": [
						{
							"notice": "Cannot query the balance for the zero address."
						}
					],
					"MintERC2309QuantityExceedsLimit()": [
						{
							"notice": "The `quantity` minted with ERC2309 exceeds the safety limit."
						}
					],
					"MintToZeroAddress()": [
						{
							"notice": "Cannot mint to the zero address."
						}
					],
					"MintZeroQuantity()": [
						{
							"notice": "The quantity of tokens minted must be more than zero."
						}
					],
					"OwnerQueryForNonexistentToken()": [
						{
							"notice": "The token does not exist."
						}
					],
					"OwnershipNotInitializedForExtraData()": [
						{
							"notice": "The `extraData` cannot be set on an unintialized ownership slot."
						}
					],
					"TransferCallerNotOwnerNorApproved()": [
						{
							"notice": "The caller must own the token or be an approved operator."
						}
					],
					"TransferFromIncorrectOwner()": [
						{
							"notice": "The token must be owned by `from`."
						}
					],
					"TransferToNonERC721ReceiverImplementer()": [
						{
							"notice": "Cannot safely transfer to a contract that does not implement the ERC721Receiver interface."
						}
					],
					"TransferToZeroAddress()": [
						{
							"notice": "Cannot transfer to the zero address."
						}
					],
					"URIQueryForNonexistentToken()": [
						{
							"notice": "The token does not exist."
						}
					]
				},
				"kind": "user",
				"methods": {},
				"version": 1
			}
		}
	}
}