{
	"Contract/re.sol": {
		"StakingRewards": {
			"abi": [
				{
					"inputs": [
						{
							"internalType": "address",
							"name": "_stakingToken",
							"type": "address"
						},
						{
							"internalType": "address",
							"name": "_rewardToken",
							"type": "address"
						}
					],
					"stateMutability": "nonpayable",
					"type": "constructor"
				},
				{
					"inputs": [
						{
							"internalType": "address",
							"name": "",
							"type": "address"
						}
					],
					"name": "balanceOf",
					"outputs": [
						{
							"internalType": "uint256",
							"name": "",
							"type": "uint256"
						}
					],
					"stateMutability": "view",
					"type": "function"
				},
				{
					"inputs": [],
					"name": "duration",
					"outputs": [
						{
							"internalType": "uint256",
							"name": "",
							"type": "uint256"
						}
					],
					"stateMutability": "view",
					"type": "function"
				},
				{
					"inputs": [
						{
							"internalType": "address",
							"name": "_account",
							"type": "address"
						}
					],
					"name": "earned",
					"outputs": [
						{
							"internalType": "uint256",
							"name": "",
							"type": "uint256"
						}
					],
					"stateMutability": "view",
					"type": "function"
				},
				{
					"inputs": [],
					"name": "finishAt",
					"outputs": [
						{
							"internalType": "uint256",
							"name": "",
							"type": "uint256"
						}
					],
					"stateMutability": "view",
					"type": "function"
				},
				{
					"inputs": [],
					"name": "getReward",
					"outputs": [],
					"stateMutability": "nonpayable",
					"type": "function"
				},
				{
					"inputs": [],
					"name": "lastTimeRewardApplicable",
					"outputs": [
						{
							"internalType": "uint256",
							"name": "",
							"type": "uint256"
						}
					],
					"stateMutability": "view",
					"type": "function"
				},
				{
					"inputs": [
						{
							"internalType": "uint256",
							"name": "_amount",
							"type": "uint256"
						}
					],
					"name": "notifyRewardAmount",
					"outputs": [],
					"stateMutability": "nonpayable",
					"type": "function"
				},
				{
					"inputs": [],
					"name": "owner",
					"outputs": [
						{
							"internalType": "address",
							"name": "",
							"type": "address"
						}
					],
					"stateMutability": "view",
					"type": "function"
				},
				{
					"inputs": [],
					"name": "rewardPerToken",
					"outputs": [
						{
							"internalType": "uint256",
							"name": "",
							"type": "uint256"
						}
					],
					"stateMutability": "view",
					"type": "function"
				},
				{
					"inputs": [],
					"name": "rewardPerTokenStored",
					"outputs": [
						{
							"internalType": "uint256",
							"name": "",
							"type": "uint256"
						}
					],
					"stateMutability": "view",
					"type": "function"
				},
				{
					"inputs": [],
					"name": "rewardRate",
					"outputs": [
						{
							"internalType": "uint256",
							"name": "",
							"type": "uint256"
						}
					],
					"stateMutability": "view",
					"type": "function"
				},
				{
					"inputs": [
						{
							"internalType": "address",
							"name": "",
							"type": "address"
						}
					],
					"name": "rewards",
					"outputs": [
						{
							"internalType": "uint256",
							"name": "",
							"type": "uint256"
						}
					],
					"stateMutability": "view",
					"type": "function"
				},
				{
					"inputs": [],
					"name": "rewardsToken",
					"outputs": [
						{
							"internalType": "contract IERC20",
							"name": "",
							"type": "address"
						}
					],
					"stateMutability": "view",
					"type": "function"
				},
				{
					"inputs": [
						{
							"internalType": "uint256",
							"name": "_duration",
							"type": "uint256"
						}
					],
					"name": "setRewardsDuration",
					"outputs": [],
					"stateMutability": "nonpayable",
					"type": "function"
				},
				{
					"inputs": [
						{
							"internalType": "uint256",
							"name": "_amount",
							"type": "uint256"
						}
					],
					"name": "stake",
					"outputs": [],
					"stateMutability": "nonpayable",
					"type": "function"
				},
				{
					"inputs": [],
					"name": "stakingToken",
					"outputs": [
						{
							"internalType": "contract IERC20",
							"name": "",
							"type": "address"
						}
					],
					"stateMutability": "view",
					"type": "function"
				},
				{
					"inputs": [],
					"name": "totalSupply",
					"outputs": [
						{
							"internalType": "uint256",
							"name": "",
							"type": "uint256"
						}
					],
					"stateMutability": "view",
					"type": "function"
				},
				{
					"inputs": [],
					"name": "updatedAt",
					"outputs": [
						{
							"internalType": "uint256",
							"name": "",
							"type": "uint256"
						}
					],
					"stateMutability": "view",
					"type": "function"
				},
				{
					"inputs": [
						{
							"internalType": "address",
							"name": "",
							"type": "address"
						}
					],
					"name": "userRewardPerTokenPaid",
					"outputs": [
						{
							"internalType": "uint256",
							"name": "",
							"type": "uint256"
						}
					],
					"stateMutability": "view",
					"type": "function"
				},
				{
					"inputs": [
						{
							"internalType": "uint256",
							"name": "_amount",
							"type": "uint256"
						}
					],
					"name": "withdraw",
					"outputs": [],
					"stateMutability": "nonpayable",
					"type": "function"
				}
			],
			"devdoc": {
				"kind": "dev",
				"methods": {},
				"version": 1
			},
			"evm": {
				"assembly": "    /* \"Contract/re.sol\":175:3777  contract StakingRewards {... */\n  mstore(0x40, 0xc0)\n    /* \"Contract/re.sol\":712:899  constructor(address _stakingToken, address _rewardToken) {... */\n  callvalue\n  dup1\n  iszero\n  tag_1\n  jumpi\n  0x00\n  dup1\n  revert\ntag_1:\n  pop\n  mload(0x40)\n  sub(codesize, bytecodeSize)\n  dup1\n  bytecodeSize\n  dup4\n  codecopy\n  dup2\n  dup2\n  add\n  0x40\n  mstore\n  dup2\n  add\n  swap1\n  tag_2\n  swap2\n  swap1\n  tag_3\n  jump\t// in\ntag_2:\n    /* \"Contract/re.sol\":788:798  msg.sender */\n  caller\n    /* \"Contract/re.sol\":780:785  owner */\n  0x00\n  dup1\n    /* \"Contract/re.sol\":780:798  owner = msg.sender */\n  0x0100\n  exp\n  dup2\n  sload\n  dup2\n  0xffffffffffffffffffffffffffffffffffffffff\n  mul\n  not\n  and\n  swap1\n  dup4\n  0xffffffffffffffffffffffffffffffffffffffff\n  and\n  mul\n  or\n  swap1\n  sstore\n  pop\n    /* \"Contract/re.sol\":831:844  _stakingToken */\n  dup2\n    /* \"Contract/re.sol\":809:845  stakingToken = IERC20(_stakingToken) */\n  0xffffffffffffffffffffffffffffffffffffffff\n  and\n  0x80\n  dup2\n  0xffffffffffffffffffffffffffffffffffffffff\n  and\n  dup2\n  mstore\n  pop\n  pop\n    /* \"Contract/re.sol\":878:890  _rewardToken */\n  dup1\n    /* \"Contract/re.sol\":856:891  rewardsToken = IERC20(_rewardToken) */\n  0xffffffffffffffffffffffffffffffffffffffff\n  and\n  0xa0\n  dup2\n  0xffffffffffffffffffffffffffffffffffffffff\n  and\n  dup2\n  mstore\n  pop\n  pop\n    /* \"Contract/re.sol\":712:899  constructor(address _stakingToken, address _rewardToken) {... */\n  pop\n  pop\n    /* \"Contract/re.sol\":175:3777  contract StakingRewards {... */\n  jump(tag_6)\n    /* \"#utility.yul\":88:205   */\ntag_8:\n    /* \"#utility.yul\":197:198   */\n  0x00\n    /* \"#utility.yul\":194:195   */\n  dup1\n    /* \"#utility.yul\":187:199   */\n  revert\n    /* \"#utility.yul\":334:460   */\ntag_10:\n    /* \"#utility.yul\":371:378   */\n  0x00\n    /* \"#utility.yul\":411:453   */\n  0xffffffffffffffffffffffffffffffffffffffff\n    /* \"#utility.yul\":404:409   */\n  dup3\n    /* \"#utility.yul\":400:454   */\n  and\n    /* \"#utility.yul\":389:454   */\n  swap1\n  pop\n    /* \"#utility.yul\":334:460   */\n  swap2\n  swap1\n  pop\n  jump\t// out\n    /* \"#utility.yul\":466:562   */\ntag_11:\n    /* \"#utility.yul\":503:510   */\n  0x00\n    /* \"#utility.yul\":532:556   */\n  tag_20\n    /* \"#utility.yul\":550:555   */\n  dup3\n    /* \"#utility.yul\":532:556   */\n  tag_10\n  jump\t// in\ntag_20:\n    /* \"#utility.yul\":521:556   */\n  swap1\n  pop\n    /* \"#utility.yul\":466:562   */\n  swap2\n  swap1\n  pop\n  jump\t// out\n    /* \"#utility.yul\":568:690   */\ntag_12:\n    /* \"#utility.yul\":641:665   */\n  tag_22\n    /* \"#utility.yul\":659:664   */\n  dup2\n    /* \"#utility.yul\":641:665   */\n  tag_11\n  jump\t// in\ntag_22:\n    /* \"#utility.yul\":634:639   */\n  dup2\n    /* \"#utility.yul\":631:666   */\n  eq\n    /* \"#utility.yul\":621:684   */\n  tag_23\n  jumpi\n    /* \"#utility.yul\":680:681   */\n  0x00\n    /* \"#utility.yul\":677:678   */\n  dup1\n    /* \"#utility.yul\":670:682   */\n  revert\n    /* \"#utility.yul\":621:684   */\ntag_23:\n    /* \"#utility.yul\":568:690   */\n  pop\n  jump\t// out\n    /* \"#utility.yul\":696:839   */\ntag_13:\n    /* \"#utility.yul\":753:758   */\n  0x00\n    /* \"#utility.yul\":784:790   */\n  dup2\n    /* \"#utility.yul\":778:791   */\n  mload\n    /* \"#utility.yul\":769:791   */\n  swap1\n  pop\n    /* \"#utility.yul\":800:833   */\n  tag_25\n    /* \"#utility.yul\":827:832   */\n  dup2\n    /* \"#utility.yul\":800:833   */\n  tag_12\n  jump\t// in\ntag_25:\n    /* \"#utility.yul\":696:839   */\n  swap3\n  swap2\n  pop\n  pop\n  jump\t// out\n    /* \"#utility.yul\":845:1352   */\ntag_3:\n    /* \"#utility.yul\":924:930   */\n  0x00\n    /* \"#utility.yul\":932:938   */\n  dup1\n    /* \"#utility.yul\":981:983   */\n  0x40\n    /* \"#utility.yul\":969:978   */\n  dup4\n    /* \"#utility.yul\":960:967   */\n  dup6\n    /* \"#utility.yul\":956:979   */\n  sub\n    /* \"#utility.yul\":952:984   */\n  slt\n    /* \"#utility.yul\":949:1068   */\n  iszero\n  tag_27\n  jumpi\n    /* \"#utility.yul\":987:1066   */\n  tag_28\n  tag_8\n  jump\t// in\ntag_28:\n    /* \"#utility.yul\":949:1068   */\ntag_27:\n    /* \"#utility.yul\":1107:1108   */\n  0x00\n    /* \"#utility.yul\":1132:1196   */\n  tag_29\n    /* \"#utility.yul\":1188:1195   */\n  dup6\n    /* \"#utility.yul\":1179:1185   */\n  dup3\n    /* \"#utility.yul\":1168:1177   */\n  dup7\n    /* \"#utility.yul\":1164:1186   */\n  add\n    /* \"#utility.yul\":1132:1196   */\n  tag_13\n  jump\t// in\ntag_29:\n    /* \"#utility.yul\":1122:1196   */\n  swap3\n  pop\n    /* \"#utility.yul\":1078:1206   */\n  pop\n    /* \"#utility.yul\":1245:1247   */\n  0x20\n    /* \"#utility.yul\":1271:1335   */\n  tag_30\n    /* \"#utility.yul\":1327:1334   */\n  dup6\n    /* \"#utility.yul\":1318:1324   */\n  dup3\n    /* \"#utility.yul\":1307:1316   */\n  dup7\n    /* \"#utility.yul\":1303:1325   */\n  add\n    /* \"#utility.yul\":1271:1335   */\n  tag_13\n  jump\t// in\ntag_30:\n    /* \"#utility.yul\":1261:1335   */\n  swap2\n  pop\n    /* \"#utility.yul\":1216:1345   */\n  pop\n    /* \"#utility.yul\":845:1352   */\n  swap3\n  pop\n  swap3\n  swap1\n  pop\n  jump\t// out\n    /* \"Contract/re.sol\":175:3777  contract StakingRewards {... */\ntag_6:\n  mload(0x80)\n  mload(0xa0)\n  codecopy(0x00, dataOffset(sub_0), dataSize(sub_0))\n  0x00\n  assignImmutable(\"0xcfe93e00cbaaf37bad5f0b2ff3ab98072b4f3a2656e148b3bcccb553f2fa678f\")\n  0x00\n  assignImmutable(\"0x26a975632f70533c9512e57b565b8ce8e2befee6b08dfbc27c4a897a20e2c1d6\")\n  return(0x00, dataSize(sub_0))\nstop\n\nsub_0: assembly {\n        /* \"Contract/re.sol\":175:3777  contract StakingRewards {... */\n      mstore(0x40, 0x80)\n      callvalue\n      dup1\n      iszero\n      tag_1\n      jumpi\n      0x00\n      dup1\n      revert\n    tag_1:\n      pop\n      jumpi(tag_2, lt(calldatasize, 0x04))\n      shr(0xe0, calldataload(0x00))\n      dup1\n      0x7519ab50\n      gt\n      tag_23\n      jumpi\n      dup1\n      0xa694fc3a\n      gt\n      tag_24\n      jumpi\n      dup1\n      0xa694fc3a\n      eq\n      tag_18\n      jumpi\n      dup1\n      0xcc1a378f\n      eq\n      tag_19\n      jumpi\n      dup1\n      0xcd3daf9d\n      eq\n      tag_20\n      jumpi\n      dup1\n      0xd1af0c7d\n      eq\n      tag_21\n      jumpi\n      dup1\n      0xdf136d65\n      eq\n      tag_22\n      jumpi\n      jump(tag_2)\n    tag_24:\n      dup1\n      0x7519ab50\n      eq\n      tag_13\n      jumpi\n      dup1\n      0x7b0a47ee\n      eq\n      tag_14\n      jumpi\n      dup1\n      0x80faa57d\n      eq\n      tag_15\n      jumpi\n      dup1\n      0x8b876347\n      eq\n      tag_16\n      jumpi\n      dup1\n      0x8da5cb5b\n      eq\n      tag_17\n      jumpi\n      jump(tag_2)\n    tag_23:\n      dup1\n      0x3c6b16ab\n      gt\n      tag_25\n      jumpi\n      dup1\n      0x3c6b16ab\n      eq\n      tag_8\n      jumpi\n      dup1\n      0x3d18b912\n      eq\n      tag_9\n      jumpi\n      dup1\n      0x67d3b488\n      eq\n      tag_10\n      jumpi\n      dup1\n      0x70a08231\n      eq\n      tag_11\n      jumpi\n      dup1\n      0x72f702f3\n      eq\n      tag_12\n      jumpi\n      jump(tag_2)\n    tag_25:\n      dup1\n      0x8cc262\n      eq\n      tag_3\n      jumpi\n      dup1\n      0x0700037d\n      eq\n      tag_4\n      jumpi\n      dup1\n      0x0fb5a6b4\n      eq\n      tag_5\n      jumpi\n      dup1\n      0x18160ddd\n      eq\n      tag_6\n      jumpi\n      dup1\n      0x2e1a7d4d\n      eq\n      tag_7\n      jumpi\n    tag_2:\n      0x00\n      dup1\n      revert\n        /* \"Contract/re.sol\":2324:2560  function earned(address _account) public view returns (uint) {... */\n    tag_3:\n      tag_26\n      0x04\n      dup1\n      calldatasize\n      sub\n      dup2\n      add\n      swap1\n      tag_27\n      swap2\n      swap1\n      tag_28\n      jump\t// in\n    tag_27:\n      tag_29\n      jump\t// in\n    tag_26:\n      mload(0x40)\n      tag_30\n      swap2\n      swap1\n      tag_31\n      jump\t// in\n    tag_30:\n      mload(0x40)\n      dup1\n      swap2\n      sub\n      swap1\n      return\n        /* \"Contract/re.sol\":577:616  mapping(address => uint) public rewards */\n    tag_4:\n      tag_32\n      0x04\n      dup1\n      calldatasize\n      sub\n      dup2\n      add\n      swap1\n      tag_33\n      swap2\n      swap1\n      tag_28\n      jump\t// in\n    tag_33:\n      tag_34\n      jump\t// in\n    tag_32:\n      mload(0x40)\n      tag_35\n      swap2\n      swap1\n      tag_31\n      jump\t// in\n    tag_35:\n      mload(0x40)\n      dup1\n      swap2\n      sub\n      swap1\n      return\n        /* \"Contract/re.sol\":330:350  uint public duration */\n    tag_5:\n      tag_36\n      tag_37\n      jump\t// in\n    tag_36:\n      mload(0x40)\n      tag_38\n      swap2\n      swap1\n      tag_31\n      jump\t// in\n    tag_38:\n      mload(0x40)\n      dup1\n      swap2\n      sub\n      swap1\n      return\n        /* \"Contract/re.sol\":625:648  uint public totalSupply */\n    tag_6:\n      tag_39\n      tag_40\n      jump\t// in\n    tag_39:\n      mload(0x40)\n      tag_41\n      swap2\n      swap1\n      tag_31\n      jump\t// in\n    tag_41:\n      mload(0x40)\n      dup1\n      swap2\n      sub\n      swap1\n      return\n        /* \"Contract/re.sol\":2068:2316  function withdraw(uint _amount) external updateReward(msg.sender) {... */\n    tag_7:\n      tag_42\n      0x04\n      dup1\n      calldatasize\n      sub\n      dup2\n      add\n      swap1\n      tag_43\n      swap2\n      swap1\n      tag_44\n      jump\t// in\n    tag_43:\n      tag_45\n      jump\t// in\n    tag_42:\n      stop\n        /* \"Contract/re.sol\":3003:3668  function notifyRewardAmount(... */\n    tag_8:\n      tag_46\n      0x04\n      dup1\n      calldatasize\n      sub\n      dup2\n      add\n      swap1\n      tag_47\n      swap2\n      swap1\n      tag_44\n      jump\t// in\n    tag_47:\n      tag_48\n      jump\t// in\n    tag_46:\n      stop\n        /* \"Contract/re.sol\":2568:2807  function getReward() external updateReward(msg.sender) {... */\n    tag_9:\n      tag_49\n      tag_50\n      jump\t// in\n    tag_49:\n      stop\n        /* \"Contract/re.sol\":363:383  uint public finishAt */\n    tag_10:\n      tag_51\n      tag_52\n      jump\t// in\n    tag_51:\n      mload(0x40)\n      tag_53\n      swap2\n      swap1\n      tag_31\n      jump\t// in\n    tag_53:\n      mload(0x40)\n      dup1\n      swap2\n      sub\n      swap1\n      return\n        /* \"Contract/re.sol\":662:703  mapping(address => uint) public balanceOf */\n    tag_11:\n      tag_54\n      0x04\n      dup1\n      calldatasize\n      sub\n      dup2\n      add\n      swap1\n      tag_55\n      swap2\n      swap1\n      tag_28\n      jump\t// in\n    tag_55:\n      tag_56\n      jump\t// in\n    tag_54:\n      mload(0x40)\n      tag_57\n      swap2\n      swap1\n      tag_31\n      jump\t// in\n    tag_57:\n      mload(0x40)\n      dup1\n      swap2\n      sub\n      swap1\n      return\n        /* \"Contract/re.sol\":206:242  IERC20 public immutable stakingToken */\n    tag_12:\n      tag_58\n      tag_59\n      jump\t// in\n    tag_58:\n      mload(0x40)\n      tag_60\n      swap2\n      swap1\n      tag_61\n      jump\t// in\n    tag_60:\n      mload(0x40)\n      dup1\n      swap2\n      sub\n      swap1\n      return\n        /* \"Contract/re.sol\":396:417  uint public updatedAt */\n    tag_13:\n      tag_62\n      tag_63\n      jump\t// in\n    tag_62:\n      mload(0x40)\n      tag_64\n      swap2\n      swap1\n      tag_31\n      jump\t// in\n    tag_64:\n      mload(0x40)\n      dup1\n      swap2\n      sub\n      swap1\n      return\n        /* \"Contract/re.sol\":431:453  uint public rewardRate */\n    tag_14:\n      tag_65\n      tag_66\n      jump\t// in\n    tag_65:\n      mload(0x40)\n      tag_67\n      swap2\n      swap1\n      tag_31\n      jump\t// in\n    tag_67:\n      mload(0x40)\n      dup1\n      swap2\n      sub\n      swap1\n      return\n        /* \"Contract/re.sol\":1355:1475  function lastTimeRewardApplicable() public view returns (uint) {... */\n    tag_15:\n      tag_68\n      tag_69\n      jump\t// in\n    tag_68:\n      mload(0x40)\n      tag_70\n      swap2\n      swap1\n      tag_31\n      jump\t// in\n    tag_70:\n      mload(0x40)\n      dup1\n      swap2\n      sub\n      swap1\n      return\n        /* \"Contract/re.sol\":512:566  mapping(address => uint) public userRewardPerTokenPaid */\n    tag_16:\n      tag_71\n      0x04\n      dup1\n      calldatasize\n      sub\n      dup2\n      add\n      swap1\n      tag_72\n      swap2\n      swap1\n      tag_28\n      jump\t// in\n    tag_72:\n      tag_73\n      jump\t// in\n    tag_71:\n      mload(0x40)\n      tag_74\n      swap2\n      swap1\n      tag_31\n      jump\t// in\n    tag_74:\n      mload(0x40)\n      dup1\n      swap2\n      sub\n      swap1\n      return\n        /* \"Contract/re.sol\":294:314  address public owner */\n    tag_17:\n      tag_75\n      tag_76\n      jump\t// in\n    tag_75:\n      mload(0x40)\n      tag_77\n      swap2\n      swap1\n      tag_78\n      jump\t// in\n    tag_77:\n      mload(0x40)\n      dup1\n      swap2\n      sub\n      swap1\n      return\n        /* \"Contract/re.sol\":1796:2060  function stake(uint _amount) external updateReward(msg.sender) {... */\n    tag_18:\n      tag_79\n      0x04\n      dup1\n      calldatasize\n      sub\n      dup2\n      add\n      swap1\n      tag_80\n      swap2\n      swap1\n      tag_44\n      jump\t// in\n    tag_80:\n      tag_81\n      jump\t// in\n    tag_79:\n      stop\n        /* \"Contract/re.sol\":2815:2995  function setRewardsDuration(uint _duration) external onlyOwner {... */\n    tag_19:\n      tag_82\n      0x04\n      dup1\n      calldatasize\n      sub\n      dup2\n      add\n      swap1\n      tag_83\n      swap2\n      swap1\n      tag_44\n      jump\t// in\n    tag_83:\n      tag_84\n      jump\t// in\n    tag_82:\n      stop\n        /* \"Contract/re.sol\":1483:1788  function rewardPerToken() public view returns (uint) {... */\n    tag_20:\n      tag_85\n      tag_86\n      jump\t// in\n    tag_85:\n      mload(0x40)\n      tag_87\n      swap2\n      swap1\n      tag_31\n      jump\t// in\n    tag_87:\n      mload(0x40)\n      dup1\n      swap2\n      sub\n      swap1\n      return\n        /* \"Contract/re.sol\":249:285  IERC20 public immutable rewardsToken */\n    tag_21:\n      tag_88\n      tag_89\n      jump\t// in\n    tag_88:\n      mload(0x40)\n      tag_90\n      swap2\n      swap1\n      tag_61\n      jump\t// in\n    tag_90:\n      mload(0x40)\n      dup1\n      swap2\n      sub\n      swap1\n      return\n        /* \"Contract/re.sol\":467:499  uint public rewardPerTokenStored */\n    tag_22:\n      tag_91\n      tag_92\n      jump\t// in\n    tag_91:\n      mload(0x40)\n      tag_93\n      swap2\n      swap1\n      tag_31\n      jump\t// in\n    tag_93:\n      mload(0x40)\n      dup1\n      swap2\n      sub\n      swap1\n      return\n        /* \"Contract/re.sol\":2324:2560  function earned(address _account) public view returns (uint) {... */\n    tag_29:\n        /* \"Contract/re.sol\":2379:2383  uint */\n      0x00\n        /* \"Contract/re.sol\":2535:2542  rewards */\n      0x07\n        /* \"Contract/re.sol\":2535:2552  rewards[_account] */\n      0x00\n        /* \"Contract/re.sol\":2543:2551  _account */\n      dup4\n        /* \"Contract/re.sol\":2535:2552  rewards[_account] */\n      0xffffffffffffffffffffffffffffffffffffffff\n      and\n      0xffffffffffffffffffffffffffffffffffffffff\n      and\n      dup2\n      mstore\n      0x20\n      add\n      swap1\n      dup2\n      mstore\n      0x20\n      add\n      0x00\n      keccak256\n      sload\n        /* \"Contract/re.sol\":2514:2518  1e18 */\n      0x0de0b6b3a7640000\n        /* \"Contract/re.sol\":2477:2499  userRewardPerTokenPaid */\n      0x06\n        /* \"Contract/re.sol\":2477:2509  userRewardPerTokenPaid[_account] */\n      0x00\n        /* \"Contract/re.sol\":2500:2508  _account */\n      dup6\n        /* \"Contract/re.sol\":2477:2509  userRewardPerTokenPaid[_account] */\n      0xffffffffffffffffffffffffffffffffffffffff\n      and\n      0xffffffffffffffffffffffffffffffffffffffff\n      and\n      dup2\n      mstore\n      0x20\n      add\n      swap1\n      dup2\n      mstore\n      0x20\n      add\n      0x00\n      keccak256\n      sload\n        /* \"Contract/re.sol\":2458:2474  rewardPerToken() */\n      tag_95\n        /* \"Contract/re.sol\":2458:2472  rewardPerToken */\n      tag_86\n        /* \"Contract/re.sol\":2458:2474  rewardPerToken() */\n      jump\t// in\n    tag_95:\n        /* \"Contract/re.sol\":2458:2509  rewardPerToken() - userRewardPerTokenPaid[_account] */\n      tag_96\n      swap2\n      swap1\n      tag_97\n      jump\t// in\n    tag_96:\n        /* \"Contract/re.sol\":2418:2427  balanceOf */\n      0x09\n        /* \"Contract/re.sol\":2418:2437  balanceOf[_account] */\n      0x00\n        /* \"Contract/re.sol\":2428:2436  _account */\n      dup7\n        /* \"Contract/re.sol\":2418:2437  balanceOf[_account] */\n      0xffffffffffffffffffffffffffffffffffffffff\n      and\n      0xffffffffffffffffffffffffffffffffffffffff\n      and\n      dup2\n      mstore\n      0x20\n      add\n      swap1\n      dup2\n      mstore\n      0x20\n      add\n      0x00\n      keccak256\n      sload\n        /* \"Contract/re.sol\":2418:2510  balanceOf[_account] *... */\n      tag_98\n      swap2\n      swap1\n      tag_99\n      jump\t// in\n    tag_98:\n        /* \"Contract/re.sol\":2417:2518  (balanceOf[_account] *... */\n      tag_100\n      swap2\n      swap1\n      tag_101\n      jump\t// in\n    tag_100:\n        /* \"Contract/re.sol\":2416:2552  ((balanceOf[_account] *... */\n      tag_102\n      swap2\n      swap1\n      tag_103\n      jump\t// in\n    tag_102:\n        /* \"Contract/re.sol\":2396:2552  return... */\n      swap1\n      pop\n        /* \"Contract/re.sol\":2324:2560  function earned(address _account) public view returns (uint) {... */\n      swap2\n      swap1\n      pop\n      jump\t// out\n        /* \"Contract/re.sol\":577:616  mapping(address => uint) public rewards */\n    tag_34:\n      mstore(0x20, 0x07)\n      dup1\n      0x00\n      mstore\n      keccak256(0x00, 0x40)\n      0x00\n      swap2\n      pop\n      swap1\n      pop\n      sload\n      dup2\n      jump\t// out\n        /* \"Contract/re.sol\":330:350  uint public duration */\n    tag_37:\n      sload(0x01)\n      dup2\n      jump\t// out\n        /* \"Contract/re.sol\":625:648  uint public totalSupply */\n    tag_40:\n      sload(0x08)\n      dup2\n      jump\t// out\n        /* \"Contract/re.sol\":2068:2316  function withdraw(uint _amount) external updateReward(msg.sender) {... */\n    tag_45:\n        /* \"Contract/re.sol\":2122:2132  msg.sender */\n      caller\n        /* \"Contract/re.sol\":1087:1103  rewardPerToken() */\n      tag_105\n        /* \"Contract/re.sol\":1087:1101  rewardPerToken */\n      tag_86\n        /* \"Contract/re.sol\":1087:1103  rewardPerToken() */\n      jump\t// in\n    tag_105:\n        /* \"Contract/re.sol\":1064:1084  rewardPerTokenStored */\n      0x05\n        /* \"Contract/re.sol\":1064:1103  rewardPerTokenStored = rewardPerToken() */\n      dup2\n      swap1\n      sstore\n      pop\n        /* \"Contract/re.sol\":1126:1152  lastTimeRewardApplicable() */\n      tag_106\n        /* \"Contract/re.sol\":1126:1150  lastTimeRewardApplicable */\n      tag_69\n        /* \"Contract/re.sol\":1126:1152  lastTimeRewardApplicable() */\n      jump\t// in\n    tag_106:\n        /* \"Contract/re.sol\":1114:1123  updatedAt */\n      0x03\n        /* \"Contract/re.sol\":1114:1152  updatedAt = lastTimeRewardApplicable() */\n      dup2\n      swap1\n      sstore\n      pop\n        /* \"Contract/re.sol\":1189:1190  0 */\n      0x00\n        /* \"Contract/re.sol\":1169:1191  _account != address(0) */\n      0xffffffffffffffffffffffffffffffffffffffff\n      and\n        /* \"Contract/re.sol\":1169:1177  _account */\n      dup2\n        /* \"Contract/re.sol\":1169:1191  _account != address(0) */\n      0xffffffffffffffffffffffffffffffffffffffff\n      and\n      eq\n        /* \"Contract/re.sol\":1165:1326  if (_account != address(0)) {... */\n      tag_107\n      jumpi\n        /* \"Contract/re.sol\":1228:1244  earned(_account) */\n      tag_108\n        /* \"Contract/re.sol\":1235:1243  _account */\n      dup2\n        /* \"Contract/re.sol\":1228:1234  earned */\n      tag_29\n        /* \"Contract/re.sol\":1228:1244  earned(_account) */\n      jump\t// in\n    tag_108:\n        /* \"Contract/re.sol\":1208:1215  rewards */\n      0x07\n        /* \"Contract/re.sol\":1208:1225  rewards[_account] */\n      0x00\n        /* \"Contract/re.sol\":1216:1224  _account */\n      dup4\n        /* \"Contract/re.sol\":1208:1225  rewards[_account] */\n      0xffffffffffffffffffffffffffffffffffffffff\n      and\n      0xffffffffffffffffffffffffffffffffffffffff\n      and\n      dup2\n      mstore\n      0x20\n      add\n      swap1\n      dup2\n      mstore\n      0x20\n      add\n      0x00\n      keccak256\n        /* \"Contract/re.sol\":1208:1244  rewards[_account] = earned(_account) */\n      dup2\n      swap1\n      sstore\n      pop\n        /* \"Contract/re.sol\":1294:1314  rewardPerTokenStored */\n      sload(0x05)\n        /* \"Contract/re.sol\":1259:1281  userRewardPerTokenPaid */\n      0x06\n        /* \"Contract/re.sol\":1259:1291  userRewardPerTokenPaid[_account] */\n      0x00\n        /* \"Contract/re.sol\":1282:1290  _account */\n      dup4\n        /* \"Contract/re.sol\":1259:1291  userRewardPerTokenPaid[_account] */\n      0xffffffffffffffffffffffffffffffffffffffff\n      and\n      0xffffffffffffffffffffffffffffffffffffffff\n      and\n      dup2\n      mstore\n      0x20\n      add\n      swap1\n      dup2\n      mstore\n      0x20\n      add\n      0x00\n      keccak256\n        /* \"Contract/re.sol\":1259:1314  userRewardPerTokenPaid[_account] = rewardPerTokenStored */\n      dup2\n      swap1\n      sstore\n      pop\n        /* \"Contract/re.sol\":1165:1326  if (_account != address(0)) {... */\n    tag_107:\n        /* \"Contract/re.sol\":2163:2164  0 */\n      0x00\n        /* \"Contract/re.sol\":2153:2160  _amount */\n      dup3\n        /* \"Contract/re.sol\":2153:2164  _amount > 0 */\n      gt\n        /* \"Contract/re.sol\":2145:2179  require(_amount > 0, \"amount = 0\") */\n      tag_110\n      jumpi\n      mload(0x40)\n      0x08c379a000000000000000000000000000000000000000000000000000000000\n      dup2\n      mstore\n      0x04\n      add\n      tag_111\n      swap1\n      tag_112\n      jump\t// in\n    tag_111:\n      mload(0x40)\n      dup1\n      swap2\n      sub\n      swap1\n      revert\n    tag_110:\n        /* \"Contract/re.sol\":2215:2222  _amount */\n      dup2\n        /* \"Contract/re.sol\":2190:2199  balanceOf */\n      0x09\n        /* \"Contract/re.sol\":2190:2211  balanceOf[msg.sender] */\n      0x00\n        /* \"Contract/re.sol\":2200:2210  msg.sender */\n      caller\n        /* \"Contract/re.sol\":2190:2211  balanceOf[msg.sender] */\n      0xffffffffffffffffffffffffffffffffffffffff\n      and\n      0xffffffffffffffffffffffffffffffffffffffff\n      and\n      dup2\n      mstore\n      0x20\n      add\n      swap1\n      dup2\n      mstore\n      0x20\n      add\n      0x00\n      keccak256\n      0x00\n        /* \"Contract/re.sol\":2190:2222  balanceOf[msg.sender] -= _amount */\n      dup3\n      dup3\n      sload\n      tag_113\n      swap2\n      swap1\n      tag_97\n      jump\t// in\n    tag_113:\n      swap3\n      pop\n      pop\n      dup2\n      swap1\n      sstore\n      pop\n        /* \"Contract/re.sol\":2248:2255  _amount */\n      dup2\n        /* \"Contract/re.sol\":2233:2244  totalSupply */\n      0x08\n      0x00\n        /* \"Contract/re.sol\":2233:2255  totalSupply -= _amount */\n      dup3\n      dup3\n      sload\n      tag_114\n      swap2\n      swap1\n      tag_97\n      jump\t// in\n    tag_114:\n      swap3\n      pop\n      pop\n      dup2\n      swap1\n      sstore\n      pop\n        /* \"Contract/re.sol\":2266:2278  stakingToken */\n      immutable(\"0x26a975632f70533c9512e57b565b8ce8e2befee6b08dfbc27c4a897a20e2c1d6\")\n        /* \"Contract/re.sol\":2266:2287  stakingToken.transfer */\n      0xffffffffffffffffffffffffffffffffffffffff\n      and\n      0xa9059cbb\n        /* \"Contract/re.sol\":2288:2298  msg.sender */\n      caller\n        /* \"Contract/re.sol\":2300:2307  _amount */\n      dup5\n        /* \"Contract/re.sol\":2266:2308  stakingToken.transfer(msg.sender, _amount) */\n      mload(0x40)\n      dup4\n      0xffffffff\n      and\n      0xe0\n      shl\n      dup2\n      mstore\n      0x04\n      add\n      tag_115\n      swap3\n      swap2\n      swap1\n      tag_116\n      jump\t// in\n    tag_115:\n      0x20\n      mload(0x40)\n      dup1\n      dup4\n      sub\n      dup2\n      0x00\n      dup8\n      gas\n      call\n      iszero\n      dup1\n      iszero\n      tag_118\n      jumpi\n      returndatasize\n      0x00\n      dup1\n      returndatacopy\n      revert(0x00, returndatasize)\n    tag_118:\n      pop\n      pop\n      pop\n      pop\n      mload(0x40)\n      returndatasize\n      not(0x1f)\n      0x1f\n      dup3\n      add\n      and\n      dup3\n      add\n      dup1\n      0x40\n      mstore\n      pop\n      dup2\n      add\n      swap1\n      tag_119\n      swap2\n      swap1\n      tag_120\n      jump\t// in\n    tag_119:\n      pop\n        /* \"Contract/re.sol\":2068:2316  function withdraw(uint _amount) external updateReward(msg.sender) {... */\n      pop\n      pop\n      jump\t// out\n        /* \"Contract/re.sol\":3003:3668  function notifyRewardAmount(... */\n    tag_48:\n        /* \"Contract/re.sol\":961:966  owner */\n      0x00\n      dup1\n      sload\n      swap1\n      0x0100\n      exp\n      swap1\n      div\n      0xffffffffffffffffffffffffffffffffffffffff\n      and\n        /* \"Contract/re.sol\":947:966  msg.sender == owner */\n      0xffffffffffffffffffffffffffffffffffffffff\n      and\n        /* \"Contract/re.sol\":947:957  msg.sender */\n      caller\n        /* \"Contract/re.sol\":947:966  msg.sender == owner */\n      0xffffffffffffffffffffffffffffffffffffffff\n      and\n      eq\n        /* \"Contract/re.sol\":939:985  require(msg.sender == owner, \"not authorized\") */\n      tag_122\n      jumpi\n      mload(0x40)\n      0x08c379a000000000000000000000000000000000000000000000000000000000\n      dup2\n      mstore\n      0x04\n      add\n      tag_123\n      swap1\n      tag_124\n      jump\t// in\n    tag_123:\n      mload(0x40)\n      dup1\n      swap2\n      sub\n      swap1\n      revert\n    tag_122:\n        /* \"Contract/re.sol\":3101:3102  0 */\n      0x00\n        /* \"Contract/re.sol\":1087:1103  rewardPerToken() */\n      tag_126\n        /* \"Contract/re.sol\":1087:1101  rewardPerToken */\n      tag_86\n        /* \"Contract/re.sol\":1087:1103  rewardPerToken() */\n      jump\t// in\n    tag_126:\n        /* \"Contract/re.sol\":1064:1084  rewardPerTokenStored */\n      0x05\n        /* \"Contract/re.sol\":1064:1103  rewardPerTokenStored = rewardPerToken() */\n      dup2\n      swap1\n      sstore\n      pop\n        /* \"Contract/re.sol\":1126:1152  lastTimeRewardApplicable() */\n      tag_127\n        /* \"Contract/re.sol\":1126:1150  lastTimeRewardApplicable */\n      tag_69\n        /* \"Contract/re.sol\":1126:1152  lastTimeRewardApplicable() */\n      jump\t// in\n    tag_127:\n        /* \"Contract/re.sol\":1114:1123  updatedAt */\n      0x03\n        /* \"Contract/re.sol\":1114:1152  updatedAt = lastTimeRewardApplicable() */\n      dup2\n      swap1\n      sstore\n      pop\n        /* \"Contract/re.sol\":1189:1190  0 */\n      0x00\n        /* \"Contract/re.sol\":1169:1191  _account != address(0) */\n      0xffffffffffffffffffffffffffffffffffffffff\n      and\n        /* \"Contract/re.sol\":1169:1177  _account */\n      dup2\n        /* \"Contract/re.sol\":1169:1191  _account != address(0) */\n      0xffffffffffffffffffffffffffffffffffffffff\n      and\n      eq\n        /* \"Contract/re.sol\":1165:1326  if (_account != address(0)) {... */\n      tag_128\n      jumpi\n        /* \"Contract/re.sol\":1228:1244  earned(_account) */\n      tag_129\n        /* \"Contract/re.sol\":1235:1243  _account */\n      dup2\n        /* \"Contract/re.sol\":1228:1234  earned */\n      tag_29\n        /* \"Contract/re.sol\":1228:1244  earned(_account) */\n      jump\t// in\n    tag_129:\n        /* \"Contract/re.sol\":1208:1215  rewards */\n      0x07\n        /* \"Contract/re.sol\":1208:1225  rewards[_account] */\n      0x00\n        /* \"Contract/re.sol\":1216:1224  _account */\n      dup4\n        /* \"Contract/re.sol\":1208:1225  rewards[_account] */\n      0xffffffffffffffffffffffffffffffffffffffff\n      and\n      0xffffffffffffffffffffffffffffffffffffffff\n      and\n      dup2\n      mstore\n      0x20\n      add\n      swap1\n      dup2\n      mstore\n      0x20\n      add\n      0x00\n      keccak256\n        /* \"Contract/re.sol\":1208:1244  rewards[_account] = earned(_account) */\n      dup2\n      swap1\n      sstore\n      pop\n        /* \"Contract/re.sol\":1294:1314  rewardPerTokenStored */\n      sload(0x05)\n        /* \"Contract/re.sol\":1259:1281  userRewardPerTokenPaid */\n      0x06\n        /* \"Contract/re.sol\":1259:1291  userRewardPerTokenPaid[_account] */\n      0x00\n        /* \"Contract/re.sol\":1282:1290  _account */\n      dup4\n        /* \"Contract/re.sol\":1259:1291  userRewardPerTokenPaid[_account] */\n      0xffffffffffffffffffffffffffffffffffffffff\n      and\n      0xffffffffffffffffffffffffffffffffffffffff\n      and\n      dup2\n      mstore\n      0x20\n      add\n      swap1\n      dup2\n      mstore\n      0x20\n      add\n      0x00\n      keccak256\n        /* \"Contract/re.sol\":1259:1314  userRewardPerTokenPaid[_account] = rewardPerTokenStored */\n      dup2\n      swap1\n      sstore\n      pop\n        /* \"Contract/re.sol\":1165:1326  if (_account != address(0)) {... */\n    tag_128:\n        /* \"Contract/re.sol\":3139:3147  finishAt */\n      sload(0x02)\n        /* \"Contract/re.sol\":3120:3135  block.timestamp */\n      timestamp\n        /* \"Contract/re.sol\":3120:3147  block.timestamp >= finishAt */\n      lt\n        /* \"Contract/re.sol\":3116:3372  if (block.timestamp >= finishAt) {... */\n      tag_131\n      jumpi\n        /* \"Contract/re.sol\":3187:3195  duration */\n      sload(0x01)\n        /* \"Contract/re.sol\":3177:3184  _amount */\n      dup3\n        /* \"Contract/re.sol\":3177:3195  _amount / duration */\n      tag_132\n      swap2\n      swap1\n      tag_101\n      jump\t// in\n    tag_132:\n        /* \"Contract/re.sol\":3164:3174  rewardRate */\n      0x04\n        /* \"Contract/re.sol\":3164:3195  rewardRate = _amount / duration */\n      dup2\n      swap1\n      sstore\n      pop\n        /* \"Contract/re.sol\":3116:3372  if (block.timestamp >= finishAt) {... */\n      jump(tag_133)\n    tag_131:\n        /* \"Contract/re.sol\":3228:3249  uint remainingRewards */\n      0x00\n        /* \"Contract/re.sol\":3283:3293  rewardRate */\n      sload(0x04)\n        /* \"Contract/re.sol\":3264:3279  block.timestamp */\n      timestamp\n        /* \"Contract/re.sol\":3253:3261  finishAt */\n      sload(0x02)\n        /* \"Contract/re.sol\":3253:3279  finishAt - block.timestamp */\n      tag_134\n      swap2\n      swap1\n      tag_97\n      jump\t// in\n    tag_134:\n        /* \"Contract/re.sol\":3252:3293  (finishAt - block.timestamp) * rewardRate */\n      tag_135\n      swap2\n      swap1\n      tag_99\n      jump\t// in\n    tag_135:\n        /* \"Contract/re.sol\":3228:3293  uint remainingRewards = (finishAt - block.timestamp) * rewardRate */\n      swap1\n      pop\n        /* \"Contract/re.sol\":3352:3360  duration */\n      sload(0x01)\n        /* \"Contract/re.sol\":3332:3348  remainingRewards */\n      dup2\n        /* \"Contract/re.sol\":3322:3329  _amount */\n      dup5\n        /* \"Contract/re.sol\":3322:3348  _amount + remainingRewards */\n      tag_136\n      swap2\n      swap1\n      tag_103\n      jump\t// in\n    tag_136:\n        /* \"Contract/re.sol\":3321:3360  (_amount + remainingRewards) / duration */\n      tag_137\n      swap2\n      swap1\n      tag_101\n      jump\t// in\n    tag_137:\n        /* \"Contract/re.sol\":3308:3318  rewardRate */\n      0x04\n        /* \"Contract/re.sol\":3308:3360  rewardRate = (_amount + remainingRewards) / duration */\n      dup2\n      swap1\n      sstore\n      pop\n        /* \"Contract/re.sol\":3213:3372  {... */\n      pop\n        /* \"Contract/re.sol\":3116:3372  if (block.timestamp >= finishAt) {... */\n    tag_133:\n        /* \"Contract/re.sol\":3405:3406  0 */\n      0x00\n        /* \"Contract/re.sol\":3392:3402  rewardRate */\n      sload(0x04)\n        /* \"Contract/re.sol\":3392:3406  rewardRate > 0 */\n      gt\n        /* \"Contract/re.sol\":3384:3426  require(rewardRate > 0, \"reward rate = 0\") */\n      tag_138\n      jumpi\n      mload(0x40)\n      0x08c379a000000000000000000000000000000000000000000000000000000000\n      dup2\n      mstore\n      0x04\n      add\n      tag_139\n      swap1\n      tag_140\n      jump\t// in\n    tag_139:\n      mload(0x40)\n      dup1\n      swap2\n      sub\n      swap1\n      revert\n    tag_138:\n        /* \"Contract/re.sol\":3484:3496  rewardsToken */\n      immutable(\"0xcfe93e00cbaaf37bad5f0b2ff3ab98072b4f3a2656e148b3bcccb553f2fa678f\")\n        /* \"Contract/re.sol\":3484:3506  rewardsToken.balanceOf */\n      0xffffffffffffffffffffffffffffffffffffffff\n      and\n      0x70a08231\n        /* \"Contract/re.sol\":3515:3519  this */\n      address\n        /* \"Contract/re.sol\":3484:3521  rewardsToken.balanceOf(address(this)) */\n      mload(0x40)\n      dup3\n      0xffffffff\n      and\n      0xe0\n      shl\n      dup2\n      mstore\n      0x04\n      add\n      tag_141\n      swap2\n      swap1\n      tag_78\n      jump\t// in\n    tag_141:\n      0x20\n      mload(0x40)\n      dup1\n      dup4\n      sub\n      dup2\n      dup7\n      gas\n      staticcall\n      iszero\n      dup1\n      iszero\n      tag_143\n      jumpi\n      returndatasize\n      0x00\n      dup1\n      returndatacopy\n      revert(0x00, returndatasize)\n    tag_143:\n      pop\n      pop\n      pop\n      pop\n      mload(0x40)\n      returndatasize\n      not(0x1f)\n      0x1f\n      dup3\n      add\n      and\n      dup3\n      add\n      dup1\n      0x40\n      mstore\n      pop\n      dup2\n      add\n      swap1\n      tag_144\n      swap2\n      swap1\n      tag_145\n      jump\t// in\n    tag_144:\n        /* \"Contract/re.sol\":3472:3480  duration */\n      sload(0x01)\n        /* \"Contract/re.sol\":3459:3469  rewardRate */\n      sload(0x04)\n        /* \"Contract/re.sol\":3459:3480  rewardRate * duration */\n      tag_146\n      swap2\n      swap1\n      tag_99\n      jump\t// in\n    tag_146:\n        /* \"Contract/re.sol\":3459:3521  rewardRate * duration <= rewardsToken.balanceOf(address(this)) */\n      gt\n      iszero\n        /* \"Contract/re.sol\":3437:3572  require(... */\n      tag_147\n      jumpi\n      mload(0x40)\n      0x08c379a000000000000000000000000000000000000000000000000000000000\n      dup2\n      mstore\n      0x04\n      add\n      tag_148\n      swap1\n      tag_149\n      jump\t// in\n    tag_148:\n      mload(0x40)\n      dup1\n      swap2\n      sub\n      swap1\n      revert\n    tag_147:\n        /* \"Contract/re.sol\":3614:3622  duration */\n      sload(0x01)\n        /* \"Contract/re.sol\":3596:3611  block.timestamp */\n      timestamp\n        /* \"Contract/re.sol\":3596:3622  block.timestamp + duration */\n      tag_150\n      swap2\n      swap1\n      tag_103\n      jump\t// in\n    tag_150:\n        /* \"Contract/re.sol\":3585:3593  finishAt */\n      0x02\n        /* \"Contract/re.sol\":3585:3622  finishAt = block.timestamp + duration */\n      dup2\n      swap1\n      sstore\n      pop\n        /* \"Contract/re.sol\":3645:3660  block.timestamp */\n      timestamp\n        /* \"Contract/re.sol\":3633:3642  updatedAt */\n      0x03\n        /* \"Contract/re.sol\":3633:3660  updatedAt = block.timestamp */\n      dup2\n      swap1\n      sstore\n      pop\n        /* \"Contract/re.sol\":996:997  _ */\n      pop\n        /* \"Contract/re.sol\":3003:3668  function notifyRewardAmount(... */\n      pop\n      jump\t// out\n        /* \"Contract/re.sol\":2568:2807  function getReward() external updateReward(msg.sender) {... */\n    tag_50:\n        /* \"Contract/re.sol\":2611:2621  msg.sender */\n      caller\n        /* \"Contract/re.sol\":1087:1103  rewardPerToken() */\n      tag_152\n        /* \"Contract/re.sol\":1087:1101  rewardPerToken */\n      tag_86\n        /* \"Contract/re.sol\":1087:1103  rewardPerToken() */\n      jump\t// in\n    tag_152:\n        /* \"Contract/re.sol\":1064:1084  rewardPerTokenStored */\n      0x05\n        /* \"Contract/re.sol\":1064:1103  rewardPerTokenStored = rewardPerToken() */\n      dup2\n      swap1\n      sstore\n      pop\n        /* \"Contract/re.sol\":1126:1152  lastTimeRewardApplicable() */\n      tag_153\n        /* \"Contract/re.sol\":1126:1150  lastTimeRewardApplicable */\n      tag_69\n        /* \"Contract/re.sol\":1126:1152  lastTimeRewardApplicable() */\n      jump\t// in\n    tag_153:\n        /* \"Contract/re.sol\":1114:1123  updatedAt */\n      0x03\n        /* \"Contract/re.sol\":1114:1152  updatedAt = lastTimeRewardApplicable() */\n      dup2\n      swap1\n      sstore\n      pop\n        /* \"Contract/re.sol\":1189:1190  0 */\n      0x00\n        /* \"Contract/re.sol\":1169:1191  _account != address(0) */\n      0xffffffffffffffffffffffffffffffffffffffff\n      and\n        /* \"Contract/re.sol\":1169:1177  _account */\n      dup2\n        /* \"Contract/re.sol\":1169:1191  _account != address(0) */\n      0xffffffffffffffffffffffffffffffffffffffff\n      and\n      eq\n        /* \"Contract/re.sol\":1165:1326  if (_account != address(0)) {... */\n      tag_154\n      jumpi\n        /* \"Contract/re.sol\":1228:1244  earned(_account) */\n      tag_155\n        /* \"Contract/re.sol\":1235:1243  _account */\n      dup2\n        /* \"Contract/re.sol\":1228:1234  earned */\n      tag_29\n        /* \"Contract/re.sol\":1228:1244  earned(_account) */\n      jump\t// in\n    tag_155:\n        /* \"Contract/re.sol\":1208:1215  rewards */\n      0x07\n        /* \"Contract/re.sol\":1208:1225  rewards[_account] */\n      0x00\n        /* \"Contract/re.sol\":1216:1224  _account */\n      dup4\n        /* \"Contract/re.sol\":1208:1225  rewards[_account] */\n      0xffffffffffffffffffffffffffffffffffffffff\n      and\n      0xffffffffffffffffffffffffffffffffffffffff\n      and\n      dup2\n      mstore\n      0x20\n      add\n      swap1\n      dup2\n      mstore\n      0x20\n      add\n      0x00\n      keccak256\n        /* \"Contract/re.sol\":1208:1244  rewards[_account] = earned(_account) */\n      dup2\n      swap1\n      sstore\n      pop\n        /* \"Contract/re.sol\":1294:1314  rewardPerTokenStored */\n      sload(0x05)\n        /* \"Contract/re.sol\":1259:1281  userRewardPerTokenPaid */\n      0x06\n        /* \"Contract/re.sol\":1259:1291  userRewardPerTokenPaid[_account] */\n      0x00\n        /* \"Contract/re.sol\":1282:1290  _account */\n      dup4\n        /* \"Contract/re.sol\":1259:1291  userRewardPerTokenPaid[_account] */\n      0xffffffffffffffffffffffffffffffffffffffff\n      and\n      0xffffffffffffffffffffffffffffffffffffffff\n      and\n      dup2\n      mstore\n      0x20\n      add\n      swap1\n      dup2\n      mstore\n      0x20\n      add\n      0x00\n      keccak256\n        /* \"Contract/re.sol\":1259:1314  userRewardPerTokenPaid[_account] = rewardPerTokenStored */\n      dup2\n      swap1\n      sstore\n      pop\n        /* \"Contract/re.sol\":1165:1326  if (_account != address(0)) {... */\n    tag_154:\n        /* \"Contract/re.sol\":2634:2645  uint reward */\n      0x00\n        /* \"Contract/re.sol\":2648:2655  rewards */\n      0x07\n        /* \"Contract/re.sol\":2648:2667  rewards[msg.sender] */\n      0x00\n        /* \"Contract/re.sol\":2656:2666  msg.sender */\n      caller\n        /* \"Contract/re.sol\":2648:2667  rewards[msg.sender] */\n      0xffffffffffffffffffffffffffffffffffffffff\n      and\n      0xffffffffffffffffffffffffffffffffffffffff\n      and\n      dup2\n      mstore\n      0x20\n      add\n      swap1\n      dup2\n      mstore\n      0x20\n      add\n      0x00\n      keccak256\n      sload\n        /* \"Contract/re.sol\":2634:2667  uint reward = rewards[msg.sender] */\n      swap1\n      pop\n        /* \"Contract/re.sol\":2691:2692  0 */\n      0x00\n        /* \"Contract/re.sol\":2682:2688  reward */\n      dup2\n        /* \"Contract/re.sol\":2682:2692  reward > 0 */\n      gt\n        /* \"Contract/re.sol\":2678:2800  if (reward > 0) {... */\n      iszero\n      tag_157\n      jumpi\n        /* \"Contract/re.sol\":2731:2732  0 */\n      0x00\n        /* \"Contract/re.sol\":2709:2716  rewards */\n      0x07\n        /* \"Contract/re.sol\":2709:2728  rewards[msg.sender] */\n      0x00\n        /* \"Contract/re.sol\":2717:2727  msg.sender */\n      caller\n        /* \"Contract/re.sol\":2709:2728  rewards[msg.sender] */\n      0xffffffffffffffffffffffffffffffffffffffff\n      and\n      0xffffffffffffffffffffffffffffffffffffffff\n      and\n      dup2\n      mstore\n      0x20\n      add\n      swap1\n      dup2\n      mstore\n      0x20\n      add\n      0x00\n      keccak256\n        /* \"Contract/re.sol\":2709:2732  rewards[msg.sender] = 0 */\n      dup2\n      swap1\n      sstore\n      pop\n        /* \"Contract/re.sol\":2747:2759  rewardsToken */\n      immutable(\"0xcfe93e00cbaaf37bad5f0b2ff3ab98072b4f3a2656e148b3bcccb553f2fa678f\")\n        /* \"Contract/re.sol\":2747:2768  rewardsToken.transfer */\n      0xffffffffffffffffffffffffffffffffffffffff\n      and\n      0xa9059cbb\n        /* \"Contract/re.sol\":2769:2779  msg.sender */\n      caller\n        /* \"Contract/re.sol\":2781:2787  reward */\n      dup4\n        /* \"Contract/re.sol\":2747:2788  rewardsToken.transfer(msg.sender, reward) */\n      mload(0x40)\n      dup4\n      0xffffffff\n      and\n      0xe0\n      shl\n      dup2\n      mstore\n      0x04\n      add\n      tag_158\n      swap3\n      swap2\n      swap1\n      tag_116\n      jump\t// in\n    tag_158:\n      0x20\n      mload(0x40)\n      dup1\n      dup4\n      sub\n      dup2\n      0x00\n      dup8\n      gas\n      call\n      iszero\n      dup1\n      iszero\n      tag_160\n      jumpi\n      returndatasize\n      0x00\n      dup1\n      returndatacopy\n      revert(0x00, returndatasize)\n    tag_160:\n      pop\n      pop\n      pop\n      pop\n      mload(0x40)\n      returndatasize\n      not(0x1f)\n      0x1f\n      dup3\n      add\n      and\n      dup3\n      add\n      dup1\n      0x40\n      mstore\n      pop\n      dup2\n      add\n      swap1\n      tag_161\n      swap2\n      swap1\n      tag_120\n      jump\t// in\n    tag_161:\n      pop\n        /* \"Contract/re.sol\":2678:2800  if (reward > 0) {... */\n    tag_157:\n        /* \"Contract/re.sol\":2623:2807  {... */\n      pop\n        /* \"Contract/re.sol\":2568:2807  function getReward() external updateReward(msg.sender) {... */\n      pop\n      jump\t// out\n        /* \"Contract/re.sol\":363:383  uint public finishAt */\n    tag_52:\n      sload(0x02)\n      dup2\n      jump\t// out\n        /* \"Contract/re.sol\":662:703  mapping(address => uint) public balanceOf */\n    tag_56:\n      mstore(0x20, 0x09)\n      dup1\n      0x00\n      mstore\n      keccak256(0x00, 0x40)\n      0x00\n      swap2\n      pop\n      swap1\n      pop\n      sload\n      dup2\n      jump\t// out\n        /* \"Contract/re.sol\":206:242  IERC20 public immutable stakingToken */\n    tag_59:\n      immutable(\"0x26a975632f70533c9512e57b565b8ce8e2befee6b08dfbc27c4a897a20e2c1d6\")\n      dup2\n      jump\t// out\n        /* \"Contract/re.sol\":396:417  uint public updatedAt */\n    tag_63:\n      sload(0x03)\n      dup2\n      jump\t// out\n        /* \"Contract/re.sol\":431:453  uint public rewardRate */\n    tag_66:\n      sload(0x04)\n      dup2\n      jump\t// out\n        /* \"Contract/re.sol\":1355:1475  function lastTimeRewardApplicable() public view returns (uint) {... */\n    tag_69:\n        /* \"Contract/re.sol\":1412:1416  uint */\n      0x00\n        /* \"Contract/re.sol\":1436:1467  _min(finishAt, block.timestamp) */\n      tag_163\n        /* \"Contract/re.sol\":1441:1449  finishAt */\n      sload(0x02)\n        /* \"Contract/re.sol\":1451:1466  block.timestamp */\n      timestamp\n        /* \"Contract/re.sol\":1436:1440  _min */\n      tag_164\n        /* \"Contract/re.sol\":1436:1467  _min(finishAt, block.timestamp) */\n      jump\t// in\n    tag_163:\n        /* \"Contract/re.sol\":1429:1467  return _min(finishAt, block.timestamp) */\n      swap1\n      pop\n        /* \"Contract/re.sol\":1355:1475  function lastTimeRewardApplicable() public view returns (uint) {... */\n      swap1\n      jump\t// out\n        /* \"Contract/re.sol\":512:566  mapping(address => uint) public userRewardPerTokenPaid */\n    tag_73:\n      mstore(0x20, 0x06)\n      dup1\n      0x00\n      mstore\n      keccak256(0x00, 0x40)\n      0x00\n      swap2\n      pop\n      swap1\n      pop\n      sload\n      dup2\n      jump\t// out\n        /* \"Contract/re.sol\":294:314  address public owner */\n    tag_76:\n      0x00\n      dup1\n      sload\n      swap1\n      0x0100\n      exp\n      swap1\n      div\n      0xffffffffffffffffffffffffffffffffffffffff\n      and\n      dup2\n      jump\t// out\n        /* \"Contract/re.sol\":1796:2060  function stake(uint _amount) external updateReward(msg.sender) {... */\n    tag_81:\n        /* \"Contract/re.sol\":1847:1857  msg.sender */\n      caller\n        /* \"Contract/re.sol\":1087:1103  rewardPerToken() */\n      tag_166\n        /* \"Contract/re.sol\":1087:1101  rewardPerToken */\n      tag_86\n        /* \"Contract/re.sol\":1087:1103  rewardPerToken() */\n      jump\t// in\n    tag_166:\n        /* \"Contract/re.sol\":1064:1084  rewardPerTokenStored */\n      0x05\n        /* \"Contract/re.sol\":1064:1103  rewardPerTokenStored = rewardPerToken() */\n      dup2\n      swap1\n      sstore\n      pop\n        /* \"Contract/re.sol\":1126:1152  lastTimeRewardApplicable() */\n      tag_167\n        /* \"Contract/re.sol\":1126:1150  lastTimeRewardApplicable */\n      tag_69\n        /* \"Contract/re.sol\":1126:1152  lastTimeRewardApplicable() */\n      jump\t// in\n    tag_167:\n        /* \"Contract/re.sol\":1114:1123  updatedAt */\n      0x03\n        /* \"Contract/re.sol\":1114:1152  updatedAt = lastTimeRewardApplicable() */\n      dup2\n      swap1\n      sstore\n      pop\n        /* \"Contract/re.sol\":1189:1190  0 */\n      0x00\n        /* \"Contract/re.sol\":1169:1191  _account != address(0) */\n      0xffffffffffffffffffffffffffffffffffffffff\n      and\n        /* \"Contract/re.sol\":1169:1177  _account */\n      dup2\n        /* \"Contract/re.sol\":1169:1191  _account != address(0) */\n      0xffffffffffffffffffffffffffffffffffffffff\n      and\n      eq\n        /* \"Contract/re.sol\":1165:1326  if (_account != address(0)) {... */\n      tag_168\n      jumpi\n        /* \"Contract/re.sol\":1228:1244  earned(_account) */\n      tag_169\n        /* \"Contract/re.sol\":1235:1243  _account */\n      dup2\n        /* \"Contract/re.sol\":1228:1234  earned */\n      tag_29\n        /* \"Contract/re.sol\":1228:1244  earned(_account) */\n      jump\t// in\n    tag_169:\n        /* \"Contract/re.sol\":1208:1215  rewards */\n      0x07\n        /* \"Contract/re.sol\":1208:1225  rewards[_account] */\n      0x00\n        /* \"Contract/re.sol\":1216:1224  _account */\n      dup4\n        /* \"Contract/re.sol\":1208:1225  rewards[_account] */\n      0xffffffffffffffffffffffffffffffffffffffff\n      and\n      0xffffffffffffffffffffffffffffffffffffffff\n      and\n      dup2\n      mstore\n      0x20\n      add\n      swap1\n      dup2\n      mstore\n      0x20\n      add\n      0x00\n      keccak256\n        /* \"Contract/re.sol\":1208:1244  rewards[_account] = earned(_account) */\n      dup2\n      swap1\n      sstore\n      pop\n        /* \"Contract/re.sol\":1294:1314  rewardPerTokenStored */\n      sload(0x05)\n        /* \"Contract/re.sol\":1259:1281  userRewardPerTokenPaid */\n      0x06\n        /* \"Contract/re.sol\":1259:1291  userRewardPerTokenPaid[_account] */\n      0x00\n        /* \"Contract/re.sol\":1282:1290  _account */\n      dup4\n        /* \"Contract/re.sol\":1259:1291  userRewardPerTokenPaid[_account] */\n      0xffffffffffffffffffffffffffffffffffffffff\n      and\n      0xffffffffffffffffffffffffffffffffffffffff\n      and\n      dup2\n      mstore\n      0x20\n      add\n      swap1\n      dup2\n      mstore\n      0x20\n      add\n      0x00\n      keccak256\n        /* \"Contract/re.sol\":1259:1314  userRewardPerTokenPaid[_account] = rewardPerTokenStored */\n      dup2\n      swap1\n      sstore\n      pop\n        /* \"Contract/re.sol\":1165:1326  if (_account != address(0)) {... */\n    tag_168:\n        /* \"Contract/re.sol\":1888:1889  0 */\n      0x00\n        /* \"Contract/re.sol\":1878:1885  _amount */\n      dup3\n        /* \"Contract/re.sol\":1878:1889  _amount > 0 */\n      gt\n        /* \"Contract/re.sol\":1870:1904  require(_amount > 0, \"amount = 0\") */\n      tag_171\n      jumpi\n      mload(0x40)\n      0x08c379a000000000000000000000000000000000000000000000000000000000\n      dup2\n      mstore\n      0x04\n      add\n      tag_172\n      swap1\n      tag_112\n      jump\t// in\n    tag_172:\n      mload(0x40)\n      dup1\n      swap2\n      sub\n      swap1\n      revert\n    tag_171:\n        /* \"Contract/re.sol\":1915:1927  stakingToken */\n      immutable(\"0x26a975632f70533c9512e57b565b8ce8e2befee6b08dfbc27c4a897a20e2c1d6\")\n        /* \"Contract/re.sol\":1915:1940  stakingToken.transferFrom */\n      0xffffffffffffffffffffffffffffffffffffffff\n      and\n      0x23b872dd\n        /* \"Contract/re.sol\":1941:1951  msg.sender */\n      caller\n        /* \"Contract/re.sol\":1961:1965  this */\n      address\n        /* \"Contract/re.sol\":1968:1975  _amount */\n      dup6\n        /* \"Contract/re.sol\":1915:1976  stakingToken.transferFrom(msg.sender, address(this), _amount) */\n      mload(0x40)\n      dup5\n      0xffffffff\n      and\n      0xe0\n      shl\n      dup2\n      mstore\n      0x04\n      add\n      tag_173\n      swap4\n      swap3\n      swap2\n      swap1\n      tag_174\n      jump\t// in\n    tag_173:\n      0x20\n      mload(0x40)\n      dup1\n      dup4\n      sub\n      dup2\n      0x00\n      dup8\n      gas\n      call\n      iszero\n      dup1\n      iszero\n      tag_176\n      jumpi\n      returndatasize\n      0x00\n      dup1\n      returndatacopy\n      revert(0x00, returndatasize)\n    tag_176:\n      pop\n      pop\n      pop\n      pop\n      mload(0x40)\n      returndatasize\n      not(0x1f)\n      0x1f\n      dup3\n      add\n      and\n      dup3\n      add\n      dup1\n      0x40\n      mstore\n      pop\n      dup2\n      add\n      swap1\n      tag_177\n      swap2\n      swap1\n      tag_120\n      jump\t// in\n    tag_177:\n      pop\n        /* \"Contract/re.sol\":2012:2019  _amount */\n      dup2\n        /* \"Contract/re.sol\":1987:1996  balanceOf */\n      0x09\n        /* \"Contract/re.sol\":1987:2008  balanceOf[msg.sender] */\n      0x00\n        /* \"Contract/re.sol\":1997:2007  msg.sender */\n      caller\n        /* \"Contract/re.sol\":1987:2008  balanceOf[msg.sender] */\n      0xffffffffffffffffffffffffffffffffffffffff\n      and\n      0xffffffffffffffffffffffffffffffffffffffff\n      and\n      dup2\n      mstore\n      0x20\n      add\n      swap1\n      dup2\n      mstore\n      0x20\n      add\n      0x00\n      keccak256\n      0x00\n        /* \"Contract/re.sol\":1987:2019  balanceOf[msg.sender] += _amount */\n      dup3\n      dup3\n      sload\n      tag_178\n      swap2\n      swap1\n      tag_103\n      jump\t// in\n    tag_178:\n      swap3\n      pop\n      pop\n      dup2\n      swap1\n      sstore\n      pop\n        /* \"Contract/re.sol\":2045:2052  _amount */\n      dup2\n        /* \"Contract/re.sol\":2030:2041  totalSupply */\n      0x08\n      0x00\n        /* \"Contract/re.sol\":2030:2052  totalSupply += _amount */\n      dup3\n      dup3\n      sload\n      tag_179\n      swap2\n      swap1\n      tag_103\n      jump\t// in\n    tag_179:\n      swap3\n      pop\n      pop\n      dup2\n      swap1\n      sstore\n      pop\n        /* \"Contract/re.sol\":1796:2060  function stake(uint _amount) external updateReward(msg.sender) {... */\n      pop\n      pop\n      jump\t// out\n        /* \"Contract/re.sol\":2815:2995  function setRewardsDuration(uint _duration) external onlyOwner {... */\n    tag_84:\n        /* \"Contract/re.sol\":961:966  owner */\n      0x00\n      dup1\n      sload\n      swap1\n      0x0100\n      exp\n      swap1\n      div\n      0xffffffffffffffffffffffffffffffffffffffff\n      and\n        /* \"Contract/re.sol\":947:966  msg.sender == owner */\n      0xffffffffffffffffffffffffffffffffffffffff\n      and\n        /* \"Contract/re.sol\":947:957  msg.sender */\n      caller\n        /* \"Contract/re.sol\":947:966  msg.sender == owner */\n      0xffffffffffffffffffffffffffffffffffffffff\n      and\n      eq\n        /* \"Contract/re.sol\":939:985  require(msg.sender == owner, \"not authorized\") */\n      tag_181\n      jumpi\n      mload(0x40)\n      0x08c379a000000000000000000000000000000000000000000000000000000000\n      dup2\n      mstore\n      0x04\n      add\n      tag_182\n      swap1\n      tag_124\n      jump\t// in\n    tag_182:\n      mload(0x40)\n      dup1\n      swap2\n      sub\n      swap1\n      revert\n    tag_181:\n        /* \"Contract/re.sol\":2908:2923  block.timestamp */\n      timestamp\n        /* \"Contract/re.sol\":2897:2905  finishAt */\n      sload(0x02)\n        /* \"Contract/re.sol\":2897:2923  finishAt < block.timestamp */\n      lt\n        /* \"Contract/re.sol\":2889:2956  require(finishAt < block.timestamp, \"reward duration not finished\") */\n      tag_184\n      jumpi\n      mload(0x40)\n      0x08c379a000000000000000000000000000000000000000000000000000000000\n      dup2\n      mstore\n      0x04\n      add\n      tag_185\n      swap1\n      tag_186\n      jump\t// in\n    tag_185:\n      mload(0x40)\n      dup1\n      swap2\n      sub\n      swap1\n      revert\n    tag_184:\n        /* \"Contract/re.sol\":2978:2987  _duration */\n      dup1\n        /* \"Contract/re.sol\":2967:2975  duration */\n      0x01\n        /* \"Contract/re.sol\":2967:2987  duration = _duration */\n      dup2\n      swap1\n      sstore\n      pop\n        /* \"Contract/re.sol\":2815:2995  function setRewardsDuration(uint _duration) external onlyOwner {... */\n      pop\n      jump\t// out\n        /* \"Contract/re.sol\":1483:1788  function rewardPerToken() public view returns (uint) {... */\n    tag_86:\n        /* \"Contract/re.sol\":1530:1534  uint */\n      0x00\n        /* \"Contract/re.sol\":1566:1567  0 */\n      dup1\n        /* \"Contract/re.sol\":1551:1562  totalSupply */\n      sload(0x08)\n        /* \"Contract/re.sol\":1551:1567  totalSupply == 0 */\n      sub\n        /* \"Contract/re.sol\":1547:1623  if (totalSupply == 0) {... */\n      tag_188\n      jumpi\n        /* \"Contract/re.sol\":1591:1611  rewardPerTokenStored */\n      sload(0x05)\n        /* \"Contract/re.sol\":1584:1611  return rewardPerTokenStored */\n      swap1\n      pop\n      jump(tag_187)\n        /* \"Contract/re.sol\":1547:1623  if (totalSupply == 0) {... */\n    tag_188:\n        /* \"Contract/re.sol\":1769:1780  totalSupply */\n      sload(0x08)\n        /* \"Contract/re.sol\":1748:1752  1e18 */\n      0x0de0b6b3a7640000\n        /* \"Contract/re.sol\":1735:1744  updatedAt */\n      sload(0x03)\n        /* \"Contract/re.sol\":1706:1732  lastTimeRewardApplicable() */\n      tag_189\n        /* \"Contract/re.sol\":1706:1730  lastTimeRewardApplicable */\n      tag_69\n        /* \"Contract/re.sol\":1706:1732  lastTimeRewardApplicable() */\n      jump\t// in\n    tag_189:\n        /* \"Contract/re.sol\":1706:1744  lastTimeRewardApplicable() - updatedAt */\n      tag_190\n      swap2\n      swap1\n      tag_97\n      jump\t// in\n    tag_190:\n        /* \"Contract/re.sol\":1692:1702  rewardRate */\n      sload(0x04)\n        /* \"Contract/re.sol\":1692:1745  rewardRate * (lastTimeRewardApplicable() - updatedAt) */\n      tag_191\n      swap2\n      swap1\n      tag_99\n      jump\t// in\n    tag_191:\n        /* \"Contract/re.sol\":1692:1752  rewardRate * (lastTimeRewardApplicable() - updatedAt) * 1e18 */\n      tag_192\n      swap2\n      swap1\n      tag_99\n      jump\t// in\n    tag_192:\n        /* \"Contract/re.sol\":1691:1780  (rewardRate * (lastTimeRewardApplicable() - updatedAt) * 1e18) /... */\n      tag_193\n      swap2\n      swap1\n      tag_101\n      jump\t// in\n    tag_193:\n        /* \"Contract/re.sol\":1655:1675  rewardPerTokenStored */\n      sload(0x05)\n        /* \"Contract/re.sol\":1655:1780  rewardPerTokenStored +... */\n      tag_194\n      swap2\n      swap1\n      tag_103\n      jump\t// in\n    tag_194:\n        /* \"Contract/re.sol\":1635:1780  return... */\n      swap1\n      pop\n        /* \"Contract/re.sol\":1483:1788  function rewardPerToken() public view returns (uint) {... */\n    tag_187:\n      swap1\n      jump\t// out\n        /* \"Contract/re.sol\":249:285  IERC20 public immutable rewardsToken */\n    tag_89:\n      immutable(\"0xcfe93e00cbaaf37bad5f0b2ff3ab98072b4f3a2656e148b3bcccb553f2fa678f\")\n      dup2\n      jump\t// out\n        /* \"Contract/re.sol\":467:499  uint public rewardPerTokenStored */\n    tag_92:\n      sload(0x05)\n      dup2\n      jump\t// out\n        /* \"Contract/re.sol\":3676:3774  function _min(uint x, uint y) private pure returns (uint) {... */\n    tag_164:\n        /* \"Contract/re.sol\":3728:3732  uint */\n      0x00\n        /* \"Contract/re.sol\":3757:3758  y */\n      dup2\n        /* \"Contract/re.sol\":3752:3753  x */\n      dup4\n        /* \"Contract/re.sol\":3752:3758  x <= y */\n      gt\n      iszero\n        /* \"Contract/re.sol\":3752:3766  x <= y ? x : y */\n      tag_196\n      jumpi\n        /* \"Contract/re.sol\":3765:3766  y */\n      dup2\n        /* \"Contract/re.sol\":3752:3766  x <= y ? x : y */\n      jump(tag_197)\n    tag_196:\n        /* \"Contract/re.sol\":3761:3762  x */\n      dup3\n        /* \"Contract/re.sol\":3752:3766  x <= y ? x : y */\n    tag_197:\n        /* \"Contract/re.sol\":3745:3766  return x <= y ? x : y */\n      swap1\n      pop\n        /* \"Contract/re.sol\":3676:3774  function _min(uint x, uint y) private pure returns (uint) {... */\n      swap3\n      swap2\n      pop\n      pop\n      jump\t// out\n        /* \"#utility.yul\":88:205   */\n    tag_199:\n        /* \"#utility.yul\":197:198   */\n      0x00\n        /* \"#utility.yul\":194:195   */\n      dup1\n        /* \"#utility.yul\":187:199   */\n      revert\n        /* \"#utility.yul\":334:460   */\n    tag_201:\n        /* \"#utility.yul\":371:378   */\n      0x00\n        /* \"#utility.yul\":411:453   */\n      0xffffffffffffffffffffffffffffffffffffffff\n        /* \"#utility.yul\":404:409   */\n      dup3\n        /* \"#utility.yul\":400:454   */\n      and\n        /* \"#utility.yul\":389:454   */\n      swap1\n      pop\n        /* \"#utility.yul\":334:460   */\n      swap2\n      swap1\n      pop\n      jump\t// out\n        /* \"#utility.yul\":466:562   */\n    tag_202:\n        /* \"#utility.yul\":503:510   */\n      0x00\n        /* \"#utility.yul\":532:556   */\n      tag_238\n        /* \"#utility.yul\":550:555   */\n      dup3\n        /* \"#utility.yul\":532:556   */\n      tag_201\n      jump\t// in\n    tag_238:\n        /* \"#utility.yul\":521:556   */\n      swap1\n      pop\n        /* \"#utility.yul\":466:562   */\n      swap2\n      swap1\n      pop\n      jump\t// out\n        /* \"#utility.yul\":568:690   */\n    tag_203:\n        /* \"#utility.yul\":641:665   */\n      tag_240\n        /* \"#utility.yul\":659:664   */\n      dup2\n        /* \"#utility.yul\":641:665   */\n      tag_202\n      jump\t// in\n    tag_240:\n        /* \"#utility.yul\":634:639   */\n      dup2\n        /* \"#utility.yul\":631:666   */\n      eq\n        /* \"#utility.yul\":621:684   */\n      tag_241\n      jumpi\n        /* \"#utility.yul\":680:681   */\n      0x00\n        /* \"#utility.yul\":677:678   */\n      dup1\n        /* \"#utility.yul\":670:682   */\n      revert\n        /* \"#utility.yul\":621:684   */\n    tag_241:\n        /* \"#utility.yul\":568:690   */\n      pop\n      jump\t// out\n        /* \"#utility.yul\":696:835   */\n    tag_204:\n        /* \"#utility.yul\":742:747   */\n      0x00\n        /* \"#utility.yul\":780:786   */\n      dup2\n        /* \"#utility.yul\":767:787   */\n      calldataload\n        /* \"#utility.yul\":758:787   */\n      swap1\n      pop\n        /* \"#utility.yul\":796:829   */\n      tag_243\n        /* \"#utility.yul\":823:828   */\n      dup2\n        /* \"#utility.yul\":796:829   */\n      tag_203\n      jump\t// in\n    tag_243:\n        /* \"#utility.yul\":696:835   */\n      swap3\n      swap2\n      pop\n      pop\n      jump\t// out\n        /* \"#utility.yul\":841:1170   */\n    tag_28:\n        /* \"#utility.yul\":900:906   */\n      0x00\n        /* \"#utility.yul\":949:951   */\n      0x20\n        /* \"#utility.yul\":937:946   */\n      dup3\n        /* \"#utility.yul\":928:935   */\n      dup5\n        /* \"#utility.yul\":924:947   */\n      sub\n        /* \"#utility.yul\":920:952   */\n      slt\n        /* \"#utility.yul\":917:1036   */\n      iszero\n      tag_245\n      jumpi\n        /* \"#utility.yul\":955:1034   */\n      tag_246\n      tag_199\n      jump\t// in\n    tag_246:\n        /* \"#utility.yul\":917:1036   */\n    tag_245:\n        /* \"#utility.yul\":1075:1076   */\n      0x00\n        /* \"#utility.yul\":1100:1153   */\n      tag_247\n        /* \"#utility.yul\":1145:1152   */\n      dup5\n        /* \"#utility.yul\":1136:1142   */\n      dup3\n        /* \"#utility.yul\":1125:1134   */\n      dup6\n        /* \"#utility.yul\":1121:1143   */\n      add\n        /* \"#utility.yul\":1100:1153   */\n      tag_204\n      jump\t// in\n    tag_247:\n        /* \"#utility.yul\":1090:1153   */\n      swap2\n      pop\n        /* \"#utility.yul\":1046:1163   */\n      pop\n        /* \"#utility.yul\":841:1170   */\n      swap3\n      swap2\n      pop\n      pop\n      jump\t// out\n        /* \"#utility.yul\":1176:1253   */\n    tag_205:\n        /* \"#utility.yul\":1213:1220   */\n      0x00\n        /* \"#utility.yul\":1242:1247   */\n      dup2\n        /* \"#utility.yul\":1231:1247   */\n      swap1\n      pop\n        /* \"#utility.yul\":1176:1253   */\n      swap2\n      swap1\n      pop\n      jump\t// out\n        /* \"#utility.yul\":1259:1377   */\n    tag_206:\n        /* \"#utility.yul\":1346:1370   */\n      tag_250\n        /* \"#utility.yul\":1364:1369   */\n      dup2\n        /* \"#utility.yul\":1346:1370   */\n      tag_205\n      jump\t// in\n    tag_250:\n        /* \"#utility.yul\":1341:1344   */\n      dup3\n        /* \"#utility.yul\":1334:1371   */\n      mstore\n        /* \"#utility.yul\":1259:1377   */\n      pop\n      pop\n      jump\t// out\n        /* \"#utility.yul\":1383:1605   */\n    tag_31:\n        /* \"#utility.yul\":1476:1480   */\n      0x00\n        /* \"#utility.yul\":1514:1516   */\n      0x20\n        /* \"#utility.yul\":1503:1512   */\n      dup3\n        /* \"#utility.yul\":1499:1517   */\n      add\n        /* \"#utility.yul\":1491:1517   */\n      swap1\n      pop\n        /* \"#utility.yul\":1527:1598   */\n      tag_252\n        /* \"#utility.yul\":1595:1596   */\n      0x00\n        /* \"#utility.yul\":1584:1593   */\n      dup4\n        /* \"#utility.yul\":1580:1597   */\n      add\n        /* \"#utility.yul\":1571:1577   */\n      dup5\n        /* \"#utility.yul\":1527:1598   */\n      tag_206\n      jump\t// in\n    tag_252:\n        /* \"#utility.yul\":1383:1605   */\n      swap3\n      swap2\n      pop\n      pop\n      jump\t// out\n        /* \"#utility.yul\":1611:1733   */\n    tag_207:\n        /* \"#utility.yul\":1684:1708   */\n      tag_254\n        /* \"#utility.yul\":1702:1707   */\n      dup2\n        /* \"#utility.yul\":1684:1708   */\n      tag_205\n      jump\t// in\n    tag_254:\n        /* \"#utility.yul\":1677:1682   */\n      dup2\n        /* \"#utility.yul\":1674:1709   */\n      eq\n        /* \"#utility.yul\":1664:1727   */\n      tag_255\n      jumpi\n        /* \"#utility.yul\":1723:1724   */\n      0x00\n        /* \"#utility.yul\":1720:1721   */\n      dup1\n        /* \"#utility.yul\":1713:1725   */\n      revert\n        /* \"#utility.yul\":1664:1727   */\n    tag_255:\n        /* \"#utility.yul\":1611:1733   */\n      pop\n      jump\t// out\n        /* \"#utility.yul\":1739:1878   */\n    tag_208:\n        /* \"#utility.yul\":1785:1790   */\n      0x00\n        /* \"#utility.yul\":1823:1829   */\n      dup2\n        /* \"#utility.yul\":1810:1830   */\n      calldataload\n        /* \"#utility.yul\":1801:1830   */\n      swap1\n      pop\n        /* \"#utility.yul\":1839:1872   */\n      tag_257\n        /* \"#utility.yul\":1866:1871   */\n      dup2\n        /* \"#utility.yul\":1839:1872   */\n      tag_207\n      jump\t// in\n    tag_257:\n        /* \"#utility.yul\":1739:1878   */\n      swap3\n      swap2\n      pop\n      pop\n      jump\t// out\n        /* \"#utility.yul\":1884:2213   */\n    tag_44:\n        /* \"#utility.yul\":1943:1949   */\n      0x00\n        /* \"#utility.yul\":1992:1994   */\n      0x20\n        /* \"#utility.yul\":1980:1989   */\n      dup3\n        /* \"#utility.yul\":1971:1978   */\n      dup5\n        /* \"#utility.yul\":1967:1990   */\n      sub\n        /* \"#utility.yul\":1963:1995   */\n      slt\n        /* \"#utility.yul\":1960:2079   */\n      iszero\n      tag_259\n      jumpi\n        /* \"#utility.yul\":1998:2077   */\n      tag_260\n      tag_199\n      jump\t// in\n    tag_260:\n        /* \"#utility.yul\":1960:2079   */\n    tag_259:\n        /* \"#utility.yul\":2118:2119   */\n      0x00\n        /* \"#utility.yul\":2143:2196   */\n      tag_261\n        /* \"#utility.yul\":2188:2195   */\n      dup5\n        /* \"#utility.yul\":2179:2185   */\n      dup3\n        /* \"#utility.yul\":2168:2177   */\n      dup6\n        /* \"#utility.yul\":2164:2186   */\n      add\n        /* \"#utility.yul\":2143:2196   */\n      tag_208\n      jump\t// in\n    tag_261:\n        /* \"#utility.yul\":2133:2196   */\n      swap2\n      pop\n        /* \"#utility.yul\":2089:2206   */\n      pop\n        /* \"#utility.yul\":1884:2213   */\n      swap3\n      swap2\n      pop\n      pop\n      jump\t// out\n        /* \"#utility.yul\":2219:2279   */\n    tag_209:\n        /* \"#utility.yul\":2247:2250   */\n      0x00\n        /* \"#utility.yul\":2268:2273   */\n      dup2\n        /* \"#utility.yul\":2261:2273   */\n      swap1\n      pop\n        /* \"#utility.yul\":2219:2279   */\n      swap2\n      swap1\n      pop\n      jump\t// out\n        /* \"#utility.yul\":2285:2427   */\n    tag_210:\n        /* \"#utility.yul\":2335:2344   */\n      0x00\n        /* \"#utility.yul\":2368:2421   */\n      tag_264\n        /* \"#utility.yul\":2386:2420   */\n      tag_265\n        /* \"#utility.yul\":2395:2419   */\n      tag_266\n        /* \"#utility.yul\":2413:2418   */\n      dup5\n        /* \"#utility.yul\":2395:2419   */\n      tag_201\n      jump\t// in\n    tag_266:\n        /* \"#utility.yul\":2386:2420   */\n      tag_209\n      jump\t// in\n    tag_265:\n        /* \"#utility.yul\":2368:2421   */\n      tag_201\n      jump\t// in\n    tag_264:\n        /* \"#utility.yul\":2355:2421   */\n      swap1\n      pop\n        /* \"#utility.yul\":2285:2427   */\n      swap2\n      swap1\n      pop\n      jump\t// out\n        /* \"#utility.yul\":2433:2559   */\n    tag_211:\n        /* \"#utility.yul\":2483:2492   */\n      0x00\n        /* \"#utility.yul\":2516:2553   */\n      tag_268\n        /* \"#utility.yul\":2547:2552   */\n      dup3\n        /* \"#utility.yul\":2516:2553   */\n      tag_210\n      jump\t// in\n    tag_268:\n        /* \"#utility.yul\":2503:2553   */\n      swap1\n      pop\n        /* \"#utility.yul\":2433:2559   */\n      swap2\n      swap1\n      pop\n      jump\t// out\n        /* \"#utility.yul\":2565:2705   */\n    tag_212:\n        /* \"#utility.yul\":2629:2638   */\n      0x00\n        /* \"#utility.yul\":2662:2699   */\n      tag_270\n        /* \"#utility.yul\":2693:2698   */\n      dup3\n        /* \"#utility.yul\":2662:2699   */\n      tag_211\n      jump\t// in\n    tag_270:\n        /* \"#utility.yul\":2649:2699   */\n      swap1\n      pop\n        /* \"#utility.yul\":2565:2705   */\n      swap2\n      swap1\n      pop\n      jump\t// out\n        /* \"#utility.yul\":2711:2870   */\n    tag_213:\n        /* \"#utility.yul\":2812:2863   */\n      tag_272\n        /* \"#utility.yul\":2857:2862   */\n      dup2\n        /* \"#utility.yul\":2812:2863   */\n      tag_212\n      jump\t// in\n    tag_272:\n        /* \"#utility.yul\":2807:2810   */\n      dup3\n        /* \"#utility.yul\":2800:2864   */\n      mstore\n        /* \"#utility.yul\":2711:2870   */\n      pop\n      pop\n      jump\t// out\n        /* \"#utility.yul\":2876:3126   */\n    tag_61:\n        /* \"#utility.yul\":2983:2987   */\n      0x00\n        /* \"#utility.yul\":3021:3023   */\n      0x20\n        /* \"#utility.yul\":3010:3019   */\n      dup3\n        /* \"#utility.yul\":3006:3024   */\n      add\n        /* \"#utility.yul\":2998:3024   */\n      swap1\n      pop\n        /* \"#utility.yul\":3034:3119   */\n      tag_274\n        /* \"#utility.yul\":3116:3117   */\n      0x00\n        /* \"#utility.yul\":3105:3114   */\n      dup4\n        /* \"#utility.yul\":3101:3118   */\n      add\n        /* \"#utility.yul\":3092:3098   */\n      dup5\n        /* \"#utility.yul\":3034:3119   */\n      tag_213\n      jump\t// in\n    tag_274:\n        /* \"#utility.yul\":2876:3126   */\n      swap3\n      swap2\n      pop\n      pop\n      jump\t// out\n        /* \"#utility.yul\":3132:3250   */\n    tag_214:\n        /* \"#utility.yul\":3219:3243   */\n      tag_276\n        /* \"#utility.yul\":3237:3242   */\n      dup2\n        /* \"#utility.yul\":3219:3243   */\n      tag_202\n      jump\t// in\n    tag_276:\n        /* \"#utility.yul\":3214:3217   */\n      dup3\n        /* \"#utility.yul\":3207:3244   */\n      mstore\n        /* \"#utility.yul\":3132:3250   */\n      pop\n      pop\n      jump\t// out\n        /* \"#utility.yul\":3256:3478   */\n    tag_78:\n        /* \"#utility.yul\":3349:3353   */\n      0x00\n        /* \"#utility.yul\":3387:3389   */\n      0x20\n        /* \"#utility.yul\":3376:3385   */\n      dup3\n        /* \"#utility.yul\":3372:3390   */\n      add\n        /* \"#utility.yul\":3364:3390   */\n      swap1\n      pop\n        /* \"#utility.yul\":3400:3471   */\n      tag_278\n        /* \"#utility.yul\":3468:3469   */\n      0x00\n        /* \"#utility.yul\":3457:3466   */\n      dup4\n        /* \"#utility.yul\":3453:3470   */\n      add\n        /* \"#utility.yul\":3444:3450   */\n      dup5\n        /* \"#utility.yul\":3400:3471   */\n      tag_214\n      jump\t// in\n    tag_278:\n        /* \"#utility.yul\":3256:3478   */\n      swap3\n      swap2\n      pop\n      pop\n      jump\t// out\n        /* \"#utility.yul\":3484:3664   */\n    tag_215:\n        /* \"#utility.yul\":3532:3609   */\n      0x4e487b7100000000000000000000000000000000000000000000000000000000\n        /* \"#utility.yul\":3529:3530   */\n      0x00\n        /* \"#utility.yul\":3522:3610   */\n      mstore\n        /* \"#utility.yul\":3629:3633   */\n      0x11\n        /* \"#utility.yul\":3626:3627   */\n      0x04\n        /* \"#utility.yul\":3619:3634   */\n      mstore\n        /* \"#utility.yul\":3653:3657   */\n      0x24\n        /* \"#utility.yul\":3650:3651   */\n      0x00\n        /* \"#utility.yul\":3643:3658   */\n      revert\n        /* \"#utility.yul\":3670:3864   */\n    tag_97:\n        /* \"#utility.yul\":3710:3714   */\n      0x00\n        /* \"#utility.yul\":3730:3750   */\n      tag_281\n        /* \"#utility.yul\":3748:3749   */\n      dup3\n        /* \"#utility.yul\":3730:3750   */\n      tag_205\n      jump\t// in\n    tag_281:\n        /* \"#utility.yul\":3725:3750   */\n      swap2\n      pop\n        /* \"#utility.yul\":3764:3784   */\n      tag_282\n        /* \"#utility.yul\":3782:3783   */\n      dup4\n        /* \"#utility.yul\":3764:3784   */\n      tag_205\n      jump\t// in\n    tag_282:\n        /* \"#utility.yul\":3759:3784   */\n      swap3\n      pop\n        /* \"#utility.yul\":3808:3809   */\n      dup3\n        /* \"#utility.yul\":3805:3806   */\n      dup3\n        /* \"#utility.yul\":3801:3810   */\n      sub\n        /* \"#utility.yul\":3793:3810   */\n      swap1\n      pop\n        /* \"#utility.yul\":3832:3833   */\n      dup2\n        /* \"#utility.yul\":3826:3830   */\n      dup2\n        /* \"#utility.yul\":3823:3834   */\n      gt\n        /* \"#utility.yul\":3820:3857   */\n      iszero\n      tag_283\n      jumpi\n        /* \"#utility.yul\":3837:3855   */\n      tag_284\n      tag_215\n      jump\t// in\n    tag_284:\n        /* \"#utility.yul\":3820:3857   */\n    tag_283:\n        /* \"#utility.yul\":3670:3864   */\n      swap3\n      swap2\n      pop\n      pop\n      jump\t// out\n        /* \"#utility.yul\":3870:4280   */\n    tag_99:\n        /* \"#utility.yul\":3910:3917   */\n      0x00\n        /* \"#utility.yul\":3933:3953   */\n      tag_286\n        /* \"#utility.yul\":3951:3952   */\n      dup3\n        /* \"#utility.yul\":3933:3953   */\n      tag_205\n      jump\t// in\n    tag_286:\n        /* \"#utility.yul\":3928:3953   */\n      swap2\n      pop\n        /* \"#utility.yul\":3967:3987   */\n      tag_287\n        /* \"#utility.yul\":3985:3986   */\n      dup4\n        /* \"#utility.yul\":3967:3987   */\n      tag_205\n      jump\t// in\n    tag_287:\n        /* \"#utility.yul\":3962:3987   */\n      swap3\n      pop\n        /* \"#utility.yul\":4022:4023   */\n      dup3\n        /* \"#utility.yul\":4019:4020   */\n      dup3\n        /* \"#utility.yul\":4015:4024   */\n      mul\n        /* \"#utility.yul\":4044:4074   */\n      tag_288\n        /* \"#utility.yul\":4062:4073   */\n      dup2\n        /* \"#utility.yul\":4044:4074   */\n      tag_205\n      jump\t// in\n    tag_288:\n        /* \"#utility.yul\":4033:4074   */\n      swap2\n      pop\n        /* \"#utility.yul\":4223:4224   */\n      dup3\n        /* \"#utility.yul\":4214:4221   */\n      dup3\n        /* \"#utility.yul\":4210:4225   */\n      div\n        /* \"#utility.yul\":4207:4208   */\n      dup5\n        /* \"#utility.yul\":4204:4226   */\n      eq\n        /* \"#utility.yul\":4184:4185   */\n      dup4\n        /* \"#utility.yul\":4177:4186   */\n      iszero\n        /* \"#utility.yul\":4157:4240   */\n      or\n        /* \"#utility.yul\":4134:4273   */\n      tag_289\n      jumpi\n        /* \"#utility.yul\":4253:4271   */\n      tag_290\n      tag_215\n      jump\t// in\n    tag_290:\n        /* \"#utility.yul\":4134:4273   */\n    tag_289:\n        /* \"#utility.yul\":3918:4280   */\n      pop\n        /* \"#utility.yul\":3870:4280   */\n      swap3\n      swap2\n      pop\n      pop\n      jump\t// out\n        /* \"#utility.yul\":4286:4466   */\n    tag_216:\n        /* \"#utility.yul\":4334:4411   */\n      0x4e487b7100000000000000000000000000000000000000000000000000000000\n        /* \"#utility.yul\":4331:4332   */\n      0x00\n        /* \"#utility.yul\":4324:4412   */\n      mstore\n        /* \"#utility.yul\":4431:4435   */\n      0x12\n        /* \"#utility.yul\":4428:4429   */\n      0x04\n        /* \"#utility.yul\":4421:4436   */\n      mstore\n        /* \"#utility.yul\":4455:4459   */\n      0x24\n        /* \"#utility.yul\":4452:4453   */\n      0x00\n        /* \"#utility.yul\":4445:4460   */\n      revert\n        /* \"#utility.yul\":4472:4657   */\n    tag_101:\n        /* \"#utility.yul\":4512:4513   */\n      0x00\n        /* \"#utility.yul\":4529:4549   */\n      tag_293\n        /* \"#utility.yul\":4547:4548   */\n      dup3\n        /* \"#utility.yul\":4529:4549   */\n      tag_205\n      jump\t// in\n    tag_293:\n        /* \"#utility.yul\":4524:4549   */\n      swap2\n      pop\n        /* \"#utility.yul\":4563:4583   */\n      tag_294\n        /* \"#utility.yul\":4581:4582   */\n      dup4\n        /* \"#utility.yul\":4563:4583   */\n      tag_205\n      jump\t// in\n    tag_294:\n        /* \"#utility.yul\":4558:4583   */\n      swap3\n      pop\n        /* \"#utility.yul\":4602:4603   */\n      dup3\n        /* \"#utility.yul\":4592:4627   */\n      tag_295\n      jumpi\n        /* \"#utility.yul\":4607:4625   */\n      tag_296\n      tag_216\n      jump\t// in\n    tag_296:\n        /* \"#utility.yul\":4592:4627   */\n    tag_295:\n        /* \"#utility.yul\":4649:4650   */\n      dup3\n        /* \"#utility.yul\":4646:4647   */\n      dup3\n        /* \"#utility.yul\":4642:4651   */\n      div\n        /* \"#utility.yul\":4637:4651   */\n      swap1\n      pop\n        /* \"#utility.yul\":4472:4657   */\n      swap3\n      swap2\n      pop\n      pop\n      jump\t// out\n        /* \"#utility.yul\":4663:4854   */\n    tag_103:\n        /* \"#utility.yul\":4703:4706   */\n      0x00\n        /* \"#utility.yul\":4722:4742   */\n      tag_298\n        /* \"#utility.yul\":4740:4741   */\n      dup3\n        /* \"#utility.yul\":4722:4742   */\n      tag_205\n      jump\t// in\n    tag_298:\n        /* \"#utility.yul\":4717:4742   */\n      swap2\n      pop\n        /* \"#utility.yul\":4756:4776   */\n      tag_299\n        /* \"#utility.yul\":4774:4775   */\n      dup4\n        /* \"#utility.yul\":4756:4776   */\n      tag_205\n      jump\t// in\n    tag_299:\n        /* \"#utility.yul\":4751:4776   */\n      swap3\n      pop\n        /* \"#utility.yul\":4799:4800   */\n      dup3\n        /* \"#utility.yul\":4796:4797   */\n      dup3\n        /* \"#utility.yul\":4792:4801   */\n      add\n        /* \"#utility.yul\":4785:4801   */\n      swap1\n      pop\n        /* \"#utility.yul\":4820:4823   */\n      dup1\n        /* \"#utility.yul\":4817:4818   */\n      dup3\n        /* \"#utility.yul\":4814:4824   */\n      gt\n        /* \"#utility.yul\":4811:4847   */\n      iszero\n      tag_300\n      jumpi\n        /* \"#utility.yul\":4827:4845   */\n      tag_301\n      tag_215\n      jump\t// in\n    tag_301:\n        /* \"#utility.yul\":4811:4847   */\n    tag_300:\n        /* \"#utility.yul\":4663:4854   */\n      swap3\n      swap2\n      pop\n      pop\n      jump\t// out\n        /* \"#utility.yul\":4860:5029   */\n    tag_217:\n        /* \"#utility.yul\":4944:4955   */\n      0x00\n        /* \"#utility.yul\":4978:4984   */\n      dup3\n        /* \"#utility.yul\":4973:4976   */\n      dup3\n        /* \"#utility.yul\":4966:4985   */\n      mstore\n        /* \"#utility.yul\":5018:5022   */\n      0x20\n        /* \"#utility.yul\":5013:5016   */\n      dup3\n        /* \"#utility.yul\":5009:5023   */\n      add\n        /* \"#utility.yul\":4994:5023   */\n      swap1\n      pop\n        /* \"#utility.yul\":4860:5029   */\n      swap3\n      swap2\n      pop\n      pop\n      jump\t// out\n        /* \"#utility.yul\":5035:5195   */\n    tag_218:\n        /* \"#utility.yul\":5175:5187   */\n      0x616d6f756e74203d203000000000000000000000000000000000000000000000\n        /* \"#utility.yul\":5171:5172   */\n      0x00\n        /* \"#utility.yul\":5163:5169   */\n      dup3\n        /* \"#utility.yul\":5159:5173   */\n      add\n        /* \"#utility.yul\":5152:5188   */\n      mstore\n        /* \"#utility.yul\":5035:5195   */\n      pop\n      jump\t// out\n        /* \"#utility.yul\":5201:5567   */\n    tag_219:\n        /* \"#utility.yul\":5343:5346   */\n      0x00\n        /* \"#utility.yul\":5364:5431   */\n      tag_305\n        /* \"#utility.yul\":5428:5430   */\n      0x0a\n        /* \"#utility.yul\":5423:5426   */\n      dup4\n        /* \"#utility.yul\":5364:5431   */\n      tag_217\n      jump\t// in\n    tag_305:\n        /* \"#utility.yul\":5357:5431   */\n      swap2\n      pop\n        /* \"#utility.yul\":5440:5533   */\n      tag_306\n        /* \"#utility.yul\":5529:5532   */\n      dup3\n        /* \"#utility.yul\":5440:5533   */\n      tag_218\n      jump\t// in\n    tag_306:\n        /* \"#utility.yul\":5558:5560   */\n      0x20\n        /* \"#utility.yul\":5553:5556   */\n      dup3\n        /* \"#utility.yul\":5549:5561   */\n      add\n        /* \"#utility.yul\":5542:5561   */\n      swap1\n      pop\n        /* \"#utility.yul\":5201:5567   */\n      swap2\n      swap1\n      pop\n      jump\t// out\n        /* \"#utility.yul\":5573:5992   */\n    tag_112:\n        /* \"#utility.yul\":5739:5743   */\n      0x00\n        /* \"#utility.yul\":5777:5779   */\n      0x20\n        /* \"#utility.yul\":5766:5775   */\n      dup3\n        /* \"#utility.yul\":5762:5780   */\n      add\n        /* \"#utility.yul\":5754:5780   */\n      swap1\n      pop\n        /* \"#utility.yul\":5826:5835   */\n      dup2\n        /* \"#utility.yul\":5820:5824   */\n      dup2\n        /* \"#utility.yul\":5816:5836   */\n      sub\n        /* \"#utility.yul\":5812:5813   */\n      0x00\n        /* \"#utility.yul\":5801:5810   */\n      dup4\n        /* \"#utility.yul\":5797:5814   */\n      add\n        /* \"#utility.yul\":5790:5837   */\n      mstore\n        /* \"#utility.yul\":5854:5985   */\n      tag_308\n        /* \"#utility.yul\":5980:5984   */\n      dup2\n        /* \"#utility.yul\":5854:5985   */\n      tag_219\n      jump\t// in\n    tag_308:\n        /* \"#utility.yul\":5846:5985   */\n      swap1\n      pop\n        /* \"#utility.yul\":5573:5992   */\n      swap2\n      swap1\n      pop\n      jump\t// out\n        /* \"#utility.yul\":5998:6330   */\n    tag_116:\n        /* \"#utility.yul\":6119:6123   */\n      0x00\n        /* \"#utility.yul\":6157:6159   */\n      0x40\n        /* \"#utility.yul\":6146:6155   */\n      dup3\n        /* \"#utility.yul\":6142:6160   */\n      add\n        /* \"#utility.yul\":6134:6160   */\n      swap1\n      pop\n        /* \"#utility.yul\":6170:6241   */\n      tag_310\n        /* \"#utility.yul\":6238:6239   */\n      0x00\n        /* \"#utility.yul\":6227:6236   */\n      dup4\n        /* \"#utility.yul\":6223:6240   */\n      add\n        /* \"#utility.yul\":6214:6220   */\n      dup6\n        /* \"#utility.yul\":6170:6241   */\n      tag_214\n      jump\t// in\n    tag_310:\n        /* \"#utility.yul\":6251:6323   */\n      tag_311\n        /* \"#utility.yul\":6319:6321   */\n      0x20\n        /* \"#utility.yul\":6308:6317   */\n      dup4\n        /* \"#utility.yul\":6304:6322   */\n      add\n        /* \"#utility.yul\":6295:6301   */\n      dup5\n        /* \"#utility.yul\":6251:6323   */\n      tag_206\n      jump\t// in\n    tag_311:\n        /* \"#utility.yul\":5998:6330   */\n      swap4\n      swap3\n      pop\n      pop\n      pop\n      jump\t// out\n        /* \"#utility.yul\":6336:6426   */\n    tag_220:\n        /* \"#utility.yul\":6370:6377   */\n      0x00\n        /* \"#utility.yul\":6413:6418   */\n      dup2\n        /* \"#utility.yul\":6406:6419   */\n      iszero\n        /* \"#utility.yul\":6399:6420   */\n      iszero\n        /* \"#utility.yul\":6388:6420   */\n      swap1\n      pop\n        /* \"#utility.yul\":6336:6426   */\n      swap2\n      swap1\n      pop\n      jump\t// out\n        /* \"#utility.yul\":6432:6548   */\n    tag_221:\n        /* \"#utility.yul\":6502:6523   */\n      tag_314\n        /* \"#utility.yul\":6517:6522   */\n      dup2\n        /* \"#utility.yul\":6502:6523   */\n      tag_220\n      jump\t// in\n    tag_314:\n        /* \"#utility.yul\":6495:6500   */\n      dup2\n        /* \"#utility.yul\":6492:6524   */\n      eq\n        /* \"#utility.yul\":6482:6542   */\n      tag_315\n      jumpi\n        /* \"#utility.yul\":6538:6539   */\n      0x00\n        /* \"#utility.yul\":6535:6536   */\n      dup1\n        /* \"#utility.yul\":6528:6540   */\n      revert\n        /* \"#utility.yul\":6482:6542   */\n    tag_315:\n        /* \"#utility.yul\":6432:6548   */\n      pop\n      jump\t// out\n        /* \"#utility.yul\":6554:6691   */\n    tag_222:\n        /* \"#utility.yul\":6608:6613   */\n      0x00\n        /* \"#utility.yul\":6639:6645   */\n      dup2\n        /* \"#utility.yul\":6633:6646   */\n      mload\n        /* \"#utility.yul\":6624:6646   */\n      swap1\n      pop\n        /* \"#utility.yul\":6655:6685   */\n      tag_317\n        /* \"#utility.yul\":6679:6684   */\n      dup2\n        /* \"#utility.yul\":6655:6685   */\n      tag_221\n      jump\t// in\n    tag_317:\n        /* \"#utility.yul\":6554:6691   */\n      swap3\n      swap2\n      pop\n      pop\n      jump\t// out\n        /* \"#utility.yul\":6697:7042   */\n    tag_120:\n        /* \"#utility.yul\":6764:6770   */\n      0x00\n        /* \"#utility.yul\":6813:6815   */\n      0x20\n        /* \"#utility.yul\":6801:6810   */\n      dup3\n        /* \"#utility.yul\":6792:6799   */\n      dup5\n        /* \"#utility.yul\":6788:6811   */\n      sub\n        /* \"#utility.yul\":6784:6816   */\n      slt\n        /* \"#utility.yul\":6781:6900   */\n      iszero\n      tag_319\n      jumpi\n        /* \"#utility.yul\":6819:6898   */\n      tag_320\n      tag_199\n      jump\t// in\n    tag_320:\n        /* \"#utility.yul\":6781:6900   */\n    tag_319:\n        /* \"#utility.yul\":6939:6940   */\n      0x00\n        /* \"#utility.yul\":6964:7025   */\n      tag_321\n        /* \"#utility.yul\":7017:7024   */\n      dup5\n        /* \"#utility.yul\":7008:7014   */\n      dup3\n        /* \"#utility.yul\":6997:7006   */\n      dup6\n        /* \"#utility.yul\":6993:7015   */\n      add\n        /* \"#utility.yul\":6964:7025   */\n      tag_222\n      jump\t// in\n    tag_321:\n        /* \"#utility.yul\":6954:7025   */\n      swap2\n      pop\n        /* \"#utility.yul\":6910:7035   */\n      pop\n        /* \"#utility.yul\":6697:7042   */\n      swap3\n      swap2\n      pop\n      pop\n      jump\t// out\n        /* \"#utility.yul\":7048:7212   */\n    tag_223:\n        /* \"#utility.yul\":7188:7204   */\n      0x6e6f7420617574686f72697a6564000000000000000000000000000000000000\n        /* \"#utility.yul\":7184:7185   */\n      0x00\n        /* \"#utility.yul\":7176:7182   */\n      dup3\n        /* \"#utility.yul\":7172:7186   */\n      add\n        /* \"#utility.yul\":7165:7205   */\n      mstore\n        /* \"#utility.yul\":7048:7212   */\n      pop\n      jump\t// out\n        /* \"#utility.yul\":7218:7584   */\n    tag_224:\n        /* \"#utility.yul\":7360:7363   */\n      0x00\n        /* \"#utility.yul\":7381:7448   */\n      tag_324\n        /* \"#utility.yul\":7445:7447   */\n      0x0e\n        /* \"#utility.yul\":7440:7443   */\n      dup4\n        /* \"#utility.yul\":7381:7448   */\n      tag_217\n      jump\t// in\n    tag_324:\n        /* \"#utility.yul\":7374:7448   */\n      swap2\n      pop\n        /* \"#utility.yul\":7457:7550   */\n      tag_325\n        /* \"#utility.yul\":7546:7549   */\n      dup3\n        /* \"#utility.yul\":7457:7550   */\n      tag_223\n      jump\t// in\n    tag_325:\n        /* \"#utility.yul\":7575:7577   */\n      0x20\n        /* \"#utility.yul\":7570:7573   */\n      dup3\n        /* \"#utility.yul\":7566:7578   */\n      add\n        /* \"#utility.yul\":7559:7578   */\n      swap1\n      pop\n        /* \"#utility.yul\":7218:7584   */\n      swap2\n      swap1\n      pop\n      jump\t// out\n        /* \"#utility.yul\":7590:8009   */\n    tag_124:\n        /* \"#utility.yul\":7756:7760   */\n      0x00\n        /* \"#utility.yul\":7794:7796   */\n      0x20\n        /* \"#utility.yul\":7783:7792   */\n      dup3\n        /* \"#utility.yul\":7779:7797   */\n      add\n        /* \"#utility.yul\":7771:7797   */\n      swap1\n      pop\n        /* \"#utility.yul\":7843:7852   */\n      dup2\n        /* \"#utility.yul\":7837:7841   */\n      dup2\n        /* \"#utility.yul\":7833:7853   */\n      sub\n        /* \"#utility.yul\":7829:7830   */\n      0x00\n        /* \"#utility.yul\":7818:7827   */\n      dup4\n        /* \"#utility.yul\":7814:7831   */\n      add\n        /* \"#utility.yul\":7807:7854   */\n      mstore\n        /* \"#utility.yul\":7871:8002   */\n      tag_327\n        /* \"#utility.yul\":7997:8001   */\n      dup2\n        /* \"#utility.yul\":7871:8002   */\n      tag_224\n      jump\t// in\n    tag_327:\n        /* \"#utility.yul\":7863:8002   */\n      swap1\n      pop\n        /* \"#utility.yul\":7590:8009   */\n      swap2\n      swap1\n      pop\n      jump\t// out\n        /* \"#utility.yul\":8015:8180   */\n    tag_225:\n        /* \"#utility.yul\":8155:8172   */\n      0x7265776172642072617465203d20300000000000000000000000000000000000\n        /* \"#utility.yul\":8151:8152   */\n      0x00\n        /* \"#utility.yul\":8143:8149   */\n      dup3\n        /* \"#utility.yul\":8139:8153   */\n      add\n        /* \"#utility.yul\":8132:8173   */\n      mstore\n        /* \"#utility.yul\":8015:8180   */\n      pop\n      jump\t// out\n        /* \"#utility.yul\":8186:8552   */\n    tag_226:\n        /* \"#utility.yul\":8328:8331   */\n      0x00\n        /* \"#utility.yul\":8349:8416   */\n      tag_330\n        /* \"#utility.yul\":8413:8415   */\n      0x0f\n        /* \"#utility.yul\":8408:8411   */\n      dup4\n        /* \"#utility.yul\":8349:8416   */\n      tag_217\n      jump\t// in\n    tag_330:\n        /* \"#utility.yul\":8342:8416   */\n      swap2\n      pop\n        /* \"#utility.yul\":8425:8518   */\n      tag_331\n        /* \"#utility.yul\":8514:8517   */\n      dup3\n        /* \"#utility.yul\":8425:8518   */\n      tag_225\n      jump\t// in\n    tag_331:\n        /* \"#utility.yul\":8543:8545   */\n      0x20\n        /* \"#utility.yul\":8538:8541   */\n      dup3\n        /* \"#utility.yul\":8534:8546   */\n      add\n        /* \"#utility.yul\":8527:8546   */\n      swap1\n      pop\n        /* \"#utility.yul\":8186:8552   */\n      swap2\n      swap1\n      pop\n      jump\t// out\n        /* \"#utility.yul\":8558:8977   */\n    tag_140:\n        /* \"#utility.yul\":8724:8728   */\n      0x00\n        /* \"#utility.yul\":8762:8764   */\n      0x20\n        /* \"#utility.yul\":8751:8760   */\n      dup3\n        /* \"#utility.yul\":8747:8765   */\n      add\n        /* \"#utility.yul\":8739:8765   */\n      swap1\n      pop\n        /* \"#utility.yul\":8811:8820   */\n      dup2\n        /* \"#utility.yul\":8805:8809   */\n      dup2\n        /* \"#utility.yul\":8801:8821   */\n      sub\n        /* \"#utility.yul\":8797:8798   */\n      0x00\n        /* \"#utility.yul\":8786:8795   */\n      dup4\n        /* \"#utility.yul\":8782:8799   */\n      add\n        /* \"#utility.yul\":8775:8822   */\n      mstore\n        /* \"#utility.yul\":8839:8970   */\n      tag_333\n        /* \"#utility.yul\":8965:8969   */\n      dup2\n        /* \"#utility.yul\":8839:8970   */\n      tag_226\n      jump\t// in\n    tag_333:\n        /* \"#utility.yul\":8831:8970   */\n      swap1\n      pop\n        /* \"#utility.yul\":8558:8977   */\n      swap2\n      swap1\n      pop\n      jump\t// out\n        /* \"#utility.yul\":8983:9126   */\n    tag_227:\n        /* \"#utility.yul\":9040:9045   */\n      0x00\n        /* \"#utility.yul\":9071:9077   */\n      dup2\n        /* \"#utility.yul\":9065:9078   */\n      mload\n        /* \"#utility.yul\":9056:9078   */\n      swap1\n      pop\n        /* \"#utility.yul\":9087:9120   */\n      tag_335\n        /* \"#utility.yul\":9114:9119   */\n      dup2\n        /* \"#utility.yul\":9087:9120   */\n      tag_207\n      jump\t// in\n    tag_335:\n        /* \"#utility.yul\":8983:9126   */\n      swap3\n      swap2\n      pop\n      pop\n      jump\t// out\n        /* \"#utility.yul\":9132:9483   */\n    tag_145:\n        /* \"#utility.yul\":9202:9208   */\n      0x00\n        /* \"#utility.yul\":9251:9253   */\n      0x20\n        /* \"#utility.yul\":9239:9248   */\n      dup3\n        /* \"#utility.yul\":9230:9237   */\n      dup5\n        /* \"#utility.yul\":9226:9249   */\n      sub\n        /* \"#utility.yul\":9222:9254   */\n      slt\n        /* \"#utility.yul\":9219:9338   */\n      iszero\n      tag_337\n      jumpi\n        /* \"#utility.yul\":9257:9336   */\n      tag_338\n      tag_199\n      jump\t// in\n    tag_338:\n        /* \"#utility.yul\":9219:9338   */\n    tag_337:\n        /* \"#utility.yul\":9377:9378   */\n      0x00\n        /* \"#utility.yul\":9402:9466   */\n      tag_339\n        /* \"#utility.yul\":9458:9465   */\n      dup5\n        /* \"#utility.yul\":9449:9455   */\n      dup3\n        /* \"#utility.yul\":9438:9447   */\n      dup6\n        /* \"#utility.yul\":9434:9456   */\n      add\n        /* \"#utility.yul\":9402:9466   */\n      tag_227\n      jump\t// in\n    tag_339:\n        /* \"#utility.yul\":9392:9466   */\n      swap2\n      pop\n        /* \"#utility.yul\":9348:9476   */\n      pop\n        /* \"#utility.yul\":9132:9483   */\n      swap3\n      swap2\n      pop\n      pop\n      jump\t// out\n        /* \"#utility.yul\":9489:9662   */\n    tag_228:\n        /* \"#utility.yul\":9629:9654   */\n      0x72657761726420616d6f756e74203e2062616c616e6365000000000000000000\n        /* \"#utility.yul\":9625:9626   */\n      0x00\n        /* \"#utility.yul\":9617:9623   */\n      dup3\n        /* \"#utility.yul\":9613:9627   */\n      add\n        /* \"#utility.yul\":9606:9655   */\n      mstore\n        /* \"#utility.yul\":9489:9662   */\n      pop\n      jump\t// out\n        /* \"#utility.yul\":9668:10034   */\n    tag_229:\n        /* \"#utility.yul\":9810:9813   */\n      0x00\n        /* \"#utility.yul\":9831:9898   */\n      tag_342\n        /* \"#utility.yul\":9895:9897   */\n      0x17\n        /* \"#utility.yul\":9890:9893   */\n      dup4\n        /* \"#utility.yul\":9831:9898   */\n      tag_217\n      jump\t// in\n    tag_342:\n        /* \"#utility.yul\":9824:9898   */\n      swap2\n      pop\n        /* \"#utility.yul\":9907:10000   */\n      tag_343\n        /* \"#utility.yul\":9996:9999   */\n      dup3\n        /* \"#utility.yul\":9907:10000   */\n      tag_228\n      jump\t// in\n    tag_343:\n        /* \"#utility.yul\":10025:10027   */\n      0x20\n        /* \"#utility.yul\":10020:10023   */\n      dup3\n        /* \"#utility.yul\":10016:10028   */\n      add\n        /* \"#utility.yul\":10009:10028   */\n      swap1\n      pop\n        /* \"#utility.yul\":9668:10034   */\n      swap2\n      swap1\n      pop\n      jump\t// out\n        /* \"#utility.yul\":10040:10459   */\n    tag_149:\n        /* \"#utility.yul\":10206:10210   */\n      0x00\n        /* \"#utility.yul\":10244:10246   */\n      0x20\n        /* \"#utility.yul\":10233:10242   */\n      dup3\n        /* \"#utility.yul\":10229:10247   */\n      add\n        /* \"#utility.yul\":10221:10247   */\n      swap1\n      pop\n        /* \"#utility.yul\":10293:10302   */\n      dup2\n        /* \"#utility.yul\":10287:10291   */\n      dup2\n        /* \"#utility.yul\":10283:10303   */\n      sub\n        /* \"#utility.yul\":10279:10280   */\n      0x00\n        /* \"#utility.yul\":10268:10277   */\n      dup4\n        /* \"#utility.yul\":10264:10281   */\n      add\n        /* \"#utility.yul\":10257:10304   */\n      mstore\n        /* \"#utility.yul\":10321:10452   */\n      tag_345\n        /* \"#utility.yul\":10447:10451   */\n      dup2\n        /* \"#utility.yul\":10321:10452   */\n      tag_229\n      jump\t// in\n    tag_345:\n        /* \"#utility.yul\":10313:10452   */\n      swap1\n      pop\n        /* \"#utility.yul\":10040:10459   */\n      swap2\n      swap1\n      pop\n      jump\t// out\n        /* \"#utility.yul\":10465:10907   */\n    tag_174:\n        /* \"#utility.yul\":10614:10618   */\n      0x00\n        /* \"#utility.yul\":10652:10654   */\n      0x60\n        /* \"#utility.yul\":10641:10650   */\n      dup3\n        /* \"#utility.yul\":10637:10655   */\n      add\n        /* \"#utility.yul\":10629:10655   */\n      swap1\n      pop\n        /* \"#utility.yul\":10665:10736   */\n      tag_347\n        /* \"#utility.yul\":10733:10734   */\n      0x00\n        /* \"#utility.yul\":10722:10731   */\n      dup4\n        /* \"#utility.yul\":10718:10735   */\n      add\n        /* \"#utility.yul\":10709:10715   */\n      dup7\n        /* \"#utility.yul\":10665:10736   */\n      tag_214\n      jump\t// in\n    tag_347:\n        /* \"#utility.yul\":10746:10818   */\n      tag_348\n        /* \"#utility.yul\":10814:10816   */\n      0x20\n        /* \"#utility.yul\":10803:10812   */\n      dup4\n        /* \"#utility.yul\":10799:10817   */\n      add\n        /* \"#utility.yul\":10790:10796   */\n      dup6\n        /* \"#utility.yul\":10746:10818   */\n      tag_214\n      jump\t// in\n    tag_348:\n        /* \"#utility.yul\":10828:10900   */\n      tag_349\n        /* \"#utility.yul\":10896:10898   */\n      0x40\n        /* \"#utility.yul\":10885:10894   */\n      dup4\n        /* \"#utility.yul\":10881:10899   */\n      add\n        /* \"#utility.yul\":10872:10878   */\n      dup5\n        /* \"#utility.yul\":10828:10900   */\n      tag_206\n      jump\t// in\n    tag_349:\n        /* \"#utility.yul\":10465:10907   */\n      swap5\n      swap4\n      pop\n      pop\n      pop\n      pop\n      jump\t// out\n        /* \"#utility.yul\":10913:11091   */\n    tag_230:\n        /* \"#utility.yul\":11053:11083   */\n      0x726577617264206475726174696f6e206e6f742066696e697368656400000000\n        /* \"#utility.yul\":11049:11050   */\n      0x00\n        /* \"#utility.yul\":11041:11047   */\n      dup3\n        /* \"#utility.yul\":11037:11051   */\n      add\n        /* \"#utility.yul\":11030:11084   */\n      mstore\n        /* \"#utility.yul\":10913:11091   */\n      pop\n      jump\t// out\n        /* \"#utility.yul\":11097:11463   */\n    tag_231:\n        /* \"#utility.yul\":11239:11242   */\n      0x00\n        /* \"#utility.yul\":11260:11327   */\n      tag_352\n        /* \"#utility.yul\":11324:11326   */\n      0x1c\n        /* \"#utility.yul\":11319:11322   */\n      dup4\n        /* \"#utility.yul\":11260:11327   */\n      tag_217\n      jump\t// in\n    tag_352:\n        /* \"#utility.yul\":11253:11327   */\n      swap2\n      pop\n        /* \"#utility.yul\":11336:11429   */\n      tag_353\n        /* \"#utility.yul\":11425:11428   */\n      dup3\n        /* \"#utility.yul\":11336:11429   */\n      tag_230\n      jump\t// in\n    tag_353:\n        /* \"#utility.yul\":11454:11456   */\n      0x20\n        /* \"#utility.yul\":11449:11452   */\n      dup3\n        /* \"#utility.yul\":11445:11457   */\n      add\n        /* \"#utility.yul\":11438:11457   */\n      swap1\n      pop\n        /* \"#utility.yul\":11097:11463   */\n      swap2\n      swap1\n      pop\n      jump\t// out\n        /* \"#utility.yul\":11469:11888   */\n    tag_186:\n        /* \"#utility.yul\":11635:11639   */\n      0x00\n        /* \"#utility.yul\":11673:11675   */\n      0x20\n        /* \"#utility.yul\":11662:11671   */\n      dup3\n        /* \"#utility.yul\":11658:11676   */\n      add\n        /* \"#utility.yul\":11650:11676   */\n      swap1\n      pop\n        /* \"#utility.yul\":11722:11731   */\n      dup2\n        /* \"#utility.yul\":11716:11720   */\n      dup2\n        /* \"#utility.yul\":11712:11732   */\n      sub\n        /* \"#utility.yul\":11708:11709   */\n      0x00\n        /* \"#utility.yul\":11697:11706   */\n      dup4\n        /* \"#utility.yul\":11693:11710   */\n      add\n        /* \"#utility.yul\":11686:11733   */\n      mstore\n        /* \"#utility.yul\":11750:11881   */\n      tag_355\n        /* \"#utility.yul\":11876:11880   */\n      dup2\n        /* \"#utility.yul\":11750:11881   */\n      tag_231\n      jump\t// in\n    tag_355:\n        /* \"#utility.yul\":11742:11881   */\n      swap1\n      pop\n        /* \"#utility.yul\":11469:11888   */\n      swap2\n      swap1\n      pop\n      jump\t// out\n\n    auxdata: 0xa264697066735822122034191f1cdac9212d701eb04f06ae009fe2ee2c7d102a5644f7006ea7b0ee2c5364736f6c63430008120033\n}\n",
				"bytecode": {
					"linkReferences": {},
					"object": "60c06040523480156200001157600080fd5b50604051620018f1380380620018f1833981810160405281019062000037919062000151565b336000806101000a81548173ffffffffffffffffffffffffffffffffffffffff021916908373ffffffffffffffffffffffffffffffffffffffff1602179055508173ffffffffffffffffffffffffffffffffffffffff1660808173ffffffffffffffffffffffffffffffffffffffff16815250508073ffffffffffffffffffffffffffffffffffffffff1660a08173ffffffffffffffffffffffffffffffffffffffff1681525050505062000198565b600080fd5b600073ffffffffffffffffffffffffffffffffffffffff82169050919050565b60006200011982620000ec565b9050919050565b6200012b816200010c565b81146200013757600080fd5b50565b6000815190506200014b8162000120565b92915050565b600080604083850312156200016b576200016a620000e7565b5b60006200017b858286016200013a565b92505060206200018e858286016200013a565b9150509250929050565b60805160a051611717620001da6000396000818161092f01528181610baf015261107101526000818161067201528181610c710152610e1701526117176000f3fe608060405234801561001057600080fd5b506004361061012b5760003560e01c80637519ab50116100ad578063a694fc3a11610071578063a694fc3a14610322578063cc1a378f1461033e578063cd3daf9d1461035a578063d1af0c7d14610378578063df136d65146103965761012b565b80637519ab501461027a5780637b0a47ee1461029857806380faa57d146102b65780638b876347146102d45780638da5cb5b146103045761012b565b80633c6b16ab116100f45780633c6b16ab146101e85780633d18b9121461020457806367d3b4881461020e57806370a082311461022c57806372f702f31461025c5761012b565b80628cc262146101305780630700037d146101605780630fb5a6b41461019057806318160ddd146101ae5780632e1a7d4d146101cc575b600080fd5b61014a60048036038101906101459190611116565b6103b4565b604051610157919061115c565b60405180910390f35b61017a60048036038101906101759190611116565b6104b6565b604051610187919061115c565b60405180910390f35b6101986104ce565b6040516101a5919061115c565b60405180910390f35b6101b66104d4565b6040516101c3919061115c565b60405180910390f35b6101e660048036038101906101e191906111a3565b6104da565b005b61020260048036038101906101fd91906111a3565b610713565b005b61020c610a37565b005b610216610c51565b604051610223919061115c565b60405180910390f35b61024660048036038101906102419190611116565b610c57565b604051610253919061115c565b60405180910390f35b610264610c6f565b604051610271919061122f565b60405180910390f35b610282610c93565b60405161028f919061115c565b60405180910390f35b6102a0610c99565b6040516102ad919061115c565b60405180910390f35b6102be610c9f565b6040516102cb919061115c565b60405180910390f35b6102ee60048036038101906102e99190611116565b610cb2565b6040516102fb919061115c565b60405180910390f35b61030c610cca565b6040516103199190611259565b60405180910390f35b61033c600480360381019061033791906111a3565b610cee565b005b610358600480360381019061035391906111a3565b610f29565b005b610362611005565b60405161036f919061115c565b60405180910390f35b61038061106f565b60405161038d919061122f565b60405180910390f35b61039e611093565b6040516103ab919061115c565b60405180910390f35b6000600760008373ffffffffffffffffffffffffffffffffffffffff1673ffffffffffffffffffffffffffffffffffffffff16815260200190815260200160002054670de0b6b3a7640000600660008573ffffffffffffffffffffffffffffffffffffffff1673ffffffffffffffffffffffffffffffffffffffff16815260200190815260200160002054610447611005565b61045191906112a3565b600960008673ffffffffffffffffffffffffffffffffffffffff1673ffffffffffffffffffffffffffffffffffffffff1681526020019081526020016000205461049b91906112d7565b6104a59190611348565b6104af9190611379565b9050919050565b60076020528060005260406000206000915090505481565b60015481565b60085481565b336104e3611005565b6005819055506104f1610c9f565b600381905550600073ffffffffffffffffffffffffffffffffffffffff168173ffffffffffffffffffffffffffffffffffffffff16146105be57610534816103b4565b600760008373ffffffffffffffffffffffffffffffffffffffff1673ffffffffffffffffffffffffffffffffffffffff16815260200190815260200160002081905550600554600660008373ffffffffffffffffffffffffffffffffffffffff1673ffffffffffffffffffffffffffffffffffffffff168152602001908152602001600020819055505b60008211610601576040517f08c379a00000000000000000000000000000000000000000000000000000000081526004016105f89061140a565b60405180910390fd5b81600960003373ffffffffffffffffffffffffffffffffffffffff1673ffffffffffffffffffffffffffffffffffffffff168152602001908152602001600020600082825461065091906112a3565b92505081905550816008600082825461066991906112a3565b925050819055507f000000000000000000000000000000000000000000000000000000000000000073ffffffffffffffffffffffffffffffffffffffff1663a9059cbb33846040518363ffffffff1660e01b81526004016106cb92919061142a565b6020604051808303816000875af11580156106ea573d6000803e3d6000fd5b505050506040513d601f19601f8201168201806040525081019061070e919061148b565b505050565b60008054906101000a900473ffffffffffffffffffffffffffffffffffffffff1673ffffffffffffffffffffffffffffffffffffffff163373ffffffffffffffffffffffffffffffffffffffff16146107a1576040517f08c379a000000000000000000000000000000000000000000000000000000000815260040161079890611504565b60405180910390fd5b60006107ab611005565b6005819055506107b9610c9f565b600381905550600073ffffffffffffffffffffffffffffffffffffffff168173ffffffffffffffffffffffffffffffffffffffff1614610886576107fc816103b4565b600760008373ffffffffffffffffffffffffffffffffffffffff1673ffffffffffffffffffffffffffffffffffffffff16815260200190815260200160002081905550600554600660008373ffffffffffffffffffffffffffffffffffffffff1673ffffffffffffffffffffffffffffffffffffffff168152602001908152602001600020819055505b60025442106108a8576001548261089d9190611348565b6004819055506108e8565b6000600454426002546108bb91906112a3565b6108c591906112d7565b905060015481846108d69190611379565b6108e09190611348565b600481905550505b60006004541161092d576040517f08c379a000000000000000000000000000000000000000000000000000000000815260040161092490611570565b60405180910390fd5b7f000000000000000000000000000000000000000000000000000000000000000073ffffffffffffffffffffffffffffffffffffffff166370a08231306040518263ffffffff1660e01b81526004016109869190611259565b602060405180830381865afa1580156109a3573d6000803e3d6000fd5b505050506040513d601f19601f820116820180604052508101906109c791906115a5565b6001546004546109d791906112d7565b1115610a18576040517f08c379a0000000000000000000000000000000000000000000000000000000008152600401610a0f9061161e565b60405180910390fd5b60015442610a269190611379565b600281905550426003819055505050565b33610a40611005565b600581905550610a4e610c9f565b600381905550600073ffffffffffffffffffffffffffffffffffffffff168173ffffffffffffffffffffffffffffffffffffffff1614610b1b57610a91816103b4565b600760008373ffffffffffffffffffffffffffffffffffffffff1673ffffffffffffffffffffffffffffffffffffffff16815260200190815260200160002081905550600554600660008373ffffffffffffffffffffffffffffffffffffffff1673ffffffffffffffffffffffffffffffffffffffff168152602001908152602001600020819055505b6000600760003373ffffffffffffffffffffffffffffffffffffffff1673ffffffffffffffffffffffffffffffffffffffff1681526020019081526020016000205490506000811115610c4d576000600760003373ffffffffffffffffffffffffffffffffffffffff1673ffffffffffffffffffffffffffffffffffffffff168152602001908152602001600020819055507f000000000000000000000000000000000000000000000000000000000000000073ffffffffffffffffffffffffffffffffffffffff1663a9059cbb33836040518363ffffffff1660e01b8152600401610c0892919061142a565b6020604051808303816000875af1158015610c27573d6000803e3d6000fd5b505050506040513d601f19601f82011682018060405250810190610c4b919061148b565b505b5050565b60025481565b60096020528060005260406000206000915090505481565b7f000000000000000000000000000000000000000000000000000000000000000081565b60035481565b60045481565b6000610cad60025442611099565b905090565b60066020528060005260406000206000915090505481565b60008054906101000a900473ffffffffffffffffffffffffffffffffffffffff1681565b33610cf7611005565b600581905550610d05610c9f565b600381905550600073ffffffffffffffffffffffffffffffffffffffff168173ffffffffffffffffffffffffffffffffffffffff1614610dd257610d48816103b4565b600760008373ffffffffffffffffffffffffffffffffffffffff1673ffffffffffffffffffffffffffffffffffffffff16815260200190815260200160002081905550600554600660008373ffffffffffffffffffffffffffffffffffffffff1673ffffffffffffffffffffffffffffffffffffffff168152602001908152602001600020819055505b60008211610e15576040517f08c379a0000000000000000000000000000000000000000000000000000000008152600401610e0c9061140a565b60405180910390fd5b7f000000000000000000000000000000000000000000000000000000000000000073ffffffffffffffffffffffffffffffffffffffff166323b872dd3330856040518463ffffffff1660e01b8152600401610e729392919061163e565b6020604051808303816000875af1158015610e91573d6000803e3d6000fd5b505050506040513d601f19601f82011682018060405250810190610eb5919061148b565b5081600960003373ffffffffffffffffffffffffffffffffffffffff1673ffffffffffffffffffffffffffffffffffffffff1681526020019081526020016000206000828254610f059190611379565b925050819055508160086000828254610f1e9190611379565b925050819055505050565b60008054906101000a900473ffffffffffffffffffffffffffffffffffffffff1673ffffffffffffffffffffffffffffffffffffffff163373ffffffffffffffffffffffffffffffffffffffff1614610fb7576040517f08c379a0000000000000000000000000000000000000000000000000000000008152600401610fae90611504565b60405180910390fd5b4260025410610ffb576040517f08c379a0000000000000000000000000000000000000000000000000000000008152600401610ff2906116c1565b60405180910390fd5b8060018190555050565b6000806008540361101a57600554905061106c565b600854670de0b6b3a7640000600354611031610c9f565b61103b91906112a3565b60045461104891906112d7565b61105291906112d7565b61105c9190611348565b6005546110699190611379565b90505b90565b7f000000000000000000000000000000000000000000000000000000000000000081565b60055481565b6000818311156110a957816110ab565b825b905092915050565b600080fd5b600073ffffffffffffffffffffffffffffffffffffffff82169050919050565b60006110e3826110b8565b9050919050565b6110f3816110d8565b81146110fe57600080fd5b50565b600081359050611110816110ea565b92915050565b60006020828403121561112c5761112b6110b3565b5b600061113a84828501611101565b91505092915050565b6000819050919050565b61115681611143565b82525050565b6000602082019050611171600083018461114d565b92915050565b61118081611143565b811461118b57600080fd5b50565b60008135905061119d81611177565b92915050565b6000602082840312156111b9576111b86110b3565b5b60006111c78482850161118e565b91505092915050565b6000819050919050565b60006111f56111f06111eb846110b8565b6111d0565b6110b8565b9050919050565b6000611207826111da565b9050919050565b6000611219826111fc565b9050919050565b6112298161120e565b82525050565b60006020820190506112446000830184611220565b92915050565b611253816110d8565b82525050565b600060208201905061126e600083018461124a565b92915050565b7f4e487b7100000000000000000000000000000000000000000000000000000000600052601160045260246000fd5b60006112ae82611143565b91506112b983611143565b92508282039050818111156112d1576112d0611274565b5b92915050565b60006112e282611143565b91506112ed83611143565b92508282026112fb81611143565b9150828204841483151761131257611311611274565b5b5092915050565b7f4e487b7100000000000000000000000000000000000000000000000000000000600052601260045260246000fd5b600061135382611143565b915061135e83611143565b92508261136e5761136d611319565b5b828204905092915050565b600061138482611143565b915061138f83611143565b92508282019050808211156113a7576113a6611274565b5b92915050565b600082825260208201905092915050565b7f616d6f756e74203d203000000000000000000000000000000000000000000000600082015250565b60006113f4600a836113ad565b91506113ff826113be565b602082019050919050565b60006020820190508181036000830152611423816113e7565b9050919050565b600060408201905061143f600083018561124a565b61144c602083018461114d565b9392505050565b60008115159050919050565b61146881611453565b811461147357600080fd5b50565b6000815190506114858161145f565b92915050565b6000602082840312156114a1576114a06110b3565b5b60006114af84828501611476565b91505092915050565b7f6e6f7420617574686f72697a6564000000000000000000000000000000000000600082015250565b60006114ee600e836113ad565b91506114f9826114b8565b602082019050919050565b6000602082019050818103600083015261151d816114e1565b9050919050565b7f7265776172642072617465203d20300000000000000000000000000000000000600082015250565b600061155a600f836113ad565b915061156582611524565b602082019050919050565b600060208201905081810360008301526115898161154d565b9050919050565b60008151905061159f81611177565b92915050565b6000602082840312156115bb576115ba6110b3565b5b60006115c984828501611590565b91505092915050565b7f72657761726420616d6f756e74203e2062616c616e6365000000000000000000600082015250565b60006116086017836113ad565b9150611613826115d2565b602082019050919050565b60006020820190508181036000830152611637816115fb565b9050919050565b6000606082019050611653600083018661124a565b611660602083018561124a565b61166d604083018461114d565b949350505050565b7f726577617264206475726174696f6e206e6f742066696e697368656400000000600082015250565b60006116ab601c836113ad565b91506116b682611675565b602082019050919050565b600060208201905081810360008301526116da8161169e565b905091905056fea264697066735822122034191f1cdac9212d701eb04f06ae009fe2ee2c7d102a5644f7006ea7b0ee2c5364736f6c63430008120033",
					"opcodes": "PUSH1 0xC0 PUSH1 0x40 MSTORE CALLVALUE DUP1 ISZERO PUSH3 0x11 JUMPI PUSH1 0x0 DUP1 REVERT JUMPDEST POP PUSH1 0x40 MLOAD PUSH3 0x18F1 CODESIZE SUB DUP1 PUSH3 0x18F1 DUP4 CODECOPY DUP2 DUP2 ADD PUSH1 0x40 MSTORE DUP2 ADD SWAP1 PUSH3 0x37 SWAP2 SWAP1 PUSH3 0x151 JUMP JUMPDEST CALLER PUSH1 0x0 DUP1 PUSH2 0x100 EXP DUP2 SLOAD DUP2 PUSH20 0xFFFFFFFFFFFFFFFFFFFFFFFFFFFFFFFFFFFFFFFF MUL NOT AND SWAP1 DUP4 PUSH20 0xFFFFFFFFFFFFFFFFFFFFFFFFFFFFFFFFFFFFFFFF AND MUL OR SWAP1 SSTORE POP DUP2 PUSH20 0xFFFFFFFFFFFFFFFFFFFFFFFFFFFFFFFFFFFFFFFF AND PUSH1 0x80 DUP2 PUSH20 0xFFFFFFFFFFFFFFFFFFFFFFFFFFFFFFFFFFFFFFFF AND DUP2 MSTORE POP POP DUP1 PUSH20 0xFFFFFFFFFFFFFFFFFFFFFFFFFFFFFFFFFFFFFFFF AND PUSH1 0xA0 DUP2 PUSH20 0xFFFFFFFFFFFFFFFFFFFFFFFFFFFFFFFFFFFFFFFF AND DUP2 MSTORE POP POP POP POP PUSH3 0x198 JUMP JUMPDEST PUSH1 0x0 DUP1 REVERT JUMPDEST PUSH1 0x0 PUSH20 0xFFFFFFFFFFFFFFFFFFFFFFFFFFFFFFFFFFFFFFFF DUP3 AND SWAP1 POP SWAP2 SWAP1 POP JUMP JUMPDEST PUSH1 0x0 PUSH3 0x119 DUP3 PUSH3 0xEC JUMP JUMPDEST SWAP1 POP SWAP2 SWAP1 POP JUMP JUMPDEST PUSH3 0x12B DUP2 PUSH3 0x10C JUMP JUMPDEST DUP2 EQ PUSH3 0x137 JUMPI PUSH1 0x0 DUP1 REVERT JUMPDEST POP JUMP JUMPDEST PUSH1 0x0 DUP2 MLOAD SWAP1 POP PUSH3 0x14B DUP2 PUSH3 0x120 JUMP JUMPDEST SWAP3 SWAP2 POP POP JUMP JUMPDEST PUSH1 0x0 DUP1 PUSH1 0x40 DUP4 DUP6 SUB SLT ISZERO PUSH3 0x16B JUMPI PUSH3 0x16A PUSH3 0xE7 JUMP JUMPDEST JUMPDEST PUSH1 0x0 PUSH3 0x17B DUP6 DUP3 DUP7 ADD PUSH3 0x13A JUMP JUMPDEST SWAP3 POP POP PUSH1 0x20 PUSH3 0x18E DUP6 DUP3 DUP7 ADD PUSH3 0x13A JUMP JUMPDEST SWAP2 POP POP SWAP3 POP SWAP3 SWAP1 POP JUMP JUMPDEST PUSH1 0x80 MLOAD PUSH1 0xA0 MLOAD PUSH2 0x1717 PUSH3 0x1DA PUSH1 0x0 CODECOPY PUSH1 0x0 DUP2 DUP2 PUSH2 0x92F ADD MSTORE DUP2 DUP2 PUSH2 0xBAF ADD MSTORE PUSH2 0x1071 ADD MSTORE PUSH1 0x0 DUP2 DUP2 PUSH2 0x672 ADD MSTORE DUP2 DUP2 PUSH2 0xC71 ADD MSTORE PUSH2 0xE17 ADD MSTORE PUSH2 0x1717 PUSH1 0x0 RETURN INVALID PUSH1 0x80 PUSH1 0x40 MSTORE CALLVALUE DUP1 ISZERO PUSH2 0x10 JUMPI PUSH1 0x0 DUP1 REVERT JUMPDEST POP PUSH1 0x4 CALLDATASIZE LT PUSH2 0x12B JUMPI PUSH1 0x0 CALLDATALOAD PUSH1 0xE0 SHR DUP1 PUSH4 0x7519AB50 GT PUSH2 0xAD JUMPI DUP1 PUSH4 0xA694FC3A GT PUSH2 0x71 JUMPI DUP1 PUSH4 0xA694FC3A EQ PUSH2 0x322 JUMPI DUP1 PUSH4 0xCC1A378F EQ PUSH2 0x33E JUMPI DUP1 PUSH4 0xCD3DAF9D EQ PUSH2 0x35A JUMPI DUP1 PUSH4 0xD1AF0C7D EQ PUSH2 0x378 JUMPI DUP1 PUSH4 0xDF136D65 EQ PUSH2 0x396 JUMPI PUSH2 0x12B JUMP JUMPDEST DUP1 PUSH4 0x7519AB50 EQ PUSH2 0x27A JUMPI DUP1 PUSH4 0x7B0A47EE EQ PUSH2 0x298 JUMPI DUP1 PUSH4 0x80FAA57D EQ PUSH2 0x2B6 JUMPI DUP1 PUSH4 0x8B876347 EQ PUSH2 0x2D4 JUMPI DUP1 PUSH4 0x8DA5CB5B EQ PUSH2 0x304 JUMPI PUSH2 0x12B JUMP JUMPDEST DUP1 PUSH4 0x3C6B16AB GT PUSH2 0xF4 JUMPI DUP1 PUSH4 0x3C6B16AB EQ PUSH2 0x1E8 JUMPI DUP1 PUSH4 0x3D18B912 EQ PUSH2 0x204 JUMPI DUP1 PUSH4 0x67D3B488 EQ PUSH2 0x20E JUMPI DUP1 PUSH4 0x70A08231 EQ PUSH2 0x22C JUMPI DUP1 PUSH4 0x72F702F3 EQ PUSH2 0x25C JUMPI PUSH2 0x12B JUMP JUMPDEST DUP1 PUSH3 0x8CC262 EQ PUSH2 0x130 JUMPI DUP1 PUSH4 0x700037D EQ PUSH2 0x160 JUMPI DUP1 PUSH4 0xFB5A6B4 EQ PUSH2 0x190 JUMPI DUP1 PUSH4 0x18160DDD EQ PUSH2 0x1AE JUMPI DUP1 PUSH4 0x2E1A7D4D EQ PUSH2 0x1CC JUMPI JUMPDEST PUSH1 0x0 DUP1 REVERT JUMPDEST PUSH2 0x14A PUSH1 0x4 DUP1 CALLDATASIZE SUB DUP2 ADD SWAP1 PUSH2 0x145 SWAP2 SWAP1 PUSH2 0x1116 JUMP JUMPDEST PUSH2 0x3B4 JUMP JUMPDEST PUSH1 0x40 MLOAD PUSH2 0x157 SWAP2 SWAP1 PUSH2 0x115C JUMP JUMPDEST PUSH1 0x40 MLOAD DUP1 SWAP2 SUB SWAP1 RETURN JUMPDEST PUSH2 0x17A PUSH1 0x4 DUP1 CALLDATASIZE SUB DUP2 ADD SWAP1 PUSH2 0x175 SWAP2 SWAP1 PUSH2 0x1116 JUMP JUMPDEST PUSH2 0x4B6 JUMP JUMPDEST PUSH1 0x40 MLOAD PUSH2 0x187 SWAP2 SWAP1 PUSH2 0x115C JUMP JUMPDEST PUSH1 0x40 MLOAD DUP1 SWAP2 SUB SWAP1 RETURN JUMPDEST PUSH2 0x198 PUSH2 0x4CE JUMP JUMPDEST PUSH1 0x40 MLOAD PUSH2 0x1A5 SWAP2 SWAP1 PUSH2 0x115C JUMP JUMPDEST PUSH1 0x40 MLOAD DUP1 SWAP2 SUB SWAP1 RETURN JUMPDEST PUSH2 0x1B6 PUSH2 0x4D4 JUMP JUMPDEST PUSH1 0x40 MLOAD PUSH2 0x1C3 SWAP2 SWAP1 PUSH2 0x115C JUMP JUMPDEST PUSH1 0x40 MLOAD DUP1 SWAP2 SUB SWAP1 RETURN JUMPDEST PUSH2 0x1E6 PUSH1 0x4 DUP1 CALLDATASIZE SUB DUP2 ADD SWAP1 PUSH2 0x1E1 SWAP2 SWAP1 PUSH2 0x11A3 JUMP JUMPDEST PUSH2 0x4DA JUMP JUMPDEST STOP JUMPDEST PUSH2 0x202 PUSH1 0x4 DUP1 CALLDATASIZE SUB DUP2 ADD SWAP1 PUSH2 0x1FD SWAP2 SWAP1 PUSH2 0x11A3 JUMP JUMPDEST PUSH2 0x713 JUMP JUMPDEST STOP JUMPDEST PUSH2 0x20C PUSH2 0xA37 JUMP JUMPDEST STOP JUMPDEST PUSH2 0x216 PUSH2 0xC51 JUMP JUMPDEST PUSH1 0x40 MLOAD PUSH2 0x223 SWAP2 SWAP1 PUSH2 0x115C JUMP JUMPDEST PUSH1 0x40 MLOAD DUP1 SWAP2 SUB SWAP1 RETURN JUMPDEST PUSH2 0x246 PUSH1 0x4 DUP1 CALLDATASIZE SUB DUP2 ADD SWAP1 PUSH2 0x241 SWAP2 SWAP1 PUSH2 0x1116 JUMP JUMPDEST PUSH2 0xC57 JUMP JUMPDEST PUSH1 0x40 MLOAD PUSH2 0x253 SWAP2 SWAP1 PUSH2 0x115C JUMP JUMPDEST PUSH1 0x40 MLOAD DUP1 SWAP2 SUB SWAP1 RETURN JUMPDEST PUSH2 0x264 PUSH2 0xC6F JUMP JUMPDEST PUSH1 0x40 MLOAD PUSH2 0x271 SWAP2 SWAP1 PUSH2 0x122F JUMP JUMPDEST PUSH1 0x40 MLOAD DUP1 SWAP2 SUB SWAP1 RETURN JUMPDEST PUSH2 0x282 PUSH2 0xC93 JUMP JUMPDEST PUSH1 0x40 MLOAD PUSH2 0x28F SWAP2 SWAP1 PUSH2 0x115C JUMP JUMPDEST PUSH1 0x40 MLOAD DUP1 SWAP2 SUB SWAP1 RETURN JUMPDEST PUSH2 0x2A0 PUSH2 0xC99 JUMP JUMPDEST PUSH1 0x40 MLOAD PUSH2 0x2AD SWAP2 SWAP1 PUSH2 0x115C JUMP JUMPDEST PUSH1 0x40 MLOAD DUP1 SWAP2 SUB SWAP1 RETURN JUMPDEST PUSH2 0x2BE PUSH2 0xC9F JUMP JUMPDEST PUSH1 0x40 MLOAD PUSH2 0x2CB SWAP2 SWAP1 PUSH2 0x115C JUMP JUMPDEST PUSH1 0x40 MLOAD DUP1 SWAP2 SUB SWAP1 RETURN JUMPDEST PUSH2 0x2EE PUSH1 0x4 DUP1 CALLDATASIZE SUB DUP2 ADD SWAP1 PUSH2 0x2E9 SWAP2 SWAP1 PUSH2 0x1116 JUMP JUMPDEST PUSH2 0xCB2 JUMP JUMPDEST PUSH1 0x40 MLOAD PUSH2 0x2FB SWAP2 SWAP1 PUSH2 0x115C JUMP JUMPDEST PUSH1 0x40 MLOAD DUP1 SWAP2 SUB SWAP1 RETURN JUMPDEST PUSH2 0x30C PUSH2 0xCCA JUMP JUMPDEST PUSH1 0x40 MLOAD PUSH2 0x319 SWAP2 SWAP1 PUSH2 0x1259 JUMP JUMPDEST PUSH1 0x40 MLOAD DUP1 SWAP2 SUB SWAP1 RETURN JUMPDEST PUSH2 0x33C PUSH1 0x4 DUP1 CALLDATASIZE SUB DUP2 ADD SWAP1 PUSH2 0x337 SWAP2 SWAP1 PUSH2 0x11A3 JUMP JUMPDEST PUSH2 0xCEE JUMP JUMPDEST STOP JUMPDEST PUSH2 0x358 PUSH1 0x4 DUP1 CALLDATASIZE SUB DUP2 ADD SWAP1 PUSH2 0x353 SWAP2 SWAP1 PUSH2 0x11A3 JUMP JUMPDEST PUSH2 0xF29 JUMP JUMPDEST STOP JUMPDEST PUSH2 0x362 PUSH2 0x1005 JUMP JUMPDEST PUSH1 0x40 MLOAD PUSH2 0x36F SWAP2 SWAP1 PUSH2 0x115C JUMP JUMPDEST PUSH1 0x40 MLOAD DUP1 SWAP2 SUB SWAP1 RETURN JUMPDEST PUSH2 0x380 PUSH2 0x106F JUMP JUMPDEST PUSH1 0x40 MLOAD PUSH2 0x38D SWAP2 SWAP1 PUSH2 0x122F JUMP JUMPDEST PUSH1 0x40 MLOAD DUP1 SWAP2 SUB SWAP1 RETURN JUMPDEST PUSH2 0x39E PUSH2 0x1093 JUMP JUMPDEST PUSH1 0x40 MLOAD PUSH2 0x3AB SWAP2 SWAP1 PUSH2 0x115C JUMP JUMPDEST PUSH1 0x40 MLOAD DUP1 SWAP2 SUB SWAP1 RETURN JUMPDEST PUSH1 0x0 PUSH1 0x7 PUSH1 0x0 DUP4 PUSH20 0xFFFFFFFFFFFFFFFFFFFFFFFFFFFFFFFFFFFFFFFF AND PUSH20 0xFFFFFFFFFFFFFFFFFFFFFFFFFFFFFFFFFFFFFFFF AND DUP2 MSTORE PUSH1 0x20 ADD SWAP1 DUP2 MSTORE PUSH1 0x20 ADD PUSH1 0x0 KECCAK256 SLOAD PUSH8 0xDE0B6B3A7640000 PUSH1 0x6 PUSH1 0x0 DUP6 PUSH20 0xFFFFFFFFFFFFFFFFFFFFFFFFFFFFFFFFFFFFFFFF AND PUSH20 0xFFFFFFFFFFFFFFFFFFFFFFFFFFFFFFFFFFFFFFFF AND DUP2 MSTORE PUSH1 0x20 ADD SWAP1 DUP2 MSTORE PUSH1 0x20 ADD PUSH1 0x0 KECCAK256 SLOAD PUSH2 0x447 PUSH2 0x1005 JUMP JUMPDEST PUSH2 0x451 SWAP2 SWAP1 PUSH2 0x12A3 JUMP JUMPDEST PUSH1 0x9 PUSH1 0x0 DUP7 PUSH20 0xFFFFFFFFFFFFFFFFFFFFFFFFFFFFFFFFFFFFFFFF AND PUSH20 0xFFFFFFFFFFFFFFFFFFFFFFFFFFFFFFFFFFFFFFFF AND DUP2 MSTORE PUSH1 0x20 ADD SWAP1 DUP2 MSTORE PUSH1 0x20 ADD PUSH1 0x0 KECCAK256 SLOAD PUSH2 0x49B SWAP2 SWAP1 PUSH2 0x12D7 JUMP JUMPDEST PUSH2 0x4A5 SWAP2 SWAP1 PUSH2 0x1348 JUMP JUMPDEST PUSH2 0x4AF SWAP2 SWAP1 PUSH2 0x1379 JUMP JUMPDEST SWAP1 POP SWAP2 SWAP1 POP JUMP JUMPDEST PUSH1 0x7 PUSH1 0x20 MSTORE DUP1 PUSH1 0x0 MSTORE PUSH1 0x40 PUSH1 0x0 KECCAK256 PUSH1 0x0 SWAP2 POP SWAP1 POP SLOAD DUP2 JUMP JUMPDEST PUSH1 0x1 SLOAD DUP2 JUMP JUMPDEST PUSH1 0x8 SLOAD DUP2 JUMP JUMPDEST CALLER PUSH2 0x4E3 PUSH2 0x1005 JUMP JUMPDEST PUSH1 0x5 DUP2 SWAP1 SSTORE POP PUSH2 0x4F1 PUSH2 0xC9F JUMP JUMPDEST PUSH1 0x3 DUP2 SWAP1 SSTORE POP PUSH1 0x0 PUSH20 0xFFFFFFFFFFFFFFFFFFFFFFFFFFFFFFFFFFFFFFFF AND DUP2 PUSH20 0xFFFFFFFFFFFFFFFFFFFFFFFFFFFFFFFFFFFFFFFF AND EQ PUSH2 0x5BE JUMPI PUSH2 0x534 DUP2 PUSH2 0x3B4 JUMP JUMPDEST PUSH1 0x7 PUSH1 0x0 DUP4 PUSH20 0xFFFFFFFFFFFFFFFFFFFFFFFFFFFFFFFFFFFFFFFF AND PUSH20 0xFFFFFFFFFFFFFFFFFFFFFFFFFFFFFFFFFFFFFFFF AND DUP2 MSTORE PUSH1 0x20 ADD SWAP1 DUP2 MSTORE PUSH1 0x20 ADD PUSH1 0x0 KECCAK256 DUP2 SWAP1 SSTORE POP PUSH1 0x5 SLOAD PUSH1 0x6 PUSH1 0x0 DUP4 PUSH20 0xFFFFFFFFFFFFFFFFFFFFFFFFFFFFFFFFFFFFFFFF AND PUSH20 0xFFFFFFFFFFFFFFFFFFFFFFFFFFFFFFFFFFFFFFFF AND DUP2 MSTORE PUSH1 0x20 ADD SWAP1 DUP2 MSTORE PUSH1 0x20 ADD PUSH1 0x0 KECCAK256 DUP2 SWAP1 SSTORE POP JUMPDEST PUSH1 0x0 DUP3 GT PUSH2 0x601 JUMPI PUSH1 0x40 MLOAD PUSH32 0x8C379A000000000000000000000000000000000000000000000000000000000 DUP2 MSTORE PUSH1 0x4 ADD PUSH2 0x5F8 SWAP1 PUSH2 0x140A JUMP JUMPDEST PUSH1 0x40 MLOAD DUP1 SWAP2 SUB SWAP1 REVERT JUMPDEST DUP2 PUSH1 0x9 PUSH1 0x0 CALLER PUSH20 0xFFFFFFFFFFFFFFFFFFFFFFFFFFFFFFFFFFFFFFFF AND PUSH20 0xFFFFFFFFFFFFFFFFFFFFFFFFFFFFFFFFFFFFFFFF AND DUP2 MSTORE PUSH1 0x20 ADD SWAP1 DUP2 MSTORE PUSH1 0x20 ADD PUSH1 0x0 KECCAK256 PUSH1 0x0 DUP3 DUP3 SLOAD PUSH2 0x650 SWAP2 SWAP1 PUSH2 0x12A3 JUMP JUMPDEST SWAP3 POP POP DUP2 SWAP1 SSTORE POP DUP2 PUSH1 0x8 PUSH1 0x0 DUP3 DUP3 SLOAD PUSH2 0x669 SWAP2 SWAP1 PUSH2 0x12A3 JUMP JUMPDEST SWAP3 POP POP DUP2 SWAP1 SSTORE POP PUSH32 0x0 PUSH20 0xFFFFFFFFFFFFFFFFFFFFFFFFFFFFFFFFFFFFFFFF AND PUSH4 0xA9059CBB CALLER DUP5 PUSH1 0x40 MLOAD DUP4 PUSH4 0xFFFFFFFF AND PUSH1 0xE0 SHL DUP2 MSTORE PUSH1 0x4 ADD PUSH2 0x6CB SWAP3 SWAP2 SWAP1 PUSH2 0x142A JUMP JUMPDEST PUSH1 0x20 PUSH1 0x40 MLOAD DUP1 DUP4 SUB DUP2 PUSH1 0x0 DUP8 GAS CALL ISZERO DUP1 ISZERO PUSH2 0x6EA JUMPI RETURNDATASIZE PUSH1 0x0 DUP1 RETURNDATACOPY RETURNDATASIZE PUSH1 0x0 REVERT JUMPDEST POP POP POP POP PUSH1 0x40 MLOAD RETURNDATASIZE PUSH1 0x1F NOT PUSH1 0x1F DUP3 ADD AND DUP3 ADD DUP1 PUSH1 0x40 MSTORE POP DUP2 ADD SWAP1 PUSH2 0x70E SWAP2 SWAP1 PUSH2 0x148B JUMP JUMPDEST POP POP POP JUMP JUMPDEST PUSH1 0x0 DUP1 SLOAD SWAP1 PUSH2 0x100 EXP SWAP1 DIV PUSH20 0xFFFFFFFFFFFFFFFFFFFFFFFFFFFFFFFFFFFFFFFF AND PUSH20 0xFFFFFFFFFFFFFFFFFFFFFFFFFFFFFFFFFFFFFFFF AND CALLER PUSH20 0xFFFFFFFFFFFFFFFFFFFFFFFFFFFFFFFFFFFFFFFF AND EQ PUSH2 0x7A1 JUMPI PUSH1 0x40 MLOAD PUSH32 0x8C379A000000000000000000000000000000000000000000000000000000000 DUP2 MSTORE PUSH1 0x4 ADD PUSH2 0x798 SWAP1 PUSH2 0x1504 JUMP JUMPDEST PUSH1 0x40 MLOAD DUP1 SWAP2 SUB SWAP1 REVERT JUMPDEST PUSH1 0x0 PUSH2 0x7AB PUSH2 0x1005 JUMP JUMPDEST PUSH1 0x5 DUP2 SWAP1 SSTORE POP PUSH2 0x7B9 PUSH2 0xC9F JUMP JUMPDEST PUSH1 0x3 DUP2 SWAP1 SSTORE POP PUSH1 0x0 PUSH20 0xFFFFFFFFFFFFFFFFFFFFFFFFFFFFFFFFFFFFFFFF AND DUP2 PUSH20 0xFFFFFFFFFFFFFFFFFFFFFFFFFFFFFFFFFFFFFFFF AND EQ PUSH2 0x886 JUMPI PUSH2 0x7FC DUP2 PUSH2 0x3B4 JUMP JUMPDEST PUSH1 0x7 PUSH1 0x0 DUP4 PUSH20 0xFFFFFFFFFFFFFFFFFFFFFFFFFFFFFFFFFFFFFFFF AND PUSH20 0xFFFFFFFFFFFFFFFFFFFFFFFFFFFFFFFFFFFFFFFF AND DUP2 MSTORE PUSH1 0x20 ADD SWAP1 DUP2 MSTORE PUSH1 0x20 ADD PUSH1 0x0 KECCAK256 DUP2 SWAP1 SSTORE POP PUSH1 0x5 SLOAD PUSH1 0x6 PUSH1 0x0 DUP4 PUSH20 0xFFFFFFFFFFFFFFFFFFFFFFFFFFFFFFFFFFFFFFFF AND PUSH20 0xFFFFFFFFFFFFFFFFFFFFFFFFFFFFFFFFFFFFFFFF AND DUP2 MSTORE PUSH1 0x20 ADD SWAP1 DUP2 MSTORE PUSH1 0x20 ADD PUSH1 0x0 KECCAK256 DUP2 SWAP1 SSTORE POP JUMPDEST PUSH1 0x2 SLOAD TIMESTAMP LT PUSH2 0x8A8 JUMPI PUSH1 0x1 SLOAD DUP3 PUSH2 0x89D SWAP2 SWAP1 PUSH2 0x1348 JUMP JUMPDEST PUSH1 0x4 DUP2 SWAP1 SSTORE POP PUSH2 0x8E8 JUMP JUMPDEST PUSH1 0x0 PUSH1 0x4 SLOAD TIMESTAMP PUSH1 0x2 SLOAD PUSH2 0x8BB SWAP2 SWAP1 PUSH2 0x12A3 JUMP JUMPDEST PUSH2 0x8C5 SWAP2 SWAP1 PUSH2 0x12D7 JUMP JUMPDEST SWAP1 POP PUSH1 0x1 SLOAD DUP2 DUP5 PUSH2 0x8D6 SWAP2 SWAP1 PUSH2 0x1379 JUMP JUMPDEST PUSH2 0x8E0 SWAP2 SWAP1 PUSH2 0x1348 JUMP JUMPDEST PUSH1 0x4 DUP2 SWAP1 SSTORE POP POP JUMPDEST PUSH1 0x0 PUSH1 0x4 SLOAD GT PUSH2 0x92D JUMPI PUSH1 0x40 MLOAD PUSH32 0x8C379A000000000000000000000000000000000000000000000000000000000 DUP2 MSTORE PUSH1 0x4 ADD PUSH2 0x924 SWAP1 PUSH2 0x1570 JUMP JUMPDEST PUSH1 0x40 MLOAD DUP1 SWAP2 SUB SWAP1 REVERT JUMPDEST PUSH32 0x0 PUSH20 0xFFFFFFFFFFFFFFFFFFFFFFFFFFFFFFFFFFFFFFFF AND PUSH4 0x70A08231 ADDRESS PUSH1 0x40 MLOAD DUP3 PUSH4 0xFFFFFFFF AND PUSH1 0xE0 SHL DUP2 MSTORE PUSH1 0x4 ADD PUSH2 0x986 SWAP2 SWAP1 PUSH2 0x1259 JUMP JUMPDEST PUSH1 0x20 PUSH1 0x40 MLOAD DUP1 DUP4 SUB DUP2 DUP7 GAS STATICCALL ISZERO DUP1 ISZERO PUSH2 0x9A3 JUMPI RETURNDATASIZE PUSH1 0x0 DUP1 RETURNDATACOPY RETURNDATASIZE PUSH1 0x0 REVERT JUMPDEST POP POP POP POP PUSH1 0x40 MLOAD RETURNDATASIZE PUSH1 0x1F NOT PUSH1 0x1F DUP3 ADD AND DUP3 ADD DUP1 PUSH1 0x40 MSTORE POP DUP2 ADD SWAP1 PUSH2 0x9C7 SWAP2 SWAP1 PUSH2 0x15A5 JUMP JUMPDEST PUSH1 0x1 SLOAD PUSH1 0x4 SLOAD PUSH2 0x9D7 SWAP2 SWAP1 PUSH2 0x12D7 JUMP JUMPDEST GT ISZERO PUSH2 0xA18 JUMPI PUSH1 0x40 MLOAD PUSH32 0x8C379A000000000000000000000000000000000000000000000000000000000 DUP2 MSTORE PUSH1 0x4 ADD PUSH2 0xA0F SWAP1 PUSH2 0x161E JUMP JUMPDEST PUSH1 0x40 MLOAD DUP1 SWAP2 SUB SWAP1 REVERT JUMPDEST PUSH1 0x1 SLOAD TIMESTAMP PUSH2 0xA26 SWAP2 SWAP1 PUSH2 0x1379 JUMP JUMPDEST PUSH1 0x2 DUP2 SWAP1 SSTORE POP TIMESTAMP PUSH1 0x3 DUP2 SWAP1 SSTORE POP POP POP JUMP JUMPDEST CALLER PUSH2 0xA40 PUSH2 0x1005 JUMP JUMPDEST PUSH1 0x5 DUP2 SWAP1 SSTORE POP PUSH2 0xA4E PUSH2 0xC9F JUMP JUMPDEST PUSH1 0x3 DUP2 SWAP1 SSTORE POP PUSH1 0x0 PUSH20 0xFFFFFFFFFFFFFFFFFFFFFFFFFFFFFFFFFFFFFFFF AND DUP2 PUSH20 0xFFFFFFFFFFFFFFFFFFFFFFFFFFFFFFFFFFFFFFFF AND EQ PUSH2 0xB1B JUMPI PUSH2 0xA91 DUP2 PUSH2 0x3B4 JUMP JUMPDEST PUSH1 0x7 PUSH1 0x0 DUP4 PUSH20 0xFFFFFFFFFFFFFFFFFFFFFFFFFFFFFFFFFFFFFFFF AND PUSH20 0xFFFFFFFFFFFFFFFFFFFFFFFFFFFFFFFFFFFFFFFF AND DUP2 MSTORE PUSH1 0x20 ADD SWAP1 DUP2 MSTORE PUSH1 0x20 ADD PUSH1 0x0 KECCAK256 DUP2 SWAP1 SSTORE POP PUSH1 0x5 SLOAD PUSH1 0x6 PUSH1 0x0 DUP4 PUSH20 0xFFFFFFFFFFFFFFFFFFFFFFFFFFFFFFFFFFFFFFFF AND PUSH20 0xFFFFFFFFFFFFFFFFFFFFFFFFFFFFFFFFFFFFFFFF AND DUP2 MSTORE PUSH1 0x20 ADD SWAP1 DUP2 MSTORE PUSH1 0x20 ADD PUSH1 0x0 KECCAK256 DUP2 SWAP1 SSTORE POP JUMPDEST PUSH1 0x0 PUSH1 0x7 PUSH1 0x0 CALLER PUSH20 0xFFFFFFFFFFFFFFFFFFFFFFFFFFFFFFFFFFFFFFFF AND PUSH20 0xFFFFFFFFFFFFFFFFFFFFFFFFFFFFFFFFFFFFFFFF AND DUP2 MSTORE PUSH1 0x20 ADD SWAP1 DUP2 MSTORE PUSH1 0x20 ADD PUSH1 0x0 KECCAK256 SLOAD SWAP1 POP PUSH1 0x0 DUP2 GT ISZERO PUSH2 0xC4D JUMPI PUSH1 0x0 PUSH1 0x7 PUSH1 0x0 CALLER PUSH20 0xFFFFFFFFFFFFFFFFFFFFFFFFFFFFFFFFFFFFFFFF AND PUSH20 0xFFFFFFFFFFFFFFFFFFFFFFFFFFFFFFFFFFFFFFFF AND DUP2 MSTORE PUSH1 0x20 ADD SWAP1 DUP2 MSTORE PUSH1 0x20 ADD PUSH1 0x0 KECCAK256 DUP2 SWAP1 SSTORE POP PUSH32 0x0 PUSH20 0xFFFFFFFFFFFFFFFFFFFFFFFFFFFFFFFFFFFFFFFF AND PUSH4 0xA9059CBB CALLER DUP4 PUSH1 0x40 MLOAD DUP4 PUSH4 0xFFFFFFFF AND PUSH1 0xE0 SHL DUP2 MSTORE PUSH1 0x4 ADD PUSH2 0xC08 SWAP3 SWAP2 SWAP1 PUSH2 0x142A JUMP JUMPDEST PUSH1 0x20 PUSH1 0x40 MLOAD DUP1 DUP4 SUB DUP2 PUSH1 0x0 DUP8 GAS CALL ISZERO DUP1 ISZERO PUSH2 0xC27 JUMPI RETURNDATASIZE PUSH1 0x0 DUP1 RETURNDATACOPY RETURNDATASIZE PUSH1 0x0 REVERT JUMPDEST POP POP POP POP PUSH1 0x40 MLOAD RETURNDATASIZE PUSH1 0x1F NOT PUSH1 0x1F DUP3 ADD AND DUP3 ADD DUP1 PUSH1 0x40 MSTORE POP DUP2 ADD SWAP1 PUSH2 0xC4B SWAP2 SWAP1 PUSH2 0x148B JUMP JUMPDEST POP JUMPDEST POP POP JUMP JUMPDEST PUSH1 0x2 SLOAD DUP2 JUMP JUMPDEST PUSH1 0x9 PUSH1 0x20 MSTORE DUP1 PUSH1 0x0 MSTORE PUSH1 0x40 PUSH1 0x0 KECCAK256 PUSH1 0x0 SWAP2 POP SWAP1 POP SLOAD DUP2 JUMP JUMPDEST PUSH32 0x0 DUP2 JUMP JUMPDEST PUSH1 0x3 SLOAD DUP2 JUMP JUMPDEST PUSH1 0x4 SLOAD DUP2 JUMP JUMPDEST PUSH1 0x0 PUSH2 0xCAD PUSH1 0x2 SLOAD TIMESTAMP PUSH2 0x1099 JUMP JUMPDEST SWAP1 POP SWAP1 JUMP JUMPDEST PUSH1 0x6 PUSH1 0x20 MSTORE DUP1 PUSH1 0x0 MSTORE PUSH1 0x40 PUSH1 0x0 KECCAK256 PUSH1 0x0 SWAP2 POP SWAP1 POP SLOAD DUP2 JUMP JUMPDEST PUSH1 0x0 DUP1 SLOAD SWAP1 PUSH2 0x100 EXP SWAP1 DIV PUSH20 0xFFFFFFFFFFFFFFFFFFFFFFFFFFFFFFFFFFFFFFFF AND DUP2 JUMP JUMPDEST CALLER PUSH2 0xCF7 PUSH2 0x1005 JUMP JUMPDEST PUSH1 0x5 DUP2 SWAP1 SSTORE POP PUSH2 0xD05 PUSH2 0xC9F JUMP JUMPDEST PUSH1 0x3 DUP2 SWAP1 SSTORE POP PUSH1 0x0 PUSH20 0xFFFFFFFFFFFFFFFFFFFFFFFFFFFFFFFFFFFFFFFF AND DUP2 PUSH20 0xFFFFFFFFFFFFFFFFFFFFFFFFFFFFFFFFFFFFFFFF AND EQ PUSH2 0xDD2 JUMPI PUSH2 0xD48 DUP2 PUSH2 0x3B4 JUMP JUMPDEST PUSH1 0x7 PUSH1 0x0 DUP4 PUSH20 0xFFFFFFFFFFFFFFFFFFFFFFFFFFFFFFFFFFFFFFFF AND PUSH20 0xFFFFFFFFFFFFFFFFFFFFFFFFFFFFFFFFFFFFFFFF AND DUP2 MSTORE PUSH1 0x20 ADD SWAP1 DUP2 MSTORE PUSH1 0x20 ADD PUSH1 0x0 KECCAK256 DUP2 SWAP1 SSTORE POP PUSH1 0x5 SLOAD PUSH1 0x6 PUSH1 0x0 DUP4 PUSH20 0xFFFFFFFFFFFFFFFFFFFFFFFFFFFFFFFFFFFFFFFF AND PUSH20 0xFFFFFFFFFFFFFFFFFFFFFFFFFFFFFFFFFFFFFFFF AND DUP2 MSTORE PUSH1 0x20 ADD SWAP1 DUP2 MSTORE PUSH1 0x20 ADD PUSH1 0x0 KECCAK256 DUP2 SWAP1 SSTORE POP JUMPDEST PUSH1 0x0 DUP3 GT PUSH2 0xE15 JUMPI PUSH1 0x40 MLOAD PUSH32 0x8C379A000000000000000000000000000000000000000000000000000000000 DUP2 MSTORE PUSH1 0x4 ADD PUSH2 0xE0C SWAP1 PUSH2 0x140A JUMP JUMPDEST PUSH1 0x40 MLOAD DUP1 SWAP2 SUB SWAP1 REVERT JUMPDEST PUSH32 0x0 PUSH20 0xFFFFFFFFFFFFFFFFFFFFFFFFFFFFFFFFFFFFFFFF AND PUSH4 0x23B872DD CALLER ADDRESS DUP6 PUSH1 0x40 MLOAD DUP5 PUSH4 0xFFFFFFFF AND PUSH1 0xE0 SHL DUP2 MSTORE PUSH1 0x4 ADD PUSH2 0xE72 SWAP4 SWAP3 SWAP2 SWAP1 PUSH2 0x163E JUMP JUMPDEST PUSH1 0x20 PUSH1 0x40 MLOAD DUP1 DUP4 SUB DUP2 PUSH1 0x0 DUP8 GAS CALL ISZERO DUP1 ISZERO PUSH2 0xE91 JUMPI RETURNDATASIZE PUSH1 0x0 DUP1 RETURNDATACOPY RETURNDATASIZE PUSH1 0x0 REVERT JUMPDEST POP POP POP POP PUSH1 0x40 MLOAD RETURNDATASIZE PUSH1 0x1F NOT PUSH1 0x1F DUP3 ADD AND DUP3 ADD DUP1 PUSH1 0x40 MSTORE POP DUP2 ADD SWAP1 PUSH2 0xEB5 SWAP2 SWAP1 PUSH2 0x148B JUMP JUMPDEST POP DUP2 PUSH1 0x9 PUSH1 0x0 CALLER PUSH20 0xFFFFFFFFFFFFFFFFFFFFFFFFFFFFFFFFFFFFFFFF AND PUSH20 0xFFFFFFFFFFFFFFFFFFFFFFFFFFFFFFFFFFFFFFFF AND DUP2 MSTORE PUSH1 0x20 ADD SWAP1 DUP2 MSTORE PUSH1 0x20 ADD PUSH1 0x0 KECCAK256 PUSH1 0x0 DUP3 DUP3 SLOAD PUSH2 0xF05 SWAP2 SWAP1 PUSH2 0x1379 JUMP JUMPDEST SWAP3 POP POP DUP2 SWAP1 SSTORE POP DUP2 PUSH1 0x8 PUSH1 0x0 DUP3 DUP3 SLOAD PUSH2 0xF1E SWAP2 SWAP1 PUSH2 0x1379 JUMP JUMPDEST SWAP3 POP POP DUP2 SWAP1 SSTORE POP POP POP JUMP JUMPDEST PUSH1 0x0 DUP1 SLOAD SWAP1 PUSH2 0x100 EXP SWAP1 DIV PUSH20 0xFFFFFFFFFFFFFFFFFFFFFFFFFFFFFFFFFFFFFFFF AND PUSH20 0xFFFFFFFFFFFFFFFFFFFFFFFFFFFFFFFFFFFFFFFF AND CALLER PUSH20 0xFFFFFFFFFFFFFFFFFFFFFFFFFFFFFFFFFFFFFFFF AND EQ PUSH2 0xFB7 JUMPI PUSH1 0x40 MLOAD PUSH32 0x8C379A000000000000000000000000000000000000000000000000000000000 DUP2 MSTORE PUSH1 0x4 ADD PUSH2 0xFAE SWAP1 PUSH2 0x1504 JUMP JUMPDEST PUSH1 0x40 MLOAD DUP1 SWAP2 SUB SWAP1 REVERT JUMPDEST TIMESTAMP PUSH1 0x2 SLOAD LT PUSH2 0xFFB JUMPI PUSH1 0x40 MLOAD PUSH32 0x8C379A000000000000000000000000000000000000000000000000000000000 DUP2 MSTORE PUSH1 0x4 ADD PUSH2 0xFF2 SWAP1 PUSH2 0x16C1 JUMP JUMPDEST PUSH1 0x40 MLOAD DUP1 SWAP2 SUB SWAP1 REVERT JUMPDEST DUP1 PUSH1 0x1 DUP2 SWAP1 SSTORE POP POP JUMP JUMPDEST PUSH1 0x0 DUP1 PUSH1 0x8 SLOAD SUB PUSH2 0x101A JUMPI PUSH1 0x5 SLOAD SWAP1 POP PUSH2 0x106C JUMP JUMPDEST PUSH1 0x8 SLOAD PUSH8 0xDE0B6B3A7640000 PUSH1 0x3 SLOAD PUSH2 0x1031 PUSH2 0xC9F JUMP JUMPDEST PUSH2 0x103B SWAP2 SWAP1 PUSH2 0x12A3 JUMP JUMPDEST PUSH1 0x4 SLOAD PUSH2 0x1048 SWAP2 SWAP1 PUSH2 0x12D7 JUMP JUMPDEST PUSH2 0x1052 SWAP2 SWAP1 PUSH2 0x12D7 JUMP JUMPDEST PUSH2 0x105C SWAP2 SWAP1 PUSH2 0x1348 JUMP JUMPDEST PUSH1 0x5 SLOAD PUSH2 0x1069 SWAP2 SWAP1 PUSH2 0x1379 JUMP JUMPDEST SWAP1 POP JUMPDEST SWAP1 JUMP JUMPDEST PUSH32 0x0 DUP2 JUMP JUMPDEST PUSH1 0x5 SLOAD DUP2 JUMP JUMPDEST PUSH1 0x0 DUP2 DUP4 GT ISZERO PUSH2 0x10A9 JUMPI DUP2 PUSH2 0x10AB JUMP JUMPDEST DUP3 JUMPDEST SWAP1 POP SWAP3 SWAP2 POP POP JUMP JUMPDEST PUSH1 0x0 DUP1 REVERT JUMPDEST PUSH1 0x0 PUSH20 0xFFFFFFFFFFFFFFFFFFFFFFFFFFFFFFFFFFFFFFFF DUP3 AND SWAP1 POP SWAP2 SWAP1 POP JUMP JUMPDEST PUSH1 0x0 PUSH2 0x10E3 DUP3 PUSH2 0x10B8 JUMP JUMPDEST SWAP1 POP SWAP2 SWAP1 POP JUMP JUMPDEST PUSH2 0x10F3 DUP2 PUSH2 0x10D8 JUMP JUMPDEST DUP2 EQ PUSH2 0x10FE JUMPI PUSH1 0x0 DUP1 REVERT JUMPDEST POP JUMP JUMPDEST PUSH1 0x0 DUP2 CALLDATALOAD SWAP1 POP PUSH2 0x1110 DUP2 PUSH2 0x10EA JUMP JUMPDEST SWAP3 SWAP2 POP POP JUMP JUMPDEST PUSH1 0x0 PUSH1 0x20 DUP3 DUP5 SUB SLT ISZERO PUSH2 0x112C JUMPI PUSH2 0x112B PUSH2 0x10B3 JUMP JUMPDEST JUMPDEST PUSH1 0x0 PUSH2 0x113A DUP5 DUP3 DUP6 ADD PUSH2 0x1101 JUMP JUMPDEST SWAP2 POP POP SWAP3 SWAP2 POP POP JUMP JUMPDEST PUSH1 0x0 DUP2 SWAP1 POP SWAP2 SWAP1 POP JUMP JUMPDEST PUSH2 0x1156 DUP2 PUSH2 0x1143 JUMP JUMPDEST DUP3 MSTORE POP POP JUMP JUMPDEST PUSH1 0x0 PUSH1 0x20 DUP3 ADD SWAP1 POP PUSH2 0x1171 PUSH1 0x0 DUP4 ADD DUP5 PUSH2 0x114D JUMP JUMPDEST SWAP3 SWAP2 POP POP JUMP JUMPDEST PUSH2 0x1180 DUP2 PUSH2 0x1143 JUMP JUMPDEST DUP2 EQ PUSH2 0x118B JUMPI PUSH1 0x0 DUP1 REVERT JUMPDEST POP JUMP JUMPDEST PUSH1 0x0 DUP2 CALLDATALOAD SWAP1 POP PUSH2 0x119D DUP2 PUSH2 0x1177 JUMP JUMPDEST SWAP3 SWAP2 POP POP JUMP JUMPDEST PUSH1 0x0 PUSH1 0x20 DUP3 DUP5 SUB SLT ISZERO PUSH2 0x11B9 JUMPI PUSH2 0x11B8 PUSH2 0x10B3 JUMP JUMPDEST JUMPDEST PUSH1 0x0 PUSH2 0x11C7 DUP5 DUP3 DUP6 ADD PUSH2 0x118E JUMP JUMPDEST SWAP2 POP POP SWAP3 SWAP2 POP POP JUMP JUMPDEST PUSH1 0x0 DUP2 SWAP1 POP SWAP2 SWAP1 POP JUMP JUMPDEST PUSH1 0x0 PUSH2 0x11F5 PUSH2 0x11F0 PUSH2 0x11EB DUP5 PUSH2 0x10B8 JUMP JUMPDEST PUSH2 0x11D0 JUMP JUMPDEST PUSH2 0x10B8 JUMP JUMPDEST SWAP1 POP SWAP2 SWAP1 POP JUMP JUMPDEST PUSH1 0x0 PUSH2 0x1207 DUP3 PUSH2 0x11DA JUMP JUMPDEST SWAP1 POP SWAP2 SWAP1 POP JUMP JUMPDEST PUSH1 0x0 PUSH2 0x1219 DUP3 PUSH2 0x11FC JUMP JUMPDEST SWAP1 POP SWAP2 SWAP1 POP JUMP JUMPDEST PUSH2 0x1229 DUP2 PUSH2 0x120E JUMP JUMPDEST DUP3 MSTORE POP POP JUMP JUMPDEST PUSH1 0x0 PUSH1 0x20 DUP3 ADD SWAP1 POP PUSH2 0x1244 PUSH1 0x0 DUP4 ADD DUP5 PUSH2 0x1220 JUMP JUMPDEST SWAP3 SWAP2 POP POP JUMP JUMPDEST PUSH2 0x1253 DUP2 PUSH2 0x10D8 JUMP JUMPDEST DUP3 MSTORE POP POP JUMP JUMPDEST PUSH1 0x0 PUSH1 0x20 DUP3 ADD SWAP1 POP PUSH2 0x126E PUSH1 0x0 DUP4 ADD DUP5 PUSH2 0x124A JUMP JUMPDEST SWAP3 SWAP2 POP POP JUMP JUMPDEST PUSH32 0x4E487B7100000000000000000000000000000000000000000000000000000000 PUSH1 0x0 MSTORE PUSH1 0x11 PUSH1 0x4 MSTORE PUSH1 0x24 PUSH1 0x0 REVERT JUMPDEST PUSH1 0x0 PUSH2 0x12AE DUP3 PUSH2 0x1143 JUMP JUMPDEST SWAP2 POP PUSH2 0x12B9 DUP4 PUSH2 0x1143 JUMP JUMPDEST SWAP3 POP DUP3 DUP3 SUB SWAP1 POP DUP2 DUP2 GT ISZERO PUSH2 0x12D1 JUMPI PUSH2 0x12D0 PUSH2 0x1274 JUMP JUMPDEST JUMPDEST SWAP3 SWAP2 POP POP JUMP JUMPDEST PUSH1 0x0 PUSH2 0x12E2 DUP3 PUSH2 0x1143 JUMP JUMPDEST SWAP2 POP PUSH2 0x12ED DUP4 PUSH2 0x1143 JUMP JUMPDEST SWAP3 POP DUP3 DUP3 MUL PUSH2 0x12FB DUP2 PUSH2 0x1143 JUMP JUMPDEST SWAP2 POP DUP3 DUP3 DIV DUP5 EQ DUP4 ISZERO OR PUSH2 0x1312 JUMPI PUSH2 0x1311 PUSH2 0x1274 JUMP JUMPDEST JUMPDEST POP SWAP3 SWAP2 POP POP JUMP JUMPDEST PUSH32 0x4E487B7100000000000000000000000000000000000000000000000000000000 PUSH1 0x0 MSTORE PUSH1 0x12 PUSH1 0x4 MSTORE PUSH1 0x24 PUSH1 0x0 REVERT JUMPDEST PUSH1 0x0 PUSH2 0x1353 DUP3 PUSH2 0x1143 JUMP JUMPDEST SWAP2 POP PUSH2 0x135E DUP4 PUSH2 0x1143 JUMP JUMPDEST SWAP3 POP DUP3 PUSH2 0x136E JUMPI PUSH2 0x136D PUSH2 0x1319 JUMP JUMPDEST JUMPDEST DUP3 DUP3 DIV SWAP1 POP SWAP3 SWAP2 POP POP JUMP JUMPDEST PUSH1 0x0 PUSH2 0x1384 DUP3 PUSH2 0x1143 JUMP JUMPDEST SWAP2 POP PUSH2 0x138F DUP4 PUSH2 0x1143 JUMP JUMPDEST SWAP3 POP DUP3 DUP3 ADD SWAP1 POP DUP1 DUP3 GT ISZERO PUSH2 0x13A7 JUMPI PUSH2 0x13A6 PUSH2 0x1274 JUMP JUMPDEST JUMPDEST SWAP3 SWAP2 POP POP JUMP JUMPDEST PUSH1 0x0 DUP3 DUP3 MSTORE PUSH1 0x20 DUP3 ADD SWAP1 POP SWAP3 SWAP2 POP POP JUMP JUMPDEST PUSH32 0x616D6F756E74203D203000000000000000000000000000000000000000000000 PUSH1 0x0 DUP3 ADD MSTORE POP JUMP JUMPDEST PUSH1 0x0 PUSH2 0x13F4 PUSH1 0xA DUP4 PUSH2 0x13AD JUMP JUMPDEST SWAP2 POP PUSH2 0x13FF DUP3 PUSH2 0x13BE JUMP JUMPDEST PUSH1 0x20 DUP3 ADD SWAP1 POP SWAP2 SWAP1 POP JUMP JUMPDEST PUSH1 0x0 PUSH1 0x20 DUP3 ADD SWAP1 POP DUP2 DUP2 SUB PUSH1 0x0 DUP4 ADD MSTORE PUSH2 0x1423 DUP2 PUSH2 0x13E7 JUMP JUMPDEST SWAP1 POP SWAP2 SWAP1 POP JUMP JUMPDEST PUSH1 0x0 PUSH1 0x40 DUP3 ADD SWAP1 POP PUSH2 0x143F PUSH1 0x0 DUP4 ADD DUP6 PUSH2 0x124A JUMP JUMPDEST PUSH2 0x144C PUSH1 0x20 DUP4 ADD DUP5 PUSH2 0x114D JUMP JUMPDEST SWAP4 SWAP3 POP POP POP JUMP JUMPDEST PUSH1 0x0 DUP2 ISZERO ISZERO SWAP1 POP SWAP2 SWAP1 POP JUMP JUMPDEST PUSH2 0x1468 DUP2 PUSH2 0x1453 JUMP JUMPDEST DUP2 EQ PUSH2 0x1473 JUMPI PUSH1 0x0 DUP1 REVERT JUMPDEST POP JUMP JUMPDEST PUSH1 0x0 DUP2 MLOAD SWAP1 POP PUSH2 0x1485 DUP2 PUSH2 0x145F JUMP JUMPDEST SWAP3 SWAP2 POP POP JUMP JUMPDEST PUSH1 0x0 PUSH1 0x20 DUP3 DUP5 SUB SLT ISZERO PUSH2 0x14A1 JUMPI PUSH2 0x14A0 PUSH2 0x10B3 JUMP JUMPDEST JUMPDEST PUSH1 0x0 PUSH2 0x14AF DUP5 DUP3 DUP6 ADD PUSH2 0x1476 JUMP JUMPDEST SWAP2 POP POP SWAP3 SWAP2 POP POP JUMP JUMPDEST PUSH32 0x6E6F7420617574686F72697A6564000000000000000000000000000000000000 PUSH1 0x0 DUP3 ADD MSTORE POP JUMP JUMPDEST PUSH1 0x0 PUSH2 0x14EE PUSH1 0xE DUP4 PUSH2 0x13AD JUMP JUMPDEST SWAP2 POP PUSH2 0x14F9 DUP3 PUSH2 0x14B8 JUMP JUMPDEST PUSH1 0x20 DUP3 ADD SWAP1 POP SWAP2 SWAP1 POP JUMP JUMPDEST PUSH1 0x0 PUSH1 0x20 DUP3 ADD SWAP1 POP DUP2 DUP2 SUB PUSH1 0x0 DUP4 ADD MSTORE PUSH2 0x151D DUP2 PUSH2 0x14E1 JUMP JUMPDEST SWAP1 POP SWAP2 SWAP1 POP JUMP JUMPDEST PUSH32 0x7265776172642072617465203D20300000000000000000000000000000000000 PUSH1 0x0 DUP3 ADD MSTORE POP JUMP JUMPDEST PUSH1 0x0 PUSH2 0x155A PUSH1 0xF DUP4 PUSH2 0x13AD JUMP JUMPDEST SWAP2 POP PUSH2 0x1565 DUP3 PUSH2 0x1524 JUMP JUMPDEST PUSH1 0x20 DUP3 ADD SWAP1 POP SWAP2 SWAP1 POP JUMP JUMPDEST PUSH1 0x0 PUSH1 0x20 DUP3 ADD SWAP1 POP DUP2 DUP2 SUB PUSH1 0x0 DUP4 ADD MSTORE PUSH2 0x1589 DUP2 PUSH2 0x154D JUMP JUMPDEST SWAP1 POP SWAP2 SWAP1 POP JUMP JUMPDEST PUSH1 0x0 DUP2 MLOAD SWAP1 POP PUSH2 0x159F DUP2 PUSH2 0x1177 JUMP JUMPDEST SWAP3 SWAP2 POP POP JUMP JUMPDEST PUSH1 0x0 PUSH1 0x20 DUP3 DUP5 SUB SLT ISZERO PUSH2 0x15BB JUMPI PUSH2 0x15BA PUSH2 0x10B3 JUMP JUMPDEST JUMPDEST PUSH1 0x0 PUSH2 0x15C9 DUP5 DUP3 DUP6 ADD PUSH2 0x1590 JUMP JUMPDEST SWAP2 POP POP SWAP3 SWAP2 POP POP JUMP JUMPDEST PUSH32 0x72657761726420616D6F756E74203E2062616C616E6365000000000000000000 PUSH1 0x0 DUP3 ADD MSTORE POP JUMP JUMPDEST PUSH1 0x0 PUSH2 0x1608 PUSH1 0x17 DUP4 PUSH2 0x13AD JUMP JUMPDEST SWAP2 POP PUSH2 0x1613 DUP3 PUSH2 0x15D2 JUMP JUMPDEST PUSH1 0x20 DUP3 ADD SWAP1 POP SWAP2 SWAP1 POP JUMP JUMPDEST PUSH1 0x0 PUSH1 0x20 DUP3 ADD SWAP1 POP DUP2 DUP2 SUB PUSH1 0x0 DUP4 ADD MSTORE PUSH2 0x1637 DUP2 PUSH2 0x15FB JUMP JUMPDEST SWAP1 POP SWAP2 SWAP1 POP JUMP JUMPDEST PUSH1 0x0 PUSH1 0x60 DUP3 ADD SWAP1 POP PUSH2 0x1653 PUSH1 0x0 DUP4 ADD DUP7 PUSH2 0x124A JUMP JUMPDEST PUSH2 0x1660 PUSH1 0x20 DUP4 ADD DUP6 PUSH2 0x124A JUMP JUMPDEST PUSH2 0x166D PUSH1 0x40 DUP4 ADD DUP5 PUSH2 0x114D JUMP JUMPDEST SWAP5 SWAP4 POP POP POP POP JUMP JUMPDEST PUSH32 0x726577617264206475726174696F6E206E6F742066696E697368656400000000 PUSH1 0x0 DUP3 ADD MSTORE POP JUMP JUMPDEST PUSH1 0x0 PUSH2 0x16AB PUSH1 0x1C DUP4 PUSH2 0x13AD JUMP JUMPDEST SWAP2 POP PUSH2 0x16B6 DUP3 PUSH2 0x1675 JUMP JUMPDEST PUSH1 0x20 DUP3 ADD SWAP1 POP SWAP2 SWAP1 POP JUMP JUMPDEST PUSH1 0x0 PUSH1 0x20 DUP3 ADD SWAP1 POP DUP2 DUP2 SUB PUSH1 0x0 DUP4 ADD MSTORE PUSH2 0x16DA DUP2 PUSH2 0x169E JUMP JUMPDEST SWAP1 POP SWAP2 SWAP1 POP JUMP INVALID LOG2 PUSH5 0x6970667358 0x22 SLT KECCAK256 CALLVALUE NOT 0x1F SHR 0xDA 0xC9 0x21 0x2D PUSH17 0x1EB04F06AE009FE2EE2C7D102A5644F700 PUSH15 0xA7B0EE2C5364736F6C634300081200 CALLER "
				},
				"gasEstimates": {
					"creation": {
						"codeDepositCost": "1182200",
						"executionCost": "infinite",
						"totalCost": "infinite"
					},
					"external": {
						"balanceOf(address)": "2903",
						"duration()": "2497",
						"earned(address)": "infinite",
						"finishAt()": "2496",
						"getReward()": "infinite",
						"lastTimeRewardApplicable()": "2588",
						"notifyRewardAmount(uint256)": "infinite",
						"owner()": "2622",
						"rewardPerToken()": "infinite",
						"rewardPerTokenStored()": "2539",
						"rewardRate()": "2474",
						"rewards(address)": "2860",
						"rewardsToken()": "infinite",
						"setRewardsDuration(uint256)": "26853",
						"stake(uint256)": "infinite",
						"stakingToken()": "infinite",
						"totalSupply()": "2519",
						"updatedAt()": "2452",
						"userRewardPerTokenPaid(address)": "2903",
						"withdraw(uint256)": "infinite"
					},
					"internal": {
						"_min(uint256,uint256)": "67"
					}
				},
				"methodIdentifiers": {
					"balanceOf(address)": "70a08231",
					"duration()": "0fb5a6b4",
					"earned(address)": "008cc262",
					"finishAt()": "67d3b488",
					"getReward()": "3d18b912",
					"lastTimeRewardApplicable()": "80faa57d",
					"notifyRewardAmount(uint256)": "3c6b16ab",
					"owner()": "8da5cb5b",
					"rewardPerToken()": "cd3daf9d",
					"rewardPerTokenStored()": "df136d65",
					"rewardRate()": "7b0a47ee",
					"rewards(address)": "0700037d",
					"rewardsToken()": "d1af0c7d",
					"setRewardsDuration(uint256)": "cc1a378f",
					"stake(uint256)": "a694fc3a",
					"stakingToken()": "72f702f3",
					"totalSupply()": "18160ddd",
					"updatedAt()": "7519ab50",
					"userRewardPerTokenPaid(address)": "8b876347",
					"withdraw(uint256)": "2e1a7d4d"
				}
			},
			"storageLayout": {
				"storage": [
					{
						"astId": 145,
						"contract": "Contract/re.sol:StakingRewards",
						"label": "owner",
						"offset": 0,
						"slot": "0",
						"type": "t_address"
					},
					{
						"astId": 147,
						"contract": "Contract/re.sol:StakingRewards",
						"label": "duration",
						"offset": 0,
						"slot": "1",
						"type": "t_uint256"
					},
					{
						"astId": 149,
						"contract": "Contract/re.sol:StakingRewards",
						"label": "finishAt",
						"offset": 0,
						"slot": "2",
						"type": "t_uint256"
					},
					{
						"astId": 151,
						"contract": "Contract/re.sol:StakingRewards",
						"label": "updatedAt",
						"offset": 0,
						"slot": "3",
						"type": "t_uint256"
					},
					{
						"astId": 153,
						"contract": "Contract/re.sol:StakingRewards",
						"label": "rewardRate",
						"offset": 0,
						"slot": "4",
						"type": "t_uint256"
					},
					{
						"astId": 155,
						"contract": "Contract/re.sol:StakingRewards",
						"label": "rewardPerTokenStored",
						"offset": 0,
						"slot": "5",
						"type": "t_uint256"
					},
					{
						"astId": 159,
						"contract": "Contract/re.sol:StakingRewards",
						"label": "userRewardPerTokenPaid",
						"offset": 0,
						"slot": "6",
						"type": "t_mapping(t_address,t_uint256)"
					},
					{
						"astId": 163,
						"contract": "Contract/re.sol:StakingRewards",
						"label": "rewards",
						"offset": 0,
						"slot": "7",
						"type": "t_mapping(t_address,t_uint256)"
					},
					{
						"astId": 165,
						"contract": "Contract/re.sol:StakingRewards",
						"label": "totalSupply",
						"offset": 0,
						"slot": "8",
						"type": "t_uint256"
					},
					{
						"astId": 169,
						"contract": "Contract/re.sol:StakingRewards",
						"label": "balanceOf",
						"offset": 0,
						"slot": "9",
						"type": "t_mapping(t_address,t_uint256)"
					}
				],
				"types": {
					"t_address": {
						"encoding": "inplace",
						"label": "address",
						"numberOfBytes": "20"
					},
					"t_mapping(t_address,t_uint256)": {
						"encoding": "mapping",
						"key": "t_address",
						"label": "mapping(address => uint256)",
						"numberOfBytes": "32",
						"value": "t_uint256"
					},
					"t_uint256": {
						"encoding": "inplace",
						"label": "uint256",
						"numberOfBytes": "32"
					}
				}
			},
			"userdoc": {
				"kind": "user",
				"methods": {},
				"version": 1
			}
		}
	}
}