{
	"erc721Flat.sol": {
		"myerc721": {
			"abi": [
				{
					"inputs": [],
					"stateMutability": "nonpayable",
					"type": "constructor"
				},
				{
					"inputs": [
						{
							"internalType": "address",
							"name": "sender",
							"type": "address"
						},
						{
							"internalType": "uint256",
							"name": "tokenId",
							"type": "uint256"
						},
						{
							"internalType": "address",
							"name": "owner",
							"type": "address"
						}
					],
					"name": "ERC721IncorrectOwner",
					"type": "error"
				},
				{
					"inputs": [
						{
							"internalType": "address",
							"name": "operator",
							"type": "address"
						},
						{
							"internalType": "uint256",
							"name": "tokenId",
							"type": "uint256"
						}
					],
					"name": "ERC721InsufficientApproval",
					"type": "error"
				},
				{
					"inputs": [
						{
							"internalType": "address",
							"name": "approver",
							"type": "address"
						}
					],
					"name": "ERC721InvalidApprover",
					"type": "error"
				},
				{
					"inputs": [
						{
							"internalType": "address",
							"name": "operator",
							"type": "address"
						}
					],
					"name": "ERC721InvalidOperator",
					"type": "error"
				},
				{
					"inputs": [
						{
							"internalType": "address",
							"name": "owner",
							"type": "address"
						}
					],
					"name": "ERC721InvalidOwner",
					"type": "error"
				},
				{
					"inputs": [
						{
							"internalType": "address",
							"name": "receiver",
							"type": "address"
						}
					],
					"name": "ERC721InvalidReceiver",
					"type": "error"
				},
				{
					"inputs": [
						{
							"internalType": "address",
							"name": "sender",
							"type": "address"
						}
					],
					"name": "ERC721InvalidSender",
					"type": "error"
				},
				{
					"inputs": [
						{
							"internalType": "uint256",
							"name": "tokenId",
							"type": "uint256"
						}
					],
					"name": "ERC721NonexistentToken",
					"type": "error"
				},
				{
					"inputs": [
						{
							"internalType": "address",
							"name": "owner",
							"type": "address"
						}
					],
					"name": "OwnableInvalidOwner",
					"type": "error"
				},
				{
					"inputs": [
						{
							"internalType": "address",
							"name": "account",
							"type": "address"
						}
					],
					"name": "OwnableUnauthorizedAccount",
					"type": "error"
				},
				{
					"anonymous": false,
					"inputs": [
						{
							"indexed": true,
							"internalType": "address",
							"name": "owner",
							"type": "address"
						},
						{
							"indexed": true,
							"internalType": "address",
							"name": "approved",
							"type": "address"
						},
						{
							"indexed": true,
							"internalType": "uint256",
							"name": "tokenId",
							"type": "uint256"
						}
					],
					"name": "Approval",
					"type": "event"
				},
				{
					"anonymous": false,
					"inputs": [
						{
							"indexed": true,
							"internalType": "address",
							"name": "owner",
							"type": "address"
						},
						{
							"indexed": true,
							"internalType": "address",
							"name": "operator",
							"type": "address"
						},
						{
							"indexed": false,
							"internalType": "bool",
							"name": "approved",
							"type": "bool"
						}
					],
					"name": "ApprovalForAll",
					"type": "event"
				},
				{
					"anonymous": false,
					"inputs": [
						{
							"indexed": false,
							"internalType": "uint256",
							"name": "_fromTokenId",
							"type": "uint256"
						},
						{
							"indexed": false,
							"internalType": "uint256",
							"name": "_toTokenId",
							"type": "uint256"
						}
					],
					"name": "BatchMetadataUpdate",
					"type": "event"
				},
				{
					"anonymous": false,
					"inputs": [
						{
							"indexed": false,
							"internalType": "uint256",
							"name": "_tokenId",
							"type": "uint256"
						}
					],
					"name": "MetadataUpdate",
					"type": "event"
				},
				{
					"anonymous": false,
					"inputs": [
						{
							"indexed": true,
							"internalType": "address",
							"name": "previousOwner",
							"type": "address"
						},
						{
							"indexed": true,
							"internalType": "address",
							"name": "newOwner",
							"type": "address"
						}
					],
					"name": "OwnershipTransferred",
					"type": "event"
				},
				{
					"anonymous": false,
					"inputs": [
						{
							"indexed": true,
							"internalType": "address",
							"name": "from",
							"type": "address"
						},
						{
							"indexed": true,
							"internalType": "address",
							"name": "to",
							"type": "address"
						},
						{
							"indexed": true,
							"internalType": "uint256",
							"name": "tokenId",
							"type": "uint256"
						}
					],
					"name": "Transfer",
					"type": "event"
				},
				{
					"inputs": [
						{
							"internalType": "address",
							"name": "to",
							"type": "address"
						},
						{
							"internalType": "uint256",
							"name": "tokenId",
							"type": "uint256"
						}
					],
					"name": "approve",
					"outputs": [],
					"stateMutability": "nonpayable",
					"type": "function"
				},
				{
					"inputs": [
						{
							"internalType": "address",
							"name": "owner",
							"type": "address"
						}
					],
					"name": "balanceOf",
					"outputs": [
						{
							"internalType": "uint256",
							"name": "",
							"type": "uint256"
						}
					],
					"stateMutability": "view",
					"type": "function"
				},
				{
					"inputs": [
						{
							"internalType": "uint256",
							"name": "tokenId",
							"type": "uint256"
						}
					],
					"name": "burn",
					"outputs": [],
					"stateMutability": "nonpayable",
					"type": "function"
				},
				{
					"inputs": [
						{
							"internalType": "uint256",
							"name": "tokenId",
							"type": "uint256"
						}
					],
					"name": "getApproved",
					"outputs": [
						{
							"internalType": "address",
							"name": "",
							"type": "address"
						}
					],
					"stateMutability": "view",
					"type": "function"
				},
				{
					"inputs": [
						{
							"internalType": "address",
							"name": "owner",
							"type": "address"
						},
						{
							"internalType": "address",
							"name": "operator",
							"type": "address"
						}
					],
					"name": "isApprovedForAll",
					"outputs": [
						{
							"internalType": "bool",
							"name": "",
							"type": "bool"
						}
					],
					"stateMutability": "view",
					"type": "function"
				},
				{
					"inputs": [],
					"name": "name",
					"outputs": [
						{
							"internalType": "string",
							"name": "",
							"type": "string"
						}
					],
					"stateMutability": "view",
					"type": "function"
				},
				{
					"inputs": [],
					"name": "owner",
					"outputs": [
						{
							"internalType": "address",
							"name": "",
							"type": "address"
						}
					],
					"stateMutability": "view",
					"type": "function"
				},
				{
					"inputs": [
						{
							"internalType": "uint256",
							"name": "tokenId",
							"type": "uint256"
						}
					],
					"name": "ownerOf",
					"outputs": [
						{
							"internalType": "address",
							"name": "",
							"type": "address"
						}
					],
					"stateMutability": "view",
					"type": "function"
				},
				{
					"inputs": [],
					"name": "renounceOwnership",
					"outputs": [],
					"stateMutability": "nonpayable",
					"type": "function"
				},
				{
					"inputs": [
						{
							"internalType": "address",
							"name": "to",
							"type": "address"
						}
					],
					"name": "safeMint",
					"outputs": [],
					"stateMutability": "nonpayable",
					"type": "function"
				},
				{
					"inputs": [
						{
							"internalType": "address",
							"name": "from",
							"type": "address"
						},
						{
							"internalType": "address",
							"name": "to",
							"type": "address"
						},
						{
							"internalType": "uint256",
							"name": "tokenId",
							"type": "uint256"
						}
					],
					"name": "safeTransferFrom",
					"outputs": [],
					"stateMutability": "nonpayable",
					"type": "function"
				},
				{
					"inputs": [
						{
							"internalType": "address",
							"name": "from",
							"type": "address"
						},
						{
							"internalType": "address",
							"name": "to",
							"type": "address"
						},
						{
							"internalType": "uint256",
							"name": "tokenId",
							"type": "uint256"
						},
						{
							"internalType": "bytes",
							"name": "data",
							"type": "bytes"
						}
					],
					"name": "safeTransferFrom",
					"outputs": [],
					"stateMutability": "nonpayable",
					"type": "function"
				},
				{
					"inputs": [
						{
							"internalType": "address",
							"name": "operator",
							"type": "address"
						},
						{
							"internalType": "bool",
							"name": "approved",
							"type": "bool"
						}
					],
					"name": "setApprovalForAll",
					"outputs": [],
					"stateMutability": "nonpayable",
					"type": "function"
				},
				{
					"inputs": [
						{
							"internalType": "bytes4",
							"name": "interfaceId",
							"type": "bytes4"
						}
					],
					"name": "supportsInterface",
					"outputs": [
						{
							"internalType": "bool",
							"name": "",
							"type": "bool"
						}
					],
					"stateMutability": "view",
					"type": "function"
				},
				{
					"inputs": [],
					"name": "symbol",
					"outputs": [
						{
							"internalType": "string",
							"name": "",
							"type": "string"
						}
					],
					"stateMutability": "view",
					"type": "function"
				},
				{
					"inputs": [
						{
							"internalType": "uint256",
							"name": "tokenId",
							"type": "uint256"
						}
					],
					"name": "tokenURI",
					"outputs": [
						{
							"internalType": "string",
							"name": "",
							"type": "string"
						}
					],
					"stateMutability": "view",
					"type": "function"
				},
				{
					"inputs": [
						{
							"internalType": "address",
							"name": "from",
							"type": "address"
						},
						{
							"internalType": "address",
							"name": "to",
							"type": "address"
						},
						{
							"internalType": "uint256",
							"name": "tokenId",
							"type": "uint256"
						}
					],
					"name": "transferFrom",
					"outputs": [],
					"stateMutability": "nonpayable",
					"type": "function"
				},
				{
					"inputs": [
						{
							"internalType": "address",
							"name": "newOwner",
							"type": "address"
						}
					],
					"name": "transferOwnership",
					"outputs": [],
					"stateMutability": "nonpayable",
					"type": "function"
				}
			],
			"devdoc": {
				"errors": {
					"ERC721IncorrectOwner(address,uint256,address)": [
						{
							"details": "Indicates an error related to the ownership over a particular token. Used in transfers.",
							"params": {
								"owner": "Address of the current owner of a token.",
								"sender": "Address whose tokens are being transferred.",
								"tokenId": "Identifier number of a token."
							}
						}
					],
					"ERC721InsufficientApproval(address,uint256)": [
						{
							"details": "Indicates a failure with the `operator`’s approval. Used in transfers.",
							"params": {
								"operator": "Address that may be allowed to operate on tokens without being their owner.",
								"tokenId": "Identifier number of a token."
							}
						}
					],
					"ERC721InvalidApprover(address)": [
						{
							"details": "Indicates a failure with the `approver` of a token to be approved. Used in approvals.",
							"params": {
								"approver": "Address initiating an approval operation."
							}
						}
					],
					"ERC721InvalidOperator(address)": [
						{
							"details": "Indicates a failure with the `operator` to be approved. Used in approvals.",
							"params": {
								"operator": "Address that may be allowed to operate on tokens without being their owner."
							}
						}
					],
					"ERC721InvalidOwner(address)": [
						{
							"details": "Indicates that an address can't be an owner. For example, `address(0)` is a forbidden owner in EIP-20. Used in balance queries.",
							"params": {
								"owner": "Address of the current owner of a token."
							}
						}
					],
					"ERC721InvalidReceiver(address)": [
						{
							"details": "Indicates a failure with the token `receiver`. Used in transfers.",
							"params": {
								"receiver": "Address to which tokens are being transferred."
							}
						}
					],
					"ERC721InvalidSender(address)": [
						{
							"details": "Indicates a failure with the token `sender`. Used in transfers.",
							"params": {
								"sender": "Address whose tokens are being transferred."
							}
						}
					],
					"ERC721NonexistentToken(uint256)": [
						{
							"details": "Indicates a `tokenId` whose `owner` is the zero address.",
							"params": {
								"tokenId": "Identifier number of a token."
							}
						}
					],
					"OwnableInvalidOwner(address)": [
						{
							"details": "The owner is not a valid owner account. (eg. `address(0)`)"
						}
					],
					"OwnableUnauthorizedAccount(address)": [
						{
							"details": "The caller account is not authorized to perform an operation."
						}
					]
				},
				"events": {
					"Approval(address,address,uint256)": {
						"details": "Emitted when `owner` enables `approved` to manage the `tokenId` token."
					},
					"ApprovalForAll(address,address,bool)": {
						"details": "Emitted when `owner` enables or disables (`approved`) `operator` to manage all of its assets."
					},
					"BatchMetadataUpdate(uint256,uint256)": {
						"details": "This event emits when the metadata of a range of tokens is changed. So that the third-party platforms such as NFT market could timely update the images and related attributes of the NFTs."
					},
					"MetadataUpdate(uint256)": {
						"details": "This event emits when the metadata of a token is changed. So that the third-party platforms such as NFT market could timely update the images and related attributes of the NFT."
					},
					"Transfer(address,address,uint256)": {
						"details": "Emitted when `tokenId` token is transferred from `from` to `to`."
					}
				},
				"kind": "dev",
				"methods": {
					"approve(address,uint256)": {
						"details": "See {IERC721-approve}."
					},
					"balanceOf(address)": {
						"details": "See {IERC721-balanceOf}."
					},
					"burn(uint256)": {
						"details": "Burns `tokenId`. See {ERC721-_burn}. Requirements: - The caller must own `tokenId` or be an approved operator."
					},
					"getApproved(uint256)": {
						"details": "See {IERC721-getApproved}."
					},
					"isApprovedForAll(address,address)": {
						"details": "See {IERC721-isApprovedForAll}."
					},
					"name()": {
						"details": "See {IERC721Metadata-name}."
					},
					"owner()": {
						"details": "Returns the address of the current owner."
					},
					"ownerOf(uint256)": {
						"details": "See {IERC721-ownerOf}."
					},
					"renounceOwnership()": {
						"details": "Leaves the contract without owner. It will not be possible to call `onlyOwner` functions. Can only be called by the current owner. NOTE: Renouncing ownership will leave the contract without an owner, thereby disabling any functionality that is only available to the owner."
					},
					"safeTransferFrom(address,address,uint256)": {
						"details": "See {IERC721-safeTransferFrom}."
					},
					"safeTransferFrom(address,address,uint256,bytes)": {
						"details": "See {IERC721-safeTransferFrom}."
					},
					"setApprovalForAll(address,bool)": {
						"details": "See {IERC721-setApprovalForAll}."
					},
					"symbol()": {
						"details": "See {IERC721Metadata-symbol}."
					},
					"transferFrom(address,address,uint256)": {
						"details": "See {IERC721-transferFrom}."
					},
					"transferOwnership(address)": {
						"details": "Transfers ownership of the contract to a new account (`newOwner`). Can only be called by the current owner."
					}
				},
				"version": 1
			},
			"evm": {
				"assembly": "    /* \"erc721Flat.sol\":40556:41837  contract myerc721 is ERC721, ERC721URIStorage, ERC721Burnable, Ownable(msg.sender) {... */\n  mstore(0x40, 0x80)\n    /* \"erc721Flat.sol\":40982:41020  constructor() ERC721(\"e721\", \"721\") {} */\n  callvalue\n  dup1\n  iszero\n  tag_1\n  jumpi\n  0x00\n  dup1\n  revert\ntag_1:\n  pop\n    /* \"erc721Flat.sol\":40627:40637  msg.sender */\n  caller\n    /* \"erc721Flat.sol\":24950:25066  constructor(string memory name_, string memory symbol_) {... */\n  mload(0x40)\n  dup1\n  0x40\n  add\n  0x40\n  mstore\n  dup1\n  0x04\n  dup2\n  mstore\n  0x20\n  add\n  0x6537323100000000000000000000000000000000000000000000000000000000\n  dup2\n  mstore\n  pop\n  mload(0x40)\n  dup1\n  0x40\n  add\n  0x40\n  mstore\n  dup1\n  0x03\n  dup2\n  mstore\n  0x20\n  add\n  0x3732310000000000000000000000000000000000000000000000000000000000\n  dup2\n  mstore\n  pop\n    /* \"erc721Flat.sol\":25025:25030  name_ */\n  dup2\n    /* \"erc721Flat.sol\":25017:25022  _name */\n  0x00\n    /* \"erc721Flat.sol\":25017:25030  _name = name_ */\n  swap1\n  dup2\n  tag_6\n  swap2\n  swap1\n  tag_7\n  jump\t// in\ntag_6:\n  pop\n    /* \"erc721Flat.sol\":25051:25058  symbol_ */\n  dup1\n    /* \"erc721Flat.sol\":25041:25048  _symbol */\n  0x01\n    /* \"erc721Flat.sol\":25041:25058  _symbol = symbol_ */\n  swap1\n  dup2\n  tag_8\n  swap2\n  swap1\n  tag_7\n  jump\t// in\ntag_8:\n  pop\n    /* \"erc721Flat.sol\":24950:25066  constructor(string memory name_, string memory symbol_) {... */\n  pop\n  pop\n    /* \"erc721Flat.sol\":12090:12091  0 */\n  0x00\n    /* \"erc721Flat.sol\":12066:12092  initialOwner == address(0) */\n  0xffffffffffffffffffffffffffffffffffffffff\n  and\n    /* \"erc721Flat.sol\":12066:12078  initialOwner */\n  dup2\n    /* \"erc721Flat.sol\":12066:12092  initialOwner == address(0) */\n  0xffffffffffffffffffffffffffffffffffffffff\n  and\n  sub\n    /* \"erc721Flat.sol\":12062:12159  if (initialOwner == address(0)) {... */\n  tag_10\n  jumpi\n    /* \"erc721Flat.sol\":12144:12145  0 */\n  0x00\n    /* \"erc721Flat.sol\":12116:12147  OwnableInvalidOwner(address(0)) */\n  mload(0x40)\n  0x1e4fbdf700000000000000000000000000000000000000000000000000000000\n  dup2\n  mstore\n  0x04\n  add\n  tag_11\n  swap2\n  swap1\n  tag_12\n  jump\t// in\ntag_11:\n  mload(0x40)\n  dup1\n  swap2\n  sub\n  swap1\n  revert\n    /* \"erc721Flat.sol\":12062:12159  if (initialOwner == address(0)) {... */\ntag_10:\n    /* \"erc721Flat.sol\":12169:12201  _transferOwnership(initialOwner) */\n  tag_13\n    /* \"erc721Flat.sol\":12188:12200  initialOwner */\n  dup2\n    /* \"erc721Flat.sol\":12169:12187  _transferOwnership */\n  shl(0x20, tag_14)\n    /* \"erc721Flat.sol\":12169:12201  _transferOwnership(initialOwner) */\n  0x20\n  shr\n  jump\t// in\ntag_13:\n    /* \"erc721Flat.sol\":12017:12209  constructor(address initialOwner) {... */\n  pop\n    /* \"erc721Flat.sol\":40556:41837  contract myerc721 is ERC721, ERC721URIStorage, ERC721Burnable, Ownable(msg.sender) {... */\n  jump(tag_16)\n    /* \"erc721Flat.sol\":13765:13956  function _transferOwnership(address newOwner) internal virtual {... */\ntag_14:\n    /* \"erc721Flat.sol\":13839:13855  address oldOwner */\n  0x00\n    /* \"erc721Flat.sol\":13858:13864  _owner */\n  0x07\n  0x00\n  swap1\n  sload\n  swap1\n  0x0100\n  exp\n  swap1\n  div\n  0xffffffffffffffffffffffffffffffffffffffff\n  and\n    /* \"erc721Flat.sol\":13839:13864  address oldOwner = _owner */\n  swap1\n  pop\n    /* \"erc721Flat.sol\":13884:13892  newOwner */\n  dup2\n    /* \"erc721Flat.sol\":13875:13881  _owner */\n  0x07\n  0x00\n    /* \"erc721Flat.sol\":13875:13892  _owner = newOwner */\n  0x0100\n  exp\n  dup2\n  sload\n  dup2\n  0xffffffffffffffffffffffffffffffffffffffff\n  mul\n  not\n  and\n  swap1\n  dup4\n  0xffffffffffffffffffffffffffffffffffffffff\n  and\n  mul\n  or\n  swap1\n  sstore\n  pop\n    /* \"erc721Flat.sol\":13939:13947  newOwner */\n  dup2\n    /* \"erc721Flat.sol\":13908:13948  OwnershipTransferred(oldOwner, newOwner) */\n  0xffffffffffffffffffffffffffffffffffffffff\n  and\n    /* \"erc721Flat.sol\":13929:13937  oldOwner */\n  dup2\n    /* \"erc721Flat.sol\":13908:13948  OwnershipTransferred(oldOwner, newOwner) */\n  0xffffffffffffffffffffffffffffffffffffffff\n  and\n  0x8be0079c531659141344cd1fd0a4f28419497f9722a3daafe3b4186f6b6457e0\n  mload(0x40)\n  mload(0x40)\n  dup1\n  swap2\n  sub\n  swap1\n  log3\n    /* \"erc721Flat.sol\":13828:13956  {... */\n  pop\n    /* \"erc721Flat.sol\":13765:13956  function _transferOwnership(address newOwner) internal virtual {... */\n  pop\n  jump\t// out\n    /* \"#utility.yul\":7:106   */\ntag_18:\n    /* \"#utility.yul\":59:65   */\n  0x00\n    /* \"#utility.yul\":93:98   */\n  dup2\n    /* \"#utility.yul\":87:99   */\n  mload\n    /* \"#utility.yul\":77:99   */\n  swap1\n  pop\n    /* \"#utility.yul\":7:106   */\n  swap2\n  swap1\n  pop\n  jump\t// out\n    /* \"#utility.yul\":112:292   */\ntag_19:\n    /* \"#utility.yul\":160:237   */\n  0x4e487b7100000000000000000000000000000000000000000000000000000000\n    /* \"#utility.yul\":157:158   */\n  0x00\n    /* \"#utility.yul\":150:238   */\n  mstore\n    /* \"#utility.yul\":257:261   */\n  0x41\n    /* \"#utility.yul\":254:255   */\n  0x04\n    /* \"#utility.yul\":247:262   */\n  mstore\n    /* \"#utility.yul\":281:285   */\n  0x24\n    /* \"#utility.yul\":278:279   */\n  0x00\n    /* \"#utility.yul\":271:286   */\n  revert\n    /* \"#utility.yul\":298:478   */\ntag_20:\n    /* \"#utility.yul\":346:423   */\n  0x4e487b7100000000000000000000000000000000000000000000000000000000\n    /* \"#utility.yul\":343:344   */\n  0x00\n    /* \"#utility.yul\":336:424   */\n  mstore\n    /* \"#utility.yul\":443:447   */\n  0x22\n    /* \"#utility.yul\":440:441   */\n  0x04\n    /* \"#utility.yul\":433:448   */\n  mstore\n    /* \"#utility.yul\":467:471   */\n  0x24\n    /* \"#utility.yul\":464:465   */\n  0x00\n    /* \"#utility.yul\":457:472   */\n  revert\n    /* \"#utility.yul\":484:804   */\ntag_21:\n    /* \"#utility.yul\":528:534   */\n  0x00\n    /* \"#utility.yul\":565:566   */\n  0x02\n    /* \"#utility.yul\":559:563   */\n  dup3\n    /* \"#utility.yul\":555:567   */\n  div\n    /* \"#utility.yul\":545:567   */\n  swap1\n  pop\n    /* \"#utility.yul\":612:613   */\n  0x01\n    /* \"#utility.yul\":606:610   */\n  dup3\n    /* \"#utility.yul\":602:614   */\n  and\n    /* \"#utility.yul\":633:651   */\n  dup1\n    /* \"#utility.yul\":623:704   */\n  tag_46\n  jumpi\n    /* \"#utility.yul\":689:693   */\n  0x7f\n    /* \"#utility.yul\":681:687   */\n  dup3\n    /* \"#utility.yul\":677:694   */\n  and\n    /* \"#utility.yul\":667:694   */\n  swap2\n  pop\n    /* \"#utility.yul\":623:704   */\ntag_46:\n    /* \"#utility.yul\":751:753   */\n  0x20\n    /* \"#utility.yul\":743:749   */\n  dup3\n    /* \"#utility.yul\":740:754   */\n  lt\n    /* \"#utility.yul\":720:738   */\n  dup2\n    /* \"#utility.yul\":717:755   */\n  sub\n    /* \"#utility.yul\":714:798   */\n  tag_47\n  jumpi\n    /* \"#utility.yul\":770:788   */\n  tag_48\n  tag_20\n  jump\t// in\ntag_48:\n    /* \"#utility.yul\":714:798   */\ntag_47:\n    /* \"#utility.yul\":535:804   */\n  pop\n    /* \"#utility.yul\":484:804   */\n  swap2\n  swap1\n  pop\n  jump\t// out\n    /* \"#utility.yul\":810:951   */\ntag_22:\n    /* \"#utility.yul\":859:863   */\n  0x00\n    /* \"#utility.yul\":882:885   */\n  dup2\n    /* \"#utility.yul\":874:885   */\n  swap1\n  pop\n    /* \"#utility.yul\":905:908   */\n  dup2\n    /* \"#utility.yul\":902:903   */\n  0x00\n    /* \"#utility.yul\":895:909   */\n  mstore\n    /* \"#utility.yul\":939:943   */\n  0x20\n    /* \"#utility.yul\":936:937   */\n  0x00\n    /* \"#utility.yul\":926:944   */\n  keccak256\n    /* \"#utility.yul\":918:944   */\n  swap1\n  pop\n    /* \"#utility.yul\":810:951   */\n  swap2\n  swap1\n  pop\n  jump\t// out\n    /* \"#utility.yul\":957:1050   */\ntag_23:\n    /* \"#utility.yul\":994:1000   */\n  0x00\n    /* \"#utility.yul\":1041:1043   */\n  0x20\n    /* \"#utility.yul\":1036:1038   */\n  0x1f\n    /* \"#utility.yul\":1029:1034   */\n  dup4\n    /* \"#utility.yul\":1025:1039   */\n  add\n    /* \"#utility.yul\":1021:1044   */\n  div\n    /* \"#utility.yul\":1011:1044   */\n  swap1\n  pop\n    /* \"#utility.yul\":957:1050   */\n  swap2\n  swap1\n  pop\n  jump\t// out\n    /* \"#utility.yul\":1056:1163   */\ntag_24:\n    /* \"#utility.yul\":1100:1108   */\n  0x00\n    /* \"#utility.yul\":1150:1155   */\n  dup3\n    /* \"#utility.yul\":1144:1148   */\n  dup3\n    /* \"#utility.yul\":1140:1156   */\n  shl\n    /* \"#utility.yul\":1119:1156   */\n  swap1\n  pop\n    /* \"#utility.yul\":1056:1163   */\n  swap3\n  swap2\n  pop\n  pop\n  jump\t// out\n    /* \"#utility.yul\":1169:1562   */\ntag_25:\n    /* \"#utility.yul\":1238:1244   */\n  0x00\n    /* \"#utility.yul\":1288:1289   */\n  0x08\n    /* \"#utility.yul\":1276:1286   */\n  dup4\n    /* \"#utility.yul\":1272:1290   */\n  mul\n    /* \"#utility.yul\":1311:1408   */\n  tag_53\n    /* \"#utility.yul\":1341:1407   */\n  0xffffffffffffffffffffffffffffffffffffffffffffffffffffffffffffffff\n    /* \"#utility.yul\":1330:1339   */\n  dup3\n    /* \"#utility.yul\":1311:1408   */\n  tag_24\n  jump\t// in\ntag_53:\n    /* \"#utility.yul\":1429:1468   */\n  tag_54\n    /* \"#utility.yul\":1459:1467   */\n  dup7\n    /* \"#utility.yul\":1448:1457   */\n  dup4\n    /* \"#utility.yul\":1429:1468   */\n  tag_24\n  jump\t// in\ntag_54:\n    /* \"#utility.yul\":1417:1468   */\n  swap6\n  pop\n    /* \"#utility.yul\":1501:1505   */\n  dup1\n    /* \"#utility.yul\":1497:1506   */\n  not\n    /* \"#utility.yul\":1490:1495   */\n  dup5\n    /* \"#utility.yul\":1486:1507   */\n  and\n    /* \"#utility.yul\":1477:1507   */\n  swap4\n  pop\n    /* \"#utility.yul\":1550:1554   */\n  dup1\n    /* \"#utility.yul\":1540:1548   */\n  dup7\n    /* \"#utility.yul\":1536:1555   */\n  and\n    /* \"#utility.yul\":1529:1534   */\n  dup5\n    /* \"#utility.yul\":1526:1556   */\n  or\n    /* \"#utility.yul\":1516:1556   */\n  swap3\n  pop\n    /* \"#utility.yul\":1245:1562   */\n  pop\n  pop\n    /* \"#utility.yul\":1169:1562   */\n  swap4\n  swap3\n  pop\n  pop\n  pop\n  jump\t// out\n    /* \"#utility.yul\":1568:1645   */\ntag_26:\n    /* \"#utility.yul\":1605:1612   */\n  0x00\n    /* \"#utility.yul\":1634:1639   */\n  dup2\n    /* \"#utility.yul\":1623:1639   */\n  swap1\n  pop\n    /* \"#utility.yul\":1568:1645   */\n  swap2\n  swap1\n  pop\n  jump\t// out\n    /* \"#utility.yul\":1651:1711   */\ntag_27:\n    /* \"#utility.yul\":1679:1682   */\n  0x00\n    /* \"#utility.yul\":1700:1705   */\n  dup2\n    /* \"#utility.yul\":1693:1705   */\n  swap1\n  pop\n    /* \"#utility.yul\":1651:1711   */\n  swap2\n  swap1\n  pop\n  jump\t// out\n    /* \"#utility.yul\":1717:1859   */\ntag_28:\n    /* \"#utility.yul\":1767:1776   */\n  0x00\n    /* \"#utility.yul\":1800:1853   */\n  tag_58\n    /* \"#utility.yul\":1818:1852   */\n  tag_59\n    /* \"#utility.yul\":1827:1851   */\n  tag_60\n    /* \"#utility.yul\":1845:1850   */\n  dup5\n    /* \"#utility.yul\":1827:1851   */\n  tag_26\n  jump\t// in\ntag_60:\n    /* \"#utility.yul\":1818:1852   */\n  tag_27\n  jump\t// in\ntag_59:\n    /* \"#utility.yul\":1800:1853   */\n  tag_26\n  jump\t// in\ntag_58:\n    /* \"#utility.yul\":1787:1853   */\n  swap1\n  pop\n    /* \"#utility.yul\":1717:1859   */\n  swap2\n  swap1\n  pop\n  jump\t// out\n    /* \"#utility.yul\":1865:1940   */\ntag_29:\n    /* \"#utility.yul\":1908:1911   */\n  0x00\n    /* \"#utility.yul\":1929:1934   */\n  dup2\n    /* \"#utility.yul\":1922:1934   */\n  swap1\n  pop\n    /* \"#utility.yul\":1865:1940   */\n  swap2\n  swap1\n  pop\n  jump\t// out\n    /* \"#utility.yul\":1946:2215   */\ntag_30:\n    /* \"#utility.yul\":2056:2095   */\n  tag_63\n    /* \"#utility.yul\":2087:2094   */\n  dup4\n    /* \"#utility.yul\":2056:2095   */\n  tag_28\n  jump\t// in\ntag_63:\n    /* \"#utility.yul\":2117:2208   */\n  tag_64\n    /* \"#utility.yul\":2166:2207   */\n  tag_65\n    /* \"#utility.yul\":2190:2206   */\n  dup3\n    /* \"#utility.yul\":2166:2207   */\n  tag_29\n  jump\t// in\ntag_65:\n    /* \"#utility.yul\":2158:2164   */\n  dup5\n    /* \"#utility.yul\":2151:2155   */\n  dup5\n    /* \"#utility.yul\":2145:2156   */\n  sload\n    /* \"#utility.yul\":2117:2208   */\n  tag_25\n  jump\t// in\ntag_64:\n    /* \"#utility.yul\":2111:2115   */\n  dup3\n    /* \"#utility.yul\":2104:2209   */\n  sstore\n    /* \"#utility.yul\":2022:2215   */\n  pop\n    /* \"#utility.yul\":1946:2215   */\n  pop\n  pop\n  pop\n  jump\t// out\n    /* \"#utility.yul\":2221:2294   */\ntag_31:\n    /* \"#utility.yul\":2266:2269   */\n  0x00\n    /* \"#utility.yul\":2221:2294   */\n  swap1\n  jump\t// out\n    /* \"#utility.yul\":2300:2489   */\ntag_32:\n    /* \"#utility.yul\":2377:2409   */\n  tag_68\n  tag_31\n  jump\t// in\ntag_68:\n    /* \"#utility.yul\":2418:2483   */\n  tag_69\n    /* \"#utility.yul\":2476:2482   */\n  dup2\n    /* \"#utility.yul\":2468:2474   */\n  dup5\n    /* \"#utility.yul\":2462:2466   */\n  dup5\n    /* \"#utility.yul\":2418:2483   */\n  tag_30\n  jump\t// in\ntag_69:\n    /* \"#utility.yul\":2353:2489   */\n  pop\n    /* \"#utility.yul\":2300:2489   */\n  pop\n  pop\n  jump\t// out\n    /* \"#utility.yul\":2495:2681   */\ntag_33:\n    /* \"#utility.yul\":2555:2675   */\ntag_71:\n    /* \"#utility.yul\":2572:2575   */\n  dup2\n    /* \"#utility.yul\":2565:2570   */\n  dup2\n    /* \"#utility.yul\":2562:2576   */\n  lt\n    /* \"#utility.yul\":2555:2675   */\n  iszero\n  tag_73\n  jumpi\n    /* \"#utility.yul\":2626:2665   */\n  tag_74\n    /* \"#utility.yul\":2663:2664   */\n  0x00\n    /* \"#utility.yul\":2656:2661   */\n  dup3\n    /* \"#utility.yul\":2626:2665   */\n  tag_32\n  jump\t// in\ntag_74:\n    /* \"#utility.yul\":2599:2600   */\n  0x01\n    /* \"#utility.yul\":2592:2597   */\n  dup2\n    /* \"#utility.yul\":2588:2601   */\n  add\n    /* \"#utility.yul\":2579:2601   */\n  swap1\n  pop\n    /* \"#utility.yul\":2555:2675   */\n  jump(tag_71)\ntag_73:\n    /* \"#utility.yul\":2495:2681   */\n  pop\n  pop\n  jump\t// out\n    /* \"#utility.yul\":2687:3230   */\ntag_34:\n    /* \"#utility.yul\":2788:2790   */\n  0x1f\n    /* \"#utility.yul\":2783:2786   */\n  dup3\n    /* \"#utility.yul\":2780:2791   */\n  gt\n    /* \"#utility.yul\":2777:3223   */\n  iszero\n  tag_76\n  jumpi\n    /* \"#utility.yul\":2822:2860   */\n  tag_77\n    /* \"#utility.yul\":2854:2859   */\n  dup2\n    /* \"#utility.yul\":2822:2860   */\n  tag_22\n  jump\t// in\ntag_77:\n    /* \"#utility.yul\":2906:2935   */\n  tag_78\n    /* \"#utility.yul\":2924:2934   */\n  dup5\n    /* \"#utility.yul\":2906:2935   */\n  tag_23\n  jump\t// in\ntag_78:\n    /* \"#utility.yul\":2896:2904   */\n  dup2\n    /* \"#utility.yul\":2892:2936   */\n  add\n    /* \"#utility.yul\":3089:3091   */\n  0x20\n    /* \"#utility.yul\":3077:3087   */\n  dup6\n    /* \"#utility.yul\":3074:3092   */\n  lt\n    /* \"#utility.yul\":3071:3120   */\n  iszero\n  tag_79\n  jumpi\n    /* \"#utility.yul\":3110:3118   */\n  dup2\n    /* \"#utility.yul\":3095:3118   */\n  swap1\n  pop\n    /* \"#utility.yul\":3071:3120   */\ntag_79:\n    /* \"#utility.yul\":3133:3213   */\n  tag_80\n    /* \"#utility.yul\":3189:3211   */\n  tag_81\n    /* \"#utility.yul\":3207:3210   */\n  dup6\n    /* \"#utility.yul\":3189:3211   */\n  tag_23\n  jump\t// in\ntag_81:\n    /* \"#utility.yul\":3179:3187   */\n  dup4\n    /* \"#utility.yul\":3175:3212   */\n  add\n    /* \"#utility.yul\":3162:3173   */\n  dup3\n    /* \"#utility.yul\":3133:3213   */\n  tag_33\n  jump\t// in\ntag_80:\n    /* \"#utility.yul\":2792:3223   */\n  pop\n  pop\n    /* \"#utility.yul\":2777:3223   */\ntag_76:\n    /* \"#utility.yul\":2687:3230   */\n  pop\n  pop\n  pop\n  jump\t// out\n    /* \"#utility.yul\":3236:3353   */\ntag_35:\n    /* \"#utility.yul\":3290:3298   */\n  0x00\n    /* \"#utility.yul\":3340:3345   */\n  dup3\n    /* \"#utility.yul\":3334:3338   */\n  dup3\n    /* \"#utility.yul\":3330:3346   */\n  shr\n    /* \"#utility.yul\":3309:3346   */\n  swap1\n  pop\n    /* \"#utility.yul\":3236:3353   */\n  swap3\n  swap2\n  pop\n  pop\n  jump\t// out\n    /* \"#utility.yul\":3359:3528   */\ntag_36:\n    /* \"#utility.yul\":3403:3409   */\n  0x00\n    /* \"#utility.yul\":3436:3487   */\n  tag_84\n    /* \"#utility.yul\":3484:3485   */\n  0x00\n    /* \"#utility.yul\":3480:3486   */\n  not\n    /* \"#utility.yul\":3472:3477   */\n  dup5\n    /* \"#utility.yul\":3469:3470   */\n  0x08\n    /* \"#utility.yul\":3465:3478   */\n  mul\n    /* \"#utility.yul\":3436:3487   */\n  tag_35\n  jump\t// in\ntag_84:\n    /* \"#utility.yul\":3432:3488   */\n  not\n    /* \"#utility.yul\":3517:3521   */\n  dup1\n    /* \"#utility.yul\":3511:3515   */\n  dup4\n    /* \"#utility.yul\":3507:3522   */\n  and\n    /* \"#utility.yul\":3497:3522   */\n  swap2\n  pop\n    /* \"#utility.yul\":3410:3528   */\n  pop\n    /* \"#utility.yul\":3359:3528   */\n  swap3\n  swap2\n  pop\n  pop\n  jump\t// out\n    /* \"#utility.yul\":3533:3828   */\ntag_37:\n    /* \"#utility.yul\":3609:3613   */\n  0x00\n    /* \"#utility.yul\":3755:3784   */\n  tag_86\n    /* \"#utility.yul\":3780:3783   */\n  dup4\n    /* \"#utility.yul\":3774:3778   */\n  dup4\n    /* \"#utility.yul\":3755:3784   */\n  tag_36\n  jump\t// in\ntag_86:\n    /* \"#utility.yul\":3747:3784   */\n  swap2\n  pop\n    /* \"#utility.yul\":3817:3820   */\n  dup3\n    /* \"#utility.yul\":3814:3815   */\n  0x02\n    /* \"#utility.yul\":3810:3821   */\n  mul\n    /* \"#utility.yul\":3804:3808   */\n  dup3\n    /* \"#utility.yul\":3801:3822   */\n  or\n    /* \"#utility.yul\":3793:3822   */\n  swap1\n  pop\n    /* \"#utility.yul\":3533:3828   */\n  swap3\n  swap2\n  pop\n  pop\n  jump\t// out\n    /* \"#utility.yul\":3833:5228   */\ntag_7:\n    /* \"#utility.yul\":3950:3987   */\n  tag_88\n    /* \"#utility.yul\":3983:3986   */\n  dup3\n    /* \"#utility.yul\":3950:3987   */\n  tag_18\n  jump\t// in\ntag_88:\n    /* \"#utility.yul\":4052:4070   */\n  0xffffffffffffffff\n    /* \"#utility.yul\":4044:4050   */\n  dup2\n    /* \"#utility.yul\":4041:4071   */\n  gt\n    /* \"#utility.yul\":4038:4094   */\n  iszero\n  tag_89\n  jumpi\n    /* \"#utility.yul\":4074:4092   */\n  tag_90\n  tag_19\n  jump\t// in\ntag_90:\n    /* \"#utility.yul\":4038:4094   */\ntag_89:\n    /* \"#utility.yul\":4118:4156   */\n  tag_91\n    /* \"#utility.yul\":4150:4154   */\n  dup3\n    /* \"#utility.yul\":4144:4155   */\n  sload\n    /* \"#utility.yul\":4118:4156   */\n  tag_21\n  jump\t// in\ntag_91:\n    /* \"#utility.yul\":4203:4270   */\n  tag_92\n    /* \"#utility.yul\":4263:4269   */\n  dup3\n    /* \"#utility.yul\":4255:4261   */\n  dup3\n    /* \"#utility.yul\":4249:4253   */\n  dup6\n    /* \"#utility.yul\":4203:4270   */\n  tag_34\n  jump\t// in\ntag_92:\n    /* \"#utility.yul\":4297:4298   */\n  0x00\n    /* \"#utility.yul\":4321:4325   */\n  0x20\n    /* \"#utility.yul\":4308:4325   */\n  swap1\n  pop\n    /* \"#utility.yul\":4353:4355   */\n  0x1f\n    /* \"#utility.yul\":4345:4351   */\n  dup4\n    /* \"#utility.yul\":4342:4356   */\n  gt\n    /* \"#utility.yul\":4370:4371   */\n  0x01\n    /* \"#utility.yul\":4365:4983   */\n  dup2\n  eq\n  tag_94\n  jumpi\n    /* \"#utility.yul\":5027:5028   */\n  0x00\n    /* \"#utility.yul\":5044:5050   */\n  dup5\n    /* \"#utility.yul\":5041:5118   */\n  iszero\n  tag_95\n  jumpi\n    /* \"#utility.yul\":5093:5102   */\n  dup3\n    /* \"#utility.yul\":5088:5091   */\n  dup8\n    /* \"#utility.yul\":5084:5103   */\n  add\n    /* \"#utility.yul\":5078:5104   */\n  mload\n    /* \"#utility.yul\":5069:5104   */\n  swap1\n  pop\n    /* \"#utility.yul\":5041:5118   */\ntag_95:\n    /* \"#utility.yul\":5144:5211   */\n  tag_96\n    /* \"#utility.yul\":5204:5210   */\n  dup6\n    /* \"#utility.yul\":5197:5202   */\n  dup3\n    /* \"#utility.yul\":5144:5211   */\n  tag_37\n  jump\t// in\ntag_96:\n    /* \"#utility.yul\":5138:5142   */\n  dup7\n    /* \"#utility.yul\":5131:5212   */\n  sstore\n    /* \"#utility.yul\":5000:5222   */\n  pop\n    /* \"#utility.yul\":4335:5222   */\n  jump(tag_93)\n    /* \"#utility.yul\":4365:4983   */\ntag_94:\n    /* \"#utility.yul\":4417:4421   */\n  0x1f\n    /* \"#utility.yul\":4413:4422   */\n  not\n    /* \"#utility.yul\":4405:4411   */\n  dup5\n    /* \"#utility.yul\":4401:4423   */\n  and\n    /* \"#utility.yul\":4451:4488   */\n  tag_97\n    /* \"#utility.yul\":4483:4487   */\n  dup7\n    /* \"#utility.yul\":4451:4488   */\n  tag_22\n  jump\t// in\ntag_97:\n    /* \"#utility.yul\":4510:4511   */\n  0x00\n    /* \"#utility.yul\":4524:4732   */\ntag_98:\n    /* \"#utility.yul\":4538:4545   */\n  dup3\n    /* \"#utility.yul\":4535:4536   */\n  dup2\n    /* \"#utility.yul\":4532:4546   */\n  lt\n    /* \"#utility.yul\":4524:4732   */\n  iszero\n  tag_100\n  jumpi\n    /* \"#utility.yul\":4617:4626   */\n  dup5\n    /* \"#utility.yul\":4612:4615   */\n  dup10\n    /* \"#utility.yul\":4608:4627   */\n  add\n    /* \"#utility.yul\":4602:4628   */\n  mload\n    /* \"#utility.yul\":4594:4600   */\n  dup3\n    /* \"#utility.yul\":4587:4629   */\n  sstore\n    /* \"#utility.yul\":4668:4669   */\n  0x01\n    /* \"#utility.yul\":4660:4666   */\n  dup3\n    /* \"#utility.yul\":4656:4670   */\n  add\n    /* \"#utility.yul\":4646:4670   */\n  swap2\n  pop\n    /* \"#utility.yul\":4715:4717   */\n  0x20\n    /* \"#utility.yul\":4704:4713   */\n  dup6\n    /* \"#utility.yul\":4700:4718   */\n  add\n    /* \"#utility.yul\":4687:4718   */\n  swap5\n  pop\n    /* \"#utility.yul\":4561:4565   */\n  0x20\n    /* \"#utility.yul\":4558:4559   */\n  dup2\n    /* \"#utility.yul\":4554:4566   */\n  add\n    /* \"#utility.yul\":4549:4566   */\n  swap1\n  pop\n    /* \"#utility.yul\":4524:4732   */\n  jump(tag_98)\ntag_100:\n    /* \"#utility.yul\":4760:4766   */\n  dup7\n    /* \"#utility.yul\":4751:4758   */\n  dup4\n    /* \"#utility.yul\":4748:4767   */\n  lt\n    /* \"#utility.yul\":4745:4924   */\n  iszero\n  tag_101\n  jumpi\n    /* \"#utility.yul\":4818:4827   */\n  dup5\n    /* \"#utility.yul\":4813:4816   */\n  dup10\n    /* \"#utility.yul\":4809:4828   */\n  add\n    /* \"#utility.yul\":4803:4829   */\n  mload\n    /* \"#utility.yul\":4861:4909   */\n  tag_102\n    /* \"#utility.yul\":4903:4907   */\n  0x1f\n    /* \"#utility.yul\":4895:4901   */\n  dup10\n    /* \"#utility.yul\":4891:4908   */\n  and\n    /* \"#utility.yul\":4880:4889   */\n  dup3\n    /* \"#utility.yul\":4861:4909   */\n  tag_36\n  jump\t// in\ntag_102:\n    /* \"#utility.yul\":4853:4859   */\n  dup4\n    /* \"#utility.yul\":4846:4910   */\n  sstore\n    /* \"#utility.yul\":4768:4924   */\n  pop\n    /* \"#utility.yul\":4745:4924   */\ntag_101:\n    /* \"#utility.yul\":4970:4971   */\n  0x01\n    /* \"#utility.yul\":4966:4967   */\n  0x02\n    /* \"#utility.yul\":4958:4964   */\n  dup9\n    /* \"#utility.yul\":4954:4968   */\n  mul\n    /* \"#utility.yul\":4950:4972   */\n  add\n    /* \"#utility.yul\":4944:4948   */\n  dup9\n    /* \"#utility.yul\":4937:4973   */\n  sstore\n    /* \"#utility.yul\":4372:4983   */\n  pop\n  pop\n  pop\n    /* \"#utility.yul\":4335:5222   */\ntag_93:\n  pop\n    /* \"#utility.yul\":3925:5228   */\n  pop\n  pop\n  pop\n    /* \"#utility.yul\":3833:5228   */\n  pop\n  pop\n  jump\t// out\n    /* \"#utility.yul\":5234:5360   */\ntag_38:\n    /* \"#utility.yul\":5271:5278   */\n  0x00\n    /* \"#utility.yul\":5311:5353   */\n  0xffffffffffffffffffffffffffffffffffffffff\n    /* \"#utility.yul\":5304:5309   */\n  dup3\n    /* \"#utility.yul\":5300:5354   */\n  and\n    /* \"#utility.yul\":5289:5354   */\n  swap1\n  pop\n    /* \"#utility.yul\":5234:5360   */\n  swap2\n  swap1\n  pop\n  jump\t// out\n    /* \"#utility.yul\":5366:5462   */\ntag_39:\n    /* \"#utility.yul\":5403:5410   */\n  0x00\n    /* \"#utility.yul\":5432:5456   */\n  tag_105\n    /* \"#utility.yul\":5450:5455   */\n  dup3\n    /* \"#utility.yul\":5432:5456   */\n  tag_38\n  jump\t// in\ntag_105:\n    /* \"#utility.yul\":5421:5456   */\n  swap1\n  pop\n    /* \"#utility.yul\":5366:5462   */\n  swap2\n  swap1\n  pop\n  jump\t// out\n    /* \"#utility.yul\":5468:5586   */\ntag_40:\n    /* \"#utility.yul\":5555:5579   */\n  tag_107\n    /* \"#utility.yul\":5573:5578   */\n  dup2\n    /* \"#utility.yul\":5555:5579   */\n  tag_39\n  jump\t// in\ntag_107:\n    /* \"#utility.yul\":5550:5553   */\n  dup3\n    /* \"#utility.yul\":5543:5580   */\n  mstore\n    /* \"#utility.yul\":5468:5586   */\n  pop\n  pop\n  jump\t// out\n    /* \"#utility.yul\":5592:5814   */\ntag_12:\n    /* \"#utility.yul\":5685:5689   */\n  0x00\n    /* \"#utility.yul\":5723:5725   */\n  0x20\n    /* \"#utility.yul\":5712:5721   */\n  dup3\n    /* \"#utility.yul\":5708:5726   */\n  add\n    /* \"#utility.yul\":5700:5726   */\n  swap1\n  pop\n    /* \"#utility.yul\":5736:5807   */\n  tag_109\n    /* \"#utility.yul\":5804:5805   */\n  0x00\n    /* \"#utility.yul\":5793:5802   */\n  dup4\n    /* \"#utility.yul\":5789:5806   */\n  add\n    /* \"#utility.yul\":5780:5786   */\n  dup5\n    /* \"#utility.yul\":5736:5807   */\n  tag_40\n  jump\t// in\ntag_109:\n    /* \"#utility.yul\":5592:5814   */\n  swap3\n  swap2\n  pop\n  pop\n  jump\t// out\n    /* \"erc721Flat.sol\":40556:41837  contract myerc721 is ERC721, ERC721URIStorage, ERC721Burnable, Ownable(msg.sender) {... */\ntag_16:\n  dataSize(sub_0)\n  dup1\n  dataOffset(sub_0)\n  0x00\n  codecopy\n  0x00\n  return\nstop\n\nsub_0: assembly {\n        /* \"erc721Flat.sol\":40556:41837  contract myerc721 is ERC721, ERC721URIStorage, ERC721Burnable, Ownable(msg.sender) {... */\n      mstore(0x40, 0x80)\n      callvalue\n      dup1\n      iszero\n      tag_1\n      jumpi\n      0x00\n      dup1\n      revert\n    tag_1:\n      pop\n      jumpi(tag_2, lt(calldatasize, 0x04))\n      shr(0xe0, calldataload(0x00))\n      dup1\n      0x70a08231\n      gt\n      tag_21\n      jumpi\n      dup1\n      0xa22cb465\n      gt\n      tag_22\n      jumpi\n      dup1\n      0xa22cb465\n      eq\n      tag_16\n      jumpi\n      dup1\n      0xb88d4fde\n      eq\n      tag_17\n      jumpi\n      dup1\n      0xc87b56dd\n      eq\n      tag_18\n      jumpi\n      dup1\n      0xe985e9c5\n      eq\n      tag_19\n      jumpi\n      dup1\n      0xf2fde38b\n      eq\n      tag_20\n      jumpi\n      jump(tag_2)\n    tag_22:\n      dup1\n      0x70a08231\n      eq\n      tag_12\n      jumpi\n      dup1\n      0x715018a6\n      eq\n      tag_13\n      jumpi\n      dup1\n      0x8da5cb5b\n      eq\n      tag_14\n      jumpi\n      dup1\n      0x95d89b41\n      eq\n      tag_15\n      jumpi\n      jump(tag_2)\n    tag_21:\n      dup1\n      0x23b872dd\n      gt\n      tag_23\n      jumpi\n      dup1\n      0x23b872dd\n      eq\n      tag_7\n      jumpi\n      dup1\n      0x40d097c3\n      eq\n      tag_8\n      jumpi\n      dup1\n      0x42842e0e\n      eq\n      tag_9\n      jumpi\n      dup1\n      0x42966c68\n      eq\n      tag_10\n      jumpi\n      dup1\n      0x6352211e\n      eq\n      tag_11\n      jumpi\n      jump(tag_2)\n    tag_23:\n      dup1\n      0x01ffc9a7\n      eq\n      tag_3\n      jumpi\n      dup1\n      0x06fdde03\n      eq\n      tag_4\n      jumpi\n      dup1\n      0x081812fc\n      eq\n      tag_5\n      jumpi\n      dup1\n      0x095ea7b3\n      eq\n      tag_6\n      jumpi\n    tag_2:\n      0x00\n      dup1\n      revert\n        /* \"erc721Flat.sol\":41622:41834  function supportsInterface(bytes4 interfaceId)... */\n    tag_3:\n      tag_24\n      0x04\n      dup1\n      calldatasize\n      sub\n      dup2\n      add\n      swap1\n      tag_25\n      swap2\n      swap1\n      tag_26\n      jump\t// in\n    tag_25:\n      tag_27\n      jump\t// in\n    tag_24:\n      mload(0x40)\n      tag_28\n      swap2\n      swap1\n      tag_29\n      jump\t// in\n    tag_28:\n      mload(0x40)\n      dup1\n      swap2\n      sub\n      swap1\n      return\n        /* \"erc721Flat.sol\":25973:26066  function name() external view virtual returns (string memory) {... */\n    tag_4:\n      tag_30\n      tag_31\n      jump\t// in\n    tag_30:\n      mload(0x40)\n      tag_32\n      swap2\n      swap1\n      tag_33\n      jump\t// in\n    tag_32:\n      mload(0x40)\n      dup1\n      swap2\n      sub\n      swap1\n      return\n        /* \"erc721Flat.sol\":27197:27357  function getApproved(uint256 tokenId) external view virtual returns (address) {... */\n    tag_5:\n      tag_34\n      0x04\n      dup1\n      calldatasize\n      sub\n      dup2\n      add\n      swap1\n      tag_35\n      swap2\n      swap1\n      tag_36\n      jump\t// in\n    tag_35:\n      tag_37\n      jump\t// in\n    tag_34:\n      mload(0x40)\n      tag_38\n      swap2\n      swap1\n      tag_39\n      jump\t// in\n    tag_38:\n      mload(0x40)\n      dup1\n      swap2\n      sub\n      swap1\n      return\n        /* \"erc721Flat.sol\":27014:27131  function approve(address to, uint256 tokenId) external virtual {... */\n    tag_6:\n      tag_40\n      0x04\n      dup1\n      calldatasize\n      sub\n      dup2\n      add\n      swap1\n      tag_41\n      swap2\n      swap1\n      tag_42\n      jump\t// in\n    tag_41:\n      tag_43\n      jump\t// in\n    tag_40:\n      stop\n        /* \"erc721Flat.sol\":27869:28457  function transferFrom(address from, address to, uint256 tokenId) public virtual {... */\n    tag_7:\n      tag_44\n      0x04\n      dup1\n      calldatasize\n      sub\n      dup2\n      add\n      swap1\n      tag_45\n      swap2\n      swap1\n      tag_46\n      jump\t// in\n    tag_45:\n      tag_47\n      jump\t// in\n    tag_44:\n      stop\n        /* \"erc721Flat.sol\":41034:41338  function safeMint(address to) external nonReentrant onlyOwner {... */\n    tag_8:\n      tag_48\n      0x04\n      dup1\n      calldatasize\n      sub\n      dup2\n      add\n      swap1\n      tag_49\n      swap2\n      swap1\n      tag_50\n      jump\t// in\n    tag_49:\n      tag_51\n      jump\t// in\n    tag_48:\n      stop\n        /* \"erc721Flat.sol\":28528:28664  function safeTransferFrom(address from, address to, uint256 tokenId) external {... */\n    tag_9:\n      tag_52\n      0x04\n      dup1\n      calldatasize\n      sub\n      dup2\n      add\n      swap1\n      tag_53\n      swap2\n      swap1\n      tag_46\n      jump\t// in\n    tag_53:\n      tag_54\n      jump\t// in\n    tag_52:\n      stop\n        /* \"erc721Flat.sol\":38173:38493  function burn(uint256 tokenId) external virtual {... */\n    tag_10:\n      tag_55\n      0x04\n      dup1\n      calldatasize\n      sub\n      dup2\n      add\n      swap1\n      tag_56\n      swap2\n      swap1\n      tag_36\n      jump\t// in\n    tag_56:\n      tag_57\n      jump\t// in\n    tag_55:\n      stop\n        /* \"erc721Flat.sol\":25784:25906  function ownerOf(uint256 tokenId) external view virtual returns (address) {... */\n    tag_11:\n      tag_58\n      0x04\n      dup1\n      calldatasize\n      sub\n      dup2\n      add\n      swap1\n      tag_59\n      swap2\n      swap1\n      tag_36\n      jump\t// in\n    tag_59:\n      tag_60\n      jump\t// in\n    tag_58:\n      mload(0x40)\n      tag_61\n      swap2\n      swap1\n      tag_39\n      jump\t// in\n    tag_61:\n      mload(0x40)\n      dup1\n      swap2\n      sub\n      swap1\n      return\n        /* \"erc721Flat.sol\":25507:25722  function balanceOf(address owner) external view virtual returns (uint256) {... */\n    tag_12:\n      tag_62\n      0x04\n      dup1\n      calldatasize\n      sub\n      dup2\n      add\n      swap1\n      tag_63\n      swap2\n      swap1\n      tag_50\n      jump\t// in\n    tag_63:\n      tag_64\n      jump\t// in\n    tag_62:\n      mload(0x40)\n      tag_65\n      swap2\n      swap1\n      tag_66\n      jump\t// in\n    tag_65:\n      mload(0x40)\n      dup1\n      swap2\n      sub\n      swap1\n      return\n        /* \"erc721Flat.sol\":13123:13228  function renounceOwnership() external virtual onlyOwner {... */\n    tag_13:\n      tag_67\n      tag_68\n      jump\t// in\n    tag_67:\n      stop\n        /* \"erc721Flat.sol\":12448:12535  function owner() public view virtual returns (address) {... */\n    tag_14:\n      tag_69\n      tag_70\n      jump\t// in\n    tag_69:\n      mload(0x40)\n      tag_71\n      swap2\n      swap1\n      tag_39\n      jump\t// in\n    tag_71:\n      mload(0x40)\n      dup1\n      swap2\n      sub\n      swap1\n      return\n        /* \"erc721Flat.sol\":26135:26232  function symbol() external view virtual returns (string memory) {... */\n    tag_15:\n      tag_72\n      tag_73\n      jump\t// in\n    tag_72:\n      mload(0x40)\n      tag_74\n      swap2\n      swap1\n      tag_33\n      jump\t// in\n    tag_74:\n      mload(0x40)\n      dup1\n      swap2\n      sub\n      swap1\n      return\n        /* \"erc721Flat.sol\":27429:27576  function setApprovalForAll(address operator, bool approved)external virtual {... */\n    tag_16:\n      tag_75\n      0x04\n      dup1\n      calldatasize\n      sub\n      dup2\n      add\n      swap1\n      tag_76\n      swap2\n      swap1\n      tag_77\n      jump\t// in\n    tag_76:\n      tag_78\n      jump\t// in\n    tag_75:\n      stop\n        /* \"erc721Flat.sol\":28735:28946  function safeTransferFrom(address from, address to, uint256 tokenId, bytes memory data) public virtual {... */\n    tag_17:\n      tag_79\n      0x04\n      dup1\n      calldatasize\n      sub\n      dup2\n      add\n      swap1\n      tag_80\n      swap2\n      swap1\n      tag_81\n      jump\t// in\n    tag_80:\n      tag_82\n      jump\t// in\n    tag_79:\n      stop\n        /* \"erc721Flat.sol\":41418:41614  function tokenURI(uint256 tokenId)... */\n    tag_18:\n      tag_83\n      0x04\n      dup1\n      calldatasize\n      sub\n      dup2\n      add\n      swap1\n      tag_84\n      swap2\n      swap1\n      tag_36\n      jump\t// in\n    tag_84:\n      tag_85\n      jump\t// in\n    tag_83:\n      mload(0x40)\n      tag_86\n      swap2\n      swap1\n      tag_33\n      jump\t// in\n    tag_86:\n      mload(0x40)\n      dup1\n      swap2\n      sub\n      swap1\n      return\n        /* \"erc721Flat.sol\":27647:27802  function isApprovedForAll(address owner, address operator) public view virtual returns (bool) {... */\n    tag_19:\n      tag_87\n      0x04\n      dup1\n      calldatasize\n      sub\n      dup2\n      add\n      swap1\n      tag_88\n      swap2\n      swap1\n      tag_89\n      jump\t// in\n    tag_88:\n      tag_90\n      jump\t// in\n    tag_87:\n      mload(0x40)\n      tag_91\n      swap2\n      swap1\n      tag_29\n      jump\t// in\n    tag_91:\n      mload(0x40)\n      dup1\n      swap2\n      sub\n      swap1\n      return\n        /* \"erc721Flat.sol\":13383:13605  function transferOwnership(address newOwner) external virtual onlyOwner {... */\n    tag_20:\n      tag_92\n      0x04\n      dup1\n      calldatasize\n      sub\n      dup2\n      add\n      swap1\n      tag_93\n      swap2\n      swap1\n      tag_50\n      jump\t// in\n    tag_93:\n      tag_94\n      jump\t// in\n    tag_92:\n      stop\n        /* \"erc721Flat.sol\":41622:41834  function supportsInterface(bytes4 interfaceId)... */\n    tag_27:\n        /* \"erc721Flat.sol\":41761:41765  bool */\n      0x00\n        /* \"erc721Flat.sol\":41790:41826  super.supportsInterface(interfaceId) */\n      tag_96\n        /* \"erc721Flat.sol\":41814:41825  interfaceId */\n      dup3\n        /* \"erc721Flat.sol\":41790:41813  super.supportsInterface */\n      tag_97\n        /* \"erc721Flat.sol\":41790:41826  super.supportsInterface(interfaceId) */\n      jump\t// in\n    tag_96:\n        /* \"erc721Flat.sol\":41783:41826  return super.supportsInterface(interfaceId) */\n      swap1\n      pop\n        /* \"erc721Flat.sol\":41622:41834  function supportsInterface(bytes4 interfaceId)... */\n      swap2\n      swap1\n      pop\n      jump\t// out\n        /* \"erc721Flat.sol\":25973:26066  function name() external view virtual returns (string memory) {... */\n    tag_31:\n        /* \"erc721Flat.sol\":26020:26033  string memory */\n      0x60\n        /* \"erc721Flat.sol\":26053:26058  _name */\n      0x00\n        /* \"erc721Flat.sol\":26046:26058  return _name */\n      dup1\n      sload\n      tag_99\n      swap1\n      tag_100\n      jump\t// in\n    tag_99:\n      dup1\n      0x1f\n      add\n      0x20\n      dup1\n      swap2\n      div\n      mul\n      0x20\n      add\n      mload(0x40)\n      swap1\n      dup2\n      add\n      0x40\n      mstore\n      dup1\n      swap3\n      swap2\n      swap1\n      dup2\n      dup2\n      mstore\n      0x20\n      add\n      dup3\n      dup1\n      sload\n      tag_101\n      swap1\n      tag_100\n      jump\t// in\n    tag_101:\n      dup1\n      iszero\n      tag_102\n      jumpi\n      dup1\n      0x1f\n      lt\n      tag_103\n      jumpi\n      0x0100\n      dup1\n      dup4\n      sload\n      div\n      mul\n      dup4\n      mstore\n      swap2\n      0x20\n      add\n      swap2\n      jump(tag_102)\n    tag_103:\n      dup3\n      add\n      swap2\n      swap1\n      0x00\n      mstore\n      keccak256(0x00, 0x20)\n      swap1\n    tag_104:\n      dup2\n      sload\n      dup2\n      mstore\n      swap1\n      0x01\n      add\n      swap1\n      0x20\n      add\n      dup1\n      dup4\n      gt\n      tag_104\n      jumpi\n      dup3\n      swap1\n      sub\n      0x1f\n      and\n      dup3\n      add\n      swap2\n    tag_102:\n      pop\n      pop\n      pop\n      pop\n      pop\n      swap1\n      pop\n        /* \"erc721Flat.sol\":25973:26066  function name() external view virtual returns (string memory) {... */\n      swap1\n      jump\t// out\n        /* \"erc721Flat.sol\":27197:27357  function getApproved(uint256 tokenId) external view virtual returns (address) {... */\n    tag_37:\n        /* \"erc721Flat.sol\":27266:27273  address */\n      0x00\n        /* \"erc721Flat.sol\":27286:27308  _requireOwned(tokenId) */\n      tag_106\n        /* \"erc721Flat.sol\":27300:27307  tokenId */\n      dup3\n        /* \"erc721Flat.sol\":27286:27299  _requireOwned */\n      tag_107\n        /* \"erc721Flat.sol\":27286:27308  _requireOwned(tokenId) */\n      jump\t// in\n    tag_106:\n      pop\n        /* \"erc721Flat.sol\":27328:27349  _getApproved(tokenId) */\n      tag_108\n        /* \"erc721Flat.sol\":27341:27348  tokenId */\n      dup3\n        /* \"erc721Flat.sol\":27328:27340  _getApproved */\n      tag_109\n        /* \"erc721Flat.sol\":27328:27349  _getApproved(tokenId) */\n      jump\t// in\n    tag_108:\n        /* \"erc721Flat.sol\":27321:27349  return _getApproved(tokenId) */\n      swap1\n      pop\n        /* \"erc721Flat.sol\":27197:27357  function getApproved(uint256 tokenId) external view virtual returns (address) {... */\n      swap2\n      swap1\n      pop\n      jump\t// out\n        /* \"erc721Flat.sol\":27014:27131  function approve(address to, uint256 tokenId) external virtual {... */\n    tag_43:\n        /* \"erc721Flat.sol\":27088:27123  _approve(to, tokenId, _msgSender()) */\n      tag_111\n        /* \"erc721Flat.sol\":27097:27099  to */\n      dup3\n        /* \"erc721Flat.sol\":27101:27108  tokenId */\n      dup3\n        /* \"erc721Flat.sol\":27110:27122  _msgSender() */\n      tag_112\n        /* \"erc721Flat.sol\":27110:27120  _msgSender */\n      tag_113\n        /* \"erc721Flat.sol\":27110:27122  _msgSender() */\n      jump\t// in\n    tag_112:\n        /* \"erc721Flat.sol\":27088:27096  _approve */\n      tag_114\n        /* \"erc721Flat.sol\":27088:27123  _approve(to, tokenId, _msgSender()) */\n      jump\t// in\n    tag_111:\n        /* \"erc721Flat.sol\":27014:27131  function approve(address to, uint256 tokenId) external virtual {... */\n      pop\n      pop\n      jump\t// out\n        /* \"erc721Flat.sol\":27869:28457  function transferFrom(address from, address to, uint256 tokenId) public virtual {... */\n    tag_47:\n        /* \"erc721Flat.sol\":27978:27979  0 */\n      0x00\n        /* \"erc721Flat.sol\":27964:27980  to == address(0) */\n      0xffffffffffffffffffffffffffffffffffffffff\n      and\n        /* \"erc721Flat.sol\":27964:27966  to */\n      dup3\n        /* \"erc721Flat.sol\":27964:27980  to == address(0) */\n      0xffffffffffffffffffffffffffffffffffffffff\n      and\n      sub\n        /* \"erc721Flat.sol\":27960:28049  if (to == address(0)) {... */\n      tag_116\n      jumpi\n        /* \"erc721Flat.sol\":28034:28035  0 */\n      0x00\n        /* \"erc721Flat.sol\":28004:28037  ERC721InvalidReceiver(address(0)) */\n      mload(0x40)\n      0x64a0ae9200000000000000000000000000000000000000000000000000000000\n      dup2\n      mstore\n      0x04\n      add\n      tag_117\n      swap2\n      swap1\n      tag_39\n      jump\t// in\n    tag_117:\n      mload(0x40)\n      dup1\n      swap2\n      sub\n      swap1\n      revert\n        /* \"erc721Flat.sol\":27960:28049  if (to == address(0)) {... */\n    tag_116:\n        /* \"erc721Flat.sol\":28270:28291  address previousOwner */\n      0x00\n        /* \"erc721Flat.sol\":28294:28328  _update(to, tokenId, _msgSender()) */\n      tag_118\n        /* \"erc721Flat.sol\":28302:28304  to */\n      dup4\n        /* \"erc721Flat.sol\":28306:28313  tokenId */\n      dup4\n        /* \"erc721Flat.sol\":28315:28327  _msgSender() */\n      tag_119\n        /* \"erc721Flat.sol\":28315:28325  _msgSender */\n      tag_113\n        /* \"erc721Flat.sol\":28315:28327  _msgSender() */\n      jump\t// in\n    tag_119:\n        /* \"erc721Flat.sol\":28294:28301  _update */\n      tag_120\n        /* \"erc721Flat.sol\":28294:28328  _update(to, tokenId, _msgSender()) */\n      jump\t// in\n    tag_118:\n        /* \"erc721Flat.sol\":28270:28328  address previousOwner = _update(to, tokenId, _msgSender()) */\n      swap1\n      pop\n        /* \"erc721Flat.sol\":28360:28364  from */\n      dup4\n        /* \"erc721Flat.sol\":28343:28364  previousOwner != from */\n      0xffffffffffffffffffffffffffffffffffffffff\n      and\n        /* \"erc721Flat.sol\":28343:28356  previousOwner */\n      dup2\n        /* \"erc721Flat.sol\":28343:28364  previousOwner != from */\n      0xffffffffffffffffffffffffffffffffffffffff\n      and\n      eq\n        /* \"erc721Flat.sol\":28339:28450  if (previousOwner != from) {... */\n      tag_121\n      jumpi\n        /* \"erc721Flat.sol\":28409:28413  from */\n      dup4\n        /* \"erc721Flat.sol\":28415:28422  tokenId */\n      dup3\n        /* \"erc721Flat.sol\":28424:28437  previousOwner */\n      dup3\n        /* \"erc721Flat.sol\":28388:28438  ERC721IncorrectOwner(from, tokenId, previousOwner) */\n      mload(0x40)\n      0x64283d7b00000000000000000000000000000000000000000000000000000000\n      dup2\n      mstore\n      0x04\n      add\n      tag_122\n      swap4\n      swap3\n      swap2\n      swap1\n      tag_123\n      jump\t// in\n    tag_122:\n      mload(0x40)\n      dup1\n      swap2\n      sub\n      swap1\n      revert\n        /* \"erc721Flat.sol\":28339:28450  if (previousOwner != from) {... */\n    tag_121:\n        /* \"erc721Flat.sol\":27949:28457  {... */\n      pop\n        /* \"erc721Flat.sol\":27869:28457  function transferFrom(address from, address to, uint256 tokenId) public virtual {... */\n      pop\n      pop\n      pop\n      jump\t// out\n        /* \"erc721Flat.sol\":41034:41338  function safeMint(address to) external nonReentrant onlyOwner {... */\n    tag_51:\n        /* \"erc721Flat.sol\":40846:40861  reentrancyGuard */\n      0x09\n      0x00\n      swap1\n      sload\n      swap1\n      0x0100\n      exp\n      swap1\n      div\n      0xff\n      and\n        /* \"erc721Flat.sol\":40845:40861  !reentrancyGuard */\n      iszero\n        /* \"erc721Flat.sol\":40837:40889  require(!reentrancyGuard, \"Reentrant call detected\") */\n      tag_125\n      jumpi\n      mload(0x40)\n      0x08c379a000000000000000000000000000000000000000000000000000000000\n      dup2\n      mstore\n      0x04\n      add\n      tag_126\n      swap1\n      tag_127\n      jump\t// in\n    tag_126:\n      mload(0x40)\n      dup1\n      swap2\n      sub\n      swap1\n      revert\n    tag_125:\n        /* \"erc721Flat.sol\":40918:40922  true */\n      0x01\n        /* \"erc721Flat.sol\":40900:40915  reentrancyGuard */\n      0x09\n      0x00\n        /* \"erc721Flat.sol\":40900:40922  reentrancyGuard = true */\n      0x0100\n      exp\n      dup2\n      sload\n      dup2\n      0xff\n      mul\n      not\n      and\n      swap1\n      dup4\n      iszero\n      iszero\n      mul\n      or\n      swap1\n      sstore\n      pop\n        /* \"erc721Flat.sol\":12334:12347  _checkOwner() */\n      tag_129\n        /* \"erc721Flat.sol\":12334:12345  _checkOwner */\n      tag_130\n        /* \"erc721Flat.sol\":12334:12347  _checkOwner() */\n      jump\t// in\n    tag_129:\n        /* \"erc721Flat.sol\":41107:41122  uint256 tokenId */\n      0x00\n        /* \"erc721Flat.sol\":41125:41150  _tokenIdCounter.current() */\n      tag_132\n        /* \"erc721Flat.sol\":41125:41140  _tokenIdCounter */\n      0x08\n        /* \"erc721Flat.sol\":41125:41148  _tokenIdCounter.current */\n      tag_133\n        /* \"erc721Flat.sol\":41125:41150  _tokenIdCounter.current() */\n      jump\t// in\n    tag_132:\n        /* \"erc721Flat.sol\":41107:41150  uint256 tokenId = _tokenIdCounter.current() */\n      swap1\n      pop\n        /* \"erc721Flat.sol\":41161:41188  _tokenIdCounter.increment() */\n      tag_134\n        /* \"erc721Flat.sol\":41161:41176  _tokenIdCounter */\n      0x08\n        /* \"erc721Flat.sol\":41161:41186  _tokenIdCounter.increment */\n      tag_135\n        /* \"erc721Flat.sol\":41161:41188  _tokenIdCounter.increment() */\n      jump\t// in\n    tag_134:\n        /* \"erc721Flat.sol\":41199:41216  string memory uri */\n      0x00\n        /* \"erc721Flat.sol\":41233:41251  tokenId.toString() */\n      tag_136\n        /* \"erc721Flat.sol\":41233:41240  tokenId */\n      dup3\n        /* \"erc721Flat.sol\":41233:41249  tokenId.toString */\n      tag_137\n        /* \"erc721Flat.sol\":41233:41251  tokenId.toString() */\n      jump\t// in\n    tag_136:\n        /* \"erc721Flat.sol\":41219:41260  string.concat(tokenId.toString(),\".json\") */\n      add(0x20, mload(0x40))\n      tag_138\n      swap2\n      swap1\n      tag_139\n      jump\t// in\n    tag_138:\n      mload(0x40)\n      0x20\n      dup2\n      dup4\n      sub\n      sub\n      dup2\n      mstore\n      swap1\n      0x40\n      mstore\n        /* \"erc721Flat.sol\":41199:41260  string memory uri = string.concat(tokenId.toString(),\".json\") */\n      swap1\n      pop\n        /* \"erc721Flat.sol\":41271:41297  _setTokenURI(tokenId, uri) */\n      tag_140\n        /* \"erc721Flat.sol\":41284:41291  tokenId */\n      dup3\n        /* \"erc721Flat.sol\":41293:41296  uri */\n      dup3\n        /* \"erc721Flat.sol\":41271:41283  _setTokenURI */\n      tag_141\n        /* \"erc721Flat.sol\":41271:41297  _setTokenURI(tokenId, uri) */\n      jump\t// in\n    tag_140:\n        /* \"erc721Flat.sol\":41308:41330  _safeMint(to, tokenId) */\n      tag_142\n        /* \"erc721Flat.sol\":41318:41320  to */\n      dup4\n        /* \"erc721Flat.sol\":41322:41329  tokenId */\n      dup4\n        /* \"erc721Flat.sol\":41308:41317  _safeMint */\n      tag_143\n        /* \"erc721Flat.sol\":41308:41330  _safeMint(to, tokenId) */\n      jump\t// in\n    tag_142:\n        /* \"erc721Flat.sol\":41096:41338  {... */\n      pop\n      pop\n        /* \"erc721Flat.sol\":40963:40968  false */\n      0x00\n        /* \"erc721Flat.sol\":40945:40960  reentrancyGuard */\n      0x09\n      0x00\n        /* \"erc721Flat.sol\":40945:40968  reentrancyGuard = false */\n      0x0100\n      exp\n      dup2\n      sload\n      dup2\n      0xff\n      mul\n      not\n      and\n      swap1\n      dup4\n      iszero\n      iszero\n      mul\n      or\n      swap1\n      sstore\n      pop\n        /* \"erc721Flat.sol\":41034:41338  function safeMint(address to) external nonReentrant onlyOwner {... */\n      pop\n      jump\t// out\n        /* \"erc721Flat.sol\":28528:28664  function safeTransferFrom(address from, address to, uint256 tokenId) external {... */\n    tag_54:\n        /* \"erc721Flat.sol\":28617:28656  safeTransferFrom(from, to, tokenId, \"\") */\n      tag_145\n        /* \"erc721Flat.sol\":28634:28638  from */\n      dup4\n        /* \"erc721Flat.sol\":28640:28642  to */\n      dup4\n        /* \"erc721Flat.sol\":28644:28651  tokenId */\n      dup4\n        /* \"erc721Flat.sol\":28617:28656  safeTransferFrom(from, to, tokenId, \"\") */\n      mload(0x40)\n      dup1\n      0x20\n      add\n      0x40\n      mstore\n      dup1\n      0x00\n      dup2\n      mstore\n      pop\n        /* \"erc721Flat.sol\":28617:28633  safeTransferFrom */\n      tag_82\n        /* \"erc721Flat.sol\":28617:28656  safeTransferFrom(from, to, tokenId, \"\") */\n      jump\t// in\n    tag_145:\n        /* \"erc721Flat.sol\":28528:28664  function safeTransferFrom(address from, address to, uint256 tokenId) external {... */\n      pop\n      pop\n      pop\n      jump\t// out\n        /* \"erc721Flat.sol\":38173:38493  function burn(uint256 tokenId) external virtual {... */\n    tag_57:\n        /* \"erc721Flat.sol\":38443:38485  _update(address(0), tokenId, _msgSender()) */\n      tag_147\n        /* \"erc721Flat.sol\":38459:38460  0 */\n      0x00\n        /* \"erc721Flat.sol\":38463:38470  tokenId */\n      dup3\n        /* \"erc721Flat.sol\":38472:38484  _msgSender() */\n      tag_148\n        /* \"erc721Flat.sol\":38472:38482  _msgSender */\n      tag_113\n        /* \"erc721Flat.sol\":38472:38484  _msgSender() */\n      jump\t// in\n    tag_148:\n        /* \"erc721Flat.sol\":38443:38450  _update */\n      tag_120\n        /* \"erc721Flat.sol\":38443:38485  _update(address(0), tokenId, _msgSender()) */\n      jump\t// in\n    tag_147:\n      pop\n        /* \"erc721Flat.sol\":38173:38493  function burn(uint256 tokenId) external virtual {... */\n      pop\n      jump\t// out\n        /* \"erc721Flat.sol\":25784:25906  function ownerOf(uint256 tokenId) external view virtual returns (address) {... */\n    tag_60:\n        /* \"erc721Flat.sol\":25849:25856  address */\n      0x00\n        /* \"erc721Flat.sol\":25876:25898  _requireOwned(tokenId) */\n      tag_150\n        /* \"erc721Flat.sol\":25890:25897  tokenId */\n      dup3\n        /* \"erc721Flat.sol\":25876:25889  _requireOwned */\n      tag_107\n        /* \"erc721Flat.sol\":25876:25898  _requireOwned(tokenId) */\n      jump\t// in\n    tag_150:\n        /* \"erc721Flat.sol\":25869:25898  return _requireOwned(tokenId) */\n      swap1\n      pop\n        /* \"erc721Flat.sol\":25784:25906  function ownerOf(uint256 tokenId) external view virtual returns (address) {... */\n      swap2\n      swap1\n      pop\n      jump\t// out\n        /* \"erc721Flat.sol\":25507:25722  function balanceOf(address owner) external view virtual returns (uint256) {... */\n    tag_64:\n        /* \"erc721Flat.sol\":25572:25579  uint256 */\n      0x00\n        /* \"erc721Flat.sol\":25613:25614  0 */\n      dup1\n        /* \"erc721Flat.sol\":25596:25615  owner == address(0) */\n      0xffffffffffffffffffffffffffffffffffffffff\n      and\n        /* \"erc721Flat.sol\":25596:25601  owner */\n      dup3\n        /* \"erc721Flat.sol\":25596:25615  owner == address(0) */\n      0xffffffffffffffffffffffffffffffffffffffff\n      and\n      sub\n        /* \"erc721Flat.sol\":25592:25681  if (owner == address(0)) {... */\n      tag_152\n      jumpi\n        /* \"erc721Flat.sol\":25666:25667  0 */\n      0x00\n        /* \"erc721Flat.sol\":25639:25669  ERC721InvalidOwner(address(0)) */\n      mload(0x40)\n      0x89c62b6400000000000000000000000000000000000000000000000000000000\n      dup2\n      mstore\n      0x04\n      add\n      tag_153\n      swap2\n      swap1\n      tag_39\n      jump\t// in\n    tag_153:\n      mload(0x40)\n      dup1\n      swap2\n      sub\n      swap1\n      revert\n        /* \"erc721Flat.sol\":25592:25681  if (owner == address(0)) {... */\n    tag_152:\n        /* \"erc721Flat.sol\":25698:25707  _balances */\n      0x03\n        /* \"erc721Flat.sol\":25698:25714  _balances[owner] */\n      0x00\n        /* \"erc721Flat.sol\":25708:25713  owner */\n      dup4\n        /* \"erc721Flat.sol\":25698:25714  _balances[owner] */\n      0xffffffffffffffffffffffffffffffffffffffff\n      and\n      0xffffffffffffffffffffffffffffffffffffffff\n      and\n      dup2\n      mstore\n      0x20\n      add\n      swap1\n      dup2\n      mstore\n      0x20\n      add\n      0x00\n      keccak256\n      sload\n        /* \"erc721Flat.sol\":25691:25714  return _balances[owner] */\n      swap1\n      pop\n        /* \"erc721Flat.sol\":25507:25722  function balanceOf(address owner) external view virtual returns (uint256) {... */\n      swap2\n      swap1\n      pop\n      jump\t// out\n        /* \"erc721Flat.sol\":13123:13228  function renounceOwnership() external virtual onlyOwner {... */\n    tag_68:\n        /* \"erc721Flat.sol\":12334:12347  _checkOwner() */\n      tag_155\n        /* \"erc721Flat.sol\":12334:12345  _checkOwner */\n      tag_130\n        /* \"erc721Flat.sol\":12334:12347  _checkOwner() */\n      jump\t// in\n    tag_155:\n        /* \"erc721Flat.sol\":13190:13220  _transferOwnership(address(0)) */\n      tag_157\n        /* \"erc721Flat.sol\":13217:13218  0 */\n      0x00\n        /* \"erc721Flat.sol\":13190:13208  _transferOwnership */\n      tag_158\n        /* \"erc721Flat.sol\":13190:13220  _transferOwnership(address(0)) */\n      jump\t// in\n    tag_157:\n        /* \"erc721Flat.sol\":13123:13228  function renounceOwnership() external virtual onlyOwner {... */\n      jump\t// out\n        /* \"erc721Flat.sol\":12448:12535  function owner() public view virtual returns (address) {... */\n    tag_70:\n        /* \"erc721Flat.sol\":12494:12501  address */\n      0x00\n        /* \"erc721Flat.sol\":12521:12527  _owner */\n      0x07\n      0x00\n      swap1\n      sload\n      swap1\n      0x0100\n      exp\n      swap1\n      div\n      0xffffffffffffffffffffffffffffffffffffffff\n      and\n        /* \"erc721Flat.sol\":12514:12527  return _owner */\n      swap1\n      pop\n        /* \"erc721Flat.sol\":12448:12535  function owner() public view virtual returns (address) {... */\n      swap1\n      jump\t// out\n        /* \"erc721Flat.sol\":26135:26232  function symbol() external view virtual returns (string memory) {... */\n    tag_73:\n        /* \"erc721Flat.sol\":26184:26197  string memory */\n      0x60\n        /* \"erc721Flat.sol\":26217:26224  _symbol */\n      0x01\n        /* \"erc721Flat.sol\":26210:26224  return _symbol */\n      dup1\n      sload\n      tag_161\n      swap1\n      tag_100\n      jump\t// in\n    tag_161:\n      dup1\n      0x1f\n      add\n      0x20\n      dup1\n      swap2\n      div\n      mul\n      0x20\n      add\n      mload(0x40)\n      swap1\n      dup2\n      add\n      0x40\n      mstore\n      dup1\n      swap3\n      swap2\n      swap1\n      dup2\n      dup2\n      mstore\n      0x20\n      add\n      dup3\n      dup1\n      sload\n      tag_162\n      swap1\n      tag_100\n      jump\t// in\n    tag_162:\n      dup1\n      iszero\n      tag_163\n      jumpi\n      dup1\n      0x1f\n      lt\n      tag_164\n      jumpi\n      0x0100\n      dup1\n      dup4\n      sload\n      div\n      mul\n      dup4\n      mstore\n      swap2\n      0x20\n      add\n      swap2\n      jump(tag_163)\n    tag_164:\n      dup3\n      add\n      swap2\n      swap1\n      0x00\n      mstore\n      keccak256(0x00, 0x20)\n      swap1\n    tag_165:\n      dup2\n      sload\n      dup2\n      mstore\n      swap1\n      0x01\n      add\n      swap1\n      0x20\n      add\n      dup1\n      dup4\n      gt\n      tag_165\n      jumpi\n      dup3\n      swap1\n      sub\n      0x1f\n      and\n      dup3\n      add\n      swap2\n    tag_163:\n      pop\n      pop\n      pop\n      pop\n      pop\n      swap1\n      pop\n        /* \"erc721Flat.sol\":26135:26232  function symbol() external view virtual returns (string memory) {... */\n      swap1\n      jump\t// out\n        /* \"erc721Flat.sol\":27429:27576  function setApprovalForAll(address operator, bool approved)external virtual {... */\n    tag_78:\n        /* \"erc721Flat.sol\":27516:27568  _setApprovalForAll(_msgSender(), operator, approved) */\n      tag_167\n        /* \"erc721Flat.sol\":27535:27547  _msgSender() */\n      tag_168\n        /* \"erc721Flat.sol\":27535:27545  _msgSender */\n      tag_113\n        /* \"erc721Flat.sol\":27535:27547  _msgSender() */\n      jump\t// in\n    tag_168:\n        /* \"erc721Flat.sol\":27549:27557  operator */\n      dup4\n        /* \"erc721Flat.sol\":27559:27567  approved */\n      dup4\n        /* \"erc721Flat.sol\":27516:27534  _setApprovalForAll */\n      tag_169\n        /* \"erc721Flat.sol\":27516:27568  _setApprovalForAll(_msgSender(), operator, approved) */\n      jump\t// in\n    tag_167:\n        /* \"erc721Flat.sol\":27429:27576  function setApprovalForAll(address operator, bool approved)external virtual {... */\n      pop\n      pop\n      jump\t// out\n        /* \"erc721Flat.sol\":28735:28946  function safeTransferFrom(address from, address to, uint256 tokenId, bytes memory data) public virtual {... */\n    tag_82:\n        /* \"erc721Flat.sol\":28849:28880  transferFrom(from, to, tokenId) */\n      tag_171\n        /* \"erc721Flat.sol\":28862:28866  from */\n      dup5\n        /* \"erc721Flat.sol\":28868:28870  to */\n      dup5\n        /* \"erc721Flat.sol\":28872:28879  tokenId */\n      dup5\n        /* \"erc721Flat.sol\":28849:28861  transferFrom */\n      tag_47\n        /* \"erc721Flat.sol\":28849:28880  transferFrom(from, to, tokenId) */\n      jump\t// in\n    tag_171:\n        /* \"erc721Flat.sol\":28891:28938  _checkOnERC721Received(from, to, tokenId, data) */\n      tag_172\n        /* \"erc721Flat.sol\":28914:28918  from */\n      dup5\n        /* \"erc721Flat.sol\":28920:28922  to */\n      dup5\n        /* \"erc721Flat.sol\":28924:28931  tokenId */\n      dup5\n        /* \"erc721Flat.sol\":28933:28937  data */\n      dup5\n        /* \"erc721Flat.sol\":28891:28913  _checkOnERC721Received */\n      tag_173\n        /* \"erc721Flat.sol\":28891:28938  _checkOnERC721Received(from, to, tokenId, data) */\n      jump\t// in\n    tag_172:\n        /* \"erc721Flat.sol\":28735:28946  function safeTransferFrom(address from, address to, uint256 tokenId, bytes memory data) public virtual {... */\n      pop\n      pop\n      pop\n      pop\n      jump\t// out\n        /* \"erc721Flat.sol\":41418:41614  function tokenURI(uint256 tokenId)... */\n    tag_85:\n        /* \"erc721Flat.sol\":41545:41558  string memory */\n      0x60\n        /* \"erc721Flat.sol\":41583:41606  super.tokenURI(tokenId) */\n      tag_175\n        /* \"erc721Flat.sol\":41598:41605  tokenId */\n      dup3\n        /* \"erc721Flat.sol\":41583:41597  super.tokenURI */\n      tag_176\n        /* \"erc721Flat.sol\":41583:41606  super.tokenURI(tokenId) */\n      jump\t// in\n    tag_175:\n        /* \"erc721Flat.sol\":41576:41606  return super.tokenURI(tokenId) */\n      swap1\n      pop\n        /* \"erc721Flat.sol\":41418:41614  function tokenURI(uint256 tokenId)... */\n      swap2\n      swap1\n      pop\n      jump\t// out\n        /* \"erc721Flat.sol\":27647:27802  function isApprovedForAll(address owner, address operator) public view virtual returns (bool) {... */\n    tag_90:\n        /* \"erc721Flat.sol\":27735:27739  bool */\n      0x00\n        /* \"erc721Flat.sol\":27759:27777  _operatorApprovals */\n      0x05\n        /* \"erc721Flat.sol\":27759:27784  _operatorApprovals[owner] */\n      0x00\n        /* \"erc721Flat.sol\":27778:27783  owner */\n      dup5\n        /* \"erc721Flat.sol\":27759:27784  _operatorApprovals[owner] */\n      0xffffffffffffffffffffffffffffffffffffffff\n      and\n      0xffffffffffffffffffffffffffffffffffffffff\n      and\n      dup2\n      mstore\n      0x20\n      add\n      swap1\n      dup2\n      mstore\n      0x20\n      add\n      0x00\n      keccak256\n        /* \"erc721Flat.sol\":27759:27794  _operatorApprovals[owner][operator] */\n      0x00\n        /* \"erc721Flat.sol\":27785:27793  operator */\n      dup4\n        /* \"erc721Flat.sol\":27759:27794  _operatorApprovals[owner][operator] */\n      0xffffffffffffffffffffffffffffffffffffffff\n      and\n      0xffffffffffffffffffffffffffffffffffffffff\n      and\n      dup2\n      mstore\n      0x20\n      add\n      swap1\n      dup2\n      mstore\n      0x20\n      add\n      0x00\n      keccak256\n      0x00\n      swap1\n      sload\n      swap1\n      0x0100\n      exp\n      swap1\n      div\n      0xff\n      and\n        /* \"erc721Flat.sol\":27752:27794  return _operatorApprovals[owner][operator] */\n      swap1\n      pop\n        /* \"erc721Flat.sol\":27647:27802  function isApprovedForAll(address owner, address operator) public view virtual returns (bool) {... */\n      swap3\n      swap2\n      pop\n      pop\n      jump\t// out\n        /* \"erc721Flat.sol\":13383:13605  function transferOwnership(address newOwner) external virtual onlyOwner {... */\n    tag_94:\n        /* \"erc721Flat.sol\":12334:12347  _checkOwner() */\n      tag_179\n        /* \"erc721Flat.sol\":12334:12345  _checkOwner */\n      tag_130\n        /* \"erc721Flat.sol\":12334:12347  _checkOwner() */\n      jump\t// in\n    tag_179:\n        /* \"erc721Flat.sol\":13490:13491  0 */\n      0x00\n        /* \"erc721Flat.sol\":13470:13492  newOwner == address(0) */\n      0xffffffffffffffffffffffffffffffffffffffff\n      and\n        /* \"erc721Flat.sol\":13470:13478  newOwner */\n      dup2\n        /* \"erc721Flat.sol\":13470:13492  newOwner == address(0) */\n      0xffffffffffffffffffffffffffffffffffffffff\n      and\n      sub\n        /* \"erc721Flat.sol\":13466:13559  if (newOwner == address(0)) {... */\n      tag_181\n      jumpi\n        /* \"erc721Flat.sol\":13544:13545  0 */\n      0x00\n        /* \"erc721Flat.sol\":13516:13547  OwnableInvalidOwner(address(0)) */\n      mload(0x40)\n      0x1e4fbdf700000000000000000000000000000000000000000000000000000000\n      dup2\n      mstore\n      0x04\n      add\n      tag_182\n      swap2\n      swap1\n      tag_39\n      jump\t// in\n    tag_182:\n      mload(0x40)\n      dup1\n      swap2\n      sub\n      swap1\n      revert\n        /* \"erc721Flat.sol\":13466:13559  if (newOwner == address(0)) {... */\n    tag_181:\n        /* \"erc721Flat.sol\":13569:13597  _transferOwnership(newOwner) */\n      tag_183\n        /* \"erc721Flat.sol\":13588:13596  newOwner */\n      dup2\n        /* \"erc721Flat.sol\":13569:13587  _transferOwnership */\n      tag_158\n        /* \"erc721Flat.sol\":13569:13597  _transferOwnership(newOwner) */\n      jump\t// in\n    tag_183:\n        /* \"erc721Flat.sol\":13383:13605  function transferOwnership(address newOwner) external virtual onlyOwner {... */\n      pop\n      jump\t// out\n        /* \"erc721Flat.sol\":39308:39517  function supportsInterface(bytes4 interfaceId) public view virtual override(ERC721, IERC165) returns (bool) {... */\n    tag_97:\n        /* \"erc721Flat.sol\":39410:39414  bool */\n      0x00\n        /* \"erc721Flat.sol\":39123:39133  0x49064906 */\n      0x49064906\n        /* \"erc721Flat.sol\":39116:39134  bytes4(0x49064906) */\n      0xe0\n      shl\n        /* \"erc721Flat.sol\":39434:39469  interfaceId == ERC4906_INTERFACE_ID */\n      not(0xffffffffffffffffffffffffffffffffffffffffffffffffffffffff)\n      and\n        /* \"erc721Flat.sol\":39434:39445  interfaceId */\n      dup3\n        /* \"erc721Flat.sol\":39434:39469  interfaceId == ERC4906_INTERFACE_ID */\n      not(0xffffffffffffffffffffffffffffffffffffffffffffffffffffffff)\n      and\n      eq\n        /* \"erc721Flat.sol\":39434:39509  interfaceId == ERC4906_INTERFACE_ID || super.supportsInterface(interfaceId) */\n      dup1\n      tag_185\n      jumpi\n      pop\n        /* \"erc721Flat.sol\":39473:39509  super.supportsInterface(interfaceId) */\n      tag_186\n        /* \"erc721Flat.sol\":39497:39508  interfaceId */\n      dup3\n        /* \"erc721Flat.sol\":39473:39496  super.supportsInterface */\n      tag_187\n        /* \"erc721Flat.sol\":39473:39509  super.supportsInterface(interfaceId) */\n      jump\t// in\n    tag_186:\n        /* \"erc721Flat.sol\":39434:39509  interfaceId == ERC4906_INTERFACE_ID || super.supportsInterface(interfaceId) */\n    tag_185:\n        /* \"erc721Flat.sol\":39427:39509  return interfaceId == ERC4906_INTERFACE_ID || super.supportsInterface(interfaceId) */\n      swap1\n      pop\n        /* \"erc721Flat.sol\":39308:39517  function supportsInterface(bytes4 interfaceId) public view virtual override(ERC721, IERC165) returns (bool) {... */\n      swap2\n      swap1\n      pop\n      jump\t// out\n        /* \"erc721Flat.sol\":36023:36270  function _requireOwned(uint256 tokenId) internal view returns (address) {... */\n    tag_107:\n        /* \"erc721Flat.sol\":36086:36093  address */\n      0x00\n        /* \"erc721Flat.sol\":36106:36119  address owner */\n      dup1\n        /* \"erc721Flat.sol\":36122:36139  _ownerOf(tokenId) */\n      tag_189\n        /* \"erc721Flat.sol\":36131:36138  tokenId */\n      dup4\n        /* \"erc721Flat.sol\":36122:36130  _ownerOf */\n      tag_190\n        /* \"erc721Flat.sol\":36122:36139  _ownerOf(tokenId) */\n      jump\t// in\n    tag_189:\n        /* \"erc721Flat.sol\":36106:36139  address owner = _ownerOf(tokenId) */\n      swap1\n      pop\n        /* \"erc721Flat.sol\":36171:36172  0 */\n      0x00\n        /* \"erc721Flat.sol\":36154:36173  owner == address(0) */\n      0xffffffffffffffffffffffffffffffffffffffff\n      and\n        /* \"erc721Flat.sol\":36154:36159  owner */\n      dup2\n        /* \"erc721Flat.sol\":36154:36173  owner == address(0) */\n      0xffffffffffffffffffffffffffffffffffffffff\n      and\n      sub\n        /* \"erc721Flat.sol\":36150:36240  if (owner == address(0)) {... */\n      tag_191\n      jumpi\n        /* \"erc721Flat.sol\":36220:36227  tokenId */\n      dup3\n        /* \"erc721Flat.sol\":36197:36228  ERC721NonexistentToken(tokenId) */\n      mload(0x40)\n      0x7e27328900000000000000000000000000000000000000000000000000000000\n      dup2\n      mstore\n      0x04\n      add\n      tag_192\n      swap2\n      swap1\n      tag_66\n      jump\t// in\n    tag_192:\n      mload(0x40)\n      dup1\n      swap2\n      sub\n      swap1\n      revert\n        /* \"erc721Flat.sol\":36150:36240  if (owner == address(0)) {... */\n    tag_191:\n        /* \"erc721Flat.sol\":36257:36262  owner */\n      dup1\n        /* \"erc721Flat.sol\":36250:36262  return owner */\n      swap2\n      pop\n      pop\n        /* \"erc721Flat.sol\":36023:36270  function _requireOwned(uint256 tokenId) internal view returns (address) {... */\n      swap2\n      swap1\n      pop\n      jump\t// out\n        /* \"erc721Flat.sol\":29708:29837  function _getApproved(uint256 tokenId) internal view virtual returns (address) {... */\n    tag_109:\n        /* \"erc721Flat.sol\":29778:29785  address */\n      0x00\n        /* \"erc721Flat.sol\":29805:29820  _tokenApprovals */\n      0x04\n        /* \"erc721Flat.sol\":29805:29829  _tokenApprovals[tokenId] */\n      0x00\n        /* \"erc721Flat.sol\":29821:29828  tokenId */\n      dup4\n        /* \"erc721Flat.sol\":29805:29829  _tokenApprovals[tokenId] */\n      dup2\n      mstore\n      0x20\n      add\n      swap1\n      dup2\n      mstore\n      0x20\n      add\n      0x00\n      keccak256\n      0x00\n      swap1\n      sload\n      swap1\n      0x0100\n      exp\n      swap1\n      div\n      0xffffffffffffffffffffffffffffffffffffffff\n      and\n        /* \"erc721Flat.sol\":29798:29829  return _tokenApprovals[tokenId] */\n      swap1\n      pop\n        /* \"erc721Flat.sol\":29708:29837  function _getApproved(uint256 tokenId) internal view virtual returns (address) {... */\n      swap2\n      swap1\n      pop\n      jump\t// out\n        /* \"erc721Flat.sol\":10672:10770  function _msgSender() internal view virtual returns (address) {... */\n    tag_113:\n        /* \"erc721Flat.sol\":10725:10732  address */\n      0x00\n        /* \"erc721Flat.sol\":10752:10762  msg.sender */\n      caller\n        /* \"erc721Flat.sol\":10745:10762  return msg.sender */\n      swap1\n      pop\n        /* \"erc721Flat.sol\":10672:10770  function _msgSender() internal view virtual returns (address) {... */\n      swap1\n      jump\t// out\n        /* \"erc721Flat.sol\":34255:34377  function _approve(address to, uint256 tokenId, address auth) internal {... */\n    tag_114:\n        /* \"erc721Flat.sol\":34336:34369  _approve(to, tokenId, auth, true) */\n      tag_196\n        /* \"erc721Flat.sol\":34345:34347  to */\n      dup4\n        /* \"erc721Flat.sol\":34349:34356  tokenId */\n      dup4\n        /* \"erc721Flat.sol\":34358:34362  auth */\n      dup4\n        /* \"erc721Flat.sol\":34364:34368  true */\n      0x01\n        /* \"erc721Flat.sol\":34336:34344  _approve */\n      tag_197\n        /* \"erc721Flat.sol\":34336:34369  _approve(to, tokenId, auth, true) */\n      jump\t// in\n    tag_196:\n        /* \"erc721Flat.sol\":34255:34377  function _approve(address to, uint256 tokenId, address auth) internal {... */\n      pop\n      pop\n      pop\n      jump\t// out\n        /* \"erc721Flat.sol\":31863:32687  function _update(address to, uint256 tokenId, address auth) internal virtual returns (address) {... */\n    tag_120:\n        /* \"erc721Flat.sol\":31949:31956  address */\n      0x00\n        /* \"erc721Flat.sol\":31969:31981  address from */\n      dup1\n        /* \"erc721Flat.sol\":31984:32001  _ownerOf(tokenId) */\n      tag_199\n        /* \"erc721Flat.sol\":31993:32000  tokenId */\n      dup5\n        /* \"erc721Flat.sol\":31984:31992  _ownerOf */\n      tag_190\n        /* \"erc721Flat.sol\":31984:32001  _ownerOf(tokenId) */\n      jump\t// in\n    tag_199:\n        /* \"erc721Flat.sol\":31969:32001  address from = _ownerOf(tokenId) */\n      swap1\n      pop\n        /* \"erc721Flat.sol\":32080:32081  0 */\n      0x00\n        /* \"erc721Flat.sol\":32064:32082  auth != address(0) */\n      0xffffffffffffffffffffffffffffffffffffffff\n      and\n        /* \"erc721Flat.sol\":32064:32068  auth */\n      dup4\n        /* \"erc721Flat.sol\":32064:32082  auth != address(0) */\n      0xffffffffffffffffffffffffffffffffffffffff\n      and\n      eq\n        /* \"erc721Flat.sol\":32060:32148  if (auth != address(0)) {... */\n      tag_200\n      jumpi\n        /* \"erc721Flat.sol\":32099:32136  _checkAuthorized(from, auth, tokenId) */\n      tag_201\n        /* \"erc721Flat.sol\":32116:32120  from */\n      dup2\n        /* \"erc721Flat.sol\":32122:32126  auth */\n      dup5\n        /* \"erc721Flat.sol\":32128:32135  tokenId */\n      dup7\n        /* \"erc721Flat.sol\":32099:32115  _checkAuthorized */\n      tag_202\n        /* \"erc721Flat.sol\":32099:32136  _checkAuthorized(from, auth, tokenId) */\n      jump\t// in\n    tag_201:\n        /* \"erc721Flat.sol\":32060:32148  if (auth != address(0)) {... */\n    tag_200:\n        /* \"erc721Flat.sol\":32211:32212  0 */\n      0x00\n        /* \"erc721Flat.sol\":32195:32213  from != address(0) */\n      0xffffffffffffffffffffffffffffffffffffffff\n      and\n        /* \"erc721Flat.sol\":32195:32199  from */\n      dup2\n        /* \"erc721Flat.sol\":32195:32213  from != address(0) */\n      0xffffffffffffffffffffffffffffffffffffffff\n      and\n      eq\n        /* \"erc721Flat.sol\":32191:32454  if (from != address(0)) {... */\n      tag_203\n      jumpi\n        /* \"erc721Flat.sol\":32313:32361  _approve(address(0), tokenId, address(0), false) */\n      tag_204\n        /* \"erc721Flat.sol\":32330:32331  0 */\n      0x00\n        /* \"erc721Flat.sol\":32334:32341  tokenId */\n      dup6\n        /* \"erc721Flat.sol\":32351:32352  0 */\n      0x00\n        /* \"erc721Flat.sol\":32355:32360  false */\n      dup1\n        /* \"erc721Flat.sol\":32313:32321  _approve */\n      tag_197\n        /* \"erc721Flat.sol\":32313:32361  _approve(address(0), tokenId, address(0), false) */\n      jump\t// in\n    tag_204:\n        /* \"erc721Flat.sol\":32426:32427  1 */\n      0x01\n        /* \"erc721Flat.sol\":32407:32416  _balances */\n      0x03\n        /* \"erc721Flat.sol\":32407:32422  _balances[from] */\n      0x00\n        /* \"erc721Flat.sol\":32417:32421  from */\n      dup4\n        /* \"erc721Flat.sol\":32407:32422  _balances[from] */\n      0xffffffffffffffffffffffffffffffffffffffff\n      and\n      0xffffffffffffffffffffffffffffffffffffffff\n      and\n      dup2\n      mstore\n      0x20\n      add\n      swap1\n      dup2\n      mstore\n      0x20\n      add\n      0x00\n      keccak256\n      0x00\n        /* \"erc721Flat.sol\":32407:32427  _balances[from] -= 1 */\n      dup3\n      dup3\n      sload\n      sub\n      swap3\n      pop\n      pop\n      dup2\n      swap1\n      sstore\n      pop\n        /* \"erc721Flat.sol\":32191:32454  if (from != address(0)) {... */\n    tag_203:\n        /* \"erc721Flat.sol\":32484:32485  0 */\n      0x00\n        /* \"erc721Flat.sol\":32470:32486  to != address(0) */\n      0xffffffffffffffffffffffffffffffffffffffff\n      and\n        /* \"erc721Flat.sol\":32470:32472  to */\n      dup6\n        /* \"erc721Flat.sol\":32470:32486  to != address(0) */\n      0xffffffffffffffffffffffffffffffffffffffff\n      and\n      eq\n        /* \"erc721Flat.sol\":32466:32577  if (to != address(0)) {... */\n      tag_205\n      jumpi\n        /* \"erc721Flat.sol\":32549:32550  1 */\n      0x01\n        /* \"erc721Flat.sol\":32532:32541  _balances */\n      0x03\n        /* \"erc721Flat.sol\":32532:32545  _balances[to] */\n      0x00\n        /* \"erc721Flat.sol\":32542:32544  to */\n      dup8\n        /* \"erc721Flat.sol\":32532:32545  _balances[to] */\n      0xffffffffffffffffffffffffffffffffffffffff\n      and\n      0xffffffffffffffffffffffffffffffffffffffff\n      and\n      dup2\n      mstore\n      0x20\n      add\n      swap1\n      dup2\n      mstore\n      0x20\n      add\n      0x00\n      keccak256\n      0x00\n        /* \"erc721Flat.sol\":32532:32550  _balances[to] += 1 */\n      dup3\n      dup3\n      sload\n      add\n      swap3\n      pop\n      pop\n      dup2\n      swap1\n      sstore\n      pop\n        /* \"erc721Flat.sol\":32466:32577  if (to != address(0)) {... */\n    tag_205:\n        /* \"erc721Flat.sol\":32608:32610  to */\n      dup5\n        /* \"erc721Flat.sol\":32589:32596  _owners */\n      0x02\n        /* \"erc721Flat.sol\":32589:32605  _owners[tokenId] */\n      0x00\n        /* \"erc721Flat.sol\":32597:32604  tokenId */\n      dup7\n        /* \"erc721Flat.sol\":32589:32605  _owners[tokenId] */\n      dup2\n      mstore\n      0x20\n      add\n      swap1\n      dup2\n      mstore\n      0x20\n      add\n      0x00\n      keccak256\n      0x00\n        /* \"erc721Flat.sol\":32589:32610  _owners[tokenId] = to */\n      0x0100\n      exp\n      dup2\n      sload\n      dup2\n      0xffffffffffffffffffffffffffffffffffffffff\n      mul\n      not\n      and\n      swap1\n      dup4\n      0xffffffffffffffffffffffffffffffffffffffff\n      and\n      mul\n      or\n      swap1\n      sstore\n      pop\n        /* \"erc721Flat.sol\":32647:32654  tokenId */\n      dup4\n        /* \"erc721Flat.sol\":32643:32645  to */\n      dup6\n        /* \"erc721Flat.sol\":32628:32655  Transfer(from, to, tokenId) */\n      0xffffffffffffffffffffffffffffffffffffffff\n      and\n        /* \"erc721Flat.sol\":32637:32641  from */\n      dup3\n        /* \"erc721Flat.sol\":32628:32655  Transfer(from, to, tokenId) */\n      0xffffffffffffffffffffffffffffffffffffffff\n      and\n      0xddf252ad1be2c89b69c2b068fc378daa952ba7f163c4a11628f55a4df523b3ef\n      mload(0x40)\n      mload(0x40)\n      dup1\n      swap2\n      sub\n      swap1\n      log4\n        /* \"erc721Flat.sol\":32675:32679  from */\n      dup1\n        /* \"erc721Flat.sol\":32668:32679  return from */\n      swap2\n      pop\n      pop\n        /* \"erc721Flat.sol\":31863:32687  function _update(address to, uint256 tokenId, address auth) internal virtual returns (address) {... */\n      swap4\n      swap3\n      pop\n      pop\n      pop\n      jump\t// out\n        /* \"erc721Flat.sol\":12613:12779  function _checkOwner() internal view virtual {... */\n    tag_130:\n        /* \"erc721Flat.sol\":12684:12696  _msgSender() */\n      tag_207\n        /* \"erc721Flat.sol\":12684:12694  _msgSender */\n      tag_113\n        /* \"erc721Flat.sol\":12684:12696  _msgSender() */\n      jump\t// in\n    tag_207:\n        /* \"erc721Flat.sol\":12673:12696  owner() != _msgSender() */\n      0xffffffffffffffffffffffffffffffffffffffff\n      and\n        /* \"erc721Flat.sol\":12673:12680  owner() */\n      tag_208\n        /* \"erc721Flat.sol\":12673:12678  owner */\n      tag_70\n        /* \"erc721Flat.sol\":12673:12680  owner() */\n      jump\t// in\n    tag_208:\n        /* \"erc721Flat.sol\":12673:12696  owner() != _msgSender() */\n      0xffffffffffffffffffffffffffffffffffffffff\n      and\n      eq\n        /* \"erc721Flat.sol\":12669:12772  if (owner() != _msgSender()) {... */\n      tag_209\n      jumpi\n        /* \"erc721Flat.sol\":12747:12759  _msgSender() */\n      tag_210\n        /* \"erc721Flat.sol\":12747:12757  _msgSender */\n      tag_113\n        /* \"erc721Flat.sol\":12747:12759  _msgSender() */\n      jump\t// in\n    tag_210:\n        /* \"erc721Flat.sol\":12720:12760  OwnableUnauthorizedAccount(_msgSender()) */\n      mload(0x40)\n      0x118cdaa700000000000000000000000000000000000000000000000000000000\n      dup2\n      mstore\n      0x04\n      add\n      tag_211\n      swap2\n      swap1\n      tag_39\n      jump\t// in\n    tag_211:\n      mload(0x40)\n      dup1\n      swap2\n      sub\n      swap1\n      revert\n        /* \"erc721Flat.sol\":12669:12772  if (owner() != _msgSender()) {... */\n    tag_209:\n        /* \"erc721Flat.sol\":12613:12779  function _checkOwner() internal view virtual {... */\n      jump\t// out\n        /* \"erc721Flat.sol\":853:967  function current(Counter storage counter) internal view returns (uint256) {... */\n    tag_133:\n        /* \"erc721Flat.sol\":918:925  uint256 */\n      0x00\n        /* \"erc721Flat.sol\":945:952  counter */\n      dup2\n        /* \"erc721Flat.sol\":945:959  counter._value */\n      0x00\n      add\n      sload\n        /* \"erc721Flat.sol\":938:959  return counter._value */\n      swap1\n      pop\n        /* \"erc721Flat.sol\":853:967  function current(Counter storage counter) internal view returns (uint256) {... */\n      swap2\n      swap1\n      pop\n      jump\t// out\n        /* \"erc721Flat.sol\":975:1102  function increment(Counter storage counter) internal {... */\n    tag_135:\n        /* \"erc721Flat.sol\":1082:1083  1 */\n      0x01\n        /* \"erc721Flat.sol\":1064:1071  counter */\n      dup2\n        /* \"erc721Flat.sol\":1064:1078  counter._value */\n      0x00\n      add\n      0x00\n        /* \"erc721Flat.sol\":1064:1083  counter._value += 1 */\n      dup3\n      dup3\n      sload\n      add\n      swap3\n      pop\n      pop\n      dup2\n      swap1\n      sstore\n      pop\n        /* \"erc721Flat.sol\":975:1102  function increment(Counter storage counter) internal {... */\n      pop\n      jump\t// out\n        /* \"erc721Flat.sol\":9414:9967  function toString(uint256 value) internal pure returns (string memory) {... */\n    tag_137:\n        /* \"erc721Flat.sol\":9470:9483  string memory */\n      0x60\n        /* \"erc721Flat.sol\":9509:9510  0 */\n      0x00\n        /* \"erc721Flat.sol\":9500:9505  value */\n      dup3\n        /* \"erc721Flat.sol\":9500:9510  value == 0 */\n      sub\n        /* \"erc721Flat.sol\":9496:9549  if (value == 0) {... */\n      tag_215\n      jumpi\n        /* \"erc721Flat.sol\":9527:9537  return \"0\" */\n      mload(0x40)\n      dup1\n      0x40\n      add\n      0x40\n      mstore\n      dup1\n      0x01\n      dup2\n      mstore\n      0x20\n      add\n      0x3000000000000000000000000000000000000000000000000000000000000000\n      dup2\n      mstore\n      pop\n      swap1\n      pop\n      jump(tag_214)\n        /* \"erc721Flat.sol\":9496:9549  if (value == 0) {... */\n    tag_215:\n        /* \"erc721Flat.sol\":9569:9581  uint256 temp */\n      0x00\n        /* \"erc721Flat.sol\":9584:9589  value */\n      dup3\n        /* \"erc721Flat.sol\":9569:9589  uint256 temp = value */\n      swap1\n      pop\n        /* \"erc721Flat.sol\":9600:9614  uint256 digits */\n      0x00\n        /* \"erc721Flat.sol\":9625:9703  while (temp != 0) {... */\n    tag_216:\n        /* \"erc721Flat.sol\":9640:9641  0 */\n      0x00\n        /* \"erc721Flat.sol\":9632:9636  temp */\n      dup3\n        /* \"erc721Flat.sol\":9632:9641  temp != 0 */\n      eq\n        /* \"erc721Flat.sol\":9625:9703  while (temp != 0) {... */\n      tag_217\n      jumpi\n        /* \"erc721Flat.sol\":9658:9666  digits++ */\n      dup1\n      dup1\n      tag_218\n      swap1\n      tag_219\n      jump\t// in\n    tag_218:\n      swap2\n      pop\n      pop\n        /* \"erc721Flat.sol\":9689:9691  10 */\n      0x0a\n        /* \"erc721Flat.sol\":9681:9691  temp /= 10 */\n      dup3\n      tag_220\n      swap2\n      swap1\n      tag_221\n      jump\t// in\n    tag_220:\n      swap2\n      pop\n        /* \"erc721Flat.sol\":9625:9703  while (temp != 0) {... */\n      jump(tag_216)\n    tag_217:\n        /* \"erc721Flat.sol\":9723:9742  bytes memory buffer */\n      0x00\n        /* \"erc721Flat.sol\":9755:9761  digits */\n      dup2\n        /* \"erc721Flat.sol\":9745:9762  new bytes(digits) */\n      0xffffffffffffffff\n      dup2\n      gt\n      iszero\n      tag_222\n      jumpi\n      tag_223\n      tag_224\n      jump\t// in\n    tag_223:\n    tag_222:\n      mload(0x40)\n      swap1\n      dup1\n      dup3\n      mstore\n      dup1\n      0x1f\n      add\n      not(0x1f)\n      and\n      0x20\n      add\n      dup3\n      add\n      0x40\n      mstore\n      dup1\n      iszero\n      tag_225\n      jumpi\n      dup2\n      0x20\n      add\n      0x01\n      dup3\n      mul\n      dup1\n      calldatasize\n      dup4\n      calldatacopy\n      dup1\n      dup3\n      add\n      swap2\n      pop\n      pop\n      swap1\n      pop\n    tag_225:\n      pop\n        /* \"erc721Flat.sol\":9723:9762  bytes memory buffer = new bytes(digits) */\n      swap1\n      pop\n        /* \"erc721Flat.sol\":9773:9918  while (value != 0) {... */\n    tag_226:\n        /* \"erc721Flat.sol\":9789:9790  0 */\n      0x00\n        /* \"erc721Flat.sol\":9780:9785  value */\n      dup6\n        /* \"erc721Flat.sol\":9780:9790  value != 0 */\n      eq\n        /* \"erc721Flat.sol\":9773:9918  while (value != 0) {... */\n      tag_227\n      jumpi\n        /* \"erc721Flat.sol\":9817:9818  1 */\n      0x01\n        /* \"erc721Flat.sol\":9807:9818  digits -= 1 */\n      dup3\n      tag_228\n      swap2\n      swap1\n      tag_229\n      jump\t// in\n    tag_228:\n      swap2\n      pop\n        /* \"erc721Flat.sol\":9876:9878  10 */\n      0x0a\n        /* \"erc721Flat.sol\":9868:9873  value */\n      dup6\n        /* \"erc721Flat.sol\":9868:9878  value % 10 */\n      tag_230\n      swap2\n      swap1\n      tag_231\n      jump\t// in\n    tag_230:\n        /* \"erc721Flat.sol\":9863:9865  48 */\n      0x30\n        /* \"erc721Flat.sol\":9863:9878  48 + value % 10 */\n      tag_232\n      swap2\n      swap1\n      tag_233\n      jump\t// in\n    tag_232:\n        /* \"erc721Flat.sol\":9850:9880  bytes1(uint8(48 + value % 10)) */\n      0xf8\n      shl\n        /* \"erc721Flat.sol\":9833:9839  buffer */\n      dup2\n        /* \"erc721Flat.sol\":9840:9846  digits */\n      dup4\n        /* \"erc721Flat.sol\":9833:9847  buffer[digits] */\n      dup2\n      mload\n      dup2\n      lt\n      tag_234\n      jumpi\n      tag_235\n      tag_236\n      jump\t// in\n    tag_235:\n    tag_234:\n      0x20\n      add\n      add\n        /* \"erc721Flat.sol\":9833:9880  buffer[digits] = bytes1(uint8(48 + value % 10)) */\n      swap1\n      not(0xffffffffffffffffffffffffffffffffffffffffffffffffffffffffffffff)\n      and\n      swap1\n      dup2\n      0x00\n      byte\n      swap1\n      mstore8\n      pop\n        /* \"erc721Flat.sol\":9904:9906  10 */\n      0x0a\n        /* \"erc721Flat.sol\":9895:9906  value /= 10 */\n      dup6\n      tag_237\n      swap2\n      swap1\n      tag_221\n      jump\t// in\n    tag_237:\n      swap5\n      pop\n        /* \"erc721Flat.sol\":9773:9918  while (value != 0) {... */\n      jump(tag_226)\n    tag_227:\n        /* \"erc721Flat.sol\":9952:9958  buffer */\n      dup1\n        /* \"erc721Flat.sol\":9938:9959  return string(buffer) */\n      swap4\n      pop\n      pop\n      pop\n      pop\n        /* \"erc721Flat.sol\":9414:9967  function toString(uint256 value) internal pure returns (string memory) {... */\n    tag_214:\n      swap2\n      swap1\n      pop\n      jump\t// out\n        /* \"erc721Flat.sol\":40323:40493  function _setTokenURI(uint256 tokenId, string memory _tokenURI) internal virtual {... */\n    tag_141:\n        /* \"erc721Flat.sol\":40437:40446  _tokenURI */\n      dup1\n        /* \"erc721Flat.sol\":40415:40425  _tokenURIs */\n      0x06\n        /* \"erc721Flat.sol\":40415:40434  _tokenURIs[tokenId] */\n      0x00\n        /* \"erc721Flat.sol\":40426:40433  tokenId */\n      dup5\n        /* \"erc721Flat.sol\":40415:40434  _tokenURIs[tokenId] */\n      dup2\n      mstore\n      0x20\n      add\n      swap1\n      dup2\n      mstore\n      0x20\n      add\n      0x00\n      keccak256\n        /* \"erc721Flat.sol\":40415:40446  _tokenURIs[tokenId] = _tokenURI */\n      swap1\n      dup2\n      tag_239\n      swap2\n      swap1\n      tag_240\n      jump\t// in\n    tag_239:\n      pop\n        /* \"erc721Flat.sol\":40462:40485  MetadataUpdate(tokenId) */\n      0xf8e1a15aba9398e019f0b49df1a4fde98ee17ae345cb5f6b5e2c27f5033e8ce7\n        /* \"erc721Flat.sol\":40477:40484  tokenId */\n      dup3\n        /* \"erc721Flat.sol\":40462:40485  MetadataUpdate(tokenId) */\n      mload(0x40)\n      tag_241\n      swap2\n      swap1\n      tag_66\n      jump\t// in\n    tag_241:\n      mload(0x40)\n      dup1\n      swap2\n      sub\n      swap1\n      log1\n        /* \"erc721Flat.sol\":40323:40493  function _setTokenURI(uint256 tokenId, string memory _tokenURI) internal virtual {... */\n      pop\n      pop\n      jump\t// out\n        /* \"erc721Flat.sol\":33721:33823  function _safeMint(address to, uint256 tokenId) internal {... */\n    tag_143:\n        /* \"erc721Flat.sol\":33789:33815  _safeMint(to, tokenId, \"\") */\n      tag_243\n        /* \"erc721Flat.sol\":33799:33801  to */\n      dup3\n        /* \"erc721Flat.sol\":33803:33810  tokenId */\n      dup3\n        /* \"erc721Flat.sol\":33789:33815  _safeMint(to, tokenId, \"\") */\n      mload(0x40)\n      dup1\n      0x20\n      add\n      0x40\n      mstore\n      dup1\n      0x00\n      dup2\n      mstore\n      pop\n        /* \"erc721Flat.sol\":33789:33798  _safeMint */\n      tag_244\n        /* \"erc721Flat.sol\":33789:33815  _safeMint(to, tokenId, \"\") */\n      jump\t// in\n    tag_243:\n        /* \"erc721Flat.sol\":33721:33823  function _safeMint(address to, uint256 tokenId) internal {... */\n      pop\n      pop\n      jump\t// out\n        /* \"erc721Flat.sol\":13765:13956  function _transferOwnership(address newOwner) internal virtual {... */\n    tag_158:\n        /* \"erc721Flat.sol\":13839:13855  address oldOwner */\n      0x00\n        /* \"erc721Flat.sol\":13858:13864  _owner */\n      0x07\n      0x00\n      swap1\n      sload\n      swap1\n      0x0100\n      exp\n      swap1\n      div\n      0xffffffffffffffffffffffffffffffffffffffff\n      and\n        /* \"erc721Flat.sol\":13839:13864  address oldOwner = _owner */\n      swap1\n      pop\n        /* \"erc721Flat.sol\":13884:13892  newOwner */\n      dup2\n        /* \"erc721Flat.sol\":13875:13881  _owner */\n      0x07\n      0x00\n        /* \"erc721Flat.sol\":13875:13892  _owner = newOwner */\n      0x0100\n      exp\n      dup2\n      sload\n      dup2\n      0xffffffffffffffffffffffffffffffffffffffff\n      mul\n      not\n      and\n      swap1\n      dup4\n      0xffffffffffffffffffffffffffffffffffffffff\n      and\n      mul\n      or\n      swap1\n      sstore\n      pop\n        /* \"erc721Flat.sol\":13939:13947  newOwner */\n      dup2\n        /* \"erc721Flat.sol\":13908:13948  OwnershipTransferred(oldOwner, newOwner) */\n      0xffffffffffffffffffffffffffffffffffffffff\n      and\n        /* \"erc721Flat.sol\":13929:13937  oldOwner */\n      dup2\n        /* \"erc721Flat.sol\":13908:13948  OwnershipTransferred(oldOwner, newOwner) */\n      0xffffffffffffffffffffffffffffffffffffffff\n      and\n      0x8be0079c531659141344cd1fd0a4f28419497f9722a3daafe3b4186f6b6457e0\n      mload(0x40)\n      mload(0x40)\n      dup1\n      swap2\n      sub\n      swap1\n      log3\n        /* \"erc721Flat.sol\":13828:13956  {... */\n      pop\n        /* \"erc721Flat.sol\":13765:13956  function _transferOwnership(address newOwner) internal virtual {... */\n      pop\n      jump\t// out\n        /* \"erc721Flat.sol\":35462:35780  function _setApprovalForAll(address owner, address operator, bool approved) internal virtual {... */\n    tag_169:\n        /* \"erc721Flat.sol\":35590:35591  0 */\n      0x00\n        /* \"erc721Flat.sol\":35570:35592  operator == address(0) */\n      0xffffffffffffffffffffffffffffffffffffffff\n      and\n        /* \"erc721Flat.sol\":35570:35578  operator */\n      dup3\n        /* \"erc721Flat.sol\":35570:35592  operator == address(0) */\n      0xffffffffffffffffffffffffffffffffffffffff\n      and\n      sub\n        /* \"erc721Flat.sol\":35566:35659  if (operator == address(0)) {... */\n      tag_247\n      jumpi\n        /* \"erc721Flat.sol\":35638:35646  operator */\n      dup2\n        /* \"erc721Flat.sol\":35616:35647  ERC721InvalidOperator(operator) */\n      mload(0x40)\n      0x5b08ba1800000000000000000000000000000000000000000000000000000000\n      dup2\n      mstore\n      0x04\n      add\n      tag_248\n      swap2\n      swap1\n      tag_39\n      jump\t// in\n    tag_248:\n      mload(0x40)\n      dup1\n      swap2\n      sub\n      swap1\n      revert\n        /* \"erc721Flat.sol\":35566:35659  if (operator == address(0)) {... */\n    tag_247:\n        /* \"erc721Flat.sol\":35707:35715  approved */\n      dup1\n        /* \"erc721Flat.sol\":35669:35687  _operatorApprovals */\n      0x05\n        /* \"erc721Flat.sol\":35669:35694  _operatorApprovals[owner] */\n      0x00\n        /* \"erc721Flat.sol\":35688:35693  owner */\n      dup6\n        /* \"erc721Flat.sol\":35669:35694  _operatorApprovals[owner] */\n      0xffffffffffffffffffffffffffffffffffffffff\n      and\n      0xffffffffffffffffffffffffffffffffffffffff\n      and\n      dup2\n      mstore\n      0x20\n      add\n      swap1\n      dup2\n      mstore\n      0x20\n      add\n      0x00\n      keccak256\n        /* \"erc721Flat.sol\":35669:35704  _operatorApprovals[owner][operator] */\n      0x00\n        /* \"erc721Flat.sol\":35695:35703  operator */\n      dup5\n        /* \"erc721Flat.sol\":35669:35704  _operatorApprovals[owner][operator] */\n      0xffffffffffffffffffffffffffffffffffffffff\n      and\n      0xffffffffffffffffffffffffffffffffffffffff\n      and\n      dup2\n      mstore\n      0x20\n      add\n      swap1\n      dup2\n      mstore\n      0x20\n      add\n      0x00\n      keccak256\n      0x00\n        /* \"erc721Flat.sol\":35669:35715  _operatorApprovals[owner][operator] = approved */\n      0x0100\n      exp\n      dup2\n      sload\n      dup2\n      0xff\n      mul\n      not\n      and\n      swap1\n      dup4\n      iszero\n      iszero\n      mul\n      or\n      swap1\n      sstore\n      pop\n        /* \"erc721Flat.sol\":35753:35761  operator */\n      dup2\n        /* \"erc721Flat.sol\":35731:35772  ApprovalForAll(owner, operator, approved) */\n      0xffffffffffffffffffffffffffffffffffffffff\n      and\n        /* \"erc721Flat.sol\":35746:35751  owner */\n      dup4\n        /* \"erc721Flat.sol\":35731:35772  ApprovalForAll(owner, operator, approved) */\n      0xffffffffffffffffffffffffffffffffffffffff\n      and\n      0x17307eab39ab6107e8899845ad3d59bd9653f200f220920489ca2b5937696c31\n        /* \"erc721Flat.sol\":35763:35771  approved */\n      dup4\n        /* \"erc721Flat.sol\":35731:35772  ApprovalForAll(owner, operator, approved) */\n      mload(0x40)\n      tag_249\n      swap2\n      swap1\n      tag_29\n      jump\t// in\n    tag_249:\n      mload(0x40)\n      dup1\n      swap2\n      sub\n      swap1\n      log3\n        /* \"erc721Flat.sol\":35462:35780  function _setApprovalForAll(address owner, address operator, bool approved) internal virtual {... */\n      pop\n      pop\n      pop\n      jump\t// out\n        /* \"erc721Flat.sol\":36820:37628  function _checkOnERC721Received(address from, address to, uint256 tokenId, bytes memory data) private {... */\n    tag_173:\n        /* \"erc721Flat.sol\":36954:36955  0 */\n      0x00\n        /* \"erc721Flat.sol\":36937:36939  to */\n      dup4\n        /* \"erc721Flat.sol\":36937:36951  to.code.length */\n      0xffffffffffffffffffffffffffffffffffffffff\n      and\n      extcodesize\n        /* \"erc721Flat.sol\":36937:36955  to.code.length > 0 */\n      gt\n        /* \"erc721Flat.sol\":36933:37621  if (to.code.length > 0) {... */\n      iszero\n      tag_251\n      jumpi\n        /* \"erc721Flat.sol\":36992:36994  to */\n      dup3\n        /* \"erc721Flat.sol\":36976:37012  IERC721Receiver(to).onERC721Received */\n      0xffffffffffffffffffffffffffffffffffffffff\n      and\n      0x150b7a02\n        /* \"erc721Flat.sol\":37013:37025  _msgSender() */\n      tag_252\n        /* \"erc721Flat.sol\":37013:37023  _msgSender */\n      tag_113\n        /* \"erc721Flat.sol\":37013:37025  _msgSender() */\n      jump\t// in\n    tag_252:\n        /* \"erc721Flat.sol\":37027:37031  from */\n      dup7\n        /* \"erc721Flat.sol\":37033:37040  tokenId */\n      dup6\n        /* \"erc721Flat.sol\":37042:37046  data */\n      dup6\n        /* \"erc721Flat.sol\":36976:37047  IERC721Receiver(to).onERC721Received(_msgSender(), from, tokenId, data) */\n      mload(0x40)\n      dup6\n      0xffffffff\n      and\n      0xe0\n      shl\n      dup2\n      mstore\n      0x04\n      add\n      tag_253\n      swap5\n      swap4\n      swap3\n      swap2\n      swap1\n      tag_254\n      jump\t// in\n    tag_253:\n      0x20\n      mload(0x40)\n      dup1\n      dup4\n      sub\n      dup2\n      0x00\n      dup8\n      gas\n      call\n      swap3\n      pop\n      pop\n      pop\n      dup1\n      iszero\n      tag_255\n      jumpi\n      pop\n      mload(0x40)\n      returndatasize\n      not(0x1f)\n      0x1f\n      dup3\n      add\n      and\n      dup3\n      add\n      dup1\n      0x40\n      mstore\n      pop\n      dup2\n      add\n      swap1\n      tag_256\n      swap2\n      swap1\n      tag_257\n      jump\t// in\n    tag_256:\n      0x01\n    tag_255:\n        /* \"erc721Flat.sol\":36972:37610  try IERC721Receiver(to).onERC721Received(_msgSender(), from, tokenId, data) returns (bytes4 retval) {... */\n      tag_258\n      jumpi\n      returndatasize\n      dup1\n      0x00\n      dup2\n      eq\n      tag_263\n      jumpi\n      mload(0x40)\n      swap2\n      pop\n      and(add(returndatasize, 0x3f), not(0x1f))\n      dup3\n      add\n      0x40\n      mstore\n      returndatasize\n      dup3\n      mstore\n      returndatasize\n      0x00\n      0x20\n      dup5\n      add\n      returndatacopy\n      jump(tag_262)\n    tag_263:\n      0x60\n      swap2\n      pop\n    tag_262:\n      pop\n        /* \"erc721Flat.sol\":37307:37308  0 */\n      0x00\n        /* \"erc721Flat.sol\":37290:37296  reason */\n      dup2\n        /* \"erc721Flat.sol\":37290:37303  reason.length */\n      mload\n        /* \"erc721Flat.sol\":37290:37308  reason.length == 0 */\n      sub\n        /* \"erc721Flat.sol\":37286:37595  if (reason.length == 0) {... */\n      tag_264\n      jumpi\n        /* \"erc721Flat.sol\":37362:37364  to */\n      dup4\n        /* \"erc721Flat.sol\":37340:37365  ERC721InvalidReceiver(to) */\n      mload(0x40)\n      0x64a0ae9200000000000000000000000000000000000000000000000000000000\n      dup2\n      mstore\n      0x04\n      add\n      tag_265\n      swap2\n      swap1\n      tag_39\n      jump\t// in\n    tag_265:\n      mload(0x40)\n      dup1\n      swap2\n      sub\n      swap1\n      revert\n        /* \"erc721Flat.sol\":37286:37595  if (reason.length == 0) {... */\n    tag_264:\n        /* \"erc721Flat.sol\":37239:37610  catch (bytes memory reason) {... */\n      pop\n        /* \"erc721Flat.sol\":36972:37610  try IERC721Receiver(to).onERC721Received(_msgSender(), from, tokenId, data) returns (bytes4 retval) {... */\n      jump(tag_267)\n    tag_258:\n        /* \"erc721Flat.sol\":37105:37146  IERC721Receiver.onERC721Received.selector */\n      shl(0xe0, 0x150b7a02)\n        /* \"erc721Flat.sol\":37095:37146  retval != IERC721Receiver.onERC721Received.selector */\n      not(0xffffffffffffffffffffffffffffffffffffffffffffffffffffffff)\n      and\n        /* \"erc721Flat.sol\":37095:37101  retval */\n      dup2\n        /* \"erc721Flat.sol\":37095:37146  retval != IERC721Receiver.onERC721Received.selector */\n      not(0xffffffffffffffffffffffffffffffffffffffffffffffffffffffff)\n      and\n      eq\n        /* \"erc721Flat.sol\":37091:37223  if (retval != IERC721Receiver.onERC721Received.selector) {... */\n      tag_268\n      jumpi\n        /* \"erc721Flat.sol\":37200:37202  to */\n      dup4\n        /* \"erc721Flat.sol\":37178:37203  ERC721InvalidReceiver(to) */\n      mload(0x40)\n      0x64a0ae9200000000000000000000000000000000000000000000000000000000\n      dup2\n      mstore\n      0x04\n      add\n      tag_269\n      swap2\n      swap1\n      tag_39\n      jump\t// in\n    tag_269:\n      mload(0x40)\n      dup1\n      swap2\n      sub\n      swap1\n      revert\n        /* \"erc721Flat.sol\":37091:37223  if (retval != IERC721Receiver.onERC721Received.selector) {... */\n    tag_268:\n        /* \"erc721Flat.sol\":37048:37238  returns (bytes4 retval) {... */\n      pop\n        /* \"erc721Flat.sol\":36972:37610  try IERC721Receiver(to).onERC721Received(_msgSender(), from, tokenId, data) returns (bytes4 retval) {... */\n    tag_267:\n        /* \"erc721Flat.sol\":36933:37621  if (to.code.length > 0) {... */\n    tag_251:\n        /* \"erc721Flat.sol\":36820:37628  function _checkOnERC721Received(address from, address to, uint256 tokenId, bytes memory data) private {... */\n      pop\n      pop\n      pop\n      pop\n      jump\t// out\n        /* \"erc721Flat.sol\":39588:40197  function tokenURI(uint256 tokenId) public view virtual override returns (string memory) {... */\n    tag_176:\n        /* \"erc721Flat.sol\":39661:39674  string memory */\n      0x60\n        /* \"erc721Flat.sol\":39687:39709  _requireOwned(tokenId) */\n      tag_271\n        /* \"erc721Flat.sol\":39701:39708  tokenId */\n      dup3\n        /* \"erc721Flat.sol\":39687:39700  _requireOwned */\n      tag_107\n        /* \"erc721Flat.sol\":39687:39709  _requireOwned(tokenId) */\n      jump\t// in\n    tag_271:\n      pop\n        /* \"erc721Flat.sol\":39722:39745  string memory _tokenURI */\n      0x00\n        /* \"erc721Flat.sol\":39748:39758  _tokenURIs */\n      0x06\n        /* \"erc721Flat.sol\":39748:39767  _tokenURIs[tokenId] */\n      0x00\n        /* \"erc721Flat.sol\":39759:39766  tokenId */\n      dup5\n        /* \"erc721Flat.sol\":39748:39767  _tokenURIs[tokenId] */\n      dup2\n      mstore\n      0x20\n      add\n      swap1\n      dup2\n      mstore\n      0x20\n      add\n      0x00\n      keccak256\n        /* \"erc721Flat.sol\":39722:39767  string memory _tokenURI = _tokenURIs[tokenId] */\n      dup1\n      sload\n      tag_272\n      swap1\n      tag_100\n      jump\t// in\n    tag_272:\n      dup1\n      0x1f\n      add\n      0x20\n      dup1\n      swap2\n      div\n      mul\n      0x20\n      add\n      mload(0x40)\n      swap1\n      dup2\n      add\n      0x40\n      mstore\n      dup1\n      swap3\n      swap2\n      swap1\n      dup2\n      dup2\n      mstore\n      0x20\n      add\n      dup3\n      dup1\n      sload\n      tag_273\n      swap1\n      tag_100\n      jump\t// in\n    tag_273:\n      dup1\n      iszero\n      tag_274\n      jumpi\n      dup1\n      0x1f\n      lt\n      tag_275\n      jumpi\n      0x0100\n      dup1\n      dup4\n      sload\n      div\n      mul\n      dup4\n      mstore\n      swap2\n      0x20\n      add\n      swap2\n      jump(tag_274)\n    tag_275:\n      dup3\n      add\n      swap2\n      swap1\n      0x00\n      mstore\n      keccak256(0x00, 0x20)\n      swap1\n    tag_276:\n      dup2\n      sload\n      dup2\n      mstore\n      swap1\n      0x01\n      add\n      swap1\n      0x20\n      add\n      dup1\n      dup4\n      gt\n      tag_276\n      jumpi\n      dup3\n      swap1\n      sub\n      0x1f\n      and\n      dup3\n      add\n      swap2\n    tag_274:\n      pop\n      pop\n      pop\n      pop\n      pop\n      swap1\n      pop\n        /* \"erc721Flat.sol\":39778:39796  string memory base */\n      0x00\n        /* \"erc721Flat.sol\":39799:39809  _baseURI() */\n      tag_277\n        /* \"erc721Flat.sol\":39799:39807  _baseURI */\n      tag_278\n        /* \"erc721Flat.sol\":39799:39809  _baseURI() */\n      jump\t// in\n    tag_277:\n        /* \"erc721Flat.sol\":39778:39809  string memory base = _baseURI() */\n      swap1\n      pop\n        /* \"erc721Flat.sol\":39907:39908  0 */\n      0x00\n        /* \"erc721Flat.sol\":39891:39895  base */\n      dup2\n        /* \"erc721Flat.sol\":39885:39903  bytes(base).length */\n      mload\n        /* \"erc721Flat.sol\":39885:39908  bytes(base).length == 0 */\n      sub\n        /* \"erc721Flat.sol\":39881:39953  if (bytes(base).length == 0) {... */\n      tag_279\n      jumpi\n        /* \"erc721Flat.sol\":39932:39941  _tokenURI */\n      dup2\n        /* \"erc721Flat.sol\":39925:39941  return _tokenURI */\n      swap3\n      pop\n      pop\n      pop\n      jump(tag_270)\n        /* \"erc721Flat.sol\":39881:39953  if (bytes(base).length == 0) {... */\n    tag_279:\n        /* \"erc721Flat.sol\":40080:40081  0 */\n      0x00\n        /* \"erc721Flat.sol\":40060:40069  _tokenURI */\n      dup3\n        /* \"erc721Flat.sol\":40054:40077  bytes(_tokenURI).length */\n      mload\n        /* \"erc721Flat.sol\":40054:40081  bytes(_tokenURI).length > 0 */\n      gt\n        /* \"erc721Flat.sol\":40050:40147  if (bytes(_tokenURI).length > 0) {... */\n      iszero\n      tag_280\n      jumpi\n        /* \"erc721Flat.sol\":40119:40123  base */\n      dup1\n        /* \"erc721Flat.sol\":40125:40134  _tokenURI */\n      dup3\n        /* \"erc721Flat.sol\":40105:40135  string.concat(base, _tokenURI) */\n      add(0x20, mload(0x40))\n      tag_281\n      swap3\n      swap2\n      swap1\n      tag_282\n      jump\t// in\n    tag_281:\n      mload(0x40)\n      0x20\n      dup2\n      dup4\n      sub\n      sub\n      dup2\n      mstore\n      swap1\n      0x40\n      mstore\n        /* \"erc721Flat.sol\":40098:40135  return string.concat(base, _tokenURI) */\n      swap3\n      pop\n      pop\n      pop\n      jump(tag_270)\n        /* \"erc721Flat.sol\":40050:40147  if (bytes(_tokenURI).length > 0) {... */\n    tag_280:\n        /* \"erc721Flat.sol\":40166:40189  super.tokenURI(tokenId) */\n      tag_283\n        /* \"erc721Flat.sol\":40181:40188  tokenId */\n      dup5\n        /* \"erc721Flat.sol\":40166:40180  super.tokenURI */\n      tag_284\n        /* \"erc721Flat.sol\":40166:40189  super.tokenURI(tokenId) */\n      jump\t// in\n    tag_283:\n        /* \"erc721Flat.sol\":40159:40189  return super.tokenURI(tokenId) */\n      swap3\n      pop\n      pop\n      pop\n        /* \"erc721Flat.sol\":39588:40197  function tokenURI(uint256 tokenId) public view virtual override returns (string memory) {... */\n    tag_270:\n      swap2\n      swap1\n      pop\n      jump\t// out\n        /* \"erc721Flat.sol\":25138:25443  function supportsInterface(bytes4 interfaceId) public view virtual override(ERC165, IERC165) returns (bool) {... */\n    tag_187:\n        /* \"erc721Flat.sol\":25240:25244  bool */\n      0x00\n        /* \"erc721Flat.sol\":25292:25317  type(IERC721).interfaceId */\n      0x80ac58cd00000000000000000000000000000000000000000000000000000000\n        /* \"erc721Flat.sol\":25277:25317  interfaceId == type(IERC721).interfaceId */\n      not(0xffffffffffffffffffffffffffffffffffffffffffffffffffffffff)\n      and\n        /* \"erc721Flat.sol\":25277:25288  interfaceId */\n      dup3\n        /* \"erc721Flat.sol\":25277:25317  interfaceId == type(IERC721).interfaceId */\n      not(0xffffffffffffffffffffffffffffffffffffffffffffffffffffffff)\n      and\n      eq\n        /* \"erc721Flat.sol\":25277:25382  interfaceId == type(IERC721).interfaceId ||... */\n      dup1\n      tag_286\n      jumpi\n      pop\n        /* \"erc721Flat.sol\":25349:25382  type(IERC721Metadata).interfaceId */\n      0x5b5e139f00000000000000000000000000000000000000000000000000000000\n        /* \"erc721Flat.sol\":25334:25382  interfaceId == type(IERC721Metadata).interfaceId */\n      not(0xffffffffffffffffffffffffffffffffffffffffffffffffffffffff)\n      and\n        /* \"erc721Flat.sol\":25334:25345  interfaceId */\n      dup3\n        /* \"erc721Flat.sol\":25334:25382  interfaceId == type(IERC721Metadata).interfaceId */\n      not(0xffffffffffffffffffffffffffffffffffffffffffffffffffffffff)\n      and\n      eq\n        /* \"erc721Flat.sol\":25277:25382  interfaceId == type(IERC721).interfaceId ||... */\n    tag_286:\n        /* \"erc721Flat.sol\":25277:25435  interfaceId == type(IERC721).interfaceId ||... */\n      dup1\n      tag_287\n      jumpi\n      pop\n        /* \"erc721Flat.sol\":25399:25435  super.supportsInterface(interfaceId) */\n      tag_288\n        /* \"erc721Flat.sol\":25423:25434  interfaceId */\n      dup3\n        /* \"erc721Flat.sol\":25399:25422  super.supportsInterface */\n      tag_289\n        /* \"erc721Flat.sol\":25399:25435  super.supportsInterface(interfaceId) */\n      jump\t// in\n    tag_288:\n        /* \"erc721Flat.sol\":25277:25435  interfaceId == type(IERC721).interfaceId ||... */\n    tag_287:\n        /* \"erc721Flat.sol\":25257:25435  return... */\n      swap1\n      pop\n        /* \"erc721Flat.sol\":25138:25443  function supportsInterface(bytes4 interfaceId) public view virtual override(ERC165, IERC165) returns (bool) {... */\n      swap2\n      swap1\n      pop\n      jump\t// out\n        /* \"erc721Flat.sol\":29470:29587  function _ownerOf(uint256 tokenId) internal view virtual returns (address) {... */\n    tag_190:\n        /* \"erc721Flat.sol\":29536:29543  address */\n      0x00\n        /* \"erc721Flat.sol\":29563:29570  _owners */\n      0x02\n        /* \"erc721Flat.sol\":29563:29579  _owners[tokenId] */\n      0x00\n        /* \"erc721Flat.sol\":29571:29578  tokenId */\n      dup4\n        /* \"erc721Flat.sol\":29563:29579  _owners[tokenId] */\n      dup2\n      mstore\n      0x20\n      add\n      swap1\n      dup2\n      mstore\n      0x20\n      add\n      0x00\n      keccak256\n      0x00\n      swap1\n      sload\n      swap1\n      0x0100\n      exp\n      swap1\n      div\n      0xffffffffffffffffffffffffffffffffffffffff\n      and\n        /* \"erc721Flat.sol\":29556:29579  return _owners[tokenId] */\n      swap1\n      pop\n        /* \"erc721Flat.sol\":29470:29587  function _ownerOf(uint256 tokenId) internal view virtual returns (address) {... */\n      swap2\n      swap1\n      pop\n      jump\t// out\n        /* \"erc721Flat.sol\":34565:35243  function _approve(address to, uint256 tokenId, address auth, bool emitEvent) internal virtual {... */\n    tag_197:\n        /* \"erc721Flat.sol\":34727:34736  emitEvent */\n      dup1\n        /* \"erc721Flat.sol\":34727:34758  emitEvent || auth != address(0) */\n      dup1\n      tag_292\n      jumpi\n      pop\n        /* \"erc721Flat.sol\":34756:34757  0 */\n      0x00\n        /* \"erc721Flat.sol\":34740:34758  auth != address(0) */\n      0xffffffffffffffffffffffffffffffffffffffff\n      and\n        /* \"erc721Flat.sol\":34740:34744  auth */\n      dup3\n        /* \"erc721Flat.sol\":34740:34758  auth != address(0) */\n      0xffffffffffffffffffffffffffffffffffffffff\n      and\n      eq\n      iszero\n        /* \"erc721Flat.sol\":34727:34758  emitEvent || auth != address(0) */\n    tag_292:\n        /* \"erc721Flat.sol\":34723:35194  if (emitEvent || auth != address(0)) {... */\n      iszero\n      tag_293\n      jumpi\n        /* \"erc721Flat.sol\":34775:34788  address owner */\n      0x00\n        /* \"erc721Flat.sol\":34791:34813  _requireOwned(tokenId) */\n      tag_294\n        /* \"erc721Flat.sol\":34805:34812  tokenId */\n      dup5\n        /* \"erc721Flat.sol\":34791:34804  _requireOwned */\n      tag_107\n        /* \"erc721Flat.sol\":34791:34813  _requireOwned(tokenId) */\n      jump\t// in\n    tag_294:\n        /* \"erc721Flat.sol\":34775:34813  address owner = _requireOwned(tokenId) */\n      swap1\n      pop\n        /* \"erc721Flat.sol\":34960:34961  0 */\n      0x00\n        /* \"erc721Flat.sol\":34944:34962  auth != address(0) */\n      0xffffffffffffffffffffffffffffffffffffffff\n      and\n        /* \"erc721Flat.sol\":34944:34948  auth */\n      dup4\n        /* \"erc721Flat.sol\":34944:34962  auth != address(0) */\n      0xffffffffffffffffffffffffffffffffffffffff\n      and\n      eq\n      iszero\n        /* \"erc721Flat.sol\":34944:34979  auth != address(0) && owner != auth */\n      dup1\n      iszero\n      tag_295\n      jumpi\n      pop\n        /* \"erc721Flat.sol\":34975:34979  auth */\n      dup3\n        /* \"erc721Flat.sol\":34966:34979  owner != auth */\n      0xffffffffffffffffffffffffffffffffffffffff\n      and\n        /* \"erc721Flat.sol\":34966:34971  owner */\n      dup2\n        /* \"erc721Flat.sol\":34966:34979  owner != auth */\n      0xffffffffffffffffffffffffffffffffffffffff\n      and\n      eq\n      iszero\n        /* \"erc721Flat.sol\":34944:34979  auth != address(0) && owner != auth */\n    tag_295:\n        /* \"erc721Flat.sol\":34944:35013  auth != address(0) && owner != auth && !isApprovedForAll(owner, auth) */\n      dup1\n      iszero\n      tag_296\n      jumpi\n      pop\n        /* \"erc721Flat.sol\":34984:35013  isApprovedForAll(owner, auth) */\n      tag_297\n        /* \"erc721Flat.sol\":35001:35006  owner */\n      dup2\n        /* \"erc721Flat.sol\":35008:35012  auth */\n      dup5\n        /* \"erc721Flat.sol\":34984:35000  isApprovedForAll */\n      tag_90\n        /* \"erc721Flat.sol\":34984:35013  isApprovedForAll(owner, auth) */\n      jump\t// in\n    tag_297:\n        /* \"erc721Flat.sol\":34983:35013  !isApprovedForAll(owner, auth) */\n      iszero\n        /* \"erc721Flat.sol\":34944:35013  auth != address(0) && owner != auth && !isApprovedForAll(owner, auth) */\n    tag_296:\n        /* \"erc721Flat.sol\":34940:35084  if (auth != address(0) && owner != auth && !isApprovedForAll(owner, auth)) {... */\n      iszero\n      tag_298\n      jumpi\n        /* \"erc721Flat.sol\":35063:35067  auth */\n      dup3\n        /* \"erc721Flat.sol\":35041:35068  ERC721InvalidApprover(auth) */\n      mload(0x40)\n      0xa9fbf51f00000000000000000000000000000000000000000000000000000000\n      dup2\n      mstore\n      0x04\n      add\n      tag_299\n      swap2\n      swap1\n      tag_39\n      jump\t// in\n    tag_299:\n      mload(0x40)\n      dup1\n      swap2\n      sub\n      swap1\n      revert\n        /* \"erc721Flat.sol\":34940:35084  if (auth != address(0) && owner != auth && !isApprovedForAll(owner, auth)) {... */\n    tag_298:\n        /* \"erc721Flat.sol\":35104:35113  emitEvent */\n      dup2\n        /* \"erc721Flat.sol\":35100:35183  if (emitEvent) {... */\n      iszero\n      tag_300\n      jumpi\n        /* \"erc721Flat.sol\":35159:35166  tokenId */\n      dup4\n        /* \"erc721Flat.sol\":35155:35157  to */\n      dup6\n        /* \"erc721Flat.sol\":35139:35167  Approval(owner, to, tokenId) */\n      0xffffffffffffffffffffffffffffffffffffffff\n      and\n        /* \"erc721Flat.sol\":35148:35153  owner */\n      dup3\n        /* \"erc721Flat.sol\":35139:35167  Approval(owner, to, tokenId) */\n      0xffffffffffffffffffffffffffffffffffffffff\n      and\n      0x8c5be1e5ebec7d5bd14f71427d1e84f3dd0314c0f7b2291e5b200ac8c7c3b925\n      mload(0x40)\n      mload(0x40)\n      dup1\n      swap2\n      sub\n      swap1\n      log4\n        /* \"erc721Flat.sol\":35100:35183  if (emitEvent) {... */\n    tag_300:\n        /* \"erc721Flat.sol\":34760:35194  {... */\n      pop\n        /* \"erc721Flat.sol\":34723:35194  if (emitEvent || auth != address(0)) {... */\n    tag_293:\n        /* \"erc721Flat.sol\":35233:35235  to */\n      dup4\n        /* \"erc721Flat.sol\":35206:35221  _tokenApprovals */\n      0x04\n        /* \"erc721Flat.sol\":35206:35230  _tokenApprovals[tokenId] */\n      0x00\n        /* \"erc721Flat.sol\":35222:35229  tokenId */\n      dup6\n        /* \"erc721Flat.sol\":35206:35230  _tokenApprovals[tokenId] */\n      dup2\n      mstore\n      0x20\n      add\n      swap1\n      dup2\n      mstore\n      0x20\n      add\n      0x00\n      keccak256\n      0x00\n        /* \"erc721Flat.sol\":35206:35235  _tokenApprovals[tokenId] = to */\n      0x0100\n      exp\n      dup2\n      sload\n      dup2\n      0xffffffffffffffffffffffffffffffffffffffff\n      mul\n      not\n      and\n      swap1\n      dup4\n      0xffffffffffffffffffffffffffffffffffffffff\n      and\n      mul\n      or\n      swap1\n      sstore\n      pop\n        /* \"erc721Flat.sol\":34565:35243  function _approve(address to, uint256 tokenId, address auth, bool emitEvent) internal virtual {... */\n      pop\n      pop\n      pop\n      pop\n      jump\t// out\n        /* \"erc721Flat.sol\":30877:31253  function _checkAuthorized(address owner, address spender, uint256 tokenId) internal view virtual {... */\n    tag_202:\n        /* \"erc721Flat.sol\":30990:31028  _isAuthorized(owner, spender, tokenId) */\n      tag_302\n        /* \"erc721Flat.sol\":31004:31009  owner */\n      dup4\n        /* \"erc721Flat.sol\":31011:31018  spender */\n      dup4\n        /* \"erc721Flat.sol\":31020:31027  tokenId */\n      dup4\n        /* \"erc721Flat.sol\":30990:31003  _isAuthorized */\n      tag_303\n        /* \"erc721Flat.sol\":30990:31028  _isAuthorized(owner, spender, tokenId) */\n      jump\t// in\n    tag_302:\n        /* \"erc721Flat.sol\":30985:31246  if (!_isAuthorized(owner, spender, tokenId)) {... */\n      tag_304\n      jumpi\n        /* \"erc721Flat.sol\":31066:31067  0 */\n      0x00\n        /* \"erc721Flat.sol\":31049:31068  owner == address(0) */\n      0xffffffffffffffffffffffffffffffffffffffff\n      and\n        /* \"erc721Flat.sol\":31049:31054  owner */\n      dup4\n        /* \"erc721Flat.sol\":31049:31068  owner == address(0) */\n      0xffffffffffffffffffffffffffffffffffffffff\n      and\n      sub\n        /* \"erc721Flat.sol\":31045:31235  if (owner == address(0)) {... */\n      tag_305\n      jumpi\n        /* \"erc721Flat.sol\":31119:31126  tokenId */\n      dup1\n        /* \"erc721Flat.sol\":31096:31127  ERC721NonexistentToken(tokenId) */\n      mload(0x40)\n      0x7e27328900000000000000000000000000000000000000000000000000000000\n      dup2\n      mstore\n      0x04\n      add\n      tag_306\n      swap2\n      swap1\n      tag_66\n      jump\t// in\n    tag_306:\n      mload(0x40)\n      dup1\n      swap2\n      sub\n      swap1\n      revert\n        /* \"erc721Flat.sol\":31045:31235  if (owner == address(0)) {... */\n    tag_305:\n        /* \"erc721Flat.sol\":31202:31209  spender */\n      dup2\n        /* \"erc721Flat.sol\":31211:31218  tokenId */\n      dup2\n        /* \"erc721Flat.sol\":31175:31219  ERC721InsufficientApproval(spender, tokenId) */\n      mload(0x40)\n      0x177e802f00000000000000000000000000000000000000000000000000000000\n      dup2\n      mstore\n      0x04\n      add\n      tag_308\n      swap3\n      swap2\n      swap1\n      tag_309\n      jump\t// in\n    tag_308:\n      mload(0x40)\n      dup1\n      swap2\n      sub\n      swap1\n      revert\n        /* \"erc721Flat.sol\":30985:31246  if (!_isAuthorized(owner, spender, tokenId)) {... */\n    tag_304:\n        /* \"erc721Flat.sol\":30877:31253  function _checkAuthorized(address owner, address spender, uint256 tokenId) internal view virtual {... */\n      pop\n      pop\n      pop\n      jump\t// out\n        /* \"erc721Flat.sol\":34050:34235  function _safeMint(address to, uint256 tokenId, bytes memory data) internal virtual {... */\n    tag_244:\n        /* \"erc721Flat.sol\":34145:34163  _mint(to, tokenId) */\n      tag_311\n        /* \"erc721Flat.sol\":34151:34153  to */\n      dup4\n        /* \"erc721Flat.sol\":34155:34162  tokenId */\n      dup4\n        /* \"erc721Flat.sol\":34145:34150  _mint */\n      tag_312\n        /* \"erc721Flat.sol\":34145:34163  _mint(to, tokenId) */\n      jump\t// in\n    tag_311:\n        /* \"erc721Flat.sol\":34174:34227  _checkOnERC721Received(address(0), to, tokenId, data) */\n      tag_313\n        /* \"erc721Flat.sol\":34205:34206  0 */\n      0x00\n        /* \"erc721Flat.sol\":34209:34211  to */\n      dup5\n        /* \"erc721Flat.sol\":34213:34220  tokenId */\n      dup5\n        /* \"erc721Flat.sol\":34222:34226  data */\n      dup5\n        /* \"erc721Flat.sol\":34174:34196  _checkOnERC721Received */\n      tag_173\n        /* \"erc721Flat.sol\":34174:34227  _checkOnERC721Received(address(0), to, tokenId, data) */\n      jump\t// in\n    tag_313:\n        /* \"erc721Flat.sol\":34050:34235  function _safeMint(address to, uint256 tokenId, bytes memory data) internal virtual {... */\n      pop\n      pop\n      pop\n      jump\t// out\n        /* \"erc721Flat.sol\":26812:26952  function _baseURI() internal pure returns (string memory) {... */\n    tag_278:\n        /* \"erc721Flat.sol\":26855:26868  string memory */\n      0x60\n        /* \"erc721Flat.sol\":26881:26944  return \"ipfs://Qmac89sZTSGvKkyYa2vrxdRakPREaGFJSNJRRWetzTLQTM/\" */\n      mload(0x40)\n      dup1\n      0x60\n      add\n      0x40\n      mstore\n      dup1\n      0x36\n      dup2\n      mstore\n      0x20\n      add\n      data_1250311f865916c0c48ec18be7711c5b67f23674d6e827435103b8b03cf0ba32\n      0x36\n      swap2\n      codecopy\n      swap1\n      pop\n        /* \"erc721Flat.sol\":26812:26952  function _baseURI() internal pure returns (string memory) {... */\n      swap1\n      jump\t// out\n        /* \"erc721Flat.sol\":26303:26563  function tokenURI(uint256 tokenId) public view virtual returns (string memory) {... */\n    tag_284:\n        /* \"erc721Flat.sol\":26367:26380  string memory */\n      0x60\n        /* \"erc721Flat.sol\":26393:26415  _requireOwned(tokenId) */\n      tag_316\n        /* \"erc721Flat.sol\":26407:26414  tokenId */\n      dup3\n        /* \"erc721Flat.sol\":26393:26406  _requireOwned */\n      tag_107\n        /* \"erc721Flat.sol\":26393:26415  _requireOwned(tokenId) */\n      jump\t// in\n    tag_316:\n      pop\n        /* \"erc721Flat.sol\":26428:26449  string memory baseURI */\n      0x00\n        /* \"erc721Flat.sol\":26452:26462  _baseURI() */\n      tag_317\n        /* \"erc721Flat.sol\":26452:26460  _baseURI */\n      tag_278\n        /* \"erc721Flat.sol\":26452:26462  _baseURI() */\n      jump\t// in\n    tag_317:\n        /* \"erc721Flat.sol\":26428:26462  string memory baseURI = _baseURI() */\n      swap1\n      pop\n        /* \"erc721Flat.sol\":26504:26505  0 */\n      0x00\n        /* \"erc721Flat.sol\":26486:26493  baseURI */\n      dup2\n        /* \"erc721Flat.sol\":26480:26501  bytes(baseURI).length */\n      mload\n        /* \"erc721Flat.sol\":26480:26505  bytes(baseURI).length > 0 */\n      gt\n        /* \"erc721Flat.sol\":26480:26555  bytes(baseURI).length > 0 ? string.concat(baseURI, tokenId.toString()) : \"\" */\n      tag_318\n      jumpi\n      mload(0x40)\n      dup1\n      0x20\n      add\n      0x40\n      mstore\n      dup1\n      0x00\n      dup2\n      mstore\n      pop\n      jump(tag_319)\n    tag_318:\n        /* \"erc721Flat.sol\":26522:26529  baseURI */\n      dup1\n        /* \"erc721Flat.sol\":26531:26549  tokenId.toString() */\n      tag_320\n        /* \"erc721Flat.sol\":26531:26538  tokenId */\n      dup5\n        /* \"erc721Flat.sol\":26531:26547  tokenId.toString */\n      tag_137\n        /* \"erc721Flat.sol\":26531:26549  tokenId.toString() */\n      jump\t// in\n    tag_320:\n        /* \"erc721Flat.sol\":26508:26550  string.concat(baseURI, tokenId.toString()) */\n      add(0x20, mload(0x40))\n      tag_321\n      swap3\n      swap2\n      swap1\n      tag_282\n      jump\t// in\n    tag_321:\n      mload(0x40)\n      0x20\n      dup2\n      dup4\n      sub\n      sub\n      dup2\n      mstore\n      swap1\n      0x40\n      mstore\n        /* \"erc721Flat.sol\":26480:26555  bytes(baseURI).length > 0 ? string.concat(baseURI, tokenId.toString()) : \"\" */\n    tag_319:\n        /* \"erc721Flat.sol\":26473:26555  return bytes(baseURI).length > 0 ? string.concat(baseURI, tokenId.toString()) : \"\" */\n      swap2\n      pop\n      pop\n        /* \"erc721Flat.sol\":26303:26563  function tokenURI(uint256 tokenId) public view virtual returns (string memory) {... */\n      swap2\n      swap1\n      pop\n      jump\t// out\n        /* \"erc721Flat.sol\":16903:17051  function supportsInterface(bytes4 interfaceId) public view virtual returns (bool) {... */\n    tag_289:\n        /* \"erc721Flat.sol\":16979:16983  bool */\n      0x00\n        /* \"erc721Flat.sol\":17018:17043  type(IERC165).interfaceId */\n      0x01ffc9a700000000000000000000000000000000000000000000000000000000\n        /* \"erc721Flat.sol\":17003:17043  interfaceId == type(IERC165).interfaceId */\n      not(0xffffffffffffffffffffffffffffffffffffffffffffffffffffffff)\n      and\n        /* \"erc721Flat.sol\":17003:17014  interfaceId */\n      dup3\n        /* \"erc721Flat.sol\":17003:17043  interfaceId == type(IERC165).interfaceId */\n      not(0xffffffffffffffffffffffffffffffffffffffffffffffffffffffff)\n      and\n      eq\n        /* \"erc721Flat.sol\":16996:17043  return interfaceId == type(IERC165).interfaceId */\n      swap1\n      pop\n        /* \"erc721Flat.sol\":16903:17051  function supportsInterface(bytes4 interfaceId) public view virtual returns (bool) {... */\n      swap2\n      swap1\n      pop\n      jump\t// out\n        /* \"erc721Flat.sol\":30157:30433  function _isAuthorized(address owner, address spender, uint256 tokenId) internal view virtual returns (bool) {... */\n    tag_303:\n        /* \"erc721Flat.sol\":30260:30264  bool */\n      0x00\n        /* \"erc721Flat.sol\":30316:30317  0 */\n      dup1\n        /* \"erc721Flat.sol\":30297:30318  spender != address(0) */\n      0xffffffffffffffffffffffffffffffffffffffff\n      and\n        /* \"erc721Flat.sol\":30297:30304  spender */\n      dup4\n        /* \"erc721Flat.sol\":30297:30318  spender != address(0) */\n      0xffffffffffffffffffffffffffffffffffffffff\n      and\n      eq\n      iszero\n        /* \"erc721Flat.sol\":30297:30425  spender != address(0) &&... */\n      dup1\n      iszero\n      tag_324\n      jumpi\n      pop\n        /* \"erc721Flat.sol\":30345:30352  spender */\n      dup3\n        /* \"erc721Flat.sol\":30336:30352  owner == spender */\n      0xffffffffffffffffffffffffffffffffffffffff\n      and\n        /* \"erc721Flat.sol\":30336:30341  owner */\n      dup5\n        /* \"erc721Flat.sol\":30336:30352  owner == spender */\n      0xffffffffffffffffffffffffffffffffffffffff\n      and\n      eq\n        /* \"erc721Flat.sol\":30336:30388  owner == spender || isApprovedForAll(owner, spender) */\n      dup1\n      tag_325\n      jumpi\n      pop\n        /* \"erc721Flat.sol\":30356:30388  isApprovedForAll(owner, spender) */\n      tag_326\n        /* \"erc721Flat.sol\":30373:30378  owner */\n      dup5\n        /* \"erc721Flat.sol\":30380:30387  spender */\n      dup5\n        /* \"erc721Flat.sol\":30356:30372  isApprovedForAll */\n      tag_90\n        /* \"erc721Flat.sol\":30356:30388  isApprovedForAll(owner, spender) */\n      jump\t// in\n    tag_326:\n        /* \"erc721Flat.sol\":30336:30388  owner == spender || isApprovedForAll(owner, spender) */\n    tag_325:\n        /* \"erc721Flat.sol\":30336:30424  owner == spender || isApprovedForAll(owner, spender) || _getApproved(tokenId) == spender */\n      dup1\n      tag_327\n      jumpi\n      pop\n        /* \"erc721Flat.sol\":30417:30424  spender */\n      dup3\n        /* \"erc721Flat.sol\":30392:30424  _getApproved(tokenId) == spender */\n      0xffffffffffffffffffffffffffffffffffffffff\n      and\n        /* \"erc721Flat.sol\":30392:30413  _getApproved(tokenId) */\n      tag_328\n        /* \"erc721Flat.sol\":30405:30412  tokenId */\n      dup4\n        /* \"erc721Flat.sol\":30392:30404  _getApproved */\n      tag_109\n        /* \"erc721Flat.sol\":30392:30413  _getApproved(tokenId) */\n      jump\t// in\n    tag_328:\n        /* \"erc721Flat.sol\":30392:30424  _getApproved(tokenId) == spender */\n      0xffffffffffffffffffffffffffffffffffffffff\n      and\n      eq\n        /* \"erc721Flat.sol\":30336:30424  owner == spender || isApprovedForAll(owner, spender) || _getApproved(tokenId) == spender */\n    tag_327:\n        /* \"erc721Flat.sol\":30297:30425  spender != address(0) &&... */\n    tag_324:\n        /* \"erc721Flat.sol\":30277:30425  return... */\n      swap1\n      pop\n        /* \"erc721Flat.sol\":30157:30433  function _isAuthorized(address owner, address spender, uint256 tokenId) internal view virtual returns (bool) {... */\n      swap4\n      swap3\n      pop\n      pop\n      pop\n      jump\t// out\n        /* \"erc721Flat.sol\":33023:33358  function _mint(address to, uint256 tokenId) internal {... */\n    tag_312:\n        /* \"erc721Flat.sol\":33105:33106  0 */\n      0x00\n        /* \"erc721Flat.sol\":33091:33107  to == address(0) */\n      0xffffffffffffffffffffffffffffffffffffffff\n      and\n        /* \"erc721Flat.sol\":33091:33093  to */\n      dup3\n        /* \"erc721Flat.sol\":33091:33107  to == address(0) */\n      0xffffffffffffffffffffffffffffffffffffffff\n      and\n      sub\n        /* \"erc721Flat.sol\":33087:33176  if (to == address(0)) {... */\n      tag_330\n      jumpi\n        /* \"erc721Flat.sol\":33161:33162  0 */\n      0x00\n        /* \"erc721Flat.sol\":33131:33164  ERC721InvalidReceiver(address(0)) */\n      mload(0x40)\n      0x64a0ae9200000000000000000000000000000000000000000000000000000000\n      dup2\n      mstore\n      0x04\n      add\n      tag_331\n      swap2\n      swap1\n      tag_39\n      jump\t// in\n    tag_331:\n      mload(0x40)\n      dup1\n      swap2\n      sub\n      swap1\n      revert\n        /* \"erc721Flat.sol\":33087:33176  if (to == address(0)) {... */\n    tag_330:\n        /* \"erc721Flat.sol\":33186:33207  address previousOwner */\n      0x00\n        /* \"erc721Flat.sol\":33210:33242  _update(to, tokenId, address(0)) */\n      tag_332\n        /* \"erc721Flat.sol\":33218:33220  to */\n      dup4\n        /* \"erc721Flat.sol\":33222:33229  tokenId */\n      dup4\n        /* \"erc721Flat.sol\":33239:33240  0 */\n      0x00\n        /* \"erc721Flat.sol\":33210:33217  _update */\n      tag_120\n        /* \"erc721Flat.sol\":33210:33242  _update(to, tokenId, address(0)) */\n      jump\t// in\n    tag_332:\n        /* \"erc721Flat.sol\":33186:33242  address previousOwner = _update(to, tokenId, address(0)) */\n      swap1\n      pop\n        /* \"erc721Flat.sol\":33282:33283  0 */\n      0x00\n        /* \"erc721Flat.sol\":33257:33284  previousOwner != address(0) */\n      0xffffffffffffffffffffffffffffffffffffffff\n      and\n        /* \"erc721Flat.sol\":33257:33270  previousOwner */\n      dup2\n        /* \"erc721Flat.sol\":33257:33284  previousOwner != address(0) */\n      0xffffffffffffffffffffffffffffffffffffffff\n      and\n      eq\n        /* \"erc721Flat.sol\":33253:33351  if (previousOwner != address(0)) {... */\n      tag_333\n      jumpi\n        /* \"erc721Flat.sol\":33336:33337  0 */\n      0x00\n        /* \"erc721Flat.sol\":33308:33339  ERC721InvalidSender(address(0)) */\n      mload(0x40)\n      0x73c6ac6e00000000000000000000000000000000000000000000000000000000\n      dup2\n      mstore\n      0x04\n      add\n      tag_334\n      swap2\n      swap1\n      tag_39\n      jump\t// in\n    tag_334:\n      mload(0x40)\n      dup1\n      swap2\n      sub\n      swap1\n      revert\n        /* \"erc721Flat.sol\":33253:33351  if (previousOwner != address(0)) {... */\n    tag_333:\n        /* \"erc721Flat.sol\":33076:33358  {... */\n      pop\n        /* \"erc721Flat.sol\":33023:33358  function _mint(address to, uint256 tokenId) internal {... */\n      pop\n      pop\n      jump\t// out\n        /* \"#utility.yul\":7:82   */\n    tag_335:\n        /* \"#utility.yul\":40:46   */\n      0x00\n        /* \"#utility.yul\":73:75   */\n      0x40\n        /* \"#utility.yul\":67:76   */\n      mload\n        /* \"#utility.yul\":57:76   */\n      swap1\n      pop\n        /* \"#utility.yul\":7:82   */\n      swap1\n      jump\t// out\n        /* \"#utility.yul\":88:205   */\n    tag_336:\n        /* \"#utility.yul\":197:198   */\n      0x00\n        /* \"#utility.yul\":194:195   */\n      dup1\n        /* \"#utility.yul\":187:199   */\n      revert\n        /* \"#utility.yul\":211:328   */\n    tag_337:\n        /* \"#utility.yul\":320:321   */\n      0x00\n        /* \"#utility.yul\":317:318   */\n      dup1\n        /* \"#utility.yul\":310:322   */\n      revert\n        /* \"#utility.yul\":334:483   */\n    tag_338:\n        /* \"#utility.yul\":370:377   */\n      0x00\n        /* \"#utility.yul\":410:476   */\n      0xffffffff00000000000000000000000000000000000000000000000000000000\n        /* \"#utility.yul\":403:408   */\n      dup3\n        /* \"#utility.yul\":399:477   */\n      and\n        /* \"#utility.yul\":388:477   */\n      swap1\n      pop\n        /* \"#utility.yul\":334:483   */\n      swap2\n      swap1\n      pop\n      jump\t// out\n        /* \"#utility.yul\":489:609   */\n    tag_339:\n        /* \"#utility.yul\":561:584   */\n      tag_400\n        /* \"#utility.yul\":578:583   */\n      dup2\n        /* \"#utility.yul\":561:584   */\n      tag_338\n      jump\t// in\n    tag_400:\n        /* \"#utility.yul\":554:559   */\n      dup2\n        /* \"#utility.yul\":551:585   */\n      eq\n        /* \"#utility.yul\":541:603   */\n      tag_401\n      jumpi\n        /* \"#utility.yul\":599:600   */\n      0x00\n        /* \"#utility.yul\":596:597   */\n      dup1\n        /* \"#utility.yul\":589:601   */\n      revert\n        /* \"#utility.yul\":541:603   */\n    tag_401:\n        /* \"#utility.yul\":489:609   */\n      pop\n      jump\t// out\n        /* \"#utility.yul\":615:752   */\n    tag_340:\n        /* \"#utility.yul\":660:665   */\n      0x00\n        /* \"#utility.yul\":698:704   */\n      dup2\n        /* \"#utility.yul\":685:705   */\n      calldataload\n        /* \"#utility.yul\":676:705   */\n      swap1\n      pop\n        /* \"#utility.yul\":714:746   */\n      tag_403\n        /* \"#utility.yul\":740:745   */\n      dup2\n        /* \"#utility.yul\":714:746   */\n      tag_339\n      jump\t// in\n    tag_403:\n        /* \"#utility.yul\":615:752   */\n      swap3\n      swap2\n      pop\n      pop\n      jump\t// out\n        /* \"#utility.yul\":758:1085   */\n    tag_26:\n        /* \"#utility.yul\":816:822   */\n      0x00\n        /* \"#utility.yul\":865:867   */\n      0x20\n        /* \"#utility.yul\":853:862   */\n      dup3\n        /* \"#utility.yul\":844:851   */\n      dup5\n        /* \"#utility.yul\":840:863   */\n      sub\n        /* \"#utility.yul\":836:868   */\n      slt\n        /* \"#utility.yul\":833:952   */\n      iszero\n      tag_405\n      jumpi\n        /* \"#utility.yul\":871:950   */\n      tag_406\n      tag_336\n      jump\t// in\n    tag_406:\n        /* \"#utility.yul\":833:952   */\n    tag_405:\n        /* \"#utility.yul\":991:992   */\n      0x00\n        /* \"#utility.yul\":1016:1068   */\n      tag_407\n        /* \"#utility.yul\":1060:1067   */\n      dup5\n        /* \"#utility.yul\":1051:1057   */\n      dup3\n        /* \"#utility.yul\":1040:1049   */\n      dup6\n        /* \"#utility.yul\":1036:1058   */\n      add\n        /* \"#utility.yul\":1016:1068   */\n      tag_340\n      jump\t// in\n    tag_407:\n        /* \"#utility.yul\":1006:1068   */\n      swap2\n      pop\n        /* \"#utility.yul\":962:1078   */\n      pop\n        /* \"#utility.yul\":758:1085   */\n      swap3\n      swap2\n      pop\n      pop\n      jump\t// out\n        /* \"#utility.yul\":1091:1181   */\n    tag_341:\n        /* \"#utility.yul\":1125:1132   */\n      0x00\n        /* \"#utility.yul\":1168:1173   */\n      dup2\n        /* \"#utility.yul\":1161:1174   */\n      iszero\n        /* \"#utility.yul\":1154:1175   */\n      iszero\n        /* \"#utility.yul\":1143:1175   */\n      swap1\n      pop\n        /* \"#utility.yul\":1091:1181   */\n      swap2\n      swap1\n      pop\n      jump\t// out\n        /* \"#utility.yul\":1187:1296   */\n    tag_342:\n        /* \"#utility.yul\":1268:1289   */\n      tag_410\n        /* \"#utility.yul\":1283:1288   */\n      dup2\n        /* \"#utility.yul\":1268:1289   */\n      tag_341\n      jump\t// in\n    tag_410:\n        /* \"#utility.yul\":1263:1266   */\n      dup3\n        /* \"#utility.yul\":1256:1290   */\n      mstore\n        /* \"#utility.yul\":1187:1296   */\n      pop\n      pop\n      jump\t// out\n        /* \"#utility.yul\":1302:1512   */\n    tag_29:\n        /* \"#utility.yul\":1389:1393   */\n      0x00\n        /* \"#utility.yul\":1427:1429   */\n      0x20\n        /* \"#utility.yul\":1416:1425   */\n      dup3\n        /* \"#utility.yul\":1412:1430   */\n      add\n        /* \"#utility.yul\":1404:1430   */\n      swap1\n      pop\n        /* \"#utility.yul\":1440:1505   */\n      tag_412\n        /* \"#utility.yul\":1502:1503   */\n      0x00\n        /* \"#utility.yul\":1491:1500   */\n      dup4\n        /* \"#utility.yul\":1487:1504   */\n      add\n        /* \"#utility.yul\":1478:1484   */\n      dup5\n        /* \"#utility.yul\":1440:1505   */\n      tag_342\n      jump\t// in\n    tag_412:\n        /* \"#utility.yul\":1302:1512   */\n      swap3\n      swap2\n      pop\n      pop\n      jump\t// out\n        /* \"#utility.yul\":1518:1617   */\n    tag_343:\n        /* \"#utility.yul\":1570:1576   */\n      0x00\n        /* \"#utility.yul\":1604:1609   */\n      dup2\n        /* \"#utility.yul\":1598:1610   */\n      mload\n        /* \"#utility.yul\":1588:1610   */\n      swap1\n      pop\n        /* \"#utility.yul\":1518:1617   */\n      swap2\n      swap1\n      pop\n      jump\t// out\n        /* \"#utility.yul\":1623:1792   */\n    tag_344:\n        /* \"#utility.yul\":1707:1718   */\n      0x00\n        /* \"#utility.yul\":1741:1747   */\n      dup3\n        /* \"#utility.yul\":1736:1739   */\n      dup3\n        /* \"#utility.yul\":1729:1748   */\n      mstore\n        /* \"#utility.yul\":1781:1785   */\n      0x20\n        /* \"#utility.yul\":1776:1779   */\n      dup3\n        /* \"#utility.yul\":1772:1786   */\n      add\n        /* \"#utility.yul\":1757:1786   */\n      swap1\n      pop\n        /* \"#utility.yul\":1623:1792   */\n      swap3\n      swap2\n      pop\n      pop\n      jump\t// out\n        /* \"#utility.yul\":1798:2044   */\n    tag_345:\n        /* \"#utility.yul\":1879:1880   */\n      0x00\n        /* \"#utility.yul\":1889:2002   */\n    tag_416:\n        /* \"#utility.yul\":1903:1909   */\n      dup4\n        /* \"#utility.yul\":1900:1901   */\n      dup2\n        /* \"#utility.yul\":1897:1910   */\n      lt\n        /* \"#utility.yul\":1889:2002   */\n      iszero\n      tag_418\n      jumpi\n        /* \"#utility.yul\":1988:1989   */\n      dup1\n        /* \"#utility.yul\":1983:1986   */\n      dup3\n        /* \"#utility.yul\":1979:1990   */\n      add\n        /* \"#utility.yul\":1973:1991   */\n      mload\n        /* \"#utility.yul\":1969:1970   */\n      dup2\n        /* \"#utility.yul\":1964:1967   */\n      dup5\n        /* \"#utility.yul\":1960:1971   */\n      add\n        /* \"#utility.yul\":1953:1992   */\n      mstore\n        /* \"#utility.yul\":1925:1927   */\n      0x20\n        /* \"#utility.yul\":1922:1923   */\n      dup2\n        /* \"#utility.yul\":1918:1928   */\n      add\n        /* \"#utility.yul\":1913:1928   */\n      swap1\n      pop\n        /* \"#utility.yul\":1889:2002   */\n      jump(tag_416)\n    tag_418:\n        /* \"#utility.yul\":2036:2037   */\n      0x00\n        /* \"#utility.yul\":2027:2033   */\n      dup5\n        /* \"#utility.yul\":2022:2025   */\n      dup5\n        /* \"#utility.yul\":2018:2034   */\n      add\n        /* \"#utility.yul\":2011:2038   */\n      mstore\n        /* \"#utility.yul\":1860:2044   */\n      pop\n        /* \"#utility.yul\":1798:2044   */\n      pop\n      pop\n      pop\n      jump\t// out\n        /* \"#utility.yul\":2050:2152   */\n    tag_346:\n        /* \"#utility.yul\":2091:2097   */\n      0x00\n        /* \"#utility.yul\":2142:2144   */\n      0x1f\n        /* \"#utility.yul\":2138:2145   */\n      not\n        /* \"#utility.yul\":2133:2135   */\n      0x1f\n        /* \"#utility.yul\":2126:2131   */\n      dup4\n        /* \"#utility.yul\":2122:2136   */\n      add\n        /* \"#utility.yul\":2118:2146   */\n      and\n        /* \"#utility.yul\":2108:2146   */\n      swap1\n      pop\n        /* \"#utility.yul\":2050:2152   */\n      swap2\n      swap1\n      pop\n      jump\t// out\n        /* \"#utility.yul\":2158:2535   */\n    tag_347:\n        /* \"#utility.yul\":2246:2249   */\n      0x00\n        /* \"#utility.yul\":2274:2313   */\n      tag_421\n        /* \"#utility.yul\":2307:2312   */\n      dup3\n        /* \"#utility.yul\":2274:2313   */\n      tag_343\n      jump\t// in\n    tag_421:\n        /* \"#utility.yul\":2329:2400   */\n      tag_422\n        /* \"#utility.yul\":2393:2399   */\n      dup2\n        /* \"#utility.yul\":2388:2391   */\n      dup6\n        /* \"#utility.yul\":2329:2400   */\n      tag_344\n      jump\t// in\n    tag_422:\n        /* \"#utility.yul\":2322:2400   */\n      swap4\n      pop\n        /* \"#utility.yul\":2409:2474   */\n      tag_423\n        /* \"#utility.yul\":2467:2473   */\n      dup2\n        /* \"#utility.yul\":2462:2465   */\n      dup6\n        /* \"#utility.yul\":2455:2459   */\n      0x20\n        /* \"#utility.yul\":2448:2453   */\n      dup7\n        /* \"#utility.yul\":2444:2460   */\n      add\n        /* \"#utility.yul\":2409:2474   */\n      tag_345\n      jump\t// in\n    tag_423:\n        /* \"#utility.yul\":2499:2528   */\n      tag_424\n        /* \"#utility.yul\":2521:2527   */\n      dup2\n        /* \"#utility.yul\":2499:2528   */\n      tag_346\n      jump\t// in\n    tag_424:\n        /* \"#utility.yul\":2494:2497   */\n      dup5\n        /* \"#utility.yul\":2490:2529   */\n      add\n        /* \"#utility.yul\":2483:2529   */\n      swap2\n      pop\n        /* \"#utility.yul\":2250:2535   */\n      pop\n        /* \"#utility.yul\":2158:2535   */\n      swap3\n      swap2\n      pop\n      pop\n      jump\t// out\n        /* \"#utility.yul\":2541:2854   */\n    tag_33:\n        /* \"#utility.yul\":2654:2658   */\n      0x00\n        /* \"#utility.yul\":2692:2694   */\n      0x20\n        /* \"#utility.yul\":2681:2690   */\n      dup3\n        /* \"#utility.yul\":2677:2695   */\n      add\n        /* \"#utility.yul\":2669:2695   */\n      swap1\n      pop\n        /* \"#utility.yul\":2741:2750   */\n      dup2\n        /* \"#utility.yul\":2735:2739   */\n      dup2\n        /* \"#utility.yul\":2731:2751   */\n      sub\n        /* \"#utility.yul\":2727:2728   */\n      0x00\n        /* \"#utility.yul\":2716:2725   */\n      dup4\n        /* \"#utility.yul\":2712:2729   */\n      add\n        /* \"#utility.yul\":2705:2752   */\n      mstore\n        /* \"#utility.yul\":2769:2847   */\n      tag_426\n        /* \"#utility.yul\":2842:2846   */\n      dup2\n        /* \"#utility.yul\":2833:2839   */\n      dup5\n        /* \"#utility.yul\":2769:2847   */\n      tag_347\n      jump\t// in\n    tag_426:\n        /* \"#utility.yul\":2761:2847   */\n      swap1\n      pop\n        /* \"#utility.yul\":2541:2854   */\n      swap3\n      swap2\n      pop\n      pop\n      jump\t// out\n        /* \"#utility.yul\":2860:2937   */\n    tag_348:\n        /* \"#utility.yul\":2897:2904   */\n      0x00\n        /* \"#utility.yul\":2926:2931   */\n      dup2\n        /* \"#utility.yul\":2915:2931   */\n      swap1\n      pop\n        /* \"#utility.yul\":2860:2937   */\n      swap2\n      swap1\n      pop\n      jump\t// out\n        /* \"#utility.yul\":2943:3065   */\n    tag_349:\n        /* \"#utility.yul\":3016:3040   */\n      tag_429\n        /* \"#utility.yul\":3034:3039   */\n      dup2\n        /* \"#utility.yul\":3016:3040   */\n      tag_348\n      jump\t// in\n    tag_429:\n        /* \"#utility.yul\":3009:3014   */\n      dup2\n        /* \"#utility.yul\":3006:3041   */\n      eq\n        /* \"#utility.yul\":2996:3059   */\n      tag_430\n      jumpi\n        /* \"#utility.yul\":3055:3056   */\n      0x00\n        /* \"#utility.yul\":3052:3053   */\n      dup1\n        /* \"#utility.yul\":3045:3057   */\n      revert\n        /* \"#utility.yul\":2996:3059   */\n    tag_430:\n        /* \"#utility.yul\":2943:3065   */\n      pop\n      jump\t// out\n        /* \"#utility.yul\":3071:3210   */\n    tag_350:\n        /* \"#utility.yul\":3117:3122   */\n      0x00\n        /* \"#utility.yul\":3155:3161   */\n      dup2\n        /* \"#utility.yul\":3142:3162   */\n      calldataload\n        /* \"#utility.yul\":3133:3162   */\n      swap1\n      pop\n        /* \"#utility.yul\":3171:3204   */\n      tag_432\n        /* \"#utility.yul\":3198:3203   */\n      dup2\n        /* \"#utility.yul\":3171:3204   */\n      tag_349\n      jump\t// in\n    tag_432:\n        /* \"#utility.yul\":3071:3210   */\n      swap3\n      swap2\n      pop\n      pop\n      jump\t// out\n        /* \"#utility.yul\":3216:3545   */\n    tag_36:\n        /* \"#utility.yul\":3275:3281   */\n      0x00\n        /* \"#utility.yul\":3324:3326   */\n      0x20\n        /* \"#utility.yul\":3312:3321   */\n      dup3\n        /* \"#utility.yul\":3303:3310   */\n      dup5\n        /* \"#utility.yul\":3299:3322   */\n      sub\n        /* \"#utility.yul\":3295:3327   */\n      slt\n        /* \"#utility.yul\":3292:3411   */\n      iszero\n      tag_434\n      jumpi\n        /* \"#utility.yul\":3330:3409   */\n      tag_435\n      tag_336\n      jump\t// in\n    tag_435:\n        /* \"#utility.yul\":3292:3411   */\n    tag_434:\n        /* \"#utility.yul\":3450:3451   */\n      0x00\n        /* \"#utility.yul\":3475:3528   */\n      tag_436\n        /* \"#utility.yul\":3520:3527   */\n      dup5\n        /* \"#utility.yul\":3511:3517   */\n      dup3\n        /* \"#utility.yul\":3500:3509   */\n      dup6\n        /* \"#utility.yul\":3496:3518   */\n      add\n        /* \"#utility.yul\":3475:3528   */\n      tag_350\n      jump\t// in\n    tag_436:\n        /* \"#utility.yul\":3465:3528   */\n      swap2\n      pop\n        /* \"#utility.yul\":3421:3538   */\n      pop\n        /* \"#utility.yul\":3216:3545   */\n      swap3\n      swap2\n      pop\n      pop\n      jump\t// out\n        /* \"#utility.yul\":3551:3677   */\n    tag_351:\n        /* \"#utility.yul\":3588:3595   */\n      0x00\n        /* \"#utility.yul\":3628:3670   */\n      0xffffffffffffffffffffffffffffffffffffffff\n        /* \"#utility.yul\":3621:3626   */\n      dup3\n        /* \"#utility.yul\":3617:3671   */\n      and\n        /* \"#utility.yul\":3606:3671   */\n      swap1\n      pop\n        /* \"#utility.yul\":3551:3677   */\n      swap2\n      swap1\n      pop\n      jump\t// out\n        /* \"#utility.yul\":3683:3779   */\n    tag_352:\n        /* \"#utility.yul\":3720:3727   */\n      0x00\n        /* \"#utility.yul\":3749:3773   */\n      tag_439\n        /* \"#utility.yul\":3767:3772   */\n      dup3\n        /* \"#utility.yul\":3749:3773   */\n      tag_351\n      jump\t// in\n    tag_439:\n        /* \"#utility.yul\":3738:3773   */\n      swap1\n      pop\n        /* \"#utility.yul\":3683:3779   */\n      swap2\n      swap1\n      pop\n      jump\t// out\n        /* \"#utility.yul\":3785:3903   */\n    tag_353:\n        /* \"#utility.yul\":3872:3896   */\n      tag_441\n        /* \"#utility.yul\":3890:3895   */\n      dup2\n        /* \"#utility.yul\":3872:3896   */\n      tag_352\n      jump\t// in\n    tag_441:\n        /* \"#utility.yul\":3867:3870   */\n      dup3\n        /* \"#utility.yul\":3860:3897   */\n      mstore\n        /* \"#utility.yul\":3785:3903   */\n      pop\n      pop\n      jump\t// out\n        /* \"#utility.yul\":3909:4131   */\n    tag_39:\n        /* \"#utility.yul\":4002:4006   */\n      0x00\n        /* \"#utility.yul\":4040:4042   */\n      0x20\n        /* \"#utility.yul\":4029:4038   */\n      dup3\n        /* \"#utility.yul\":4025:4043   */\n      add\n        /* \"#utility.yul\":4017:4043   */\n      swap1\n      pop\n        /* \"#utility.yul\":4053:4124   */\n      tag_443\n        /* \"#utility.yul\":4121:4122   */\n      0x00\n        /* \"#utility.yul\":4110:4119   */\n      dup4\n        /* \"#utility.yul\":4106:4123   */\n      add\n        /* \"#utility.yul\":4097:4103   */\n      dup5\n        /* \"#utility.yul\":4053:4124   */\n      tag_353\n      jump\t// in\n    tag_443:\n        /* \"#utility.yul\":3909:4131   */\n      swap3\n      swap2\n      pop\n      pop\n      jump\t// out\n        /* \"#utility.yul\":4137:4259   */\n    tag_354:\n        /* \"#utility.yul\":4210:4234   */\n      tag_445\n        /* \"#utility.yul\":4228:4233   */\n      dup2\n        /* \"#utility.yul\":4210:4234   */\n      tag_352\n      jump\t// in\n    tag_445:\n        /* \"#utility.yul\":4203:4208   */\n      dup2\n        /* \"#utility.yul\":4200:4235   */\n      eq\n        /* \"#utility.yul\":4190:4253   */\n      tag_446\n      jumpi\n        /* \"#utility.yul\":4249:4250   */\n      0x00\n        /* \"#utility.yul\":4246:4247   */\n      dup1\n        /* \"#utility.yul\":4239:4251   */\n      revert\n        /* \"#utility.yul\":4190:4253   */\n    tag_446:\n        /* \"#utility.yul\":4137:4259   */\n      pop\n      jump\t// out\n        /* \"#utility.yul\":4265:4404   */\n    tag_355:\n        /* \"#utility.yul\":4311:4316   */\n      0x00\n        /* \"#utility.yul\":4349:4355   */\n      dup2\n        /* \"#utility.yul\":4336:4356   */\n      calldataload\n        /* \"#utility.yul\":4327:4356   */\n      swap1\n      pop\n        /* \"#utility.yul\":4365:4398   */\n      tag_448\n        /* \"#utility.yul\":4392:4397   */\n      dup2\n        /* \"#utility.yul\":4365:4398   */\n      tag_354\n      jump\t// in\n    tag_448:\n        /* \"#utility.yul\":4265:4404   */\n      swap3\n      swap2\n      pop\n      pop\n      jump\t// out\n        /* \"#utility.yul\":4410:4884   */\n    tag_42:\n        /* \"#utility.yul\":4478:4484   */\n      0x00\n        /* \"#utility.yul\":4486:4492   */\n      dup1\n        /* \"#utility.yul\":4535:4537   */\n      0x40\n        /* \"#utility.yul\":4523:4532   */\n      dup4\n        /* \"#utility.yul\":4514:4521   */\n      dup6\n        /* \"#utility.yul\":4510:4533   */\n      sub\n        /* \"#utility.yul\":4506:4538   */\n      slt\n        /* \"#utility.yul\":4503:4622   */\n      iszero\n      tag_450\n      jumpi\n        /* \"#utility.yul\":4541:4620   */\n      tag_451\n      tag_336\n      jump\t// in\n    tag_451:\n        /* \"#utility.yul\":4503:4622   */\n    tag_450:\n        /* \"#utility.yul\":4661:4662   */\n      0x00\n        /* \"#utility.yul\":4686:4739   */\n      tag_452\n        /* \"#utility.yul\":4731:4738   */\n      dup6\n        /* \"#utility.yul\":4722:4728   */\n      dup3\n        /* \"#utility.yul\":4711:4720   */\n      dup7\n        /* \"#utility.yul\":4707:4729   */\n      add\n        /* \"#utility.yul\":4686:4739   */\n      tag_355\n      jump\t// in\n    tag_452:\n        /* \"#utility.yul\":4676:4739   */\n      swap3\n      pop\n        /* \"#utility.yul\":4632:4749   */\n      pop\n        /* \"#utility.yul\":4788:4790   */\n      0x20\n        /* \"#utility.yul\":4814:4867   */\n      tag_453\n        /* \"#utility.yul\":4859:4866   */\n      dup6\n        /* \"#utility.yul\":4850:4856   */\n      dup3\n        /* \"#utility.yul\":4839:4848   */\n      dup7\n        /* \"#utility.yul\":4835:4857   */\n      add\n        /* \"#utility.yul\":4814:4867   */\n      tag_350\n      jump\t// in\n    tag_453:\n        /* \"#utility.yul\":4804:4867   */\n      swap2\n      pop\n        /* \"#utility.yul\":4759:4877   */\n      pop\n        /* \"#utility.yul\":4410:4884   */\n      swap3\n      pop\n      swap3\n      swap1\n      pop\n      jump\t// out\n        /* \"#utility.yul\":4890:5509   */\n    tag_46:\n        /* \"#utility.yul\":4967:4973   */\n      0x00\n        /* \"#utility.yul\":4975:4981   */\n      dup1\n        /* \"#utility.yul\":4983:4989   */\n      0x00\n        /* \"#utility.yul\":5032:5034   */\n      0x60\n        /* \"#utility.yul\":5020:5029   */\n      dup5\n        /* \"#utility.yul\":5011:5018   */\n      dup7\n        /* \"#utility.yul\":5007:5030   */\n      sub\n        /* \"#utility.yul\":5003:5035   */\n      slt\n        /* \"#utility.yul\":5000:5119   */\n      iszero\n      tag_455\n      jumpi\n        /* \"#utility.yul\":5038:5117   */\n      tag_456\n      tag_336\n      jump\t// in\n    tag_456:\n        /* \"#utility.yul\":5000:5119   */\n    tag_455:\n        /* \"#utility.yul\":5158:5159   */\n      0x00\n        /* \"#utility.yul\":5183:5236   */\n      tag_457\n        /* \"#utility.yul\":5228:5235   */\n      dup7\n        /* \"#utility.yul\":5219:5225   */\n      dup3\n        /* \"#utility.yul\":5208:5217   */\n      dup8\n        /* \"#utility.yul\":5204:5226   */\n      add\n        /* \"#utility.yul\":5183:5236   */\n      tag_355\n      jump\t// in\n    tag_457:\n        /* \"#utility.yul\":5173:5236   */\n      swap4\n      pop\n        /* \"#utility.yul\":5129:5246   */\n      pop\n        /* \"#utility.yul\":5285:5287   */\n      0x20\n        /* \"#utility.yul\":5311:5364   */\n      tag_458\n        /* \"#utility.yul\":5356:5363   */\n      dup7\n        /* \"#utility.yul\":5347:5353   */\n      dup3\n        /* \"#utility.yul\":5336:5345   */\n      dup8\n        /* \"#utility.yul\":5332:5354   */\n      add\n        /* \"#utility.yul\":5311:5364   */\n      tag_355\n      jump\t// in\n    tag_458:\n        /* \"#utility.yul\":5301:5364   */\n      swap3\n      pop\n        /* \"#utility.yul\":5256:5374   */\n      pop\n        /* \"#utility.yul\":5413:5415   */\n      0x40\n        /* \"#utility.yul\":5439:5492   */\n      tag_459\n        /* \"#utility.yul\":5484:5491   */\n      dup7\n        /* \"#utility.yul\":5475:5481   */\n      dup3\n        /* \"#utility.yul\":5464:5473   */\n      dup8\n        /* \"#utility.yul\":5460:5482   */\n      add\n        /* \"#utility.yul\":5439:5492   */\n      tag_350\n      jump\t// in\n    tag_459:\n        /* \"#utility.yul\":5429:5492   */\n      swap2\n      pop\n        /* \"#utility.yul\":5384:5502   */\n      pop\n        /* \"#utility.yul\":4890:5509   */\n      swap3\n      pop\n      swap3\n      pop\n      swap3\n      jump\t// out\n        /* \"#utility.yul\":5515:5844   */\n    tag_50:\n        /* \"#utility.yul\":5574:5580   */\n      0x00\n        /* \"#utility.yul\":5623:5625   */\n      0x20\n        /* \"#utility.yul\":5611:5620   */\n      dup3\n        /* \"#utility.yul\":5602:5609   */\n      dup5\n        /* \"#utility.yul\":5598:5621   */\n      sub\n        /* \"#utility.yul\":5594:5626   */\n      slt\n        /* \"#utility.yul\":5591:5710   */\n      iszero\n      tag_461\n      jumpi\n        /* \"#utility.yul\":5629:5708   */\n      tag_462\n      tag_336\n      jump\t// in\n    tag_462:\n        /* \"#utility.yul\":5591:5710   */\n    tag_461:\n        /* \"#utility.yul\":5749:5750   */\n      0x00\n        /* \"#utility.yul\":5774:5827   */\n      tag_463\n        /* \"#utility.yul\":5819:5826   */\n      dup5\n        /* \"#utility.yul\":5810:5816   */\n      dup3\n        /* \"#utility.yul\":5799:5808   */\n      dup6\n        /* \"#utility.yul\":5795:5817   */\n      add\n        /* \"#utility.yul\":5774:5827   */\n      tag_355\n      jump\t// in\n    tag_463:\n        /* \"#utility.yul\":5764:5827   */\n      swap2\n      pop\n        /* \"#utility.yul\":5720:5837   */\n      pop\n        /* \"#utility.yul\":5515:5844   */\n      swap3\n      swap2\n      pop\n      pop\n      jump\t// out\n        /* \"#utility.yul\":5850:5968   */\n    tag_356:\n        /* \"#utility.yul\":5937:5961   */\n      tag_465\n        /* \"#utility.yul\":5955:5960   */\n      dup2\n        /* \"#utility.yul\":5937:5961   */\n      tag_348\n      jump\t// in\n    tag_465:\n        /* \"#utility.yul\":5932:5935   */\n      dup3\n        /* \"#utility.yul\":5925:5962   */\n      mstore\n        /* \"#utility.yul\":5850:5968   */\n      pop\n      pop\n      jump\t// out\n        /* \"#utility.yul\":5974:6196   */\n    tag_66:\n        /* \"#utility.yul\":6067:6071   */\n      0x00\n        /* \"#utility.yul\":6105:6107   */\n      0x20\n        /* \"#utility.yul\":6094:6103   */\n      dup3\n        /* \"#utility.yul\":6090:6108   */\n      add\n        /* \"#utility.yul\":6082:6108   */\n      swap1\n      pop\n        /* \"#utility.yul\":6118:6189   */\n      tag_467\n        /* \"#utility.yul\":6186:6187   */\n      0x00\n        /* \"#utility.yul\":6175:6184   */\n      dup4\n        /* \"#utility.yul\":6171:6188   */\n      add\n        /* \"#utility.yul\":6162:6168   */\n      dup5\n        /* \"#utility.yul\":6118:6189   */\n      tag_356\n      jump\t// in\n    tag_467:\n        /* \"#utility.yul\":5974:6196   */\n      swap3\n      swap2\n      pop\n      pop\n      jump\t// out\n        /* \"#utility.yul\":6202:6318   */\n    tag_357:\n        /* \"#utility.yul\":6272:6293   */\n      tag_469\n        /* \"#utility.yul\":6287:6292   */\n      dup2\n        /* \"#utility.yul\":6272:6293   */\n      tag_341\n      jump\t// in\n    tag_469:\n        /* \"#utility.yul\":6265:6270   */\n      dup2\n        /* \"#utility.yul\":6262:6294   */\n      eq\n        /* \"#utility.yul\":6252:6312   */\n      tag_470\n      jumpi\n        /* \"#utility.yul\":6308:6309   */\n      0x00\n        /* \"#utility.yul\":6305:6306   */\n      dup1\n        /* \"#utility.yul\":6298:6310   */\n      revert\n        /* \"#utility.yul\":6252:6312   */\n    tag_470:\n        /* \"#utility.yul\":6202:6318   */\n      pop\n      jump\t// out\n        /* \"#utility.yul\":6324:6457   */\n    tag_358:\n        /* \"#utility.yul\":6367:6372   */\n      0x00\n        /* \"#utility.yul\":6405:6411   */\n      dup2\n        /* \"#utility.yul\":6392:6412   */\n      calldataload\n        /* \"#utility.yul\":6383:6412   */\n      swap1\n      pop\n        /* \"#utility.yul\":6421:6451   */\n      tag_472\n        /* \"#utility.yul\":6445:6450   */\n      dup2\n        /* \"#utility.yul\":6421:6451   */\n      tag_357\n      jump\t// in\n    tag_472:\n        /* \"#utility.yul\":6324:6457   */\n      swap3\n      swap2\n      pop\n      pop\n      jump\t// out\n        /* \"#utility.yul\":6463:6931   */\n    tag_77:\n        /* \"#utility.yul\":6528:6534   */\n      0x00\n        /* \"#utility.yul\":6536:6542   */\n      dup1\n        /* \"#utility.yul\":6585:6587   */\n      0x40\n        /* \"#utility.yul\":6573:6582   */\n      dup4\n        /* \"#utility.yul\":6564:6571   */\n      dup6\n        /* \"#utility.yul\":6560:6583   */\n      sub\n        /* \"#utility.yul\":6556:6588   */\n      slt\n        /* \"#utility.yul\":6553:6672   */\n      iszero\n      tag_474\n      jumpi\n        /* \"#utility.yul\":6591:6670   */\n      tag_475\n      tag_336\n      jump\t// in\n    tag_475:\n        /* \"#utility.yul\":6553:6672   */\n    tag_474:\n        /* \"#utility.yul\":6711:6712   */\n      0x00\n        /* \"#utility.yul\":6736:6789   */\n      tag_476\n        /* \"#utility.yul\":6781:6788   */\n      dup6\n        /* \"#utility.yul\":6772:6778   */\n      dup3\n        /* \"#utility.yul\":6761:6770   */\n      dup7\n        /* \"#utility.yul\":6757:6779   */\n      add\n        /* \"#utility.yul\":6736:6789   */\n      tag_355\n      jump\t// in\n    tag_476:\n        /* \"#utility.yul\":6726:6789   */\n      swap3\n      pop\n        /* \"#utility.yul\":6682:6799   */\n      pop\n        /* \"#utility.yul\":6838:6840   */\n      0x20\n        /* \"#utility.yul\":6864:6914   */\n      tag_477\n        /* \"#utility.yul\":6906:6913   */\n      dup6\n        /* \"#utility.yul\":6897:6903   */\n      dup3\n        /* \"#utility.yul\":6886:6895   */\n      dup7\n        /* \"#utility.yul\":6882:6904   */\n      add\n        /* \"#utility.yul\":6864:6914   */\n      tag_358\n      jump\t// in\n    tag_477:\n        /* \"#utility.yul\":6854:6914   */\n      swap2\n      pop\n        /* \"#utility.yul\":6809:6924   */\n      pop\n        /* \"#utility.yul\":6463:6931   */\n      swap3\n      pop\n      swap3\n      swap1\n      pop\n      jump\t// out\n        /* \"#utility.yul\":6937:7054   */\n    tag_359:\n        /* \"#utility.yul\":7046:7047   */\n      0x00\n        /* \"#utility.yul\":7043:7044   */\n      dup1\n        /* \"#utility.yul\":7036:7048   */\n      revert\n        /* \"#utility.yul\":7060:7177   */\n    tag_360:\n        /* \"#utility.yul\":7169:7170   */\n      0x00\n        /* \"#utility.yul\":7166:7167   */\n      dup1\n        /* \"#utility.yul\":7159:7171   */\n      revert\n        /* \"#utility.yul\":7183:7363   */\n    tag_224:\n        /* \"#utility.yul\":7231:7308   */\n      0x4e487b7100000000000000000000000000000000000000000000000000000000\n        /* \"#utility.yul\":7228:7229   */\n      0x00\n        /* \"#utility.yul\":7221:7309   */\n      mstore\n        /* \"#utility.yul\":7328:7332   */\n      0x41\n        /* \"#utility.yul\":7325:7326   */\n      0x04\n        /* \"#utility.yul\":7318:7333   */\n      mstore\n        /* \"#utility.yul\":7352:7356   */\n      0x24\n        /* \"#utility.yul\":7349:7350   */\n      0x00\n        /* \"#utility.yul\":7342:7357   */\n      revert\n        /* \"#utility.yul\":7369:7650   */\n    tag_361:\n        /* \"#utility.yul\":7452:7479   */\n      tag_482\n        /* \"#utility.yul\":7474:7478   */\n      dup3\n        /* \"#utility.yul\":7452:7479   */\n      tag_346\n      jump\t// in\n    tag_482:\n        /* \"#utility.yul\":7444:7450   */\n      dup2\n        /* \"#utility.yul\":7440:7480   */\n      add\n        /* \"#utility.yul\":7582:7588   */\n      dup2\n        /* \"#utility.yul\":7570:7580   */\n      dup2\n        /* \"#utility.yul\":7567:7589   */\n      lt\n        /* \"#utility.yul\":7546:7564   */\n      0xffffffffffffffff\n        /* \"#utility.yul\":7534:7544   */\n      dup3\n        /* \"#utility.yul\":7531:7565   */\n      gt\n        /* \"#utility.yul\":7528:7590   */\n      or\n        /* \"#utility.yul\":7525:7613   */\n      iszero\n      tag_483\n      jumpi\n        /* \"#utility.yul\":7593:7611   */\n      tag_484\n      tag_224\n      jump\t// in\n    tag_484:\n        /* \"#utility.yul\":7525:7613   */\n    tag_483:\n        /* \"#utility.yul\":7633:7643   */\n      dup1\n        /* \"#utility.yul\":7629:7631   */\n      0x40\n        /* \"#utility.yul\":7622:7644   */\n      mstore\n        /* \"#utility.yul\":7412:7650   */\n      pop\n        /* \"#utility.yul\":7369:7650   */\n      pop\n      pop\n      jump\t// out\n        /* \"#utility.yul\":7656:7785   */\n    tag_362:\n        /* \"#utility.yul\":7690:7696   */\n      0x00\n        /* \"#utility.yul\":7717:7737   */\n      tag_486\n      tag_335\n      jump\t// in\n    tag_486:\n        /* \"#utility.yul\":7707:7737   */\n      swap1\n      pop\n        /* \"#utility.yul\":7746:7779   */\n      tag_487\n        /* \"#utility.yul\":7774:7778   */\n      dup3\n        /* \"#utility.yul\":7766:7772   */\n      dup3\n        /* \"#utility.yul\":7746:7779   */\n      tag_361\n      jump\t// in\n    tag_487:\n        /* \"#utility.yul\":7656:7785   */\n      swap2\n      swap1\n      pop\n      jump\t// out\n        /* \"#utility.yul\":7791:8098   */\n    tag_363:\n        /* \"#utility.yul\":7852:7856   */\n      0x00\n        /* \"#utility.yul\":7942:7960   */\n      0xffffffffffffffff\n        /* \"#utility.yul\":7934:7940   */\n      dup3\n        /* \"#utility.yul\":7931:7961   */\n      gt\n        /* \"#utility.yul\":7928:7984   */\n      iszero\n      tag_489\n      jumpi\n        /* \"#utility.yul\":7964:7982   */\n      tag_490\n      tag_224\n      jump\t// in\n    tag_490:\n        /* \"#utility.yul\":7928:7984   */\n    tag_489:\n        /* \"#utility.yul\":8002:8031   */\n      tag_491\n        /* \"#utility.yul\":8024:8030   */\n      dup3\n        /* \"#utility.yul\":8002:8031   */\n      tag_346\n      jump\t// in\n    tag_491:\n        /* \"#utility.yul\":7994:8031   */\n      swap1\n      pop\n        /* \"#utility.yul\":8086:8090   */\n      0x20\n        /* \"#utility.yul\":8080:8084   */\n      dup2\n        /* \"#utility.yul\":8076:8091   */\n      add\n        /* \"#utility.yul\":8068:8091   */\n      swap1\n      pop\n        /* \"#utility.yul\":7791:8098   */\n      swap2\n      swap1\n      pop\n      jump\t// out\n        /* \"#utility.yul\":8104:8250   */\n    tag_364:\n        /* \"#utility.yul\":8201:8207   */\n      dup3\n        /* \"#utility.yul\":8196:8199   */\n      dup2\n        /* \"#utility.yul\":8191:8194   */\n      dup4\n        /* \"#utility.yul\":8178:8208   */\n      calldatacopy\n        /* \"#utility.yul\":8242:8243   */\n      0x00\n        /* \"#utility.yul\":8233:8239   */\n      dup4\n        /* \"#utility.yul\":8228:8231   */\n      dup4\n        /* \"#utility.yul\":8224:8240   */\n      add\n        /* \"#utility.yul\":8217:8244   */\n      mstore\n        /* \"#utility.yul\":8104:8250   */\n      pop\n      pop\n      pop\n      jump\t// out\n        /* \"#utility.yul\":8256:8679   */\n    tag_365:\n        /* \"#utility.yul\":8333:8338   */\n      0x00\n        /* \"#utility.yul\":8358:8423   */\n      tag_494\n        /* \"#utility.yul\":8374:8422   */\n      tag_495\n        /* \"#utility.yul\":8415:8421   */\n      dup5\n        /* \"#utility.yul\":8374:8422   */\n      tag_363\n      jump\t// in\n    tag_495:\n        /* \"#utility.yul\":8358:8423   */\n      tag_362\n      jump\t// in\n    tag_494:\n        /* \"#utility.yul\":8349:8423   */\n      swap1\n      pop\n        /* \"#utility.yul\":8446:8452   */\n      dup3\n        /* \"#utility.yul\":8439:8444   */\n      dup2\n        /* \"#utility.yul\":8432:8453   */\n      mstore\n        /* \"#utility.yul\":8484:8488   */\n      0x20\n        /* \"#utility.yul\":8477:8482   */\n      dup2\n        /* \"#utility.yul\":8473:8489   */\n      add\n        /* \"#utility.yul\":8522:8525   */\n      dup5\n        /* \"#utility.yul\":8513:8519   */\n      dup5\n        /* \"#utility.yul\":8508:8511   */\n      dup5\n        /* \"#utility.yul\":8504:8520   */\n      add\n        /* \"#utility.yul\":8501:8526   */\n      gt\n        /* \"#utility.yul\":8498:8610   */\n      iszero\n      tag_496\n      jumpi\n        /* \"#utility.yul\":8529:8608   */\n      tag_497\n      tag_360\n      jump\t// in\n    tag_497:\n        /* \"#utility.yul\":8498:8610   */\n    tag_496:\n        /* \"#utility.yul\":8619:8673   */\n      tag_498\n        /* \"#utility.yul\":8666:8672   */\n      dup5\n        /* \"#utility.yul\":8661:8664   */\n      dup3\n        /* \"#utility.yul\":8656:8659   */\n      dup6\n        /* \"#utility.yul\":8619:8673   */\n      tag_364\n      jump\t// in\n    tag_498:\n        /* \"#utility.yul\":8339:8679   */\n      pop\n        /* \"#utility.yul\":8256:8679   */\n      swap4\n      swap3\n      pop\n      pop\n      pop\n      jump\t// out\n        /* \"#utility.yul\":8698:9036   */\n    tag_366:\n        /* \"#utility.yul\":8753:8758   */\n      0x00\n        /* \"#utility.yul\":8802:8805   */\n      dup3\n        /* \"#utility.yul\":8795:8799   */\n      0x1f\n        /* \"#utility.yul\":8787:8793   */\n      dup4\n        /* \"#utility.yul\":8783:8800   */\n      add\n        /* \"#utility.yul\":8779:8806   */\n      slt\n        /* \"#utility.yul\":8769:8891   */\n      tag_500\n      jumpi\n        /* \"#utility.yul\":8810:8889   */\n      tag_501\n      tag_359\n      jump\t// in\n    tag_501:\n        /* \"#utility.yul\":8769:8891   */\n    tag_500:\n        /* \"#utility.yul\":8927:8933   */\n      dup2\n        /* \"#utility.yul\":8914:8934   */\n      calldataload\n        /* \"#utility.yul\":8952:9030   */\n      tag_502\n        /* \"#utility.yul\":9026:9029   */\n      dup5\n        /* \"#utility.yul\":9018:9024   */\n      dup3\n        /* \"#utility.yul\":9011:9015   */\n      0x20\n        /* \"#utility.yul\":9003:9009   */\n      dup7\n        /* \"#utility.yul\":8999:9016   */\n      add\n        /* \"#utility.yul\":8952:9030   */\n      tag_365\n      jump\t// in\n    tag_502:\n        /* \"#utility.yul\":8943:9030   */\n      swap2\n      pop\n        /* \"#utility.yul\":8759:9036   */\n      pop\n        /* \"#utility.yul\":8698:9036   */\n      swap3\n      swap2\n      pop\n      pop\n      jump\t// out\n        /* \"#utility.yul\":9042:9985   */\n    tag_81:\n        /* \"#utility.yul\":9137:9143   */\n      0x00\n        /* \"#utility.yul\":9145:9151   */\n      dup1\n        /* \"#utility.yul\":9153:9159   */\n      0x00\n        /* \"#utility.yul\":9161:9167   */\n      dup1\n        /* \"#utility.yul\":9210:9213   */\n      0x80\n        /* \"#utility.yul\":9198:9207   */\n      dup6\n        /* \"#utility.yul\":9189:9196   */\n      dup8\n        /* \"#utility.yul\":9185:9208   */\n      sub\n        /* \"#utility.yul\":9181:9214   */\n      slt\n        /* \"#utility.yul\":9178:9298   */\n      iszero\n      tag_504\n      jumpi\n        /* \"#utility.yul\":9217:9296   */\n      tag_505\n      tag_336\n      jump\t// in\n    tag_505:\n        /* \"#utility.yul\":9178:9298   */\n    tag_504:\n        /* \"#utility.yul\":9337:9338   */\n      0x00\n        /* \"#utility.yul\":9362:9415   */\n      tag_506\n        /* \"#utility.yul\":9407:9414   */\n      dup8\n        /* \"#utility.yul\":9398:9404   */\n      dup3\n        /* \"#utility.yul\":9387:9396   */\n      dup9\n        /* \"#utility.yul\":9383:9405   */\n      add\n        /* \"#utility.yul\":9362:9415   */\n      tag_355\n      jump\t// in\n    tag_506:\n        /* \"#utility.yul\":9352:9415   */\n      swap5\n      pop\n        /* \"#utility.yul\":9308:9425   */\n      pop\n        /* \"#utility.yul\":9464:9466   */\n      0x20\n        /* \"#utility.yul\":9490:9543   */\n      tag_507\n        /* \"#utility.yul\":9535:9542   */\n      dup8\n        /* \"#utility.yul\":9526:9532   */\n      dup3\n        /* \"#utility.yul\":9515:9524   */\n      dup9\n        /* \"#utility.yul\":9511:9533   */\n      add\n        /* \"#utility.yul\":9490:9543   */\n      tag_355\n      jump\t// in\n    tag_507:\n        /* \"#utility.yul\":9480:9543   */\n      swap4\n      pop\n        /* \"#utility.yul\":9435:9553   */\n      pop\n        /* \"#utility.yul\":9592:9594   */\n      0x40\n        /* \"#utility.yul\":9618:9671   */\n      tag_508\n        /* \"#utility.yul\":9663:9670   */\n      dup8\n        /* \"#utility.yul\":9654:9660   */\n      dup3\n        /* \"#utility.yul\":9643:9652   */\n      dup9\n        /* \"#utility.yul\":9639:9661   */\n      add\n        /* \"#utility.yul\":9618:9671   */\n      tag_350\n      jump\t// in\n    tag_508:\n        /* \"#utility.yul\":9608:9671   */\n      swap3\n      pop\n        /* \"#utility.yul\":9563:9681   */\n      pop\n        /* \"#utility.yul\":9748:9750   */\n      0x60\n        /* \"#utility.yul\":9737:9746   */\n      dup6\n        /* \"#utility.yul\":9733:9751   */\n      add\n        /* \"#utility.yul\":9720:9752   */\n      calldataload\n        /* \"#utility.yul\":9779:9797   */\n      0xffffffffffffffff\n        /* \"#utility.yul\":9771:9777   */\n      dup2\n        /* \"#utility.yul\":9768:9798   */\n      gt\n        /* \"#utility.yul\":9765:9882   */\n      iszero\n      tag_509\n      jumpi\n        /* \"#utility.yul\":9801:9880   */\n      tag_510\n      tag_337\n      jump\t// in\n    tag_510:\n        /* \"#utility.yul\":9765:9882   */\n    tag_509:\n        /* \"#utility.yul\":9906:9968   */\n      tag_511\n        /* \"#utility.yul\":9960:9967   */\n      dup8\n        /* \"#utility.yul\":9951:9957   */\n      dup3\n        /* \"#utility.yul\":9940:9949   */\n      dup9\n        /* \"#utility.yul\":9936:9958   */\n      add\n        /* \"#utility.yul\":9906:9968   */\n      tag_366\n      jump\t// in\n    tag_511:\n        /* \"#utility.yul\":9896:9968   */\n      swap2\n      pop\n        /* \"#utility.yul\":9691:9978   */\n      pop\n        /* \"#utility.yul\":9042:9985   */\n      swap3\n      swap6\n      swap2\n      swap5\n      pop\n      swap3\n      pop\n      jump\t// out\n        /* \"#utility.yul\":9991:10465   */\n    tag_89:\n        /* \"#utility.yul\":10059:10065   */\n      0x00\n        /* \"#utility.yul\":10067:10073   */\n      dup1\n        /* \"#utility.yul\":10116:10118   */\n      0x40\n        /* \"#utility.yul\":10104:10113   */\n      dup4\n        /* \"#utility.yul\":10095:10102   */\n      dup6\n        /* \"#utility.yul\":10091:10114   */\n      sub\n        /* \"#utility.yul\":10087:10119   */\n      slt\n        /* \"#utility.yul\":10084:10203   */\n      iszero\n      tag_513\n      jumpi\n        /* \"#utility.yul\":10122:10201   */\n      tag_514\n      tag_336\n      jump\t// in\n    tag_514:\n        /* \"#utility.yul\":10084:10203   */\n    tag_513:\n        /* \"#utility.yul\":10242:10243   */\n      0x00\n        /* \"#utility.yul\":10267:10320   */\n      tag_515\n        /* \"#utility.yul\":10312:10319   */\n      dup6\n        /* \"#utility.yul\":10303:10309   */\n      dup3\n        /* \"#utility.yul\":10292:10301   */\n      dup7\n        /* \"#utility.yul\":10288:10310   */\n      add\n        /* \"#utility.yul\":10267:10320   */\n      tag_355\n      jump\t// in\n    tag_515:\n        /* \"#utility.yul\":10257:10320   */\n      swap3\n      pop\n        /* \"#utility.yul\":10213:10330   */\n      pop\n        /* \"#utility.yul\":10369:10371   */\n      0x20\n        /* \"#utility.yul\":10395:10448   */\n      tag_516\n        /* \"#utility.yul\":10440:10447   */\n      dup6\n        /* \"#utility.yul\":10431:10437   */\n      dup3\n        /* \"#utility.yul\":10420:10429   */\n      dup7\n        /* \"#utility.yul\":10416:10438   */\n      add\n        /* \"#utility.yul\":10395:10448   */\n      tag_355\n      jump\t// in\n    tag_516:\n        /* \"#utility.yul\":10385:10448   */\n      swap2\n      pop\n        /* \"#utility.yul\":10340:10458   */\n      pop\n        /* \"#utility.yul\":9991:10465   */\n      swap3\n      pop\n      swap3\n      swap1\n      pop\n      jump\t// out\n        /* \"#utility.yul\":10471:10651   */\n    tag_367:\n        /* \"#utility.yul\":10519:10596   */\n      0x4e487b7100000000000000000000000000000000000000000000000000000000\n        /* \"#utility.yul\":10516:10517   */\n      0x00\n        /* \"#utility.yul\":10509:10597   */\n      mstore\n        /* \"#utility.yul\":10616:10620   */\n      0x22\n        /* \"#utility.yul\":10613:10614   */\n      0x04\n        /* \"#utility.yul\":10606:10621   */\n      mstore\n        /* \"#utility.yul\":10640:10644   */\n      0x24\n        /* \"#utility.yul\":10637:10638   */\n      0x00\n        /* \"#utility.yul\":10630:10645   */\n      revert\n        /* \"#utility.yul\":10657:10977   */\n    tag_100:\n        /* \"#utility.yul\":10701:10707   */\n      0x00\n        /* \"#utility.yul\":10738:10739   */\n      0x02\n        /* \"#utility.yul\":10732:10736   */\n      dup3\n        /* \"#utility.yul\":10728:10740   */\n      div\n        /* \"#utility.yul\":10718:10740   */\n      swap1\n      pop\n        /* \"#utility.yul\":10785:10786   */\n      0x01\n        /* \"#utility.yul\":10779:10783   */\n      dup3\n        /* \"#utility.yul\":10775:10787   */\n      and\n        /* \"#utility.yul\":10806:10824   */\n      dup1\n        /* \"#utility.yul\":10796:10877   */\n      tag_519\n      jumpi\n        /* \"#utility.yul\":10862:10866   */\n      0x7f\n        /* \"#utility.yul\":10854:10860   */\n      dup3\n        /* \"#utility.yul\":10850:10867   */\n      and\n        /* \"#utility.yul\":10840:10867   */\n      swap2\n      pop\n        /* \"#utility.yul\":10796:10877   */\n    tag_519:\n        /* \"#utility.yul\":10924:10926   */\n      0x20\n        /* \"#utility.yul\":10916:10922   */\n      dup3\n        /* \"#utility.yul\":10913:10927   */\n      lt\n        /* \"#utility.yul\":10893:10911   */\n      dup2\n        /* \"#utility.yul\":10890:10928   */\n      sub\n        /* \"#utility.yul\":10887:10971   */\n      tag_520\n      jumpi\n        /* \"#utility.yul\":10943:10961   */\n      tag_521\n      tag_367\n      jump\t// in\n    tag_521:\n        /* \"#utility.yul\":10887:10971   */\n    tag_520:\n        /* \"#utility.yul\":10708:10977   */\n      pop\n        /* \"#utility.yul\":10657:10977   */\n      swap2\n      swap1\n      pop\n      jump\t// out\n        /* \"#utility.yul\":10983:11425   */\n    tag_123:\n        /* \"#utility.yul\":11132:11136   */\n      0x00\n        /* \"#utility.yul\":11170:11172   */\n      0x60\n        /* \"#utility.yul\":11159:11168   */\n      dup3\n        /* \"#utility.yul\":11155:11173   */\n      add\n        /* \"#utility.yul\":11147:11173   */\n      swap1\n      pop\n        /* \"#utility.yul\":11183:11254   */\n      tag_523\n        /* \"#utility.yul\":11251:11252   */\n      0x00\n        /* \"#utility.yul\":11240:11249   */\n      dup4\n        /* \"#utility.yul\":11236:11253   */\n      add\n        /* \"#utility.yul\":11227:11233   */\n      dup7\n        /* \"#utility.yul\":11183:11254   */\n      tag_353\n      jump\t// in\n    tag_523:\n        /* \"#utility.yul\":11264:11336   */\n      tag_524\n        /* \"#utility.yul\":11332:11334   */\n      0x20\n        /* \"#utility.yul\":11321:11330   */\n      dup4\n        /* \"#utility.yul\":11317:11335   */\n      add\n        /* \"#utility.yul\":11308:11314   */\n      dup6\n        /* \"#utility.yul\":11264:11336   */\n      tag_356\n      jump\t// in\n    tag_524:\n        /* \"#utility.yul\":11346:11418   */\n      tag_525\n        /* \"#utility.yul\":11414:11416   */\n      0x40\n        /* \"#utility.yul\":11403:11412   */\n      dup4\n        /* \"#utility.yul\":11399:11417   */\n      add\n        /* \"#utility.yul\":11390:11396   */\n      dup5\n        /* \"#utility.yul\":11346:11418   */\n      tag_353\n      jump\t// in\n    tag_525:\n        /* \"#utility.yul\":10983:11425   */\n      swap5\n      swap4\n      pop\n      pop\n      pop\n      pop\n      jump\t// out\n        /* \"#utility.yul\":11431:11604   */\n    tag_368:\n        /* \"#utility.yul\":11571:11596   */\n      0x5265656e7472616e742063616c6c206465746563746564000000000000000000\n        /* \"#utility.yul\":11567:11568   */\n      0x00\n        /* \"#utility.yul\":11559:11565   */\n      dup3\n        /* \"#utility.yul\":11555:11569   */\n      add\n        /* \"#utility.yul\":11548:11597   */\n      mstore\n        /* \"#utility.yul\":11431:11604   */\n      pop\n      jump\t// out\n        /* \"#utility.yul\":11610:11976   */\n    tag_369:\n        /* \"#utility.yul\":11752:11755   */\n      0x00\n        /* \"#utility.yul\":11773:11840   */\n      tag_528\n        /* \"#utility.yul\":11837:11839   */\n      0x17\n        /* \"#utility.yul\":11832:11835   */\n      dup4\n        /* \"#utility.yul\":11773:11840   */\n      tag_344\n      jump\t// in\n    tag_528:\n        /* \"#utility.yul\":11766:11840   */\n      swap2\n      pop\n        /* \"#utility.yul\":11849:11942   */\n      tag_529\n        /* \"#utility.yul\":11938:11941   */\n      dup3\n        /* \"#utility.yul\":11849:11942   */\n      tag_368\n      jump\t// in\n    tag_529:\n        /* \"#utility.yul\":11967:11969   */\n      0x20\n        /* \"#utility.yul\":11962:11965   */\n      dup3\n        /* \"#utility.yul\":11958:11970   */\n      add\n        /* \"#utility.yul\":11951:11970   */\n      swap1\n      pop\n        /* \"#utility.yul\":11610:11976   */\n      swap2\n      swap1\n      pop\n      jump\t// out\n        /* \"#utility.yul\":11982:12401   */\n    tag_127:\n        /* \"#utility.yul\":12148:12152   */\n      0x00\n        /* \"#utility.yul\":12186:12188   */\n      0x20\n        /* \"#utility.yul\":12175:12184   */\n      dup3\n        /* \"#utility.yul\":12171:12189   */\n      add\n        /* \"#utility.yul\":12163:12189   */\n      swap1\n      pop\n        /* \"#utility.yul\":12235:12244   */\n      dup2\n        /* \"#utility.yul\":12229:12233   */\n      dup2\n        /* \"#utility.yul\":12225:12245   */\n      sub\n        /* \"#utility.yul\":12221:12222   */\n      0x00\n        /* \"#utility.yul\":12210:12219   */\n      dup4\n        /* \"#utility.yul\":12206:12223   */\n      add\n        /* \"#utility.yul\":12199:12246   */\n      mstore\n        /* \"#utility.yul\":12263:12394   */\n      tag_531\n        /* \"#utility.yul\":12389:12393   */\n      dup2\n        /* \"#utility.yul\":12263:12394   */\n      tag_369\n      jump\t// in\n    tag_531:\n        /* \"#utility.yul\":12255:12394   */\n      swap1\n      pop\n        /* \"#utility.yul\":11982:12401   */\n      swap2\n      swap1\n      pop\n      jump\t// out\n        /* \"#utility.yul\":12407:12555   */\n    tag_370:\n        /* \"#utility.yul\":12509:12520   */\n      0x00\n        /* \"#utility.yul\":12546:12549   */\n      dup2\n        /* \"#utility.yul\":12531:12549   */\n      swap1\n      pop\n        /* \"#utility.yul\":12407:12555   */\n      swap3\n      swap2\n      pop\n      pop\n      jump\t// out\n        /* \"#utility.yul\":12561:12951   */\n    tag_371:\n        /* \"#utility.yul\":12667:12670   */\n      0x00\n        /* \"#utility.yul\":12695:12734   */\n      tag_534\n        /* \"#utility.yul\":12728:12733   */\n      dup3\n        /* \"#utility.yul\":12695:12734   */\n      tag_343\n      jump\t// in\n    tag_534:\n        /* \"#utility.yul\":12750:12839   */\n      tag_535\n        /* \"#utility.yul\":12832:12838   */\n      dup2\n        /* \"#utility.yul\":12827:12830   */\n      dup6\n        /* \"#utility.yul\":12750:12839   */\n      tag_370\n      jump\t// in\n    tag_535:\n        /* \"#utility.yul\":12743:12839   */\n      swap4\n      pop\n        /* \"#utility.yul\":12848:12913   */\n      tag_536\n        /* \"#utility.yul\":12906:12912   */\n      dup2\n        /* \"#utility.yul\":12901:12904   */\n      dup6\n        /* \"#utility.yul\":12894:12898   */\n      0x20\n        /* \"#utility.yul\":12887:12892   */\n      dup7\n        /* \"#utility.yul\":12883:12899   */\n      add\n        /* \"#utility.yul\":12848:12913   */\n      tag_345\n      jump\t// in\n    tag_536:\n        /* \"#utility.yul\":12938:12944   */\n      dup1\n        /* \"#utility.yul\":12933:12936   */\n      dup5\n        /* \"#utility.yul\":12929:12945   */\n      add\n        /* \"#utility.yul\":12922:12945   */\n      swap2\n      pop\n        /* \"#utility.yul\":12671:12951   */\n      pop\n        /* \"#utility.yul\":12561:12951   */\n      swap3\n      swap2\n      pop\n      pop\n      jump\t// out\n        /* \"#utility.yul\":12957:13139   */\n    tag_372:\n        /* \"#utility.yul\":13125:13132   */\n      0x2e6a736f6e000000000000000000000000000000000000000000000000000000\n        /* \"#utility.yul\":13120:13123   */\n      dup2\n        /* \"#utility.yul\":13113:13133   */\n      mstore\n        /* \"#utility.yul\":12957:13139   */\n      pop\n      jump\t// out\n        /* \"#utility.yul\":13145:13684   */\n    tag_139:\n        /* \"#utility.yul\":13367:13370   */\n      0x00\n        /* \"#utility.yul\":13389:13484   */\n      tag_539\n        /* \"#utility.yul\":13480:13483   */\n      dup3\n        /* \"#utility.yul\":13471:13477   */\n      dup5\n        /* \"#utility.yul\":13389:13484   */\n      tag_371\n      jump\t// in\n    tag_539:\n        /* \"#utility.yul\":13382:13484   */\n      swap2\n      pop\n        /* \"#utility.yul\":13494:13631   */\n      tag_540\n        /* \"#utility.yul\":13627:13630   */\n      dup3\n        /* \"#utility.yul\":13494:13631   */\n      tag_372\n      jump\t// in\n    tag_540:\n        /* \"#utility.yul\":13656:13657   */\n      0x05\n        /* \"#utility.yul\":13651:13654   */\n      dup3\n        /* \"#utility.yul\":13647:13658   */\n      add\n        /* \"#utility.yul\":13640:13658   */\n      swap2\n      pop\n        /* \"#utility.yul\":13675:13678   */\n      dup2\n        /* \"#utility.yul\":13668:13678   */\n      swap1\n      pop\n        /* \"#utility.yul\":13145:13684   */\n      swap3\n      swap2\n      pop\n      pop\n      jump\t// out\n        /* \"#utility.yul\":13690:13870   */\n    tag_373:\n        /* \"#utility.yul\":13738:13815   */\n      0x4e487b7100000000000000000000000000000000000000000000000000000000\n        /* \"#utility.yul\":13735:13736   */\n      0x00\n        /* \"#utility.yul\":13728:13816   */\n      mstore\n        /* \"#utility.yul\":13835:13839   */\n      0x11\n        /* \"#utility.yul\":13832:13833   */\n      0x04\n        /* \"#utility.yul\":13825:13840   */\n      mstore\n        /* \"#utility.yul\":13859:13863   */\n      0x24\n        /* \"#utility.yul\":13856:13857   */\n      0x00\n        /* \"#utility.yul\":13849:13864   */\n      revert\n        /* \"#utility.yul\":13876:14109   */\n    tag_219:\n        /* \"#utility.yul\":13915:13918   */\n      0x00\n        /* \"#utility.yul\":13938:13962   */\n      tag_543\n        /* \"#utility.yul\":13956:13961   */\n      dup3\n        /* \"#utility.yul\":13938:13962   */\n      tag_348\n      jump\t// in\n    tag_543:\n        /* \"#utility.yul\":13929:13962   */\n      swap2\n      pop\n        /* \"#utility.yul\":13984:14050   */\n      0xffffffffffffffffffffffffffffffffffffffffffffffffffffffffffffffff\n        /* \"#utility.yul\":13977:13982   */\n      dup3\n        /* \"#utility.yul\":13974:14051   */\n      sub\n        /* \"#utility.yul\":13971:14074   */\n      tag_544\n      jumpi\n        /* \"#utility.yul\":14054:14072   */\n      tag_545\n      tag_373\n      jump\t// in\n    tag_545:\n        /* \"#utility.yul\":13971:14074   */\n    tag_544:\n        /* \"#utility.yul\":14101:14102   */\n      0x01\n        /* \"#utility.yul\":14094:14099   */\n      dup3\n        /* \"#utility.yul\":14090:14103   */\n      add\n        /* \"#utility.yul\":14083:14103   */\n      swap1\n      pop\n        /* \"#utility.yul\":13876:14109   */\n      swap2\n      swap1\n      pop\n      jump\t// out\n        /* \"#utility.yul\":14115:14295   */\n    tag_374:\n        /* \"#utility.yul\":14163:14240   */\n      0x4e487b7100000000000000000000000000000000000000000000000000000000\n        /* \"#utility.yul\":14160:14161   */\n      0x00\n        /* \"#utility.yul\":14153:14241   */\n      mstore\n        /* \"#utility.yul\":14260:14264   */\n      0x12\n        /* \"#utility.yul\":14257:14258   */\n      0x04\n        /* \"#utility.yul\":14250:14265   */\n      mstore\n        /* \"#utility.yul\":14284:14288   */\n      0x24\n        /* \"#utility.yul\":14281:14282   */\n      0x00\n        /* \"#utility.yul\":14274:14289   */\n      revert\n        /* \"#utility.yul\":14301:14486   */\n    tag_221:\n        /* \"#utility.yul\":14341:14342   */\n      0x00\n        /* \"#utility.yul\":14358:14378   */\n      tag_548\n        /* \"#utility.yul\":14376:14377   */\n      dup3\n        /* \"#utility.yul\":14358:14378   */\n      tag_348\n      jump\t// in\n    tag_548:\n        /* \"#utility.yul\":14353:14378   */\n      swap2\n      pop\n        /* \"#utility.yul\":14392:14412   */\n      tag_549\n        /* \"#utility.yul\":14410:14411   */\n      dup4\n        /* \"#utility.yul\":14392:14412   */\n      tag_348\n      jump\t// in\n    tag_549:\n        /* \"#utility.yul\":14387:14412   */\n      swap3\n      pop\n        /* \"#utility.yul\":14431:14432   */\n      dup3\n        /* \"#utility.yul\":14421:14456   */\n      tag_550\n      jumpi\n        /* \"#utility.yul\":14436:14454   */\n      tag_551\n      tag_374\n      jump\t// in\n    tag_551:\n        /* \"#utility.yul\":14421:14456   */\n    tag_550:\n        /* \"#utility.yul\":14478:14479   */\n      dup3\n        /* \"#utility.yul\":14475:14476   */\n      dup3\n        /* \"#utility.yul\":14471:14480   */\n      div\n        /* \"#utility.yul\":14466:14480   */\n      swap1\n      pop\n        /* \"#utility.yul\":14301:14486   */\n      swap3\n      swap2\n      pop\n      pop\n      jump\t// out\n        /* \"#utility.yul\":14492:14686   */\n    tag_229:\n        /* \"#utility.yul\":14532:14536   */\n      0x00\n        /* \"#utility.yul\":14552:14572   */\n      tag_553\n        /* \"#utility.yul\":14570:14571   */\n      dup3\n        /* \"#utility.yul\":14552:14572   */\n      tag_348\n      jump\t// in\n    tag_553:\n        /* \"#utility.yul\":14547:14572   */\n      swap2\n      pop\n        /* \"#utility.yul\":14586:14606   */\n      tag_554\n        /* \"#utility.yul\":14604:14605   */\n      dup4\n        /* \"#utility.yul\":14586:14606   */\n      tag_348\n      jump\t// in\n    tag_554:\n        /* \"#utility.yul\":14581:14606   */\n      swap3\n      pop\n        /* \"#utility.yul\":14630:14631   */\n      dup3\n        /* \"#utility.yul\":14627:14628   */\n      dup3\n        /* \"#utility.yul\":14623:14632   */\n      sub\n        /* \"#utility.yul\":14615:14632   */\n      swap1\n      pop\n        /* \"#utility.yul\":14654:14655   */\n      dup2\n        /* \"#utility.yul\":14648:14652   */\n      dup2\n        /* \"#utility.yul\":14645:14656   */\n      gt\n        /* \"#utility.yul\":14642:14679   */\n      iszero\n      tag_555\n      jumpi\n        /* \"#utility.yul\":14659:14677   */\n      tag_556\n      tag_373\n      jump\t// in\n    tag_556:\n        /* \"#utility.yul\":14642:14679   */\n    tag_555:\n        /* \"#utility.yul\":14492:14686   */\n      swap3\n      swap2\n      pop\n      pop\n      jump\t// out\n        /* \"#utility.yul\":14692:14868   */\n    tag_231:\n        /* \"#utility.yul\":14724:14725   */\n      0x00\n        /* \"#utility.yul\":14741:14761   */\n      tag_558\n        /* \"#utility.yul\":14759:14760   */\n      dup3\n        /* \"#utility.yul\":14741:14761   */\n      tag_348\n      jump\t// in\n    tag_558:\n        /* \"#utility.yul\":14736:14761   */\n      swap2\n      pop\n        /* \"#utility.yul\":14775:14795   */\n      tag_559\n        /* \"#utility.yul\":14793:14794   */\n      dup4\n        /* \"#utility.yul\":14775:14795   */\n      tag_348\n      jump\t// in\n    tag_559:\n        /* \"#utility.yul\":14770:14795   */\n      swap3\n      pop\n        /* \"#utility.yul\":14814:14815   */\n      dup3\n        /* \"#utility.yul\":14804:14839   */\n      tag_560\n      jumpi\n        /* \"#utility.yul\":14819:14837   */\n      tag_561\n      tag_374\n      jump\t// in\n    tag_561:\n        /* \"#utility.yul\":14804:14839   */\n    tag_560:\n        /* \"#utility.yul\":14860:14861   */\n      dup3\n        /* \"#utility.yul\":14857:14858   */\n      dup3\n        /* \"#utility.yul\":14853:14862   */\n      mod\n        /* \"#utility.yul\":14848:14862   */\n      swap1\n      pop\n        /* \"#utility.yul\":14692:14868   */\n      swap3\n      swap2\n      pop\n      pop\n      jump\t// out\n        /* \"#utility.yul\":14874:15065   */\n    tag_233:\n        /* \"#utility.yul\":14914:14917   */\n      0x00\n        /* \"#utility.yul\":14933:14953   */\n      tag_563\n        /* \"#utility.yul\":14951:14952   */\n      dup3\n        /* \"#utility.yul\":14933:14953   */\n      tag_348\n      jump\t// in\n    tag_563:\n        /* \"#utility.yul\":14928:14953   */\n      swap2\n      pop\n        /* \"#utility.yul\":14967:14987   */\n      tag_564\n        /* \"#utility.yul\":14985:14986   */\n      dup4\n        /* \"#utility.yul\":14967:14987   */\n      tag_348\n      jump\t// in\n    tag_564:\n        /* \"#utility.yul\":14962:14987   */\n      swap3\n      pop\n        /* \"#utility.yul\":15010:15011   */\n      dup3\n        /* \"#utility.yul\":15007:15008   */\n      dup3\n        /* \"#utility.yul\":15003:15012   */\n      add\n        /* \"#utility.yul\":14996:15012   */\n      swap1\n      pop\n        /* \"#utility.yul\":15031:15034   */\n      dup1\n        /* \"#utility.yul\":15028:15029   */\n      dup3\n        /* \"#utility.yul\":15025:15035   */\n      gt\n        /* \"#utility.yul\":15022:15058   */\n      iszero\n      tag_565\n      jumpi\n        /* \"#utility.yul\":15038:15056   */\n      tag_566\n      tag_373\n      jump\t// in\n    tag_566:\n        /* \"#utility.yul\":15022:15058   */\n    tag_565:\n        /* \"#utility.yul\":14874:15065   */\n      swap3\n      swap2\n      pop\n      pop\n      jump\t// out\n        /* \"#utility.yul\":15071:15251   */\n    tag_236:\n        /* \"#utility.yul\":15119:15196   */\n      0x4e487b7100000000000000000000000000000000000000000000000000000000\n        /* \"#utility.yul\":15116:15117   */\n      0x00\n        /* \"#utility.yul\":15109:15197   */\n      mstore\n        /* \"#utility.yul\":15216:15220   */\n      0x32\n        /* \"#utility.yul\":15213:15214   */\n      0x04\n        /* \"#utility.yul\":15206:15221   */\n      mstore\n        /* \"#utility.yul\":15240:15244   */\n      0x24\n        /* \"#utility.yul\":15237:15238   */\n      0x00\n        /* \"#utility.yul\":15230:15245   */\n      revert\n        /* \"#utility.yul\":15257:15398   */\n    tag_375:\n        /* \"#utility.yul\":15306:15310   */\n      0x00\n        /* \"#utility.yul\":15329:15332   */\n      dup2\n        /* \"#utility.yul\":15321:15332   */\n      swap1\n      pop\n        /* \"#utility.yul\":15352:15355   */\n      dup2\n        /* \"#utility.yul\":15349:15350   */\n      0x00\n        /* \"#utility.yul\":15342:15356   */\n      mstore\n        /* \"#utility.yul\":15386:15390   */\n      0x20\n        /* \"#utility.yul\":15383:15384   */\n      0x00\n        /* \"#utility.yul\":15373:15391   */\n      keccak256\n        /* \"#utility.yul\":15365:15391   */\n      swap1\n      pop\n        /* \"#utility.yul\":15257:15398   */\n      swap2\n      swap1\n      pop\n      jump\t// out\n        /* \"#utility.yul\":15404:15497   */\n    tag_376:\n        /* \"#utility.yul\":15441:15447   */\n      0x00\n        /* \"#utility.yul\":15488:15490   */\n      0x20\n        /* \"#utility.yul\":15483:15485   */\n      0x1f\n        /* \"#utility.yul\":15476:15481   */\n      dup4\n        /* \"#utility.yul\":15472:15486   */\n      add\n        /* \"#utility.yul\":15468:15491   */\n      div\n        /* \"#utility.yul\":15458:15491   */\n      swap1\n      pop\n        /* \"#utility.yul\":15404:15497   */\n      swap2\n      swap1\n      pop\n      jump\t// out\n        /* \"#utility.yul\":15503:15610   */\n    tag_377:\n        /* \"#utility.yul\":15547:15555   */\n      0x00\n        /* \"#utility.yul\":15597:15602   */\n      dup3\n        /* \"#utility.yul\":15591:15595   */\n      dup3\n        /* \"#utility.yul\":15587:15603   */\n      shl\n        /* \"#utility.yul\":15566:15603   */\n      swap1\n      pop\n        /* \"#utility.yul\":15503:15610   */\n      swap3\n      swap2\n      pop\n      pop\n      jump\t// out\n        /* \"#utility.yul\":15616:16009   */\n    tag_378:\n        /* \"#utility.yul\":15685:15691   */\n      0x00\n        /* \"#utility.yul\":15735:15736   */\n      0x08\n        /* \"#utility.yul\":15723:15733   */\n      dup4\n        /* \"#utility.yul\":15719:15737   */\n      mul\n        /* \"#utility.yul\":15758:15855   */\n      tag_572\n        /* \"#utility.yul\":15788:15854   */\n      0xffffffffffffffffffffffffffffffffffffffffffffffffffffffffffffffff\n        /* \"#utility.yul\":15777:15786   */\n      dup3\n        /* \"#utility.yul\":15758:15855   */\n      tag_377\n      jump\t// in\n    tag_572:\n        /* \"#utility.yul\":15876:15915   */\n      tag_573\n        /* \"#utility.yul\":15906:15914   */\n      dup7\n        /* \"#utility.yul\":15895:15904   */\n      dup4\n        /* \"#utility.yul\":15876:15915   */\n      tag_377\n      jump\t// in\n    tag_573:\n        /* \"#utility.yul\":15864:15915   */\n      swap6\n      pop\n        /* \"#utility.yul\":15948:15952   */\n      dup1\n        /* \"#utility.yul\":15944:15953   */\n      not\n        /* \"#utility.yul\":15937:15942   */\n      dup5\n        /* \"#utility.yul\":15933:15954   */\n      and\n        /* \"#utility.yul\":15924:15954   */\n      swap4\n      pop\n        /* \"#utility.yul\":15997:16001   */\n      dup1\n        /* \"#utility.yul\":15987:15995   */\n      dup7\n        /* \"#utility.yul\":15983:16002   */\n      and\n        /* \"#utility.yul\":15976:15981   */\n      dup5\n        /* \"#utility.yul\":15973:16003   */\n      or\n        /* \"#utility.yul\":15963:16003   */\n      swap3\n      pop\n        /* \"#utility.yul\":15692:16009   */\n      pop\n      pop\n        /* \"#utility.yul\":15616:16009   */\n      swap4\n      swap3\n      pop\n      pop\n      pop\n      jump\t// out\n        /* \"#utility.yul\":16015:16075   */\n    tag_379:\n        /* \"#utility.yul\":16043:16046   */\n      0x00\n        /* \"#utility.yul\":16064:16069   */\n      dup2\n        /* \"#utility.yul\":16057:16069   */\n      swap1\n      pop\n        /* \"#utility.yul\":16015:16075   */\n      swap2\n      swap1\n      pop\n      jump\t// out\n        /* \"#utility.yul\":16081:16223   */\n    tag_380:\n        /* \"#utility.yul\":16131:16140   */\n      0x00\n        /* \"#utility.yul\":16164:16217   */\n      tag_576\n        /* \"#utility.yul\":16182:16216   */\n      tag_577\n        /* \"#utility.yul\":16191:16215   */\n      tag_578\n        /* \"#utility.yul\":16209:16214   */\n      dup5\n        /* \"#utility.yul\":16191:16215   */\n      tag_348\n      jump\t// in\n    tag_578:\n        /* \"#utility.yul\":16182:16216   */\n      tag_379\n      jump\t// in\n    tag_577:\n        /* \"#utility.yul\":16164:16217   */\n      tag_348\n      jump\t// in\n    tag_576:\n        /* \"#utility.yul\":16151:16217   */\n      swap1\n      pop\n        /* \"#utility.yul\":16081:16223   */\n      swap2\n      swap1\n      pop\n      jump\t// out\n        /* \"#utility.yul\":16229:16304   */\n    tag_381:\n        /* \"#utility.yul\":16272:16275   */\n      0x00\n        /* \"#utility.yul\":16293:16298   */\n      dup2\n        /* \"#utility.yul\":16286:16298   */\n      swap1\n      pop\n        /* \"#utility.yul\":16229:16304   */\n      swap2\n      swap1\n      pop\n      jump\t// out\n        /* \"#utility.yul\":16310:16579   */\n    tag_382:\n        /* \"#utility.yul\":16420:16459   */\n      tag_581\n        /* \"#utility.yul\":16451:16458   */\n      dup4\n        /* \"#utility.yul\":16420:16459   */\n      tag_380\n      jump\t// in\n    tag_581:\n        /* \"#utility.yul\":16481:16572   */\n      tag_582\n        /* \"#utility.yul\":16530:16571   */\n      tag_583\n        /* \"#utility.yul\":16554:16570   */\n      dup3\n        /* \"#utility.yul\":16530:16571   */\n      tag_381\n      jump\t// in\n    tag_583:\n        /* \"#utility.yul\":16522:16528   */\n      dup5\n        /* \"#utility.yul\":16515:16519   */\n      dup5\n        /* \"#utility.yul\":16509:16520   */\n      sload\n        /* \"#utility.yul\":16481:16572   */\n      tag_378\n      jump\t// in\n    tag_582:\n        /* \"#utility.yul\":16475:16479   */\n      dup3\n        /* \"#utility.yul\":16468:16573   */\n      sstore\n        /* \"#utility.yul\":16386:16579   */\n      pop\n        /* \"#utility.yul\":16310:16579   */\n      pop\n      pop\n      pop\n      jump\t// out\n        /* \"#utility.yul\":16585:16658   */\n    tag_383:\n        /* \"#utility.yul\":16630:16633   */\n      0x00\n        /* \"#utility.yul\":16585:16658   */\n      swap1\n      jump\t// out\n        /* \"#utility.yul\":16664:16853   */\n    tag_384:\n        /* \"#utility.yul\":16741:16773   */\n      tag_586\n      tag_383\n      jump\t// in\n    tag_586:\n        /* \"#utility.yul\":16782:16847   */\n      tag_587\n        /* \"#utility.yul\":16840:16846   */\n      dup2\n        /* \"#utility.yul\":16832:16838   */\n      dup5\n        /* \"#utility.yul\":16826:16830   */\n      dup5\n        /* \"#utility.yul\":16782:16847   */\n      tag_382\n      jump\t// in\n    tag_587:\n        /* \"#utility.yul\":16717:16853   */\n      pop\n        /* \"#utility.yul\":16664:16853   */\n      pop\n      pop\n      jump\t// out\n        /* \"#utility.yul\":16859:17045   */\n    tag_385:\n        /* \"#utility.yul\":16919:17039   */\n    tag_589:\n        /* \"#utility.yul\":16936:16939   */\n      dup2\n        /* \"#utility.yul\":16929:16934   */\n      dup2\n        /* \"#utility.yul\":16926:16940   */\n      lt\n        /* \"#utility.yul\":16919:17039   */\n      iszero\n      tag_591\n      jumpi\n        /* \"#utility.yul\":16990:17029   */\n      tag_592\n        /* \"#utility.yul\":17027:17028   */\n      0x00\n        /* \"#utility.yul\":17020:17025   */\n      dup3\n        /* \"#utility.yul\":16990:17029   */\n      tag_384\n      jump\t// in\n    tag_592:\n        /* \"#utility.yul\":16963:16964   */\n      0x01\n        /* \"#utility.yul\":16956:16961   */\n      dup2\n        /* \"#utility.yul\":16952:16965   */\n      add\n        /* \"#utility.yul\":16943:16965   */\n      swap1\n      pop\n        /* \"#utility.yul\":16919:17039   */\n      jump(tag_589)\n    tag_591:\n        /* \"#utility.yul\":16859:17045   */\n      pop\n      pop\n      jump\t// out\n        /* \"#utility.yul\":17051:17594   */\n    tag_386:\n        /* \"#utility.yul\":17152:17154   */\n      0x1f\n        /* \"#utility.yul\":17147:17150   */\n      dup3\n        /* \"#utility.yul\":17144:17155   */\n      gt\n        /* \"#utility.yul\":17141:17587   */\n      iszero\n      tag_594\n      jumpi\n        /* \"#utility.yul\":17186:17224   */\n      tag_595\n        /* \"#utility.yul\":17218:17223   */\n      dup2\n        /* \"#utility.yul\":17186:17224   */\n      tag_375\n      jump\t// in\n    tag_595:\n        /* \"#utility.yul\":17270:17299   */\n      tag_596\n        /* \"#utility.yul\":17288:17298   */\n      dup5\n        /* \"#utility.yul\":17270:17299   */\n      tag_376\n      jump\t// in\n    tag_596:\n        /* \"#utility.yul\":17260:17268   */\n      dup2\n        /* \"#utility.yul\":17256:17300   */\n      add\n        /* \"#utility.yul\":17453:17455   */\n      0x20\n        /* \"#utility.yul\":17441:17451   */\n      dup6\n        /* \"#utility.yul\":17438:17456   */\n      lt\n        /* \"#utility.yul\":17435:17484   */\n      iszero\n      tag_597\n      jumpi\n        /* \"#utility.yul\":17474:17482   */\n      dup2\n        /* \"#utility.yul\":17459:17482   */\n      swap1\n      pop\n        /* \"#utility.yul\":17435:17484   */\n    tag_597:\n        /* \"#utility.yul\":17497:17577   */\n      tag_598\n        /* \"#utility.yul\":17553:17575   */\n      tag_599\n        /* \"#utility.yul\":17571:17574   */\n      dup6\n        /* \"#utility.yul\":17553:17575   */\n      tag_376\n      jump\t// in\n    tag_599:\n        /* \"#utility.yul\":17543:17551   */\n      dup4\n        /* \"#utility.yul\":17539:17576   */\n      add\n        /* \"#utility.yul\":17526:17537   */\n      dup3\n        /* \"#utility.yul\":17497:17577   */\n      tag_385\n      jump\t// in\n    tag_598:\n        /* \"#utility.yul\":17156:17587   */\n      pop\n      pop\n        /* \"#utility.yul\":17141:17587   */\n    tag_594:\n        /* \"#utility.yul\":17051:17594   */\n      pop\n      pop\n      pop\n      jump\t// out\n        /* \"#utility.yul\":17600:17717   */\n    tag_387:\n        /* \"#utility.yul\":17654:17662   */\n      0x00\n        /* \"#utility.yul\":17704:17709   */\n      dup3\n        /* \"#utility.yul\":17698:17702   */\n      dup3\n        /* \"#utility.yul\":17694:17710   */\n      shr\n        /* \"#utility.yul\":17673:17710   */\n      swap1\n      pop\n        /* \"#utility.yul\":17600:17717   */\n      swap3\n      swap2\n      pop\n      pop\n      jump\t// out\n        /* \"#utility.yul\":17723:17892   */\n    tag_388:\n        /* \"#utility.yul\":17767:17773   */\n      0x00\n        /* \"#utility.yul\":17800:17851   */\n      tag_602\n        /* \"#utility.yul\":17848:17849   */\n      0x00\n        /* \"#utility.yul\":17844:17850   */\n      not\n        /* \"#utility.yul\":17836:17841   */\n      dup5\n        /* \"#utility.yul\":17833:17834   */\n      0x08\n        /* \"#utility.yul\":17829:17842   */\n      mul\n        /* \"#utility.yul\":17800:17851   */\n      tag_387\n      jump\t// in\n    tag_602:\n        /* \"#utility.yul\":17796:17852   */\n      not\n        /* \"#utility.yul\":17881:17885   */\n      dup1\n        /* \"#utility.yul\":17875:17879   */\n      dup4\n        /* \"#utility.yul\":17871:17886   */\n      and\n        /* \"#utility.yul\":17861:17886   */\n      swap2\n      pop\n        /* \"#utility.yul\":17774:17892   */\n      pop\n        /* \"#utility.yul\":17723:17892   */\n      swap3\n      swap2\n      pop\n      pop\n      jump\t// out\n        /* \"#utility.yul\":17897:18192   */\n    tag_389:\n        /* \"#utility.yul\":17973:17977   */\n      0x00\n        /* \"#utility.yul\":18119:18148   */\n      tag_604\n        /* \"#utility.yul\":18144:18147   */\n      dup4\n        /* \"#utility.yul\":18138:18142   */\n      dup4\n        /* \"#utility.yul\":18119:18148   */\n      tag_388\n      jump\t// in\n    tag_604:\n        /* \"#utility.yul\":18111:18148   */\n      swap2\n      pop\n        /* \"#utility.yul\":18181:18184   */\n      dup3\n        /* \"#utility.yul\":18178:18179   */\n      0x02\n        /* \"#utility.yul\":18174:18185   */\n      mul\n        /* \"#utility.yul\":18168:18172   */\n      dup3\n        /* \"#utility.yul\":18165:18186   */\n      or\n        /* \"#utility.yul\":18157:18186   */\n      swap1\n      pop\n        /* \"#utility.yul\":17897:18192   */\n      swap3\n      swap2\n      pop\n      pop\n      jump\t// out\n        /* \"#utility.yul\":18197:19592   */\n    tag_240:\n        /* \"#utility.yul\":18314:18351   */\n      tag_606\n        /* \"#utility.yul\":18347:18350   */\n      dup3\n        /* \"#utility.yul\":18314:18351   */\n      tag_343\n      jump\t// in\n    tag_606:\n        /* \"#utility.yul\":18416:18434   */\n      0xffffffffffffffff\n        /* \"#utility.yul\":18408:18414   */\n      dup2\n        /* \"#utility.yul\":18405:18435   */\n      gt\n        /* \"#utility.yul\":18402:18458   */\n      iszero\n      tag_607\n      jumpi\n        /* \"#utility.yul\":18438:18456   */\n      tag_608\n      tag_224\n      jump\t// in\n    tag_608:\n        /* \"#utility.yul\":18402:18458   */\n    tag_607:\n        /* \"#utility.yul\":18482:18520   */\n      tag_609\n        /* \"#utility.yul\":18514:18518   */\n      dup3\n        /* \"#utility.yul\":18508:18519   */\n      sload\n        /* \"#utility.yul\":18482:18520   */\n      tag_100\n      jump\t// in\n    tag_609:\n        /* \"#utility.yul\":18567:18634   */\n      tag_610\n        /* \"#utility.yul\":18627:18633   */\n      dup3\n        /* \"#utility.yul\":18619:18625   */\n      dup3\n        /* \"#utility.yul\":18613:18617   */\n      dup6\n        /* \"#utility.yul\":18567:18634   */\n      tag_386\n      jump\t// in\n    tag_610:\n        /* \"#utility.yul\":18661:18662   */\n      0x00\n        /* \"#utility.yul\":18685:18689   */\n      0x20\n        /* \"#utility.yul\":18672:18689   */\n      swap1\n      pop\n        /* \"#utility.yul\":18717:18719   */\n      0x1f\n        /* \"#utility.yul\":18709:18715   */\n      dup4\n        /* \"#utility.yul\":18706:18720   */\n      gt\n        /* \"#utility.yul\":18734:18735   */\n      0x01\n        /* \"#utility.yul\":18729:19347   */\n      dup2\n      eq\n      tag_612\n      jumpi\n        /* \"#utility.yul\":19391:19392   */\n      0x00\n        /* \"#utility.yul\":19408:19414   */\n      dup5\n        /* \"#utility.yul\":19405:19482   */\n      iszero\n      tag_613\n      jumpi\n        /* \"#utility.yul\":19457:19466   */\n      dup3\n        /* \"#utility.yul\":19452:19455   */\n      dup8\n        /* \"#utility.yul\":19448:19467   */\n      add\n        /* \"#utility.yul\":19442:19468   */\n      mload\n        /* \"#utility.yul\":19433:19468   */\n      swap1\n      pop\n        /* \"#utility.yul\":19405:19482   */\n    tag_613:\n        /* \"#utility.yul\":19508:19575   */\n      tag_614\n        /* \"#utility.yul\":19568:19574   */\n      dup6\n        /* \"#utility.yul\":19561:19566   */\n      dup3\n        /* \"#utility.yul\":19508:19575   */\n      tag_389\n      jump\t// in\n    tag_614:\n        /* \"#utility.yul\":19502:19506   */\n      dup7\n        /* \"#utility.yul\":19495:19576   */\n      sstore\n        /* \"#utility.yul\":19364:19586   */\n      pop\n        /* \"#utility.yul\":18699:19586   */\n      jump(tag_611)\n        /* \"#utility.yul\":18729:19347   */\n    tag_612:\n        /* \"#utility.yul\":18781:18785   */\n      0x1f\n        /* \"#utility.yul\":18777:18786   */\n      not\n        /* \"#utility.yul\":18769:18775   */\n      dup5\n        /* \"#utility.yul\":18765:18787   */\n      and\n        /* \"#utility.yul\":18815:18852   */\n      tag_615\n        /* \"#utility.yul\":18847:18851   */\n      dup7\n        /* \"#utility.yul\":18815:18852   */\n      tag_375\n      jump\t// in\n    tag_615:\n        /* \"#utility.yul\":18874:18875   */\n      0x00\n        /* \"#utility.yul\":18888:19096   */\n    tag_616:\n        /* \"#utility.yul\":18902:18909   */\n      dup3\n        /* \"#utility.yul\":18899:18900   */\n      dup2\n        /* \"#utility.yul\":18896:18910   */\n      lt\n        /* \"#utility.yul\":18888:19096   */\n      iszero\n      tag_618\n      jumpi\n        /* \"#utility.yul\":18981:18990   */\n      dup5\n        /* \"#utility.yul\":18976:18979   */\n      dup10\n        /* \"#utility.yul\":18972:18991   */\n      add\n        /* \"#utility.yul\":18966:18992   */\n      mload\n        /* \"#utility.yul\":18958:18964   */\n      dup3\n        /* \"#utility.yul\":18951:18993   */\n      sstore\n        /* \"#utility.yul\":19032:19033   */\n      0x01\n        /* \"#utility.yul\":19024:19030   */\n      dup3\n        /* \"#utility.yul\":19020:19034   */\n      add\n        /* \"#utility.yul\":19010:19034   */\n      swap2\n      pop\n        /* \"#utility.yul\":19079:19081   */\n      0x20\n        /* \"#utility.yul\":19068:19077   */\n      dup6\n        /* \"#utility.yul\":19064:19082   */\n      add\n        /* \"#utility.yul\":19051:19082   */\n      swap5\n      pop\n        /* \"#utility.yul\":18925:18929   */\n      0x20\n        /* \"#utility.yul\":18922:18923   */\n      dup2\n        /* \"#utility.yul\":18918:18930   */\n      add\n        /* \"#utility.yul\":18913:18930   */\n      swap1\n      pop\n        /* \"#utility.yul\":18888:19096   */\n      jump(tag_616)\n    tag_618:\n        /* \"#utility.yul\":19124:19130   */\n      dup7\n        /* \"#utility.yul\":19115:19122   */\n      dup4\n        /* \"#utility.yul\":19112:19131   */\n      lt\n        /* \"#utility.yul\":19109:19288   */\n      iszero\n      tag_619\n      jumpi\n        /* \"#utility.yul\":19182:19191   */\n      dup5\n        /* \"#utility.yul\":19177:19180   */\n      dup10\n        /* \"#utility.yul\":19173:19192   */\n      add\n        /* \"#utility.yul\":19167:19193   */\n      mload\n        /* \"#utility.yul\":19225:19273   */\n      tag_620\n        /* \"#utility.yul\":19267:19271   */\n      0x1f\n        /* \"#utility.yul\":19259:19265   */\n      dup10\n        /* \"#utility.yul\":19255:19272   */\n      and\n        /* \"#utility.yul\":19244:19253   */\n      dup3\n        /* \"#utility.yul\":19225:19273   */\n      tag_388\n      jump\t// in\n    tag_620:\n        /* \"#utility.yul\":19217:19223   */\n      dup4\n        /* \"#utility.yul\":19210:19274   */\n      sstore\n        /* \"#utility.yul\":19132:19288   */\n      pop\n        /* \"#utility.yul\":19109:19288   */\n    tag_619:\n        /* \"#utility.yul\":19334:19335   */\n      0x01\n        /* \"#utility.yul\":19330:19331   */\n      0x02\n        /* \"#utility.yul\":19322:19328   */\n      dup9\n        /* \"#utility.yul\":19318:19332   */\n      mul\n        /* \"#utility.yul\":19314:19336   */\n      add\n        /* \"#utility.yul\":19308:19312   */\n      dup9\n        /* \"#utility.yul\":19301:19337   */\n      sstore\n        /* \"#utility.yul\":18736:19347   */\n      pop\n      pop\n      pop\n        /* \"#utility.yul\":18699:19586   */\n    tag_611:\n      pop\n        /* \"#utility.yul\":18289:19592   */\n      pop\n      pop\n      pop\n        /* \"#utility.yul\":18197:19592   */\n      pop\n      pop\n      jump\t// out\n        /* \"#utility.yul\":19598:19696   */\n    tag_390:\n        /* \"#utility.yul\":19649:19655   */\n      0x00\n        /* \"#utility.yul\":19683:19688   */\n      dup2\n        /* \"#utility.yul\":19677:19689   */\n      mload\n        /* \"#utility.yul\":19667:19689   */\n      swap1\n      pop\n        /* \"#utility.yul\":19598:19696   */\n      swap2\n      swap1\n      pop\n      jump\t// out\n        /* \"#utility.yul\":19702:19870   */\n    tag_391:\n        /* \"#utility.yul\":19785:19796   */\n      0x00\n        /* \"#utility.yul\":19819:19825   */\n      dup3\n        /* \"#utility.yul\":19814:19817   */\n      dup3\n        /* \"#utility.yul\":19807:19826   */\n      mstore\n        /* \"#utility.yul\":19859:19863   */\n      0x20\n        /* \"#utility.yul\":19854:19857   */\n      dup3\n        /* \"#utility.yul\":19850:19864   */\n      add\n        /* \"#utility.yul\":19835:19864   */\n      swap1\n      pop\n        /* \"#utility.yul\":19702:19870   */\n      swap3\n      swap2\n      pop\n      pop\n      jump\t// out\n        /* \"#utility.yul\":19876:20249   */\n    tag_392:\n        /* \"#utility.yul\":19962:19965   */\n      0x00\n        /* \"#utility.yul\":19990:20028   */\n      tag_624\n        /* \"#utility.yul\":20022:20027   */\n      dup3\n        /* \"#utility.yul\":19990:20028   */\n      tag_390\n      jump\t// in\n    tag_624:\n        /* \"#utility.yul\":20044:20114   */\n      tag_625\n        /* \"#utility.yul\":20107:20113   */\n      dup2\n        /* \"#utility.yul\":20102:20105   */\n      dup6\n        /* \"#utility.yul\":20044:20114   */\n      tag_391\n      jump\t// in\n    tag_625:\n        /* \"#utility.yul\":20037:20114   */\n      swap4\n      pop\n        /* \"#utility.yul\":20123:20188   */\n      tag_626\n        /* \"#utility.yul\":20181:20187   */\n      dup2\n        /* \"#utility.yul\":20176:20179   */\n      dup6\n        /* \"#utility.yul\":20169:20173   */\n      0x20\n        /* \"#utility.yul\":20162:20167   */\n      dup7\n        /* \"#utility.yul\":20158:20174   */\n      add\n        /* \"#utility.yul\":20123:20188   */\n      tag_345\n      jump\t// in\n    tag_626:\n        /* \"#utility.yul\":20213:20242   */\n      tag_627\n        /* \"#utility.yul\":20235:20241   */\n      dup2\n        /* \"#utility.yul\":20213:20242   */\n      tag_346\n      jump\t// in\n    tag_627:\n        /* \"#utility.yul\":20208:20211   */\n      dup5\n        /* \"#utility.yul\":20204:20243   */\n      add\n        /* \"#utility.yul\":20197:20243   */\n      swap2\n      pop\n        /* \"#utility.yul\":19966:20249   */\n      pop\n        /* \"#utility.yul\":19876:20249   */\n      swap3\n      swap2\n      pop\n      pop\n      jump\t// out\n        /* \"#utility.yul\":20255:20895   */\n    tag_254:\n        /* \"#utility.yul\":20450:20454   */\n      0x00\n        /* \"#utility.yul\":20488:20491   */\n      0x80\n        /* \"#utility.yul\":20477:20486   */\n      dup3\n        /* \"#utility.yul\":20473:20492   */\n      add\n        /* \"#utility.yul\":20465:20492   */\n      swap1\n      pop\n        /* \"#utility.yul\":20502:20573   */\n      tag_629\n        /* \"#utility.yul\":20570:20571   */\n      0x00\n        /* \"#utility.yul\":20559:20568   */\n      dup4\n        /* \"#utility.yul\":20555:20572   */\n      add\n        /* \"#utility.yul\":20546:20552   */\n      dup8\n        /* \"#utility.yul\":20502:20573   */\n      tag_353\n      jump\t// in\n    tag_629:\n        /* \"#utility.yul\":20583:20655   */\n      tag_630\n        /* \"#utility.yul\":20651:20653   */\n      0x20\n        /* \"#utility.yul\":20640:20649   */\n      dup4\n        /* \"#utility.yul\":20636:20654   */\n      add\n        /* \"#utility.yul\":20627:20633   */\n      dup7\n        /* \"#utility.yul\":20583:20655   */\n      tag_353\n      jump\t// in\n    tag_630:\n        /* \"#utility.yul\":20665:20737   */\n      tag_631\n        /* \"#utility.yul\":20733:20735   */\n      0x40\n        /* \"#utility.yul\":20722:20731   */\n      dup4\n        /* \"#utility.yul\":20718:20736   */\n      add\n        /* \"#utility.yul\":20709:20715   */\n      dup6\n        /* \"#utility.yul\":20665:20737   */\n      tag_356\n      jump\t// in\n    tag_631:\n        /* \"#utility.yul\":20784:20793   */\n      dup2\n        /* \"#utility.yul\":20778:20782   */\n      dup2\n        /* \"#utility.yul\":20774:20794   */\n      sub\n        /* \"#utility.yul\":20769:20771   */\n      0x60\n        /* \"#utility.yul\":20758:20767   */\n      dup4\n        /* \"#utility.yul\":20754:20772   */\n      add\n        /* \"#utility.yul\":20747:20795   */\n      mstore\n        /* \"#utility.yul\":20812:20888   */\n      tag_632\n        /* \"#utility.yul\":20883:20887   */\n      dup2\n        /* \"#utility.yul\":20874:20880   */\n      dup5\n        /* \"#utility.yul\":20812:20888   */\n      tag_392\n      jump\t// in\n    tag_632:\n        /* \"#utility.yul\":20804:20888   */\n      swap1\n      pop\n        /* \"#utility.yul\":20255:20895   */\n      swap6\n      swap5\n      pop\n      pop\n      pop\n      pop\n      pop\n      jump\t// out\n        /* \"#utility.yul\":20901:21042   */\n    tag_393:\n        /* \"#utility.yul\":20957:20962   */\n      0x00\n        /* \"#utility.yul\":20988:20994   */\n      dup2\n        /* \"#utility.yul\":20982:20995   */\n      mload\n        /* \"#utility.yul\":20973:20995   */\n      swap1\n      pop\n        /* \"#utility.yul\":21004:21036   */\n      tag_634\n        /* \"#utility.yul\":21030:21035   */\n      dup2\n        /* \"#utility.yul\":21004:21036   */\n      tag_339\n      jump\t// in\n    tag_634:\n        /* \"#utility.yul\":20901:21042   */\n      swap3\n      swap2\n      pop\n      pop\n      jump\t// out\n        /* \"#utility.yul\":21048:21397   */\n    tag_257:\n        /* \"#utility.yul\":21117:21123   */\n      0x00\n        /* \"#utility.yul\":21166:21168   */\n      0x20\n        /* \"#utility.yul\":21154:21163   */\n      dup3\n        /* \"#utility.yul\":21145:21152   */\n      dup5\n        /* \"#utility.yul\":21141:21164   */\n      sub\n        /* \"#utility.yul\":21137:21169   */\n      slt\n        /* \"#utility.yul\":21134:21253   */\n      iszero\n      tag_636\n      jumpi\n        /* \"#utility.yul\":21172:21251   */\n      tag_637\n      tag_336\n      jump\t// in\n    tag_637:\n        /* \"#utility.yul\":21134:21253   */\n    tag_636:\n        /* \"#utility.yul\":21292:21293   */\n      0x00\n        /* \"#utility.yul\":21317:21380   */\n      tag_638\n        /* \"#utility.yul\":21372:21379   */\n      dup5\n        /* \"#utility.yul\":21363:21369   */\n      dup3\n        /* \"#utility.yul\":21352:21361   */\n      dup6\n        /* \"#utility.yul\":21348:21370   */\n      add\n        /* \"#utility.yul\":21317:21380   */\n      tag_393\n      jump\t// in\n    tag_638:\n        /* \"#utility.yul\":21307:21380   */\n      swap2\n      pop\n        /* \"#utility.yul\":21263:21390   */\n      pop\n        /* \"#utility.yul\":21048:21397   */\n      swap3\n      swap2\n      pop\n      pop\n      jump\t// out\n        /* \"#utility.yul\":21403:21838   */\n    tag_282:\n        /* \"#utility.yul\":21583:21586   */\n      0x00\n        /* \"#utility.yul\":21605:21700   */\n      tag_640\n        /* \"#utility.yul\":21696:21699   */\n      dup3\n        /* \"#utility.yul\":21687:21693   */\n      dup6\n        /* \"#utility.yul\":21605:21700   */\n      tag_371\n      jump\t// in\n    tag_640:\n        /* \"#utility.yul\":21598:21700   */\n      swap2\n      pop\n        /* \"#utility.yul\":21717:21812   */\n      tag_641\n        /* \"#utility.yul\":21808:21811   */\n      dup3\n        /* \"#utility.yul\":21799:21805   */\n      dup5\n        /* \"#utility.yul\":21717:21812   */\n      tag_371\n      jump\t// in\n    tag_641:\n        /* \"#utility.yul\":21710:21812   */\n      swap2\n      pop\n        /* \"#utility.yul\":21829:21832   */\n      dup2\n        /* \"#utility.yul\":21822:21832   */\n      swap1\n      pop\n        /* \"#utility.yul\":21403:21838   */\n      swap4\n      swap3\n      pop\n      pop\n      pop\n      jump\t// out\n        /* \"#utility.yul\":21844:22176   */\n    tag_309:\n        /* \"#utility.yul\":21965:21969   */\n      0x00\n        /* \"#utility.yul\":22003:22005   */\n      0x40\n        /* \"#utility.yul\":21992:22001   */\n      dup3\n        /* \"#utility.yul\":21988:22006   */\n      add\n        /* \"#utility.yul\":21980:22006   */\n      swap1\n      pop\n        /* \"#utility.yul\":22016:22087   */\n      tag_643\n        /* \"#utility.yul\":22084:22085   */\n      0x00\n        /* \"#utility.yul\":22073:22082   */\n      dup4\n        /* \"#utility.yul\":22069:22086   */\n      add\n        /* \"#utility.yul\":22060:22066   */\n      dup6\n        /* \"#utility.yul\":22016:22087   */\n      tag_353\n      jump\t// in\n    tag_643:\n        /* \"#utility.yul\":22097:22169   */\n      tag_644\n        /* \"#utility.yul\":22165:22167   */\n      0x20\n        /* \"#utility.yul\":22154:22163   */\n      dup4\n        /* \"#utility.yul\":22150:22168   */\n      add\n        /* \"#utility.yul\":22141:22147   */\n      dup5\n        /* \"#utility.yul\":22097:22169   */\n      tag_356\n      jump\t// in\n    tag_644:\n        /* \"#utility.yul\":21844:22176   */\n      swap4\n      swap3\n      pop\n      pop\n      pop\n      jump\t// out\n    stop\n    data_1250311f865916c0c48ec18be7711c5b67f23674d6e827435103b8b03cf0ba32 697066733a2f2f516d61633839735a545347764b6b795961327672786452616b5052456147464a534e4a52525765747a544c51544d2f\n\n    auxdata: 0xa2646970667358221220a4156b5470f38791730aa3a95aad0cc004e94be98e5bdcc2d49c088af2d49e4b64736f6c63430008150033\n}\n",
				"bytecode": {
					"linkReferences": {},
					"object": "608060405234801562000010575f80fd5b50336040518060400160405280600481526020017f65373231000000000000000000000000000000000000000000000000000000008152506040518060400160405280600381526020017f3732310000000000000000000000000000000000000000000000000000000000815250815f90816200008e919062000455565b508060019081620000a0919062000455565b5050505f73ffffffffffffffffffffffffffffffffffffffff168173ffffffffffffffffffffffffffffffffffffffff160362000116575f6040517f1e4fbdf70000000000000000000000000000000000000000000000000000000081526004016200010d91906200057c565b60405180910390fd5b62000127816200012e60201b60201c565b5062000597565b5f60075f9054906101000a900473ffffffffffffffffffffffffffffffffffffffff1690508160075f6101000a81548173ffffffffffffffffffffffffffffffffffffffff021916908373ffffffffffffffffffffffffffffffffffffffff1602179055508173ffffffffffffffffffffffffffffffffffffffff168173ffffffffffffffffffffffffffffffffffffffff167f8be0079c531659141344cd1fd0a4f28419497f9722a3daafe3b4186f6b6457e060405160405180910390a35050565b5f81519050919050565b7f4e487b71000000000000000000000000000000000000000000000000000000005f52604160045260245ffd5b7f4e487b71000000000000000000000000000000000000000000000000000000005f52602260045260245ffd5b5f60028204905060018216806200026d57607f821691505b60208210810362000283576200028262000228565b5b50919050565b5f819050815f5260205f209050919050565b5f6020601f8301049050919050565b5f82821b905092915050565b5f60088302620002e77fffffffffffffffffffffffffffffffffffffffffffffffffffffffffffffffff82620002aa565b620002f38683620002aa565b95508019841693508086168417925050509392505050565b5f819050919050565b5f819050919050565b5f6200033d6200033762000331846200030b565b62000314565b6200030b565b9050919050565b5f819050919050565b62000358836200031d565b62000370620003678262000344565b848454620002b6565b825550505050565b5f90565b6200038662000378565b620003938184846200034d565b505050565b5b81811015620003ba57620003ae5f826200037c565b60018101905062000399565b5050565b601f8211156200040957620003d38162000289565b620003de846200029b565b81016020851015620003ee578190505b62000406620003fd856200029b565b83018262000398565b50505b505050565b5f82821c905092915050565b5f6200042b5f19846008026200040e565b1980831691505092915050565b5f6200044583836200041a565b9150826002028217905092915050565b6200046082620001f1565b67ffffffffffffffff8111156200047c576200047b620001fb565b5b62000488825462000255565b62000495828285620003be565b5f60209050601f831160018114620004cb575f8415620004b6578287015190505b620004c2858262000438565b86555062000531565b601f198416620004db8662000289565b5f5b828110156200050457848901518255600182019150602085019450602081019050620004dd565b8683101562000524578489015162000520601f8916826200041a565b8355505b6001600288020188555050505b505050505050565b5f73ffffffffffffffffffffffffffffffffffffffff82169050919050565b5f620005648262000539565b9050919050565b620005768162000558565b82525050565b5f602082019050620005915f8301846200056b565b92915050565b6126db80620005a55f395ff3fe608060405234801561000f575f80fd5b5060043610610114575f3560e01c806370a08231116100a0578063a22cb4651161006f578063a22cb465146102c8578063b88d4fde146102e4578063c87b56dd14610300578063e985e9c514610330578063f2fde38b1461036057610114565b806370a0823114610252578063715018a6146102825780638da5cb5b1461028c57806395d89b41146102aa57610114565b806323b872dd116100e757806323b872dd146101b257806340d097c3146101ce57806342842e0e146101ea57806342966c68146102065780636352211e1461022257610114565b806301ffc9a71461011857806306fdde0314610148578063081812fc14610166578063095ea7b314610196575b5f80fd5b610132600480360381019061012d9190611ab0565b61037c565b60405161013f9190611af5565b60405180910390f35b61015061038d565b60405161015d9190611b98565b60405180910390f35b610180600480360381019061017b9190611beb565b61041c565b60405161018d9190611c55565b60405180910390f35b6101b060048036038101906101ab9190611c98565b610437565b005b6101cc60048036038101906101c79190611cd6565b61044d565b005b6101e860048036038101906101e39190611d26565b61054c565b005b61020460048036038101906101ff9190611cd6565b610631565b005b610220600480360381019061021b9190611beb565b610650565b005b61023c60048036038101906102379190611beb565b610666565b6040516102499190611c55565b60405180910390f35b61026c60048036038101906102679190611d26565b610677565b6040516102799190611d60565b60405180910390f35b61028a61072d565b005b610294610740565b6040516102a19190611c55565b60405180910390f35b6102b2610768565b6040516102bf9190611b98565b60405180910390f35b6102e260048036038101906102dd9190611da3565b6107f8565b005b6102fe60048036038101906102f99190611f0d565b61080e565b005b61031a60048036038101906103159190611beb565b61082b565b6040516103279190611b98565b60405180910390f35b61034a60048036038101906103459190611f8d565b61083d565b6040516103579190611af5565b60405180910390f35b61037a60048036038101906103759190611d26565b6108cb565b005b5f6103868261094f565b9050919050565b60605f805461039b90611ff8565b80601f01602080910402602001604051908101604052809291908181526020018280546103c790611ff8565b80156104125780601f106103e957610100808354040283529160200191610412565b820191905f5260205f20905b8154815290600101906020018083116103f557829003601f168201915b5050505050905090565b5f610426826109af565b5061043082610a35565b9050919050565b6104498282610444610a6e565b610a75565b5050565b5f73ffffffffffffffffffffffffffffffffffffffff168273ffffffffffffffffffffffffffffffffffffffff16036104bd575f6040517f64a0ae920000000000000000000000000000000000000000000000000000000081526004016104b49190611c55565b60405180910390fd5b5f6104d083836104cb610a6e565b610a87565b90508373ffffffffffffffffffffffffffffffffffffffff168173ffffffffffffffffffffffffffffffffffffffff1614610546578382826040517f64283d7b00000000000000000000000000000000000000000000000000000000815260040161053d93929190612028565b60405180910390fd5b50505050565b60095f9054906101000a900460ff161561059b576040517f08c379a0000000000000000000000000000000000000000000000000000000008152600401610592906120a7565b60405180910390fd5b600160095f6101000a81548160ff0219169083151502179055506105bd610c92565b5f6105c86008610d19565b90506105d46008610d25565b5f6105de82610d39565b6040516020016105ee9190612125565b60405160208183030381529060405290506106098282610e92565b6106138383610eec565b50505f60095f6101000a81548160ff02191690831515021790555050565b61064b83838360405180602001604052805f81525061080e565b505050565b6106625f8261065d610a6e565b610a87565b5050565b5f610670826109af565b9050919050565b5f8073ffffffffffffffffffffffffffffffffffffffff168273ffffffffffffffffffffffffffffffffffffffff16036106e8575f6040517f89c62b640000000000000000000000000000000000000000000000000000000081526004016106df9190611c55565b60405180910390fd5b60035f8373ffffffffffffffffffffffffffffffffffffffff1673ffffffffffffffffffffffffffffffffffffffff1681526020019081526020015f20549050919050565b610735610c92565b61073e5f610f09565b565b5f60075f9054906101000a900473ffffffffffffffffffffffffffffffffffffffff16905090565b60606001805461077790611ff8565b80601f01602080910402602001604051908101604052809291908181526020018280546107a390611ff8565b80156107ee5780601f106107c5576101008083540402835291602001916107ee565b820191905f5260205f20905b8154815290600101906020018083116107d157829003601f168201915b5050505050905090565b61080a610803610a6e565b8383610fcc565b5050565b61081984848461044d565b61082584848484611135565b50505050565b6060610836826112e6565b9050919050565b5f60055f8473ffffffffffffffffffffffffffffffffffffffff1673ffffffffffffffffffffffffffffffffffffffff1681526020019081526020015f205f8373ffffffffffffffffffffffffffffffffffffffff1673ffffffffffffffffffffffffffffffffffffffff1681526020019081526020015f205f9054906101000a900460ff16905092915050565b6108d3610c92565b5f73ffffffffffffffffffffffffffffffffffffffff168173ffffffffffffffffffffffffffffffffffffffff1603610943575f6040517f1e4fbdf700000000000000000000000000000000000000000000000000000000815260040161093a9190611c55565b60405180910390fd5b61094c81610f09565b50565b5f634906490660e01b7bffffffffffffffffffffffffffffffffffffffffffffffffffffffff1916827bffffffffffffffffffffffffffffffffffffffffffffffffffffffff191614806109a857506109a7826113f1565b5b9050919050565b5f806109ba836114d2565b90505f73ffffffffffffffffffffffffffffffffffffffff168173ffffffffffffffffffffffffffffffffffffffff1603610a2c57826040517f7e273289000000000000000000000000000000000000000000000000000000008152600401610a239190611d60565b60405180910390fd5b80915050919050565b5f60045f8381526020019081526020015f205f9054906101000a900473ffffffffffffffffffffffffffffffffffffffff169050919050565b5f33905090565b610a82838383600161150b565b505050565b5f80610a92846114d2565b90505f73ffffffffffffffffffffffffffffffffffffffff168373ffffffffffffffffffffffffffffffffffffffff1614610ad357610ad28184866116ca565b5b5f73ffffffffffffffffffffffffffffffffffffffff168173ffffffffffffffffffffffffffffffffffffffff1614610b5e57610b125f855f8061150b565b600160035f8373ffffffffffffffffffffffffffffffffffffffff1673ffffffffffffffffffffffffffffffffffffffff1681526020019081526020015f205f82825403925050819055505b5f73ffffffffffffffffffffffffffffffffffffffff168573ffffffffffffffffffffffffffffffffffffffff1614610bdd57600160035f8773ffffffffffffffffffffffffffffffffffffffff1673ffffffffffffffffffffffffffffffffffffffff1681526020019081526020015f205f82825401925050819055505b8460025f8681526020019081526020015f205f6101000a81548173ffffffffffffffffffffffffffffffffffffffff021916908373ffffffffffffffffffffffffffffffffffffffff160217905550838573ffffffffffffffffffffffffffffffffffffffff168273ffffffffffffffffffffffffffffffffffffffff167fddf252ad1be2c89b69c2b068fc378daa952ba7f163c4a11628f55a4df523b3ef60405160405180910390a4809150509392505050565b610c9a610a6e565b73ffffffffffffffffffffffffffffffffffffffff16610cb8610740565b73ffffffffffffffffffffffffffffffffffffffff1614610d1757610cdb610a6e565b6040517f118cdaa7000000000000000000000000000000000000000000000000000000008152600401610d0e9190611c55565b60405180910390fd5b565b5f815f01549050919050565b6001815f015f828254019250508190555050565b60605f8203610d7f576040518060400160405280600181526020017f30000000000000000000000000000000000000000000000000000000000000008152509050610e8d565b5f8290505f5b5f8214610dae578080610d9790612177565b915050600a82610da791906121eb565b9150610d85565b5f8167ffffffffffffffff811115610dc957610dc8611de9565b5b6040519080825280601f01601f191660200182016040528015610dfb5781602001600182028036833780820191505090505b5090505b5f8514610e8657600182610e13919061221b565b9150600a85610e22919061224e565b6030610e2e919061227e565b60f81b818381518110610e4457610e436122b1565b5b60200101907effffffffffffffffffffffffffffffffffffffffffffffffffffffffffffff191690815f1a905350600a85610e7f91906121eb565b9450610dff565b8093505050505b919050565b8060065f8481526020019081526020015f209081610eb0919061247b565b507ff8e1a15aba9398e019f0b49df1a4fde98ee17ae345cb5f6b5e2c27f5033e8ce782604051610ee09190611d60565b60405180910390a15050565b610f05828260405180602001604052805f81525061178d565b5050565b5f60075f9054906101000a900473ffffffffffffffffffffffffffffffffffffffff1690508160075f6101000a81548173ffffffffffffffffffffffffffffffffffffffff021916908373ffffffffffffffffffffffffffffffffffffffff1602179055508173ffffffffffffffffffffffffffffffffffffffff168173ffffffffffffffffffffffffffffffffffffffff167f8be0079c531659141344cd1fd0a4f28419497f9722a3daafe3b4186f6b6457e060405160405180910390a35050565b5f73ffffffffffffffffffffffffffffffffffffffff168273ffffffffffffffffffffffffffffffffffffffff160361103c57816040517f5b08ba180000000000000000000000000000000000000000000000000000000081526004016110339190611c55565b60405180910390fd5b8060055f8573ffffffffffffffffffffffffffffffffffffffff1673ffffffffffffffffffffffffffffffffffffffff1681526020019081526020015f205f8473ffffffffffffffffffffffffffffffffffffffff1673ffffffffffffffffffffffffffffffffffffffff1681526020019081526020015f205f6101000a81548160ff0219169083151502179055508173ffffffffffffffffffffffffffffffffffffffff168373ffffffffffffffffffffffffffffffffffffffff167f17307eab39ab6107e8899845ad3d59bd9653f200f220920489ca2b5937696c31836040516111289190611af5565b60405180910390a3505050565b5f8373ffffffffffffffffffffffffffffffffffffffff163b11156112e0578273ffffffffffffffffffffffffffffffffffffffff1663150b7a02611178610a6e565b8685856040518563ffffffff1660e01b815260040161119a949392919061259c565b6020604051808303815f875af19250505080156111d557506040513d601f19601f820116820180604052508101906111d291906125fa565b60015b611254573d805f8114611203576040519150601f19603f3d011682016040523d82523d5f602084013e611208565b606091505b505f81510361124e57836040517f64a0ae920000000000000000000000000000000000000000000000000000000081526004016112459190611c55565b60405180910390fd5b506112df565b63150b7a0260e01b7bffffffffffffffffffffffffffffffffffffffffffffffffffffffff1916817bffffffffffffffffffffffffffffffffffffffffffffffffffffffff1916146112dd57836040517f64a0ae920000000000000000000000000000000000000000000000000000000081526004016112d49190611c55565b60405180910390fd5b505b5b50505050565b60606112f1826109af565b505f60065f8481526020019081526020015f20805461130f90611ff8565b80601f016020809104026020016040519081016040528092919081815260200182805461133b90611ff8565b80156113865780601f1061135d57610100808354040283529160200191611386565b820191905f5260205f20905b81548152906001019060200180831161136957829003601f168201915b505050505090505f6113966117a8565b90505f8151036113aa5781925050506113ec565b5f825111156113de5780826040516020016113c6929190612625565b604051602081830303815290604052925050506113ec565b6113e7846117c8565b925050505b919050565b5f7f80ac58cd000000000000000000000000000000000000000000000000000000007bffffffffffffffffffffffffffffffffffffffffffffffffffffffff1916827bffffffffffffffffffffffffffffffffffffffffffffffffffffffff191614806114bb57507f5b5e139f000000000000000000000000000000000000000000000000000000007bffffffffffffffffffffffffffffffffffffffffffffffffffffffff1916827bffffffffffffffffffffffffffffffffffffffffffffffffffffffff1916145b806114cb57506114ca8261182e565b5b9050919050565b5f60025f8381526020019081526020015f205f9054906101000a900473ffffffffffffffffffffffffffffffffffffffff169050919050565b808061154357505f73ffffffffffffffffffffffffffffffffffffffff168273ffffffffffffffffffffffffffffffffffffffff1614155b15611675575f611552846109af565b90505f73ffffffffffffffffffffffffffffffffffffffff168373ffffffffffffffffffffffffffffffffffffffff16141580156115bc57508273ffffffffffffffffffffffffffffffffffffffff168173ffffffffffffffffffffffffffffffffffffffff1614155b80156115cf57506115cd818461083d565b155b1561161157826040517fa9fbf51f0000000000000000000000000000000000000000000000000000000081526004016116089190611c55565b60405180910390fd5b811561167357838573ffffffffffffffffffffffffffffffffffffffff168273ffffffffffffffffffffffffffffffffffffffff167f8c5be1e5ebec7d5bd14f71427d1e84f3dd0314c0f7b2291e5b200ac8c7c3b92560405160405180910390a45b505b8360045f8581526020019081526020015f205f6101000a81548173ffffffffffffffffffffffffffffffffffffffff021916908373ffffffffffffffffffffffffffffffffffffffff16021790555050505050565b6116d5838383611897565b611788575f73ffffffffffffffffffffffffffffffffffffffff168373ffffffffffffffffffffffffffffffffffffffff160361174957806040517f7e2732890000000000000000000000000000000000000000000000000000000081526004016117409190611d60565b60405180910390fd5b81816040517f177e802f00000000000000000000000000000000000000000000000000000000815260040161177f929190612648565b60405180910390fd5b505050565b6117978383611957565b6117a35f848484611135565b505050565b606060405180606001604052806036815260200161267060369139905090565b60606117d3826109af565b505f6117dd6117a8565b90505f8151116117fb5760405180602001604052805f815250611826565b8061180584610d39565b604051602001611816929190612625565b6040516020818303038152906040525b915050919050565b5f7f01ffc9a7000000000000000000000000000000000000000000000000000000007bffffffffffffffffffffffffffffffffffffffffffffffffffffffff1916827bffffffffffffffffffffffffffffffffffffffffffffffffffffffff1916149050919050565b5f8073ffffffffffffffffffffffffffffffffffffffff168373ffffffffffffffffffffffffffffffffffffffff161415801561194e57508273ffffffffffffffffffffffffffffffffffffffff168473ffffffffffffffffffffffffffffffffffffffff16148061190f575061190e848461083d565b5b8061194d57508273ffffffffffffffffffffffffffffffffffffffff1661193583610a35565b73ffffffffffffffffffffffffffffffffffffffff16145b5b90509392505050565b5f73ffffffffffffffffffffffffffffffffffffffff168273ffffffffffffffffffffffffffffffffffffffff16036119c7575f6040517f64a0ae920000000000000000000000000000000000000000000000000000000081526004016119be9190611c55565b60405180910390fd5b5f6119d383835f610a87565b90505f73ffffffffffffffffffffffffffffffffffffffff168173ffffffffffffffffffffffffffffffffffffffff1614611a45575f6040517f73c6ac6e000000000000000000000000000000000000000000000000000000008152600401611a3c9190611c55565b60405180910390fd5b505050565b5f604051905090565b5f80fd5b5f80fd5b5f7fffffffff0000000000000000000000000000000000000000000000000000000082169050919050565b611a8f81611a5b565b8114611a99575f80fd5b50565b5f81359050611aaa81611a86565b92915050565b5f60208284031215611ac557611ac4611a53565b5b5f611ad284828501611a9c565b91505092915050565b5f8115159050919050565b611aef81611adb565b82525050565b5f602082019050611b085f830184611ae6565b92915050565b5f81519050919050565b5f82825260208201905092915050565b5f5b83811015611b45578082015181840152602081019050611b2a565b5f8484015250505050565b5f601f19601f8301169050919050565b5f611b6a82611b0e565b611b748185611b18565b9350611b84818560208601611b28565b611b8d81611b50565b840191505092915050565b5f6020820190508181035f830152611bb08184611b60565b905092915050565b5f819050919050565b611bca81611bb8565b8114611bd4575f80fd5b50565b5f81359050611be581611bc1565b92915050565b5f60208284031215611c0057611bff611a53565b5b5f611c0d84828501611bd7565b91505092915050565b5f73ffffffffffffffffffffffffffffffffffffffff82169050919050565b5f611c3f82611c16565b9050919050565b611c4f81611c35565b82525050565b5f602082019050611c685f830184611c46565b92915050565b611c7781611c35565b8114611c81575f80fd5b50565b5f81359050611c9281611c6e565b92915050565b5f8060408385031215611cae57611cad611a53565b5b5f611cbb85828601611c84565b9250506020611ccc85828601611bd7565b9150509250929050565b5f805f60608486031215611ced57611cec611a53565b5b5f611cfa86828701611c84565b9350506020611d0b86828701611c84565b9250506040611d1c86828701611bd7565b9150509250925092565b5f60208284031215611d3b57611d3a611a53565b5b5f611d4884828501611c84565b91505092915050565b611d5a81611bb8565b82525050565b5f602082019050611d735f830184611d51565b92915050565b611d8281611adb565b8114611d8c575f80fd5b50565b5f81359050611d9d81611d79565b92915050565b5f8060408385031215611db957611db8611a53565b5b5f611dc685828601611c84565b9250506020611dd785828601611d8f565b9150509250929050565b5f80fd5b5f80fd5b7f4e487b71000000000000000000000000000000000000000000000000000000005f52604160045260245ffd5b611e1f82611b50565b810181811067ffffffffffffffff82111715611e3e57611e3d611de9565b5b80604052505050565b5f611e50611a4a565b9050611e5c8282611e16565b919050565b5f67ffffffffffffffff821115611e7b57611e7a611de9565b5b611e8482611b50565b9050602081019050919050565b828183375f83830152505050565b5f611eb1611eac84611e61565b611e47565b905082815260208101848484011115611ecd57611ecc611de5565b5b611ed8848285611e91565b509392505050565b5f82601f830112611ef457611ef3611de1565b5b8135611f04848260208601611e9f565b91505092915050565b5f805f8060808587031215611f2557611f24611a53565b5b5f611f3287828801611c84565b9450506020611f4387828801611c84565b9350506040611f5487828801611bd7565b925050606085013567ffffffffffffffff811115611f7557611f74611a57565b5b611f8187828801611ee0565b91505092959194509250565b5f8060408385031215611fa357611fa2611a53565b5b5f611fb085828601611c84565b9250506020611fc185828601611c84565b9150509250929050565b7f4e487b71000000000000000000000000000000000000000000000000000000005f52602260045260245ffd5b5f600282049050600182168061200f57607f821691505b60208210810361202257612021611fcb565b5b50919050565b5f60608201905061203b5f830186611c46565b6120486020830185611d51565b6120556040830184611c46565b949350505050565b7f5265656e7472616e742063616c6c2064657465637465640000000000000000005f82015250565b5f612091601783611b18565b915061209c8261205d565b602082019050919050565b5f6020820190508181035f8301526120be81612085565b9050919050565b5f81905092915050565b5f6120d982611b0e565b6120e381856120c5565b93506120f3818560208601611b28565b80840191505092915050565b7f2e6a736f6e000000000000000000000000000000000000000000000000000000815250565b5f61213082846120cf565b915061213b826120ff565b60058201915081905092915050565b7f4e487b71000000000000000000000000000000000000000000000000000000005f52601160045260245ffd5b5f61218182611bb8565b91507fffffffffffffffffffffffffffffffffffffffffffffffffffffffffffffffff82036121b3576121b261214a565b5b600182019050919050565b7f4e487b71000000000000000000000000000000000000000000000000000000005f52601260045260245ffd5b5f6121f582611bb8565b915061220083611bb8565b9250826122105761220f6121be565b5b828204905092915050565b5f61222582611bb8565b915061223083611bb8565b92508282039050818111156122485761224761214a565b5b92915050565b5f61225882611bb8565b915061226383611bb8565b925082612273576122726121be565b5b828206905092915050565b5f61228882611bb8565b915061229383611bb8565b92508282019050808211156122ab576122aa61214a565b5b92915050565b7f4e487b71000000000000000000000000000000000000000000000000000000005f52603260045260245ffd5b5f819050815f5260205f209050919050565b5f6020601f8301049050919050565b5f82821b905092915050565b5f6008830261233a7fffffffffffffffffffffffffffffffffffffffffffffffffffffffffffffffff826122ff565b61234486836122ff565b95508019841693508086168417925050509392505050565b5f819050919050565b5f61237f61237a61237584611bb8565b61235c565b611bb8565b9050919050565b5f819050919050565b61239883612365565b6123ac6123a482612386565b84845461230b565b825550505050565b5f90565b6123c06123b4565b6123cb81848461238f565b505050565b5b818110156123ee576123e35f826123b8565b6001810190506123d1565b5050565b601f82111561243357612404816122de565b61240d846122f0565b8101602085101561241c578190505b612430612428856122f0565b8301826123d0565b50505b505050565b5f82821c905092915050565b5f6124535f1984600802612438565b1980831691505092915050565b5f61246b8383612444565b9150826002028217905092915050565b61248482611b0e565b67ffffffffffffffff81111561249d5761249c611de9565b5b6124a78254611ff8565b6124b28282856123f2565b5f60209050601f8311600181146124e3575f84156124d1578287015190505b6124db8582612460565b865550612542565b601f1984166124f1866122de565b5f5b82811015612518578489015182556001820191506020850194506020810190506124f3565b868310156125355784890151612531601f891682612444565b8355505b6001600288020188555050505b505050505050565b5f81519050919050565b5f82825260208201905092915050565b5f61256e8261254a565b6125788185612554565b9350612588818560208601611b28565b61259181611b50565b840191505092915050565b5f6080820190506125af5f830187611c46565b6125bc6020830186611c46565b6125c96040830185611d51565b81810360608301526125db8184612564565b905095945050505050565b5f815190506125f481611a86565b92915050565b5f6020828403121561260f5761260e611a53565b5b5f61261c848285016125e6565b91505092915050565b5f61263082856120cf565b915061263c82846120cf565b91508190509392505050565b5f60408201905061265b5f830185611c46565b6126686020830184611d51565b939250505056fe697066733a2f2f516d61633839735a545347764b6b795961327672786452616b5052456147464a534e4a52525765747a544c51544d2fa2646970667358221220a4156b5470f38791730aa3a95aad0cc004e94be98e5bdcc2d49c088af2d49e4b64736f6c63430008150033",
					"opcodes": "PUSH1 0x80 PUSH1 0x40 MSTORE CALLVALUE DUP1 ISZERO PUSH3 0x10 JUMPI PUSH0 DUP1 REVERT JUMPDEST POP CALLER PUSH1 0x40 MLOAD DUP1 PUSH1 0x40 ADD PUSH1 0x40 MSTORE DUP1 PUSH1 0x4 DUP2 MSTORE PUSH1 0x20 ADD PUSH32 0x6537323100000000000000000000000000000000000000000000000000000000 DUP2 MSTORE POP PUSH1 0x40 MLOAD DUP1 PUSH1 0x40 ADD PUSH1 0x40 MSTORE DUP1 PUSH1 0x3 DUP2 MSTORE PUSH1 0x20 ADD PUSH32 0x3732310000000000000000000000000000000000000000000000000000000000 DUP2 MSTORE POP DUP2 PUSH0 SWAP1 DUP2 PUSH3 0x8E SWAP2 SWAP1 PUSH3 0x455 JUMP JUMPDEST POP DUP1 PUSH1 0x1 SWAP1 DUP2 PUSH3 0xA0 SWAP2 SWAP1 PUSH3 0x455 JUMP JUMPDEST POP POP POP PUSH0 PUSH20 0xFFFFFFFFFFFFFFFFFFFFFFFFFFFFFFFFFFFFFFFF AND DUP2 PUSH20 0xFFFFFFFFFFFFFFFFFFFFFFFFFFFFFFFFFFFFFFFF AND SUB PUSH3 0x116 JUMPI PUSH0 PUSH1 0x40 MLOAD PUSH32 0x1E4FBDF700000000000000000000000000000000000000000000000000000000 DUP2 MSTORE PUSH1 0x4 ADD PUSH3 0x10D SWAP2 SWAP1 PUSH3 0x57C JUMP JUMPDEST PUSH1 0x40 MLOAD DUP1 SWAP2 SUB SWAP1 REVERT JUMPDEST PUSH3 0x127 DUP2 PUSH3 0x12E PUSH1 0x20 SHL PUSH1 0x20 SHR JUMP JUMPDEST POP PUSH3 0x597 JUMP JUMPDEST PUSH0 PUSH1 0x7 PUSH0 SWAP1 SLOAD SWAP1 PUSH2 0x100 EXP SWAP1 DIV PUSH20 0xFFFFFFFFFFFFFFFFFFFFFFFFFFFFFFFFFFFFFFFF AND SWAP1 POP DUP2 PUSH1 0x7 PUSH0 PUSH2 0x100 EXP DUP2 SLOAD DUP2 PUSH20 0xFFFFFFFFFFFFFFFFFFFFFFFFFFFFFFFFFFFFFFFF MUL NOT AND SWAP1 DUP4 PUSH20 0xFFFFFFFFFFFFFFFFFFFFFFFFFFFFFFFFFFFFFFFF AND MUL OR SWAP1 SSTORE POP DUP2 PUSH20 0xFFFFFFFFFFFFFFFFFFFFFFFFFFFFFFFFFFFFFFFF AND DUP2 PUSH20 0xFFFFFFFFFFFFFFFFFFFFFFFFFFFFFFFFFFFFFFFF AND PUSH32 0x8BE0079C531659141344CD1FD0A4F28419497F9722A3DAAFE3B4186F6B6457E0 PUSH1 0x40 MLOAD PUSH1 0x40 MLOAD DUP1 SWAP2 SUB SWAP1 LOG3 POP POP JUMP JUMPDEST PUSH0 DUP2 MLOAD SWAP1 POP SWAP2 SWAP1 POP JUMP JUMPDEST PUSH32 0x4E487B7100000000000000000000000000000000000000000000000000000000 PUSH0 MSTORE PUSH1 0x41 PUSH1 0x4 MSTORE PUSH1 0x24 PUSH0 REVERT JUMPDEST PUSH32 0x4E487B7100000000000000000000000000000000000000000000000000000000 PUSH0 MSTORE PUSH1 0x22 PUSH1 0x4 MSTORE PUSH1 0x24 PUSH0 REVERT JUMPDEST PUSH0 PUSH1 0x2 DUP3 DIV SWAP1 POP PUSH1 0x1 DUP3 AND DUP1 PUSH3 0x26D JUMPI PUSH1 0x7F DUP3 AND SWAP2 POP JUMPDEST PUSH1 0x20 DUP3 LT DUP2 SUB PUSH3 0x283 JUMPI PUSH3 0x282 PUSH3 0x228 JUMP JUMPDEST JUMPDEST POP SWAP2 SWAP1 POP JUMP JUMPDEST PUSH0 DUP2 SWAP1 POP DUP2 PUSH0 MSTORE PUSH1 0x20 PUSH0 KECCAK256 SWAP1 POP SWAP2 SWAP1 POP JUMP JUMPDEST PUSH0 PUSH1 0x20 PUSH1 0x1F DUP4 ADD DIV SWAP1 POP SWAP2 SWAP1 POP JUMP JUMPDEST PUSH0 DUP3 DUP3 SHL SWAP1 POP SWAP3 SWAP2 POP POP JUMP JUMPDEST PUSH0 PUSH1 0x8 DUP4 MUL PUSH3 0x2E7 PUSH32 0xFFFFFFFFFFFFFFFFFFFFFFFFFFFFFFFFFFFFFFFFFFFFFFFFFFFFFFFFFFFFFFFF DUP3 PUSH3 0x2AA JUMP JUMPDEST PUSH3 0x2F3 DUP7 DUP4 PUSH3 0x2AA JUMP JUMPDEST SWAP6 POP DUP1 NOT DUP5 AND SWAP4 POP DUP1 DUP7 AND DUP5 OR SWAP3 POP POP POP SWAP4 SWAP3 POP POP POP JUMP JUMPDEST PUSH0 DUP2 SWAP1 POP SWAP2 SWAP1 POP JUMP JUMPDEST PUSH0 DUP2 SWAP1 POP SWAP2 SWAP1 POP JUMP JUMPDEST PUSH0 PUSH3 0x33D PUSH3 0x337 PUSH3 0x331 DUP5 PUSH3 0x30B JUMP JUMPDEST PUSH3 0x314 JUMP JUMPDEST PUSH3 0x30B JUMP JUMPDEST SWAP1 POP SWAP2 SWAP1 POP JUMP JUMPDEST PUSH0 DUP2 SWAP1 POP SWAP2 SWAP1 POP JUMP JUMPDEST PUSH3 0x358 DUP4 PUSH3 0x31D JUMP JUMPDEST PUSH3 0x370 PUSH3 0x367 DUP3 PUSH3 0x344 JUMP JUMPDEST DUP5 DUP5 SLOAD PUSH3 0x2B6 JUMP JUMPDEST DUP3 SSTORE POP POP POP POP JUMP JUMPDEST PUSH0 SWAP1 JUMP JUMPDEST PUSH3 0x386 PUSH3 0x378 JUMP JUMPDEST PUSH3 0x393 DUP2 DUP5 DUP5 PUSH3 0x34D JUMP JUMPDEST POP POP POP JUMP JUMPDEST JUMPDEST DUP2 DUP2 LT ISZERO PUSH3 0x3BA JUMPI PUSH3 0x3AE PUSH0 DUP3 PUSH3 0x37C JUMP JUMPDEST PUSH1 0x1 DUP2 ADD SWAP1 POP PUSH3 0x399 JUMP JUMPDEST POP POP JUMP JUMPDEST PUSH1 0x1F DUP3 GT ISZERO PUSH3 0x409 JUMPI PUSH3 0x3D3 DUP2 PUSH3 0x289 JUMP JUMPDEST PUSH3 0x3DE DUP5 PUSH3 0x29B JUMP JUMPDEST DUP2 ADD PUSH1 0x20 DUP6 LT ISZERO PUSH3 0x3EE JUMPI DUP2 SWAP1 POP JUMPDEST PUSH3 0x406 PUSH3 0x3FD DUP6 PUSH3 0x29B JUMP JUMPDEST DUP4 ADD DUP3 PUSH3 0x398 JUMP JUMPDEST POP POP JUMPDEST POP POP POP JUMP JUMPDEST PUSH0 DUP3 DUP3 SHR SWAP1 POP SWAP3 SWAP2 POP POP JUMP JUMPDEST PUSH0 PUSH3 0x42B PUSH0 NOT DUP5 PUSH1 0x8 MUL PUSH3 0x40E JUMP JUMPDEST NOT DUP1 DUP4 AND SWAP2 POP POP SWAP3 SWAP2 POP POP JUMP JUMPDEST PUSH0 PUSH3 0x445 DUP4 DUP4 PUSH3 0x41A JUMP JUMPDEST SWAP2 POP DUP3 PUSH1 0x2 MUL DUP3 OR SWAP1 POP SWAP3 SWAP2 POP POP JUMP JUMPDEST PUSH3 0x460 DUP3 PUSH3 0x1F1 JUMP JUMPDEST PUSH8 0xFFFFFFFFFFFFFFFF DUP2 GT ISZERO PUSH3 0x47C JUMPI PUSH3 0x47B PUSH3 0x1FB JUMP JUMPDEST JUMPDEST PUSH3 0x488 DUP3 SLOAD PUSH3 0x255 JUMP JUMPDEST PUSH3 0x495 DUP3 DUP3 DUP6 PUSH3 0x3BE JUMP JUMPDEST PUSH0 PUSH1 0x20 SWAP1 POP PUSH1 0x1F DUP4 GT PUSH1 0x1 DUP2 EQ PUSH3 0x4CB JUMPI PUSH0 DUP5 ISZERO PUSH3 0x4B6 JUMPI DUP3 DUP8 ADD MLOAD SWAP1 POP JUMPDEST PUSH3 0x4C2 DUP6 DUP3 PUSH3 0x438 JUMP JUMPDEST DUP7 SSTORE POP PUSH3 0x531 JUMP JUMPDEST PUSH1 0x1F NOT DUP5 AND PUSH3 0x4DB DUP7 PUSH3 0x289 JUMP JUMPDEST PUSH0 JUMPDEST DUP3 DUP2 LT ISZERO PUSH3 0x504 JUMPI DUP5 DUP10 ADD MLOAD DUP3 SSTORE PUSH1 0x1 DUP3 ADD SWAP2 POP PUSH1 0x20 DUP6 ADD SWAP5 POP PUSH1 0x20 DUP2 ADD SWAP1 POP PUSH3 0x4DD JUMP JUMPDEST DUP7 DUP4 LT ISZERO PUSH3 0x524 JUMPI DUP5 DUP10 ADD MLOAD PUSH3 0x520 PUSH1 0x1F DUP10 AND DUP3 PUSH3 0x41A JUMP JUMPDEST DUP4 SSTORE POP JUMPDEST PUSH1 0x1 PUSH1 0x2 DUP9 MUL ADD DUP9 SSTORE POP POP POP JUMPDEST POP POP POP POP POP POP JUMP JUMPDEST PUSH0 PUSH20 0xFFFFFFFFFFFFFFFFFFFFFFFFFFFFFFFFFFFFFFFF DUP3 AND SWAP1 POP SWAP2 SWAP1 POP JUMP JUMPDEST PUSH0 PUSH3 0x564 DUP3 PUSH3 0x539 JUMP JUMPDEST SWAP1 POP SWAP2 SWAP1 POP JUMP JUMPDEST PUSH3 0x576 DUP2 PUSH3 0x558 JUMP JUMPDEST DUP3 MSTORE POP POP JUMP JUMPDEST PUSH0 PUSH1 0x20 DUP3 ADD SWAP1 POP PUSH3 0x591 PUSH0 DUP4 ADD DUP5 PUSH3 0x56B JUMP JUMPDEST SWAP3 SWAP2 POP POP JUMP JUMPDEST PUSH2 0x26DB DUP1 PUSH3 0x5A5 PUSH0 CODECOPY PUSH0 RETURN INVALID PUSH1 0x80 PUSH1 0x40 MSTORE CALLVALUE DUP1 ISZERO PUSH2 0xF JUMPI PUSH0 DUP1 REVERT JUMPDEST POP PUSH1 0x4 CALLDATASIZE LT PUSH2 0x114 JUMPI PUSH0 CALLDATALOAD PUSH1 0xE0 SHR DUP1 PUSH4 0x70A08231 GT PUSH2 0xA0 JUMPI DUP1 PUSH4 0xA22CB465 GT PUSH2 0x6F JUMPI DUP1 PUSH4 0xA22CB465 EQ PUSH2 0x2C8 JUMPI DUP1 PUSH4 0xB88D4FDE EQ PUSH2 0x2E4 JUMPI DUP1 PUSH4 0xC87B56DD EQ PUSH2 0x300 JUMPI DUP1 PUSH4 0xE985E9C5 EQ PUSH2 0x330 JUMPI DUP1 PUSH4 0xF2FDE38B EQ PUSH2 0x360 JUMPI PUSH2 0x114 JUMP JUMPDEST DUP1 PUSH4 0x70A08231 EQ PUSH2 0x252 JUMPI DUP1 PUSH4 0x715018A6 EQ PUSH2 0x282 JUMPI DUP1 PUSH4 0x8DA5CB5B EQ PUSH2 0x28C JUMPI DUP1 PUSH4 0x95D89B41 EQ PUSH2 0x2AA JUMPI PUSH2 0x114 JUMP JUMPDEST DUP1 PUSH4 0x23B872DD GT PUSH2 0xE7 JUMPI DUP1 PUSH4 0x23B872DD EQ PUSH2 0x1B2 JUMPI DUP1 PUSH4 0x40D097C3 EQ PUSH2 0x1CE JUMPI DUP1 PUSH4 0x42842E0E EQ PUSH2 0x1EA JUMPI DUP1 PUSH4 0x42966C68 EQ PUSH2 0x206 JUMPI DUP1 PUSH4 0x6352211E EQ PUSH2 0x222 JUMPI PUSH2 0x114 JUMP JUMPDEST DUP1 PUSH4 0x1FFC9A7 EQ PUSH2 0x118 JUMPI DUP1 PUSH4 0x6FDDE03 EQ PUSH2 0x148 JUMPI DUP1 PUSH4 0x81812FC EQ PUSH2 0x166 JUMPI DUP1 PUSH4 0x95EA7B3 EQ PUSH2 0x196 JUMPI JUMPDEST PUSH0 DUP1 REVERT JUMPDEST PUSH2 0x132 PUSH1 0x4 DUP1 CALLDATASIZE SUB DUP2 ADD SWAP1 PUSH2 0x12D SWAP2 SWAP1 PUSH2 0x1AB0 JUMP JUMPDEST PUSH2 0x37C JUMP JUMPDEST PUSH1 0x40 MLOAD PUSH2 0x13F SWAP2 SWAP1 PUSH2 0x1AF5 JUMP JUMPDEST PUSH1 0x40 MLOAD DUP1 SWAP2 SUB SWAP1 RETURN JUMPDEST PUSH2 0x150 PUSH2 0x38D JUMP JUMPDEST PUSH1 0x40 MLOAD PUSH2 0x15D SWAP2 SWAP1 PUSH2 0x1B98 JUMP JUMPDEST PUSH1 0x40 MLOAD DUP1 SWAP2 SUB SWAP1 RETURN JUMPDEST PUSH2 0x180 PUSH1 0x4 DUP1 CALLDATASIZE SUB DUP2 ADD SWAP1 PUSH2 0x17B SWAP2 SWAP1 PUSH2 0x1BEB JUMP JUMPDEST PUSH2 0x41C JUMP JUMPDEST PUSH1 0x40 MLOAD PUSH2 0x18D SWAP2 SWAP1 PUSH2 0x1C55 JUMP JUMPDEST PUSH1 0x40 MLOAD DUP1 SWAP2 SUB SWAP1 RETURN JUMPDEST PUSH2 0x1B0 PUSH1 0x4 DUP1 CALLDATASIZE SUB DUP2 ADD SWAP1 PUSH2 0x1AB SWAP2 SWAP1 PUSH2 0x1C98 JUMP JUMPDEST PUSH2 0x437 JUMP JUMPDEST STOP JUMPDEST PUSH2 0x1CC PUSH1 0x4 DUP1 CALLDATASIZE SUB DUP2 ADD SWAP1 PUSH2 0x1C7 SWAP2 SWAP1 PUSH2 0x1CD6 JUMP JUMPDEST PUSH2 0x44D JUMP JUMPDEST STOP JUMPDEST PUSH2 0x1E8 PUSH1 0x4 DUP1 CALLDATASIZE SUB DUP2 ADD SWAP1 PUSH2 0x1E3 SWAP2 SWAP1 PUSH2 0x1D26 JUMP JUMPDEST PUSH2 0x54C JUMP JUMPDEST STOP JUMPDEST PUSH2 0x204 PUSH1 0x4 DUP1 CALLDATASIZE SUB DUP2 ADD SWAP1 PUSH2 0x1FF SWAP2 SWAP1 PUSH2 0x1CD6 JUMP JUMPDEST PUSH2 0x631 JUMP JUMPDEST STOP JUMPDEST PUSH2 0x220 PUSH1 0x4 DUP1 CALLDATASIZE SUB DUP2 ADD SWAP1 PUSH2 0x21B SWAP2 SWAP1 PUSH2 0x1BEB JUMP JUMPDEST PUSH2 0x650 JUMP JUMPDEST STOP JUMPDEST PUSH2 0x23C PUSH1 0x4 DUP1 CALLDATASIZE SUB DUP2 ADD SWAP1 PUSH2 0x237 SWAP2 SWAP1 PUSH2 0x1BEB JUMP JUMPDEST PUSH2 0x666 JUMP JUMPDEST PUSH1 0x40 MLOAD PUSH2 0x249 SWAP2 SWAP1 PUSH2 0x1C55 JUMP JUMPDEST PUSH1 0x40 MLOAD DUP1 SWAP2 SUB SWAP1 RETURN JUMPDEST PUSH2 0x26C PUSH1 0x4 DUP1 CALLDATASIZE SUB DUP2 ADD SWAP1 PUSH2 0x267 SWAP2 SWAP1 PUSH2 0x1D26 JUMP JUMPDEST PUSH2 0x677 JUMP JUMPDEST PUSH1 0x40 MLOAD PUSH2 0x279 SWAP2 SWAP1 PUSH2 0x1D60 JUMP JUMPDEST PUSH1 0x40 MLOAD DUP1 SWAP2 SUB SWAP1 RETURN JUMPDEST PUSH2 0x28A PUSH2 0x72D JUMP JUMPDEST STOP JUMPDEST PUSH2 0x294 PUSH2 0x740 JUMP JUMPDEST PUSH1 0x40 MLOAD PUSH2 0x2A1 SWAP2 SWAP1 PUSH2 0x1C55 JUMP JUMPDEST PUSH1 0x40 MLOAD DUP1 SWAP2 SUB SWAP1 RETURN JUMPDEST PUSH2 0x2B2 PUSH2 0x768 JUMP JUMPDEST PUSH1 0x40 MLOAD PUSH2 0x2BF SWAP2 SWAP1 PUSH2 0x1B98 JUMP JUMPDEST PUSH1 0x40 MLOAD DUP1 SWAP2 SUB SWAP1 RETURN JUMPDEST PUSH2 0x2E2 PUSH1 0x4 DUP1 CALLDATASIZE SUB DUP2 ADD SWAP1 PUSH2 0x2DD SWAP2 SWAP1 PUSH2 0x1DA3 JUMP JUMPDEST PUSH2 0x7F8 JUMP JUMPDEST STOP JUMPDEST PUSH2 0x2FE PUSH1 0x4 DUP1 CALLDATASIZE SUB DUP2 ADD SWAP1 PUSH2 0x2F9 SWAP2 SWAP1 PUSH2 0x1F0D JUMP JUMPDEST PUSH2 0x80E JUMP JUMPDEST STOP JUMPDEST PUSH2 0x31A PUSH1 0x4 DUP1 CALLDATASIZE SUB DUP2 ADD SWAP1 PUSH2 0x315 SWAP2 SWAP1 PUSH2 0x1BEB JUMP JUMPDEST PUSH2 0x82B JUMP JUMPDEST PUSH1 0x40 MLOAD PUSH2 0x327 SWAP2 SWAP1 PUSH2 0x1B98 JUMP JUMPDEST PUSH1 0x40 MLOAD DUP1 SWAP2 SUB SWAP1 RETURN JUMPDEST PUSH2 0x34A PUSH1 0x4 DUP1 CALLDATASIZE SUB DUP2 ADD SWAP1 PUSH2 0x345 SWAP2 SWAP1 PUSH2 0x1F8D JUMP JUMPDEST PUSH2 0x83D JUMP JUMPDEST PUSH1 0x40 MLOAD PUSH2 0x357 SWAP2 SWAP1 PUSH2 0x1AF5 JUMP JUMPDEST PUSH1 0x40 MLOAD DUP1 SWAP2 SUB SWAP1 RETURN JUMPDEST PUSH2 0x37A PUSH1 0x4 DUP1 CALLDATASIZE SUB DUP2 ADD SWAP1 PUSH2 0x375 SWAP2 SWAP1 PUSH2 0x1D26 JUMP JUMPDEST PUSH2 0x8CB JUMP JUMPDEST STOP JUMPDEST PUSH0 PUSH2 0x386 DUP3 PUSH2 0x94F JUMP JUMPDEST SWAP1 POP SWAP2 SWAP1 POP JUMP JUMPDEST PUSH1 0x60 PUSH0 DUP1 SLOAD PUSH2 0x39B SWAP1 PUSH2 0x1FF8 JUMP JUMPDEST DUP1 PUSH1 0x1F ADD PUSH1 0x20 DUP1 SWAP2 DIV MUL PUSH1 0x20 ADD PUSH1 0x40 MLOAD SWAP1 DUP2 ADD PUSH1 0x40 MSTORE DUP1 SWAP3 SWAP2 SWAP1 DUP2 DUP2 MSTORE PUSH1 0x20 ADD DUP3 DUP1 SLOAD PUSH2 0x3C7 SWAP1 PUSH2 0x1FF8 JUMP JUMPDEST DUP1 ISZERO PUSH2 0x412 JUMPI DUP1 PUSH1 0x1F LT PUSH2 0x3E9 JUMPI PUSH2 0x100 DUP1 DUP4 SLOAD DIV MUL DUP4 MSTORE SWAP2 PUSH1 0x20 ADD SWAP2 PUSH2 0x412 JUMP JUMPDEST DUP3 ADD SWAP2 SWAP1 PUSH0 MSTORE PUSH1 0x20 PUSH0 KECCAK256 SWAP1 JUMPDEST DUP2 SLOAD DUP2 MSTORE SWAP1 PUSH1 0x1 ADD SWAP1 PUSH1 0x20 ADD DUP1 DUP4 GT PUSH2 0x3F5 JUMPI DUP3 SWAP1 SUB PUSH1 0x1F AND DUP3 ADD SWAP2 JUMPDEST POP POP POP POP POP SWAP1 POP SWAP1 JUMP JUMPDEST PUSH0 PUSH2 0x426 DUP3 PUSH2 0x9AF JUMP JUMPDEST POP PUSH2 0x430 DUP3 PUSH2 0xA35 JUMP JUMPDEST SWAP1 POP SWAP2 SWAP1 POP JUMP JUMPDEST PUSH2 0x449 DUP3 DUP3 PUSH2 0x444 PUSH2 0xA6E JUMP JUMPDEST PUSH2 0xA75 JUMP JUMPDEST POP POP JUMP JUMPDEST PUSH0 PUSH20 0xFFFFFFFFFFFFFFFFFFFFFFFFFFFFFFFFFFFFFFFF AND DUP3 PUSH20 0xFFFFFFFFFFFFFFFFFFFFFFFFFFFFFFFFFFFFFFFF AND SUB PUSH2 0x4BD JUMPI PUSH0 PUSH1 0x40 MLOAD PUSH32 0x64A0AE9200000000000000000000000000000000000000000000000000000000 DUP2 MSTORE PUSH1 0x4 ADD PUSH2 0x4B4 SWAP2 SWAP1 PUSH2 0x1C55 JUMP JUMPDEST PUSH1 0x40 MLOAD DUP1 SWAP2 SUB SWAP1 REVERT JUMPDEST PUSH0 PUSH2 0x4D0 DUP4 DUP4 PUSH2 0x4CB PUSH2 0xA6E JUMP JUMPDEST PUSH2 0xA87 JUMP JUMPDEST SWAP1 POP DUP4 PUSH20 0xFFFFFFFFFFFFFFFFFFFFFFFFFFFFFFFFFFFFFFFF AND DUP2 PUSH20 0xFFFFFFFFFFFFFFFFFFFFFFFFFFFFFFFFFFFFFFFF AND EQ PUSH2 0x546 JUMPI DUP4 DUP3 DUP3 PUSH1 0x40 MLOAD PUSH32 0x64283D7B00000000000000000000000000000000000000000000000000000000 DUP2 MSTORE PUSH1 0x4 ADD PUSH2 0x53D SWAP4 SWAP3 SWAP2 SWAP1 PUSH2 0x2028 JUMP JUMPDEST PUSH1 0x40 MLOAD DUP1 SWAP2 SUB SWAP1 REVERT JUMPDEST POP POP POP POP JUMP JUMPDEST PUSH1 0x9 PUSH0 SWAP1 SLOAD SWAP1 PUSH2 0x100 EXP SWAP1 DIV PUSH1 0xFF AND ISZERO PUSH2 0x59B JUMPI PUSH1 0x40 MLOAD PUSH32 0x8C379A000000000000000000000000000000000000000000000000000000000 DUP2 MSTORE PUSH1 0x4 ADD PUSH2 0x592 SWAP1 PUSH2 0x20A7 JUMP JUMPDEST PUSH1 0x40 MLOAD DUP1 SWAP2 SUB SWAP1 REVERT JUMPDEST PUSH1 0x1 PUSH1 0x9 PUSH0 PUSH2 0x100 EXP DUP2 SLOAD DUP2 PUSH1 0xFF MUL NOT AND SWAP1 DUP4 ISZERO ISZERO MUL OR SWAP1 SSTORE POP PUSH2 0x5BD PUSH2 0xC92 JUMP JUMPDEST PUSH0 PUSH2 0x5C8 PUSH1 0x8 PUSH2 0xD19 JUMP JUMPDEST SWAP1 POP PUSH2 0x5D4 PUSH1 0x8 PUSH2 0xD25 JUMP JUMPDEST PUSH0 PUSH2 0x5DE DUP3 PUSH2 0xD39 JUMP JUMPDEST PUSH1 0x40 MLOAD PUSH1 0x20 ADD PUSH2 0x5EE SWAP2 SWAP1 PUSH2 0x2125 JUMP JUMPDEST PUSH1 0x40 MLOAD PUSH1 0x20 DUP2 DUP4 SUB SUB DUP2 MSTORE SWAP1 PUSH1 0x40 MSTORE SWAP1 POP PUSH2 0x609 DUP3 DUP3 PUSH2 0xE92 JUMP JUMPDEST PUSH2 0x613 DUP4 DUP4 PUSH2 0xEEC JUMP JUMPDEST POP POP PUSH0 PUSH1 0x9 PUSH0 PUSH2 0x100 EXP DUP2 SLOAD DUP2 PUSH1 0xFF MUL NOT AND SWAP1 DUP4 ISZERO ISZERO MUL OR SWAP1 SSTORE POP POP JUMP JUMPDEST PUSH2 0x64B DUP4 DUP4 DUP4 PUSH1 0x40 MLOAD DUP1 PUSH1 0x20 ADD PUSH1 0x40 MSTORE DUP1 PUSH0 DUP2 MSTORE POP PUSH2 0x80E JUMP JUMPDEST POP POP POP JUMP JUMPDEST PUSH2 0x662 PUSH0 DUP3 PUSH2 0x65D PUSH2 0xA6E JUMP JUMPDEST PUSH2 0xA87 JUMP JUMPDEST POP POP JUMP JUMPDEST PUSH0 PUSH2 0x670 DUP3 PUSH2 0x9AF JUMP JUMPDEST SWAP1 POP SWAP2 SWAP1 POP JUMP JUMPDEST PUSH0 DUP1 PUSH20 0xFFFFFFFFFFFFFFFFFFFFFFFFFFFFFFFFFFFFFFFF AND DUP3 PUSH20 0xFFFFFFFFFFFFFFFFFFFFFFFFFFFFFFFFFFFFFFFF AND SUB PUSH2 0x6E8 JUMPI PUSH0 PUSH1 0x40 MLOAD PUSH32 0x89C62B6400000000000000000000000000000000000000000000000000000000 DUP2 MSTORE PUSH1 0x4 ADD PUSH2 0x6DF SWAP2 SWAP1 PUSH2 0x1C55 JUMP JUMPDEST PUSH1 0x40 MLOAD DUP1 SWAP2 SUB SWAP1 REVERT JUMPDEST PUSH1 0x3 PUSH0 DUP4 PUSH20 0xFFFFFFFFFFFFFFFFFFFFFFFFFFFFFFFFFFFFFFFF AND PUSH20 0xFFFFFFFFFFFFFFFFFFFFFFFFFFFFFFFFFFFFFFFF AND DUP2 MSTORE PUSH1 0x20 ADD SWAP1 DUP2 MSTORE PUSH1 0x20 ADD PUSH0 KECCAK256 SLOAD SWAP1 POP SWAP2 SWAP1 POP JUMP JUMPDEST PUSH2 0x735 PUSH2 0xC92 JUMP JUMPDEST PUSH2 0x73E PUSH0 PUSH2 0xF09 JUMP JUMPDEST JUMP JUMPDEST PUSH0 PUSH1 0x7 PUSH0 SWAP1 SLOAD SWAP1 PUSH2 0x100 EXP SWAP1 DIV PUSH20 0xFFFFFFFFFFFFFFFFFFFFFFFFFFFFFFFFFFFFFFFF AND SWAP1 POP SWAP1 JUMP JUMPDEST PUSH1 0x60 PUSH1 0x1 DUP1 SLOAD PUSH2 0x777 SWAP1 PUSH2 0x1FF8 JUMP JUMPDEST DUP1 PUSH1 0x1F ADD PUSH1 0x20 DUP1 SWAP2 DIV MUL PUSH1 0x20 ADD PUSH1 0x40 MLOAD SWAP1 DUP2 ADD PUSH1 0x40 MSTORE DUP1 SWAP3 SWAP2 SWAP1 DUP2 DUP2 MSTORE PUSH1 0x20 ADD DUP3 DUP1 SLOAD PUSH2 0x7A3 SWAP1 PUSH2 0x1FF8 JUMP JUMPDEST DUP1 ISZERO PUSH2 0x7EE JUMPI DUP1 PUSH1 0x1F LT PUSH2 0x7C5 JUMPI PUSH2 0x100 DUP1 DUP4 SLOAD DIV MUL DUP4 MSTORE SWAP2 PUSH1 0x20 ADD SWAP2 PUSH2 0x7EE JUMP JUMPDEST DUP3 ADD SWAP2 SWAP1 PUSH0 MSTORE PUSH1 0x20 PUSH0 KECCAK256 SWAP1 JUMPDEST DUP2 SLOAD DUP2 MSTORE SWAP1 PUSH1 0x1 ADD SWAP1 PUSH1 0x20 ADD DUP1 DUP4 GT PUSH2 0x7D1 JUMPI DUP3 SWAP1 SUB PUSH1 0x1F AND DUP3 ADD SWAP2 JUMPDEST POP POP POP POP POP SWAP1 POP SWAP1 JUMP JUMPDEST PUSH2 0x80A PUSH2 0x803 PUSH2 0xA6E JUMP JUMPDEST DUP4 DUP4 PUSH2 0xFCC JUMP JUMPDEST POP POP JUMP JUMPDEST PUSH2 0x819 DUP5 DUP5 DUP5 PUSH2 0x44D JUMP JUMPDEST PUSH2 0x825 DUP5 DUP5 DUP5 DUP5 PUSH2 0x1135 JUMP JUMPDEST POP POP POP POP JUMP JUMPDEST PUSH1 0x60 PUSH2 0x836 DUP3 PUSH2 0x12E6 JUMP JUMPDEST SWAP1 POP SWAP2 SWAP1 POP JUMP JUMPDEST PUSH0 PUSH1 0x5 PUSH0 DUP5 PUSH20 0xFFFFFFFFFFFFFFFFFFFFFFFFFFFFFFFFFFFFFFFF AND PUSH20 0xFFFFFFFFFFFFFFFFFFFFFFFFFFFFFFFFFFFFFFFF AND DUP2 MSTORE PUSH1 0x20 ADD SWAP1 DUP2 MSTORE PUSH1 0x20 ADD PUSH0 KECCAK256 PUSH0 DUP4 PUSH20 0xFFFFFFFFFFFFFFFFFFFFFFFFFFFFFFFFFFFFFFFF AND PUSH20 0xFFFFFFFFFFFFFFFFFFFFFFFFFFFFFFFFFFFFFFFF AND DUP2 MSTORE PUSH1 0x20 ADD SWAP1 DUP2 MSTORE PUSH1 0x20 ADD PUSH0 KECCAK256 PUSH0 SWAP1 SLOAD SWAP1 PUSH2 0x100 EXP SWAP1 DIV PUSH1 0xFF AND SWAP1 POP SWAP3 SWAP2 POP POP JUMP JUMPDEST PUSH2 0x8D3 PUSH2 0xC92 JUMP JUMPDEST PUSH0 PUSH20 0xFFFFFFFFFFFFFFFFFFFFFFFFFFFFFFFFFFFFFFFF AND DUP2 PUSH20 0xFFFFFFFFFFFFFFFFFFFFFFFFFFFFFFFFFFFFFFFF AND SUB PUSH2 0x943 JUMPI PUSH0 PUSH1 0x40 MLOAD PUSH32 0x1E4FBDF700000000000000000000000000000000000000000000000000000000 DUP2 MSTORE PUSH1 0x4 ADD PUSH2 0x93A SWAP2 SWAP1 PUSH2 0x1C55 JUMP JUMPDEST PUSH1 0x40 MLOAD DUP1 SWAP2 SUB SWAP1 REVERT JUMPDEST PUSH2 0x94C DUP2 PUSH2 0xF09 JUMP JUMPDEST POP JUMP JUMPDEST PUSH0 PUSH4 0x49064906 PUSH1 0xE0 SHL PUSH28 0xFFFFFFFFFFFFFFFFFFFFFFFFFFFFFFFFFFFFFFFFFFFFFFFFFFFFFFFF NOT AND DUP3 PUSH28 0xFFFFFFFFFFFFFFFFFFFFFFFFFFFFFFFFFFFFFFFFFFFFFFFFFFFFFFFF NOT AND EQ DUP1 PUSH2 0x9A8 JUMPI POP PUSH2 0x9A7 DUP3 PUSH2 0x13F1 JUMP JUMPDEST JUMPDEST SWAP1 POP SWAP2 SWAP1 POP JUMP JUMPDEST PUSH0 DUP1 PUSH2 0x9BA DUP4 PUSH2 0x14D2 JUMP JUMPDEST SWAP1 POP PUSH0 PUSH20 0xFFFFFFFFFFFFFFFFFFFFFFFFFFFFFFFFFFFFFFFF AND DUP2 PUSH20 0xFFFFFFFFFFFFFFFFFFFFFFFFFFFFFFFFFFFFFFFF AND SUB PUSH2 0xA2C JUMPI DUP3 PUSH1 0x40 MLOAD PUSH32 0x7E27328900000000000000000000000000000000000000000000000000000000 DUP2 MSTORE PUSH1 0x4 ADD PUSH2 0xA23 SWAP2 SWAP1 PUSH2 0x1D60 JUMP JUMPDEST PUSH1 0x40 MLOAD DUP1 SWAP2 SUB SWAP1 REVERT JUMPDEST DUP1 SWAP2 POP POP SWAP2 SWAP1 POP JUMP JUMPDEST PUSH0 PUSH1 0x4 PUSH0 DUP4 DUP2 MSTORE PUSH1 0x20 ADD SWAP1 DUP2 MSTORE PUSH1 0x20 ADD PUSH0 KECCAK256 PUSH0 SWAP1 SLOAD SWAP1 PUSH2 0x100 EXP SWAP1 DIV PUSH20 0xFFFFFFFFFFFFFFFFFFFFFFFFFFFFFFFFFFFFFFFF AND SWAP1 POP SWAP2 SWAP1 POP JUMP JUMPDEST PUSH0 CALLER SWAP1 POP SWAP1 JUMP JUMPDEST PUSH2 0xA82 DUP4 DUP4 DUP4 PUSH1 0x1 PUSH2 0x150B JUMP JUMPDEST POP POP POP JUMP JUMPDEST PUSH0 DUP1 PUSH2 0xA92 DUP5 PUSH2 0x14D2 JUMP JUMPDEST SWAP1 POP PUSH0 PUSH20 0xFFFFFFFFFFFFFFFFFFFFFFFFFFFFFFFFFFFFFFFF AND DUP4 PUSH20 0xFFFFFFFFFFFFFFFFFFFFFFFFFFFFFFFFFFFFFFFF AND EQ PUSH2 0xAD3 JUMPI PUSH2 0xAD2 DUP2 DUP5 DUP7 PUSH2 0x16CA JUMP JUMPDEST JUMPDEST PUSH0 PUSH20 0xFFFFFFFFFFFFFFFFFFFFFFFFFFFFFFFFFFFFFFFF AND DUP2 PUSH20 0xFFFFFFFFFFFFFFFFFFFFFFFFFFFFFFFFFFFFFFFF AND EQ PUSH2 0xB5E JUMPI PUSH2 0xB12 PUSH0 DUP6 PUSH0 DUP1 PUSH2 0x150B JUMP JUMPDEST PUSH1 0x1 PUSH1 0x3 PUSH0 DUP4 PUSH20 0xFFFFFFFFFFFFFFFFFFFFFFFFFFFFFFFFFFFFFFFF AND PUSH20 0xFFFFFFFFFFFFFFFFFFFFFFFFFFFFFFFFFFFFFFFF AND DUP2 MSTORE PUSH1 0x20 ADD SWAP1 DUP2 MSTORE PUSH1 0x20 ADD PUSH0 KECCAK256 PUSH0 DUP3 DUP3 SLOAD SUB SWAP3 POP POP DUP2 SWAP1 SSTORE POP JUMPDEST PUSH0 PUSH20 0xFFFFFFFFFFFFFFFFFFFFFFFFFFFFFFFFFFFFFFFF AND DUP6 PUSH20 0xFFFFFFFFFFFFFFFFFFFFFFFFFFFFFFFFFFFFFFFF AND EQ PUSH2 0xBDD JUMPI PUSH1 0x1 PUSH1 0x3 PUSH0 DUP8 PUSH20 0xFFFFFFFFFFFFFFFFFFFFFFFFFFFFFFFFFFFFFFFF AND PUSH20 0xFFFFFFFFFFFFFFFFFFFFFFFFFFFFFFFFFFFFFFFF AND DUP2 MSTORE PUSH1 0x20 ADD SWAP1 DUP2 MSTORE PUSH1 0x20 ADD PUSH0 KECCAK256 PUSH0 DUP3 DUP3 SLOAD ADD SWAP3 POP POP DUP2 SWAP1 SSTORE POP JUMPDEST DUP5 PUSH1 0x2 PUSH0 DUP7 DUP2 MSTORE PUSH1 0x20 ADD SWAP1 DUP2 MSTORE PUSH1 0x20 ADD PUSH0 KECCAK256 PUSH0 PUSH2 0x100 EXP DUP2 SLOAD DUP2 PUSH20 0xFFFFFFFFFFFFFFFFFFFFFFFFFFFFFFFFFFFFFFFF MUL NOT AND SWAP1 DUP4 PUSH20 0xFFFFFFFFFFFFFFFFFFFFFFFFFFFFFFFFFFFFFFFF AND MUL OR SWAP1 SSTORE POP DUP4 DUP6 PUSH20 0xFFFFFFFFFFFFFFFFFFFFFFFFFFFFFFFFFFFFFFFF AND DUP3 PUSH20 0xFFFFFFFFFFFFFFFFFFFFFFFFFFFFFFFFFFFFFFFF AND PUSH32 0xDDF252AD1BE2C89B69C2B068FC378DAA952BA7F163C4A11628F55A4DF523B3EF PUSH1 0x40 MLOAD PUSH1 0x40 MLOAD DUP1 SWAP2 SUB SWAP1 LOG4 DUP1 SWAP2 POP POP SWAP4 SWAP3 POP POP POP JUMP JUMPDEST PUSH2 0xC9A PUSH2 0xA6E JUMP JUMPDEST PUSH20 0xFFFFFFFFFFFFFFFFFFFFFFFFFFFFFFFFFFFFFFFF AND PUSH2 0xCB8 PUSH2 0x740 JUMP JUMPDEST PUSH20 0xFFFFFFFFFFFFFFFFFFFFFFFFFFFFFFFFFFFFFFFF AND EQ PUSH2 0xD17 JUMPI PUSH2 0xCDB PUSH2 0xA6E JUMP JUMPDEST PUSH1 0x40 MLOAD PUSH32 0x118CDAA700000000000000000000000000000000000000000000000000000000 DUP2 MSTORE PUSH1 0x4 ADD PUSH2 0xD0E SWAP2 SWAP1 PUSH2 0x1C55 JUMP JUMPDEST PUSH1 0x40 MLOAD DUP1 SWAP2 SUB SWAP1 REVERT JUMPDEST JUMP JUMPDEST PUSH0 DUP2 PUSH0 ADD SLOAD SWAP1 POP SWAP2 SWAP1 POP JUMP JUMPDEST PUSH1 0x1 DUP2 PUSH0 ADD PUSH0 DUP3 DUP3 SLOAD ADD SWAP3 POP POP DUP2 SWAP1 SSTORE POP POP JUMP JUMPDEST PUSH1 0x60 PUSH0 DUP3 SUB PUSH2 0xD7F JUMPI PUSH1 0x40 MLOAD DUP1 PUSH1 0x40 ADD PUSH1 0x40 MSTORE DUP1 PUSH1 0x1 DUP2 MSTORE PUSH1 0x20 ADD PUSH32 0x3000000000000000000000000000000000000000000000000000000000000000 DUP2 MSTORE POP SWAP1 POP PUSH2 0xE8D JUMP JUMPDEST PUSH0 DUP3 SWAP1 POP PUSH0 JUMPDEST PUSH0 DUP3 EQ PUSH2 0xDAE JUMPI DUP1 DUP1 PUSH2 0xD97 SWAP1 PUSH2 0x2177 JUMP JUMPDEST SWAP2 POP POP PUSH1 0xA DUP3 PUSH2 0xDA7 SWAP2 SWAP1 PUSH2 0x21EB JUMP JUMPDEST SWAP2 POP PUSH2 0xD85 JUMP JUMPDEST PUSH0 DUP2 PUSH8 0xFFFFFFFFFFFFFFFF DUP2 GT ISZERO PUSH2 0xDC9 JUMPI PUSH2 0xDC8 PUSH2 0x1DE9 JUMP JUMPDEST JUMPDEST PUSH1 0x40 MLOAD SWAP1 DUP1 DUP3 MSTORE DUP1 PUSH1 0x1F ADD PUSH1 0x1F NOT AND PUSH1 0x20 ADD DUP3 ADD PUSH1 0x40 MSTORE DUP1 ISZERO PUSH2 0xDFB JUMPI DUP2 PUSH1 0x20 ADD PUSH1 0x1 DUP3 MUL DUP1 CALLDATASIZE DUP4 CALLDATACOPY DUP1 DUP3 ADD SWAP2 POP POP SWAP1 POP JUMPDEST POP SWAP1 POP JUMPDEST PUSH0 DUP6 EQ PUSH2 0xE86 JUMPI PUSH1 0x1 DUP3 PUSH2 0xE13 SWAP2 SWAP1 PUSH2 0x221B JUMP JUMPDEST SWAP2 POP PUSH1 0xA DUP6 PUSH2 0xE22 SWAP2 SWAP1 PUSH2 0x224E JUMP JUMPDEST PUSH1 0x30 PUSH2 0xE2E SWAP2 SWAP1 PUSH2 0x227E JUMP JUMPDEST PUSH1 0xF8 SHL DUP2 DUP4 DUP2 MLOAD DUP2 LT PUSH2 0xE44 JUMPI PUSH2 0xE43 PUSH2 0x22B1 JUMP JUMPDEST JUMPDEST PUSH1 0x20 ADD ADD SWAP1 PUSH31 0xFFFFFFFFFFFFFFFFFFFFFFFFFFFFFFFFFFFFFFFFFFFFFFFFFFFFFFFFFFFFFF NOT AND SWAP1 DUP2 PUSH0 BYTE SWAP1 MSTORE8 POP PUSH1 0xA DUP6 PUSH2 0xE7F SWAP2 SWAP1 PUSH2 0x21EB JUMP JUMPDEST SWAP5 POP PUSH2 0xDFF JUMP JUMPDEST DUP1 SWAP4 POP POP POP POP JUMPDEST SWAP2 SWAP1 POP JUMP JUMPDEST DUP1 PUSH1 0x6 PUSH0 DUP5 DUP2 MSTORE PUSH1 0x20 ADD SWAP1 DUP2 MSTORE PUSH1 0x20 ADD PUSH0 KECCAK256 SWAP1 DUP2 PUSH2 0xEB0 SWAP2 SWAP1 PUSH2 0x247B JUMP JUMPDEST POP PUSH32 0xF8E1A15ABA9398E019F0B49DF1A4FDE98EE17AE345CB5F6B5E2C27F5033E8CE7 DUP3 PUSH1 0x40 MLOAD PUSH2 0xEE0 SWAP2 SWAP1 PUSH2 0x1D60 JUMP JUMPDEST PUSH1 0x40 MLOAD DUP1 SWAP2 SUB SWAP1 LOG1 POP POP JUMP JUMPDEST PUSH2 0xF05 DUP3 DUP3 PUSH1 0x40 MLOAD DUP1 PUSH1 0x20 ADD PUSH1 0x40 MSTORE DUP1 PUSH0 DUP2 MSTORE POP PUSH2 0x178D JUMP JUMPDEST POP POP JUMP JUMPDEST PUSH0 PUSH1 0x7 PUSH0 SWAP1 SLOAD SWAP1 PUSH2 0x100 EXP SWAP1 DIV PUSH20 0xFFFFFFFFFFFFFFFFFFFFFFFFFFFFFFFFFFFFFFFF AND SWAP1 POP DUP2 PUSH1 0x7 PUSH0 PUSH2 0x100 EXP DUP2 SLOAD DUP2 PUSH20 0xFFFFFFFFFFFFFFFFFFFFFFFFFFFFFFFFFFFFFFFF MUL NOT AND SWAP1 DUP4 PUSH20 0xFFFFFFFFFFFFFFFFFFFFFFFFFFFFFFFFFFFFFFFF AND MUL OR SWAP1 SSTORE POP DUP2 PUSH20 0xFFFFFFFFFFFFFFFFFFFFFFFFFFFFFFFFFFFFFFFF AND DUP2 PUSH20 0xFFFFFFFFFFFFFFFFFFFFFFFFFFFFFFFFFFFFFFFF AND PUSH32 0x8BE0079C531659141344CD1FD0A4F28419497F9722A3DAAFE3B4186F6B6457E0 PUSH1 0x40 MLOAD PUSH1 0x40 MLOAD DUP1 SWAP2 SUB SWAP1 LOG3 POP POP JUMP JUMPDEST PUSH0 PUSH20 0xFFFFFFFFFFFFFFFFFFFFFFFFFFFFFFFFFFFFFFFF AND DUP3 PUSH20 0xFFFFFFFFFFFFFFFFFFFFFFFFFFFFFFFFFFFFFFFF AND SUB PUSH2 0x103C JUMPI DUP2 PUSH1 0x40 MLOAD PUSH32 0x5B08BA1800000000000000000000000000000000000000000000000000000000 DUP2 MSTORE PUSH1 0x4 ADD PUSH2 0x1033 SWAP2 SWAP1 PUSH2 0x1C55 JUMP JUMPDEST PUSH1 0x40 MLOAD DUP1 SWAP2 SUB SWAP1 REVERT JUMPDEST DUP1 PUSH1 0x5 PUSH0 DUP6 PUSH20 0xFFFFFFFFFFFFFFFFFFFFFFFFFFFFFFFFFFFFFFFF AND PUSH20 0xFFFFFFFFFFFFFFFFFFFFFFFFFFFFFFFFFFFFFFFF AND DUP2 MSTORE PUSH1 0x20 ADD SWAP1 DUP2 MSTORE PUSH1 0x20 ADD PUSH0 KECCAK256 PUSH0 DUP5 PUSH20 0xFFFFFFFFFFFFFFFFFFFFFFFFFFFFFFFFFFFFFFFF AND PUSH20 0xFFFFFFFFFFFFFFFFFFFFFFFFFFFFFFFFFFFFFFFF AND DUP2 MSTORE PUSH1 0x20 ADD SWAP1 DUP2 MSTORE PUSH1 0x20 ADD PUSH0 KECCAK256 PUSH0 PUSH2 0x100 EXP DUP2 SLOAD DUP2 PUSH1 0xFF MUL NOT AND SWAP1 DUP4 ISZERO ISZERO MUL OR SWAP1 SSTORE POP DUP2 PUSH20 0xFFFFFFFFFFFFFFFFFFFFFFFFFFFFFFFFFFFFFFFF AND DUP4 PUSH20 0xFFFFFFFFFFFFFFFFFFFFFFFFFFFFFFFFFFFFFFFF AND PUSH32 0x17307EAB39AB6107E8899845AD3D59BD9653F200F220920489CA2B5937696C31 DUP4 PUSH1 0x40 MLOAD PUSH2 0x1128 SWAP2 SWAP1 PUSH2 0x1AF5 JUMP JUMPDEST PUSH1 0x40 MLOAD DUP1 SWAP2 SUB SWAP1 LOG3 POP POP POP JUMP JUMPDEST PUSH0 DUP4 PUSH20 0xFFFFFFFFFFFFFFFFFFFFFFFFFFFFFFFFFFFFFFFF AND EXTCODESIZE GT ISZERO PUSH2 0x12E0 JUMPI DUP3 PUSH20 0xFFFFFFFFFFFFFFFFFFFFFFFFFFFFFFFFFFFFFFFF AND PUSH4 0x150B7A02 PUSH2 0x1178 PUSH2 0xA6E JUMP JUMPDEST DUP7 DUP6 DUP6 PUSH1 0x40 MLOAD DUP6 PUSH4 0xFFFFFFFF AND PUSH1 0xE0 SHL DUP2 MSTORE PUSH1 0x4 ADD PUSH2 0x119A SWAP5 SWAP4 SWAP3 SWAP2 SWAP1 PUSH2 0x259C JUMP JUMPDEST PUSH1 0x20 PUSH1 0x40 MLOAD DUP1 DUP4 SUB DUP2 PUSH0 DUP8 GAS CALL SWAP3 POP POP POP DUP1 ISZERO PUSH2 0x11D5 JUMPI POP PUSH1 0x40 MLOAD RETURNDATASIZE PUSH1 0x1F NOT PUSH1 0x1F DUP3 ADD AND DUP3 ADD DUP1 PUSH1 0x40 MSTORE POP DUP2 ADD SWAP1 PUSH2 0x11D2 SWAP2 SWAP1 PUSH2 0x25FA JUMP JUMPDEST PUSH1 0x1 JUMPDEST PUSH2 0x1254 JUMPI RETURNDATASIZE DUP1 PUSH0 DUP2 EQ PUSH2 0x1203 JUMPI PUSH1 0x40 MLOAD SWAP2 POP PUSH1 0x1F NOT PUSH1 0x3F RETURNDATASIZE ADD AND DUP3 ADD PUSH1 0x40 MSTORE RETURNDATASIZE DUP3 MSTORE RETURNDATASIZE PUSH0 PUSH1 0x20 DUP5 ADD RETURNDATACOPY PUSH2 0x1208 JUMP JUMPDEST PUSH1 0x60 SWAP2 POP JUMPDEST POP PUSH0 DUP2 MLOAD SUB PUSH2 0x124E JUMPI DUP4 PUSH1 0x40 MLOAD PUSH32 0x64A0AE9200000000000000000000000000000000000000000000000000000000 DUP2 MSTORE PUSH1 0x4 ADD PUSH2 0x1245 SWAP2 SWAP1 PUSH2 0x1C55 JUMP JUMPDEST PUSH1 0x40 MLOAD DUP1 SWAP2 SUB SWAP1 REVERT JUMPDEST POP PUSH2 0x12DF JUMP JUMPDEST PUSH4 0x150B7A02 PUSH1 0xE0 SHL PUSH28 0xFFFFFFFFFFFFFFFFFFFFFFFFFFFFFFFFFFFFFFFFFFFFFFFFFFFFFFFF NOT AND DUP2 PUSH28 0xFFFFFFFFFFFFFFFFFFFFFFFFFFFFFFFFFFFFFFFFFFFFFFFFFFFFFFFF NOT AND EQ PUSH2 0x12DD JUMPI DUP4 PUSH1 0x40 MLOAD PUSH32 0x64A0AE9200000000000000000000000000000000000000000000000000000000 DUP2 MSTORE PUSH1 0x4 ADD PUSH2 0x12D4 SWAP2 SWAP1 PUSH2 0x1C55 JUMP JUMPDEST PUSH1 0x40 MLOAD DUP1 SWAP2 SUB SWAP1 REVERT JUMPDEST POP JUMPDEST JUMPDEST POP POP POP POP JUMP JUMPDEST PUSH1 0x60 PUSH2 0x12F1 DUP3 PUSH2 0x9AF JUMP JUMPDEST POP PUSH0 PUSH1 0x6 PUSH0 DUP5 DUP2 MSTORE PUSH1 0x20 ADD SWAP1 DUP2 MSTORE PUSH1 0x20 ADD PUSH0 KECCAK256 DUP1 SLOAD PUSH2 0x130F SWAP1 PUSH2 0x1FF8 JUMP JUMPDEST DUP1 PUSH1 0x1F ADD PUSH1 0x20 DUP1 SWAP2 DIV MUL PUSH1 0x20 ADD PUSH1 0x40 MLOAD SWAP1 DUP2 ADD PUSH1 0x40 MSTORE DUP1 SWAP3 SWAP2 SWAP1 DUP2 DUP2 MSTORE PUSH1 0x20 ADD DUP3 DUP1 SLOAD PUSH2 0x133B SWAP1 PUSH2 0x1FF8 JUMP JUMPDEST DUP1 ISZERO PUSH2 0x1386 JUMPI DUP1 PUSH1 0x1F LT PUSH2 0x135D JUMPI PUSH2 0x100 DUP1 DUP4 SLOAD DIV MUL DUP4 MSTORE SWAP2 PUSH1 0x20 ADD SWAP2 PUSH2 0x1386 JUMP JUMPDEST DUP3 ADD SWAP2 SWAP1 PUSH0 MSTORE PUSH1 0x20 PUSH0 KECCAK256 SWAP1 JUMPDEST DUP2 SLOAD DUP2 MSTORE SWAP1 PUSH1 0x1 ADD SWAP1 PUSH1 0x20 ADD DUP1 DUP4 GT PUSH2 0x1369 JUMPI DUP3 SWAP1 SUB PUSH1 0x1F AND DUP3 ADD SWAP2 JUMPDEST POP POP POP POP POP SWAP1 POP PUSH0 PUSH2 0x1396 PUSH2 0x17A8 JUMP JUMPDEST SWAP1 POP PUSH0 DUP2 MLOAD SUB PUSH2 0x13AA JUMPI DUP2 SWAP3 POP POP POP PUSH2 0x13EC JUMP JUMPDEST PUSH0 DUP3 MLOAD GT ISZERO PUSH2 0x13DE JUMPI DUP1 DUP3 PUSH1 0x40 MLOAD PUSH1 0x20 ADD PUSH2 0x13C6 SWAP3 SWAP2 SWAP1 PUSH2 0x2625 JUMP JUMPDEST PUSH1 0x40 MLOAD PUSH1 0x20 DUP2 DUP4 SUB SUB DUP2 MSTORE SWAP1 PUSH1 0x40 MSTORE SWAP3 POP POP POP PUSH2 0x13EC JUMP JUMPDEST PUSH2 0x13E7 DUP5 PUSH2 0x17C8 JUMP JUMPDEST SWAP3 POP POP POP JUMPDEST SWAP2 SWAP1 POP JUMP JUMPDEST PUSH0 PUSH32 0x80AC58CD00000000000000000000000000000000000000000000000000000000 PUSH28 0xFFFFFFFFFFFFFFFFFFFFFFFFFFFFFFFFFFFFFFFFFFFFFFFFFFFFFFFF NOT AND DUP3 PUSH28 0xFFFFFFFFFFFFFFFFFFFFFFFFFFFFFFFFFFFFFFFFFFFFFFFFFFFFFFFF NOT AND EQ DUP1 PUSH2 0x14BB JUMPI POP PUSH32 0x5B5E139F00000000000000000000000000000000000000000000000000000000 PUSH28 0xFFFFFFFFFFFFFFFFFFFFFFFFFFFFFFFFFFFFFFFFFFFFFFFFFFFFFFFF NOT AND DUP3 PUSH28 0xFFFFFFFFFFFFFFFFFFFFFFFFFFFFFFFFFFFFFFFFFFFFFFFFFFFFFFFF NOT AND EQ JUMPDEST DUP1 PUSH2 0x14CB JUMPI POP PUSH2 0x14CA DUP3 PUSH2 0x182E JUMP JUMPDEST JUMPDEST SWAP1 POP SWAP2 SWAP1 POP JUMP JUMPDEST PUSH0 PUSH1 0x2 PUSH0 DUP4 DUP2 MSTORE PUSH1 0x20 ADD SWAP1 DUP2 MSTORE PUSH1 0x20 ADD PUSH0 KECCAK256 PUSH0 SWAP1 SLOAD SWAP1 PUSH2 0x100 EXP SWAP1 DIV PUSH20 0xFFFFFFFFFFFFFFFFFFFFFFFFFFFFFFFFFFFFFFFF AND SWAP1 POP SWAP2 SWAP1 POP JUMP JUMPDEST DUP1 DUP1 PUSH2 0x1543 JUMPI POP PUSH0 PUSH20 0xFFFFFFFFFFFFFFFFFFFFFFFFFFFFFFFFFFFFFFFF AND DUP3 PUSH20 0xFFFFFFFFFFFFFFFFFFFFFFFFFFFFFFFFFFFFFFFF AND EQ ISZERO JUMPDEST ISZERO PUSH2 0x1675 JUMPI PUSH0 PUSH2 0x1552 DUP5 PUSH2 0x9AF JUMP JUMPDEST SWAP1 POP PUSH0 PUSH20 0xFFFFFFFFFFFFFFFFFFFFFFFFFFFFFFFFFFFFFFFF AND DUP4 PUSH20 0xFFFFFFFFFFFFFFFFFFFFFFFFFFFFFFFFFFFFFFFF AND EQ ISZERO DUP1 ISZERO PUSH2 0x15BC JUMPI POP DUP3 PUSH20 0xFFFFFFFFFFFFFFFFFFFFFFFFFFFFFFFFFFFFFFFF AND DUP2 PUSH20 0xFFFFFFFFFFFFFFFFFFFFFFFFFFFFFFFFFFFFFFFF AND EQ ISZERO JUMPDEST DUP1 ISZERO PUSH2 0x15CF JUMPI POP PUSH2 0x15CD DUP2 DUP5 PUSH2 0x83D JUMP JUMPDEST ISZERO JUMPDEST ISZERO PUSH2 0x1611 JUMPI DUP3 PUSH1 0x40 MLOAD PUSH32 0xA9FBF51F00000000000000000000000000000000000000000000000000000000 DUP2 MSTORE PUSH1 0x4 ADD PUSH2 0x1608 SWAP2 SWAP1 PUSH2 0x1C55 JUMP JUMPDEST PUSH1 0x40 MLOAD DUP1 SWAP2 SUB SWAP1 REVERT JUMPDEST DUP2 ISZERO PUSH2 0x1673 JUMPI DUP4 DUP6 PUSH20 0xFFFFFFFFFFFFFFFFFFFFFFFFFFFFFFFFFFFFFFFF AND DUP3 PUSH20 0xFFFFFFFFFFFFFFFFFFFFFFFFFFFFFFFFFFFFFFFF AND PUSH32 0x8C5BE1E5EBEC7D5BD14F71427D1E84F3DD0314C0F7B2291E5B200AC8C7C3B925 PUSH1 0x40 MLOAD PUSH1 0x40 MLOAD DUP1 SWAP2 SUB SWAP1 LOG4 JUMPDEST POP JUMPDEST DUP4 PUSH1 0x4 PUSH0 DUP6 DUP2 MSTORE PUSH1 0x20 ADD SWAP1 DUP2 MSTORE PUSH1 0x20 ADD PUSH0 KECCAK256 PUSH0 PUSH2 0x100 EXP DUP2 SLOAD DUP2 PUSH20 0xFFFFFFFFFFFFFFFFFFFFFFFFFFFFFFFFFFFFFFFF MUL NOT AND SWAP1 DUP4 PUSH20 0xFFFFFFFFFFFFFFFFFFFFFFFFFFFFFFFFFFFFFFFF AND MUL OR SWAP1 SSTORE POP POP POP POP POP JUMP JUMPDEST PUSH2 0x16D5 DUP4 DUP4 DUP4 PUSH2 0x1897 JUMP JUMPDEST PUSH2 0x1788 JUMPI PUSH0 PUSH20 0xFFFFFFFFFFFFFFFFFFFFFFFFFFFFFFFFFFFFFFFF AND DUP4 PUSH20 0xFFFFFFFFFFFFFFFFFFFFFFFFFFFFFFFFFFFFFFFF AND SUB PUSH2 0x1749 JUMPI DUP1 PUSH1 0x40 MLOAD PUSH32 0x7E27328900000000000000000000000000000000000000000000000000000000 DUP2 MSTORE PUSH1 0x4 ADD PUSH2 0x1740 SWAP2 SWAP1 PUSH2 0x1D60 JUMP JUMPDEST PUSH1 0x40 MLOAD DUP1 SWAP2 SUB SWAP1 REVERT JUMPDEST DUP2 DUP2 PUSH1 0x40 MLOAD PUSH32 0x177E802F00000000000000000000000000000000000000000000000000000000 DUP2 MSTORE PUSH1 0x4 ADD PUSH2 0x177F SWAP3 SWAP2 SWAP1 PUSH2 0x2648 JUMP JUMPDEST PUSH1 0x40 MLOAD DUP1 SWAP2 SUB SWAP1 REVERT JUMPDEST POP POP POP JUMP JUMPDEST PUSH2 0x1797 DUP4 DUP4 PUSH2 0x1957 JUMP JUMPDEST PUSH2 0x17A3 PUSH0 DUP5 DUP5 DUP5 PUSH2 0x1135 JUMP JUMPDEST POP POP POP JUMP JUMPDEST PUSH1 0x60 PUSH1 0x40 MLOAD DUP1 PUSH1 0x60 ADD PUSH1 0x40 MSTORE DUP1 PUSH1 0x36 DUP2 MSTORE PUSH1 0x20 ADD PUSH2 0x2670 PUSH1 0x36 SWAP2 CODECOPY SWAP1 POP SWAP1 JUMP JUMPDEST PUSH1 0x60 PUSH2 0x17D3 DUP3 PUSH2 0x9AF JUMP JUMPDEST POP PUSH0 PUSH2 0x17DD PUSH2 0x17A8 JUMP JUMPDEST SWAP1 POP PUSH0 DUP2 MLOAD GT PUSH2 0x17FB JUMPI PUSH1 0x40 MLOAD DUP1 PUSH1 0x20 ADD PUSH1 0x40 MSTORE DUP1 PUSH0 DUP2 MSTORE POP PUSH2 0x1826 JUMP JUMPDEST DUP1 PUSH2 0x1805 DUP5 PUSH2 0xD39 JUMP JUMPDEST PUSH1 0x40 MLOAD PUSH1 0x20 ADD PUSH2 0x1816 SWAP3 SWAP2 SWAP1 PUSH2 0x2625 JUMP JUMPDEST PUSH1 0x40 MLOAD PUSH1 0x20 DUP2 DUP4 SUB SUB DUP2 MSTORE SWAP1 PUSH1 0x40 MSTORE JUMPDEST SWAP2 POP POP SWAP2 SWAP1 POP JUMP JUMPDEST PUSH0 PUSH32 0x1FFC9A700000000000000000000000000000000000000000000000000000000 PUSH28 0xFFFFFFFFFFFFFFFFFFFFFFFFFFFFFFFFFFFFFFFFFFFFFFFFFFFFFFFF NOT AND DUP3 PUSH28 0xFFFFFFFFFFFFFFFFFFFFFFFFFFFFFFFFFFFFFFFFFFFFFFFFFFFFFFFF NOT AND EQ SWAP1 POP SWAP2 SWAP1 POP JUMP JUMPDEST PUSH0 DUP1 PUSH20 0xFFFFFFFFFFFFFFFFFFFFFFFFFFFFFFFFFFFFFFFF AND DUP4 PUSH20 0xFFFFFFFFFFFFFFFFFFFFFFFFFFFFFFFFFFFFFFFF AND EQ ISZERO DUP1 ISZERO PUSH2 0x194E JUMPI POP DUP3 PUSH20 0xFFFFFFFFFFFFFFFFFFFFFFFFFFFFFFFFFFFFFFFF AND DUP5 PUSH20 0xFFFFFFFFFFFFFFFFFFFFFFFFFFFFFFFFFFFFFFFF AND EQ DUP1 PUSH2 0x190F JUMPI POP PUSH2 0x190E DUP5 DUP5 PUSH2 0x83D JUMP JUMPDEST JUMPDEST DUP1 PUSH2 0x194D JUMPI POP DUP3 PUSH20 0xFFFFFFFFFFFFFFFFFFFFFFFFFFFFFFFFFFFFFFFF AND PUSH2 0x1935 DUP4 PUSH2 0xA35 JUMP JUMPDEST PUSH20 0xFFFFFFFFFFFFFFFFFFFFFFFFFFFFFFFFFFFFFFFF AND EQ JUMPDEST JUMPDEST SWAP1 POP SWAP4 SWAP3 POP POP POP JUMP JUMPDEST PUSH0 PUSH20 0xFFFFFFFFFFFFFFFFFFFFFFFFFFFFFFFFFFFFFFFF AND DUP3 PUSH20 0xFFFFFFFFFFFFFFFFFFFFFFFFFFFFFFFFFFFFFFFF AND SUB PUSH2 0x19C7 JUMPI PUSH0 PUSH1 0x40 MLOAD PUSH32 0x64A0AE9200000000000000000000000000000000000000000000000000000000 DUP2 MSTORE PUSH1 0x4 ADD PUSH2 0x19BE SWAP2 SWAP1 PUSH2 0x1C55 JUMP JUMPDEST PUSH1 0x40 MLOAD DUP1 SWAP2 SUB SWAP1 REVERT JUMPDEST PUSH0 PUSH2 0x19D3 DUP4 DUP4 PUSH0 PUSH2 0xA87 JUMP JUMPDEST SWAP1 POP PUSH0 PUSH20 0xFFFFFFFFFFFFFFFFFFFFFFFFFFFFFFFFFFFFFFFF AND DUP2 PUSH20 0xFFFFFFFFFFFFFFFFFFFFFFFFFFFFFFFFFFFFFFFF AND EQ PUSH2 0x1A45 JUMPI PUSH0 PUSH1 0x40 MLOAD PUSH32 0x73C6AC6E00000000000000000000000000000000000000000000000000000000 DUP2 MSTORE PUSH1 0x4 ADD PUSH2 0x1A3C SWAP2 SWAP1 PUSH2 0x1C55 JUMP JUMPDEST PUSH1 0x40 MLOAD DUP1 SWAP2 SUB SWAP1 REVERT JUMPDEST POP POP POP JUMP JUMPDEST PUSH0 PUSH1 0x40 MLOAD SWAP1 POP SWAP1 JUMP JUMPDEST PUSH0 DUP1 REVERT JUMPDEST PUSH0 DUP1 REVERT JUMPDEST PUSH0 PUSH32 0xFFFFFFFF00000000000000000000000000000000000000000000000000000000 DUP3 AND SWAP1 POP SWAP2 SWAP1 POP JUMP JUMPDEST PUSH2 0x1A8F DUP2 PUSH2 0x1A5B JUMP JUMPDEST DUP2 EQ PUSH2 0x1A99 JUMPI PUSH0 DUP1 REVERT JUMPDEST POP JUMP JUMPDEST PUSH0 DUP2 CALLDATALOAD SWAP1 POP PUSH2 0x1AAA DUP2 PUSH2 0x1A86 JUMP JUMPDEST SWAP3 SWAP2 POP POP JUMP JUMPDEST PUSH0 PUSH1 0x20 DUP3 DUP5 SUB SLT ISZERO PUSH2 0x1AC5 JUMPI PUSH2 0x1AC4 PUSH2 0x1A53 JUMP JUMPDEST JUMPDEST PUSH0 PUSH2 0x1AD2 DUP5 DUP3 DUP6 ADD PUSH2 0x1A9C JUMP JUMPDEST SWAP2 POP POP SWAP3 SWAP2 POP POP JUMP JUMPDEST PUSH0 DUP2 ISZERO ISZERO SWAP1 POP SWAP2 SWAP1 POP JUMP JUMPDEST PUSH2 0x1AEF DUP2 PUSH2 0x1ADB JUMP JUMPDEST DUP3 MSTORE POP POP JUMP JUMPDEST PUSH0 PUSH1 0x20 DUP3 ADD SWAP1 POP PUSH2 0x1B08 PUSH0 DUP4 ADD DUP5 PUSH2 0x1AE6 JUMP JUMPDEST SWAP3 SWAP2 POP POP JUMP JUMPDEST PUSH0 DUP2 MLOAD SWAP1 POP SWAP2 SWAP1 POP JUMP JUMPDEST PUSH0 DUP3 DUP3 MSTORE PUSH1 0x20 DUP3 ADD SWAP1 POP SWAP3 SWAP2 POP POP JUMP JUMPDEST PUSH0 JUMPDEST DUP4 DUP2 LT ISZERO PUSH2 0x1B45 JUMPI DUP1 DUP3 ADD MLOAD DUP2 DUP5 ADD MSTORE PUSH1 0x20 DUP2 ADD SWAP1 POP PUSH2 0x1B2A JUMP JUMPDEST PUSH0 DUP5 DUP5 ADD MSTORE POP POP POP POP JUMP JUMPDEST PUSH0 PUSH1 0x1F NOT PUSH1 0x1F DUP4 ADD AND SWAP1 POP SWAP2 SWAP1 POP JUMP JUMPDEST PUSH0 PUSH2 0x1B6A DUP3 PUSH2 0x1B0E JUMP JUMPDEST PUSH2 0x1B74 DUP2 DUP6 PUSH2 0x1B18 JUMP JUMPDEST SWAP4 POP PUSH2 0x1B84 DUP2 DUP6 PUSH1 0x20 DUP7 ADD PUSH2 0x1B28 JUMP JUMPDEST PUSH2 0x1B8D DUP2 PUSH2 0x1B50 JUMP JUMPDEST DUP5 ADD SWAP2 POP POP SWAP3 SWAP2 POP POP JUMP JUMPDEST PUSH0 PUSH1 0x20 DUP3 ADD SWAP1 POP DUP2 DUP2 SUB PUSH0 DUP4 ADD MSTORE PUSH2 0x1BB0 DUP2 DUP5 PUSH2 0x1B60 JUMP JUMPDEST SWAP1 POP SWAP3 SWAP2 POP POP JUMP JUMPDEST PUSH0 DUP2 SWAP1 POP SWAP2 SWAP1 POP JUMP JUMPDEST PUSH2 0x1BCA DUP2 PUSH2 0x1BB8 JUMP JUMPDEST DUP2 EQ PUSH2 0x1BD4 JUMPI PUSH0 DUP1 REVERT JUMPDEST POP JUMP JUMPDEST PUSH0 DUP2 CALLDATALOAD SWAP1 POP PUSH2 0x1BE5 DUP2 PUSH2 0x1BC1 JUMP JUMPDEST SWAP3 SWAP2 POP POP JUMP JUMPDEST PUSH0 PUSH1 0x20 DUP3 DUP5 SUB SLT ISZERO PUSH2 0x1C00 JUMPI PUSH2 0x1BFF PUSH2 0x1A53 JUMP JUMPDEST JUMPDEST PUSH0 PUSH2 0x1C0D DUP5 DUP3 DUP6 ADD PUSH2 0x1BD7 JUMP JUMPDEST SWAP2 POP POP SWAP3 SWAP2 POP POP JUMP JUMPDEST PUSH0 PUSH20 0xFFFFFFFFFFFFFFFFFFFFFFFFFFFFFFFFFFFFFFFF DUP3 AND SWAP1 POP SWAP2 SWAP1 POP JUMP JUMPDEST PUSH0 PUSH2 0x1C3F DUP3 PUSH2 0x1C16 JUMP JUMPDEST SWAP1 POP SWAP2 SWAP1 POP JUMP JUMPDEST PUSH2 0x1C4F DUP2 PUSH2 0x1C35 JUMP JUMPDEST DUP3 MSTORE POP POP JUMP JUMPDEST PUSH0 PUSH1 0x20 DUP3 ADD SWAP1 POP PUSH2 0x1C68 PUSH0 DUP4 ADD DUP5 PUSH2 0x1C46 JUMP JUMPDEST SWAP3 SWAP2 POP POP JUMP JUMPDEST PUSH2 0x1C77 DUP2 PUSH2 0x1C35 JUMP JUMPDEST DUP2 EQ PUSH2 0x1C81 JUMPI PUSH0 DUP1 REVERT JUMPDEST POP JUMP JUMPDEST PUSH0 DUP2 CALLDATALOAD SWAP1 POP PUSH2 0x1C92 DUP2 PUSH2 0x1C6E JUMP JUMPDEST SWAP3 SWAP2 POP POP JUMP JUMPDEST PUSH0 DUP1 PUSH1 0x40 DUP4 DUP6 SUB SLT ISZERO PUSH2 0x1CAE JUMPI PUSH2 0x1CAD PUSH2 0x1A53 JUMP JUMPDEST JUMPDEST PUSH0 PUSH2 0x1CBB DUP6 DUP3 DUP7 ADD PUSH2 0x1C84 JUMP JUMPDEST SWAP3 POP POP PUSH1 0x20 PUSH2 0x1CCC DUP6 DUP3 DUP7 ADD PUSH2 0x1BD7 JUMP JUMPDEST SWAP2 POP POP SWAP3 POP SWAP3 SWAP1 POP JUMP JUMPDEST PUSH0 DUP1 PUSH0 PUSH1 0x60 DUP5 DUP7 SUB SLT ISZERO PUSH2 0x1CED JUMPI PUSH2 0x1CEC PUSH2 0x1A53 JUMP JUMPDEST JUMPDEST PUSH0 PUSH2 0x1CFA DUP7 DUP3 DUP8 ADD PUSH2 0x1C84 JUMP JUMPDEST SWAP4 POP POP PUSH1 0x20 PUSH2 0x1D0B DUP7 DUP3 DUP8 ADD PUSH2 0x1C84 JUMP JUMPDEST SWAP3 POP POP PUSH1 0x40 PUSH2 0x1D1C DUP7 DUP3 DUP8 ADD PUSH2 0x1BD7 JUMP JUMPDEST SWAP2 POP POP SWAP3 POP SWAP3 POP SWAP3 JUMP JUMPDEST PUSH0 PUSH1 0x20 DUP3 DUP5 SUB SLT ISZERO PUSH2 0x1D3B JUMPI PUSH2 0x1D3A PUSH2 0x1A53 JUMP JUMPDEST JUMPDEST PUSH0 PUSH2 0x1D48 DUP5 DUP3 DUP6 ADD PUSH2 0x1C84 JUMP JUMPDEST SWAP2 POP POP SWAP3 SWAP2 POP POP JUMP JUMPDEST PUSH2 0x1D5A DUP2 PUSH2 0x1BB8 JUMP JUMPDEST DUP3 MSTORE POP POP JUMP JUMPDEST PUSH0 PUSH1 0x20 DUP3 ADD SWAP1 POP PUSH2 0x1D73 PUSH0 DUP4 ADD DUP5 PUSH2 0x1D51 JUMP JUMPDEST SWAP3 SWAP2 POP POP JUMP JUMPDEST PUSH2 0x1D82 DUP2 PUSH2 0x1ADB JUMP JUMPDEST DUP2 EQ PUSH2 0x1D8C JUMPI PUSH0 DUP1 REVERT JUMPDEST POP JUMP JUMPDEST PUSH0 DUP2 CALLDATALOAD SWAP1 POP PUSH2 0x1D9D DUP2 PUSH2 0x1D79 JUMP JUMPDEST SWAP3 SWAP2 POP POP JUMP JUMPDEST PUSH0 DUP1 PUSH1 0x40 DUP4 DUP6 SUB SLT ISZERO PUSH2 0x1DB9 JUMPI PUSH2 0x1DB8 PUSH2 0x1A53 JUMP JUMPDEST JUMPDEST PUSH0 PUSH2 0x1DC6 DUP6 DUP3 DUP7 ADD PUSH2 0x1C84 JUMP JUMPDEST SWAP3 POP POP PUSH1 0x20 PUSH2 0x1DD7 DUP6 DUP3 DUP7 ADD PUSH2 0x1D8F JUMP JUMPDEST SWAP2 POP POP SWAP3 POP SWAP3 SWAP1 POP JUMP JUMPDEST PUSH0 DUP1 REVERT JUMPDEST PUSH0 DUP1 REVERT JUMPDEST PUSH32 0x4E487B7100000000000000000000000000000000000000000000000000000000 PUSH0 MSTORE PUSH1 0x41 PUSH1 0x4 MSTORE PUSH1 0x24 PUSH0 REVERT JUMPDEST PUSH2 0x1E1F DUP3 PUSH2 0x1B50 JUMP JUMPDEST DUP2 ADD DUP2 DUP2 LT PUSH8 0xFFFFFFFFFFFFFFFF DUP3 GT OR ISZERO PUSH2 0x1E3E JUMPI PUSH2 0x1E3D PUSH2 0x1DE9 JUMP JUMPDEST JUMPDEST DUP1 PUSH1 0x40 MSTORE POP POP POP JUMP JUMPDEST PUSH0 PUSH2 0x1E50 PUSH2 0x1A4A JUMP JUMPDEST SWAP1 POP PUSH2 0x1E5C DUP3 DUP3 PUSH2 0x1E16 JUMP JUMPDEST SWAP2 SWAP1 POP JUMP JUMPDEST PUSH0 PUSH8 0xFFFFFFFFFFFFFFFF DUP3 GT ISZERO PUSH2 0x1E7B JUMPI PUSH2 0x1E7A PUSH2 0x1DE9 JUMP JUMPDEST JUMPDEST PUSH2 0x1E84 DUP3 PUSH2 0x1B50 JUMP JUMPDEST SWAP1 POP PUSH1 0x20 DUP2 ADD SWAP1 POP SWAP2 SWAP1 POP JUMP JUMPDEST DUP3 DUP2 DUP4 CALLDATACOPY PUSH0 DUP4 DUP4 ADD MSTORE POP POP POP JUMP JUMPDEST PUSH0 PUSH2 0x1EB1 PUSH2 0x1EAC DUP5 PUSH2 0x1E61 JUMP JUMPDEST PUSH2 0x1E47 JUMP JUMPDEST SWAP1 POP DUP3 DUP2 MSTORE PUSH1 0x20 DUP2 ADD DUP5 DUP5 DUP5 ADD GT ISZERO PUSH2 0x1ECD JUMPI PUSH2 0x1ECC PUSH2 0x1DE5 JUMP JUMPDEST JUMPDEST PUSH2 0x1ED8 DUP5 DUP3 DUP6 PUSH2 0x1E91 JUMP JUMPDEST POP SWAP4 SWAP3 POP POP POP JUMP JUMPDEST PUSH0 DUP3 PUSH1 0x1F DUP4 ADD SLT PUSH2 0x1EF4 JUMPI PUSH2 0x1EF3 PUSH2 0x1DE1 JUMP JUMPDEST JUMPDEST DUP2 CALLDATALOAD PUSH2 0x1F04 DUP5 DUP3 PUSH1 0x20 DUP7 ADD PUSH2 0x1E9F JUMP JUMPDEST SWAP2 POP POP SWAP3 SWAP2 POP POP JUMP JUMPDEST PUSH0 DUP1 PUSH0 DUP1 PUSH1 0x80 DUP6 DUP8 SUB SLT ISZERO PUSH2 0x1F25 JUMPI PUSH2 0x1F24 PUSH2 0x1A53 JUMP JUMPDEST JUMPDEST PUSH0 PUSH2 0x1F32 DUP8 DUP3 DUP9 ADD PUSH2 0x1C84 JUMP JUMPDEST SWAP5 POP POP PUSH1 0x20 PUSH2 0x1F43 DUP8 DUP3 DUP9 ADD PUSH2 0x1C84 JUMP JUMPDEST SWAP4 POP POP PUSH1 0x40 PUSH2 0x1F54 DUP8 DUP3 DUP9 ADD PUSH2 0x1BD7 JUMP JUMPDEST SWAP3 POP POP PUSH1 0x60 DUP6 ADD CALLDATALOAD PUSH8 0xFFFFFFFFFFFFFFFF DUP2 GT ISZERO PUSH2 0x1F75 JUMPI PUSH2 0x1F74 PUSH2 0x1A57 JUMP JUMPDEST JUMPDEST PUSH2 0x1F81 DUP8 DUP3 DUP9 ADD PUSH2 0x1EE0 JUMP JUMPDEST SWAP2 POP POP SWAP3 SWAP6 SWAP2 SWAP5 POP SWAP3 POP JUMP JUMPDEST PUSH0 DUP1 PUSH1 0x40 DUP4 DUP6 SUB SLT ISZERO PUSH2 0x1FA3 JUMPI PUSH2 0x1FA2 PUSH2 0x1A53 JUMP JUMPDEST JUMPDEST PUSH0 PUSH2 0x1FB0 DUP6 DUP3 DUP7 ADD PUSH2 0x1C84 JUMP JUMPDEST SWAP3 POP POP PUSH1 0x20 PUSH2 0x1FC1 DUP6 DUP3 DUP7 ADD PUSH2 0x1C84 JUMP JUMPDEST SWAP2 POP POP SWAP3 POP SWAP3 SWAP1 POP JUMP JUMPDEST PUSH32 0x4E487B7100000000000000000000000000000000000000000000000000000000 PUSH0 MSTORE PUSH1 0x22 PUSH1 0x4 MSTORE PUSH1 0x24 PUSH0 REVERT JUMPDEST PUSH0 PUSH1 0x2 DUP3 DIV SWAP1 POP PUSH1 0x1 DUP3 AND DUP1 PUSH2 0x200F JUMPI PUSH1 0x7F DUP3 AND SWAP2 POP JUMPDEST PUSH1 0x20 DUP3 LT DUP2 SUB PUSH2 0x2022 JUMPI PUSH2 0x2021 PUSH2 0x1FCB JUMP JUMPDEST JUMPDEST POP SWAP2 SWAP1 POP JUMP JUMPDEST PUSH0 PUSH1 0x60 DUP3 ADD SWAP1 POP PUSH2 0x203B PUSH0 DUP4 ADD DUP7 PUSH2 0x1C46 JUMP JUMPDEST PUSH2 0x2048 PUSH1 0x20 DUP4 ADD DUP6 PUSH2 0x1D51 JUMP JUMPDEST PUSH2 0x2055 PUSH1 0x40 DUP4 ADD DUP5 PUSH2 0x1C46 JUMP JUMPDEST SWAP5 SWAP4 POP POP POP POP JUMP JUMPDEST PUSH32 0x5265656E7472616E742063616C6C206465746563746564000000000000000000 PUSH0 DUP3 ADD MSTORE POP JUMP JUMPDEST PUSH0 PUSH2 0x2091 PUSH1 0x17 DUP4 PUSH2 0x1B18 JUMP JUMPDEST SWAP2 POP PUSH2 0x209C DUP3 PUSH2 0x205D JUMP JUMPDEST PUSH1 0x20 DUP3 ADD SWAP1 POP SWAP2 SWAP1 POP JUMP JUMPDEST PUSH0 PUSH1 0x20 DUP3 ADD SWAP1 POP DUP2 DUP2 SUB PUSH0 DUP4 ADD MSTORE PUSH2 0x20BE DUP2 PUSH2 0x2085 JUMP JUMPDEST SWAP1 POP SWAP2 SWAP1 POP JUMP JUMPDEST PUSH0 DUP2 SWAP1 POP SWAP3 SWAP2 POP POP JUMP JUMPDEST PUSH0 PUSH2 0x20D9 DUP3 PUSH2 0x1B0E JUMP JUMPDEST PUSH2 0x20E3 DUP2 DUP6 PUSH2 0x20C5 JUMP JUMPDEST SWAP4 POP PUSH2 0x20F3 DUP2 DUP6 PUSH1 0x20 DUP7 ADD PUSH2 0x1B28 JUMP JUMPDEST DUP1 DUP5 ADD SWAP2 POP POP SWAP3 SWAP2 POP POP JUMP JUMPDEST PUSH32 0x2E6A736F6E000000000000000000000000000000000000000000000000000000 DUP2 MSTORE POP JUMP JUMPDEST PUSH0 PUSH2 0x2130 DUP3 DUP5 PUSH2 0x20CF JUMP JUMPDEST SWAP2 POP PUSH2 0x213B DUP3 PUSH2 0x20FF JUMP JUMPDEST PUSH1 0x5 DUP3 ADD SWAP2 POP DUP2 SWAP1 POP SWAP3 SWAP2 POP POP JUMP JUMPDEST PUSH32 0x4E487B7100000000000000000000000000000000000000000000000000000000 PUSH0 MSTORE PUSH1 0x11 PUSH1 0x4 MSTORE PUSH1 0x24 PUSH0 REVERT JUMPDEST PUSH0 PUSH2 0x2181 DUP3 PUSH2 0x1BB8 JUMP JUMPDEST SWAP2 POP PUSH32 0xFFFFFFFFFFFFFFFFFFFFFFFFFFFFFFFFFFFFFFFFFFFFFFFFFFFFFFFFFFFFFFFF DUP3 SUB PUSH2 0x21B3 JUMPI PUSH2 0x21B2 PUSH2 0x214A JUMP JUMPDEST JUMPDEST PUSH1 0x1 DUP3 ADD SWAP1 POP SWAP2 SWAP1 POP JUMP JUMPDEST PUSH32 0x4E487B7100000000000000000000000000000000000000000000000000000000 PUSH0 MSTORE PUSH1 0x12 PUSH1 0x4 MSTORE PUSH1 0x24 PUSH0 REVERT JUMPDEST PUSH0 PUSH2 0x21F5 DUP3 PUSH2 0x1BB8 JUMP JUMPDEST SWAP2 POP PUSH2 0x2200 DUP4 PUSH2 0x1BB8 JUMP JUMPDEST SWAP3 POP DUP3 PUSH2 0x2210 JUMPI PUSH2 0x220F PUSH2 0x21BE JUMP JUMPDEST JUMPDEST DUP3 DUP3 DIV SWAP1 POP SWAP3 SWAP2 POP POP JUMP JUMPDEST PUSH0 PUSH2 0x2225 DUP3 PUSH2 0x1BB8 JUMP JUMPDEST SWAP2 POP PUSH2 0x2230 DUP4 PUSH2 0x1BB8 JUMP JUMPDEST SWAP3 POP DUP3 DUP3 SUB SWAP1 POP DUP2 DUP2 GT ISZERO PUSH2 0x2248 JUMPI PUSH2 0x2247 PUSH2 0x214A JUMP JUMPDEST JUMPDEST SWAP3 SWAP2 POP POP JUMP JUMPDEST PUSH0 PUSH2 0x2258 DUP3 PUSH2 0x1BB8 JUMP JUMPDEST SWAP2 POP PUSH2 0x2263 DUP4 PUSH2 0x1BB8 JUMP JUMPDEST SWAP3 POP DUP3 PUSH2 0x2273 JUMPI PUSH2 0x2272 PUSH2 0x21BE JUMP JUMPDEST JUMPDEST DUP3 DUP3 MOD SWAP1 POP SWAP3 SWAP2 POP POP JUMP JUMPDEST PUSH0 PUSH2 0x2288 DUP3 PUSH2 0x1BB8 JUMP JUMPDEST SWAP2 POP PUSH2 0x2293 DUP4 PUSH2 0x1BB8 JUMP JUMPDEST SWAP3 POP DUP3 DUP3 ADD SWAP1 POP DUP1 DUP3 GT ISZERO PUSH2 0x22AB JUMPI PUSH2 0x22AA PUSH2 0x214A JUMP JUMPDEST JUMPDEST SWAP3 SWAP2 POP POP JUMP JUMPDEST PUSH32 0x4E487B7100000000000000000000000000000000000000000000000000000000 PUSH0 MSTORE PUSH1 0x32 PUSH1 0x4 MSTORE PUSH1 0x24 PUSH0 REVERT JUMPDEST PUSH0 DUP2 SWAP1 POP DUP2 PUSH0 MSTORE PUSH1 0x20 PUSH0 KECCAK256 SWAP1 POP SWAP2 SWAP1 POP JUMP JUMPDEST PUSH0 PUSH1 0x20 PUSH1 0x1F DUP4 ADD DIV SWAP1 POP SWAP2 SWAP1 POP JUMP JUMPDEST PUSH0 DUP3 DUP3 SHL SWAP1 POP SWAP3 SWAP2 POP POP JUMP JUMPDEST PUSH0 PUSH1 0x8 DUP4 MUL PUSH2 0x233A PUSH32 0xFFFFFFFFFFFFFFFFFFFFFFFFFFFFFFFFFFFFFFFFFFFFFFFFFFFFFFFFFFFFFFFF DUP3 PUSH2 0x22FF JUMP JUMPDEST PUSH2 0x2344 DUP7 DUP4 PUSH2 0x22FF JUMP JUMPDEST SWAP6 POP DUP1 NOT DUP5 AND SWAP4 POP DUP1 DUP7 AND DUP5 OR SWAP3 POP POP POP SWAP4 SWAP3 POP POP POP JUMP JUMPDEST PUSH0 DUP2 SWAP1 POP SWAP2 SWAP1 POP JUMP JUMPDEST PUSH0 PUSH2 0x237F PUSH2 0x237A PUSH2 0x2375 DUP5 PUSH2 0x1BB8 JUMP JUMPDEST PUSH2 0x235C JUMP JUMPDEST PUSH2 0x1BB8 JUMP JUMPDEST SWAP1 POP SWAP2 SWAP1 POP JUMP JUMPDEST PUSH0 DUP2 SWAP1 POP SWAP2 SWAP1 POP JUMP JUMPDEST PUSH2 0x2398 DUP4 PUSH2 0x2365 JUMP JUMPDEST PUSH2 0x23AC PUSH2 0x23A4 DUP3 PUSH2 0x2386 JUMP JUMPDEST DUP5 DUP5 SLOAD PUSH2 0x230B JUMP JUMPDEST DUP3 SSTORE POP POP POP POP JUMP JUMPDEST PUSH0 SWAP1 JUMP JUMPDEST PUSH2 0x23C0 PUSH2 0x23B4 JUMP JUMPDEST PUSH2 0x23CB DUP2 DUP5 DUP5 PUSH2 0x238F JUMP JUMPDEST POP POP POP JUMP JUMPDEST JUMPDEST DUP2 DUP2 LT ISZERO PUSH2 0x23EE JUMPI PUSH2 0x23E3 PUSH0 DUP3 PUSH2 0x23B8 JUMP JUMPDEST PUSH1 0x1 DUP2 ADD SWAP1 POP PUSH2 0x23D1 JUMP JUMPDEST POP POP JUMP JUMPDEST PUSH1 0x1F DUP3 GT ISZERO PUSH2 0x2433 JUMPI PUSH2 0x2404 DUP2 PUSH2 0x22DE JUMP JUMPDEST PUSH2 0x240D DUP5 PUSH2 0x22F0 JUMP JUMPDEST DUP2 ADD PUSH1 0x20 DUP6 LT ISZERO PUSH2 0x241C JUMPI DUP2 SWAP1 POP JUMPDEST PUSH2 0x2430 PUSH2 0x2428 DUP6 PUSH2 0x22F0 JUMP JUMPDEST DUP4 ADD DUP3 PUSH2 0x23D0 JUMP JUMPDEST POP POP JUMPDEST POP POP POP JUMP JUMPDEST PUSH0 DUP3 DUP3 SHR SWAP1 POP SWAP3 SWAP2 POP POP JUMP JUMPDEST PUSH0 PUSH2 0x2453 PUSH0 NOT DUP5 PUSH1 0x8 MUL PUSH2 0x2438 JUMP JUMPDEST NOT DUP1 DUP4 AND SWAP2 POP POP SWAP3 SWAP2 POP POP JUMP JUMPDEST PUSH0 PUSH2 0x246B DUP4 DUP4 PUSH2 0x2444 JUMP JUMPDEST SWAP2 POP DUP3 PUSH1 0x2 MUL DUP3 OR SWAP1 POP SWAP3 SWAP2 POP POP JUMP JUMPDEST PUSH2 0x2484 DUP3 PUSH2 0x1B0E JUMP JUMPDEST PUSH8 0xFFFFFFFFFFFFFFFF DUP2 GT ISZERO PUSH2 0x249D JUMPI PUSH2 0x249C PUSH2 0x1DE9 JUMP JUMPDEST JUMPDEST PUSH2 0x24A7 DUP3 SLOAD PUSH2 0x1FF8 JUMP JUMPDEST PUSH2 0x24B2 DUP3 DUP3 DUP6 PUSH2 0x23F2 JUMP JUMPDEST PUSH0 PUSH1 0x20 SWAP1 POP PUSH1 0x1F DUP4 GT PUSH1 0x1 DUP2 EQ PUSH2 0x24E3 JUMPI PUSH0 DUP5 ISZERO PUSH2 0x24D1 JUMPI DUP3 DUP8 ADD MLOAD SWAP1 POP JUMPDEST PUSH2 0x24DB DUP6 DUP3 PUSH2 0x2460 JUMP JUMPDEST DUP7 SSTORE POP PUSH2 0x2542 JUMP JUMPDEST PUSH1 0x1F NOT DUP5 AND PUSH2 0x24F1 DUP7 PUSH2 0x22DE JUMP JUMPDEST PUSH0 JUMPDEST DUP3 DUP2 LT ISZERO PUSH2 0x2518 JUMPI DUP5 DUP10 ADD MLOAD DUP3 SSTORE PUSH1 0x1 DUP3 ADD SWAP2 POP PUSH1 0x20 DUP6 ADD SWAP5 POP PUSH1 0x20 DUP2 ADD SWAP1 POP PUSH2 0x24F3 JUMP JUMPDEST DUP7 DUP4 LT ISZERO PUSH2 0x2535 JUMPI DUP5 DUP10 ADD MLOAD PUSH2 0x2531 PUSH1 0x1F DUP10 AND DUP3 PUSH2 0x2444 JUMP JUMPDEST DUP4 SSTORE POP JUMPDEST PUSH1 0x1 PUSH1 0x2 DUP9 MUL ADD DUP9 SSTORE POP POP POP JUMPDEST POP POP POP POP POP POP JUMP JUMPDEST PUSH0 DUP2 MLOAD SWAP1 POP SWAP2 SWAP1 POP JUMP JUMPDEST PUSH0 DUP3 DUP3 MSTORE PUSH1 0x20 DUP3 ADD SWAP1 POP SWAP3 SWAP2 POP POP JUMP JUMPDEST PUSH0 PUSH2 0x256E DUP3 PUSH2 0x254A JUMP JUMPDEST PUSH2 0x2578 DUP2 DUP6 PUSH2 0x2554 JUMP JUMPDEST SWAP4 POP PUSH2 0x2588 DUP2 DUP6 PUSH1 0x20 DUP7 ADD PUSH2 0x1B28 JUMP JUMPDEST PUSH2 0x2591 DUP2 PUSH2 0x1B50 JUMP JUMPDEST DUP5 ADD SWAP2 POP POP SWAP3 SWAP2 POP POP JUMP JUMPDEST PUSH0 PUSH1 0x80 DUP3 ADD SWAP1 POP PUSH2 0x25AF PUSH0 DUP4 ADD DUP8 PUSH2 0x1C46 JUMP JUMPDEST PUSH2 0x25BC PUSH1 0x20 DUP4 ADD DUP7 PUSH2 0x1C46 JUMP JUMPDEST PUSH2 0x25C9 PUSH1 0x40 DUP4 ADD DUP6 PUSH2 0x1D51 JUMP JUMPDEST DUP2 DUP2 SUB PUSH1 0x60 DUP4 ADD MSTORE PUSH2 0x25DB DUP2 DUP5 PUSH2 0x2564 JUMP JUMPDEST SWAP1 POP SWAP6 SWAP5 POP POP POP POP POP JUMP JUMPDEST PUSH0 DUP2 MLOAD SWAP1 POP PUSH2 0x25F4 DUP2 PUSH2 0x1A86 JUMP JUMPDEST SWAP3 SWAP2 POP POP JUMP JUMPDEST PUSH0 PUSH1 0x20 DUP3 DUP5 SUB SLT ISZERO PUSH2 0x260F JUMPI PUSH2 0x260E PUSH2 0x1A53 JUMP JUMPDEST JUMPDEST PUSH0 PUSH2 0x261C DUP5 DUP3 DUP6 ADD PUSH2 0x25E6 JUMP JUMPDEST SWAP2 POP POP SWAP3 SWAP2 POP POP JUMP JUMPDEST PUSH0 PUSH2 0x2630 DUP3 DUP6 PUSH2 0x20CF JUMP JUMPDEST SWAP2 POP PUSH2 0x263C DUP3 DUP5 PUSH2 0x20CF JUMP JUMPDEST SWAP2 POP DUP2 SWAP1 POP SWAP4 SWAP3 POP POP POP JUMP JUMPDEST PUSH0 PUSH1 0x40 DUP3 ADD SWAP1 POP PUSH2 0x265B PUSH0 DUP4 ADD DUP6 PUSH2 0x1C46 JUMP JUMPDEST PUSH2 0x2668 PUSH1 0x20 DUP4 ADD DUP5 PUSH2 0x1D51 JUMP JUMPDEST SWAP4 SWAP3 POP POP POP JUMP INVALID PUSH10 0x7066733A2F2F516D6163 CODESIZE CODECOPY PUSH20 0x5A545347764B6B795961327672786452616B5052 GASLIMIT PUSH2 0x4746 0x4A MSTORE8 0x4E 0x4A MSTORE MSTORE JUMPI PUSH6 0x747A544C5154 0x4D 0x2F LOG2 PUSH5 0x6970667358 0x22 SLT KECCAK256 LOG4 ISZERO PUSH12 0x5470F38791730AA3A95AAD0C 0xC0 DIV 0xE9 0x4B 0xE9 DUP15 JUMPDEST 0xDC 0xC2 0xD4 SWAP13 ADDMOD DUP11 CALLCODE 0xD4 SWAP15 0x4B PUSH5 0x736F6C6343 STOP ADDMOD ISZERO STOP CALLER "
				},
				"gasEstimates": {
					"creation": {
						"codeDepositCost": "1989400",
						"executionCost": "infinite",
						"totalCost": "infinite"
					},
					"external": {
						"approve(address,uint256)": "infinite",
						"balanceOf(address)": "infinite",
						"burn(uint256)": "infinite",
						"getApproved(uint256)": "infinite",
						"isApprovedForAll(address,address)": "infinite",
						"name()": "infinite",
						"owner()": "2582",
						"ownerOf(uint256)": "infinite",
						"renounceOwnership()": "infinite",
						"safeMint(address)": "infinite",
						"safeTransferFrom(address,address,uint256)": "infinite",
						"safeTransferFrom(address,address,uint256,bytes)": "infinite",
						"setApprovalForAll(address,bool)": "infinite",
						"supportsInterface(bytes4)": "923",
						"symbol()": "infinite",
						"tokenURI(uint256)": "infinite",
						"transferFrom(address,address,uint256)": "infinite",
						"transferOwnership(address)": "infinite"
					}
				},
				"methodIdentifiers": {
					"approve(address,uint256)": "095ea7b3",
					"balanceOf(address)": "70a08231",
					"burn(uint256)": "42966c68",
					"getApproved(uint256)": "081812fc",
					"isApprovedForAll(address,address)": "e985e9c5",
					"name()": "06fdde03",
					"owner()": "8da5cb5b",
					"ownerOf(uint256)": "6352211e",
					"renounceOwnership()": "715018a6",
					"safeMint(address)": "40d097c3",
					"safeTransferFrom(address,address,uint256)": "42842e0e",
					"safeTransferFrom(address,address,uint256,bytes)": "b88d4fde",
					"setApprovalForAll(address,bool)": "a22cb465",
					"supportsInterface(bytes4)": "01ffc9a7",
					"symbol()": "95d89b41",
					"tokenURI(uint256)": "c87b56dd",
					"transferFrom(address,address,uint256)": "23b872dd",
					"transferOwnership(address)": "f2fde38b"
				}
			},
			"storageLayout": {
				"storage": [
					{
						"astId": 649,
						"contract": "erc721Flat.sol:myerc721",
						"label": "_name",
						"offset": 0,
						"slot": "0",
						"type": "t_string_storage"
					},
					{
						"astId": 651,
						"contract": "erc721Flat.sol:myerc721",
						"label": "_symbol",
						"offset": 0,
						"slot": "1",
						"type": "t_string_storage"
					},
					{
						"astId": 655,
						"contract": "erc721Flat.sol:myerc721",
						"label": "_owners",
						"offset": 0,
						"slot": "2",
						"type": "t_mapping(t_uint256,t_address)"
					},
					{
						"astId": 659,
						"contract": "erc721Flat.sol:myerc721",
						"label": "_balances",
						"offset": 0,
						"slot": "3",
						"type": "t_mapping(t_address,t_uint256)"
					},
					{
						"astId": 663,
						"contract": "erc721Flat.sol:myerc721",
						"label": "_tokenApprovals",
						"offset": 0,
						"slot": "4",
						"type": "t_mapping(t_uint256,t_address)"
					},
					{
						"astId": 669,
						"contract": "erc721Flat.sol:myerc721",
						"label": "_operatorApprovals",
						"offset": 0,
						"slot": "5",
						"type": "t_mapping(t_address,t_mapping(t_address,t_bool))"
					},
					{
						"astId": 1513,
						"contract": "erc721Flat.sol:myerc721",
						"label": "_tokenURIs",
						"offset": 0,
						"slot": "6",
						"type": "t_mapping(t_uint256,t_string_storage)"
					},
					{
						"astId": 284,
						"contract": "erc721Flat.sol:myerc721",
						"label": "_owner",
						"offset": 0,
						"slot": "7",
						"type": "t_address"
					},
					{
						"astId": 1632,
						"contract": "erc721Flat.sol:myerc721",
						"label": "_tokenIdCounter",
						"offset": 0,
						"slot": "8",
						"type": "t_struct(Counter)5_storage"
					},
					{
						"astId": 1634,
						"contract": "erc721Flat.sol:myerc721",
						"label": "reentrancyGuard",
						"offset": 0,
						"slot": "9",
						"type": "t_bool"
					}
				],
				"types": {
					"t_address": {
						"encoding": "inplace",
						"label": "address",
						"numberOfBytes": "20"
					},
					"t_bool": {
						"encoding": "inplace",
						"label": "bool",
						"numberOfBytes": "1"
					},
					"t_mapping(t_address,t_bool)": {
						"encoding": "mapping",
						"key": "t_address",
						"label": "mapping(address => bool)",
						"numberOfBytes": "32",
						"value": "t_bool"
					},
					"t_mapping(t_address,t_mapping(t_address,t_bool))": {
						"encoding": "mapping",
						"key": "t_address",
						"label": "mapping(address => mapping(address => bool))",
						"numberOfBytes": "32",
						"value": "t_mapping(t_address,t_bool)"
					},
					"t_mapping(t_address,t_uint256)": {
						"encoding": "mapping",
						"key": "t_address",
						"label": "mapping(address => uint256)",
						"numberOfBytes": "32",
						"value": "t_uint256"
					},
					"t_mapping(t_uint256,t_address)": {
						"encoding": "mapping",
						"key": "t_uint256",
						"label": "mapping(uint256 => address)",
						"numberOfBytes": "32",
						"value": "t_address"
					},
					"t_mapping(t_uint256,t_string_storage)": {
						"encoding": "mapping",
						"key": "t_uint256",
						"label": "mapping(uint256 => string)",
						"numberOfBytes": "32",
						"value": "t_string_storage"
					},
					"t_string_storage": {
						"encoding": "bytes",
						"label": "string",
						"numberOfBytes": "32"
					},
					"t_struct(Counter)5_storage": {
						"encoding": "inplace",
						"label": "struct Counters.Counter",
						"members": [
							{
								"astId": 4,
								"contract": "erc721Flat.sol:myerc721",
								"label": "_value",
								"offset": 0,
								"slot": "0",
								"type": "t_uint256"
							}
						],
						"numberOfBytes": "32"
					},
					"t_uint256": {
						"encoding": "inplace",
						"label": "uint256",
						"numberOfBytes": "32"
					}
				}
			},
			"userdoc": {
				"kind": "user",
				"methods": {},
				"version": 1
			}
		}
	}
}