{
	"data": {
		"bytecode": {
			"linkReferences": {},
			"object": "60806040526040518060a00160405280600260ff168152602001600460ff168152602001600660ff168152602001600860ff168152602001600a60ff168152506003906005620000519291906200010b565b503480156200005e575f80fd5b5060405162001294380380620012948339818101604052810190620000849190620001f5565b8060015f6101000a81548173ffffffffffffffffffffffffffffffffffffffff021916908373ffffffffffffffffffffffffffffffffffffffff1602179055503360025f6101000a81548173ffffffffffffffffffffffffffffffffffffffff021916908373ffffffffffffffffffffffffffffffffffffffff1602179055505062000225565b828054828255905f5260205f209081019282156200014d579160200282015b828111156200014c578251829060ff169055916020019190600101906200012a565b5b5090506200015c919062000160565b5090565b5b8082111562000179575f815f90555060010162000161565b5090565b5f80fd5b5f73ffffffffffffffffffffffffffffffffffffffff82169050919050565b5f620001ac8262000181565b9050919050565b5f620001bf82620001a0565b9050919050565b620001d181620001b3565b8114620001dc575f80fd5b50565b5f81519050620001ef81620001c6565b92915050565b5f602082840312156200020d576200020c6200017d565b5b5f6200021c84828501620001df565b91505092915050565b61106180620002335f395ff3fe608060405234801561000f575f80fd5b506004361061009c575f3560e01c8063b4a99a4e11610064578063b4a99a4e14610181578063b5d5b5fa1461019f578063c9757417146101d2578063d2d7231f14610202578063fc0c546a146102335761009c565b806322d8bc84146100a05780632fa78085146100be57806347c4d742146100ee57806353e1a7971461011e5780635ee0d9b414610151575b5f80fd5b6100a8610251565b6040516100b5919061094e565b60405180910390f35b6100d860048036038101906100d391906109cc565b6102a7565b6040516100e59190610a06565b60405180910390f35b61010860048036038101906101039190610a49565b610348565b6040516101159190610ada565b60405180910390f35b61013860048036038101906101339190610af3565b6105b8565b6040516101489493929190610b1e565b60405180910390f35b61016b600480360381019061016691906109cc565b6105e4565b6040516101789190610c5c565b60405180910390f35b6101896106a4565b6040516101969190610c8b565b60405180910390f35b6101b960048036038101906101b49190610ca4565b6106c9565b6040516101c99493929190610b1e565b60405180910390f35b6101ec60048036038101906101e79190610af3565b61070f565b6040516101f99190610ada565b60405180910390f35b61021c60048036038101906102179190610af3565b610761565b60405161022a929190610ce2565b60405180910390f35b61023b610825565b6040516102489190610d64565b60405180910390f35b6060600380548060200260200160405190810160405280929190818152602001828054801561029d57602002820191905f5260205f20905b815481526020019060010190808311610289575b5050505050905090565b5f60015f9054906101000a900473ffffffffffffffffffffffffffffffffffffffff1673ffffffffffffffffffffffffffffffffffffffff166370a08231836040518263ffffffff1660e01b81526004016103029190610c8b565b602060405180830381865afa15801561031d573d5f803e3d5ffd5b505050506040513d601f19601f820116820180604052508101906103419190610d91565b9050919050565b61035061086a565b5f8311610392576040517f08c379a000000000000000000000000000000000000000000000000000000000815260040161038990610e16565b60405180910390fd5b60028214806103a15750600482145b806103ac5750600682145b806103b75750600882145b806103c25750600a82145b610401576040517f08c379a00000000000000000000000000000000000000000000000000000000081526004016103f890610ea4565b60405180910390fd5b61040a5f61084a565b505f60405180608001604052806104205f61084a565b815260200185815260200184815260200142815250905060045f3373ffffffffffffffffffffffffffffffffffffffff1673ffffffffffffffffffffffffffffffffffffffff1681526020019081526020015f2081908060018154018082558091505060019003905f5260205f2090600402015f909190919091505f820151815f0155602082015181600101556040820151816002015560608201518160030155505060015f9054906101000a900473ffffffffffffffffffffffffffffffffffffffff1673ffffffffffffffffffffffffffffffffffffffff166323b872dd3330876040518463ffffffff1660e01b815260040161052193929190610ec2565b6020604051808303815f875af115801561053d573d5f803e3d5ffd5b505050506040513d601f19601f820116820180604052508101906105619190610f2c565b508060055f61056f5f61084a565b81526020019081526020015f205f820151815f01556020820151816001015560408201518160020155606082015181600301559050506105ae5f610856565b8091505092915050565b6005602052805f5260405f205f91509050805f0154908060010154908060020154908060030154905084565b606060045f8373ffffffffffffffffffffffffffffffffffffffff1673ffffffffffffffffffffffffffffffffffffffff1681526020019081526020015f20805480602002602001604051908101604052809291908181526020015f905b82821015610699578382905f5260205f2090600402016040518060800160405290815f8201548152602001600182015481526020016002820154815260200160038201548152505081526020019060010190610642565b505050509050919050565b60025f9054906101000a900473ffffffffffffffffffffffffffffffffffffffff1681565b6004602052815f5260405f2081815481106106e2575f80fd5b905f5260205f2090600402015f9150915050805f0154908060010154908060020154908060030154905084565b61071761086a565b60055f8381526020019081526020015f206040518060800160405290815f820154815260200160018201548152602001600282015481526020016003820154815250509050919050565b5f8060055f8481526020019081526020015f20505f4290505f60055f8681526020019081526020015f20600301548261079a9190610f84565b9050603c60055f8781526020019081526020015f20600201546107bd9190610fb7565b8111156107e857603c60055f8781526020019081526020015f20600201546107e59190610fb7565b90505b5f6001826107f69190610fb7565b90508060055f8881526020019081526020015f2060010154826108199190610ff8565b94509450505050915091565b60015f9054906101000a900473ffffffffffffffffffffffffffffffffffffffff1681565b5f815f01549050919050565b6001815f015f828254019250508190555050565b60405180608001604052805f81526020015f81526020015f81526020015f81525090565b5f81519050919050565b5f82825260208201905092915050565b5f819050602082019050919050565b5f819050919050565b6108c9816108b7565b82525050565b5f6108da83836108c0565b60208301905092915050565b5f602082019050919050565b5f6108fc8261088e565b6109068185610898565b9350610911836108a8565b805f5b8381101561094157815161092888826108cf565b9750610933836108e6565b925050600181019050610914565b5085935050505092915050565b5f6020820190508181035f83015261096681846108f2565b905092915050565b5f80fd5b5f73ffffffffffffffffffffffffffffffffffffffff82169050919050565b5f61099b82610972565b9050919050565b6109ab81610991565b81146109b5575f80fd5b50565b5f813590506109c6816109a2565b92915050565b5f602082840312156109e1576109e061096e565b5b5f6109ee848285016109b8565b91505092915050565b610a00816108b7565b82525050565b5f602082019050610a195f8301846109f7565b92915050565b610a28816108b7565b8114610a32575f80fd5b50565b5f81359050610a4381610a1f565b92915050565b5f8060408385031215610a5f57610a5e61096e565b5b5f610a6c85828601610a35565b9250506020610a7d85828601610a35565b9150509250929050565b608082015f820151610a9b5f8501826108c0565b506020820151610aae60208501826108c0565b506040820151610ac160408501826108c0565b506060820151610ad460608501826108c0565b50505050565b5f608082019050610aed5f830184610a87565b92915050565b5f60208284031215610b0857610b0761096e565b5b5f610b1584828501610a35565b91505092915050565b5f608082019050610b315f8301876109f7565b610b3e60208301866109f7565b610b4b60408301856109f7565b610b5860608301846109f7565b95945050505050565b5f81519050919050565b5f82825260208201905092915050565b5f819050602082019050919050565b608082015f820151610b9e5f8501826108c0565b506020820151610bb160208501826108c0565b506040820151610bc460408501826108c0565b506060820151610bd760608501826108c0565b50505050565b5f610be88383610b8a565b60808301905092915050565b5f602082019050919050565b5f610c0a82610b61565b610c148185610b6b565b9350610c1f83610b7b565b805f5b83811015610c4f578151610c368882610bdd565b9750610c4183610bf4565b925050600181019050610c22565b5085935050505092915050565b5f6020820190508181035f830152610c748184610c00565b905092915050565b610c8581610991565b82525050565b5f602082019050610c9e5f830184610c7c565b92915050565b5f8060408385031215610cba57610cb961096e565b5b5f610cc7858286016109b8565b9250506020610cd885828601610a35565b9150509250929050565b5f604082019050610cf55f8301856109f7565b610d0260208301846109f7565b9392505050565b5f819050919050565b5f610d2c610d27610d2284610972565b610d09565b610972565b9050919050565b5f610d3d82610d12565b9050919050565b5f610d4e82610d33565b9050919050565b610d5e81610d44565b82525050565b5f602082019050610d775f830184610d55565b92915050565b5f81519050610d8b81610a1f565b92915050565b5f60208284031215610da657610da561096e565b5b5f610db384828501610d7d565b91505092915050565b5f82825260208201905092915050565b7f416d6f756e74206d7573742062652067726561746572207468616e207a65726f5f82015250565b5f610e00602083610dbc565b9150610e0b82610dcc565b602082019050919050565b5f6020820190508181035f830152610e2d81610df4565b9050919050565b7f456e746572204475726174696f6e20696e20666f726d61746520636865636b205f8201527f6475726174696f6e000000000000000000000000000000000000000000000000602082015250565b5f610e8e602883610dbc565b9150610e9982610e34565b604082019050919050565b5f6020820190508181035f830152610ebb81610e82565b9050919050565b5f606082019050610ed55f830186610c7c565b610ee26020830185610c7c565b610eef60408301846109f7565b949350505050565b5f8115159050919050565b610f0b81610ef7565b8114610f15575f80fd5b50565b5f81519050610f2681610f02565b92915050565b5f60208284031215610f4157610f4061096e565b5b5f610f4e84828501610f18565b91505092915050565b7f4e487b71000000000000000000000000000000000000000000000000000000005f52601160045260245ffd5b5f610f8e826108b7565b9150610f99836108b7565b9250828203905081811115610fb157610fb0610f57565b5b92915050565b5f610fc1826108b7565b9150610fcc836108b7565b9250828202610fda816108b7565b91508282048414831517610ff157610ff0610f57565b5b5092915050565b5f611002826108b7565b915061100d836108b7565b925082820190508082111561102557611024610f57565b5b9291505056fea26469706673582212207b9f5fd10315f135e47e596ca74da34b0d39a910115a6f39854daa12534f2cb864736f6c63430008150033",
			"opcodes": "PUSH1 0x80 PUSH1 0x40 MSTORE PUSH1 0x40 MLOAD DUP1 PUSH1 0xA0 ADD PUSH1 0x40 MSTORE DUP1 PUSH1 0x2 PUSH1 0xFF AND DUP2 MSTORE PUSH1 0x20 ADD PUSH1 0x4 PUSH1 0xFF AND DUP2 MSTORE PUSH1 0x20 ADD PUSH1 0x6 PUSH1 0xFF AND DUP2 MSTORE PUSH1 0x20 ADD PUSH1 0x8 PUSH1 0xFF AND DUP2 MSTORE PUSH1 0x20 ADD PUSH1 0xA PUSH1 0xFF AND DUP2 MSTORE POP PUSH1 0x3 SWAP1 PUSH1 0x5 PUSH3 0x51 SWAP3 SWAP2 SWAP1 PUSH3 0x10B JUMP JUMPDEST POP CALLVALUE DUP1 ISZERO PUSH3 0x5E JUMPI PUSH0 DUP1 REVERT JUMPDEST POP PUSH1 0x40 MLOAD PUSH3 0x1294 CODESIZE SUB DUP1 PUSH3 0x1294 DUP4 CODECOPY DUP2 DUP2 ADD PUSH1 0x40 MSTORE DUP2 ADD SWAP1 PUSH3 0x84 SWAP2 SWAP1 PUSH3 0x1F5 JUMP JUMPDEST DUP1 PUSH1 0x1 PUSH0 PUSH2 0x100 EXP DUP2 SLOAD DUP2 PUSH20 0xFFFFFFFFFFFFFFFFFFFFFFFFFFFFFFFFFFFFFFFF MUL NOT AND SWAP1 DUP4 PUSH20 0xFFFFFFFFFFFFFFFFFFFFFFFFFFFFFFFFFFFFFFFF AND MUL OR SWAP1 SSTORE POP CALLER PUSH1 0x2 PUSH0 PUSH2 0x100 EXP DUP2 SLOAD DUP2 PUSH20 0xFFFFFFFFFFFFFFFFFFFFFFFFFFFFFFFFFFFFFFFF MUL NOT AND SWAP1 DUP4 PUSH20 0xFFFFFFFFFFFFFFFFFFFFFFFFFFFFFFFFFFFFFFFF AND MUL OR SWAP1 SSTORE POP POP PUSH3 0x225 JUMP JUMPDEST DUP3 DUP1 SLOAD DUP3 DUP3 SSTORE SWAP1 PUSH0 MSTORE PUSH1 0x20 PUSH0 KECCAK256 SWAP1 DUP2 ADD SWAP3 DUP3 ISZERO PUSH3 0x14D JUMPI SWAP2 PUSH1 0x20 MUL DUP3 ADD JUMPDEST DUP3 DUP2 GT ISZERO PUSH3 0x14C JUMPI DUP3 MLOAD DUP3 SWAP1 PUSH1 0xFF AND SWAP1 SSTORE SWAP2 PUSH1 0x20 ADD SWAP2 SWAP1 PUSH1 0x1 ADD SWAP1 PUSH3 0x12A JUMP JUMPDEST JUMPDEST POP SWAP1 POP PUSH3 0x15C SWAP2 SWAP1 PUSH3 0x160 JUMP JUMPDEST POP SWAP1 JUMP JUMPDEST JUMPDEST DUP1 DUP3 GT ISZERO PUSH3 0x179 JUMPI PUSH0 DUP2 PUSH0 SWAP1 SSTORE POP PUSH1 0x1 ADD PUSH3 0x161 JUMP JUMPDEST POP SWAP1 JUMP JUMPDEST PUSH0 DUP1 REVERT JUMPDEST PUSH0 PUSH20 0xFFFFFFFFFFFFFFFFFFFFFFFFFFFFFFFFFFFFFFFF DUP3 AND SWAP1 POP SWAP2 SWAP1 POP JUMP JUMPDEST PUSH0 PUSH3 0x1AC DUP3 PUSH3 0x181 JUMP JUMPDEST SWAP1 POP SWAP2 SWAP1 POP JUMP JUMPDEST PUSH0 PUSH3 0x1BF DUP3 PUSH3 0x1A0 JUMP JUMPDEST SWAP1 POP SWAP2 SWAP1 POP JUMP JUMPDEST PUSH3 0x1D1 DUP2 PUSH3 0x1B3 JUMP JUMPDEST DUP2 EQ PUSH3 0x1DC JUMPI PUSH0 DUP1 REVERT JUMPDEST POP JUMP JUMPDEST PUSH0 DUP2 MLOAD SWAP1 POP PUSH3 0x1EF DUP2 PUSH3 0x1C6 JUMP JUMPDEST SWAP3 SWAP2 POP POP JUMP JUMPDEST PUSH0 PUSH1 0x20 DUP3 DUP5 SUB SLT ISZERO PUSH3 0x20D JUMPI PUSH3 0x20C PUSH3 0x17D JUMP JUMPDEST JUMPDEST PUSH0 PUSH3 0x21C DUP5 DUP3 DUP6 ADD PUSH3 0x1DF JUMP JUMPDEST SWAP2 POP POP SWAP3 SWAP2 POP POP JUMP JUMPDEST PUSH2 0x1061 DUP1 PUSH3 0x233 PUSH0 CODECOPY PUSH0 RETURN INVALID PUSH1 0x80 PUSH1 0x40 MSTORE CALLVALUE DUP1 ISZERO PUSH2 0xF JUMPI PUSH0 DUP1 REVERT JUMPDEST POP PUSH1 0x4 CALLDATASIZE LT PUSH2 0x9C JUMPI PUSH0 CALLDATALOAD PUSH1 0xE0 SHR DUP1 PUSH4 0xB4A99A4E GT PUSH2 0x64 JUMPI DUP1 PUSH4 0xB4A99A4E EQ PUSH2 0x181 JUMPI DUP1 PUSH4 0xB5D5B5FA EQ PUSH2 0x19F JUMPI DUP1 PUSH4 0xC9757417 EQ PUSH2 0x1D2 JUMPI DUP1 PUSH4 0xD2D7231F EQ PUSH2 0x202 JUMPI DUP1 PUSH4 0xFC0C546A EQ PUSH2 0x233 JUMPI PUSH2 0x9C JUMP JUMPDEST DUP1 PUSH4 0x22D8BC84 EQ PUSH2 0xA0 JUMPI DUP1 PUSH4 0x2FA78085 EQ PUSH2 0xBE JUMPI DUP1 PUSH4 0x47C4D742 EQ PUSH2 0xEE JUMPI DUP1 PUSH4 0x53E1A797 EQ PUSH2 0x11E JUMPI DUP1 PUSH4 0x5EE0D9B4 EQ PUSH2 0x151 JUMPI JUMPDEST PUSH0 DUP1 REVERT JUMPDEST PUSH2 0xA8 PUSH2 0x251 JUMP JUMPDEST PUSH1 0x40 MLOAD PUSH2 0xB5 SWAP2 SWAP1 PUSH2 0x94E JUMP JUMPDEST PUSH1 0x40 MLOAD DUP1 SWAP2 SUB SWAP1 RETURN JUMPDEST PUSH2 0xD8 PUSH1 0x4 DUP1 CALLDATASIZE SUB DUP2 ADD SWAP1 PUSH2 0xD3 SWAP2 SWAP1 PUSH2 0x9CC JUMP JUMPDEST PUSH2 0x2A7 JUMP JUMPDEST PUSH1 0x40 MLOAD PUSH2 0xE5 SWAP2 SWAP1 PUSH2 0xA06 JUMP JUMPDEST PUSH1 0x40 MLOAD DUP1 SWAP2 SUB SWAP1 RETURN JUMPDEST PUSH2 0x108 PUSH1 0x4 DUP1 CALLDATASIZE SUB DUP2 ADD SWAP1 PUSH2 0x103 SWAP2 SWAP1 PUSH2 0xA49 JUMP JUMPDEST PUSH2 0x348 JUMP JUMPDEST PUSH1 0x40 MLOAD PUSH2 0x115 SWAP2 SWAP1 PUSH2 0xADA JUMP JUMPDEST PUSH1 0x40 MLOAD DUP1 SWAP2 SUB SWAP1 RETURN JUMPDEST PUSH2 0x138 PUSH1 0x4 DUP1 CALLDATASIZE SUB DUP2 ADD SWAP1 PUSH2 0x133 SWAP2 SWAP1 PUSH2 0xAF3 JUMP JUMPDEST PUSH2 0x5B8 JUMP JUMPDEST PUSH1 0x40 MLOAD PUSH2 0x148 SWAP5 SWAP4 SWAP3 SWAP2 SWAP1 PUSH2 0xB1E JUMP JUMPDEST PUSH1 0x40 MLOAD DUP1 SWAP2 SUB SWAP1 RETURN JUMPDEST PUSH2 0x16B PUSH1 0x4 DUP1 CALLDATASIZE SUB DUP2 ADD SWAP1 PUSH2 0x166 SWAP2 SWAP1 PUSH2 0x9CC JUMP JUMPDEST PUSH2 0x5E4 JUMP JUMPDEST PUSH1 0x40 MLOAD PUSH2 0x178 SWAP2 SWAP1 PUSH2 0xC5C JUMP JUMPDEST PUSH1 0x40 MLOAD DUP1 SWAP2 SUB SWAP1 RETURN JUMPDEST PUSH2 0x189 PUSH2 0x6A4 JUMP JUMPDEST PUSH1 0x40 MLOAD PUSH2 0x196 SWAP2 SWAP1 PUSH2 0xC8B JUMP JUMPDEST PUSH1 0x40 MLOAD DUP1 SWAP2 SUB SWAP1 RETURN JUMPDEST PUSH2 0x1B9 PUSH1 0x4 DUP1 CALLDATASIZE SUB DUP2 ADD SWAP1 PUSH2 0x1B4 SWAP2 SWAP1 PUSH2 0xCA4 JUMP JUMPDEST PUSH2 0x6C9 JUMP JUMPDEST PUSH1 0x40 MLOAD PUSH2 0x1C9 SWAP5 SWAP4 SWAP3 SWAP2 SWAP1 PUSH2 0xB1E JUMP JUMPDEST PUSH1 0x40 MLOAD DUP1 SWAP2 SUB SWAP1 RETURN JUMPDEST PUSH2 0x1EC PUSH1 0x4 DUP1 CALLDATASIZE SUB DUP2 ADD SWAP1 PUSH2 0x1E7 SWAP2 SWAP1 PUSH2 0xAF3 JUMP JUMPDEST PUSH2 0x70F JUMP JUMPDEST PUSH1 0x40 MLOAD PUSH2 0x1F9 SWAP2 SWAP1 PUSH2 0xADA JUMP JUMPDEST PUSH1 0x40 MLOAD DUP1 SWAP2 SUB SWAP1 RETURN JUMPDEST PUSH2 0x21C PUSH1 0x4 DUP1 CALLDATASIZE SUB DUP2 ADD SWAP1 PUSH2 0x217 SWAP2 SWAP1 PUSH2 0xAF3 JUMP JUMPDEST PUSH2 0x761 JUMP JUMPDEST PUSH1 0x40 MLOAD PUSH2 0x22A SWAP3 SWAP2 SWAP1 PUSH2 0xCE2 JUMP JUMPDEST PUSH1 0x40 MLOAD DUP1 SWAP2 SUB SWAP1 RETURN JUMPDEST PUSH2 0x23B PUSH2 0x825 JUMP JUMPDEST PUSH1 0x40 MLOAD PUSH2 0x248 SWAP2 SWAP1 PUSH2 0xD64 JUMP JUMPDEST PUSH1 0x40 MLOAD DUP1 SWAP2 SUB SWAP1 RETURN JUMPDEST PUSH1 0x60 PUSH1 0x3 DUP1 SLOAD DUP1 PUSH1 0x20 MUL PUSH1 0x20 ADD PUSH1 0x40 MLOAD SWAP1 DUP2 ADD PUSH1 0x40 MSTORE DUP1 SWAP3 SWAP2 SWAP1 DUP2 DUP2 MSTORE PUSH1 0x20 ADD DUP3 DUP1 SLOAD DUP1 ISZERO PUSH2 0x29D JUMPI PUSH1 0x20 MUL DUP3 ADD SWAP2 SWAP1 PUSH0 MSTORE PUSH1 0x20 PUSH0 KECCAK256 SWAP1 JUMPDEST DUP2 SLOAD DUP2 MSTORE PUSH1 0x20 ADD SWAP1 PUSH1 0x1 ADD SWAP1 DUP1 DUP4 GT PUSH2 0x289 JUMPI JUMPDEST POP POP POP POP POP SWAP1 POP SWAP1 JUMP JUMPDEST PUSH0 PUSH1 0x1 PUSH0 SWAP1 SLOAD SWAP1 PUSH2 0x100 EXP SWAP1 DIV PUSH20 0xFFFFFFFFFFFFFFFFFFFFFFFFFFFFFFFFFFFFFFFF AND PUSH20 0xFFFFFFFFFFFFFFFFFFFFFFFFFFFFFFFFFFFFFFFF AND PUSH4 0x70A08231 DUP4 PUSH1 0x40 MLOAD DUP3 PUSH4 0xFFFFFFFF AND PUSH1 0xE0 SHL DUP2 MSTORE PUSH1 0x4 ADD PUSH2 0x302 SWAP2 SWAP1 PUSH2 0xC8B JUMP JUMPDEST PUSH1 0x20 PUSH1 0x40 MLOAD DUP1 DUP4 SUB DUP2 DUP7 GAS STATICCALL ISZERO DUP1 ISZERO PUSH2 0x31D JUMPI RETURNDATASIZE PUSH0 DUP1 RETURNDATACOPY RETURNDATASIZE PUSH0 REVERT JUMPDEST POP POP POP POP PUSH1 0x40 MLOAD RETURNDATASIZE PUSH1 0x1F NOT PUSH1 0x1F DUP3 ADD AND DUP3 ADD DUP1 PUSH1 0x40 MSTORE POP DUP2 ADD SWAP1 PUSH2 0x341 SWAP2 SWAP1 PUSH2 0xD91 JUMP JUMPDEST SWAP1 POP SWAP2 SWAP1 POP JUMP JUMPDEST PUSH2 0x350 PUSH2 0x86A JUMP JUMPDEST PUSH0 DUP4 GT PUSH2 0x392 JUMPI PUSH1 0x40 MLOAD PUSH32 0x8C379A000000000000000000000000000000000000000000000000000000000 DUP2 MSTORE PUSH1 0x4 ADD PUSH2 0x389 SWAP1 PUSH2 0xE16 JUMP JUMPDEST PUSH1 0x40 MLOAD DUP1 SWAP2 SUB SWAP1 REVERT JUMPDEST PUSH1 0x2 DUP3 EQ DUP1 PUSH2 0x3A1 JUMPI POP PUSH1 0x4 DUP3 EQ JUMPDEST DUP1 PUSH2 0x3AC JUMPI POP PUSH1 0x6 DUP3 EQ JUMPDEST DUP1 PUSH2 0x3B7 JUMPI POP PUSH1 0x8 DUP3 EQ JUMPDEST DUP1 PUSH2 0x3C2 JUMPI POP PUSH1 0xA DUP3 EQ JUMPDEST PUSH2 0x401 JUMPI PUSH1 0x40 MLOAD PUSH32 0x8C379A000000000000000000000000000000000000000000000000000000000 DUP2 MSTORE PUSH1 0x4 ADD PUSH2 0x3F8 SWAP1 PUSH2 0xEA4 JUMP JUMPDEST PUSH1 0x40 MLOAD DUP1 SWAP2 SUB SWAP1 REVERT JUMPDEST PUSH2 0x40A PUSH0 PUSH2 0x84A JUMP JUMPDEST POP PUSH0 PUSH1 0x40 MLOAD DUP1 PUSH1 0x80 ADD PUSH1 0x40 MSTORE DUP1 PUSH2 0x420 PUSH0 PUSH2 0x84A JUMP JUMPDEST DUP2 MSTORE PUSH1 0x20 ADD DUP6 DUP2 MSTORE PUSH1 0x20 ADD DUP5 DUP2 MSTORE PUSH1 0x20 ADD TIMESTAMP DUP2 MSTORE POP SWAP1 POP PUSH1 0x4 PUSH0 CALLER PUSH20 0xFFFFFFFFFFFFFFFFFFFFFFFFFFFFFFFFFFFFFFFF AND PUSH20 0xFFFFFFFFFFFFFFFFFFFFFFFFFFFFFFFFFFFFFFFF AND DUP2 MSTORE PUSH1 0x20 ADD SWAP1 DUP2 MSTORE PUSH1 0x20 ADD PUSH0 KECCAK256 DUP2 SWAP1 DUP1 PUSH1 0x1 DUP2 SLOAD ADD DUP1 DUP3 SSTORE DUP1 SWAP2 POP POP PUSH1 0x1 SWAP1 SUB SWAP1 PUSH0 MSTORE PUSH1 0x20 PUSH0 KECCAK256 SWAP1 PUSH1 0x4 MUL ADD PUSH0 SWAP1 SWAP2 SWAP1 SWAP2 SWAP1 SWAP2 POP PUSH0 DUP3 ADD MLOAD DUP2 PUSH0 ADD SSTORE PUSH1 0x20 DUP3 ADD MLOAD DUP2 PUSH1 0x1 ADD SSTORE PUSH1 0x40 DUP3 ADD MLOAD DUP2 PUSH1 0x2 ADD SSTORE PUSH1 0x60 DUP3 ADD MLOAD DUP2 PUSH1 0x3 ADD SSTORE POP POP PUSH1 0x1 PUSH0 SWAP1 SLOAD SWAP1 PUSH2 0x100 EXP SWAP1 DIV PUSH20 0xFFFFFFFFFFFFFFFFFFFFFFFFFFFFFFFFFFFFFFFF AND PUSH20 0xFFFFFFFFFFFFFFFFFFFFFFFFFFFFFFFFFFFFFFFF AND PUSH4 0x23B872DD CALLER ADDRESS DUP8 PUSH1 0x40 MLOAD DUP5 PUSH4 0xFFFFFFFF AND PUSH1 0xE0 SHL DUP2 MSTORE PUSH1 0x4 ADD PUSH2 0x521 SWAP4 SWAP3 SWAP2 SWAP1 PUSH2 0xEC2 JUMP JUMPDEST PUSH1 0x20 PUSH1 0x40 MLOAD DUP1 DUP4 SUB DUP2 PUSH0 DUP8 GAS CALL ISZERO DUP1 ISZERO PUSH2 0x53D JUMPI RETURNDATASIZE PUSH0 DUP1 RETURNDATACOPY RETURNDATASIZE PUSH0 REVERT JUMPDEST POP POP POP POP PUSH1 0x40 MLOAD RETURNDATASIZE PUSH1 0x1F NOT PUSH1 0x1F DUP3 ADD AND DUP3 ADD DUP1 PUSH1 0x40 MSTORE POP DUP2 ADD SWAP1 PUSH2 0x561 SWAP2 SWAP1 PUSH2 0xF2C JUMP JUMPDEST POP DUP1 PUSH1 0x5 PUSH0 PUSH2 0x56F PUSH0 PUSH2 0x84A JUMP JUMPDEST DUP2 MSTORE PUSH1 0x20 ADD SWAP1 DUP2 MSTORE PUSH1 0x20 ADD PUSH0 KECCAK256 PUSH0 DUP3 ADD MLOAD DUP2 PUSH0 ADD SSTORE PUSH1 0x20 DUP3 ADD MLOAD DUP2 PUSH1 0x1 ADD SSTORE PUSH1 0x40 DUP3 ADD MLOAD DUP2 PUSH1 0x2 ADD SSTORE PUSH1 0x60 DUP3 ADD MLOAD DUP2 PUSH1 0x3 ADD SSTORE SWAP1 POP POP PUSH2 0x5AE PUSH0 PUSH2 0x856 JUMP JUMPDEST DUP1 SWAP2 POP POP SWAP3 SWAP2 POP POP JUMP JUMPDEST PUSH1 0x5 PUSH1 0x20 MSTORE DUP1 PUSH0 MSTORE PUSH1 0x40 PUSH0 KECCAK256 PUSH0 SWAP2 POP SWAP1 POP DUP1 PUSH0 ADD SLOAD SWAP1 DUP1 PUSH1 0x1 ADD SLOAD SWAP1 DUP1 PUSH1 0x2 ADD SLOAD SWAP1 DUP1 PUSH1 0x3 ADD SLOAD SWAP1 POP DUP5 JUMP JUMPDEST PUSH1 0x60 PUSH1 0x4 PUSH0 DUP4 PUSH20 0xFFFFFFFFFFFFFFFFFFFFFFFFFFFFFFFFFFFFFFFF AND PUSH20 0xFFFFFFFFFFFFFFFFFFFFFFFFFFFFFFFFFFFFFFFF AND DUP2 MSTORE PUSH1 0x20 ADD SWAP1 DUP2 MSTORE PUSH1 0x20 ADD PUSH0 KECCAK256 DUP1 SLOAD DUP1 PUSH1 0x20 MUL PUSH1 0x20 ADD PUSH1 0x40 MLOAD SWAP1 DUP2 ADD PUSH1 0x40 MSTORE DUP1 SWAP3 SWAP2 SWAP1 DUP2 DUP2 MSTORE PUSH1 0x20 ADD PUSH0 SWAP1 JUMPDEST DUP3 DUP3 LT ISZERO PUSH2 0x699 JUMPI DUP4 DUP3 SWAP1 PUSH0 MSTORE PUSH1 0x20 PUSH0 KECCAK256 SWAP1 PUSH1 0x4 MUL ADD PUSH1 0x40 MLOAD DUP1 PUSH1 0x80 ADD PUSH1 0x40 MSTORE SWAP1 DUP2 PUSH0 DUP3 ADD SLOAD DUP2 MSTORE PUSH1 0x20 ADD PUSH1 0x1 DUP3 ADD SLOAD DUP2 MSTORE PUSH1 0x20 ADD PUSH1 0x2 DUP3 ADD SLOAD DUP2 MSTORE PUSH1 0x20 ADD PUSH1 0x3 DUP3 ADD SLOAD DUP2 MSTORE POP POP DUP2 MSTORE PUSH1 0x20 ADD SWAP1 PUSH1 0x1 ADD SWAP1 PUSH2 0x642 JUMP JUMPDEST POP POP POP POP SWAP1 POP SWAP2 SWAP1 POP JUMP JUMPDEST PUSH1 0x2 PUSH0 SWAP1 SLOAD SWAP1 PUSH2 0x100 EXP SWAP1 DIV PUSH20 0xFFFFFFFFFFFFFFFFFFFFFFFFFFFFFFFFFFFFFFFF AND DUP2 JUMP JUMPDEST PUSH1 0x4 PUSH1 0x20 MSTORE DUP2 PUSH0 MSTORE PUSH1 0x40 PUSH0 KECCAK256 DUP2 DUP2 SLOAD DUP2 LT PUSH2 0x6E2 JUMPI PUSH0 DUP1 REVERT JUMPDEST SWAP1 PUSH0 MSTORE PUSH1 0x20 PUSH0 KECCAK256 SWAP1 PUSH1 0x4 MUL ADD PUSH0 SWAP2 POP SWAP2 POP POP DUP1 PUSH0 ADD SLOAD SWAP1 DUP1 PUSH1 0x1 ADD SLOAD SWAP1 DUP1 PUSH1 0x2 ADD SLOAD SWAP1 DUP1 PUSH1 0x3 ADD SLOAD SWAP1 POP DUP5 JUMP JUMPDEST PUSH2 0x717 PUSH2 0x86A JUMP JUMPDEST PUSH1 0x5 PUSH0 DUP4 DUP2 MSTORE PUSH1 0x20 ADD SWAP1 DUP2 MSTORE PUSH1 0x20 ADD PUSH0 KECCAK256 PUSH1 0x40 MLOAD DUP1 PUSH1 0x80 ADD PUSH1 0x40 MSTORE SWAP1 DUP2 PUSH0 DUP3 ADD SLOAD DUP2 MSTORE PUSH1 0x20 ADD PUSH1 0x1 DUP3 ADD SLOAD DUP2 MSTORE PUSH1 0x20 ADD PUSH1 0x2 DUP3 ADD SLOAD DUP2 MSTORE PUSH1 0x20 ADD PUSH1 0x3 DUP3 ADD SLOAD DUP2 MSTORE POP POP SWAP1 POP SWAP2 SWAP1 POP JUMP JUMPDEST PUSH0 DUP1 PUSH1 0x5 PUSH0 DUP5 DUP2 MSTORE PUSH1 0x20 ADD SWAP1 DUP2 MSTORE PUSH1 0x20 ADD PUSH0 KECCAK256 POP PUSH0 TIMESTAMP SWAP1 POP PUSH0 PUSH1 0x5 PUSH0 DUP7 DUP2 MSTORE PUSH1 0x20 ADD SWAP1 DUP2 MSTORE PUSH1 0x20 ADD PUSH0 KECCAK256 PUSH1 0x3 ADD SLOAD DUP3 PUSH2 0x79A SWAP2 SWAP1 PUSH2 0xF84 JUMP JUMPDEST SWAP1 POP PUSH1 0x3C PUSH1 0x5 PUSH0 DUP8 DUP2 MSTORE PUSH1 0x20 ADD SWAP1 DUP2 MSTORE PUSH1 0x20 ADD PUSH0 KECCAK256 PUSH1 0x2 ADD SLOAD PUSH2 0x7BD SWAP2 SWAP1 PUSH2 0xFB7 JUMP JUMPDEST DUP2 GT ISZERO PUSH2 0x7E8 JUMPI PUSH1 0x3C PUSH1 0x5 PUSH0 DUP8 DUP2 MSTORE PUSH1 0x20 ADD SWAP1 DUP2 MSTORE PUSH1 0x20 ADD PUSH0 KECCAK256 PUSH1 0x2 ADD SLOAD PUSH2 0x7E5 SWAP2 SWAP1 PUSH2 0xFB7 JUMP JUMPDEST SWAP1 POP JUMPDEST PUSH0 PUSH1 0x1 DUP3 PUSH2 0x7F6 SWAP2 SWAP1 PUSH2 0xFB7 JUMP JUMPDEST SWAP1 POP DUP1 PUSH1 0x5 PUSH0 DUP9 DUP2 MSTORE PUSH1 0x20 ADD SWAP1 DUP2 MSTORE PUSH1 0x20 ADD PUSH0 KECCAK256 PUSH1 0x1 ADD SLOAD DUP3 PUSH2 0x819 SWAP2 SWAP1 PUSH2 0xFF8 JUMP JUMPDEST SWAP5 POP SWAP5 POP POP POP POP SWAP2 POP SWAP2 JUMP JUMPDEST PUSH1 0x1 PUSH0 SWAP1 SLOAD SWAP1 PUSH2 0x100 EXP SWAP1 DIV PUSH20 0xFFFFFFFFFFFFFFFFFFFFFFFFFFFFFFFFFFFFFFFF AND DUP2 JUMP JUMPDEST PUSH0 DUP2 PUSH0 ADD SLOAD SWAP1 POP SWAP2 SWAP1 POP JUMP JUMPDEST PUSH1 0x1 DUP2 PUSH0 ADD PUSH0 DUP3 DUP3 SLOAD ADD SWAP3 POP POP DUP2 SWAP1 SSTORE POP POP JUMP JUMPDEST PUSH1 0x40 MLOAD DUP1 PUSH1 0x80 ADD PUSH1 0x40 MSTORE DUP1 PUSH0 DUP2 MSTORE PUSH1 0x20 ADD PUSH0 DUP2 MSTORE PUSH1 0x20 ADD PUSH0 DUP2 MSTORE PUSH1 0x20 ADD PUSH0 DUP2 MSTORE POP SWAP1 JUMP JUMPDEST PUSH0 DUP2 MLOAD SWAP1 POP SWAP2 SWAP1 POP JUMP JUMPDEST PUSH0 DUP3 DUP3 MSTORE PUSH1 0x20 DUP3 ADD SWAP1 POP SWAP3 SWAP2 POP POP JUMP JUMPDEST PUSH0 DUP2 SWAP1 POP PUSH1 0x20 DUP3 ADD SWAP1 POP SWAP2 SWAP1 POP JUMP JUMPDEST PUSH0 DUP2 SWAP1 POP SWAP2 SWAP1 POP JUMP JUMPDEST PUSH2 0x8C9 DUP2 PUSH2 0x8B7 JUMP JUMPDEST DUP3 MSTORE POP POP JUMP JUMPDEST PUSH0 PUSH2 0x8DA DUP4 DUP4 PUSH2 0x8C0 JUMP JUMPDEST PUSH1 0x20 DUP4 ADD SWAP1 POP SWAP3 SWAP2 POP POP JUMP JUMPDEST PUSH0 PUSH1 0x20 DUP3 ADD SWAP1 POP SWAP2 SWAP1 POP JUMP JUMPDEST PUSH0 PUSH2 0x8FC DUP3 PUSH2 0x88E JUMP JUMPDEST PUSH2 0x906 DUP2 DUP6 PUSH2 0x898 JUMP JUMPDEST SWAP4 POP PUSH2 0x911 DUP4 PUSH2 0x8A8 JUMP JUMPDEST DUP1 PUSH0 JUMPDEST DUP4 DUP2 LT ISZERO PUSH2 0x941 JUMPI DUP2 MLOAD PUSH2 0x928 DUP9 DUP3 PUSH2 0x8CF JUMP JUMPDEST SWAP8 POP PUSH2 0x933 DUP4 PUSH2 0x8E6 JUMP JUMPDEST SWAP3 POP POP PUSH1 0x1 DUP2 ADD SWAP1 POP PUSH2 0x914 JUMP JUMPDEST POP DUP6 SWAP4 POP POP POP POP SWAP3 SWAP2 POP POP JUMP JUMPDEST PUSH0 PUSH1 0x20 DUP3 ADD SWAP1 POP DUP2 DUP2 SUB PUSH0 DUP4 ADD MSTORE PUSH2 0x966 DUP2 DUP5 PUSH2 0x8F2 JUMP JUMPDEST SWAP1 POP SWAP3 SWAP2 POP POP JUMP JUMPDEST PUSH0 DUP1 REVERT JUMPDEST PUSH0 PUSH20 0xFFFFFFFFFFFFFFFFFFFFFFFFFFFFFFFFFFFFFFFF DUP3 AND SWAP1 POP SWAP2 SWAP1 POP JUMP JUMPDEST PUSH0 PUSH2 0x99B DUP3 PUSH2 0x972 JUMP JUMPDEST SWAP1 POP SWAP2 SWAP1 POP JUMP JUMPDEST PUSH2 0x9AB DUP2 PUSH2 0x991 JUMP JUMPDEST DUP2 EQ PUSH2 0x9B5 JUMPI PUSH0 DUP1 REVERT JUMPDEST POP JUMP JUMPDEST PUSH0 DUP2 CALLDATALOAD SWAP1 POP PUSH2 0x9C6 DUP2 PUSH2 0x9A2 JUMP JUMPDEST SWAP3 SWAP2 POP POP JUMP JUMPDEST PUSH0 PUSH1 0x20 DUP3 DUP5 SUB SLT ISZERO PUSH2 0x9E1 JUMPI PUSH2 0x9E0 PUSH2 0x96E JUMP JUMPDEST JUMPDEST PUSH0 PUSH2 0x9EE DUP5 DUP3 DUP6 ADD PUSH2 0x9B8 JUMP JUMPDEST SWAP2 POP POP SWAP3 SWAP2 POP POP JUMP JUMPDEST PUSH2 0xA00 DUP2 PUSH2 0x8B7 JUMP JUMPDEST DUP3 MSTORE POP POP JUMP JUMPDEST PUSH0 PUSH1 0x20 DUP3 ADD SWAP1 POP PUSH2 0xA19 PUSH0 DUP4 ADD DUP5 PUSH2 0x9F7 JUMP JUMPDEST SWAP3 SWAP2 POP POP JUMP JUMPDEST PUSH2 0xA28 DUP2 PUSH2 0x8B7 JUMP JUMPDEST DUP2 EQ PUSH2 0xA32 JUMPI PUSH0 DUP1 REVERT JUMPDEST POP JUMP JUMPDEST PUSH0 DUP2 CALLDATALOAD SWAP1 POP PUSH2 0xA43 DUP2 PUSH2 0xA1F JUMP JUMPDEST SWAP3 SWAP2 POP POP JUMP JUMPDEST PUSH0 DUP1 PUSH1 0x40 DUP4 DUP6 SUB SLT ISZERO PUSH2 0xA5F JUMPI PUSH2 0xA5E PUSH2 0x96E JUMP JUMPDEST JUMPDEST PUSH0 PUSH2 0xA6C DUP6 DUP3 DUP7 ADD PUSH2 0xA35 JUMP JUMPDEST SWAP3 POP POP PUSH1 0x20 PUSH2 0xA7D DUP6 DUP3 DUP7 ADD PUSH2 0xA35 JUMP JUMPDEST SWAP2 POP POP SWAP3 POP SWAP3 SWAP1 POP JUMP JUMPDEST PUSH1 0x80 DUP3 ADD PUSH0 DUP3 ADD MLOAD PUSH2 0xA9B PUSH0 DUP6 ADD DUP3 PUSH2 0x8C0 JUMP JUMPDEST POP PUSH1 0x20 DUP3 ADD MLOAD PUSH2 0xAAE PUSH1 0x20 DUP6 ADD DUP3 PUSH2 0x8C0 JUMP JUMPDEST POP PUSH1 0x40 DUP3 ADD MLOAD PUSH2 0xAC1 PUSH1 0x40 DUP6 ADD DUP3 PUSH2 0x8C0 JUMP JUMPDEST POP PUSH1 0x60 DUP3 ADD MLOAD PUSH2 0xAD4 PUSH1 0x60 DUP6 ADD DUP3 PUSH2 0x8C0 JUMP JUMPDEST POP POP POP POP JUMP JUMPDEST PUSH0 PUSH1 0x80 DUP3 ADD SWAP1 POP PUSH2 0xAED PUSH0 DUP4 ADD DUP5 PUSH2 0xA87 JUMP JUMPDEST SWAP3 SWAP2 POP POP JUMP JUMPDEST PUSH0 PUSH1 0x20 DUP3 DUP5 SUB SLT ISZERO PUSH2 0xB08 JUMPI PUSH2 0xB07 PUSH2 0x96E JUMP JUMPDEST JUMPDEST PUSH0 PUSH2 0xB15 DUP5 DUP3 DUP6 ADD PUSH2 0xA35 JUMP JUMPDEST SWAP2 POP POP SWAP3 SWAP2 POP POP JUMP JUMPDEST PUSH0 PUSH1 0x80 DUP3 ADD SWAP1 POP PUSH2 0xB31 PUSH0 DUP4 ADD DUP8 PUSH2 0x9F7 JUMP JUMPDEST PUSH2 0xB3E PUSH1 0x20 DUP4 ADD DUP7 PUSH2 0x9F7 JUMP JUMPDEST PUSH2 0xB4B PUSH1 0x40 DUP4 ADD DUP6 PUSH2 0x9F7 JUMP JUMPDEST PUSH2 0xB58 PUSH1 0x60 DUP4 ADD DUP5 PUSH2 0x9F7 JUMP JUMPDEST SWAP6 SWAP5 POP POP POP POP POP JUMP JUMPDEST PUSH0 DUP2 MLOAD SWAP1 POP SWAP2 SWAP1 POP JUMP JUMPDEST PUSH0 DUP3 DUP3 MSTORE PUSH1 0x20 DUP3 ADD SWAP1 POP SWAP3 SWAP2 POP POP JUMP JUMPDEST PUSH0 DUP2 SWAP1 POP PUSH1 0x20 DUP3 ADD SWAP1 POP SWAP2 SWAP1 POP JUMP JUMPDEST PUSH1 0x80 DUP3 ADD PUSH0 DUP3 ADD MLOAD PUSH2 0xB9E PUSH0 DUP6 ADD DUP3 PUSH2 0x8C0 JUMP JUMPDEST POP PUSH1 0x20 DUP3 ADD MLOAD PUSH2 0xBB1 PUSH1 0x20 DUP6 ADD DUP3 PUSH2 0x8C0 JUMP JUMPDEST POP PUSH1 0x40 DUP3 ADD MLOAD PUSH2 0xBC4 PUSH1 0x40 DUP6 ADD DUP3 PUSH2 0x8C0 JUMP JUMPDEST POP PUSH1 0x60 DUP3 ADD MLOAD PUSH2 0xBD7 PUSH1 0x60 DUP6 ADD DUP3 PUSH2 0x8C0 JUMP JUMPDEST POP POP POP POP JUMP JUMPDEST PUSH0 PUSH2 0xBE8 DUP4 DUP4 PUSH2 0xB8A JUMP JUMPDEST PUSH1 0x80 DUP4 ADD SWAP1 POP SWAP3 SWAP2 POP POP JUMP JUMPDEST PUSH0 PUSH1 0x20 DUP3 ADD SWAP1 POP SWAP2 SWAP1 POP JUMP JUMPDEST PUSH0 PUSH2 0xC0A DUP3 PUSH2 0xB61 JUMP JUMPDEST PUSH2 0xC14 DUP2 DUP6 PUSH2 0xB6B JUMP JUMPDEST SWAP4 POP PUSH2 0xC1F DUP4 PUSH2 0xB7B JUMP JUMPDEST DUP1 PUSH0 JUMPDEST DUP4 DUP2 LT ISZERO PUSH2 0xC4F JUMPI DUP2 MLOAD PUSH2 0xC36 DUP9 DUP3 PUSH2 0xBDD JUMP JUMPDEST SWAP8 POP PUSH2 0xC41 DUP4 PUSH2 0xBF4 JUMP JUMPDEST SWAP3 POP POP PUSH1 0x1 DUP2 ADD SWAP1 POP PUSH2 0xC22 JUMP JUMPDEST POP DUP6 SWAP4 POP POP POP POP SWAP3 SWAP2 POP POP JUMP JUMPDEST PUSH0 PUSH1 0x20 DUP3 ADD SWAP1 POP DUP2 DUP2 SUB PUSH0 DUP4 ADD MSTORE PUSH2 0xC74 DUP2 DUP5 PUSH2 0xC00 JUMP JUMPDEST SWAP1 POP SWAP3 SWAP2 POP POP JUMP JUMPDEST PUSH2 0xC85 DUP2 PUSH2 0x991 JUMP JUMPDEST DUP3 MSTORE POP POP JUMP JUMPDEST PUSH0 PUSH1 0x20 DUP3 ADD SWAP1 POP PUSH2 0xC9E PUSH0 DUP4 ADD DUP5 PUSH2 0xC7C JUMP JUMPDEST SWAP3 SWAP2 POP POP JUMP JUMPDEST PUSH0 DUP1 PUSH1 0x40 DUP4 DUP6 SUB SLT ISZERO PUSH2 0xCBA JUMPI PUSH2 0xCB9 PUSH2 0x96E JUMP JUMPDEST JUMPDEST PUSH0 PUSH2 0xCC7 DUP6 DUP3 DUP7 ADD PUSH2 0x9B8 JUMP JUMPDEST SWAP3 POP POP PUSH1 0x20 PUSH2 0xCD8 DUP6 DUP3 DUP7 ADD PUSH2 0xA35 JUMP JUMPDEST SWAP2 POP POP SWAP3 POP SWAP3 SWAP1 POP JUMP JUMPDEST PUSH0 PUSH1 0x40 DUP3 ADD SWAP1 POP PUSH2 0xCF5 PUSH0 DUP4 ADD DUP6 PUSH2 0x9F7 JUMP JUMPDEST PUSH2 0xD02 PUSH1 0x20 DUP4 ADD DUP5 PUSH2 0x9F7 JUMP JUMPDEST SWAP4 SWAP3 POP POP POP JUMP JUMPDEST PUSH0 DUP2 SWAP1 POP SWAP2 SWAP1 POP JUMP JUMPDEST PUSH0 PUSH2 0xD2C PUSH2 0xD27 PUSH2 0xD22 DUP5 PUSH2 0x972 JUMP JUMPDEST PUSH2 0xD09 JUMP JUMPDEST PUSH2 0x972 JUMP JUMPDEST SWAP1 POP SWAP2 SWAP1 POP JUMP JUMPDEST PUSH0 PUSH2 0xD3D DUP3 PUSH2 0xD12 JUMP JUMPDEST SWAP1 POP SWAP2 SWAP1 POP JUMP JUMPDEST PUSH0 PUSH2 0xD4E DUP3 PUSH2 0xD33 JUMP JUMPDEST SWAP1 POP SWAP2 SWAP1 POP JUMP JUMPDEST PUSH2 0xD5E DUP2 PUSH2 0xD44 JUMP JUMPDEST DUP3 MSTORE POP POP JUMP JUMPDEST PUSH0 PUSH1 0x20 DUP3 ADD SWAP1 POP PUSH2 0xD77 PUSH0 DUP4 ADD DUP5 PUSH2 0xD55 JUMP JUMPDEST SWAP3 SWAP2 POP POP JUMP JUMPDEST PUSH0 DUP2 MLOAD SWAP1 POP PUSH2 0xD8B DUP2 PUSH2 0xA1F JUMP JUMPDEST SWAP3 SWAP2 POP POP JUMP JUMPDEST PUSH0 PUSH1 0x20 DUP3 DUP5 SUB SLT ISZERO PUSH2 0xDA6 JUMPI PUSH2 0xDA5 PUSH2 0x96E JUMP JUMPDEST JUMPDEST PUSH0 PUSH2 0xDB3 DUP5 DUP3 DUP6 ADD PUSH2 0xD7D JUMP JUMPDEST SWAP2 POP POP SWAP3 SWAP2 POP POP JUMP JUMPDEST PUSH0 DUP3 DUP3 MSTORE PUSH1 0x20 DUP3 ADD SWAP1 POP SWAP3 SWAP2 POP POP JUMP JUMPDEST PUSH32 0x416D6F756E74206D7573742062652067726561746572207468616E207A65726F PUSH0 DUP3 ADD MSTORE POP JUMP JUMPDEST PUSH0 PUSH2 0xE00 PUSH1 0x20 DUP4 PUSH2 0xDBC JUMP JUMPDEST SWAP2 POP PUSH2 0xE0B DUP3 PUSH2 0xDCC JUMP JUMPDEST PUSH1 0x20 DUP3 ADD SWAP1 POP SWAP2 SWAP1 POP JUMP JUMPDEST PUSH0 PUSH1 0x20 DUP3 ADD SWAP1 POP DUP2 DUP2 SUB PUSH0 DUP4 ADD MSTORE PUSH2 0xE2D DUP2 PUSH2 0xDF4 JUMP JUMPDEST SWAP1 POP SWAP2 SWAP1 POP JUMP JUMPDEST PUSH32 0x456E746572204475726174696F6E20696E20666F726D61746520636865636B20 PUSH0 DUP3 ADD MSTORE PUSH32 0x6475726174696F6E000000000000000000000000000000000000000000000000 PUSH1 0x20 DUP3 ADD MSTORE POP JUMP JUMPDEST PUSH0 PUSH2 0xE8E PUSH1 0x28 DUP4 PUSH2 0xDBC JUMP JUMPDEST SWAP2 POP PUSH2 0xE99 DUP3 PUSH2 0xE34 JUMP JUMPDEST PUSH1 0x40 DUP3 ADD SWAP1 POP SWAP2 SWAP1 POP JUMP JUMPDEST PUSH0 PUSH1 0x20 DUP3 ADD SWAP1 POP DUP2 DUP2 SUB PUSH0 DUP4 ADD MSTORE PUSH2 0xEBB DUP2 PUSH2 0xE82 JUMP JUMPDEST SWAP1 POP SWAP2 SWAP1 POP JUMP JUMPDEST PUSH0 PUSH1 0x60 DUP3 ADD SWAP1 POP PUSH2 0xED5 PUSH0 DUP4 ADD DUP7 PUSH2 0xC7C JUMP JUMPDEST PUSH2 0xEE2 PUSH1 0x20 DUP4 ADD DUP6 PUSH2 0xC7C JUMP JUMPDEST PUSH2 0xEEF PUSH1 0x40 DUP4 ADD DUP5 PUSH2 0x9F7 JUMP JUMPDEST SWAP5 SWAP4 POP POP POP POP JUMP JUMPDEST PUSH0 DUP2 ISZERO ISZERO SWAP1 POP SWAP2 SWAP1 POP JUMP JUMPDEST PUSH2 0xF0B DUP2 PUSH2 0xEF7 JUMP JUMPDEST DUP2 EQ PUSH2 0xF15 JUMPI PUSH0 DUP1 REVERT JUMPDEST POP JUMP JUMPDEST PUSH0 DUP2 MLOAD SWAP1 POP PUSH2 0xF26 DUP2 PUSH2 0xF02 JUMP JUMPDEST SWAP3 SWAP2 POP POP JUMP JUMPDEST PUSH0 PUSH1 0x20 DUP3 DUP5 SUB SLT ISZERO PUSH2 0xF41 JUMPI PUSH2 0xF40 PUSH2 0x96E JUMP JUMPDEST JUMPDEST PUSH0 PUSH2 0xF4E DUP5 DUP3 DUP6 ADD PUSH2 0xF18 JUMP JUMPDEST SWAP2 POP POP SWAP3 SWAP2 POP POP JUMP JUMPDEST PUSH32 0x4E487B7100000000000000000000000000000000000000000000000000000000 PUSH0 MSTORE PUSH1 0x11 PUSH1 0x4 MSTORE PUSH1 0x24 PUSH0 REVERT JUMPDEST PUSH0 PUSH2 0xF8E DUP3 PUSH2 0x8B7 JUMP JUMPDEST SWAP2 POP PUSH2 0xF99 DUP4 PUSH2 0x8B7 JUMP JUMPDEST SWAP3 POP DUP3 DUP3 SUB SWAP1 POP DUP2 DUP2 GT ISZERO PUSH2 0xFB1 JUMPI PUSH2 0xFB0 PUSH2 0xF57 JUMP JUMPDEST JUMPDEST SWAP3 SWAP2 POP POP JUMP JUMPDEST PUSH0 PUSH2 0xFC1 DUP3 PUSH2 0x8B7 JUMP JUMPDEST SWAP2 POP PUSH2 0xFCC DUP4 PUSH2 0x8B7 JUMP JUMPDEST SWAP3 POP DUP3 DUP3 MUL PUSH2 0xFDA DUP2 PUSH2 0x8B7 JUMP JUMPDEST SWAP2 POP DUP3 DUP3 DIV DUP5 EQ DUP4 ISZERO OR PUSH2 0xFF1 JUMPI PUSH2 0xFF0 PUSH2 0xF57 JUMP JUMPDEST JUMPDEST POP SWAP3 SWAP2 POP POP JUMP JUMPDEST PUSH0 PUSH2 0x1002 DUP3 PUSH2 0x8B7 JUMP JUMPDEST SWAP2 POP PUSH2 0x100D DUP4 PUSH2 0x8B7 JUMP JUMPDEST SWAP3 POP DUP3 DUP3 ADD SWAP1 POP DUP1 DUP3 GT ISZERO PUSH2 0x1025 JUMPI PUSH2 0x1024 PUSH2 0xF57 JUMP JUMPDEST JUMPDEST SWAP3 SWAP2 POP POP JUMP INVALID LOG2 PUSH5 0x6970667358 0x22 SLT KECCAK256 PUSH28 0x9F5FD10315F135E47E596CA74DA34B0D39A910115A6F39854DAA1253 0x4F 0x2C 0xB8 PUSH5 0x736F6C6343 STOP ADDMOD ISZERO STOP CALLER "
		},
		"gasEstimates": {
			"creation": {
				"codeDepositCost": "838600",
				"executionCost": "infinite",
				"totalCost": "infinite"
			},
			"external": {
				"Cid(uint256)": "infinite",
				"Owner()": "2508",
				"ViewDetail(address)": "infinite",
				"calculateReward(uint256)": "infinite",
				"check_Duration()": "infinite",
				"chkid(uint256)": "infinite",
				"getBal(address)": "infinite",
				"stakenow(uint256,uint256)": "infinite",
				"token()": "infinite",
				"userStakes(address,uint256)": "infinite"
			}
		},
		"methodIdentifiers": {
			"Cid(uint256)": "53e1a797",
			"Owner()": "b4a99a4e",
			"ViewDetail(address)": "5ee0d9b4",
			"calculateReward(uint256)": "d2d7231f",
			"check_Duration()": "22d8bc84",
			"chkid(uint256)": "c9757417",
			"getBal(address)": "2fa78085",
			"stakenow(uint256,uint256)": "47c4d742",
			"token()": "fc0c546a",
			"userStakes(address,uint256)": "b5d5b5fa"
		}
	},
	"abi": [
		{
			"inputs": [
				{
					"internalType": "contract MyToken",
					"name": "_token",
					"type": "address"
				}
			],
			"stateMutability": "nonpayable",
			"type": "constructor"
		},
		{
			"inputs": [
				{
					"internalType": "uint256",
					"name": "",
					"type": "uint256"
				}
			],
			"name": "Cid",
			"outputs": [
				{
					"internalType": "uint256",
					"name": "tokenIdc",
					"type": "uint256"
				},
				{
					"internalType": "uint256",
					"name": "amount",
					"type": "uint256"
				},
				{
					"internalType": "uint256",
					"name": "duration",
					"type": "uint256"
				},
				{
					"internalType": "uint256",
					"name": "startTime",
					"type": "uint256"
				}
			],
			"stateMutability": "view",
			"type": "function"
		},
		{
			"inputs": [],
			"name": "Owner",
			"outputs": [
				{
					"internalType": "address",
					"name": "",
					"type": "address"
				}
			],
			"stateMutability": "view",
			"type": "function"
		},
		{
			"inputs": [
				{
					"internalType": "address",
					"name": "ads",
					"type": "address"
				}
			],
			"name": "ViewDetail",
			"outputs": [
				{
					"components": [
						{
							"internalType": "uint256",
							"name": "tokenIdc",
							"type": "uint256"
						},
						{
							"internalType": "uint256",
							"name": "amount",
							"type": "uint256"
						},
						{
							"internalType": "uint256",
							"name": "duration",
							"type": "uint256"
						},
						{
							"internalType": "uint256",
							"name": "startTime",
							"type": "uint256"
						}
					],
					"internalType": "struct MyStakingContract.Stake[]",
					"name": "",
					"type": "tuple[]"
				}
			],
			"stateMutability": "view",
			"type": "function"
		},
		{
			"inputs": [
				{
					"internalType": "uint256",
					"name": "userid",
					"type": "uint256"
				}
			],
			"name": "calculateReward",
			"outputs": [
				{
					"internalType": "uint256",
					"name": "",
					"type": "uint256"
				},
				{
					"internalType": "uint256",
					"name": "",
					"type": "uint256"
				}
			],
			"stateMutability": "view",
			"type": "function"
		},
		{
			"inputs": [],
			"name": "check_Duration",
			"outputs": [
				{
					"internalType": "uint256[]",
					"name": "",
					"type": "uint256[]"
				}
			],
			"stateMutability": "view",
			"type": "function"
		},
		{
			"inputs": [
				{
					"internalType": "uint256",
					"name": "id",
					"type": "uint256"
				}
			],
			"name": "chkid",
			"outputs": [
				{
					"components": [
						{
							"internalType": "uint256",
							"name": "tokenIdc",
							"type": "uint256"
						},
						{
							"internalType": "uint256",
							"name": "amount",
							"type": "uint256"
						},
						{
							"internalType": "uint256",
							"name": "duration",
							"type": "uint256"
						},
						{
							"internalType": "uint256",
							"name": "startTime",
							"type": "uint256"
						}
					],
					"internalType": "struct MyStakingContract.Stake",
					"name": "",
					"type": "tuple"
				}
			],
			"stateMutability": "view",
			"type": "function"
		},
		{
			"inputs": [
				{
					"internalType": "address",
					"name": "adrs",
					"type": "address"
				}
			],
			"name": "getBal",
			"outputs": [
				{
					"internalType": "uint256",
					"name": "",
					"type": "uint256"
				}
			],
			"stateMutability": "view",
			"type": "function"
		},
		{
			"inputs": [
				{
					"internalType": "uint256",
					"name": "amount",
					"type": "uint256"
				},
				{
					"internalType": "uint256",
					"name": "duration",
					"type": "uint256"
				}
			],
			"name": "stakenow",
			"outputs": [
				{
					"components": [
						{
							"internalType": "uint256",
							"name": "tokenIdc",
							"type": "uint256"
						},
						{
							"internalType": "uint256",
							"name": "amount",
							"type": "uint256"
						},
						{
							"internalType": "uint256",
							"name": "duration",
							"type": "uint256"
						},
						{
							"internalType": "uint256",
							"name": "startTime",
							"type": "uint256"
						}
					],
					"internalType": "struct MyStakingContract.Stake",
					"name": "",
					"type": "tuple"
				}
			],
			"stateMutability": "nonpayable",
			"type": "function"
		},
		{
			"inputs": [],
			"name": "token",
			"outputs": [
				{
					"internalType": "contract MyToken",
					"name": "",
					"type": "address"
				}
			],
			"stateMutability": "view",
			"type": "function"
		},
		{
			"inputs": [
				{
					"internalType": "address",
					"name": "",
					"type": "address"
				},
				{
					"internalType": "uint256",
					"name": "",
					"type": "uint256"
				}
			],
			"name": "userStakes",
			"outputs": [
				{
					"internalType": "uint256",
					"name": "tokenIdc",
					"type": "uint256"
				},
				{
					"internalType": "uint256",
					"name": "amount",
					"type": "uint256"
				},
				{
					"internalType": "uint256",
					"name": "duration",
					"type": "uint256"
				},
				{
					"internalType": "uint256",
					"name": "startTime",
					"type": "uint256"
				}
			],
			"stateMutability": "view",
			"type": "function"
		}
	]
}