{
	"Contract/Mytoken.sol": {
		"Mytoken": {
			"abi": [
				{
					"inputs": [],
					"stateMutability": "nonpayable",
					"type": "constructor"
				},
				{
					"inputs": [
						{
							"internalType": "address",
							"name": "spender",
							"type": "address"
						},
						{
							"internalType": "uint256",
							"name": "currentAllowance",
							"type": "uint256"
						},
						{
							"internalType": "uint256",
							"name": "requestedDecrease",
							"type": "uint256"
						}
					],
					"name": "ERC20FailedDecreaseAllowance",
					"type": "error"
				},
				{
					"inputs": [
						{
							"internalType": "address",
							"name": "spender",
							"type": "address"
						},
						{
							"internalType": "uint256",
							"name": "allowance",
							"type": "uint256"
						},
						{
							"internalType": "uint256",
							"name": "needed",
							"type": "uint256"
						}
					],
					"name": "ERC20InsufficientAllowance",
					"type": "error"
				},
				{
					"inputs": [
						{
							"internalType": "address",
							"name": "sender",
							"type": "address"
						},
						{
							"internalType": "uint256",
							"name": "balance",
							"type": "uint256"
						},
						{
							"internalType": "uint256",
							"name": "needed",
							"type": "uint256"
						}
					],
					"name": "ERC20InsufficientBalance",
					"type": "error"
				},
				{
					"inputs": [
						{
							"internalType": "address",
							"name": "approver",
							"type": "address"
						}
					],
					"name": "ERC20InvalidApprover",
					"type": "error"
				},
				{
					"inputs": [
						{
							"internalType": "address",
							"name": "receiver",
							"type": "address"
						}
					],
					"name": "ERC20InvalidReceiver",
					"type": "error"
				},
				{
					"inputs": [
						{
							"internalType": "address",
							"name": "sender",
							"type": "address"
						}
					],
					"name": "ERC20InvalidSender",
					"type": "error"
				},
				{
					"inputs": [
						{
							"internalType": "address",
							"name": "spender",
							"type": "address"
						}
					],
					"name": "ERC20InvalidSpender",
					"type": "error"
				},
				{
					"inputs": [
						{
							"internalType": "address",
							"name": "owner",
							"type": "address"
						}
					],
					"name": "OwnableInvalidOwner",
					"type": "error"
				},
				{
					"inputs": [
						{
							"internalType": "address",
							"name": "account",
							"type": "address"
						}
					],
					"name": "OwnableUnauthorizedAccount",
					"type": "error"
				},
				{
					"anonymous": false,
					"inputs": [
						{
							"indexed": true,
							"internalType": "address",
							"name": "owner",
							"type": "address"
						},
						{
							"indexed": true,
							"internalType": "address",
							"name": "spender",
							"type": "address"
						},
						{
							"indexed": false,
							"internalType": "uint256",
							"name": "value",
							"type": "uint256"
						}
					],
					"name": "Approval",
					"type": "event"
				},
				{
					"anonymous": false,
					"inputs": [
						{
							"indexed": false,
							"internalType": "address",
							"name": "buyer",
							"type": "address"
						},
						{
							"indexed": false,
							"internalType": "uint256",
							"name": "amountOfETH",
							"type": "uint256"
						},
						{
							"indexed": false,
							"internalType": "uint256",
							"name": "amountOfTokens",
							"type": "uint256"
						}
					],
					"name": "BuyTokens",
					"type": "event"
				},
				{
					"anonymous": false,
					"inputs": [
						{
							"indexed": true,
							"internalType": "address",
							"name": "previousOwner",
							"type": "address"
						},
						{
							"indexed": true,
							"internalType": "address",
							"name": "newOwner",
							"type": "address"
						}
					],
					"name": "OwnershipTransferred",
					"type": "event"
				},
				{
					"anonymous": false,
					"inputs": [
						{
							"indexed": true,
							"internalType": "address",
							"name": "from",
							"type": "address"
						},
						{
							"indexed": true,
							"internalType": "address",
							"name": "to",
							"type": "address"
						},
						{
							"indexed": false,
							"internalType": "uint256",
							"name": "value",
							"type": "uint256"
						}
					],
					"name": "Transfer",
					"type": "event"
				},
				{
					"inputs": [
						{
							"internalType": "address",
							"name": "owner",
							"type": "address"
						},
						{
							"internalType": "address",
							"name": "spender",
							"type": "address"
						}
					],
					"name": "allowance",
					"outputs": [
						{
							"internalType": "uint256",
							"name": "",
							"type": "uint256"
						}
					],
					"stateMutability": "view",
					"type": "function"
				},
				{
					"inputs": [
						{
							"internalType": "address",
							"name": "spender",
							"type": "address"
						},
						{
							"internalType": "uint256",
							"name": "value",
							"type": "uint256"
						}
					],
					"name": "approve",
					"outputs": [
						{
							"internalType": "bool",
							"name": "",
							"type": "bool"
						}
					],
					"stateMutability": "nonpayable",
					"type": "function"
				},
				{
					"inputs": [
						{
							"internalType": "address",
							"name": "account",
							"type": "address"
						}
					],
					"name": "balanceOf",
					"outputs": [
						{
							"internalType": "uint256",
							"name": "",
							"type": "uint256"
						}
					],
					"stateMutability": "view",
					"type": "function"
				},
				{
					"inputs": [
						{
							"internalType": "address",
							"name": "useradd",
							"type": "address"
						},
						{
							"internalType": "uint256",
							"name": "amount",
							"type": "uint256"
						}
					],
					"name": "burn",
					"outputs": [],
					"stateMutability": "nonpayable",
					"type": "function"
				},
				{
					"inputs": [],
					"name": "decimals",
					"outputs": [
						{
							"internalType": "uint8",
							"name": "",
							"type": "uint8"
						}
					],
					"stateMutability": "view",
					"type": "function"
				},
				{
					"inputs": [
						{
							"internalType": "address",
							"name": "spender",
							"type": "address"
						},
						{
							"internalType": "uint256",
							"name": "requestedDecrease",
							"type": "uint256"
						}
					],
					"name": "decreaseAllowance",
					"outputs": [
						{
							"internalType": "bool",
							"name": "",
							"type": "bool"
						}
					],
					"stateMutability": "nonpayable",
					"type": "function"
				},
				{
					"inputs": [
						{
							"internalType": "address",
							"name": "spender",
							"type": "address"
						},
						{
							"internalType": "uint256",
							"name": "addedValue",
							"type": "uint256"
						}
					],
					"name": "increaseAllowance",
					"outputs": [
						{
							"internalType": "bool",
							"name": "",
							"type": "bool"
						}
					],
					"stateMutability": "nonpayable",
					"type": "function"
				},
				{
					"inputs": [
						{
							"internalType": "address",
							"name": "account",
							"type": "address"
						},
						{
							"internalType": "uint256",
							"name": "amount",
							"type": "uint256"
						}
					],
					"name": "mint",
					"outputs": [],
					"stateMutability": "nonpayable",
					"type": "function"
				},
				{
					"inputs": [],
					"name": "name",
					"outputs": [
						{
							"internalType": "string",
							"name": "",
							"type": "string"
						}
					],
					"stateMutability": "view",
					"type": "function"
				},
				{
					"inputs": [],
					"name": "owner",
					"outputs": [
						{
							"internalType": "address",
							"name": "",
							"type": "address"
						}
					],
					"stateMutability": "view",
					"type": "function"
				},
				{
					"inputs": [],
					"name": "renounceOwnership",
					"outputs": [],
					"stateMutability": "nonpayable",
					"type": "function"
				},
				{
					"inputs": [],
					"name": "symbol",
					"outputs": [
						{
							"internalType": "string",
							"name": "",
							"type": "string"
						}
					],
					"stateMutability": "view",
					"type": "function"
				},
				{
					"inputs": [],
					"name": "tokensPerEth",
					"outputs": [
						{
							"internalType": "uint256",
							"name": "",
							"type": "uint256"
						}
					],
					"stateMutability": "view",
					"type": "function"
				},
				{
					"inputs": [],
					"name": "totalSupply",
					"outputs": [
						{
							"internalType": "uint256",
							"name": "",
							"type": "uint256"
						}
					],
					"stateMutability": "view",
					"type": "function"
				},
				{
					"inputs": [
						{
							"internalType": "address",
							"name": "to",
							"type": "address"
						},
						{
							"internalType": "uint256",
							"name": "value",
							"type": "uint256"
						}
					],
					"name": "transfer",
					"outputs": [
						{
							"internalType": "bool",
							"name": "",
							"type": "bool"
						}
					],
					"stateMutability": "nonpayable",
					"type": "function"
				},
				{
					"inputs": [
						{
							"internalType": "address",
							"name": "from",
							"type": "address"
						},
						{
							"internalType": "address",
							"name": "to",
							"type": "address"
						},
						{
							"internalType": "uint256",
							"name": "value",
							"type": "uint256"
						}
					],
					"name": "transferFrom",
					"outputs": [
						{
							"internalType": "bool",
							"name": "",
							"type": "bool"
						}
					],
					"stateMutability": "nonpayable",
					"type": "function"
				},
				{
					"inputs": [
						{
							"internalType": "address",
							"name": "newOwner",
							"type": "address"
						}
					],
					"name": "transferOwnership",
					"outputs": [],
					"stateMutability": "nonpayable",
					"type": "function"
				}
			],
			"devdoc": {
				"errors": {
					"ERC20FailedDecreaseAllowance(address,uint256,uint256)": [
						{
							"details": "Indicates a failed `decreaseAllowance` request."
						}
					],
					"ERC20InsufficientAllowance(address,uint256,uint256)": [
						{
							"details": "Indicates a failure with the `spender`’s `allowance`. Used in transfers.",
							"params": {
								"allowance": "Amount of tokens a `spender` is allowed to operate with.",
								"needed": "Minimum amount required to perform a transfer.",
								"spender": "Address that may be allowed to operate on tokens without being their owner."
							}
						}
					],
					"ERC20InsufficientBalance(address,uint256,uint256)": [
						{
							"details": "Indicates an error related to the current `balance` of a `sender`. Used in transfers.",
							"params": {
								"balance": "Current balance for the interacting account.",
								"needed": "Minimum amount required to perform a transfer.",
								"sender": "Address whose tokens are being transferred."
							}
						}
					],
					"ERC20InvalidApprover(address)": [
						{
							"details": "Indicates a failure with the `approver` of a token to be approved. Used in approvals.",
							"params": {
								"approver": "Address initiating an approval operation."
							}
						}
					],
					"ERC20InvalidReceiver(address)": [
						{
							"details": "Indicates a failure with the token `receiver`. Used in transfers.",
							"params": {
								"receiver": "Address to which tokens are being transferred."
							}
						}
					],
					"ERC20InvalidSender(address)": [
						{
							"details": "Indicates a failure with the token `sender`. Used in transfers.",
							"params": {
								"sender": "Address whose tokens are being transferred."
							}
						}
					],
					"ERC20InvalidSpender(address)": [
						{
							"details": "Indicates a failure with the `spender` to be approved. Used in approvals.",
							"params": {
								"spender": "Address that may be allowed to operate on tokens without being their owner."
							}
						}
					],
					"OwnableInvalidOwner(address)": [
						{
							"details": "The owner is not a valid owner account. (eg. `address(0)`)"
						}
					],
					"OwnableUnauthorizedAccount(address)": [
						{
							"details": "The caller account is not authorized to perform an operation."
						}
					]
				},
				"events": {
					"Approval(address,address,uint256)": {
						"details": "Emitted when the allowance of a `spender` for an `owner` is set by a call to {approve}. `value` is the new allowance."
					},
					"Transfer(address,address,uint256)": {
						"details": "Emitted when `value` tokens are moved from one account (`from`) to another (`to`). Note that `value` may be zero."
					}
				},
				"kind": "dev",
				"methods": {
					"allowance(address,address)": {
						"details": "See {IERC20-allowance}."
					},
					"approve(address,uint256)": {
						"details": "See {IERC20-approve}. NOTE: If `value` is the maximum `uint256`, the allowance is not updated on `transferFrom`. This is semantically equivalent to an infinite approval. Requirements: - `spender` cannot be the zero address."
					},
					"balanceOf(address)": {
						"details": "See {IERC20-balanceOf}."
					},
					"decimals()": {
						"details": "Returns the number of decimals used to get its user representation. For example, if `decimals` equals `2`, a balance of `505` tokens should be displayed to a user as `5.05` (`505 / 10 ** 2`). Tokens usually opt for a value of 18, imitating the relationship between Ether and Wei. This is the default value returned by this function, unless it's overridden. NOTE: This information is only used for _display_ purposes: it in no way affects any of the arithmetic of the contract, including {IERC20-balanceOf} and {IERC20-transfer}."
					},
					"decreaseAllowance(address,uint256)": {
						"details": "Atomically decreases the allowance granted to `spender` by the caller. This is an alternative to {approve} that can be used as a mitigation for problems described in {IERC20-approve}. Emits an {Approval} event indicating the updated allowance. Requirements: - `spender` cannot be the zero address. - `spender` must have allowance for the caller of at least `requestedDecrease`. NOTE: Although this function is designed to avoid double spending with {approval}, it can still be frontrunned, preventing any attempt of allowance reduction."
					},
					"increaseAllowance(address,uint256)": {
						"details": "Atomically increases the allowance granted to `spender` by the caller. This is an alternative to {approve} that can be used as a mitigation for problems described in {IERC20-approve}. Emits an {Approval} event indicating the updated allowance. Requirements: - `spender` cannot be the zero address."
					},
					"name()": {
						"details": "Returns the name of the token."
					},
					"owner()": {
						"details": "Returns the address of the current owner."
					},
					"renounceOwnership()": {
						"details": "Leaves the contract without owner. It will not be possible to call `onlyOwner` functions. Can only be called by the current owner. NOTE: Renouncing ownership will leave the contract without an owner, thereby disabling any functionality that is only available to the owner."
					},
					"symbol()": {
						"details": "Returns the symbol of the token, usually a shorter version of the name."
					},
					"totalSupply()": {
						"details": "See {IERC20-totalSupply}."
					},
					"transfer(address,uint256)": {
						"details": "See {IERC20-transfer}. Requirements: - `to` cannot be the zero address. - the caller must have a balance of at least `value`."
					},
					"transferFrom(address,address,uint256)": {
						"details": "See {IERC20-transferFrom}. Emits an {Approval} event indicating the updated allowance. This is not required by the EIP. See the note at the beginning of {ERC20}. NOTE: Does not update the allowance if the current allowance is the maximum `uint256`. Requirements: - `from` and `to` cannot be the zero address. - `from` must have a balance of at least `value`. - the caller must have allowance for ``from``'s tokens of at least `value`."
					},
					"transferOwnership(address)": {
						"details": "Transfers ownership of the contract to a new account (`newOwner`). Can only be called by the current owner."
					}
				},
				"version": 1
			},
			"evm": {
				"assembly": "    /* \"Contract/Mytoken.sol\":109:811  contract Mytoken is ERC20, Ownable {... */\n  mstore(0x40, 0x80)\n    /* \"Contract/Mytoken.sol\":177:179  10 */\n  0x0a\n    /* \"Contract/Mytoken.sol\":147:179  uint256 public tokensPerEth = 10 */\n  0x06\n  sstore\n    /* \"Contract/Mytoken.sol\":286:395  constructor()ERC20(\"Mytoken\",\"MYT\") Ownable(msg.sender) {... */\n  callvalue\n  dup1\n  iszero\n  tag_1\n  jumpi\n  0x00\n  dup1\n  revert\ntag_1:\n  pop\n    /* \"Contract/Mytoken.sol\":330:340  msg.sender */\n  caller\n    /* \"Contract/ERC20.sol\":2296:2412  constructor(string memory name_, string memory symbol_) {... */\n  mload(0x40)\n  dup1\n  0x40\n  add\n  0x40\n  mstore\n  dup1\n  0x07\n  dup2\n  mstore\n  0x20\n  add\n  0x4d79746f6b656e00000000000000000000000000000000000000000000000000\n  dup2\n  mstore\n  pop\n  mload(0x40)\n  dup1\n  0x40\n  add\n  0x40\n  mstore\n  dup1\n  0x03\n  dup2\n  mstore\n  0x20\n  add\n  0x4d59540000000000000000000000000000000000000000000000000000000000\n  dup2\n  mstore\n  pop\n    /* \"Contract/ERC20.sol\":2371:2376  name_ */\n  dup2\n    /* \"Contract/ERC20.sol\":2363:2368  _name */\n  0x03\n    /* \"Contract/ERC20.sol\":2363:2376  _name = name_ */\n  swap1\n  dup2\n  tag_6\n  swap2\n  swap1\n  tag_7\n  jump\t// in\ntag_6:\n  pop\n    /* \"Contract/ERC20.sol\":2397:2404  symbol_ */\n  dup1\n    /* \"Contract/ERC20.sol\":2387:2394  _symbol */\n  0x04\n    /* \"Contract/ERC20.sol\":2387:2404  _symbol = symbol_ */\n  swap1\n  dup2\n  tag_8\n  swap2\n  swap1\n  tag_7\n  jump\t// in\ntag_8:\n  pop\n    /* \"Contract/ERC20.sol\":2296:2412  constructor(string memory name_, string memory symbol_) {... */\n  pop\n  pop\n    /* \"Contract/Ownable.sol\":1300:1332  _transferOwnership(initialOwner) */\n  tag_10\n    /* \"Contract/Ownable.sol\":1319:1331  initialOwner */\n  dup2\n    /* \"Contract/Ownable.sol\":1300:1318  _transferOwnership */\n  shl(0x20, tag_11)\n    /* \"Contract/Ownable.sol\":1300:1332  _transferOwnership(initialOwner) */\n  0x20\n  shr\n  jump\t// in\ntag_10:\n    /* \"Contract/Ownable.sol\":1255:1340  constructor(address initialOwner) {... */\n  pop\n    /* \"Contract/Mytoken.sol\":355:387  _mint(msg.sender,5000* (10**18)) */\n  tag_13\n    /* \"Contract/Mytoken.sol\":361:371  msg.sender */\n  caller\n    /* \"Contract/Mytoken.sol\":372:386  5000* (10**18) */\n  0x010f0cf064dd59200000\n    /* \"Contract/Mytoken.sol\":355:360  _mint */\n  shl(0x20, tag_14)\n    /* \"Contract/Mytoken.sol\":355:387  _mint(msg.sender,5000* (10**18)) */\n  0x20\n  shr\n  jump\t// in\ntag_13:\n    /* \"Contract/Mytoken.sol\":109:811  contract Mytoken is ERC20, Ownable {... */\n  jump(tag_15)\n    /* \"Contract/Ownable.sol\":2892:3083  function _transferOwnership(address newOwner) internal virtual {... */\ntag_11:\n    /* \"Contract/Ownable.sol\":2966:2982  address oldOwner */\n  0x00\n    /* \"Contract/Ownable.sol\":2985:2991  _owner */\n  0x05\n  0x00\n  swap1\n  sload\n  swap1\n  0x0100\n  exp\n  swap1\n  div\n  0xffffffffffffffffffffffffffffffffffffffff\n  and\n    /* \"Contract/Ownable.sol\":2966:2991  address oldOwner = _owner */\n  swap1\n  pop\n    /* \"Contract/Ownable.sol\":3011:3019  newOwner */\n  dup2\n    /* \"Contract/Ownable.sol\":3002:3008  _owner */\n  0x05\n  0x00\n    /* \"Contract/Ownable.sol\":3002:3019  _owner = newOwner */\n  0x0100\n  exp\n  dup2\n  sload\n  dup2\n  0xffffffffffffffffffffffffffffffffffffffff\n  mul\n  not\n  and\n  swap1\n  dup4\n  0xffffffffffffffffffffffffffffffffffffffff\n  and\n  mul\n  or\n  swap1\n  sstore\n  pop\n    /* \"Contract/Ownable.sol\":3066:3074  newOwner */\n  dup2\n    /* \"Contract/Ownable.sol\":3035:3075  OwnershipTransferred(oldOwner, newOwner) */\n  0xffffffffffffffffffffffffffffffffffffffff\n  and\n    /* \"Contract/Ownable.sol\":3056:3064  oldOwner */\n  dup2\n    /* \"Contract/Ownable.sol\":3035:3075  OwnershipTransferred(oldOwner, newOwner) */\n  0xffffffffffffffffffffffffffffffffffffffff\n  and\n  0x8be0079c531659141344cd1fd0a4f28419497f9722a3daafe3b4186f6b6457e0\n  mload(0x40)\n  mload(0x40)\n  dup1\n  swap2\n  sub\n  swap1\n  log3\n    /* \"Contract/Ownable.sol\":2955:3083  {... */\n  pop\n    /* \"Contract/Ownable.sol\":2892:3083  function _transferOwnership(address newOwner) internal virtual {... */\n  pop\n  jump\t// out\n    /* \"Contract/ERC20.sol\":10128:10341  function _mint(address account, uint256 value) internal {... */\ntag_14:\n    /* \"Contract/ERC20.sol\":10218:10219  0 */\n  0x00\n    /* \"Contract/ERC20.sol\":10199:10220  account == address(0) */\n  0xffffffffffffffffffffffffffffffffffffffff\n  and\n    /* \"Contract/ERC20.sol\":10199:10206  account */\n  dup3\n    /* \"Contract/ERC20.sol\":10199:10220  account == address(0) */\n  0xffffffffffffffffffffffffffffffffffffffff\n  and\n  sub\n    /* \"Contract/ERC20.sol\":10195:10288  if (account == address(0)) {... */\n  tag_18\n  jumpi\n    /* \"Contract/ERC20.sol\":10273:10274  0 */\n  0x00\n    /* \"Contract/ERC20.sol\":10244:10276  ERC20InvalidReceiver(address(0)) */\n  mload(0x40)\n  0xec442f0500000000000000000000000000000000000000000000000000000000\n  dup2\n  mstore\n  0x04\n  add\n  tag_19\n  swap2\n  swap1\n  tag_20\n  jump\t// in\ntag_19:\n  mload(0x40)\n  dup1\n  swap2\n  sub\n  swap1\n  revert\n    /* \"Contract/ERC20.sol\":10195:10288  if (account == address(0)) {... */\ntag_18:\n    /* \"Contract/ERC20.sol\":10298:10333  _update(address(0), account, value) */\n  tag_21\n    /* \"Contract/ERC20.sol\":10314:10315  0 */\n  0x00\n    /* \"Contract/ERC20.sol\":10318:10325  account */\n  dup4\n    /* \"Contract/ERC20.sol\":10327:10332  value */\n  dup4\n    /* \"Contract/ERC20.sol\":10298:10305  _update */\n  shl(0x20, tag_22)\n    /* \"Contract/ERC20.sol\":10298:10333  _update(address(0), account, value) */\n  0x20\n  shr\n  jump\t// in\ntag_21:\n    /* \"Contract/ERC20.sol\":10128:10341  function _mint(address account, uint256 value) internal {... */\n  pop\n  pop\n  jump\t// out\n    /* \"Contract/ERC20.sol\":8640:9775  function _update(address from, address to, uint256 value) internal virtual {... */\ntag_22:\n    /* \"Contract/ERC20.sol\":8746:8747  0 */\n  0x00\n    /* \"Contract/ERC20.sol\":8730:8748  from == address(0) */\n  0xffffffffffffffffffffffffffffffffffffffff\n  and\n    /* \"Contract/ERC20.sol\":8730:8734  from */\n  dup4\n    /* \"Contract/ERC20.sol\":8730:8748  from == address(0) */\n  0xffffffffffffffffffffffffffffffffffffffff\n  and\n  sub\n    /* \"Contract/ERC20.sol\":8726:9278  if (from == address(0)) {... */\n  tag_24\n  jumpi\n    /* \"Contract/ERC20.sol\":8884:8889  value */\n  dup1\n    /* \"Contract/ERC20.sol\":8868:8880  _totalSupply */\n  0x02\n  0x00\n    /* \"Contract/ERC20.sol\":8868:8889  _totalSupply += value */\n  dup3\n  dup3\n  sload\n  tag_25\n  swap2\n  swap1\n  tag_26\n  jump\t// in\ntag_25:\n  swap3\n  pop\n  pop\n  dup2\n  swap1\n  sstore\n  pop\n    /* \"Contract/ERC20.sol\":8726:9278  if (from == address(0)) {... */\n  jump(tag_27)\ntag_24:\n    /* \"Contract/ERC20.sol\":8922:8941  uint256 fromBalance */\n  0x00\n    /* \"Contract/ERC20.sol\":8944:8953  _balances */\n  dup1\n    /* \"Contract/ERC20.sol\":8944:8959  _balances[from] */\n  0x00\n    /* \"Contract/ERC20.sol\":8954:8958  from */\n  dup6\n    /* \"Contract/ERC20.sol\":8944:8959  _balances[from] */\n  0xffffffffffffffffffffffffffffffffffffffff\n  and\n  0xffffffffffffffffffffffffffffffffffffffff\n  and\n  dup2\n  mstore\n  0x20\n  add\n  swap1\n  dup2\n  mstore\n  0x20\n  add\n  0x00\n  keccak256\n  sload\n    /* \"Contract/ERC20.sol\":8922:8959  uint256 fromBalance = _balances[from] */\n  swap1\n  pop\n    /* \"Contract/ERC20.sol\":8992:8997  value */\n  dup2\n    /* \"Contract/ERC20.sol\":8978:8989  fromBalance */\n  dup2\n    /* \"Contract/ERC20.sol\":8978:8997  fromBalance < value */\n  lt\n    /* \"Contract/ERC20.sol\":8974:9091  if (fromBalance < value) {... */\n  iszero\n  tag_28\n  jumpi\n    /* \"Contract/ERC20.sol\":9050:9054  from */\n  dup4\n    /* \"Contract/ERC20.sol\":9056:9067  fromBalance */\n  dup2\n    /* \"Contract/ERC20.sol\":9069:9074  value */\n  dup4\n    /* \"Contract/ERC20.sol\":9025:9075  ERC20InsufficientBalance(from, fromBalance, value) */\n  mload(0x40)\n  0xe450d38c00000000000000000000000000000000000000000000000000000000\n  dup2\n  mstore\n  0x04\n  add\n  tag_29\n  swap4\n  swap3\n  swap2\n  swap1\n  tag_30\n  jump\t// in\ntag_29:\n  mload(0x40)\n  dup1\n  swap2\n  sub\n  swap1\n  revert\n    /* \"Contract/ERC20.sol\":8974:9091  if (fromBalance < value) {... */\ntag_28:\n    /* \"Contract/ERC20.sol\":9246:9251  value */\n  dup2\n    /* \"Contract/ERC20.sol\":9232:9243  fromBalance */\n  dup2\n    /* \"Contract/ERC20.sol\":9232:9251  fromBalance - value */\n  sub\n    /* \"Contract/ERC20.sol\":9214:9223  _balances */\n  0x00\n    /* \"Contract/ERC20.sol\":9214:9229  _balances[from] */\n  dup1\n    /* \"Contract/ERC20.sol\":9224:9228  from */\n  dup7\n    /* \"Contract/ERC20.sol\":9214:9229  _balances[from] */\n  0xffffffffffffffffffffffffffffffffffffffff\n  and\n  0xffffffffffffffffffffffffffffffffffffffff\n  and\n  dup2\n  mstore\n  0x20\n  add\n  swap1\n  dup2\n  mstore\n  0x20\n  add\n  0x00\n  keccak256\n    /* \"Contract/ERC20.sol\":9214:9251  _balances[from] = fromBalance - value */\n  dup2\n  swap1\n  sstore\n  pop\n    /* \"Contract/ERC20.sol\":8907:9278  {... */\n  pop\n    /* \"Contract/ERC20.sol\":8726:9278  if (from == address(0)) {... */\ntag_27:\n    /* \"Contract/ERC20.sol\":9308:9309  0 */\n  0x00\n    /* \"Contract/ERC20.sol\":9294:9310  to == address(0) */\n  0xffffffffffffffffffffffffffffffffffffffff\n  and\n    /* \"Contract/ERC20.sol\":9294:9296  to */\n  dup3\n    /* \"Contract/ERC20.sol\":9294:9310  to == address(0) */\n  0xffffffffffffffffffffffffffffffffffffffff\n  and\n  sub\n    /* \"Contract/ERC20.sol\":9290:9725  if (to == address(0)) {... */\n  tag_31\n  jumpi\n    /* \"Contract/ERC20.sol\":9476:9481  value */\n  dup1\n    /* \"Contract/ERC20.sol\":9460:9472  _totalSupply */\n  0x02\n  0x00\n    /* \"Contract/ERC20.sol\":9460:9481  _totalSupply -= value */\n  dup3\n  dup3\n  sload\n  sub\n  swap3\n  pop\n  pop\n  dup2\n  swap1\n  sstore\n  pop\n    /* \"Contract/ERC20.sol\":9290:9725  if (to == address(0)) {... */\n  jump(tag_32)\ntag_31:\n    /* \"Contract/ERC20.sol\":9693:9698  value */\n  dup1\n    /* \"Contract/ERC20.sol\":9676:9685  _balances */\n  0x00\n    /* \"Contract/ERC20.sol\":9676:9689  _balances[to] */\n  dup1\n    /* \"Contract/ERC20.sol\":9686:9688  to */\n  dup5\n    /* \"Contract/ERC20.sol\":9676:9689  _balances[to] */\n  0xffffffffffffffffffffffffffffffffffffffff\n  and\n  0xffffffffffffffffffffffffffffffffffffffff\n  and\n  dup2\n  mstore\n  0x20\n  add\n  swap1\n  dup2\n  mstore\n  0x20\n  add\n  0x00\n  keccak256\n  0x00\n    /* \"Contract/ERC20.sol\":9676:9698  _balances[to] += value */\n  dup3\n  dup3\n  sload\n  add\n  swap3\n  pop\n  pop\n  dup2\n  swap1\n  sstore\n  pop\n    /* \"Contract/ERC20.sol\":9290:9725  if (to == address(0)) {... */\ntag_32:\n    /* \"Contract/ERC20.sol\":9757:9759  to */\n  dup2\n    /* \"Contract/ERC20.sol\":9742:9767  Transfer(from, to, value) */\n  0xffffffffffffffffffffffffffffffffffffffff\n  and\n    /* \"Contract/ERC20.sol\":9751:9755  from */\n  dup4\n    /* \"Contract/ERC20.sol\":9742:9767  Transfer(from, to, value) */\n  0xffffffffffffffffffffffffffffffffffffffff\n  and\n  0xddf252ad1be2c89b69c2b068fc378daa952ba7f163c4a11628f55a4df523b3ef\n    /* \"Contract/ERC20.sol\":9761:9766  value */\n  dup4\n    /* \"Contract/ERC20.sol\":9742:9767  Transfer(from, to, value) */\n  mload(0x40)\n  tag_33\n  swap2\n  swap1\n  tag_34\n  jump\t// in\ntag_33:\n  mload(0x40)\n  dup1\n  swap2\n  sub\n  swap1\n  log3\n    /* \"Contract/ERC20.sol\":8640:9775  function _update(address from, address to, uint256 value) internal virtual {... */\n  pop\n  pop\n  pop\n  jump\t// out\n    /* \"#utility.yul\":7:106   */\ntag_35:\n    /* \"#utility.yul\":59:65   */\n  0x00\n    /* \"#utility.yul\":93:98   */\n  dup2\n    /* \"#utility.yul\":87:99   */\n  mload\n    /* \"#utility.yul\":77:99   */\n  swap1\n  pop\n    /* \"#utility.yul\":7:106   */\n  swap2\n  swap1\n  pop\n  jump\t// out\n    /* \"#utility.yul\":112:292   */\ntag_36:\n    /* \"#utility.yul\":160:237   */\n  0x4e487b7100000000000000000000000000000000000000000000000000000000\n    /* \"#utility.yul\":157:158   */\n  0x00\n    /* \"#utility.yul\":150:238   */\n  mstore\n    /* \"#utility.yul\":257:261   */\n  0x41\n    /* \"#utility.yul\":254:255   */\n  0x04\n    /* \"#utility.yul\":247:262   */\n  mstore\n    /* \"#utility.yul\":281:285   */\n  0x24\n    /* \"#utility.yul\":278:279   */\n  0x00\n    /* \"#utility.yul\":271:286   */\n  revert\n    /* \"#utility.yul\":298:478   */\ntag_37:\n    /* \"#utility.yul\":346:423   */\n  0x4e487b7100000000000000000000000000000000000000000000000000000000\n    /* \"#utility.yul\":343:344   */\n  0x00\n    /* \"#utility.yul\":336:424   */\n  mstore\n    /* \"#utility.yul\":443:447   */\n  0x22\n    /* \"#utility.yul\":440:441   */\n  0x04\n    /* \"#utility.yul\":433:448   */\n  mstore\n    /* \"#utility.yul\":467:471   */\n  0x24\n    /* \"#utility.yul\":464:465   */\n  0x00\n    /* \"#utility.yul\":457:472   */\n  revert\n    /* \"#utility.yul\":484:804   */\ntag_38:\n    /* \"#utility.yul\":528:534   */\n  0x00\n    /* \"#utility.yul\":565:566   */\n  0x02\n    /* \"#utility.yul\":559:563   */\n  dup3\n    /* \"#utility.yul\":555:567   */\n  div\n    /* \"#utility.yul\":545:567   */\n  swap1\n  pop\n    /* \"#utility.yul\":612:613   */\n  0x01\n    /* \"#utility.yul\":606:610   */\n  dup3\n    /* \"#utility.yul\":602:614   */\n  and\n    /* \"#utility.yul\":633:651   */\n  dup1\n    /* \"#utility.yul\":623:704   */\n  tag_65\n  jumpi\n    /* \"#utility.yul\":689:693   */\n  0x7f\n    /* \"#utility.yul\":681:687   */\n  dup3\n    /* \"#utility.yul\":677:694   */\n  and\n    /* \"#utility.yul\":667:694   */\n  swap2\n  pop\n    /* \"#utility.yul\":623:704   */\ntag_65:\n    /* \"#utility.yul\":751:753   */\n  0x20\n    /* \"#utility.yul\":743:749   */\n  dup3\n    /* \"#utility.yul\":740:754   */\n  lt\n    /* \"#utility.yul\":720:738   */\n  dup2\n    /* \"#utility.yul\":717:755   */\n  sub\n    /* \"#utility.yul\":714:798   */\n  tag_66\n  jumpi\n    /* \"#utility.yul\":770:788   */\n  tag_67\n  tag_37\n  jump\t// in\ntag_67:\n    /* \"#utility.yul\":714:798   */\ntag_66:\n    /* \"#utility.yul\":535:804   */\n  pop\n    /* \"#utility.yul\":484:804   */\n  swap2\n  swap1\n  pop\n  jump\t// out\n    /* \"#utility.yul\":810:951   */\ntag_39:\n    /* \"#utility.yul\":859:863   */\n  0x00\n    /* \"#utility.yul\":882:885   */\n  dup2\n    /* \"#utility.yul\":874:885   */\n  swap1\n  pop\n    /* \"#utility.yul\":905:908   */\n  dup2\n    /* \"#utility.yul\":902:903   */\n  0x00\n    /* \"#utility.yul\":895:909   */\n  mstore\n    /* \"#utility.yul\":939:943   */\n  0x20\n    /* \"#utility.yul\":936:937   */\n  0x00\n    /* \"#utility.yul\":926:944   */\n  keccak256\n    /* \"#utility.yul\":918:944   */\n  swap1\n  pop\n    /* \"#utility.yul\":810:951   */\n  swap2\n  swap1\n  pop\n  jump\t// out\n    /* \"#utility.yul\":957:1050   */\ntag_40:\n    /* \"#utility.yul\":994:1000   */\n  0x00\n    /* \"#utility.yul\":1041:1043   */\n  0x20\n    /* \"#utility.yul\":1036:1038   */\n  0x1f\n    /* \"#utility.yul\":1029:1034   */\n  dup4\n    /* \"#utility.yul\":1025:1039   */\n  add\n    /* \"#utility.yul\":1021:1044   */\n  div\n    /* \"#utility.yul\":1011:1044   */\n  swap1\n  pop\n    /* \"#utility.yul\":957:1050   */\n  swap2\n  swap1\n  pop\n  jump\t// out\n    /* \"#utility.yul\":1056:1163   */\ntag_41:\n    /* \"#utility.yul\":1100:1108   */\n  0x00\n    /* \"#utility.yul\":1150:1155   */\n  dup3\n    /* \"#utility.yul\":1144:1148   */\n  dup3\n    /* \"#utility.yul\":1140:1156   */\n  shl\n    /* \"#utility.yul\":1119:1156   */\n  swap1\n  pop\n    /* \"#utility.yul\":1056:1163   */\n  swap3\n  swap2\n  pop\n  pop\n  jump\t// out\n    /* \"#utility.yul\":1169:1562   */\ntag_42:\n    /* \"#utility.yul\":1238:1244   */\n  0x00\n    /* \"#utility.yul\":1288:1289   */\n  0x08\n    /* \"#utility.yul\":1276:1286   */\n  dup4\n    /* \"#utility.yul\":1272:1290   */\n  mul\n    /* \"#utility.yul\":1311:1408   */\n  tag_72\n    /* \"#utility.yul\":1341:1407   */\n  0xffffffffffffffffffffffffffffffffffffffffffffffffffffffffffffffff\n    /* \"#utility.yul\":1330:1339   */\n  dup3\n    /* \"#utility.yul\":1311:1408   */\n  tag_41\n  jump\t// in\ntag_72:\n    /* \"#utility.yul\":1429:1468   */\n  tag_73\n    /* \"#utility.yul\":1459:1467   */\n  dup7\n    /* \"#utility.yul\":1448:1457   */\n  dup4\n    /* \"#utility.yul\":1429:1468   */\n  tag_41\n  jump\t// in\ntag_73:\n    /* \"#utility.yul\":1417:1468   */\n  swap6\n  pop\n    /* \"#utility.yul\":1501:1505   */\n  dup1\n    /* \"#utility.yul\":1497:1506   */\n  not\n    /* \"#utility.yul\":1490:1495   */\n  dup5\n    /* \"#utility.yul\":1486:1507   */\n  and\n    /* \"#utility.yul\":1477:1507   */\n  swap4\n  pop\n    /* \"#utility.yul\":1550:1554   */\n  dup1\n    /* \"#utility.yul\":1540:1548   */\n  dup7\n    /* \"#utility.yul\":1536:1555   */\n  and\n    /* \"#utility.yul\":1529:1534   */\n  dup5\n    /* \"#utility.yul\":1526:1556   */\n  or\n    /* \"#utility.yul\":1516:1556   */\n  swap3\n  pop\n    /* \"#utility.yul\":1245:1562   */\n  pop\n  pop\n    /* \"#utility.yul\":1169:1562   */\n  swap4\n  swap3\n  pop\n  pop\n  pop\n  jump\t// out\n    /* \"#utility.yul\":1568:1645   */\ntag_43:\n    /* \"#utility.yul\":1605:1612   */\n  0x00\n    /* \"#utility.yul\":1634:1639   */\n  dup2\n    /* \"#utility.yul\":1623:1639   */\n  swap1\n  pop\n    /* \"#utility.yul\":1568:1645   */\n  swap2\n  swap1\n  pop\n  jump\t// out\n    /* \"#utility.yul\":1651:1711   */\ntag_44:\n    /* \"#utility.yul\":1679:1682   */\n  0x00\n    /* \"#utility.yul\":1700:1705   */\n  dup2\n    /* \"#utility.yul\":1693:1705   */\n  swap1\n  pop\n    /* \"#utility.yul\":1651:1711   */\n  swap2\n  swap1\n  pop\n  jump\t// out\n    /* \"#utility.yul\":1717:1859   */\ntag_45:\n    /* \"#utility.yul\":1767:1776   */\n  0x00\n    /* \"#utility.yul\":1800:1853   */\n  tag_77\n    /* \"#utility.yul\":1818:1852   */\n  tag_78\n    /* \"#utility.yul\":1827:1851   */\n  tag_79\n    /* \"#utility.yul\":1845:1850   */\n  dup5\n    /* \"#utility.yul\":1827:1851   */\n  tag_43\n  jump\t// in\ntag_79:\n    /* \"#utility.yul\":1818:1852   */\n  tag_44\n  jump\t// in\ntag_78:\n    /* \"#utility.yul\":1800:1853   */\n  tag_43\n  jump\t// in\ntag_77:\n    /* \"#utility.yul\":1787:1853   */\n  swap1\n  pop\n    /* \"#utility.yul\":1717:1859   */\n  swap2\n  swap1\n  pop\n  jump\t// out\n    /* \"#utility.yul\":1865:1940   */\ntag_46:\n    /* \"#utility.yul\":1908:1911   */\n  0x00\n    /* \"#utility.yul\":1929:1934   */\n  dup2\n    /* \"#utility.yul\":1922:1934   */\n  swap1\n  pop\n    /* \"#utility.yul\":1865:1940   */\n  swap2\n  swap1\n  pop\n  jump\t// out\n    /* \"#utility.yul\":1946:2215   */\ntag_47:\n    /* \"#utility.yul\":2056:2095   */\n  tag_82\n    /* \"#utility.yul\":2087:2094   */\n  dup4\n    /* \"#utility.yul\":2056:2095   */\n  tag_45\n  jump\t// in\ntag_82:\n    /* \"#utility.yul\":2117:2208   */\n  tag_83\n    /* \"#utility.yul\":2166:2207   */\n  tag_84\n    /* \"#utility.yul\":2190:2206   */\n  dup3\n    /* \"#utility.yul\":2166:2207   */\n  tag_46\n  jump\t// in\ntag_84:\n    /* \"#utility.yul\":2158:2164   */\n  dup5\n    /* \"#utility.yul\":2151:2155   */\n  dup5\n    /* \"#utility.yul\":2145:2156   */\n  sload\n    /* \"#utility.yul\":2117:2208   */\n  tag_42\n  jump\t// in\ntag_83:\n    /* \"#utility.yul\":2111:2115   */\n  dup3\n    /* \"#utility.yul\":2104:2209   */\n  sstore\n    /* \"#utility.yul\":2022:2215   */\n  pop\n    /* \"#utility.yul\":1946:2215   */\n  pop\n  pop\n  pop\n  jump\t// out\n    /* \"#utility.yul\":2221:2294   */\ntag_48:\n    /* \"#utility.yul\":2266:2269   */\n  0x00\n    /* \"#utility.yul\":2221:2294   */\n  swap1\n  jump\t// out\n    /* \"#utility.yul\":2300:2489   */\ntag_49:\n    /* \"#utility.yul\":2377:2409   */\n  tag_87\n  tag_48\n  jump\t// in\ntag_87:\n    /* \"#utility.yul\":2418:2483   */\n  tag_88\n    /* \"#utility.yul\":2476:2482   */\n  dup2\n    /* \"#utility.yul\":2468:2474   */\n  dup5\n    /* \"#utility.yul\":2462:2466   */\n  dup5\n    /* \"#utility.yul\":2418:2483   */\n  tag_47\n  jump\t// in\ntag_88:\n    /* \"#utility.yul\":2353:2489   */\n  pop\n    /* \"#utility.yul\":2300:2489   */\n  pop\n  pop\n  jump\t// out\n    /* \"#utility.yul\":2495:2681   */\ntag_50:\n    /* \"#utility.yul\":2555:2675   */\ntag_90:\n    /* \"#utility.yul\":2572:2575   */\n  dup2\n    /* \"#utility.yul\":2565:2570   */\n  dup2\n    /* \"#utility.yul\":2562:2576   */\n  lt\n    /* \"#utility.yul\":2555:2675   */\n  iszero\n  tag_92\n  jumpi\n    /* \"#utility.yul\":2626:2665   */\n  tag_93\n    /* \"#utility.yul\":2663:2664   */\n  0x00\n    /* \"#utility.yul\":2656:2661   */\n  dup3\n    /* \"#utility.yul\":2626:2665   */\n  tag_49\n  jump\t// in\ntag_93:\n    /* \"#utility.yul\":2599:2600   */\n  0x01\n    /* \"#utility.yul\":2592:2597   */\n  dup2\n    /* \"#utility.yul\":2588:2601   */\n  add\n    /* \"#utility.yul\":2579:2601   */\n  swap1\n  pop\n    /* \"#utility.yul\":2555:2675   */\n  jump(tag_90)\ntag_92:\n    /* \"#utility.yul\":2495:2681   */\n  pop\n  pop\n  jump\t// out\n    /* \"#utility.yul\":2687:3230   */\ntag_51:\n    /* \"#utility.yul\":2788:2790   */\n  0x1f\n    /* \"#utility.yul\":2783:2786   */\n  dup3\n    /* \"#utility.yul\":2780:2791   */\n  gt\n    /* \"#utility.yul\":2777:3223   */\n  iszero\n  tag_95\n  jumpi\n    /* \"#utility.yul\":2822:2860   */\n  tag_96\n    /* \"#utility.yul\":2854:2859   */\n  dup2\n    /* \"#utility.yul\":2822:2860   */\n  tag_39\n  jump\t// in\ntag_96:\n    /* \"#utility.yul\":2906:2935   */\n  tag_97\n    /* \"#utility.yul\":2924:2934   */\n  dup5\n    /* \"#utility.yul\":2906:2935   */\n  tag_40\n  jump\t// in\ntag_97:\n    /* \"#utility.yul\":2896:2904   */\n  dup2\n    /* \"#utility.yul\":2892:2936   */\n  add\n    /* \"#utility.yul\":3089:3091   */\n  0x20\n    /* \"#utility.yul\":3077:3087   */\n  dup6\n    /* \"#utility.yul\":3074:3092   */\n  lt\n    /* \"#utility.yul\":3071:3120   */\n  iszero\n  tag_98\n  jumpi\n    /* \"#utility.yul\":3110:3118   */\n  dup2\n    /* \"#utility.yul\":3095:3118   */\n  swap1\n  pop\n    /* \"#utility.yul\":3071:3120   */\ntag_98:\n    /* \"#utility.yul\":3133:3213   */\n  tag_99\n    /* \"#utility.yul\":3189:3211   */\n  tag_100\n    /* \"#utility.yul\":3207:3210   */\n  dup6\n    /* \"#utility.yul\":3189:3211   */\n  tag_40\n  jump\t// in\ntag_100:\n    /* \"#utility.yul\":3179:3187   */\n  dup4\n    /* \"#utility.yul\":3175:3212   */\n  add\n    /* \"#utility.yul\":3162:3173   */\n  dup3\n    /* \"#utility.yul\":3133:3213   */\n  tag_50\n  jump\t// in\ntag_99:\n    /* \"#utility.yul\":2792:3223   */\n  pop\n  pop\n    /* \"#utility.yul\":2777:3223   */\ntag_95:\n    /* \"#utility.yul\":2687:3230   */\n  pop\n  pop\n  pop\n  jump\t// out\n    /* \"#utility.yul\":3236:3353   */\ntag_52:\n    /* \"#utility.yul\":3290:3298   */\n  0x00\n    /* \"#utility.yul\":3340:3345   */\n  dup3\n    /* \"#utility.yul\":3334:3338   */\n  dup3\n    /* \"#utility.yul\":3330:3346   */\n  shr\n    /* \"#utility.yul\":3309:3346   */\n  swap1\n  pop\n    /* \"#utility.yul\":3236:3353   */\n  swap3\n  swap2\n  pop\n  pop\n  jump\t// out\n    /* \"#utility.yul\":3359:3528   */\ntag_53:\n    /* \"#utility.yul\":3403:3409   */\n  0x00\n    /* \"#utility.yul\":3436:3487   */\n  tag_103\n    /* \"#utility.yul\":3484:3485   */\n  0x00\n    /* \"#utility.yul\":3480:3486   */\n  not\n    /* \"#utility.yul\":3472:3477   */\n  dup5\n    /* \"#utility.yul\":3469:3470   */\n  0x08\n    /* \"#utility.yul\":3465:3478   */\n  mul\n    /* \"#utility.yul\":3436:3487   */\n  tag_52\n  jump\t// in\ntag_103:\n    /* \"#utility.yul\":3432:3488   */\n  not\n    /* \"#utility.yul\":3517:3521   */\n  dup1\n    /* \"#utility.yul\":3511:3515   */\n  dup4\n    /* \"#utility.yul\":3507:3522   */\n  and\n    /* \"#utility.yul\":3497:3522   */\n  swap2\n  pop\n    /* \"#utility.yul\":3410:3528   */\n  pop\n    /* \"#utility.yul\":3359:3528   */\n  swap3\n  swap2\n  pop\n  pop\n  jump\t// out\n    /* \"#utility.yul\":3533:3828   */\ntag_54:\n    /* \"#utility.yul\":3609:3613   */\n  0x00\n    /* \"#utility.yul\":3755:3784   */\n  tag_105\n    /* \"#utility.yul\":3780:3783   */\n  dup4\n    /* \"#utility.yul\":3774:3778   */\n  dup4\n    /* \"#utility.yul\":3755:3784   */\n  tag_53\n  jump\t// in\ntag_105:\n    /* \"#utility.yul\":3747:3784   */\n  swap2\n  pop\n    /* \"#utility.yul\":3817:3820   */\n  dup3\n    /* \"#utility.yul\":3814:3815   */\n  0x02\n    /* \"#utility.yul\":3810:3821   */\n  mul\n    /* \"#utility.yul\":3804:3808   */\n  dup3\n    /* \"#utility.yul\":3801:3822   */\n  or\n    /* \"#utility.yul\":3793:3822   */\n  swap1\n  pop\n    /* \"#utility.yul\":3533:3828   */\n  swap3\n  swap2\n  pop\n  pop\n  jump\t// out\n    /* \"#utility.yul\":3833:5228   */\ntag_7:\n    /* \"#utility.yul\":3950:3987   */\n  tag_107\n    /* \"#utility.yul\":3983:3986   */\n  dup3\n    /* \"#utility.yul\":3950:3987   */\n  tag_35\n  jump\t// in\ntag_107:\n    /* \"#utility.yul\":4052:4070   */\n  0xffffffffffffffff\n    /* \"#utility.yul\":4044:4050   */\n  dup2\n    /* \"#utility.yul\":4041:4071   */\n  gt\n    /* \"#utility.yul\":4038:4094   */\n  iszero\n  tag_108\n  jumpi\n    /* \"#utility.yul\":4074:4092   */\n  tag_109\n  tag_36\n  jump\t// in\ntag_109:\n    /* \"#utility.yul\":4038:4094   */\ntag_108:\n    /* \"#utility.yul\":4118:4156   */\n  tag_110\n    /* \"#utility.yul\":4150:4154   */\n  dup3\n    /* \"#utility.yul\":4144:4155   */\n  sload\n    /* \"#utility.yul\":4118:4156   */\n  tag_38\n  jump\t// in\ntag_110:\n    /* \"#utility.yul\":4203:4270   */\n  tag_111\n    /* \"#utility.yul\":4263:4269   */\n  dup3\n    /* \"#utility.yul\":4255:4261   */\n  dup3\n    /* \"#utility.yul\":4249:4253   */\n  dup6\n    /* \"#utility.yul\":4203:4270   */\n  tag_51\n  jump\t// in\ntag_111:\n    /* \"#utility.yul\":4297:4298   */\n  0x00\n    /* \"#utility.yul\":4321:4325   */\n  0x20\n    /* \"#utility.yul\":4308:4325   */\n  swap1\n  pop\n    /* \"#utility.yul\":4353:4355   */\n  0x1f\n    /* \"#utility.yul\":4345:4351   */\n  dup4\n    /* \"#utility.yul\":4342:4356   */\n  gt\n    /* \"#utility.yul\":4370:4371   */\n  0x01\n    /* \"#utility.yul\":4365:4983   */\n  dup2\n  eq\n  tag_113\n  jumpi\n    /* \"#utility.yul\":5027:5028   */\n  0x00\n    /* \"#utility.yul\":5044:5050   */\n  dup5\n    /* \"#utility.yul\":5041:5118   */\n  iszero\n  tag_114\n  jumpi\n    /* \"#utility.yul\":5093:5102   */\n  dup3\n    /* \"#utility.yul\":5088:5091   */\n  dup8\n    /* \"#utility.yul\":5084:5103   */\n  add\n    /* \"#utility.yul\":5078:5104   */\n  mload\n    /* \"#utility.yul\":5069:5104   */\n  swap1\n  pop\n    /* \"#utility.yul\":5041:5118   */\ntag_114:\n    /* \"#utility.yul\":5144:5211   */\n  tag_115\n    /* \"#utility.yul\":5204:5210   */\n  dup6\n    /* \"#utility.yul\":5197:5202   */\n  dup3\n    /* \"#utility.yul\":5144:5211   */\n  tag_54\n  jump\t// in\ntag_115:\n    /* \"#utility.yul\":5138:5142   */\n  dup7\n    /* \"#utility.yul\":5131:5212   */\n  sstore\n    /* \"#utility.yul\":5000:5222   */\n  pop\n    /* \"#utility.yul\":4335:5222   */\n  jump(tag_112)\n    /* \"#utility.yul\":4365:4983   */\ntag_113:\n    /* \"#utility.yul\":4417:4421   */\n  0x1f\n    /* \"#utility.yul\":4413:4422   */\n  not\n    /* \"#utility.yul\":4405:4411   */\n  dup5\n    /* \"#utility.yul\":4401:4423   */\n  and\n    /* \"#utility.yul\":4451:4488   */\n  tag_116\n    /* \"#utility.yul\":4483:4487   */\n  dup7\n    /* \"#utility.yul\":4451:4488   */\n  tag_39\n  jump\t// in\ntag_116:\n    /* \"#utility.yul\":4510:4511   */\n  0x00\n    /* \"#utility.yul\":4524:4732   */\ntag_117:\n    /* \"#utility.yul\":4538:4545   */\n  dup3\n    /* \"#utility.yul\":4535:4536   */\n  dup2\n    /* \"#utility.yul\":4532:4546   */\n  lt\n    /* \"#utility.yul\":4524:4732   */\n  iszero\n  tag_119\n  jumpi\n    /* \"#utility.yul\":4617:4626   */\n  dup5\n    /* \"#utility.yul\":4612:4615   */\n  dup10\n    /* \"#utility.yul\":4608:4627   */\n  add\n    /* \"#utility.yul\":4602:4628   */\n  mload\n    /* \"#utility.yul\":4594:4600   */\n  dup3\n    /* \"#utility.yul\":4587:4629   */\n  sstore\n    /* \"#utility.yul\":4668:4669   */\n  0x01\n    /* \"#utility.yul\":4660:4666   */\n  dup3\n    /* \"#utility.yul\":4656:4670   */\n  add\n    /* \"#utility.yul\":4646:4670   */\n  swap2\n  pop\n    /* \"#utility.yul\":4715:4717   */\n  0x20\n    /* \"#utility.yul\":4704:4713   */\n  dup6\n    /* \"#utility.yul\":4700:4718   */\n  add\n    /* \"#utility.yul\":4687:4718   */\n  swap5\n  pop\n    /* \"#utility.yul\":4561:4565   */\n  0x20\n    /* \"#utility.yul\":4558:4559   */\n  dup2\n    /* \"#utility.yul\":4554:4566   */\n  add\n    /* \"#utility.yul\":4549:4566   */\n  swap1\n  pop\n    /* \"#utility.yul\":4524:4732   */\n  jump(tag_117)\ntag_119:\n    /* \"#utility.yul\":4760:4766   */\n  dup7\n    /* \"#utility.yul\":4751:4758   */\n  dup4\n    /* \"#utility.yul\":4748:4767   */\n  lt\n    /* \"#utility.yul\":4745:4924   */\n  iszero\n  tag_120\n  jumpi\n    /* \"#utility.yul\":4818:4827   */\n  dup5\n    /* \"#utility.yul\":4813:4816   */\n  dup10\n    /* \"#utility.yul\":4809:4828   */\n  add\n    /* \"#utility.yul\":4803:4829   */\n  mload\n    /* \"#utility.yul\":4861:4909   */\n  tag_121\n    /* \"#utility.yul\":4903:4907   */\n  0x1f\n    /* \"#utility.yul\":4895:4901   */\n  dup10\n    /* \"#utility.yul\":4891:4908   */\n  and\n    /* \"#utility.yul\":4880:4889   */\n  dup3\n    /* \"#utility.yul\":4861:4909   */\n  tag_53\n  jump\t// in\ntag_121:\n    /* \"#utility.yul\":4853:4859   */\n  dup4\n    /* \"#utility.yul\":4846:4910   */\n  sstore\n    /* \"#utility.yul\":4768:4924   */\n  pop\n    /* \"#utility.yul\":4745:4924   */\ntag_120:\n    /* \"#utility.yul\":4970:4971   */\n  0x01\n    /* \"#utility.yul\":4966:4967   */\n  0x02\n    /* \"#utility.yul\":4958:4964   */\n  dup9\n    /* \"#utility.yul\":4954:4968   */\n  mul\n    /* \"#utility.yul\":4950:4972   */\n  add\n    /* \"#utility.yul\":4944:4948   */\n  dup9\n    /* \"#utility.yul\":4937:4973   */\n  sstore\n    /* \"#utility.yul\":4372:4983   */\n  pop\n  pop\n  pop\n    /* \"#utility.yul\":4335:5222   */\ntag_112:\n  pop\n    /* \"#utility.yul\":3925:5228   */\n  pop\n  pop\n  pop\n    /* \"#utility.yul\":3833:5228   */\n  pop\n  pop\n  jump\t// out\n    /* \"#utility.yul\":5234:5360   */\ntag_55:\n    /* \"#utility.yul\":5271:5278   */\n  0x00\n    /* \"#utility.yul\":5311:5353   */\n  0xffffffffffffffffffffffffffffffffffffffff\n    /* \"#utility.yul\":5304:5309   */\n  dup3\n    /* \"#utility.yul\":5300:5354   */\n  and\n    /* \"#utility.yul\":5289:5354   */\n  swap1\n  pop\n    /* \"#utility.yul\":5234:5360   */\n  swap2\n  swap1\n  pop\n  jump\t// out\n    /* \"#utility.yul\":5366:5462   */\ntag_56:\n    /* \"#utility.yul\":5403:5410   */\n  0x00\n    /* \"#utility.yul\":5432:5456   */\n  tag_124\n    /* \"#utility.yul\":5450:5455   */\n  dup3\n    /* \"#utility.yul\":5432:5456   */\n  tag_55\n  jump\t// in\ntag_124:\n    /* \"#utility.yul\":5421:5456   */\n  swap1\n  pop\n    /* \"#utility.yul\":5366:5462   */\n  swap2\n  swap1\n  pop\n  jump\t// out\n    /* \"#utility.yul\":5468:5586   */\ntag_57:\n    /* \"#utility.yul\":5555:5579   */\n  tag_126\n    /* \"#utility.yul\":5573:5578   */\n  dup2\n    /* \"#utility.yul\":5555:5579   */\n  tag_56\n  jump\t// in\ntag_126:\n    /* \"#utility.yul\":5550:5553   */\n  dup3\n    /* \"#utility.yul\":5543:5580   */\n  mstore\n    /* \"#utility.yul\":5468:5586   */\n  pop\n  pop\n  jump\t// out\n    /* \"#utility.yul\":5592:5814   */\ntag_20:\n    /* \"#utility.yul\":5685:5689   */\n  0x00\n    /* \"#utility.yul\":5723:5725   */\n  0x20\n    /* \"#utility.yul\":5712:5721   */\n  dup3\n    /* \"#utility.yul\":5708:5726   */\n  add\n    /* \"#utility.yul\":5700:5726   */\n  swap1\n  pop\n    /* \"#utility.yul\":5736:5807   */\n  tag_128\n    /* \"#utility.yul\":5804:5805   */\n  0x00\n    /* \"#utility.yul\":5793:5802   */\n  dup4\n    /* \"#utility.yul\":5789:5806   */\n  add\n    /* \"#utility.yul\":5780:5786   */\n  dup5\n    /* \"#utility.yul\":5736:5807   */\n  tag_57\n  jump\t// in\ntag_128:\n    /* \"#utility.yul\":5592:5814   */\n  swap3\n  swap2\n  pop\n  pop\n  jump\t// out\n    /* \"#utility.yul\":5820:6000   */\ntag_58:\n    /* \"#utility.yul\":5868:5945   */\n  0x4e487b7100000000000000000000000000000000000000000000000000000000\n    /* \"#utility.yul\":5865:5866   */\n  0x00\n    /* \"#utility.yul\":5858:5946   */\n  mstore\n    /* \"#utility.yul\":5965:5969   */\n  0x11\n    /* \"#utility.yul\":5962:5963   */\n  0x04\n    /* \"#utility.yul\":5955:5970   */\n  mstore\n    /* \"#utility.yul\":5989:5993   */\n  0x24\n    /* \"#utility.yul\":5986:5987   */\n  0x00\n    /* \"#utility.yul\":5979:5994   */\n  revert\n    /* \"#utility.yul\":6006:6197   */\ntag_26:\n    /* \"#utility.yul\":6046:6049   */\n  0x00\n    /* \"#utility.yul\":6065:6085   */\n  tag_131\n    /* \"#utility.yul\":6083:6084   */\n  dup3\n    /* \"#utility.yul\":6065:6085   */\n  tag_43\n  jump\t// in\ntag_131:\n    /* \"#utility.yul\":6060:6085   */\n  swap2\n  pop\n    /* \"#utility.yul\":6099:6119   */\n  tag_132\n    /* \"#utility.yul\":6117:6118   */\n  dup4\n    /* \"#utility.yul\":6099:6119   */\n  tag_43\n  jump\t// in\ntag_132:\n    /* \"#utility.yul\":6094:6119   */\n  swap3\n  pop\n    /* \"#utility.yul\":6142:6143   */\n  dup3\n    /* \"#utility.yul\":6139:6140   */\n  dup3\n    /* \"#utility.yul\":6135:6144   */\n  add\n    /* \"#utility.yul\":6128:6144   */\n  swap1\n  pop\n    /* \"#utility.yul\":6163:6166   */\n  dup1\n    /* \"#utility.yul\":6160:6161   */\n  dup3\n    /* \"#utility.yul\":6157:6167   */\n  gt\n    /* \"#utility.yul\":6154:6190   */\n  iszero\n  tag_133\n  jumpi\n    /* \"#utility.yul\":6170:6188   */\n  tag_134\n  tag_58\n  jump\t// in\ntag_134:\n    /* \"#utility.yul\":6154:6190   */\ntag_133:\n    /* \"#utility.yul\":6006:6197   */\n  swap3\n  swap2\n  pop\n  pop\n  jump\t// out\n    /* \"#utility.yul\":6203:6321   */\ntag_59:\n    /* \"#utility.yul\":6290:6314   */\n  tag_136\n    /* \"#utility.yul\":6308:6313   */\n  dup2\n    /* \"#utility.yul\":6290:6314   */\n  tag_43\n  jump\t// in\ntag_136:\n    /* \"#utility.yul\":6285:6288   */\n  dup3\n    /* \"#utility.yul\":6278:6315   */\n  mstore\n    /* \"#utility.yul\":6203:6321   */\n  pop\n  pop\n  jump\t// out\n    /* \"#utility.yul\":6327:6769   */\ntag_30:\n    /* \"#utility.yul\":6476:6480   */\n  0x00\n    /* \"#utility.yul\":6514:6516   */\n  0x60\n    /* \"#utility.yul\":6503:6512   */\n  dup3\n    /* \"#utility.yul\":6499:6517   */\n  add\n    /* \"#utility.yul\":6491:6517   */\n  swap1\n  pop\n    /* \"#utility.yul\":6527:6598   */\n  tag_138\n    /* \"#utility.yul\":6595:6596   */\n  0x00\n    /* \"#utility.yul\":6584:6593   */\n  dup4\n    /* \"#utility.yul\":6580:6597   */\n  add\n    /* \"#utility.yul\":6571:6577   */\n  dup7\n    /* \"#utility.yul\":6527:6598   */\n  tag_57\n  jump\t// in\ntag_138:\n    /* \"#utility.yul\":6608:6680   */\n  tag_139\n    /* \"#utility.yul\":6676:6678   */\n  0x20\n    /* \"#utility.yul\":6665:6674   */\n  dup4\n    /* \"#utility.yul\":6661:6679   */\n  add\n    /* \"#utility.yul\":6652:6658   */\n  dup6\n    /* \"#utility.yul\":6608:6680   */\n  tag_59\n  jump\t// in\ntag_139:\n    /* \"#utility.yul\":6690:6762   */\n  tag_140\n    /* \"#utility.yul\":6758:6760   */\n  0x40\n    /* \"#utility.yul\":6747:6756   */\n  dup4\n    /* \"#utility.yul\":6743:6761   */\n  add\n    /* \"#utility.yul\":6734:6740   */\n  dup5\n    /* \"#utility.yul\":6690:6762   */\n  tag_59\n  jump\t// in\ntag_140:\n    /* \"#utility.yul\":6327:6769   */\n  swap5\n  swap4\n  pop\n  pop\n  pop\n  pop\n  jump\t// out\n    /* \"#utility.yul\":6775:6997   */\ntag_34:\n    /* \"#utility.yul\":6868:6872   */\n  0x00\n    /* \"#utility.yul\":6906:6908   */\n  0x20\n    /* \"#utility.yul\":6895:6904   */\n  dup3\n    /* \"#utility.yul\":6891:6909   */\n  add\n    /* \"#utility.yul\":6883:6909   */\n  swap1\n  pop\n    /* \"#utility.yul\":6919:6990   */\n  tag_142\n    /* \"#utility.yul\":6987:6988   */\n  0x00\n    /* \"#utility.yul\":6976:6985   */\n  dup4\n    /* \"#utility.yul\":6972:6989   */\n  add\n    /* \"#utility.yul\":6963:6969   */\n  dup5\n    /* \"#utility.yul\":6919:6990   */\n  tag_59\n  jump\t// in\ntag_142:\n    /* \"#utility.yul\":6775:6997   */\n  swap3\n  swap2\n  pop\n  pop\n  jump\t// out\n    /* \"Contract/Mytoken.sol\":109:811  contract Mytoken is ERC20, Ownable {... */\ntag_15:\n  dataSize(sub_0)\n  dup1\n  dataOffset(sub_0)\n  0x00\n  codecopy\n  0x00\n  return\nstop\n\nsub_0: assembly {\n        /* \"Contract/Mytoken.sol\":109:811  contract Mytoken is ERC20, Ownable {... */\n      mstore(0x40, 0x80)\n      callvalue\n      dup1\n      iszero\n      tag_1\n      jumpi\n      0x00\n      dup1\n      revert\n    tag_1:\n      pop\n      jumpi(tag_2, lt(calldatasize, 0x04))\n      shr(0xe0, calldataload(0x00))\n      dup1\n      0x715018a6\n      gt\n      tag_20\n      jumpi\n      dup1\n      0xa457c2d7\n      gt\n      tag_21\n      jumpi\n      dup1\n      0xa457c2d7\n      eq\n      tag_15\n      jumpi\n      dup1\n      0xa9059cbb\n      eq\n      tag_16\n      jumpi\n      dup1\n      0xcbdd69b5\n      eq\n      tag_17\n      jumpi\n      dup1\n      0xdd62ed3e\n      eq\n      tag_18\n      jumpi\n      dup1\n      0xf2fde38b\n      eq\n      tag_19\n      jumpi\n      jump(tag_2)\n    tag_21:\n      dup1\n      0x715018a6\n      eq\n      tag_11\n      jumpi\n      dup1\n      0x8da5cb5b\n      eq\n      tag_12\n      jumpi\n      dup1\n      0x95d89b41\n      eq\n      tag_13\n      jumpi\n      dup1\n      0x9dc29fac\n      eq\n      tag_14\n      jumpi\n      jump(tag_2)\n    tag_20:\n      dup1\n      0x313ce567\n      gt\n      tag_22\n      jumpi\n      dup1\n      0x313ce567\n      eq\n      tag_7\n      jumpi\n      dup1\n      0x39509351\n      eq\n      tag_8\n      jumpi\n      dup1\n      0x40c10f19\n      eq\n      tag_9\n      jumpi\n      dup1\n      0x70a08231\n      eq\n      tag_10\n      jumpi\n      jump(tag_2)\n    tag_22:\n      dup1\n      0x06fdde03\n      eq\n      tag_3\n      jumpi\n      dup1\n      0x095ea7b3\n      eq\n      tag_4\n      jumpi\n      dup1\n      0x18160ddd\n      eq\n      tag_5\n      jumpi\n      dup1\n      0x23b872dd\n      eq\n      tag_6\n      jumpi\n    tag_2:\n      0x00\n      dup1\n      revert\n        /* \"Contract/ERC20.sol\":2482:2573  function name() public view virtual returns (string memory) {... */\n    tag_3:\n      tag_23\n      tag_24\n      jump\t// in\n    tag_23:\n      mload(0x40)\n      tag_25\n      swap2\n      swap1\n      tag_26\n      jump\t// in\n    tag_25:\n      mload(0x40)\n      dup1\n      swap2\n      sub\n      swap1\n      return\n        /* \"Contract/ERC20.sol\":4775:4965  function approve(address spender, uint256 value) public virtual returns (bool) {... */\n    tag_4:\n      tag_27\n      0x04\n      dup1\n      calldatasize\n      sub\n      dup2\n      add\n      swap1\n      tag_28\n      swap2\n      swap1\n      tag_29\n      jump\t// in\n    tag_28:\n      tag_30\n      jump\t// in\n    tag_27:\n      mload(0x40)\n      tag_31\n      swap2\n      swap1\n      tag_32\n      jump\t// in\n    tag_31:\n      mload(0x40)\n      dup1\n      swap2\n      sub\n      swap1\n      return\n        /* \"Contract/ERC20.sol\":3584:3683  function totalSupply() public view virtual returns (uint256) {... */\n    tag_5:\n      tag_33\n      tag_34\n      jump\t// in\n    tag_33:\n      mload(0x40)\n      tag_35\n      swap2\n      swap1\n      tag_36\n      jump\t// in\n    tag_35:\n      mload(0x40)\n      dup1\n      swap2\n      sub\n      swap1\n      return\n        /* \"Contract/ERC20.sol\":5543:5792  function transferFrom(address from, address to, uint256 value) public virtual returns (bool) {... */\n    tag_6:\n      tag_37\n      0x04\n      dup1\n      calldatasize\n      sub\n      dup2\n      add\n      swap1\n      tag_38\n      swap2\n      swap1\n      tag_39\n      jump\t// in\n    tag_38:\n      tag_40\n      jump\t// in\n    tag_37:\n      mload(0x40)\n      tag_41\n      swap2\n      swap1\n      tag_32\n      jump\t// in\n    tag_41:\n      mload(0x40)\n      dup1\n      swap2\n      sub\n      swap1\n      return\n        /* \"Contract/ERC20.sol\":3435:3519  function decimals() public view virtual returns (uint8) {... */\n    tag_7:\n      tag_42\n      tag_43\n      jump\t// in\n    tag_42:\n      mload(0x40)\n      tag_44\n      swap2\n      swap1\n      tag_45\n      jump\t// in\n    tag_44:\n      mload(0x40)\n      dup1\n      swap2\n      sub\n      swap1\n      return\n        /* \"Contract/ERC20.sol\":6201:6439  function increaseAllowance(address spender, uint256 addedValue) public virtual returns (bool) {... */\n    tag_8:\n      tag_46\n      0x04\n      dup1\n      calldatasize\n      sub\n      dup2\n      add\n      swap1\n      tag_47\n      swap2\n      swap1\n      tag_29\n      jump\t// in\n    tag_47:\n      tag_48\n      jump\t// in\n    tag_46:\n      mload(0x40)\n      tag_49\n      swap2\n      swap1\n      tag_32\n      jump\t// in\n    tag_49:\n      mload(0x40)\n      dup1\n      swap2\n      sub\n      swap1\n      return\n        /* \"Contract/Mytoken.sol\":440:668  function mint(address account, uint256 amount) public onlyOwner {... */\n    tag_9:\n      tag_50\n      0x04\n      dup1\n      calldatasize\n      sub\n      dup2\n      add\n      swap1\n      tag_51\n      swap2\n      swap1\n      tag_29\n      jump\t// in\n    tag_51:\n      tag_52\n      jump\t// in\n    tag_50:\n      stop\n        /* \"Contract/ERC20.sol\":3746:3864  function balanceOf(address account) public view virtual returns (uint256) {... */\n    tag_10:\n      tag_53\n      0x04\n      dup1\n      calldatasize\n      sub\n      dup2\n      add\n      swap1\n      tag_54\n      swap2\n      swap1\n      tag_55\n      jump\t// in\n    tag_54:\n      tag_56\n      jump\t// in\n    tag_53:\n      mload(0x40)\n      tag_57\n      swap2\n      swap1\n      tag_36\n      jump\t// in\n    tag_57:\n      mload(0x40)\n      dup1\n      swap2\n      sub\n      swap1\n      return\n        /* \"Contract/Ownable.sol\":2254:2357  function renounceOwnership() public virtual onlyOwner {... */\n    tag_11:\n      tag_58\n      tag_59\n      jump\t// in\n    tag_58:\n      stop\n        /* \"Contract/Ownable.sol\":1579:1666  function owner() public view virtual returns (address) {... */\n    tag_12:\n      tag_60\n      tag_61\n      jump\t// in\n    tag_60:\n      mload(0x40)\n      tag_62\n      swap2\n      swap1\n      tag_63\n      jump\t// in\n    tag_62:\n      mload(0x40)\n      dup1\n      swap2\n      sub\n      swap1\n      return\n        /* \"Contract/ERC20.sol\":2692:2787  function symbol() public view virtual returns (string memory) {... */\n    tag_13:\n      tag_64\n      tag_65\n      jump\t// in\n    tag_64:\n      mload(0x40)\n      tag_66\n      swap2\n      swap1\n      tag_26\n      jump\t// in\n    tag_66:\n      mload(0x40)\n      dup1\n      swap2\n      sub\n      swap1\n      return\n        /* \"Contract/Mytoken.sol\":707:802  function burn(address useradd, uint256 amount) public {... */\n    tag_14:\n      tag_67\n      0x04\n      dup1\n      calldatasize\n      sub\n      dup2\n      add\n      swap1\n      tag_68\n      swap2\n      swap1\n      tag_29\n      jump\t// in\n    tag_68:\n      tag_69\n      jump\t// in\n    tag_67:\n      stop\n        /* \"Contract/ERC20.sol\":7127:7631  function decreaseAllowance(address spender, uint256 requestedDecrease) public virtual returns (bool) {... */\n    tag_15:\n      tag_70\n      0x04\n      dup1\n      calldatasize\n      sub\n      dup2\n      add\n      swap1\n      tag_71\n      swap2\n      swap1\n      tag_29\n      jump\t// in\n    tag_71:\n      tag_72\n      jump\t// in\n    tag_70:\n      mload(0x40)\n      tag_73\n      swap2\n      swap1\n      tag_32\n      jump\t// in\n    tag_73:\n      mload(0x40)\n      dup1\n      swap2\n      sub\n      swap1\n      return\n        /* \"Contract/ERC20.sol\":4069:4251  function transfer(address to, uint256 value) public virtual returns (bool) {... */\n    tag_16:\n      tag_74\n      0x04\n      dup1\n      calldatasize\n      sub\n      dup2\n      add\n      swap1\n      tag_75\n      swap2\n      swap1\n      tag_29\n      jump\t// in\n    tag_75:\n      tag_76\n      jump\t// in\n    tag_74:\n      mload(0x40)\n      tag_77\n      swap2\n      swap1\n      tag_32\n      jump\t// in\n    tag_77:\n      mload(0x40)\n      dup1\n      swap2\n      sub\n      swap1\n      return\n        /* \"Contract/Mytoken.sol\":147:179  uint256 public tokensPerEth = 10 */\n    tag_17:\n      tag_78\n      tag_79\n      jump\t// in\n    tag_78:\n      mload(0x40)\n      tag_80\n      swap2\n      swap1\n      tag_36\n      jump\t// in\n    tag_80:\n      mload(0x40)\n      dup1\n      swap2\n      sub\n      swap1\n      return\n        /* \"Contract/ERC20.sol\":4314:4456  function allowance(address owner, address spender) public view virtual returns (uint256) {... */\n    tag_18:\n      tag_81\n      0x04\n      dup1\n      calldatasize\n      sub\n      dup2\n      add\n      swap1\n      tag_82\n      swap2\n      swap1\n      tag_83\n      jump\t// in\n    tag_82:\n      tag_84\n      jump\t// in\n    tag_81:\n      mload(0x40)\n      tag_85\n      swap2\n      swap1\n      tag_36\n      jump\t// in\n    tag_85:\n      mload(0x40)\n      dup1\n      swap2\n      sub\n      swap1\n      return\n        /* \"Contract/Ownable.sol\":2512:2732  function transferOwnership(address newOwner) public virtual onlyOwner {... */\n    tag_19:\n      tag_86\n      0x04\n      dup1\n      calldatasize\n      sub\n      dup2\n      add\n      swap1\n      tag_87\n      swap2\n      swap1\n      tag_55\n      jump\t// in\n    tag_87:\n      tag_88\n      jump\t// in\n    tag_86:\n      stop\n        /* \"Contract/ERC20.sol\":2482:2573  function name() public view virtual returns (string memory) {... */\n    tag_24:\n        /* \"Contract/ERC20.sol\":2527:2540  string memory */\n      0x60\n        /* \"Contract/ERC20.sol\":2560:2565  _name */\n      0x03\n        /* \"Contract/ERC20.sol\":2553:2565  return _name */\n      dup1\n      sload\n      tag_90\n      swap1\n      tag_91\n      jump\t// in\n    tag_90:\n      dup1\n      0x1f\n      add\n      0x20\n      dup1\n      swap2\n      div\n      mul\n      0x20\n      add\n      mload(0x40)\n      swap1\n      dup2\n      add\n      0x40\n      mstore\n      dup1\n      swap3\n      swap2\n      swap1\n      dup2\n      dup2\n      mstore\n      0x20\n      add\n      dup3\n      dup1\n      sload\n      tag_92\n      swap1\n      tag_91\n      jump\t// in\n    tag_92:\n      dup1\n      iszero\n      tag_93\n      jumpi\n      dup1\n      0x1f\n      lt\n      tag_94\n      jumpi\n      0x0100\n      dup1\n      dup4\n      sload\n      div\n      mul\n      dup4\n      mstore\n      swap2\n      0x20\n      add\n      swap2\n      jump(tag_93)\n    tag_94:\n      dup3\n      add\n      swap2\n      swap1\n      0x00\n      mstore\n      keccak256(0x00, 0x20)\n      swap1\n    tag_95:\n      dup2\n      sload\n      dup2\n      mstore\n      swap1\n      0x01\n      add\n      swap1\n      0x20\n      add\n      dup1\n      dup4\n      gt\n      tag_95\n      jumpi\n      dup3\n      swap1\n      sub\n      0x1f\n      and\n      dup3\n      add\n      swap2\n    tag_93:\n      pop\n      pop\n      pop\n      pop\n      pop\n      swap1\n      pop\n        /* \"Contract/ERC20.sol\":2482:2573  function name() public view virtual returns (string memory) {... */\n      swap1\n      jump\t// out\n        /* \"Contract/ERC20.sol\":4775:4965  function approve(address spender, uint256 value) public virtual returns (bool) {... */\n    tag_30:\n        /* \"Contract/ERC20.sol\":4848:4852  bool */\n      0x00\n        /* \"Contract/ERC20.sol\":4865:4878  address owner */\n      dup1\n        /* \"Contract/ERC20.sol\":4881:4893  _msgSender() */\n      tag_97\n        /* \"Contract/ERC20.sol\":4881:4891  _msgSender */\n      tag_98\n        /* \"Contract/ERC20.sol\":4881:4893  _msgSender() */\n      jump\t// in\n    tag_97:\n        /* \"Contract/ERC20.sol\":4865:4893  address owner = _msgSender() */\n      swap1\n      pop\n        /* \"Contract/ERC20.sol\":4904:4935  _approve(owner, spender, value) */\n      tag_99\n        /* \"Contract/ERC20.sol\":4913:4918  owner */\n      dup2\n        /* \"Contract/ERC20.sol\":4920:4927  spender */\n      dup6\n        /* \"Contract/ERC20.sol\":4929:4934  value */\n      dup6\n        /* \"Contract/ERC20.sol\":4904:4912  _approve */\n      tag_100\n        /* \"Contract/ERC20.sol\":4904:4935  _approve(owner, spender, value) */\n      jump\t// in\n    tag_99:\n        /* \"Contract/ERC20.sol\":4953:4957  true */\n      0x01\n        /* \"Contract/ERC20.sol\":4946:4957  return true */\n      swap2\n      pop\n      pop\n        /* \"Contract/ERC20.sol\":4775:4965  function approve(address spender, uint256 value) public virtual returns (bool) {... */\n      swap3\n      swap2\n      pop\n      pop\n      jump\t// out\n        /* \"Contract/ERC20.sol\":3584:3683  function totalSupply() public view virtual returns (uint256) {... */\n    tag_34:\n        /* \"Contract/ERC20.sol\":3636:3643  uint256 */\n      0x00\n        /* \"Contract/ERC20.sol\":3663:3675  _totalSupply */\n      sload(0x02)\n        /* \"Contract/ERC20.sol\":3656:3675  return _totalSupply */\n      swap1\n      pop\n        /* \"Contract/ERC20.sol\":3584:3683  function totalSupply() public view virtual returns (uint256) {... */\n      swap1\n      jump\t// out\n        /* \"Contract/ERC20.sol\":5543:5792  function transferFrom(address from, address to, uint256 value) public virtual returns (bool) {... */\n    tag_40:\n        /* \"Contract/ERC20.sol\":5630:5634  bool */\n      0x00\n        /* \"Contract/ERC20.sol\":5647:5662  address spender */\n      dup1\n        /* \"Contract/ERC20.sol\":5665:5677  _msgSender() */\n      tag_103\n        /* \"Contract/ERC20.sol\":5665:5675  _msgSender */\n      tag_98\n        /* \"Contract/ERC20.sol\":5665:5677  _msgSender() */\n      jump\t// in\n    tag_103:\n        /* \"Contract/ERC20.sol\":5647:5677  address spender = _msgSender() */\n      swap1\n      pop\n        /* \"Contract/ERC20.sol\":5688:5725  _spendAllowance(from, spender, value) */\n      tag_104\n        /* \"Contract/ERC20.sol\":5704:5708  from */\n      dup6\n        /* \"Contract/ERC20.sol\":5710:5717  spender */\n      dup3\n        /* \"Contract/ERC20.sol\":5719:5724  value */\n      dup6\n        /* \"Contract/ERC20.sol\":5688:5703  _spendAllowance */\n      tag_105\n        /* \"Contract/ERC20.sol\":5688:5725  _spendAllowance(from, spender, value) */\n      jump\t// in\n    tag_104:\n        /* \"Contract/ERC20.sol\":5736:5762  _transfer(from, to, value) */\n      tag_106\n        /* \"Contract/ERC20.sol\":5746:5750  from */\n      dup6\n        /* \"Contract/ERC20.sol\":5752:5754  to */\n      dup6\n        /* \"Contract/ERC20.sol\":5756:5761  value */\n      dup6\n        /* \"Contract/ERC20.sol\":5736:5745  _transfer */\n      tag_107\n        /* \"Contract/ERC20.sol\":5736:5762  _transfer(from, to, value) */\n      jump\t// in\n    tag_106:\n        /* \"Contract/ERC20.sol\":5780:5784  true */\n      0x01\n        /* \"Contract/ERC20.sol\":5773:5784  return true */\n      swap2\n      pop\n      pop\n        /* \"Contract/ERC20.sol\":5543:5792  function transferFrom(address from, address to, uint256 value) public virtual returns (bool) {... */\n      swap4\n      swap3\n      pop\n      pop\n      pop\n      jump\t// out\n        /* \"Contract/ERC20.sol\":3435:3519  function decimals() public view virtual returns (uint8) {... */\n    tag_43:\n        /* \"Contract/ERC20.sol\":3484:3489  uint8 */\n      0x00\n        /* \"Contract/ERC20.sol\":3509:3511  18 */\n      0x12\n        /* \"Contract/ERC20.sol\":3502:3511  return 18 */\n      swap1\n      pop\n        /* \"Contract/ERC20.sol\":3435:3519  function decimals() public view virtual returns (uint8) {... */\n      swap1\n      jump\t// out\n        /* \"Contract/ERC20.sol\":6201:6439  function increaseAllowance(address spender, uint256 addedValue) public virtual returns (bool) {... */\n    tag_48:\n        /* \"Contract/ERC20.sol\":6289:6293  bool */\n      0x00\n        /* \"Contract/ERC20.sol\":6306:6319  address owner */\n      dup1\n        /* \"Contract/ERC20.sol\":6322:6334  _msgSender() */\n      tag_110\n        /* \"Contract/ERC20.sol\":6322:6332  _msgSender */\n      tag_98\n        /* \"Contract/ERC20.sol\":6322:6334  _msgSender() */\n      jump\t// in\n    tag_110:\n        /* \"Contract/ERC20.sol\":6306:6334  address owner = _msgSender() */\n      swap1\n      pop\n        /* \"Contract/ERC20.sol\":6345:6409  _approve(owner, spender, allowance(owner, spender) + addedValue) */\n      tag_111\n        /* \"Contract/ERC20.sol\":6354:6359  owner */\n      dup2\n        /* \"Contract/ERC20.sol\":6361:6368  spender */\n      dup6\n        /* \"Contract/ERC20.sol\":6398:6408  addedValue */\n      dup6\n        /* \"Contract/ERC20.sol\":6370:6395  allowance(owner, spender) */\n      tag_112\n        /* \"Contract/ERC20.sol\":6380:6385  owner */\n      dup6\n        /* \"Contract/ERC20.sol\":6387:6394  spender */\n      dup10\n        /* \"Contract/ERC20.sol\":6370:6379  allowance */\n      tag_84\n        /* \"Contract/ERC20.sol\":6370:6395  allowance(owner, spender) */\n      jump\t// in\n    tag_112:\n        /* \"Contract/ERC20.sol\":6370:6408  allowance(owner, spender) + addedValue */\n      tag_113\n      swap2\n      swap1\n      tag_114\n      jump\t// in\n    tag_113:\n        /* \"Contract/ERC20.sol\":6345:6353  _approve */\n      tag_100\n        /* \"Contract/ERC20.sol\":6345:6409  _approve(owner, spender, allowance(owner, spender) + addedValue) */\n      jump\t// in\n    tag_111:\n        /* \"Contract/ERC20.sol\":6427:6431  true */\n      0x01\n        /* \"Contract/ERC20.sol\":6420:6431  return true */\n      swap2\n      pop\n      pop\n        /* \"Contract/ERC20.sol\":6201:6439  function increaseAllowance(address spender, uint256 addedValue) public virtual returns (bool) {... */\n      swap3\n      swap2\n      pop\n      pop\n      jump\t// out\n        /* \"Contract/Mytoken.sol\":440:668  function mint(address account, uint256 amount) public onlyOwner {... */\n    tag_52:\n        /* \"Contract/Ownable.sol\":1465:1478  _checkOwner() */\n      tag_116\n        /* \"Contract/Ownable.sol\":1465:1476  _checkOwner */\n      tag_117\n        /* \"Contract/Ownable.sol\":1465:1478  _checkOwner() */\n      jump\t// in\n    tag_116:\n        /* \"Contract/Mytoken.sol\":542:543  0 */\n      0x00\n        /* \"Contract/Mytoken.sol\":523:544  account != address(0) */\n      0xffffffffffffffffffffffffffffffffffffffff\n      and\n        /* \"Contract/Mytoken.sol\":523:530  account */\n      dup3\n        /* \"Contract/Mytoken.sol\":523:544  account != address(0) */\n      0xffffffffffffffffffffffffffffffffffffffff\n      and\n      sub\n        /* \"Contract/Mytoken.sol\":515:564  require(account != address(0), \"Invalid address\") */\n      tag_119\n      jumpi\n      mload(0x40)\n      0x08c379a000000000000000000000000000000000000000000000000000000000\n      dup2\n      mstore\n      0x04\n      add\n      tag_120\n      swap1\n      tag_121\n      jump\t// in\n    tag_120:\n      mload(0x40)\n      dup1\n      swap2\n      sub\n      swap1\n      revert\n    tag_119:\n        /* \"Contract/Mytoken.sol\":592:593  0 */\n      0x00\n        /* \"Contract/Mytoken.sol\":583:589  amount */\n      dup2\n        /* \"Contract/Mytoken.sol\":583:593  amount > 0 */\n      gt\n        /* \"Contract/Mytoken.sol\":575:627  require(amount > 0, \"Amount must be greater than 0\") */\n      tag_122\n      jumpi\n      mload(0x40)\n      0x08c379a000000000000000000000000000000000000000000000000000000000\n      dup2\n      mstore\n      0x04\n      add\n      tag_123\n      swap1\n      tag_124\n      jump\t// in\n    tag_123:\n      mload(0x40)\n      dup1\n      swap2\n      sub\n      swap1\n      revert\n    tag_122:\n        /* \"Contract/Mytoken.sol\":638:660  _mint(account, amount) */\n      tag_125\n        /* \"Contract/Mytoken.sol\":644:651  account */\n      dup3\n        /* \"Contract/Mytoken.sol\":653:659  amount */\n      dup3\n        /* \"Contract/Mytoken.sol\":638:643  _mint */\n      tag_126\n        /* \"Contract/Mytoken.sol\":638:660  _mint(account, amount) */\n      jump\t// in\n    tag_125:\n        /* \"Contract/Mytoken.sol\":440:668  function mint(address account, uint256 amount) public onlyOwner {... */\n      pop\n      pop\n      jump\t// out\n        /* \"Contract/ERC20.sol\":3746:3864  function balanceOf(address account) public view virtual returns (uint256) {... */\n    tag_56:\n        /* \"Contract/ERC20.sol\":3811:3818  uint256 */\n      0x00\n        /* \"Contract/ERC20.sol\":3838:3847  _balances */\n      dup1\n        /* \"Contract/ERC20.sol\":3838:3856  _balances[account] */\n      0x00\n        /* \"Contract/ERC20.sol\":3848:3855  account */\n      dup4\n        /* \"Contract/ERC20.sol\":3838:3856  _balances[account] */\n      0xffffffffffffffffffffffffffffffffffffffff\n      and\n      0xffffffffffffffffffffffffffffffffffffffff\n      and\n      dup2\n      mstore\n      0x20\n      add\n      swap1\n      dup2\n      mstore\n      0x20\n      add\n      0x00\n      keccak256\n      sload\n        /* \"Contract/ERC20.sol\":3831:3856  return _balances[account] */\n      swap1\n      pop\n        /* \"Contract/ERC20.sol\":3746:3864  function balanceOf(address account) public view virtual returns (uint256) {... */\n      swap2\n      swap1\n      pop\n      jump\t// out\n        /* \"Contract/Ownable.sol\":2254:2357  function renounceOwnership() public virtual onlyOwner {... */\n    tag_59:\n        /* \"Contract/Ownable.sol\":1465:1478  _checkOwner() */\n      tag_129\n        /* \"Contract/Ownable.sol\":1465:1476  _checkOwner */\n      tag_117\n        /* \"Contract/Ownable.sol\":1465:1478  _checkOwner() */\n      jump\t// in\n    tag_129:\n        /* \"Contract/Ownable.sol\":2319:2349  _transferOwnership(address(0)) */\n      tag_131\n        /* \"Contract/Ownable.sol\":2346:2347  0 */\n      0x00\n        /* \"Contract/Ownable.sol\":2319:2337  _transferOwnership */\n      tag_132\n        /* \"Contract/Ownable.sol\":2319:2349  _transferOwnership(address(0)) */\n      jump\t// in\n    tag_131:\n        /* \"Contract/Ownable.sol\":2254:2357  function renounceOwnership() public virtual onlyOwner {... */\n      jump\t// out\n        /* \"Contract/Ownable.sol\":1579:1666  function owner() public view virtual returns (address) {... */\n    tag_61:\n        /* \"Contract/Ownable.sol\":1625:1632  address */\n      0x00\n        /* \"Contract/Ownable.sol\":1652:1658  _owner */\n      0x05\n      0x00\n      swap1\n      sload\n      swap1\n      0x0100\n      exp\n      swap1\n      div\n      0xffffffffffffffffffffffffffffffffffffffff\n      and\n        /* \"Contract/Ownable.sol\":1645:1658  return _owner */\n      swap1\n      pop\n        /* \"Contract/Ownable.sol\":1579:1666  function owner() public view virtual returns (address) {... */\n      swap1\n      jump\t// out\n        /* \"Contract/ERC20.sol\":2692:2787  function symbol() public view virtual returns (string memory) {... */\n    tag_65:\n        /* \"Contract/ERC20.sol\":2739:2752  string memory */\n      0x60\n        /* \"Contract/ERC20.sol\":2772:2779  _symbol */\n      0x04\n        /* \"Contract/ERC20.sol\":2765:2779  return _symbol */\n      dup1\n      sload\n      tag_135\n      swap1\n      tag_91\n      jump\t// in\n    tag_135:\n      dup1\n      0x1f\n      add\n      0x20\n      dup1\n      swap2\n      div\n      mul\n      0x20\n      add\n      mload(0x40)\n      swap1\n      dup2\n      add\n      0x40\n      mstore\n      dup1\n      swap3\n      swap2\n      swap1\n      dup2\n      dup2\n      mstore\n      0x20\n      add\n      dup3\n      dup1\n      sload\n      tag_136\n      swap1\n      tag_91\n      jump\t// in\n    tag_136:\n      dup1\n      iszero\n      tag_137\n      jumpi\n      dup1\n      0x1f\n      lt\n      tag_138\n      jumpi\n      0x0100\n      dup1\n      dup4\n      sload\n      div\n      mul\n      dup4\n      mstore\n      swap2\n      0x20\n      add\n      swap2\n      jump(tag_137)\n    tag_138:\n      dup3\n      add\n      swap2\n      swap1\n      0x00\n      mstore\n      keccak256(0x00, 0x20)\n      swap1\n    tag_139:\n      dup2\n      sload\n      dup2\n      mstore\n      swap1\n      0x01\n      add\n      swap1\n      0x20\n      add\n      dup1\n      dup4\n      gt\n      tag_139\n      jumpi\n      dup3\n      swap1\n      sub\n      0x1f\n      and\n      dup3\n      add\n      swap2\n    tag_137:\n      pop\n      pop\n      pop\n      pop\n      pop\n      swap1\n      pop\n        /* \"Contract/ERC20.sol\":2692:2787  function symbol() public view virtual returns (string memory) {... */\n      swap1\n      jump\t// out\n        /* \"Contract/Mytoken.sol\":707:802  function burn(address useradd, uint256 amount) public {... */\n    tag_69:\n        /* \"Contract/Mytoken.sol\":772:794  _burn(useradd, amount) */\n      tag_141\n        /* \"Contract/Mytoken.sol\":778:785  useradd */\n      dup3\n        /* \"Contract/Mytoken.sol\":787:793  amount */\n      dup3\n        /* \"Contract/Mytoken.sol\":772:777  _burn */\n      tag_142\n        /* \"Contract/Mytoken.sol\":772:794  _burn(useradd, amount) */\n      jump\t// in\n    tag_141:\n        /* \"Contract/Mytoken.sol\":707:802  function burn(address useradd, uint256 amount) public {... */\n      pop\n      pop\n      jump\t// out\n        /* \"Contract/ERC20.sol\":7127:7631  function decreaseAllowance(address spender, uint256 requestedDecrease) public virtual returns (bool) {... */\n    tag_72:\n        /* \"Contract/ERC20.sol\":7222:7226  bool */\n      0x00\n        /* \"Contract/ERC20.sol\":7239:7252  address owner */\n      dup1\n        /* \"Contract/ERC20.sol\":7255:7267  _msgSender() */\n      tag_144\n        /* \"Contract/ERC20.sol\":7255:7265  _msgSender */\n      tag_98\n        /* \"Contract/ERC20.sol\":7255:7267  _msgSender() */\n      jump\t// in\n    tag_144:\n        /* \"Contract/ERC20.sol\":7239:7267  address owner = _msgSender() */\n      swap1\n      pop\n        /* \"Contract/ERC20.sol\":7278:7302  uint256 currentAllowance */\n      0x00\n        /* \"Contract/ERC20.sol\":7305:7330  allowance(owner, spender) */\n      tag_145\n        /* \"Contract/ERC20.sol\":7315:7320  owner */\n      dup3\n        /* \"Contract/ERC20.sol\":7322:7329  spender */\n      dup7\n        /* \"Contract/ERC20.sol\":7305:7314  allowance */\n      tag_84\n        /* \"Contract/ERC20.sol\":7305:7330  allowance(owner, spender) */\n      jump\t// in\n    tag_145:\n        /* \"Contract/ERC20.sol\":7278:7330  uint256 currentAllowance = allowance(owner, spender) */\n      swap1\n      pop\n        /* \"Contract/ERC20.sol\":7364:7381  requestedDecrease */\n      dup4\n        /* \"Contract/ERC20.sol\":7345:7361  currentAllowance */\n      dup2\n        /* \"Contract/ERC20.sol\":7345:7381  currentAllowance < requestedDecrease */\n      lt\n        /* \"Contract/ERC20.sol\":7341:7491  if (currentAllowance < requestedDecrease) {... */\n      iszero\n      tag_146\n      jumpi\n        /* \"Contract/ERC20.sol\":7434:7441  spender */\n      dup5\n        /* \"Contract/ERC20.sol\":7443:7459  currentAllowance */\n      dup2\n        /* \"Contract/ERC20.sol\":7461:7478  requestedDecrease */\n      dup6\n        /* \"Contract/ERC20.sol\":7405:7479  ERC20FailedDecreaseAllowance(spender, currentAllowance, requestedDecrease) */\n      mload(0x40)\n      0xa60f030c00000000000000000000000000000000000000000000000000000000\n      dup2\n      mstore\n      0x04\n      add\n      tag_147\n      swap4\n      swap3\n      swap2\n      swap1\n      tag_148\n      jump\t// in\n    tag_147:\n      mload(0x40)\n      dup1\n      swap2\n      sub\n      swap1\n      revert\n        /* \"Contract/ERC20.sol\":7341:7491  if (currentAllowance < requestedDecrease) {... */\n    tag_146:\n        /* \"Contract/ERC20.sol\":7526:7588  _approve(owner, spender, currentAllowance - requestedDecrease) */\n      tag_149\n        /* \"Contract/ERC20.sol\":7535:7540  owner */\n      dup3\n        /* \"Contract/ERC20.sol\":7542:7549  spender */\n      dup7\n        /* \"Contract/ERC20.sol\":7570:7587  requestedDecrease */\n      dup7\n        /* \"Contract/ERC20.sol\":7551:7567  currentAllowance */\n      dup5\n        /* \"Contract/ERC20.sol\":7551:7587  currentAllowance - requestedDecrease */\n      sub\n        /* \"Contract/ERC20.sol\":7526:7534  _approve */\n      tag_100\n        /* \"Contract/ERC20.sol\":7526:7588  _approve(owner, spender, currentAllowance - requestedDecrease) */\n      jump\t// in\n    tag_149:\n        /* \"Contract/ERC20.sol\":7619:7623  true */\n      0x01\n        /* \"Contract/ERC20.sol\":7612:7623  return true */\n      swap3\n      pop\n      pop\n      pop\n        /* \"Contract/ERC20.sol\":7127:7631  function decreaseAllowance(address spender, uint256 requestedDecrease) public virtual returns (bool) {... */\n      swap3\n      swap2\n      pop\n      pop\n      jump\t// out\n        /* \"Contract/ERC20.sol\":4069:4251  function transfer(address to, uint256 value) public virtual returns (bool) {... */\n    tag_76:\n        /* \"Contract/ERC20.sol\":4138:4142  bool */\n      0x00\n        /* \"Contract/ERC20.sol\":4155:4168  address owner */\n      dup1\n        /* \"Contract/ERC20.sol\":4171:4183  _msgSender() */\n      tag_151\n        /* \"Contract/ERC20.sol\":4171:4181  _msgSender */\n      tag_98\n        /* \"Contract/ERC20.sol\":4171:4183  _msgSender() */\n      jump\t// in\n    tag_151:\n        /* \"Contract/ERC20.sol\":4155:4183  address owner = _msgSender() */\n      swap1\n      pop\n        /* \"Contract/ERC20.sol\":4194:4221  _transfer(owner, to, value) */\n      tag_152\n        /* \"Contract/ERC20.sol\":4204:4209  owner */\n      dup2\n        /* \"Contract/ERC20.sol\":4211:4213  to */\n      dup6\n        /* \"Contract/ERC20.sol\":4215:4220  value */\n      dup6\n        /* \"Contract/ERC20.sol\":4194:4203  _transfer */\n      tag_107\n        /* \"Contract/ERC20.sol\":4194:4221  _transfer(owner, to, value) */\n      jump\t// in\n    tag_152:\n        /* \"Contract/ERC20.sol\":4239:4243  true */\n      0x01\n        /* \"Contract/ERC20.sol\":4232:4243  return true */\n      swap2\n      pop\n      pop\n        /* \"Contract/ERC20.sol\":4069:4251  function transfer(address to, uint256 value) public virtual returns (bool) {... */\n      swap3\n      swap2\n      pop\n      pop\n      jump\t// out\n        /* \"Contract/Mytoken.sol\":147:179  uint256 public tokensPerEth = 10 */\n    tag_79:\n      sload(0x06)\n      dup2\n      jump\t// out\n        /* \"Contract/ERC20.sol\":4314:4456  function allowance(address owner, address spender) public view virtual returns (uint256) {... */\n    tag_84:\n        /* \"Contract/ERC20.sol\":4394:4401  uint256 */\n      0x00\n        /* \"Contract/ERC20.sol\":4421:4432  _allowances */\n      0x01\n        /* \"Contract/ERC20.sol\":4421:4439  _allowances[owner] */\n      0x00\n        /* \"Contract/ERC20.sol\":4433:4438  owner */\n      dup5\n        /* \"Contract/ERC20.sol\":4421:4439  _allowances[owner] */\n      0xffffffffffffffffffffffffffffffffffffffff\n      and\n      0xffffffffffffffffffffffffffffffffffffffff\n      and\n      dup2\n      mstore\n      0x20\n      add\n      swap1\n      dup2\n      mstore\n      0x20\n      add\n      0x00\n      keccak256\n        /* \"Contract/ERC20.sol\":4421:4448  _allowances[owner][spender] */\n      0x00\n        /* \"Contract/ERC20.sol\":4440:4447  spender */\n      dup4\n        /* \"Contract/ERC20.sol\":4421:4448  _allowances[owner][spender] */\n      0xffffffffffffffffffffffffffffffffffffffff\n      and\n      0xffffffffffffffffffffffffffffffffffffffff\n      and\n      dup2\n      mstore\n      0x20\n      add\n      swap1\n      dup2\n      mstore\n      0x20\n      add\n      0x00\n      keccak256\n      sload\n        /* \"Contract/ERC20.sol\":4414:4448  return _allowances[owner][spender] */\n      swap1\n      pop\n        /* \"Contract/ERC20.sol\":4314:4456  function allowance(address owner, address spender) public view virtual returns (uint256) {... */\n      swap3\n      swap2\n      pop\n      pop\n      jump\t// out\n        /* \"Contract/Ownable.sol\":2512:2732  function transferOwnership(address newOwner) public virtual onlyOwner {... */\n    tag_88:\n        /* \"Contract/Ownable.sol\":1465:1478  _checkOwner() */\n      tag_155\n        /* \"Contract/Ownable.sol\":1465:1476  _checkOwner */\n      tag_117\n        /* \"Contract/Ownable.sol\":1465:1478  _checkOwner() */\n      jump\t// in\n    tag_155:\n        /* \"Contract/Ownable.sol\":2617:2618  0 */\n      0x00\n        /* \"Contract/Ownable.sol\":2597:2619  newOwner == address(0) */\n      0xffffffffffffffffffffffffffffffffffffffff\n      and\n        /* \"Contract/Ownable.sol\":2597:2605  newOwner */\n      dup2\n        /* \"Contract/Ownable.sol\":2597:2619  newOwner == address(0) */\n      0xffffffffffffffffffffffffffffffffffffffff\n      and\n      sub\n        /* \"Contract/Ownable.sol\":2593:2686  if (newOwner == address(0)) {... */\n      tag_157\n      jumpi\n        /* \"Contract/Ownable.sol\":2671:2672  0 */\n      0x00\n        /* \"Contract/Ownable.sol\":2643:2674  OwnableInvalidOwner(address(0)) */\n      mload(0x40)\n      0x1e4fbdf700000000000000000000000000000000000000000000000000000000\n      dup2\n      mstore\n      0x04\n      add\n      tag_158\n      swap2\n      swap1\n      tag_63\n      jump\t// in\n    tag_158:\n      mload(0x40)\n      dup1\n      swap2\n      sub\n      swap1\n      revert\n        /* \"Contract/Ownable.sol\":2593:2686  if (newOwner == address(0)) {... */\n    tag_157:\n        /* \"Contract/Ownable.sol\":2696:2724  _transferOwnership(newOwner) */\n      tag_159\n        /* \"Contract/Ownable.sol\":2715:2723  newOwner */\n      dup2\n        /* \"Contract/Ownable.sol\":2696:2714  _transferOwnership */\n      tag_132\n        /* \"Contract/Ownable.sol\":2696:2724  _transferOwnership(newOwner) */\n      jump\t// in\n    tag_159:\n        /* \"Contract/Ownable.sol\":2512:2732  function transferOwnership(address newOwner) public virtual onlyOwner {... */\n      pop\n      jump\t// out\n        /* \"Contract/Context.sol\":657:755  function _msgSender() internal view virtual returns (address) {... */\n    tag_98:\n        /* \"Contract/Context.sol\":710:717  address */\n      0x00\n        /* \"Contract/Context.sol\":737:747  msg.sender */\n      caller\n        /* \"Contract/Context.sol\":730:747  return msg.sender */\n      swap1\n      pop\n        /* \"Contract/Context.sol\":657:755  function _msgSender() internal view virtual returns (address) {... */\n      swap1\n      jump\t// out\n        /* \"Contract/ERC20.sol\":11324:11462  function _approve(address owner, address spender, uint256 value) internal virtual {... */\n    tag_100:\n        /* \"Contract/ERC20.sol\":11417:11454  _approve(owner, spender, value, true) */\n      tag_162\n        /* \"Contract/ERC20.sol\":11426:11431  owner */\n      dup4\n        /* \"Contract/ERC20.sol\":11433:11440  spender */\n      dup4\n        /* \"Contract/ERC20.sol\":11442:11447  value */\n      dup4\n        /* \"Contract/ERC20.sol\":11449:11453  true */\n      0x01\n        /* \"Contract/ERC20.sol\":11417:11425  _approve */\n      tag_163\n        /* \"Contract/ERC20.sol\":11417:11454  _approve(owner, spender, value, true) */\n      jump\t// in\n    tag_162:\n        /* \"Contract/ERC20.sol\":11324:11462  function _approve(address owner, address spender, uint256 value) internal virtual {... */\n      pop\n      pop\n      pop\n      jump\t// out\n        /* \"Contract/ERC20.sol\":13061:13548  function _spendAllowance(address owner, address spender, uint256 value) internal virtual {... */\n    tag_105:\n        /* \"Contract/ERC20.sol\":13161:13185  uint256 currentAllowance */\n      0x00\n        /* \"Contract/ERC20.sol\":13188:13213  allowance(owner, spender) */\n      tag_165\n        /* \"Contract/ERC20.sol\":13198:13203  owner */\n      dup5\n        /* \"Contract/ERC20.sol\":13205:13212  spender */\n      dup5\n        /* \"Contract/ERC20.sol\":13188:13197  allowance */\n      tag_84\n        /* \"Contract/ERC20.sol\":13188:13213  allowance(owner, spender) */\n      jump\t// in\n    tag_165:\n        /* \"Contract/ERC20.sol\":13161:13213  uint256 currentAllowance = allowance(owner, spender) */\n      swap1\n      pop\n        /* \"Contract/ERC20.sol\":13248:13265  type(uint256).max */\n      0xffffffffffffffffffffffffffffffffffffffffffffffffffffffffffffffff\n        /* \"Contract/ERC20.sol\":13228:13244  currentAllowance */\n      dup2\n        /* \"Contract/ERC20.sol\":13228:13265  currentAllowance != type(uint256).max */\n      eq\n        /* \"Contract/ERC20.sol\":13224:13541  if (currentAllowance != type(uint256).max) {... */\n      tag_166\n      jumpi\n        /* \"Contract/ERC20.sol\":13305:13310  value */\n      dup2\n        /* \"Contract/ERC20.sol\":13286:13302  currentAllowance */\n      dup2\n        /* \"Contract/ERC20.sol\":13286:13310  currentAllowance < value */\n      lt\n        /* \"Contract/ERC20.sol\":13282:13414  if (currentAllowance < value) {... */\n      iszero\n      tag_167\n      jumpi\n        /* \"Contract/ERC20.sol\":13365:13372  spender */\n      dup3\n        /* \"Contract/ERC20.sol\":13374:13390  currentAllowance */\n      dup2\n        /* \"Contract/ERC20.sol\":13392:13397  value */\n      dup4\n        /* \"Contract/ERC20.sol\":13338:13398  ERC20InsufficientAllowance(spender, currentAllowance, value) */\n      mload(0x40)\n      0xfb8f41b200000000000000000000000000000000000000000000000000000000\n      dup2\n      mstore\n      0x04\n      add\n      tag_168\n      swap4\n      swap3\n      swap2\n      swap1\n      tag_148\n      jump\t// in\n    tag_168:\n      mload(0x40)\n      dup1\n      swap2\n      sub\n      swap1\n      revert\n        /* \"Contract/ERC20.sol\":13282:13414  if (currentAllowance < value) {... */\n    tag_167:\n        /* \"Contract/ERC20.sol\":13457:13514  _approve(owner, spender, currentAllowance - value, false) */\n      tag_169\n        /* \"Contract/ERC20.sol\":13466:13471  owner */\n      dup5\n        /* \"Contract/ERC20.sol\":13473:13480  spender */\n      dup5\n        /* \"Contract/ERC20.sol\":13501:13506  value */\n      dup5\n        /* \"Contract/ERC20.sol\":13482:13498  currentAllowance */\n      dup5\n        /* \"Contract/ERC20.sol\":13482:13506  currentAllowance - value */\n      sub\n        /* \"Contract/ERC20.sol\":13508:13513  false */\n      0x00\n        /* \"Contract/ERC20.sol\":13457:13465  _approve */\n      tag_163\n        /* \"Contract/ERC20.sol\":13457:13514  _approve(owner, spender, currentAllowance - value, false) */\n      jump\t// in\n    tag_169:\n        /* \"Contract/ERC20.sol\":13224:13541  if (currentAllowance != type(uint256).max) {... */\n    tag_166:\n        /* \"Contract/ERC20.sol\":13150:13548  {... */\n      pop\n        /* \"Contract/ERC20.sol\":13061:13548  function _spendAllowance(address owner, address spender, uint256 value) internal virtual {... */\n      pop\n      pop\n      pop\n      jump\t// out\n        /* \"Contract/ERC20.sol\":8016:8324  function _transfer(address from, address to, uint256 value) internal {... */\n    tag_107:\n        /* \"Contract/ERC20.sol\":8116:8117  0 */\n      0x00\n        /* \"Contract/ERC20.sol\":8100:8118  from == address(0) */\n      0xffffffffffffffffffffffffffffffffffffffff\n      and\n        /* \"Contract/ERC20.sol\":8100:8104  from */\n      dup4\n        /* \"Contract/ERC20.sol\":8100:8118  from == address(0) */\n      0xffffffffffffffffffffffffffffffffffffffff\n      and\n      sub\n        /* \"Contract/ERC20.sol\":8096:8184  if (from == address(0)) {... */\n      tag_171\n      jumpi\n        /* \"Contract/ERC20.sol\":8169:8170  0 */\n      0x00\n        /* \"Contract/ERC20.sol\":8142:8172  ERC20InvalidSender(address(0)) */\n      mload(0x40)\n      0x96c6fd1e00000000000000000000000000000000000000000000000000000000\n      dup2\n      mstore\n      0x04\n      add\n      tag_172\n      swap2\n      swap1\n      tag_63\n      jump\t// in\n    tag_172:\n      mload(0x40)\n      dup1\n      swap2\n      sub\n      swap1\n      revert\n        /* \"Contract/ERC20.sol\":8096:8184  if (from == address(0)) {... */\n    tag_171:\n        /* \"Contract/ERC20.sol\":8212:8213  0 */\n      0x00\n        /* \"Contract/ERC20.sol\":8198:8214  to == address(0) */\n      0xffffffffffffffffffffffffffffffffffffffff\n      and\n        /* \"Contract/ERC20.sol\":8198:8200  to */\n      dup3\n        /* \"Contract/ERC20.sol\":8198:8214  to == address(0) */\n      0xffffffffffffffffffffffffffffffffffffffff\n      and\n      sub\n        /* \"Contract/ERC20.sol\":8194:8282  if (to == address(0)) {... */\n      tag_173\n      jumpi\n        /* \"Contract/ERC20.sol\":8267:8268  0 */\n      0x00\n        /* \"Contract/ERC20.sol\":8238:8270  ERC20InvalidReceiver(address(0)) */\n      mload(0x40)\n      0xec442f0500000000000000000000000000000000000000000000000000000000\n      dup2\n      mstore\n      0x04\n      add\n      tag_174\n      swap2\n      swap1\n      tag_63\n      jump\t// in\n    tag_174:\n      mload(0x40)\n      dup1\n      swap2\n      sub\n      swap1\n      revert\n        /* \"Contract/ERC20.sol\":8194:8282  if (to == address(0)) {... */\n    tag_173:\n        /* \"Contract/ERC20.sol\":8292:8316  _update(from, to, value) */\n      tag_175\n        /* \"Contract/ERC20.sol\":8300:8304  from */\n      dup4\n        /* \"Contract/ERC20.sol\":8306:8308  to */\n      dup4\n        /* \"Contract/ERC20.sol\":8310:8315  value */\n      dup4\n        /* \"Contract/ERC20.sol\":8292:8299  _update */\n      tag_176\n        /* \"Contract/ERC20.sol\":8292:8316  _update(from, to, value) */\n      jump\t// in\n    tag_175:\n        /* \"Contract/ERC20.sol\":8016:8324  function _transfer(address from, address to, uint256 value) internal {... */\n      pop\n      pop\n      pop\n      jump\t// out\n        /* \"Contract/Ownable.sol\":1744:1910  function _checkOwner() internal view virtual {... */\n    tag_117:\n        /* \"Contract/Ownable.sol\":1815:1827  _msgSender() */\n      tag_178\n        /* \"Contract/Ownable.sol\":1815:1825  _msgSender */\n      tag_98\n        /* \"Contract/Ownable.sol\":1815:1827  _msgSender() */\n      jump\t// in\n    tag_178:\n        /* \"Contract/Ownable.sol\":1804:1827  owner() != _msgSender() */\n      0xffffffffffffffffffffffffffffffffffffffff\n      and\n        /* \"Contract/Ownable.sol\":1804:1811  owner() */\n      tag_179\n        /* \"Contract/Ownable.sol\":1804:1809  owner */\n      tag_61\n        /* \"Contract/Ownable.sol\":1804:1811  owner() */\n      jump\t// in\n    tag_179:\n        /* \"Contract/Ownable.sol\":1804:1827  owner() != _msgSender() */\n      0xffffffffffffffffffffffffffffffffffffffff\n      and\n      eq\n        /* \"Contract/Ownable.sol\":1800:1903  if (owner() != _msgSender()) {... */\n      tag_180\n      jumpi\n        /* \"Contract/Ownable.sol\":1878:1890  _msgSender() */\n      tag_181\n        /* \"Contract/Ownable.sol\":1878:1888  _msgSender */\n      tag_98\n        /* \"Contract/Ownable.sol\":1878:1890  _msgSender() */\n      jump\t// in\n    tag_181:\n        /* \"Contract/Ownable.sol\":1851:1891  OwnableUnauthorizedAccount(_msgSender()) */\n      mload(0x40)\n      0x118cdaa700000000000000000000000000000000000000000000000000000000\n      dup2\n      mstore\n      0x04\n      add\n      tag_182\n      swap2\n      swap1\n      tag_63\n      jump\t// in\n    tag_182:\n      mload(0x40)\n      dup1\n      swap2\n      sub\n      swap1\n      revert\n        /* \"Contract/Ownable.sol\":1800:1903  if (owner() != _msgSender()) {... */\n    tag_180:\n        /* \"Contract/Ownable.sol\":1744:1910  function _checkOwner() internal view virtual {... */\n      jump\t// out\n        /* \"Contract/ERC20.sol\":10128:10341  function _mint(address account, uint256 value) internal {... */\n    tag_126:\n        /* \"Contract/ERC20.sol\":10218:10219  0 */\n      0x00\n        /* \"Contract/ERC20.sol\":10199:10220  account == address(0) */\n      0xffffffffffffffffffffffffffffffffffffffff\n      and\n        /* \"Contract/ERC20.sol\":10199:10206  account */\n      dup3\n        /* \"Contract/ERC20.sol\":10199:10220  account == address(0) */\n      0xffffffffffffffffffffffffffffffffffffffff\n      and\n      sub\n        /* \"Contract/ERC20.sol\":10195:10288  if (account == address(0)) {... */\n      tag_184\n      jumpi\n        /* \"Contract/ERC20.sol\":10273:10274  0 */\n      0x00\n        /* \"Contract/ERC20.sol\":10244:10276  ERC20InvalidReceiver(address(0)) */\n      mload(0x40)\n      0xec442f0500000000000000000000000000000000000000000000000000000000\n      dup2\n      mstore\n      0x04\n      add\n      tag_185\n      swap2\n      swap1\n      tag_63\n      jump\t// in\n    tag_185:\n      mload(0x40)\n      dup1\n      swap2\n      sub\n      swap1\n      revert\n        /* \"Contract/ERC20.sol\":10195:10288  if (account == address(0)) {... */\n    tag_184:\n        /* \"Contract/ERC20.sol\":10298:10333  _update(address(0), account, value) */\n      tag_186\n        /* \"Contract/ERC20.sol\":10314:10315  0 */\n      0x00\n        /* \"Contract/ERC20.sol\":10318:10325  account */\n      dup4\n        /* \"Contract/ERC20.sol\":10327:10332  value */\n      dup4\n        /* \"Contract/ERC20.sol\":10298:10305  _update */\n      tag_176\n        /* \"Contract/ERC20.sol\":10298:10333  _update(address(0), account, value) */\n      jump\t// in\n    tag_186:\n        /* \"Contract/ERC20.sol\":10128:10341  function _mint(address account, uint256 value) internal {... */\n      pop\n      pop\n      jump\t// out\n        /* \"Contract/Ownable.sol\":2892:3083  function _transferOwnership(address newOwner) internal virtual {... */\n    tag_132:\n        /* \"Contract/Ownable.sol\":2966:2982  address oldOwner */\n      0x00\n        /* \"Contract/Ownable.sol\":2985:2991  _owner */\n      0x05\n      0x00\n      swap1\n      sload\n      swap1\n      0x0100\n      exp\n      swap1\n      div\n      0xffffffffffffffffffffffffffffffffffffffff\n      and\n        /* \"Contract/Ownable.sol\":2966:2991  address oldOwner = _owner */\n      swap1\n      pop\n        /* \"Contract/Ownable.sol\":3011:3019  newOwner */\n      dup2\n        /* \"Contract/Ownable.sol\":3002:3008  _owner */\n      0x05\n      0x00\n        /* \"Contract/Ownable.sol\":3002:3019  _owner = newOwner */\n      0x0100\n      exp\n      dup2\n      sload\n      dup2\n      0xffffffffffffffffffffffffffffffffffffffff\n      mul\n      not\n      and\n      swap1\n      dup4\n      0xffffffffffffffffffffffffffffffffffffffff\n      and\n      mul\n      or\n      swap1\n      sstore\n      pop\n        /* \"Contract/Ownable.sol\":3066:3074  newOwner */\n      dup2\n        /* \"Contract/Ownable.sol\":3035:3075  OwnershipTransferred(oldOwner, newOwner) */\n      0xffffffffffffffffffffffffffffffffffffffff\n      and\n        /* \"Contract/Ownable.sol\":3056:3064  oldOwner */\n      dup2\n        /* \"Contract/Ownable.sol\":3035:3075  OwnershipTransferred(oldOwner, newOwner) */\n      0xffffffffffffffffffffffffffffffffffffffff\n      and\n      0x8be0079c531659141344cd1fd0a4f28419497f9722a3daafe3b4186f6b6457e0\n      mload(0x40)\n      mload(0x40)\n      dup1\n      swap2\n      sub\n      swap1\n      log3\n        /* \"Contract/Ownable.sol\":2955:3083  {... */\n      pop\n        /* \"Contract/Ownable.sol\":2892:3083  function _transferOwnership(address newOwner) internal virtual {... */\n      pop\n      jump\t// out\n        /* \"Contract/ERC20.sol\":10676:10887  function _burn(address account, uint256 value) internal {... */\n    tag_142:\n        /* \"Contract/ERC20.sol\":10766:10767  0 */\n      0x00\n        /* \"Contract/ERC20.sol\":10747:10768  account == address(0) */\n      0xffffffffffffffffffffffffffffffffffffffff\n      and\n        /* \"Contract/ERC20.sol\":10747:10754  account */\n      dup3\n        /* \"Contract/ERC20.sol\":10747:10768  account == address(0) */\n      0xffffffffffffffffffffffffffffffffffffffff\n      and\n      sub\n        /* \"Contract/ERC20.sol\":10743:10834  if (account == address(0)) {... */\n      tag_189\n      jumpi\n        /* \"Contract/ERC20.sol\":10819:10820  0 */\n      0x00\n        /* \"Contract/ERC20.sol\":10792:10822  ERC20InvalidSender(address(0)) */\n      mload(0x40)\n      0x96c6fd1e00000000000000000000000000000000000000000000000000000000\n      dup2\n      mstore\n      0x04\n      add\n      tag_190\n      swap2\n      swap1\n      tag_63\n      jump\t// in\n    tag_190:\n      mload(0x40)\n      dup1\n      swap2\n      sub\n      swap1\n      revert\n        /* \"Contract/ERC20.sol\":10743:10834  if (account == address(0)) {... */\n    tag_189:\n        /* \"Contract/ERC20.sol\":10844:10879  _update(account, address(0), value) */\n      tag_191\n        /* \"Contract/ERC20.sol\":10852:10859  account */\n      dup3\n        /* \"Contract/ERC20.sol\":10869:10870  0 */\n      0x00\n        /* \"Contract/ERC20.sol\":10873:10878  value */\n      dup4\n        /* \"Contract/ERC20.sol\":10844:10851  _update */\n      tag_176\n        /* \"Contract/ERC20.sol\":10844:10879  _update(account, address(0), value) */\n      jump\t// in\n    tag_191:\n        /* \"Contract/ERC20.sol\":10676:10887  function _burn(address account, uint256 value) internal {... */\n      pop\n      pop\n      jump\t// out\n        /* \"Contract/ERC20.sol\":12329:12772  function _approve(address owner, address spender, uint256 value, bool emitEvent) internal virtual {... */\n    tag_163:\n        /* \"Contract/ERC20.sol\":12459:12460  0 */\n      0x00\n        /* \"Contract/ERC20.sol\":12442:12461  owner == address(0) */\n      0xffffffffffffffffffffffffffffffffffffffff\n      and\n        /* \"Contract/ERC20.sol\":12442:12447  owner */\n      dup5\n        /* \"Contract/ERC20.sol\":12442:12461  owner == address(0) */\n      0xffffffffffffffffffffffffffffffffffffffff\n      and\n      sub\n        /* \"Contract/ERC20.sol\":12438:12529  if (owner == address(0)) {... */\n      tag_193\n      jumpi\n        /* \"Contract/ERC20.sol\":12514:12515  0 */\n      0x00\n        /* \"Contract/ERC20.sol\":12485:12517  ERC20InvalidApprover(address(0)) */\n      mload(0x40)\n      0xe602df0500000000000000000000000000000000000000000000000000000000\n      dup2\n      mstore\n      0x04\n      add\n      tag_194\n      swap2\n      swap1\n      tag_63\n      jump\t// in\n    tag_194:\n      mload(0x40)\n      dup1\n      swap2\n      sub\n      swap1\n      revert\n        /* \"Contract/ERC20.sol\":12438:12529  if (owner == address(0)) {... */\n    tag_193:\n        /* \"Contract/ERC20.sol\":12562:12563  0 */\n      0x00\n        /* \"Contract/ERC20.sol\":12543:12564  spender == address(0) */\n      0xffffffffffffffffffffffffffffffffffffffff\n      and\n        /* \"Contract/ERC20.sol\":12543:12550  spender */\n      dup4\n        /* \"Contract/ERC20.sol\":12543:12564  spender == address(0) */\n      0xffffffffffffffffffffffffffffffffffffffff\n      and\n      sub\n        /* \"Contract/ERC20.sol\":12539:12631  if (spender == address(0)) {... */\n      tag_195\n      jumpi\n        /* \"Contract/ERC20.sol\":12616:12617  0 */\n      0x00\n        /* \"Contract/ERC20.sol\":12588:12619  ERC20InvalidSpender(address(0)) */\n      mload(0x40)\n      0x94280d6200000000000000000000000000000000000000000000000000000000\n      dup2\n      mstore\n      0x04\n      add\n      tag_196\n      swap2\n      swap1\n      tag_63\n      jump\t// in\n    tag_196:\n      mload(0x40)\n      dup1\n      swap2\n      sub\n      swap1\n      revert\n        /* \"Contract/ERC20.sol\":12539:12631  if (spender == address(0)) {... */\n    tag_195:\n        /* \"Contract/ERC20.sol\":12671:12676  value */\n      dup2\n        /* \"Contract/ERC20.sol\":12641:12652  _allowances */\n      0x01\n        /* \"Contract/ERC20.sol\":12641:12659  _allowances[owner] */\n      0x00\n        /* \"Contract/ERC20.sol\":12653:12658  owner */\n      dup7\n        /* \"Contract/ERC20.sol\":12641:12659  _allowances[owner] */\n      0xffffffffffffffffffffffffffffffffffffffff\n      and\n      0xffffffffffffffffffffffffffffffffffffffff\n      and\n      dup2\n      mstore\n      0x20\n      add\n      swap1\n      dup2\n      mstore\n      0x20\n      add\n      0x00\n      keccak256\n        /* \"Contract/ERC20.sol\":12641:12668  _allowances[owner][spender] */\n      0x00\n        /* \"Contract/ERC20.sol\":12660:12667  spender */\n      dup6\n        /* \"Contract/ERC20.sol\":12641:12668  _allowances[owner][spender] */\n      0xffffffffffffffffffffffffffffffffffffffff\n      and\n      0xffffffffffffffffffffffffffffffffffffffff\n      and\n      dup2\n      mstore\n      0x20\n      add\n      swap1\n      dup2\n      mstore\n      0x20\n      add\n      0x00\n      keccak256\n        /* \"Contract/ERC20.sol\":12641:12676  _allowances[owner][spender] = value */\n      dup2\n      swap1\n      sstore\n      pop\n        /* \"Contract/ERC20.sol\":12691:12700  emitEvent */\n      dup1\n        /* \"Contract/ERC20.sol\":12687:12765  if (emitEvent) {... */\n      iszero\n      tag_197\n      jumpi\n        /* \"Contract/ERC20.sol\":12738:12745  spender */\n      dup3\n        /* \"Contract/ERC20.sol\":12722:12753  Approval(owner, spender, value) */\n      0xffffffffffffffffffffffffffffffffffffffff\n      and\n        /* \"Contract/ERC20.sol\":12731:12736  owner */\n      dup5\n        /* \"Contract/ERC20.sol\":12722:12753  Approval(owner, spender, value) */\n      0xffffffffffffffffffffffffffffffffffffffff\n      and\n      0x8c5be1e5ebec7d5bd14f71427d1e84f3dd0314c0f7b2291e5b200ac8c7c3b925\n        /* \"Contract/ERC20.sol\":12747:12752  value */\n      dup5\n        /* \"Contract/ERC20.sol\":12722:12753  Approval(owner, spender, value) */\n      mload(0x40)\n      tag_198\n      swap2\n      swap1\n      tag_36\n      jump\t// in\n    tag_198:\n      mload(0x40)\n      dup1\n      swap2\n      sub\n      swap1\n      log3\n        /* \"Contract/ERC20.sol\":12687:12765  if (emitEvent) {... */\n    tag_197:\n        /* \"Contract/ERC20.sol\":12329:12772  function _approve(address owner, address spender, uint256 value, bool emitEvent) internal virtual {... */\n      pop\n      pop\n      pop\n      pop\n      jump\t// out\n        /* \"Contract/ERC20.sol\":8640:9775  function _update(address from, address to, uint256 value) internal virtual {... */\n    tag_176:\n        /* \"Contract/ERC20.sol\":8746:8747  0 */\n      0x00\n        /* \"Contract/ERC20.sol\":8730:8748  from == address(0) */\n      0xffffffffffffffffffffffffffffffffffffffff\n      and\n        /* \"Contract/ERC20.sol\":8730:8734  from */\n      dup4\n        /* \"Contract/ERC20.sol\":8730:8748  from == address(0) */\n      0xffffffffffffffffffffffffffffffffffffffff\n      and\n      sub\n        /* \"Contract/ERC20.sol\":8726:9278  if (from == address(0)) {... */\n      tag_200\n      jumpi\n        /* \"Contract/ERC20.sol\":8884:8889  value */\n      dup1\n        /* \"Contract/ERC20.sol\":8868:8880  _totalSupply */\n      0x02\n      0x00\n        /* \"Contract/ERC20.sol\":8868:8889  _totalSupply += value */\n      dup3\n      dup3\n      sload\n      tag_201\n      swap2\n      swap1\n      tag_114\n      jump\t// in\n    tag_201:\n      swap3\n      pop\n      pop\n      dup2\n      swap1\n      sstore\n      pop\n        /* \"Contract/ERC20.sol\":8726:9278  if (from == address(0)) {... */\n      jump(tag_202)\n    tag_200:\n        /* \"Contract/ERC20.sol\":8922:8941  uint256 fromBalance */\n      0x00\n        /* \"Contract/ERC20.sol\":8944:8953  _balances */\n      dup1\n        /* \"Contract/ERC20.sol\":8944:8959  _balances[from] */\n      0x00\n        /* \"Contract/ERC20.sol\":8954:8958  from */\n      dup6\n        /* \"Contract/ERC20.sol\":8944:8959  _balances[from] */\n      0xffffffffffffffffffffffffffffffffffffffff\n      and\n      0xffffffffffffffffffffffffffffffffffffffff\n      and\n      dup2\n      mstore\n      0x20\n      add\n      swap1\n      dup2\n      mstore\n      0x20\n      add\n      0x00\n      keccak256\n      sload\n        /* \"Contract/ERC20.sol\":8922:8959  uint256 fromBalance = _balances[from] */\n      swap1\n      pop\n        /* \"Contract/ERC20.sol\":8992:8997  value */\n      dup2\n        /* \"Contract/ERC20.sol\":8978:8989  fromBalance */\n      dup2\n        /* \"Contract/ERC20.sol\":8978:8997  fromBalance < value */\n      lt\n        /* \"Contract/ERC20.sol\":8974:9091  if (fromBalance < value) {... */\n      iszero\n      tag_203\n      jumpi\n        /* \"Contract/ERC20.sol\":9050:9054  from */\n      dup4\n        /* \"Contract/ERC20.sol\":9056:9067  fromBalance */\n      dup2\n        /* \"Contract/ERC20.sol\":9069:9074  value */\n      dup4\n        /* \"Contract/ERC20.sol\":9025:9075  ERC20InsufficientBalance(from, fromBalance, value) */\n      mload(0x40)\n      0xe450d38c00000000000000000000000000000000000000000000000000000000\n      dup2\n      mstore\n      0x04\n      add\n      tag_204\n      swap4\n      swap3\n      swap2\n      swap1\n      tag_148\n      jump\t// in\n    tag_204:\n      mload(0x40)\n      dup1\n      swap2\n      sub\n      swap1\n      revert\n        /* \"Contract/ERC20.sol\":8974:9091  if (fromBalance < value) {... */\n    tag_203:\n        /* \"Contract/ERC20.sol\":9246:9251  value */\n      dup2\n        /* \"Contract/ERC20.sol\":9232:9243  fromBalance */\n      dup2\n        /* \"Contract/ERC20.sol\":9232:9251  fromBalance - value */\n      sub\n        /* \"Contract/ERC20.sol\":9214:9223  _balances */\n      0x00\n        /* \"Contract/ERC20.sol\":9214:9229  _balances[from] */\n      dup1\n        /* \"Contract/ERC20.sol\":9224:9228  from */\n      dup7\n        /* \"Contract/ERC20.sol\":9214:9229  _balances[from] */\n      0xffffffffffffffffffffffffffffffffffffffff\n      and\n      0xffffffffffffffffffffffffffffffffffffffff\n      and\n      dup2\n      mstore\n      0x20\n      add\n      swap1\n      dup2\n      mstore\n      0x20\n      add\n      0x00\n      keccak256\n        /* \"Contract/ERC20.sol\":9214:9251  _balances[from] = fromBalance - value */\n      dup2\n      swap1\n      sstore\n      pop\n        /* \"Contract/ERC20.sol\":8907:9278  {... */\n      pop\n        /* \"Contract/ERC20.sol\":8726:9278  if (from == address(0)) {... */\n    tag_202:\n        /* \"Contract/ERC20.sol\":9308:9309  0 */\n      0x00\n        /* \"Contract/ERC20.sol\":9294:9310  to == address(0) */\n      0xffffffffffffffffffffffffffffffffffffffff\n      and\n        /* \"Contract/ERC20.sol\":9294:9296  to */\n      dup3\n        /* \"Contract/ERC20.sol\":9294:9310  to == address(0) */\n      0xffffffffffffffffffffffffffffffffffffffff\n      and\n      sub\n        /* \"Contract/ERC20.sol\":9290:9725  if (to == address(0)) {... */\n      tag_205\n      jumpi\n        /* \"Contract/ERC20.sol\":9476:9481  value */\n      dup1\n        /* \"Contract/ERC20.sol\":9460:9472  _totalSupply */\n      0x02\n      0x00\n        /* \"Contract/ERC20.sol\":9460:9481  _totalSupply -= value */\n      dup3\n      dup3\n      sload\n      sub\n      swap3\n      pop\n      pop\n      dup2\n      swap1\n      sstore\n      pop\n        /* \"Contract/ERC20.sol\":9290:9725  if (to == address(0)) {... */\n      jump(tag_206)\n    tag_205:\n        /* \"Contract/ERC20.sol\":9693:9698  value */\n      dup1\n        /* \"Contract/ERC20.sol\":9676:9685  _balances */\n      0x00\n        /* \"Contract/ERC20.sol\":9676:9689  _balances[to] */\n      dup1\n        /* \"Contract/ERC20.sol\":9686:9688  to */\n      dup5\n        /* \"Contract/ERC20.sol\":9676:9689  _balances[to] */\n      0xffffffffffffffffffffffffffffffffffffffff\n      and\n      0xffffffffffffffffffffffffffffffffffffffff\n      and\n      dup2\n      mstore\n      0x20\n      add\n      swap1\n      dup2\n      mstore\n      0x20\n      add\n      0x00\n      keccak256\n      0x00\n        /* \"Contract/ERC20.sol\":9676:9698  _balances[to] += value */\n      dup3\n      dup3\n      sload\n      add\n      swap3\n      pop\n      pop\n      dup2\n      swap1\n      sstore\n      pop\n        /* \"Contract/ERC20.sol\":9290:9725  if (to == address(0)) {... */\n    tag_206:\n        /* \"Contract/ERC20.sol\":9757:9759  to */\n      dup2\n        /* \"Contract/ERC20.sol\":9742:9767  Transfer(from, to, value) */\n      0xffffffffffffffffffffffffffffffffffffffff\n      and\n        /* \"Contract/ERC20.sol\":9751:9755  from */\n      dup4\n        /* \"Contract/ERC20.sol\":9742:9767  Transfer(from, to, value) */\n      0xffffffffffffffffffffffffffffffffffffffff\n      and\n      0xddf252ad1be2c89b69c2b068fc378daa952ba7f163c4a11628f55a4df523b3ef\n        /* \"Contract/ERC20.sol\":9761:9766  value */\n      dup4\n        /* \"Contract/ERC20.sol\":9742:9767  Transfer(from, to, value) */\n      mload(0x40)\n      tag_207\n      swap2\n      swap1\n      tag_36\n      jump\t// in\n    tag_207:\n      mload(0x40)\n      dup1\n      swap2\n      sub\n      swap1\n      log3\n        /* \"Contract/ERC20.sol\":8640:9775  function _update(address from, address to, uint256 value) internal virtual {... */\n      pop\n      pop\n      pop\n      jump\t// out\n        /* \"#utility.yul\":7:106   */\n    tag_208:\n        /* \"#utility.yul\":59:65   */\n      0x00\n        /* \"#utility.yul\":93:98   */\n      dup2\n        /* \"#utility.yul\":87:99   */\n      mload\n        /* \"#utility.yul\":77:99   */\n      swap1\n      pop\n        /* \"#utility.yul\":7:106   */\n      swap2\n      swap1\n      pop\n      jump\t// out\n        /* \"#utility.yul\":112:281   */\n    tag_209:\n        /* \"#utility.yul\":196:207   */\n      0x00\n        /* \"#utility.yul\":230:236   */\n      dup3\n        /* \"#utility.yul\":225:228   */\n      dup3\n        /* \"#utility.yul\":218:237   */\n      mstore\n        /* \"#utility.yul\":270:274   */\n      0x20\n        /* \"#utility.yul\":265:268   */\n      dup3\n        /* \"#utility.yul\":261:275   */\n      add\n        /* \"#utility.yul\":246:275   */\n      swap1\n      pop\n        /* \"#utility.yul\":112:281   */\n      swap3\n      swap2\n      pop\n      pop\n      jump\t// out\n        /* \"#utility.yul\":287:533   */\n    tag_210:\n        /* \"#utility.yul\":368:369   */\n      0x00\n        /* \"#utility.yul\":378:491   */\n    tag_239:\n        /* \"#utility.yul\":392:398   */\n      dup4\n        /* \"#utility.yul\":389:390   */\n      dup2\n        /* \"#utility.yul\":386:399   */\n      lt\n        /* \"#utility.yul\":378:491   */\n      iszero\n      tag_241\n      jumpi\n        /* \"#utility.yul\":477:478   */\n      dup1\n        /* \"#utility.yul\":472:475   */\n      dup3\n        /* \"#utility.yul\":468:479   */\n      add\n        /* \"#utility.yul\":462:480   */\n      mload\n        /* \"#utility.yul\":458:459   */\n      dup2\n        /* \"#utility.yul\":453:456   */\n      dup5\n        /* \"#utility.yul\":449:460   */\n      add\n        /* \"#utility.yul\":442:481   */\n      mstore\n        /* \"#utility.yul\":414:416   */\n      0x20\n        /* \"#utility.yul\":411:412   */\n      dup2\n        /* \"#utility.yul\":407:417   */\n      add\n        /* \"#utility.yul\":402:417   */\n      swap1\n      pop\n        /* \"#utility.yul\":378:491   */\n      jump(tag_239)\n    tag_241:\n        /* \"#utility.yul\":525:526   */\n      0x00\n        /* \"#utility.yul\":516:522   */\n      dup5\n        /* \"#utility.yul\":511:514   */\n      dup5\n        /* \"#utility.yul\":507:523   */\n      add\n        /* \"#utility.yul\":500:527   */\n      mstore\n        /* \"#utility.yul\":349:533   */\n      pop\n        /* \"#utility.yul\":287:533   */\n      pop\n      pop\n      pop\n      jump\t// out\n        /* \"#utility.yul\":539:641   */\n    tag_211:\n        /* \"#utility.yul\":580:586   */\n      0x00\n        /* \"#utility.yul\":631:633   */\n      0x1f\n        /* \"#utility.yul\":627:634   */\n      not\n        /* \"#utility.yul\":622:624   */\n      0x1f\n        /* \"#utility.yul\":615:620   */\n      dup4\n        /* \"#utility.yul\":611:625   */\n      add\n        /* \"#utility.yul\":607:635   */\n      and\n        /* \"#utility.yul\":597:635   */\n      swap1\n      pop\n        /* \"#utility.yul\":539:641   */\n      swap2\n      swap1\n      pop\n      jump\t// out\n        /* \"#utility.yul\":647:1024   */\n    tag_212:\n        /* \"#utility.yul\":735:738   */\n      0x00\n        /* \"#utility.yul\":763:802   */\n      tag_244\n        /* \"#utility.yul\":796:801   */\n      dup3\n        /* \"#utility.yul\":763:802   */\n      tag_208\n      jump\t// in\n    tag_244:\n        /* \"#utility.yul\":818:889   */\n      tag_245\n        /* \"#utility.yul\":882:888   */\n      dup2\n        /* \"#utility.yul\":877:880   */\n      dup6\n        /* \"#utility.yul\":818:889   */\n      tag_209\n      jump\t// in\n    tag_245:\n        /* \"#utility.yul\":811:889   */\n      swap4\n      pop\n        /* \"#utility.yul\":898:963   */\n      tag_246\n        /* \"#utility.yul\":956:962   */\n      dup2\n        /* \"#utility.yul\":951:954   */\n      dup6\n        /* \"#utility.yul\":944:948   */\n      0x20\n        /* \"#utility.yul\":937:942   */\n      dup7\n        /* \"#utility.yul\":933:949   */\n      add\n        /* \"#utility.yul\":898:963   */\n      tag_210\n      jump\t// in\n    tag_246:\n        /* \"#utility.yul\":988:1017   */\n      tag_247\n        /* \"#utility.yul\":1010:1016   */\n      dup2\n        /* \"#utility.yul\":988:1017   */\n      tag_211\n      jump\t// in\n    tag_247:\n        /* \"#utility.yul\":983:986   */\n      dup5\n        /* \"#utility.yul\":979:1018   */\n      add\n        /* \"#utility.yul\":972:1018   */\n      swap2\n      pop\n        /* \"#utility.yul\":739:1024   */\n      pop\n        /* \"#utility.yul\":647:1024   */\n      swap3\n      swap2\n      pop\n      pop\n      jump\t// out\n        /* \"#utility.yul\":1030:1343   */\n    tag_26:\n        /* \"#utility.yul\":1143:1147   */\n      0x00\n        /* \"#utility.yul\":1181:1183   */\n      0x20\n        /* \"#utility.yul\":1170:1179   */\n      dup3\n        /* \"#utility.yul\":1166:1184   */\n      add\n        /* \"#utility.yul\":1158:1184   */\n      swap1\n      pop\n        /* \"#utility.yul\":1230:1239   */\n      dup2\n        /* \"#utility.yul\":1224:1228   */\n      dup2\n        /* \"#utility.yul\":1220:1240   */\n      sub\n        /* \"#utility.yul\":1216:1217   */\n      0x00\n        /* \"#utility.yul\":1205:1214   */\n      dup4\n        /* \"#utility.yul\":1201:1218   */\n      add\n        /* \"#utility.yul\":1194:1241   */\n      mstore\n        /* \"#utility.yul\":1258:1336   */\n      tag_249\n        /* \"#utility.yul\":1331:1335   */\n      dup2\n        /* \"#utility.yul\":1322:1328   */\n      dup5\n        /* \"#utility.yul\":1258:1336   */\n      tag_212\n      jump\t// in\n    tag_249:\n        /* \"#utility.yul\":1250:1336   */\n      swap1\n      pop\n        /* \"#utility.yul\":1030:1343   */\n      swap3\n      swap2\n      pop\n      pop\n      jump\t// out\n        /* \"#utility.yul\":1430:1547   */\n    tag_214:\n        /* \"#utility.yul\":1539:1540   */\n      0x00\n        /* \"#utility.yul\":1536:1537   */\n      dup1\n        /* \"#utility.yul\":1529:1541   */\n      revert\n        /* \"#utility.yul\":1676:1802   */\n    tag_216:\n        /* \"#utility.yul\":1713:1720   */\n      0x00\n        /* \"#utility.yul\":1753:1795   */\n      0xffffffffffffffffffffffffffffffffffffffff\n        /* \"#utility.yul\":1746:1751   */\n      dup3\n        /* \"#utility.yul\":1742:1796   */\n      and\n        /* \"#utility.yul\":1731:1796   */\n      swap1\n      pop\n        /* \"#utility.yul\":1676:1802   */\n      swap2\n      swap1\n      pop\n      jump\t// out\n        /* \"#utility.yul\":1808:1904   */\n    tag_217:\n        /* \"#utility.yul\":1845:1852   */\n      0x00\n        /* \"#utility.yul\":1874:1898   */\n      tag_255\n        /* \"#utility.yul\":1892:1897   */\n      dup3\n        /* \"#utility.yul\":1874:1898   */\n      tag_216\n      jump\t// in\n    tag_255:\n        /* \"#utility.yul\":1863:1898   */\n      swap1\n      pop\n        /* \"#utility.yul\":1808:1904   */\n      swap2\n      swap1\n      pop\n      jump\t// out\n        /* \"#utility.yul\":1910:2032   */\n    tag_218:\n        /* \"#utility.yul\":1983:2007   */\n      tag_257\n        /* \"#utility.yul\":2001:2006   */\n      dup2\n        /* \"#utility.yul\":1983:2007   */\n      tag_217\n      jump\t// in\n    tag_257:\n        /* \"#utility.yul\":1976:1981   */\n      dup2\n        /* \"#utility.yul\":1973:2008   */\n      eq\n        /* \"#utility.yul\":1963:2026   */\n      tag_258\n      jumpi\n        /* \"#utility.yul\":2022:2023   */\n      0x00\n        /* \"#utility.yul\":2019:2020   */\n      dup1\n        /* \"#utility.yul\":2012:2024   */\n      revert\n        /* \"#utility.yul\":1963:2026   */\n    tag_258:\n        /* \"#utility.yul\":1910:2032   */\n      pop\n      jump\t// out\n        /* \"#utility.yul\":2038:2177   */\n    tag_219:\n        /* \"#utility.yul\":2084:2089   */\n      0x00\n        /* \"#utility.yul\":2122:2128   */\n      dup2\n        /* \"#utility.yul\":2109:2129   */\n      calldataload\n        /* \"#utility.yul\":2100:2129   */\n      swap1\n      pop\n        /* \"#utility.yul\":2138:2171   */\n      tag_260\n        /* \"#utility.yul\":2165:2170   */\n      dup2\n        /* \"#utility.yul\":2138:2171   */\n      tag_218\n      jump\t// in\n    tag_260:\n        /* \"#utility.yul\":2038:2177   */\n      swap3\n      swap2\n      pop\n      pop\n      jump\t// out\n        /* \"#utility.yul\":2183:2260   */\n    tag_220:\n        /* \"#utility.yul\":2220:2227   */\n      0x00\n        /* \"#utility.yul\":2249:2254   */\n      dup2\n        /* \"#utility.yul\":2238:2254   */\n      swap1\n      pop\n        /* \"#utility.yul\":2183:2260   */\n      swap2\n      swap1\n      pop\n      jump\t// out\n        /* \"#utility.yul\":2266:2388   */\n    tag_221:\n        /* \"#utility.yul\":2339:2363   */\n      tag_263\n        /* \"#utility.yul\":2357:2362   */\n      dup2\n        /* \"#utility.yul\":2339:2363   */\n      tag_220\n      jump\t// in\n    tag_263:\n        /* \"#utility.yul\":2332:2337   */\n      dup2\n        /* \"#utility.yul\":2329:2364   */\n      eq\n        /* \"#utility.yul\":2319:2382   */\n      tag_264\n      jumpi\n        /* \"#utility.yul\":2378:2379   */\n      0x00\n        /* \"#utility.yul\":2375:2376   */\n      dup1\n        /* \"#utility.yul\":2368:2380   */\n      revert\n        /* \"#utility.yul\":2319:2382   */\n    tag_264:\n        /* \"#utility.yul\":2266:2388   */\n      pop\n      jump\t// out\n        /* \"#utility.yul\":2394:2533   */\n    tag_222:\n        /* \"#utility.yul\":2440:2445   */\n      0x00\n        /* \"#utility.yul\":2478:2484   */\n      dup2\n        /* \"#utility.yul\":2465:2485   */\n      calldataload\n        /* \"#utility.yul\":2456:2485   */\n      swap1\n      pop\n        /* \"#utility.yul\":2494:2527   */\n      tag_266\n        /* \"#utility.yul\":2521:2526   */\n      dup2\n        /* \"#utility.yul\":2494:2527   */\n      tag_221\n      jump\t// in\n    tag_266:\n        /* \"#utility.yul\":2394:2533   */\n      swap3\n      swap2\n      pop\n      pop\n      jump\t// out\n        /* \"#utility.yul\":2539:3013   */\n    tag_29:\n        /* \"#utility.yul\":2607:2613   */\n      0x00\n        /* \"#utility.yul\":2615:2621   */\n      dup1\n        /* \"#utility.yul\":2664:2666   */\n      0x40\n        /* \"#utility.yul\":2652:2661   */\n      dup4\n        /* \"#utility.yul\":2643:2650   */\n      dup6\n        /* \"#utility.yul\":2639:2662   */\n      sub\n        /* \"#utility.yul\":2635:2667   */\n      slt\n        /* \"#utility.yul\":2632:2751   */\n      iszero\n      tag_268\n      jumpi\n        /* \"#utility.yul\":2670:2749   */\n      tag_269\n      tag_214\n      jump\t// in\n    tag_269:\n        /* \"#utility.yul\":2632:2751   */\n    tag_268:\n        /* \"#utility.yul\":2790:2791   */\n      0x00\n        /* \"#utility.yul\":2815:2868   */\n      tag_270\n        /* \"#utility.yul\":2860:2867   */\n      dup6\n        /* \"#utility.yul\":2851:2857   */\n      dup3\n        /* \"#utility.yul\":2840:2849   */\n      dup7\n        /* \"#utility.yul\":2836:2858   */\n      add\n        /* \"#utility.yul\":2815:2868   */\n      tag_219\n      jump\t// in\n    tag_270:\n        /* \"#utility.yul\":2805:2868   */\n      swap3\n      pop\n        /* \"#utility.yul\":2761:2878   */\n      pop\n        /* \"#utility.yul\":2917:2919   */\n      0x20\n        /* \"#utility.yul\":2943:2996   */\n      tag_271\n        /* \"#utility.yul\":2988:2995   */\n      dup6\n        /* \"#utility.yul\":2979:2985   */\n      dup3\n        /* \"#utility.yul\":2968:2977   */\n      dup7\n        /* \"#utility.yul\":2964:2986   */\n      add\n        /* \"#utility.yul\":2943:2996   */\n      tag_222\n      jump\t// in\n    tag_271:\n        /* \"#utility.yul\":2933:2996   */\n      swap2\n      pop\n        /* \"#utility.yul\":2888:3006   */\n      pop\n        /* \"#utility.yul\":2539:3013   */\n      swap3\n      pop\n      swap3\n      swap1\n      pop\n      jump\t// out\n        /* \"#utility.yul\":3019:3109   */\n    tag_223:\n        /* \"#utility.yul\":3053:3060   */\n      0x00\n        /* \"#utility.yul\":3096:3101   */\n      dup2\n        /* \"#utility.yul\":3089:3102   */\n      iszero\n        /* \"#utility.yul\":3082:3103   */\n      iszero\n        /* \"#utility.yul\":3071:3103   */\n      swap1\n      pop\n        /* \"#utility.yul\":3019:3109   */\n      swap2\n      swap1\n      pop\n      jump\t// out\n        /* \"#utility.yul\":3115:3224   */\n    tag_224:\n        /* \"#utility.yul\":3196:3217   */\n      tag_274\n        /* \"#utility.yul\":3211:3216   */\n      dup2\n        /* \"#utility.yul\":3196:3217   */\n      tag_223\n      jump\t// in\n    tag_274:\n        /* \"#utility.yul\":3191:3194   */\n      dup3\n        /* \"#utility.yul\":3184:3218   */\n      mstore\n        /* \"#utility.yul\":3115:3224   */\n      pop\n      pop\n      jump\t// out\n        /* \"#utility.yul\":3230:3440   */\n    tag_32:\n        /* \"#utility.yul\":3317:3321   */\n      0x00\n        /* \"#utility.yul\":3355:3357   */\n      0x20\n        /* \"#utility.yul\":3344:3353   */\n      dup3\n        /* \"#utility.yul\":3340:3358   */\n      add\n        /* \"#utility.yul\":3332:3358   */\n      swap1\n      pop\n        /* \"#utility.yul\":3368:3433   */\n      tag_276\n        /* \"#utility.yul\":3430:3431   */\n      0x00\n        /* \"#utility.yul\":3419:3428   */\n      dup4\n        /* \"#utility.yul\":3415:3432   */\n      add\n        /* \"#utility.yul\":3406:3412   */\n      dup5\n        /* \"#utility.yul\":3368:3433   */\n      tag_224\n      jump\t// in\n    tag_276:\n        /* \"#utility.yul\":3230:3440   */\n      swap3\n      swap2\n      pop\n      pop\n      jump\t// out\n        /* \"#utility.yul\":3446:3564   */\n    tag_225:\n        /* \"#utility.yul\":3533:3557   */\n      tag_278\n        /* \"#utility.yul\":3551:3556   */\n      dup2\n        /* \"#utility.yul\":3533:3557   */\n      tag_220\n      jump\t// in\n    tag_278:\n        /* \"#utility.yul\":3528:3531   */\n      dup3\n        /* \"#utility.yul\":3521:3558   */\n      mstore\n        /* \"#utility.yul\":3446:3564   */\n      pop\n      pop\n      jump\t// out\n        /* \"#utility.yul\":3570:3792   */\n    tag_36:\n        /* \"#utility.yul\":3663:3667   */\n      0x00\n        /* \"#utility.yul\":3701:3703   */\n      0x20\n        /* \"#utility.yul\":3690:3699   */\n      dup3\n        /* \"#utility.yul\":3686:3704   */\n      add\n        /* \"#utility.yul\":3678:3704   */\n      swap1\n      pop\n        /* \"#utility.yul\":3714:3785   */\n      tag_280\n        /* \"#utility.yul\":3782:3783   */\n      0x00\n        /* \"#utility.yul\":3771:3780   */\n      dup4\n        /* \"#utility.yul\":3767:3784   */\n      add\n        /* \"#utility.yul\":3758:3764   */\n      dup5\n        /* \"#utility.yul\":3714:3785   */\n      tag_225\n      jump\t// in\n    tag_280:\n        /* \"#utility.yul\":3570:3792   */\n      swap3\n      swap2\n      pop\n      pop\n      jump\t// out\n        /* \"#utility.yul\":3798:4417   */\n    tag_39:\n        /* \"#utility.yul\":3875:3881   */\n      0x00\n        /* \"#utility.yul\":3883:3889   */\n      dup1\n        /* \"#utility.yul\":3891:3897   */\n      0x00\n        /* \"#utility.yul\":3940:3942   */\n      0x60\n        /* \"#utility.yul\":3928:3937   */\n      dup5\n        /* \"#utility.yul\":3919:3926   */\n      dup7\n        /* \"#utility.yul\":3915:3938   */\n      sub\n        /* \"#utility.yul\":3911:3943   */\n      slt\n        /* \"#utility.yul\":3908:4027   */\n      iszero\n      tag_282\n      jumpi\n        /* \"#utility.yul\":3946:4025   */\n      tag_283\n      tag_214\n      jump\t// in\n    tag_283:\n        /* \"#utility.yul\":3908:4027   */\n    tag_282:\n        /* \"#utility.yul\":4066:4067   */\n      0x00\n        /* \"#utility.yul\":4091:4144   */\n      tag_284\n        /* \"#utility.yul\":4136:4143   */\n      dup7\n        /* \"#utility.yul\":4127:4133   */\n      dup3\n        /* \"#utility.yul\":4116:4125   */\n      dup8\n        /* \"#utility.yul\":4112:4134   */\n      add\n        /* \"#utility.yul\":4091:4144   */\n      tag_219\n      jump\t// in\n    tag_284:\n        /* \"#utility.yul\":4081:4144   */\n      swap4\n      pop\n        /* \"#utility.yul\":4037:4154   */\n      pop\n        /* \"#utility.yul\":4193:4195   */\n      0x20\n        /* \"#utility.yul\":4219:4272   */\n      tag_285\n        /* \"#utility.yul\":4264:4271   */\n      dup7\n        /* \"#utility.yul\":4255:4261   */\n      dup3\n        /* \"#utility.yul\":4244:4253   */\n      dup8\n        /* \"#utility.yul\":4240:4262   */\n      add\n        /* \"#utility.yul\":4219:4272   */\n      tag_219\n      jump\t// in\n    tag_285:\n        /* \"#utility.yul\":4209:4272   */\n      swap3\n      pop\n        /* \"#utility.yul\":4164:4282   */\n      pop\n        /* \"#utility.yul\":4321:4323   */\n      0x40\n        /* \"#utility.yul\":4347:4400   */\n      tag_286\n        /* \"#utility.yul\":4392:4399   */\n      dup7\n        /* \"#utility.yul\":4383:4389   */\n      dup3\n        /* \"#utility.yul\":4372:4381   */\n      dup8\n        /* \"#utility.yul\":4368:4390   */\n      add\n        /* \"#utility.yul\":4347:4400   */\n      tag_222\n      jump\t// in\n    tag_286:\n        /* \"#utility.yul\":4337:4400   */\n      swap2\n      pop\n        /* \"#utility.yul\":4292:4410   */\n      pop\n        /* \"#utility.yul\":3798:4417   */\n      swap3\n      pop\n      swap3\n      pop\n      swap3\n      jump\t// out\n        /* \"#utility.yul\":4423:4509   */\n    tag_226:\n        /* \"#utility.yul\":4458:4465   */\n      0x00\n        /* \"#utility.yul\":4498:4502   */\n      0xff\n        /* \"#utility.yul\":4491:4496   */\n      dup3\n        /* \"#utility.yul\":4487:4503   */\n      and\n        /* \"#utility.yul\":4476:4503   */\n      swap1\n      pop\n        /* \"#utility.yul\":4423:4509   */\n      swap2\n      swap1\n      pop\n      jump\t// out\n        /* \"#utility.yul\":4515:4627   */\n    tag_227:\n        /* \"#utility.yul\":4598:4620   */\n      tag_289\n        /* \"#utility.yul\":4614:4619   */\n      dup2\n        /* \"#utility.yul\":4598:4620   */\n      tag_226\n      jump\t// in\n    tag_289:\n        /* \"#utility.yul\":4593:4596   */\n      dup3\n        /* \"#utility.yul\":4586:4621   */\n      mstore\n        /* \"#utility.yul\":4515:4627   */\n      pop\n      pop\n      jump\t// out\n        /* \"#utility.yul\":4633:4847   */\n    tag_45:\n        /* \"#utility.yul\":4722:4726   */\n      0x00\n        /* \"#utility.yul\":4760:4762   */\n      0x20\n        /* \"#utility.yul\":4749:4758   */\n      dup3\n        /* \"#utility.yul\":4745:4763   */\n      add\n        /* \"#utility.yul\":4737:4763   */\n      swap1\n      pop\n        /* \"#utility.yul\":4773:4840   */\n      tag_291\n        /* \"#utility.yul\":4837:4838   */\n      0x00\n        /* \"#utility.yul\":4826:4835   */\n      dup4\n        /* \"#utility.yul\":4822:4839   */\n      add\n        /* \"#utility.yul\":4813:4819   */\n      dup5\n        /* \"#utility.yul\":4773:4840   */\n      tag_227\n      jump\t// in\n    tag_291:\n        /* \"#utility.yul\":4633:4847   */\n      swap3\n      swap2\n      pop\n      pop\n      jump\t// out\n        /* \"#utility.yul\":4853:5182   */\n    tag_55:\n        /* \"#utility.yul\":4912:4918   */\n      0x00\n        /* \"#utility.yul\":4961:4963   */\n      0x20\n        /* \"#utility.yul\":4949:4958   */\n      dup3\n        /* \"#utility.yul\":4940:4947   */\n      dup5\n        /* \"#utility.yul\":4936:4959   */\n      sub\n        /* \"#utility.yul\":4932:4964   */\n      slt\n        /* \"#utility.yul\":4929:5048   */\n      iszero\n      tag_293\n      jumpi\n        /* \"#utility.yul\":4967:5046   */\n      tag_294\n      tag_214\n      jump\t// in\n    tag_294:\n        /* \"#utility.yul\":4929:5048   */\n    tag_293:\n        /* \"#utility.yul\":5087:5088   */\n      0x00\n        /* \"#utility.yul\":5112:5165   */\n      tag_295\n        /* \"#utility.yul\":5157:5164   */\n      dup5\n        /* \"#utility.yul\":5148:5154   */\n      dup3\n        /* \"#utility.yul\":5137:5146   */\n      dup6\n        /* \"#utility.yul\":5133:5155   */\n      add\n        /* \"#utility.yul\":5112:5165   */\n      tag_219\n      jump\t// in\n    tag_295:\n        /* \"#utility.yul\":5102:5165   */\n      swap2\n      pop\n        /* \"#utility.yul\":5058:5175   */\n      pop\n        /* \"#utility.yul\":4853:5182   */\n      swap3\n      swap2\n      pop\n      pop\n      jump\t// out\n        /* \"#utility.yul\":5188:5306   */\n    tag_228:\n        /* \"#utility.yul\":5275:5299   */\n      tag_297\n        /* \"#utility.yul\":5293:5298   */\n      dup2\n        /* \"#utility.yul\":5275:5299   */\n      tag_217\n      jump\t// in\n    tag_297:\n        /* \"#utility.yul\":5270:5273   */\n      dup3\n        /* \"#utility.yul\":5263:5300   */\n      mstore\n        /* \"#utility.yul\":5188:5306   */\n      pop\n      pop\n      jump\t// out\n        /* \"#utility.yul\":5312:5534   */\n    tag_63:\n        /* \"#utility.yul\":5405:5409   */\n      0x00\n        /* \"#utility.yul\":5443:5445   */\n      0x20\n        /* \"#utility.yul\":5432:5441   */\n      dup3\n        /* \"#utility.yul\":5428:5446   */\n      add\n        /* \"#utility.yul\":5420:5446   */\n      swap1\n      pop\n        /* \"#utility.yul\":5456:5527   */\n      tag_299\n        /* \"#utility.yul\":5524:5525   */\n      0x00\n        /* \"#utility.yul\":5513:5522   */\n      dup4\n        /* \"#utility.yul\":5509:5526   */\n      add\n        /* \"#utility.yul\":5500:5506   */\n      dup5\n        /* \"#utility.yul\":5456:5527   */\n      tag_228\n      jump\t// in\n    tag_299:\n        /* \"#utility.yul\":5312:5534   */\n      swap3\n      swap2\n      pop\n      pop\n      jump\t// out\n        /* \"#utility.yul\":5540:6014   */\n    tag_83:\n        /* \"#utility.yul\":5608:5614   */\n      0x00\n        /* \"#utility.yul\":5616:5622   */\n      dup1\n        /* \"#utility.yul\":5665:5667   */\n      0x40\n        /* \"#utility.yul\":5653:5662   */\n      dup4\n        /* \"#utility.yul\":5644:5651   */\n      dup6\n        /* \"#utility.yul\":5640:5663   */\n      sub\n        /* \"#utility.yul\":5636:5668   */\n      slt\n        /* \"#utility.yul\":5633:5752   */\n      iszero\n      tag_301\n      jumpi\n        /* \"#utility.yul\":5671:5750   */\n      tag_302\n      tag_214\n      jump\t// in\n    tag_302:\n        /* \"#utility.yul\":5633:5752   */\n    tag_301:\n        /* \"#utility.yul\":5791:5792   */\n      0x00\n        /* \"#utility.yul\":5816:5869   */\n      tag_303\n        /* \"#utility.yul\":5861:5868   */\n      dup6\n        /* \"#utility.yul\":5852:5858   */\n      dup3\n        /* \"#utility.yul\":5841:5850   */\n      dup7\n        /* \"#utility.yul\":5837:5859   */\n      add\n        /* \"#utility.yul\":5816:5869   */\n      tag_219\n      jump\t// in\n    tag_303:\n        /* \"#utility.yul\":5806:5869   */\n      swap3\n      pop\n        /* \"#utility.yul\":5762:5879   */\n      pop\n        /* \"#utility.yul\":5918:5920   */\n      0x20\n        /* \"#utility.yul\":5944:5997   */\n      tag_304\n        /* \"#utility.yul\":5989:5996   */\n      dup6\n        /* \"#utility.yul\":5980:5986   */\n      dup3\n        /* \"#utility.yul\":5969:5978   */\n      dup7\n        /* \"#utility.yul\":5965:5987   */\n      add\n        /* \"#utility.yul\":5944:5997   */\n      tag_219\n      jump\t// in\n    tag_304:\n        /* \"#utility.yul\":5934:5997   */\n      swap2\n      pop\n        /* \"#utility.yul\":5889:6007   */\n      pop\n        /* \"#utility.yul\":5540:6014   */\n      swap3\n      pop\n      swap3\n      swap1\n      pop\n      jump\t// out\n        /* \"#utility.yul\":6020:6200   */\n    tag_229:\n        /* \"#utility.yul\":6068:6145   */\n      0x4e487b7100000000000000000000000000000000000000000000000000000000\n        /* \"#utility.yul\":6065:6066   */\n      0x00\n        /* \"#utility.yul\":6058:6146   */\n      mstore\n        /* \"#utility.yul\":6165:6169   */\n      0x22\n        /* \"#utility.yul\":6162:6163   */\n      0x04\n        /* \"#utility.yul\":6155:6170   */\n      mstore\n        /* \"#utility.yul\":6189:6193   */\n      0x24\n        /* \"#utility.yul\":6186:6187   */\n      0x00\n        /* \"#utility.yul\":6179:6194   */\n      revert\n        /* \"#utility.yul\":6206:6526   */\n    tag_91:\n        /* \"#utility.yul\":6250:6256   */\n      0x00\n        /* \"#utility.yul\":6287:6288   */\n      0x02\n        /* \"#utility.yul\":6281:6285   */\n      dup3\n        /* \"#utility.yul\":6277:6289   */\n      div\n        /* \"#utility.yul\":6267:6289   */\n      swap1\n      pop\n        /* \"#utility.yul\":6334:6335   */\n      0x01\n        /* \"#utility.yul\":6328:6332   */\n      dup3\n        /* \"#utility.yul\":6324:6336   */\n      and\n        /* \"#utility.yul\":6355:6373   */\n      dup1\n        /* \"#utility.yul\":6345:6426   */\n      tag_307\n      jumpi\n        /* \"#utility.yul\":6411:6415   */\n      0x7f\n        /* \"#utility.yul\":6403:6409   */\n      dup3\n        /* \"#utility.yul\":6399:6416   */\n      and\n        /* \"#utility.yul\":6389:6416   */\n      swap2\n      pop\n        /* \"#utility.yul\":6345:6426   */\n    tag_307:\n        /* \"#utility.yul\":6473:6475   */\n      0x20\n        /* \"#utility.yul\":6465:6471   */\n      dup3\n        /* \"#utility.yul\":6462:6476   */\n      lt\n        /* \"#utility.yul\":6442:6460   */\n      dup2\n        /* \"#utility.yul\":6439:6477   */\n      sub\n        /* \"#utility.yul\":6436:6520   */\n      tag_308\n      jumpi\n        /* \"#utility.yul\":6492:6510   */\n      tag_309\n      tag_229\n      jump\t// in\n    tag_309:\n        /* \"#utility.yul\":6436:6520   */\n    tag_308:\n        /* \"#utility.yul\":6257:6526   */\n      pop\n        /* \"#utility.yul\":6206:6526   */\n      swap2\n      swap1\n      pop\n      jump\t// out\n        /* \"#utility.yul\":6532:6712   */\n    tag_230:\n        /* \"#utility.yul\":6580:6657   */\n      0x4e487b7100000000000000000000000000000000000000000000000000000000\n        /* \"#utility.yul\":6577:6578   */\n      0x00\n        /* \"#utility.yul\":6570:6658   */\n      mstore\n        /* \"#utility.yul\":6677:6681   */\n      0x11\n        /* \"#utility.yul\":6674:6675   */\n      0x04\n        /* \"#utility.yul\":6667:6682   */\n      mstore\n        /* \"#utility.yul\":6701:6705   */\n      0x24\n        /* \"#utility.yul\":6698:6699   */\n      0x00\n        /* \"#utility.yul\":6691:6706   */\n      revert\n        /* \"#utility.yul\":6718:6909   */\n    tag_114:\n        /* \"#utility.yul\":6758:6761   */\n      0x00\n        /* \"#utility.yul\":6777:6797   */\n      tag_312\n        /* \"#utility.yul\":6795:6796   */\n      dup3\n        /* \"#utility.yul\":6777:6797   */\n      tag_220\n      jump\t// in\n    tag_312:\n        /* \"#utility.yul\":6772:6797   */\n      swap2\n      pop\n        /* \"#utility.yul\":6811:6831   */\n      tag_313\n        /* \"#utility.yul\":6829:6830   */\n      dup4\n        /* \"#utility.yul\":6811:6831   */\n      tag_220\n      jump\t// in\n    tag_313:\n        /* \"#utility.yul\":6806:6831   */\n      swap3\n      pop\n        /* \"#utility.yul\":6854:6855   */\n      dup3\n        /* \"#utility.yul\":6851:6852   */\n      dup3\n        /* \"#utility.yul\":6847:6856   */\n      add\n        /* \"#utility.yul\":6840:6856   */\n      swap1\n      pop\n        /* \"#utility.yul\":6875:6878   */\n      dup1\n        /* \"#utility.yul\":6872:6873   */\n      dup3\n        /* \"#utility.yul\":6869:6879   */\n      gt\n        /* \"#utility.yul\":6866:6902   */\n      iszero\n      tag_314\n      jumpi\n        /* \"#utility.yul\":6882:6900   */\n      tag_315\n      tag_230\n      jump\t// in\n    tag_315:\n        /* \"#utility.yul\":6866:6902   */\n    tag_314:\n        /* \"#utility.yul\":6718:6909   */\n      swap3\n      swap2\n      pop\n      pop\n      jump\t// out\n        /* \"#utility.yul\":6915:7080   */\n    tag_231:\n        /* \"#utility.yul\":7055:7072   */\n      0x496e76616c696420616464726573730000000000000000000000000000000000\n        /* \"#utility.yul\":7051:7052   */\n      0x00\n        /* \"#utility.yul\":7043:7049   */\n      dup3\n        /* \"#utility.yul\":7039:7053   */\n      add\n        /* \"#utility.yul\":7032:7073   */\n      mstore\n        /* \"#utility.yul\":6915:7080   */\n      pop\n      jump\t// out\n        /* \"#utility.yul\":7086:7452   */\n    tag_232:\n        /* \"#utility.yul\":7228:7231   */\n      0x00\n        /* \"#utility.yul\":7249:7316   */\n      tag_318\n        /* \"#utility.yul\":7313:7315   */\n      0x0f\n        /* \"#utility.yul\":7308:7311   */\n      dup4\n        /* \"#utility.yul\":7249:7316   */\n      tag_209\n      jump\t// in\n    tag_318:\n        /* \"#utility.yul\":7242:7316   */\n      swap2\n      pop\n        /* \"#utility.yul\":7325:7418   */\n      tag_319\n        /* \"#utility.yul\":7414:7417   */\n      dup3\n        /* \"#utility.yul\":7325:7418   */\n      tag_231\n      jump\t// in\n    tag_319:\n        /* \"#utility.yul\":7443:7445   */\n      0x20\n        /* \"#utility.yul\":7438:7441   */\n      dup3\n        /* \"#utility.yul\":7434:7446   */\n      add\n        /* \"#utility.yul\":7427:7446   */\n      swap1\n      pop\n        /* \"#utility.yul\":7086:7452   */\n      swap2\n      swap1\n      pop\n      jump\t// out\n        /* \"#utility.yul\":7458:7877   */\n    tag_121:\n        /* \"#utility.yul\":7624:7628   */\n      0x00\n        /* \"#utility.yul\":7662:7664   */\n      0x20\n        /* \"#utility.yul\":7651:7660   */\n      dup3\n        /* \"#utility.yul\":7647:7665   */\n      add\n        /* \"#utility.yul\":7639:7665   */\n      swap1\n      pop\n        /* \"#utility.yul\":7711:7720   */\n      dup2\n        /* \"#utility.yul\":7705:7709   */\n      dup2\n        /* \"#utility.yul\":7701:7721   */\n      sub\n        /* \"#utility.yul\":7697:7698   */\n      0x00\n        /* \"#utility.yul\":7686:7695   */\n      dup4\n        /* \"#utility.yul\":7682:7699   */\n      add\n        /* \"#utility.yul\":7675:7722   */\n      mstore\n        /* \"#utility.yul\":7739:7870   */\n      tag_321\n        /* \"#utility.yul\":7865:7869   */\n      dup2\n        /* \"#utility.yul\":7739:7870   */\n      tag_232\n      jump\t// in\n    tag_321:\n        /* \"#utility.yul\":7731:7870   */\n      swap1\n      pop\n        /* \"#utility.yul\":7458:7877   */\n      swap2\n      swap1\n      pop\n      jump\t// out\n        /* \"#utility.yul\":7883:8062   */\n    tag_233:\n        /* \"#utility.yul\":8023:8054   */\n      0x416d6f756e74206d7573742062652067726561746572207468616e2030000000\n        /* \"#utility.yul\":8019:8020   */\n      0x00\n        /* \"#utility.yul\":8011:8017   */\n      dup3\n        /* \"#utility.yul\":8007:8021   */\n      add\n        /* \"#utility.yul\":8000:8055   */\n      mstore\n        /* \"#utility.yul\":7883:8062   */\n      pop\n      jump\t// out\n        /* \"#utility.yul\":8068:8434   */\n    tag_234:\n        /* \"#utility.yul\":8210:8213   */\n      0x00\n        /* \"#utility.yul\":8231:8298   */\n      tag_324\n        /* \"#utility.yul\":8295:8297   */\n      0x1d\n        /* \"#utility.yul\":8290:8293   */\n      dup4\n        /* \"#utility.yul\":8231:8298   */\n      tag_209\n      jump\t// in\n    tag_324:\n        /* \"#utility.yul\":8224:8298   */\n      swap2\n      pop\n        /* \"#utility.yul\":8307:8400   */\n      tag_325\n        /* \"#utility.yul\":8396:8399   */\n      dup3\n        /* \"#utility.yul\":8307:8400   */\n      tag_233\n      jump\t// in\n    tag_325:\n        /* \"#utility.yul\":8425:8427   */\n      0x20\n        /* \"#utility.yul\":8420:8423   */\n      dup3\n        /* \"#utility.yul\":8416:8428   */\n      add\n        /* \"#utility.yul\":8409:8428   */\n      swap1\n      pop\n        /* \"#utility.yul\":8068:8434   */\n      swap2\n      swap1\n      pop\n      jump\t// out\n        /* \"#utility.yul\":8440:8859   */\n    tag_124:\n        /* \"#utility.yul\":8606:8610   */\n      0x00\n        /* \"#utility.yul\":8644:8646   */\n      0x20\n        /* \"#utility.yul\":8633:8642   */\n      dup3\n        /* \"#utility.yul\":8629:8647   */\n      add\n        /* \"#utility.yul\":8621:8647   */\n      swap1\n      pop\n        /* \"#utility.yul\":8693:8702   */\n      dup2\n        /* \"#utility.yul\":8687:8691   */\n      dup2\n        /* \"#utility.yul\":8683:8703   */\n      sub\n        /* \"#utility.yul\":8679:8680   */\n      0x00\n        /* \"#utility.yul\":8668:8677   */\n      dup4\n        /* \"#utility.yul\":8664:8681   */\n      add\n        /* \"#utility.yul\":8657:8704   */\n      mstore\n        /* \"#utility.yul\":8721:8852   */\n      tag_327\n        /* \"#utility.yul\":8847:8851   */\n      dup2\n        /* \"#utility.yul\":8721:8852   */\n      tag_234\n      jump\t// in\n    tag_327:\n        /* \"#utility.yul\":8713:8852   */\n      swap1\n      pop\n        /* \"#utility.yul\":8440:8859   */\n      swap2\n      swap1\n      pop\n      jump\t// out\n        /* \"#utility.yul\":8865:9307   */\n    tag_148:\n        /* \"#utility.yul\":9014:9018   */\n      0x00\n        /* \"#utility.yul\":9052:9054   */\n      0x60\n        /* \"#utility.yul\":9041:9050   */\n      dup3\n        /* \"#utility.yul\":9037:9055   */\n      add\n        /* \"#utility.yul\":9029:9055   */\n      swap1\n      pop\n        /* \"#utility.yul\":9065:9136   */\n      tag_329\n        /* \"#utility.yul\":9133:9134   */\n      0x00\n        /* \"#utility.yul\":9122:9131   */\n      dup4\n        /* \"#utility.yul\":9118:9135   */\n      add\n        /* \"#utility.yul\":9109:9115   */\n      dup7\n        /* \"#utility.yul\":9065:9136   */\n      tag_228\n      jump\t// in\n    tag_329:\n        /* \"#utility.yul\":9146:9218   */\n      tag_330\n        /* \"#utility.yul\":9214:9216   */\n      0x20\n        /* \"#utility.yul\":9203:9212   */\n      dup4\n        /* \"#utility.yul\":9199:9217   */\n      add\n        /* \"#utility.yul\":9190:9196   */\n      dup6\n        /* \"#utility.yul\":9146:9218   */\n      tag_225\n      jump\t// in\n    tag_330:\n        /* \"#utility.yul\":9228:9300   */\n      tag_331\n        /* \"#utility.yul\":9296:9298   */\n      0x40\n        /* \"#utility.yul\":9285:9294   */\n      dup4\n        /* \"#utility.yul\":9281:9299   */\n      add\n        /* \"#utility.yul\":9272:9278   */\n      dup5\n        /* \"#utility.yul\":9228:9300   */\n      tag_225\n      jump\t// in\n    tag_331:\n        /* \"#utility.yul\":8865:9307   */\n      swap5\n      swap4\n      pop\n      pop\n      pop\n      pop\n      jump\t// out\n\n    auxdata: 0xa264697066735822122062ba5783b84c2e4d606ee33ef7deeaa9bced78b0be4a8b70dc98c66c46cefb7c64736f6c63430008140033\n}\n",
				"bytecode": {
					"linkReferences": {},
					"object": "6080604052600a60065534801562000015575f80fd5b50336040518060400160405280600781526020017f4d79746f6b656e000000000000000000000000000000000000000000000000008152506040518060400160405280600381526020017f4d595400000000000000000000000000000000000000000000000000000000008152508160039081620000949190620006b2565b508060049081620000a69190620006b2565b505050620000ba81620000dd60201b60201c565b50620000d73369010f0cf064dd59200000620001a060201b60201c565b620008c2565b5f60055f9054906101000a900473ffffffffffffffffffffffffffffffffffffffff1690508160055f6101000a81548173ffffffffffffffffffffffffffffffffffffffff021916908373ffffffffffffffffffffffffffffffffffffffff1602179055508173ffffffffffffffffffffffffffffffffffffffff168173ffffffffffffffffffffffffffffffffffffffff167f8be0079c531659141344cd1fd0a4f28419497f9722a3daafe3b4186f6b6457e060405160405180910390a35050565b5f73ffffffffffffffffffffffffffffffffffffffff168273ffffffffffffffffffffffffffffffffffffffff160362000213575f6040517fec442f050000000000000000000000000000000000000000000000000000000081526004016200020a9190620007d9565b60405180910390fd5b620002265f83836200022a60201b60201c565b5050565b5f73ffffffffffffffffffffffffffffffffffffffff168373ffffffffffffffffffffffffffffffffffffffff16036200027e578060025f82825462000271919062000821565b925050819055506200034f565b5f805f8573ffffffffffffffffffffffffffffffffffffffff1673ffffffffffffffffffffffffffffffffffffffff1681526020019081526020015f20549050818110156200030a578381836040517fe450d38c00000000000000000000000000000000000000000000000000000000815260040162000301939291906200086c565b60405180910390fd5b8181035f808673ffffffffffffffffffffffffffffffffffffffff1673ffffffffffffffffffffffffffffffffffffffff1681526020019081526020015f2081905550505b5f73ffffffffffffffffffffffffffffffffffffffff168273ffffffffffffffffffffffffffffffffffffffff160362000398578060025f8282540392505081905550620003e2565b805f808473ffffffffffffffffffffffffffffffffffffffff1673ffffffffffffffffffffffffffffffffffffffff1681526020019081526020015f205f82825401925050819055505b8173ffffffffffffffffffffffffffffffffffffffff168373ffffffffffffffffffffffffffffffffffffffff167fddf252ad1be2c89b69c2b068fc378daa952ba7f163c4a11628f55a4df523b3ef83604051620004419190620008a7565b60405180910390a3505050565b5f81519050919050565b7f4e487b71000000000000000000000000000000000000000000000000000000005f52604160045260245ffd5b7f4e487b71000000000000000000000000000000000000000000000000000000005f52602260045260245ffd5b5f6002820490506001821680620004ca57607f821691505b602082108103620004e057620004df62000485565b5b50919050565b5f819050815f5260205f209050919050565b5f6020601f8301049050919050565b5f82821b905092915050565b5f60088302620005447fffffffffffffffffffffffffffffffffffffffffffffffffffffffffffffffff8262000507565b62000550868362000507565b95508019841693508086168417925050509392505050565b5f819050919050565b5f819050919050565b5f6200059a620005946200058e8462000568565b62000571565b62000568565b9050919050565b5f819050919050565b620005b5836200057a565b620005cd620005c482620005a1565b84845462000513565b825550505050565b5f90565b620005e3620005d5565b620005f0818484620005aa565b505050565b5b8181101562000617576200060b5f82620005d9565b600181019050620005f6565b5050565b601f82111562000666576200063081620004e6565b6200063b84620004f8565b810160208510156200064b578190505b620006636200065a85620004f8565b830182620005f5565b50505b505050565b5f82821c905092915050565b5f620006885f19846008026200066b565b1980831691505092915050565b5f620006a2838362000677565b9150826002028217905092915050565b620006bd826200044e565b67ffffffffffffffff811115620006d957620006d862000458565b5b620006e58254620004b2565b620006f28282856200061b565b5f60209050601f83116001811462000728575f841562000713578287015190505b6200071f858262000695565b8655506200078e565b601f1984166200073886620004e6565b5f5b8281101562000761578489015182556001820191506020850194506020810190506200073a565b868310156200078157848901516200077d601f89168262000677565b8355505b6001600288020188555050505b505050505050565b5f73ffffffffffffffffffffffffffffffffffffffff82169050919050565b5f620007c18262000796565b9050919050565b620007d381620007b5565b82525050565b5f602082019050620007ee5f830184620007c8565b92915050565b7f4e487b71000000000000000000000000000000000000000000000000000000005f52601160045260245ffd5b5f6200082d8262000568565b91506200083a8362000568565b9250828201905080821115620008555762000854620007f4565b5b92915050565b620008668162000568565b82525050565b5f606082019050620008815f830186620007c8565b6200089060208301856200085b565b6200089f60408301846200085b565b949350505050565b5f602082019050620008bc5f8301846200085b565b92915050565b6114cf80620008d05f395ff3fe608060405234801561000f575f80fd5b5060043610610109575f3560e01c8063715018a6116100a0578063a457c2d71161006f578063a457c2d7146102a5578063a9059cbb146102d5578063cbdd69b514610305578063dd62ed3e14610323578063f2fde38b1461035357610109565b8063715018a6146102435780638da5cb5b1461024d57806395d89b411461026b5780639dc29fac1461028957610109565b8063313ce567116100dc578063313ce567146101a957806339509351146101c757806340c10f19146101f757806370a082311461021357610109565b806306fdde031461010d578063095ea7b31461012b57806318160ddd1461015b57806323b872dd14610179575b5f80fd5b61011561036f565b6040516101229190611078565b60405180910390f35b61014560048036038101906101409190611129565b6103ff565b6040516101529190611181565b60405180910390f35b610163610421565b60405161017091906111a9565b60405180910390f35b610193600480360381019061018e91906111c2565b61042a565b6040516101a09190611181565b60405180910390f35b6101b1610458565b6040516101be919061122d565b60405180910390f35b6101e160048036038101906101dc9190611129565b610460565b6040516101ee9190611181565b60405180910390f35b610211600480360381019061020c9190611129565b610496565b005b61022d60048036038101906102289190611246565b61055c565b60405161023a91906111a9565b60405180910390f35b61024b6105a1565b005b6102556105b4565b6040516102629190611280565b60405180910390f35b6102736105dc565b6040516102809190611078565b60405180910390f35b6102a3600480360381019061029e9190611129565b61066c565b005b6102bf60048036038101906102ba9190611129565b61067a565b6040516102cc9190611181565b60405180910390f35b6102ef60048036038101906102ea9190611129565b6106f5565b6040516102fc9190611181565b60405180910390f35b61030d610717565b60405161031a91906111a9565b60405180910390f35b61033d60048036038101906103389190611299565b61071d565b60405161034a91906111a9565b60405180910390f35b61036d60048036038101906103689190611246565b61079f565b005b60606003805461037e90611304565b80601f01602080910402602001604051908101604052809291908181526020018280546103aa90611304565b80156103f55780601f106103cc576101008083540402835291602001916103f5565b820191905f5260205f20905b8154815290600101906020018083116103d857829003601f168201915b5050505050905090565b5f80610409610823565b905061041681858561082a565b600191505092915050565b5f600254905090565b5f80610434610823565b905061044185828561083c565b61044c8585856108ce565b60019150509392505050565b5f6012905090565b5f8061046a610823565b905061048b81858561047c858961071d565b6104869190611361565b61082a565b600191505092915050565b61049e6109be565b5f73ffffffffffffffffffffffffffffffffffffffff168273ffffffffffffffffffffffffffffffffffffffff160361050c576040517f08c379a0000000000000000000000000000000000000000000000000000000008152600401610503906113de565b60405180910390fd5b5f811161054e576040517f08c379a000000000000000000000000000000000000000000000000000000000815260040161054590611446565b60405180910390fd5b6105588282610a45565b5050565b5f805f8373ffffffffffffffffffffffffffffffffffffffff1673ffffffffffffffffffffffffffffffffffffffff1681526020019081526020015f20549050919050565b6105a96109be565b6105b25f610ac4565b565b5f60055f9054906101000a900473ffffffffffffffffffffffffffffffffffffffff16905090565b6060600480546105eb90611304565b80601f016020809104026020016040519081016040528092919081815260200182805461061790611304565b80156106625780601f1061063957610100808354040283529160200191610662565b820191905f5260205f20905b81548152906001019060200180831161064557829003601f168201915b5050505050905090565b6106768282610b87565b5050565b5f80610684610823565b90505f610691828661071d565b9050838110156106dc578481856040517fa60f030c0000000000000000000000000000000000000000000000000000000081526004016106d393929190611464565b60405180910390fd5b6106e9828686840361082a565b60019250505092915050565b5f806106ff610823565b905061070c8185856108ce565b600191505092915050565b60065481565b5f60015f8473ffffffffffffffffffffffffffffffffffffffff1673ffffffffffffffffffffffffffffffffffffffff1681526020019081526020015f205f8373ffffffffffffffffffffffffffffffffffffffff1673ffffffffffffffffffffffffffffffffffffffff1681526020019081526020015f2054905092915050565b6107a76109be565b5f73ffffffffffffffffffffffffffffffffffffffff168173ffffffffffffffffffffffffffffffffffffffff1603610817575f6040517f1e4fbdf700000000000000000000000000000000000000000000000000000000815260040161080e9190611280565b60405180910390fd5b61082081610ac4565b50565b5f33905090565b6108378383836001610c06565b505050565b5f610847848461071d565b90507fffffffffffffffffffffffffffffffffffffffffffffffffffffffffffffffff81146108c857818110156108b9578281836040517ffb8f41b20000000000000000000000000000000000000000000000000000000081526004016108b093929190611464565b60405180910390fd5b6108c784848484035f610c06565b5b50505050565b5f73ffffffffffffffffffffffffffffffffffffffff168373ffffffffffffffffffffffffffffffffffffffff160361093e575f6040517f96c6fd1e0000000000000000000000000000000000000000000000000000000081526004016109359190611280565b60405180910390fd5b5f73ffffffffffffffffffffffffffffffffffffffff168273ffffffffffffffffffffffffffffffffffffffff16036109ae575f6040517fec442f050000000000000000000000000000000000000000000000000000000081526004016109a59190611280565b60405180910390fd5b6109b9838383610dd5565b505050565b6109c6610823565b73ffffffffffffffffffffffffffffffffffffffff166109e46105b4565b73ffffffffffffffffffffffffffffffffffffffff1614610a4357610a07610823565b6040517f118cdaa7000000000000000000000000000000000000000000000000000000008152600401610a3a9190611280565b60405180910390fd5b565b5f73ffffffffffffffffffffffffffffffffffffffff168273ffffffffffffffffffffffffffffffffffffffff1603610ab5575f6040517fec442f05000000000000000000000000000000000000000000000000000000008152600401610aac9190611280565b60405180910390fd5b610ac05f8383610dd5565b5050565b5f60055f9054906101000a900473ffffffffffffffffffffffffffffffffffffffff1690508160055f6101000a81548173ffffffffffffffffffffffffffffffffffffffff021916908373ffffffffffffffffffffffffffffffffffffffff1602179055508173ffffffffffffffffffffffffffffffffffffffff168173ffffffffffffffffffffffffffffffffffffffff167f8be0079c531659141344cd1fd0a4f28419497f9722a3daafe3b4186f6b6457e060405160405180910390a35050565b5f73ffffffffffffffffffffffffffffffffffffffff168273ffffffffffffffffffffffffffffffffffffffff1603610bf7575f6040517f96c6fd1e000000000000000000000000000000000000000000000000000000008152600401610bee9190611280565b60405180910390fd5b610c02825f83610dd5565b5050565b5f73ffffffffffffffffffffffffffffffffffffffff168473ffffffffffffffffffffffffffffffffffffffff1603610c76575f6040517fe602df05000000000000000000000000000000000000000000000000000000008152600401610c6d9190611280565b60405180910390fd5b5f73ffffffffffffffffffffffffffffffffffffffff168373ffffffffffffffffffffffffffffffffffffffff1603610ce6575f6040517f94280d62000000000000000000000000000000000000000000000000000000008152600401610cdd9190611280565b60405180910390fd5b8160015f8673ffffffffffffffffffffffffffffffffffffffff1673ffffffffffffffffffffffffffffffffffffffff1681526020019081526020015f205f8573ffffffffffffffffffffffffffffffffffffffff1673ffffffffffffffffffffffffffffffffffffffff1681526020019081526020015f20819055508015610dcf578273ffffffffffffffffffffffffffffffffffffffff168473ffffffffffffffffffffffffffffffffffffffff167f8c5be1e5ebec7d5bd14f71427d1e84f3dd0314c0f7b2291e5b200ac8c7c3b92584604051610dc691906111a9565b60405180910390a35b50505050565b5f73ffffffffffffffffffffffffffffffffffffffff168373ffffffffffffffffffffffffffffffffffffffff1603610e25578060025f828254610e199190611361565b92505081905550610ef3565b5f805f8573ffffffffffffffffffffffffffffffffffffffff1673ffffffffffffffffffffffffffffffffffffffff1681526020019081526020015f2054905081811015610eae578381836040517fe450d38c000000000000000000000000000000000000000000000000000000008152600401610ea593929190611464565b60405180910390fd5b8181035f808673ffffffffffffffffffffffffffffffffffffffff1673ffffffffffffffffffffffffffffffffffffffff1681526020019081526020015f2081905550505b5f73ffffffffffffffffffffffffffffffffffffffff168273ffffffffffffffffffffffffffffffffffffffff1603610f3a578060025f8282540392505081905550610f84565b805f808473ffffffffffffffffffffffffffffffffffffffff1673ffffffffffffffffffffffffffffffffffffffff1681526020019081526020015f205f82825401925050819055505b8173ffffffffffffffffffffffffffffffffffffffff168373ffffffffffffffffffffffffffffffffffffffff167fddf252ad1be2c89b69c2b068fc378daa952ba7f163c4a11628f55a4df523b3ef83604051610fe191906111a9565b60405180910390a3505050565b5f81519050919050565b5f82825260208201905092915050565b5f5b8381101561102557808201518184015260208101905061100a565b5f8484015250505050565b5f601f19601f8301169050919050565b5f61104a82610fee565b6110548185610ff8565b9350611064818560208601611008565b61106d81611030565b840191505092915050565b5f6020820190508181035f8301526110908184611040565b905092915050565b5f80fd5b5f73ffffffffffffffffffffffffffffffffffffffff82169050919050565b5f6110c58261109c565b9050919050565b6110d5816110bb565b81146110df575f80fd5b50565b5f813590506110f0816110cc565b92915050565b5f819050919050565b611108816110f6565b8114611112575f80fd5b50565b5f81359050611123816110ff565b92915050565b5f806040838503121561113f5761113e611098565b5b5f61114c858286016110e2565b925050602061115d85828601611115565b9150509250929050565b5f8115159050919050565b61117b81611167565b82525050565b5f6020820190506111945f830184611172565b92915050565b6111a3816110f6565b82525050565b5f6020820190506111bc5f83018461119a565b92915050565b5f805f606084860312156111d9576111d8611098565b5b5f6111e6868287016110e2565b93505060206111f7868287016110e2565b925050604061120886828701611115565b9150509250925092565b5f60ff82169050919050565b61122781611212565b82525050565b5f6020820190506112405f83018461121e565b92915050565b5f6020828403121561125b5761125a611098565b5b5f611268848285016110e2565b91505092915050565b61127a816110bb565b82525050565b5f6020820190506112935f830184611271565b92915050565b5f80604083850312156112af576112ae611098565b5b5f6112bc858286016110e2565b92505060206112cd858286016110e2565b9150509250929050565b7f4e487b71000000000000000000000000000000000000000000000000000000005f52602260045260245ffd5b5f600282049050600182168061131b57607f821691505b60208210810361132e5761132d6112d7565b5b50919050565b7f4e487b71000000000000000000000000000000000000000000000000000000005f52601160045260245ffd5b5f61136b826110f6565b9150611376836110f6565b925082820190508082111561138e5761138d611334565b5b92915050565b7f496e76616c6964206164647265737300000000000000000000000000000000005f82015250565b5f6113c8600f83610ff8565b91506113d382611394565b602082019050919050565b5f6020820190508181035f8301526113f5816113bc565b9050919050565b7f416d6f756e74206d7573742062652067726561746572207468616e20300000005f82015250565b5f611430601d83610ff8565b915061143b826113fc565b602082019050919050565b5f6020820190508181035f83015261145d81611424565b9050919050565b5f6060820190506114775f830186611271565b611484602083018561119a565b611491604083018461119a565b94935050505056fea264697066735822122062ba5783b84c2e4d606ee33ef7deeaa9bced78b0be4a8b70dc98c66c46cefb7c64736f6c63430008140033",
					"opcodes": "PUSH1 0x80 PUSH1 0x40 MSTORE PUSH1 0xA PUSH1 0x6 SSTORE CALLVALUE DUP1 ISZERO PUSH3 0x15 JUMPI PUSH0 DUP1 REVERT JUMPDEST POP CALLER PUSH1 0x40 MLOAD DUP1 PUSH1 0x40 ADD PUSH1 0x40 MSTORE DUP1 PUSH1 0x7 DUP2 MSTORE PUSH1 0x20 ADD PUSH32 0x4D79746F6B656E00000000000000000000000000000000000000000000000000 DUP2 MSTORE POP PUSH1 0x40 MLOAD DUP1 PUSH1 0x40 ADD PUSH1 0x40 MSTORE DUP1 PUSH1 0x3 DUP2 MSTORE PUSH1 0x20 ADD PUSH32 0x4D59540000000000000000000000000000000000000000000000000000000000 DUP2 MSTORE POP DUP2 PUSH1 0x3 SWAP1 DUP2 PUSH3 0x94 SWAP2 SWAP1 PUSH3 0x6B2 JUMP JUMPDEST POP DUP1 PUSH1 0x4 SWAP1 DUP2 PUSH3 0xA6 SWAP2 SWAP1 PUSH3 0x6B2 JUMP JUMPDEST POP POP POP PUSH3 0xBA DUP2 PUSH3 0xDD PUSH1 0x20 SHL PUSH1 0x20 SHR JUMP JUMPDEST POP PUSH3 0xD7 CALLER PUSH10 0x10F0CF064DD59200000 PUSH3 0x1A0 PUSH1 0x20 SHL PUSH1 0x20 SHR JUMP JUMPDEST PUSH3 0x8C2 JUMP JUMPDEST PUSH0 PUSH1 0x5 PUSH0 SWAP1 SLOAD SWAP1 PUSH2 0x100 EXP SWAP1 DIV PUSH20 0xFFFFFFFFFFFFFFFFFFFFFFFFFFFFFFFFFFFFFFFF AND SWAP1 POP DUP2 PUSH1 0x5 PUSH0 PUSH2 0x100 EXP DUP2 SLOAD DUP2 PUSH20 0xFFFFFFFFFFFFFFFFFFFFFFFFFFFFFFFFFFFFFFFF MUL NOT AND SWAP1 DUP4 PUSH20 0xFFFFFFFFFFFFFFFFFFFFFFFFFFFFFFFFFFFFFFFF AND MUL OR SWAP1 SSTORE POP DUP2 PUSH20 0xFFFFFFFFFFFFFFFFFFFFFFFFFFFFFFFFFFFFFFFF AND DUP2 PUSH20 0xFFFFFFFFFFFFFFFFFFFFFFFFFFFFFFFFFFFFFFFF AND PUSH32 0x8BE0079C531659141344CD1FD0A4F28419497F9722A3DAAFE3B4186F6B6457E0 PUSH1 0x40 MLOAD PUSH1 0x40 MLOAD DUP1 SWAP2 SUB SWAP1 LOG3 POP POP JUMP JUMPDEST PUSH0 PUSH20 0xFFFFFFFFFFFFFFFFFFFFFFFFFFFFFFFFFFFFFFFF AND DUP3 PUSH20 0xFFFFFFFFFFFFFFFFFFFFFFFFFFFFFFFFFFFFFFFF AND SUB PUSH3 0x213 JUMPI PUSH0 PUSH1 0x40 MLOAD PUSH32 0xEC442F0500000000000000000000000000000000000000000000000000000000 DUP2 MSTORE PUSH1 0x4 ADD PUSH3 0x20A SWAP2 SWAP1 PUSH3 0x7D9 JUMP JUMPDEST PUSH1 0x40 MLOAD DUP1 SWAP2 SUB SWAP1 REVERT JUMPDEST PUSH3 0x226 PUSH0 DUP4 DUP4 PUSH3 0x22A PUSH1 0x20 SHL PUSH1 0x20 SHR JUMP JUMPDEST POP POP JUMP JUMPDEST PUSH0 PUSH20 0xFFFFFFFFFFFFFFFFFFFFFFFFFFFFFFFFFFFFFFFF AND DUP4 PUSH20 0xFFFFFFFFFFFFFFFFFFFFFFFFFFFFFFFFFFFFFFFF AND SUB PUSH3 0x27E JUMPI DUP1 PUSH1 0x2 PUSH0 DUP3 DUP3 SLOAD PUSH3 0x271 SWAP2 SWAP1 PUSH3 0x821 JUMP JUMPDEST SWAP3 POP POP DUP2 SWAP1 SSTORE POP PUSH3 0x34F JUMP JUMPDEST PUSH0 DUP1 PUSH0 DUP6 PUSH20 0xFFFFFFFFFFFFFFFFFFFFFFFFFFFFFFFFFFFFFFFF AND PUSH20 0xFFFFFFFFFFFFFFFFFFFFFFFFFFFFFFFFFFFFFFFF AND DUP2 MSTORE PUSH1 0x20 ADD SWAP1 DUP2 MSTORE PUSH1 0x20 ADD PUSH0 KECCAK256 SLOAD SWAP1 POP DUP2 DUP2 LT ISZERO PUSH3 0x30A JUMPI DUP4 DUP2 DUP4 PUSH1 0x40 MLOAD PUSH32 0xE450D38C00000000000000000000000000000000000000000000000000000000 DUP2 MSTORE PUSH1 0x4 ADD PUSH3 0x301 SWAP4 SWAP3 SWAP2 SWAP1 PUSH3 0x86C JUMP JUMPDEST PUSH1 0x40 MLOAD DUP1 SWAP2 SUB SWAP1 REVERT JUMPDEST DUP2 DUP2 SUB PUSH0 DUP1 DUP7 PUSH20 0xFFFFFFFFFFFFFFFFFFFFFFFFFFFFFFFFFFFFFFFF AND PUSH20 0xFFFFFFFFFFFFFFFFFFFFFFFFFFFFFFFFFFFFFFFF AND DUP2 MSTORE PUSH1 0x20 ADD SWAP1 DUP2 MSTORE PUSH1 0x20 ADD PUSH0 KECCAK256 DUP2 SWAP1 SSTORE POP POP JUMPDEST PUSH0 PUSH20 0xFFFFFFFFFFFFFFFFFFFFFFFFFFFFFFFFFFFFFFFF AND DUP3 PUSH20 0xFFFFFFFFFFFFFFFFFFFFFFFFFFFFFFFFFFFFFFFF AND SUB PUSH3 0x398 JUMPI DUP1 PUSH1 0x2 PUSH0 DUP3 DUP3 SLOAD SUB SWAP3 POP POP DUP2 SWAP1 SSTORE POP PUSH3 0x3E2 JUMP JUMPDEST DUP1 PUSH0 DUP1 DUP5 PUSH20 0xFFFFFFFFFFFFFFFFFFFFFFFFFFFFFFFFFFFFFFFF AND PUSH20 0xFFFFFFFFFFFFFFFFFFFFFFFFFFFFFFFFFFFFFFFF AND DUP2 MSTORE PUSH1 0x20 ADD SWAP1 DUP2 MSTORE PUSH1 0x20 ADD PUSH0 KECCAK256 PUSH0 DUP3 DUP3 SLOAD ADD SWAP3 POP POP DUP2 SWAP1 SSTORE POP JUMPDEST DUP2 PUSH20 0xFFFFFFFFFFFFFFFFFFFFFFFFFFFFFFFFFFFFFFFF AND DUP4 PUSH20 0xFFFFFFFFFFFFFFFFFFFFFFFFFFFFFFFFFFFFFFFF AND PUSH32 0xDDF252AD1BE2C89B69C2B068FC378DAA952BA7F163C4A11628F55A4DF523B3EF DUP4 PUSH1 0x40 MLOAD PUSH3 0x441 SWAP2 SWAP1 PUSH3 0x8A7 JUMP JUMPDEST PUSH1 0x40 MLOAD DUP1 SWAP2 SUB SWAP1 LOG3 POP POP POP JUMP JUMPDEST PUSH0 DUP2 MLOAD SWAP1 POP SWAP2 SWAP1 POP JUMP JUMPDEST PUSH32 0x4E487B7100000000000000000000000000000000000000000000000000000000 PUSH0 MSTORE PUSH1 0x41 PUSH1 0x4 MSTORE PUSH1 0x24 PUSH0 REVERT JUMPDEST PUSH32 0x4E487B7100000000000000000000000000000000000000000000000000000000 PUSH0 MSTORE PUSH1 0x22 PUSH1 0x4 MSTORE PUSH1 0x24 PUSH0 REVERT JUMPDEST PUSH0 PUSH1 0x2 DUP3 DIV SWAP1 POP PUSH1 0x1 DUP3 AND DUP1 PUSH3 0x4CA JUMPI PUSH1 0x7F DUP3 AND SWAP2 POP JUMPDEST PUSH1 0x20 DUP3 LT DUP2 SUB PUSH3 0x4E0 JUMPI PUSH3 0x4DF PUSH3 0x485 JUMP JUMPDEST JUMPDEST POP SWAP2 SWAP1 POP JUMP JUMPDEST PUSH0 DUP2 SWAP1 POP DUP2 PUSH0 MSTORE PUSH1 0x20 PUSH0 KECCAK256 SWAP1 POP SWAP2 SWAP1 POP JUMP JUMPDEST PUSH0 PUSH1 0x20 PUSH1 0x1F DUP4 ADD DIV SWAP1 POP SWAP2 SWAP1 POP JUMP JUMPDEST PUSH0 DUP3 DUP3 SHL SWAP1 POP SWAP3 SWAP2 POP POP JUMP JUMPDEST PUSH0 PUSH1 0x8 DUP4 MUL PUSH3 0x544 PUSH32 0xFFFFFFFFFFFFFFFFFFFFFFFFFFFFFFFFFFFFFFFFFFFFFFFFFFFFFFFFFFFFFFFF DUP3 PUSH3 0x507 JUMP JUMPDEST PUSH3 0x550 DUP7 DUP4 PUSH3 0x507 JUMP JUMPDEST SWAP6 POP DUP1 NOT DUP5 AND SWAP4 POP DUP1 DUP7 AND DUP5 OR SWAP3 POP POP POP SWAP4 SWAP3 POP POP POP JUMP JUMPDEST PUSH0 DUP2 SWAP1 POP SWAP2 SWAP1 POP JUMP JUMPDEST PUSH0 DUP2 SWAP1 POP SWAP2 SWAP1 POP JUMP JUMPDEST PUSH0 PUSH3 0x59A PUSH3 0x594 PUSH3 0x58E DUP5 PUSH3 0x568 JUMP JUMPDEST PUSH3 0x571 JUMP JUMPDEST PUSH3 0x568 JUMP JUMPDEST SWAP1 POP SWAP2 SWAP1 POP JUMP JUMPDEST PUSH0 DUP2 SWAP1 POP SWAP2 SWAP1 POP JUMP JUMPDEST PUSH3 0x5B5 DUP4 PUSH3 0x57A JUMP JUMPDEST PUSH3 0x5CD PUSH3 0x5C4 DUP3 PUSH3 0x5A1 JUMP JUMPDEST DUP5 DUP5 SLOAD PUSH3 0x513 JUMP JUMPDEST DUP3 SSTORE POP POP POP POP JUMP JUMPDEST PUSH0 SWAP1 JUMP JUMPDEST PUSH3 0x5E3 PUSH3 0x5D5 JUMP JUMPDEST PUSH3 0x5F0 DUP2 DUP5 DUP5 PUSH3 0x5AA JUMP JUMPDEST POP POP POP JUMP JUMPDEST JUMPDEST DUP2 DUP2 LT ISZERO PUSH3 0x617 JUMPI PUSH3 0x60B PUSH0 DUP3 PUSH3 0x5D9 JUMP JUMPDEST PUSH1 0x1 DUP2 ADD SWAP1 POP PUSH3 0x5F6 JUMP JUMPDEST POP POP JUMP JUMPDEST PUSH1 0x1F DUP3 GT ISZERO PUSH3 0x666 JUMPI PUSH3 0x630 DUP2 PUSH3 0x4E6 JUMP JUMPDEST PUSH3 0x63B DUP5 PUSH3 0x4F8 JUMP JUMPDEST DUP2 ADD PUSH1 0x20 DUP6 LT ISZERO PUSH3 0x64B JUMPI DUP2 SWAP1 POP JUMPDEST PUSH3 0x663 PUSH3 0x65A DUP6 PUSH3 0x4F8 JUMP JUMPDEST DUP4 ADD DUP3 PUSH3 0x5F5 JUMP JUMPDEST POP POP JUMPDEST POP POP POP JUMP JUMPDEST PUSH0 DUP3 DUP3 SHR SWAP1 POP SWAP3 SWAP2 POP POP JUMP JUMPDEST PUSH0 PUSH3 0x688 PUSH0 NOT DUP5 PUSH1 0x8 MUL PUSH3 0x66B JUMP JUMPDEST NOT DUP1 DUP4 AND SWAP2 POP POP SWAP3 SWAP2 POP POP JUMP JUMPDEST PUSH0 PUSH3 0x6A2 DUP4 DUP4 PUSH3 0x677 JUMP JUMPDEST SWAP2 POP DUP3 PUSH1 0x2 MUL DUP3 OR SWAP1 POP SWAP3 SWAP2 POP POP JUMP JUMPDEST PUSH3 0x6BD DUP3 PUSH3 0x44E JUMP JUMPDEST PUSH8 0xFFFFFFFFFFFFFFFF DUP2 GT ISZERO PUSH3 0x6D9 JUMPI PUSH3 0x6D8 PUSH3 0x458 JUMP JUMPDEST JUMPDEST PUSH3 0x6E5 DUP3 SLOAD PUSH3 0x4B2 JUMP JUMPDEST PUSH3 0x6F2 DUP3 DUP3 DUP6 PUSH3 0x61B JUMP JUMPDEST PUSH0 PUSH1 0x20 SWAP1 POP PUSH1 0x1F DUP4 GT PUSH1 0x1 DUP2 EQ PUSH3 0x728 JUMPI PUSH0 DUP5 ISZERO PUSH3 0x713 JUMPI DUP3 DUP8 ADD MLOAD SWAP1 POP JUMPDEST PUSH3 0x71F DUP6 DUP3 PUSH3 0x695 JUMP JUMPDEST DUP7 SSTORE POP PUSH3 0x78E JUMP JUMPDEST PUSH1 0x1F NOT DUP5 AND PUSH3 0x738 DUP7 PUSH3 0x4E6 JUMP JUMPDEST PUSH0 JUMPDEST DUP3 DUP2 LT ISZERO PUSH3 0x761 JUMPI DUP5 DUP10 ADD MLOAD DUP3 SSTORE PUSH1 0x1 DUP3 ADD SWAP2 POP PUSH1 0x20 DUP6 ADD SWAP5 POP PUSH1 0x20 DUP2 ADD SWAP1 POP PUSH3 0x73A JUMP JUMPDEST DUP7 DUP4 LT ISZERO PUSH3 0x781 JUMPI DUP5 DUP10 ADD MLOAD PUSH3 0x77D PUSH1 0x1F DUP10 AND DUP3 PUSH3 0x677 JUMP JUMPDEST DUP4 SSTORE POP JUMPDEST PUSH1 0x1 PUSH1 0x2 DUP9 MUL ADD DUP9 SSTORE POP POP POP JUMPDEST POP POP POP POP POP POP JUMP JUMPDEST PUSH0 PUSH20 0xFFFFFFFFFFFFFFFFFFFFFFFFFFFFFFFFFFFFFFFF DUP3 AND SWAP1 POP SWAP2 SWAP1 POP JUMP JUMPDEST PUSH0 PUSH3 0x7C1 DUP3 PUSH3 0x796 JUMP JUMPDEST SWAP1 POP SWAP2 SWAP1 POP JUMP JUMPDEST PUSH3 0x7D3 DUP2 PUSH3 0x7B5 JUMP JUMPDEST DUP3 MSTORE POP POP JUMP JUMPDEST PUSH0 PUSH1 0x20 DUP3 ADD SWAP1 POP PUSH3 0x7EE PUSH0 DUP4 ADD DUP5 PUSH3 0x7C8 JUMP JUMPDEST SWAP3 SWAP2 POP POP JUMP JUMPDEST PUSH32 0x4E487B7100000000000000000000000000000000000000000000000000000000 PUSH0 MSTORE PUSH1 0x11 PUSH1 0x4 MSTORE PUSH1 0x24 PUSH0 REVERT JUMPDEST PUSH0 PUSH3 0x82D DUP3 PUSH3 0x568 JUMP JUMPDEST SWAP2 POP PUSH3 0x83A DUP4 PUSH3 0x568 JUMP JUMPDEST SWAP3 POP DUP3 DUP3 ADD SWAP1 POP DUP1 DUP3 GT ISZERO PUSH3 0x855 JUMPI PUSH3 0x854 PUSH3 0x7F4 JUMP JUMPDEST JUMPDEST SWAP3 SWAP2 POP POP JUMP JUMPDEST PUSH3 0x866 DUP2 PUSH3 0x568 JUMP JUMPDEST DUP3 MSTORE POP POP JUMP JUMPDEST PUSH0 PUSH1 0x60 DUP3 ADD SWAP1 POP PUSH3 0x881 PUSH0 DUP4 ADD DUP7 PUSH3 0x7C8 JUMP JUMPDEST PUSH3 0x890 PUSH1 0x20 DUP4 ADD DUP6 PUSH3 0x85B JUMP JUMPDEST PUSH3 0x89F PUSH1 0x40 DUP4 ADD DUP5 PUSH3 0x85B JUMP JUMPDEST SWAP5 SWAP4 POP POP POP POP JUMP JUMPDEST PUSH0 PUSH1 0x20 DUP3 ADD SWAP1 POP PUSH3 0x8BC PUSH0 DUP4 ADD DUP5 PUSH3 0x85B JUMP JUMPDEST SWAP3 SWAP2 POP POP JUMP JUMPDEST PUSH2 0x14CF DUP1 PUSH3 0x8D0 PUSH0 CODECOPY PUSH0 RETURN INVALID PUSH1 0x80 PUSH1 0x40 MSTORE CALLVALUE DUP1 ISZERO PUSH2 0xF JUMPI PUSH0 DUP1 REVERT JUMPDEST POP PUSH1 0x4 CALLDATASIZE LT PUSH2 0x109 JUMPI PUSH0 CALLDATALOAD PUSH1 0xE0 SHR DUP1 PUSH4 0x715018A6 GT PUSH2 0xA0 JUMPI DUP1 PUSH4 0xA457C2D7 GT PUSH2 0x6F JUMPI DUP1 PUSH4 0xA457C2D7 EQ PUSH2 0x2A5 JUMPI DUP1 PUSH4 0xA9059CBB EQ PUSH2 0x2D5 JUMPI DUP1 PUSH4 0xCBDD69B5 EQ PUSH2 0x305 JUMPI DUP1 PUSH4 0xDD62ED3E EQ PUSH2 0x323 JUMPI DUP1 PUSH4 0xF2FDE38B EQ PUSH2 0x353 JUMPI PUSH2 0x109 JUMP JUMPDEST DUP1 PUSH4 0x715018A6 EQ PUSH2 0x243 JUMPI DUP1 PUSH4 0x8DA5CB5B EQ PUSH2 0x24D JUMPI DUP1 PUSH4 0x95D89B41 EQ PUSH2 0x26B JUMPI DUP1 PUSH4 0x9DC29FAC EQ PUSH2 0x289 JUMPI PUSH2 0x109 JUMP JUMPDEST DUP1 PUSH4 0x313CE567 GT PUSH2 0xDC JUMPI DUP1 PUSH4 0x313CE567 EQ PUSH2 0x1A9 JUMPI DUP1 PUSH4 0x39509351 EQ PUSH2 0x1C7 JUMPI DUP1 PUSH4 0x40C10F19 EQ PUSH2 0x1F7 JUMPI DUP1 PUSH4 0x70A08231 EQ PUSH2 0x213 JUMPI PUSH2 0x109 JUMP JUMPDEST DUP1 PUSH4 0x6FDDE03 EQ PUSH2 0x10D JUMPI DUP1 PUSH4 0x95EA7B3 EQ PUSH2 0x12B JUMPI DUP1 PUSH4 0x18160DDD EQ PUSH2 0x15B JUMPI DUP1 PUSH4 0x23B872DD EQ PUSH2 0x179 JUMPI JUMPDEST PUSH0 DUP1 REVERT JUMPDEST PUSH2 0x115 PUSH2 0x36F JUMP JUMPDEST PUSH1 0x40 MLOAD PUSH2 0x122 SWAP2 SWAP1 PUSH2 0x1078 JUMP JUMPDEST PUSH1 0x40 MLOAD DUP1 SWAP2 SUB SWAP1 RETURN JUMPDEST PUSH2 0x145 PUSH1 0x4 DUP1 CALLDATASIZE SUB DUP2 ADD SWAP1 PUSH2 0x140 SWAP2 SWAP1 PUSH2 0x1129 JUMP JUMPDEST PUSH2 0x3FF JUMP JUMPDEST PUSH1 0x40 MLOAD PUSH2 0x152 SWAP2 SWAP1 PUSH2 0x1181 JUMP JUMPDEST PUSH1 0x40 MLOAD DUP1 SWAP2 SUB SWAP1 RETURN JUMPDEST PUSH2 0x163 PUSH2 0x421 JUMP JUMPDEST PUSH1 0x40 MLOAD PUSH2 0x170 SWAP2 SWAP1 PUSH2 0x11A9 JUMP JUMPDEST PUSH1 0x40 MLOAD DUP1 SWAP2 SUB SWAP1 RETURN JUMPDEST PUSH2 0x193 PUSH1 0x4 DUP1 CALLDATASIZE SUB DUP2 ADD SWAP1 PUSH2 0x18E SWAP2 SWAP1 PUSH2 0x11C2 JUMP JUMPDEST PUSH2 0x42A JUMP JUMPDEST PUSH1 0x40 MLOAD PUSH2 0x1A0 SWAP2 SWAP1 PUSH2 0x1181 JUMP JUMPDEST PUSH1 0x40 MLOAD DUP1 SWAP2 SUB SWAP1 RETURN JUMPDEST PUSH2 0x1B1 PUSH2 0x458 JUMP JUMPDEST PUSH1 0x40 MLOAD PUSH2 0x1BE SWAP2 SWAP1 PUSH2 0x122D JUMP JUMPDEST PUSH1 0x40 MLOAD DUP1 SWAP2 SUB SWAP1 RETURN JUMPDEST PUSH2 0x1E1 PUSH1 0x4 DUP1 CALLDATASIZE SUB DUP2 ADD SWAP1 PUSH2 0x1DC SWAP2 SWAP1 PUSH2 0x1129 JUMP JUMPDEST PUSH2 0x460 JUMP JUMPDEST PUSH1 0x40 MLOAD PUSH2 0x1EE SWAP2 SWAP1 PUSH2 0x1181 JUMP JUMPDEST PUSH1 0x40 MLOAD DUP1 SWAP2 SUB SWAP1 RETURN JUMPDEST PUSH2 0x211 PUSH1 0x4 DUP1 CALLDATASIZE SUB DUP2 ADD SWAP1 PUSH2 0x20C SWAP2 SWAP1 PUSH2 0x1129 JUMP JUMPDEST PUSH2 0x496 JUMP JUMPDEST STOP JUMPDEST PUSH2 0x22D PUSH1 0x4 DUP1 CALLDATASIZE SUB DUP2 ADD SWAP1 PUSH2 0x228 SWAP2 SWAP1 PUSH2 0x1246 JUMP JUMPDEST PUSH2 0x55C JUMP JUMPDEST PUSH1 0x40 MLOAD PUSH2 0x23A SWAP2 SWAP1 PUSH2 0x11A9 JUMP JUMPDEST PUSH1 0x40 MLOAD DUP1 SWAP2 SUB SWAP1 RETURN JUMPDEST PUSH2 0x24B PUSH2 0x5A1 JUMP JUMPDEST STOP JUMPDEST PUSH2 0x255 PUSH2 0x5B4 JUMP JUMPDEST PUSH1 0x40 MLOAD PUSH2 0x262 SWAP2 SWAP1 PUSH2 0x1280 JUMP JUMPDEST PUSH1 0x40 MLOAD DUP1 SWAP2 SUB SWAP1 RETURN JUMPDEST PUSH2 0x273 PUSH2 0x5DC JUMP JUMPDEST PUSH1 0x40 MLOAD PUSH2 0x280 SWAP2 SWAP1 PUSH2 0x1078 JUMP JUMPDEST PUSH1 0x40 MLOAD DUP1 SWAP2 SUB SWAP1 RETURN JUMPDEST PUSH2 0x2A3 PUSH1 0x4 DUP1 CALLDATASIZE SUB DUP2 ADD SWAP1 PUSH2 0x29E SWAP2 SWAP1 PUSH2 0x1129 JUMP JUMPDEST PUSH2 0x66C JUMP JUMPDEST STOP JUMPDEST PUSH2 0x2BF PUSH1 0x4 DUP1 CALLDATASIZE SUB DUP2 ADD SWAP1 PUSH2 0x2BA SWAP2 SWAP1 PUSH2 0x1129 JUMP JUMPDEST PUSH2 0x67A JUMP JUMPDEST PUSH1 0x40 MLOAD PUSH2 0x2CC SWAP2 SWAP1 PUSH2 0x1181 JUMP JUMPDEST PUSH1 0x40 MLOAD DUP1 SWAP2 SUB SWAP1 RETURN JUMPDEST PUSH2 0x2EF PUSH1 0x4 DUP1 CALLDATASIZE SUB DUP2 ADD SWAP1 PUSH2 0x2EA SWAP2 SWAP1 PUSH2 0x1129 JUMP JUMPDEST PUSH2 0x6F5 JUMP JUMPDEST PUSH1 0x40 MLOAD PUSH2 0x2FC SWAP2 SWAP1 PUSH2 0x1181 JUMP JUMPDEST PUSH1 0x40 MLOAD DUP1 SWAP2 SUB SWAP1 RETURN JUMPDEST PUSH2 0x30D PUSH2 0x717 JUMP JUMPDEST PUSH1 0x40 MLOAD PUSH2 0x31A SWAP2 SWAP1 PUSH2 0x11A9 JUMP JUMPDEST PUSH1 0x40 MLOAD DUP1 SWAP2 SUB SWAP1 RETURN JUMPDEST PUSH2 0x33D PUSH1 0x4 DUP1 CALLDATASIZE SUB DUP2 ADD SWAP1 PUSH2 0x338 SWAP2 SWAP1 PUSH2 0x1299 JUMP JUMPDEST PUSH2 0x71D JUMP JUMPDEST PUSH1 0x40 MLOAD PUSH2 0x34A SWAP2 SWAP1 PUSH2 0x11A9 JUMP JUMPDEST PUSH1 0x40 MLOAD DUP1 SWAP2 SUB SWAP1 RETURN JUMPDEST PUSH2 0x36D PUSH1 0x4 DUP1 CALLDATASIZE SUB DUP2 ADD SWAP1 PUSH2 0x368 SWAP2 SWAP1 PUSH2 0x1246 JUMP JUMPDEST PUSH2 0x79F JUMP JUMPDEST STOP JUMPDEST PUSH1 0x60 PUSH1 0x3 DUP1 SLOAD PUSH2 0x37E SWAP1 PUSH2 0x1304 JUMP JUMPDEST DUP1 PUSH1 0x1F ADD PUSH1 0x20 DUP1 SWAP2 DIV MUL PUSH1 0x20 ADD PUSH1 0x40 MLOAD SWAP1 DUP2 ADD PUSH1 0x40 MSTORE DUP1 SWAP3 SWAP2 SWAP1 DUP2 DUP2 MSTORE PUSH1 0x20 ADD DUP3 DUP1 SLOAD PUSH2 0x3AA SWAP1 PUSH2 0x1304 JUMP JUMPDEST DUP1 ISZERO PUSH2 0x3F5 JUMPI DUP1 PUSH1 0x1F LT PUSH2 0x3CC JUMPI PUSH2 0x100 DUP1 DUP4 SLOAD DIV MUL DUP4 MSTORE SWAP2 PUSH1 0x20 ADD SWAP2 PUSH2 0x3F5 JUMP JUMPDEST DUP3 ADD SWAP2 SWAP1 PUSH0 MSTORE PUSH1 0x20 PUSH0 KECCAK256 SWAP1 JUMPDEST DUP2 SLOAD DUP2 MSTORE SWAP1 PUSH1 0x1 ADD SWAP1 PUSH1 0x20 ADD DUP1 DUP4 GT PUSH2 0x3D8 JUMPI DUP3 SWAP1 SUB PUSH1 0x1F AND DUP3 ADD SWAP2 JUMPDEST POP POP POP POP POP SWAP1 POP SWAP1 JUMP JUMPDEST PUSH0 DUP1 PUSH2 0x409 PUSH2 0x823 JUMP JUMPDEST SWAP1 POP PUSH2 0x416 DUP2 DUP6 DUP6 PUSH2 0x82A JUMP JUMPDEST PUSH1 0x1 SWAP2 POP POP SWAP3 SWAP2 POP POP JUMP JUMPDEST PUSH0 PUSH1 0x2 SLOAD SWAP1 POP SWAP1 JUMP JUMPDEST PUSH0 DUP1 PUSH2 0x434 PUSH2 0x823 JUMP JUMPDEST SWAP1 POP PUSH2 0x441 DUP6 DUP3 DUP6 PUSH2 0x83C JUMP JUMPDEST PUSH2 0x44C DUP6 DUP6 DUP6 PUSH2 0x8CE JUMP JUMPDEST PUSH1 0x1 SWAP2 POP POP SWAP4 SWAP3 POP POP POP JUMP JUMPDEST PUSH0 PUSH1 0x12 SWAP1 POP SWAP1 JUMP JUMPDEST PUSH0 DUP1 PUSH2 0x46A PUSH2 0x823 JUMP JUMPDEST SWAP1 POP PUSH2 0x48B DUP2 DUP6 DUP6 PUSH2 0x47C DUP6 DUP10 PUSH2 0x71D JUMP JUMPDEST PUSH2 0x486 SWAP2 SWAP1 PUSH2 0x1361 JUMP JUMPDEST PUSH2 0x82A JUMP JUMPDEST PUSH1 0x1 SWAP2 POP POP SWAP3 SWAP2 POP POP JUMP JUMPDEST PUSH2 0x49E PUSH2 0x9BE JUMP JUMPDEST PUSH0 PUSH20 0xFFFFFFFFFFFFFFFFFFFFFFFFFFFFFFFFFFFFFFFF AND DUP3 PUSH20 0xFFFFFFFFFFFFFFFFFFFFFFFFFFFFFFFFFFFFFFFF AND SUB PUSH2 0x50C JUMPI PUSH1 0x40 MLOAD PUSH32 0x8C379A000000000000000000000000000000000000000000000000000000000 DUP2 MSTORE PUSH1 0x4 ADD PUSH2 0x503 SWAP1 PUSH2 0x13DE JUMP JUMPDEST PUSH1 0x40 MLOAD DUP1 SWAP2 SUB SWAP1 REVERT JUMPDEST PUSH0 DUP2 GT PUSH2 0x54E JUMPI PUSH1 0x40 MLOAD PUSH32 0x8C379A000000000000000000000000000000000000000000000000000000000 DUP2 MSTORE PUSH1 0x4 ADD PUSH2 0x545 SWAP1 PUSH2 0x1446 JUMP JUMPDEST PUSH1 0x40 MLOAD DUP1 SWAP2 SUB SWAP1 REVERT JUMPDEST PUSH2 0x558 DUP3 DUP3 PUSH2 0xA45 JUMP JUMPDEST POP POP JUMP JUMPDEST PUSH0 DUP1 PUSH0 DUP4 PUSH20 0xFFFFFFFFFFFFFFFFFFFFFFFFFFFFFFFFFFFFFFFF AND PUSH20 0xFFFFFFFFFFFFFFFFFFFFFFFFFFFFFFFFFFFFFFFF AND DUP2 MSTORE PUSH1 0x20 ADD SWAP1 DUP2 MSTORE PUSH1 0x20 ADD PUSH0 KECCAK256 SLOAD SWAP1 POP SWAP2 SWAP1 POP JUMP JUMPDEST PUSH2 0x5A9 PUSH2 0x9BE JUMP JUMPDEST PUSH2 0x5B2 PUSH0 PUSH2 0xAC4 JUMP JUMPDEST JUMP JUMPDEST PUSH0 PUSH1 0x5 PUSH0 SWAP1 SLOAD SWAP1 PUSH2 0x100 EXP SWAP1 DIV PUSH20 0xFFFFFFFFFFFFFFFFFFFFFFFFFFFFFFFFFFFFFFFF AND SWAP1 POP SWAP1 JUMP JUMPDEST PUSH1 0x60 PUSH1 0x4 DUP1 SLOAD PUSH2 0x5EB SWAP1 PUSH2 0x1304 JUMP JUMPDEST DUP1 PUSH1 0x1F ADD PUSH1 0x20 DUP1 SWAP2 DIV MUL PUSH1 0x20 ADD PUSH1 0x40 MLOAD SWAP1 DUP2 ADD PUSH1 0x40 MSTORE DUP1 SWAP3 SWAP2 SWAP1 DUP2 DUP2 MSTORE PUSH1 0x20 ADD DUP3 DUP1 SLOAD PUSH2 0x617 SWAP1 PUSH2 0x1304 JUMP JUMPDEST DUP1 ISZERO PUSH2 0x662 JUMPI DUP1 PUSH1 0x1F LT PUSH2 0x639 JUMPI PUSH2 0x100 DUP1 DUP4 SLOAD DIV MUL DUP4 MSTORE SWAP2 PUSH1 0x20 ADD SWAP2 PUSH2 0x662 JUMP JUMPDEST DUP3 ADD SWAP2 SWAP1 PUSH0 MSTORE PUSH1 0x20 PUSH0 KECCAK256 SWAP1 JUMPDEST DUP2 SLOAD DUP2 MSTORE SWAP1 PUSH1 0x1 ADD SWAP1 PUSH1 0x20 ADD DUP1 DUP4 GT PUSH2 0x645 JUMPI DUP3 SWAP1 SUB PUSH1 0x1F AND DUP3 ADD SWAP2 JUMPDEST POP POP POP POP POP SWAP1 POP SWAP1 JUMP JUMPDEST PUSH2 0x676 DUP3 DUP3 PUSH2 0xB87 JUMP JUMPDEST POP POP JUMP JUMPDEST PUSH0 DUP1 PUSH2 0x684 PUSH2 0x823 JUMP JUMPDEST SWAP1 POP PUSH0 PUSH2 0x691 DUP3 DUP7 PUSH2 0x71D JUMP JUMPDEST SWAP1 POP DUP4 DUP2 LT ISZERO PUSH2 0x6DC JUMPI DUP5 DUP2 DUP6 PUSH1 0x40 MLOAD PUSH32 0xA60F030C00000000000000000000000000000000000000000000000000000000 DUP2 MSTORE PUSH1 0x4 ADD PUSH2 0x6D3 SWAP4 SWAP3 SWAP2 SWAP1 PUSH2 0x1464 JUMP JUMPDEST PUSH1 0x40 MLOAD DUP1 SWAP2 SUB SWAP1 REVERT JUMPDEST PUSH2 0x6E9 DUP3 DUP7 DUP7 DUP5 SUB PUSH2 0x82A JUMP JUMPDEST PUSH1 0x1 SWAP3 POP POP POP SWAP3 SWAP2 POP POP JUMP JUMPDEST PUSH0 DUP1 PUSH2 0x6FF PUSH2 0x823 JUMP JUMPDEST SWAP1 POP PUSH2 0x70C DUP2 DUP6 DUP6 PUSH2 0x8CE JUMP JUMPDEST PUSH1 0x1 SWAP2 POP POP SWAP3 SWAP2 POP POP JUMP JUMPDEST PUSH1 0x6 SLOAD DUP2 JUMP JUMPDEST PUSH0 PUSH1 0x1 PUSH0 DUP5 PUSH20 0xFFFFFFFFFFFFFFFFFFFFFFFFFFFFFFFFFFFFFFFF AND PUSH20 0xFFFFFFFFFFFFFFFFFFFFFFFFFFFFFFFFFFFFFFFF AND DUP2 MSTORE PUSH1 0x20 ADD SWAP1 DUP2 MSTORE PUSH1 0x20 ADD PUSH0 KECCAK256 PUSH0 DUP4 PUSH20 0xFFFFFFFFFFFFFFFFFFFFFFFFFFFFFFFFFFFFFFFF AND PUSH20 0xFFFFFFFFFFFFFFFFFFFFFFFFFFFFFFFFFFFFFFFF AND DUP2 MSTORE PUSH1 0x20 ADD SWAP1 DUP2 MSTORE PUSH1 0x20 ADD PUSH0 KECCAK256 SLOAD SWAP1 POP SWAP3 SWAP2 POP POP JUMP JUMPDEST PUSH2 0x7A7 PUSH2 0x9BE JUMP JUMPDEST PUSH0 PUSH20 0xFFFFFFFFFFFFFFFFFFFFFFFFFFFFFFFFFFFFFFFF AND DUP2 PUSH20 0xFFFFFFFFFFFFFFFFFFFFFFFFFFFFFFFFFFFFFFFF AND SUB PUSH2 0x817 JUMPI PUSH0 PUSH1 0x40 MLOAD PUSH32 0x1E4FBDF700000000000000000000000000000000000000000000000000000000 DUP2 MSTORE PUSH1 0x4 ADD PUSH2 0x80E SWAP2 SWAP1 PUSH2 0x1280 JUMP JUMPDEST PUSH1 0x40 MLOAD DUP1 SWAP2 SUB SWAP1 REVERT JUMPDEST PUSH2 0x820 DUP2 PUSH2 0xAC4 JUMP JUMPDEST POP JUMP JUMPDEST PUSH0 CALLER SWAP1 POP SWAP1 JUMP JUMPDEST PUSH2 0x837 DUP4 DUP4 DUP4 PUSH1 0x1 PUSH2 0xC06 JUMP JUMPDEST POP POP POP JUMP JUMPDEST PUSH0 PUSH2 0x847 DUP5 DUP5 PUSH2 0x71D JUMP JUMPDEST SWAP1 POP PUSH32 0xFFFFFFFFFFFFFFFFFFFFFFFFFFFFFFFFFFFFFFFFFFFFFFFFFFFFFFFFFFFFFFFF DUP2 EQ PUSH2 0x8C8 JUMPI DUP2 DUP2 LT ISZERO PUSH2 0x8B9 JUMPI DUP3 DUP2 DUP4 PUSH1 0x40 MLOAD PUSH32 0xFB8F41B200000000000000000000000000000000000000000000000000000000 DUP2 MSTORE PUSH1 0x4 ADD PUSH2 0x8B0 SWAP4 SWAP3 SWAP2 SWAP1 PUSH2 0x1464 JUMP JUMPDEST PUSH1 0x40 MLOAD DUP1 SWAP2 SUB SWAP1 REVERT JUMPDEST PUSH2 0x8C7 DUP5 DUP5 DUP5 DUP5 SUB PUSH0 PUSH2 0xC06 JUMP JUMPDEST JUMPDEST POP POP POP POP JUMP JUMPDEST PUSH0 PUSH20 0xFFFFFFFFFFFFFFFFFFFFFFFFFFFFFFFFFFFFFFFF AND DUP4 PUSH20 0xFFFFFFFFFFFFFFFFFFFFFFFFFFFFFFFFFFFFFFFF AND SUB PUSH2 0x93E JUMPI PUSH0 PUSH1 0x40 MLOAD PUSH32 0x96C6FD1E00000000000000000000000000000000000000000000000000000000 DUP2 MSTORE PUSH1 0x4 ADD PUSH2 0x935 SWAP2 SWAP1 PUSH2 0x1280 JUMP JUMPDEST PUSH1 0x40 MLOAD DUP1 SWAP2 SUB SWAP1 REVERT JUMPDEST PUSH0 PUSH20 0xFFFFFFFFFFFFFFFFFFFFFFFFFFFFFFFFFFFFFFFF AND DUP3 PUSH20 0xFFFFFFFFFFFFFFFFFFFFFFFFFFFFFFFFFFFFFFFF AND SUB PUSH2 0x9AE JUMPI PUSH0 PUSH1 0x40 MLOAD PUSH32 0xEC442F0500000000000000000000000000000000000000000000000000000000 DUP2 MSTORE PUSH1 0x4 ADD PUSH2 0x9A5 SWAP2 SWAP1 PUSH2 0x1280 JUMP JUMPDEST PUSH1 0x40 MLOAD DUP1 SWAP2 SUB SWAP1 REVERT JUMPDEST PUSH2 0x9B9 DUP4 DUP4 DUP4 PUSH2 0xDD5 JUMP JUMPDEST POP POP POP JUMP JUMPDEST PUSH2 0x9C6 PUSH2 0x823 JUMP JUMPDEST PUSH20 0xFFFFFFFFFFFFFFFFFFFFFFFFFFFFFFFFFFFFFFFF AND PUSH2 0x9E4 PUSH2 0x5B4 JUMP JUMPDEST PUSH20 0xFFFFFFFFFFFFFFFFFFFFFFFFFFFFFFFFFFFFFFFF AND EQ PUSH2 0xA43 JUMPI PUSH2 0xA07 PUSH2 0x823 JUMP JUMPDEST PUSH1 0x40 MLOAD PUSH32 0x118CDAA700000000000000000000000000000000000000000000000000000000 DUP2 MSTORE PUSH1 0x4 ADD PUSH2 0xA3A SWAP2 SWAP1 PUSH2 0x1280 JUMP JUMPDEST PUSH1 0x40 MLOAD DUP1 SWAP2 SUB SWAP1 REVERT JUMPDEST JUMP JUMPDEST PUSH0 PUSH20 0xFFFFFFFFFFFFFFFFFFFFFFFFFFFFFFFFFFFFFFFF AND DUP3 PUSH20 0xFFFFFFFFFFFFFFFFFFFFFFFFFFFFFFFFFFFFFFFF AND SUB PUSH2 0xAB5 JUMPI PUSH0 PUSH1 0x40 MLOAD PUSH32 0xEC442F0500000000000000000000000000000000000000000000000000000000 DUP2 MSTORE PUSH1 0x4 ADD PUSH2 0xAAC SWAP2 SWAP1 PUSH2 0x1280 JUMP JUMPDEST PUSH1 0x40 MLOAD DUP1 SWAP2 SUB SWAP1 REVERT JUMPDEST PUSH2 0xAC0 PUSH0 DUP4 DUP4 PUSH2 0xDD5 JUMP JUMPDEST POP POP JUMP JUMPDEST PUSH0 PUSH1 0x5 PUSH0 SWAP1 SLOAD SWAP1 PUSH2 0x100 EXP SWAP1 DIV PUSH20 0xFFFFFFFFFFFFFFFFFFFFFFFFFFFFFFFFFFFFFFFF AND SWAP1 POP DUP2 PUSH1 0x5 PUSH0 PUSH2 0x100 EXP DUP2 SLOAD DUP2 PUSH20 0xFFFFFFFFFFFFFFFFFFFFFFFFFFFFFFFFFFFFFFFF MUL NOT AND SWAP1 DUP4 PUSH20 0xFFFFFFFFFFFFFFFFFFFFFFFFFFFFFFFFFFFFFFFF AND MUL OR SWAP1 SSTORE POP DUP2 PUSH20 0xFFFFFFFFFFFFFFFFFFFFFFFFFFFFFFFFFFFFFFFF AND DUP2 PUSH20 0xFFFFFFFFFFFFFFFFFFFFFFFFFFFFFFFFFFFFFFFF AND PUSH32 0x8BE0079C531659141344CD1FD0A4F28419497F9722A3DAAFE3B4186F6B6457E0 PUSH1 0x40 MLOAD PUSH1 0x40 MLOAD DUP1 SWAP2 SUB SWAP1 LOG3 POP POP JUMP JUMPDEST PUSH0 PUSH20 0xFFFFFFFFFFFFFFFFFFFFFFFFFFFFFFFFFFFFFFFF AND DUP3 PUSH20 0xFFFFFFFFFFFFFFFFFFFFFFFFFFFFFFFFFFFFFFFF AND SUB PUSH2 0xBF7 JUMPI PUSH0 PUSH1 0x40 MLOAD PUSH32 0x96C6FD1E00000000000000000000000000000000000000000000000000000000 DUP2 MSTORE PUSH1 0x4 ADD PUSH2 0xBEE SWAP2 SWAP1 PUSH2 0x1280 JUMP JUMPDEST PUSH1 0x40 MLOAD DUP1 SWAP2 SUB SWAP1 REVERT JUMPDEST PUSH2 0xC02 DUP3 PUSH0 DUP4 PUSH2 0xDD5 JUMP JUMPDEST POP POP JUMP JUMPDEST PUSH0 PUSH20 0xFFFFFFFFFFFFFFFFFFFFFFFFFFFFFFFFFFFFFFFF AND DUP5 PUSH20 0xFFFFFFFFFFFFFFFFFFFFFFFFFFFFFFFFFFFFFFFF AND SUB PUSH2 0xC76 JUMPI PUSH0 PUSH1 0x40 MLOAD PUSH32 0xE602DF0500000000000000000000000000000000000000000000000000000000 DUP2 MSTORE PUSH1 0x4 ADD PUSH2 0xC6D SWAP2 SWAP1 PUSH2 0x1280 JUMP JUMPDEST PUSH1 0x40 MLOAD DUP1 SWAP2 SUB SWAP1 REVERT JUMPDEST PUSH0 PUSH20 0xFFFFFFFFFFFFFFFFFFFFFFFFFFFFFFFFFFFFFFFF AND DUP4 PUSH20 0xFFFFFFFFFFFFFFFFFFFFFFFFFFFFFFFFFFFFFFFF AND SUB PUSH2 0xCE6 JUMPI PUSH0 PUSH1 0x40 MLOAD PUSH32 0x94280D6200000000000000000000000000000000000000000000000000000000 DUP2 MSTORE PUSH1 0x4 ADD PUSH2 0xCDD SWAP2 SWAP1 PUSH2 0x1280 JUMP JUMPDEST PUSH1 0x40 MLOAD DUP1 SWAP2 SUB SWAP1 REVERT JUMPDEST DUP2 PUSH1 0x1 PUSH0 DUP7 PUSH20 0xFFFFFFFFFFFFFFFFFFFFFFFFFFFFFFFFFFFFFFFF AND PUSH20 0xFFFFFFFFFFFFFFFFFFFFFFFFFFFFFFFFFFFFFFFF AND DUP2 MSTORE PUSH1 0x20 ADD SWAP1 DUP2 MSTORE PUSH1 0x20 ADD PUSH0 KECCAK256 PUSH0 DUP6 PUSH20 0xFFFFFFFFFFFFFFFFFFFFFFFFFFFFFFFFFFFFFFFF AND PUSH20 0xFFFFFFFFFFFFFFFFFFFFFFFFFFFFFFFFFFFFFFFF AND DUP2 MSTORE PUSH1 0x20 ADD SWAP1 DUP2 MSTORE PUSH1 0x20 ADD PUSH0 KECCAK256 DUP2 SWAP1 SSTORE POP DUP1 ISZERO PUSH2 0xDCF JUMPI DUP3 PUSH20 0xFFFFFFFFFFFFFFFFFFFFFFFFFFFFFFFFFFFFFFFF AND DUP5 PUSH20 0xFFFFFFFFFFFFFFFFFFFFFFFFFFFFFFFFFFFFFFFF AND PUSH32 0x8C5BE1E5EBEC7D5BD14F71427D1E84F3DD0314C0F7B2291E5B200AC8C7C3B925 DUP5 PUSH1 0x40 MLOAD PUSH2 0xDC6 SWAP2 SWAP1 PUSH2 0x11A9 JUMP JUMPDEST PUSH1 0x40 MLOAD DUP1 SWAP2 SUB SWAP1 LOG3 JUMPDEST POP POP POP POP JUMP JUMPDEST PUSH0 PUSH20 0xFFFFFFFFFFFFFFFFFFFFFFFFFFFFFFFFFFFFFFFF AND DUP4 PUSH20 0xFFFFFFFFFFFFFFFFFFFFFFFFFFFFFFFFFFFFFFFF AND SUB PUSH2 0xE25 JUMPI DUP1 PUSH1 0x2 PUSH0 DUP3 DUP3 SLOAD PUSH2 0xE19 SWAP2 SWAP1 PUSH2 0x1361 JUMP JUMPDEST SWAP3 POP POP DUP2 SWAP1 SSTORE POP PUSH2 0xEF3 JUMP JUMPDEST PUSH0 DUP1 PUSH0 DUP6 PUSH20 0xFFFFFFFFFFFFFFFFFFFFFFFFFFFFFFFFFFFFFFFF AND PUSH20 0xFFFFFFFFFFFFFFFFFFFFFFFFFFFFFFFFFFFFFFFF AND DUP2 MSTORE PUSH1 0x20 ADD SWAP1 DUP2 MSTORE PUSH1 0x20 ADD PUSH0 KECCAK256 SLOAD SWAP1 POP DUP2 DUP2 LT ISZERO PUSH2 0xEAE JUMPI DUP4 DUP2 DUP4 PUSH1 0x40 MLOAD PUSH32 0xE450D38C00000000000000000000000000000000000000000000000000000000 DUP2 MSTORE PUSH1 0x4 ADD PUSH2 0xEA5 SWAP4 SWAP3 SWAP2 SWAP1 PUSH2 0x1464 JUMP JUMPDEST PUSH1 0x40 MLOAD DUP1 SWAP2 SUB SWAP1 REVERT JUMPDEST DUP2 DUP2 SUB PUSH0 DUP1 DUP7 PUSH20 0xFFFFFFFFFFFFFFFFFFFFFFFFFFFFFFFFFFFFFFFF AND PUSH20 0xFFFFFFFFFFFFFFFFFFFFFFFFFFFFFFFFFFFFFFFF AND DUP2 MSTORE PUSH1 0x20 ADD SWAP1 DUP2 MSTORE PUSH1 0x20 ADD PUSH0 KECCAK256 DUP2 SWAP1 SSTORE POP POP JUMPDEST PUSH0 PUSH20 0xFFFFFFFFFFFFFFFFFFFFFFFFFFFFFFFFFFFFFFFF AND DUP3 PUSH20 0xFFFFFFFFFFFFFFFFFFFFFFFFFFFFFFFFFFFFFFFF AND SUB PUSH2 0xF3A JUMPI DUP1 PUSH1 0x2 PUSH0 DUP3 DUP3 SLOAD SUB SWAP3 POP POP DUP2 SWAP1 SSTORE POP PUSH2 0xF84 JUMP JUMPDEST DUP1 PUSH0 DUP1 DUP5 PUSH20 0xFFFFFFFFFFFFFFFFFFFFFFFFFFFFFFFFFFFFFFFF AND PUSH20 0xFFFFFFFFFFFFFFFFFFFFFFFFFFFFFFFFFFFFFFFF AND DUP2 MSTORE PUSH1 0x20 ADD SWAP1 DUP2 MSTORE PUSH1 0x20 ADD PUSH0 KECCAK256 PUSH0 DUP3 DUP3 SLOAD ADD SWAP3 POP POP DUP2 SWAP1 SSTORE POP JUMPDEST DUP2 PUSH20 0xFFFFFFFFFFFFFFFFFFFFFFFFFFFFFFFFFFFFFFFF AND DUP4 PUSH20 0xFFFFFFFFFFFFFFFFFFFFFFFFFFFFFFFFFFFFFFFF AND PUSH32 0xDDF252AD1BE2C89B69C2B068FC378DAA952BA7F163C4A11628F55A4DF523B3EF DUP4 PUSH1 0x40 MLOAD PUSH2 0xFE1 SWAP2 SWAP1 PUSH2 0x11A9 JUMP JUMPDEST PUSH1 0x40 MLOAD DUP1 SWAP2 SUB SWAP1 LOG3 POP POP POP JUMP JUMPDEST PUSH0 DUP2 MLOAD SWAP1 POP SWAP2 SWAP1 POP JUMP JUMPDEST PUSH0 DUP3 DUP3 MSTORE PUSH1 0x20 DUP3 ADD SWAP1 POP SWAP3 SWAP2 POP POP JUMP JUMPDEST PUSH0 JUMPDEST DUP4 DUP2 LT ISZERO PUSH2 0x1025 JUMPI DUP1 DUP3 ADD MLOAD DUP2 DUP5 ADD MSTORE PUSH1 0x20 DUP2 ADD SWAP1 POP PUSH2 0x100A JUMP JUMPDEST PUSH0 DUP5 DUP5 ADD MSTORE POP POP POP POP JUMP JUMPDEST PUSH0 PUSH1 0x1F NOT PUSH1 0x1F DUP4 ADD AND SWAP1 POP SWAP2 SWAP1 POP JUMP JUMPDEST PUSH0 PUSH2 0x104A DUP3 PUSH2 0xFEE JUMP JUMPDEST PUSH2 0x1054 DUP2 DUP6 PUSH2 0xFF8 JUMP JUMPDEST SWAP4 POP PUSH2 0x1064 DUP2 DUP6 PUSH1 0x20 DUP7 ADD PUSH2 0x1008 JUMP JUMPDEST PUSH2 0x106D DUP2 PUSH2 0x1030 JUMP JUMPDEST DUP5 ADD SWAP2 POP POP SWAP3 SWAP2 POP POP JUMP JUMPDEST PUSH0 PUSH1 0x20 DUP3 ADD SWAP1 POP DUP2 DUP2 SUB PUSH0 DUP4 ADD MSTORE PUSH2 0x1090 DUP2 DUP5 PUSH2 0x1040 JUMP JUMPDEST SWAP1 POP SWAP3 SWAP2 POP POP JUMP JUMPDEST PUSH0 DUP1 REVERT JUMPDEST PUSH0 PUSH20 0xFFFFFFFFFFFFFFFFFFFFFFFFFFFFFFFFFFFFFFFF DUP3 AND SWAP1 POP SWAP2 SWAP1 POP JUMP JUMPDEST PUSH0 PUSH2 0x10C5 DUP3 PUSH2 0x109C JUMP JUMPDEST SWAP1 POP SWAP2 SWAP1 POP JUMP JUMPDEST PUSH2 0x10D5 DUP2 PUSH2 0x10BB JUMP JUMPDEST DUP2 EQ PUSH2 0x10DF JUMPI PUSH0 DUP1 REVERT JUMPDEST POP JUMP JUMPDEST PUSH0 DUP2 CALLDATALOAD SWAP1 POP PUSH2 0x10F0 DUP2 PUSH2 0x10CC JUMP JUMPDEST SWAP3 SWAP2 POP POP JUMP JUMPDEST PUSH0 DUP2 SWAP1 POP SWAP2 SWAP1 POP JUMP JUMPDEST PUSH2 0x1108 DUP2 PUSH2 0x10F6 JUMP JUMPDEST DUP2 EQ PUSH2 0x1112 JUMPI PUSH0 DUP1 REVERT JUMPDEST POP JUMP JUMPDEST PUSH0 DUP2 CALLDATALOAD SWAP1 POP PUSH2 0x1123 DUP2 PUSH2 0x10FF JUMP JUMPDEST SWAP3 SWAP2 POP POP JUMP JUMPDEST PUSH0 DUP1 PUSH1 0x40 DUP4 DUP6 SUB SLT ISZERO PUSH2 0x113F JUMPI PUSH2 0x113E PUSH2 0x1098 JUMP JUMPDEST JUMPDEST PUSH0 PUSH2 0x114C DUP6 DUP3 DUP7 ADD PUSH2 0x10E2 JUMP JUMPDEST SWAP3 POP POP PUSH1 0x20 PUSH2 0x115D DUP6 DUP3 DUP7 ADD PUSH2 0x1115 JUMP JUMPDEST SWAP2 POP POP SWAP3 POP SWAP3 SWAP1 POP JUMP JUMPDEST PUSH0 DUP2 ISZERO ISZERO SWAP1 POP SWAP2 SWAP1 POP JUMP JUMPDEST PUSH2 0x117B DUP2 PUSH2 0x1167 JUMP JUMPDEST DUP3 MSTORE POP POP JUMP JUMPDEST PUSH0 PUSH1 0x20 DUP3 ADD SWAP1 POP PUSH2 0x1194 PUSH0 DUP4 ADD DUP5 PUSH2 0x1172 JUMP JUMPDEST SWAP3 SWAP2 POP POP JUMP JUMPDEST PUSH2 0x11A3 DUP2 PUSH2 0x10F6 JUMP JUMPDEST DUP3 MSTORE POP POP JUMP JUMPDEST PUSH0 PUSH1 0x20 DUP3 ADD SWAP1 POP PUSH2 0x11BC PUSH0 DUP4 ADD DUP5 PUSH2 0x119A JUMP JUMPDEST SWAP3 SWAP2 POP POP JUMP JUMPDEST PUSH0 DUP1 PUSH0 PUSH1 0x60 DUP5 DUP7 SUB SLT ISZERO PUSH2 0x11D9 JUMPI PUSH2 0x11D8 PUSH2 0x1098 JUMP JUMPDEST JUMPDEST PUSH0 PUSH2 0x11E6 DUP7 DUP3 DUP8 ADD PUSH2 0x10E2 JUMP JUMPDEST SWAP4 POP POP PUSH1 0x20 PUSH2 0x11F7 DUP7 DUP3 DUP8 ADD PUSH2 0x10E2 JUMP JUMPDEST SWAP3 POP POP PUSH1 0x40 PUSH2 0x1208 DUP7 DUP3 DUP8 ADD PUSH2 0x1115 JUMP JUMPDEST SWAP2 POP POP SWAP3 POP SWAP3 POP SWAP3 JUMP JUMPDEST PUSH0 PUSH1 0xFF DUP3 AND SWAP1 POP SWAP2 SWAP1 POP JUMP JUMPDEST PUSH2 0x1227 DUP2 PUSH2 0x1212 JUMP JUMPDEST DUP3 MSTORE POP POP JUMP JUMPDEST PUSH0 PUSH1 0x20 DUP3 ADD SWAP1 POP PUSH2 0x1240 PUSH0 DUP4 ADD DUP5 PUSH2 0x121E JUMP JUMPDEST SWAP3 SWAP2 POP POP JUMP JUMPDEST PUSH0 PUSH1 0x20 DUP3 DUP5 SUB SLT ISZERO PUSH2 0x125B JUMPI PUSH2 0x125A PUSH2 0x1098 JUMP JUMPDEST JUMPDEST PUSH0 PUSH2 0x1268 DUP5 DUP3 DUP6 ADD PUSH2 0x10E2 JUMP JUMPDEST SWAP2 POP POP SWAP3 SWAP2 POP POP JUMP JUMPDEST PUSH2 0x127A DUP2 PUSH2 0x10BB JUMP JUMPDEST DUP3 MSTORE POP POP JUMP JUMPDEST PUSH0 PUSH1 0x20 DUP3 ADD SWAP1 POP PUSH2 0x1293 PUSH0 DUP4 ADD DUP5 PUSH2 0x1271 JUMP JUMPDEST SWAP3 SWAP2 POP POP JUMP JUMPDEST PUSH0 DUP1 PUSH1 0x40 DUP4 DUP6 SUB SLT ISZERO PUSH2 0x12AF JUMPI PUSH2 0x12AE PUSH2 0x1098 JUMP JUMPDEST JUMPDEST PUSH0 PUSH2 0x12BC DUP6 DUP3 DUP7 ADD PUSH2 0x10E2 JUMP JUMPDEST SWAP3 POP POP PUSH1 0x20 PUSH2 0x12CD DUP6 DUP3 DUP7 ADD PUSH2 0x10E2 JUMP JUMPDEST SWAP2 POP POP SWAP3 POP SWAP3 SWAP1 POP JUMP JUMPDEST PUSH32 0x4E487B7100000000000000000000000000000000000000000000000000000000 PUSH0 MSTORE PUSH1 0x22 PUSH1 0x4 MSTORE PUSH1 0x24 PUSH0 REVERT JUMPDEST PUSH0 PUSH1 0x2 DUP3 DIV SWAP1 POP PUSH1 0x1 DUP3 AND DUP1 PUSH2 0x131B JUMPI PUSH1 0x7F DUP3 AND SWAP2 POP JUMPDEST PUSH1 0x20 DUP3 LT DUP2 SUB PUSH2 0x132E JUMPI PUSH2 0x132D PUSH2 0x12D7 JUMP JUMPDEST JUMPDEST POP SWAP2 SWAP1 POP JUMP JUMPDEST PUSH32 0x4E487B7100000000000000000000000000000000000000000000000000000000 PUSH0 MSTORE PUSH1 0x11 PUSH1 0x4 MSTORE PUSH1 0x24 PUSH0 REVERT JUMPDEST PUSH0 PUSH2 0x136B DUP3 PUSH2 0x10F6 JUMP JUMPDEST SWAP2 POP PUSH2 0x1376 DUP4 PUSH2 0x10F6 JUMP JUMPDEST SWAP3 POP DUP3 DUP3 ADD SWAP1 POP DUP1 DUP3 GT ISZERO PUSH2 0x138E JUMPI PUSH2 0x138D PUSH2 0x1334 JUMP JUMPDEST JUMPDEST SWAP3 SWAP2 POP POP JUMP JUMPDEST PUSH32 0x496E76616C696420616464726573730000000000000000000000000000000000 PUSH0 DUP3 ADD MSTORE POP JUMP JUMPDEST PUSH0 PUSH2 0x13C8 PUSH1 0xF DUP4 PUSH2 0xFF8 JUMP JUMPDEST SWAP2 POP PUSH2 0x13D3 DUP3 PUSH2 0x1394 JUMP JUMPDEST PUSH1 0x20 DUP3 ADD SWAP1 POP SWAP2 SWAP1 POP JUMP JUMPDEST PUSH0 PUSH1 0x20 DUP3 ADD SWAP1 POP DUP2 DUP2 SUB PUSH0 DUP4 ADD MSTORE PUSH2 0x13F5 DUP2 PUSH2 0x13BC JUMP JUMPDEST SWAP1 POP SWAP2 SWAP1 POP JUMP JUMPDEST PUSH32 0x416D6F756E74206D7573742062652067726561746572207468616E2030000000 PUSH0 DUP3 ADD MSTORE POP JUMP JUMPDEST PUSH0 PUSH2 0x1430 PUSH1 0x1D DUP4 PUSH2 0xFF8 JUMP JUMPDEST SWAP2 POP PUSH2 0x143B DUP3 PUSH2 0x13FC JUMP JUMPDEST PUSH1 0x20 DUP3 ADD SWAP1 POP SWAP2 SWAP1 POP JUMP JUMPDEST PUSH0 PUSH1 0x20 DUP3 ADD SWAP1 POP DUP2 DUP2 SUB PUSH0 DUP4 ADD MSTORE PUSH2 0x145D DUP2 PUSH2 0x1424 JUMP JUMPDEST SWAP1 POP SWAP2 SWAP1 POP JUMP JUMPDEST PUSH0 PUSH1 0x60 DUP3 ADD SWAP1 POP PUSH2 0x1477 PUSH0 DUP4 ADD DUP7 PUSH2 0x1271 JUMP JUMPDEST PUSH2 0x1484 PUSH1 0x20 DUP4 ADD DUP6 PUSH2 0x119A JUMP JUMPDEST PUSH2 0x1491 PUSH1 0x40 DUP4 ADD DUP5 PUSH2 0x119A JUMP JUMPDEST SWAP5 SWAP4 POP POP POP POP JUMP INVALID LOG2 PUSH5 0x6970667358 0x22 SLT KECCAK256 PUSH3 0xBA5783 0xB8 0x4C 0x2E 0x4D PUSH1 0x6E 0xE3 RETURNDATACOPY 0xF7 0xDE 0xEA 0xA9 0xBC 0xED PUSH25 0xB0BE4A8B70DC98C66C46CEFB7C64736F6C6343000814003300 "
				},
				"gasEstimates": {
					"creation": {
						"codeDepositCost": "1065400",
						"executionCost": "infinite",
						"totalCost": "infinite"
					},
					"external": {
						"allowance(address,address)": "infinite",
						"approve(address,uint256)": "infinite",
						"balanceOf(address)": "2918",
						"burn(address,uint256)": "infinite",
						"decimals()": "361",
						"decreaseAllowance(address,uint256)": "infinite",
						"increaseAllowance(address,uint256)": "infinite",
						"mint(address,uint256)": "infinite",
						"name()": "infinite",
						"owner()": "2560",
						"renounceOwnership()": "infinite",
						"symbol()": "infinite",
						"tokensPerEth()": "2491",
						"totalSupply()": "2500",
						"transfer(address,uint256)": "infinite",
						"transferFrom(address,address,uint256)": "infinite",
						"transferOwnership(address)": "infinite"
					}
				},
				"methodIdentifiers": {
					"allowance(address,address)": "dd62ed3e",
					"approve(address,uint256)": "095ea7b3",
					"balanceOf(address)": "70a08231",
					"burn(address,uint256)": "9dc29fac",
					"decimals()": "313ce567",
					"decreaseAllowance(address,uint256)": "a457c2d7",
					"increaseAllowance(address,uint256)": "39509351",
					"mint(address,uint256)": "40c10f19",
					"name()": "06fdde03",
					"owner()": "8da5cb5b",
					"renounceOwnership()": "715018a6",
					"symbol()": "95d89b41",
					"tokensPerEth()": "cbdd69b5",
					"totalSupply()": "18160ddd",
					"transfer(address,uint256)": "a9059cbb",
					"transferFrom(address,address,uint256)": "23b872dd",
					"transferOwnership(address)": "f2fde38b"
				}
			},
			"storageLayout": {
				"storage": [
					{
						"astId": 44,
						"contract": "Contract/Mytoken.sol:Mytoken",
						"label": "_balances",
						"offset": 0,
						"slot": "0",
						"type": "t_mapping(t_address,t_uint256)"
					},
					{
						"astId": 50,
						"contract": "Contract/Mytoken.sol:Mytoken",
						"label": "_allowances",
						"offset": 0,
						"slot": "1",
						"type": "t_mapping(t_address,t_mapping(t_address,t_uint256))"
					},
					{
						"astId": 52,
						"contract": "Contract/Mytoken.sol:Mytoken",
						"label": "_totalSupply",
						"offset": 0,
						"slot": "2",
						"type": "t_uint256"
					},
					{
						"astId": 54,
						"contract": "Contract/Mytoken.sol:Mytoken",
						"label": "_name",
						"offset": 0,
						"slot": "3",
						"type": "t_string_storage"
					},
					{
						"astId": 56,
						"contract": "Contract/Mytoken.sol:Mytoken",
						"label": "_symbol",
						"offset": 0,
						"slot": "4",
						"type": "t_string_storage"
					},
					{
						"astId": 823,
						"contract": "Contract/Mytoken.sol:Mytoken",
						"label": "_owner",
						"offset": 0,
						"slot": "5",
						"type": "t_address"
					},
					{
						"astId": 734,
						"contract": "Contract/Mytoken.sol:Mytoken",
						"label": "tokensPerEth",
						"offset": 0,
						"slot": "6",
						"type": "t_uint256"
					},
					{
						"astId": 745,
						"contract": "Contract/Mytoken.sol:Mytoken",
						"label": "mytoken",
						"offset": 0,
						"slot": "7",
						"type": "t_contract(Mytoken)814"
					}
				],
				"types": {
					"t_address": {
						"encoding": "inplace",
						"label": "address",
						"numberOfBytes": "20"
					},
					"t_contract(Mytoken)814": {
						"encoding": "inplace",
						"label": "contract Mytoken",
						"numberOfBytes": "20"
					},
					"t_mapping(t_address,t_mapping(t_address,t_uint256))": {
						"encoding": "mapping",
						"key": "t_address",
						"label": "mapping(address => mapping(address => uint256))",
						"numberOfBytes": "32",
						"value": "t_mapping(t_address,t_uint256)"
					},
					"t_mapping(t_address,t_uint256)": {
						"encoding": "mapping",
						"key": "t_address",
						"label": "mapping(address => uint256)",
						"numberOfBytes": "32",
						"value": "t_uint256"
					},
					"t_string_storage": {
						"encoding": "bytes",
						"label": "string",
						"numberOfBytes": "32"
					},
					"t_uint256": {
						"encoding": "inplace",
						"label": "uint256",
						"numberOfBytes": "32"
					}
				}
			},
			"userdoc": {
				"kind": "user",
				"methods": {},
				"version": 1
			}
		}
	}
}