{
	"Contract/blacklist.sol": {
		"blacklist": {
			"abi": [
				{
					"anonymous": false,
					"inputs": [
						{
							"indexed": false,
							"internalType": "address",
							"name": "buyer",
							"type": "address"
						},
						{
							"indexed": false,
							"internalType": "uint256",
							"name": "amountOfETH",
							"type": "uint256"
						},
						{
							"indexed": false,
							"internalType": "uint256",
							"name": "amountOfTokens",
							"type": "uint256"
						}
					],
					"name": "BuyTokens",
					"type": "event"
				},
				{
					"inputs": [],
					"name": "buyTokens",
					"outputs": [
						{
							"internalType": "uint256",
							"name": "tokenAmount",
							"type": "uint256"
						}
					],
					"stateMutability": "payable",
					"type": "function"
				},
				{
					"inputs": [],
					"name": "tokensPerEth",
					"outputs": [
						{
							"internalType": "uint256",
							"name": "",
							"type": "uint256"
						}
					],
					"stateMutability": "view",
					"type": "function"
				}
			],
			"devdoc": {
				"kind": "dev",
				"methods": {},
				"version": 1
			},
			"evm": {
				"assembly": "    /* \"Contract/blacklist.sol\":111:989  contract blacklist {... */\n  mstore(0x40, 0x80)\n    /* \"Contract/blacklist.sol\":185:187  10 */\n  0x0a\n    /* \"Contract/blacklist.sol\":155:187  uint256 public tokensPerEth = 10 */\n  0x01\n  sstore\n    /* \"Contract/blacklist.sol\":111:989  contract blacklist {... */\n  callvalue\n  dup1\n  iszero\n  tag_1\n  jumpi\n  0x00\n  dup1\n  revert\ntag_1:\n  pop\n  dataSize(sub_0)\n  dup1\n  dataOffset(sub_0)\n  0x00\n  codecopy\n  0x00\n  return\nstop\n\nsub_0: assembly {\n        /* \"Contract/blacklist.sol\":111:989  contract blacklist {... */\n      mstore(0x40, 0x80)\n      jumpi(tag_1, lt(calldatasize, 0x04))\n      shr(0xe0, calldataload(0x00))\n      dup1\n      0xcbdd69b5\n      eq\n      tag_2\n      jumpi\n      dup1\n      0xd0febe4c\n      eq\n      tag_3\n      jumpi\n    tag_1:\n      0x00\n      dup1\n      revert\n        /* \"Contract/blacklist.sol\":155:187  uint256 public tokensPerEth = 10 */\n    tag_2:\n      callvalue\n      dup1\n      iszero\n      tag_4\n      jumpi\n      0x00\n      dup1\n      revert\n    tag_4:\n      pop\n      tag_5\n      tag_6\n      jump\t// in\n    tag_5:\n      mload(0x40)\n      tag_7\n      swap2\n      swap1\n      tag_8\n      jump\t// in\n    tag_7:\n      mload(0x40)\n      dup1\n      swap2\n      sub\n      swap1\n      return\n        /* \"Contract/blacklist.sol\":279:986  function buyTokens() public payable returns (uint256 tokenAmount) {... */\n    tag_3:\n      tag_9\n      tag_10\n      jump\t// in\n    tag_9:\n      mload(0x40)\n      tag_11\n      swap2\n      swap1\n      tag_8\n      jump\t// in\n    tag_11:\n      mload(0x40)\n      dup1\n      swap2\n      sub\n      swap1\n      return\n        /* \"Contract/blacklist.sol\":155:187  uint256 public tokensPerEth = 10 */\n    tag_6:\n      sload(0x01)\n      dup2\n      jump\t// out\n        /* \"Contract/blacklist.sol\":279:986  function buyTokens() public payable returns (uint256 tokenAmount) {... */\n    tag_10:\n        /* \"Contract/blacklist.sol\":324:343  uint256 tokenAmount */\n      0x00\n        /* \"Contract/blacklist.sol\":372:373  0 */\n      dup1\n        /* \"Contract/blacklist.sol\":360:369  msg.value */\n      callvalue\n        /* \"Contract/blacklist.sol\":360:373  msg.value > 0 */\n      gt\n        /* \"Contract/blacklist.sol\":352:405  require(msg.value > 0, \"Send ETH to buy some tokens\") */\n      tag_13\n      jumpi\n      mload(0x40)\n      0x08c379a000000000000000000000000000000000000000000000000000000000\n      dup2\n      mstore\n      0x04\n      add\n      tag_14\n      swap1\n      tag_15\n      jump\t// in\n    tag_14:\n      mload(0x40)\n      dup1\n      swap2\n      sub\n      swap1\n      revert\n    tag_13:\n        /* \"Contract/blacklist.sol\":414:433  uint256 amountToBuy */\n      0x00\n        /* \"Contract/blacklist.sol\":448:460  tokensPerEth */\n      sload(0x01)\n        /* \"Contract/blacklist.sol\":436:445  msg.value */\n      callvalue\n        /* \"Contract/blacklist.sol\":436:460  msg.value * tokensPerEth */\n      tag_16\n      swap2\n      swap1\n      tag_17\n      jump\t// in\n    tag_16:\n        /* \"Contract/blacklist.sol\":414:460  uint256 amountToBuy = msg.value * tokensPerEth */\n      swap1\n      pop\n        /* \"Contract/blacklist.sol\":554:575  uint256 vendorBalance */\n      0x00\n        /* \"Contract/blacklist.sol\":578:585  mytoken */\n      dup1\n      0x00\n      swap1\n      sload\n      swap1\n      0x0100\n      exp\n      swap1\n      div\n      0xffffffffffffffffffffffffffffffffffffffff\n      and\n        /* \"Contract/blacklist.sol\":578:595  mytoken.balanceOf */\n      0xffffffffffffffffffffffffffffffffffffffff\n      and\n      0x70a08231\n        /* \"Contract/blacklist.sol\":604:608  this */\n      address\n        /* \"Contract/blacklist.sol\":578:610  mytoken.balanceOf(address(this)) */\n      mload(0x40)\n      dup3\n      0xffffffff\n      and\n      0xe0\n      shl\n      dup2\n      mstore\n      0x04\n      add\n      tag_18\n      swap2\n      swap1\n      tag_19\n      jump\t// in\n    tag_18:\n      0x20\n      mload(0x40)\n      dup1\n      dup4\n      sub\n      dup2\n      dup7\n      gas\n      staticcall\n      iszero\n      dup1\n      iszero\n      tag_21\n      jumpi\n      returndatasize\n      0x00\n      dup1\n      returndatacopy\n      revert(0x00, returndatasize)\n    tag_21:\n      pop\n      pop\n      pop\n      pop\n      mload(0x40)\n      returndatasize\n      not(0x1f)\n      0x1f\n      dup3\n      add\n      and\n      dup3\n      add\n      dup1\n      0x40\n      mstore\n      pop\n      dup2\n      add\n      swap1\n      tag_22\n      swap2\n      swap1\n      tag_23\n      jump\t// in\n    tag_22:\n        /* \"Contract/blacklist.sol\":554:610  uint256 vendorBalance = mytoken.balanceOf(address(this)) */\n      swap1\n      pop\n        /* \"Contract/blacklist.sol\":642:653  amountToBuy */\n      dup2\n        /* \"Contract/blacklist.sol\":625:638  vendorBalance */\n      dup2\n        /* \"Contract/blacklist.sol\":625:653  vendorBalance >= amountToBuy */\n      lt\n      iszero\n        /* \"Contract/blacklist.sol\":617:710  require(vendorBalance >= amountToBuy, \"Vendor contract has not enough tokens in its balance\") */\n      tag_24\n      jumpi\n      mload(0x40)\n      0x08c379a000000000000000000000000000000000000000000000000000000000\n      dup2\n      mstore\n      0x04\n      add\n      tag_25\n      swap1\n      tag_26\n      jump\t// in\n    tag_25:\n      mload(0x40)\n      dup1\n      swap2\n      sub\n      swap1\n      revert\n    tag_24:\n        /* \"Contract/blacklist.sol\":761:770  bool sent */\n      0x00\n        /* \"Contract/blacklist.sol\":774:781  mytoken */\n      dup1\n      0x00\n      swap1\n      sload\n      swap1\n      0x0100\n      exp\n      swap1\n      div\n      0xffffffffffffffffffffffffffffffffffffffff\n      and\n        /* \"Contract/blacklist.sol\":774:790  mytoken.transfer */\n      0xffffffffffffffffffffffffffffffffffffffff\n      and\n      0xa9059cbb\n        /* \"Contract/blacklist.sol\":791:801  msg.sender */\n      caller\n        /* \"Contract/blacklist.sol\":803:814  amountToBuy */\n      dup6\n        /* \"Contract/blacklist.sol\":774:815  mytoken.transfer(msg.sender, amountToBuy) */\n      mload(0x40)\n      dup4\n      0xffffffff\n      and\n      0xe0\n      shl\n      dup2\n      mstore\n      0x04\n      add\n      tag_27\n      swap3\n      swap2\n      swap1\n      tag_28\n      jump\t// in\n    tag_27:\n      0x20\n      mload(0x40)\n      dup1\n      dup4\n      sub\n      dup2\n      0x00\n      dup8\n      gas\n      call\n      iszero\n      dup1\n      iszero\n      tag_30\n      jumpi\n      returndatasize\n      0x00\n      dup1\n      returndatacopy\n      revert(0x00, returndatasize)\n    tag_30:\n      pop\n      pop\n      pop\n      pop\n      mload(0x40)\n      returndatasize\n      not(0x1f)\n      0x1f\n      dup3\n      add\n      and\n      dup3\n      add\n      dup1\n      0x40\n      mstore\n      pop\n      dup2\n      add\n      swap1\n      tag_31\n      swap2\n      swap1\n      tag_32\n      jump\t// in\n    tag_31:\n        /* \"Contract/blacklist.sol\":760:815  (bool sent) = mytoken.transfer(msg.sender, amountToBuy) */\n      swap1\n      pop\n        /* \"Contract/blacklist.sol\":830:834  sent */\n      dup1\n        /* \"Contract/blacklist.sol\":822:871  require(sent, \"Failed to transfer token to user\") */\n      tag_33\n      jumpi\n      mload(0x40)\n      0x08c379a000000000000000000000000000000000000000000000000000000000\n      dup2\n      mstore\n      0x04\n      add\n      tag_34\n      swap1\n      tag_35\n      jump\t// in\n    tag_34:\n      mload(0x40)\n      dup1\n      swap2\n      sub\n      swap1\n      revert\n    tag_33:\n        /* \"Contract/blacklist.sol\":908:953  BuyTokens(msg.sender, msg.value, amountToBuy) */\n      0x0a37b72bb67eee30e09084cf386f8a17817c57f620c3ab95fb25d6a20356ec77\n        /* \"Contract/blacklist.sol\":918:928  msg.sender */\n      caller\n        /* \"Contract/blacklist.sol\":930:939  msg.value */\n      callvalue\n        /* \"Contract/blacklist.sol\":941:952  amountToBuy */\n      dup6\n        /* \"Contract/blacklist.sol\":908:953  BuyTokens(msg.sender, msg.value, amountToBuy) */\n      mload(0x40)\n      tag_36\n      swap4\n      swap3\n      swap2\n      swap1\n      tag_37\n      jump\t// in\n    tag_36:\n      mload(0x40)\n      dup1\n      swap2\n      sub\n      swap1\n      log1\n        /* \"Contract/blacklist.sol\":969:980  amountToBuy */\n      dup3\n        /* \"Contract/blacklist.sol\":962:980  return amountToBuy */\n      swap4\n      pop\n      pop\n      pop\n      pop\n        /* \"Contract/blacklist.sol\":279:986  function buyTokens() public payable returns (uint256 tokenAmount) {... */\n      swap1\n      jump\t// out\n        /* \"#utility.yul\":7:84   */\n    tag_38:\n        /* \"#utility.yul\":44:51   */\n      0x00\n        /* \"#utility.yul\":73:78   */\n      dup2\n        /* \"#utility.yul\":62:78   */\n      swap1\n      pop\n        /* \"#utility.yul\":7:84   */\n      swap2\n      swap1\n      pop\n      jump\t// out\n        /* \"#utility.yul\":90:208   */\n    tag_39:\n        /* \"#utility.yul\":177:201   */\n      tag_62\n        /* \"#utility.yul\":195:200   */\n      dup2\n        /* \"#utility.yul\":177:201   */\n      tag_38\n      jump\t// in\n    tag_62:\n        /* \"#utility.yul\":172:175   */\n      dup3\n        /* \"#utility.yul\":165:202   */\n      mstore\n        /* \"#utility.yul\":90:208   */\n      pop\n      pop\n      jump\t// out\n        /* \"#utility.yul\":214:436   */\n    tag_8:\n        /* \"#utility.yul\":307:311   */\n      0x00\n        /* \"#utility.yul\":345:347   */\n      0x20\n        /* \"#utility.yul\":334:343   */\n      dup3\n        /* \"#utility.yul\":330:348   */\n      add\n        /* \"#utility.yul\":322:348   */\n      swap1\n      pop\n        /* \"#utility.yul\":358:429   */\n      tag_64\n        /* \"#utility.yul\":426:427   */\n      0x00\n        /* \"#utility.yul\":415:424   */\n      dup4\n        /* \"#utility.yul\":411:428   */\n      add\n        /* \"#utility.yul\":402:408   */\n      dup5\n        /* \"#utility.yul\":358:429   */\n      tag_39\n      jump\t// in\n    tag_64:\n        /* \"#utility.yul\":214:436   */\n      swap3\n      swap2\n      pop\n      pop\n      jump\t// out\n        /* \"#utility.yul\":442:611   */\n    tag_40:\n        /* \"#utility.yul\":526:537   */\n      0x00\n        /* \"#utility.yul\":560:566   */\n      dup3\n        /* \"#utility.yul\":555:558   */\n      dup3\n        /* \"#utility.yul\":548:567   */\n      mstore\n        /* \"#utility.yul\":600:604   */\n      0x20\n        /* \"#utility.yul\":595:598   */\n      dup3\n        /* \"#utility.yul\":591:605   */\n      add\n        /* \"#utility.yul\":576:605   */\n      swap1\n      pop\n        /* \"#utility.yul\":442:611   */\n      swap3\n      swap2\n      pop\n      pop\n      jump\t// out\n        /* \"#utility.yul\":617:794   */\n    tag_41:\n        /* \"#utility.yul\":757:786   */\n      0x53656e642045544820746f2062757920736f6d6520746f6b656e730000000000\n        /* \"#utility.yul\":753:754   */\n      0x00\n        /* \"#utility.yul\":745:751   */\n      dup3\n        /* \"#utility.yul\":741:755   */\n      add\n        /* \"#utility.yul\":734:787   */\n      mstore\n        /* \"#utility.yul\":617:794   */\n      pop\n      jump\t// out\n        /* \"#utility.yul\":800:1166   */\n    tag_42:\n        /* \"#utility.yul\":942:945   */\n      0x00\n        /* \"#utility.yul\":963:1030   */\n      tag_68\n        /* \"#utility.yul\":1027:1029   */\n      0x1b\n        /* \"#utility.yul\":1022:1025   */\n      dup4\n        /* \"#utility.yul\":963:1030   */\n      tag_40\n      jump\t// in\n    tag_68:\n        /* \"#utility.yul\":956:1030   */\n      swap2\n      pop\n        /* \"#utility.yul\":1039:1132   */\n      tag_69\n        /* \"#utility.yul\":1128:1131   */\n      dup3\n        /* \"#utility.yul\":1039:1132   */\n      tag_41\n      jump\t// in\n    tag_69:\n        /* \"#utility.yul\":1157:1159   */\n      0x20\n        /* \"#utility.yul\":1152:1155   */\n      dup3\n        /* \"#utility.yul\":1148:1160   */\n      add\n        /* \"#utility.yul\":1141:1160   */\n      swap1\n      pop\n        /* \"#utility.yul\":800:1166   */\n      swap2\n      swap1\n      pop\n      jump\t// out\n        /* \"#utility.yul\":1172:1591   */\n    tag_15:\n        /* \"#utility.yul\":1338:1342   */\n      0x00\n        /* \"#utility.yul\":1376:1378   */\n      0x20\n        /* \"#utility.yul\":1365:1374   */\n      dup3\n        /* \"#utility.yul\":1361:1379   */\n      add\n        /* \"#utility.yul\":1353:1379   */\n      swap1\n      pop\n        /* \"#utility.yul\":1425:1434   */\n      dup2\n        /* \"#utility.yul\":1419:1423   */\n      dup2\n        /* \"#utility.yul\":1415:1435   */\n      sub\n        /* \"#utility.yul\":1411:1412   */\n      0x00\n        /* \"#utility.yul\":1400:1409   */\n      dup4\n        /* \"#utility.yul\":1396:1413   */\n      add\n        /* \"#utility.yul\":1389:1436   */\n      mstore\n        /* \"#utility.yul\":1453:1584   */\n      tag_71\n        /* \"#utility.yul\":1579:1583   */\n      dup2\n        /* \"#utility.yul\":1453:1584   */\n      tag_42\n      jump\t// in\n    tag_71:\n        /* \"#utility.yul\":1445:1584   */\n      swap1\n      pop\n        /* \"#utility.yul\":1172:1591   */\n      swap2\n      swap1\n      pop\n      jump\t// out\n        /* \"#utility.yul\":1597:1777   */\n    tag_43:\n        /* \"#utility.yul\":1645:1722   */\n      0x4e487b7100000000000000000000000000000000000000000000000000000000\n        /* \"#utility.yul\":1642:1643   */\n      0x00\n        /* \"#utility.yul\":1635:1723   */\n      mstore\n        /* \"#utility.yul\":1742:1746   */\n      0x11\n        /* \"#utility.yul\":1739:1740   */\n      0x04\n        /* \"#utility.yul\":1732:1747   */\n      mstore\n        /* \"#utility.yul\":1766:1770   */\n      0x24\n        /* \"#utility.yul\":1763:1764   */\n      0x00\n        /* \"#utility.yul\":1756:1771   */\n      revert\n        /* \"#utility.yul\":1783:2193   */\n    tag_17:\n        /* \"#utility.yul\":1823:1830   */\n      0x00\n        /* \"#utility.yul\":1846:1866   */\n      tag_74\n        /* \"#utility.yul\":1864:1865   */\n      dup3\n        /* \"#utility.yul\":1846:1866   */\n      tag_38\n      jump\t// in\n    tag_74:\n        /* \"#utility.yul\":1841:1866   */\n      swap2\n      pop\n        /* \"#utility.yul\":1880:1900   */\n      tag_75\n        /* \"#utility.yul\":1898:1899   */\n      dup4\n        /* \"#utility.yul\":1880:1900   */\n      tag_38\n      jump\t// in\n    tag_75:\n        /* \"#utility.yul\":1875:1900   */\n      swap3\n      pop\n        /* \"#utility.yul\":1935:1936   */\n      dup3\n        /* \"#utility.yul\":1932:1933   */\n      dup3\n        /* \"#utility.yul\":1928:1937   */\n      mul\n        /* \"#utility.yul\":1957:1987   */\n      tag_76\n        /* \"#utility.yul\":1975:1986   */\n      dup2\n        /* \"#utility.yul\":1957:1987   */\n      tag_38\n      jump\t// in\n    tag_76:\n        /* \"#utility.yul\":1946:1987   */\n      swap2\n      pop\n        /* \"#utility.yul\":2136:2137   */\n      dup3\n        /* \"#utility.yul\":2127:2134   */\n      dup3\n        /* \"#utility.yul\":2123:2138   */\n      div\n        /* \"#utility.yul\":2120:2121   */\n      dup5\n        /* \"#utility.yul\":2117:2139   */\n      eq\n        /* \"#utility.yul\":2097:2098   */\n      dup4\n        /* \"#utility.yul\":2090:2099   */\n      iszero\n        /* \"#utility.yul\":2070:2153   */\n      or\n        /* \"#utility.yul\":2047:2186   */\n      tag_77\n      jumpi\n        /* \"#utility.yul\":2166:2184   */\n      tag_78\n      tag_43\n      jump\t// in\n    tag_78:\n        /* \"#utility.yul\":2047:2186   */\n    tag_77:\n        /* \"#utility.yul\":1831:2193   */\n      pop\n        /* \"#utility.yul\":1783:2193   */\n      swap3\n      swap2\n      pop\n      pop\n      jump\t// out\n        /* \"#utility.yul\":2199:2325   */\n    tag_44:\n        /* \"#utility.yul\":2236:2243   */\n      0x00\n        /* \"#utility.yul\":2276:2318   */\n      0xffffffffffffffffffffffffffffffffffffffff\n        /* \"#utility.yul\":2269:2274   */\n      dup3\n        /* \"#utility.yul\":2265:2319   */\n      and\n        /* \"#utility.yul\":2254:2319   */\n      swap1\n      pop\n        /* \"#utility.yul\":2199:2325   */\n      swap2\n      swap1\n      pop\n      jump\t// out\n        /* \"#utility.yul\":2331:2427   */\n    tag_45:\n        /* \"#utility.yul\":2368:2375   */\n      0x00\n        /* \"#utility.yul\":2397:2421   */\n      tag_81\n        /* \"#utility.yul\":2415:2420   */\n      dup3\n        /* \"#utility.yul\":2397:2421   */\n      tag_44\n      jump\t// in\n    tag_81:\n        /* \"#utility.yul\":2386:2421   */\n      swap1\n      pop\n        /* \"#utility.yul\":2331:2427   */\n      swap2\n      swap1\n      pop\n      jump\t// out\n        /* \"#utility.yul\":2433:2551   */\n    tag_46:\n        /* \"#utility.yul\":2520:2544   */\n      tag_83\n        /* \"#utility.yul\":2538:2543   */\n      dup2\n        /* \"#utility.yul\":2520:2544   */\n      tag_45\n      jump\t// in\n    tag_83:\n        /* \"#utility.yul\":2515:2518   */\n      dup3\n        /* \"#utility.yul\":2508:2545   */\n      mstore\n        /* \"#utility.yul\":2433:2551   */\n      pop\n      pop\n      jump\t// out\n        /* \"#utility.yul\":2557:2779   */\n    tag_19:\n        /* \"#utility.yul\":2650:2654   */\n      0x00\n        /* \"#utility.yul\":2688:2690   */\n      0x20\n        /* \"#utility.yul\":2677:2686   */\n      dup3\n        /* \"#utility.yul\":2673:2691   */\n      add\n        /* \"#utility.yul\":2665:2691   */\n      swap1\n      pop\n        /* \"#utility.yul\":2701:2772   */\n      tag_85\n        /* \"#utility.yul\":2769:2770   */\n      0x00\n        /* \"#utility.yul\":2758:2767   */\n      dup4\n        /* \"#utility.yul\":2754:2771   */\n      add\n        /* \"#utility.yul\":2745:2751   */\n      dup5\n        /* \"#utility.yul\":2701:2772   */\n      tag_46\n      jump\t// in\n    tag_85:\n        /* \"#utility.yul\":2557:2779   */\n      swap3\n      swap2\n      pop\n      pop\n      jump\t// out\n        /* \"#utility.yul\":2866:2983   */\n    tag_48:\n        /* \"#utility.yul\":2975:2976   */\n      0x00\n        /* \"#utility.yul\":2972:2973   */\n      dup1\n        /* \"#utility.yul\":2965:2977   */\n      revert\n        /* \"#utility.yul\":3112:3234   */\n    tag_50:\n        /* \"#utility.yul\":3185:3209   */\n      tag_90\n        /* \"#utility.yul\":3203:3208   */\n      dup2\n        /* \"#utility.yul\":3185:3209   */\n      tag_38\n      jump\t// in\n    tag_90:\n        /* \"#utility.yul\":3178:3183   */\n      dup2\n        /* \"#utility.yul\":3175:3210   */\n      eq\n        /* \"#utility.yul\":3165:3228   */\n      tag_91\n      jumpi\n        /* \"#utility.yul\":3224:3225   */\n      0x00\n        /* \"#utility.yul\":3221:3222   */\n      dup1\n        /* \"#utility.yul\":3214:3226   */\n      revert\n        /* \"#utility.yul\":3165:3228   */\n    tag_91:\n        /* \"#utility.yul\":3112:3234   */\n      pop\n      jump\t// out\n        /* \"#utility.yul\":3240:3383   */\n    tag_51:\n        /* \"#utility.yul\":3297:3302   */\n      0x00\n        /* \"#utility.yul\":3328:3334   */\n      dup2\n        /* \"#utility.yul\":3322:3335   */\n      mload\n        /* \"#utility.yul\":3313:3335   */\n      swap1\n      pop\n        /* \"#utility.yul\":3344:3377   */\n      tag_93\n        /* \"#utility.yul\":3371:3376   */\n      dup2\n        /* \"#utility.yul\":3344:3377   */\n      tag_50\n      jump\t// in\n    tag_93:\n        /* \"#utility.yul\":3240:3383   */\n      swap3\n      swap2\n      pop\n      pop\n      jump\t// out\n        /* \"#utility.yul\":3389:3740   */\n    tag_23:\n        /* \"#utility.yul\":3459:3465   */\n      0x00\n        /* \"#utility.yul\":3508:3510   */\n      0x20\n        /* \"#utility.yul\":3496:3505   */\n      dup3\n        /* \"#utility.yul\":3487:3494   */\n      dup5\n        /* \"#utility.yul\":3483:3506   */\n      sub\n        /* \"#utility.yul\":3479:3511   */\n      slt\n        /* \"#utility.yul\":3476:3595   */\n      iszero\n      tag_95\n      jumpi\n        /* \"#utility.yul\":3514:3593   */\n      tag_96\n      tag_48\n      jump\t// in\n    tag_96:\n        /* \"#utility.yul\":3476:3595   */\n    tag_95:\n        /* \"#utility.yul\":3634:3635   */\n      0x00\n        /* \"#utility.yul\":3659:3723   */\n      tag_97\n        /* \"#utility.yul\":3715:3722   */\n      dup5\n        /* \"#utility.yul\":3706:3712   */\n      dup3\n        /* \"#utility.yul\":3695:3704   */\n      dup6\n        /* \"#utility.yul\":3691:3713   */\n      add\n        /* \"#utility.yul\":3659:3723   */\n      tag_51\n      jump\t// in\n    tag_97:\n        /* \"#utility.yul\":3649:3723   */\n      swap2\n      pop\n        /* \"#utility.yul\":3605:3733   */\n      pop\n        /* \"#utility.yul\":3389:3740   */\n      swap3\n      swap2\n      pop\n      pop\n      jump\t// out\n        /* \"#utility.yul\":3746:3985   */\n    tag_52:\n        /* \"#utility.yul\":3886:3920   */\n      0x56656e646f7220636f6e747261637420686173206e6f7420656e6f7567682074\n        /* \"#utility.yul\":3882:3883   */\n      0x00\n        /* \"#utility.yul\":3874:3880   */\n      dup3\n        /* \"#utility.yul\":3870:3884   */\n      add\n        /* \"#utility.yul\":3863:3921   */\n      mstore\n        /* \"#utility.yul\":3955:3977   */\n      0x6f6b656e7320696e206974732062616c616e6365000000000000000000000000\n        /* \"#utility.yul\":3950:3952   */\n      0x20\n        /* \"#utility.yul\":3942:3948   */\n      dup3\n        /* \"#utility.yul\":3938:3953   */\n      add\n        /* \"#utility.yul\":3931:3978   */\n      mstore\n        /* \"#utility.yul\":3746:3985   */\n      pop\n      jump\t// out\n        /* \"#utility.yul\":3991:4357   */\n    tag_53:\n        /* \"#utility.yul\":4133:4136   */\n      0x00\n        /* \"#utility.yul\":4154:4221   */\n      tag_100\n        /* \"#utility.yul\":4218:4220   */\n      0x34\n        /* \"#utility.yul\":4213:4216   */\n      dup4\n        /* \"#utility.yul\":4154:4221   */\n      tag_40\n      jump\t// in\n    tag_100:\n        /* \"#utility.yul\":4147:4221   */\n      swap2\n      pop\n        /* \"#utility.yul\":4230:4323   */\n      tag_101\n        /* \"#utility.yul\":4319:4322   */\n      dup3\n        /* \"#utility.yul\":4230:4323   */\n      tag_52\n      jump\t// in\n    tag_101:\n        /* \"#utility.yul\":4348:4350   */\n      0x40\n        /* \"#utility.yul\":4343:4346   */\n      dup3\n        /* \"#utility.yul\":4339:4351   */\n      add\n        /* \"#utility.yul\":4332:4351   */\n      swap1\n      pop\n        /* \"#utility.yul\":3991:4357   */\n      swap2\n      swap1\n      pop\n      jump\t// out\n        /* \"#utility.yul\":4363:4782   */\n    tag_26:\n        /* \"#utility.yul\":4529:4533   */\n      0x00\n        /* \"#utility.yul\":4567:4569   */\n      0x20\n        /* \"#utility.yul\":4556:4565   */\n      dup3\n        /* \"#utility.yul\":4552:4570   */\n      add\n        /* \"#utility.yul\":4544:4570   */\n      swap1\n      pop\n        /* \"#utility.yul\":4616:4625   */\n      dup2\n        /* \"#utility.yul\":4610:4614   */\n      dup2\n        /* \"#utility.yul\":4606:4626   */\n      sub\n        /* \"#utility.yul\":4602:4603   */\n      0x00\n        /* \"#utility.yul\":4591:4600   */\n      dup4\n        /* \"#utility.yul\":4587:4604   */\n      add\n        /* \"#utility.yul\":4580:4627   */\n      mstore\n        /* \"#utility.yul\":4644:4775   */\n      tag_103\n        /* \"#utility.yul\":4770:4774   */\n      dup2\n        /* \"#utility.yul\":4644:4775   */\n      tag_53\n      jump\t// in\n    tag_103:\n        /* \"#utility.yul\":4636:4775   */\n      swap1\n      pop\n        /* \"#utility.yul\":4363:4782   */\n      swap2\n      swap1\n      pop\n      jump\t// out\n        /* \"#utility.yul\":4788:5120   */\n    tag_28:\n        /* \"#utility.yul\":4909:4913   */\n      0x00\n        /* \"#utility.yul\":4947:4949   */\n      0x40\n        /* \"#utility.yul\":4936:4945   */\n      dup3\n        /* \"#utility.yul\":4932:4950   */\n      add\n        /* \"#utility.yul\":4924:4950   */\n      swap1\n      pop\n        /* \"#utility.yul\":4960:5031   */\n      tag_105\n        /* \"#utility.yul\":5028:5029   */\n      0x00\n        /* \"#utility.yul\":5017:5026   */\n      dup4\n        /* \"#utility.yul\":5013:5030   */\n      add\n        /* \"#utility.yul\":5004:5010   */\n      dup6\n        /* \"#utility.yul\":4960:5031   */\n      tag_46\n      jump\t// in\n    tag_105:\n        /* \"#utility.yul\":5041:5113   */\n      tag_106\n        /* \"#utility.yul\":5109:5111   */\n      0x20\n        /* \"#utility.yul\":5098:5107   */\n      dup4\n        /* \"#utility.yul\":5094:5112   */\n      add\n        /* \"#utility.yul\":5085:5091   */\n      dup5\n        /* \"#utility.yul\":5041:5113   */\n      tag_39\n      jump\t// in\n    tag_106:\n        /* \"#utility.yul\":4788:5120   */\n      swap4\n      swap3\n      pop\n      pop\n      pop\n      jump\t// out\n        /* \"#utility.yul\":5126:5216   */\n    tag_54:\n        /* \"#utility.yul\":5160:5167   */\n      0x00\n        /* \"#utility.yul\":5203:5208   */\n      dup2\n        /* \"#utility.yul\":5196:5209   */\n      iszero\n        /* \"#utility.yul\":5189:5210   */\n      iszero\n        /* \"#utility.yul\":5178:5210   */\n      swap1\n      pop\n        /* \"#utility.yul\":5126:5216   */\n      swap2\n      swap1\n      pop\n      jump\t// out\n        /* \"#utility.yul\":5222:5338   */\n    tag_55:\n        /* \"#utility.yul\":5292:5313   */\n      tag_109\n        /* \"#utility.yul\":5307:5312   */\n      dup2\n        /* \"#utility.yul\":5292:5313   */\n      tag_54\n      jump\t// in\n    tag_109:\n        /* \"#utility.yul\":5285:5290   */\n      dup2\n        /* \"#utility.yul\":5282:5314   */\n      eq\n        /* \"#utility.yul\":5272:5332   */\n      tag_110\n      jumpi\n        /* \"#utility.yul\":5328:5329   */\n      0x00\n        /* \"#utility.yul\":5325:5326   */\n      dup1\n        /* \"#utility.yul\":5318:5330   */\n      revert\n        /* \"#utility.yul\":5272:5332   */\n    tag_110:\n        /* \"#utility.yul\":5222:5338   */\n      pop\n      jump\t// out\n        /* \"#utility.yul\":5344:5481   */\n    tag_56:\n        /* \"#utility.yul\":5398:5403   */\n      0x00\n        /* \"#utility.yul\":5429:5435   */\n      dup2\n        /* \"#utility.yul\":5423:5436   */\n      mload\n        /* \"#utility.yul\":5414:5436   */\n      swap1\n      pop\n        /* \"#utility.yul\":5445:5475   */\n      tag_112\n        /* \"#utility.yul\":5469:5474   */\n      dup2\n        /* \"#utility.yul\":5445:5475   */\n      tag_55\n      jump\t// in\n    tag_112:\n        /* \"#utility.yul\":5344:5481   */\n      swap3\n      swap2\n      pop\n      pop\n      jump\t// out\n        /* \"#utility.yul\":5487:5832   */\n    tag_32:\n        /* \"#utility.yul\":5554:5560   */\n      0x00\n        /* \"#utility.yul\":5603:5605   */\n      0x20\n        /* \"#utility.yul\":5591:5600   */\n      dup3\n        /* \"#utility.yul\":5582:5589   */\n      dup5\n        /* \"#utility.yul\":5578:5601   */\n      sub\n        /* \"#utility.yul\":5574:5606   */\n      slt\n        /* \"#utility.yul\":5571:5690   */\n      iszero\n      tag_114\n      jumpi\n        /* \"#utility.yul\":5609:5688   */\n      tag_115\n      tag_48\n      jump\t// in\n    tag_115:\n        /* \"#utility.yul\":5571:5690   */\n    tag_114:\n        /* \"#utility.yul\":5729:5730   */\n      0x00\n        /* \"#utility.yul\":5754:5815   */\n      tag_116\n        /* \"#utility.yul\":5807:5814   */\n      dup5\n        /* \"#utility.yul\":5798:5804   */\n      dup3\n        /* \"#utility.yul\":5787:5796   */\n      dup6\n        /* \"#utility.yul\":5783:5805   */\n      add\n        /* \"#utility.yul\":5754:5815   */\n      tag_56\n      jump\t// in\n    tag_116:\n        /* \"#utility.yul\":5744:5815   */\n      swap2\n      pop\n        /* \"#utility.yul\":5700:5825   */\n      pop\n        /* \"#utility.yul\":5487:5832   */\n      swap3\n      swap2\n      pop\n      pop\n      jump\t// out\n        /* \"#utility.yul\":5838:6020   */\n    tag_57:\n        /* \"#utility.yul\":5978:6012   */\n      0x4661696c656420746f207472616e7366657220746f6b656e20746f2075736572\n        /* \"#utility.yul\":5974:5975   */\n      0x00\n        /* \"#utility.yul\":5966:5972   */\n      dup3\n        /* \"#utility.yul\":5962:5976   */\n      add\n        /* \"#utility.yul\":5955:6013   */\n      mstore\n        /* \"#utility.yul\":5838:6020   */\n      pop\n      jump\t// out\n        /* \"#utility.yul\":6026:6392   */\n    tag_58:\n        /* \"#utility.yul\":6168:6171   */\n      0x00\n        /* \"#utility.yul\":6189:6256   */\n      tag_119\n        /* \"#utility.yul\":6253:6255   */\n      0x20\n        /* \"#utility.yul\":6248:6251   */\n      dup4\n        /* \"#utility.yul\":6189:6256   */\n      tag_40\n      jump\t// in\n    tag_119:\n        /* \"#utility.yul\":6182:6256   */\n      swap2\n      pop\n        /* \"#utility.yul\":6265:6358   */\n      tag_120\n        /* \"#utility.yul\":6354:6357   */\n      dup3\n        /* \"#utility.yul\":6265:6358   */\n      tag_57\n      jump\t// in\n    tag_120:\n        /* \"#utility.yul\":6383:6385   */\n      0x20\n        /* \"#utility.yul\":6378:6381   */\n      dup3\n        /* \"#utility.yul\":6374:6386   */\n      add\n        /* \"#utility.yul\":6367:6386   */\n      swap1\n      pop\n        /* \"#utility.yul\":6026:6392   */\n      swap2\n      swap1\n      pop\n      jump\t// out\n        /* \"#utility.yul\":6398:6817   */\n    tag_35:\n        /* \"#utility.yul\":6564:6568   */\n      0x00\n        /* \"#utility.yul\":6602:6604   */\n      0x20\n        /* \"#utility.yul\":6591:6600   */\n      dup3\n        /* \"#utility.yul\":6587:6605   */\n      add\n        /* \"#utility.yul\":6579:6605   */\n      swap1\n      pop\n        /* \"#utility.yul\":6651:6660   */\n      dup2\n        /* \"#utility.yul\":6645:6649   */\n      dup2\n        /* \"#utility.yul\":6641:6661   */\n      sub\n        /* \"#utility.yul\":6637:6638   */\n      0x00\n        /* \"#utility.yul\":6626:6635   */\n      dup4\n        /* \"#utility.yul\":6622:6639   */\n      add\n        /* \"#utility.yul\":6615:6662   */\n      mstore\n        /* \"#utility.yul\":6679:6810   */\n      tag_122\n        /* \"#utility.yul\":6805:6809   */\n      dup2\n        /* \"#utility.yul\":6679:6810   */\n      tag_58\n      jump\t// in\n    tag_122:\n        /* \"#utility.yul\":6671:6810   */\n      swap1\n      pop\n        /* \"#utility.yul\":6398:6817   */\n      swap2\n      swap1\n      pop\n      jump\t// out\n        /* \"#utility.yul\":6823:7265   */\n    tag_37:\n        /* \"#utility.yul\":6972:6976   */\n      0x00\n        /* \"#utility.yul\":7010:7012   */\n      0x60\n        /* \"#utility.yul\":6999:7008   */\n      dup3\n        /* \"#utility.yul\":6995:7013   */\n      add\n        /* \"#utility.yul\":6987:7013   */\n      swap1\n      pop\n        /* \"#utility.yul\":7023:7094   */\n      tag_124\n        /* \"#utility.yul\":7091:7092   */\n      0x00\n        /* \"#utility.yul\":7080:7089   */\n      dup4\n        /* \"#utility.yul\":7076:7093   */\n      add\n        /* \"#utility.yul\":7067:7073   */\n      dup7\n        /* \"#utility.yul\":7023:7094   */\n      tag_46\n      jump\t// in\n    tag_124:\n        /* \"#utility.yul\":7104:7176   */\n      tag_125\n        /* \"#utility.yul\":7172:7174   */\n      0x20\n        /* \"#utility.yul\":7161:7170   */\n      dup4\n        /* \"#utility.yul\":7157:7175   */\n      add\n        /* \"#utility.yul\":7148:7154   */\n      dup6\n        /* \"#utility.yul\":7104:7176   */\n      tag_39\n      jump\t// in\n    tag_125:\n        /* \"#utility.yul\":7186:7258   */\n      tag_126\n        /* \"#utility.yul\":7254:7256   */\n      0x40\n        /* \"#utility.yul\":7243:7252   */\n      dup4\n        /* \"#utility.yul\":7239:7257   */\n      add\n        /* \"#utility.yul\":7230:7236   */\n      dup5\n        /* \"#utility.yul\":7186:7258   */\n      tag_39\n      jump\t// in\n    tag_126:\n        /* \"#utility.yul\":6823:7265   */\n      swap5\n      swap4\n      pop\n      pop\n      pop\n      pop\n      jump\t// out\n\n    auxdata: 0xa264697066735822122052dbfcbc2918c8de0fd0aa8b5cb4e29d5bb34602358ee594246bfb00adfcb21164736f6c63430008140033\n}\n",
				"bytecode": {
					"linkReferences": {},
					"object": "6080604052600a600155348015610014575f80fd5b5061067e806100225f395ff3fe608060405260043610610028575f3560e01c8063cbdd69b51461002c578063d0febe4c14610056575b5f80fd5b348015610037575f80fd5b50610040610074565b60405161004d91906102e6565b60405180910390f35b61005e61007a565b60405161006b91906102e6565b60405180910390f35b60015481565b5f8034116100bd576040517f08c379a00000000000000000000000000000000000000000000000000000000081526004016100b490610359565b60405180910390fd5b5f600154346100cc91906103a4565b90505f805f9054906101000a900473ffffffffffffffffffffffffffffffffffffffff1673ffffffffffffffffffffffffffffffffffffffff166370a08231306040518263ffffffff1660e01b81526004016101289190610424565b602060405180830381865afa158015610143573d5f803e3d5ffd5b505050506040513d601f19601f82011682018060405250810190610167919061046b565b9050818110156101ac576040517f08c379a00000000000000000000000000000000000000000000000000000000081526004016101a390610506565b60405180910390fd5b5f805f9054906101000a900473ffffffffffffffffffffffffffffffffffffffff1673ffffffffffffffffffffffffffffffffffffffff1663a9059cbb33856040518363ffffffff1660e01b8152600401610208929190610524565b6020604051808303815f875af1158015610224573d5f803e3d5ffd5b505050506040513d601f19601f820116820180604052508101906102489190610580565b90508061028a576040517f08c379a0000000000000000000000000000000000000000000000000000000008152600401610281906105f5565b60405180910390fd5b7f0a37b72bb67eee30e09084cf386f8a17817c57f620c3ab95fb25d6a20356ec773334856040516102bd93929190610613565b60405180910390a182935050505090565b5f819050919050565b6102e0816102ce565b82525050565b5f6020820190506102f95f8301846102d7565b92915050565b5f82825260208201905092915050565b7f53656e642045544820746f2062757920736f6d6520746f6b656e7300000000005f82015250565b5f610343601b836102ff565b915061034e8261030f565b602082019050919050565b5f6020820190508181035f83015261037081610337565b9050919050565b7f4e487b71000000000000000000000000000000000000000000000000000000005f52601160045260245ffd5b5f6103ae826102ce565b91506103b9836102ce565b92508282026103c7816102ce565b915082820484148315176103de576103dd610377565b5b5092915050565b5f73ffffffffffffffffffffffffffffffffffffffff82169050919050565b5f61040e826103e5565b9050919050565b61041e81610404565b82525050565b5f6020820190506104375f830184610415565b92915050565b5f80fd5b61044a816102ce565b8114610454575f80fd5b50565b5f8151905061046581610441565b92915050565b5f602082840312156104805761047f61043d565b5b5f61048d84828501610457565b91505092915050565b7f56656e646f7220636f6e747261637420686173206e6f7420656e6f75676820745f8201527f6f6b656e7320696e206974732062616c616e6365000000000000000000000000602082015250565b5f6104f06034836102ff565b91506104fb82610496565b604082019050919050565b5f6020820190508181035f83015261051d816104e4565b9050919050565b5f6040820190506105375f830185610415565b61054460208301846102d7565b9392505050565b5f8115159050919050565b61055f8161054b565b8114610569575f80fd5b50565b5f8151905061057a81610556565b92915050565b5f602082840312156105955761059461043d565b5b5f6105a28482850161056c565b91505092915050565b7f4661696c656420746f207472616e7366657220746f6b656e20746f20757365725f82015250565b5f6105df6020836102ff565b91506105ea826105ab565b602082019050919050565b5f6020820190508181035f83015261060c816105d3565b9050919050565b5f6060820190506106265f830186610415565b61063360208301856102d7565b61064060408301846102d7565b94935050505056fea264697066735822122052dbfcbc2918c8de0fd0aa8b5cb4e29d5bb34602358ee594246bfb00adfcb21164736f6c63430008140033",
					"opcodes": "PUSH1 0x80 PUSH1 0x40 MSTORE PUSH1 0xA PUSH1 0x1 SSTORE CALLVALUE DUP1 ISZERO PUSH2 0x14 JUMPI PUSH0 DUP1 REVERT JUMPDEST POP PUSH2 0x67E DUP1 PUSH2 0x22 PUSH0 CODECOPY PUSH0 RETURN INVALID PUSH1 0x80 PUSH1 0x40 MSTORE PUSH1 0x4 CALLDATASIZE LT PUSH2 0x28 JUMPI PUSH0 CALLDATALOAD PUSH1 0xE0 SHR DUP1 PUSH4 0xCBDD69B5 EQ PUSH2 0x2C JUMPI DUP1 PUSH4 0xD0FEBE4C EQ PUSH2 0x56 JUMPI JUMPDEST PUSH0 DUP1 REVERT JUMPDEST CALLVALUE DUP1 ISZERO PUSH2 0x37 JUMPI PUSH0 DUP1 REVERT JUMPDEST POP PUSH2 0x40 PUSH2 0x74 JUMP JUMPDEST PUSH1 0x40 MLOAD PUSH2 0x4D SWAP2 SWAP1 PUSH2 0x2E6 JUMP JUMPDEST PUSH1 0x40 MLOAD DUP1 SWAP2 SUB SWAP1 RETURN JUMPDEST PUSH2 0x5E PUSH2 0x7A JUMP JUMPDEST PUSH1 0x40 MLOAD PUSH2 0x6B SWAP2 SWAP1 PUSH2 0x2E6 JUMP JUMPDEST PUSH1 0x40 MLOAD DUP1 SWAP2 SUB SWAP1 RETURN JUMPDEST PUSH1 0x1 SLOAD DUP2 JUMP JUMPDEST PUSH0 DUP1 CALLVALUE GT PUSH2 0xBD JUMPI PUSH1 0x40 MLOAD PUSH32 0x8C379A000000000000000000000000000000000000000000000000000000000 DUP2 MSTORE PUSH1 0x4 ADD PUSH2 0xB4 SWAP1 PUSH2 0x359 JUMP JUMPDEST PUSH1 0x40 MLOAD DUP1 SWAP2 SUB SWAP1 REVERT JUMPDEST PUSH0 PUSH1 0x1 SLOAD CALLVALUE PUSH2 0xCC SWAP2 SWAP1 PUSH2 0x3A4 JUMP JUMPDEST SWAP1 POP PUSH0 DUP1 PUSH0 SWAP1 SLOAD SWAP1 PUSH2 0x100 EXP SWAP1 DIV PUSH20 0xFFFFFFFFFFFFFFFFFFFFFFFFFFFFFFFFFFFFFFFF AND PUSH20 0xFFFFFFFFFFFFFFFFFFFFFFFFFFFFFFFFFFFFFFFF AND PUSH4 0x70A08231 ADDRESS PUSH1 0x40 MLOAD DUP3 PUSH4 0xFFFFFFFF AND PUSH1 0xE0 SHL DUP2 MSTORE PUSH1 0x4 ADD PUSH2 0x128 SWAP2 SWAP1 PUSH2 0x424 JUMP JUMPDEST PUSH1 0x20 PUSH1 0x40 MLOAD DUP1 DUP4 SUB DUP2 DUP7 GAS STATICCALL ISZERO DUP1 ISZERO PUSH2 0x143 JUMPI RETURNDATASIZE PUSH0 DUP1 RETURNDATACOPY RETURNDATASIZE PUSH0 REVERT JUMPDEST POP POP POP POP PUSH1 0x40 MLOAD RETURNDATASIZE PUSH1 0x1F NOT PUSH1 0x1F DUP3 ADD AND DUP3 ADD DUP1 PUSH1 0x40 MSTORE POP DUP2 ADD SWAP1 PUSH2 0x167 SWAP2 SWAP1 PUSH2 0x46B JUMP JUMPDEST SWAP1 POP DUP2 DUP2 LT ISZERO PUSH2 0x1AC JUMPI PUSH1 0x40 MLOAD PUSH32 0x8C379A000000000000000000000000000000000000000000000000000000000 DUP2 MSTORE PUSH1 0x4 ADD PUSH2 0x1A3 SWAP1 PUSH2 0x506 JUMP JUMPDEST PUSH1 0x40 MLOAD DUP1 SWAP2 SUB SWAP1 REVERT JUMPDEST PUSH0 DUP1 PUSH0 SWAP1 SLOAD SWAP1 PUSH2 0x100 EXP SWAP1 DIV PUSH20 0xFFFFFFFFFFFFFFFFFFFFFFFFFFFFFFFFFFFFFFFF AND PUSH20 0xFFFFFFFFFFFFFFFFFFFFFFFFFFFFFFFFFFFFFFFF AND PUSH4 0xA9059CBB CALLER DUP6 PUSH1 0x40 MLOAD DUP4 PUSH4 0xFFFFFFFF AND PUSH1 0xE0 SHL DUP2 MSTORE PUSH1 0x4 ADD PUSH2 0x208 SWAP3 SWAP2 SWAP1 PUSH2 0x524 JUMP JUMPDEST PUSH1 0x20 PUSH1 0x40 MLOAD DUP1 DUP4 SUB DUP2 PUSH0 DUP8 GAS CALL ISZERO DUP1 ISZERO PUSH2 0x224 JUMPI RETURNDATASIZE PUSH0 DUP1 RETURNDATACOPY RETURNDATASIZE PUSH0 REVERT JUMPDEST POP POP POP POP PUSH1 0x40 MLOAD RETURNDATASIZE PUSH1 0x1F NOT PUSH1 0x1F DUP3 ADD AND DUP3 ADD DUP1 PUSH1 0x40 MSTORE POP DUP2 ADD SWAP1 PUSH2 0x248 SWAP2 SWAP1 PUSH2 0x580 JUMP JUMPDEST SWAP1 POP DUP1 PUSH2 0x28A JUMPI PUSH1 0x40 MLOAD PUSH32 0x8C379A000000000000000000000000000000000000000000000000000000000 DUP2 MSTORE PUSH1 0x4 ADD PUSH2 0x281 SWAP1 PUSH2 0x5F5 JUMP JUMPDEST PUSH1 0x40 MLOAD DUP1 SWAP2 SUB SWAP1 REVERT JUMPDEST PUSH32 0xA37B72BB67EEE30E09084CF386F8A17817C57F620C3AB95FB25D6A20356EC77 CALLER CALLVALUE DUP6 PUSH1 0x40 MLOAD PUSH2 0x2BD SWAP4 SWAP3 SWAP2 SWAP1 PUSH2 0x613 JUMP JUMPDEST PUSH1 0x40 MLOAD DUP1 SWAP2 SUB SWAP1 LOG1 DUP3 SWAP4 POP POP POP POP SWAP1 JUMP JUMPDEST PUSH0 DUP2 SWAP1 POP SWAP2 SWAP1 POP JUMP JUMPDEST PUSH2 0x2E0 DUP2 PUSH2 0x2CE JUMP JUMPDEST DUP3 MSTORE POP POP JUMP JUMPDEST PUSH0 PUSH1 0x20 DUP3 ADD SWAP1 POP PUSH2 0x2F9 PUSH0 DUP4 ADD DUP5 PUSH2 0x2D7 JUMP JUMPDEST SWAP3 SWAP2 POP POP JUMP JUMPDEST PUSH0 DUP3 DUP3 MSTORE PUSH1 0x20 DUP3 ADD SWAP1 POP SWAP3 SWAP2 POP POP JUMP JUMPDEST PUSH32 0x53656E642045544820746F2062757920736F6D6520746F6B656E730000000000 PUSH0 DUP3 ADD MSTORE POP JUMP JUMPDEST PUSH0 PUSH2 0x343 PUSH1 0x1B DUP4 PUSH2 0x2FF JUMP JUMPDEST SWAP2 POP PUSH2 0x34E DUP3 PUSH2 0x30F JUMP JUMPDEST PUSH1 0x20 DUP3 ADD SWAP1 POP SWAP2 SWAP1 POP JUMP JUMPDEST PUSH0 PUSH1 0x20 DUP3 ADD SWAP1 POP DUP2 DUP2 SUB PUSH0 DUP4 ADD MSTORE PUSH2 0x370 DUP2 PUSH2 0x337 JUMP JUMPDEST SWAP1 POP SWAP2 SWAP1 POP JUMP JUMPDEST PUSH32 0x4E487B7100000000000000000000000000000000000000000000000000000000 PUSH0 MSTORE PUSH1 0x11 PUSH1 0x4 MSTORE PUSH1 0x24 PUSH0 REVERT JUMPDEST PUSH0 PUSH2 0x3AE DUP3 PUSH2 0x2CE JUMP JUMPDEST SWAP2 POP PUSH2 0x3B9 DUP4 PUSH2 0x2CE JUMP JUMPDEST SWAP3 POP DUP3 DUP3 MUL PUSH2 0x3C7 DUP2 PUSH2 0x2CE JUMP JUMPDEST SWAP2 POP DUP3 DUP3 DIV DUP5 EQ DUP4 ISZERO OR PUSH2 0x3DE JUMPI PUSH2 0x3DD PUSH2 0x377 JUMP JUMPDEST JUMPDEST POP SWAP3 SWAP2 POP POP JUMP JUMPDEST PUSH0 PUSH20 0xFFFFFFFFFFFFFFFFFFFFFFFFFFFFFFFFFFFFFFFF DUP3 AND SWAP1 POP SWAP2 SWAP1 POP JUMP JUMPDEST PUSH0 PUSH2 0x40E DUP3 PUSH2 0x3E5 JUMP JUMPDEST SWAP1 POP SWAP2 SWAP1 POP JUMP JUMPDEST PUSH2 0x41E DUP2 PUSH2 0x404 JUMP JUMPDEST DUP3 MSTORE POP POP JUMP JUMPDEST PUSH0 PUSH1 0x20 DUP3 ADD SWAP1 POP PUSH2 0x437 PUSH0 DUP4 ADD DUP5 PUSH2 0x415 JUMP JUMPDEST SWAP3 SWAP2 POP POP JUMP JUMPDEST PUSH0 DUP1 REVERT JUMPDEST PUSH2 0x44A DUP2 PUSH2 0x2CE JUMP JUMPDEST DUP2 EQ PUSH2 0x454 JUMPI PUSH0 DUP1 REVERT JUMPDEST POP JUMP JUMPDEST PUSH0 DUP2 MLOAD SWAP1 POP PUSH2 0x465 DUP2 PUSH2 0x441 JUMP JUMPDEST SWAP3 SWAP2 POP POP JUMP JUMPDEST PUSH0 PUSH1 0x20 DUP3 DUP5 SUB SLT ISZERO PUSH2 0x480 JUMPI PUSH2 0x47F PUSH2 0x43D JUMP JUMPDEST JUMPDEST PUSH0 PUSH2 0x48D DUP5 DUP3 DUP6 ADD PUSH2 0x457 JUMP JUMPDEST SWAP2 POP POP SWAP3 SWAP2 POP POP JUMP JUMPDEST PUSH32 0x56656E646F7220636F6E747261637420686173206E6F7420656E6F7567682074 PUSH0 DUP3 ADD MSTORE PUSH32 0x6F6B656E7320696E206974732062616C616E6365000000000000000000000000 PUSH1 0x20 DUP3 ADD MSTORE POP JUMP JUMPDEST PUSH0 PUSH2 0x4F0 PUSH1 0x34 DUP4 PUSH2 0x2FF JUMP JUMPDEST SWAP2 POP PUSH2 0x4FB DUP3 PUSH2 0x496 JUMP JUMPDEST PUSH1 0x40 DUP3 ADD SWAP1 POP SWAP2 SWAP1 POP JUMP JUMPDEST PUSH0 PUSH1 0x20 DUP3 ADD SWAP1 POP DUP2 DUP2 SUB PUSH0 DUP4 ADD MSTORE PUSH2 0x51D DUP2 PUSH2 0x4E4 JUMP JUMPDEST SWAP1 POP SWAP2 SWAP1 POP JUMP JUMPDEST PUSH0 PUSH1 0x40 DUP3 ADD SWAP1 POP PUSH2 0x537 PUSH0 DUP4 ADD DUP6 PUSH2 0x415 JUMP JUMPDEST PUSH2 0x544 PUSH1 0x20 DUP4 ADD DUP5 PUSH2 0x2D7 JUMP JUMPDEST SWAP4 SWAP3 POP POP POP JUMP JUMPDEST PUSH0 DUP2 ISZERO ISZERO SWAP1 POP SWAP2 SWAP1 POP JUMP JUMPDEST PUSH2 0x55F DUP2 PUSH2 0x54B JUMP JUMPDEST DUP2 EQ PUSH2 0x569 JUMPI PUSH0 DUP1 REVERT JUMPDEST POP JUMP JUMPDEST PUSH0 DUP2 MLOAD SWAP1 POP PUSH2 0x57A DUP2 PUSH2 0x556 JUMP JUMPDEST SWAP3 SWAP2 POP POP JUMP JUMPDEST PUSH0 PUSH1 0x20 DUP3 DUP5 SUB SLT ISZERO PUSH2 0x595 JUMPI PUSH2 0x594 PUSH2 0x43D JUMP JUMPDEST JUMPDEST PUSH0 PUSH2 0x5A2 DUP5 DUP3 DUP6 ADD PUSH2 0x56C JUMP JUMPDEST SWAP2 POP POP SWAP3 SWAP2 POP POP JUMP JUMPDEST PUSH32 0x4661696C656420746F207472616E7366657220746F6B656E20746F2075736572 PUSH0 DUP3 ADD MSTORE POP JUMP JUMPDEST PUSH0 PUSH2 0x5DF PUSH1 0x20 DUP4 PUSH2 0x2FF JUMP JUMPDEST SWAP2 POP PUSH2 0x5EA DUP3 PUSH2 0x5AB JUMP JUMPDEST PUSH1 0x20 DUP3 ADD SWAP1 POP SWAP2 SWAP1 POP JUMP JUMPDEST PUSH0 PUSH1 0x20 DUP3 ADD SWAP1 POP DUP2 DUP2 SUB PUSH0 DUP4 ADD MSTORE PUSH2 0x60C DUP2 PUSH2 0x5D3 JUMP JUMPDEST SWAP1 POP SWAP2 SWAP1 POP JUMP JUMPDEST PUSH0 PUSH1 0x60 DUP3 ADD SWAP1 POP PUSH2 0x626 PUSH0 DUP4 ADD DUP7 PUSH2 0x415 JUMP JUMPDEST PUSH2 0x633 PUSH1 0x20 DUP4 ADD DUP6 PUSH2 0x2D7 JUMP JUMPDEST PUSH2 0x640 PUSH1 0x40 DUP4 ADD DUP5 PUSH2 0x2D7 JUMP JUMPDEST SWAP5 SWAP4 POP POP POP POP JUMP INVALID LOG2 PUSH5 0x6970667358 0x22 SLT KECCAK256 MSTORE 0xDB 0xFC 0xBC 0x29 XOR 0xC8 0xDE 0xF 0xD0 0xAA DUP12 0x5C 0xB4 0xE2 SWAP14 JUMPDEST 0xB3 CHAINID MUL CALLDATALOAD DUP15 0xE5 SWAP5 0x24 PUSH12 0xFB00ADFCB21164736F6C6343 STOP ADDMOD EQ STOP CALLER "
				},
				"gasEstimates": {
					"creation": {
						"codeDepositCost": "332400",
						"executionCost": "22472",
						"totalCost": "354872"
					},
					"external": {
						"buyTokens()": "infinite",
						"tokensPerEth()": "2403"
					}
				},
				"methodIdentifiers": {
					"buyTokens()": "d0febe4c",
					"tokensPerEth()": "cbdd69b5"
				}
			},
			"storageLayout": {
				"storage": [
					{
						"astId": 940,
						"contract": "Contract/blacklist.sol:blacklist",
						"label": "mytoken",
						"offset": 0,
						"slot": "0",
						"type": "t_contract(Mytoken)800"
					},
					{
						"astId": 943,
						"contract": "Contract/blacklist.sol:blacklist",
						"label": "tokensPerEth",
						"offset": 0,
						"slot": "1",
						"type": "t_uint256"
					}
				],
				"types": {
					"t_contract(Mytoken)800": {
						"encoding": "inplace",
						"label": "contract Mytoken",
						"numberOfBytes": "20"
					},
					"t_uint256": {
						"encoding": "inplace",
						"label": "uint256",
						"numberOfBytes": "32"
					}
				}
			},
			"userdoc": {
				"kind": "user",
				"methods": {},
				"version": 1
			}
		}
	}
}