{
	"Myblacktoken_flattened.sol": {
		"Myblacktoken": {
			"abi": [
				{
					"inputs": [],
					"stateMutability": "nonpayable",
					"type": "constructor"
				},
				{
					"inputs": [
						{
							"internalType": "address",
							"name": "spender",
							"type": "address"
						},
						{
							"internalType": "uint256",
							"name": "allowance",
							"type": "uint256"
						},
						{
							"internalType": "uint256",
							"name": "needed",
							"type": "uint256"
						}
					],
					"name": "ERC20InsufficientAllowance",
					"type": "error"
				},
				{
					"inputs": [
						{
							"internalType": "address",
							"name": "sender",
							"type": "address"
						},
						{
							"internalType": "uint256",
							"name": "balance",
							"type": "uint256"
						},
						{
							"internalType": "uint256",
							"name": "needed",
							"type": "uint256"
						}
					],
					"name": "ERC20InsufficientBalance",
					"type": "error"
				},
				{
					"inputs": [
						{
							"internalType": "address",
							"name": "approver",
							"type": "address"
						}
					],
					"name": "ERC20InvalidApprover",
					"type": "error"
				},
				{
					"inputs": [
						{
							"internalType": "address",
							"name": "receiver",
							"type": "address"
						}
					],
					"name": "ERC20InvalidReceiver",
					"type": "error"
				},
				{
					"inputs": [
						{
							"internalType": "address",
							"name": "sender",
							"type": "address"
						}
					],
					"name": "ERC20InvalidSender",
					"type": "error"
				},
				{
					"inputs": [
						{
							"internalType": "address",
							"name": "spender",
							"type": "address"
						}
					],
					"name": "ERC20InvalidSpender",
					"type": "error"
				},
				{
					"inputs": [
						{
							"internalType": "address",
							"name": "owner",
							"type": "address"
						}
					],
					"name": "OwnableInvalidOwner",
					"type": "error"
				},
				{
					"inputs": [
						{
							"internalType": "address",
							"name": "account",
							"type": "address"
						}
					],
					"name": "OwnableUnauthorizedAccount",
					"type": "error"
				},
				{
					"anonymous": false,
					"inputs": [
						{
							"indexed": true,
							"internalType": "address",
							"name": "owner",
							"type": "address"
						},
						{
							"indexed": true,
							"internalType": "address",
							"name": "spender",
							"type": "address"
						},
						{
							"indexed": false,
							"internalType": "uint256",
							"name": "value",
							"type": "uint256"
						}
					],
					"name": "Approval",
					"type": "event"
				},
				{
					"anonymous": false,
					"inputs": [
						{
							"indexed": true,
							"internalType": "address",
							"name": "previousOwner",
							"type": "address"
						},
						{
							"indexed": true,
							"internalType": "address",
							"name": "newOwner",
							"type": "address"
						}
					],
					"name": "OwnershipTransferred",
					"type": "event"
				},
				{
					"anonymous": false,
					"inputs": [
						{
							"indexed": true,
							"internalType": "address",
							"name": "from",
							"type": "address"
						},
						{
							"indexed": true,
							"internalType": "address",
							"name": "to",
							"type": "address"
						},
						{
							"indexed": false,
							"internalType": "uint256",
							"name": "value",
							"type": "uint256"
						}
					],
					"name": "Transfer",
					"type": "event"
				},
				{
					"inputs": [
						{
							"internalType": "address",
							"name": "owner",
							"type": "address"
						},
						{
							"internalType": "address",
							"name": "spender",
							"type": "address"
						}
					],
					"name": "allowance",
					"outputs": [
						{
							"internalType": "uint256",
							"name": "",
							"type": "uint256"
						}
					],
					"stateMutability": "view",
					"type": "function"
				},
				{
					"inputs": [
						{
							"internalType": "address",
							"name": "spender",
							"type": "address"
						},
						{
							"internalType": "uint256",
							"name": "value",
							"type": "uint256"
						}
					],
					"name": "approve",
					"outputs": [
						{
							"internalType": "bool",
							"name": "",
							"type": "bool"
						}
					],
					"stateMutability": "nonpayable",
					"type": "function"
				},
				{
					"inputs": [
						{
							"internalType": "address",
							"name": "account",
							"type": "address"
						}
					],
					"name": "balanceOf",
					"outputs": [
						{
							"internalType": "uint256",
							"name": "",
							"type": "uint256"
						}
					],
					"stateMutability": "view",
					"type": "function"
				},
				{
					"inputs": [
						{
							"internalType": "address",
							"name": "user",
							"type": "address"
						}
					],
					"name": "blacklistUser",
					"outputs": [],
					"stateMutability": "nonpayable",
					"type": "function"
				},
				{
					"inputs": [
						{
							"internalType": "uint256",
							"name": "amount",
							"type": "uint256"
						}
					],
					"name": "buyTokens",
					"outputs": [
						{
							"internalType": "string",
							"name": "",
							"type": "string"
						}
					],
					"stateMutability": "payable",
					"type": "function"
				},
				{
					"inputs": [],
					"name": "decimals",
					"outputs": [
						{
							"internalType": "uint8",
							"name": "",
							"type": "uint8"
						}
					],
					"stateMutability": "view",
					"type": "function"
				},
				{
					"inputs": [
						{
							"internalType": "address",
							"name": "",
							"type": "address"
						}
					],
					"name": "isBlacklisted",
					"outputs": [
						{
							"internalType": "bool",
							"name": "",
							"type": "bool"
						}
					],
					"stateMutability": "view",
					"type": "function"
				},
				{
					"inputs": [],
					"name": "name",
					"outputs": [
						{
							"internalType": "string",
							"name": "",
							"type": "string"
						}
					],
					"stateMutability": "view",
					"type": "function"
				},
				{
					"inputs": [],
					"name": "owner",
					"outputs": [
						{
							"internalType": "address",
							"name": "",
							"type": "address"
						}
					],
					"stateMutability": "view",
					"type": "function"
				},
				{
					"inputs": [
						{
							"internalType": "address",
							"name": "user",
							"type": "address"
						}
					],
					"name": "removeFromBlacklist",
					"outputs": [],
					"stateMutability": "nonpayable",
					"type": "function"
				},
				{
					"inputs": [],
					"name": "renounceOwnership",
					"outputs": [],
					"stateMutability": "nonpayable",
					"type": "function"
				},
				{
					"inputs": [],
					"name": "symbol",
					"outputs": [
						{
							"internalType": "string",
							"name": "",
							"type": "string"
						}
					],
					"stateMutability": "view",
					"type": "function"
				},
				{
					"inputs": [],
					"name": "totalSupply",
					"outputs": [
						{
							"internalType": "uint256",
							"name": "",
							"type": "uint256"
						}
					],
					"stateMutability": "view",
					"type": "function"
				},
				{
					"inputs": [
						{
							"internalType": "address",
							"name": "to",
							"type": "address"
						},
						{
							"internalType": "uint256",
							"name": "amount",
							"type": "uint256"
						}
					],
					"name": "transfer",
					"outputs": [
						{
							"internalType": "bool",
							"name": "",
							"type": "bool"
						}
					],
					"stateMutability": "nonpayable",
					"type": "function"
				},
				{
					"inputs": [
						{
							"internalType": "address",
							"name": "from",
							"type": "address"
						},
						{
							"internalType": "address",
							"name": "to",
							"type": "address"
						},
						{
							"internalType": "uint256",
							"name": "amount",
							"type": "uint256"
						}
					],
					"name": "transferFrom",
					"outputs": [
						{
							"internalType": "bool",
							"name": "",
							"type": "bool"
						}
					],
					"stateMutability": "nonpayable",
					"type": "function"
				},
				{
					"inputs": [
						{
							"internalType": "address",
							"name": "newOwner",
							"type": "address"
						}
					],
					"name": "transferOwnership",
					"outputs": [],
					"stateMutability": "nonpayable",
					"type": "function"
				}
			],
			"devdoc": {
				"errors": {
					"ERC20InsufficientAllowance(address,uint256,uint256)": [
						{
							"details": "Indicates a failure with the `spender`’s `allowance`. Used in transfers.",
							"params": {
								"allowance": "Amount of tokens a `spender` is allowed to operate with.",
								"needed": "Minimum amount required to perform a transfer.",
								"spender": "Address that may be allowed to operate on tokens without being their owner."
							}
						}
					],
					"ERC20InsufficientBalance(address,uint256,uint256)": [
						{
							"details": "Indicates an error related to the current `balance` of a `sender`. Used in transfers.",
							"params": {
								"balance": "Current balance for the interacting account.",
								"needed": "Minimum amount required to perform a transfer.",
								"sender": "Address whose tokens are being transferred."
							}
						}
					],
					"ERC20InvalidApprover(address)": [
						{
							"details": "Indicates a failure with the `approver` of a token to be approved. Used in approvals.",
							"params": {
								"approver": "Address initiating an approval operation."
							}
						}
					],
					"ERC20InvalidReceiver(address)": [
						{
							"details": "Indicates a failure with the token `receiver`. Used in transfers.",
							"params": {
								"receiver": "Address to which tokens are being transferred."
							}
						}
					],
					"ERC20InvalidSender(address)": [
						{
							"details": "Indicates a failure with the token `sender`. Used in transfers.",
							"params": {
								"sender": "Address whose tokens are being transferred."
							}
						}
					],
					"ERC20InvalidSpender(address)": [
						{
							"details": "Indicates a failure with the `spender` to be approved. Used in approvals.",
							"params": {
								"spender": "Address that may be allowed to operate on tokens without being their owner."
							}
						}
					],
					"OwnableInvalidOwner(address)": [
						{
							"details": "The owner is not a valid owner account. (eg. `address(0)`)"
						}
					],
					"OwnableUnauthorizedAccount(address)": [
						{
							"details": "The caller account is not authorized to perform an operation."
						}
					]
				},
				"events": {
					"Approval(address,address,uint256)": {
						"details": "Emitted when the allowance of a `spender` for an `owner` is set by a call to {approve}. `value` is the new allowance."
					},
					"Transfer(address,address,uint256)": {
						"details": "Emitted when `value` tokens are moved from one account (`from`) to another (`to`). Note that `value` may be zero."
					}
				},
				"kind": "dev",
				"methods": {
					"allowance(address,address)": {
						"details": "See {IERC20-allowance}."
					},
					"approve(address,uint256)": {
						"details": "See {IERC20-approve}. NOTE: If `value` is the maximum `uint256`, the allowance is not updated on `transferFrom`. This is semantically equivalent to an infinite approval. Requirements: - `spender` cannot be the zero address."
					},
					"balanceOf(address)": {
						"details": "See {IERC20-balanceOf}."
					},
					"decimals()": {
						"details": "Returns the number of decimals used to get its user representation. For example, if `decimals` equals `2`, a balance of `505` tokens should be displayed to a user as `5.05` (`505 / 10 ** 2`). Tokens usually opt for a value of 18, imitating the relationship between Ether and Wei. This is the default value returned by this function, unless it's overridden. NOTE: This information is only used for _display_ purposes: it in no way affects any of the arithmetic of the contract, including {IERC20-balanceOf} and {IERC20-transfer}."
					},
					"name()": {
						"details": "Returns the name of the token."
					},
					"owner()": {
						"details": "Returns the address of the current owner."
					},
					"renounceOwnership()": {
						"details": "Leaves the contract without owner. It will not be possible to call `onlyOwner` functions. Can only be called by the current owner. NOTE: Renouncing ownership will leave the contract without an owner, thereby disabling any functionality that is only available to the owner."
					},
					"symbol()": {
						"details": "Returns the symbol of the token, usually a shorter version of the name."
					},
					"totalSupply()": {
						"details": "See {IERC20-totalSupply}."
					},
					"transferOwnership(address)": {
						"details": "Transfers ownership of the contract to a new account (`newOwner`). Can only be called by the current owner."
					}
				},
				"version": 1
			},
			"evm": {
				"assembly": "    /* \"Myblacktoken_flattened.sol\":25110:27600  contract Myblacktoken is ERC20, Ownable {... */\n  mstore(0x40, 0x80)\n    /* \"Myblacktoken_flattened.sol\":25208:25330  constructor() ERC20(\"Token\", \"TOK\") Ownable(msg.sender) {... */\n  callvalue\n  dup1\n  iszero\n  tag_1\n  jumpi\n  0x00\n  dup1\n  revert\ntag_1:\n  pop\n    /* \"Myblacktoken_flattened.sol\":25252:25262  msg.sender */\n  caller\n    /* \"Myblacktoken_flattened.sol\":15777:15890  constructor(string memory name_, string memory symbol_) {... */\n  mload(0x40)\n  dup1\n  0x40\n  add\n  0x40\n  mstore\n  dup1\n  0x05\n  dup2\n  mstore\n  0x20\n  add\n  0x546f6b656e000000000000000000000000000000000000000000000000000000\n  dup2\n  mstore\n  pop\n  mload(0x40)\n  dup1\n  0x40\n  add\n  0x40\n  mstore\n  dup1\n  0x03\n  dup2\n  mstore\n  0x20\n  add\n  0x544f4b0000000000000000000000000000000000000000000000000000000000\n  dup2\n  mstore\n  pop\n    /* \"Myblacktoken_flattened.sol\":15851:15856  name_ */\n  dup2\n    /* \"Myblacktoken_flattened.sol\":15843:15848  _name */\n  0x03\n    /* \"Myblacktoken_flattened.sol\":15843:15856  _name = name_ */\n  swap1\n  dup2\n  tag_6\n  swap2\n  swap1\n  tag_7\n  jump\t// in\ntag_6:\n  pop\n    /* \"Myblacktoken_flattened.sol\":15876:15883  symbol_ */\n  dup1\n    /* \"Myblacktoken_flattened.sol\":15866:15873  _symbol */\n  0x04\n    /* \"Myblacktoken_flattened.sol\":15866:15883  _symbol = symbol_ */\n  swap1\n  dup2\n  tag_8\n  swap2\n  swap1\n  tag_7\n  jump\t// in\ntag_8:\n  pop\n    /* \"Myblacktoken_flattened.sol\":15777:15890  constructor(string memory name_, string memory symbol_) {... */\n  pop\n  pop\n    /* \"Myblacktoken_flattened.sol\":8762:8763  0 */\n  0x00\n    /* \"Myblacktoken_flattened.sol\":8738:8764  initialOwner == address(0) */\n  0xffffffffffffffffffffffffffffffffffffffff\n  and\n    /* \"Myblacktoken_flattened.sol\":8738:8750  initialOwner */\n  dup2\n    /* \"Myblacktoken_flattened.sol\":8738:8764  initialOwner == address(0) */\n  0xffffffffffffffffffffffffffffffffffffffff\n  and\n  sub\n    /* \"Myblacktoken_flattened.sol\":8734:8829  if (initialOwner == address(0)) {... */\n  tag_10\n  jumpi\n    /* \"Myblacktoken_flattened.sol\":8815:8816  0 */\n  0x00\n    /* \"Myblacktoken_flattened.sol\":8787:8818  OwnableInvalidOwner(address(0)) */\n  mload(0x40)\n  0x1e4fbdf700000000000000000000000000000000000000000000000000000000\n  dup2\n  mstore\n  0x04\n  add\n  tag_11\n  swap2\n  swap1\n  tag_12\n  jump\t// in\ntag_11:\n  mload(0x40)\n  dup1\n  swap2\n  sub\n  swap1\n  revert\n    /* \"Myblacktoken_flattened.sol\":8734:8829  if (initialOwner == address(0)) {... */\ntag_10:\n    /* \"Myblacktoken_flattened.sol\":8838:8870  _transferOwnership(initialOwner) */\n  tag_13\n    /* \"Myblacktoken_flattened.sol\":8857:8869  initialOwner */\n  dup2\n    /* \"Myblacktoken_flattened.sol\":8838:8856  _transferOwnership */\n  shl(0x20, tag_14)\n    /* \"Myblacktoken_flattened.sol\":8838:8870  _transferOwnership(initialOwner) */\n  0x20\n  shr\n  jump\t// in\ntag_13:\n    /* \"Myblacktoken_flattened.sol\":8690:8877  constructor(address initialOwner) {... */\n  pop\n    /* \"Myblacktoken_flattened.sol\":25274:25323  _mint(msg.sender, 1000 * 10**uint256(decimals())) */\n  tag_16\n    /* \"Myblacktoken_flattened.sol\":25280:25290  msg.sender */\n  caller\n    /* \"Myblacktoken_flattened.sol\":25311:25321  decimals() */\n  tag_17\n    /* \"Myblacktoken_flattened.sol\":25311:25319  decimals */\n  shl(0x20, tag_18)\n    /* \"Myblacktoken_flattened.sol\":25311:25321  decimals() */\n  0x20\n  shr\n  jump\t// in\ntag_17:\n    /* \"Myblacktoken_flattened.sol\":25303:25322  uint256(decimals()) */\n  0xff\n  and\n    /* \"Myblacktoken_flattened.sol\":25299:25301  10 */\n  0x0a\n    /* \"Myblacktoken_flattened.sol\":25299:25322  10**uint256(decimals()) */\n  tag_19\n  swap2\n  swap1\n  tag_20\n  jump\t// in\ntag_19:\n    /* \"Myblacktoken_flattened.sol\":25292:25296  1000 */\n  0x03e8\n    /* \"Myblacktoken_flattened.sol\":25292:25322  1000 * 10**uint256(decimals()) */\n  tag_21\n  swap2\n  swap1\n  tag_22\n  jump\t// in\ntag_21:\n    /* \"Myblacktoken_flattened.sol\":25274:25279  _mint */\n  shl(0x20, tag_23)\n    /* \"Myblacktoken_flattened.sol\":25274:25323  _mint(msg.sender, 1000 * 10**uint256(decimals())) */\n  0x20\n  shr\n  jump\t// in\ntag_16:\n    /* \"Myblacktoken_flattened.sol\":25110:27600  contract Myblacktoken is ERC20, Ownable {... */\n  jump(tag_24)\n    /* \"Myblacktoken_flattened.sol\":10381:10568  function _transferOwnership(address newOwner) internal virtual {... */\ntag_14:\n    /* \"Myblacktoken_flattened.sol\":10454:10470  address oldOwner */\n  0x00\n    /* \"Myblacktoken_flattened.sol\":10473:10479  _owner */\n  0x05\n  0x00\n  swap1\n  sload\n  swap1\n  0x0100\n  exp\n  swap1\n  div\n  0xffffffffffffffffffffffffffffffffffffffff\n  and\n    /* \"Myblacktoken_flattened.sol\":10454:10479  address oldOwner = _owner */\n  swap1\n  pop\n    /* \"Myblacktoken_flattened.sol\":10498:10506  newOwner */\n  dup2\n    /* \"Myblacktoken_flattened.sol\":10489:10495  _owner */\n  0x05\n  0x00\n    /* \"Myblacktoken_flattened.sol\":10489:10506  _owner = newOwner */\n  0x0100\n  exp\n  dup2\n  sload\n  dup2\n  0xffffffffffffffffffffffffffffffffffffffff\n  mul\n  not\n  and\n  swap1\n  dup4\n  0xffffffffffffffffffffffffffffffffffffffff\n  and\n  mul\n  or\n  swap1\n  sstore\n  pop\n    /* \"Myblacktoken_flattened.sol\":10552:10560  newOwner */\n  dup2\n    /* \"Myblacktoken_flattened.sol\":10521:10561  OwnershipTransferred(oldOwner, newOwner) */\n  0xffffffffffffffffffffffffffffffffffffffff\n  and\n    /* \"Myblacktoken_flattened.sol\":10542:10550  oldOwner */\n  dup2\n    /* \"Myblacktoken_flattened.sol\":10521:10561  OwnershipTransferred(oldOwner, newOwner) */\n  0xffffffffffffffffffffffffffffffffffffffff\n  and\n  0x8be0079c531659141344cd1fd0a4f28419497f9722a3daafe3b4186f6b6457e0\n  mload(0x40)\n  mload(0x40)\n  dup1\n  swap2\n  sub\n  swap1\n  log3\n    /* \"Myblacktoken_flattened.sol\":10444:10568  {... */\n  pop\n    /* \"Myblacktoken_flattened.sol\":10381:10568  function _transferOwnership(address newOwner) internal virtual {... */\n  pop\n  jump\t// out\n    /* \"Myblacktoken_flattened.sol\":16886:16968  function decimals() public view virtual returns (uint8) {... */\ntag_18:\n    /* \"Myblacktoken_flattened.sol\":16935:16940  uint8 */\n  0x00\n    /* \"Myblacktoken_flattened.sol\":16959:16961  18 */\n  0x12\n    /* \"Myblacktoken_flattened.sol\":16952:16961  return 18 */\n  swap1\n  pop\n    /* \"Myblacktoken_flattened.sol\":16886:16968  function decimals() public view virtual returns (uint8) {... */\n  swap1\n  jump\t// out\n    /* \"Myblacktoken_flattened.sol\":21613:21821  function _mint(address account, uint256 value) internal {... */\ntag_23:\n    /* \"Myblacktoken_flattened.sol\":21702:21703  0 */\n  0x00\n    /* \"Myblacktoken_flattened.sol\":21683:21704  account == address(0) */\n  0xffffffffffffffffffffffffffffffffffffffff\n  and\n    /* \"Myblacktoken_flattened.sol\":21683:21690  account */\n  dup3\n    /* \"Myblacktoken_flattened.sol\":21683:21704  account == address(0) */\n  0xffffffffffffffffffffffffffffffffffffffff\n  and\n  sub\n    /* \"Myblacktoken_flattened.sol\":21679:21770  if (account == address(0)) {... */\n  tag_28\n  jumpi\n    /* \"Myblacktoken_flattened.sol\":21756:21757  0 */\n  0x00\n    /* \"Myblacktoken_flattened.sol\":21727:21759  ERC20InvalidReceiver(address(0)) */\n  mload(0x40)\n  0xec442f0500000000000000000000000000000000000000000000000000000000\n  dup2\n  mstore\n  0x04\n  add\n  tag_29\n  swap2\n  swap1\n  tag_12\n  jump\t// in\ntag_29:\n  mload(0x40)\n  dup1\n  swap2\n  sub\n  swap1\n  revert\n    /* \"Myblacktoken_flattened.sol\":21679:21770  if (account == address(0)) {... */\ntag_28:\n    /* \"Myblacktoken_flattened.sol\":21779:21814  _update(address(0), account, value) */\n  tag_30\n    /* \"Myblacktoken_flattened.sol\":21795:21796  0 */\n  0x00\n    /* \"Myblacktoken_flattened.sol\":21799:21806  account */\n  dup4\n    /* \"Myblacktoken_flattened.sol\":21808:21813  value */\n  dup4\n    /* \"Myblacktoken_flattened.sol\":21779:21786  _update */\n  shl(0x20, tag_31)\n    /* \"Myblacktoken_flattened.sol\":21779:21814  _update(address(0), account, value) */\n  0x20\n  shr\n  jump\t// in\ntag_30:\n    /* \"Myblacktoken_flattened.sol\":21613:21821  function _mint(address account, uint256 value) internal {... */\n  pop\n  pop\n  jump\t// out\n    /* \"Myblacktoken_flattened.sol\":20163:21270  function _update(address from, address to, uint256 value) internal virtual {... */\ntag_31:\n    /* \"Myblacktoken_flattened.sol\":20268:20269  0 */\n  0x00\n    /* \"Myblacktoken_flattened.sol\":20252:20270  from == address(0) */\n  0xffffffffffffffffffffffffffffffffffffffff\n  and\n    /* \"Myblacktoken_flattened.sol\":20252:20256  from */\n  dup4\n    /* \"Myblacktoken_flattened.sol\":20252:20270  from == address(0) */\n  0xffffffffffffffffffffffffffffffffffffffff\n  and\n  sub\n    /* \"Myblacktoken_flattened.sol\":20248:20788  if (from == address(0)) {... */\n  tag_33\n  jumpi\n    /* \"Myblacktoken_flattened.sol\":20404:20409  value */\n  dup1\n    /* \"Myblacktoken_flattened.sol\":20388:20400  _totalSupply */\n  0x02\n  0x00\n    /* \"Myblacktoken_flattened.sol\":20388:20409  _totalSupply += value */\n  dup3\n  dup3\n  sload\n  tag_34\n  swap2\n  swap1\n  tag_35\n  jump\t// in\ntag_34:\n  swap3\n  pop\n  pop\n  dup2\n  swap1\n  sstore\n  pop\n    /* \"Myblacktoken_flattened.sol\":20248:20788  if (from == address(0)) {... */\n  jump(tag_36)\ntag_33:\n    /* \"Myblacktoken_flattened.sol\":20440:20459  uint256 fromBalance */\n  0x00\n    /* \"Myblacktoken_flattened.sol\":20462:20471  _balances */\n  dup1\n    /* \"Myblacktoken_flattened.sol\":20462:20477  _balances[from] */\n  0x00\n    /* \"Myblacktoken_flattened.sol\":20472:20476  from */\n  dup6\n    /* \"Myblacktoken_flattened.sol\":20462:20477  _balances[from] */\n  0xffffffffffffffffffffffffffffffffffffffff\n  and\n  0xffffffffffffffffffffffffffffffffffffffff\n  and\n  dup2\n  mstore\n  0x20\n  add\n  swap1\n  dup2\n  mstore\n  0x20\n  add\n  0x00\n  keccak256\n  sload\n    /* \"Myblacktoken_flattened.sol\":20440:20477  uint256 fromBalance = _balances[from] */\n  swap1\n  pop\n    /* \"Myblacktoken_flattened.sol\":20509:20514  value */\n  dup2\n    /* \"Myblacktoken_flattened.sol\":20495:20506  fromBalance */\n  dup2\n    /* \"Myblacktoken_flattened.sol\":20495:20514  fromBalance < value */\n  lt\n    /* \"Myblacktoken_flattened.sol\":20491:20606  if (fromBalance < value) {... */\n  iszero\n  tag_37\n  jumpi\n    /* \"Myblacktoken_flattened.sol\":20566:20570  from */\n  dup4\n    /* \"Myblacktoken_flattened.sol\":20572:20583  fromBalance */\n  dup2\n    /* \"Myblacktoken_flattened.sol\":20585:20590  value */\n  dup4\n    /* \"Myblacktoken_flattened.sol\":20541:20591  ERC20InsufficientBalance(from, fromBalance, value) */\n  mload(0x40)\n  0xe450d38c00000000000000000000000000000000000000000000000000000000\n  dup2\n  mstore\n  0x04\n  add\n  tag_38\n  swap4\n  swap3\n  swap2\n  swap1\n  tag_39\n  jump\t// in\ntag_38:\n  mload(0x40)\n  dup1\n  swap2\n  sub\n  swap1\n  revert\n    /* \"Myblacktoken_flattened.sol\":20491:20606  if (fromBalance < value) {... */\ntag_37:\n    /* \"Myblacktoken_flattened.sol\":20758:20763  value */\n  dup2\n    /* \"Myblacktoken_flattened.sol\":20744:20755  fromBalance */\n  dup2\n    /* \"Myblacktoken_flattened.sol\":20744:20763  fromBalance - value */\n  sub\n    /* \"Myblacktoken_flattened.sol\":20726:20735  _balances */\n  0x00\n    /* \"Myblacktoken_flattened.sol\":20726:20741  _balances[from] */\n  dup1\n    /* \"Myblacktoken_flattened.sol\":20736:20740  from */\n  dup7\n    /* \"Myblacktoken_flattened.sol\":20726:20741  _balances[from] */\n  0xffffffffffffffffffffffffffffffffffffffff\n  and\n  0xffffffffffffffffffffffffffffffffffffffff\n  and\n  dup2\n  mstore\n  0x20\n  add\n  swap1\n  dup2\n  mstore\n  0x20\n  add\n  0x00\n  keccak256\n    /* \"Myblacktoken_flattened.sol\":20726:20763  _balances[from] = fromBalance - value */\n  dup2\n  swap1\n  sstore\n  pop\n    /* \"Myblacktoken_flattened.sol\":20426:20788  {... */\n  pop\n    /* \"Myblacktoken_flattened.sol\":20248:20788  if (from == address(0)) {... */\ntag_36:\n    /* \"Myblacktoken_flattened.sol\":20816:20817  0 */\n  0x00\n    /* \"Myblacktoken_flattened.sol\":20802:20818  to == address(0) */\n  0xffffffffffffffffffffffffffffffffffffffff\n  and\n    /* \"Myblacktoken_flattened.sol\":20802:20804  to */\n  dup3\n    /* \"Myblacktoken_flattened.sol\":20802:20818  to == address(0) */\n  0xffffffffffffffffffffffffffffffffffffffff\n  and\n  sub\n    /* \"Myblacktoken_flattened.sol\":20798:21223  if (to == address(0)) {... */\n  tag_40\n  jumpi\n    /* \"Myblacktoken_flattened.sol\":20981:20986  value */\n  dup1\n    /* \"Myblacktoken_flattened.sol\":20965:20977  _totalSupply */\n  0x02\n  0x00\n    /* \"Myblacktoken_flattened.sol\":20965:20986  _totalSupply -= value */\n  dup3\n  dup3\n  sload\n  sub\n  swap3\n  pop\n  pop\n  dup2\n  swap1\n  sstore\n  pop\n    /* \"Myblacktoken_flattened.sol\":20798:21223  if (to == address(0)) {... */\n  jump(tag_41)\ntag_40:\n    /* \"Myblacktoken_flattened.sol\":21193:21198  value */\n  dup1\n    /* \"Myblacktoken_flattened.sol\":21176:21185  _balances */\n  0x00\n    /* \"Myblacktoken_flattened.sol\":21176:21189  _balances[to] */\n  dup1\n    /* \"Myblacktoken_flattened.sol\":21186:21188  to */\n  dup5\n    /* \"Myblacktoken_flattened.sol\":21176:21189  _balances[to] */\n  0xffffffffffffffffffffffffffffffffffffffff\n  and\n  0xffffffffffffffffffffffffffffffffffffffff\n  and\n  dup2\n  mstore\n  0x20\n  add\n  swap1\n  dup2\n  mstore\n  0x20\n  add\n  0x00\n  keccak256\n  0x00\n    /* \"Myblacktoken_flattened.sol\":21176:21198  _balances[to] += value */\n  dup3\n  dup3\n  sload\n  add\n  swap3\n  pop\n  pop\n  dup2\n  swap1\n  sstore\n  pop\n    /* \"Myblacktoken_flattened.sol\":20798:21223  if (to == address(0)) {... */\ntag_41:\n    /* \"Myblacktoken_flattened.sol\":21253:21255  to */\n  dup2\n    /* \"Myblacktoken_flattened.sol\":21238:21263  Transfer(from, to, value) */\n  0xffffffffffffffffffffffffffffffffffffffff\n  and\n    /* \"Myblacktoken_flattened.sol\":21247:21251  from */\n  dup4\n    /* \"Myblacktoken_flattened.sol\":21238:21263  Transfer(from, to, value) */\n  0xffffffffffffffffffffffffffffffffffffffff\n  and\n  0xddf252ad1be2c89b69c2b068fc378daa952ba7f163c4a11628f55a4df523b3ef\n    /* \"Myblacktoken_flattened.sol\":21257:21262  value */\n  dup4\n    /* \"Myblacktoken_flattened.sol\":21238:21263  Transfer(from, to, value) */\n  mload(0x40)\n  tag_42\n  swap2\n  swap1\n  tag_43\n  jump\t// in\ntag_42:\n  mload(0x40)\n  dup1\n  swap2\n  sub\n  swap1\n  log3\n    /* \"Myblacktoken_flattened.sol\":20163:21270  function _update(address from, address to, uint256 value) internal virtual {... */\n  pop\n  pop\n  pop\n  jump\t// out\n    /* \"#utility.yul\":7:106   */\ntag_44:\n    /* \"#utility.yul\":59:65   */\n  0x00\n    /* \"#utility.yul\":93:98   */\n  dup2\n    /* \"#utility.yul\":87:99   */\n  mload\n    /* \"#utility.yul\":77:99   */\n  swap1\n  pop\n    /* \"#utility.yul\":7:106   */\n  swap2\n  swap1\n  pop\n  jump\t// out\n    /* \"#utility.yul\":112:292   */\ntag_45:\n    /* \"#utility.yul\":160:237   */\n  0x4e487b7100000000000000000000000000000000000000000000000000000000\n    /* \"#utility.yul\":157:158   */\n  0x00\n    /* \"#utility.yul\":150:238   */\n  mstore\n    /* \"#utility.yul\":257:261   */\n  0x41\n    /* \"#utility.yul\":254:255   */\n  0x04\n    /* \"#utility.yul\":247:262   */\n  mstore\n    /* \"#utility.yul\":281:285   */\n  0x24\n    /* \"#utility.yul\":278:279   */\n  0x00\n    /* \"#utility.yul\":271:286   */\n  revert\n    /* \"#utility.yul\":298:478   */\ntag_46:\n    /* \"#utility.yul\":346:423   */\n  0x4e487b7100000000000000000000000000000000000000000000000000000000\n    /* \"#utility.yul\":343:344   */\n  0x00\n    /* \"#utility.yul\":336:424   */\n  mstore\n    /* \"#utility.yul\":443:447   */\n  0x22\n    /* \"#utility.yul\":440:441   */\n  0x04\n    /* \"#utility.yul\":433:448   */\n  mstore\n    /* \"#utility.yul\":467:471   */\n  0x24\n    /* \"#utility.yul\":464:465   */\n  0x00\n    /* \"#utility.yul\":457:472   */\n  revert\n    /* \"#utility.yul\":484:804   */\ntag_47:\n    /* \"#utility.yul\":528:534   */\n  0x00\n    /* \"#utility.yul\":565:566   */\n  0x02\n    /* \"#utility.yul\":559:563   */\n  dup3\n    /* \"#utility.yul\":555:567   */\n  div\n    /* \"#utility.yul\":545:567   */\n  swap1\n  pop\n    /* \"#utility.yul\":612:613   */\n  0x01\n    /* \"#utility.yul\":606:610   */\n  dup3\n    /* \"#utility.yul\":602:614   */\n  and\n    /* \"#utility.yul\":633:651   */\n  dup1\n    /* \"#utility.yul\":623:704   */\n  tag_77\n  jumpi\n    /* \"#utility.yul\":689:693   */\n  0x7f\n    /* \"#utility.yul\":681:687   */\n  dup3\n    /* \"#utility.yul\":677:694   */\n  and\n    /* \"#utility.yul\":667:694   */\n  swap2\n  pop\n    /* \"#utility.yul\":623:704   */\ntag_77:\n    /* \"#utility.yul\":751:753   */\n  0x20\n    /* \"#utility.yul\":743:749   */\n  dup3\n    /* \"#utility.yul\":740:754   */\n  lt\n    /* \"#utility.yul\":720:738   */\n  dup2\n    /* \"#utility.yul\":717:755   */\n  sub\n    /* \"#utility.yul\":714:798   */\n  tag_78\n  jumpi\n    /* \"#utility.yul\":770:788   */\n  tag_79\n  tag_46\n  jump\t// in\ntag_79:\n    /* \"#utility.yul\":714:798   */\ntag_78:\n    /* \"#utility.yul\":535:804   */\n  pop\n    /* \"#utility.yul\":484:804   */\n  swap2\n  swap1\n  pop\n  jump\t// out\n    /* \"#utility.yul\":810:951   */\ntag_48:\n    /* \"#utility.yul\":859:863   */\n  0x00\n    /* \"#utility.yul\":882:885   */\n  dup2\n    /* \"#utility.yul\":874:885   */\n  swap1\n  pop\n    /* \"#utility.yul\":905:908   */\n  dup2\n    /* \"#utility.yul\":902:903   */\n  0x00\n    /* \"#utility.yul\":895:909   */\n  mstore\n    /* \"#utility.yul\":939:943   */\n  0x20\n    /* \"#utility.yul\":936:937   */\n  0x00\n    /* \"#utility.yul\":926:944   */\n  keccak256\n    /* \"#utility.yul\":918:944   */\n  swap1\n  pop\n    /* \"#utility.yul\":810:951   */\n  swap2\n  swap1\n  pop\n  jump\t// out\n    /* \"#utility.yul\":957:1050   */\ntag_49:\n    /* \"#utility.yul\":994:1000   */\n  0x00\n    /* \"#utility.yul\":1041:1043   */\n  0x20\n    /* \"#utility.yul\":1036:1038   */\n  0x1f\n    /* \"#utility.yul\":1029:1034   */\n  dup4\n    /* \"#utility.yul\":1025:1039   */\n  add\n    /* \"#utility.yul\":1021:1044   */\n  div\n    /* \"#utility.yul\":1011:1044   */\n  swap1\n  pop\n    /* \"#utility.yul\":957:1050   */\n  swap2\n  swap1\n  pop\n  jump\t// out\n    /* \"#utility.yul\":1056:1163   */\ntag_50:\n    /* \"#utility.yul\":1100:1108   */\n  0x00\n    /* \"#utility.yul\":1150:1155   */\n  dup3\n    /* \"#utility.yul\":1144:1148   */\n  dup3\n    /* \"#utility.yul\":1140:1156   */\n  shl\n    /* \"#utility.yul\":1119:1156   */\n  swap1\n  pop\n    /* \"#utility.yul\":1056:1163   */\n  swap3\n  swap2\n  pop\n  pop\n  jump\t// out\n    /* \"#utility.yul\":1169:1562   */\ntag_51:\n    /* \"#utility.yul\":1238:1244   */\n  0x00\n    /* \"#utility.yul\":1288:1289   */\n  0x08\n    /* \"#utility.yul\":1276:1286   */\n  dup4\n    /* \"#utility.yul\":1272:1290   */\n  mul\n    /* \"#utility.yul\":1311:1408   */\n  tag_84\n    /* \"#utility.yul\":1341:1407   */\n  0xffffffffffffffffffffffffffffffffffffffffffffffffffffffffffffffff\n    /* \"#utility.yul\":1330:1339   */\n  dup3\n    /* \"#utility.yul\":1311:1408   */\n  tag_50\n  jump\t// in\ntag_84:\n    /* \"#utility.yul\":1429:1468   */\n  tag_85\n    /* \"#utility.yul\":1459:1467   */\n  dup7\n    /* \"#utility.yul\":1448:1457   */\n  dup4\n    /* \"#utility.yul\":1429:1468   */\n  tag_50\n  jump\t// in\ntag_85:\n    /* \"#utility.yul\":1417:1468   */\n  swap6\n  pop\n    /* \"#utility.yul\":1501:1505   */\n  dup1\n    /* \"#utility.yul\":1497:1506   */\n  not\n    /* \"#utility.yul\":1490:1495   */\n  dup5\n    /* \"#utility.yul\":1486:1507   */\n  and\n    /* \"#utility.yul\":1477:1507   */\n  swap4\n  pop\n    /* \"#utility.yul\":1550:1554   */\n  dup1\n    /* \"#utility.yul\":1540:1548   */\n  dup7\n    /* \"#utility.yul\":1536:1555   */\n  and\n    /* \"#utility.yul\":1529:1534   */\n  dup5\n    /* \"#utility.yul\":1526:1556   */\n  or\n    /* \"#utility.yul\":1516:1556   */\n  swap3\n  pop\n    /* \"#utility.yul\":1245:1562   */\n  pop\n  pop\n    /* \"#utility.yul\":1169:1562   */\n  swap4\n  swap3\n  pop\n  pop\n  pop\n  jump\t// out\n    /* \"#utility.yul\":1568:1645   */\ntag_52:\n    /* \"#utility.yul\":1605:1612   */\n  0x00\n    /* \"#utility.yul\":1634:1639   */\n  dup2\n    /* \"#utility.yul\":1623:1639   */\n  swap1\n  pop\n    /* \"#utility.yul\":1568:1645   */\n  swap2\n  swap1\n  pop\n  jump\t// out\n    /* \"#utility.yul\":1651:1711   */\ntag_53:\n    /* \"#utility.yul\":1679:1682   */\n  0x00\n    /* \"#utility.yul\":1700:1705   */\n  dup2\n    /* \"#utility.yul\":1693:1705   */\n  swap1\n  pop\n    /* \"#utility.yul\":1651:1711   */\n  swap2\n  swap1\n  pop\n  jump\t// out\n    /* \"#utility.yul\":1717:1859   */\ntag_54:\n    /* \"#utility.yul\":1767:1776   */\n  0x00\n    /* \"#utility.yul\":1800:1853   */\n  tag_89\n    /* \"#utility.yul\":1818:1852   */\n  tag_90\n    /* \"#utility.yul\":1827:1851   */\n  tag_91\n    /* \"#utility.yul\":1845:1850   */\n  dup5\n    /* \"#utility.yul\":1827:1851   */\n  tag_52\n  jump\t// in\ntag_91:\n    /* \"#utility.yul\":1818:1852   */\n  tag_53\n  jump\t// in\ntag_90:\n    /* \"#utility.yul\":1800:1853   */\n  tag_52\n  jump\t// in\ntag_89:\n    /* \"#utility.yul\":1787:1853   */\n  swap1\n  pop\n    /* \"#utility.yul\":1717:1859   */\n  swap2\n  swap1\n  pop\n  jump\t// out\n    /* \"#utility.yul\":1865:1940   */\ntag_55:\n    /* \"#utility.yul\":1908:1911   */\n  0x00\n    /* \"#utility.yul\":1929:1934   */\n  dup2\n    /* \"#utility.yul\":1922:1934   */\n  swap1\n  pop\n    /* \"#utility.yul\":1865:1940   */\n  swap2\n  swap1\n  pop\n  jump\t// out\n    /* \"#utility.yul\":1946:2215   */\ntag_56:\n    /* \"#utility.yul\":2056:2095   */\n  tag_94\n    /* \"#utility.yul\":2087:2094   */\n  dup4\n    /* \"#utility.yul\":2056:2095   */\n  tag_54\n  jump\t// in\ntag_94:\n    /* \"#utility.yul\":2117:2208   */\n  tag_95\n    /* \"#utility.yul\":2166:2207   */\n  tag_96\n    /* \"#utility.yul\":2190:2206   */\n  dup3\n    /* \"#utility.yul\":2166:2207   */\n  tag_55\n  jump\t// in\ntag_96:\n    /* \"#utility.yul\":2158:2164   */\n  dup5\n    /* \"#utility.yul\":2151:2155   */\n  dup5\n    /* \"#utility.yul\":2145:2156   */\n  sload\n    /* \"#utility.yul\":2117:2208   */\n  tag_51\n  jump\t// in\ntag_95:\n    /* \"#utility.yul\":2111:2115   */\n  dup3\n    /* \"#utility.yul\":2104:2209   */\n  sstore\n    /* \"#utility.yul\":2022:2215   */\n  pop\n    /* \"#utility.yul\":1946:2215   */\n  pop\n  pop\n  pop\n  jump\t// out\n    /* \"#utility.yul\":2221:2294   */\ntag_57:\n    /* \"#utility.yul\":2266:2269   */\n  0x00\n    /* \"#utility.yul\":2221:2294   */\n  swap1\n  jump\t// out\n    /* \"#utility.yul\":2300:2489   */\ntag_58:\n    /* \"#utility.yul\":2377:2409   */\n  tag_99\n  tag_57\n  jump\t// in\ntag_99:\n    /* \"#utility.yul\":2418:2483   */\n  tag_100\n    /* \"#utility.yul\":2476:2482   */\n  dup2\n    /* \"#utility.yul\":2468:2474   */\n  dup5\n    /* \"#utility.yul\":2462:2466   */\n  dup5\n    /* \"#utility.yul\":2418:2483   */\n  tag_56\n  jump\t// in\ntag_100:\n    /* \"#utility.yul\":2353:2489   */\n  pop\n    /* \"#utility.yul\":2300:2489   */\n  pop\n  pop\n  jump\t// out\n    /* \"#utility.yul\":2495:2681   */\ntag_59:\n    /* \"#utility.yul\":2555:2675   */\ntag_102:\n    /* \"#utility.yul\":2572:2575   */\n  dup2\n    /* \"#utility.yul\":2565:2570   */\n  dup2\n    /* \"#utility.yul\":2562:2576   */\n  lt\n    /* \"#utility.yul\":2555:2675   */\n  iszero\n  tag_104\n  jumpi\n    /* \"#utility.yul\":2626:2665   */\n  tag_105\n    /* \"#utility.yul\":2663:2664   */\n  0x00\n    /* \"#utility.yul\":2656:2661   */\n  dup3\n    /* \"#utility.yul\":2626:2665   */\n  tag_58\n  jump\t// in\ntag_105:\n    /* \"#utility.yul\":2599:2600   */\n  0x01\n    /* \"#utility.yul\":2592:2597   */\n  dup2\n    /* \"#utility.yul\":2588:2601   */\n  add\n    /* \"#utility.yul\":2579:2601   */\n  swap1\n  pop\n    /* \"#utility.yul\":2555:2675   */\n  jump(tag_102)\ntag_104:\n    /* \"#utility.yul\":2495:2681   */\n  pop\n  pop\n  jump\t// out\n    /* \"#utility.yul\":2687:3230   */\ntag_60:\n    /* \"#utility.yul\":2788:2790   */\n  0x1f\n    /* \"#utility.yul\":2783:2786   */\n  dup3\n    /* \"#utility.yul\":2780:2791   */\n  gt\n    /* \"#utility.yul\":2777:3223   */\n  iszero\n  tag_107\n  jumpi\n    /* \"#utility.yul\":2822:2860   */\n  tag_108\n    /* \"#utility.yul\":2854:2859   */\n  dup2\n    /* \"#utility.yul\":2822:2860   */\n  tag_48\n  jump\t// in\ntag_108:\n    /* \"#utility.yul\":2906:2935   */\n  tag_109\n    /* \"#utility.yul\":2924:2934   */\n  dup5\n    /* \"#utility.yul\":2906:2935   */\n  tag_49\n  jump\t// in\ntag_109:\n    /* \"#utility.yul\":2896:2904   */\n  dup2\n    /* \"#utility.yul\":2892:2936   */\n  add\n    /* \"#utility.yul\":3089:3091   */\n  0x20\n    /* \"#utility.yul\":3077:3087   */\n  dup6\n    /* \"#utility.yul\":3074:3092   */\n  lt\n    /* \"#utility.yul\":3071:3120   */\n  iszero\n  tag_110\n  jumpi\n    /* \"#utility.yul\":3110:3118   */\n  dup2\n    /* \"#utility.yul\":3095:3118   */\n  swap1\n  pop\n    /* \"#utility.yul\":3071:3120   */\ntag_110:\n    /* \"#utility.yul\":3133:3213   */\n  tag_111\n    /* \"#utility.yul\":3189:3211   */\n  tag_112\n    /* \"#utility.yul\":3207:3210   */\n  dup6\n    /* \"#utility.yul\":3189:3211   */\n  tag_49\n  jump\t// in\ntag_112:\n    /* \"#utility.yul\":3179:3187   */\n  dup4\n    /* \"#utility.yul\":3175:3212   */\n  add\n    /* \"#utility.yul\":3162:3173   */\n  dup3\n    /* \"#utility.yul\":3133:3213   */\n  tag_59\n  jump\t// in\ntag_111:\n    /* \"#utility.yul\":2792:3223   */\n  pop\n  pop\n    /* \"#utility.yul\":2777:3223   */\ntag_107:\n    /* \"#utility.yul\":2687:3230   */\n  pop\n  pop\n  pop\n  jump\t// out\n    /* \"#utility.yul\":3236:3353   */\ntag_61:\n    /* \"#utility.yul\":3290:3298   */\n  0x00\n    /* \"#utility.yul\":3340:3345   */\n  dup3\n    /* \"#utility.yul\":3334:3338   */\n  dup3\n    /* \"#utility.yul\":3330:3346   */\n  shr\n    /* \"#utility.yul\":3309:3346   */\n  swap1\n  pop\n    /* \"#utility.yul\":3236:3353   */\n  swap3\n  swap2\n  pop\n  pop\n  jump\t// out\n    /* \"#utility.yul\":3359:3528   */\ntag_62:\n    /* \"#utility.yul\":3403:3409   */\n  0x00\n    /* \"#utility.yul\":3436:3487   */\n  tag_115\n    /* \"#utility.yul\":3484:3485   */\n  0x00\n    /* \"#utility.yul\":3480:3486   */\n  not\n    /* \"#utility.yul\":3472:3477   */\n  dup5\n    /* \"#utility.yul\":3469:3470   */\n  0x08\n    /* \"#utility.yul\":3465:3478   */\n  mul\n    /* \"#utility.yul\":3436:3487   */\n  tag_61\n  jump\t// in\ntag_115:\n    /* \"#utility.yul\":3432:3488   */\n  not\n    /* \"#utility.yul\":3517:3521   */\n  dup1\n    /* \"#utility.yul\":3511:3515   */\n  dup4\n    /* \"#utility.yul\":3507:3522   */\n  and\n    /* \"#utility.yul\":3497:3522   */\n  swap2\n  pop\n    /* \"#utility.yul\":3410:3528   */\n  pop\n    /* \"#utility.yul\":3359:3528   */\n  swap3\n  swap2\n  pop\n  pop\n  jump\t// out\n    /* \"#utility.yul\":3533:3828   */\ntag_63:\n    /* \"#utility.yul\":3609:3613   */\n  0x00\n    /* \"#utility.yul\":3755:3784   */\n  tag_117\n    /* \"#utility.yul\":3780:3783   */\n  dup4\n    /* \"#utility.yul\":3774:3778   */\n  dup4\n    /* \"#utility.yul\":3755:3784   */\n  tag_62\n  jump\t// in\ntag_117:\n    /* \"#utility.yul\":3747:3784   */\n  swap2\n  pop\n    /* \"#utility.yul\":3817:3820   */\n  dup3\n    /* \"#utility.yul\":3814:3815   */\n  0x02\n    /* \"#utility.yul\":3810:3821   */\n  mul\n    /* \"#utility.yul\":3804:3808   */\n  dup3\n    /* \"#utility.yul\":3801:3822   */\n  or\n    /* \"#utility.yul\":3793:3822   */\n  swap1\n  pop\n    /* \"#utility.yul\":3533:3828   */\n  swap3\n  swap2\n  pop\n  pop\n  jump\t// out\n    /* \"#utility.yul\":3833:5228   */\ntag_7:\n    /* \"#utility.yul\":3950:3987   */\n  tag_119\n    /* \"#utility.yul\":3983:3986   */\n  dup3\n    /* \"#utility.yul\":3950:3987   */\n  tag_44\n  jump\t// in\ntag_119:\n    /* \"#utility.yul\":4052:4070   */\n  0xffffffffffffffff\n    /* \"#utility.yul\":4044:4050   */\n  dup2\n    /* \"#utility.yul\":4041:4071   */\n  gt\n    /* \"#utility.yul\":4038:4094   */\n  iszero\n  tag_120\n  jumpi\n    /* \"#utility.yul\":4074:4092   */\n  tag_121\n  tag_45\n  jump\t// in\ntag_121:\n    /* \"#utility.yul\":4038:4094   */\ntag_120:\n    /* \"#utility.yul\":4118:4156   */\n  tag_122\n    /* \"#utility.yul\":4150:4154   */\n  dup3\n    /* \"#utility.yul\":4144:4155   */\n  sload\n    /* \"#utility.yul\":4118:4156   */\n  tag_47\n  jump\t// in\ntag_122:\n    /* \"#utility.yul\":4203:4270   */\n  tag_123\n    /* \"#utility.yul\":4263:4269   */\n  dup3\n    /* \"#utility.yul\":4255:4261   */\n  dup3\n    /* \"#utility.yul\":4249:4253   */\n  dup6\n    /* \"#utility.yul\":4203:4270   */\n  tag_60\n  jump\t// in\ntag_123:\n    /* \"#utility.yul\":4297:4298   */\n  0x00\n    /* \"#utility.yul\":4321:4325   */\n  0x20\n    /* \"#utility.yul\":4308:4325   */\n  swap1\n  pop\n    /* \"#utility.yul\":4353:4355   */\n  0x1f\n    /* \"#utility.yul\":4345:4351   */\n  dup4\n    /* \"#utility.yul\":4342:4356   */\n  gt\n    /* \"#utility.yul\":4370:4371   */\n  0x01\n    /* \"#utility.yul\":4365:4983   */\n  dup2\n  eq\n  tag_125\n  jumpi\n    /* \"#utility.yul\":5027:5028   */\n  0x00\n    /* \"#utility.yul\":5044:5050   */\n  dup5\n    /* \"#utility.yul\":5041:5118   */\n  iszero\n  tag_126\n  jumpi\n    /* \"#utility.yul\":5093:5102   */\n  dup3\n    /* \"#utility.yul\":5088:5091   */\n  dup8\n    /* \"#utility.yul\":5084:5103   */\n  add\n    /* \"#utility.yul\":5078:5104   */\n  mload\n    /* \"#utility.yul\":5069:5104   */\n  swap1\n  pop\n    /* \"#utility.yul\":5041:5118   */\ntag_126:\n    /* \"#utility.yul\":5144:5211   */\n  tag_127\n    /* \"#utility.yul\":5204:5210   */\n  dup6\n    /* \"#utility.yul\":5197:5202   */\n  dup3\n    /* \"#utility.yul\":5144:5211   */\n  tag_63\n  jump\t// in\ntag_127:\n    /* \"#utility.yul\":5138:5142   */\n  dup7\n    /* \"#utility.yul\":5131:5212   */\n  sstore\n    /* \"#utility.yul\":5000:5222   */\n  pop\n    /* \"#utility.yul\":4335:5222   */\n  jump(tag_124)\n    /* \"#utility.yul\":4365:4983   */\ntag_125:\n    /* \"#utility.yul\":4417:4421   */\n  0x1f\n    /* \"#utility.yul\":4413:4422   */\n  not\n    /* \"#utility.yul\":4405:4411   */\n  dup5\n    /* \"#utility.yul\":4401:4423   */\n  and\n    /* \"#utility.yul\":4451:4488   */\n  tag_128\n    /* \"#utility.yul\":4483:4487   */\n  dup7\n    /* \"#utility.yul\":4451:4488   */\n  tag_48\n  jump\t// in\ntag_128:\n    /* \"#utility.yul\":4510:4511   */\n  0x00\n    /* \"#utility.yul\":4524:4732   */\ntag_129:\n    /* \"#utility.yul\":4538:4545   */\n  dup3\n    /* \"#utility.yul\":4535:4536   */\n  dup2\n    /* \"#utility.yul\":4532:4546   */\n  lt\n    /* \"#utility.yul\":4524:4732   */\n  iszero\n  tag_131\n  jumpi\n    /* \"#utility.yul\":4617:4626   */\n  dup5\n    /* \"#utility.yul\":4612:4615   */\n  dup10\n    /* \"#utility.yul\":4608:4627   */\n  add\n    /* \"#utility.yul\":4602:4628   */\n  mload\n    /* \"#utility.yul\":4594:4600   */\n  dup3\n    /* \"#utility.yul\":4587:4629   */\n  sstore\n    /* \"#utility.yul\":4668:4669   */\n  0x01\n    /* \"#utility.yul\":4660:4666   */\n  dup3\n    /* \"#utility.yul\":4656:4670   */\n  add\n    /* \"#utility.yul\":4646:4670   */\n  swap2\n  pop\n    /* \"#utility.yul\":4715:4717   */\n  0x20\n    /* \"#utility.yul\":4704:4713   */\n  dup6\n    /* \"#utility.yul\":4700:4718   */\n  add\n    /* \"#utility.yul\":4687:4718   */\n  swap5\n  pop\n    /* \"#utility.yul\":4561:4565   */\n  0x20\n    /* \"#utility.yul\":4558:4559   */\n  dup2\n    /* \"#utility.yul\":4554:4566   */\n  add\n    /* \"#utility.yul\":4549:4566   */\n  swap1\n  pop\n    /* \"#utility.yul\":4524:4732   */\n  jump(tag_129)\ntag_131:\n    /* \"#utility.yul\":4760:4766   */\n  dup7\n    /* \"#utility.yul\":4751:4758   */\n  dup4\n    /* \"#utility.yul\":4748:4767   */\n  lt\n    /* \"#utility.yul\":4745:4924   */\n  iszero\n  tag_132\n  jumpi\n    /* \"#utility.yul\":4818:4827   */\n  dup5\n    /* \"#utility.yul\":4813:4816   */\n  dup10\n    /* \"#utility.yul\":4809:4828   */\n  add\n    /* \"#utility.yul\":4803:4829   */\n  mload\n    /* \"#utility.yul\":4861:4909   */\n  tag_133\n    /* \"#utility.yul\":4903:4907   */\n  0x1f\n    /* \"#utility.yul\":4895:4901   */\n  dup10\n    /* \"#utility.yul\":4891:4908   */\n  and\n    /* \"#utility.yul\":4880:4889   */\n  dup3\n    /* \"#utility.yul\":4861:4909   */\n  tag_62\n  jump\t// in\ntag_133:\n    /* \"#utility.yul\":4853:4859   */\n  dup4\n    /* \"#utility.yul\":4846:4910   */\n  sstore\n    /* \"#utility.yul\":4768:4924   */\n  pop\n    /* \"#utility.yul\":4745:4924   */\ntag_132:\n    /* \"#utility.yul\":4970:4971   */\n  0x01\n    /* \"#utility.yul\":4966:4967   */\n  0x02\n    /* \"#utility.yul\":4958:4964   */\n  dup9\n    /* \"#utility.yul\":4954:4968   */\n  mul\n    /* \"#utility.yul\":4950:4972   */\n  add\n    /* \"#utility.yul\":4944:4948   */\n  dup9\n    /* \"#utility.yul\":4937:4973   */\n  sstore\n    /* \"#utility.yul\":4372:4983   */\n  pop\n  pop\n  pop\n    /* \"#utility.yul\":4335:5222   */\ntag_124:\n  pop\n    /* \"#utility.yul\":3925:5228   */\n  pop\n  pop\n  pop\n    /* \"#utility.yul\":3833:5228   */\n  pop\n  pop\n  jump\t// out\n    /* \"#utility.yul\":5234:5360   */\ntag_64:\n    /* \"#utility.yul\":5271:5278   */\n  0x00\n    /* \"#utility.yul\":5311:5353   */\n  0xffffffffffffffffffffffffffffffffffffffff\n    /* \"#utility.yul\":5304:5309   */\n  dup3\n    /* \"#utility.yul\":5300:5354   */\n  and\n    /* \"#utility.yul\":5289:5354   */\n  swap1\n  pop\n    /* \"#utility.yul\":5234:5360   */\n  swap2\n  swap1\n  pop\n  jump\t// out\n    /* \"#utility.yul\":5366:5462   */\ntag_65:\n    /* \"#utility.yul\":5403:5410   */\n  0x00\n    /* \"#utility.yul\":5432:5456   */\n  tag_136\n    /* \"#utility.yul\":5450:5455   */\n  dup3\n    /* \"#utility.yul\":5432:5456   */\n  tag_64\n  jump\t// in\ntag_136:\n    /* \"#utility.yul\":5421:5456   */\n  swap1\n  pop\n    /* \"#utility.yul\":5366:5462   */\n  swap2\n  swap1\n  pop\n  jump\t// out\n    /* \"#utility.yul\":5468:5586   */\ntag_66:\n    /* \"#utility.yul\":5555:5579   */\n  tag_138\n    /* \"#utility.yul\":5573:5578   */\n  dup2\n    /* \"#utility.yul\":5555:5579   */\n  tag_65\n  jump\t// in\ntag_138:\n    /* \"#utility.yul\":5550:5553   */\n  dup3\n    /* \"#utility.yul\":5543:5580   */\n  mstore\n    /* \"#utility.yul\":5468:5586   */\n  pop\n  pop\n  jump\t// out\n    /* \"#utility.yul\":5592:5814   */\ntag_12:\n    /* \"#utility.yul\":5685:5689   */\n  0x00\n    /* \"#utility.yul\":5723:5725   */\n  0x20\n    /* \"#utility.yul\":5712:5721   */\n  dup3\n    /* \"#utility.yul\":5708:5726   */\n  add\n    /* \"#utility.yul\":5700:5726   */\n  swap1\n  pop\n    /* \"#utility.yul\":5736:5807   */\n  tag_140\n    /* \"#utility.yul\":5804:5805   */\n  0x00\n    /* \"#utility.yul\":5793:5802   */\n  dup4\n    /* \"#utility.yul\":5789:5806   */\n  add\n    /* \"#utility.yul\":5780:5786   */\n  dup5\n    /* \"#utility.yul\":5736:5807   */\n  tag_66\n  jump\t// in\ntag_140:\n    /* \"#utility.yul\":5592:5814   */\n  swap3\n  swap2\n  pop\n  pop\n  jump\t// out\n    /* \"#utility.yul\":5820:6000   */\ntag_67:\n    /* \"#utility.yul\":5868:5945   */\n  0x4e487b7100000000000000000000000000000000000000000000000000000000\n    /* \"#utility.yul\":5865:5866   */\n  0x00\n    /* \"#utility.yul\":5858:5946   */\n  mstore\n    /* \"#utility.yul\":5965:5969   */\n  0x11\n    /* \"#utility.yul\":5962:5963   */\n  0x04\n    /* \"#utility.yul\":5955:5970   */\n  mstore\n    /* \"#utility.yul\":5989:5993   */\n  0x24\n    /* \"#utility.yul\":5986:5987   */\n  0x00\n    /* \"#utility.yul\":5979:5994   */\n  revert\n    /* \"#utility.yul\":6006:6108   */\ntag_68:\n    /* \"#utility.yul\":6048:6056   */\n  0x00\n    /* \"#utility.yul\":6095:6100   */\n  dup2\n    /* \"#utility.yul\":6092:6093   */\n  0x01\n    /* \"#utility.yul\":6088:6101   */\n  shr\n    /* \"#utility.yul\":6067:6101   */\n  swap1\n  pop\n    /* \"#utility.yul\":6006:6108   */\n  swap2\n  swap1\n  pop\n  jump\t// out\n    /* \"#utility.yul\":6114:6962   */\ntag_69:\n    /* \"#utility.yul\":6175:6180   */\n  0x00\n    /* \"#utility.yul\":6182:6186   */\n  dup1\n    /* \"#utility.yul\":6206:6212   */\n  dup3\n    /* \"#utility.yul\":6197:6212   */\n  swap2\n  pop\n    /* \"#utility.yul\":6230:6235   */\n  dup4\n    /* \"#utility.yul\":6221:6235   */\n  swap1\n  pop\n    /* \"#utility.yul\":6244:6956   */\ntag_144:\n    /* \"#utility.yul\":6265:6266   */\n  0x01\n    /* \"#utility.yul\":6255:6263   */\n  dup6\n    /* \"#utility.yul\":6252:6267   */\n  gt\n    /* \"#utility.yul\":6244:6956   */\n  iszero\n  tag_146\n  jumpi\n    /* \"#utility.yul\":6360:6364   */\n  dup1\n    /* \"#utility.yul\":6355:6358   */\n  dup7\n    /* \"#utility.yul\":6351:6365   */\n  div\n    /* \"#utility.yul\":6345:6349   */\n  dup2\n    /* \"#utility.yul\":6342:6366   */\n  gt\n    /* \"#utility.yul\":6339:6389   */\n  iszero\n  tag_147\n  jumpi\n    /* \"#utility.yul\":6369:6387   */\n  tag_148\n  tag_67\n  jump\t// in\ntag_148:\n    /* \"#utility.yul\":6339:6389   */\ntag_147:\n    /* \"#utility.yul\":6419:6420   */\n  0x01\n    /* \"#utility.yul\":6409:6417   */\n  dup6\n    /* \"#utility.yul\":6405:6421   */\n  and\n    /* \"#utility.yul\":6402:6853   */\n  iszero\n  tag_149\n  jumpi\n    /* \"#utility.yul\":6834:6838   */\n  dup1\n    /* \"#utility.yul\":6827:6832   */\n  dup3\n    /* \"#utility.yul\":6823:6839   */\n  mul\n    /* \"#utility.yul\":6814:6839   */\n  swap2\n  pop\n    /* \"#utility.yul\":6402:6853   */\ntag_149:\n    /* \"#utility.yul\":6884:6888   */\n  dup1\n    /* \"#utility.yul\":6878:6882   */\n  dup2\n    /* \"#utility.yul\":6874:6889   */\n  mul\n    /* \"#utility.yul\":6866:6889   */\n  swap1\n  pop\n    /* \"#utility.yul\":6914:6946   */\n  tag_150\n    /* \"#utility.yul\":6937:6945   */\n  dup6\n    /* \"#utility.yul\":6914:6946   */\n  tag_68\n  jump\t// in\ntag_150:\n    /* \"#utility.yul\":6902:6946   */\n  swap5\n  pop\n    /* \"#utility.yul\":6244:6956   */\n  jump(tag_144)\ntag_146:\n    /* \"#utility.yul\":6114:6962   */\n  swap5\n  pop\n  swap5\n  swap3\n  pop\n  pop\n  pop\n  jump\t// out\n    /* \"#utility.yul\":6968:8041   */\ntag_70:\n    /* \"#utility.yul\":7022:7027   */\n  0x00\n    /* \"#utility.yul\":7213:7221   */\n  dup3\n    /* \"#utility.yul\":7203:7243   */\n  tag_152\n  jumpi\n    /* \"#utility.yul\":7234:7235   */\n  0x01\n    /* \"#utility.yul\":7225:7235   */\n  swap1\n  pop\n    /* \"#utility.yul\":7236:7241   */\n  jump(tag_151)\n    /* \"#utility.yul\":7203:7243   */\ntag_152:\n    /* \"#utility.yul\":7262:7266   */\n  dup2\n    /* \"#utility.yul\":7252:7288   */\n  tag_153\n  jumpi\n    /* \"#utility.yul\":7279:7280   */\n  0x00\n    /* \"#utility.yul\":7270:7280   */\n  swap1\n  pop\n    /* \"#utility.yul\":7281:7286   */\n  jump(tag_151)\n    /* \"#utility.yul\":7252:7288   */\ntag_153:\n    /* \"#utility.yul\":7348:7352   */\n  dup2\n    /* \"#utility.yul\":7396:7397   */\n  0x01\n    /* \"#utility.yul\":7391:7418   */\n  dup2\n  eq\n  tag_155\n  jumpi\n    /* \"#utility.yul\":7432:7433   */\n  0x02\n    /* \"#utility.yul\":7427:7618   */\n  dup2\n  eq\n  tag_156\n  jumpi\n    /* \"#utility.yul\":7341:7618   */\n  jump(tag_154)\n    /* \"#utility.yul\":7391:7418   */\ntag_155:\n    /* \"#utility.yul\":7409:7410   */\n  0x01\n    /* \"#utility.yul\":7400:7410   */\n  swap2\n  pop\n    /* \"#utility.yul\":7411:7416   */\n  pop\n  jump(tag_151)\n    /* \"#utility.yul\":7427:7618   */\ntag_156:\n    /* \"#utility.yul\":7472:7475   */\n  0xff\n    /* \"#utility.yul\":7462:7470   */\n  dup5\n    /* \"#utility.yul\":7459:7476   */\n  gt\n    /* \"#utility.yul\":7456:7499   */\n  iszero\n  tag_157\n  jumpi\n    /* \"#utility.yul\":7479:7497   */\n  tag_158\n  tag_67\n  jump\t// in\ntag_158:\n    /* \"#utility.yul\":7456:7499   */\ntag_157:\n    /* \"#utility.yul\":7528:7536   */\n  dup4\n    /* \"#utility.yul\":7525:7526   */\n  0x02\n    /* \"#utility.yul\":7521:7537   */\n  exp\n    /* \"#utility.yul\":7512:7537   */\n  swap2\n  pop\n    /* \"#utility.yul\":7563:7566   */\n  dup5\n    /* \"#utility.yul\":7556:7561   */\n  dup3\n    /* \"#utility.yul\":7553:7567   */\n  gt\n    /* \"#utility.yul\":7550:7590   */\n  iszero\n  tag_159\n  jumpi\n    /* \"#utility.yul\":7570:7588   */\n  tag_160\n  tag_67\n  jump\t// in\ntag_160:\n    /* \"#utility.yul\":7550:7590   */\ntag_159:\n    /* \"#utility.yul\":7603:7608   */\n  pop\n  jump(tag_151)\n    /* \"#utility.yul\":7341:7618   */\ntag_154:\n  pop\n    /* \"#utility.yul\":7727:7729   */\n  0x20\n    /* \"#utility.yul\":7717:7725   */\n  dup4\n    /* \"#utility.yul\":7714:7730   */\n  lt\n    /* \"#utility.yul\":7708:7711   */\n  0x0133\n    /* \"#utility.yul\":7702:7706   */\n  dup4\n    /* \"#utility.yul\":7699:7712   */\n  lt\n    /* \"#utility.yul\":7695:7731   */\n  and\n    /* \"#utility.yul\":7677:7679   */\n  0x4e\n    /* \"#utility.yul\":7667:7675   */\n  dup5\n    /* \"#utility.yul\":7664:7680   */\n  lt\n    /* \"#utility.yul\":7659:7661   */\n  0x0b\n    /* \"#utility.yul\":7653:7657   */\n  dup5\n    /* \"#utility.yul\":7650:7662   */\n  lt\n    /* \"#utility.yul\":7646:7681   */\n  and\n    /* \"#utility.yul\":7630:7741   */\n  or\n    /* \"#utility.yul\":7627:7873   */\n  iszero\n  tag_161\n  jumpi\n    /* \"#utility.yul\":7783:7791   */\n  dup3\n    /* \"#utility.yul\":7777:7781   */\n  dup3\n    /* \"#utility.yul\":7773:7792   */\n  exp\n    /* \"#utility.yul\":7764:7792   */\n  swap1\n  pop\n    /* \"#utility.yul\":7818:7821   */\n  dup4\n    /* \"#utility.yul\":7811:7816   */\n  dup2\n    /* \"#utility.yul\":7808:7822   */\n  gt\n    /* \"#utility.yul\":7805:7845   */\n  iszero\n  tag_162\n  jumpi\n    /* \"#utility.yul\":7825:7843   */\n  tag_163\n  tag_67\n  jump\t// in\ntag_163:\n    /* \"#utility.yul\":7805:7845   */\ntag_162:\n    /* \"#utility.yul\":7858:7863   */\n  jump(tag_151)\n    /* \"#utility.yul\":7627:7873   */\ntag_161:\n    /* \"#utility.yul\":7898:7940   */\n  tag_164\n    /* \"#utility.yul\":7936:7939   */\n  dup5\n    /* \"#utility.yul\":7926:7934   */\n  dup5\n    /* \"#utility.yul\":7920:7924   */\n  dup5\n    /* \"#utility.yul\":7917:7918   */\n  0x01\n    /* \"#utility.yul\":7898:7940   */\n  tag_69\n  jump\t// in\ntag_164:\n    /* \"#utility.yul\":7883:7940   */\n  swap3\n  pop\n  swap1\n  pop\n    /* \"#utility.yul\":7972:7976   */\n  dup2\n    /* \"#utility.yul\":7967:7970   */\n  dup5\n    /* \"#utility.yul\":7963:7977   */\n  div\n    /* \"#utility.yul\":7956:7961   */\n  dup2\n    /* \"#utility.yul\":7953:7978   */\n  gt\n    /* \"#utility.yul\":7950:8001   */\n  iszero\n  tag_165\n  jumpi\n    /* \"#utility.yul\":7981:7999   */\n  tag_166\n  tag_67\n  jump\t// in\ntag_166:\n    /* \"#utility.yul\":7950:8001   */\ntag_165:\n    /* \"#utility.yul\":8030:8034   */\n  dup2\n    /* \"#utility.yul\":8023:8028   */\n  dup2\n    /* \"#utility.yul\":8019:8035   */\n  mul\n    /* \"#utility.yul\":8010:8035   */\n  swap1\n  pop\n    /* \"#utility.yul\":6968:8041   */\ntag_151:\n  swap4\n  swap3\n  pop\n  pop\n  pop\n  jump\t// out\n    /* \"#utility.yul\":8047:8332   */\ntag_20:\n    /* \"#utility.yul\":8107:8112   */\n  0x00\n    /* \"#utility.yul\":8131:8154   */\n  tag_168\n    /* \"#utility.yul\":8149:8153   */\n  dup3\n    /* \"#utility.yul\":8131:8154   */\n  tag_52\n  jump\t// in\ntag_168:\n    /* \"#utility.yul\":8123:8154   */\n  swap2\n  pop\n    /* \"#utility.yul\":8175:8202   */\n  tag_169\n    /* \"#utility.yul\":8193:8201   */\n  dup4\n    /* \"#utility.yul\":8175:8202   */\n  tag_52\n  jump\t// in\ntag_169:\n    /* \"#utility.yul\":8163:8202   */\n  swap3\n  pop\n    /* \"#utility.yul\":8221:8325   */\n  tag_170\n    /* \"#utility.yul\":8258:8324   */\n  0xffffffffffffffffffffffffffffffffffffffffffffffffffffffffffffffff\n    /* \"#utility.yul\":8248:8256   */\n  dup5\n    /* \"#utility.yul\":8242:8246   */\n  dup5\n    /* \"#utility.yul\":8221:8325   */\n  tag_70\n  jump\t// in\ntag_170:\n    /* \"#utility.yul\":8212:8325   */\n  swap1\n  pop\n    /* \"#utility.yul\":8047:8332   */\n  swap3\n  swap2\n  pop\n  pop\n  jump\t// out\n    /* \"#utility.yul\":8338:8748   */\ntag_22:\n    /* \"#utility.yul\":8378:8385   */\n  0x00\n    /* \"#utility.yul\":8401:8421   */\n  tag_172\n    /* \"#utility.yul\":8419:8420   */\n  dup3\n    /* \"#utility.yul\":8401:8421   */\n  tag_52\n  jump\t// in\ntag_172:\n    /* \"#utility.yul\":8396:8421   */\n  swap2\n  pop\n    /* \"#utility.yul\":8435:8455   */\n  tag_173\n    /* \"#utility.yul\":8453:8454   */\n  dup4\n    /* \"#utility.yul\":8435:8455   */\n  tag_52\n  jump\t// in\ntag_173:\n    /* \"#utility.yul\":8430:8455   */\n  swap3\n  pop\n    /* \"#utility.yul\":8490:8491   */\n  dup3\n    /* \"#utility.yul\":8487:8488   */\n  dup3\n    /* \"#utility.yul\":8483:8492   */\n  mul\n    /* \"#utility.yul\":8512:8542   */\n  tag_174\n    /* \"#utility.yul\":8530:8541   */\n  dup2\n    /* \"#utility.yul\":8512:8542   */\n  tag_52\n  jump\t// in\ntag_174:\n    /* \"#utility.yul\":8501:8542   */\n  swap2\n  pop\n    /* \"#utility.yul\":8691:8692   */\n  dup3\n    /* \"#utility.yul\":8682:8689   */\n  dup3\n    /* \"#utility.yul\":8678:8693   */\n  div\n    /* \"#utility.yul\":8675:8676   */\n  dup5\n    /* \"#utility.yul\":8672:8694   */\n  eq\n    /* \"#utility.yul\":8652:8653   */\n  dup4\n    /* \"#utility.yul\":8645:8654   */\n  iszero\n    /* \"#utility.yul\":8625:8708   */\n  or\n    /* \"#utility.yul\":8602:8741   */\n  tag_175\n  jumpi\n    /* \"#utility.yul\":8721:8739   */\n  tag_176\n  tag_67\n  jump\t// in\ntag_176:\n    /* \"#utility.yul\":8602:8741   */\ntag_175:\n    /* \"#utility.yul\":8386:8748   */\n  pop\n    /* \"#utility.yul\":8338:8748   */\n  swap3\n  swap2\n  pop\n  pop\n  jump\t// out\n    /* \"#utility.yul\":8754:8945   */\ntag_35:\n    /* \"#utility.yul\":8794:8797   */\n  0x00\n    /* \"#utility.yul\":8813:8833   */\n  tag_178\n    /* \"#utility.yul\":8831:8832   */\n  dup3\n    /* \"#utility.yul\":8813:8833   */\n  tag_52\n  jump\t// in\ntag_178:\n    /* \"#utility.yul\":8808:8833   */\n  swap2\n  pop\n    /* \"#utility.yul\":8847:8867   */\n  tag_179\n    /* \"#utility.yul\":8865:8866   */\n  dup4\n    /* \"#utility.yul\":8847:8867   */\n  tag_52\n  jump\t// in\ntag_179:\n    /* \"#utility.yul\":8842:8867   */\n  swap3\n  pop\n    /* \"#utility.yul\":8890:8891   */\n  dup3\n    /* \"#utility.yul\":8887:8888   */\n  dup3\n    /* \"#utility.yul\":8883:8892   */\n  add\n    /* \"#utility.yul\":8876:8892   */\n  swap1\n  pop\n    /* \"#utility.yul\":8911:8914   */\n  dup1\n    /* \"#utility.yul\":8908:8909   */\n  dup3\n    /* \"#utility.yul\":8905:8915   */\n  gt\n    /* \"#utility.yul\":8902:8938   */\n  iszero\n  tag_180\n  jumpi\n    /* \"#utility.yul\":8918:8936   */\n  tag_181\n  tag_67\n  jump\t// in\ntag_181:\n    /* \"#utility.yul\":8902:8938   */\ntag_180:\n    /* \"#utility.yul\":8754:8945   */\n  swap3\n  swap2\n  pop\n  pop\n  jump\t// out\n    /* \"#utility.yul\":8951:9069   */\ntag_71:\n    /* \"#utility.yul\":9038:9062   */\n  tag_183\n    /* \"#utility.yul\":9056:9061   */\n  dup2\n    /* \"#utility.yul\":9038:9062   */\n  tag_52\n  jump\t// in\ntag_183:\n    /* \"#utility.yul\":9033:9036   */\n  dup3\n    /* \"#utility.yul\":9026:9063   */\n  mstore\n    /* \"#utility.yul\":8951:9069   */\n  pop\n  pop\n  jump\t// out\n    /* \"#utility.yul\":9075:9517   */\ntag_39:\n    /* \"#utility.yul\":9224:9228   */\n  0x00\n    /* \"#utility.yul\":9262:9264   */\n  0x60\n    /* \"#utility.yul\":9251:9260   */\n  dup3\n    /* \"#utility.yul\":9247:9265   */\n  add\n    /* \"#utility.yul\":9239:9265   */\n  swap1\n  pop\n    /* \"#utility.yul\":9275:9346   */\n  tag_185\n    /* \"#utility.yul\":9343:9344   */\n  0x00\n    /* \"#utility.yul\":9332:9341   */\n  dup4\n    /* \"#utility.yul\":9328:9345   */\n  add\n    /* \"#utility.yul\":9319:9325   */\n  dup7\n    /* \"#utility.yul\":9275:9346   */\n  tag_66\n  jump\t// in\ntag_185:\n    /* \"#utility.yul\":9356:9428   */\n  tag_186\n    /* \"#utility.yul\":9424:9426   */\n  0x20\n    /* \"#utility.yul\":9413:9422   */\n  dup4\n    /* \"#utility.yul\":9409:9427   */\n  add\n    /* \"#utility.yul\":9400:9406   */\n  dup6\n    /* \"#utility.yul\":9356:9428   */\n  tag_71\n  jump\t// in\ntag_186:\n    /* \"#utility.yul\":9438:9510   */\n  tag_187\n    /* \"#utility.yul\":9506:9508   */\n  0x40\n    /* \"#utility.yul\":9495:9504   */\n  dup4\n    /* \"#utility.yul\":9491:9509   */\n  add\n    /* \"#utility.yul\":9482:9488   */\n  dup5\n    /* \"#utility.yul\":9438:9510   */\n  tag_71\n  jump\t// in\ntag_187:\n    /* \"#utility.yul\":9075:9517   */\n  swap5\n  swap4\n  pop\n  pop\n  pop\n  pop\n  jump\t// out\n    /* \"#utility.yul\":9523:9745   */\ntag_43:\n    /* \"#utility.yul\":9616:9620   */\n  0x00\n    /* \"#utility.yul\":9654:9656   */\n  0x20\n    /* \"#utility.yul\":9643:9652   */\n  dup3\n    /* \"#utility.yul\":9639:9657   */\n  add\n    /* \"#utility.yul\":9631:9657   */\n  swap1\n  pop\n    /* \"#utility.yul\":9667:9738   */\n  tag_189\n    /* \"#utility.yul\":9735:9736   */\n  0x00\n    /* \"#utility.yul\":9724:9733   */\n  dup4\n    /* \"#utility.yul\":9720:9737   */\n  add\n    /* \"#utility.yul\":9711:9717   */\n  dup5\n    /* \"#utility.yul\":9667:9738   */\n  tag_71\n  jump\t// in\ntag_189:\n    /* \"#utility.yul\":9523:9745   */\n  swap3\n  swap2\n  pop\n  pop\n  jump\t// out\n    /* \"Myblacktoken_flattened.sol\":25110:27600  contract Myblacktoken is ERC20, Ownable {... */\ntag_24:\n  dataSize(sub_0)\n  dup1\n  dataOffset(sub_0)\n  0x00\n  codecopy\n  0x00\n  return\nstop\n\nsub_0: assembly {\n        /* \"Myblacktoken_flattened.sol\":25110:27600  contract Myblacktoken is ERC20, Ownable {... */\n      mstore(0x40, 0x80)\n      jumpi(tag_1, lt(calldatasize, 0x04))\n      shr(0xe0, calldataload(0x00))\n      dup1\n      0x715018a6\n      gt\n      tag_18\n      jumpi\n      dup1\n      0xdd62ed3e\n      gt\n      tag_19\n      jumpi\n      dup1\n      0xdd62ed3e\n      eq\n      tag_14\n      jumpi\n      dup1\n      0xf2fde38b\n      eq\n      tag_15\n      jumpi\n      dup1\n      0xfcbca456\n      eq\n      tag_16\n      jumpi\n      dup1\n      0xfe575a87\n      eq\n      tag_17\n      jumpi\n      jump(tag_1)\n    tag_19:\n      dup1\n      0x715018a6\n      eq\n      tag_10\n      jumpi\n      dup1\n      0x8da5cb5b\n      eq\n      tag_11\n      jumpi\n      dup1\n      0x95d89b41\n      eq\n      tag_12\n      jumpi\n      dup1\n      0xa9059cbb\n      eq\n      tag_13\n      jumpi\n      jump(tag_1)\n    tag_18:\n      dup1\n      0x313ce567\n      gt\n      tag_20\n      jumpi\n      dup1\n      0x313ce567\n      eq\n      tag_6\n      jumpi\n      dup1\n      0x3610724e\n      eq\n      tag_7\n      jumpi\n      dup1\n      0x537df3b6\n      eq\n      tag_8\n      jumpi\n      dup1\n      0x70a08231\n      eq\n      tag_9\n      jumpi\n      jump(tag_1)\n    tag_20:\n      dup1\n      0x06fdde03\n      eq\n      tag_2\n      jumpi\n      dup1\n      0x095ea7b3\n      eq\n      tag_3\n      jumpi\n      dup1\n      0x18160ddd\n      eq\n      tag_4\n      jumpi\n      dup1\n      0x23b872dd\n      eq\n      tag_5\n      jumpi\n    tag_1:\n      0x00\n      dup1\n      revert\n        /* \"Myblacktoken_flattened.sol\":15955:16046  function name() external view virtual returns (string memory) {... */\n    tag_2:\n      callvalue\n      dup1\n      iszero\n      tag_21\n      jumpi\n      0x00\n      dup1\n      revert\n    tag_21:\n      pop\n      tag_22\n      tag_23\n      jump\t// in\n    tag_22:\n      mload(0x40)\n      tag_24\n      swap2\n      swap1\n      tag_25\n      jump\t// in\n    tag_24:\n      mload(0x40)\n      dup1\n      swap2\n      sub\n      swap1\n      return\n        /* \"Myblacktoken_flattened.sol\":18181:18369  function approve(address spender, uint256 value) external virtual returns (bool) {... */\n    tag_3:\n      callvalue\n      dup1\n      iszero\n      tag_26\n      jumpi\n      0x00\n      dup1\n      revert\n    tag_26:\n      pop\n      tag_27\n      0x04\n      dup1\n      calldatasize\n      sub\n      dup2\n      add\n      swap1\n      tag_28\n      swap2\n      swap1\n      tag_29\n      jump\t// in\n    tag_28:\n      tag_30\n      jump\t// in\n    tag_27:\n      mload(0x40)\n      tag_31\n      swap2\n      swap1\n      tag_32\n      jump\t// in\n    tag_31:\n      mload(0x40)\n      dup1\n      swap2\n      sub\n      swap1\n      return\n        /* \"Myblacktoken_flattened.sol\":17028:17127  function totalSupply() external view virtual returns (uint256) {... */\n    tag_4:\n      callvalue\n      dup1\n      iszero\n      tag_33\n      jumpi\n      0x00\n      dup1\n      revert\n    tag_33:\n      pop\n      tag_34\n      tag_35\n      jump\t// in\n    tag_34:\n      mload(0x40)\n      tag_36\n      swap2\n      swap1\n      tag_37\n      jump\t// in\n    tag_36:\n      mload(0x40)\n      dup1\n      swap2\n      sub\n      swap1\n      return\n        /* \"Myblacktoken_flattened.sol\":27251:27593  function transferFrom(address from, address to, uint256 amount)external virtual override returns (bool) {... */\n    tag_5:\n      callvalue\n      dup1\n      iszero\n      tag_38\n      jumpi\n      0x00\n      dup1\n      revert\n    tag_38:\n      pop\n      tag_39\n      0x04\n      dup1\n      calldatasize\n      sub\n      dup2\n      add\n      swap1\n      tag_40\n      swap2\n      swap1\n      tag_41\n      jump\t// in\n    tag_40:\n      tag_42\n      jump\t// in\n    tag_39:\n      mload(0x40)\n      tag_43\n      swap2\n      swap1\n      tag_32\n      jump\t// in\n    tag_43:\n      mload(0x40)\n      dup1\n      swap2\n      sub\n      swap1\n      return\n        /* \"Myblacktoken_flattened.sol\":16886:16968  function decimals() public view virtual returns (uint8) {... */\n    tag_6:\n      callvalue\n      dup1\n      iszero\n      tag_44\n      jumpi\n      0x00\n      dup1\n      revert\n    tag_44:\n      pop\n      tag_45\n      tag_46\n      jump\t// in\n    tag_45:\n      mload(0x40)\n      tag_47\n      swap2\n      swap1\n      tag_48\n      jump\t// in\n    tag_47:\n      mload(0x40)\n      dup1\n      swap2\n      sub\n      swap1\n      return\n        /* \"Myblacktoken_flattened.sol\":25580:26486  function buyTokens(uint256 amount) external payable  onlyNotBlacklisted returns (string memory) {... */\n    tag_7:\n      tag_49\n      0x04\n      dup1\n      calldatasize\n      sub\n      dup2\n      add\n      swap1\n      tag_50\n      swap2\n      swap1\n      tag_51\n      jump\t// in\n    tag_50:\n      tag_52\n      jump\t// in\n    tag_49:\n      mload(0x40)\n      tag_53\n      swap2\n      swap1\n      tag_25\n      jump\t// in\n    tag_53:\n      mload(0x40)\n      dup1\n      swap2\n      sub\n      swap1\n      return\n        /* \"Myblacktoken_flattened.sol\":26755:26926  function removeFromBlacklist(address user) external onlyOwner {... */\n    tag_8:\n      callvalue\n      dup1\n      iszero\n      tag_54\n      jumpi\n      0x00\n      dup1\n      revert\n    tag_54:\n      pop\n      tag_55\n      0x04\n      dup1\n      calldatasize\n      sub\n      dup2\n      add\n      swap1\n      tag_56\n      swap2\n      swap1\n      tag_57\n      jump\t// in\n    tag_56:\n      tag_58\n      jump\t// in\n    tag_55:\n      stop\n        /* \"Myblacktoken_flattened.sol\":17185:17302  function balanceOf(address account)external view virtual returns (uint256) {... */\n    tag_9:\n      callvalue\n      dup1\n      iszero\n      tag_59\n      jumpi\n      0x00\n      dup1\n      revert\n    tag_59:\n      pop\n      tag_60\n      0x04\n      dup1\n      calldatasize\n      sub\n      dup2\n      add\n      swap1\n      tag_61\n      swap2\n      swap1\n      tag_57\n      jump\t// in\n    tag_61:\n      tag_62\n      jump\t// in\n    tag_60:\n      mload(0x40)\n      tag_63\n      swap2\n      swap1\n      tag_37\n      jump\t// in\n    tag_63:\n      mload(0x40)\n      dup1\n      swap2\n      sub\n      swap1\n      return\n        /* \"Myblacktoken_flattened.sol\":9758:9861  function renounceOwnership() external virtual onlyOwner {... */\n    tag_10:\n      callvalue\n      dup1\n      iszero\n      tag_64\n      jumpi\n      0x00\n      dup1\n      revert\n    tag_64:\n      pop\n      tag_65\n      tag_66\n      jump\t// in\n    tag_65:\n      stop\n        /* \"Myblacktoken_flattened.sol\":9103:9188  function owner() public view virtual returns (address) {... */\n    tag_11:\n      callvalue\n      dup1\n      iszero\n      tag_67\n      jumpi\n      0x00\n      dup1\n      revert\n    tag_67:\n      pop\n      tag_68\n      tag_69\n      jump\t// in\n    tag_68:\n      mload(0x40)\n      tag_70\n      swap2\n      swap1\n      tag_71\n      jump\t// in\n    tag_70:\n      mload(0x40)\n      dup1\n      swap2\n      sub\n      swap1\n      return\n        /* \"Myblacktoken_flattened.sol\":16159:16253  function symbol()external view virtual returns (string memory) {... */\n    tag_12:\n      callvalue\n      dup1\n      iszero\n      tag_72\n      jumpi\n      0x00\n      dup1\n      revert\n    tag_72:\n      pop\n      tag_73\n      tag_74\n      jump\t// in\n    tag_73:\n      mload(0x40)\n      tag_75\n      swap2\n      swap1\n      tag_25\n      jump\t// in\n    tag_75:\n      mload(0x40)\n      dup1\n      swap2\n      sub\n      swap1\n      return\n        /* \"Myblacktoken_flattened.sol\":26932:27240  function transfer(address to, uint256 amount) external onlyNotBlacklisted override returns (bool) {... */\n    tag_13:\n      callvalue\n      dup1\n      iszero\n      tag_76\n      jumpi\n      0x00\n      dup1\n      revert\n    tag_76:\n      pop\n      tag_77\n      0x04\n      dup1\n      calldatasize\n      sub\n      dup2\n      add\n      swap1\n      tag_78\n      swap2\n      swap1\n      tag_29\n      jump\t// in\n    tag_78:\n      tag_79\n      jump\t// in\n    tag_77:\n      mload(0x40)\n      tag_80\n      swap2\n      swap1\n      tag_32\n      jump\t// in\n    tag_80:\n      mload(0x40)\n      dup1\n      swap2\n      sub\n      swap1\n      return\n        /* \"Myblacktoken_flattened.sol\":17734:17874  function allowance(address owner, address spender) public view virtual returns (uint256) {... */\n    tag_14:\n      callvalue\n      dup1\n      iszero\n      tag_81\n      jumpi\n      0x00\n      dup1\n      revert\n    tag_81:\n      pop\n      tag_82\n      0x04\n      dup1\n      calldatasize\n      sub\n      dup2\n      add\n      swap1\n      tag_83\n      swap2\n      swap1\n      tag_84\n      jump\t// in\n    tag_83:\n      tag_85\n      jump\t// in\n    tag_82:\n      mload(0x40)\n      tag_86\n      swap2\n      swap1\n      tag_37\n      jump\t// in\n    tag_86:\n      mload(0x40)\n      dup1\n      swap2\n      sub\n      swap1\n      return\n        /* \"Myblacktoken_flattened.sol\":10010:10227  function transferOwnership(address newOwner) external virtual onlyOwner {... */\n    tag_15:\n      callvalue\n      dup1\n      iszero\n      tag_87\n      jumpi\n      0x00\n      dup1\n      revert\n    tag_87:\n      pop\n      tag_88\n      0x04\n      dup1\n      calldatasize\n      sub\n      dup2\n      add\n      swap1\n      tag_89\n      swap2\n      swap1\n      tag_57\n      jump\t// in\n    tag_89:\n      tag_90\n      jump\t// in\n    tag_88:\n      stop\n        /* \"Myblacktoken_flattened.sol\":26528:26697  function blacklistUser(address user) external onlyOwner {... */\n    tag_16:\n      callvalue\n      dup1\n      iszero\n      tag_91\n      jumpi\n      0x00\n      dup1\n      revert\n    tag_91:\n      pop\n      tag_92\n      0x04\n      dup1\n      calldatasize\n      sub\n      dup2\n      add\n      swap1\n      tag_93\n      swap2\n      swap1\n      tag_57\n      jump\t// in\n    tag_93:\n      tag_94\n      jump\t// in\n    tag_92:\n      stop\n        /* \"Myblacktoken_flattened.sol\":25156:25201  mapping(address => bool) public isBlacklisted */\n    tag_17:\n      callvalue\n      dup1\n      iszero\n      tag_95\n      jumpi\n      0x00\n      dup1\n      revert\n    tag_95:\n      pop\n      tag_96\n      0x04\n      dup1\n      calldatasize\n      sub\n      dup2\n      add\n      swap1\n      tag_97\n      swap2\n      swap1\n      tag_57\n      jump\t// in\n    tag_97:\n      tag_98\n      jump\t// in\n    tag_96:\n      mload(0x40)\n      tag_99\n      swap2\n      swap1\n      tag_32\n      jump\t// in\n    tag_99:\n      mload(0x40)\n      dup1\n      swap2\n      sub\n      swap1\n      return\n        /* \"Myblacktoken_flattened.sol\":15955:16046  function name() external view virtual returns (string memory) {... */\n    tag_23:\n        /* \"Myblacktoken_flattened.sol\":16002:16015  string memory */\n      0x60\n        /* \"Myblacktoken_flattened.sol\":16034:16039  _name */\n      0x03\n        /* \"Myblacktoken_flattened.sol\":16027:16039  return _name */\n      dup1\n      sload\n      tag_101\n      swap1\n      tag_102\n      jump\t// in\n    tag_101:\n      dup1\n      0x1f\n      add\n      0x20\n      dup1\n      swap2\n      div\n      mul\n      0x20\n      add\n      mload(0x40)\n      swap1\n      dup2\n      add\n      0x40\n      mstore\n      dup1\n      swap3\n      swap2\n      swap1\n      dup2\n      dup2\n      mstore\n      0x20\n      add\n      dup3\n      dup1\n      sload\n      tag_103\n      swap1\n      tag_102\n      jump\t// in\n    tag_103:\n      dup1\n      iszero\n      tag_104\n      jumpi\n      dup1\n      0x1f\n      lt\n      tag_105\n      jumpi\n      0x0100\n      dup1\n      dup4\n      sload\n      div\n      mul\n      dup4\n      mstore\n      swap2\n      0x20\n      add\n      swap2\n      jump(tag_104)\n    tag_105:\n      dup3\n      add\n      swap2\n      swap1\n      0x00\n      mstore\n      keccak256(0x00, 0x20)\n      swap1\n    tag_106:\n      dup2\n      sload\n      dup2\n      mstore\n      swap1\n      0x01\n      add\n      swap1\n      0x20\n      add\n      dup1\n      dup4\n      gt\n      tag_106\n      jumpi\n      dup3\n      swap1\n      sub\n      0x1f\n      and\n      dup3\n      add\n      swap2\n    tag_104:\n      pop\n      pop\n      pop\n      pop\n      pop\n      swap1\n      pop\n        /* \"Myblacktoken_flattened.sol\":15955:16046  function name() external view virtual returns (string memory) {... */\n      swap1\n      jump\t// out\n        /* \"Myblacktoken_flattened.sol\":18181:18369  function approve(address spender, uint256 value) external virtual returns (bool) {... */\n    tag_30:\n        /* \"Myblacktoken_flattened.sol\":18256:18260  bool */\n      0x00\n        /* \"Myblacktoken_flattened.sol\":18272:18285  address owner */\n      dup1\n        /* \"Myblacktoken_flattened.sol\":18288:18300  _msgSender() */\n      tag_108\n        /* \"Myblacktoken_flattened.sol\":18288:18298  _msgSender */\n      tag_109\n        /* \"Myblacktoken_flattened.sol\":18288:18300  _msgSender() */\n      jump\t// in\n    tag_108:\n        /* \"Myblacktoken_flattened.sol\":18272:18300  address owner = _msgSender() */\n      swap1\n      pop\n        /* \"Myblacktoken_flattened.sol\":18310:18341  _approve(owner, spender, value) */\n      tag_110\n        /* \"Myblacktoken_flattened.sol\":18319:18324  owner */\n      dup2\n        /* \"Myblacktoken_flattened.sol\":18326:18333  spender */\n      dup6\n        /* \"Myblacktoken_flattened.sol\":18335:18340  value */\n      dup6\n        /* \"Myblacktoken_flattened.sol\":18310:18318  _approve */\n      tag_111\n        /* \"Myblacktoken_flattened.sol\":18310:18341  _approve(owner, spender, value) */\n      jump\t// in\n    tag_110:\n        /* \"Myblacktoken_flattened.sol\":18358:18362  true */\n      0x01\n        /* \"Myblacktoken_flattened.sol\":18351:18362  return true */\n      swap2\n      pop\n      pop\n        /* \"Myblacktoken_flattened.sol\":18181:18369  function approve(address spender, uint256 value) external virtual returns (bool) {... */\n      swap3\n      swap2\n      pop\n      pop\n      jump\t// out\n        /* \"Myblacktoken_flattened.sol\":17028:17127  function totalSupply() external view virtual returns (uint256) {... */\n    tag_35:\n        /* \"Myblacktoken_flattened.sol\":17082:17089  uint256 */\n      0x00\n        /* \"Myblacktoken_flattened.sol\":17108:17120  _totalSupply */\n      sload(0x02)\n        /* \"Myblacktoken_flattened.sol\":17101:17120  return _totalSupply */\n      swap1\n      pop\n        /* \"Myblacktoken_flattened.sol\":17028:17127  function totalSupply() external view virtual returns (uint256) {... */\n      swap1\n      jump\t// out\n        /* \"Myblacktoken_flattened.sol\":27251:27593  function transferFrom(address from, address to, uint256 amount)external virtual override returns (bool) {... */\n    tag_42:\n        /* \"Myblacktoken_flattened.sol\":27349:27353  bool */\n      0x00\n        /* \"Myblacktoken_flattened.sol\":27374:27387  isBlacklisted */\n      0x06\n        /* \"Myblacktoken_flattened.sol\":27374:27394  isBlacklisted [from] */\n      0x00\n        /* \"Myblacktoken_flattened.sol\":27389:27393  from */\n      dup6\n        /* \"Myblacktoken_flattened.sol\":27374:27394  isBlacklisted [from] */\n      0xffffffffffffffffffffffffffffffffffffffff\n      and\n      0xffffffffffffffffffffffffffffffffffffffff\n      and\n      dup2\n      mstore\n      0x20\n      add\n      swap1\n      dup2\n      mstore\n      0x20\n      add\n      0x00\n      keccak256\n      0x00\n      swap1\n      sload\n      swap1\n      0x0100\n      exp\n      swap1\n      div\n      0xff\n      and\n        /* \"Myblacktoken_flattened.sol\":27373:27394  !isBlacklisted [from] */\n      iszero\n        /* \"Myblacktoken_flattened.sol\":27373:27416  !isBlacklisted [from] && !isBlacklisted[to] */\n      dup1\n      iszero\n      tag_114\n      jumpi\n      pop\n        /* \"Myblacktoken_flattened.sol\":27399:27412  isBlacklisted */\n      0x06\n        /* \"Myblacktoken_flattened.sol\":27399:27416  isBlacklisted[to] */\n      0x00\n        /* \"Myblacktoken_flattened.sol\":27413:27415  to */\n      dup5\n        /* \"Myblacktoken_flattened.sol\":27399:27416  isBlacklisted[to] */\n      0xffffffffffffffffffffffffffffffffffffffff\n      and\n      0xffffffffffffffffffffffffffffffffffffffff\n      and\n      dup2\n      mstore\n      0x20\n      add\n      swap1\n      dup2\n      mstore\n      0x20\n      add\n      0x00\n      keccak256\n      0x00\n      swap1\n      sload\n      swap1\n      0x0100\n      exp\n      swap1\n      div\n      0xff\n      and\n        /* \"Myblacktoken_flattened.sol\":27398:27416  !isBlacklisted[to] */\n      iszero\n        /* \"Myblacktoken_flattened.sol\":27373:27416  !isBlacklisted [from] && !isBlacklisted[to] */\n    tag_114:\n        /* \"Myblacktoken_flattened.sol\":27365:27440  require(!isBlacklisted [from] && !isBlacklisted[to], \"You are blacklisted\") */\n      tag_115\n      jumpi\n      mload(0x40)\n      0x08c379a000000000000000000000000000000000000000000000000000000000\n      dup2\n      mstore\n      0x04\n      add\n      tag_116\n      swap1\n      tag_117\n      jump\t// in\n    tag_116:\n      mload(0x40)\n      dup1\n      swap2\n      sub\n      swap1\n      revert\n    tag_115:\n        /* \"Myblacktoken_flattened.sol\":27450:27465  address spender */\n      0x00\n        /* \"Myblacktoken_flattened.sol\":27468:27480  _msgSender() */\n      tag_118\n        /* \"Myblacktoken_flattened.sol\":27468:27478  _msgSender */\n      tag_109\n        /* \"Myblacktoken_flattened.sol\":27468:27480  _msgSender() */\n      jump\t// in\n    tag_118:\n        /* \"Myblacktoken_flattened.sol\":27450:27480  address spender = _msgSender() */\n      swap1\n      pop\n        /* \"Myblacktoken_flattened.sol\":27490:27528  _spendAllowance(from, spender, amount) */\n      tag_119\n        /* \"Myblacktoken_flattened.sol\":27506:27510  from */\n      dup6\n        /* \"Myblacktoken_flattened.sol\":27512:27519  spender */\n      dup3\n        /* \"Myblacktoken_flattened.sol\":27521:27527  amount */\n      dup6\n        /* \"Myblacktoken_flattened.sol\":27490:27505  _spendAllowance */\n      tag_120\n        /* \"Myblacktoken_flattened.sol\":27490:27528  _spendAllowance(from, spender, amount) */\n      jump\t// in\n    tag_119:\n        /* \"Myblacktoken_flattened.sol\":27538:27565  _transfer(from, to, amount) */\n      tag_121\n        /* \"Myblacktoken_flattened.sol\":27548:27552  from */\n      dup6\n        /* \"Myblacktoken_flattened.sol\":27554:27556  to */\n      dup6\n        /* \"Myblacktoken_flattened.sol\":27558:27564  amount */\n      dup6\n        /* \"Myblacktoken_flattened.sol\":27538:27547  _transfer */\n      tag_122\n        /* \"Myblacktoken_flattened.sol\":27538:27565  _transfer(from, to, amount) */\n      jump\t// in\n    tag_121:\n        /* \"Myblacktoken_flattened.sol\":27582:27586  true */\n      0x01\n        /* \"Myblacktoken_flattened.sol\":27575:27586  return true */\n      swap2\n      pop\n      pop\n        /* \"Myblacktoken_flattened.sol\":27251:27593  function transferFrom(address from, address to, uint256 amount)external virtual override returns (bool) {... */\n      swap4\n      swap3\n      pop\n      pop\n      pop\n      jump\t// out\n        /* \"Myblacktoken_flattened.sol\":16886:16968  function decimals() public view virtual returns (uint8) {... */\n    tag_46:\n        /* \"Myblacktoken_flattened.sol\":16935:16940  uint8 */\n      0x00\n        /* \"Myblacktoken_flattened.sol\":16959:16961  18 */\n      0x12\n        /* \"Myblacktoken_flattened.sol\":16952:16961  return 18 */\n      swap1\n      pop\n        /* \"Myblacktoken_flattened.sol\":16886:16968  function decimals() public view virtual returns (uint8) {... */\n      swap1\n      jump\t// out\n        /* \"Myblacktoken_flattened.sol\":25580:26486  function buyTokens(uint256 amount) external payable  onlyNotBlacklisted returns (string memory) {... */\n    tag_52:\n        /* \"Myblacktoken_flattened.sol\":25661:25674  string memory */\n      0x60\n        /* \"Myblacktoken_flattened.sol\":25398:25411  isBlacklisted */\n      0x06\n        /* \"Myblacktoken_flattened.sol\":25398:25423  isBlacklisted[msg.sender] */\n      0x00\n        /* \"Myblacktoken_flattened.sol\":25412:25422  msg.sender */\n      caller\n        /* \"Myblacktoken_flattened.sol\":25398:25423  isBlacklisted[msg.sender] */\n      0xffffffffffffffffffffffffffffffffffffffff\n      and\n      0xffffffffffffffffffffffffffffffffffffffff\n      and\n      dup2\n      mstore\n      0x20\n      add\n      swap1\n      dup2\n      mstore\n      0x20\n      add\n      0x00\n      keccak256\n      0x00\n      swap1\n      sload\n      swap1\n      0x0100\n      exp\n      swap1\n      div\n      0xff\n      and\n        /* \"Myblacktoken_flattened.sol\":25397:25423  !isBlacklisted[msg.sender] */\n      iszero\n        /* \"Myblacktoken_flattened.sol\":25376:25500  require(... */\n      tag_125\n      jumpi\n      mload(0x40)\n      0x08c379a000000000000000000000000000000000000000000000000000000000\n      dup2\n      mstore\n      0x04\n      add\n      tag_126\n      swap1\n      tag_127\n      jump\t// in\n    tag_126:\n      mload(0x40)\n      dup1\n      swap2\n      sub\n      swap1\n      revert\n    tag_125:\n        /* \"Myblacktoken_flattened.sol\":25685:25696  uint tprice */\n      0x00\n        /* \"Myblacktoken_flattened.sol\":25697:25703  10 wei */\n      0x0a\n        /* \"Myblacktoken_flattened.sol\":25685:25703  uint tprice=10 wei */\n      swap1\n      pop\n        /* \"Myblacktoken_flattened.sol\":25713:25731  uint requiredprice */\n      0x00\n        /* \"Myblacktoken_flattened.sol\":25742:25748  amount */\n      dup4\n        /* \"Myblacktoken_flattened.sol\":25733:25739  tprice */\n      dup3\n        /* \"Myblacktoken_flattened.sol\":25733:25748  tprice * amount */\n      tag_129\n      swap2\n      swap1\n      tag_130\n      jump\t// in\n    tag_129:\n        /* \"Myblacktoken_flattened.sol\":25713:25748  uint requiredprice= tprice * amount */\n      swap1\n      pop\n        /* \"Myblacktoken_flattened.sol\":25780:25793  isBlacklisted */\n      0x06\n        /* \"Myblacktoken_flattened.sol\":25780:25805  isBlacklisted[msg.sender] */\n      0x00\n        /* \"Myblacktoken_flattened.sol\":25794:25804  msg.sender */\n      caller\n        /* \"Myblacktoken_flattened.sol\":25780:25805  isBlacklisted[msg.sender] */\n      0xffffffffffffffffffffffffffffffffffffffff\n      and\n      0xffffffffffffffffffffffffffffffffffffffff\n      and\n      dup2\n      mstore\n      0x20\n      add\n      swap1\n      dup2\n      mstore\n      0x20\n      add\n      0x00\n      keccak256\n      0x00\n      swap1\n      sload\n      swap1\n      0x0100\n      exp\n      swap1\n      div\n      0xff\n      and\n        /* \"Myblacktoken_flattened.sol\":25779:25805  !isBlacklisted[msg.sender] */\n      iszero\n        /* \"Myblacktoken_flattened.sol\":25758:25873  require(... */\n      tag_131\n      jumpi\n      mload(0x40)\n      0x08c379a000000000000000000000000000000000000000000000000000000000\n      dup2\n      mstore\n      0x04\n      add\n      tag_132\n      swap1\n      tag_133\n      jump\t// in\n    tag_132:\n      mload(0x40)\n      dup1\n      swap2\n      sub\n      swap1\n      revert\n    tag_131:\n        /* \"Myblacktoken_flattened.sol\":25900:25901  0 */\n      0x00\n        /* \"Myblacktoken_flattened.sol\":25891:25897  amount */\n      dup5\n        /* \"Myblacktoken_flattened.sol\":25891:25901  amount > 0 */\n      gt\n        /* \"Myblacktoken_flattened.sol\":25883:25935  require(amount > 0, \"Amount must be greater than 0\") */\n      tag_134\n      jumpi\n      mload(0x40)\n      0x08c379a000000000000000000000000000000000000000000000000000000000\n      dup2\n      mstore\n      0x04\n      add\n      tag_135\n      swap1\n      tag_136\n      jump\t// in\n    tag_135:\n      mload(0x40)\n      dup1\n      swap2\n      sub\n      swap1\n      revert\n    tag_134:\n        /* \"Myblacktoken_flattened.sol\":25965:25978  requiredprice */\n      dup1\n        /* \"Myblacktoken_flattened.sol\":25953:25962  msg.value */\n      callvalue\n        /* \"Myblacktoken_flattened.sol\":25953:25978  msg.value ==requiredprice */\n      eq\n        /* \"Myblacktoken_flattened.sol\":25945:26011  require(msg.value ==requiredprice, \"Insufficient LESS Ether sent\") */\n      tag_137\n      jumpi\n      mload(0x40)\n      0x08c379a000000000000000000000000000000000000000000000000000000000\n      dup2\n      mstore\n      0x04\n      add\n      tag_138\n      swap1\n      tag_139\n      jump\t// in\n    tag_138:\n      mload(0x40)\n      dup1\n      swap2\n      sub\n      swap1\n      revert\n    tag_137:\n        /* \"Myblacktoken_flattened.sol\":26302:26340  _transfer(owner(), msg.sender, amount) */\n      tag_140\n        /* \"Myblacktoken_flattened.sol\":26312:26319  owner() */\n      tag_141\n        /* \"Myblacktoken_flattened.sol\":26312:26317  owner */\n      tag_69\n        /* \"Myblacktoken_flattened.sol\":26312:26319  owner() */\n      jump\t// in\n    tag_141:\n        /* \"Myblacktoken_flattened.sol\":26321:26331  msg.sender */\n      caller\n        /* \"Myblacktoken_flattened.sol\":26333:26339  amount */\n      dup7\n        /* \"Myblacktoken_flattened.sol\":26302:26311  _transfer */\n      tag_122\n        /* \"Myblacktoken_flattened.sol\":26302:26340  _transfer(owner(), msg.sender, amount) */\n      jump\t// in\n    tag_140:\n        /* \"Myblacktoken_flattened.sol\":26408:26415  owner() */\n      tag_142\n        /* \"Myblacktoken_flattened.sol\":26408:26413  owner */\n      tag_69\n        /* \"Myblacktoken_flattened.sol\":26408:26415  owner() */\n      jump\t// in\n    tag_142:\n        /* \"Myblacktoken_flattened.sol\":26400:26425  payable(owner()).transfer */\n      0xffffffffffffffffffffffffffffffffffffffff\n      and\n        /* \"Myblacktoken_flattened.sol\":26400:26436  payable(owner()).transfer(msg.value) */\n      0x08fc\n        /* \"Myblacktoken_flattened.sol\":26426:26435  msg.value */\n      callvalue\n        /* \"Myblacktoken_flattened.sol\":26400:26436  payable(owner()).transfer(msg.value) */\n      swap1\n      dup2\n      iszero\n      mul\n      swap1\n      mload(0x40)\n      0x00\n      mload(0x40)\n      dup1\n      dup4\n      sub\n      dup2\n      dup6\n      dup9\n      dup9\n      call\n      swap4\n      pop\n      pop\n      pop\n      pop\n      iszero\n      dup1\n      iszero\n      tag_144\n      jumpi\n      returndatasize\n      0x00\n      dup1\n      returndatacopy\n      revert(0x00, returndatasize)\n    tag_144:\n      pop\n        /* \"Myblacktoken_flattened.sol\":26446:26479  return (\"Buy 1 Token for 10 Wei\") */\n      mload(0x40)\n      dup1\n      0x40\n      add\n      0x40\n      mstore\n      dup1\n      0x16\n      dup2\n      mstore\n      0x20\n      add\n      0x427579203120546f6b656e20666f722031302057656900000000000000000000\n      dup2\n      mstore\n      pop\n      swap3\n      pop\n      pop\n      pop\n        /* \"Myblacktoken_flattened.sol\":25580:26486  function buyTokens(uint256 amount) external payable  onlyNotBlacklisted returns (string memory) {... */\n      swap2\n      swap1\n      pop\n      jump\t// out\n        /* \"Myblacktoken_flattened.sol\":26755:26926  function removeFromBlacklist(address user) external onlyOwner {... */\n    tag_58:\n        /* \"Myblacktoken_flattened.sol\":8996:9009  _checkOwner() */\n      tag_146\n        /* \"Myblacktoken_flattened.sol\":8996:9007  _checkOwner */\n      tag_147\n        /* \"Myblacktoken_flattened.sol\":8996:9009  _checkOwner() */\n      jump\t// in\n    tag_146:\n        /* \"Myblacktoken_flattened.sol\":26835:26848  isBlacklisted */\n      0x06\n        /* \"Myblacktoken_flattened.sol\":26835:26854  isBlacklisted[user] */\n      0x00\n        /* \"Myblacktoken_flattened.sol\":26849:26853  user */\n      dup3\n        /* \"Myblacktoken_flattened.sol\":26835:26854  isBlacklisted[user] */\n      0xffffffffffffffffffffffffffffffffffffffff\n      and\n      0xffffffffffffffffffffffffffffffffffffffff\n      and\n      dup2\n      mstore\n      0x20\n      add\n      swap1\n      dup2\n      mstore\n      0x20\n      add\n      0x00\n      keccak256\n      0x00\n      swap1\n      sload\n      swap1\n      0x0100\n      exp\n      swap1\n      div\n      0xff\n      and\n        /* \"Myblacktoken_flattened.sol\":26827:26882  require(isBlacklisted[user], \"User is not blacklisted\") */\n      tag_149\n      jumpi\n      mload(0x40)\n      0x08c379a000000000000000000000000000000000000000000000000000000000\n      dup2\n      mstore\n      0x04\n      add\n      tag_150\n      swap1\n      tag_151\n      jump\t// in\n    tag_150:\n      mload(0x40)\n      dup1\n      swap2\n      sub\n      swap1\n      revert\n    tag_149:\n        /* \"Myblacktoken_flattened.sol\":26914:26919  false */\n      0x00\n        /* \"Myblacktoken_flattened.sol\":26892:26905  isBlacklisted */\n      0x06\n        /* \"Myblacktoken_flattened.sol\":26892:26911  isBlacklisted[user] */\n      0x00\n        /* \"Myblacktoken_flattened.sol\":26906:26910  user */\n      dup4\n        /* \"Myblacktoken_flattened.sol\":26892:26911  isBlacklisted[user] */\n      0xffffffffffffffffffffffffffffffffffffffff\n      and\n      0xffffffffffffffffffffffffffffffffffffffff\n      and\n      dup2\n      mstore\n      0x20\n      add\n      swap1\n      dup2\n      mstore\n      0x20\n      add\n      0x00\n      keccak256\n      0x00\n        /* \"Myblacktoken_flattened.sol\":26892:26919  isBlacklisted[user] = false */\n      0x0100\n      exp\n      dup2\n      sload\n      dup2\n      0xff\n      mul\n      not\n      and\n      swap1\n      dup4\n      iszero\n      iszero\n      mul\n      or\n      swap1\n      sstore\n      pop\n        /* \"Myblacktoken_flattened.sol\":26755:26926  function removeFromBlacklist(address user) external onlyOwner {... */\n      pop\n      jump\t// out\n        /* \"Myblacktoken_flattened.sol\":17185:17302  function balanceOf(address account)external view virtual returns (uint256) {... */\n    tag_62:\n        /* \"Myblacktoken_flattened.sol\":17251:17258  uint256 */\n      0x00\n        /* \"Myblacktoken_flattened.sol\":17277:17286  _balances */\n      dup1\n        /* \"Myblacktoken_flattened.sol\":17277:17295  _balances[account] */\n      0x00\n        /* \"Myblacktoken_flattened.sol\":17287:17294  account */\n      dup4\n        /* \"Myblacktoken_flattened.sol\":17277:17295  _balances[account] */\n      0xffffffffffffffffffffffffffffffffffffffff\n      and\n      0xffffffffffffffffffffffffffffffffffffffff\n      and\n      dup2\n      mstore\n      0x20\n      add\n      swap1\n      dup2\n      mstore\n      0x20\n      add\n      0x00\n      keccak256\n      sload\n        /* \"Myblacktoken_flattened.sol\":17270:17295  return _balances[account] */\n      swap1\n      pop\n        /* \"Myblacktoken_flattened.sol\":17185:17302  function balanceOf(address account)external view virtual returns (uint256) {... */\n      swap2\n      swap1\n      pop\n      jump\t// out\n        /* \"Myblacktoken_flattened.sol\":9758:9861  function renounceOwnership() external virtual onlyOwner {... */\n    tag_66:\n        /* \"Myblacktoken_flattened.sol\":8996:9009  _checkOwner() */\n      tag_154\n        /* \"Myblacktoken_flattened.sol\":8996:9007  _checkOwner */\n      tag_147\n        /* \"Myblacktoken_flattened.sol\":8996:9009  _checkOwner() */\n      jump\t// in\n    tag_154:\n        /* \"Myblacktoken_flattened.sol\":9824:9854  _transferOwnership(address(0)) */\n      tag_156\n        /* \"Myblacktoken_flattened.sol\":9851:9852  0 */\n      0x00\n        /* \"Myblacktoken_flattened.sol\":9824:9842  _transferOwnership */\n      tag_157\n        /* \"Myblacktoken_flattened.sol\":9824:9854  _transferOwnership(address(0)) */\n      jump\t// in\n    tag_156:\n        /* \"Myblacktoken_flattened.sol\":9758:9861  function renounceOwnership() external virtual onlyOwner {... */\n      jump\t// out\n        /* \"Myblacktoken_flattened.sol\":9103:9188  function owner() public view virtual returns (address) {... */\n    tag_69:\n        /* \"Myblacktoken_flattened.sol\":9149:9156  address */\n      0x00\n        /* \"Myblacktoken_flattened.sol\":9175:9181  _owner */\n      0x05\n      0x00\n      swap1\n      sload\n      swap1\n      0x0100\n      exp\n      swap1\n      div\n      0xffffffffffffffffffffffffffffffffffffffff\n      and\n        /* \"Myblacktoken_flattened.sol\":9168:9181  return _owner */\n      swap1\n      pop\n        /* \"Myblacktoken_flattened.sol\":9103:9188  function owner() public view virtual returns (address) {... */\n      swap1\n      jump\t// out\n        /* \"Myblacktoken_flattened.sol\":16159:16253  function symbol()external view virtual returns (string memory) {... */\n    tag_74:\n        /* \"Myblacktoken_flattened.sol\":16207:16220  string memory */\n      0x60\n        /* \"Myblacktoken_flattened.sol\":16239:16246  _symbol */\n      0x04\n        /* \"Myblacktoken_flattened.sol\":16232:16246  return _symbol */\n      dup1\n      sload\n      tag_160\n      swap1\n      tag_102\n      jump\t// in\n    tag_160:\n      dup1\n      0x1f\n      add\n      0x20\n      dup1\n      swap2\n      div\n      mul\n      0x20\n      add\n      mload(0x40)\n      swap1\n      dup2\n      add\n      0x40\n      mstore\n      dup1\n      swap3\n      swap2\n      swap1\n      dup2\n      dup2\n      mstore\n      0x20\n      add\n      dup3\n      dup1\n      sload\n      tag_161\n      swap1\n      tag_102\n      jump\t// in\n    tag_161:\n      dup1\n      iszero\n      tag_162\n      jumpi\n      dup1\n      0x1f\n      lt\n      tag_163\n      jumpi\n      0x0100\n      dup1\n      dup4\n      sload\n      div\n      mul\n      dup4\n      mstore\n      swap2\n      0x20\n      add\n      swap2\n      jump(tag_162)\n    tag_163:\n      dup3\n      add\n      swap2\n      swap1\n      0x00\n      mstore\n      keccak256(0x00, 0x20)\n      swap1\n    tag_164:\n      dup2\n      sload\n      dup2\n      mstore\n      swap1\n      0x01\n      add\n      swap1\n      0x20\n      add\n      dup1\n      dup4\n      gt\n      tag_164\n      jumpi\n      dup3\n      swap1\n      sub\n      0x1f\n      and\n      dup3\n      add\n      swap2\n    tag_162:\n      pop\n      pop\n      pop\n      pop\n      pop\n      swap1\n      pop\n        /* \"Myblacktoken_flattened.sol\":16159:16253  function symbol()external view virtual returns (string memory) {... */\n      swap1\n      jump\t// out\n        /* \"Myblacktoken_flattened.sol\":26932:27240  function transfer(address to, uint256 amount) external onlyNotBlacklisted override returns (bool) {... */\n    tag_79:\n        /* \"Myblacktoken_flattened.sol\":27024:27028  bool */\n      0x00\n        /* \"Myblacktoken_flattened.sol\":25398:25411  isBlacklisted */\n      0x06\n        /* \"Myblacktoken_flattened.sol\":25398:25423  isBlacklisted[msg.sender] */\n      0x00\n        /* \"Myblacktoken_flattened.sol\":25412:25422  msg.sender */\n      caller\n        /* \"Myblacktoken_flattened.sol\":25398:25423  isBlacklisted[msg.sender] */\n      0xffffffffffffffffffffffffffffffffffffffff\n      and\n      0xffffffffffffffffffffffffffffffffffffffff\n      and\n      dup2\n      mstore\n      0x20\n      add\n      swap1\n      dup2\n      mstore\n      0x20\n      add\n      0x00\n      keccak256\n      0x00\n      swap1\n      sload\n      swap1\n      0x0100\n      exp\n      swap1\n      div\n      0xff\n      and\n        /* \"Myblacktoken_flattened.sol\":25397:25423  !isBlacklisted[msg.sender] */\n      iszero\n        /* \"Myblacktoken_flattened.sol\":25376:25500  require(... */\n      tag_166\n      jumpi\n      mload(0x40)\n      0x08c379a000000000000000000000000000000000000000000000000000000000\n      dup2\n      mstore\n      0x04\n      add\n      tag_167\n      swap1\n      tag_127\n      jump\t// in\n    tag_167:\n      mload(0x40)\n      dup1\n      swap2\n      sub\n      swap1\n      revert\n    tag_166:\n        /* \"Myblacktoken_flattened.sol\":27090:27094  true */\n      0x01\n        /* \"Myblacktoken_flattened.sol\":27061:27094  isBlacklisted[msg.sender] != true */\n      iszero\n      iszero\n        /* \"Myblacktoken_flattened.sol\":27061:27074  isBlacklisted */\n      0x06\n        /* \"Myblacktoken_flattened.sol\":27061:27086  isBlacklisted[msg.sender] */\n      0x00\n        /* \"Myblacktoken_flattened.sol\":27075:27085  msg.sender */\n      caller\n        /* \"Myblacktoken_flattened.sol\":27061:27086  isBlacklisted[msg.sender] */\n      0xffffffffffffffffffffffffffffffffffffffff\n      and\n      0xffffffffffffffffffffffffffffffffffffffff\n      and\n      dup2\n      mstore\n      0x20\n      add\n      swap1\n      dup2\n      mstore\n      0x20\n      add\n      0x00\n      keccak256\n      0x00\n      swap1\n      sload\n      swap1\n      0x0100\n      exp\n      swap1\n      div\n      0xff\n      and\n        /* \"Myblacktoken_flattened.sol\":27061:27094  isBlacklisted[msg.sender] != true */\n      iszero\n      iszero\n      sub\n        /* \"Myblacktoken_flattened.sol\":27040:27169  require(... */\n      tag_169\n      jumpi\n      mload(0x40)\n      0x08c379a000000000000000000000000000000000000000000000000000000000\n      dup2\n      mstore\n      0x04\n      add\n      tag_170\n      swap1\n      tag_171\n      jump\t// in\n    tag_170:\n      mload(0x40)\n      dup1\n      swap2\n      sub\n      swap1\n      revert\n    tag_169:\n        /* \"Myblacktoken_flattened.sol\":27179:27212  _transfer(msg.sender, to, amount) */\n      tag_172\n        /* \"Myblacktoken_flattened.sol\":27189:27199  msg.sender */\n      caller\n        /* \"Myblacktoken_flattened.sol\":27201:27203  to */\n      dup5\n        /* \"Myblacktoken_flattened.sol\":27205:27211  amount */\n      dup5\n        /* \"Myblacktoken_flattened.sol\":27179:27188  _transfer */\n      tag_122\n        /* \"Myblacktoken_flattened.sol\":27179:27212  _transfer(msg.sender, to, amount) */\n      jump\t// in\n    tag_172:\n        /* \"Myblacktoken_flattened.sol\":27229:27233  true */\n      0x01\n        /* \"Myblacktoken_flattened.sol\":27222:27233  return true */\n      swap1\n      pop\n        /* \"Myblacktoken_flattened.sol\":26932:27240  function transfer(address to, uint256 amount) external onlyNotBlacklisted override returns (bool) {... */\n      swap3\n      swap2\n      pop\n      pop\n      jump\t// out\n        /* \"Myblacktoken_flattened.sol\":17734:17874  function allowance(address owner, address spender) public view virtual returns (uint256) {... */\n    tag_85:\n        /* \"Myblacktoken_flattened.sol\":17814:17821  uint256 */\n      0x00\n        /* \"Myblacktoken_flattened.sol\":17840:17851  _allowances */\n      0x01\n        /* \"Myblacktoken_flattened.sol\":17840:17858  _allowances[owner] */\n      0x00\n        /* \"Myblacktoken_flattened.sol\":17852:17857  owner */\n      dup5\n        /* \"Myblacktoken_flattened.sol\":17840:17858  _allowances[owner] */\n      0xffffffffffffffffffffffffffffffffffffffff\n      and\n      0xffffffffffffffffffffffffffffffffffffffff\n      and\n      dup2\n      mstore\n      0x20\n      add\n      swap1\n      dup2\n      mstore\n      0x20\n      add\n      0x00\n      keccak256\n        /* \"Myblacktoken_flattened.sol\":17840:17867  _allowances[owner][spender] */\n      0x00\n        /* \"Myblacktoken_flattened.sol\":17859:17866  spender */\n      dup4\n        /* \"Myblacktoken_flattened.sol\":17840:17867  _allowances[owner][spender] */\n      0xffffffffffffffffffffffffffffffffffffffff\n      and\n      0xffffffffffffffffffffffffffffffffffffffff\n      and\n      dup2\n      mstore\n      0x20\n      add\n      swap1\n      dup2\n      mstore\n      0x20\n      add\n      0x00\n      keccak256\n      sload\n        /* \"Myblacktoken_flattened.sol\":17833:17867  return _allowances[owner][spender] */\n      swap1\n      pop\n        /* \"Myblacktoken_flattened.sol\":17734:17874  function allowance(address owner, address spender) public view virtual returns (uint256) {... */\n      swap3\n      swap2\n      pop\n      pop\n      jump\t// out\n        /* \"Myblacktoken_flattened.sol\":10010:10227  function transferOwnership(address newOwner) external virtual onlyOwner {... */\n    tag_90:\n        /* \"Myblacktoken_flattened.sol\":8996:9009  _checkOwner() */\n      tag_175\n        /* \"Myblacktoken_flattened.sol\":8996:9007  _checkOwner */\n      tag_147\n        /* \"Myblacktoken_flattened.sol\":8996:9009  _checkOwner() */\n      jump\t// in\n    tag_175:\n        /* \"Myblacktoken_flattened.sol\":10116:10117  0 */\n      0x00\n        /* \"Myblacktoken_flattened.sol\":10096:10118  newOwner == address(0) */\n      0xffffffffffffffffffffffffffffffffffffffff\n      and\n        /* \"Myblacktoken_flattened.sol\":10096:10104  newOwner */\n      dup2\n        /* \"Myblacktoken_flattened.sol\":10096:10118  newOwner == address(0) */\n      0xffffffffffffffffffffffffffffffffffffffff\n      and\n      sub\n        /* \"Myblacktoken_flattened.sol\":10092:10183  if (newOwner == address(0)) {... */\n      tag_177\n      jumpi\n        /* \"Myblacktoken_flattened.sol\":10169:10170  0 */\n      0x00\n        /* \"Myblacktoken_flattened.sol\":10141:10172  OwnableInvalidOwner(address(0)) */\n      mload(0x40)\n      0x1e4fbdf700000000000000000000000000000000000000000000000000000000\n      dup2\n      mstore\n      0x04\n      add\n      tag_178\n      swap2\n      swap1\n      tag_71\n      jump\t// in\n    tag_178:\n      mload(0x40)\n      dup1\n      swap2\n      sub\n      swap1\n      revert\n        /* \"Myblacktoken_flattened.sol\":10092:10183  if (newOwner == address(0)) {... */\n    tag_177:\n        /* \"Myblacktoken_flattened.sol\":10192:10220  _transferOwnership(newOwner) */\n      tag_179\n        /* \"Myblacktoken_flattened.sol\":10211:10219  newOwner */\n      dup2\n        /* \"Myblacktoken_flattened.sol\":10192:10210  _transferOwnership */\n      tag_157\n        /* \"Myblacktoken_flattened.sol\":10192:10220  _transferOwnership(newOwner) */\n      jump\t// in\n    tag_179:\n        /* \"Myblacktoken_flattened.sol\":10010:10227  function transferOwnership(address newOwner) external virtual onlyOwner {... */\n      pop\n      jump\t// out\n        /* \"Myblacktoken_flattened.sol\":26528:26697  function blacklistUser(address user) external onlyOwner {... */\n    tag_94:\n        /* \"Myblacktoken_flattened.sol\":8996:9009  _checkOwner() */\n      tag_181\n        /* \"Myblacktoken_flattened.sol\":8996:9007  _checkOwner */\n      tag_147\n        /* \"Myblacktoken_flattened.sol\":8996:9009  _checkOwner() */\n      jump\t// in\n    tag_181:\n        /* \"Myblacktoken_flattened.sol\":26603:26616  isBlacklisted */\n      0x06\n        /* \"Myblacktoken_flattened.sol\":26603:26622  isBlacklisted[user] */\n      0x00\n        /* \"Myblacktoken_flattened.sol\":26617:26621  user */\n      dup3\n        /* \"Myblacktoken_flattened.sol\":26603:26622  isBlacklisted[user] */\n      0xffffffffffffffffffffffffffffffffffffffff\n      and\n      0xffffffffffffffffffffffffffffffffffffffff\n      and\n      dup2\n      mstore\n      0x20\n      add\n      swap1\n      dup2\n      mstore\n      0x20\n      add\n      0x00\n      keccak256\n      0x00\n      swap1\n      sload\n      swap1\n      0x0100\n      exp\n      swap1\n      div\n      0xff\n      and\n        /* \"Myblacktoken_flattened.sol\":26602:26622  !isBlacklisted[user] */\n      iszero\n        /* \"Myblacktoken_flattened.sol\":26594:26654  require(!isBlacklisted[user], \"User is already blacklisted\") */\n      tag_183\n      jumpi\n      mload(0x40)\n      0x08c379a000000000000000000000000000000000000000000000000000000000\n      dup2\n      mstore\n      0x04\n      add\n      tag_184\n      swap1\n      tag_185\n      jump\t// in\n    tag_184:\n      mload(0x40)\n      dup1\n      swap2\n      sub\n      swap1\n      revert\n    tag_183:\n        /* \"Myblacktoken_flattened.sol\":26686:26690  true */\n      0x01\n        /* \"Myblacktoken_flattened.sol\":26664:26677  isBlacklisted */\n      0x06\n        /* \"Myblacktoken_flattened.sol\":26664:26683  isBlacklisted[user] */\n      0x00\n        /* \"Myblacktoken_flattened.sol\":26678:26682  user */\n      dup4\n        /* \"Myblacktoken_flattened.sol\":26664:26683  isBlacklisted[user] */\n      0xffffffffffffffffffffffffffffffffffffffff\n      and\n      0xffffffffffffffffffffffffffffffffffffffff\n      and\n      dup2\n      mstore\n      0x20\n      add\n      swap1\n      dup2\n      mstore\n      0x20\n      add\n      0x00\n      keccak256\n      0x00\n        /* \"Myblacktoken_flattened.sol\":26664:26690  isBlacklisted[user] = true */\n      0x0100\n      exp\n      dup2\n      sload\n      dup2\n      0xff\n      mul\n      not\n      and\n      swap1\n      dup4\n      iszero\n      iszero\n      mul\n      or\n      swap1\n      sstore\n      pop\n        /* \"Myblacktoken_flattened.sol\":26528:26697  function blacklistUser(address user) external onlyOwner {... */\n      pop\n      jump\t// out\n        /* \"Myblacktoken_flattened.sol\":25156:25201  mapping(address => bool) public isBlacklisted */\n    tag_98:\n      mstore(0x20, 0x06)\n      dup1\n      0x00\n      mstore\n      keccak256(0x00, 0x40)\n      0x00\n      swap2\n      pop\n      sload\n      swap1\n      0x0100\n      exp\n      swap1\n      div\n      0xff\n      and\n      dup2\n      jump\t// out\n        /* \"Myblacktoken_flattened.sol\":7275:7371  function _msgSender() internal view virtual returns (address) {... */\n    tag_109:\n        /* \"Myblacktoken_flattened.sol\":7328:7335  address */\n      0x00\n        /* \"Myblacktoken_flattened.sol\":7354:7364  msg.sender */\n      caller\n        /* \"Myblacktoken_flattened.sol\":7347:7364  return msg.sender */\n      swap1\n      pop\n        /* \"Myblacktoken_flattened.sol\":7275:7371  function _msgSender() internal view virtual returns (address) {... */\n      swap1\n      jump\t// out\n        /* \"Myblacktoken_flattened.sol\":22899:23027  function _approve(address owner, address spender, uint256 value) internal {... */\n    tag_111:\n        /* \"Myblacktoken_flattened.sol\":22983:23020  _approve(owner, spender, value, true) */\n      tag_188\n        /* \"Myblacktoken_flattened.sol\":22992:22997  owner */\n      dup4\n        /* \"Myblacktoken_flattened.sol\":22999:23006  spender */\n      dup4\n        /* \"Myblacktoken_flattened.sol\":23008:23013  value */\n      dup4\n        /* \"Myblacktoken_flattened.sol\":23015:23019  true */\n      0x01\n        /* \"Myblacktoken_flattened.sol\":22983:22991  _approve */\n      tag_189\n        /* \"Myblacktoken_flattened.sol\":22983:23020  _approve(owner, spender, value, true) */\n      jump\t// in\n    tag_188:\n        /* \"Myblacktoken_flattened.sol\":22899:23027  function _approve(address owner, address spender, uint256 value) internal {... */\n      pop\n      pop\n      pop\n      jump\t// out\n        /* \"Myblacktoken_flattened.sol\":24573:25050  function _spendAllowance(address owner, address spender, uint256 value) internal virtual {... */\n    tag_120:\n        /* \"Myblacktoken_flattened.sol\":24672:24696  uint256 currentAllowance */\n      0x00\n        /* \"Myblacktoken_flattened.sol\":24699:24724  allowance(owner, spender) */\n      tag_191\n        /* \"Myblacktoken_flattened.sol\":24709:24714  owner */\n      dup5\n        /* \"Myblacktoken_flattened.sol\":24716:24723  spender */\n      dup5\n        /* \"Myblacktoken_flattened.sol\":24699:24708  allowance */\n      tag_85\n        /* \"Myblacktoken_flattened.sol\":24699:24724  allowance(owner, spender) */\n      jump\t// in\n    tag_191:\n        /* \"Myblacktoken_flattened.sol\":24672:24724  uint256 currentAllowance = allowance(owner, spender) */\n      swap1\n      pop\n        /* \"Myblacktoken_flattened.sol\":24758:24775  type(uint256).max */\n      0xffffffffffffffffffffffffffffffffffffffffffffffffffffffffffffffff\n        /* \"Myblacktoken_flattened.sol\":24738:24754  currentAllowance */\n      dup2\n        /* \"Myblacktoken_flattened.sol\":24738:24775  currentAllowance != type(uint256).max */\n      eq\n        /* \"Myblacktoken_flattened.sol\":24734:25044  if (currentAllowance != type(uint256).max) {... */\n      tag_192\n      jumpi\n        /* \"Myblacktoken_flattened.sol\":24814:24819  value */\n      dup2\n        /* \"Myblacktoken_flattened.sol\":24795:24811  currentAllowance */\n      dup2\n        /* \"Myblacktoken_flattened.sol\":24795:24819  currentAllowance < value */\n      lt\n        /* \"Myblacktoken_flattened.sol\":24791:24921  if (currentAllowance < value) {... */\n      iszero\n      tag_193\n      jumpi\n        /* \"Myblacktoken_flattened.sol\":24873:24880  spender */\n      dup3\n        /* \"Myblacktoken_flattened.sol\":24882:24898  currentAllowance */\n      dup2\n        /* \"Myblacktoken_flattened.sol\":24900:24905  value */\n      dup4\n        /* \"Myblacktoken_flattened.sol\":24846:24906  ERC20InsufficientAllowance(spender, currentAllowance, value) */\n      mload(0x40)\n      0xfb8f41b200000000000000000000000000000000000000000000000000000000\n      dup2\n      mstore\n      0x04\n      add\n      tag_194\n      swap4\n      swap3\n      swap2\n      swap1\n      tag_195\n      jump\t// in\n    tag_194:\n      mload(0x40)\n      dup1\n      swap2\n      sub\n      swap1\n      revert\n        /* \"Myblacktoken_flattened.sol\":24791:24921  if (currentAllowance < value) {... */\n    tag_193:\n        /* \"Myblacktoken_flattened.sol\":24962:25019  _approve(owner, spender, currentAllowance - value, false) */\n      tag_196\n        /* \"Myblacktoken_flattened.sol\":24971:24976  owner */\n      dup5\n        /* \"Myblacktoken_flattened.sol\":24978:24985  spender */\n      dup5\n        /* \"Myblacktoken_flattened.sol\":25006:25011  value */\n      dup5\n        /* \"Myblacktoken_flattened.sol\":24987:25003  currentAllowance */\n      dup5\n        /* \"Myblacktoken_flattened.sol\":24987:25011  currentAllowance - value */\n      sub\n        /* \"Myblacktoken_flattened.sol\":25013:25018  false */\n      0x00\n        /* \"Myblacktoken_flattened.sol\":24962:24970  _approve */\n      tag_189\n        /* \"Myblacktoken_flattened.sol\":24962:25019  _approve(owner, spender, currentAllowance - value, false) */\n      jump\t// in\n    tag_196:\n        /* \"Myblacktoken_flattened.sol\":24734:25044  if (currentAllowance != type(uint256).max) {... */\n    tag_192:\n        /* \"Myblacktoken_flattened.sol\":24662:25050  {... */\n      pop\n        /* \"Myblacktoken_flattened.sol\":24573:25050  function _spendAllowance(address owner, address spender, uint256 value) internal virtual {... */\n      pop\n      pop\n      pop\n      jump\t// out\n        /* \"Myblacktoken_flattened.sol\":19548:19848  function _transfer(address from, address to, uint256 value) internal {... */\n    tag_122:\n        /* \"Myblacktoken_flattened.sol\":19647:19648  0 */\n      0x00\n        /* \"Myblacktoken_flattened.sol\":19631:19649  from == address(0) */\n      0xffffffffffffffffffffffffffffffffffffffff\n      and\n        /* \"Myblacktoken_flattened.sol\":19631:19635  from */\n      dup4\n        /* \"Myblacktoken_flattened.sol\":19631:19649  from == address(0) */\n      0xffffffffffffffffffffffffffffffffffffffff\n      and\n      sub\n        /* \"Myblacktoken_flattened.sol\":19627:19713  if (from == address(0)) {... */\n      tag_198\n      jumpi\n        /* \"Myblacktoken_flattened.sol\":19699:19700  0 */\n      0x00\n        /* \"Myblacktoken_flattened.sol\":19672:19702  ERC20InvalidSender(address(0)) */\n      mload(0x40)\n      0x96c6fd1e00000000000000000000000000000000000000000000000000000000\n      dup2\n      mstore\n      0x04\n      add\n      tag_199\n      swap2\n      swap1\n      tag_71\n      jump\t// in\n    tag_199:\n      mload(0x40)\n      dup1\n      swap2\n      sub\n      swap1\n      revert\n        /* \"Myblacktoken_flattened.sol\":19627:19713  if (from == address(0)) {... */\n    tag_198:\n        /* \"Myblacktoken_flattened.sol\":19740:19741  0 */\n      0x00\n        /* \"Myblacktoken_flattened.sol\":19726:19742  to == address(0) */\n      0xffffffffffffffffffffffffffffffffffffffff\n      and\n        /* \"Myblacktoken_flattened.sol\":19726:19728  to */\n      dup3\n        /* \"Myblacktoken_flattened.sol\":19726:19742  to == address(0) */\n      0xffffffffffffffffffffffffffffffffffffffff\n      and\n      sub\n        /* \"Myblacktoken_flattened.sol\":19722:19808  if (to == address(0)) {... */\n      tag_200\n      jumpi\n        /* \"Myblacktoken_flattened.sol\":19794:19795  0 */\n      0x00\n        /* \"Myblacktoken_flattened.sol\":19765:19797  ERC20InvalidReceiver(address(0)) */\n      mload(0x40)\n      0xec442f0500000000000000000000000000000000000000000000000000000000\n      dup2\n      mstore\n      0x04\n      add\n      tag_201\n      swap2\n      swap1\n      tag_71\n      jump\t// in\n    tag_201:\n      mload(0x40)\n      dup1\n      swap2\n      sub\n      swap1\n      revert\n        /* \"Myblacktoken_flattened.sol\":19722:19808  if (to == address(0)) {... */\n    tag_200:\n        /* \"Myblacktoken_flattened.sol\":19817:19841  _update(from, to, value) */\n      tag_202\n        /* \"Myblacktoken_flattened.sol\":19825:19829  from */\n      dup4\n        /* \"Myblacktoken_flattened.sol\":19831:19833  to */\n      dup4\n        /* \"Myblacktoken_flattened.sol\":19835:19840  value */\n      dup4\n        /* \"Myblacktoken_flattened.sol\":19817:19824  _update */\n      tag_203\n        /* \"Myblacktoken_flattened.sol\":19817:19841  _update(from, to, value) */\n      jump\t// in\n    tag_202:\n        /* \"Myblacktoken_flattened.sol\":19548:19848  function _transfer(address from, address to, uint256 value) internal {... */\n      pop\n      pop\n      pop\n      jump\t// out\n        /* \"Myblacktoken_flattened.sol\":9261:9423  function _checkOwner() internal view virtual {... */\n    tag_147:\n        /* \"Myblacktoken_flattened.sol\":9331:9343  _msgSender() */\n      tag_205\n        /* \"Myblacktoken_flattened.sol\":9331:9341  _msgSender */\n      tag_109\n        /* \"Myblacktoken_flattened.sol\":9331:9343  _msgSender() */\n      jump\t// in\n    tag_205:\n        /* \"Myblacktoken_flattened.sol\":9320:9343  owner() != _msgSender() */\n      0xffffffffffffffffffffffffffffffffffffffff\n      and\n        /* \"Myblacktoken_flattened.sol\":9320:9327  owner() */\n      tag_206\n        /* \"Myblacktoken_flattened.sol\":9320:9325  owner */\n      tag_69\n        /* \"Myblacktoken_flattened.sol\":9320:9327  owner() */\n      jump\t// in\n    tag_206:\n        /* \"Myblacktoken_flattened.sol\":9320:9343  owner() != _msgSender() */\n      0xffffffffffffffffffffffffffffffffffffffff\n      and\n      eq\n        /* \"Myblacktoken_flattened.sol\":9316:9417  if (owner() != _msgSender()) {... */\n      tag_207\n      jumpi\n        /* \"Myblacktoken_flattened.sol\":9393:9405  _msgSender() */\n      tag_208\n        /* \"Myblacktoken_flattened.sol\":9393:9403  _msgSender */\n      tag_109\n        /* \"Myblacktoken_flattened.sol\":9393:9405  _msgSender() */\n      jump\t// in\n    tag_208:\n        /* \"Myblacktoken_flattened.sol\":9366:9406  OwnableUnauthorizedAccount(_msgSender()) */\n      mload(0x40)\n      0x118cdaa700000000000000000000000000000000000000000000000000000000\n      dup2\n      mstore\n      0x04\n      add\n      tag_209\n      swap2\n      swap1\n      tag_71\n      jump\t// in\n    tag_209:\n      mload(0x40)\n      dup1\n      swap2\n      sub\n      swap1\n      revert\n        /* \"Myblacktoken_flattened.sol\":9316:9417  if (owner() != _msgSender()) {... */\n    tag_207:\n        /* \"Myblacktoken_flattened.sol\":9261:9423  function _checkOwner() internal view virtual {... */\n      jump\t// out\n        /* \"Myblacktoken_flattened.sol\":10381:10568  function _transferOwnership(address newOwner) internal virtual {... */\n    tag_157:\n        /* \"Myblacktoken_flattened.sol\":10454:10470  address oldOwner */\n      0x00\n        /* \"Myblacktoken_flattened.sol\":10473:10479  _owner */\n      0x05\n      0x00\n      swap1\n      sload\n      swap1\n      0x0100\n      exp\n      swap1\n      div\n      0xffffffffffffffffffffffffffffffffffffffff\n      and\n        /* \"Myblacktoken_flattened.sol\":10454:10479  address oldOwner = _owner */\n      swap1\n      pop\n        /* \"Myblacktoken_flattened.sol\":10498:10506  newOwner */\n      dup2\n        /* \"Myblacktoken_flattened.sol\":10489:10495  _owner */\n      0x05\n      0x00\n        /* \"Myblacktoken_flattened.sol\":10489:10506  _owner = newOwner */\n      0x0100\n      exp\n      dup2\n      sload\n      dup2\n      0xffffffffffffffffffffffffffffffffffffffff\n      mul\n      not\n      and\n      swap1\n      dup4\n      0xffffffffffffffffffffffffffffffffffffffff\n      and\n      mul\n      or\n      swap1\n      sstore\n      pop\n        /* \"Myblacktoken_flattened.sol\":10552:10560  newOwner */\n      dup2\n        /* \"Myblacktoken_flattened.sol\":10521:10561  OwnershipTransferred(oldOwner, newOwner) */\n      0xffffffffffffffffffffffffffffffffffffffff\n      and\n        /* \"Myblacktoken_flattened.sol\":10542:10550  oldOwner */\n      dup2\n        /* \"Myblacktoken_flattened.sol\":10521:10561  OwnershipTransferred(oldOwner, newOwner) */\n      0xffffffffffffffffffffffffffffffffffffffff\n      and\n      0x8be0079c531659141344cd1fd0a4f28419497f9722a3daafe3b4186f6b6457e0\n      mload(0x40)\n      mload(0x40)\n      dup1\n      swap2\n      sub\n      swap1\n      log3\n        /* \"Myblacktoken_flattened.sol\":10444:10568  {... */\n      pop\n        /* \"Myblacktoken_flattened.sol\":10381:10568  function _transferOwnership(address newOwner) internal virtual {... */\n      pop\n      jump\t// out\n        /* \"Myblacktoken_flattened.sol\":23859:24291  function _approve(address owner, address spender, uint256 value, bool emitEvent) internal virtual {... */\n    tag_189:\n        /* \"Myblacktoken_flattened.sol\":23988:23989  0 */\n      0x00\n        /* \"Myblacktoken_flattened.sol\":23971:23990  owner == address(0) */\n      0xffffffffffffffffffffffffffffffffffffffff\n      and\n        /* \"Myblacktoken_flattened.sol\":23971:23976  owner */\n      dup5\n        /* \"Myblacktoken_flattened.sol\":23971:23990  owner == address(0) */\n      0xffffffffffffffffffffffffffffffffffffffff\n      and\n      sub\n        /* \"Myblacktoken_flattened.sol\":23967:24056  if (owner == address(0)) {... */\n      tag_212\n      jumpi\n        /* \"Myblacktoken_flattened.sol\":24042:24043  0 */\n      0x00\n        /* \"Myblacktoken_flattened.sol\":24013:24045  ERC20InvalidApprover(address(0)) */\n      mload(0x40)\n      0xe602df0500000000000000000000000000000000000000000000000000000000\n      dup2\n      mstore\n      0x04\n      add\n      tag_213\n      swap2\n      swap1\n      tag_71\n      jump\t// in\n    tag_213:\n      mload(0x40)\n      dup1\n      swap2\n      sub\n      swap1\n      revert\n        /* \"Myblacktoken_flattened.sol\":23967:24056  if (owner == address(0)) {... */\n    tag_212:\n        /* \"Myblacktoken_flattened.sol\":24088:24089  0 */\n      0x00\n        /* \"Myblacktoken_flattened.sol\":24069:24090  spender == address(0) */\n      0xffffffffffffffffffffffffffffffffffffffff\n      and\n        /* \"Myblacktoken_flattened.sol\":24069:24076  spender */\n      dup4\n        /* \"Myblacktoken_flattened.sol\":24069:24090  spender == address(0) */\n      0xffffffffffffffffffffffffffffffffffffffff\n      and\n      sub\n        /* \"Myblacktoken_flattened.sol\":24065:24155  if (spender == address(0)) {... */\n      tag_214\n      jumpi\n        /* \"Myblacktoken_flattened.sol\":24141:24142  0 */\n      0x00\n        /* \"Myblacktoken_flattened.sol\":24113:24144  ERC20InvalidSpender(address(0)) */\n      mload(0x40)\n      0x94280d6200000000000000000000000000000000000000000000000000000000\n      dup2\n      mstore\n      0x04\n      add\n      tag_215\n      swap2\n      swap1\n      tag_71\n      jump\t// in\n    tag_215:\n      mload(0x40)\n      dup1\n      swap2\n      sub\n      swap1\n      revert\n        /* \"Myblacktoken_flattened.sol\":24065:24155  if (spender == address(0)) {... */\n    tag_214:\n        /* \"Myblacktoken_flattened.sol\":24194:24199  value */\n      dup2\n        /* \"Myblacktoken_flattened.sol\":24164:24175  _allowances */\n      0x01\n        /* \"Myblacktoken_flattened.sol\":24164:24182  _allowances[owner] */\n      0x00\n        /* \"Myblacktoken_flattened.sol\":24176:24181  owner */\n      dup7\n        /* \"Myblacktoken_flattened.sol\":24164:24182  _allowances[owner] */\n      0xffffffffffffffffffffffffffffffffffffffff\n      and\n      0xffffffffffffffffffffffffffffffffffffffff\n      and\n      dup2\n      mstore\n      0x20\n      add\n      swap1\n      dup2\n      mstore\n      0x20\n      add\n      0x00\n      keccak256\n        /* \"Myblacktoken_flattened.sol\":24164:24191  _allowances[owner][spender] */\n      0x00\n        /* \"Myblacktoken_flattened.sol\":24183:24190  spender */\n      dup6\n        /* \"Myblacktoken_flattened.sol\":24164:24191  _allowances[owner][spender] */\n      0xffffffffffffffffffffffffffffffffffffffff\n      and\n      0xffffffffffffffffffffffffffffffffffffffff\n      and\n      dup2\n      mstore\n      0x20\n      add\n      swap1\n      dup2\n      mstore\n      0x20\n      add\n      0x00\n      keccak256\n        /* \"Myblacktoken_flattened.sol\":24164:24199  _allowances[owner][spender] = value */\n      dup2\n      swap1\n      sstore\n      pop\n        /* \"Myblacktoken_flattened.sol\":24213:24222  emitEvent */\n      dup1\n        /* \"Myblacktoken_flattened.sol\":24209:24285  if (emitEvent) {... */\n      iszero\n      tag_216\n      jumpi\n        /* \"Myblacktoken_flattened.sol\":24259:24266  spender */\n      dup3\n        /* \"Myblacktoken_flattened.sol\":24243:24274  Approval(owner, spender, value) */\n      0xffffffffffffffffffffffffffffffffffffffff\n      and\n        /* \"Myblacktoken_flattened.sol\":24252:24257  owner */\n      dup5\n        /* \"Myblacktoken_flattened.sol\":24243:24274  Approval(owner, spender, value) */\n      0xffffffffffffffffffffffffffffffffffffffff\n      and\n      0x8c5be1e5ebec7d5bd14f71427d1e84f3dd0314c0f7b2291e5b200ac8c7c3b925\n        /* \"Myblacktoken_flattened.sol\":24268:24273  value */\n      dup5\n        /* \"Myblacktoken_flattened.sol\":24243:24274  Approval(owner, spender, value) */\n      mload(0x40)\n      tag_217\n      swap2\n      swap1\n      tag_37\n      jump\t// in\n    tag_217:\n      mload(0x40)\n      dup1\n      swap2\n      sub\n      swap1\n      log3\n        /* \"Myblacktoken_flattened.sol\":24209:24285  if (emitEvent) {... */\n    tag_216:\n        /* \"Myblacktoken_flattened.sol\":23859:24291  function _approve(address owner, address spender, uint256 value, bool emitEvent) internal virtual {... */\n      pop\n      pop\n      pop\n      pop\n      jump\t// out\n        /* \"Myblacktoken_flattened.sol\":20163:21270  function _update(address from, address to, uint256 value) internal virtual {... */\n    tag_203:\n        /* \"Myblacktoken_flattened.sol\":20268:20269  0 */\n      0x00\n        /* \"Myblacktoken_flattened.sol\":20252:20270  from == address(0) */\n      0xffffffffffffffffffffffffffffffffffffffff\n      and\n        /* \"Myblacktoken_flattened.sol\":20252:20256  from */\n      dup4\n        /* \"Myblacktoken_flattened.sol\":20252:20270  from == address(0) */\n      0xffffffffffffffffffffffffffffffffffffffff\n      and\n      sub\n        /* \"Myblacktoken_flattened.sol\":20248:20788  if (from == address(0)) {... */\n      tag_219\n      jumpi\n        /* \"Myblacktoken_flattened.sol\":20404:20409  value */\n      dup1\n        /* \"Myblacktoken_flattened.sol\":20388:20400  _totalSupply */\n      0x02\n      0x00\n        /* \"Myblacktoken_flattened.sol\":20388:20409  _totalSupply += value */\n      dup3\n      dup3\n      sload\n      tag_220\n      swap2\n      swap1\n      tag_221\n      jump\t// in\n    tag_220:\n      swap3\n      pop\n      pop\n      dup2\n      swap1\n      sstore\n      pop\n        /* \"Myblacktoken_flattened.sol\":20248:20788  if (from == address(0)) {... */\n      jump(tag_222)\n    tag_219:\n        /* \"Myblacktoken_flattened.sol\":20440:20459  uint256 fromBalance */\n      0x00\n        /* \"Myblacktoken_flattened.sol\":20462:20471  _balances */\n      dup1\n        /* \"Myblacktoken_flattened.sol\":20462:20477  _balances[from] */\n      0x00\n        /* \"Myblacktoken_flattened.sol\":20472:20476  from */\n      dup6\n        /* \"Myblacktoken_flattened.sol\":20462:20477  _balances[from] */\n      0xffffffffffffffffffffffffffffffffffffffff\n      and\n      0xffffffffffffffffffffffffffffffffffffffff\n      and\n      dup2\n      mstore\n      0x20\n      add\n      swap1\n      dup2\n      mstore\n      0x20\n      add\n      0x00\n      keccak256\n      sload\n        /* \"Myblacktoken_flattened.sol\":20440:20477  uint256 fromBalance = _balances[from] */\n      swap1\n      pop\n        /* \"Myblacktoken_flattened.sol\":20509:20514  value */\n      dup2\n        /* \"Myblacktoken_flattened.sol\":20495:20506  fromBalance */\n      dup2\n        /* \"Myblacktoken_flattened.sol\":20495:20514  fromBalance < value */\n      lt\n        /* \"Myblacktoken_flattened.sol\":20491:20606  if (fromBalance < value) {... */\n      iszero\n      tag_223\n      jumpi\n        /* \"Myblacktoken_flattened.sol\":20566:20570  from */\n      dup4\n        /* \"Myblacktoken_flattened.sol\":20572:20583  fromBalance */\n      dup2\n        /* \"Myblacktoken_flattened.sol\":20585:20590  value */\n      dup4\n        /* \"Myblacktoken_flattened.sol\":20541:20591  ERC20InsufficientBalance(from, fromBalance, value) */\n      mload(0x40)\n      0xe450d38c00000000000000000000000000000000000000000000000000000000\n      dup2\n      mstore\n      0x04\n      add\n      tag_224\n      swap4\n      swap3\n      swap2\n      swap1\n      tag_195\n      jump\t// in\n    tag_224:\n      mload(0x40)\n      dup1\n      swap2\n      sub\n      swap1\n      revert\n        /* \"Myblacktoken_flattened.sol\":20491:20606  if (fromBalance < value) {... */\n    tag_223:\n        /* \"Myblacktoken_flattened.sol\":20758:20763  value */\n      dup2\n        /* \"Myblacktoken_flattened.sol\":20744:20755  fromBalance */\n      dup2\n        /* \"Myblacktoken_flattened.sol\":20744:20763  fromBalance - value */\n      sub\n        /* \"Myblacktoken_flattened.sol\":20726:20735  _balances */\n      0x00\n        /* \"Myblacktoken_flattened.sol\":20726:20741  _balances[from] */\n      dup1\n        /* \"Myblacktoken_flattened.sol\":20736:20740  from */\n      dup7\n        /* \"Myblacktoken_flattened.sol\":20726:20741  _balances[from] */\n      0xffffffffffffffffffffffffffffffffffffffff\n      and\n      0xffffffffffffffffffffffffffffffffffffffff\n      and\n      dup2\n      mstore\n      0x20\n      add\n      swap1\n      dup2\n      mstore\n      0x20\n      add\n      0x00\n      keccak256\n        /* \"Myblacktoken_flattened.sol\":20726:20763  _balances[from] = fromBalance - value */\n      dup2\n      swap1\n      sstore\n      pop\n        /* \"Myblacktoken_flattened.sol\":20426:20788  {... */\n      pop\n        /* \"Myblacktoken_flattened.sol\":20248:20788  if (from == address(0)) {... */\n    tag_222:\n        /* \"Myblacktoken_flattened.sol\":20816:20817  0 */\n      0x00\n        /* \"Myblacktoken_flattened.sol\":20802:20818  to == address(0) */\n      0xffffffffffffffffffffffffffffffffffffffff\n      and\n        /* \"Myblacktoken_flattened.sol\":20802:20804  to */\n      dup3\n        /* \"Myblacktoken_flattened.sol\":20802:20818  to == address(0) */\n      0xffffffffffffffffffffffffffffffffffffffff\n      and\n      sub\n        /* \"Myblacktoken_flattened.sol\":20798:21223  if (to == address(0)) {... */\n      tag_225\n      jumpi\n        /* \"Myblacktoken_flattened.sol\":20981:20986  value */\n      dup1\n        /* \"Myblacktoken_flattened.sol\":20965:20977  _totalSupply */\n      0x02\n      0x00\n        /* \"Myblacktoken_flattened.sol\":20965:20986  _totalSupply -= value */\n      dup3\n      dup3\n      sload\n      sub\n      swap3\n      pop\n      pop\n      dup2\n      swap1\n      sstore\n      pop\n        /* \"Myblacktoken_flattened.sol\":20798:21223  if (to == address(0)) {... */\n      jump(tag_226)\n    tag_225:\n        /* \"Myblacktoken_flattened.sol\":21193:21198  value */\n      dup1\n        /* \"Myblacktoken_flattened.sol\":21176:21185  _balances */\n      0x00\n        /* \"Myblacktoken_flattened.sol\":21176:21189  _balances[to] */\n      dup1\n        /* \"Myblacktoken_flattened.sol\":21186:21188  to */\n      dup5\n        /* \"Myblacktoken_flattened.sol\":21176:21189  _balances[to] */\n      0xffffffffffffffffffffffffffffffffffffffff\n      and\n      0xffffffffffffffffffffffffffffffffffffffff\n      and\n      dup2\n      mstore\n      0x20\n      add\n      swap1\n      dup2\n      mstore\n      0x20\n      add\n      0x00\n      keccak256\n      0x00\n        /* \"Myblacktoken_flattened.sol\":21176:21198  _balances[to] += value */\n      dup3\n      dup3\n      sload\n      add\n      swap3\n      pop\n      pop\n      dup2\n      swap1\n      sstore\n      pop\n        /* \"Myblacktoken_flattened.sol\":20798:21223  if (to == address(0)) {... */\n    tag_226:\n        /* \"Myblacktoken_flattened.sol\":21253:21255  to */\n      dup2\n        /* \"Myblacktoken_flattened.sol\":21238:21263  Transfer(from, to, value) */\n      0xffffffffffffffffffffffffffffffffffffffff\n      and\n        /* \"Myblacktoken_flattened.sol\":21247:21251  from */\n      dup4\n        /* \"Myblacktoken_flattened.sol\":21238:21263  Transfer(from, to, value) */\n      0xffffffffffffffffffffffffffffffffffffffff\n      and\n      0xddf252ad1be2c89b69c2b068fc378daa952ba7f163c4a11628f55a4df523b3ef\n        /* \"Myblacktoken_flattened.sol\":21257:21262  value */\n      dup4\n        /* \"Myblacktoken_flattened.sol\":21238:21263  Transfer(from, to, value) */\n      mload(0x40)\n      tag_227\n      swap2\n      swap1\n      tag_37\n      jump\t// in\n    tag_227:\n      mload(0x40)\n      dup1\n      swap2\n      sub\n      swap1\n      log3\n        /* \"Myblacktoken_flattened.sol\":20163:21270  function _update(address from, address to, uint256 value) internal virtual {... */\n      pop\n      pop\n      pop\n      jump\t// out\n        /* \"#utility.yul\":7:106   */\n    tag_228:\n        /* \"#utility.yul\":59:65   */\n      0x00\n        /* \"#utility.yul\":93:98   */\n      dup2\n        /* \"#utility.yul\":87:99   */\n      mload\n        /* \"#utility.yul\":77:99   */\n      swap1\n      pop\n        /* \"#utility.yul\":7:106   */\n      swap2\n      swap1\n      pop\n      jump\t// out\n        /* \"#utility.yul\":112:281   */\n    tag_229:\n        /* \"#utility.yul\":196:207   */\n      0x00\n        /* \"#utility.yul\":230:236   */\n      dup3\n        /* \"#utility.yul\":225:228   */\n      dup3\n        /* \"#utility.yul\":218:237   */\n      mstore\n        /* \"#utility.yul\":270:274   */\n      0x20\n        /* \"#utility.yul\":265:268   */\n      dup3\n        /* \"#utility.yul\":261:275   */\n      add\n        /* \"#utility.yul\":246:275   */\n      swap1\n      pop\n        /* \"#utility.yul\":112:281   */\n      swap3\n      swap2\n      pop\n      pop\n      jump\t// out\n        /* \"#utility.yul\":287:533   */\n    tag_230:\n        /* \"#utility.yul\":368:369   */\n      0x00\n        /* \"#utility.yul\":378:491   */\n    tag_271:\n        /* \"#utility.yul\":392:398   */\n      dup4\n        /* \"#utility.yul\":389:390   */\n      dup2\n        /* \"#utility.yul\":386:399   */\n      lt\n        /* \"#utility.yul\":378:491   */\n      iszero\n      tag_273\n      jumpi\n        /* \"#utility.yul\":477:478   */\n      dup1\n        /* \"#utility.yul\":472:475   */\n      dup3\n        /* \"#utility.yul\":468:479   */\n      add\n        /* \"#utility.yul\":462:480   */\n      mload\n        /* \"#utility.yul\":458:459   */\n      dup2\n        /* \"#utility.yul\":453:456   */\n      dup5\n        /* \"#utility.yul\":449:460   */\n      add\n        /* \"#utility.yul\":442:481   */\n      mstore\n        /* \"#utility.yul\":414:416   */\n      0x20\n        /* \"#utility.yul\":411:412   */\n      dup2\n        /* \"#utility.yul\":407:417   */\n      add\n        /* \"#utility.yul\":402:417   */\n      swap1\n      pop\n        /* \"#utility.yul\":378:491   */\n      jump(tag_271)\n    tag_273:\n        /* \"#utility.yul\":525:526   */\n      0x00\n        /* \"#utility.yul\":516:522   */\n      dup5\n        /* \"#utility.yul\":511:514   */\n      dup5\n        /* \"#utility.yul\":507:523   */\n      add\n        /* \"#utility.yul\":500:527   */\n      mstore\n        /* \"#utility.yul\":349:533   */\n      pop\n        /* \"#utility.yul\":287:533   */\n      pop\n      pop\n      pop\n      jump\t// out\n        /* \"#utility.yul\":539:641   */\n    tag_231:\n        /* \"#utility.yul\":580:586   */\n      0x00\n        /* \"#utility.yul\":631:633   */\n      0x1f\n        /* \"#utility.yul\":627:634   */\n      not\n        /* \"#utility.yul\":622:624   */\n      0x1f\n        /* \"#utility.yul\":615:620   */\n      dup4\n        /* \"#utility.yul\":611:625   */\n      add\n        /* \"#utility.yul\":607:635   */\n      and\n        /* \"#utility.yul\":597:635   */\n      swap1\n      pop\n        /* \"#utility.yul\":539:641   */\n      swap2\n      swap1\n      pop\n      jump\t// out\n        /* \"#utility.yul\":647:1024   */\n    tag_232:\n        /* \"#utility.yul\":735:738   */\n      0x00\n        /* \"#utility.yul\":763:802   */\n      tag_276\n        /* \"#utility.yul\":796:801   */\n      dup3\n        /* \"#utility.yul\":763:802   */\n      tag_228\n      jump\t// in\n    tag_276:\n        /* \"#utility.yul\":818:889   */\n      tag_277\n        /* \"#utility.yul\":882:888   */\n      dup2\n        /* \"#utility.yul\":877:880   */\n      dup6\n        /* \"#utility.yul\":818:889   */\n      tag_229\n      jump\t// in\n    tag_277:\n        /* \"#utility.yul\":811:889   */\n      swap4\n      pop\n        /* \"#utility.yul\":898:963   */\n      tag_278\n        /* \"#utility.yul\":956:962   */\n      dup2\n        /* \"#utility.yul\":951:954   */\n      dup6\n        /* \"#utility.yul\":944:948   */\n      0x20\n        /* \"#utility.yul\":937:942   */\n      dup7\n        /* \"#utility.yul\":933:949   */\n      add\n        /* \"#utility.yul\":898:963   */\n      tag_230\n      jump\t// in\n    tag_278:\n        /* \"#utility.yul\":988:1017   */\n      tag_279\n        /* \"#utility.yul\":1010:1016   */\n      dup2\n        /* \"#utility.yul\":988:1017   */\n      tag_231\n      jump\t// in\n    tag_279:\n        /* \"#utility.yul\":983:986   */\n      dup5\n        /* \"#utility.yul\":979:1018   */\n      add\n        /* \"#utility.yul\":972:1018   */\n      swap2\n      pop\n        /* \"#utility.yul\":739:1024   */\n      pop\n        /* \"#utility.yul\":647:1024   */\n      swap3\n      swap2\n      pop\n      pop\n      jump\t// out\n        /* \"#utility.yul\":1030:1343   */\n    tag_25:\n        /* \"#utility.yul\":1143:1147   */\n      0x00\n        /* \"#utility.yul\":1181:1183   */\n      0x20\n        /* \"#utility.yul\":1170:1179   */\n      dup3\n        /* \"#utility.yul\":1166:1184   */\n      add\n        /* \"#utility.yul\":1158:1184   */\n      swap1\n      pop\n        /* \"#utility.yul\":1230:1239   */\n      dup2\n        /* \"#utility.yul\":1224:1228   */\n      dup2\n        /* \"#utility.yul\":1220:1240   */\n      sub\n        /* \"#utility.yul\":1216:1217   */\n      0x00\n        /* \"#utility.yul\":1205:1214   */\n      dup4\n        /* \"#utility.yul\":1201:1218   */\n      add\n        /* \"#utility.yul\":1194:1241   */\n      mstore\n        /* \"#utility.yul\":1258:1336   */\n      tag_281\n        /* \"#utility.yul\":1331:1335   */\n      dup2\n        /* \"#utility.yul\":1322:1328   */\n      dup5\n        /* \"#utility.yul\":1258:1336   */\n      tag_232\n      jump\t// in\n    tag_281:\n        /* \"#utility.yul\":1250:1336   */\n      swap1\n      pop\n        /* \"#utility.yul\":1030:1343   */\n      swap3\n      swap2\n      pop\n      pop\n      jump\t// out\n        /* \"#utility.yul\":1430:1547   */\n    tag_234:\n        /* \"#utility.yul\":1539:1540   */\n      0x00\n        /* \"#utility.yul\":1536:1537   */\n      dup1\n        /* \"#utility.yul\":1529:1541   */\n      revert\n        /* \"#utility.yul\":1676:1802   */\n    tag_236:\n        /* \"#utility.yul\":1713:1720   */\n      0x00\n        /* \"#utility.yul\":1753:1795   */\n      0xffffffffffffffffffffffffffffffffffffffff\n        /* \"#utility.yul\":1746:1751   */\n      dup3\n        /* \"#utility.yul\":1742:1796   */\n      and\n        /* \"#utility.yul\":1731:1796   */\n      swap1\n      pop\n        /* \"#utility.yul\":1676:1802   */\n      swap2\n      swap1\n      pop\n      jump\t// out\n        /* \"#utility.yul\":1808:1904   */\n    tag_237:\n        /* \"#utility.yul\":1845:1852   */\n      0x00\n        /* \"#utility.yul\":1874:1898   */\n      tag_287\n        /* \"#utility.yul\":1892:1897   */\n      dup3\n        /* \"#utility.yul\":1874:1898   */\n      tag_236\n      jump\t// in\n    tag_287:\n        /* \"#utility.yul\":1863:1898   */\n      swap1\n      pop\n        /* \"#utility.yul\":1808:1904   */\n      swap2\n      swap1\n      pop\n      jump\t// out\n        /* \"#utility.yul\":1910:2032   */\n    tag_238:\n        /* \"#utility.yul\":1983:2007   */\n      tag_289\n        /* \"#utility.yul\":2001:2006   */\n      dup2\n        /* \"#utility.yul\":1983:2007   */\n      tag_237\n      jump\t// in\n    tag_289:\n        /* \"#utility.yul\":1976:1981   */\n      dup2\n        /* \"#utility.yul\":1973:2008   */\n      eq\n        /* \"#utility.yul\":1963:2026   */\n      tag_290\n      jumpi\n        /* \"#utility.yul\":2022:2023   */\n      0x00\n        /* \"#utility.yul\":2019:2020   */\n      dup1\n        /* \"#utility.yul\":2012:2024   */\n      revert\n        /* \"#utility.yul\":1963:2026   */\n    tag_290:\n        /* \"#utility.yul\":1910:2032   */\n      pop\n      jump\t// out\n        /* \"#utility.yul\":2038:2177   */\n    tag_239:\n        /* \"#utility.yul\":2084:2089   */\n      0x00\n        /* \"#utility.yul\":2122:2128   */\n      dup2\n        /* \"#utility.yul\":2109:2129   */\n      calldataload\n        /* \"#utility.yul\":2100:2129   */\n      swap1\n      pop\n        /* \"#utility.yul\":2138:2171   */\n      tag_292\n        /* \"#utility.yul\":2165:2170   */\n      dup2\n        /* \"#utility.yul\":2138:2171   */\n      tag_238\n      jump\t// in\n    tag_292:\n        /* \"#utility.yul\":2038:2177   */\n      swap3\n      swap2\n      pop\n      pop\n      jump\t// out\n        /* \"#utility.yul\":2183:2260   */\n    tag_240:\n        /* \"#utility.yul\":2220:2227   */\n      0x00\n        /* \"#utility.yul\":2249:2254   */\n      dup2\n        /* \"#utility.yul\":2238:2254   */\n      swap1\n      pop\n        /* \"#utility.yul\":2183:2260   */\n      swap2\n      swap1\n      pop\n      jump\t// out\n        /* \"#utility.yul\":2266:2388   */\n    tag_241:\n        /* \"#utility.yul\":2339:2363   */\n      tag_295\n        /* \"#utility.yul\":2357:2362   */\n      dup2\n        /* \"#utility.yul\":2339:2363   */\n      tag_240\n      jump\t// in\n    tag_295:\n        /* \"#utility.yul\":2332:2337   */\n      dup2\n        /* \"#utility.yul\":2329:2364   */\n      eq\n        /* \"#utility.yul\":2319:2382   */\n      tag_296\n      jumpi\n        /* \"#utility.yul\":2378:2379   */\n      0x00\n        /* \"#utility.yul\":2375:2376   */\n      dup1\n        /* \"#utility.yul\":2368:2380   */\n      revert\n        /* \"#utility.yul\":2319:2382   */\n    tag_296:\n        /* \"#utility.yul\":2266:2388   */\n      pop\n      jump\t// out\n        /* \"#utility.yul\":2394:2533   */\n    tag_242:\n        /* \"#utility.yul\":2440:2445   */\n      0x00\n        /* \"#utility.yul\":2478:2484   */\n      dup2\n        /* \"#utility.yul\":2465:2485   */\n      calldataload\n        /* \"#utility.yul\":2456:2485   */\n      swap1\n      pop\n        /* \"#utility.yul\":2494:2527   */\n      tag_298\n        /* \"#utility.yul\":2521:2526   */\n      dup2\n        /* \"#utility.yul\":2494:2527   */\n      tag_241\n      jump\t// in\n    tag_298:\n        /* \"#utility.yul\":2394:2533   */\n      swap3\n      swap2\n      pop\n      pop\n      jump\t// out\n        /* \"#utility.yul\":2539:3013   */\n    tag_29:\n        /* \"#utility.yul\":2607:2613   */\n      0x00\n        /* \"#utility.yul\":2615:2621   */\n      dup1\n        /* \"#utility.yul\":2664:2666   */\n      0x40\n        /* \"#utility.yul\":2652:2661   */\n      dup4\n        /* \"#utility.yul\":2643:2650   */\n      dup6\n        /* \"#utility.yul\":2639:2662   */\n      sub\n        /* \"#utility.yul\":2635:2667   */\n      slt\n        /* \"#utility.yul\":2632:2751   */\n      iszero\n      tag_300\n      jumpi\n        /* \"#utility.yul\":2670:2749   */\n      tag_301\n      tag_234\n      jump\t// in\n    tag_301:\n        /* \"#utility.yul\":2632:2751   */\n    tag_300:\n        /* \"#utility.yul\":2790:2791   */\n      0x00\n        /* \"#utility.yul\":2815:2868   */\n      tag_302\n        /* \"#utility.yul\":2860:2867   */\n      dup6\n        /* \"#utility.yul\":2851:2857   */\n      dup3\n        /* \"#utility.yul\":2840:2849   */\n      dup7\n        /* \"#utility.yul\":2836:2858   */\n      add\n        /* \"#utility.yul\":2815:2868   */\n      tag_239\n      jump\t// in\n    tag_302:\n        /* \"#utility.yul\":2805:2868   */\n      swap3\n      pop\n        /* \"#utility.yul\":2761:2878   */\n      pop\n        /* \"#utility.yul\":2917:2919   */\n      0x20\n        /* \"#utility.yul\":2943:2996   */\n      tag_303\n        /* \"#utility.yul\":2988:2995   */\n      dup6\n        /* \"#utility.yul\":2979:2985   */\n      dup3\n        /* \"#utility.yul\":2968:2977   */\n      dup7\n        /* \"#utility.yul\":2964:2986   */\n      add\n        /* \"#utility.yul\":2943:2996   */\n      tag_242\n      jump\t// in\n    tag_303:\n        /* \"#utility.yul\":2933:2996   */\n      swap2\n      pop\n        /* \"#utility.yul\":2888:3006   */\n      pop\n        /* \"#utility.yul\":2539:3013   */\n      swap3\n      pop\n      swap3\n      swap1\n      pop\n      jump\t// out\n        /* \"#utility.yul\":3019:3109   */\n    tag_243:\n        /* \"#utility.yul\":3053:3060   */\n      0x00\n        /* \"#utility.yul\":3096:3101   */\n      dup2\n        /* \"#utility.yul\":3089:3102   */\n      iszero\n        /* \"#utility.yul\":3082:3103   */\n      iszero\n        /* \"#utility.yul\":3071:3103   */\n      swap1\n      pop\n        /* \"#utility.yul\":3019:3109   */\n      swap2\n      swap1\n      pop\n      jump\t// out\n        /* \"#utility.yul\":3115:3224   */\n    tag_244:\n        /* \"#utility.yul\":3196:3217   */\n      tag_306\n        /* \"#utility.yul\":3211:3216   */\n      dup2\n        /* \"#utility.yul\":3196:3217   */\n      tag_243\n      jump\t// in\n    tag_306:\n        /* \"#utility.yul\":3191:3194   */\n      dup3\n        /* \"#utility.yul\":3184:3218   */\n      mstore\n        /* \"#utility.yul\":3115:3224   */\n      pop\n      pop\n      jump\t// out\n        /* \"#utility.yul\":3230:3440   */\n    tag_32:\n        /* \"#utility.yul\":3317:3321   */\n      0x00\n        /* \"#utility.yul\":3355:3357   */\n      0x20\n        /* \"#utility.yul\":3344:3353   */\n      dup3\n        /* \"#utility.yul\":3340:3358   */\n      add\n        /* \"#utility.yul\":3332:3358   */\n      swap1\n      pop\n        /* \"#utility.yul\":3368:3433   */\n      tag_308\n        /* \"#utility.yul\":3430:3431   */\n      0x00\n        /* \"#utility.yul\":3419:3428   */\n      dup4\n        /* \"#utility.yul\":3415:3432   */\n      add\n        /* \"#utility.yul\":3406:3412   */\n      dup5\n        /* \"#utility.yul\":3368:3433   */\n      tag_244\n      jump\t// in\n    tag_308:\n        /* \"#utility.yul\":3230:3440   */\n      swap3\n      swap2\n      pop\n      pop\n      jump\t// out\n        /* \"#utility.yul\":3446:3564   */\n    tag_245:\n        /* \"#utility.yul\":3533:3557   */\n      tag_310\n        /* \"#utility.yul\":3551:3556   */\n      dup2\n        /* \"#utility.yul\":3533:3557   */\n      tag_240\n      jump\t// in\n    tag_310:\n        /* \"#utility.yul\":3528:3531   */\n      dup3\n        /* \"#utility.yul\":3521:3558   */\n      mstore\n        /* \"#utility.yul\":3446:3564   */\n      pop\n      pop\n      jump\t// out\n        /* \"#utility.yul\":3570:3792   */\n    tag_37:\n        /* \"#utility.yul\":3663:3667   */\n      0x00\n        /* \"#utility.yul\":3701:3703   */\n      0x20\n        /* \"#utility.yul\":3690:3699   */\n      dup3\n        /* \"#utility.yul\":3686:3704   */\n      add\n        /* \"#utility.yul\":3678:3704   */\n      swap1\n      pop\n        /* \"#utility.yul\":3714:3785   */\n      tag_312\n        /* \"#utility.yul\":3782:3783   */\n      0x00\n        /* \"#utility.yul\":3771:3780   */\n      dup4\n        /* \"#utility.yul\":3767:3784   */\n      add\n        /* \"#utility.yul\":3758:3764   */\n      dup5\n        /* \"#utility.yul\":3714:3785   */\n      tag_245\n      jump\t// in\n    tag_312:\n        /* \"#utility.yul\":3570:3792   */\n      swap3\n      swap2\n      pop\n      pop\n      jump\t// out\n        /* \"#utility.yul\":3798:4417   */\n    tag_41:\n        /* \"#utility.yul\":3875:3881   */\n      0x00\n        /* \"#utility.yul\":3883:3889   */\n      dup1\n        /* \"#utility.yul\":3891:3897   */\n      0x00\n        /* \"#utility.yul\":3940:3942   */\n      0x60\n        /* \"#utility.yul\":3928:3937   */\n      dup5\n        /* \"#utility.yul\":3919:3926   */\n      dup7\n        /* \"#utility.yul\":3915:3938   */\n      sub\n        /* \"#utility.yul\":3911:3943   */\n      slt\n        /* \"#utility.yul\":3908:4027   */\n      iszero\n      tag_314\n      jumpi\n        /* \"#utility.yul\":3946:4025   */\n      tag_315\n      tag_234\n      jump\t// in\n    tag_315:\n        /* \"#utility.yul\":3908:4027   */\n    tag_314:\n        /* \"#utility.yul\":4066:4067   */\n      0x00\n        /* \"#utility.yul\":4091:4144   */\n      tag_316\n        /* \"#utility.yul\":4136:4143   */\n      dup7\n        /* \"#utility.yul\":4127:4133   */\n      dup3\n        /* \"#utility.yul\":4116:4125   */\n      dup8\n        /* \"#utility.yul\":4112:4134   */\n      add\n        /* \"#utility.yul\":4091:4144   */\n      tag_239\n      jump\t// in\n    tag_316:\n        /* \"#utility.yul\":4081:4144   */\n      swap4\n      pop\n        /* \"#utility.yul\":4037:4154   */\n      pop\n        /* \"#utility.yul\":4193:4195   */\n      0x20\n        /* \"#utility.yul\":4219:4272   */\n      tag_317\n        /* \"#utility.yul\":4264:4271   */\n      dup7\n        /* \"#utility.yul\":4255:4261   */\n      dup3\n        /* \"#utility.yul\":4244:4253   */\n      dup8\n        /* \"#utility.yul\":4240:4262   */\n      add\n        /* \"#utility.yul\":4219:4272   */\n      tag_239\n      jump\t// in\n    tag_317:\n        /* \"#utility.yul\":4209:4272   */\n      swap3\n      pop\n        /* \"#utility.yul\":4164:4282   */\n      pop\n        /* \"#utility.yul\":4321:4323   */\n      0x40\n        /* \"#utility.yul\":4347:4400   */\n      tag_318\n        /* \"#utility.yul\":4392:4399   */\n      dup7\n        /* \"#utility.yul\":4383:4389   */\n      dup3\n        /* \"#utility.yul\":4372:4381   */\n      dup8\n        /* \"#utility.yul\":4368:4390   */\n      add\n        /* \"#utility.yul\":4347:4400   */\n      tag_242\n      jump\t// in\n    tag_318:\n        /* \"#utility.yul\":4337:4400   */\n      swap2\n      pop\n        /* \"#utility.yul\":4292:4410   */\n      pop\n        /* \"#utility.yul\":3798:4417   */\n      swap3\n      pop\n      swap3\n      pop\n      swap3\n      jump\t// out\n        /* \"#utility.yul\":4423:4509   */\n    tag_246:\n        /* \"#utility.yul\":4458:4465   */\n      0x00\n        /* \"#utility.yul\":4498:4502   */\n      0xff\n        /* \"#utility.yul\":4491:4496   */\n      dup3\n        /* \"#utility.yul\":4487:4503   */\n      and\n        /* \"#utility.yul\":4476:4503   */\n      swap1\n      pop\n        /* \"#utility.yul\":4423:4509   */\n      swap2\n      swap1\n      pop\n      jump\t// out\n        /* \"#utility.yul\":4515:4627   */\n    tag_247:\n        /* \"#utility.yul\":4598:4620   */\n      tag_321\n        /* \"#utility.yul\":4614:4619   */\n      dup2\n        /* \"#utility.yul\":4598:4620   */\n      tag_246\n      jump\t// in\n    tag_321:\n        /* \"#utility.yul\":4593:4596   */\n      dup3\n        /* \"#utility.yul\":4586:4621   */\n      mstore\n        /* \"#utility.yul\":4515:4627   */\n      pop\n      pop\n      jump\t// out\n        /* \"#utility.yul\":4633:4847   */\n    tag_48:\n        /* \"#utility.yul\":4722:4726   */\n      0x00\n        /* \"#utility.yul\":4760:4762   */\n      0x20\n        /* \"#utility.yul\":4749:4758   */\n      dup3\n        /* \"#utility.yul\":4745:4763   */\n      add\n        /* \"#utility.yul\":4737:4763   */\n      swap1\n      pop\n        /* \"#utility.yul\":4773:4840   */\n      tag_323\n        /* \"#utility.yul\":4837:4838   */\n      0x00\n        /* \"#utility.yul\":4826:4835   */\n      dup4\n        /* \"#utility.yul\":4822:4839   */\n      add\n        /* \"#utility.yul\":4813:4819   */\n      dup5\n        /* \"#utility.yul\":4773:4840   */\n      tag_247\n      jump\t// in\n    tag_323:\n        /* \"#utility.yul\":4633:4847   */\n      swap3\n      swap2\n      pop\n      pop\n      jump\t// out\n        /* \"#utility.yul\":4853:5182   */\n    tag_51:\n        /* \"#utility.yul\":4912:4918   */\n      0x00\n        /* \"#utility.yul\":4961:4963   */\n      0x20\n        /* \"#utility.yul\":4949:4958   */\n      dup3\n        /* \"#utility.yul\":4940:4947   */\n      dup5\n        /* \"#utility.yul\":4936:4959   */\n      sub\n        /* \"#utility.yul\":4932:4964   */\n      slt\n        /* \"#utility.yul\":4929:5048   */\n      iszero\n      tag_325\n      jumpi\n        /* \"#utility.yul\":4967:5046   */\n      tag_326\n      tag_234\n      jump\t// in\n    tag_326:\n        /* \"#utility.yul\":4929:5048   */\n    tag_325:\n        /* \"#utility.yul\":5087:5088   */\n      0x00\n        /* \"#utility.yul\":5112:5165   */\n      tag_327\n        /* \"#utility.yul\":5157:5164   */\n      dup5\n        /* \"#utility.yul\":5148:5154   */\n      dup3\n        /* \"#utility.yul\":5137:5146   */\n      dup6\n        /* \"#utility.yul\":5133:5155   */\n      add\n        /* \"#utility.yul\":5112:5165   */\n      tag_242\n      jump\t// in\n    tag_327:\n        /* \"#utility.yul\":5102:5165   */\n      swap2\n      pop\n        /* \"#utility.yul\":5058:5175   */\n      pop\n        /* \"#utility.yul\":4853:5182   */\n      swap3\n      swap2\n      pop\n      pop\n      jump\t// out\n        /* \"#utility.yul\":5188:5517   */\n    tag_57:\n        /* \"#utility.yul\":5247:5253   */\n      0x00\n        /* \"#utility.yul\":5296:5298   */\n      0x20\n        /* \"#utility.yul\":5284:5293   */\n      dup3\n        /* \"#utility.yul\":5275:5282   */\n      dup5\n        /* \"#utility.yul\":5271:5294   */\n      sub\n        /* \"#utility.yul\":5267:5299   */\n      slt\n        /* \"#utility.yul\":5264:5383   */\n      iszero\n      tag_329\n      jumpi\n        /* \"#utility.yul\":5302:5381   */\n      tag_330\n      tag_234\n      jump\t// in\n    tag_330:\n        /* \"#utility.yul\":5264:5383   */\n    tag_329:\n        /* \"#utility.yul\":5422:5423   */\n      0x00\n        /* \"#utility.yul\":5447:5500   */\n      tag_331\n        /* \"#utility.yul\":5492:5499   */\n      dup5\n        /* \"#utility.yul\":5483:5489   */\n      dup3\n        /* \"#utility.yul\":5472:5481   */\n      dup6\n        /* \"#utility.yul\":5468:5490   */\n      add\n        /* \"#utility.yul\":5447:5500   */\n      tag_239\n      jump\t// in\n    tag_331:\n        /* \"#utility.yul\":5437:5500   */\n      swap2\n      pop\n        /* \"#utility.yul\":5393:5510   */\n      pop\n        /* \"#utility.yul\":5188:5517   */\n      swap3\n      swap2\n      pop\n      pop\n      jump\t// out\n        /* \"#utility.yul\":5523:5641   */\n    tag_248:\n        /* \"#utility.yul\":5610:5634   */\n      tag_333\n        /* \"#utility.yul\":5628:5633   */\n      dup2\n        /* \"#utility.yul\":5610:5634   */\n      tag_237\n      jump\t// in\n    tag_333:\n        /* \"#utility.yul\":5605:5608   */\n      dup3\n        /* \"#utility.yul\":5598:5635   */\n      mstore\n        /* \"#utility.yul\":5523:5641   */\n      pop\n      pop\n      jump\t// out\n        /* \"#utility.yul\":5647:5869   */\n    tag_71:\n        /* \"#utility.yul\":5740:5744   */\n      0x00\n        /* \"#utility.yul\":5778:5780   */\n      0x20\n        /* \"#utility.yul\":5767:5776   */\n      dup3\n        /* \"#utility.yul\":5763:5781   */\n      add\n        /* \"#utility.yul\":5755:5781   */\n      swap1\n      pop\n        /* \"#utility.yul\":5791:5862   */\n      tag_335\n        /* \"#utility.yul\":5859:5860   */\n      0x00\n        /* \"#utility.yul\":5848:5857   */\n      dup4\n        /* \"#utility.yul\":5844:5861   */\n      add\n        /* \"#utility.yul\":5835:5841   */\n      dup5\n        /* \"#utility.yul\":5791:5862   */\n      tag_248\n      jump\t// in\n    tag_335:\n        /* \"#utility.yul\":5647:5869   */\n      swap3\n      swap2\n      pop\n      pop\n      jump\t// out\n        /* \"#utility.yul\":5875:6349   */\n    tag_84:\n        /* \"#utility.yul\":5943:5949   */\n      0x00\n        /* \"#utility.yul\":5951:5957   */\n      dup1\n        /* \"#utility.yul\":6000:6002   */\n      0x40\n        /* \"#utility.yul\":5988:5997   */\n      dup4\n        /* \"#utility.yul\":5979:5986   */\n      dup6\n        /* \"#utility.yul\":5975:5998   */\n      sub\n        /* \"#utility.yul\":5971:6003   */\n      slt\n        /* \"#utility.yul\":5968:6087   */\n      iszero\n      tag_337\n      jumpi\n        /* \"#utility.yul\":6006:6085   */\n      tag_338\n      tag_234\n      jump\t// in\n    tag_338:\n        /* \"#utility.yul\":5968:6087   */\n    tag_337:\n        /* \"#utility.yul\":6126:6127   */\n      0x00\n        /* \"#utility.yul\":6151:6204   */\n      tag_339\n        /* \"#utility.yul\":6196:6203   */\n      dup6\n        /* \"#utility.yul\":6187:6193   */\n      dup3\n        /* \"#utility.yul\":6176:6185   */\n      dup7\n        /* \"#utility.yul\":6172:6194   */\n      add\n        /* \"#utility.yul\":6151:6204   */\n      tag_239\n      jump\t// in\n    tag_339:\n        /* \"#utility.yul\":6141:6204   */\n      swap3\n      pop\n        /* \"#utility.yul\":6097:6214   */\n      pop\n        /* \"#utility.yul\":6253:6255   */\n      0x20\n        /* \"#utility.yul\":6279:6332   */\n      tag_340\n        /* \"#utility.yul\":6324:6331   */\n      dup6\n        /* \"#utility.yul\":6315:6321   */\n      dup3\n        /* \"#utility.yul\":6304:6313   */\n      dup7\n        /* \"#utility.yul\":6300:6322   */\n      add\n        /* \"#utility.yul\":6279:6332   */\n      tag_239\n      jump\t// in\n    tag_340:\n        /* \"#utility.yul\":6269:6332   */\n      swap2\n      pop\n        /* \"#utility.yul\":6224:6342   */\n      pop\n        /* \"#utility.yul\":5875:6349   */\n      swap3\n      pop\n      swap3\n      swap1\n      pop\n      jump\t// out\n        /* \"#utility.yul\":6355:6535   */\n    tag_249:\n        /* \"#utility.yul\":6403:6480   */\n      0x4e487b7100000000000000000000000000000000000000000000000000000000\n        /* \"#utility.yul\":6400:6401   */\n      0x00\n        /* \"#utility.yul\":6393:6481   */\n      mstore\n        /* \"#utility.yul\":6500:6504   */\n      0x22\n        /* \"#utility.yul\":6497:6498   */\n      0x04\n        /* \"#utility.yul\":6490:6505   */\n      mstore\n        /* \"#utility.yul\":6524:6528   */\n      0x24\n        /* \"#utility.yul\":6521:6522   */\n      0x00\n        /* \"#utility.yul\":6514:6529   */\n      revert\n        /* \"#utility.yul\":6541:6861   */\n    tag_102:\n        /* \"#utility.yul\":6585:6591   */\n      0x00\n        /* \"#utility.yul\":6622:6623   */\n      0x02\n        /* \"#utility.yul\":6616:6620   */\n      dup3\n        /* \"#utility.yul\":6612:6624   */\n      div\n        /* \"#utility.yul\":6602:6624   */\n      swap1\n      pop\n        /* \"#utility.yul\":6669:6670   */\n      0x01\n        /* \"#utility.yul\":6663:6667   */\n      dup3\n        /* \"#utility.yul\":6659:6671   */\n      and\n        /* \"#utility.yul\":6690:6708   */\n      dup1\n        /* \"#utility.yul\":6680:6761   */\n      tag_343\n      jumpi\n        /* \"#utility.yul\":6746:6750   */\n      0x7f\n        /* \"#utility.yul\":6738:6744   */\n      dup3\n        /* \"#utility.yul\":6734:6751   */\n      and\n        /* \"#utility.yul\":6724:6751   */\n      swap2\n      pop\n        /* \"#utility.yul\":6680:6761   */\n    tag_343:\n        /* \"#utility.yul\":6808:6810   */\n      0x20\n        /* \"#utility.yul\":6800:6806   */\n      dup3\n        /* \"#utility.yul\":6797:6811   */\n      lt\n        /* \"#utility.yul\":6777:6795   */\n      dup2\n        /* \"#utility.yul\":6774:6812   */\n      sub\n        /* \"#utility.yul\":6771:6855   */\n      tag_344\n      jumpi\n        /* \"#utility.yul\":6827:6845   */\n      tag_345\n      tag_249\n      jump\t// in\n    tag_345:\n        /* \"#utility.yul\":6771:6855   */\n    tag_344:\n        /* \"#utility.yul\":6592:6861   */\n      pop\n        /* \"#utility.yul\":6541:6861   */\n      swap2\n      swap1\n      pop\n      jump\t// out\n        /* \"#utility.yul\":6867:7036   */\n    tag_250:\n        /* \"#utility.yul\":7007:7028   */\n      0x596f752061726520626c61636b6c697374656400000000000000000000000000\n        /* \"#utility.yul\":7003:7004   */\n      0x00\n        /* \"#utility.yul\":6995:7001   */\n      dup3\n        /* \"#utility.yul\":6991:7005   */\n      add\n        /* \"#utility.yul\":6984:7029   */\n      mstore\n        /* \"#utility.yul\":6867:7036   */\n      pop\n      jump\t// out\n        /* \"#utility.yul\":7042:7408   */\n    tag_251:\n        /* \"#utility.yul\":7184:7187   */\n      0x00\n        /* \"#utility.yul\":7205:7272   */\n      tag_348\n        /* \"#utility.yul\":7269:7271   */\n      0x13\n        /* \"#utility.yul\":7264:7267   */\n      dup4\n        /* \"#utility.yul\":7205:7272   */\n      tag_229\n      jump\t// in\n    tag_348:\n        /* \"#utility.yul\":7198:7272   */\n      swap2\n      pop\n        /* \"#utility.yul\":7281:7374   */\n      tag_349\n        /* \"#utility.yul\":7370:7373   */\n      dup3\n        /* \"#utility.yul\":7281:7374   */\n      tag_250\n      jump\t// in\n    tag_349:\n        /* \"#utility.yul\":7399:7401   */\n      0x20\n        /* \"#utility.yul\":7394:7397   */\n      dup3\n        /* \"#utility.yul\":7390:7402   */\n      add\n        /* \"#utility.yul\":7383:7402   */\n      swap1\n      pop\n        /* \"#utility.yul\":7042:7408   */\n      swap2\n      swap1\n      pop\n      jump\t// out\n        /* \"#utility.yul\":7414:7833   */\n    tag_117:\n        /* \"#utility.yul\":7580:7584   */\n      0x00\n        /* \"#utility.yul\":7618:7620   */\n      0x20\n        /* \"#utility.yul\":7607:7616   */\n      dup3\n        /* \"#utility.yul\":7603:7621   */\n      add\n        /* \"#utility.yul\":7595:7621   */\n      swap1\n      pop\n        /* \"#utility.yul\":7667:7676   */\n      dup2\n        /* \"#utility.yul\":7661:7665   */\n      dup2\n        /* \"#utility.yul\":7657:7677   */\n      sub\n        /* \"#utility.yul\":7653:7654   */\n      0x00\n        /* \"#utility.yul\":7642:7651   */\n      dup4\n        /* \"#utility.yul\":7638:7655   */\n      add\n        /* \"#utility.yul\":7631:7678   */\n      mstore\n        /* \"#utility.yul\":7695:7826   */\n      tag_351\n        /* \"#utility.yul\":7821:7825   */\n      dup2\n        /* \"#utility.yul\":7695:7826   */\n      tag_251\n      jump\t// in\n    tag_351:\n        /* \"#utility.yul\":7687:7826   */\n      swap1\n      pop\n        /* \"#utility.yul\":7414:7833   */\n      swap2\n      swap1\n      pop\n      jump\t// out\n        /* \"#utility.yul\":7839:8077   */\n    tag_252:\n        /* \"#utility.yul\":7979:8013   */\n      0x596f752061726520626c61636b6c697374656420616e642063616e6e6f742070\n        /* \"#utility.yul\":7975:7976   */\n      0x00\n        /* \"#utility.yul\":7967:7973   */\n      dup3\n        /* \"#utility.yul\":7963:7977   */\n      add\n        /* \"#utility.yul\":7956:8014   */\n      mstore\n        /* \"#utility.yul\":8048:8069   */\n      0x6572666f726d207468697320616374696f6e2e00000000000000000000000000\n        /* \"#utility.yul\":8043:8045   */\n      0x20\n        /* \"#utility.yul\":8035:8041   */\n      dup3\n        /* \"#utility.yul\":8031:8046   */\n      add\n        /* \"#utility.yul\":8024:8070   */\n      mstore\n        /* \"#utility.yul\":7839:8077   */\n      pop\n      jump\t// out\n        /* \"#utility.yul\":8083:8449   */\n    tag_253:\n        /* \"#utility.yul\":8225:8228   */\n      0x00\n        /* \"#utility.yul\":8246:8313   */\n      tag_354\n        /* \"#utility.yul\":8310:8312   */\n      0x33\n        /* \"#utility.yul\":8305:8308   */\n      dup4\n        /* \"#utility.yul\":8246:8313   */\n      tag_229\n      jump\t// in\n    tag_354:\n        /* \"#utility.yul\":8239:8313   */\n      swap2\n      pop\n        /* \"#utility.yul\":8322:8415   */\n      tag_355\n        /* \"#utility.yul\":8411:8414   */\n      dup3\n        /* \"#utility.yul\":8322:8415   */\n      tag_252\n      jump\t// in\n    tag_355:\n        /* \"#utility.yul\":8440:8442   */\n      0x40\n        /* \"#utility.yul\":8435:8438   */\n      dup3\n        /* \"#utility.yul\":8431:8443   */\n      add\n        /* \"#utility.yul\":8424:8443   */\n      swap1\n      pop\n        /* \"#utility.yul\":8083:8449   */\n      swap2\n      swap1\n      pop\n      jump\t// out\n        /* \"#utility.yul\":8455:8874   */\n    tag_127:\n        /* \"#utility.yul\":8621:8625   */\n      0x00\n        /* \"#utility.yul\":8659:8661   */\n      0x20\n        /* \"#utility.yul\":8648:8657   */\n      dup3\n        /* \"#utility.yul\":8644:8662   */\n      add\n        /* \"#utility.yul\":8636:8662   */\n      swap1\n      pop\n        /* \"#utility.yul\":8708:8717   */\n      dup2\n        /* \"#utility.yul\":8702:8706   */\n      dup2\n        /* \"#utility.yul\":8698:8718   */\n      sub\n        /* \"#utility.yul\":8694:8695   */\n      0x00\n        /* \"#utility.yul\":8683:8692   */\n      dup4\n        /* \"#utility.yul\":8679:8696   */\n      add\n        /* \"#utility.yul\":8672:8719   */\n      mstore\n        /* \"#utility.yul\":8736:8867   */\n      tag_357\n        /* \"#utility.yul\":8862:8866   */\n      dup2\n        /* \"#utility.yul\":8736:8867   */\n      tag_253\n      jump\t// in\n    tag_357:\n        /* \"#utility.yul\":8728:8867   */\n      swap1\n      pop\n        /* \"#utility.yul\":8455:8874   */\n      swap2\n      swap1\n      pop\n      jump\t// out\n        /* \"#utility.yul\":8880:9060   */\n    tag_254:\n        /* \"#utility.yul\":8928:9005   */\n      0x4e487b7100000000000000000000000000000000000000000000000000000000\n        /* \"#utility.yul\":8925:8926   */\n      0x00\n        /* \"#utility.yul\":8918:9006   */\n      mstore\n        /* \"#utility.yul\":9025:9029   */\n      0x11\n        /* \"#utility.yul\":9022:9023   */\n      0x04\n        /* \"#utility.yul\":9015:9030   */\n      mstore\n        /* \"#utility.yul\":9049:9053   */\n      0x24\n        /* \"#utility.yul\":9046:9047   */\n      0x00\n        /* \"#utility.yul\":9039:9054   */\n      revert\n        /* \"#utility.yul\":9066:9476   */\n    tag_130:\n        /* \"#utility.yul\":9106:9113   */\n      0x00\n        /* \"#utility.yul\":9129:9149   */\n      tag_360\n        /* \"#utility.yul\":9147:9148   */\n      dup3\n        /* \"#utility.yul\":9129:9149   */\n      tag_240\n      jump\t// in\n    tag_360:\n        /* \"#utility.yul\":9124:9149   */\n      swap2\n      pop\n        /* \"#utility.yul\":9163:9183   */\n      tag_361\n        /* \"#utility.yul\":9181:9182   */\n      dup4\n        /* \"#utility.yul\":9163:9183   */\n      tag_240\n      jump\t// in\n    tag_361:\n        /* \"#utility.yul\":9158:9183   */\n      swap3\n      pop\n        /* \"#utility.yul\":9218:9219   */\n      dup3\n        /* \"#utility.yul\":9215:9216   */\n      dup3\n        /* \"#utility.yul\":9211:9220   */\n      mul\n        /* \"#utility.yul\":9240:9270   */\n      tag_362\n        /* \"#utility.yul\":9258:9269   */\n      dup2\n        /* \"#utility.yul\":9240:9270   */\n      tag_240\n      jump\t// in\n    tag_362:\n        /* \"#utility.yul\":9229:9270   */\n      swap2\n      pop\n        /* \"#utility.yul\":9419:9420   */\n      dup3\n        /* \"#utility.yul\":9410:9417   */\n      dup3\n        /* \"#utility.yul\":9406:9421   */\n      div\n        /* \"#utility.yul\":9403:9404   */\n      dup5\n        /* \"#utility.yul\":9400:9422   */\n      eq\n        /* \"#utility.yul\":9380:9381   */\n      dup4\n        /* \"#utility.yul\":9373:9382   */\n      iszero\n        /* \"#utility.yul\":9353:9436   */\n      or\n        /* \"#utility.yul\":9330:9469   */\n      tag_363\n      jumpi\n        /* \"#utility.yul\":9449:9467   */\n      tag_364\n      tag_254\n      jump\t// in\n    tag_364:\n        /* \"#utility.yul\":9330:9469   */\n    tag_363:\n        /* \"#utility.yul\":9114:9476   */\n      pop\n        /* \"#utility.yul\":9066:9476   */\n      swap3\n      swap2\n      pop\n      pop\n      jump\t// out\n        /* \"#utility.yul\":9482:9711   */\n    tag_255:\n        /* \"#utility.yul\":9622:9656   */\n      0x596f752061726520626c61636b6c697374656420616e642063616e6e6f742062\n        /* \"#utility.yul\":9618:9619   */\n      0x00\n        /* \"#utility.yul\":9610:9616   */\n      dup3\n        /* \"#utility.yul\":9606:9620   */\n      add\n        /* \"#utility.yul\":9599:9657   */\n      mstore\n        /* \"#utility.yul\":9691:9703   */\n      0x757920746f6b656e732e00000000000000000000000000000000000000000000\n        /* \"#utility.yul\":9686:9688   */\n      0x20\n        /* \"#utility.yul\":9678:9684   */\n      dup3\n        /* \"#utility.yul\":9674:9689   */\n      add\n        /* \"#utility.yul\":9667:9704   */\n      mstore\n        /* \"#utility.yul\":9482:9711   */\n      pop\n      jump\t// out\n        /* \"#utility.yul\":9717:10083   */\n    tag_256:\n        /* \"#utility.yul\":9859:9862   */\n      0x00\n        /* \"#utility.yul\":9880:9947   */\n      tag_367\n        /* \"#utility.yul\":9944:9946   */\n      0x2a\n        /* \"#utility.yul\":9939:9942   */\n      dup4\n        /* \"#utility.yul\":9880:9947   */\n      tag_229\n      jump\t// in\n    tag_367:\n        /* \"#utility.yul\":9873:9947   */\n      swap2\n      pop\n        /* \"#utility.yul\":9956:10049   */\n      tag_368\n        /* \"#utility.yul\":10045:10048   */\n      dup3\n        /* \"#utility.yul\":9956:10049   */\n      tag_255\n      jump\t// in\n    tag_368:\n        /* \"#utility.yul\":10074:10076   */\n      0x40\n        /* \"#utility.yul\":10069:10072   */\n      dup3\n        /* \"#utility.yul\":10065:10077   */\n      add\n        /* \"#utility.yul\":10058:10077   */\n      swap1\n      pop\n        /* \"#utility.yul\":9717:10083   */\n      swap2\n      swap1\n      pop\n      jump\t// out\n        /* \"#utility.yul\":10089:10508   */\n    tag_133:\n        /* \"#utility.yul\":10255:10259   */\n      0x00\n        /* \"#utility.yul\":10293:10295   */\n      0x20\n        /* \"#utility.yul\":10282:10291   */\n      dup3\n        /* \"#utility.yul\":10278:10296   */\n      add\n        /* \"#utility.yul\":10270:10296   */\n      swap1\n      pop\n        /* \"#utility.yul\":10342:10351   */\n      dup2\n        /* \"#utility.yul\":10336:10340   */\n      dup2\n        /* \"#utility.yul\":10332:10352   */\n      sub\n        /* \"#utility.yul\":10328:10329   */\n      0x00\n        /* \"#utility.yul\":10317:10326   */\n      dup4\n        /* \"#utility.yul\":10313:10330   */\n      add\n        /* \"#utility.yul\":10306:10353   */\n      mstore\n        /* \"#utility.yul\":10370:10501   */\n      tag_370\n        /* \"#utility.yul\":10496:10500   */\n      dup2\n        /* \"#utility.yul\":10370:10501   */\n      tag_256\n      jump\t// in\n    tag_370:\n        /* \"#utility.yul\":10362:10501   */\n      swap1\n      pop\n        /* \"#utility.yul\":10089:10508   */\n      swap2\n      swap1\n      pop\n      jump\t// out\n        /* \"#utility.yul\":10514:10693   */\n    tag_257:\n        /* \"#utility.yul\":10654:10685   */\n      0x416d6f756e74206d7573742062652067726561746572207468616e2030000000\n        /* \"#utility.yul\":10650:10651   */\n      0x00\n        /* \"#utility.yul\":10642:10648   */\n      dup3\n        /* \"#utility.yul\":10638:10652   */\n      add\n        /* \"#utility.yul\":10631:10686   */\n      mstore\n        /* \"#utility.yul\":10514:10693   */\n      pop\n      jump\t// out\n        /* \"#utility.yul\":10699:11065   */\n    tag_258:\n        /* \"#utility.yul\":10841:10844   */\n      0x00\n        /* \"#utility.yul\":10862:10929   */\n      tag_373\n        /* \"#utility.yul\":10926:10928   */\n      0x1d\n        /* \"#utility.yul\":10921:10924   */\n      dup4\n        /* \"#utility.yul\":10862:10929   */\n      tag_229\n      jump\t// in\n    tag_373:\n        /* \"#utility.yul\":10855:10929   */\n      swap2\n      pop\n        /* \"#utility.yul\":10938:11031   */\n      tag_374\n        /* \"#utility.yul\":11027:11030   */\n      dup3\n        /* \"#utility.yul\":10938:11031   */\n      tag_257\n      jump\t// in\n    tag_374:\n        /* \"#utility.yul\":11056:11058   */\n      0x20\n        /* \"#utility.yul\":11051:11054   */\n      dup3\n        /* \"#utility.yul\":11047:11059   */\n      add\n        /* \"#utility.yul\":11040:11059   */\n      swap1\n      pop\n        /* \"#utility.yul\":10699:11065   */\n      swap2\n      swap1\n      pop\n      jump\t// out\n        /* \"#utility.yul\":11071:11490   */\n    tag_136:\n        /* \"#utility.yul\":11237:11241   */\n      0x00\n        /* \"#utility.yul\":11275:11277   */\n      0x20\n        /* \"#utility.yul\":11264:11273   */\n      dup3\n        /* \"#utility.yul\":11260:11278   */\n      add\n        /* \"#utility.yul\":11252:11278   */\n      swap1\n      pop\n        /* \"#utility.yul\":11324:11333   */\n      dup2\n        /* \"#utility.yul\":11318:11322   */\n      dup2\n        /* \"#utility.yul\":11314:11334   */\n      sub\n        /* \"#utility.yul\":11310:11311   */\n      0x00\n        /* \"#utility.yul\":11299:11308   */\n      dup4\n        /* \"#utility.yul\":11295:11312   */\n      add\n        /* \"#utility.yul\":11288:11335   */\n      mstore\n        /* \"#utility.yul\":11352:11483   */\n      tag_376\n        /* \"#utility.yul\":11478:11482   */\n      dup2\n        /* \"#utility.yul\":11352:11483   */\n      tag_258\n      jump\t// in\n    tag_376:\n        /* \"#utility.yul\":11344:11483   */\n      swap1\n      pop\n        /* \"#utility.yul\":11071:11490   */\n      swap2\n      swap1\n      pop\n      jump\t// out\n        /* \"#utility.yul\":11496:11674   */\n    tag_259:\n        /* \"#utility.yul\":11636:11666   */\n      0x496e73756666696369656e74204c4553532045746865722073656e7400000000\n        /* \"#utility.yul\":11632:11633   */\n      0x00\n        /* \"#utility.yul\":11624:11630   */\n      dup3\n        /* \"#utility.yul\":11620:11634   */\n      add\n        /* \"#utility.yul\":11613:11667   */\n      mstore\n        /* \"#utility.yul\":11496:11674   */\n      pop\n      jump\t// out\n        /* \"#utility.yul\":11680:12046   */\n    tag_260:\n        /* \"#utility.yul\":11822:11825   */\n      0x00\n        /* \"#utility.yul\":11843:11910   */\n      tag_379\n        /* \"#utility.yul\":11907:11909   */\n      0x1c\n        /* \"#utility.yul\":11902:11905   */\n      dup4\n        /* \"#utility.yul\":11843:11910   */\n      tag_229\n      jump\t// in\n    tag_379:\n        /* \"#utility.yul\":11836:11910   */\n      swap2\n      pop\n        /* \"#utility.yul\":11919:12012   */\n      tag_380\n        /* \"#utility.yul\":12008:12011   */\n      dup3\n        /* \"#utility.yul\":11919:12012   */\n      tag_259\n      jump\t// in\n    tag_380:\n        /* \"#utility.yul\":12037:12039   */\n      0x20\n        /* \"#utility.yul\":12032:12035   */\n      dup3\n        /* \"#utility.yul\":12028:12040   */\n      add\n        /* \"#utility.yul\":12021:12040   */\n      swap1\n      pop\n        /* \"#utility.yul\":11680:12046   */\n      swap2\n      swap1\n      pop\n      jump\t// out\n        /* \"#utility.yul\":12052:12471   */\n    tag_139:\n        /* \"#utility.yul\":12218:12222   */\n      0x00\n        /* \"#utility.yul\":12256:12258   */\n      0x20\n        /* \"#utility.yul\":12245:12254   */\n      dup3\n        /* \"#utility.yul\":12241:12259   */\n      add\n        /* \"#utility.yul\":12233:12259   */\n      swap1\n      pop\n        /* \"#utility.yul\":12305:12314   */\n      dup2\n        /* \"#utility.yul\":12299:12303   */\n      dup2\n        /* \"#utility.yul\":12295:12315   */\n      sub\n        /* \"#utility.yul\":12291:12292   */\n      0x00\n        /* \"#utility.yul\":12280:12289   */\n      dup4\n        /* \"#utility.yul\":12276:12293   */\n      add\n        /* \"#utility.yul\":12269:12316   */\n      mstore\n        /* \"#utility.yul\":12333:12464   */\n      tag_382\n        /* \"#utility.yul\":12459:12463   */\n      dup2\n        /* \"#utility.yul\":12333:12464   */\n      tag_260\n      jump\t// in\n    tag_382:\n        /* \"#utility.yul\":12325:12464   */\n      swap1\n      pop\n        /* \"#utility.yul\":12052:12471   */\n      swap2\n      swap1\n      pop\n      jump\t// out\n        /* \"#utility.yul\":12477:12650   */\n    tag_261:\n        /* \"#utility.yul\":12617:12642   */\n      0x55736572206973206e6f7420626c61636b6c6973746564000000000000000000\n        /* \"#utility.yul\":12613:12614   */\n      0x00\n        /* \"#utility.yul\":12605:12611   */\n      dup3\n        /* \"#utility.yul\":12601:12615   */\n      add\n        /* \"#utility.yul\":12594:12643   */\n      mstore\n        /* \"#utility.yul\":12477:12650   */\n      pop\n      jump\t// out\n        /* \"#utility.yul\":12656:13022   */\n    tag_262:\n        /* \"#utility.yul\":12798:12801   */\n      0x00\n        /* \"#utility.yul\":12819:12886   */\n      tag_385\n        /* \"#utility.yul\":12883:12885   */\n      0x17\n        /* \"#utility.yul\":12878:12881   */\n      dup4\n        /* \"#utility.yul\":12819:12886   */\n      tag_229\n      jump\t// in\n    tag_385:\n        /* \"#utility.yul\":12812:12886   */\n      swap2\n      pop\n        /* \"#utility.yul\":12895:12988   */\n      tag_386\n        /* \"#utility.yul\":12984:12987   */\n      dup3\n        /* \"#utility.yul\":12895:12988   */\n      tag_261\n      jump\t// in\n    tag_386:\n        /* \"#utility.yul\":13013:13015   */\n      0x20\n        /* \"#utility.yul\":13008:13011   */\n      dup3\n        /* \"#utility.yul\":13004:13016   */\n      add\n        /* \"#utility.yul\":12997:13016   */\n      swap1\n      pop\n        /* \"#utility.yul\":12656:13022   */\n      swap2\n      swap1\n      pop\n      jump\t// out\n        /* \"#utility.yul\":13028:13447   */\n    tag_151:\n        /* \"#utility.yul\":13194:13198   */\n      0x00\n        /* \"#utility.yul\":13232:13234   */\n      0x20\n        /* \"#utility.yul\":13221:13230   */\n      dup3\n        /* \"#utility.yul\":13217:13235   */\n      add\n        /* \"#utility.yul\":13209:13235   */\n      swap1\n      pop\n        /* \"#utility.yul\":13281:13290   */\n      dup2\n        /* \"#utility.yul\":13275:13279   */\n      dup2\n        /* \"#utility.yul\":13271:13291   */\n      sub\n        /* \"#utility.yul\":13267:13268   */\n      0x00\n        /* \"#utility.yul\":13256:13265   */\n      dup4\n        /* \"#utility.yul\":13252:13269   */\n      add\n        /* \"#utility.yul\":13245:13292   */\n      mstore\n        /* \"#utility.yul\":13309:13440   */\n      tag_388\n        /* \"#utility.yul\":13435:13439   */\n      dup2\n        /* \"#utility.yul\":13309:13440   */\n      tag_262\n      jump\t// in\n    tag_388:\n        /* \"#utility.yul\":13301:13440   */\n      swap1\n      pop\n        /* \"#utility.yul\":13028:13447   */\n      swap2\n      swap1\n      pop\n      jump\t// out\n        /* \"#utility.yul\":13453:13689   */\n    tag_263:\n        /* \"#utility.yul\":13593:13627   */\n      0x596f75722063616e6e6f7420706572666f726d207472616e73616374696f6e20\n        /* \"#utility.yul\":13589:13590   */\n      0x00\n        /* \"#utility.yul\":13581:13587   */\n      dup3\n        /* \"#utility.yul\":13577:13591   */\n      add\n        /* \"#utility.yul\":13570:13628   */\n      mstore\n        /* \"#utility.yul\":13662:13681   */\n      0x796f75207220626c61636b6c6973746564000000000000000000000000000000\n        /* \"#utility.yul\":13657:13659   */\n      0x20\n        /* \"#utility.yul\":13649:13655   */\n      dup3\n        /* \"#utility.yul\":13645:13660   */\n      add\n        /* \"#utility.yul\":13638:13682   */\n      mstore\n        /* \"#utility.yul\":13453:13689   */\n      pop\n      jump\t// out\n        /* \"#utility.yul\":13695:14061   */\n    tag_264:\n        /* \"#utility.yul\":13837:13840   */\n      0x00\n        /* \"#utility.yul\":13858:13925   */\n      tag_391\n        /* \"#utility.yul\":13922:13924   */\n      0x31\n        /* \"#utility.yul\":13917:13920   */\n      dup4\n        /* \"#utility.yul\":13858:13925   */\n      tag_229\n      jump\t// in\n    tag_391:\n        /* \"#utility.yul\":13851:13925   */\n      swap2\n      pop\n        /* \"#utility.yul\":13934:14027   */\n      tag_392\n        /* \"#utility.yul\":14023:14026   */\n      dup3\n        /* \"#utility.yul\":13934:14027   */\n      tag_263\n      jump\t// in\n    tag_392:\n        /* \"#utility.yul\":14052:14054   */\n      0x40\n        /* \"#utility.yul\":14047:14050   */\n      dup3\n        /* \"#utility.yul\":14043:14055   */\n      add\n        /* \"#utility.yul\":14036:14055   */\n      swap1\n      pop\n        /* \"#utility.yul\":13695:14061   */\n      swap2\n      swap1\n      pop\n      jump\t// out\n        /* \"#utility.yul\":14067:14486   */\n    tag_171:\n        /* \"#utility.yul\":14233:14237   */\n      0x00\n        /* \"#utility.yul\":14271:14273   */\n      0x20\n        /* \"#utility.yul\":14260:14269   */\n      dup3\n        /* \"#utility.yul\":14256:14274   */\n      add\n        /* \"#utility.yul\":14248:14274   */\n      swap1\n      pop\n        /* \"#utility.yul\":14320:14329   */\n      dup2\n        /* \"#utility.yul\":14314:14318   */\n      dup2\n        /* \"#utility.yul\":14310:14330   */\n      sub\n        /* \"#utility.yul\":14306:14307   */\n      0x00\n        /* \"#utility.yul\":14295:14304   */\n      dup4\n        /* \"#utility.yul\":14291:14308   */\n      add\n        /* \"#utility.yul\":14284:14331   */\n      mstore\n        /* \"#utility.yul\":14348:14479   */\n      tag_394\n        /* \"#utility.yul\":14474:14478   */\n      dup2\n        /* \"#utility.yul\":14348:14479   */\n      tag_264\n      jump\t// in\n    tag_394:\n        /* \"#utility.yul\":14340:14479   */\n      swap1\n      pop\n        /* \"#utility.yul\":14067:14486   */\n      swap2\n      swap1\n      pop\n      jump\t// out\n        /* \"#utility.yul\":14492:14669   */\n    tag_265:\n        /* \"#utility.yul\":14632:14661   */\n      0x5573657220697320616c726561647920626c61636b6c69737465640000000000\n        /* \"#utility.yul\":14628:14629   */\n      0x00\n        /* \"#utility.yul\":14620:14626   */\n      dup3\n        /* \"#utility.yul\":14616:14630   */\n      add\n        /* \"#utility.yul\":14609:14662   */\n      mstore\n        /* \"#utility.yul\":14492:14669   */\n      pop\n      jump\t// out\n        /* \"#utility.yul\":14675:15041   */\n    tag_266:\n        /* \"#utility.yul\":14817:14820   */\n      0x00\n        /* \"#utility.yul\":14838:14905   */\n      tag_397\n        /* \"#utility.yul\":14902:14904   */\n      0x1b\n        /* \"#utility.yul\":14897:14900   */\n      dup4\n        /* \"#utility.yul\":14838:14905   */\n      tag_229\n      jump\t// in\n    tag_397:\n        /* \"#utility.yul\":14831:14905   */\n      swap2\n      pop\n        /* \"#utility.yul\":14914:15007   */\n      tag_398\n        /* \"#utility.yul\":15003:15006   */\n      dup3\n        /* \"#utility.yul\":14914:15007   */\n      tag_265\n      jump\t// in\n    tag_398:\n        /* \"#utility.yul\":15032:15034   */\n      0x20\n        /* \"#utility.yul\":15027:15030   */\n      dup3\n        /* \"#utility.yul\":15023:15035   */\n      add\n        /* \"#utility.yul\":15016:15035   */\n      swap1\n      pop\n        /* \"#utility.yul\":14675:15041   */\n      swap2\n      swap1\n      pop\n      jump\t// out\n        /* \"#utility.yul\":15047:15466   */\n    tag_185:\n        /* \"#utility.yul\":15213:15217   */\n      0x00\n        /* \"#utility.yul\":15251:15253   */\n      0x20\n        /* \"#utility.yul\":15240:15249   */\n      dup3\n        /* \"#utility.yul\":15236:15254   */\n      add\n        /* \"#utility.yul\":15228:15254   */\n      swap1\n      pop\n        /* \"#utility.yul\":15300:15309   */\n      dup2\n        /* \"#utility.yul\":15294:15298   */\n      dup2\n        /* \"#utility.yul\":15290:15310   */\n      sub\n        /* \"#utility.yul\":15286:15287   */\n      0x00\n        /* \"#utility.yul\":15275:15284   */\n      dup4\n        /* \"#utility.yul\":15271:15288   */\n      add\n        /* \"#utility.yul\":15264:15311   */\n      mstore\n        /* \"#utility.yul\":15328:15459   */\n      tag_400\n        /* \"#utility.yul\":15454:15458   */\n      dup2\n        /* \"#utility.yul\":15328:15459   */\n      tag_266\n      jump\t// in\n    tag_400:\n        /* \"#utility.yul\":15320:15459   */\n      swap1\n      pop\n        /* \"#utility.yul\":15047:15466   */\n      swap2\n      swap1\n      pop\n      jump\t// out\n        /* \"#utility.yul\":15472:15914   */\n    tag_195:\n        /* \"#utility.yul\":15621:15625   */\n      0x00\n        /* \"#utility.yul\":15659:15661   */\n      0x60\n        /* \"#utility.yul\":15648:15657   */\n      dup3\n        /* \"#utility.yul\":15644:15662   */\n      add\n        /* \"#utility.yul\":15636:15662   */\n      swap1\n      pop\n        /* \"#utility.yul\":15672:15743   */\n      tag_402\n        /* \"#utility.yul\":15740:15741   */\n      0x00\n        /* \"#utility.yul\":15729:15738   */\n      dup4\n        /* \"#utility.yul\":15725:15742   */\n      add\n        /* \"#utility.yul\":15716:15722   */\n      dup7\n        /* \"#utility.yul\":15672:15743   */\n      tag_248\n      jump\t// in\n    tag_402:\n        /* \"#utility.yul\":15753:15825   */\n      tag_403\n        /* \"#utility.yul\":15821:15823   */\n      0x20\n        /* \"#utility.yul\":15810:15819   */\n      dup4\n        /* \"#utility.yul\":15806:15824   */\n      add\n        /* \"#utility.yul\":15797:15803   */\n      dup6\n        /* \"#utility.yul\":15753:15825   */\n      tag_245\n      jump\t// in\n    tag_403:\n        /* \"#utility.yul\":15835:15907   */\n      tag_404\n        /* \"#utility.yul\":15903:15905   */\n      0x40\n        /* \"#utility.yul\":15892:15901   */\n      dup4\n        /* \"#utility.yul\":15888:15906   */\n      add\n        /* \"#utility.yul\":15879:15885   */\n      dup5\n        /* \"#utility.yul\":15835:15907   */\n      tag_245\n      jump\t// in\n    tag_404:\n        /* \"#utility.yul\":15472:15914   */\n      swap5\n      swap4\n      pop\n      pop\n      pop\n      pop\n      jump\t// out\n        /* \"#utility.yul\":15920:16111   */\n    tag_221:\n        /* \"#utility.yul\":15960:15963   */\n      0x00\n        /* \"#utility.yul\":15979:15999   */\n      tag_406\n        /* \"#utility.yul\":15997:15998   */\n      dup3\n        /* \"#utility.yul\":15979:15999   */\n      tag_240\n      jump\t// in\n    tag_406:\n        /* \"#utility.yul\":15974:15999   */\n      swap2\n      pop\n        /* \"#utility.yul\":16013:16033   */\n      tag_407\n        /* \"#utility.yul\":16031:16032   */\n      dup4\n        /* \"#utility.yul\":16013:16033   */\n      tag_240\n      jump\t// in\n    tag_407:\n        /* \"#utility.yul\":16008:16033   */\n      swap3\n      pop\n        /* \"#utility.yul\":16056:16057   */\n      dup3\n        /* \"#utility.yul\":16053:16054   */\n      dup3\n        /* \"#utility.yul\":16049:16058   */\n      add\n        /* \"#utility.yul\":16042:16058   */\n      swap1\n      pop\n        /* \"#utility.yul\":16077:16080   */\n      dup1\n        /* \"#utility.yul\":16074:16075   */\n      dup3\n        /* \"#utility.yul\":16071:16081   */\n      gt\n        /* \"#utility.yul\":16068:16104   */\n      iszero\n      tag_408\n      jumpi\n        /* \"#utility.yul\":16084:16102   */\n      tag_409\n      tag_254\n      jump\t// in\n    tag_409:\n        /* \"#utility.yul\":16068:16104   */\n    tag_408:\n        /* \"#utility.yul\":15920:16111   */\n      swap3\n      swap2\n      pop\n      pop\n      jump\t// out\n\n    auxdata: 0xa264697066735822122040f0f4a63c99c8ce545a45ca829e299fa5152f89ffa1c681f41e719f2b0fbd3d64736f6c63430008150033\n}\n",
				"bytecode": {
					"linkReferences": {},
					"object": "608060405234801562000010575f80fd5b50336040518060400160405280600581526020017f546f6b656e0000000000000000000000000000000000000000000000000000008152506040518060400160405280600381526020017f544f4b000000000000000000000000000000000000000000000000000000000081525081600390816200008f91906200074d565b508060049081620000a191906200074d565b5050505f73ffffffffffffffffffffffffffffffffffffffff168173ffffffffffffffffffffffffffffffffffffffff160362000117575f6040517f1e4fbdf70000000000000000000000000000000000000000000000000000000081526004016200010e919062000874565b60405180910390fd5b62000128816200017060201b60201c565b506200016a336200013e6200023360201b60201c565b60ff16600a6200014f919062000a0c565b6103e86200015e919062000a5c565b6200023b60201b60201c565b62000b47565b5f60055f9054906101000a900473ffffffffffffffffffffffffffffffffffffffff1690508160055f6101000a81548173ffffffffffffffffffffffffffffffffffffffff021916908373ffffffffffffffffffffffffffffffffffffffff1602179055508173ffffffffffffffffffffffffffffffffffffffff168173ffffffffffffffffffffffffffffffffffffffff167f8be0079c531659141344cd1fd0a4f28419497f9722a3daafe3b4186f6b6457e060405160405180910390a35050565b5f6012905090565b5f73ffffffffffffffffffffffffffffffffffffffff168273ffffffffffffffffffffffffffffffffffffffff1603620002ae575f6040517fec442f05000000000000000000000000000000000000000000000000000000008152600401620002a5919062000874565b60405180910390fd5b620002c15f8383620002c560201b60201c565b5050565b5f73ffffffffffffffffffffffffffffffffffffffff168373ffffffffffffffffffffffffffffffffffffffff160362000319578060025f8282546200030c919062000aa6565b92505081905550620003ea565b5f805f8573ffffffffffffffffffffffffffffffffffffffff1673ffffffffffffffffffffffffffffffffffffffff1681526020019081526020015f2054905081811015620003a5578381836040517fe450d38c0000000000000000000000000000000000000000000000000000000081526004016200039c9392919062000af1565b60405180910390fd5b8181035f808673ffffffffffffffffffffffffffffffffffffffff1673ffffffffffffffffffffffffffffffffffffffff1681526020019081526020015f2081905550505b5f73ffffffffffffffffffffffffffffffffffffffff168273ffffffffffffffffffffffffffffffffffffffff160362000433578060025f82825403925050819055506200047d565b805f808473ffffffffffffffffffffffffffffffffffffffff1673ffffffffffffffffffffffffffffffffffffffff1681526020019081526020015f205f82825401925050819055505b8173ffffffffffffffffffffffffffffffffffffffff168373ffffffffffffffffffffffffffffffffffffffff167fddf252ad1be2c89b69c2b068fc378daa952ba7f163c4a11628f55a4df523b3ef83604051620004dc919062000b2c565b60405180910390a3505050565b5f81519050919050565b7f4e487b71000000000000000000000000000000000000000000000000000000005f52604160045260245ffd5b7f4e487b71000000000000000000000000000000000000000000000000000000005f52602260045260245ffd5b5f60028204905060018216806200056557607f821691505b6020821081036200057b576200057a62000520565b5b50919050565b5f819050815f5260205f209050919050565b5f6020601f8301049050919050565b5f82821b905092915050565b5f60088302620005df7fffffffffffffffffffffffffffffffffffffffffffffffffffffffffffffffff82620005a2565b620005eb8683620005a2565b95508019841693508086168417925050509392505050565b5f819050919050565b5f819050919050565b5f620006356200062f620006298462000603565b6200060c565b62000603565b9050919050565b5f819050919050565b620006508362000615565b620006686200065f826200063c565b848454620005ae565b825550505050565b5f90565b6200067e62000670565b6200068b81848462000645565b505050565b5b81811015620006b257620006a65f8262000674565b60018101905062000691565b5050565b601f8211156200070157620006cb8162000581565b620006d68462000593565b81016020851015620006e6578190505b620006fe620006f58562000593565b83018262000690565b50505b505050565b5f82821c905092915050565b5f620007235f198460080262000706565b1980831691505092915050565b5f6200073d838362000712565b9150826002028217905092915050565b6200075882620004e9565b67ffffffffffffffff811115620007745762000773620004f3565b5b6200078082546200054d565b6200078d828285620006b6565b5f60209050601f831160018114620007c3575f8415620007ae578287015190505b620007ba858262000730565b86555062000829565b601f198416620007d38662000581565b5f5b82811015620007fc57848901518255600182019150602085019450602081019050620007d5565b868310156200081c578489015162000818601f89168262000712565b8355505b6001600288020188555050505b505050505050565b5f73ffffffffffffffffffffffffffffffffffffffff82169050919050565b5f6200085c8262000831565b9050919050565b6200086e8162000850565b82525050565b5f602082019050620008895f83018462000863565b92915050565b7f4e487b71000000000000000000000000000000000000000000000000000000005f52601160045260245ffd5b5f8160011c9050919050565b5f808291508390505b60018511156200091957808604811115620008f157620008f06200088f565b5b6001851615620009015780820291505b80810290506200091185620008bc565b9450620008d1565b94509492505050565b5f8262000933576001905062000a05565b8162000942575f905062000a05565b81600181146200095b576002811462000966576200099c565b600191505062000a05565b60ff8411156200097b576200097a6200088f565b5b8360020a9150848211156200099557620009946200088f565b5b5062000a05565b5060208310610133831016604e8410600b8410161715620009d65782820a905083811115620009d057620009cf6200088f565b5b62000a05565b620009e58484846001620008c8565b92509050818404811115620009ff57620009fe6200088f565b5b81810290505b9392505050565b5f62000a188262000603565b915062000a258362000603565b925062000a547fffffffffffffffffffffffffffffffffffffffffffffffffffffffffffffffff848462000922565b905092915050565b5f62000a688262000603565b915062000a758362000603565b925082820262000a858162000603565b9150828204841483151762000a9f5762000a9e6200088f565b5b5092915050565b5f62000ab28262000603565b915062000abf8362000603565b925082820190508082111562000ada5762000ad96200088f565b5b92915050565b62000aeb8162000603565b82525050565b5f60608201905062000b065f83018662000863565b62000b15602083018562000ae0565b62000b24604083018462000ae0565b949350505050565b5f60208201905062000b415f83018462000ae0565b92915050565b611c378062000b555f395ff3fe6080604052600436106100f2575f3560e01c8063715018a611610089578063dd62ed3e11610058578063dd62ed3e14610326578063f2fde38b14610362578063fcbca4561461038a578063fe575a87146103b2576100f2565b8063715018a6146102805780638da5cb5b1461029657806395d89b41146102c0578063a9059cbb146102ea576100f2565b8063313ce567116100c5578063313ce567146101c25780633610724e146101ec578063537df3b61461021c57806370a0823114610244576100f2565b806306fdde03146100f6578063095ea7b31461012057806318160ddd1461015c57806323b872dd14610186575b5f80fd5b348015610101575f80fd5b5061010a6103ee565b6040516101179190611492565b60405180910390f35b34801561012b575f80fd5b5061014660048036038101906101419190611543565b61047e565b604051610153919061159b565b60405180910390f35b348015610167575f80fd5b506101706104a0565b60405161017d91906115c3565b60405180910390f35b348015610191575f80fd5b506101ac60048036038101906101a791906115dc565b6104a9565b6040516101b9919061159b565b60405180910390f35b3480156101cd575f80fd5b506101d66105b4565b6040516101e39190611647565b60405180910390f35b61020660048036038101906102019190611660565b6105bc565b6040516102139190611492565b60405180910390f35b348015610227575f80fd5b50610242600480360381019061023d919061168b565b610806565b005b34801561024f575f80fd5b5061026a6004803603810190610265919061168b565b6108ee565b60405161027791906115c3565b60405180910390f35b34801561028b575f80fd5b50610294610933565b005b3480156102a1575f80fd5b506102aa610946565b6040516102b791906116c5565b60405180910390f35b3480156102cb575f80fd5b506102d461096e565b6040516102e19190611492565b60405180910390f35b3480156102f5575f80fd5b50610310600480360381019061030b9190611543565b6109fe565b60405161031d919061159b565b60405180910390f35b348015610331575f80fd5b5061034c600480360381019061034791906116de565b610b2e565b60405161035991906115c3565b60405180910390f35b34801561036d575f80fd5b506103886004803603810190610383919061168b565b610bb0565b005b348015610395575f80fd5b506103b060048036038101906103ab919061168b565b610c34565b005b3480156103bd575f80fd5b506103d860048036038101906103d3919061168b565b610d1e565b6040516103e5919061159b565b60405180910390f35b6060600380546103fd90611749565b80601f016020809104026020016040519081016040528092919081815260200182805461042990611749565b80156104745780601f1061044b57610100808354040283529160200191610474565b820191905f5260205f20905b81548152906001019060200180831161045757829003601f168201915b5050505050905090565b5f80610488610d3b565b9050610495818585610d42565b600191505092915050565b5f600254905090565b5f60065f8573ffffffffffffffffffffffffffffffffffffffff1673ffffffffffffffffffffffffffffffffffffffff1681526020019081526020015f205f9054906101000a900460ff16158015610548575060065f8473ffffffffffffffffffffffffffffffffffffffff1673ffffffffffffffffffffffffffffffffffffffff1681526020019081526020015f205f9054906101000a900460ff16155b610587576040517f08c379a000000000000000000000000000000000000000000000000000000000815260040161057e906117c3565b60405180910390fd5b5f610590610d3b565b905061059d858285610d54565b6105a8858585610de6565b60019150509392505050565b5f6012905090565b606060065f3373ffffffffffffffffffffffffffffffffffffffff1673ffffffffffffffffffffffffffffffffffffffff1681526020019081526020015f205f9054906101000a900460ff1615610648576040517f08c379a000000000000000000000000000000000000000000000000000000000815260040161063f90611851565b60405180910390fd5b5f600a90505f838261065a919061189c565b905060065f3373ffffffffffffffffffffffffffffffffffffffff1673ffffffffffffffffffffffffffffffffffffffff1681526020019081526020015f205f9054906101000a900460ff16156106e6576040517f08c379a00000000000000000000000000000000000000000000000000000000081526004016106dd9061194d565b60405180910390fd5b5f8411610728576040517f08c379a000000000000000000000000000000000000000000000000000000000815260040161071f906119b5565b60405180910390fd5b80341461076a576040517f08c379a000000000000000000000000000000000000000000000000000000000815260040161076190611a1d565b60405180910390fd5b61077c610775610946565b3386610de6565b610784610946565b73ffffffffffffffffffffffffffffffffffffffff166108fc3490811502906040515f60405180830381858888f193505050501580156107c6573d5f803e3d5ffd5b506040518060400160405280601681526020017f427579203120546f6b656e20666f72203130205765690000000000000000000081525092505050919050565b61080e610ed6565b60065f8273ffffffffffffffffffffffffffffffffffffffff1673ffffffffffffffffffffffffffffffffffffffff1681526020019081526020015f205f9054906101000a900460ff16610897576040517f08c379a000000000000000000000000000000000000000000000000000000000815260040161088e90611a85565b60405180910390fd5b5f60065f8373ffffffffffffffffffffffffffffffffffffffff1673ffffffffffffffffffffffffffffffffffffffff1681526020019081526020015f205f6101000a81548160ff02191690831515021790555050565b5f805f8373ffffffffffffffffffffffffffffffffffffffff1673ffffffffffffffffffffffffffffffffffffffff1681526020019081526020015f20549050919050565b61093b610ed6565b6109445f610f5d565b565b5f60055f9054906101000a900473ffffffffffffffffffffffffffffffffffffffff16905090565b60606004805461097d90611749565b80601f01602080910402602001604051908101604052809291908181526020018280546109a990611749565b80156109f45780601f106109cb576101008083540402835291602001916109f4565b820191905f5260205f20905b8154815290600101906020018083116109d757829003601f168201915b5050505050905090565b5f60065f3373ffffffffffffffffffffffffffffffffffffffff1673ffffffffffffffffffffffffffffffffffffffff1681526020019081526020015f205f9054906101000a900460ff1615610a89576040517f08c379a0000000000000000000000000000000000000000000000000000000008152600401610a8090611851565b60405180910390fd5b6001151560065f3373ffffffffffffffffffffffffffffffffffffffff1673ffffffffffffffffffffffffffffffffffffffff1681526020019081526020015f205f9054906101000a900460ff16151503610b19576040517f08c379a0000000000000000000000000000000000000000000000000000000008152600401610b1090611b13565b60405180910390fd5b610b24338484610de6565b6001905092915050565b5f60015f8473ffffffffffffffffffffffffffffffffffffffff1673ffffffffffffffffffffffffffffffffffffffff1681526020019081526020015f205f8373ffffffffffffffffffffffffffffffffffffffff1673ffffffffffffffffffffffffffffffffffffffff1681526020019081526020015f2054905092915050565b610bb8610ed6565b5f73ffffffffffffffffffffffffffffffffffffffff168173ffffffffffffffffffffffffffffffffffffffff1603610c28575f6040517f1e4fbdf7000000000000000000000000000000000000000000000000000000008152600401610c1f91906116c5565b60405180910390fd5b610c3181610f5d565b50565b610c3c610ed6565b60065f8273ffffffffffffffffffffffffffffffffffffffff1673ffffffffffffffffffffffffffffffffffffffff1681526020019081526020015f205f9054906101000a900460ff1615610cc6576040517f08c379a0000000000000000000000000000000000000000000000000000000008152600401610cbd90611b7b565b60405180910390fd5b600160065f8373ffffffffffffffffffffffffffffffffffffffff1673ffffffffffffffffffffffffffffffffffffffff1681526020019081526020015f205f6101000a81548160ff02191690831515021790555050565b6006602052805f5260405f205f915054906101000a900460ff1681565b5f33905090565b610d4f8383836001611020565b505050565b5f610d5f8484610b2e565b90507fffffffffffffffffffffffffffffffffffffffffffffffffffffffffffffffff8114610de05781811015610dd1578281836040517ffb8f41b2000000000000000000000000000000000000000000000000000000008152600401610dc893929190611b99565b60405180910390fd5b610ddf84848484035f611020565b5b50505050565b5f73ffffffffffffffffffffffffffffffffffffffff168373ffffffffffffffffffffffffffffffffffffffff1603610e56575f6040517f96c6fd1e000000000000000000000000000000000000000000000000000000008152600401610e4d91906116c5565b60405180910390fd5b5f73ffffffffffffffffffffffffffffffffffffffff168273ffffffffffffffffffffffffffffffffffffffff1603610ec6575f6040517fec442f05000000000000000000000000000000000000000000000000000000008152600401610ebd91906116c5565b60405180910390fd5b610ed18383836111ef565b505050565b610ede610d3b565b73ffffffffffffffffffffffffffffffffffffffff16610efc610946565b73ffffffffffffffffffffffffffffffffffffffff1614610f5b57610f1f610d3b565b6040517f118cdaa7000000000000000000000000000000000000000000000000000000008152600401610f5291906116c5565b60405180910390fd5b565b5f60055f9054906101000a900473ffffffffffffffffffffffffffffffffffffffff1690508160055f6101000a81548173ffffffffffffffffffffffffffffffffffffffff021916908373ffffffffffffffffffffffffffffffffffffffff1602179055508173ffffffffffffffffffffffffffffffffffffffff168173ffffffffffffffffffffffffffffffffffffffff167f8be0079c531659141344cd1fd0a4f28419497f9722a3daafe3b4186f6b6457e060405160405180910390a35050565b5f73ffffffffffffffffffffffffffffffffffffffff168473ffffffffffffffffffffffffffffffffffffffff1603611090575f6040517fe602df0500000000000000000000000000000000000000000000000000000000815260040161108791906116c5565b60405180910390fd5b5f73ffffffffffffffffffffffffffffffffffffffff168373ffffffffffffffffffffffffffffffffffffffff1603611100575f6040517f94280d620000000000000000000000000000000000000000000000000000000081526004016110f791906116c5565b60405180910390fd5b8160015f8673ffffffffffffffffffffffffffffffffffffffff1673ffffffffffffffffffffffffffffffffffffffff1681526020019081526020015f205f8573ffffffffffffffffffffffffffffffffffffffff1673ffffffffffffffffffffffffffffffffffffffff1681526020019081526020015f208190555080156111e9578273ffffffffffffffffffffffffffffffffffffffff168473ffffffffffffffffffffffffffffffffffffffff167f8c5be1e5ebec7d5bd14f71427d1e84f3dd0314c0f7b2291e5b200ac8c7c3b925846040516111e091906115c3565b60405180910390a35b50505050565b5f73ffffffffffffffffffffffffffffffffffffffff168373ffffffffffffffffffffffffffffffffffffffff160361123f578060025f8282546112339190611bce565b9250508190555061130d565b5f805f8573ffffffffffffffffffffffffffffffffffffffff1673ffffffffffffffffffffffffffffffffffffffff1681526020019081526020015f20549050818110156112c8578381836040517fe450d38c0000000000000000000000000000000000000000000000000000000081526004016112bf93929190611b99565b60405180910390fd5b8181035f808673ffffffffffffffffffffffffffffffffffffffff1673ffffffffffffffffffffffffffffffffffffffff1681526020019081526020015f2081905550505b5f73ffffffffffffffffffffffffffffffffffffffff168273ffffffffffffffffffffffffffffffffffffffff1603611354578060025f828254039250508190555061139e565b805f808473ffffffffffffffffffffffffffffffffffffffff1673ffffffffffffffffffffffffffffffffffffffff1681526020019081526020015f205f82825401925050819055505b8173ffffffffffffffffffffffffffffffffffffffff168373ffffffffffffffffffffffffffffffffffffffff167fddf252ad1be2c89b69c2b068fc378daa952ba7f163c4a11628f55a4df523b3ef836040516113fb91906115c3565b60405180910390a3505050565b5f81519050919050565b5f82825260208201905092915050565b5f5b8381101561143f578082015181840152602081019050611424565b5f8484015250505050565b5f601f19601f8301169050919050565b5f61146482611408565b61146e8185611412565b935061147e818560208601611422565b6114878161144a565b840191505092915050565b5f6020820190508181035f8301526114aa818461145a565b905092915050565b5f80fd5b5f73ffffffffffffffffffffffffffffffffffffffff82169050919050565b5f6114df826114b6565b9050919050565b6114ef816114d5565b81146114f9575f80fd5b50565b5f8135905061150a816114e6565b92915050565b5f819050919050565b61152281611510565b811461152c575f80fd5b50565b5f8135905061153d81611519565b92915050565b5f8060408385031215611559576115586114b2565b5b5f611566858286016114fc565b92505060206115778582860161152f565b9150509250929050565b5f8115159050919050565b61159581611581565b82525050565b5f6020820190506115ae5f83018461158c565b92915050565b6115bd81611510565b82525050565b5f6020820190506115d65f8301846115b4565b92915050565b5f805f606084860312156115f3576115f26114b2565b5b5f611600868287016114fc565b9350506020611611868287016114fc565b92505060406116228682870161152f565b9150509250925092565b5f60ff82169050919050565b6116418161162c565b82525050565b5f60208201905061165a5f830184611638565b92915050565b5f60208284031215611675576116746114b2565b5b5f6116828482850161152f565b91505092915050565b5f602082840312156116a05761169f6114b2565b5b5f6116ad848285016114fc565b91505092915050565b6116bf816114d5565b82525050565b5f6020820190506116d85f8301846116b6565b92915050565b5f80604083850312156116f4576116f36114b2565b5b5f611701858286016114fc565b9250506020611712858286016114fc565b9150509250929050565b7f4e487b71000000000000000000000000000000000000000000000000000000005f52602260045260245ffd5b5f600282049050600182168061176057607f821691505b6020821081036117735761177261171c565b5b50919050565b7f596f752061726520626c61636b6c6973746564000000000000000000000000005f82015250565b5f6117ad601383611412565b91506117b882611779565b602082019050919050565b5f6020820190508181035f8301526117da816117a1565b9050919050565b7f596f752061726520626c61636b6c697374656420616e642063616e6e6f7420705f8201527f6572666f726d207468697320616374696f6e2e00000000000000000000000000602082015250565b5f61183b603383611412565b9150611846826117e1565b604082019050919050565b5f6020820190508181035f8301526118688161182f565b9050919050565b7f4e487b71000000000000000000000000000000000000000000000000000000005f52601160045260245ffd5b5f6118a682611510565b91506118b183611510565b92508282026118bf81611510565b915082820484148315176118d6576118d561186f565b5b5092915050565b7f596f752061726520626c61636b6c697374656420616e642063616e6e6f7420625f8201527f757920746f6b656e732e00000000000000000000000000000000000000000000602082015250565b5f611937602a83611412565b9150611942826118dd565b604082019050919050565b5f6020820190508181035f8301526119648161192b565b9050919050565b7f416d6f756e74206d7573742062652067726561746572207468616e20300000005f82015250565b5f61199f601d83611412565b91506119aa8261196b565b602082019050919050565b5f6020820190508181035f8301526119cc81611993565b9050919050565b7f496e73756666696369656e74204c4553532045746865722073656e74000000005f82015250565b5f611a07601c83611412565b9150611a12826119d3565b602082019050919050565b5f6020820190508181035f830152611a34816119fb565b9050919050565b7f55736572206973206e6f7420626c61636b6c69737465640000000000000000005f82015250565b5f611a6f601783611412565b9150611a7a82611a3b565b602082019050919050565b5f6020820190508181035f830152611a9c81611a63565b9050919050565b7f596f75722063616e6e6f7420706572666f726d207472616e73616374696f6e205f8201527f796f75207220626c61636b6c6973746564000000000000000000000000000000602082015250565b5f611afd603183611412565b9150611b0882611aa3565b604082019050919050565b5f6020820190508181035f830152611b2a81611af1565b9050919050565b7f5573657220697320616c726561647920626c61636b6c697374656400000000005f82015250565b5f611b65601b83611412565b9150611b7082611b31565b602082019050919050565b5f6020820190508181035f830152611b9281611b59565b9050919050565b5f606082019050611bac5f8301866116b6565b611bb960208301856115b4565b611bc660408301846115b4565b949350505050565b5f611bd882611510565b9150611be383611510565b9250828201905080821115611bfb57611bfa61186f565b5b9291505056fea264697066735822122040f0f4a63c99c8ce545a45ca829e299fa5152f89ffa1c681f41e719f2b0fbd3d64736f6c63430008150033",
					"opcodes": "PUSH1 0x80 PUSH1 0x40 MSTORE CALLVALUE DUP1 ISZERO PUSH3 0x10 JUMPI PUSH0 DUP1 REVERT JUMPDEST POP CALLER PUSH1 0x40 MLOAD DUP1 PUSH1 0x40 ADD PUSH1 0x40 MSTORE DUP1 PUSH1 0x5 DUP2 MSTORE PUSH1 0x20 ADD PUSH32 0x546F6B656E000000000000000000000000000000000000000000000000000000 DUP2 MSTORE POP PUSH1 0x40 MLOAD DUP1 PUSH1 0x40 ADD PUSH1 0x40 MSTORE DUP1 PUSH1 0x3 DUP2 MSTORE PUSH1 0x20 ADD PUSH32 0x544F4B0000000000000000000000000000000000000000000000000000000000 DUP2 MSTORE POP DUP2 PUSH1 0x3 SWAP1 DUP2 PUSH3 0x8F SWAP2 SWAP1 PUSH3 0x74D JUMP JUMPDEST POP DUP1 PUSH1 0x4 SWAP1 DUP2 PUSH3 0xA1 SWAP2 SWAP1 PUSH3 0x74D JUMP JUMPDEST POP POP POP PUSH0 PUSH20 0xFFFFFFFFFFFFFFFFFFFFFFFFFFFFFFFFFFFFFFFF AND DUP2 PUSH20 0xFFFFFFFFFFFFFFFFFFFFFFFFFFFFFFFFFFFFFFFF AND SUB PUSH3 0x117 JUMPI PUSH0 PUSH1 0x40 MLOAD PUSH32 0x1E4FBDF700000000000000000000000000000000000000000000000000000000 DUP2 MSTORE PUSH1 0x4 ADD PUSH3 0x10E SWAP2 SWAP1 PUSH3 0x874 JUMP JUMPDEST PUSH1 0x40 MLOAD DUP1 SWAP2 SUB SWAP1 REVERT JUMPDEST PUSH3 0x128 DUP2 PUSH3 0x170 PUSH1 0x20 SHL PUSH1 0x20 SHR JUMP JUMPDEST POP PUSH3 0x16A CALLER PUSH3 0x13E PUSH3 0x233 PUSH1 0x20 SHL PUSH1 0x20 SHR JUMP JUMPDEST PUSH1 0xFF AND PUSH1 0xA PUSH3 0x14F SWAP2 SWAP1 PUSH3 0xA0C JUMP JUMPDEST PUSH2 0x3E8 PUSH3 0x15E SWAP2 SWAP1 PUSH3 0xA5C JUMP JUMPDEST PUSH3 0x23B PUSH1 0x20 SHL PUSH1 0x20 SHR JUMP JUMPDEST PUSH3 0xB47 JUMP JUMPDEST PUSH0 PUSH1 0x5 PUSH0 SWAP1 SLOAD SWAP1 PUSH2 0x100 EXP SWAP1 DIV PUSH20 0xFFFFFFFFFFFFFFFFFFFFFFFFFFFFFFFFFFFFFFFF AND SWAP1 POP DUP2 PUSH1 0x5 PUSH0 PUSH2 0x100 EXP DUP2 SLOAD DUP2 PUSH20 0xFFFFFFFFFFFFFFFFFFFFFFFFFFFFFFFFFFFFFFFF MUL NOT AND SWAP1 DUP4 PUSH20 0xFFFFFFFFFFFFFFFFFFFFFFFFFFFFFFFFFFFFFFFF AND MUL OR SWAP1 SSTORE POP DUP2 PUSH20 0xFFFFFFFFFFFFFFFFFFFFFFFFFFFFFFFFFFFFFFFF AND DUP2 PUSH20 0xFFFFFFFFFFFFFFFFFFFFFFFFFFFFFFFFFFFFFFFF AND PUSH32 0x8BE0079C531659141344CD1FD0A4F28419497F9722A3DAAFE3B4186F6B6457E0 PUSH1 0x40 MLOAD PUSH1 0x40 MLOAD DUP1 SWAP2 SUB SWAP1 LOG3 POP POP JUMP JUMPDEST PUSH0 PUSH1 0x12 SWAP1 POP SWAP1 JUMP JUMPDEST PUSH0 PUSH20 0xFFFFFFFFFFFFFFFFFFFFFFFFFFFFFFFFFFFFFFFF AND DUP3 PUSH20 0xFFFFFFFFFFFFFFFFFFFFFFFFFFFFFFFFFFFFFFFF AND SUB PUSH3 0x2AE JUMPI PUSH0 PUSH1 0x40 MLOAD PUSH32 0xEC442F0500000000000000000000000000000000000000000000000000000000 DUP2 MSTORE PUSH1 0x4 ADD PUSH3 0x2A5 SWAP2 SWAP1 PUSH3 0x874 JUMP JUMPDEST PUSH1 0x40 MLOAD DUP1 SWAP2 SUB SWAP1 REVERT JUMPDEST PUSH3 0x2C1 PUSH0 DUP4 DUP4 PUSH3 0x2C5 PUSH1 0x20 SHL PUSH1 0x20 SHR JUMP JUMPDEST POP POP JUMP JUMPDEST PUSH0 PUSH20 0xFFFFFFFFFFFFFFFFFFFFFFFFFFFFFFFFFFFFFFFF AND DUP4 PUSH20 0xFFFFFFFFFFFFFFFFFFFFFFFFFFFFFFFFFFFFFFFF AND SUB PUSH3 0x319 JUMPI DUP1 PUSH1 0x2 PUSH0 DUP3 DUP3 SLOAD PUSH3 0x30C SWAP2 SWAP1 PUSH3 0xAA6 JUMP JUMPDEST SWAP3 POP POP DUP2 SWAP1 SSTORE POP PUSH3 0x3EA JUMP JUMPDEST PUSH0 DUP1 PUSH0 DUP6 PUSH20 0xFFFFFFFFFFFFFFFFFFFFFFFFFFFFFFFFFFFFFFFF AND PUSH20 0xFFFFFFFFFFFFFFFFFFFFFFFFFFFFFFFFFFFFFFFF AND DUP2 MSTORE PUSH1 0x20 ADD SWAP1 DUP2 MSTORE PUSH1 0x20 ADD PUSH0 KECCAK256 SLOAD SWAP1 POP DUP2 DUP2 LT ISZERO PUSH3 0x3A5 JUMPI DUP4 DUP2 DUP4 PUSH1 0x40 MLOAD PUSH32 0xE450D38C00000000000000000000000000000000000000000000000000000000 DUP2 MSTORE PUSH1 0x4 ADD PUSH3 0x39C SWAP4 SWAP3 SWAP2 SWAP1 PUSH3 0xAF1 JUMP JUMPDEST PUSH1 0x40 MLOAD DUP1 SWAP2 SUB SWAP1 REVERT JUMPDEST DUP2 DUP2 SUB PUSH0 DUP1 DUP7 PUSH20 0xFFFFFFFFFFFFFFFFFFFFFFFFFFFFFFFFFFFFFFFF AND PUSH20 0xFFFFFFFFFFFFFFFFFFFFFFFFFFFFFFFFFFFFFFFF AND DUP2 MSTORE PUSH1 0x20 ADD SWAP1 DUP2 MSTORE PUSH1 0x20 ADD PUSH0 KECCAK256 DUP2 SWAP1 SSTORE POP POP JUMPDEST PUSH0 PUSH20 0xFFFFFFFFFFFFFFFFFFFFFFFFFFFFFFFFFFFFFFFF AND DUP3 PUSH20 0xFFFFFFFFFFFFFFFFFFFFFFFFFFFFFFFFFFFFFFFF AND SUB PUSH3 0x433 JUMPI DUP1 PUSH1 0x2 PUSH0 DUP3 DUP3 SLOAD SUB SWAP3 POP POP DUP2 SWAP1 SSTORE POP PUSH3 0x47D JUMP JUMPDEST DUP1 PUSH0 DUP1 DUP5 PUSH20 0xFFFFFFFFFFFFFFFFFFFFFFFFFFFFFFFFFFFFFFFF AND PUSH20 0xFFFFFFFFFFFFFFFFFFFFFFFFFFFFFFFFFFFFFFFF AND DUP2 MSTORE PUSH1 0x20 ADD SWAP1 DUP2 MSTORE PUSH1 0x20 ADD PUSH0 KECCAK256 PUSH0 DUP3 DUP3 SLOAD ADD SWAP3 POP POP DUP2 SWAP1 SSTORE POP JUMPDEST DUP2 PUSH20 0xFFFFFFFFFFFFFFFFFFFFFFFFFFFFFFFFFFFFFFFF AND DUP4 PUSH20 0xFFFFFFFFFFFFFFFFFFFFFFFFFFFFFFFFFFFFFFFF AND PUSH32 0xDDF252AD1BE2C89B69C2B068FC378DAA952BA7F163C4A11628F55A4DF523B3EF DUP4 PUSH1 0x40 MLOAD PUSH3 0x4DC SWAP2 SWAP1 PUSH3 0xB2C JUMP JUMPDEST PUSH1 0x40 MLOAD DUP1 SWAP2 SUB SWAP1 LOG3 POP POP POP JUMP JUMPDEST PUSH0 DUP2 MLOAD SWAP1 POP SWAP2 SWAP1 POP JUMP JUMPDEST PUSH32 0x4E487B7100000000000000000000000000000000000000000000000000000000 PUSH0 MSTORE PUSH1 0x41 PUSH1 0x4 MSTORE PUSH1 0x24 PUSH0 REVERT JUMPDEST PUSH32 0x4E487B7100000000000000000000000000000000000000000000000000000000 PUSH0 MSTORE PUSH1 0x22 PUSH1 0x4 MSTORE PUSH1 0x24 PUSH0 REVERT JUMPDEST PUSH0 PUSH1 0x2 DUP3 DIV SWAP1 POP PUSH1 0x1 DUP3 AND DUP1 PUSH3 0x565 JUMPI PUSH1 0x7F DUP3 AND SWAP2 POP JUMPDEST PUSH1 0x20 DUP3 LT DUP2 SUB PUSH3 0x57B JUMPI PUSH3 0x57A PUSH3 0x520 JUMP JUMPDEST JUMPDEST POP SWAP2 SWAP1 POP JUMP JUMPDEST PUSH0 DUP2 SWAP1 POP DUP2 PUSH0 MSTORE PUSH1 0x20 PUSH0 KECCAK256 SWAP1 POP SWAP2 SWAP1 POP JUMP JUMPDEST PUSH0 PUSH1 0x20 PUSH1 0x1F DUP4 ADD DIV SWAP1 POP SWAP2 SWAP1 POP JUMP JUMPDEST PUSH0 DUP3 DUP3 SHL SWAP1 POP SWAP3 SWAP2 POP POP JUMP JUMPDEST PUSH0 PUSH1 0x8 DUP4 MUL PUSH3 0x5DF PUSH32 0xFFFFFFFFFFFFFFFFFFFFFFFFFFFFFFFFFFFFFFFFFFFFFFFFFFFFFFFFFFFFFFFF DUP3 PUSH3 0x5A2 JUMP JUMPDEST PUSH3 0x5EB DUP7 DUP4 PUSH3 0x5A2 JUMP JUMPDEST SWAP6 POP DUP1 NOT DUP5 AND SWAP4 POP DUP1 DUP7 AND DUP5 OR SWAP3 POP POP POP SWAP4 SWAP3 POP POP POP JUMP JUMPDEST PUSH0 DUP2 SWAP1 POP SWAP2 SWAP1 POP JUMP JUMPDEST PUSH0 DUP2 SWAP1 POP SWAP2 SWAP1 POP JUMP JUMPDEST PUSH0 PUSH3 0x635 PUSH3 0x62F PUSH3 0x629 DUP5 PUSH3 0x603 JUMP JUMPDEST PUSH3 0x60C JUMP JUMPDEST PUSH3 0x603 JUMP JUMPDEST SWAP1 POP SWAP2 SWAP1 POP JUMP JUMPDEST PUSH0 DUP2 SWAP1 POP SWAP2 SWAP1 POP JUMP JUMPDEST PUSH3 0x650 DUP4 PUSH3 0x615 JUMP JUMPDEST PUSH3 0x668 PUSH3 0x65F DUP3 PUSH3 0x63C JUMP JUMPDEST DUP5 DUP5 SLOAD PUSH3 0x5AE JUMP JUMPDEST DUP3 SSTORE POP POP POP POP JUMP JUMPDEST PUSH0 SWAP1 JUMP JUMPDEST PUSH3 0x67E PUSH3 0x670 JUMP JUMPDEST PUSH3 0x68B DUP2 DUP5 DUP5 PUSH3 0x645 JUMP JUMPDEST POP POP POP JUMP JUMPDEST JUMPDEST DUP2 DUP2 LT ISZERO PUSH3 0x6B2 JUMPI PUSH3 0x6A6 PUSH0 DUP3 PUSH3 0x674 JUMP JUMPDEST PUSH1 0x1 DUP2 ADD SWAP1 POP PUSH3 0x691 JUMP JUMPDEST POP POP JUMP JUMPDEST PUSH1 0x1F DUP3 GT ISZERO PUSH3 0x701 JUMPI PUSH3 0x6CB DUP2 PUSH3 0x581 JUMP JUMPDEST PUSH3 0x6D6 DUP5 PUSH3 0x593 JUMP JUMPDEST DUP2 ADD PUSH1 0x20 DUP6 LT ISZERO PUSH3 0x6E6 JUMPI DUP2 SWAP1 POP JUMPDEST PUSH3 0x6FE PUSH3 0x6F5 DUP6 PUSH3 0x593 JUMP JUMPDEST DUP4 ADD DUP3 PUSH3 0x690 JUMP JUMPDEST POP POP JUMPDEST POP POP POP JUMP JUMPDEST PUSH0 DUP3 DUP3 SHR SWAP1 POP SWAP3 SWAP2 POP POP JUMP JUMPDEST PUSH0 PUSH3 0x723 PUSH0 NOT DUP5 PUSH1 0x8 MUL PUSH3 0x706 JUMP JUMPDEST NOT DUP1 DUP4 AND SWAP2 POP POP SWAP3 SWAP2 POP POP JUMP JUMPDEST PUSH0 PUSH3 0x73D DUP4 DUP4 PUSH3 0x712 JUMP JUMPDEST SWAP2 POP DUP3 PUSH1 0x2 MUL DUP3 OR SWAP1 POP SWAP3 SWAP2 POP POP JUMP JUMPDEST PUSH3 0x758 DUP3 PUSH3 0x4E9 JUMP JUMPDEST PUSH8 0xFFFFFFFFFFFFFFFF DUP2 GT ISZERO PUSH3 0x774 JUMPI PUSH3 0x773 PUSH3 0x4F3 JUMP JUMPDEST JUMPDEST PUSH3 0x780 DUP3 SLOAD PUSH3 0x54D JUMP JUMPDEST PUSH3 0x78D DUP3 DUP3 DUP6 PUSH3 0x6B6 JUMP JUMPDEST PUSH0 PUSH1 0x20 SWAP1 POP PUSH1 0x1F DUP4 GT PUSH1 0x1 DUP2 EQ PUSH3 0x7C3 JUMPI PUSH0 DUP5 ISZERO PUSH3 0x7AE JUMPI DUP3 DUP8 ADD MLOAD SWAP1 POP JUMPDEST PUSH3 0x7BA DUP6 DUP3 PUSH3 0x730 JUMP JUMPDEST DUP7 SSTORE POP PUSH3 0x829 JUMP JUMPDEST PUSH1 0x1F NOT DUP5 AND PUSH3 0x7D3 DUP7 PUSH3 0x581 JUMP JUMPDEST PUSH0 JUMPDEST DUP3 DUP2 LT ISZERO PUSH3 0x7FC JUMPI DUP5 DUP10 ADD MLOAD DUP3 SSTORE PUSH1 0x1 DUP3 ADD SWAP2 POP PUSH1 0x20 DUP6 ADD SWAP5 POP PUSH1 0x20 DUP2 ADD SWAP1 POP PUSH3 0x7D5 JUMP JUMPDEST DUP7 DUP4 LT ISZERO PUSH3 0x81C JUMPI DUP5 DUP10 ADD MLOAD PUSH3 0x818 PUSH1 0x1F DUP10 AND DUP3 PUSH3 0x712 JUMP JUMPDEST DUP4 SSTORE POP JUMPDEST PUSH1 0x1 PUSH1 0x2 DUP9 MUL ADD DUP9 SSTORE POP POP POP JUMPDEST POP POP POP POP POP POP JUMP JUMPDEST PUSH0 PUSH20 0xFFFFFFFFFFFFFFFFFFFFFFFFFFFFFFFFFFFFFFFF DUP3 AND SWAP1 POP SWAP2 SWAP1 POP JUMP JUMPDEST PUSH0 PUSH3 0x85C DUP3 PUSH3 0x831 JUMP JUMPDEST SWAP1 POP SWAP2 SWAP1 POP JUMP JUMPDEST PUSH3 0x86E DUP2 PUSH3 0x850 JUMP JUMPDEST DUP3 MSTORE POP POP JUMP JUMPDEST PUSH0 PUSH1 0x20 DUP3 ADD SWAP1 POP PUSH3 0x889 PUSH0 DUP4 ADD DUP5 PUSH3 0x863 JUMP JUMPDEST SWAP3 SWAP2 POP POP JUMP JUMPDEST PUSH32 0x4E487B7100000000000000000000000000000000000000000000000000000000 PUSH0 MSTORE PUSH1 0x11 PUSH1 0x4 MSTORE PUSH1 0x24 PUSH0 REVERT JUMPDEST PUSH0 DUP2 PUSH1 0x1 SHR SWAP1 POP SWAP2 SWAP1 POP JUMP JUMPDEST PUSH0 DUP1 DUP3 SWAP2 POP DUP4 SWAP1 POP JUMPDEST PUSH1 0x1 DUP6 GT ISZERO PUSH3 0x919 JUMPI DUP1 DUP7 DIV DUP2 GT ISZERO PUSH3 0x8F1 JUMPI PUSH3 0x8F0 PUSH3 0x88F JUMP JUMPDEST JUMPDEST PUSH1 0x1 DUP6 AND ISZERO PUSH3 0x901 JUMPI DUP1 DUP3 MUL SWAP2 POP JUMPDEST DUP1 DUP2 MUL SWAP1 POP PUSH3 0x911 DUP6 PUSH3 0x8BC JUMP JUMPDEST SWAP5 POP PUSH3 0x8D1 JUMP JUMPDEST SWAP5 POP SWAP5 SWAP3 POP POP POP JUMP JUMPDEST PUSH0 DUP3 PUSH3 0x933 JUMPI PUSH1 0x1 SWAP1 POP PUSH3 0xA05 JUMP JUMPDEST DUP2 PUSH3 0x942 JUMPI PUSH0 SWAP1 POP PUSH3 0xA05 JUMP JUMPDEST DUP2 PUSH1 0x1 DUP2 EQ PUSH3 0x95B JUMPI PUSH1 0x2 DUP2 EQ PUSH3 0x966 JUMPI PUSH3 0x99C JUMP JUMPDEST PUSH1 0x1 SWAP2 POP POP PUSH3 0xA05 JUMP JUMPDEST PUSH1 0xFF DUP5 GT ISZERO PUSH3 0x97B JUMPI PUSH3 0x97A PUSH3 0x88F JUMP JUMPDEST JUMPDEST DUP4 PUSH1 0x2 EXP SWAP2 POP DUP5 DUP3 GT ISZERO PUSH3 0x995 JUMPI PUSH3 0x994 PUSH3 0x88F JUMP JUMPDEST JUMPDEST POP PUSH3 0xA05 JUMP JUMPDEST POP PUSH1 0x20 DUP4 LT PUSH2 0x133 DUP4 LT AND PUSH1 0x4E DUP5 LT PUSH1 0xB DUP5 LT AND OR ISZERO PUSH3 0x9D6 JUMPI DUP3 DUP3 EXP SWAP1 POP DUP4 DUP2 GT ISZERO PUSH3 0x9D0 JUMPI PUSH3 0x9CF PUSH3 0x88F JUMP JUMPDEST JUMPDEST PUSH3 0xA05 JUMP JUMPDEST PUSH3 0x9E5 DUP5 DUP5 DUP5 PUSH1 0x1 PUSH3 0x8C8 JUMP JUMPDEST SWAP3 POP SWAP1 POP DUP2 DUP5 DIV DUP2 GT ISZERO PUSH3 0x9FF JUMPI PUSH3 0x9FE PUSH3 0x88F JUMP JUMPDEST JUMPDEST DUP2 DUP2 MUL SWAP1 POP JUMPDEST SWAP4 SWAP3 POP POP POP JUMP JUMPDEST PUSH0 PUSH3 0xA18 DUP3 PUSH3 0x603 JUMP JUMPDEST SWAP2 POP PUSH3 0xA25 DUP4 PUSH3 0x603 JUMP JUMPDEST SWAP3 POP PUSH3 0xA54 PUSH32 0xFFFFFFFFFFFFFFFFFFFFFFFFFFFFFFFFFFFFFFFFFFFFFFFFFFFFFFFFFFFFFFFF DUP5 DUP5 PUSH3 0x922 JUMP JUMPDEST SWAP1 POP SWAP3 SWAP2 POP POP JUMP JUMPDEST PUSH0 PUSH3 0xA68 DUP3 PUSH3 0x603 JUMP JUMPDEST SWAP2 POP PUSH3 0xA75 DUP4 PUSH3 0x603 JUMP JUMPDEST SWAP3 POP DUP3 DUP3 MUL PUSH3 0xA85 DUP2 PUSH3 0x603 JUMP JUMPDEST SWAP2 POP DUP3 DUP3 DIV DUP5 EQ DUP4 ISZERO OR PUSH3 0xA9F JUMPI PUSH3 0xA9E PUSH3 0x88F JUMP JUMPDEST JUMPDEST POP SWAP3 SWAP2 POP POP JUMP JUMPDEST PUSH0 PUSH3 0xAB2 DUP3 PUSH3 0x603 JUMP JUMPDEST SWAP2 POP PUSH3 0xABF DUP4 PUSH3 0x603 JUMP JUMPDEST SWAP3 POP DUP3 DUP3 ADD SWAP1 POP DUP1 DUP3 GT ISZERO PUSH3 0xADA JUMPI PUSH3 0xAD9 PUSH3 0x88F JUMP JUMPDEST JUMPDEST SWAP3 SWAP2 POP POP JUMP JUMPDEST PUSH3 0xAEB DUP2 PUSH3 0x603 JUMP JUMPDEST DUP3 MSTORE POP POP JUMP JUMPDEST PUSH0 PUSH1 0x60 DUP3 ADD SWAP1 POP PUSH3 0xB06 PUSH0 DUP4 ADD DUP7 PUSH3 0x863 JUMP JUMPDEST PUSH3 0xB15 PUSH1 0x20 DUP4 ADD DUP6 PUSH3 0xAE0 JUMP JUMPDEST PUSH3 0xB24 PUSH1 0x40 DUP4 ADD DUP5 PUSH3 0xAE0 JUMP JUMPDEST SWAP5 SWAP4 POP POP POP POP JUMP JUMPDEST PUSH0 PUSH1 0x20 DUP3 ADD SWAP1 POP PUSH3 0xB41 PUSH0 DUP4 ADD DUP5 PUSH3 0xAE0 JUMP JUMPDEST SWAP3 SWAP2 POP POP JUMP JUMPDEST PUSH2 0x1C37 DUP1 PUSH3 0xB55 PUSH0 CODECOPY PUSH0 RETURN INVALID PUSH1 0x80 PUSH1 0x40 MSTORE PUSH1 0x4 CALLDATASIZE LT PUSH2 0xF2 JUMPI PUSH0 CALLDATALOAD PUSH1 0xE0 SHR DUP1 PUSH4 0x715018A6 GT PUSH2 0x89 JUMPI DUP1 PUSH4 0xDD62ED3E GT PUSH2 0x58 JUMPI DUP1 PUSH4 0xDD62ED3E EQ PUSH2 0x326 JUMPI DUP1 PUSH4 0xF2FDE38B EQ PUSH2 0x362 JUMPI DUP1 PUSH4 0xFCBCA456 EQ PUSH2 0x38A JUMPI DUP1 PUSH4 0xFE575A87 EQ PUSH2 0x3B2 JUMPI PUSH2 0xF2 JUMP JUMPDEST DUP1 PUSH4 0x715018A6 EQ PUSH2 0x280 JUMPI DUP1 PUSH4 0x8DA5CB5B EQ PUSH2 0x296 JUMPI DUP1 PUSH4 0x95D89B41 EQ PUSH2 0x2C0 JUMPI DUP1 PUSH4 0xA9059CBB EQ PUSH2 0x2EA JUMPI PUSH2 0xF2 JUMP JUMPDEST DUP1 PUSH4 0x313CE567 GT PUSH2 0xC5 JUMPI DUP1 PUSH4 0x313CE567 EQ PUSH2 0x1C2 JUMPI DUP1 PUSH4 0x3610724E EQ PUSH2 0x1EC JUMPI DUP1 PUSH4 0x537DF3B6 EQ PUSH2 0x21C JUMPI DUP1 PUSH4 0x70A08231 EQ PUSH2 0x244 JUMPI PUSH2 0xF2 JUMP JUMPDEST DUP1 PUSH4 0x6FDDE03 EQ PUSH2 0xF6 JUMPI DUP1 PUSH4 0x95EA7B3 EQ PUSH2 0x120 JUMPI DUP1 PUSH4 0x18160DDD EQ PUSH2 0x15C JUMPI DUP1 PUSH4 0x23B872DD EQ PUSH2 0x186 JUMPI JUMPDEST PUSH0 DUP1 REVERT JUMPDEST CALLVALUE DUP1 ISZERO PUSH2 0x101 JUMPI PUSH0 DUP1 REVERT JUMPDEST POP PUSH2 0x10A PUSH2 0x3EE JUMP JUMPDEST PUSH1 0x40 MLOAD PUSH2 0x117 SWAP2 SWAP1 PUSH2 0x1492 JUMP JUMPDEST PUSH1 0x40 MLOAD DUP1 SWAP2 SUB SWAP1 RETURN JUMPDEST CALLVALUE DUP1 ISZERO PUSH2 0x12B JUMPI PUSH0 DUP1 REVERT JUMPDEST POP PUSH2 0x146 PUSH1 0x4 DUP1 CALLDATASIZE SUB DUP2 ADD SWAP1 PUSH2 0x141 SWAP2 SWAP1 PUSH2 0x1543 JUMP JUMPDEST PUSH2 0x47E JUMP JUMPDEST PUSH1 0x40 MLOAD PUSH2 0x153 SWAP2 SWAP1 PUSH2 0x159B JUMP JUMPDEST PUSH1 0x40 MLOAD DUP1 SWAP2 SUB SWAP1 RETURN JUMPDEST CALLVALUE DUP1 ISZERO PUSH2 0x167 JUMPI PUSH0 DUP1 REVERT JUMPDEST POP PUSH2 0x170 PUSH2 0x4A0 JUMP JUMPDEST PUSH1 0x40 MLOAD PUSH2 0x17D SWAP2 SWAP1 PUSH2 0x15C3 JUMP JUMPDEST PUSH1 0x40 MLOAD DUP1 SWAP2 SUB SWAP1 RETURN JUMPDEST CALLVALUE DUP1 ISZERO PUSH2 0x191 JUMPI PUSH0 DUP1 REVERT JUMPDEST POP PUSH2 0x1AC PUSH1 0x4 DUP1 CALLDATASIZE SUB DUP2 ADD SWAP1 PUSH2 0x1A7 SWAP2 SWAP1 PUSH2 0x15DC JUMP JUMPDEST PUSH2 0x4A9 JUMP JUMPDEST PUSH1 0x40 MLOAD PUSH2 0x1B9 SWAP2 SWAP1 PUSH2 0x159B JUMP JUMPDEST PUSH1 0x40 MLOAD DUP1 SWAP2 SUB SWAP1 RETURN JUMPDEST CALLVALUE DUP1 ISZERO PUSH2 0x1CD JUMPI PUSH0 DUP1 REVERT JUMPDEST POP PUSH2 0x1D6 PUSH2 0x5B4 JUMP JUMPDEST PUSH1 0x40 MLOAD PUSH2 0x1E3 SWAP2 SWAP1 PUSH2 0x1647 JUMP JUMPDEST PUSH1 0x40 MLOAD DUP1 SWAP2 SUB SWAP1 RETURN JUMPDEST PUSH2 0x206 PUSH1 0x4 DUP1 CALLDATASIZE SUB DUP2 ADD SWAP1 PUSH2 0x201 SWAP2 SWAP1 PUSH2 0x1660 JUMP JUMPDEST PUSH2 0x5BC JUMP JUMPDEST PUSH1 0x40 MLOAD PUSH2 0x213 SWAP2 SWAP1 PUSH2 0x1492 JUMP JUMPDEST PUSH1 0x40 MLOAD DUP1 SWAP2 SUB SWAP1 RETURN JUMPDEST CALLVALUE DUP1 ISZERO PUSH2 0x227 JUMPI PUSH0 DUP1 REVERT JUMPDEST POP PUSH2 0x242 PUSH1 0x4 DUP1 CALLDATASIZE SUB DUP2 ADD SWAP1 PUSH2 0x23D SWAP2 SWAP1 PUSH2 0x168B JUMP JUMPDEST PUSH2 0x806 JUMP JUMPDEST STOP JUMPDEST CALLVALUE DUP1 ISZERO PUSH2 0x24F JUMPI PUSH0 DUP1 REVERT JUMPDEST POP PUSH2 0x26A PUSH1 0x4 DUP1 CALLDATASIZE SUB DUP2 ADD SWAP1 PUSH2 0x265 SWAP2 SWAP1 PUSH2 0x168B JUMP JUMPDEST PUSH2 0x8EE JUMP JUMPDEST PUSH1 0x40 MLOAD PUSH2 0x277 SWAP2 SWAP1 PUSH2 0x15C3 JUMP JUMPDEST PUSH1 0x40 MLOAD DUP1 SWAP2 SUB SWAP1 RETURN JUMPDEST CALLVALUE DUP1 ISZERO PUSH2 0x28B JUMPI PUSH0 DUP1 REVERT JUMPDEST POP PUSH2 0x294 PUSH2 0x933 JUMP JUMPDEST STOP JUMPDEST CALLVALUE DUP1 ISZERO PUSH2 0x2A1 JUMPI PUSH0 DUP1 REVERT JUMPDEST POP PUSH2 0x2AA PUSH2 0x946 JUMP JUMPDEST PUSH1 0x40 MLOAD PUSH2 0x2B7 SWAP2 SWAP1 PUSH2 0x16C5 JUMP JUMPDEST PUSH1 0x40 MLOAD DUP1 SWAP2 SUB SWAP1 RETURN JUMPDEST CALLVALUE DUP1 ISZERO PUSH2 0x2CB JUMPI PUSH0 DUP1 REVERT JUMPDEST POP PUSH2 0x2D4 PUSH2 0x96E JUMP JUMPDEST PUSH1 0x40 MLOAD PUSH2 0x2E1 SWAP2 SWAP1 PUSH2 0x1492 JUMP JUMPDEST PUSH1 0x40 MLOAD DUP1 SWAP2 SUB SWAP1 RETURN JUMPDEST CALLVALUE DUP1 ISZERO PUSH2 0x2F5 JUMPI PUSH0 DUP1 REVERT JUMPDEST POP PUSH2 0x310 PUSH1 0x4 DUP1 CALLDATASIZE SUB DUP2 ADD SWAP1 PUSH2 0x30B SWAP2 SWAP1 PUSH2 0x1543 JUMP JUMPDEST PUSH2 0x9FE JUMP JUMPDEST PUSH1 0x40 MLOAD PUSH2 0x31D SWAP2 SWAP1 PUSH2 0x159B JUMP JUMPDEST PUSH1 0x40 MLOAD DUP1 SWAP2 SUB SWAP1 RETURN JUMPDEST CALLVALUE DUP1 ISZERO PUSH2 0x331 JUMPI PUSH0 DUP1 REVERT JUMPDEST POP PUSH2 0x34C PUSH1 0x4 DUP1 CALLDATASIZE SUB DUP2 ADD SWAP1 PUSH2 0x347 SWAP2 SWAP1 PUSH2 0x16DE JUMP JUMPDEST PUSH2 0xB2E JUMP JUMPDEST PUSH1 0x40 MLOAD PUSH2 0x359 SWAP2 SWAP1 PUSH2 0x15C3 JUMP JUMPDEST PUSH1 0x40 MLOAD DUP1 SWAP2 SUB SWAP1 RETURN JUMPDEST CALLVALUE DUP1 ISZERO PUSH2 0x36D JUMPI PUSH0 DUP1 REVERT JUMPDEST POP PUSH2 0x388 PUSH1 0x4 DUP1 CALLDATASIZE SUB DUP2 ADD SWAP1 PUSH2 0x383 SWAP2 SWAP1 PUSH2 0x168B JUMP JUMPDEST PUSH2 0xBB0 JUMP JUMPDEST STOP JUMPDEST CALLVALUE DUP1 ISZERO PUSH2 0x395 JUMPI PUSH0 DUP1 REVERT JUMPDEST POP PUSH2 0x3B0 PUSH1 0x4 DUP1 CALLDATASIZE SUB DUP2 ADD SWAP1 PUSH2 0x3AB SWAP2 SWAP1 PUSH2 0x168B JUMP JUMPDEST PUSH2 0xC34 JUMP JUMPDEST STOP JUMPDEST CALLVALUE DUP1 ISZERO PUSH2 0x3BD JUMPI PUSH0 DUP1 REVERT JUMPDEST POP PUSH2 0x3D8 PUSH1 0x4 DUP1 CALLDATASIZE SUB DUP2 ADD SWAP1 PUSH2 0x3D3 SWAP2 SWAP1 PUSH2 0x168B JUMP JUMPDEST PUSH2 0xD1E JUMP JUMPDEST PUSH1 0x40 MLOAD PUSH2 0x3E5 SWAP2 SWAP1 PUSH2 0x159B JUMP JUMPDEST PUSH1 0x40 MLOAD DUP1 SWAP2 SUB SWAP1 RETURN JUMPDEST PUSH1 0x60 PUSH1 0x3 DUP1 SLOAD PUSH2 0x3FD SWAP1 PUSH2 0x1749 JUMP JUMPDEST DUP1 PUSH1 0x1F ADD PUSH1 0x20 DUP1 SWAP2 DIV MUL PUSH1 0x20 ADD PUSH1 0x40 MLOAD SWAP1 DUP2 ADD PUSH1 0x40 MSTORE DUP1 SWAP3 SWAP2 SWAP1 DUP2 DUP2 MSTORE PUSH1 0x20 ADD DUP3 DUP1 SLOAD PUSH2 0x429 SWAP1 PUSH2 0x1749 JUMP JUMPDEST DUP1 ISZERO PUSH2 0x474 JUMPI DUP1 PUSH1 0x1F LT PUSH2 0x44B JUMPI PUSH2 0x100 DUP1 DUP4 SLOAD DIV MUL DUP4 MSTORE SWAP2 PUSH1 0x20 ADD SWAP2 PUSH2 0x474 JUMP JUMPDEST DUP3 ADD SWAP2 SWAP1 PUSH0 MSTORE PUSH1 0x20 PUSH0 KECCAK256 SWAP1 JUMPDEST DUP2 SLOAD DUP2 MSTORE SWAP1 PUSH1 0x1 ADD SWAP1 PUSH1 0x20 ADD DUP1 DUP4 GT PUSH2 0x457 JUMPI DUP3 SWAP1 SUB PUSH1 0x1F AND DUP3 ADD SWAP2 JUMPDEST POP POP POP POP POP SWAP1 POP SWAP1 JUMP JUMPDEST PUSH0 DUP1 PUSH2 0x488 PUSH2 0xD3B JUMP JUMPDEST SWAP1 POP PUSH2 0x495 DUP2 DUP6 DUP6 PUSH2 0xD42 JUMP JUMPDEST PUSH1 0x1 SWAP2 POP POP SWAP3 SWAP2 POP POP JUMP JUMPDEST PUSH0 PUSH1 0x2 SLOAD SWAP1 POP SWAP1 JUMP JUMPDEST PUSH0 PUSH1 0x6 PUSH0 DUP6 PUSH20 0xFFFFFFFFFFFFFFFFFFFFFFFFFFFFFFFFFFFFFFFF AND PUSH20 0xFFFFFFFFFFFFFFFFFFFFFFFFFFFFFFFFFFFFFFFF AND DUP2 MSTORE PUSH1 0x20 ADD SWAP1 DUP2 MSTORE PUSH1 0x20 ADD PUSH0 KECCAK256 PUSH0 SWAP1 SLOAD SWAP1 PUSH2 0x100 EXP SWAP1 DIV PUSH1 0xFF AND ISZERO DUP1 ISZERO PUSH2 0x548 JUMPI POP PUSH1 0x6 PUSH0 DUP5 PUSH20 0xFFFFFFFFFFFFFFFFFFFFFFFFFFFFFFFFFFFFFFFF AND PUSH20 0xFFFFFFFFFFFFFFFFFFFFFFFFFFFFFFFFFFFFFFFF AND DUP2 MSTORE PUSH1 0x20 ADD SWAP1 DUP2 MSTORE PUSH1 0x20 ADD PUSH0 KECCAK256 PUSH0 SWAP1 SLOAD SWAP1 PUSH2 0x100 EXP SWAP1 DIV PUSH1 0xFF AND ISZERO JUMPDEST PUSH2 0x587 JUMPI PUSH1 0x40 MLOAD PUSH32 0x8C379A000000000000000000000000000000000000000000000000000000000 DUP2 MSTORE PUSH1 0x4 ADD PUSH2 0x57E SWAP1 PUSH2 0x17C3 JUMP JUMPDEST PUSH1 0x40 MLOAD DUP1 SWAP2 SUB SWAP1 REVERT JUMPDEST PUSH0 PUSH2 0x590 PUSH2 0xD3B JUMP JUMPDEST SWAP1 POP PUSH2 0x59D DUP6 DUP3 DUP6 PUSH2 0xD54 JUMP JUMPDEST PUSH2 0x5A8 DUP6 DUP6 DUP6 PUSH2 0xDE6 JUMP JUMPDEST PUSH1 0x1 SWAP2 POP POP SWAP4 SWAP3 POP POP POP JUMP JUMPDEST PUSH0 PUSH1 0x12 SWAP1 POP SWAP1 JUMP JUMPDEST PUSH1 0x60 PUSH1 0x6 PUSH0 CALLER PUSH20 0xFFFFFFFFFFFFFFFFFFFFFFFFFFFFFFFFFFFFFFFF AND PUSH20 0xFFFFFFFFFFFFFFFFFFFFFFFFFFFFFFFFFFFFFFFF AND DUP2 MSTORE PUSH1 0x20 ADD SWAP1 DUP2 MSTORE PUSH1 0x20 ADD PUSH0 KECCAK256 PUSH0 SWAP1 SLOAD SWAP1 PUSH2 0x100 EXP SWAP1 DIV PUSH1 0xFF AND ISZERO PUSH2 0x648 JUMPI PUSH1 0x40 MLOAD PUSH32 0x8C379A000000000000000000000000000000000000000000000000000000000 DUP2 MSTORE PUSH1 0x4 ADD PUSH2 0x63F SWAP1 PUSH2 0x1851 JUMP JUMPDEST PUSH1 0x40 MLOAD DUP1 SWAP2 SUB SWAP1 REVERT JUMPDEST PUSH0 PUSH1 0xA SWAP1 POP PUSH0 DUP4 DUP3 PUSH2 0x65A SWAP2 SWAP1 PUSH2 0x189C JUMP JUMPDEST SWAP1 POP PUSH1 0x6 PUSH0 CALLER PUSH20 0xFFFFFFFFFFFFFFFFFFFFFFFFFFFFFFFFFFFFFFFF AND PUSH20 0xFFFFFFFFFFFFFFFFFFFFFFFFFFFFFFFFFFFFFFFF AND DUP2 MSTORE PUSH1 0x20 ADD SWAP1 DUP2 MSTORE PUSH1 0x20 ADD PUSH0 KECCAK256 PUSH0 SWAP1 SLOAD SWAP1 PUSH2 0x100 EXP SWAP1 DIV PUSH1 0xFF AND ISZERO PUSH2 0x6E6 JUMPI PUSH1 0x40 MLOAD PUSH32 0x8C379A000000000000000000000000000000000000000000000000000000000 DUP2 MSTORE PUSH1 0x4 ADD PUSH2 0x6DD SWAP1 PUSH2 0x194D JUMP JUMPDEST PUSH1 0x40 MLOAD DUP1 SWAP2 SUB SWAP1 REVERT JUMPDEST PUSH0 DUP5 GT PUSH2 0x728 JUMPI PUSH1 0x40 MLOAD PUSH32 0x8C379A000000000000000000000000000000000000000000000000000000000 DUP2 MSTORE PUSH1 0x4 ADD PUSH2 0x71F SWAP1 PUSH2 0x19B5 JUMP JUMPDEST PUSH1 0x40 MLOAD DUP1 SWAP2 SUB SWAP1 REVERT JUMPDEST DUP1 CALLVALUE EQ PUSH2 0x76A JUMPI PUSH1 0x40 MLOAD PUSH32 0x8C379A000000000000000000000000000000000000000000000000000000000 DUP2 MSTORE PUSH1 0x4 ADD PUSH2 0x761 SWAP1 PUSH2 0x1A1D JUMP JUMPDEST PUSH1 0x40 MLOAD DUP1 SWAP2 SUB SWAP1 REVERT JUMPDEST PUSH2 0x77C PUSH2 0x775 PUSH2 0x946 JUMP JUMPDEST CALLER DUP7 PUSH2 0xDE6 JUMP JUMPDEST PUSH2 0x784 PUSH2 0x946 JUMP JUMPDEST PUSH20 0xFFFFFFFFFFFFFFFFFFFFFFFFFFFFFFFFFFFFFFFF AND PUSH2 0x8FC CALLVALUE SWAP1 DUP2 ISZERO MUL SWAP1 PUSH1 0x40 MLOAD PUSH0 PUSH1 0x40 MLOAD DUP1 DUP4 SUB DUP2 DUP6 DUP9 DUP9 CALL SWAP4 POP POP POP POP ISZERO DUP1 ISZERO PUSH2 0x7C6 JUMPI RETURNDATASIZE PUSH0 DUP1 RETURNDATACOPY RETURNDATASIZE PUSH0 REVERT JUMPDEST POP PUSH1 0x40 MLOAD DUP1 PUSH1 0x40 ADD PUSH1 0x40 MSTORE DUP1 PUSH1 0x16 DUP2 MSTORE PUSH1 0x20 ADD PUSH32 0x427579203120546F6B656E20666F722031302057656900000000000000000000 DUP2 MSTORE POP SWAP3 POP POP POP SWAP2 SWAP1 POP JUMP JUMPDEST PUSH2 0x80E PUSH2 0xED6 JUMP JUMPDEST PUSH1 0x6 PUSH0 DUP3 PUSH20 0xFFFFFFFFFFFFFFFFFFFFFFFFFFFFFFFFFFFFFFFF AND PUSH20 0xFFFFFFFFFFFFFFFFFFFFFFFFFFFFFFFFFFFFFFFF AND DUP2 MSTORE PUSH1 0x20 ADD SWAP1 DUP2 MSTORE PUSH1 0x20 ADD PUSH0 KECCAK256 PUSH0 SWAP1 SLOAD SWAP1 PUSH2 0x100 EXP SWAP1 DIV PUSH1 0xFF AND PUSH2 0x897 JUMPI PUSH1 0x40 MLOAD PUSH32 0x8C379A000000000000000000000000000000000000000000000000000000000 DUP2 MSTORE PUSH1 0x4 ADD PUSH2 0x88E SWAP1 PUSH2 0x1A85 JUMP JUMPDEST PUSH1 0x40 MLOAD DUP1 SWAP2 SUB SWAP1 REVERT JUMPDEST PUSH0 PUSH1 0x6 PUSH0 DUP4 PUSH20 0xFFFFFFFFFFFFFFFFFFFFFFFFFFFFFFFFFFFFFFFF AND PUSH20 0xFFFFFFFFFFFFFFFFFFFFFFFFFFFFFFFFFFFFFFFF AND DUP2 MSTORE PUSH1 0x20 ADD SWAP1 DUP2 MSTORE PUSH1 0x20 ADD PUSH0 KECCAK256 PUSH0 PUSH2 0x100 EXP DUP2 SLOAD DUP2 PUSH1 0xFF MUL NOT AND SWAP1 DUP4 ISZERO ISZERO MUL OR SWAP1 SSTORE POP POP JUMP JUMPDEST PUSH0 DUP1 PUSH0 DUP4 PUSH20 0xFFFFFFFFFFFFFFFFFFFFFFFFFFFFFFFFFFFFFFFF AND PUSH20 0xFFFFFFFFFFFFFFFFFFFFFFFFFFFFFFFFFFFFFFFF AND DUP2 MSTORE PUSH1 0x20 ADD SWAP1 DUP2 MSTORE PUSH1 0x20 ADD PUSH0 KECCAK256 SLOAD SWAP1 POP SWAP2 SWAP1 POP JUMP JUMPDEST PUSH2 0x93B PUSH2 0xED6 JUMP JUMPDEST PUSH2 0x944 PUSH0 PUSH2 0xF5D JUMP JUMPDEST JUMP JUMPDEST PUSH0 PUSH1 0x5 PUSH0 SWAP1 SLOAD SWAP1 PUSH2 0x100 EXP SWAP1 DIV PUSH20 0xFFFFFFFFFFFFFFFFFFFFFFFFFFFFFFFFFFFFFFFF AND SWAP1 POP SWAP1 JUMP JUMPDEST PUSH1 0x60 PUSH1 0x4 DUP1 SLOAD PUSH2 0x97D SWAP1 PUSH2 0x1749 JUMP JUMPDEST DUP1 PUSH1 0x1F ADD PUSH1 0x20 DUP1 SWAP2 DIV MUL PUSH1 0x20 ADD PUSH1 0x40 MLOAD SWAP1 DUP2 ADD PUSH1 0x40 MSTORE DUP1 SWAP3 SWAP2 SWAP1 DUP2 DUP2 MSTORE PUSH1 0x20 ADD DUP3 DUP1 SLOAD PUSH2 0x9A9 SWAP1 PUSH2 0x1749 JUMP JUMPDEST DUP1 ISZERO PUSH2 0x9F4 JUMPI DUP1 PUSH1 0x1F LT PUSH2 0x9CB JUMPI PUSH2 0x100 DUP1 DUP4 SLOAD DIV MUL DUP4 MSTORE SWAP2 PUSH1 0x20 ADD SWAP2 PUSH2 0x9F4 JUMP JUMPDEST DUP3 ADD SWAP2 SWAP1 PUSH0 MSTORE PUSH1 0x20 PUSH0 KECCAK256 SWAP1 JUMPDEST DUP2 SLOAD DUP2 MSTORE SWAP1 PUSH1 0x1 ADD SWAP1 PUSH1 0x20 ADD DUP1 DUP4 GT PUSH2 0x9D7 JUMPI DUP3 SWAP1 SUB PUSH1 0x1F AND DUP3 ADD SWAP2 JUMPDEST POP POP POP POP POP SWAP1 POP SWAP1 JUMP JUMPDEST PUSH0 PUSH1 0x6 PUSH0 CALLER PUSH20 0xFFFFFFFFFFFFFFFFFFFFFFFFFFFFFFFFFFFFFFFF AND PUSH20 0xFFFFFFFFFFFFFFFFFFFFFFFFFFFFFFFFFFFFFFFF AND DUP2 MSTORE PUSH1 0x20 ADD SWAP1 DUP2 MSTORE PUSH1 0x20 ADD PUSH0 KECCAK256 PUSH0 SWAP1 SLOAD SWAP1 PUSH2 0x100 EXP SWAP1 DIV PUSH1 0xFF AND ISZERO PUSH2 0xA89 JUMPI PUSH1 0x40 MLOAD PUSH32 0x8C379A000000000000000000000000000000000000000000000000000000000 DUP2 MSTORE PUSH1 0x4 ADD PUSH2 0xA80 SWAP1 PUSH2 0x1851 JUMP JUMPDEST PUSH1 0x40 MLOAD DUP1 SWAP2 SUB SWAP1 REVERT JUMPDEST PUSH1 0x1 ISZERO ISZERO PUSH1 0x6 PUSH0 CALLER PUSH20 0xFFFFFFFFFFFFFFFFFFFFFFFFFFFFFFFFFFFFFFFF AND PUSH20 0xFFFFFFFFFFFFFFFFFFFFFFFFFFFFFFFFFFFFFFFF AND DUP2 MSTORE PUSH1 0x20 ADD SWAP1 DUP2 MSTORE PUSH1 0x20 ADD PUSH0 KECCAK256 PUSH0 SWAP1 SLOAD SWAP1 PUSH2 0x100 EXP SWAP1 DIV PUSH1 0xFF AND ISZERO ISZERO SUB PUSH2 0xB19 JUMPI PUSH1 0x40 MLOAD PUSH32 0x8C379A000000000000000000000000000000000000000000000000000000000 DUP2 MSTORE PUSH1 0x4 ADD PUSH2 0xB10 SWAP1 PUSH2 0x1B13 JUMP JUMPDEST PUSH1 0x40 MLOAD DUP1 SWAP2 SUB SWAP1 REVERT JUMPDEST PUSH2 0xB24 CALLER DUP5 DUP5 PUSH2 0xDE6 JUMP JUMPDEST PUSH1 0x1 SWAP1 POP SWAP3 SWAP2 POP POP JUMP JUMPDEST PUSH0 PUSH1 0x1 PUSH0 DUP5 PUSH20 0xFFFFFFFFFFFFFFFFFFFFFFFFFFFFFFFFFFFFFFFF AND PUSH20 0xFFFFFFFFFFFFFFFFFFFFFFFFFFFFFFFFFFFFFFFF AND DUP2 MSTORE PUSH1 0x20 ADD SWAP1 DUP2 MSTORE PUSH1 0x20 ADD PUSH0 KECCAK256 PUSH0 DUP4 PUSH20 0xFFFFFFFFFFFFFFFFFFFFFFFFFFFFFFFFFFFFFFFF AND PUSH20 0xFFFFFFFFFFFFFFFFFFFFFFFFFFFFFFFFFFFFFFFF AND DUP2 MSTORE PUSH1 0x20 ADD SWAP1 DUP2 MSTORE PUSH1 0x20 ADD PUSH0 KECCAK256 SLOAD SWAP1 POP SWAP3 SWAP2 POP POP JUMP JUMPDEST PUSH2 0xBB8 PUSH2 0xED6 JUMP JUMPDEST PUSH0 PUSH20 0xFFFFFFFFFFFFFFFFFFFFFFFFFFFFFFFFFFFFFFFF AND DUP2 PUSH20 0xFFFFFFFFFFFFFFFFFFFFFFFFFFFFFFFFFFFFFFFF AND SUB PUSH2 0xC28 JUMPI PUSH0 PUSH1 0x40 MLOAD PUSH32 0x1E4FBDF700000000000000000000000000000000000000000000000000000000 DUP2 MSTORE PUSH1 0x4 ADD PUSH2 0xC1F SWAP2 SWAP1 PUSH2 0x16C5 JUMP JUMPDEST PUSH1 0x40 MLOAD DUP1 SWAP2 SUB SWAP1 REVERT JUMPDEST PUSH2 0xC31 DUP2 PUSH2 0xF5D JUMP JUMPDEST POP JUMP JUMPDEST PUSH2 0xC3C PUSH2 0xED6 JUMP JUMPDEST PUSH1 0x6 PUSH0 DUP3 PUSH20 0xFFFFFFFFFFFFFFFFFFFFFFFFFFFFFFFFFFFFFFFF AND PUSH20 0xFFFFFFFFFFFFFFFFFFFFFFFFFFFFFFFFFFFFFFFF AND DUP2 MSTORE PUSH1 0x20 ADD SWAP1 DUP2 MSTORE PUSH1 0x20 ADD PUSH0 KECCAK256 PUSH0 SWAP1 SLOAD SWAP1 PUSH2 0x100 EXP SWAP1 DIV PUSH1 0xFF AND ISZERO PUSH2 0xCC6 JUMPI PUSH1 0x40 MLOAD PUSH32 0x8C379A000000000000000000000000000000000000000000000000000000000 DUP2 MSTORE PUSH1 0x4 ADD PUSH2 0xCBD SWAP1 PUSH2 0x1B7B JUMP JUMPDEST PUSH1 0x40 MLOAD DUP1 SWAP2 SUB SWAP1 REVERT JUMPDEST PUSH1 0x1 PUSH1 0x6 PUSH0 DUP4 PUSH20 0xFFFFFFFFFFFFFFFFFFFFFFFFFFFFFFFFFFFFFFFF AND PUSH20 0xFFFFFFFFFFFFFFFFFFFFFFFFFFFFFFFFFFFFFFFF AND DUP2 MSTORE PUSH1 0x20 ADD SWAP1 DUP2 MSTORE PUSH1 0x20 ADD PUSH0 KECCAK256 PUSH0 PUSH2 0x100 EXP DUP2 SLOAD DUP2 PUSH1 0xFF MUL NOT AND SWAP1 DUP4 ISZERO ISZERO MUL OR SWAP1 SSTORE POP POP JUMP JUMPDEST PUSH1 0x6 PUSH1 0x20 MSTORE DUP1 PUSH0 MSTORE PUSH1 0x40 PUSH0 KECCAK256 PUSH0 SWAP2 POP SLOAD SWAP1 PUSH2 0x100 EXP SWAP1 DIV PUSH1 0xFF AND DUP2 JUMP JUMPDEST PUSH0 CALLER SWAP1 POP SWAP1 JUMP JUMPDEST PUSH2 0xD4F DUP4 DUP4 DUP4 PUSH1 0x1 PUSH2 0x1020 JUMP JUMPDEST POP POP POP JUMP JUMPDEST PUSH0 PUSH2 0xD5F DUP5 DUP5 PUSH2 0xB2E JUMP JUMPDEST SWAP1 POP PUSH32 0xFFFFFFFFFFFFFFFFFFFFFFFFFFFFFFFFFFFFFFFFFFFFFFFFFFFFFFFFFFFFFFFF DUP2 EQ PUSH2 0xDE0 JUMPI DUP2 DUP2 LT ISZERO PUSH2 0xDD1 JUMPI DUP3 DUP2 DUP4 PUSH1 0x40 MLOAD PUSH32 0xFB8F41B200000000000000000000000000000000000000000000000000000000 DUP2 MSTORE PUSH1 0x4 ADD PUSH2 0xDC8 SWAP4 SWAP3 SWAP2 SWAP1 PUSH2 0x1B99 JUMP JUMPDEST PUSH1 0x40 MLOAD DUP1 SWAP2 SUB SWAP1 REVERT JUMPDEST PUSH2 0xDDF DUP5 DUP5 DUP5 DUP5 SUB PUSH0 PUSH2 0x1020 JUMP JUMPDEST JUMPDEST POP POP POP POP JUMP JUMPDEST PUSH0 PUSH20 0xFFFFFFFFFFFFFFFFFFFFFFFFFFFFFFFFFFFFFFFF AND DUP4 PUSH20 0xFFFFFFFFFFFFFFFFFFFFFFFFFFFFFFFFFFFFFFFF AND SUB PUSH2 0xE56 JUMPI PUSH0 PUSH1 0x40 MLOAD PUSH32 0x96C6FD1E00000000000000000000000000000000000000000000000000000000 DUP2 MSTORE PUSH1 0x4 ADD PUSH2 0xE4D SWAP2 SWAP1 PUSH2 0x16C5 JUMP JUMPDEST PUSH1 0x40 MLOAD DUP1 SWAP2 SUB SWAP1 REVERT JUMPDEST PUSH0 PUSH20 0xFFFFFFFFFFFFFFFFFFFFFFFFFFFFFFFFFFFFFFFF AND DUP3 PUSH20 0xFFFFFFFFFFFFFFFFFFFFFFFFFFFFFFFFFFFFFFFF AND SUB PUSH2 0xEC6 JUMPI PUSH0 PUSH1 0x40 MLOAD PUSH32 0xEC442F0500000000000000000000000000000000000000000000000000000000 DUP2 MSTORE PUSH1 0x4 ADD PUSH2 0xEBD SWAP2 SWAP1 PUSH2 0x16C5 JUMP JUMPDEST PUSH1 0x40 MLOAD DUP1 SWAP2 SUB SWAP1 REVERT JUMPDEST PUSH2 0xED1 DUP4 DUP4 DUP4 PUSH2 0x11EF JUMP JUMPDEST POP POP POP JUMP JUMPDEST PUSH2 0xEDE PUSH2 0xD3B JUMP JUMPDEST PUSH20 0xFFFFFFFFFFFFFFFFFFFFFFFFFFFFFFFFFFFFFFFF AND PUSH2 0xEFC PUSH2 0x946 JUMP JUMPDEST PUSH20 0xFFFFFFFFFFFFFFFFFFFFFFFFFFFFFFFFFFFFFFFF AND EQ PUSH2 0xF5B JUMPI PUSH2 0xF1F PUSH2 0xD3B JUMP JUMPDEST PUSH1 0x40 MLOAD PUSH32 0x118CDAA700000000000000000000000000000000000000000000000000000000 DUP2 MSTORE PUSH1 0x4 ADD PUSH2 0xF52 SWAP2 SWAP1 PUSH2 0x16C5 JUMP JUMPDEST PUSH1 0x40 MLOAD DUP1 SWAP2 SUB SWAP1 REVERT JUMPDEST JUMP JUMPDEST PUSH0 PUSH1 0x5 PUSH0 SWAP1 SLOAD SWAP1 PUSH2 0x100 EXP SWAP1 DIV PUSH20 0xFFFFFFFFFFFFFFFFFFFFFFFFFFFFFFFFFFFFFFFF AND SWAP1 POP DUP2 PUSH1 0x5 PUSH0 PUSH2 0x100 EXP DUP2 SLOAD DUP2 PUSH20 0xFFFFFFFFFFFFFFFFFFFFFFFFFFFFFFFFFFFFFFFF MUL NOT AND SWAP1 DUP4 PUSH20 0xFFFFFFFFFFFFFFFFFFFFFFFFFFFFFFFFFFFFFFFF AND MUL OR SWAP1 SSTORE POP DUP2 PUSH20 0xFFFFFFFFFFFFFFFFFFFFFFFFFFFFFFFFFFFFFFFF AND DUP2 PUSH20 0xFFFFFFFFFFFFFFFFFFFFFFFFFFFFFFFFFFFFFFFF AND PUSH32 0x8BE0079C531659141344CD1FD0A4F28419497F9722A3DAAFE3B4186F6B6457E0 PUSH1 0x40 MLOAD PUSH1 0x40 MLOAD DUP1 SWAP2 SUB SWAP1 LOG3 POP POP JUMP JUMPDEST PUSH0 PUSH20 0xFFFFFFFFFFFFFFFFFFFFFFFFFFFFFFFFFFFFFFFF AND DUP5 PUSH20 0xFFFFFFFFFFFFFFFFFFFFFFFFFFFFFFFFFFFFFFFF AND SUB PUSH2 0x1090 JUMPI PUSH0 PUSH1 0x40 MLOAD PUSH32 0xE602DF0500000000000000000000000000000000000000000000000000000000 DUP2 MSTORE PUSH1 0x4 ADD PUSH2 0x1087 SWAP2 SWAP1 PUSH2 0x16C5 JUMP JUMPDEST PUSH1 0x40 MLOAD DUP1 SWAP2 SUB SWAP1 REVERT JUMPDEST PUSH0 PUSH20 0xFFFFFFFFFFFFFFFFFFFFFFFFFFFFFFFFFFFFFFFF AND DUP4 PUSH20 0xFFFFFFFFFFFFFFFFFFFFFFFFFFFFFFFFFFFFFFFF AND SUB PUSH2 0x1100 JUMPI PUSH0 PUSH1 0x40 MLOAD PUSH32 0x94280D6200000000000000000000000000000000000000000000000000000000 DUP2 MSTORE PUSH1 0x4 ADD PUSH2 0x10F7 SWAP2 SWAP1 PUSH2 0x16C5 JUMP JUMPDEST PUSH1 0x40 MLOAD DUP1 SWAP2 SUB SWAP1 REVERT JUMPDEST DUP2 PUSH1 0x1 PUSH0 DUP7 PUSH20 0xFFFFFFFFFFFFFFFFFFFFFFFFFFFFFFFFFFFFFFFF AND PUSH20 0xFFFFFFFFFFFFFFFFFFFFFFFFFFFFFFFFFFFFFFFF AND DUP2 MSTORE PUSH1 0x20 ADD SWAP1 DUP2 MSTORE PUSH1 0x20 ADD PUSH0 KECCAK256 PUSH0 DUP6 PUSH20 0xFFFFFFFFFFFFFFFFFFFFFFFFFFFFFFFFFFFFFFFF AND PUSH20 0xFFFFFFFFFFFFFFFFFFFFFFFFFFFFFFFFFFFFFFFF AND DUP2 MSTORE PUSH1 0x20 ADD SWAP1 DUP2 MSTORE PUSH1 0x20 ADD PUSH0 KECCAK256 DUP2 SWAP1 SSTORE POP DUP1 ISZERO PUSH2 0x11E9 JUMPI DUP3 PUSH20 0xFFFFFFFFFFFFFFFFFFFFFFFFFFFFFFFFFFFFFFFF AND DUP5 PUSH20 0xFFFFFFFFFFFFFFFFFFFFFFFFFFFFFFFFFFFFFFFF AND PUSH32 0x8C5BE1E5EBEC7D5BD14F71427D1E84F3DD0314C0F7B2291E5B200AC8C7C3B925 DUP5 PUSH1 0x40 MLOAD PUSH2 0x11E0 SWAP2 SWAP1 PUSH2 0x15C3 JUMP JUMPDEST PUSH1 0x40 MLOAD DUP1 SWAP2 SUB SWAP1 LOG3 JUMPDEST POP POP POP POP JUMP JUMPDEST PUSH0 PUSH20 0xFFFFFFFFFFFFFFFFFFFFFFFFFFFFFFFFFFFFFFFF AND DUP4 PUSH20 0xFFFFFFFFFFFFFFFFFFFFFFFFFFFFFFFFFFFFFFFF AND SUB PUSH2 0x123F JUMPI DUP1 PUSH1 0x2 PUSH0 DUP3 DUP3 SLOAD PUSH2 0x1233 SWAP2 SWAP1 PUSH2 0x1BCE JUMP JUMPDEST SWAP3 POP POP DUP2 SWAP1 SSTORE POP PUSH2 0x130D JUMP JUMPDEST PUSH0 DUP1 PUSH0 DUP6 PUSH20 0xFFFFFFFFFFFFFFFFFFFFFFFFFFFFFFFFFFFFFFFF AND PUSH20 0xFFFFFFFFFFFFFFFFFFFFFFFFFFFFFFFFFFFFFFFF AND DUP2 MSTORE PUSH1 0x20 ADD SWAP1 DUP2 MSTORE PUSH1 0x20 ADD PUSH0 KECCAK256 SLOAD SWAP1 POP DUP2 DUP2 LT ISZERO PUSH2 0x12C8 JUMPI DUP4 DUP2 DUP4 PUSH1 0x40 MLOAD PUSH32 0xE450D38C00000000000000000000000000000000000000000000000000000000 DUP2 MSTORE PUSH1 0x4 ADD PUSH2 0x12BF SWAP4 SWAP3 SWAP2 SWAP1 PUSH2 0x1B99 JUMP JUMPDEST PUSH1 0x40 MLOAD DUP1 SWAP2 SUB SWAP1 REVERT JUMPDEST DUP2 DUP2 SUB PUSH0 DUP1 DUP7 PUSH20 0xFFFFFFFFFFFFFFFFFFFFFFFFFFFFFFFFFFFFFFFF AND PUSH20 0xFFFFFFFFFFFFFFFFFFFFFFFFFFFFFFFFFFFFFFFF AND DUP2 MSTORE PUSH1 0x20 ADD SWAP1 DUP2 MSTORE PUSH1 0x20 ADD PUSH0 KECCAK256 DUP2 SWAP1 SSTORE POP POP JUMPDEST PUSH0 PUSH20 0xFFFFFFFFFFFFFFFFFFFFFFFFFFFFFFFFFFFFFFFF AND DUP3 PUSH20 0xFFFFFFFFFFFFFFFFFFFFFFFFFFFFFFFFFFFFFFFF AND SUB PUSH2 0x1354 JUMPI DUP1 PUSH1 0x2 PUSH0 DUP3 DUP3 SLOAD SUB SWAP3 POP POP DUP2 SWAP1 SSTORE POP PUSH2 0x139E JUMP JUMPDEST DUP1 PUSH0 DUP1 DUP5 PUSH20 0xFFFFFFFFFFFFFFFFFFFFFFFFFFFFFFFFFFFFFFFF AND PUSH20 0xFFFFFFFFFFFFFFFFFFFFFFFFFFFFFFFFFFFFFFFF AND DUP2 MSTORE PUSH1 0x20 ADD SWAP1 DUP2 MSTORE PUSH1 0x20 ADD PUSH0 KECCAK256 PUSH0 DUP3 DUP3 SLOAD ADD SWAP3 POP POP DUP2 SWAP1 SSTORE POP JUMPDEST DUP2 PUSH20 0xFFFFFFFFFFFFFFFFFFFFFFFFFFFFFFFFFFFFFFFF AND DUP4 PUSH20 0xFFFFFFFFFFFFFFFFFFFFFFFFFFFFFFFFFFFFFFFF AND PUSH32 0xDDF252AD1BE2C89B69C2B068FC378DAA952BA7F163C4A11628F55A4DF523B3EF DUP4 PUSH1 0x40 MLOAD PUSH2 0x13FB SWAP2 SWAP1 PUSH2 0x15C3 JUMP JUMPDEST PUSH1 0x40 MLOAD DUP1 SWAP2 SUB SWAP1 LOG3 POP POP POP JUMP JUMPDEST PUSH0 DUP2 MLOAD SWAP1 POP SWAP2 SWAP1 POP JUMP JUMPDEST PUSH0 DUP3 DUP3 MSTORE PUSH1 0x20 DUP3 ADD SWAP1 POP SWAP3 SWAP2 POP POP JUMP JUMPDEST PUSH0 JUMPDEST DUP4 DUP2 LT ISZERO PUSH2 0x143F JUMPI DUP1 DUP3 ADD MLOAD DUP2 DUP5 ADD MSTORE PUSH1 0x20 DUP2 ADD SWAP1 POP PUSH2 0x1424 JUMP JUMPDEST PUSH0 DUP5 DUP5 ADD MSTORE POP POP POP POP JUMP JUMPDEST PUSH0 PUSH1 0x1F NOT PUSH1 0x1F DUP4 ADD AND SWAP1 POP SWAP2 SWAP1 POP JUMP JUMPDEST PUSH0 PUSH2 0x1464 DUP3 PUSH2 0x1408 JUMP JUMPDEST PUSH2 0x146E DUP2 DUP6 PUSH2 0x1412 JUMP JUMPDEST SWAP4 POP PUSH2 0x147E DUP2 DUP6 PUSH1 0x20 DUP7 ADD PUSH2 0x1422 JUMP JUMPDEST PUSH2 0x1487 DUP2 PUSH2 0x144A JUMP JUMPDEST DUP5 ADD SWAP2 POP POP SWAP3 SWAP2 POP POP JUMP JUMPDEST PUSH0 PUSH1 0x20 DUP3 ADD SWAP1 POP DUP2 DUP2 SUB PUSH0 DUP4 ADD MSTORE PUSH2 0x14AA DUP2 DUP5 PUSH2 0x145A JUMP JUMPDEST SWAP1 POP SWAP3 SWAP2 POP POP JUMP JUMPDEST PUSH0 DUP1 REVERT JUMPDEST PUSH0 PUSH20 0xFFFFFFFFFFFFFFFFFFFFFFFFFFFFFFFFFFFFFFFF DUP3 AND SWAP1 POP SWAP2 SWAP1 POP JUMP JUMPDEST PUSH0 PUSH2 0x14DF DUP3 PUSH2 0x14B6 JUMP JUMPDEST SWAP1 POP SWAP2 SWAP1 POP JUMP JUMPDEST PUSH2 0x14EF DUP2 PUSH2 0x14D5 JUMP JUMPDEST DUP2 EQ PUSH2 0x14F9 JUMPI PUSH0 DUP1 REVERT JUMPDEST POP JUMP JUMPDEST PUSH0 DUP2 CALLDATALOAD SWAP1 POP PUSH2 0x150A DUP2 PUSH2 0x14E6 JUMP JUMPDEST SWAP3 SWAP2 POP POP JUMP JUMPDEST PUSH0 DUP2 SWAP1 POP SWAP2 SWAP1 POP JUMP JUMPDEST PUSH2 0x1522 DUP2 PUSH2 0x1510 JUMP JUMPDEST DUP2 EQ PUSH2 0x152C JUMPI PUSH0 DUP1 REVERT JUMPDEST POP JUMP JUMPDEST PUSH0 DUP2 CALLDATALOAD SWAP1 POP PUSH2 0x153D DUP2 PUSH2 0x1519 JUMP JUMPDEST SWAP3 SWAP2 POP POP JUMP JUMPDEST PUSH0 DUP1 PUSH1 0x40 DUP4 DUP6 SUB SLT ISZERO PUSH2 0x1559 JUMPI PUSH2 0x1558 PUSH2 0x14B2 JUMP JUMPDEST JUMPDEST PUSH0 PUSH2 0x1566 DUP6 DUP3 DUP7 ADD PUSH2 0x14FC JUMP JUMPDEST SWAP3 POP POP PUSH1 0x20 PUSH2 0x1577 DUP6 DUP3 DUP7 ADD PUSH2 0x152F JUMP JUMPDEST SWAP2 POP POP SWAP3 POP SWAP3 SWAP1 POP JUMP JUMPDEST PUSH0 DUP2 ISZERO ISZERO SWAP1 POP SWAP2 SWAP1 POP JUMP JUMPDEST PUSH2 0x1595 DUP2 PUSH2 0x1581 JUMP JUMPDEST DUP3 MSTORE POP POP JUMP JUMPDEST PUSH0 PUSH1 0x20 DUP3 ADD SWAP1 POP PUSH2 0x15AE PUSH0 DUP4 ADD DUP5 PUSH2 0x158C JUMP JUMPDEST SWAP3 SWAP2 POP POP JUMP JUMPDEST PUSH2 0x15BD DUP2 PUSH2 0x1510 JUMP JUMPDEST DUP3 MSTORE POP POP JUMP JUMPDEST PUSH0 PUSH1 0x20 DUP3 ADD SWAP1 POP PUSH2 0x15D6 PUSH0 DUP4 ADD DUP5 PUSH2 0x15B4 JUMP JUMPDEST SWAP3 SWAP2 POP POP JUMP JUMPDEST PUSH0 DUP1 PUSH0 PUSH1 0x60 DUP5 DUP7 SUB SLT ISZERO PUSH2 0x15F3 JUMPI PUSH2 0x15F2 PUSH2 0x14B2 JUMP JUMPDEST JUMPDEST PUSH0 PUSH2 0x1600 DUP7 DUP3 DUP8 ADD PUSH2 0x14FC JUMP JUMPDEST SWAP4 POP POP PUSH1 0x20 PUSH2 0x1611 DUP7 DUP3 DUP8 ADD PUSH2 0x14FC JUMP JUMPDEST SWAP3 POP POP PUSH1 0x40 PUSH2 0x1622 DUP7 DUP3 DUP8 ADD PUSH2 0x152F JUMP JUMPDEST SWAP2 POP POP SWAP3 POP SWAP3 POP SWAP3 JUMP JUMPDEST PUSH0 PUSH1 0xFF DUP3 AND SWAP1 POP SWAP2 SWAP1 POP JUMP JUMPDEST PUSH2 0x1641 DUP2 PUSH2 0x162C JUMP JUMPDEST DUP3 MSTORE POP POP JUMP JUMPDEST PUSH0 PUSH1 0x20 DUP3 ADD SWAP1 POP PUSH2 0x165A PUSH0 DUP4 ADD DUP5 PUSH2 0x1638 JUMP JUMPDEST SWAP3 SWAP2 POP POP JUMP JUMPDEST PUSH0 PUSH1 0x20 DUP3 DUP5 SUB SLT ISZERO PUSH2 0x1675 JUMPI PUSH2 0x1674 PUSH2 0x14B2 JUMP JUMPDEST JUMPDEST PUSH0 PUSH2 0x1682 DUP5 DUP3 DUP6 ADD PUSH2 0x152F JUMP JUMPDEST SWAP2 POP POP SWAP3 SWAP2 POP POP JUMP JUMPDEST PUSH0 PUSH1 0x20 DUP3 DUP5 SUB SLT ISZERO PUSH2 0x16A0 JUMPI PUSH2 0x169F PUSH2 0x14B2 JUMP JUMPDEST JUMPDEST PUSH0 PUSH2 0x16AD DUP5 DUP3 DUP6 ADD PUSH2 0x14FC JUMP JUMPDEST SWAP2 POP POP SWAP3 SWAP2 POP POP JUMP JUMPDEST PUSH2 0x16BF DUP2 PUSH2 0x14D5 JUMP JUMPDEST DUP3 MSTORE POP POP JUMP JUMPDEST PUSH0 PUSH1 0x20 DUP3 ADD SWAP1 POP PUSH2 0x16D8 PUSH0 DUP4 ADD DUP5 PUSH2 0x16B6 JUMP JUMPDEST SWAP3 SWAP2 POP POP JUMP JUMPDEST PUSH0 DUP1 PUSH1 0x40 DUP4 DUP6 SUB SLT ISZERO PUSH2 0x16F4 JUMPI PUSH2 0x16F3 PUSH2 0x14B2 JUMP JUMPDEST JUMPDEST PUSH0 PUSH2 0x1701 DUP6 DUP3 DUP7 ADD PUSH2 0x14FC JUMP JUMPDEST SWAP3 POP POP PUSH1 0x20 PUSH2 0x1712 DUP6 DUP3 DUP7 ADD PUSH2 0x14FC JUMP JUMPDEST SWAP2 POP POP SWAP3 POP SWAP3 SWAP1 POP JUMP JUMPDEST PUSH32 0x4E487B7100000000000000000000000000000000000000000000000000000000 PUSH0 MSTORE PUSH1 0x22 PUSH1 0x4 MSTORE PUSH1 0x24 PUSH0 REVERT JUMPDEST PUSH0 PUSH1 0x2 DUP3 DIV SWAP1 POP PUSH1 0x1 DUP3 AND DUP1 PUSH2 0x1760 JUMPI PUSH1 0x7F DUP3 AND SWAP2 POP JUMPDEST PUSH1 0x20 DUP3 LT DUP2 SUB PUSH2 0x1773 JUMPI PUSH2 0x1772 PUSH2 0x171C JUMP JUMPDEST JUMPDEST POP SWAP2 SWAP1 POP JUMP JUMPDEST PUSH32 0x596F752061726520626C61636B6C697374656400000000000000000000000000 PUSH0 DUP3 ADD MSTORE POP JUMP JUMPDEST PUSH0 PUSH2 0x17AD PUSH1 0x13 DUP4 PUSH2 0x1412 JUMP JUMPDEST SWAP2 POP PUSH2 0x17B8 DUP3 PUSH2 0x1779 JUMP JUMPDEST PUSH1 0x20 DUP3 ADD SWAP1 POP SWAP2 SWAP1 POP JUMP JUMPDEST PUSH0 PUSH1 0x20 DUP3 ADD SWAP1 POP DUP2 DUP2 SUB PUSH0 DUP4 ADD MSTORE PUSH2 0x17DA DUP2 PUSH2 0x17A1 JUMP JUMPDEST SWAP1 POP SWAP2 SWAP1 POP JUMP JUMPDEST PUSH32 0x596F752061726520626C61636B6C697374656420616E642063616E6E6F742070 PUSH0 DUP3 ADD MSTORE PUSH32 0x6572666F726D207468697320616374696F6E2E00000000000000000000000000 PUSH1 0x20 DUP3 ADD MSTORE POP JUMP JUMPDEST PUSH0 PUSH2 0x183B PUSH1 0x33 DUP4 PUSH2 0x1412 JUMP JUMPDEST SWAP2 POP PUSH2 0x1846 DUP3 PUSH2 0x17E1 JUMP JUMPDEST PUSH1 0x40 DUP3 ADD SWAP1 POP SWAP2 SWAP1 POP JUMP JUMPDEST PUSH0 PUSH1 0x20 DUP3 ADD SWAP1 POP DUP2 DUP2 SUB PUSH0 DUP4 ADD MSTORE PUSH2 0x1868 DUP2 PUSH2 0x182F JUMP JUMPDEST SWAP1 POP SWAP2 SWAP1 POP JUMP JUMPDEST PUSH32 0x4E487B7100000000000000000000000000000000000000000000000000000000 PUSH0 MSTORE PUSH1 0x11 PUSH1 0x4 MSTORE PUSH1 0x24 PUSH0 REVERT JUMPDEST PUSH0 PUSH2 0x18A6 DUP3 PUSH2 0x1510 JUMP JUMPDEST SWAP2 POP PUSH2 0x18B1 DUP4 PUSH2 0x1510 JUMP JUMPDEST SWAP3 POP DUP3 DUP3 MUL PUSH2 0x18BF DUP2 PUSH2 0x1510 JUMP JUMPDEST SWAP2 POP DUP3 DUP3 DIV DUP5 EQ DUP4 ISZERO OR PUSH2 0x18D6 JUMPI PUSH2 0x18D5 PUSH2 0x186F JUMP JUMPDEST JUMPDEST POP SWAP3 SWAP2 POP POP JUMP JUMPDEST PUSH32 0x596F752061726520626C61636B6C697374656420616E642063616E6E6F742062 PUSH0 DUP3 ADD MSTORE PUSH32 0x757920746F6B656E732E00000000000000000000000000000000000000000000 PUSH1 0x20 DUP3 ADD MSTORE POP JUMP JUMPDEST PUSH0 PUSH2 0x1937 PUSH1 0x2A DUP4 PUSH2 0x1412 JUMP JUMPDEST SWAP2 POP PUSH2 0x1942 DUP3 PUSH2 0x18DD JUMP JUMPDEST PUSH1 0x40 DUP3 ADD SWAP1 POP SWAP2 SWAP1 POP JUMP JUMPDEST PUSH0 PUSH1 0x20 DUP3 ADD SWAP1 POP DUP2 DUP2 SUB PUSH0 DUP4 ADD MSTORE PUSH2 0x1964 DUP2 PUSH2 0x192B JUMP JUMPDEST SWAP1 POP SWAP2 SWAP1 POP JUMP JUMPDEST PUSH32 0x416D6F756E74206D7573742062652067726561746572207468616E2030000000 PUSH0 DUP3 ADD MSTORE POP JUMP JUMPDEST PUSH0 PUSH2 0x199F PUSH1 0x1D DUP4 PUSH2 0x1412 JUMP JUMPDEST SWAP2 POP PUSH2 0x19AA DUP3 PUSH2 0x196B JUMP JUMPDEST PUSH1 0x20 DUP3 ADD SWAP1 POP SWAP2 SWAP1 POP JUMP JUMPDEST PUSH0 PUSH1 0x20 DUP3 ADD SWAP1 POP DUP2 DUP2 SUB PUSH0 DUP4 ADD MSTORE PUSH2 0x19CC DUP2 PUSH2 0x1993 JUMP JUMPDEST SWAP1 POP SWAP2 SWAP1 POP JUMP JUMPDEST PUSH32 0x496E73756666696369656E74204C4553532045746865722073656E7400000000 PUSH0 DUP3 ADD MSTORE POP JUMP JUMPDEST PUSH0 PUSH2 0x1A07 PUSH1 0x1C DUP4 PUSH2 0x1412 JUMP JUMPDEST SWAP2 POP PUSH2 0x1A12 DUP3 PUSH2 0x19D3 JUMP JUMPDEST PUSH1 0x20 DUP3 ADD SWAP1 POP SWAP2 SWAP1 POP JUMP JUMPDEST PUSH0 PUSH1 0x20 DUP3 ADD SWAP1 POP DUP2 DUP2 SUB PUSH0 DUP4 ADD MSTORE PUSH2 0x1A34 DUP2 PUSH2 0x19FB JUMP JUMPDEST SWAP1 POP SWAP2 SWAP1 POP JUMP JUMPDEST PUSH32 0x55736572206973206E6F7420626C61636B6C6973746564000000000000000000 PUSH0 DUP3 ADD MSTORE POP JUMP JUMPDEST PUSH0 PUSH2 0x1A6F PUSH1 0x17 DUP4 PUSH2 0x1412 JUMP JUMPDEST SWAP2 POP PUSH2 0x1A7A DUP3 PUSH2 0x1A3B JUMP JUMPDEST PUSH1 0x20 DUP3 ADD SWAP1 POP SWAP2 SWAP1 POP JUMP JUMPDEST PUSH0 PUSH1 0x20 DUP3 ADD SWAP1 POP DUP2 DUP2 SUB PUSH0 DUP4 ADD MSTORE PUSH2 0x1A9C DUP2 PUSH2 0x1A63 JUMP JUMPDEST SWAP1 POP SWAP2 SWAP1 POP JUMP JUMPDEST PUSH32 0x596F75722063616E6E6F7420706572666F726D207472616E73616374696F6E20 PUSH0 DUP3 ADD MSTORE PUSH32 0x796F75207220626C61636B6C6973746564000000000000000000000000000000 PUSH1 0x20 DUP3 ADD MSTORE POP JUMP JUMPDEST PUSH0 PUSH2 0x1AFD PUSH1 0x31 DUP4 PUSH2 0x1412 JUMP JUMPDEST SWAP2 POP PUSH2 0x1B08 DUP3 PUSH2 0x1AA3 JUMP JUMPDEST PUSH1 0x40 DUP3 ADD SWAP1 POP SWAP2 SWAP1 POP JUMP JUMPDEST PUSH0 PUSH1 0x20 DUP3 ADD SWAP1 POP DUP2 DUP2 SUB PUSH0 DUP4 ADD MSTORE PUSH2 0x1B2A DUP2 PUSH2 0x1AF1 JUMP JUMPDEST SWAP1 POP SWAP2 SWAP1 POP JUMP JUMPDEST PUSH32 0x5573657220697320616C726561647920626C61636B6C69737465640000000000 PUSH0 DUP3 ADD MSTORE POP JUMP JUMPDEST PUSH0 PUSH2 0x1B65 PUSH1 0x1B DUP4 PUSH2 0x1412 JUMP JUMPDEST SWAP2 POP PUSH2 0x1B70 DUP3 PUSH2 0x1B31 JUMP JUMPDEST PUSH1 0x20 DUP3 ADD SWAP1 POP SWAP2 SWAP1 POP JUMP JUMPDEST PUSH0 PUSH1 0x20 DUP3 ADD SWAP1 POP DUP2 DUP2 SUB PUSH0 DUP4 ADD MSTORE PUSH2 0x1B92 DUP2 PUSH2 0x1B59 JUMP JUMPDEST SWAP1 POP SWAP2 SWAP1 POP JUMP JUMPDEST PUSH0 PUSH1 0x60 DUP3 ADD SWAP1 POP PUSH2 0x1BAC PUSH0 DUP4 ADD DUP7 PUSH2 0x16B6 JUMP JUMPDEST PUSH2 0x1BB9 PUSH1 0x20 DUP4 ADD DUP6 PUSH2 0x15B4 JUMP JUMPDEST PUSH2 0x1BC6 PUSH1 0x40 DUP4 ADD DUP5 PUSH2 0x15B4 JUMP JUMPDEST SWAP5 SWAP4 POP POP POP POP JUMP JUMPDEST PUSH0 PUSH2 0x1BD8 DUP3 PUSH2 0x1510 JUMP JUMPDEST SWAP2 POP PUSH2 0x1BE3 DUP4 PUSH2 0x1510 JUMP JUMPDEST SWAP3 POP DUP3 DUP3 ADD SWAP1 POP DUP1 DUP3 GT ISZERO PUSH2 0x1BFB JUMPI PUSH2 0x1BFA PUSH2 0x186F JUMP JUMPDEST JUMPDEST SWAP3 SWAP2 POP POP JUMP INVALID LOG2 PUSH5 0x6970667358 0x22 SLT KECCAK256 BLOCKHASH CREATE DELEGATECALL 0xA6 EXTCODECOPY SWAP10 0xC8 0xCE SLOAD GAS GASLIMIT 0xCA DUP3 SWAP15 0x29 SWAP16 0xA5 ISZERO 0x2F DUP10 SELFDESTRUCT LOG1 0xC6 DUP2 DELEGATECALL 0x1E PUSH18 0x9F2B0FBD3D64736F6C634300081500330000 "
				},
				"gasEstimates": {
					"creation": {
						"codeDepositCost": "1444600",
						"executionCost": "infinite",
						"totalCost": "infinite"
					},
					"external": {
						"allowance(address,address)": "infinite",
						"approve(address,uint256)": "infinite",
						"balanceOf(address)": "2918",
						"blacklistUser(address)": "infinite",
						"buyTokens(uint256)": "infinite",
						"decimals()": "361",
						"isBlacklisted(address)": "2921",
						"name()": "infinite",
						"owner()": "2560",
						"removeFromBlacklist(address)": "infinite",
						"renounceOwnership()": "infinite",
						"symbol()": "infinite",
						"totalSupply()": "2500",
						"transfer(address,uint256)": "infinite",
						"transferFrom(address,address,uint256)": "infinite",
						"transferOwnership(address)": "infinite"
					}
				},
				"methodIdentifiers": {
					"allowance(address,address)": "dd62ed3e",
					"approve(address,uint256)": "095ea7b3",
					"balanceOf(address)": "70a08231",
					"blacklistUser(address)": "fcbca456",
					"buyTokens(uint256)": "3610724e",
					"decimals()": "313ce567",
					"isBlacklisted(address)": "fe575a87",
					"name()": "06fdde03",
					"owner()": "8da5cb5b",
					"removeFromBlacklist(address)": "537df3b6",
					"renounceOwnership()": "715018a6",
					"symbol()": "95d89b41",
					"totalSupply()": "18160ddd",
					"transfer(address,uint256)": "a9059cbb",
					"transferFrom(address,address,uint256)": "23b872dd",
					"transferOwnership(address)": "f2fde38b"
				}
			},
			"storageLayout": {
				"storage": [
					{
						"astId": 407,
						"contract": "Myblacktoken_flattened.sol:Myblacktoken",
						"label": "_balances",
						"offset": 0,
						"slot": "0",
						"type": "t_mapping(t_address,t_uint256)"
					},
					{
						"astId": 413,
						"contract": "Myblacktoken_flattened.sol:Myblacktoken",
						"label": "_allowances",
						"offset": 0,
						"slot": "1",
						"type": "t_mapping(t_address,t_mapping(t_address,t_uint256))"
					},
					{
						"astId": 415,
						"contract": "Myblacktoken_flattened.sol:Myblacktoken",
						"label": "_totalSupply",
						"offset": 0,
						"slot": "2",
						"type": "t_uint256"
					},
					{
						"astId": 417,
						"contract": "Myblacktoken_flattened.sol:Myblacktoken",
						"label": "_name",
						"offset": 0,
						"slot": "3",
						"type": "t_string_storage"
					},
					{
						"astId": 419,
						"contract": "Myblacktoken_flattened.sol:Myblacktoken",
						"label": "_symbol",
						"offset": 0,
						"slot": "4",
						"type": "t_string_storage"
					},
					{
						"astId": 154,
						"contract": "Myblacktoken_flattened.sol:Myblacktoken",
						"label": "_owner",
						"offset": 0,
						"slot": "5",
						"type": "t_address"
					},
					{
						"astId": 875,
						"contract": "Myblacktoken_flattened.sol:Myblacktoken",
						"label": "isBlacklisted",
						"offset": 0,
						"slot": "6",
						"type": "t_mapping(t_address,t_bool)"
					}
				],
				"types": {
					"t_address": {
						"encoding": "inplace",
						"label": "address",
						"numberOfBytes": "20"
					},
					"t_bool": {
						"encoding": "inplace",
						"label": "bool",
						"numberOfBytes": "1"
					},
					"t_mapping(t_address,t_bool)": {
						"encoding": "mapping",
						"key": "t_address",
						"label": "mapping(address => bool)",
						"numberOfBytes": "32",
						"value": "t_bool"
					},
					"t_mapping(t_address,t_mapping(t_address,t_uint256))": {
						"encoding": "mapping",
						"key": "t_address",
						"label": "mapping(address => mapping(address => uint256))",
						"numberOfBytes": "32",
						"value": "t_mapping(t_address,t_uint256)"
					},
					"t_mapping(t_address,t_uint256)": {
						"encoding": "mapping",
						"key": "t_address",
						"label": "mapping(address => uint256)",
						"numberOfBytes": "32",
						"value": "t_uint256"
					},
					"t_string_storage": {
						"encoding": "bytes",
						"label": "string",
						"numberOfBytes": "32"
					},
					"t_uint256": {
						"encoding": "inplace",
						"label": "uint256",
						"numberOfBytes": "32"
					}
				}
			},
			"userdoc": {
				"kind": "user",
				"methods": {},
				"version": 1
			}
		}
	}
}