{
	"erc1155_flattened.sol": {
		"Vesting": {
			"abi": [
				{
					"inputs": [
						{
							"internalType": "address",
							"name": "_token",
							"type": "address"
						}
					],
					"stateMutability": "nonpayable",
					"type": "constructor"
				},
				{
					"inputs": [
						{
							"internalType": "address",
							"name": "owner",
							"type": "address"
						}
					],
					"name": "OwnableInvalidOwner",
					"type": "error"
				},
				{
					"inputs": [
						{
							"internalType": "address",
							"name": "account",
							"type": "address"
						}
					],
					"name": "OwnableUnauthorizedAccount",
					"type": "error"
				},
				{
					"anonymous": false,
					"inputs": [
						{
							"indexed": true,
							"internalType": "address",
							"name": "previousOwner",
							"type": "address"
						},
						{
							"indexed": true,
							"internalType": "address",
							"name": "newOwner",
							"type": "address"
						}
					],
					"name": "OwnershipTransferred",
					"type": "event"
				},
				{
					"anonymous": false,
					"inputs": [
						{
							"indexed": true,
							"internalType": "address",
							"name": "receiver",
							"type": "address"
						},
						{
							"indexed": false,
							"internalType": "uint256",
							"name": "amount",
							"type": "uint256"
						},
						{
							"indexed": false,
							"internalType": "uint256",
							"name": "expiry",
							"type": "uint256"
						}
					],
					"name": "TokensLocked",
					"type": "event"
				},
				{
					"inputs": [],
					"name": "amount",
					"outputs": [
						{
							"internalType": "uint256",
							"name": "",
							"type": "uint256"
						}
					],
					"stateMutability": "view",
					"type": "function"
				},
				{
					"inputs": [],
					"name": "claimed",
					"outputs": [
						{
							"internalType": "bool",
							"name": "",
							"type": "bool"
						}
					],
					"stateMutability": "view",
					"type": "function"
				},
				{
					"inputs": [],
					"name": "expiry",
					"outputs": [
						{
							"internalType": "uint256",
							"name": "",
							"type": "uint256"
						}
					],
					"stateMutability": "view",
					"type": "function"
				},
				{
					"inputs": [],
					"name": "getTime",
					"outputs": [
						{
							"internalType": "uint256",
							"name": "",
							"type": "uint256"
						}
					],
					"stateMutability": "view",
					"type": "function"
				},
				{
					"inputs": [],
					"name": "locked",
					"outputs": [
						{
							"internalType": "bool",
							"name": "",
							"type": "bool"
						}
					],
					"stateMutability": "view",
					"type": "function"
				},
				{
					"inputs": [
						{
							"internalType": "address",
							"name": "_receiver",
							"type": "address"
						},
						{
							"internalType": "uint256",
							"name": "_amount",
							"type": "uint256"
						},
						{
							"internalType": "uint256",
							"name": "_expiry",
							"type": "uint256"
						}
					],
					"name": "locktoken",
					"outputs": [],
					"stateMutability": "nonpayable",
					"type": "function"
				},
				{
					"inputs": [],
					"name": "owner",
					"outputs": [
						{
							"internalType": "address",
							"name": "",
							"type": "address"
						}
					],
					"stateMutability": "view",
					"type": "function"
				},
				{
					"inputs": [],
					"name": "receiver",
					"outputs": [
						{
							"internalType": "address",
							"name": "",
							"type": "address"
						}
					],
					"stateMutability": "view",
					"type": "function"
				},
				{
					"inputs": [],
					"name": "renounceOwnership",
					"outputs": [],
					"stateMutability": "nonpayable",
					"type": "function"
				},
				{
					"inputs": [],
					"name": "token",
					"outputs": [
						{
							"internalType": "contract IERC20",
							"name": "",
							"type": "address"
						}
					],
					"stateMutability": "view",
					"type": "function"
				},
				{
					"inputs": [
						{
							"internalType": "address",
							"name": "newOwner",
							"type": "address"
						}
					],
					"name": "transferOwnership",
					"outputs": [],
					"stateMutability": "nonpayable",
					"type": "function"
				},
				{
					"inputs": [],
					"name": "withdraw",
					"outputs": [],
					"stateMutability": "nonpayable",
					"type": "function"
				}
			],
			"devdoc": {
				"errors": {
					"OwnableInvalidOwner(address)": [
						{
							"details": "The owner is not a valid owner account. (eg. `address(0)`)"
						}
					],
					"OwnableUnauthorizedAccount(address)": [
						{
							"details": "The caller account is not authorized to perform an operation."
						}
					]
				},
				"kind": "dev",
				"methods": {
					"owner()": {
						"details": "Returns the address of the current owner."
					},
					"renounceOwnership()": {
						"details": "Leaves the contract without owner. It will not be possible to call `onlyOwner` functions. Can only be called by the current owner. NOTE: Renouncing ownership will leave the contract without an owner, thereby disabling any functionality that is only available to the owner."
					},
					"transferOwnership(address)": {
						"details": "Transfers ownership of the contract to a new account (`newOwner`). Can only be called by the current owner."
					}
				},
				"version": 1
			},
			"evm": {
				"assembly": "    /* \"erc1155_flattened.sol\":6825:8456  contract Vesting is Ownable {... */\n  mstore(0x40, 0x80)\n    /* \"erc1155_flattened.sol\":6988:6993  false */\n  0x00\n    /* \"erc1155_flattened.sol\":6967:6993  bool public locked = false */\n  0x05\n  exp(0x0100, 0x00)\n  dup2\n  sload\n  dup2\n  0xff\n  mul\n  not\n  and\n  swap1\n  dup4\n  iszero\n  iszero\n  mul\n  or\n  swap1\n  sstore\n  pop\n    /* \"erc1155_flattened.sol\":7021:7026  false */\n  0x00\n    /* \"erc1155_flattened.sol\":6999:7026  bool public claimed = false */\n  0x05\n  exp(0x0100, 0x01)\n  dup2\n  sload\n  dup2\n  0xff\n  mul\n  not\n  and\n  swap1\n  dup4\n  iszero\n  iszero\n  mul\n  or\n  swap1\n  sstore\n  pop\n    /* \"erc1155_flattened.sol\":7116:7203  constructor(address _token) Ownable(msg.sender) {... */\n  callvalue\n  dup1\n  iszero\n  tag_1\n  jumpi\n  0x00\n  dup1\n  revert\ntag_1:\n  pop\n  mload(0x40)\n  sub(codesize, bytecodeSize)\n  dup1\n  bytecodeSize\n  dup4\n  codecopy\n  dup2\n  dup2\n  add\n  0x40\n  mstore\n  dup2\n  add\n  swap1\n  tag_2\n  swap2\n  swap1\n  tag_3\n  jump\t// in\ntag_2:\n    /* \"erc1155_flattened.sol\":7152:7162  msg.sender */\n  caller\n    /* \"erc1155_flattened.sol\":4962:4963  0 */\n  0x00\n    /* \"erc1155_flattened.sol\":4938:4964  initialOwner == address(0) */\n  0xffffffffffffffffffffffffffffffffffffffff\n  and\n    /* \"erc1155_flattened.sol\":4938:4950  initialOwner */\n  dup2\n    /* \"erc1155_flattened.sol\":4938:4964  initialOwner == address(0) */\n  0xffffffffffffffffffffffffffffffffffffffff\n  and\n  sub\n    /* \"erc1155_flattened.sol\":4934:5029  if (initialOwner == address(0)) {... */\n  tag_7\n  jumpi\n    /* \"erc1155_flattened.sol\":5015:5016  0 */\n  0x00\n    /* \"erc1155_flattened.sol\":4987:5018  OwnableInvalidOwner(address(0)) */\n  mload(0x40)\n  0x1e4fbdf700000000000000000000000000000000000000000000000000000000\n  dup2\n  mstore\n  0x04\n  add\n  tag_8\n  swap2\n  swap1\n  tag_9\n  jump\t// in\ntag_8:\n  mload(0x40)\n  dup1\n  swap2\n  sub\n  swap1\n  revert\n    /* \"erc1155_flattened.sol\":4934:5029  if (initialOwner == address(0)) {... */\ntag_7:\n    /* \"erc1155_flattened.sol\":5038:5070  _transferOwnership(initialOwner) */\n  tag_10\n    /* \"erc1155_flattened.sol\":5057:5069  initialOwner */\n  dup2\n    /* \"erc1155_flattened.sol\":5038:5056  _transferOwnership */\n  shl(0x20, tag_11)\n    /* \"erc1155_flattened.sol\":5038:5070  _transferOwnership(initialOwner) */\n  0x20\n  shr\n  jump\t// in\ntag_10:\n    /* \"erc1155_flattened.sol\":4890:5077  constructor(address initialOwner) {... */\n  pop\n    /* \"erc1155_flattened.sol\":7189:7195  _token */\n  dup1\n    /* \"erc1155_flattened.sol\":7174:7179  token */\n  0x01\n  0x00\n    /* \"erc1155_flattened.sol\":7174:7196  token = IERC20(_token) */\n  0x0100\n  exp\n  dup2\n  sload\n  dup2\n  0xffffffffffffffffffffffffffffffffffffffff\n  mul\n  not\n  and\n  swap1\n  dup4\n  0xffffffffffffffffffffffffffffffffffffffff\n  and\n  mul\n  or\n  swap1\n  sstore\n  pop\n    /* \"erc1155_flattened.sol\":7116:7203  constructor(address _token) Ownable(msg.sender) {... */\n  pop\n    /* \"erc1155_flattened.sol\":6825:8456  contract Vesting is Ownable {... */\n  jump(tag_13)\n    /* \"erc1155_flattened.sol\":6577:6764  function _transferOwnership(address newOwner) internal virtual {... */\ntag_11:\n    /* \"erc1155_flattened.sol\":6650:6666  address oldOwner */\n  0x00\n    /* \"erc1155_flattened.sol\":6669:6675  _owner */\n  dup1\n  0x00\n  swap1\n  sload\n  swap1\n  0x0100\n  exp\n  swap1\n  div\n  0xffffffffffffffffffffffffffffffffffffffff\n  and\n    /* \"erc1155_flattened.sol\":6650:6675  address oldOwner = _owner */\n  swap1\n  pop\n    /* \"erc1155_flattened.sol\":6694:6702  newOwner */\n  dup2\n    /* \"erc1155_flattened.sol\":6685:6691  _owner */\n  0x00\n  dup1\n    /* \"erc1155_flattened.sol\":6685:6702  _owner = newOwner */\n  0x0100\n  exp\n  dup2\n  sload\n  dup2\n  0xffffffffffffffffffffffffffffffffffffffff\n  mul\n  not\n  and\n  swap1\n  dup4\n  0xffffffffffffffffffffffffffffffffffffffff\n  and\n  mul\n  or\n  swap1\n  sstore\n  pop\n    /* \"erc1155_flattened.sol\":6748:6756  newOwner */\n  dup2\n    /* \"erc1155_flattened.sol\":6717:6757  OwnershipTransferred(oldOwner, newOwner) */\n  0xffffffffffffffffffffffffffffffffffffffff\n  and\n    /* \"erc1155_flattened.sol\":6738:6746  oldOwner */\n  dup2\n    /* \"erc1155_flattened.sol\":6717:6757  OwnershipTransferred(oldOwner, newOwner) */\n  0xffffffffffffffffffffffffffffffffffffffff\n  and\n  0x8be0079c531659141344cd1fd0a4f28419497f9722a3daafe3b4186f6b6457e0\n  mload(0x40)\n  mload(0x40)\n  dup1\n  swap2\n  sub\n  swap1\n  log3\n    /* \"erc1155_flattened.sol\":6640:6764  {... */\n  pop\n    /* \"erc1155_flattened.sol\":6577:6764  function _transferOwnership(address newOwner) internal virtual {... */\n  pop\n  jump\t// out\n    /* \"#utility.yul\":88:205   */\ntag_16:\n    /* \"#utility.yul\":197:198   */\n  0x00\n    /* \"#utility.yul\":194:195   */\n  dup1\n    /* \"#utility.yul\":187:199   */\n  revert\n    /* \"#utility.yul\":334:460   */\ntag_18:\n    /* \"#utility.yul\":371:378   */\n  0x00\n    /* \"#utility.yul\":411:453   */\n  0xffffffffffffffffffffffffffffffffffffffff\n    /* \"#utility.yul\":404:409   */\n  dup3\n    /* \"#utility.yul\":400:454   */\n  and\n    /* \"#utility.yul\":389:454   */\n  swap1\n  pop\n    /* \"#utility.yul\":334:460   */\n  swap2\n  swap1\n  pop\n  jump\t// out\n    /* \"#utility.yul\":466:562   */\ntag_19:\n    /* \"#utility.yul\":503:510   */\n  0x00\n    /* \"#utility.yul\":532:556   */\n  tag_29\n    /* \"#utility.yul\":550:555   */\n  dup3\n    /* \"#utility.yul\":532:556   */\n  tag_18\n  jump\t// in\ntag_29:\n    /* \"#utility.yul\":521:556   */\n  swap1\n  pop\n    /* \"#utility.yul\":466:562   */\n  swap2\n  swap1\n  pop\n  jump\t// out\n    /* \"#utility.yul\":568:690   */\ntag_20:\n    /* \"#utility.yul\":641:665   */\n  tag_31\n    /* \"#utility.yul\":659:664   */\n  dup2\n    /* \"#utility.yul\":641:665   */\n  tag_19\n  jump\t// in\ntag_31:\n    /* \"#utility.yul\":634:639   */\n  dup2\n    /* \"#utility.yul\":631:666   */\n  eq\n    /* \"#utility.yul\":621:684   */\n  tag_32\n  jumpi\n    /* \"#utility.yul\":680:681   */\n  0x00\n    /* \"#utility.yul\":677:678   */\n  dup1\n    /* \"#utility.yul\":670:682   */\n  revert\n    /* \"#utility.yul\":621:684   */\ntag_32:\n    /* \"#utility.yul\":568:690   */\n  pop\n  jump\t// out\n    /* \"#utility.yul\":696:839   */\ntag_21:\n    /* \"#utility.yul\":753:758   */\n  0x00\n    /* \"#utility.yul\":784:790   */\n  dup2\n    /* \"#utility.yul\":778:791   */\n  mload\n    /* \"#utility.yul\":769:791   */\n  swap1\n  pop\n    /* \"#utility.yul\":800:833   */\n  tag_34\n    /* \"#utility.yul\":827:832   */\n  dup2\n    /* \"#utility.yul\":800:833   */\n  tag_20\n  jump\t// in\ntag_34:\n    /* \"#utility.yul\":696:839   */\n  swap3\n  swap2\n  pop\n  pop\n  jump\t// out\n    /* \"#utility.yul\":845:1196   */\ntag_3:\n    /* \"#utility.yul\":915:921   */\n  0x00\n    /* \"#utility.yul\":964:966   */\n  0x20\n    /* \"#utility.yul\":952:961   */\n  dup3\n    /* \"#utility.yul\":943:950   */\n  dup5\n    /* \"#utility.yul\":939:962   */\n  sub\n    /* \"#utility.yul\":935:967   */\n  slt\n    /* \"#utility.yul\":932:1051   */\n  iszero\n  tag_36\n  jumpi\n    /* \"#utility.yul\":970:1049   */\n  tag_37\n  tag_16\n  jump\t// in\ntag_37:\n    /* \"#utility.yul\":932:1051   */\ntag_36:\n    /* \"#utility.yul\":1090:1091   */\n  0x00\n    /* \"#utility.yul\":1115:1179   */\n  tag_38\n    /* \"#utility.yul\":1171:1178   */\n  dup5\n    /* \"#utility.yul\":1162:1168   */\n  dup3\n    /* \"#utility.yul\":1151:1160   */\n  dup6\n    /* \"#utility.yul\":1147:1169   */\n  add\n    /* \"#utility.yul\":1115:1179   */\n  tag_21\n  jump\t// in\ntag_38:\n    /* \"#utility.yul\":1105:1179   */\n  swap2\n  pop\n    /* \"#utility.yul\":1061:1189   */\n  pop\n    /* \"#utility.yul\":845:1196   */\n  swap3\n  swap2\n  pop\n  pop\n  jump\t// out\n    /* \"#utility.yul\":1202:1320   */\ntag_22:\n    /* \"#utility.yul\":1289:1313   */\n  tag_40\n    /* \"#utility.yul\":1307:1312   */\n  dup2\n    /* \"#utility.yul\":1289:1313   */\n  tag_19\n  jump\t// in\ntag_40:\n    /* \"#utility.yul\":1284:1287   */\n  dup3\n    /* \"#utility.yul\":1277:1314   */\n  mstore\n    /* \"#utility.yul\":1202:1320   */\n  pop\n  pop\n  jump\t// out\n    /* \"#utility.yul\":1326:1548   */\ntag_9:\n    /* \"#utility.yul\":1419:1423   */\n  0x00\n    /* \"#utility.yul\":1457:1459   */\n  0x20\n    /* \"#utility.yul\":1446:1455   */\n  dup3\n    /* \"#utility.yul\":1442:1460   */\n  add\n    /* \"#utility.yul\":1434:1460   */\n  swap1\n  pop\n    /* \"#utility.yul\":1470:1541   */\n  tag_42\n    /* \"#utility.yul\":1538:1539   */\n  0x00\n    /* \"#utility.yul\":1527:1536   */\n  dup4\n    /* \"#utility.yul\":1523:1540   */\n  add\n    /* \"#utility.yul\":1514:1520   */\n  dup5\n    /* \"#utility.yul\":1470:1541   */\n  tag_22\n  jump\t// in\ntag_42:\n    /* \"#utility.yul\":1326:1548   */\n  swap3\n  swap2\n  pop\n  pop\n  jump\t// out\n    /* \"erc1155_flattened.sol\":6825:8456  contract Vesting is Ownable {... */\ntag_13:\n  dataSize(sub_0)\n  dup1\n  dataOffset(sub_0)\n  0x00\n  codecopy\n  0x00\n  return\nstop\n\nsub_0: assembly {\n        /* \"erc1155_flattened.sol\":6825:8456  contract Vesting is Ownable {... */\n      mstore(0x40, 0x80)\n      callvalue\n      dup1\n      iszero\n      tag_1\n      jumpi\n      0x00\n      dup1\n      revert\n    tag_1:\n      pop\n      jumpi(tag_2, lt(calldatasize, 0x04))\n      shr(0xe0, calldataload(0x00))\n      dup1\n      0xd79f017f\n      gt\n      tag_15\n      jumpi\n      dup1\n      0xd79f017f\n      eq\n      tag_9\n      jumpi\n      dup1\n      0xe184c9be\n      eq\n      tag_10\n      jumpi\n      dup1\n      0xe834a834\n      eq\n      tag_11\n      jumpi\n      dup1\n      0xf2fde38b\n      eq\n      tag_12\n      jumpi\n      dup1\n      0xf7260d3e\n      eq\n      tag_13\n      jumpi\n      dup1\n      0xfc0c546a\n      eq\n      tag_14\n      jumpi\n      jump(tag_2)\n    tag_15:\n      dup1\n      0x3ccfd60b\n      eq\n      tag_3\n      jumpi\n      dup1\n      0x557ed1ba\n      eq\n      tag_4\n      jumpi\n      dup1\n      0x715018a6\n      eq\n      tag_5\n      jumpi\n      dup1\n      0x8da5cb5b\n      eq\n      tag_6\n      jumpi\n      dup1\n      0xaa8c217c\n      eq\n      tag_7\n      jumpi\n      dup1\n      0xcf309012\n      eq\n      tag_8\n      jumpi\n    tag_2:\n      0x00\n      dup1\n      revert\n        /* \"erc1155_flattened.sol\":7926:8358  function withdraw() external {... */\n    tag_3:\n      tag_16\n      tag_17\n      jump\t// in\n    tag_16:\n      stop\n        /* \"erc1155_flattened.sol\":8364:8454  function getTime() external view returns (uint256) {... */\n    tag_4:\n      tag_18\n      tag_19\n      jump\t// in\n    tag_18:\n      mload(0x40)\n      tag_20\n      swap2\n      swap1\n      tag_21\n      jump\t// in\n    tag_20:\n      mload(0x40)\n      dup1\n      swap2\n      sub\n      swap1\n      return\n        /* \"erc1155_flattened.sol\":5958:6059  function renounceOwnership() public virtual onlyOwner {... */\n    tag_5:\n      tag_22\n      tag_23\n      jump\t// in\n    tag_22:\n      stop\n        /* \"erc1155_flattened.sol\":5303:5388  function owner() public view virtual returns (address) {... */\n    tag_6:\n      tag_24\n      tag_25\n      jump\t// in\n    tag_24:\n      mload(0x40)\n      tag_26\n      swap2\n      swap1\n      tag_27\n      jump\t// in\n    tag_26:\n      mload(0x40)\n      dup1\n      swap2\n      sub\n      swap1\n      return\n        /* \"erc1155_flattened.sol\":6913:6934  uint256 public amount */\n    tag_7:\n      tag_28\n      tag_29\n      jump\t// in\n    tag_28:\n      mload(0x40)\n      tag_30\n      swap2\n      swap1\n      tag_21\n      jump\t// in\n    tag_30:\n      mload(0x40)\n      dup1\n      swap2\n      sub\n      swap1\n      return\n        /* \"erc1155_flattened.sol\":6967:6993  bool public locked = false */\n    tag_8:\n      tag_31\n      tag_32\n      jump\t// in\n    tag_31:\n      mload(0x40)\n      tag_33\n      swap2\n      swap1\n      tag_34\n      jump\t// in\n    tag_33:\n      mload(0x40)\n      dup1\n      swap2\n      sub\n      swap1\n      return\n        /* \"erc1155_flattened.sol\":7209:7920  function locktoken(address _receiver, uint256 _amount, uint256 _expiry) external onlyOwner {... */\n    tag_9:\n      tag_35\n      0x04\n      dup1\n      calldatasize\n      sub\n      dup2\n      add\n      swap1\n      tag_36\n      swap2\n      swap1\n      tag_37\n      jump\t// in\n    tag_36:\n      tag_38\n      jump\t// in\n    tag_35:\n      stop\n        /* \"erc1155_flattened.sol\":6940:6961  uint256 public expiry */\n    tag_10:\n      tag_39\n      tag_40\n      jump\t// in\n    tag_39:\n      mload(0x40)\n      tag_41\n      swap2\n      swap1\n      tag_21\n      jump\t// in\n    tag_41:\n      mload(0x40)\n      dup1\n      swap2\n      sub\n      swap1\n      return\n        /* \"erc1155_flattened.sol\":6999:7026  bool public claimed = false */\n    tag_11:\n      tag_42\n      tag_43\n      jump\t// in\n    tag_42:\n      mload(0x40)\n      tag_44\n      swap2\n      swap1\n      tag_34\n      jump\t// in\n    tag_44:\n      mload(0x40)\n      dup1\n      swap2\n      sub\n      swap1\n      return\n        /* \"erc1155_flattened.sol\":6208:6423  function transferOwnership(address newOwner) public virtual onlyOwner {... */\n    tag_12:\n      tag_45\n      0x04\n      dup1\n      calldatasize\n      sub\n      dup2\n      add\n      swap1\n      tag_46\n      swap2\n      swap1\n      tag_47\n      jump\t// in\n    tag_46:\n      tag_48\n      jump\t// in\n    tag_45:\n      stop\n        /* \"erc1155_flattened.sol\":6884:6907  address public receiver */\n    tag_13:\n      tag_49\n      tag_50\n      jump\t// in\n    tag_49:\n      mload(0x40)\n      tag_51\n      swap2\n      swap1\n      tag_27\n      jump\t// in\n    tag_51:\n      mload(0x40)\n      dup1\n      swap2\n      sub\n      swap1\n      return\n        /* \"erc1155_flattened.sol\":6859:6878  IERC20 public token */\n    tag_14:\n      tag_52\n      tag_53\n      jump\t// in\n    tag_52:\n      mload(0x40)\n      tag_54\n      swap2\n      swap1\n      tag_55\n      jump\t// in\n    tag_54:\n      mload(0x40)\n      dup1\n      swap2\n      sub\n      swap1\n      return\n        /* \"erc1155_flattened.sol\":7926:8358  function withdraw() external {... */\n    tag_17:\n        /* \"erc1155_flattened.sol\":7973:7979  locked */\n      0x05\n      0x00\n      swap1\n      sload\n      swap1\n      0x0100\n      exp\n      swap1\n      div\n      0xff\n      and\n        /* \"erc1155_flattened.sol\":7965:8004  require(locked, \"Funds are not locked\") */\n      tag_57\n      jumpi\n      mload(0x40)\n      0x08c379a000000000000000000000000000000000000000000000000000000000\n      dup2\n      mstore\n      0x04\n      add\n      tag_58\n      swap1\n      tag_59\n      jump\t// in\n    tag_58:\n      mload(0x40)\n      dup1\n      swap2\n      sub\n      swap1\n      revert\n    tag_57:\n        /* \"erc1155_flattened.sol\":8040:8046  expiry */\n      sload(0x04)\n        /* \"erc1155_flattened.sol\":8022:8037  block.timestamp */\n      timestamp\n        /* \"erc1155_flattened.sol\":8022:8046  block.timestamp > expiry */\n      gt\n        /* \"erc1155_flattened.sol\":8014:8078  require(block.timestamp > expiry, \"Tokens are not yet unlocked\") */\n      tag_60\n      jumpi\n      mload(0x40)\n      0x08c379a000000000000000000000000000000000000000000000000000000000\n      dup2\n      mstore\n      0x04\n      add\n      tag_61\n      swap1\n      tag_62\n      jump\t// in\n    tag_61:\n      mload(0x40)\n      dup1\n      swap2\n      sub\n      swap1\n      revert\n    tag_60:\n        /* \"erc1155_flattened.sol\":8097:8104  claimed */\n      0x05\n      0x01\n      swap1\n      sload\n      swap1\n      0x0100\n      exp\n      swap1\n      div\n      0xff\n      and\n        /* \"erc1155_flattened.sol\":8096:8104  !claimed */\n      iszero\n        /* \"erc1155_flattened.sol\":8088:8141  require(!claimed, \"Tokens have already been claimed\") */\n      tag_63\n      jumpi\n      mload(0x40)\n      0x08c379a000000000000000000000000000000000000000000000000000000000\n      dup2\n      mstore\n      0x04\n      add\n      tag_64\n      swap1\n      tag_65\n      jump\t// in\n    tag_64:\n      mload(0x40)\n      dup1\n      swap2\n      sub\n      swap1\n      revert\n    tag_63:\n        /* \"erc1155_flattened.sol\":8202:8206  true */\n      0x01\n        /* \"erc1155_flattened.sol\":8192:8199  claimed */\n      0x05\n      0x01\n        /* \"erc1155_flattened.sol\":8192:8206  claimed = true */\n      0x0100\n      exp\n      dup2\n      sload\n      dup2\n      0xff\n      mul\n      not\n      and\n      swap1\n      dup4\n      iszero\n      iszero\n      mul\n      or\n      swap1\n      sstore\n      pop\n        /* \"erc1155_flattened.sol\":8293:8298  token */\n      0x01\n      0x00\n      swap1\n      sload\n      swap1\n      0x0100\n      exp\n      swap1\n      div\n      0xffffffffffffffffffffffffffffffffffffffff\n      and\n        /* \"erc1155_flattened.sol\":8293:8307  token.transfer */\n      0xffffffffffffffffffffffffffffffffffffffff\n      and\n      0xa9059cbb\n        /* \"erc1155_flattened.sol\":8308:8316  receiver */\n      0x02\n      0x00\n      swap1\n      sload\n      swap1\n      0x0100\n      exp\n      swap1\n      div\n      0xffffffffffffffffffffffffffffffffffffffff\n      and\n        /* \"erc1155_flattened.sol\":8318:8324  amount */\n      sload(0x03)\n        /* \"erc1155_flattened.sol\":8293:8325  token.transfer(receiver, amount) */\n      mload(0x40)\n      dup4\n      0xffffffff\n      and\n      0xe0\n      shl\n      dup2\n      mstore\n      0x04\n      add\n      tag_66\n      swap3\n      swap2\n      swap1\n      tag_67\n      jump\t// in\n    tag_66:\n      0x20\n      mload(0x40)\n      dup1\n      dup4\n      sub\n      dup2\n      0x00\n      dup8\n      gas\n      call\n      iszero\n      dup1\n      iszero\n      tag_69\n      jumpi\n      returndatasize\n      0x00\n      dup1\n      returndatacopy\n      revert(0x00, returndatasize)\n    tag_69:\n      pop\n      pop\n      pop\n      pop\n      mload(0x40)\n      returndatasize\n      not(0x1f)\n      0x1f\n      dup3\n      add\n      and\n      dup3\n      add\n      dup1\n      0x40\n      mstore\n      pop\n      dup2\n      add\n      swap1\n      tag_70\n      swap2\n      swap1\n      tag_71\n      jump\t// in\n    tag_70:\n        /* \"erc1155_flattened.sol\":8285:8351  require(token.transfer(receiver, amount), \"Token transfer failed\") */\n      tag_72\n      jumpi\n      mload(0x40)\n      0x08c379a000000000000000000000000000000000000000000000000000000000\n      dup2\n      mstore\n      0x04\n      add\n      tag_73\n      swap1\n      tag_74\n      jump\t// in\n    tag_73:\n      mload(0x40)\n      dup1\n      swap2\n      sub\n      swap1\n      revert\n    tag_72:\n        /* \"erc1155_flattened.sol\":7926:8358  function withdraw() external {... */\n      jump\t// out\n        /* \"erc1155_flattened.sol\":8364:8454  function getTime() external view returns (uint256) {... */\n    tag_19:\n        /* \"erc1155_flattened.sol\":8406:8413  uint256 */\n      0x00\n        /* \"erc1155_flattened.sol\":8432:8447  block.timestamp */\n      timestamp\n        /* \"erc1155_flattened.sol\":8425:8447  return block.timestamp */\n      swap1\n      pop\n        /* \"erc1155_flattened.sol\":8364:8454  function getTime() external view returns (uint256) {... */\n      swap1\n      jump\t// out\n        /* \"erc1155_flattened.sol\":5958:6059  function renounceOwnership() public virtual onlyOwner {... */\n    tag_23:\n        /* \"erc1155_flattened.sol\":5196:5209  _checkOwner() */\n      tag_77\n        /* \"erc1155_flattened.sol\":5196:5207  _checkOwner */\n      tag_78\n        /* \"erc1155_flattened.sol\":5196:5209  _checkOwner() */\n      jump\t// in\n    tag_77:\n        /* \"erc1155_flattened.sol\":6022:6052  _transferOwnership(address(0)) */\n      tag_80\n        /* \"erc1155_flattened.sol\":6049:6050  0 */\n      0x00\n        /* \"erc1155_flattened.sol\":6022:6040  _transferOwnership */\n      tag_81\n        /* \"erc1155_flattened.sol\":6022:6052  _transferOwnership(address(0)) */\n      jump\t// in\n    tag_80:\n        /* \"erc1155_flattened.sol\":5958:6059  function renounceOwnership() public virtual onlyOwner {... */\n      jump\t// out\n        /* \"erc1155_flattened.sol\":5303:5388  function owner() public view virtual returns (address) {... */\n    tag_25:\n        /* \"erc1155_flattened.sol\":5349:5356  address */\n      0x00\n        /* \"erc1155_flattened.sol\":5375:5381  _owner */\n      dup1\n      0x00\n      swap1\n      sload\n      swap1\n      0x0100\n      exp\n      swap1\n      div\n      0xffffffffffffffffffffffffffffffffffffffff\n      and\n        /* \"erc1155_flattened.sol\":5368:5381  return _owner */\n      swap1\n      pop\n        /* \"erc1155_flattened.sol\":5303:5388  function owner() public view virtual returns (address) {... */\n      swap1\n      jump\t// out\n        /* \"erc1155_flattened.sol\":6913:6934  uint256 public amount */\n    tag_29:\n      sload(0x03)\n      dup2\n      jump\t// out\n        /* \"erc1155_flattened.sol\":6967:6993  bool public locked = false */\n    tag_32:\n      0x05\n      0x00\n      swap1\n      sload\n      swap1\n      0x0100\n      exp\n      swap1\n      div\n      0xff\n      and\n      dup2\n      jump\t// out\n        /* \"erc1155_flattened.sol\":7209:7920  function locktoken(address _receiver, uint256 _amount, uint256 _expiry) external onlyOwner {... */\n    tag_38:\n        /* \"erc1155_flattened.sol\":5196:5209  _checkOwner() */\n      tag_84\n        /* \"erc1155_flattened.sol\":5196:5207  _checkOwner */\n      tag_78\n        /* \"erc1155_flattened.sol\":5196:5209  _checkOwner() */\n      jump\t// in\n    tag_84:\n        /* \"erc1155_flattened.sol\":7315:7321  locked */\n      0x05\n      0x00\n      swap1\n      sload\n      swap1\n      0x0100\n      exp\n      swap1\n      div\n      0xff\n      and\n        /* \"erc1155_flattened.sol\":7314:7321  !locked */\n      iszero\n        /* \"erc1155_flattened.sol\":7306:7350  require(!locked, \"Funds are already locked\") */\n      tag_86\n      jumpi\n      mload(0x40)\n      0x08c379a000000000000000000000000000000000000000000000000000000000\n      dup2\n      mstore\n      0x04\n      add\n      tag_87\n      swap1\n      tag_88\n      jump\t// in\n    tag_87:\n      mload(0x40)\n      dup1\n      swap2\n      sub\n      swap1\n      revert\n    tag_86:\n        /* \"erc1155_flattened.sol\":7398:7405  _amount */\n      dup2\n        /* \"erc1155_flattened.sol\":7364:7369  token */\n      0x01\n      0x00\n      swap1\n      sload\n      swap1\n      0x0100\n      exp\n      swap1\n      div\n      0xffffffffffffffffffffffffffffffffffffffff\n      and\n        /* \"erc1155_flattened.sol\":7364:7379  token.balanceOf */\n      0xffffffffffffffffffffffffffffffffffffffff\n      and\n      0x70a08231\n        /* \"erc1155_flattened.sol\":7388:7392  this */\n      address\n        /* \"erc1155_flattened.sol\":7364:7394  token.balanceOf(address(this)) */\n      mload(0x40)\n      dup3\n      0xffffffff\n      and\n      0xe0\n      shl\n      dup2\n      mstore\n      0x04\n      add\n      tag_89\n      swap2\n      swap1\n      tag_27\n      jump\t// in\n    tag_89:\n      0x20\n      mload(0x40)\n      dup1\n      dup4\n      sub\n      dup2\n      dup7\n      gas\n      staticcall\n      iszero\n      dup1\n      iszero\n      tag_91\n      jumpi\n      returndatasize\n      0x00\n      dup1\n      returndatacopy\n      revert(0x00, returndatasize)\n    tag_91:\n      pop\n      pop\n      pop\n      pop\n      mload(0x40)\n      returndatasize\n      not(0x1f)\n      0x1f\n      dup3\n      add\n      and\n      dup3\n      add\n      dup1\n      0x40\n      mstore\n      pop\n      dup2\n      add\n      swap1\n      tag_92\n      swap2\n      swap1\n      tag_93\n      jump\t// in\n    tag_92:\n        /* \"erc1155_flattened.sol\":7364:7405  token.balanceOf(address(this)) >= _amount */\n      lt\n      iszero\n        /* \"erc1155_flattened.sol\":7356:7446  require(token.balanceOf(address(this)) >= _amount, \"Insufficient balance in the contract\") */\n      tag_94\n      jumpi\n      mload(0x40)\n      0x08c379a000000000000000000000000000000000000000000000000000000000\n      dup2\n      mstore\n      0x04\n      add\n      tag_95\n      swap1\n      tag_96\n      jump\t// in\n    tag_95:\n      mload(0x40)\n      dup1\n      swap2\n      sub\n      swap1\n      revert\n    tag_94:\n        /* \"erc1155_flattened.sol\":7481:7482  0 */\n      0x00\n        /* \"erc1155_flattened.sol\":7460:7483  _receiver != address(0) */\n      0xffffffffffffffffffffffffffffffffffffffff\n      and\n        /* \"erc1155_flattened.sol\":7460:7469  _receiver */\n      dup4\n        /* \"erc1155_flattened.sol\":7460:7483  _receiver != address(0) */\n      0xffffffffffffffffffffffffffffffffffffffff\n      and\n      sub\n        /* \"erc1155_flattened.sol\":7452:7512  require(_receiver != address(0), \"Invalid receiver address\") */\n      tag_97\n      jumpi\n      mload(0x40)\n      0x08c379a000000000000000000000000000000000000000000000000000000000\n      dup2\n      mstore\n      0x04\n      add\n      tag_98\n      swap1\n      tag_99\n      jump\t// in\n    tag_98:\n      mload(0x40)\n      dup1\n      swap2\n      sub\n      swap1\n      revert\n    tag_97:\n        /* \"erc1155_flattened.sol\":7594:7603  _receiver */\n      dup3\n        /* \"erc1155_flattened.sol\":7583:7591  receiver */\n      0x02\n      0x00\n        /* \"erc1155_flattened.sol\":7583:7603  receiver = _receiver */\n      0x0100\n      exp\n      dup2\n      sload\n      dup2\n      0xffffffffffffffffffffffffffffffffffffffff\n      mul\n      not\n      and\n      swap1\n      dup4\n      0xffffffffffffffffffffffffffffffffffffffff\n      and\n      mul\n      or\n      swap1\n      sstore\n      pop\n        /* \"erc1155_flattened.sol\":7618:7625  _amount */\n      dup2\n        /* \"erc1155_flattened.sol\":7609:7615  amount */\n      0x03\n        /* \"erc1155_flattened.sol\":7609:7625  amount = _amount */\n      dup2\n      swap1\n      sstore\n      pop\n        /* \"erc1155_flattened.sol\":7658:7665  _expiry */\n      dup1\n        /* \"erc1155_flattened.sol\":7640:7655  block.timestamp */\n      timestamp\n        /* \"erc1155_flattened.sol\":7640:7665  block.timestamp + _expiry */\n      tag_100\n      swap2\n      swap1\n      tag_101\n      jump\t// in\n    tag_100:\n        /* \"erc1155_flattened.sol\":7631:7637  expiry */\n      0x04\n        /* \"erc1155_flattened.sol\":7631:7665  expiry = block.timestamp + _expiry */\n      dup2\n      swap1\n      sstore\n      pop\n        /* \"erc1155_flattened.sol\":7680:7684  true */\n      0x01\n        /* \"erc1155_flattened.sol\":7671:7677  locked */\n      0x05\n      0x00\n        /* \"erc1155_flattened.sol\":7671:7684  locked = true */\n      0x0100\n      exp\n      dup2\n      sload\n      dup2\n      0xff\n      mul\n      not\n      and\n      swap1\n      dup4\n      iszero\n      iszero\n      mul\n      or\n      swap1\n      sstore\n      pop\n        /* \"erc1155_flattened.sol\":7763:7768  token */\n      0x01\n      0x00\n      swap1\n      sload\n      swap1\n      0x0100\n      exp\n      swap1\n      div\n      0xffffffffffffffffffffffffffffffffffffffff\n      and\n        /* \"erc1155_flattened.sol\":7763:7781  token.transferFrom */\n      0xffffffffffffffffffffffffffffffffffffffff\n      and\n      0x23b872dd\n        /* \"erc1155_flattened.sol\":7782:7792  msg.sender */\n      caller\n        /* \"erc1155_flattened.sol\":7802:7806  this */\n      address\n        /* \"erc1155_flattened.sol\":7809:7816  _amount */\n      dup6\n        /* \"erc1155_flattened.sol\":7763:7817  token.transferFrom(msg.sender, address(this), _amount) */\n      mload(0x40)\n      dup5\n      0xffffffff\n      and\n      0xe0\n      shl\n      dup2\n      mstore\n      0x04\n      add\n      tag_102\n      swap4\n      swap3\n      swap2\n      swap1\n      tag_103\n      jump\t// in\n    tag_102:\n      0x20\n      mload(0x40)\n      dup1\n      dup4\n      sub\n      dup2\n      0x00\n      dup8\n      gas\n      call\n      iszero\n      dup1\n      iszero\n      tag_105\n      jumpi\n      returndatasize\n      0x00\n      dup1\n      returndatacopy\n      revert(0x00, returndatasize)\n    tag_105:\n      pop\n      pop\n      pop\n      pop\n      mload(0x40)\n      returndatasize\n      not(0x1f)\n      0x1f\n      dup3\n      add\n      and\n      dup3\n      add\n      dup1\n      0x40\n      mstore\n      pop\n      dup2\n      add\n      swap1\n      tag_106\n      swap2\n      swap1\n      tag_71\n      jump\t// in\n    tag_106:\n        /* \"erc1155_flattened.sol\":7755:7843  require(token.transferFrom(msg.sender, address(this), _amount), \"Token transfer failed\") */\n      tag_107\n      jumpi\n      mload(0x40)\n      0x08c379a000000000000000000000000000000000000000000000000000000000\n      dup2\n      mstore\n      0x04\n      add\n      tag_108\n      swap1\n      tag_74\n      jump\t// in\n    tag_108:\n      mload(0x40)\n      dup1\n      swap2\n      sub\n      swap1\n      revert\n    tag_107:\n        /* \"erc1155_flattened.sol\":7890:7899  _receiver */\n      dup3\n        /* \"erc1155_flattened.sol\":7877:7917  TokensLocked(_receiver, _amount, expiry) */\n      0xffffffffffffffffffffffffffffffffffffffff\n      and\n      0xd741e738a23fd18a03a26522320d9fc6cac1fed483e215ea9150fbc2fc43385d\n        /* \"erc1155_flattened.sol\":7901:7908  _amount */\n      dup4\n        /* \"erc1155_flattened.sol\":7910:7916  expiry */\n      sload(0x04)\n        /* \"erc1155_flattened.sol\":7877:7917  TokensLocked(_receiver, _amount, expiry) */\n      mload(0x40)\n      tag_109\n      swap3\n      swap2\n      swap1\n      tag_110\n      jump\t// in\n    tag_109:\n      mload(0x40)\n      dup1\n      swap2\n      sub\n      swap1\n      log2\n        /* \"erc1155_flattened.sol\":7209:7920  function locktoken(address _receiver, uint256 _amount, uint256 _expiry) external onlyOwner {... */\n      pop\n      pop\n      pop\n      jump\t// out\n        /* \"erc1155_flattened.sol\":6940:6961  uint256 public expiry */\n    tag_40:\n      sload(0x04)\n      dup2\n      jump\t// out\n        /* \"erc1155_flattened.sol\":6999:7026  bool public claimed = false */\n    tag_43:\n      0x05\n      0x01\n      swap1\n      sload\n      swap1\n      0x0100\n      exp\n      swap1\n      div\n      0xff\n      and\n      dup2\n      jump\t// out\n        /* \"erc1155_flattened.sol\":6208:6423  function transferOwnership(address newOwner) public virtual onlyOwner {... */\n    tag_48:\n        /* \"erc1155_flattened.sol\":5196:5209  _checkOwner() */\n      tag_112\n        /* \"erc1155_flattened.sol\":5196:5207  _checkOwner */\n      tag_78\n        /* \"erc1155_flattened.sol\":5196:5209  _checkOwner() */\n      jump\t// in\n    tag_112:\n        /* \"erc1155_flattened.sol\":6312:6313  0 */\n      0x00\n        /* \"erc1155_flattened.sol\":6292:6314  newOwner == address(0) */\n      0xffffffffffffffffffffffffffffffffffffffff\n      and\n        /* \"erc1155_flattened.sol\":6292:6300  newOwner */\n      dup2\n        /* \"erc1155_flattened.sol\":6292:6314  newOwner == address(0) */\n      0xffffffffffffffffffffffffffffffffffffffff\n      and\n      sub\n        /* \"erc1155_flattened.sol\":6288:6379  if (newOwner == address(0)) {... */\n      tag_114\n      jumpi\n        /* \"erc1155_flattened.sol\":6365:6366  0 */\n      0x00\n        /* \"erc1155_flattened.sol\":6337:6368  OwnableInvalidOwner(address(0)) */\n      mload(0x40)\n      0x1e4fbdf700000000000000000000000000000000000000000000000000000000\n      dup2\n      mstore\n      0x04\n      add\n      tag_115\n      swap2\n      swap1\n      tag_27\n      jump\t// in\n    tag_115:\n      mload(0x40)\n      dup1\n      swap2\n      sub\n      swap1\n      revert\n        /* \"erc1155_flattened.sol\":6288:6379  if (newOwner == address(0)) {... */\n    tag_114:\n        /* \"erc1155_flattened.sol\":6388:6416  _transferOwnership(newOwner) */\n      tag_116\n        /* \"erc1155_flattened.sol\":6407:6415  newOwner */\n      dup2\n        /* \"erc1155_flattened.sol\":6388:6406  _transferOwnership */\n      tag_81\n        /* \"erc1155_flattened.sol\":6388:6416  _transferOwnership(newOwner) */\n      jump\t// in\n    tag_116:\n        /* \"erc1155_flattened.sol\":6208:6423  function transferOwnership(address newOwner) public virtual onlyOwner {... */\n      pop\n      jump\t// out\n        /* \"erc1155_flattened.sol\":6884:6907  address public receiver */\n    tag_50:\n      0x02\n      0x00\n      swap1\n      sload\n      swap1\n      0x0100\n      exp\n      swap1\n      div\n      0xffffffffffffffffffffffffffffffffffffffff\n      and\n      dup2\n      jump\t// out\n        /* \"erc1155_flattened.sol\":6859:6878  IERC20 public token */\n    tag_53:\n      0x01\n      0x00\n      swap1\n      sload\n      swap1\n      0x0100\n      exp\n      swap1\n      div\n      0xffffffffffffffffffffffffffffffffffffffff\n      and\n      dup2\n      jump\t// out\n        /* \"erc1155_flattened.sol\":5461:5623  function _checkOwner() internal view virtual {... */\n    tag_78:\n        /* \"erc1155_flattened.sol\":5531:5543  _msgSender() */\n      tag_118\n        /* \"erc1155_flattened.sol\":5531:5541  _msgSender */\n      tag_119\n        /* \"erc1155_flattened.sol\":5531:5543  _msgSender() */\n      jump\t// in\n    tag_118:\n        /* \"erc1155_flattened.sol\":5520:5543  owner() != _msgSender() */\n      0xffffffffffffffffffffffffffffffffffffffff\n      and\n        /* \"erc1155_flattened.sol\":5520:5527  owner() */\n      tag_120\n        /* \"erc1155_flattened.sol\":5520:5525  owner */\n      tag_25\n        /* \"erc1155_flattened.sol\":5520:5527  owner() */\n      jump\t// in\n    tag_120:\n        /* \"erc1155_flattened.sol\":5520:5543  owner() != _msgSender() */\n      0xffffffffffffffffffffffffffffffffffffffff\n      and\n      eq\n        /* \"erc1155_flattened.sol\":5516:5617  if (owner() != _msgSender()) {... */\n      tag_121\n      jumpi\n        /* \"erc1155_flattened.sol\":5593:5605  _msgSender() */\n      tag_122\n        /* \"erc1155_flattened.sol\":5593:5603  _msgSender */\n      tag_119\n        /* \"erc1155_flattened.sol\":5593:5605  _msgSender() */\n      jump\t// in\n    tag_122:\n        /* \"erc1155_flattened.sol\":5566:5606  OwnableUnauthorizedAccount(_msgSender()) */\n      mload(0x40)\n      0x118cdaa700000000000000000000000000000000000000000000000000000000\n      dup2\n      mstore\n      0x04\n      add\n      tag_123\n      swap2\n      swap1\n      tag_27\n      jump\t// in\n    tag_123:\n      mload(0x40)\n      dup1\n      swap2\n      sub\n      swap1\n      revert\n        /* \"erc1155_flattened.sol\":5516:5617  if (owner() != _msgSender()) {... */\n    tag_121:\n        /* \"erc1155_flattened.sol\":5461:5623  function _checkOwner() internal view virtual {... */\n      jump\t// out\n        /* \"erc1155_flattened.sol\":6577:6764  function _transferOwnership(address newOwner) internal virtual {... */\n    tag_81:\n        /* \"erc1155_flattened.sol\":6650:6666  address oldOwner */\n      0x00\n        /* \"erc1155_flattened.sol\":6669:6675  _owner */\n      dup1\n      0x00\n      swap1\n      sload\n      swap1\n      0x0100\n      exp\n      swap1\n      div\n      0xffffffffffffffffffffffffffffffffffffffff\n      and\n        /* \"erc1155_flattened.sol\":6650:6675  address oldOwner = _owner */\n      swap1\n      pop\n        /* \"erc1155_flattened.sol\":6694:6702  newOwner */\n      dup2\n        /* \"erc1155_flattened.sol\":6685:6691  _owner */\n      0x00\n      dup1\n        /* \"erc1155_flattened.sol\":6685:6702  _owner = newOwner */\n      0x0100\n      exp\n      dup2\n      sload\n      dup2\n      0xffffffffffffffffffffffffffffffffffffffff\n      mul\n      not\n      and\n      swap1\n      dup4\n      0xffffffffffffffffffffffffffffffffffffffff\n      and\n      mul\n      or\n      swap1\n      sstore\n      pop\n        /* \"erc1155_flattened.sol\":6748:6756  newOwner */\n      dup2\n        /* \"erc1155_flattened.sol\":6717:6757  OwnershipTransferred(oldOwner, newOwner) */\n      0xffffffffffffffffffffffffffffffffffffffff\n      and\n        /* \"erc1155_flattened.sol\":6738:6746  oldOwner */\n      dup2\n        /* \"erc1155_flattened.sol\":6717:6757  OwnershipTransferred(oldOwner, newOwner) */\n      0xffffffffffffffffffffffffffffffffffffffff\n      and\n      0x8be0079c531659141344cd1fd0a4f28419497f9722a3daafe3b4186f6b6457e0\n      mload(0x40)\n      mload(0x40)\n      dup1\n      swap2\n      sub\n      swap1\n      log3\n        /* \"erc1155_flattened.sol\":6640:6764  {... */\n      pop\n        /* \"erc1155_flattened.sol\":6577:6764  function _transferOwnership(address newOwner) internal virtual {... */\n      pop\n      jump\t// out\n        /* \"erc1155_flattened.sol\":3484:3580  function _msgSender() internal view virtual returns (address) {... */\n    tag_119:\n        /* \"erc1155_flattened.sol\":3537:3544  address */\n      0x00\n        /* \"erc1155_flattened.sol\":3563:3573  msg.sender */\n      caller\n        /* \"erc1155_flattened.sol\":3556:3573  return msg.sender */\n      swap1\n      pop\n        /* \"erc1155_flattened.sol\":3484:3580  function _msgSender() internal view virtual returns (address) {... */\n      swap1\n      jump\t// out\n        /* \"#utility.yul\":7:84   */\n    tag_126:\n        /* \"#utility.yul\":44:51   */\n      0x00\n        /* \"#utility.yul\":73:78   */\n      dup2\n        /* \"#utility.yul\":62:78   */\n      swap1\n      pop\n        /* \"#utility.yul\":7:84   */\n      swap2\n      swap1\n      pop\n      jump\t// out\n        /* \"#utility.yul\":90:208   */\n    tag_127:\n        /* \"#utility.yul\":177:201   */\n      tag_167\n        /* \"#utility.yul\":195:200   */\n      dup2\n        /* \"#utility.yul\":177:201   */\n      tag_126\n      jump\t// in\n    tag_167:\n        /* \"#utility.yul\":172:175   */\n      dup3\n        /* \"#utility.yul\":165:202   */\n      mstore\n        /* \"#utility.yul\":90:208   */\n      pop\n      pop\n      jump\t// out\n        /* \"#utility.yul\":214:436   */\n    tag_21:\n        /* \"#utility.yul\":307:311   */\n      0x00\n        /* \"#utility.yul\":345:347   */\n      0x20\n        /* \"#utility.yul\":334:343   */\n      dup3\n        /* \"#utility.yul\":330:348   */\n      add\n        /* \"#utility.yul\":322:348   */\n      swap1\n      pop\n        /* \"#utility.yul\":358:429   */\n      tag_169\n        /* \"#utility.yul\":426:427   */\n      0x00\n        /* \"#utility.yul\":415:424   */\n      dup4\n        /* \"#utility.yul\":411:428   */\n      add\n        /* \"#utility.yul\":402:408   */\n      dup5\n        /* \"#utility.yul\":358:429   */\n      tag_127\n      jump\t// in\n    tag_169:\n        /* \"#utility.yul\":214:436   */\n      swap3\n      swap2\n      pop\n      pop\n      jump\t// out\n        /* \"#utility.yul\":442:568   */\n    tag_128:\n        /* \"#utility.yul\":479:486   */\n      0x00\n        /* \"#utility.yul\":519:561   */\n      0xffffffffffffffffffffffffffffffffffffffff\n        /* \"#utility.yul\":512:517   */\n      dup3\n        /* \"#utility.yul\":508:562   */\n      and\n        /* \"#utility.yul\":497:562   */\n      swap1\n      pop\n        /* \"#utility.yul\":442:568   */\n      swap2\n      swap1\n      pop\n      jump\t// out\n        /* \"#utility.yul\":574:670   */\n    tag_129:\n        /* \"#utility.yul\":611:618   */\n      0x00\n        /* \"#utility.yul\":640:664   */\n      tag_172\n        /* \"#utility.yul\":658:663   */\n      dup3\n        /* \"#utility.yul\":640:664   */\n      tag_128\n      jump\t// in\n    tag_172:\n        /* \"#utility.yul\":629:664   */\n      swap1\n      pop\n        /* \"#utility.yul\":574:670   */\n      swap2\n      swap1\n      pop\n      jump\t// out\n        /* \"#utility.yul\":676:794   */\n    tag_130:\n        /* \"#utility.yul\":763:787   */\n      tag_174\n        /* \"#utility.yul\":781:786   */\n      dup2\n        /* \"#utility.yul\":763:787   */\n      tag_129\n      jump\t// in\n    tag_174:\n        /* \"#utility.yul\":758:761   */\n      dup3\n        /* \"#utility.yul\":751:788   */\n      mstore\n        /* \"#utility.yul\":676:794   */\n      pop\n      pop\n      jump\t// out\n        /* \"#utility.yul\":800:1022   */\n    tag_27:\n        /* \"#utility.yul\":893:897   */\n      0x00\n        /* \"#utility.yul\":931:933   */\n      0x20\n        /* \"#utility.yul\":920:929   */\n      dup3\n        /* \"#utility.yul\":916:934   */\n      add\n        /* \"#utility.yul\":908:934   */\n      swap1\n      pop\n        /* \"#utility.yul\":944:1015   */\n      tag_176\n        /* \"#utility.yul\":1012:1013   */\n      0x00\n        /* \"#utility.yul\":1001:1010   */\n      dup4\n        /* \"#utility.yul\":997:1014   */\n      add\n        /* \"#utility.yul\":988:994   */\n      dup5\n        /* \"#utility.yul\":944:1015   */\n      tag_130\n      jump\t// in\n    tag_176:\n        /* \"#utility.yul\":800:1022   */\n      swap3\n      swap2\n      pop\n      pop\n      jump\t// out\n        /* \"#utility.yul\":1028:1118   */\n    tag_131:\n        /* \"#utility.yul\":1062:1069   */\n      0x00\n        /* \"#utility.yul\":1105:1110   */\n      dup2\n        /* \"#utility.yul\":1098:1111   */\n      iszero\n        /* \"#utility.yul\":1091:1112   */\n      iszero\n        /* \"#utility.yul\":1080:1112   */\n      swap1\n      pop\n        /* \"#utility.yul\":1028:1118   */\n      swap2\n      swap1\n      pop\n      jump\t// out\n        /* \"#utility.yul\":1124:1233   */\n    tag_132:\n        /* \"#utility.yul\":1205:1226   */\n      tag_179\n        /* \"#utility.yul\":1220:1225   */\n      dup2\n        /* \"#utility.yul\":1205:1226   */\n      tag_131\n      jump\t// in\n    tag_179:\n        /* \"#utility.yul\":1200:1203   */\n      dup3\n        /* \"#utility.yul\":1193:1227   */\n      mstore\n        /* \"#utility.yul\":1124:1233   */\n      pop\n      pop\n      jump\t// out\n        /* \"#utility.yul\":1239:1449   */\n    tag_34:\n        /* \"#utility.yul\":1326:1330   */\n      0x00\n        /* \"#utility.yul\":1364:1366   */\n      0x20\n        /* \"#utility.yul\":1353:1362   */\n      dup3\n        /* \"#utility.yul\":1349:1367   */\n      add\n        /* \"#utility.yul\":1341:1367   */\n      swap1\n      pop\n        /* \"#utility.yul\":1377:1442   */\n      tag_181\n        /* \"#utility.yul\":1439:1440   */\n      0x00\n        /* \"#utility.yul\":1428:1437   */\n      dup4\n        /* \"#utility.yul\":1424:1441   */\n      add\n        /* \"#utility.yul\":1415:1421   */\n      dup5\n        /* \"#utility.yul\":1377:1442   */\n      tag_132\n      jump\t// in\n    tag_181:\n        /* \"#utility.yul\":1239:1449   */\n      swap3\n      swap2\n      pop\n      pop\n      jump\t// out\n        /* \"#utility.yul\":1536:1653   */\n    tag_134:\n        /* \"#utility.yul\":1645:1646   */\n      0x00\n        /* \"#utility.yul\":1642:1643   */\n      dup1\n        /* \"#utility.yul\":1635:1647   */\n      revert\n        /* \"#utility.yul\":1782:1904   */\n    tag_136:\n        /* \"#utility.yul\":1855:1879   */\n      tag_186\n        /* \"#utility.yul\":1873:1878   */\n      dup2\n        /* \"#utility.yul\":1855:1879   */\n      tag_129\n      jump\t// in\n    tag_186:\n        /* \"#utility.yul\":1848:1853   */\n      dup2\n        /* \"#utility.yul\":1845:1880   */\n      eq\n        /* \"#utility.yul\":1835:1898   */\n      tag_187\n      jumpi\n        /* \"#utility.yul\":1894:1895   */\n      0x00\n        /* \"#utility.yul\":1891:1892   */\n      dup1\n        /* \"#utility.yul\":1884:1896   */\n      revert\n        /* \"#utility.yul\":1835:1898   */\n    tag_187:\n        /* \"#utility.yul\":1782:1904   */\n      pop\n      jump\t// out\n        /* \"#utility.yul\":1910:2049   */\n    tag_137:\n        /* \"#utility.yul\":1956:1961   */\n      0x00\n        /* \"#utility.yul\":1994:2000   */\n      dup2\n        /* \"#utility.yul\":1981:2001   */\n      calldataload\n        /* \"#utility.yul\":1972:2001   */\n      swap1\n      pop\n        /* \"#utility.yul\":2010:2043   */\n      tag_189\n        /* \"#utility.yul\":2037:2042   */\n      dup2\n        /* \"#utility.yul\":2010:2043   */\n      tag_136\n      jump\t// in\n    tag_189:\n        /* \"#utility.yul\":1910:2049   */\n      swap3\n      swap2\n      pop\n      pop\n      jump\t// out\n        /* \"#utility.yul\":2055:2177   */\n    tag_138:\n        /* \"#utility.yul\":2128:2152   */\n      tag_191\n        /* \"#utility.yul\":2146:2151   */\n      dup2\n        /* \"#utility.yul\":2128:2152   */\n      tag_126\n      jump\t// in\n    tag_191:\n        /* \"#utility.yul\":2121:2126   */\n      dup2\n        /* \"#utility.yul\":2118:2153   */\n      eq\n        /* \"#utility.yul\":2108:2171   */\n      tag_192\n      jumpi\n        /* \"#utility.yul\":2167:2168   */\n      0x00\n        /* \"#utility.yul\":2164:2165   */\n      dup1\n        /* \"#utility.yul\":2157:2169   */\n      revert\n        /* \"#utility.yul\":2108:2171   */\n    tag_192:\n        /* \"#utility.yul\":2055:2177   */\n      pop\n      jump\t// out\n        /* \"#utility.yul\":2183:2322   */\n    tag_139:\n        /* \"#utility.yul\":2229:2234   */\n      0x00\n        /* \"#utility.yul\":2267:2273   */\n      dup2\n        /* \"#utility.yul\":2254:2274   */\n      calldataload\n        /* \"#utility.yul\":2245:2274   */\n      swap1\n      pop\n        /* \"#utility.yul\":2283:2316   */\n      tag_194\n        /* \"#utility.yul\":2310:2315   */\n      dup2\n        /* \"#utility.yul\":2283:2316   */\n      tag_138\n      jump\t// in\n    tag_194:\n        /* \"#utility.yul\":2183:2322   */\n      swap3\n      swap2\n      pop\n      pop\n      jump\t// out\n        /* \"#utility.yul\":2328:2947   */\n    tag_37:\n        /* \"#utility.yul\":2405:2411   */\n      0x00\n        /* \"#utility.yul\":2413:2419   */\n      dup1\n        /* \"#utility.yul\":2421:2427   */\n      0x00\n        /* \"#utility.yul\":2470:2472   */\n      0x60\n        /* \"#utility.yul\":2458:2467   */\n      dup5\n        /* \"#utility.yul\":2449:2456   */\n      dup7\n        /* \"#utility.yul\":2445:2468   */\n      sub\n        /* \"#utility.yul\":2441:2473   */\n      slt\n        /* \"#utility.yul\":2438:2557   */\n      iszero\n      tag_196\n      jumpi\n        /* \"#utility.yul\":2476:2555   */\n      tag_197\n      tag_134\n      jump\t// in\n    tag_197:\n        /* \"#utility.yul\":2438:2557   */\n    tag_196:\n        /* \"#utility.yul\":2596:2597   */\n      0x00\n        /* \"#utility.yul\":2621:2674   */\n      tag_198\n        /* \"#utility.yul\":2666:2673   */\n      dup7\n        /* \"#utility.yul\":2657:2663   */\n      dup3\n        /* \"#utility.yul\":2646:2655   */\n      dup8\n        /* \"#utility.yul\":2642:2664   */\n      add\n        /* \"#utility.yul\":2621:2674   */\n      tag_137\n      jump\t// in\n    tag_198:\n        /* \"#utility.yul\":2611:2674   */\n      swap4\n      pop\n        /* \"#utility.yul\":2567:2684   */\n      pop\n        /* \"#utility.yul\":2723:2725   */\n      0x20\n        /* \"#utility.yul\":2749:2802   */\n      tag_199\n        /* \"#utility.yul\":2794:2801   */\n      dup7\n        /* \"#utility.yul\":2785:2791   */\n      dup3\n        /* \"#utility.yul\":2774:2783   */\n      dup8\n        /* \"#utility.yul\":2770:2792   */\n      add\n        /* \"#utility.yul\":2749:2802   */\n      tag_139\n      jump\t// in\n    tag_199:\n        /* \"#utility.yul\":2739:2802   */\n      swap3\n      pop\n        /* \"#utility.yul\":2694:2812   */\n      pop\n        /* \"#utility.yul\":2851:2853   */\n      0x40\n        /* \"#utility.yul\":2877:2930   */\n      tag_200\n        /* \"#utility.yul\":2922:2929   */\n      dup7\n        /* \"#utility.yul\":2913:2919   */\n      dup3\n        /* \"#utility.yul\":2902:2911   */\n      dup8\n        /* \"#utility.yul\":2898:2920   */\n      add\n        /* \"#utility.yul\":2877:2930   */\n      tag_139\n      jump\t// in\n    tag_200:\n        /* \"#utility.yul\":2867:2930   */\n      swap2\n      pop\n        /* \"#utility.yul\":2822:2940   */\n      pop\n        /* \"#utility.yul\":2328:2947   */\n      swap3\n      pop\n      swap3\n      pop\n      swap3\n      jump\t// out\n        /* \"#utility.yul\":2953:3282   */\n    tag_47:\n        /* \"#utility.yul\":3012:3018   */\n      0x00\n        /* \"#utility.yul\":3061:3063   */\n      0x20\n        /* \"#utility.yul\":3049:3058   */\n      dup3\n        /* \"#utility.yul\":3040:3047   */\n      dup5\n        /* \"#utility.yul\":3036:3059   */\n      sub\n        /* \"#utility.yul\":3032:3064   */\n      slt\n        /* \"#utility.yul\":3029:3148   */\n      iszero\n      tag_202\n      jumpi\n        /* \"#utility.yul\":3067:3146   */\n      tag_203\n      tag_134\n      jump\t// in\n    tag_203:\n        /* \"#utility.yul\":3029:3148   */\n    tag_202:\n        /* \"#utility.yul\":3187:3188   */\n      0x00\n        /* \"#utility.yul\":3212:3265   */\n      tag_204\n        /* \"#utility.yul\":3257:3264   */\n      dup5\n        /* \"#utility.yul\":3248:3254   */\n      dup3\n        /* \"#utility.yul\":3237:3246   */\n      dup6\n        /* \"#utility.yul\":3233:3255   */\n      add\n        /* \"#utility.yul\":3212:3265   */\n      tag_137\n      jump\t// in\n    tag_204:\n        /* \"#utility.yul\":3202:3265   */\n      swap2\n      pop\n        /* \"#utility.yul\":3158:3275   */\n      pop\n        /* \"#utility.yul\":2953:3282   */\n      swap3\n      swap2\n      pop\n      pop\n      jump\t// out\n        /* \"#utility.yul\":3288:3348   */\n    tag_140:\n        /* \"#utility.yul\":3316:3319   */\n      0x00\n        /* \"#utility.yul\":3337:3342   */\n      dup2\n        /* \"#utility.yul\":3330:3342   */\n      swap1\n      pop\n        /* \"#utility.yul\":3288:3348   */\n      swap2\n      swap1\n      pop\n      jump\t// out\n        /* \"#utility.yul\":3354:3496   */\n    tag_141:\n        /* \"#utility.yul\":3404:3413   */\n      0x00\n        /* \"#utility.yul\":3437:3490   */\n      tag_207\n        /* \"#utility.yul\":3455:3489   */\n      tag_208\n        /* \"#utility.yul\":3464:3488   */\n      tag_209\n        /* \"#utility.yul\":3482:3487   */\n      dup5\n        /* \"#utility.yul\":3464:3488   */\n      tag_128\n      jump\t// in\n    tag_209:\n        /* \"#utility.yul\":3455:3489   */\n      tag_140\n      jump\t// in\n    tag_208:\n        /* \"#utility.yul\":3437:3490   */\n      tag_128\n      jump\t// in\n    tag_207:\n        /* \"#utility.yul\":3424:3490   */\n      swap1\n      pop\n        /* \"#utility.yul\":3354:3496   */\n      swap2\n      swap1\n      pop\n      jump\t// out\n        /* \"#utility.yul\":3502:3628   */\n    tag_142:\n        /* \"#utility.yul\":3552:3561   */\n      0x00\n        /* \"#utility.yul\":3585:3622   */\n      tag_211\n        /* \"#utility.yul\":3616:3621   */\n      dup3\n        /* \"#utility.yul\":3585:3622   */\n      tag_141\n      jump\t// in\n    tag_211:\n        /* \"#utility.yul\":3572:3622   */\n      swap1\n      pop\n        /* \"#utility.yul\":3502:3628   */\n      swap2\n      swap1\n      pop\n      jump\t// out\n        /* \"#utility.yul\":3634:3773   */\n    tag_143:\n        /* \"#utility.yul\":3697:3706   */\n      0x00\n        /* \"#utility.yul\":3730:3767   */\n      tag_213\n        /* \"#utility.yul\":3761:3766   */\n      dup3\n        /* \"#utility.yul\":3730:3767   */\n      tag_142\n      jump\t// in\n    tag_213:\n        /* \"#utility.yul\":3717:3767   */\n      swap1\n      pop\n        /* \"#utility.yul\":3634:3773   */\n      swap2\n      swap1\n      pop\n      jump\t// out\n        /* \"#utility.yul\":3779:3936   */\n    tag_144:\n        /* \"#utility.yul\":3879:3929   */\n      tag_215\n        /* \"#utility.yul\":3923:3928   */\n      dup2\n        /* \"#utility.yul\":3879:3929   */\n      tag_143\n      jump\t// in\n    tag_215:\n        /* \"#utility.yul\":3874:3877   */\n      dup3\n        /* \"#utility.yul\":3867:3930   */\n      mstore\n        /* \"#utility.yul\":3779:3936   */\n      pop\n      pop\n      jump\t// out\n        /* \"#utility.yul\":3942:4190   */\n    tag_55:\n        /* \"#utility.yul\":4048:4052   */\n      0x00\n        /* \"#utility.yul\":4086:4088   */\n      0x20\n        /* \"#utility.yul\":4075:4084   */\n      dup3\n        /* \"#utility.yul\":4071:4089   */\n      add\n        /* \"#utility.yul\":4063:4089   */\n      swap1\n      pop\n        /* \"#utility.yul\":4099:4183   */\n      tag_217\n        /* \"#utility.yul\":4180:4181   */\n      0x00\n        /* \"#utility.yul\":4169:4178   */\n      dup4\n        /* \"#utility.yul\":4165:4182   */\n      add\n        /* \"#utility.yul\":4156:4162   */\n      dup5\n        /* \"#utility.yul\":4099:4183   */\n      tag_144\n      jump\t// in\n    tag_217:\n        /* \"#utility.yul\":3942:4190   */\n      swap3\n      swap2\n      pop\n      pop\n      jump\t// out\n        /* \"#utility.yul\":4196:4365   */\n    tag_145:\n        /* \"#utility.yul\":4280:4291   */\n      0x00\n        /* \"#utility.yul\":4314:4320   */\n      dup3\n        /* \"#utility.yul\":4309:4312   */\n      dup3\n        /* \"#utility.yul\":4302:4321   */\n      mstore\n        /* \"#utility.yul\":4354:4358   */\n      0x20\n        /* \"#utility.yul\":4349:4352   */\n      dup3\n        /* \"#utility.yul\":4345:4359   */\n      add\n        /* \"#utility.yul\":4330:4359   */\n      swap1\n      pop\n        /* \"#utility.yul\":4196:4365   */\n      swap3\n      swap2\n      pop\n      pop\n      jump\t// out\n        /* \"#utility.yul\":4371:4541   */\n    tag_146:\n        /* \"#utility.yul\":4511:4533   */\n      0x46756e647320617265206e6f74206c6f636b6564000000000000000000000000\n        /* \"#utility.yul\":4507:4508   */\n      0x00\n        /* \"#utility.yul\":4499:4505   */\n      dup3\n        /* \"#utility.yul\":4495:4509   */\n      add\n        /* \"#utility.yul\":4488:4534   */\n      mstore\n        /* \"#utility.yul\":4371:4541   */\n      pop\n      jump\t// out\n        /* \"#utility.yul\":4547:4913   */\n    tag_147:\n        /* \"#utility.yul\":4689:4692   */\n      0x00\n        /* \"#utility.yul\":4710:4777   */\n      tag_221\n        /* \"#utility.yul\":4774:4776   */\n      0x14\n        /* \"#utility.yul\":4769:4772   */\n      dup4\n        /* \"#utility.yul\":4710:4777   */\n      tag_145\n      jump\t// in\n    tag_221:\n        /* \"#utility.yul\":4703:4777   */\n      swap2\n      pop\n        /* \"#utility.yul\":4786:4879   */\n      tag_222\n        /* \"#utility.yul\":4875:4878   */\n      dup3\n        /* \"#utility.yul\":4786:4879   */\n      tag_146\n      jump\t// in\n    tag_222:\n        /* \"#utility.yul\":4904:4906   */\n      0x20\n        /* \"#utility.yul\":4899:4902   */\n      dup3\n        /* \"#utility.yul\":4895:4907   */\n      add\n        /* \"#utility.yul\":4888:4907   */\n      swap1\n      pop\n        /* \"#utility.yul\":4547:4913   */\n      swap2\n      swap1\n      pop\n      jump\t// out\n        /* \"#utility.yul\":4919:5338   */\n    tag_59:\n        /* \"#utility.yul\":5085:5089   */\n      0x00\n        /* \"#utility.yul\":5123:5125   */\n      0x20\n        /* \"#utility.yul\":5112:5121   */\n      dup3\n        /* \"#utility.yul\":5108:5126   */\n      add\n        /* \"#utility.yul\":5100:5126   */\n      swap1\n      pop\n        /* \"#utility.yul\":5172:5181   */\n      dup2\n        /* \"#utility.yul\":5166:5170   */\n      dup2\n        /* \"#utility.yul\":5162:5182   */\n      sub\n        /* \"#utility.yul\":5158:5159   */\n      0x00\n        /* \"#utility.yul\":5147:5156   */\n      dup4\n        /* \"#utility.yul\":5143:5160   */\n      add\n        /* \"#utility.yul\":5136:5183   */\n      mstore\n        /* \"#utility.yul\":5200:5331   */\n      tag_224\n        /* \"#utility.yul\":5326:5330   */\n      dup2\n        /* \"#utility.yul\":5200:5331   */\n      tag_147\n      jump\t// in\n    tag_224:\n        /* \"#utility.yul\":5192:5331   */\n      swap1\n      pop\n        /* \"#utility.yul\":4919:5338   */\n      swap2\n      swap1\n      pop\n      jump\t// out\n        /* \"#utility.yul\":5344:5521   */\n    tag_148:\n        /* \"#utility.yul\":5484:5513   */\n      0x546f6b656e7320617265206e6f742079657420756e6c6f636b65640000000000\n        /* \"#utility.yul\":5480:5481   */\n      0x00\n        /* \"#utility.yul\":5472:5478   */\n      dup3\n        /* \"#utility.yul\":5468:5482   */\n      add\n        /* \"#utility.yul\":5461:5514   */\n      mstore\n        /* \"#utility.yul\":5344:5521   */\n      pop\n      jump\t// out\n        /* \"#utility.yul\":5527:5893   */\n    tag_149:\n        /* \"#utility.yul\":5669:5672   */\n      0x00\n        /* \"#utility.yul\":5690:5757   */\n      tag_227\n        /* \"#utility.yul\":5754:5756   */\n      0x1b\n        /* \"#utility.yul\":5749:5752   */\n      dup4\n        /* \"#utility.yul\":5690:5757   */\n      tag_145\n      jump\t// in\n    tag_227:\n        /* \"#utility.yul\":5683:5757   */\n      swap2\n      pop\n        /* \"#utility.yul\":5766:5859   */\n      tag_228\n        /* \"#utility.yul\":5855:5858   */\n      dup3\n        /* \"#utility.yul\":5766:5859   */\n      tag_148\n      jump\t// in\n    tag_228:\n        /* \"#utility.yul\":5884:5886   */\n      0x20\n        /* \"#utility.yul\":5879:5882   */\n      dup3\n        /* \"#utility.yul\":5875:5887   */\n      add\n        /* \"#utility.yul\":5868:5887   */\n      swap1\n      pop\n        /* \"#utility.yul\":5527:5893   */\n      swap2\n      swap1\n      pop\n      jump\t// out\n        /* \"#utility.yul\":5899:6318   */\n    tag_62:\n        /* \"#utility.yul\":6065:6069   */\n      0x00\n        /* \"#utility.yul\":6103:6105   */\n      0x20\n        /* \"#utility.yul\":6092:6101   */\n      dup3\n        /* \"#utility.yul\":6088:6106   */\n      add\n        /* \"#utility.yul\":6080:6106   */\n      swap1\n      pop\n        /* \"#utility.yul\":6152:6161   */\n      dup2\n        /* \"#utility.yul\":6146:6150   */\n      dup2\n        /* \"#utility.yul\":6142:6162   */\n      sub\n        /* \"#utility.yul\":6138:6139   */\n      0x00\n        /* \"#utility.yul\":6127:6136   */\n      dup4\n        /* \"#utility.yul\":6123:6140   */\n      add\n        /* \"#utility.yul\":6116:6163   */\n      mstore\n        /* \"#utility.yul\":6180:6311   */\n      tag_230\n        /* \"#utility.yul\":6306:6310   */\n      dup2\n        /* \"#utility.yul\":6180:6311   */\n      tag_149\n      jump\t// in\n    tag_230:\n        /* \"#utility.yul\":6172:6311   */\n      swap1\n      pop\n        /* \"#utility.yul\":5899:6318   */\n      swap2\n      swap1\n      pop\n      jump\t// out\n        /* \"#utility.yul\":6324:6506   */\n    tag_150:\n        /* \"#utility.yul\":6464:6498   */\n      0x546f6b656e73206861766520616c7265616479206265656e20636c61696d6564\n        /* \"#utility.yul\":6460:6461   */\n      0x00\n        /* \"#utility.yul\":6452:6458   */\n      dup3\n        /* \"#utility.yul\":6448:6462   */\n      add\n        /* \"#utility.yul\":6441:6499   */\n      mstore\n        /* \"#utility.yul\":6324:6506   */\n      pop\n      jump\t// out\n        /* \"#utility.yul\":6512:6878   */\n    tag_151:\n        /* \"#utility.yul\":6654:6657   */\n      0x00\n        /* \"#utility.yul\":6675:6742   */\n      tag_233\n        /* \"#utility.yul\":6739:6741   */\n      0x20\n        /* \"#utility.yul\":6734:6737   */\n      dup4\n        /* \"#utility.yul\":6675:6742   */\n      tag_145\n      jump\t// in\n    tag_233:\n        /* \"#utility.yul\":6668:6742   */\n      swap2\n      pop\n        /* \"#utility.yul\":6751:6844   */\n      tag_234\n        /* \"#utility.yul\":6840:6843   */\n      dup3\n        /* \"#utility.yul\":6751:6844   */\n      tag_150\n      jump\t// in\n    tag_234:\n        /* \"#utility.yul\":6869:6871   */\n      0x20\n        /* \"#utility.yul\":6864:6867   */\n      dup3\n        /* \"#utility.yul\":6860:6872   */\n      add\n        /* \"#utility.yul\":6853:6872   */\n      swap1\n      pop\n        /* \"#utility.yul\":6512:6878   */\n      swap2\n      swap1\n      pop\n      jump\t// out\n        /* \"#utility.yul\":6884:7303   */\n    tag_65:\n        /* \"#utility.yul\":7050:7054   */\n      0x00\n        /* \"#utility.yul\":7088:7090   */\n      0x20\n        /* \"#utility.yul\":7077:7086   */\n      dup3\n        /* \"#utility.yul\":7073:7091   */\n      add\n        /* \"#utility.yul\":7065:7091   */\n      swap1\n      pop\n        /* \"#utility.yul\":7137:7146   */\n      dup2\n        /* \"#utility.yul\":7131:7135   */\n      dup2\n        /* \"#utility.yul\":7127:7147   */\n      sub\n        /* \"#utility.yul\":7123:7124   */\n      0x00\n        /* \"#utility.yul\":7112:7121   */\n      dup4\n        /* \"#utility.yul\":7108:7125   */\n      add\n        /* \"#utility.yul\":7101:7148   */\n      mstore\n        /* \"#utility.yul\":7165:7296   */\n      tag_236\n        /* \"#utility.yul\":7291:7295   */\n      dup2\n        /* \"#utility.yul\":7165:7296   */\n      tag_151\n      jump\t// in\n    tag_236:\n        /* \"#utility.yul\":7157:7296   */\n      swap1\n      pop\n        /* \"#utility.yul\":6884:7303   */\n      swap2\n      swap1\n      pop\n      jump\t// out\n        /* \"#utility.yul\":7309:7641   */\n    tag_67:\n        /* \"#utility.yul\":7430:7434   */\n      0x00\n        /* \"#utility.yul\":7468:7470   */\n      0x40\n        /* \"#utility.yul\":7457:7466   */\n      dup3\n        /* \"#utility.yul\":7453:7471   */\n      add\n        /* \"#utility.yul\":7445:7471   */\n      swap1\n      pop\n        /* \"#utility.yul\":7481:7552   */\n      tag_238\n        /* \"#utility.yul\":7549:7550   */\n      0x00\n        /* \"#utility.yul\":7538:7547   */\n      dup4\n        /* \"#utility.yul\":7534:7551   */\n      add\n        /* \"#utility.yul\":7525:7531   */\n      dup6\n        /* \"#utility.yul\":7481:7552   */\n      tag_130\n      jump\t// in\n    tag_238:\n        /* \"#utility.yul\":7562:7634   */\n      tag_239\n        /* \"#utility.yul\":7630:7632   */\n      0x20\n        /* \"#utility.yul\":7619:7628   */\n      dup4\n        /* \"#utility.yul\":7615:7633   */\n      add\n        /* \"#utility.yul\":7606:7612   */\n      dup5\n        /* \"#utility.yul\":7562:7634   */\n      tag_127\n      jump\t// in\n    tag_239:\n        /* \"#utility.yul\":7309:7641   */\n      swap4\n      swap3\n      pop\n      pop\n      pop\n      jump\t// out\n        /* \"#utility.yul\":7647:7763   */\n    tag_152:\n        /* \"#utility.yul\":7717:7738   */\n      tag_241\n        /* \"#utility.yul\":7732:7737   */\n      dup2\n        /* \"#utility.yul\":7717:7738   */\n      tag_131\n      jump\t// in\n    tag_241:\n        /* \"#utility.yul\":7710:7715   */\n      dup2\n        /* \"#utility.yul\":7707:7739   */\n      eq\n        /* \"#utility.yul\":7697:7757   */\n      tag_242\n      jumpi\n        /* \"#utility.yul\":7753:7754   */\n      0x00\n        /* \"#utility.yul\":7750:7751   */\n      dup1\n        /* \"#utility.yul\":7743:7755   */\n      revert\n        /* \"#utility.yul\":7697:7757   */\n    tag_242:\n        /* \"#utility.yul\":7647:7763   */\n      pop\n      jump\t// out\n        /* \"#utility.yul\":7769:7906   */\n    tag_153:\n        /* \"#utility.yul\":7823:7828   */\n      0x00\n        /* \"#utility.yul\":7854:7860   */\n      dup2\n        /* \"#utility.yul\":7848:7861   */\n      mload\n        /* \"#utility.yul\":7839:7861   */\n      swap1\n      pop\n        /* \"#utility.yul\":7870:7900   */\n      tag_244\n        /* \"#utility.yul\":7894:7899   */\n      dup2\n        /* \"#utility.yul\":7870:7900   */\n      tag_152\n      jump\t// in\n    tag_244:\n        /* \"#utility.yul\":7769:7906   */\n      swap3\n      swap2\n      pop\n      pop\n      jump\t// out\n        /* \"#utility.yul\":7912:8257   */\n    tag_71:\n        /* \"#utility.yul\":7979:7985   */\n      0x00\n        /* \"#utility.yul\":8028:8030   */\n      0x20\n        /* \"#utility.yul\":8016:8025   */\n      dup3\n        /* \"#utility.yul\":8007:8014   */\n      dup5\n        /* \"#utility.yul\":8003:8026   */\n      sub\n        /* \"#utility.yul\":7999:8031   */\n      slt\n        /* \"#utility.yul\":7996:8115   */\n      iszero\n      tag_246\n      jumpi\n        /* \"#utility.yul\":8034:8113   */\n      tag_247\n      tag_134\n      jump\t// in\n    tag_247:\n        /* \"#utility.yul\":7996:8115   */\n    tag_246:\n        /* \"#utility.yul\":8154:8155   */\n      0x00\n        /* \"#utility.yul\":8179:8240   */\n      tag_248\n        /* \"#utility.yul\":8232:8239   */\n      dup5\n        /* \"#utility.yul\":8223:8229   */\n      dup3\n        /* \"#utility.yul\":8212:8221   */\n      dup6\n        /* \"#utility.yul\":8208:8230   */\n      add\n        /* \"#utility.yul\":8179:8240   */\n      tag_153\n      jump\t// in\n    tag_248:\n        /* \"#utility.yul\":8169:8240   */\n      swap2\n      pop\n        /* \"#utility.yul\":8125:8250   */\n      pop\n        /* \"#utility.yul\":7912:8257   */\n      swap3\n      swap2\n      pop\n      pop\n      jump\t// out\n        /* \"#utility.yul\":8263:8434   */\n    tag_154:\n        /* \"#utility.yul\":8403:8426   */\n      0x546f6b656e207472616e73666572206661696c65640000000000000000000000\n        /* \"#utility.yul\":8399:8400   */\n      0x00\n        /* \"#utility.yul\":8391:8397   */\n      dup3\n        /* \"#utility.yul\":8387:8401   */\n      add\n        /* \"#utility.yul\":8380:8427   */\n      mstore\n        /* \"#utility.yul\":8263:8434   */\n      pop\n      jump\t// out\n        /* \"#utility.yul\":8440:8806   */\n    tag_155:\n        /* \"#utility.yul\":8582:8585   */\n      0x00\n        /* \"#utility.yul\":8603:8670   */\n      tag_251\n        /* \"#utility.yul\":8667:8669   */\n      0x15\n        /* \"#utility.yul\":8662:8665   */\n      dup4\n        /* \"#utility.yul\":8603:8670   */\n      tag_145\n      jump\t// in\n    tag_251:\n        /* \"#utility.yul\":8596:8670   */\n      swap2\n      pop\n        /* \"#utility.yul\":8679:8772   */\n      tag_252\n        /* \"#utility.yul\":8768:8771   */\n      dup3\n        /* \"#utility.yul\":8679:8772   */\n      tag_154\n      jump\t// in\n    tag_252:\n        /* \"#utility.yul\":8797:8799   */\n      0x20\n        /* \"#utility.yul\":8792:8795   */\n      dup3\n        /* \"#utility.yul\":8788:8800   */\n      add\n        /* \"#utility.yul\":8781:8800   */\n      swap1\n      pop\n        /* \"#utility.yul\":8440:8806   */\n      swap2\n      swap1\n      pop\n      jump\t// out\n        /* \"#utility.yul\":8812:9231   */\n    tag_74:\n        /* \"#utility.yul\":8978:8982   */\n      0x00\n        /* \"#utility.yul\":9016:9018   */\n      0x20\n        /* \"#utility.yul\":9005:9014   */\n      dup3\n        /* \"#utility.yul\":9001:9019   */\n      add\n        /* \"#utility.yul\":8993:9019   */\n      swap1\n      pop\n        /* \"#utility.yul\":9065:9074   */\n      dup2\n        /* \"#utility.yul\":9059:9063   */\n      dup2\n        /* \"#utility.yul\":9055:9075   */\n      sub\n        /* \"#utility.yul\":9051:9052   */\n      0x00\n        /* \"#utility.yul\":9040:9049   */\n      dup4\n        /* \"#utility.yul\":9036:9053   */\n      add\n        /* \"#utility.yul\":9029:9076   */\n      mstore\n        /* \"#utility.yul\":9093:9224   */\n      tag_254\n        /* \"#utility.yul\":9219:9223   */\n      dup2\n        /* \"#utility.yul\":9093:9224   */\n      tag_155\n      jump\t// in\n    tag_254:\n        /* \"#utility.yul\":9085:9224   */\n      swap1\n      pop\n        /* \"#utility.yul\":8812:9231   */\n      swap2\n      swap1\n      pop\n      jump\t// out\n        /* \"#utility.yul\":9237:9411   */\n    tag_156:\n        /* \"#utility.yul\":9377:9403   */\n      0x46756e64732061726520616c7265616479206c6f636b65640000000000000000\n        /* \"#utility.yul\":9373:9374   */\n      0x00\n        /* \"#utility.yul\":9365:9371   */\n      dup3\n        /* \"#utility.yul\":9361:9375   */\n      add\n        /* \"#utility.yul\":9354:9404   */\n      mstore\n        /* \"#utility.yul\":9237:9411   */\n      pop\n      jump\t// out\n        /* \"#utility.yul\":9417:9783   */\n    tag_157:\n        /* \"#utility.yul\":9559:9562   */\n      0x00\n        /* \"#utility.yul\":9580:9647   */\n      tag_257\n        /* \"#utility.yul\":9644:9646   */\n      0x18\n        /* \"#utility.yul\":9639:9642   */\n      dup4\n        /* \"#utility.yul\":9580:9647   */\n      tag_145\n      jump\t// in\n    tag_257:\n        /* \"#utility.yul\":9573:9647   */\n      swap2\n      pop\n        /* \"#utility.yul\":9656:9749   */\n      tag_258\n        /* \"#utility.yul\":9745:9748   */\n      dup3\n        /* \"#utility.yul\":9656:9749   */\n      tag_156\n      jump\t// in\n    tag_258:\n        /* \"#utility.yul\":9774:9776   */\n      0x20\n        /* \"#utility.yul\":9769:9772   */\n      dup3\n        /* \"#utility.yul\":9765:9777   */\n      add\n        /* \"#utility.yul\":9758:9777   */\n      swap1\n      pop\n        /* \"#utility.yul\":9417:9783   */\n      swap2\n      swap1\n      pop\n      jump\t// out\n        /* \"#utility.yul\":9789:10208   */\n    tag_88:\n        /* \"#utility.yul\":9955:9959   */\n      0x00\n        /* \"#utility.yul\":9993:9995   */\n      0x20\n        /* \"#utility.yul\":9982:9991   */\n      dup3\n        /* \"#utility.yul\":9978:9996   */\n      add\n        /* \"#utility.yul\":9970:9996   */\n      swap1\n      pop\n        /* \"#utility.yul\":10042:10051   */\n      dup2\n        /* \"#utility.yul\":10036:10040   */\n      dup2\n        /* \"#utility.yul\":10032:10052   */\n      sub\n        /* \"#utility.yul\":10028:10029   */\n      0x00\n        /* \"#utility.yul\":10017:10026   */\n      dup4\n        /* \"#utility.yul\":10013:10030   */\n      add\n        /* \"#utility.yul\":10006:10053   */\n      mstore\n        /* \"#utility.yul\":10070:10201   */\n      tag_260\n        /* \"#utility.yul\":10196:10200   */\n      dup2\n        /* \"#utility.yul\":10070:10201   */\n      tag_157\n      jump\t// in\n    tag_260:\n        /* \"#utility.yul\":10062:10201   */\n      swap1\n      pop\n        /* \"#utility.yul\":9789:10208   */\n      swap2\n      swap1\n      pop\n      jump\t// out\n        /* \"#utility.yul\":10214:10357   */\n    tag_158:\n        /* \"#utility.yul\":10271:10276   */\n      0x00\n        /* \"#utility.yul\":10302:10308   */\n      dup2\n        /* \"#utility.yul\":10296:10309   */\n      mload\n        /* \"#utility.yul\":10287:10309   */\n      swap1\n      pop\n        /* \"#utility.yul\":10318:10351   */\n      tag_262\n        /* \"#utility.yul\":10345:10350   */\n      dup2\n        /* \"#utility.yul\":10318:10351   */\n      tag_138\n      jump\t// in\n    tag_262:\n        /* \"#utility.yul\":10214:10357   */\n      swap3\n      swap2\n      pop\n      pop\n      jump\t// out\n        /* \"#utility.yul\":10363:10714   */\n    tag_93:\n        /* \"#utility.yul\":10433:10439   */\n      0x00\n        /* \"#utility.yul\":10482:10484   */\n      0x20\n        /* \"#utility.yul\":10470:10479   */\n      dup3\n        /* \"#utility.yul\":10461:10468   */\n      dup5\n        /* \"#utility.yul\":10457:10480   */\n      sub\n        /* \"#utility.yul\":10453:10485   */\n      slt\n        /* \"#utility.yul\":10450:10569   */\n      iszero\n      tag_264\n      jumpi\n        /* \"#utility.yul\":10488:10567   */\n      tag_265\n      tag_134\n      jump\t// in\n    tag_265:\n        /* \"#utility.yul\":10450:10569   */\n    tag_264:\n        /* \"#utility.yul\":10608:10609   */\n      0x00\n        /* \"#utility.yul\":10633:10697   */\n      tag_266\n        /* \"#utility.yul\":10689:10696   */\n      dup5\n        /* \"#utility.yul\":10680:10686   */\n      dup3\n        /* \"#utility.yul\":10669:10678   */\n      dup6\n        /* \"#utility.yul\":10665:10687   */\n      add\n        /* \"#utility.yul\":10633:10697   */\n      tag_158\n      jump\t// in\n    tag_266:\n        /* \"#utility.yul\":10623:10697   */\n      swap2\n      pop\n        /* \"#utility.yul\":10579:10707   */\n      pop\n        /* \"#utility.yul\":10363:10714   */\n      swap3\n      swap2\n      pop\n      pop\n      jump\t// out\n        /* \"#utility.yul\":10720:10943   */\n    tag_159:\n        /* \"#utility.yul\":10860:10894   */\n      0x496e73756666696369656e742062616c616e636520696e2074686520636f6e74\n        /* \"#utility.yul\":10856:10857   */\n      0x00\n        /* \"#utility.yul\":10848:10854   */\n      dup3\n        /* \"#utility.yul\":10844:10858   */\n      add\n        /* \"#utility.yul\":10837:10895   */\n      mstore\n        /* \"#utility.yul\":10929:10935   */\n      0x7261637400000000000000000000000000000000000000000000000000000000\n        /* \"#utility.yul\":10924:10926   */\n      0x20\n        /* \"#utility.yul\":10916:10922   */\n      dup3\n        /* \"#utility.yul\":10912:10927   */\n      add\n        /* \"#utility.yul\":10905:10936   */\n      mstore\n        /* \"#utility.yul\":10720:10943   */\n      pop\n      jump\t// out\n        /* \"#utility.yul\":10949:11315   */\n    tag_160:\n        /* \"#utility.yul\":11091:11094   */\n      0x00\n        /* \"#utility.yul\":11112:11179   */\n      tag_269\n        /* \"#utility.yul\":11176:11178   */\n      0x24\n        /* \"#utility.yul\":11171:11174   */\n      dup4\n        /* \"#utility.yul\":11112:11179   */\n      tag_145\n      jump\t// in\n    tag_269:\n        /* \"#utility.yul\":11105:11179   */\n      swap2\n      pop\n        /* \"#utility.yul\":11188:11281   */\n      tag_270\n        /* \"#utility.yul\":11277:11280   */\n      dup3\n        /* \"#utility.yul\":11188:11281   */\n      tag_159\n      jump\t// in\n    tag_270:\n        /* \"#utility.yul\":11306:11308   */\n      0x40\n        /* \"#utility.yul\":11301:11304   */\n      dup3\n        /* \"#utility.yul\":11297:11309   */\n      add\n        /* \"#utility.yul\":11290:11309   */\n      swap1\n      pop\n        /* \"#utility.yul\":10949:11315   */\n      swap2\n      swap1\n      pop\n      jump\t// out\n        /* \"#utility.yul\":11321:11740   */\n    tag_96:\n        /* \"#utility.yul\":11487:11491   */\n      0x00\n        /* \"#utility.yul\":11525:11527   */\n      0x20\n        /* \"#utility.yul\":11514:11523   */\n      dup3\n        /* \"#utility.yul\":11510:11528   */\n      add\n        /* \"#utility.yul\":11502:11528   */\n      swap1\n      pop\n        /* \"#utility.yul\":11574:11583   */\n      dup2\n        /* \"#utility.yul\":11568:11572   */\n      dup2\n        /* \"#utility.yul\":11564:11584   */\n      sub\n        /* \"#utility.yul\":11560:11561   */\n      0x00\n        /* \"#utility.yul\":11549:11558   */\n      dup4\n        /* \"#utility.yul\":11545:11562   */\n      add\n        /* \"#utility.yul\":11538:11585   */\n      mstore\n        /* \"#utility.yul\":11602:11733   */\n      tag_272\n        /* \"#utility.yul\":11728:11732   */\n      dup2\n        /* \"#utility.yul\":11602:11733   */\n      tag_160\n      jump\t// in\n    tag_272:\n        /* \"#utility.yul\":11594:11733   */\n      swap1\n      pop\n        /* \"#utility.yul\":11321:11740   */\n      swap2\n      swap1\n      pop\n      jump\t// out\n        /* \"#utility.yul\":11746:11920   */\n    tag_161:\n        /* \"#utility.yul\":11886:11912   */\n      0x496e76616c696420726563656976657220616464726573730000000000000000\n        /* \"#utility.yul\":11882:11883   */\n      0x00\n        /* \"#utility.yul\":11874:11880   */\n      dup3\n        /* \"#utility.yul\":11870:11884   */\n      add\n        /* \"#utility.yul\":11863:11913   */\n      mstore\n        /* \"#utility.yul\":11746:11920   */\n      pop\n      jump\t// out\n        /* \"#utility.yul\":11926:12292   */\n    tag_162:\n        /* \"#utility.yul\":12068:12071   */\n      0x00\n        /* \"#utility.yul\":12089:12156   */\n      tag_275\n        /* \"#utility.yul\":12153:12155   */\n      0x18\n        /* \"#utility.yul\":12148:12151   */\n      dup4\n        /* \"#utility.yul\":12089:12156   */\n      tag_145\n      jump\t// in\n    tag_275:\n        /* \"#utility.yul\":12082:12156   */\n      swap2\n      pop\n        /* \"#utility.yul\":12165:12258   */\n      tag_276\n        /* \"#utility.yul\":12254:12257   */\n      dup3\n        /* \"#utility.yul\":12165:12258   */\n      tag_161\n      jump\t// in\n    tag_276:\n        /* \"#utility.yul\":12283:12285   */\n      0x20\n        /* \"#utility.yul\":12278:12281   */\n      dup3\n        /* \"#utility.yul\":12274:12286   */\n      add\n        /* \"#utility.yul\":12267:12286   */\n      swap1\n      pop\n        /* \"#utility.yul\":11926:12292   */\n      swap2\n      swap1\n      pop\n      jump\t// out\n        /* \"#utility.yul\":12298:12717   */\n    tag_99:\n        /* \"#utility.yul\":12464:12468   */\n      0x00\n        /* \"#utility.yul\":12502:12504   */\n      0x20\n        /* \"#utility.yul\":12491:12500   */\n      dup3\n        /* \"#utility.yul\":12487:12505   */\n      add\n        /* \"#utility.yul\":12479:12505   */\n      swap1\n      pop\n        /* \"#utility.yul\":12551:12560   */\n      dup2\n        /* \"#utility.yul\":12545:12549   */\n      dup2\n        /* \"#utility.yul\":12541:12561   */\n      sub\n        /* \"#utility.yul\":12537:12538   */\n      0x00\n        /* \"#utility.yul\":12526:12535   */\n      dup4\n        /* \"#utility.yul\":12522:12539   */\n      add\n        /* \"#utility.yul\":12515:12562   */\n      mstore\n        /* \"#utility.yul\":12579:12710   */\n      tag_278\n        /* \"#utility.yul\":12705:12709   */\n      dup2\n        /* \"#utility.yul\":12579:12710   */\n      tag_162\n      jump\t// in\n    tag_278:\n        /* \"#utility.yul\":12571:12710   */\n      swap1\n      pop\n        /* \"#utility.yul\":12298:12717   */\n      swap2\n      swap1\n      pop\n      jump\t// out\n        /* \"#utility.yul\":12723:12903   */\n    tag_163:\n        /* \"#utility.yul\":12771:12848   */\n      0x4e487b7100000000000000000000000000000000000000000000000000000000\n        /* \"#utility.yul\":12768:12769   */\n      0x00\n        /* \"#utility.yul\":12761:12849   */\n      mstore\n        /* \"#utility.yul\":12868:12872   */\n      0x11\n        /* \"#utility.yul\":12865:12866   */\n      0x04\n        /* \"#utility.yul\":12858:12873   */\n      mstore\n        /* \"#utility.yul\":12892:12896   */\n      0x24\n        /* \"#utility.yul\":12889:12890   */\n      0x00\n        /* \"#utility.yul\":12882:12897   */\n      revert\n        /* \"#utility.yul\":12909:13100   */\n    tag_101:\n        /* \"#utility.yul\":12949:12952   */\n      0x00\n        /* \"#utility.yul\":12968:12988   */\n      tag_281\n        /* \"#utility.yul\":12986:12987   */\n      dup3\n        /* \"#utility.yul\":12968:12988   */\n      tag_126\n      jump\t// in\n    tag_281:\n        /* \"#utility.yul\":12963:12988   */\n      swap2\n      pop\n        /* \"#utility.yul\":13002:13022   */\n      tag_282\n        /* \"#utility.yul\":13020:13021   */\n      dup4\n        /* \"#utility.yul\":13002:13022   */\n      tag_126\n      jump\t// in\n    tag_282:\n        /* \"#utility.yul\":12997:13022   */\n      swap3\n      pop\n        /* \"#utility.yul\":13045:13046   */\n      dup3\n        /* \"#utility.yul\":13042:13043   */\n      dup3\n        /* \"#utility.yul\":13038:13047   */\n      add\n        /* \"#utility.yul\":13031:13047   */\n      swap1\n      pop\n        /* \"#utility.yul\":13066:13069   */\n      dup1\n        /* \"#utility.yul\":13063:13064   */\n      dup3\n        /* \"#utility.yul\":13060:13070   */\n      gt\n        /* \"#utility.yul\":13057:13093   */\n      iszero\n      tag_283\n      jumpi\n        /* \"#utility.yul\":13073:13091   */\n      tag_284\n      tag_163\n      jump\t// in\n    tag_284:\n        /* \"#utility.yul\":13057:13093   */\n    tag_283:\n        /* \"#utility.yul\":12909:13100   */\n      swap3\n      swap2\n      pop\n      pop\n      jump\t// out\n        /* \"#utility.yul\":13106:13548   */\n    tag_103:\n        /* \"#utility.yul\":13255:13259   */\n      0x00\n        /* \"#utility.yul\":13293:13295   */\n      0x60\n        /* \"#utility.yul\":13282:13291   */\n      dup3\n        /* \"#utility.yul\":13278:13296   */\n      add\n        /* \"#utility.yul\":13270:13296   */\n      swap1\n      pop\n        /* \"#utility.yul\":13306:13377   */\n      tag_286\n        /* \"#utility.yul\":13374:13375   */\n      0x00\n        /* \"#utility.yul\":13363:13372   */\n      dup4\n        /* \"#utility.yul\":13359:13376   */\n      add\n        /* \"#utility.yul\":13350:13356   */\n      dup7\n        /* \"#utility.yul\":13306:13377   */\n      tag_130\n      jump\t// in\n    tag_286:\n        /* \"#utility.yul\":13387:13459   */\n      tag_287\n        /* \"#utility.yul\":13455:13457   */\n      0x20\n        /* \"#utility.yul\":13444:13453   */\n      dup4\n        /* \"#utility.yul\":13440:13458   */\n      add\n        /* \"#utility.yul\":13431:13437   */\n      dup6\n        /* \"#utility.yul\":13387:13459   */\n      tag_130\n      jump\t// in\n    tag_287:\n        /* \"#utility.yul\":13469:13541   */\n      tag_288\n        /* \"#utility.yul\":13537:13539   */\n      0x40\n        /* \"#utility.yul\":13526:13535   */\n      dup4\n        /* \"#utility.yul\":13522:13540   */\n      add\n        /* \"#utility.yul\":13513:13519   */\n      dup5\n        /* \"#utility.yul\":13469:13541   */\n      tag_127\n      jump\t// in\n    tag_288:\n        /* \"#utility.yul\":13106:13548   */\n      swap5\n      swap4\n      pop\n      pop\n      pop\n      pop\n      jump\t// out\n        /* \"#utility.yul\":13554:13886   */\n    tag_110:\n        /* \"#utility.yul\":13675:13679   */\n      0x00\n        /* \"#utility.yul\":13713:13715   */\n      0x40\n        /* \"#utility.yul\":13702:13711   */\n      dup3\n        /* \"#utility.yul\":13698:13716   */\n      add\n        /* \"#utility.yul\":13690:13716   */\n      swap1\n      pop\n        /* \"#utility.yul\":13726:13797   */\n      tag_290\n        /* \"#utility.yul\":13794:13795   */\n      0x00\n        /* \"#utility.yul\":13783:13792   */\n      dup4\n        /* \"#utility.yul\":13779:13796   */\n      add\n        /* \"#utility.yul\":13770:13776   */\n      dup6\n        /* \"#utility.yul\":13726:13797   */\n      tag_127\n      jump\t// in\n    tag_290:\n        /* \"#utility.yul\":13807:13879   */\n      tag_291\n        /* \"#utility.yul\":13875:13877   */\n      0x20\n        /* \"#utility.yul\":13864:13873   */\n      dup4\n        /* \"#utility.yul\":13860:13878   */\n      add\n        /* \"#utility.yul\":13851:13857   */\n      dup5\n        /* \"#utility.yul\":13807:13879   */\n      tag_127\n      jump\t// in\n    tag_291:\n        /* \"#utility.yul\":13554:13886   */\n      swap4\n      swap3\n      pop\n      pop\n      pop\n      jump\t// out\n\n    auxdata: 0xa2646970667358221220fa73d2f4996b1b13d9edffca6c6c1f2b405958fe107f9823d41c32007aa8db5364736f6c63430008150033\n}\n",
				"bytecode": {
					"linkReferences": {},
					"object": "60806040525f60055f6101000a81548160ff0219169083151502179055505f600560016101000a81548160ff02191690831515021790555034801562000043575f80fd5b50604051620013493803806200134983398181016040528101906200006991906200025c565b335f73ffffffffffffffffffffffffffffffffffffffff168173ffffffffffffffffffffffffffffffffffffffff1603620000dd575f6040517f1e4fbdf7000000000000000000000000000000000000000000000000000000008152600401620000d491906200029d565b60405180910390fd5b620000ee816200013660201b60201c565b508060015f6101000a81548173ffffffffffffffffffffffffffffffffffffffff021916908373ffffffffffffffffffffffffffffffffffffffff16021790555050620002b8565b5f805f9054906101000a900473ffffffffffffffffffffffffffffffffffffffff169050815f806101000a81548173ffffffffffffffffffffffffffffffffffffffff021916908373ffffffffffffffffffffffffffffffffffffffff1602179055508173ffffffffffffffffffffffffffffffffffffffff168173ffffffffffffffffffffffffffffffffffffffff167f8be0079c531659141344cd1fd0a4f28419497f9722a3daafe3b4186f6b6457e060405160405180910390a35050565b5f80fd5b5f73ffffffffffffffffffffffffffffffffffffffff82169050919050565b5f6200022682620001fb565b9050919050565b62000238816200021a565b811462000243575f80fd5b50565b5f8151905062000256816200022d565b92915050565b5f60208284031215620002745762000273620001f7565b5b5f620002838482850162000246565b91505092915050565b62000297816200021a565b82525050565b5f602082019050620002b25f8301846200028c565b92915050565b61108380620002c65f395ff3fe608060405234801561000f575f80fd5b50600436106100b2575f3560e01c8063d79f017f1161006f578063d79f017f14610142578063e184c9be1461015e578063e834a8341461017c578063f2fde38b1461019a578063f7260d3e146101b6578063fc0c546a146101d4576100b2565b80633ccfd60b146100b6578063557ed1ba146100c0578063715018a6146100de5780638da5cb5b146100e8578063aa8c217c14610106578063cf30901214610124575b5f80fd5b6100be6101f2565b005b6100c86103ef565b6040516100d591906109dd565b60405180910390f35b6100e66103f6565b005b6100f0610409565b6040516100fd9190610a35565b60405180910390f35b61010e610430565b60405161011b91906109dd565b60405180910390f35b61012c610436565b6040516101399190610a68565b60405180910390f35b61015c60048036038101906101579190610ad9565b610448565b005b61016661078f565b60405161017391906109dd565b60405180910390f35b610184610795565b6040516101919190610a68565b60405180910390f35b6101b460048036038101906101af9190610b29565b6107a8565b005b6101be61082c565b6040516101cb9190610a35565b60405180910390f35b6101dc610851565b6040516101e99190610baf565b60405180910390f35b60055f9054906101000a900460ff16610240576040517f08c379a000000000000000000000000000000000000000000000000000000000815260040161023790610c22565b60405180910390fd5b6004544211610284576040517f08c379a000000000000000000000000000000000000000000000000000000000815260040161027b90610c8a565b60405180910390fd5b600560019054906101000a900460ff16156102d4576040517f08c379a00000000000000000000000000000000000000000000000000000000081526004016102cb90610cf2565b60405180910390fd5b6001600560016101000a81548160ff02191690831515021790555060015f9054906101000a900473ffffffffffffffffffffffffffffffffffffffff1673ffffffffffffffffffffffffffffffffffffffff1663a9059cbb60025f9054906101000a900473ffffffffffffffffffffffffffffffffffffffff166003546040518363ffffffff1660e01b815260040161036e929190610d10565b6020604051808303815f875af115801561038a573d5f803e3d5ffd5b505050506040513d601f19601f820116820180604052508101906103ae9190610d61565b6103ed576040517f08c379a00000000000000000000000000000000000000000000000000000000081526004016103e490610dd6565b60405180910390fd5b565b5f42905090565b6103fe610876565b6104075f6108fd565b565b5f805f9054906101000a900473ffffffffffffffffffffffffffffffffffffffff16905090565b60035481565b60055f9054906101000a900460ff1681565b610450610876565b60055f9054906101000a900460ff161561049f576040517f08c379a000000000000000000000000000000000000000000000000000000000815260040161049690610e3e565b60405180910390fd5b8160015f9054906101000a900473ffffffffffffffffffffffffffffffffffffffff1673ffffffffffffffffffffffffffffffffffffffff166370a08231306040518263ffffffff1660e01b81526004016104fa9190610a35565b602060405180830381865afa158015610515573d5f803e3d5ffd5b505050506040513d601f19601f820116820180604052508101906105399190610e70565b101561057a576040517f08c379a000000000000000000000000000000000000000000000000000000000815260040161057190610f0b565b60405180910390fd5b5f73ffffffffffffffffffffffffffffffffffffffff168373ffffffffffffffffffffffffffffffffffffffff16036105e8576040517f08c379a00000000000000000000000000000000000000000000000000000000081526004016105df90610f73565b60405180910390fd5b8260025f6101000a81548173ffffffffffffffffffffffffffffffffffffffff021916908373ffffffffffffffffffffffffffffffffffffffff16021790555081600381905550804261063b9190610fbe565b600481905550600160055f6101000a81548160ff02191690831515021790555060015f9054906101000a900473ffffffffffffffffffffffffffffffffffffffff1673ffffffffffffffffffffffffffffffffffffffff166323b872dd3330856040518463ffffffff1660e01b81526004016106b993929190610ff1565b6020604051808303815f875af11580156106d5573d5f803e3d5ffd5b505050506040513d601f19601f820116820180604052508101906106f99190610d61565b610738576040517f08c379a000000000000000000000000000000000000000000000000000000000815260040161072f90610dd6565b60405180910390fd5b8273ffffffffffffffffffffffffffffffffffffffff167fd741e738a23fd18a03a26522320d9fc6cac1fed483e215ea9150fbc2fc43385d83600454604051610782929190611026565b60405180910390a2505050565b60045481565b600560019054906101000a900460ff1681565b6107b0610876565b5f73ffffffffffffffffffffffffffffffffffffffff168173ffffffffffffffffffffffffffffffffffffffff1603610820575f6040517f1e4fbdf70000000000000000000000000000000000000000000000000000000081526004016108179190610a35565b60405180910390fd5b610829816108fd565b50565b60025f9054906101000a900473ffffffffffffffffffffffffffffffffffffffff1681565b60015f9054906101000a900473ffffffffffffffffffffffffffffffffffffffff1681565b61087e6109be565b73ffffffffffffffffffffffffffffffffffffffff1661089c610409565b73ffffffffffffffffffffffffffffffffffffffff16146108fb576108bf6109be565b6040517f118cdaa70000000000000000000000000000000000000000000000000000000081526004016108f29190610a35565b60405180910390fd5b565b5f805f9054906101000a900473ffffffffffffffffffffffffffffffffffffffff169050815f806101000a81548173ffffffffffffffffffffffffffffffffffffffff021916908373ffffffffffffffffffffffffffffffffffffffff1602179055508173ffffffffffffffffffffffffffffffffffffffff168173ffffffffffffffffffffffffffffffffffffffff167f8be0079c531659141344cd1fd0a4f28419497f9722a3daafe3b4186f6b6457e060405160405180910390a35050565b5f33905090565b5f819050919050565b6109d7816109c5565b82525050565b5f6020820190506109f05f8301846109ce565b92915050565b5f73ffffffffffffffffffffffffffffffffffffffff82169050919050565b5f610a1f826109f6565b9050919050565b610a2f81610a15565b82525050565b5f602082019050610a485f830184610a26565b92915050565b5f8115159050919050565b610a6281610a4e565b82525050565b5f602082019050610a7b5f830184610a59565b92915050565b5f80fd5b610a8e81610a15565b8114610a98575f80fd5b50565b5f81359050610aa981610a85565b92915050565b610ab8816109c5565b8114610ac2575f80fd5b50565b5f81359050610ad381610aaf565b92915050565b5f805f60608486031215610af057610aef610a81565b5b5f610afd86828701610a9b565b9350506020610b0e86828701610ac5565b9250506040610b1f86828701610ac5565b9150509250925092565b5f60208284031215610b3e57610b3d610a81565b5b5f610b4b84828501610a9b565b91505092915050565b5f819050919050565b5f610b77610b72610b6d846109f6565b610b54565b6109f6565b9050919050565b5f610b8882610b5d565b9050919050565b5f610b9982610b7e565b9050919050565b610ba981610b8f565b82525050565b5f602082019050610bc25f830184610ba0565b92915050565b5f82825260208201905092915050565b7f46756e647320617265206e6f74206c6f636b65640000000000000000000000005f82015250565b5f610c0c601483610bc8565b9150610c1782610bd8565b602082019050919050565b5f6020820190508181035f830152610c3981610c00565b9050919050565b7f546f6b656e7320617265206e6f742079657420756e6c6f636b656400000000005f82015250565b5f610c74601b83610bc8565b9150610c7f82610c40565b602082019050919050565b5f6020820190508181035f830152610ca181610c68565b9050919050565b7f546f6b656e73206861766520616c7265616479206265656e20636c61696d65645f82015250565b5f610cdc602083610bc8565b9150610ce782610ca8565b602082019050919050565b5f6020820190508181035f830152610d0981610cd0565b9050919050565b5f604082019050610d235f830185610a26565b610d3060208301846109ce565b9392505050565b610d4081610a4e565b8114610d4a575f80fd5b50565b5f81519050610d5b81610d37565b92915050565b5f60208284031215610d7657610d75610a81565b5b5f610d8384828501610d4d565b91505092915050565b7f546f6b656e207472616e73666572206661696c656400000000000000000000005f82015250565b5f610dc0601583610bc8565b9150610dcb82610d8c565b602082019050919050565b5f6020820190508181035f830152610ded81610db4565b9050919050565b7f46756e64732061726520616c7265616479206c6f636b656400000000000000005f82015250565b5f610e28601883610bc8565b9150610e3382610df4565b602082019050919050565b5f6020820190508181035f830152610e5581610e1c565b9050919050565b5f81519050610e6a81610aaf565b92915050565b5f60208284031215610e8557610e84610a81565b5b5f610e9284828501610e5c565b91505092915050565b7f496e73756666696369656e742062616c616e636520696e2074686520636f6e745f8201527f7261637400000000000000000000000000000000000000000000000000000000602082015250565b5f610ef5602483610bc8565b9150610f0082610e9b565b604082019050919050565b5f6020820190508181035f830152610f2281610ee9565b9050919050565b7f496e76616c6964207265636569766572206164647265737300000000000000005f82015250565b5f610f5d601883610bc8565b9150610f6882610f29565b602082019050919050565b5f6020820190508181035f830152610f8a81610f51565b9050919050565b7f4e487b71000000000000000000000000000000000000000000000000000000005f52601160045260245ffd5b5f610fc8826109c5565b9150610fd3836109c5565b9250828201905080821115610feb57610fea610f91565b5b92915050565b5f6060820190506110045f830186610a26565b6110116020830185610a26565b61101e60408301846109ce565b949350505050565b5f6040820190506110395f8301856109ce565b61104660208301846109ce565b939250505056fea2646970667358221220fa73d2f4996b1b13d9edffca6c6c1f2b405958fe107f9823d41c32007aa8db5364736f6c63430008150033",
					"opcodes": "PUSH1 0x80 PUSH1 0x40 MSTORE PUSH0 PUSH1 0x5 PUSH0 PUSH2 0x100 EXP DUP2 SLOAD DUP2 PUSH1 0xFF MUL NOT AND SWAP1 DUP4 ISZERO ISZERO MUL OR SWAP1 SSTORE POP PUSH0 PUSH1 0x5 PUSH1 0x1 PUSH2 0x100 EXP DUP2 SLOAD DUP2 PUSH1 0xFF MUL NOT AND SWAP1 DUP4 ISZERO ISZERO MUL OR SWAP1 SSTORE POP CALLVALUE DUP1 ISZERO PUSH3 0x43 JUMPI PUSH0 DUP1 REVERT JUMPDEST POP PUSH1 0x40 MLOAD PUSH3 0x1349 CODESIZE SUB DUP1 PUSH3 0x1349 DUP4 CODECOPY DUP2 DUP2 ADD PUSH1 0x40 MSTORE DUP2 ADD SWAP1 PUSH3 0x69 SWAP2 SWAP1 PUSH3 0x25C JUMP JUMPDEST CALLER PUSH0 PUSH20 0xFFFFFFFFFFFFFFFFFFFFFFFFFFFFFFFFFFFFFFFF AND DUP2 PUSH20 0xFFFFFFFFFFFFFFFFFFFFFFFFFFFFFFFFFFFFFFFF AND SUB PUSH3 0xDD JUMPI PUSH0 PUSH1 0x40 MLOAD PUSH32 0x1E4FBDF700000000000000000000000000000000000000000000000000000000 DUP2 MSTORE PUSH1 0x4 ADD PUSH3 0xD4 SWAP2 SWAP1 PUSH3 0x29D JUMP JUMPDEST PUSH1 0x40 MLOAD DUP1 SWAP2 SUB SWAP1 REVERT JUMPDEST PUSH3 0xEE DUP2 PUSH3 0x136 PUSH1 0x20 SHL PUSH1 0x20 SHR JUMP JUMPDEST POP DUP1 PUSH1 0x1 PUSH0 PUSH2 0x100 EXP DUP2 SLOAD DUP2 PUSH20 0xFFFFFFFFFFFFFFFFFFFFFFFFFFFFFFFFFFFFFFFF MUL NOT AND SWAP1 DUP4 PUSH20 0xFFFFFFFFFFFFFFFFFFFFFFFFFFFFFFFFFFFFFFFF AND MUL OR SWAP1 SSTORE POP POP PUSH3 0x2B8 JUMP JUMPDEST PUSH0 DUP1 PUSH0 SWAP1 SLOAD SWAP1 PUSH2 0x100 EXP SWAP1 DIV PUSH20 0xFFFFFFFFFFFFFFFFFFFFFFFFFFFFFFFFFFFFFFFF AND SWAP1 POP DUP2 PUSH0 DUP1 PUSH2 0x100 EXP DUP2 SLOAD DUP2 PUSH20 0xFFFFFFFFFFFFFFFFFFFFFFFFFFFFFFFFFFFFFFFF MUL NOT AND SWAP1 DUP4 PUSH20 0xFFFFFFFFFFFFFFFFFFFFFFFFFFFFFFFFFFFFFFFF AND MUL OR SWAP1 SSTORE POP DUP2 PUSH20 0xFFFFFFFFFFFFFFFFFFFFFFFFFFFFFFFFFFFFFFFF AND DUP2 PUSH20 0xFFFFFFFFFFFFFFFFFFFFFFFFFFFFFFFFFFFFFFFF AND PUSH32 0x8BE0079C531659141344CD1FD0A4F28419497F9722A3DAAFE3B4186F6B6457E0 PUSH1 0x40 MLOAD PUSH1 0x40 MLOAD DUP1 SWAP2 SUB SWAP1 LOG3 POP POP JUMP JUMPDEST PUSH0 DUP1 REVERT JUMPDEST PUSH0 PUSH20 0xFFFFFFFFFFFFFFFFFFFFFFFFFFFFFFFFFFFFFFFF DUP3 AND SWAP1 POP SWAP2 SWAP1 POP JUMP JUMPDEST PUSH0 PUSH3 0x226 DUP3 PUSH3 0x1FB JUMP JUMPDEST SWAP1 POP SWAP2 SWAP1 POP JUMP JUMPDEST PUSH3 0x238 DUP2 PUSH3 0x21A JUMP JUMPDEST DUP2 EQ PUSH3 0x243 JUMPI PUSH0 DUP1 REVERT JUMPDEST POP JUMP JUMPDEST PUSH0 DUP2 MLOAD SWAP1 POP PUSH3 0x256 DUP2 PUSH3 0x22D JUMP JUMPDEST SWAP3 SWAP2 POP POP JUMP JUMPDEST PUSH0 PUSH1 0x20 DUP3 DUP5 SUB SLT ISZERO PUSH3 0x274 JUMPI PUSH3 0x273 PUSH3 0x1F7 JUMP JUMPDEST JUMPDEST PUSH0 PUSH3 0x283 DUP5 DUP3 DUP6 ADD PUSH3 0x246 JUMP JUMPDEST SWAP2 POP POP SWAP3 SWAP2 POP POP JUMP JUMPDEST PUSH3 0x297 DUP2 PUSH3 0x21A JUMP JUMPDEST DUP3 MSTORE POP POP JUMP JUMPDEST PUSH0 PUSH1 0x20 DUP3 ADD SWAP1 POP PUSH3 0x2B2 PUSH0 DUP4 ADD DUP5 PUSH3 0x28C JUMP JUMPDEST SWAP3 SWAP2 POP POP JUMP JUMPDEST PUSH2 0x1083 DUP1 PUSH3 0x2C6 PUSH0 CODECOPY PUSH0 RETURN INVALID PUSH1 0x80 PUSH1 0x40 MSTORE CALLVALUE DUP1 ISZERO PUSH2 0xF JUMPI PUSH0 DUP1 REVERT JUMPDEST POP PUSH1 0x4 CALLDATASIZE LT PUSH2 0xB2 JUMPI PUSH0 CALLDATALOAD PUSH1 0xE0 SHR DUP1 PUSH4 0xD79F017F GT PUSH2 0x6F JUMPI DUP1 PUSH4 0xD79F017F EQ PUSH2 0x142 JUMPI DUP1 PUSH4 0xE184C9BE EQ PUSH2 0x15E JUMPI DUP1 PUSH4 0xE834A834 EQ PUSH2 0x17C JUMPI DUP1 PUSH4 0xF2FDE38B EQ PUSH2 0x19A JUMPI DUP1 PUSH4 0xF7260D3E EQ PUSH2 0x1B6 JUMPI DUP1 PUSH4 0xFC0C546A EQ PUSH2 0x1D4 JUMPI PUSH2 0xB2 JUMP JUMPDEST DUP1 PUSH4 0x3CCFD60B EQ PUSH2 0xB6 JUMPI DUP1 PUSH4 0x557ED1BA EQ PUSH2 0xC0 JUMPI DUP1 PUSH4 0x715018A6 EQ PUSH2 0xDE JUMPI DUP1 PUSH4 0x8DA5CB5B EQ PUSH2 0xE8 JUMPI DUP1 PUSH4 0xAA8C217C EQ PUSH2 0x106 JUMPI DUP1 PUSH4 0xCF309012 EQ PUSH2 0x124 JUMPI JUMPDEST PUSH0 DUP1 REVERT JUMPDEST PUSH2 0xBE PUSH2 0x1F2 JUMP JUMPDEST STOP JUMPDEST PUSH2 0xC8 PUSH2 0x3EF JUMP JUMPDEST PUSH1 0x40 MLOAD PUSH2 0xD5 SWAP2 SWAP1 PUSH2 0x9DD JUMP JUMPDEST PUSH1 0x40 MLOAD DUP1 SWAP2 SUB SWAP1 RETURN JUMPDEST PUSH2 0xE6 PUSH2 0x3F6 JUMP JUMPDEST STOP JUMPDEST PUSH2 0xF0 PUSH2 0x409 JUMP JUMPDEST PUSH1 0x40 MLOAD PUSH2 0xFD SWAP2 SWAP1 PUSH2 0xA35 JUMP JUMPDEST PUSH1 0x40 MLOAD DUP1 SWAP2 SUB SWAP1 RETURN JUMPDEST PUSH2 0x10E PUSH2 0x430 JUMP JUMPDEST PUSH1 0x40 MLOAD PUSH2 0x11B SWAP2 SWAP1 PUSH2 0x9DD JUMP JUMPDEST PUSH1 0x40 MLOAD DUP1 SWAP2 SUB SWAP1 RETURN JUMPDEST PUSH2 0x12C PUSH2 0x436 JUMP JUMPDEST PUSH1 0x40 MLOAD PUSH2 0x139 SWAP2 SWAP1 PUSH2 0xA68 JUMP JUMPDEST PUSH1 0x40 MLOAD DUP1 SWAP2 SUB SWAP1 RETURN JUMPDEST PUSH2 0x15C PUSH1 0x4 DUP1 CALLDATASIZE SUB DUP2 ADD SWAP1 PUSH2 0x157 SWAP2 SWAP1 PUSH2 0xAD9 JUMP JUMPDEST PUSH2 0x448 JUMP JUMPDEST STOP JUMPDEST PUSH2 0x166 PUSH2 0x78F JUMP JUMPDEST PUSH1 0x40 MLOAD PUSH2 0x173 SWAP2 SWAP1 PUSH2 0x9DD JUMP JUMPDEST PUSH1 0x40 MLOAD DUP1 SWAP2 SUB SWAP1 RETURN JUMPDEST PUSH2 0x184 PUSH2 0x795 JUMP JUMPDEST PUSH1 0x40 MLOAD PUSH2 0x191 SWAP2 SWAP1 PUSH2 0xA68 JUMP JUMPDEST PUSH1 0x40 MLOAD DUP1 SWAP2 SUB SWAP1 RETURN JUMPDEST PUSH2 0x1B4 PUSH1 0x4 DUP1 CALLDATASIZE SUB DUP2 ADD SWAP1 PUSH2 0x1AF SWAP2 SWAP1 PUSH2 0xB29 JUMP JUMPDEST PUSH2 0x7A8 JUMP JUMPDEST STOP JUMPDEST PUSH2 0x1BE PUSH2 0x82C JUMP JUMPDEST PUSH1 0x40 MLOAD PUSH2 0x1CB SWAP2 SWAP1 PUSH2 0xA35 JUMP JUMPDEST PUSH1 0x40 MLOAD DUP1 SWAP2 SUB SWAP1 RETURN JUMPDEST PUSH2 0x1DC PUSH2 0x851 JUMP JUMPDEST PUSH1 0x40 MLOAD PUSH2 0x1E9 SWAP2 SWAP1 PUSH2 0xBAF JUMP JUMPDEST PUSH1 0x40 MLOAD DUP1 SWAP2 SUB SWAP1 RETURN JUMPDEST PUSH1 0x5 PUSH0 SWAP1 SLOAD SWAP1 PUSH2 0x100 EXP SWAP1 DIV PUSH1 0xFF AND PUSH2 0x240 JUMPI PUSH1 0x40 MLOAD PUSH32 0x8C379A000000000000000000000000000000000000000000000000000000000 DUP2 MSTORE PUSH1 0x4 ADD PUSH2 0x237 SWAP1 PUSH2 0xC22 JUMP JUMPDEST PUSH1 0x40 MLOAD DUP1 SWAP2 SUB SWAP1 REVERT JUMPDEST PUSH1 0x4 SLOAD TIMESTAMP GT PUSH2 0x284 JUMPI PUSH1 0x40 MLOAD PUSH32 0x8C379A000000000000000000000000000000000000000000000000000000000 DUP2 MSTORE PUSH1 0x4 ADD PUSH2 0x27B SWAP1 PUSH2 0xC8A JUMP JUMPDEST PUSH1 0x40 MLOAD DUP1 SWAP2 SUB SWAP1 REVERT JUMPDEST PUSH1 0x5 PUSH1 0x1 SWAP1 SLOAD SWAP1 PUSH2 0x100 EXP SWAP1 DIV PUSH1 0xFF AND ISZERO PUSH2 0x2D4 JUMPI PUSH1 0x40 MLOAD PUSH32 0x8C379A000000000000000000000000000000000000000000000000000000000 DUP2 MSTORE PUSH1 0x4 ADD PUSH2 0x2CB SWAP1 PUSH2 0xCF2 JUMP JUMPDEST PUSH1 0x40 MLOAD DUP1 SWAP2 SUB SWAP1 REVERT JUMPDEST PUSH1 0x1 PUSH1 0x5 PUSH1 0x1 PUSH2 0x100 EXP DUP2 SLOAD DUP2 PUSH1 0xFF MUL NOT AND SWAP1 DUP4 ISZERO ISZERO MUL OR SWAP1 SSTORE POP PUSH1 0x1 PUSH0 SWAP1 SLOAD SWAP1 PUSH2 0x100 EXP SWAP1 DIV PUSH20 0xFFFFFFFFFFFFFFFFFFFFFFFFFFFFFFFFFFFFFFFF AND PUSH20 0xFFFFFFFFFFFFFFFFFFFFFFFFFFFFFFFFFFFFFFFF AND PUSH4 0xA9059CBB PUSH1 0x2 PUSH0 SWAP1 SLOAD SWAP1 PUSH2 0x100 EXP SWAP1 DIV PUSH20 0xFFFFFFFFFFFFFFFFFFFFFFFFFFFFFFFFFFFFFFFF AND PUSH1 0x3 SLOAD PUSH1 0x40 MLOAD DUP4 PUSH4 0xFFFFFFFF AND PUSH1 0xE0 SHL DUP2 MSTORE PUSH1 0x4 ADD PUSH2 0x36E SWAP3 SWAP2 SWAP1 PUSH2 0xD10 JUMP JUMPDEST PUSH1 0x20 PUSH1 0x40 MLOAD DUP1 DUP4 SUB DUP2 PUSH0 DUP8 GAS CALL ISZERO DUP1 ISZERO PUSH2 0x38A JUMPI RETURNDATASIZE PUSH0 DUP1 RETURNDATACOPY RETURNDATASIZE PUSH0 REVERT JUMPDEST POP POP POP POP PUSH1 0x40 MLOAD RETURNDATASIZE PUSH1 0x1F NOT PUSH1 0x1F DUP3 ADD AND DUP3 ADD DUP1 PUSH1 0x40 MSTORE POP DUP2 ADD SWAP1 PUSH2 0x3AE SWAP2 SWAP1 PUSH2 0xD61 JUMP JUMPDEST PUSH2 0x3ED JUMPI PUSH1 0x40 MLOAD PUSH32 0x8C379A000000000000000000000000000000000000000000000000000000000 DUP2 MSTORE PUSH1 0x4 ADD PUSH2 0x3E4 SWAP1 PUSH2 0xDD6 JUMP JUMPDEST PUSH1 0x40 MLOAD DUP1 SWAP2 SUB SWAP1 REVERT JUMPDEST JUMP JUMPDEST PUSH0 TIMESTAMP SWAP1 POP SWAP1 JUMP JUMPDEST PUSH2 0x3FE PUSH2 0x876 JUMP JUMPDEST PUSH2 0x407 PUSH0 PUSH2 0x8FD JUMP JUMPDEST JUMP JUMPDEST PUSH0 DUP1 PUSH0 SWAP1 SLOAD SWAP1 PUSH2 0x100 EXP SWAP1 DIV PUSH20 0xFFFFFFFFFFFFFFFFFFFFFFFFFFFFFFFFFFFFFFFF AND SWAP1 POP SWAP1 JUMP JUMPDEST PUSH1 0x3 SLOAD DUP2 JUMP JUMPDEST PUSH1 0x5 PUSH0 SWAP1 SLOAD SWAP1 PUSH2 0x100 EXP SWAP1 DIV PUSH1 0xFF AND DUP2 JUMP JUMPDEST PUSH2 0x450 PUSH2 0x876 JUMP JUMPDEST PUSH1 0x5 PUSH0 SWAP1 SLOAD SWAP1 PUSH2 0x100 EXP SWAP1 DIV PUSH1 0xFF AND ISZERO PUSH2 0x49F JUMPI PUSH1 0x40 MLOAD PUSH32 0x8C379A000000000000000000000000000000000000000000000000000000000 DUP2 MSTORE PUSH1 0x4 ADD PUSH2 0x496 SWAP1 PUSH2 0xE3E JUMP JUMPDEST PUSH1 0x40 MLOAD DUP1 SWAP2 SUB SWAP1 REVERT JUMPDEST DUP2 PUSH1 0x1 PUSH0 SWAP1 SLOAD SWAP1 PUSH2 0x100 EXP SWAP1 DIV PUSH20 0xFFFFFFFFFFFFFFFFFFFFFFFFFFFFFFFFFFFFFFFF AND PUSH20 0xFFFFFFFFFFFFFFFFFFFFFFFFFFFFFFFFFFFFFFFF AND PUSH4 0x70A08231 ADDRESS PUSH1 0x40 MLOAD DUP3 PUSH4 0xFFFFFFFF AND PUSH1 0xE0 SHL DUP2 MSTORE PUSH1 0x4 ADD PUSH2 0x4FA SWAP2 SWAP1 PUSH2 0xA35 JUMP JUMPDEST PUSH1 0x20 PUSH1 0x40 MLOAD DUP1 DUP4 SUB DUP2 DUP7 GAS STATICCALL ISZERO DUP1 ISZERO PUSH2 0x515 JUMPI RETURNDATASIZE PUSH0 DUP1 RETURNDATACOPY RETURNDATASIZE PUSH0 REVERT JUMPDEST POP POP POP POP PUSH1 0x40 MLOAD RETURNDATASIZE PUSH1 0x1F NOT PUSH1 0x1F DUP3 ADD AND DUP3 ADD DUP1 PUSH1 0x40 MSTORE POP DUP2 ADD SWAP1 PUSH2 0x539 SWAP2 SWAP1 PUSH2 0xE70 JUMP JUMPDEST LT ISZERO PUSH2 0x57A JUMPI PUSH1 0x40 MLOAD PUSH32 0x8C379A000000000000000000000000000000000000000000000000000000000 DUP2 MSTORE PUSH1 0x4 ADD PUSH2 0x571 SWAP1 PUSH2 0xF0B JUMP JUMPDEST PUSH1 0x40 MLOAD DUP1 SWAP2 SUB SWAP1 REVERT JUMPDEST PUSH0 PUSH20 0xFFFFFFFFFFFFFFFFFFFFFFFFFFFFFFFFFFFFFFFF AND DUP4 PUSH20 0xFFFFFFFFFFFFFFFFFFFFFFFFFFFFFFFFFFFFFFFF AND SUB PUSH2 0x5E8 JUMPI PUSH1 0x40 MLOAD PUSH32 0x8C379A000000000000000000000000000000000000000000000000000000000 DUP2 MSTORE PUSH1 0x4 ADD PUSH2 0x5DF SWAP1 PUSH2 0xF73 JUMP JUMPDEST PUSH1 0x40 MLOAD DUP1 SWAP2 SUB SWAP1 REVERT JUMPDEST DUP3 PUSH1 0x2 PUSH0 PUSH2 0x100 EXP DUP2 SLOAD DUP2 PUSH20 0xFFFFFFFFFFFFFFFFFFFFFFFFFFFFFFFFFFFFFFFF MUL NOT AND SWAP1 DUP4 PUSH20 0xFFFFFFFFFFFFFFFFFFFFFFFFFFFFFFFFFFFFFFFF AND MUL OR SWAP1 SSTORE POP DUP2 PUSH1 0x3 DUP2 SWAP1 SSTORE POP DUP1 TIMESTAMP PUSH2 0x63B SWAP2 SWAP1 PUSH2 0xFBE JUMP JUMPDEST PUSH1 0x4 DUP2 SWAP1 SSTORE POP PUSH1 0x1 PUSH1 0x5 PUSH0 PUSH2 0x100 EXP DUP2 SLOAD DUP2 PUSH1 0xFF MUL NOT AND SWAP1 DUP4 ISZERO ISZERO MUL OR SWAP1 SSTORE POP PUSH1 0x1 PUSH0 SWAP1 SLOAD SWAP1 PUSH2 0x100 EXP SWAP1 DIV PUSH20 0xFFFFFFFFFFFFFFFFFFFFFFFFFFFFFFFFFFFFFFFF AND PUSH20 0xFFFFFFFFFFFFFFFFFFFFFFFFFFFFFFFFFFFFFFFF AND PUSH4 0x23B872DD CALLER ADDRESS DUP6 PUSH1 0x40 MLOAD DUP5 PUSH4 0xFFFFFFFF AND PUSH1 0xE0 SHL DUP2 MSTORE PUSH1 0x4 ADD PUSH2 0x6B9 SWAP4 SWAP3 SWAP2 SWAP1 PUSH2 0xFF1 JUMP JUMPDEST PUSH1 0x20 PUSH1 0x40 MLOAD DUP1 DUP4 SUB DUP2 PUSH0 DUP8 GAS CALL ISZERO DUP1 ISZERO PUSH2 0x6D5 JUMPI RETURNDATASIZE PUSH0 DUP1 RETURNDATACOPY RETURNDATASIZE PUSH0 REVERT JUMPDEST POP POP POP POP PUSH1 0x40 MLOAD RETURNDATASIZE PUSH1 0x1F NOT PUSH1 0x1F DUP3 ADD AND DUP3 ADD DUP1 PUSH1 0x40 MSTORE POP DUP2 ADD SWAP1 PUSH2 0x6F9 SWAP2 SWAP1 PUSH2 0xD61 JUMP JUMPDEST PUSH2 0x738 JUMPI PUSH1 0x40 MLOAD PUSH32 0x8C379A000000000000000000000000000000000000000000000000000000000 DUP2 MSTORE PUSH1 0x4 ADD PUSH2 0x72F SWAP1 PUSH2 0xDD6 JUMP JUMPDEST PUSH1 0x40 MLOAD DUP1 SWAP2 SUB SWAP1 REVERT JUMPDEST DUP3 PUSH20 0xFFFFFFFFFFFFFFFFFFFFFFFFFFFFFFFFFFFFFFFF AND PUSH32 0xD741E738A23FD18A03A26522320D9FC6CAC1FED483E215EA9150FBC2FC43385D DUP4 PUSH1 0x4 SLOAD PUSH1 0x40 MLOAD PUSH2 0x782 SWAP3 SWAP2 SWAP1 PUSH2 0x1026 JUMP JUMPDEST PUSH1 0x40 MLOAD DUP1 SWAP2 SUB SWAP1 LOG2 POP POP POP JUMP JUMPDEST PUSH1 0x4 SLOAD DUP2 JUMP JUMPDEST PUSH1 0x5 PUSH1 0x1 SWAP1 SLOAD SWAP1 PUSH2 0x100 EXP SWAP1 DIV PUSH1 0xFF AND DUP2 JUMP JUMPDEST PUSH2 0x7B0 PUSH2 0x876 JUMP JUMPDEST PUSH0 PUSH20 0xFFFFFFFFFFFFFFFFFFFFFFFFFFFFFFFFFFFFFFFF AND DUP2 PUSH20 0xFFFFFFFFFFFFFFFFFFFFFFFFFFFFFFFFFFFFFFFF AND SUB PUSH2 0x820 JUMPI PUSH0 PUSH1 0x40 MLOAD PUSH32 0x1E4FBDF700000000000000000000000000000000000000000000000000000000 DUP2 MSTORE PUSH1 0x4 ADD PUSH2 0x817 SWAP2 SWAP1 PUSH2 0xA35 JUMP JUMPDEST PUSH1 0x40 MLOAD DUP1 SWAP2 SUB SWAP1 REVERT JUMPDEST PUSH2 0x829 DUP2 PUSH2 0x8FD JUMP JUMPDEST POP JUMP JUMPDEST PUSH1 0x2 PUSH0 SWAP1 SLOAD SWAP1 PUSH2 0x100 EXP SWAP1 DIV PUSH20 0xFFFFFFFFFFFFFFFFFFFFFFFFFFFFFFFFFFFFFFFF AND DUP2 JUMP JUMPDEST PUSH1 0x1 PUSH0 SWAP1 SLOAD SWAP1 PUSH2 0x100 EXP SWAP1 DIV PUSH20 0xFFFFFFFFFFFFFFFFFFFFFFFFFFFFFFFFFFFFFFFF AND DUP2 JUMP JUMPDEST PUSH2 0x87E PUSH2 0x9BE JUMP JUMPDEST PUSH20 0xFFFFFFFFFFFFFFFFFFFFFFFFFFFFFFFFFFFFFFFF AND PUSH2 0x89C PUSH2 0x409 JUMP JUMPDEST PUSH20 0xFFFFFFFFFFFFFFFFFFFFFFFFFFFFFFFFFFFFFFFF AND EQ PUSH2 0x8FB JUMPI PUSH2 0x8BF PUSH2 0x9BE JUMP JUMPDEST PUSH1 0x40 MLOAD PUSH32 0x118CDAA700000000000000000000000000000000000000000000000000000000 DUP2 MSTORE PUSH1 0x4 ADD PUSH2 0x8F2 SWAP2 SWAP1 PUSH2 0xA35 JUMP JUMPDEST PUSH1 0x40 MLOAD DUP1 SWAP2 SUB SWAP1 REVERT JUMPDEST JUMP JUMPDEST PUSH0 DUP1 PUSH0 SWAP1 SLOAD SWAP1 PUSH2 0x100 EXP SWAP1 DIV PUSH20 0xFFFFFFFFFFFFFFFFFFFFFFFFFFFFFFFFFFFFFFFF AND SWAP1 POP DUP2 PUSH0 DUP1 PUSH2 0x100 EXP DUP2 SLOAD DUP2 PUSH20 0xFFFFFFFFFFFFFFFFFFFFFFFFFFFFFFFFFFFFFFFF MUL NOT AND SWAP1 DUP4 PUSH20 0xFFFFFFFFFFFFFFFFFFFFFFFFFFFFFFFFFFFFFFFF AND MUL OR SWAP1 SSTORE POP DUP2 PUSH20 0xFFFFFFFFFFFFFFFFFFFFFFFFFFFFFFFFFFFFFFFF AND DUP2 PUSH20 0xFFFFFFFFFFFFFFFFFFFFFFFFFFFFFFFFFFFFFFFF AND PUSH32 0x8BE0079C531659141344CD1FD0A4F28419497F9722A3DAAFE3B4186F6B6457E0 PUSH1 0x40 MLOAD PUSH1 0x40 MLOAD DUP1 SWAP2 SUB SWAP1 LOG3 POP POP JUMP JUMPDEST PUSH0 CALLER SWAP1 POP SWAP1 JUMP JUMPDEST PUSH0 DUP2 SWAP1 POP SWAP2 SWAP1 POP JUMP JUMPDEST PUSH2 0x9D7 DUP2 PUSH2 0x9C5 JUMP JUMPDEST DUP3 MSTORE POP POP JUMP JUMPDEST PUSH0 PUSH1 0x20 DUP3 ADD SWAP1 POP PUSH2 0x9F0 PUSH0 DUP4 ADD DUP5 PUSH2 0x9CE JUMP JUMPDEST SWAP3 SWAP2 POP POP JUMP JUMPDEST PUSH0 PUSH20 0xFFFFFFFFFFFFFFFFFFFFFFFFFFFFFFFFFFFFFFFF DUP3 AND SWAP1 POP SWAP2 SWAP1 POP JUMP JUMPDEST PUSH0 PUSH2 0xA1F DUP3 PUSH2 0x9F6 JUMP JUMPDEST SWAP1 POP SWAP2 SWAP1 POP JUMP JUMPDEST PUSH2 0xA2F DUP2 PUSH2 0xA15 JUMP JUMPDEST DUP3 MSTORE POP POP JUMP JUMPDEST PUSH0 PUSH1 0x20 DUP3 ADD SWAP1 POP PUSH2 0xA48 PUSH0 DUP4 ADD DUP5 PUSH2 0xA26 JUMP JUMPDEST SWAP3 SWAP2 POP POP JUMP JUMPDEST PUSH0 DUP2 ISZERO ISZERO SWAP1 POP SWAP2 SWAP1 POP JUMP JUMPDEST PUSH2 0xA62 DUP2 PUSH2 0xA4E JUMP JUMPDEST DUP3 MSTORE POP POP JUMP JUMPDEST PUSH0 PUSH1 0x20 DUP3 ADD SWAP1 POP PUSH2 0xA7B PUSH0 DUP4 ADD DUP5 PUSH2 0xA59 JUMP JUMPDEST SWAP3 SWAP2 POP POP JUMP JUMPDEST PUSH0 DUP1 REVERT JUMPDEST PUSH2 0xA8E DUP2 PUSH2 0xA15 JUMP JUMPDEST DUP2 EQ PUSH2 0xA98 JUMPI PUSH0 DUP1 REVERT JUMPDEST POP JUMP JUMPDEST PUSH0 DUP2 CALLDATALOAD SWAP1 POP PUSH2 0xAA9 DUP2 PUSH2 0xA85 JUMP JUMPDEST SWAP3 SWAP2 POP POP JUMP JUMPDEST PUSH2 0xAB8 DUP2 PUSH2 0x9C5 JUMP JUMPDEST DUP2 EQ PUSH2 0xAC2 JUMPI PUSH0 DUP1 REVERT JUMPDEST POP JUMP JUMPDEST PUSH0 DUP2 CALLDATALOAD SWAP1 POP PUSH2 0xAD3 DUP2 PUSH2 0xAAF JUMP JUMPDEST SWAP3 SWAP2 POP POP JUMP JUMPDEST PUSH0 DUP1 PUSH0 PUSH1 0x60 DUP5 DUP7 SUB SLT ISZERO PUSH2 0xAF0 JUMPI PUSH2 0xAEF PUSH2 0xA81 JUMP JUMPDEST JUMPDEST PUSH0 PUSH2 0xAFD DUP7 DUP3 DUP8 ADD PUSH2 0xA9B JUMP JUMPDEST SWAP4 POP POP PUSH1 0x20 PUSH2 0xB0E DUP7 DUP3 DUP8 ADD PUSH2 0xAC5 JUMP JUMPDEST SWAP3 POP POP PUSH1 0x40 PUSH2 0xB1F DUP7 DUP3 DUP8 ADD PUSH2 0xAC5 JUMP JUMPDEST SWAP2 POP POP SWAP3 POP SWAP3 POP SWAP3 JUMP JUMPDEST PUSH0 PUSH1 0x20 DUP3 DUP5 SUB SLT ISZERO PUSH2 0xB3E JUMPI PUSH2 0xB3D PUSH2 0xA81 JUMP JUMPDEST JUMPDEST PUSH0 PUSH2 0xB4B DUP5 DUP3 DUP6 ADD PUSH2 0xA9B JUMP JUMPDEST SWAP2 POP POP SWAP3 SWAP2 POP POP JUMP JUMPDEST PUSH0 DUP2 SWAP1 POP SWAP2 SWAP1 POP JUMP JUMPDEST PUSH0 PUSH2 0xB77 PUSH2 0xB72 PUSH2 0xB6D DUP5 PUSH2 0x9F6 JUMP JUMPDEST PUSH2 0xB54 JUMP JUMPDEST PUSH2 0x9F6 JUMP JUMPDEST SWAP1 POP SWAP2 SWAP1 POP JUMP JUMPDEST PUSH0 PUSH2 0xB88 DUP3 PUSH2 0xB5D JUMP JUMPDEST SWAP1 POP SWAP2 SWAP1 POP JUMP JUMPDEST PUSH0 PUSH2 0xB99 DUP3 PUSH2 0xB7E JUMP JUMPDEST SWAP1 POP SWAP2 SWAP1 POP JUMP JUMPDEST PUSH2 0xBA9 DUP2 PUSH2 0xB8F JUMP JUMPDEST DUP3 MSTORE POP POP JUMP JUMPDEST PUSH0 PUSH1 0x20 DUP3 ADD SWAP1 POP PUSH2 0xBC2 PUSH0 DUP4 ADD DUP5 PUSH2 0xBA0 JUMP JUMPDEST SWAP3 SWAP2 POP POP JUMP JUMPDEST PUSH0 DUP3 DUP3 MSTORE PUSH1 0x20 DUP3 ADD SWAP1 POP SWAP3 SWAP2 POP POP JUMP JUMPDEST PUSH32 0x46756E647320617265206E6F74206C6F636B6564000000000000000000000000 PUSH0 DUP3 ADD MSTORE POP JUMP JUMPDEST PUSH0 PUSH2 0xC0C PUSH1 0x14 DUP4 PUSH2 0xBC8 JUMP JUMPDEST SWAP2 POP PUSH2 0xC17 DUP3 PUSH2 0xBD8 JUMP JUMPDEST PUSH1 0x20 DUP3 ADD SWAP1 POP SWAP2 SWAP1 POP JUMP JUMPDEST PUSH0 PUSH1 0x20 DUP3 ADD SWAP1 POP DUP2 DUP2 SUB PUSH0 DUP4 ADD MSTORE PUSH2 0xC39 DUP2 PUSH2 0xC00 JUMP JUMPDEST SWAP1 POP SWAP2 SWAP1 POP JUMP JUMPDEST PUSH32 0x546F6B656E7320617265206E6F742079657420756E6C6F636B65640000000000 PUSH0 DUP3 ADD MSTORE POP JUMP JUMPDEST PUSH0 PUSH2 0xC74 PUSH1 0x1B DUP4 PUSH2 0xBC8 JUMP JUMPDEST SWAP2 POP PUSH2 0xC7F DUP3 PUSH2 0xC40 JUMP JUMPDEST PUSH1 0x20 DUP3 ADD SWAP1 POP SWAP2 SWAP1 POP JUMP JUMPDEST PUSH0 PUSH1 0x20 DUP3 ADD SWAP1 POP DUP2 DUP2 SUB PUSH0 DUP4 ADD MSTORE PUSH2 0xCA1 DUP2 PUSH2 0xC68 JUMP JUMPDEST SWAP1 POP SWAP2 SWAP1 POP JUMP JUMPDEST PUSH32 0x546F6B656E73206861766520616C7265616479206265656E20636C61696D6564 PUSH0 DUP3 ADD MSTORE POP JUMP JUMPDEST PUSH0 PUSH2 0xCDC PUSH1 0x20 DUP4 PUSH2 0xBC8 JUMP JUMPDEST SWAP2 POP PUSH2 0xCE7 DUP3 PUSH2 0xCA8 JUMP JUMPDEST PUSH1 0x20 DUP3 ADD SWAP1 POP SWAP2 SWAP1 POP JUMP JUMPDEST PUSH0 PUSH1 0x20 DUP3 ADD SWAP1 POP DUP2 DUP2 SUB PUSH0 DUP4 ADD MSTORE PUSH2 0xD09 DUP2 PUSH2 0xCD0 JUMP JUMPDEST SWAP1 POP SWAP2 SWAP1 POP JUMP JUMPDEST PUSH0 PUSH1 0x40 DUP3 ADD SWAP1 POP PUSH2 0xD23 PUSH0 DUP4 ADD DUP6 PUSH2 0xA26 JUMP JUMPDEST PUSH2 0xD30 PUSH1 0x20 DUP4 ADD DUP5 PUSH2 0x9CE JUMP JUMPDEST SWAP4 SWAP3 POP POP POP JUMP JUMPDEST PUSH2 0xD40 DUP2 PUSH2 0xA4E JUMP JUMPDEST DUP2 EQ PUSH2 0xD4A JUMPI PUSH0 DUP1 REVERT JUMPDEST POP JUMP JUMPDEST PUSH0 DUP2 MLOAD SWAP1 POP PUSH2 0xD5B DUP2 PUSH2 0xD37 JUMP JUMPDEST SWAP3 SWAP2 POP POP JUMP JUMPDEST PUSH0 PUSH1 0x20 DUP3 DUP5 SUB SLT ISZERO PUSH2 0xD76 JUMPI PUSH2 0xD75 PUSH2 0xA81 JUMP JUMPDEST JUMPDEST PUSH0 PUSH2 0xD83 DUP5 DUP3 DUP6 ADD PUSH2 0xD4D JUMP JUMPDEST SWAP2 POP POP SWAP3 SWAP2 POP POP JUMP JUMPDEST PUSH32 0x546F6B656E207472616E73666572206661696C65640000000000000000000000 PUSH0 DUP3 ADD MSTORE POP JUMP JUMPDEST PUSH0 PUSH2 0xDC0 PUSH1 0x15 DUP4 PUSH2 0xBC8 JUMP JUMPDEST SWAP2 POP PUSH2 0xDCB DUP3 PUSH2 0xD8C JUMP JUMPDEST PUSH1 0x20 DUP3 ADD SWAP1 POP SWAP2 SWAP1 POP JUMP JUMPDEST PUSH0 PUSH1 0x20 DUP3 ADD SWAP1 POP DUP2 DUP2 SUB PUSH0 DUP4 ADD MSTORE PUSH2 0xDED DUP2 PUSH2 0xDB4 JUMP JUMPDEST SWAP1 POP SWAP2 SWAP1 POP JUMP JUMPDEST PUSH32 0x46756E64732061726520616C7265616479206C6F636B65640000000000000000 PUSH0 DUP3 ADD MSTORE POP JUMP JUMPDEST PUSH0 PUSH2 0xE28 PUSH1 0x18 DUP4 PUSH2 0xBC8 JUMP JUMPDEST SWAP2 POP PUSH2 0xE33 DUP3 PUSH2 0xDF4 JUMP JUMPDEST PUSH1 0x20 DUP3 ADD SWAP1 POP SWAP2 SWAP1 POP JUMP JUMPDEST PUSH0 PUSH1 0x20 DUP3 ADD SWAP1 POP DUP2 DUP2 SUB PUSH0 DUP4 ADD MSTORE PUSH2 0xE55 DUP2 PUSH2 0xE1C JUMP JUMPDEST SWAP1 POP SWAP2 SWAP1 POP JUMP JUMPDEST PUSH0 DUP2 MLOAD SWAP1 POP PUSH2 0xE6A DUP2 PUSH2 0xAAF JUMP JUMPDEST SWAP3 SWAP2 POP POP JUMP JUMPDEST PUSH0 PUSH1 0x20 DUP3 DUP5 SUB SLT ISZERO PUSH2 0xE85 JUMPI PUSH2 0xE84 PUSH2 0xA81 JUMP JUMPDEST JUMPDEST PUSH0 PUSH2 0xE92 DUP5 DUP3 DUP6 ADD PUSH2 0xE5C JUMP JUMPDEST SWAP2 POP POP SWAP3 SWAP2 POP POP JUMP JUMPDEST PUSH32 0x496E73756666696369656E742062616C616E636520696E2074686520636F6E74 PUSH0 DUP3 ADD MSTORE PUSH32 0x7261637400000000000000000000000000000000000000000000000000000000 PUSH1 0x20 DUP3 ADD MSTORE POP JUMP JUMPDEST PUSH0 PUSH2 0xEF5 PUSH1 0x24 DUP4 PUSH2 0xBC8 JUMP JUMPDEST SWAP2 POP PUSH2 0xF00 DUP3 PUSH2 0xE9B JUMP JUMPDEST PUSH1 0x40 DUP3 ADD SWAP1 POP SWAP2 SWAP1 POP JUMP JUMPDEST PUSH0 PUSH1 0x20 DUP3 ADD SWAP1 POP DUP2 DUP2 SUB PUSH0 DUP4 ADD MSTORE PUSH2 0xF22 DUP2 PUSH2 0xEE9 JUMP JUMPDEST SWAP1 POP SWAP2 SWAP1 POP JUMP JUMPDEST PUSH32 0x496E76616C696420726563656976657220616464726573730000000000000000 PUSH0 DUP3 ADD MSTORE POP JUMP JUMPDEST PUSH0 PUSH2 0xF5D PUSH1 0x18 DUP4 PUSH2 0xBC8 JUMP JUMPDEST SWAP2 POP PUSH2 0xF68 DUP3 PUSH2 0xF29 JUMP JUMPDEST PUSH1 0x20 DUP3 ADD SWAP1 POP SWAP2 SWAP1 POP JUMP JUMPDEST PUSH0 PUSH1 0x20 DUP3 ADD SWAP1 POP DUP2 DUP2 SUB PUSH0 DUP4 ADD MSTORE PUSH2 0xF8A DUP2 PUSH2 0xF51 JUMP JUMPDEST SWAP1 POP SWAP2 SWAP1 POP JUMP JUMPDEST PUSH32 0x4E487B7100000000000000000000000000000000000000000000000000000000 PUSH0 MSTORE PUSH1 0x11 PUSH1 0x4 MSTORE PUSH1 0x24 PUSH0 REVERT JUMPDEST PUSH0 PUSH2 0xFC8 DUP3 PUSH2 0x9C5 JUMP JUMPDEST SWAP2 POP PUSH2 0xFD3 DUP4 PUSH2 0x9C5 JUMP JUMPDEST SWAP3 POP DUP3 DUP3 ADD SWAP1 POP DUP1 DUP3 GT ISZERO PUSH2 0xFEB JUMPI PUSH2 0xFEA PUSH2 0xF91 JUMP JUMPDEST JUMPDEST SWAP3 SWAP2 POP POP JUMP JUMPDEST PUSH0 PUSH1 0x60 DUP3 ADD SWAP1 POP PUSH2 0x1004 PUSH0 DUP4 ADD DUP7 PUSH2 0xA26 JUMP JUMPDEST PUSH2 0x1011 PUSH1 0x20 DUP4 ADD DUP6 PUSH2 0xA26 JUMP JUMPDEST PUSH2 0x101E PUSH1 0x40 DUP4 ADD DUP5 PUSH2 0x9CE JUMP JUMPDEST SWAP5 SWAP4 POP POP POP POP JUMP JUMPDEST PUSH0 PUSH1 0x40 DUP3 ADD SWAP1 POP PUSH2 0x1039 PUSH0 DUP4 ADD DUP6 PUSH2 0x9CE JUMP JUMPDEST PUSH2 0x1046 PUSH1 0x20 DUP4 ADD DUP5 PUSH2 0x9CE JUMP JUMPDEST SWAP4 SWAP3 POP POP POP JUMP INVALID LOG2 PUSH5 0x6970667358 0x22 SLT KECCAK256 STATICCALL PUSH20 0xD2F4996B1B13D9EDFFCA6C6C1F2B405958FE107F SWAP9 0x23 0xD4 SHR ORIGIN STOP PUSH27 0xA8DB5364736F6C6343000815003300000000000000000000000000 "
				},
				"gasEstimates": {
					"creation": {
						"codeDepositCost": "845400",
						"executionCost": "infinite",
						"totalCost": "infinite"
					},
					"external": {
						"amount()": "2514",
						"claimed()": "2561",
						"expiry()": "2447",
						"getTime()": "354",
						"locked()": "2577",
						"locktoken(address,uint256,uint256)": "infinite",
						"owner()": "2582",
						"receiver()": "2596",
						"renounceOwnership()": "infinite",
						"token()": "infinite",
						"transferOwnership(address)": "infinite",
						"withdraw()": "infinite"
					}
				},
				"methodIdentifiers": {
					"amount()": "aa8c217c",
					"claimed()": "e834a834",
					"expiry()": "e184c9be",
					"getTime()": "557ed1ba",
					"locked()": "cf309012",
					"locktoken(address,uint256,uint256)": "d79f017f",
					"owner()": "8da5cb5b",
					"receiver()": "f7260d3e",
					"renounceOwnership()": "715018a6",
					"token()": "fc0c546a",
					"transferOwnership(address)": "f2fde38b",
					"withdraw()": "3ccfd60b"
				}
			},
			"storageLayout": {
				"storage": [
					{
						"astId": 104,
						"contract": "erc1155_flattened.sol:Vesting",
						"label": "_owner",
						"offset": 0,
						"slot": "0",
						"type": "t_address"
					},
					{
						"astId": 249,
						"contract": "erc1155_flattened.sol:Vesting",
						"label": "token",
						"offset": 0,
						"slot": "1",
						"type": "t_contract(IERC20)77"
					},
					{
						"astId": 251,
						"contract": "erc1155_flattened.sol:Vesting",
						"label": "receiver",
						"offset": 0,
						"slot": "2",
						"type": "t_address"
					},
					{
						"astId": 253,
						"contract": "erc1155_flattened.sol:Vesting",
						"label": "amount",
						"offset": 0,
						"slot": "3",
						"type": "t_uint256"
					},
					{
						"astId": 255,
						"contract": "erc1155_flattened.sol:Vesting",
						"label": "expiry",
						"offset": 0,
						"slot": "4",
						"type": "t_uint256"
					},
					{
						"astId": 258,
						"contract": "erc1155_flattened.sol:Vesting",
						"label": "locked",
						"offset": 0,
						"slot": "5",
						"type": "t_bool"
					},
					{
						"astId": 261,
						"contract": "erc1155_flattened.sol:Vesting",
						"label": "claimed",
						"offset": 1,
						"slot": "5",
						"type": "t_bool"
					}
				],
				"types": {
					"t_address": {
						"encoding": "inplace",
						"label": "address",
						"numberOfBytes": "20"
					},
					"t_bool": {
						"encoding": "inplace",
						"label": "bool",
						"numberOfBytes": "1"
					},
					"t_contract(IERC20)77": {
						"encoding": "inplace",
						"label": "contract IERC20",
						"numberOfBytes": "20"
					},
					"t_uint256": {
						"encoding": "inplace",
						"label": "uint256",
						"numberOfBytes": "32"
					}
				}
			},
			"userdoc": {
				"kind": "user",
				"methods": {},
				"version": 1
			}
		}
	}
}