{
	"https://github.com/compound-finance/compound-protocol/blob/master/contracts/ErrorReporter.sol": {
		"TokenErrorReporter": {
			"abi": [
				{
					"inputs": [],
					"name": "AcceptAdminPendingAdminCheck",
					"type": "error"
				},
				{
					"inputs": [
						{
							"internalType": "uint256",
							"name": "actualAddAmount",
							"type": "uint256"
						}
					],
					"name": "AddReservesFactorFreshCheck",
					"type": "error"
				},
				{
					"inputs": [],
					"name": "BorrowCashNotAvailable",
					"type": "error"
				},
				{
					"inputs": [
						{
							"internalType": "uint256",
							"name": "errorCode",
							"type": "uint256"
						}
					],
					"name": "BorrowComptrollerRejection",
					"type": "error"
				},
				{
					"inputs": [],
					"name": "BorrowFreshnessCheck",
					"type": "error"
				},
				{
					"inputs": [
						{
							"internalType": "uint256",
							"name": "errorCode",
							"type": "uint256"
						}
					],
					"name": "LiquidateAccrueBorrowInterestFailed",
					"type": "error"
				},
				{
					"inputs": [
						{
							"internalType": "uint256",
							"name": "errorCode",
							"type": "uint256"
						}
					],
					"name": "LiquidateAccrueCollateralInterestFailed",
					"type": "error"
				},
				{
					"inputs": [],
					"name": "LiquidateCloseAmountIsUintMax",
					"type": "error"
				},
				{
					"inputs": [],
					"name": "LiquidateCloseAmountIsZero",
					"type": "error"
				},
				{
					"inputs": [],
					"name": "LiquidateCollateralFreshnessCheck",
					"type": "error"
				},
				{
					"inputs": [
						{
							"internalType": "uint256",
							"name": "errorCode",
							"type": "uint256"
						}
					],
					"name": "LiquidateComptrollerRejection",
					"type": "error"
				},
				{
					"inputs": [],
					"name": "LiquidateFreshnessCheck",
					"type": "error"
				},
				{
					"inputs": [],
					"name": "LiquidateLiquidatorIsBorrower",
					"type": "error"
				},
				{
					"inputs": [
						{
							"internalType": "uint256",
							"name": "errorCode",
							"type": "uint256"
						}
					],
					"name": "LiquidateRepayBorrowFreshFailed",
					"type": "error"
				},
				{
					"inputs": [
						{
							"internalType": "uint256",
							"name": "errorCode",
							"type": "uint256"
						}
					],
					"name": "LiquidateSeizeComptrollerRejection",
					"type": "error"
				},
				{
					"inputs": [],
					"name": "LiquidateSeizeLiquidatorIsBorrower",
					"type": "error"
				},
				{
					"inputs": [
						{
							"internalType": "uint256",
							"name": "errorCode",
							"type": "uint256"
						}
					],
					"name": "MintComptrollerRejection",
					"type": "error"
				},
				{
					"inputs": [],
					"name": "MintFreshnessCheck",
					"type": "error"
				},
				{
					"inputs": [
						{
							"internalType": "uint256",
							"name": "errorCode",
							"type": "uint256"
						}
					],
					"name": "RedeemComptrollerRejection",
					"type": "error"
				},
				{
					"inputs": [],
					"name": "RedeemFreshnessCheck",
					"type": "error"
				},
				{
					"inputs": [],
					"name": "RedeemTransferOutNotPossible",
					"type": "error"
				},
				{
					"inputs": [],
					"name": "ReduceReservesAdminCheck",
					"type": "error"
				},
				{
					"inputs": [],
					"name": "ReduceReservesCashNotAvailable",
					"type": "error"
				},
				{
					"inputs": [],
					"name": "ReduceReservesCashValidation",
					"type": "error"
				},
				{
					"inputs": [],
					"name": "ReduceReservesFreshCheck",
					"type": "error"
				},
				{
					"inputs": [
						{
							"internalType": "uint256",
							"name": "errorCode",
							"type": "uint256"
						}
					],
					"name": "RepayBorrowComptrollerRejection",
					"type": "error"
				},
				{
					"inputs": [],
					"name": "RepayBorrowFreshnessCheck",
					"type": "error"
				},
				{
					"inputs": [],
					"name": "SetComptrollerOwnerCheck",
					"type": "error"
				},
				{
					"inputs": [],
					"name": "SetInterestRateModelFreshCheck",
					"type": "error"
				},
				{
					"inputs": [],
					"name": "SetInterestRateModelOwnerCheck",
					"type": "error"
				},
				{
					"inputs": [],
					"name": "SetPendingAdminOwnerCheck",
					"type": "error"
				},
				{
					"inputs": [],
					"name": "SetReserveFactorAdminCheck",
					"type": "error"
				},
				{
					"inputs": [],
					"name": "SetReserveFactorBoundsCheck",
					"type": "error"
				},
				{
					"inputs": [],
					"name": "SetReserveFactorFreshCheck",
					"type": "error"
				},
				{
					"inputs": [
						{
							"internalType": "uint256",
							"name": "errorCode",
							"type": "uint256"
						}
					],
					"name": "TransferComptrollerRejection",
					"type": "error"
				},
				{
					"inputs": [],
					"name": "TransferNotAllowed",
					"type": "error"
				},
				{
					"inputs": [],
					"name": "TransferNotEnough",
					"type": "error"
				},
				{
					"inputs": [],
					"name": "TransferTooMuch",
					"type": "error"
				},
				{
					"inputs": [],
					"name": "NO_ERROR",
					"outputs": [
						{
							"internalType": "uint256",
							"name": "",
							"type": "uint256"
						}
					],
					"stateMutability": "view",
					"type": "function"
				}
			],
			"devdoc": {
				"kind": "dev",
				"methods": {},
				"version": 1
			},
			"evm": {
				"assembly": "    /* \"https://github.com/compound-finance/compound-protocol/blob/master/contracts/ErrorReporter.sol\":2350:4198  contract TokenErrorReporter {... */\n  mstore(0x40, 0x80)\n  callvalue\n  dup1\n  iszero\n  tag_1\n  jumpi\n  0x00\n  dup1\n  revert\ntag_1:\n  pop\n  dataSize(sub_0)\n  dup1\n  dataOffset(sub_0)\n  0x00\n  codecopy\n  0x00\n  return\nstop\n\nsub_0: assembly {\n        /* \"https://github.com/compound-finance/compound-protocol/blob/master/contracts/ErrorReporter.sol\":2350:4198  contract TokenErrorReporter {... */\n      mstore(0x40, 0x80)\n      callvalue\n      dup1\n      iszero\n      tag_1\n      jumpi\n      0x00\n      dup1\n      revert\n    tag_1:\n      pop\n      jumpi(tag_2, lt(calldatasize, 0x04))\n      shr(0xe0, calldataload(0x00))\n      dup1\n      0x69ab3250\n      eq\n      tag_3\n      jumpi\n    tag_2:\n      0x00\n      dup1\n      revert\n        /* \"https://github.com/compound-finance/compound-protocol/blob/master/contracts/ErrorReporter.sol\":2384:2417  uint public constant NO_ERROR = 0 */\n    tag_3:\n      tag_4\n      tag_5\n      jump\t// in\n    tag_4:\n      mload(0x40)\n      tag_6\n      swap2\n      swap1\n      tag_7\n      jump\t// in\n    tag_6:\n      mload(0x40)\n      dup1\n      swap2\n      sub\n      swap1\n      return\n    tag_5:\n        /* \"https://github.com/compound-finance/compound-protocol/blob/master/contracts/ErrorReporter.sol\":2416:2417  0 */\n      0x00\n        /* \"https://github.com/compound-finance/compound-protocol/blob/master/contracts/ErrorReporter.sol\":2384:2417  uint public constant NO_ERROR = 0 */\n      dup2\n      jump\t// out\n        /* \"#utility.yul\":7:84   */\n    tag_8:\n        /* \"#utility.yul\":44:51   */\n      0x00\n        /* \"#utility.yul\":73:78   */\n      dup2\n        /* \"#utility.yul\":62:78   */\n      swap1\n      pop\n        /* \"#utility.yul\":7:84   */\n      swap2\n      swap1\n      pop\n      jump\t// out\n        /* \"#utility.yul\":90:208   */\n    tag_9:\n        /* \"#utility.yul\":177:201   */\n      tag_13\n        /* \"#utility.yul\":195:200   */\n      dup2\n        /* \"#utility.yul\":177:201   */\n      tag_8\n      jump\t// in\n    tag_13:\n        /* \"#utility.yul\":172:175   */\n      dup3\n        /* \"#utility.yul\":165:202   */\n      mstore\n        /* \"#utility.yul\":90:208   */\n      pop\n      pop\n      jump\t// out\n        /* \"#utility.yul\":214:436   */\n    tag_7:\n        /* \"#utility.yul\":307:311   */\n      0x00\n        /* \"#utility.yul\":345:347   */\n      0x20\n        /* \"#utility.yul\":334:343   */\n      dup3\n        /* \"#utility.yul\":330:348   */\n      add\n        /* \"#utility.yul\":322:348   */\n      swap1\n      pop\n        /* \"#utility.yul\":358:429   */\n      tag_15\n        /* \"#utility.yul\":426:427   */\n      0x00\n        /* \"#utility.yul\":415:424   */\n      dup4\n        /* \"#utility.yul\":411:428   */\n      add\n        /* \"#utility.yul\":402:408   */\n      dup5\n        /* \"#utility.yul\":358:429   */\n      tag_9\n      jump\t// in\n    tag_15:\n        /* \"#utility.yul\":214:436   */\n      swap3\n      swap2\n      pop\n      pop\n      jump\t// out\n\n    auxdata: 0xa264697066735822122069afab989956958cb5e24c3410454c16069669377d1d1b3a1b724c16ac63570f64736f6c634300080a0033\n}\n",
				"bytecode": {
					"linkReferences": {},
					"object": "608060405234801561001057600080fd5b5060b28061001f6000396000f3fe6080604052348015600f57600080fd5b506004361060285760003560e01c806369ab325014602d575b600080fd5b60336047565b604051603e91906063565b60405180910390f35b600081565b6000819050919050565b605d81604c565b82525050565b6000602082019050607660008301846056565b9291505056fea264697066735822122069afab989956958cb5e24c3410454c16069669377d1d1b3a1b724c16ac63570f64736f6c634300080a0033",
					"opcodes": "PUSH1 0x80 PUSH1 0x40 MSTORE CALLVALUE DUP1 ISZERO PUSH2 0x10 JUMPI PUSH1 0x0 DUP1 REVERT JUMPDEST POP PUSH1 0xB2 DUP1 PUSH2 0x1F PUSH1 0x0 CODECOPY PUSH1 0x0 RETURN INVALID PUSH1 0x80 PUSH1 0x40 MSTORE CALLVALUE DUP1 ISZERO PUSH1 0xF JUMPI PUSH1 0x0 DUP1 REVERT JUMPDEST POP PUSH1 0x4 CALLDATASIZE LT PUSH1 0x28 JUMPI PUSH1 0x0 CALLDATALOAD PUSH1 0xE0 SHR DUP1 PUSH4 0x69AB3250 EQ PUSH1 0x2D JUMPI JUMPDEST PUSH1 0x0 DUP1 REVERT JUMPDEST PUSH1 0x33 PUSH1 0x47 JUMP JUMPDEST PUSH1 0x40 MLOAD PUSH1 0x3E SWAP2 SWAP1 PUSH1 0x63 JUMP JUMPDEST PUSH1 0x40 MLOAD DUP1 SWAP2 SUB SWAP1 RETURN JUMPDEST PUSH1 0x0 DUP2 JUMP JUMPDEST PUSH1 0x0 DUP2 SWAP1 POP SWAP2 SWAP1 POP JUMP JUMPDEST PUSH1 0x5D DUP2 PUSH1 0x4C JUMP JUMPDEST DUP3 MSTORE POP POP JUMP JUMPDEST PUSH1 0x0 PUSH1 0x20 DUP3 ADD SWAP1 POP PUSH1 0x76 PUSH1 0x0 DUP4 ADD DUP5 PUSH1 0x56 JUMP JUMPDEST SWAP3 SWAP2 POP POP JUMP INVALID LOG2 PUSH5 0x6970667358 0x22 SLT KECCAK256 PUSH10 0xAFAB989956958CB5E24C CALLVALUE LT GASLIMIT 0x4C AND MOD SWAP7 PUSH10 0x377D1D1B3A1B724C16AC PUSH4 0x570F6473 PUSH16 0x6C634300080A00330000000000000000 "
				},
				"gasEstimates": {
					"creation": {
						"codeDepositCost": "35600",
						"executionCost": "87",
						"totalCost": "35687"
					},
					"external": {
						"NO_ERROR()": "307"
					}
				},
				"methodIdentifiers": {
					"NO_ERROR()": "69ab3250"
				}
			},
			"storageLayout": {
				"storage": [],
				"types": null
			},
			"userdoc": {
				"kind": "user",
				"methods": {},
				"version": 1
			}
		}
	}
}