{
	"Mycontract.sol": {
		"CompoundSupply": {
			"abi": [
				{
					"inputs": [
						{
							"internalType": "address",
							"name": "_daiTokenAddress",
							"type": "address"
						},
						{
							"internalType": "address",
							"name": "_cDaiTokenAddress",
							"type": "address"
						}
					],
					"stateMutability": "nonpayable",
					"type": "constructor"
				},
				{
					"inputs": [],
					"name": "cDaiBalance",
					"outputs": [
						{
							"internalType": "uint256",
							"name": "",
							"type": "uint256"
						}
					],
					"stateMutability": "view",
					"type": "function"
				},
				{
					"inputs": [],
					"name": "cDaiToken",
					"outputs": [
						{
							"internalType": "contract CErc20Interface",
							"name": "",
							"type": "address"
						}
					],
					"stateMutability": "view",
					"type": "function"
				},
				{
					"inputs": [],
					"name": "daiToken",
					"outputs": [
						{
							"internalType": "contract IERC20",
							"name": "",
							"type": "address"
						}
					],
					"stateMutability": "view",
					"type": "function"
				},
				{
					"inputs": [
						{
							"internalType": "uint256",
							"name": "amount",
							"type": "uint256"
						}
					],
					"name": "deposit",
					"outputs": [],
					"stateMutability": "nonpayable",
					"type": "function"
				},
				{
					"inputs": [],
					"name": "owner",
					"outputs": [
						{
							"internalType": "address",
							"name": "",
							"type": "address"
						}
					],
					"stateMutability": "view",
					"type": "function"
				},
				{
					"inputs": [
						{
							"internalType": "uint256",
							"name": "amount",
							"type": "uint256"
						}
					],
					"name": "withdraw",
					"outputs": [],
					"stateMutability": "nonpayable",
					"type": "function"
				},
				{
					"inputs": [
						{
							"internalType": "address",
							"name": "tokenAddress",
							"type": "address"
						}
					],
					"name": "withdrawExcessTokens",
					"outputs": [],
					"stateMutability": "nonpayable",
					"type": "function"
				}
			],
			"devdoc": {
				"kind": "dev",
				"methods": {},
				"version": 1
			},
			"evm": {
				"assembly": "    /* \"Mycontract.sol\":276:2263  contract CompoundSupply {... */\n  mstore(0x40, 0x80)\n    /* \"Mycontract.sol\":493:698  constructor(address _daiTokenAddress, address _cDaiTokenAddress) {... */\n  callvalue\n  dup1\n  iszero\n  tag_1\n  jumpi\n  0x00\n  dup1\n  revert\ntag_1:\n  pop\n  mload(0x40)\n  sub(codesize, bytecodeSize)\n  dup1\n  bytecodeSize\n  dup4\n  codecopy\n  dup2\n  dup2\n  add\n  0x40\n  mstore\n  dup2\n  add\n  swap1\n  tag_2\n  swap2\n  swap1\n  tag_3\n  jump\t// in\ntag_2:\n    /* \"Mycontract.sol\":577:587  msg.sender */\n  caller\n    /* \"Mycontract.sol\":569:574  owner */\n  0x00\n  dup1\n    /* \"Mycontract.sol\":569:587  owner = msg.sender */\n  0x0100\n  exp\n  dup2\n  sload\n  dup2\n  0xffffffffffffffffffffffffffffffffffffffff\n  mul\n  not\n  and\n  swap1\n  dup4\n  0xffffffffffffffffffffffffffffffffffffffff\n  and\n  mul\n  or\n  swap1\n  sstore\n  pop\n    /* \"Mycontract.sol\":616:632  _daiTokenAddress */\n  dup2\n    /* \"Mycontract.sol\":598:606  daiToken */\n  0x01\n  0x00\n    /* \"Mycontract.sol\":598:633  daiToken = IERC20(_daiTokenAddress) */\n  0x0100\n  exp\n  dup2\n  sload\n  dup2\n  0xffffffffffffffffffffffffffffffffffffffff\n  mul\n  not\n  and\n  swap1\n  dup4\n  0xffffffffffffffffffffffffffffffffffffffff\n  and\n  mul\n  or\n  swap1\n  sstore\n  pop\n    /* \"Mycontract.sol\":672:689  _cDaiTokenAddress */\n  dup1\n    /* \"Mycontract.sol\":644:653  cDaiToken */\n  0x02\n  0x00\n    /* \"Mycontract.sol\":644:690  cDaiToken = CErc20Interface(_cDaiTokenAddress) */\n  0x0100\n  exp\n  dup2\n  sload\n  dup2\n  0xffffffffffffffffffffffffffffffffffffffff\n  mul\n  not\n  and\n  swap1\n  dup4\n  0xffffffffffffffffffffffffffffffffffffffff\n  and\n  mul\n  or\n  swap1\n  sstore\n  pop\n    /* \"Mycontract.sol\":493:698  constructor(address _daiTokenAddress, address _cDaiTokenAddress) {... */\n  pop\n  pop\n    /* \"Mycontract.sol\":276:2263  contract CompoundSupply {... */\n  jump(tag_6)\n    /* \"#utility.yul\":88:205   */\ntag_8:\n    /* \"#utility.yul\":197:198   */\n  0x00\n    /* \"#utility.yul\":194:195   */\n  dup1\n    /* \"#utility.yul\":187:199   */\n  revert\n    /* \"#utility.yul\":334:460   */\ntag_10:\n    /* \"#utility.yul\":371:378   */\n  0x00\n    /* \"#utility.yul\":411:453   */\n  0xffffffffffffffffffffffffffffffffffffffff\n    /* \"#utility.yul\":404:409   */\n  dup3\n    /* \"#utility.yul\":400:454   */\n  and\n    /* \"#utility.yul\":389:454   */\n  swap1\n  pop\n    /* \"#utility.yul\":334:460   */\n  swap2\n  swap1\n  pop\n  jump\t// out\n    /* \"#utility.yul\":466:562   */\ntag_11:\n    /* \"#utility.yul\":503:510   */\n  0x00\n    /* \"#utility.yul\":532:556   */\n  tag_20\n    /* \"#utility.yul\":550:555   */\n  dup3\n    /* \"#utility.yul\":532:556   */\n  tag_10\n  jump\t// in\ntag_20:\n    /* \"#utility.yul\":521:556   */\n  swap1\n  pop\n    /* \"#utility.yul\":466:562   */\n  swap2\n  swap1\n  pop\n  jump\t// out\n    /* \"#utility.yul\":568:690   */\ntag_12:\n    /* \"#utility.yul\":641:665   */\n  tag_22\n    /* \"#utility.yul\":659:664   */\n  dup2\n    /* \"#utility.yul\":641:665   */\n  tag_11\n  jump\t// in\ntag_22:\n    /* \"#utility.yul\":634:639   */\n  dup2\n    /* \"#utility.yul\":631:666   */\n  eq\n    /* \"#utility.yul\":621:684   */\n  tag_23\n  jumpi\n    /* \"#utility.yul\":680:681   */\n  0x00\n    /* \"#utility.yul\":677:678   */\n  dup1\n    /* \"#utility.yul\":670:682   */\n  revert\n    /* \"#utility.yul\":621:684   */\ntag_23:\n    /* \"#utility.yul\":568:690   */\n  pop\n  jump\t// out\n    /* \"#utility.yul\":696:839   */\ntag_13:\n    /* \"#utility.yul\":753:758   */\n  0x00\n    /* \"#utility.yul\":784:790   */\n  dup2\n    /* \"#utility.yul\":778:791   */\n  mload\n    /* \"#utility.yul\":769:791   */\n  swap1\n  pop\n    /* \"#utility.yul\":800:833   */\n  tag_25\n    /* \"#utility.yul\":827:832   */\n  dup2\n    /* \"#utility.yul\":800:833   */\n  tag_12\n  jump\t// in\ntag_25:\n    /* \"#utility.yul\":696:839   */\n  swap3\n  swap2\n  pop\n  pop\n  jump\t// out\n    /* \"#utility.yul\":845:1352   */\ntag_3:\n    /* \"#utility.yul\":924:930   */\n  0x00\n    /* \"#utility.yul\":932:938   */\n  dup1\n    /* \"#utility.yul\":981:983   */\n  0x40\n    /* \"#utility.yul\":969:978   */\n  dup4\n    /* \"#utility.yul\":960:967   */\n  dup6\n    /* \"#utility.yul\":956:979   */\n  sub\n    /* \"#utility.yul\":952:984   */\n  slt\n    /* \"#utility.yul\":949:1068   */\n  iszero\n  tag_27\n  jumpi\n    /* \"#utility.yul\":987:1066   */\n  tag_28\n  tag_8\n  jump\t// in\ntag_28:\n    /* \"#utility.yul\":949:1068   */\ntag_27:\n    /* \"#utility.yul\":1107:1108   */\n  0x00\n    /* \"#utility.yul\":1132:1196   */\n  tag_29\n    /* \"#utility.yul\":1188:1195   */\n  dup6\n    /* \"#utility.yul\":1179:1185   */\n  dup3\n    /* \"#utility.yul\":1168:1177   */\n  dup7\n    /* \"#utility.yul\":1164:1186   */\n  add\n    /* \"#utility.yul\":1132:1196   */\n  tag_13\n  jump\t// in\ntag_29:\n    /* \"#utility.yul\":1122:1196   */\n  swap3\n  pop\n    /* \"#utility.yul\":1078:1206   */\n  pop\n    /* \"#utility.yul\":1245:1247   */\n  0x20\n    /* \"#utility.yul\":1271:1335   */\n  tag_30\n    /* \"#utility.yul\":1327:1334   */\n  dup6\n    /* \"#utility.yul\":1318:1324   */\n  dup3\n    /* \"#utility.yul\":1307:1316   */\n  dup7\n    /* \"#utility.yul\":1303:1325   */\n  add\n    /* \"#utility.yul\":1271:1335   */\n  tag_13\n  jump\t// in\ntag_30:\n    /* \"#utility.yul\":1261:1335   */\n  swap2\n  pop\n    /* \"#utility.yul\":1216:1345   */\n  pop\n    /* \"#utility.yul\":845:1352   */\n  swap3\n  pop\n  swap3\n  swap1\n  pop\n  jump\t// out\n    /* \"Mycontract.sol\":276:2263  contract CompoundSupply {... */\ntag_6:\n  dataSize(sub_0)\n  dup1\n  dataOffset(sub_0)\n  0x00\n  codecopy\n  0x00\n  return\nstop\n\nsub_0: assembly {\n        /* \"Mycontract.sol\":276:2263  contract CompoundSupply {... */\n      mstore(0x40, 0x80)\n      callvalue\n      dup1\n      iszero\n      tag_1\n      jumpi\n      0x00\n      dup1\n      revert\n    tag_1:\n      pop\n      jumpi(tag_2, lt(calldatasize, 0x04))\n      shr(0xe0, calldataload(0x00))\n      dup1\n      0x8da5cb5b\n      gt\n      tag_10\n      jumpi\n      dup1\n      0x8da5cb5b\n      eq\n      tag_6\n      jumpi\n      dup1\n      0xb6b55f25\n      eq\n      tag_7\n      jumpi\n      dup1\n      0xba266b13\n      eq\n      tag_8\n      jumpi\n      dup1\n      0xbe22f546\n      eq\n      tag_9\n      jumpi\n      jump(tag_2)\n    tag_10:\n      dup1\n      0x0d842561\n      eq\n      tag_3\n      jumpi\n      dup1\n      0x2e1a7d4d\n      eq\n      tag_4\n      jumpi\n      dup1\n      0x68899b6f\n      eq\n      tag_5\n      jumpi\n    tag_2:\n      0x00\n      dup1\n      revert\n        /* \"Mycontract.sol\":1826:2260  function withdrawExcessTokens(address tokenAddress) external {... */\n    tag_3:\n      tag_11\n      0x04\n      dup1\n      calldatasize\n      sub\n      dup2\n      add\n      swap1\n      tag_12\n      swap2\n      swap1\n      tag_13\n      jump\t// in\n    tag_12:\n      tag_14\n      jump\t// in\n    tag_11:\n      stop\n        /* \"Mycontract.sol\":1202:1584  function withdraw(uint256 amount) external {... */\n    tag_4:\n      tag_15\n      0x04\n      dup1\n      calldatasize\n      sub\n      dup2\n      add\n      swap1\n      tag_16\n      swap2\n      swap1\n      tag_17\n      jump\t// in\n    tag_16:\n      tag_18\n      jump\t// in\n    tag_15:\n      stop\n        /* \"Mycontract.sol\":1640:1755  function cDaiBalance() external view returns (uint256) {... */\n    tag_5:\n      tag_19\n      tag_20\n      jump\t// in\n    tag_19:\n      mload(0x40)\n      tag_21\n      swap2\n      swap1\n      tag_22\n      jump\t// in\n    tag_21:\n      mload(0x40)\n      dup1\n      swap2\n      sub\n      swap1\n      return\n        /* \"Mycontract.sol\":342:362  address public owner */\n    tag_6:\n      tag_23\n      tag_24\n      jump\t// in\n    tag_23:\n      mload(0x40)\n      tag_25\n      swap2\n      swap1\n      tag_26\n      jump\t// in\n    tag_25:\n      mload(0x40)\n      dup1\n      swap2\n      sub\n      swap1\n      return\n        /* \"Mycontract.sol\":753:1146  function deposit(uint256 amount) external {... */\n    tag_7:\n      tag_27\n      0x04\n      dup1\n      calldatasize\n      sub\n      dup2\n      add\n      swap1\n      tag_28\n      swap2\n      swap1\n      tag_17\n      jump\t// in\n    tag_28:\n      tag_29\n      jump\t// in\n    tag_27:\n      stop\n        /* \"Mycontract.sol\":398:430  CErc20Interface public cDaiToken */\n    tag_8:\n      tag_30\n      tag_31\n      jump\t// in\n    tag_30:\n      mload(0x40)\n      tag_32\n      swap2\n      swap1\n      tag_33\n      jump\t// in\n    tag_32:\n      mload(0x40)\n      dup1\n      swap2\n      sub\n      swap1\n      return\n        /* \"Mycontract.sol\":369:391  IERC20 public daiToken */\n    tag_9:\n      tag_34\n      tag_35\n      jump\t// in\n    tag_34:\n      mload(0x40)\n      tag_36\n      swap2\n      swap1\n      tag_37\n      jump\t// in\n    tag_36:\n      mload(0x40)\n      dup1\n      swap2\n      sub\n      swap1\n      return\n        /* \"Mycontract.sol\":1826:2260  function withdrawExcessTokens(address tokenAddress) external {... */\n    tag_14:\n        /* \"Mycontract.sol\":1920:1925  owner */\n      0x00\n      dup1\n      sload\n      swap1\n      0x0100\n      exp\n      swap1\n      div\n      0xffffffffffffffffffffffffffffffffffffffff\n      and\n        /* \"Mycontract.sol\":1906:1925  msg.sender == owner */\n      0xffffffffffffffffffffffffffffffffffffffff\n      and\n        /* \"Mycontract.sol\":1906:1916  msg.sender */\n      caller\n        /* \"Mycontract.sol\":1906:1925  msg.sender == owner */\n      0xffffffffffffffffffffffffffffffffffffffff\n      and\n      eq\n        /* \"Mycontract.sol\":1898:1967  require(msg.sender == owner, \"Only the owner can call this function\") */\n      tag_39\n      jumpi\n      mload(0x40)\n      0x08c379a000000000000000000000000000000000000000000000000000000000\n      dup2\n      mstore\n      0x04\n      add\n      tag_40\n      swap1\n      tag_41\n      jump\t// in\n    tag_40:\n      mload(0x40)\n      dup1\n      swap2\n      sub\n      swap1\n      revert\n    tag_39:\n        /* \"Mycontract.sol\":2010:2019  cDaiToken */\n      0x02\n      0x00\n      swap1\n      sload\n      swap1\n      0x0100\n      exp\n      swap1\n      div\n      0xffffffffffffffffffffffffffffffffffffffff\n      and\n        /* \"Mycontract.sol\":1986:2020  tokenAddress != address(cDaiToken) */\n      0xffffffffffffffffffffffffffffffffffffffff\n      and\n        /* \"Mycontract.sol\":1986:1998  tokenAddress */\n      dup2\n        /* \"Mycontract.sol\":1986:2020  tokenAddress != address(cDaiToken) */\n      0xffffffffffffffffffffffffffffffffffffffff\n      and\n      sub\n        /* \"Mycontract.sol\":1978:2045  require(tokenAddress != address(cDaiToken), \"Cannot withdraw cDAI\") */\n      tag_42\n      jumpi\n      mload(0x40)\n      0x08c379a000000000000000000000000000000000000000000000000000000000\n      dup2\n      mstore\n      0x04\n      add\n      tag_43\n      swap1\n      tag_44\n      jump\t// in\n    tag_43:\n      mload(0x40)\n      dup1\n      swap2\n      sub\n      swap1\n      revert\n    tag_42:\n        /* \"Mycontract.sol\":2056:2068  IERC20 token */\n      0x00\n        /* \"Mycontract.sol\":2078:2090  tokenAddress */\n      dup2\n        /* \"Mycontract.sol\":2056:2091  IERC20 token = IERC20(tokenAddress) */\n      swap1\n      pop\n        /* \"Mycontract.sol\":2102:2117  uint256 balance */\n      0x00\n        /* \"Mycontract.sol\":2120:2125  token */\n      dup2\n        /* \"Mycontract.sol\":2120:2135  token.balanceOf */\n      0xffffffffffffffffffffffffffffffffffffffff\n      and\n      0x70a08231\n        /* \"Mycontract.sol\":2144:2148  this */\n      address\n        /* \"Mycontract.sol\":2120:2150  token.balanceOf(address(this)) */\n      mload(0x40)\n      dup3\n      0xffffffff\n      and\n      0xe0\n      shl\n      dup2\n      mstore\n      0x04\n      add\n      tag_45\n      swap2\n      swap1\n      tag_26\n      jump\t// in\n    tag_45:\n      0x20\n      mload(0x40)\n      dup1\n      dup4\n      sub\n      dup2\n      dup7\n      gas\n      staticcall\n      iszero\n      dup1\n      iszero\n      tag_47\n      jumpi\n      returndatasize\n      0x00\n      dup1\n      returndatacopy\n      revert(0x00, returndatasize)\n    tag_47:\n      pop\n      pop\n      pop\n      pop\n      mload(0x40)\n      returndatasize\n      not(0x1f)\n      0x1f\n      dup3\n      add\n      and\n      dup3\n      add\n      dup1\n      0x40\n      mstore\n      pop\n      dup2\n      add\n      swap1\n      tag_48\n      swap2\n      swap1\n      tag_49\n      jump\t// in\n    tag_48:\n        /* \"Mycontract.sol\":2102:2150  uint256 balance = token.balanceOf(address(this)) */\n      swap1\n      pop\n        /* \"Mycontract.sol\":2179:2180  0 */\n      0x00\n        /* \"Mycontract.sol\":2169:2176  balance */\n      dup2\n        /* \"Mycontract.sol\":2169:2180  balance > 0 */\n      gt\n        /* \"Mycontract.sol\":2161:2207  require(balance > 0, \"No balance to withdraw\") */\n      tag_50\n      jumpi\n      mload(0x40)\n      0x08c379a000000000000000000000000000000000000000000000000000000000\n      dup2\n      mstore\n      0x04\n      add\n      tag_51\n      swap1\n      tag_52\n      jump\t// in\n    tag_51:\n      mload(0x40)\n      dup1\n      swap2\n      sub\n      swap1\n      revert\n    tag_50:\n        /* \"Mycontract.sol\":2218:2252  token.safeTransfer(owner, balance) */\n      tag_53\n        /* \"Mycontract.sol\":2237:2242  owner */\n      0x00\n      dup1\n      sload\n      swap1\n      0x0100\n      exp\n      swap1\n      div\n      0xffffffffffffffffffffffffffffffffffffffff\n      and\n        /* \"Mycontract.sol\":2244:2251  balance */\n      dup3\n        /* \"Mycontract.sol\":2218:2223  token */\n      dup5\n        /* \"Mycontract.sol\":2218:2236  token.safeTransfer */\n      0xffffffffffffffffffffffffffffffffffffffff\n      and\n      tag_54\n      swap1\n        /* \"Mycontract.sol\":2218:2252  token.safeTransfer(owner, balance) */\n      swap3\n      swap2\n      swap1\n      0xffffffff\n      and\n      jump\t// in\n    tag_53:\n        /* \"Mycontract.sol\":1887:2260  {... */\n      pop\n      pop\n        /* \"Mycontract.sol\":1826:2260  function withdrawExcessTokens(address tokenAddress) external {... */\n      pop\n      jump\t// out\n        /* \"Mycontract.sol\":1202:1584  function withdraw(uint256 amount) external {... */\n    tag_18:\n        /* \"Mycontract.sol\":1273:1274  0 */\n      0x00\n        /* \"Mycontract.sol\":1264:1270  amount */\n      dup2\n        /* \"Mycontract.sol\":1264:1274  amount > 0 */\n      gt\n        /* \"Mycontract.sol\":1256:1311  require(amount > 0, \"Amount must be greater than zero\") */\n      tag_56\n      jumpi\n      mload(0x40)\n      0x08c379a000000000000000000000000000000000000000000000000000000000\n      dup2\n      mstore\n      0x04\n      add\n      tag_57\n      swap1\n      tag_58\n      jump\t// in\n    tag_57:\n      mload(0x40)\n      dup1\n      swap2\n      sub\n      swap1\n      revert\n    tag_56:\n        /* \"Mycontract.sol\":1368:1374  amount */\n      dup1\n        /* \"Mycontract.sol\":1330:1339  cDaiToken */\n      0x02\n      0x00\n      swap1\n      sload\n      swap1\n      0x0100\n      exp\n      swap1\n      div\n      0xffffffffffffffffffffffffffffffffffffffff\n      and\n        /* \"Mycontract.sol\":1330:1349  cDaiToken.balanceOf */\n      0xffffffffffffffffffffffffffffffffffffffff\n      and\n      0x70a08231\n        /* \"Mycontract.sol\":1358:1362  this */\n      address\n        /* \"Mycontract.sol\":1330:1364  cDaiToken.balanceOf(address(this)) */\n      mload(0x40)\n      dup3\n      0xffffffff\n      and\n      0xe0\n      shl\n      dup2\n      mstore\n      0x04\n      add\n      tag_59\n      swap2\n      swap1\n      tag_26\n      jump\t// in\n    tag_59:\n      0x20\n      mload(0x40)\n      dup1\n      dup4\n      sub\n      dup2\n      dup7\n      gas\n      staticcall\n      iszero\n      dup1\n      iszero\n      tag_61\n      jumpi\n      returndatasize\n      0x00\n      dup1\n      returndatacopy\n      revert(0x00, returndatasize)\n    tag_61:\n      pop\n      pop\n      pop\n      pop\n      mload(0x40)\n      returndatasize\n      not(0x1f)\n      0x1f\n      dup3\n      add\n      and\n      dup3\n      add\n      dup1\n      0x40\n      mstore\n      pop\n      dup2\n      add\n      swap1\n      tag_62\n      swap2\n      swap1\n      tag_49\n      jump\t// in\n    tag_62:\n        /* \"Mycontract.sol\":1330:1374  cDaiToken.balanceOf(address(this)) >= amount */\n      lt\n      iszero\n        /* \"Mycontract.sol\":1322:1404  require(cDaiToken.balanceOf(address(this)) >= amount, \"Insufficient cDAI balance\") */\n      tag_63\n      jumpi\n      mload(0x40)\n      0x08c379a000000000000000000000000000000000000000000000000000000000\n      dup2\n      mstore\n      0x04\n      add\n      tag_64\n      swap1\n      tag_65\n      jump\t// in\n    tag_64:\n      mload(0x40)\n      dup1\n      swap2\n      sub\n      swap1\n      revert\n    tag_63:\n        /* \"Mycontract.sol\":1415:1435  uint256 redeemResult */\n      0x00\n        /* \"Mycontract.sol\":1438:1447  cDaiToken */\n      0x02\n      0x00\n      swap1\n      sload\n      swap1\n      0x0100\n      exp\n      swap1\n      div\n      0xffffffffffffffffffffffffffffffffffffffff\n      and\n        /* \"Mycontract.sol\":1438:1454  cDaiToken.redeem */\n      0xffffffffffffffffffffffffffffffffffffffff\n      and\n      0xdb006a75\n        /* \"Mycontract.sol\":1455:1461  amount */\n      dup4\n        /* \"Mycontract.sol\":1438:1462  cDaiToken.redeem(amount) */\n      mload(0x40)\n      dup3\n      0xffffffff\n      and\n      0xe0\n      shl\n      dup2\n      mstore\n      0x04\n      add\n      tag_66\n      swap2\n      swap1\n      tag_22\n      jump\t// in\n    tag_66:\n      0x20\n      mload(0x40)\n      dup1\n      dup4\n      sub\n      dup2\n      0x00\n      dup8\n      gas\n      call\n      iszero\n      dup1\n      iszero\n      tag_68\n      jumpi\n      returndatasize\n      0x00\n      dup1\n      returndatacopy\n      revert(0x00, returndatasize)\n    tag_68:\n      pop\n      pop\n      pop\n      pop\n      mload(0x40)\n      returndatasize\n      not(0x1f)\n      0x1f\n      dup3\n      add\n      and\n      dup3\n      add\n      dup1\n      0x40\n      mstore\n      pop\n      dup2\n      add\n      swap1\n      tag_69\n      swap2\n      swap1\n      tag_49\n      jump\t// in\n    tag_69:\n        /* \"Mycontract.sol\":1415:1462  uint256 redeemResult = cDaiToken.redeem(amount) */\n      swap1\n      pop\n        /* \"Mycontract.sol\":1497:1498  0 */\n      0x00\n        /* \"Mycontract.sol\":1481:1493  redeemResult */\n      dup2\n        /* \"Mycontract.sol\":1481:1498  redeemResult == 0 */\n      eq\n        /* \"Mycontract.sol\":1473:1524  require(redeemResult == 0, \"cDAI redeeming failed\") */\n      tag_70\n      jumpi\n      mload(0x40)\n      0x08c379a000000000000000000000000000000000000000000000000000000000\n      dup2\n      mstore\n      0x04\n      add\n      tag_71\n      swap1\n      tag_72\n      jump\t// in\n    tag_71:\n      mload(0x40)\n      dup1\n      swap2\n      sub\n      swap1\n      revert\n    tag_70:\n        /* \"Mycontract.sol\":1535:1576  daiToken.safeTransfer(msg.sender, amount) */\n      tag_73\n        /* \"Mycontract.sol\":1557:1567  msg.sender */\n      caller\n        /* \"Mycontract.sol\":1569:1575  amount */\n      dup4\n        /* \"Mycontract.sol\":1535:1543  daiToken */\n      0x01\n      0x00\n      swap1\n      sload\n      swap1\n      0x0100\n      exp\n      swap1\n      div\n      0xffffffffffffffffffffffffffffffffffffffff\n      and\n        /* \"Mycontract.sol\":1535:1556  daiToken.safeTransfer */\n      0xffffffffffffffffffffffffffffffffffffffff\n      and\n      tag_54\n      swap1\n        /* \"Mycontract.sol\":1535:1576  daiToken.safeTransfer(msg.sender, amount) */\n      swap3\n      swap2\n      swap1\n      0xffffffff\n      and\n      jump\t// in\n    tag_73:\n        /* \"Mycontract.sol\":1245:1584  {... */\n      pop\n        /* \"Mycontract.sol\":1202:1584  function withdraw(uint256 amount) external {... */\n      pop\n      jump\t// out\n        /* \"Mycontract.sol\":1640:1755  function cDaiBalance() external view returns (uint256) {... */\n    tag_20:\n        /* \"Mycontract.sol\":1686:1693  uint256 */\n      0x00\n        /* \"Mycontract.sol\":1713:1722  cDaiToken */\n      0x02\n      0x00\n      swap1\n      sload\n      swap1\n      0x0100\n      exp\n      swap1\n      div\n      0xffffffffffffffffffffffffffffffffffffffff\n      and\n        /* \"Mycontract.sol\":1713:1732  cDaiToken.balanceOf */\n      0xffffffffffffffffffffffffffffffffffffffff\n      and\n      0x70a08231\n        /* \"Mycontract.sol\":1741:1745  this */\n      address\n        /* \"Mycontract.sol\":1713:1747  cDaiToken.balanceOf(address(this)) */\n      mload(0x40)\n      dup3\n      0xffffffff\n      and\n      0xe0\n      shl\n      dup2\n      mstore\n      0x04\n      add\n      tag_75\n      swap2\n      swap1\n      tag_26\n      jump\t// in\n    tag_75:\n      0x20\n      mload(0x40)\n      dup1\n      dup4\n      sub\n      dup2\n      dup7\n      gas\n      staticcall\n      iszero\n      dup1\n      iszero\n      tag_77\n      jumpi\n      returndatasize\n      0x00\n      dup1\n      returndatacopy\n      revert(0x00, returndatasize)\n    tag_77:\n      pop\n      pop\n      pop\n      pop\n      mload(0x40)\n      returndatasize\n      not(0x1f)\n      0x1f\n      dup3\n      add\n      and\n      dup3\n      add\n      dup1\n      0x40\n      mstore\n      pop\n      dup2\n      add\n      swap1\n      tag_78\n      swap2\n      swap1\n      tag_49\n      jump\t// in\n    tag_78:\n        /* \"Mycontract.sol\":1706:1747  return cDaiToken.balanceOf(address(this)) */\n      swap1\n      pop\n        /* \"Mycontract.sol\":1640:1755  function cDaiBalance() external view returns (uint256) {... */\n      swap1\n      jump\t// out\n        /* \"Mycontract.sol\":342:362  address public owner */\n    tag_24:\n      0x00\n      dup1\n      sload\n      swap1\n      0x0100\n      exp\n      swap1\n      div\n      0xffffffffffffffffffffffffffffffffffffffff\n      and\n      dup2\n      jump\t// out\n        /* \"Mycontract.sol\":753:1146  function deposit(uint256 amount) external {... */\n    tag_29:\n        /* \"Mycontract.sol\":823:824  0 */\n      0x00\n        /* \"Mycontract.sol\":814:820  amount */\n      dup2\n        /* \"Mycontract.sol\":814:824  amount > 0 */\n      gt\n        /* \"Mycontract.sol\":806:861  require(amount > 0, \"Amount must be greater than zero\") */\n      tag_80\n      jumpi\n      mload(0x40)\n      0x08c379a000000000000000000000000000000000000000000000000000000000\n      dup2\n      mstore\n      0x04\n      add\n      tag_81\n      swap1\n      tag_58\n      jump\t// in\n    tag_81:\n      mload(0x40)\n      dup1\n      swap2\n      sub\n      swap1\n      revert\n    tag_80:\n        /* \"Mycontract.sol\":927:933  amount */\n      dup1\n        /* \"Mycontract.sol\":878:886  daiToken */\n      0x01\n      0x00\n      swap1\n      sload\n      swap1\n      0x0100\n      exp\n      swap1\n      div\n      0xffffffffffffffffffffffffffffffffffffffff\n      and\n        /* \"Mycontract.sol\":878:896  daiToken.allowance */\n      0xffffffffffffffffffffffffffffffffffffffff\n      and\n      0xdd62ed3e\n        /* \"Mycontract.sol\":897:907  msg.sender */\n      caller\n        /* \"Mycontract.sol\":917:921  this */\n      address\n        /* \"Mycontract.sol\":878:923  daiToken.allowance(msg.sender, address(this)) */\n      mload(0x40)\n      dup4\n      0xffffffff\n      and\n      0xe0\n      shl\n      dup2\n      mstore\n      0x04\n      add\n      tag_82\n      swap3\n      swap2\n      swap1\n      tag_83\n      jump\t// in\n    tag_82:\n      0x20\n      mload(0x40)\n      dup1\n      dup4\n      sub\n      dup2\n      dup7\n      gas\n      staticcall\n      iszero\n      dup1\n      iszero\n      tag_85\n      jumpi\n      returndatasize\n      0x00\n      dup1\n      returndatacopy\n      revert(0x00, returndatasize)\n    tag_85:\n      pop\n      pop\n      pop\n      pop\n      mload(0x40)\n      returndatasize\n      not(0x1f)\n      0x1f\n      dup3\n      add\n      and\n      dup3\n      add\n      dup1\n      0x40\n      mstore\n      pop\n      dup2\n      add\n      swap1\n      tag_86\n      swap2\n      swap1\n      tag_49\n      jump\t// in\n    tag_86:\n        /* \"Mycontract.sol\":878:933  daiToken.allowance(msg.sender, address(this)) >= amount */\n      lt\n      iszero\n        /* \"Mycontract.sol\":870:955  require(daiToken.allowance(msg.sender, address(this)) >= amount, \"Allowance not set\") */\n      tag_87\n      jumpi\n      mload(0x40)\n      0x08c379a000000000000000000000000000000000000000000000000000000000\n      dup2\n      mstore\n      0x04\n      add\n      tag_88\n      swap1\n      tag_89\n      jump\t// in\n    tag_88:\n      mload(0x40)\n      dup1\n      swap2\n      sub\n      swap1\n      revert\n    tag_87:\n        /* \"Mycontract.sol\":966:1026  daiToken.safeTransferFrom(msg.sender, address(this), amount) */\n      tag_90\n        /* \"Mycontract.sol\":992:1002  msg.sender */\n      caller\n        /* \"Mycontract.sol\":1012:1016  this */\n      address\n        /* \"Mycontract.sol\":1019:1025  amount */\n      dup4\n        /* \"Mycontract.sol\":966:974  daiToken */\n      0x01\n      0x00\n      swap1\n      sload\n      swap1\n      0x0100\n      exp\n      swap1\n      div\n      0xffffffffffffffffffffffffffffffffffffffff\n      and\n        /* \"Mycontract.sol\":966:991  daiToken.safeTransferFrom */\n      0xffffffffffffffffffffffffffffffffffffffff\n      and\n      tag_91\n      swap1\n        /* \"Mycontract.sol\":966:1026  daiToken.safeTransferFrom(msg.sender, address(this), amount) */\n      swap4\n      swap3\n      swap2\n      swap1\n      0xffffffff\n      and\n      jump\t// in\n    tag_90:\n        /* \"Mycontract.sol\":1037:1055  uint256 mintResult */\n      0x00\n        /* \"Mycontract.sol\":1058:1067  cDaiToken */\n      0x02\n      0x00\n      swap1\n      sload\n      swap1\n      0x0100\n      exp\n      swap1\n      div\n      0xffffffffffffffffffffffffffffffffffffffff\n      and\n        /* \"Mycontract.sol\":1058:1072  cDaiToken.mint */\n      0xffffffffffffffffffffffffffffffffffffffff\n      and\n      0xa0712d68\n        /* \"Mycontract.sol\":1073:1079  amount */\n      dup4\n        /* \"Mycontract.sol\":1058:1080  cDaiToken.mint(amount) */\n      mload(0x40)\n      dup3\n      0xffffffff\n      and\n      0xe0\n      shl\n      dup2\n      mstore\n      0x04\n      add\n      tag_92\n      swap2\n      swap1\n      tag_22\n      jump\t// in\n    tag_92:\n      0x20\n      mload(0x40)\n      dup1\n      dup4\n      sub\n      dup2\n      0x00\n      dup8\n      gas\n      call\n      iszero\n      dup1\n      iszero\n      tag_94\n      jumpi\n      returndatasize\n      0x00\n      dup1\n      returndatacopy\n      revert(0x00, returndatasize)\n    tag_94:\n      pop\n      pop\n      pop\n      pop\n      mload(0x40)\n      returndatasize\n      not(0x1f)\n      0x1f\n      dup3\n      add\n      and\n      dup3\n      add\n      dup1\n      0x40\n      mstore\n      pop\n      dup2\n      add\n      swap1\n      tag_95\n      swap2\n      swap1\n      tag_49\n      jump\t// in\n    tag_95:\n        /* \"Mycontract.sol\":1037:1080  uint256 mintResult = cDaiToken.mint(amount) */\n      swap1\n      pop\n        /* \"Mycontract.sol\":1113:1114  0 */\n      0x00\n        /* \"Mycontract.sol\":1099:1109  mintResult */\n      dup2\n        /* \"Mycontract.sol\":1099:1114  mintResult == 0 */\n      eq\n        /* \"Mycontract.sol\":1091:1138  require(mintResult == 0, \"cDAI minting failed\") */\n      tag_96\n      jumpi\n      mload(0x40)\n      0x08c379a000000000000000000000000000000000000000000000000000000000\n      dup2\n      mstore\n      0x04\n      add\n      tag_97\n      swap1\n      tag_98\n      jump\t// in\n    tag_97:\n      mload(0x40)\n      dup1\n      swap2\n      sub\n      swap1\n      revert\n    tag_96:\n        /* \"Mycontract.sol\":795:1146  {... */\n      pop\n        /* \"Mycontract.sol\":753:1146  function deposit(uint256 amount) external {... */\n      pop\n      jump\t// out\n        /* \"Mycontract.sol\":398:430  CErc20Interface public cDaiToken */\n    tag_31:\n      0x02\n      0x00\n      swap1\n      sload\n      swap1\n      0x0100\n      exp\n      swap1\n      div\n      0xffffffffffffffffffffffffffffffffffffffff\n      and\n      dup2\n      jump\t// out\n        /* \"Mycontract.sol\":369:391  IERC20 public daiToken */\n    tag_35:\n      0x01\n      0x00\n      swap1\n      sload\n      swap1\n      0x0100\n      exp\n      swap1\n      div\n      0xffffffffffffffffffffffffffffffffffffffff\n      and\n      dup2\n      jump\t// out\n        /* \"@openzeppelin/contracts/token/ERC20/utils/SafeERC20.sol\":941:1116  function safeTransfer(IERC20 token, address to, uint256 value) internal {... */\n    tag_54:\n        /* \"@openzeppelin/contracts/token/ERC20/utils/SafeERC20.sol\":1023:1109  _callOptionalReturn(token, abi.encodeWithSelector(token.transfer.selector, to, value)) */\n      tag_100\n        /* \"@openzeppelin/contracts/token/ERC20/utils/SafeERC20.sol\":1043:1048  token */\n      dup4\n        /* \"@openzeppelin/contracts/token/ERC20/utils/SafeERC20.sol\":1073:1096  token.transfer.selector */\n      shl(0xe0, 0xa9059cbb)\n        /* \"@openzeppelin/contracts/token/ERC20/utils/SafeERC20.sol\":1098:1100  to */\n      dup5\n        /* \"@openzeppelin/contracts/token/ERC20/utils/SafeERC20.sol\":1102:1107  value */\n      dup5\n        /* \"@openzeppelin/contracts/token/ERC20/utils/SafeERC20.sol\":1050:1108  abi.encodeWithSelector(token.transfer.selector, to, value) */\n      add(0x24, mload(0x40))\n      tag_101\n      swap3\n      swap2\n      swap1\n      tag_102\n      jump\t// in\n    tag_101:\n      mload(0x40)\n      0x20\n      dup2\n      dup4\n      sub\n      sub\n      dup2\n      mstore\n      swap1\n      0x40\n      mstore\n      swap1\n      not(0xffffffffffffffffffffffffffffffffffffffffffffffffffffffff)\n      and\n      0x20\n      dup3\n      add\n      dup1\n      mload\n      0xffffffffffffffffffffffffffffffffffffffffffffffffffffffff\n      dup4\n      dup2\n      dup4\n      and\n      or\n      dup4\n      mstore\n      pop\n      pop\n      pop\n      pop\n        /* \"@openzeppelin/contracts/token/ERC20/utils/SafeERC20.sol\":1023:1042  _callOptionalReturn */\n      tag_103\n        /* \"@openzeppelin/contracts/token/ERC20/utils/SafeERC20.sol\":1023:1109  _callOptionalReturn(token, abi.encodeWithSelector(token.transfer.selector, to, value)) */\n      jump\t// in\n    tag_100:\n        /* \"@openzeppelin/contracts/token/ERC20/utils/SafeERC20.sol\":941:1116  function safeTransfer(IERC20 token, address to, uint256 value) internal {... */\n      pop\n      pop\n      pop\n      jump\t// out\n        /* \"@openzeppelin/contracts/token/ERC20/utils/SafeERC20.sol\":1355:1558  function safeTransferFrom(IERC20 token, address from, address to, uint256 value) internal {... */\n    tag_91:\n        /* \"@openzeppelin/contracts/token/ERC20/utils/SafeERC20.sol\":1455:1551  _callOptionalReturn(token, abi.encodeWithSelector(token.transferFrom.selector, from, to, value)) */\n      tag_105\n        /* \"@openzeppelin/contracts/token/ERC20/utils/SafeERC20.sol\":1475:1480  token */\n      dup5\n        /* \"@openzeppelin/contracts/token/ERC20/utils/SafeERC20.sol\":1505:1532  token.transferFrom.selector */\n      shl(0xe0, 0x23b872dd)\n        /* \"@openzeppelin/contracts/token/ERC20/utils/SafeERC20.sol\":1534:1538  from */\n      dup6\n        /* \"@openzeppelin/contracts/token/ERC20/utils/SafeERC20.sol\":1540:1542  to */\n      dup6\n        /* \"@openzeppelin/contracts/token/ERC20/utils/SafeERC20.sol\":1544:1549  value */\n      dup6\n        /* \"@openzeppelin/contracts/token/ERC20/utils/SafeERC20.sol\":1482:1550  abi.encodeWithSelector(token.transferFrom.selector, from, to, value) */\n      add(0x24, mload(0x40))\n      tag_106\n      swap4\n      swap3\n      swap2\n      swap1\n      tag_107\n      jump\t// in\n    tag_106:\n      mload(0x40)\n      0x20\n      dup2\n      dup4\n      sub\n      sub\n      dup2\n      mstore\n      swap1\n      0x40\n      mstore\n      swap1\n      not(0xffffffffffffffffffffffffffffffffffffffffffffffffffffffff)\n      and\n      0x20\n      dup3\n      add\n      dup1\n      mload\n      0xffffffffffffffffffffffffffffffffffffffffffffffffffffffff\n      dup4\n      dup2\n      dup4\n      and\n      or\n      dup4\n      mstore\n      pop\n      pop\n      pop\n      pop\n        /* \"@openzeppelin/contracts/token/ERC20/utils/SafeERC20.sol\":1455:1474  _callOptionalReturn */\n      tag_103\n        /* \"@openzeppelin/contracts/token/ERC20/utils/SafeERC20.sol\":1455:1551  _callOptionalReturn(token, abi.encodeWithSelector(token.transferFrom.selector, from, to, value)) */\n      jump\t// in\n    tag_105:\n        /* \"@openzeppelin/contracts/token/ERC20/utils/SafeERC20.sol\":1355:1558  function safeTransferFrom(IERC20 token, address from, address to, uint256 value) internal {... */\n      pop\n      pop\n      pop\n      pop\n      jump\t// out\n        /* \"@openzeppelin/contracts/token/ERC20/utils/SafeERC20.sol\":5196:5838  function _callOptionalReturn(IERC20 token, bytes memory data) private {... */\n    tag_103:\n        /* \"@openzeppelin/contracts/token/ERC20/utils/SafeERC20.sol\":5615:5638  bytes memory returndata */\n      0x00\n        /* \"@openzeppelin/contracts/token/ERC20/utils/SafeERC20.sol\":5641:5710  address(token).functionCall(data, \"SafeERC20: low-level call failed\") */\n      tag_109\n        /* \"@openzeppelin/contracts/token/ERC20/utils/SafeERC20.sol\":5669:5673  data */\n      dup3\n        /* \"@openzeppelin/contracts/token/ERC20/utils/SafeERC20.sol\":5641:5710  address(token).functionCall(data, \"SafeERC20: low-level call failed\") */\n      mload(0x40)\n      dup1\n      0x40\n      add\n      0x40\n      mstore\n      dup1\n      0x20\n      dup2\n      mstore\n      0x20\n      add\n      0x5361666545524332303a206c6f772d6c6576656c2063616c6c206661696c6564\n      dup2\n      mstore\n      pop\n        /* \"@openzeppelin/contracts/token/ERC20/utils/SafeERC20.sol\":5649:5654  token */\n      dup6\n        /* \"@openzeppelin/contracts/token/ERC20/utils/SafeERC20.sol\":5641:5668  address(token).functionCall */\n      0xffffffffffffffffffffffffffffffffffffffff\n      and\n      tag_110\n      swap1\n        /* \"@openzeppelin/contracts/token/ERC20/utils/SafeERC20.sol\":5641:5710  address(token).functionCall(data, \"SafeERC20: low-level call failed\") */\n      swap3\n      swap2\n      swap1\n      0xffffffff\n      and\n      jump\t// in\n    tag_109:\n        /* \"@openzeppelin/contracts/token/ERC20/utils/SafeERC20.sol\":5615:5710  bytes memory returndata = address(token).functionCall(data, \"SafeERC20: low-level call failed\") */\n      swap1\n      pop\n        /* \"@openzeppelin/contracts/token/ERC20/utils/SafeERC20.sol\":5749:5750  0 */\n      0x00\n        /* \"@openzeppelin/contracts/token/ERC20/utils/SafeERC20.sol\":5728:5738  returndata */\n      dup2\n        /* \"@openzeppelin/contracts/token/ERC20/utils/SafeERC20.sol\":5728:5745  returndata.length */\n      mload\n        /* \"@openzeppelin/contracts/token/ERC20/utils/SafeERC20.sol\":5728:5750  returndata.length == 0 */\n      eq\n        /* \"@openzeppelin/contracts/token/ERC20/utils/SafeERC20.sol\":5728:5784  returndata.length == 0 || abi.decode(returndata, (bool)) */\n      dup1\n      tag_111\n      jumpi\n      pop\n        /* \"@openzeppelin/contracts/token/ERC20/utils/SafeERC20.sol\":5765:5775  returndata */\n      dup1\n        /* \"@openzeppelin/contracts/token/ERC20/utils/SafeERC20.sol\":5754:5784  abi.decode(returndata, (bool)) */\n      dup1\n      0x20\n      add\n      swap1\n      mload\n      dup2\n      add\n      swap1\n      tag_112\n      swap2\n      swap1\n      tag_113\n      jump\t// in\n    tag_112:\n        /* \"@openzeppelin/contracts/token/ERC20/utils/SafeERC20.sol\":5728:5784  returndata.length == 0 || abi.decode(returndata, (bool)) */\n    tag_111:\n        /* \"@openzeppelin/contracts/token/ERC20/utils/SafeERC20.sol\":5720:5831  require(returndata.length == 0 || abi.decode(returndata, (bool)), \"SafeERC20: ERC20 operation did not succeed\") */\n      tag_114\n      jumpi\n      mload(0x40)\n      0x08c379a000000000000000000000000000000000000000000000000000000000\n      dup2\n      mstore\n      0x04\n      add\n      tag_115\n      swap1\n      tag_116\n      jump\t// in\n    tag_115:\n      mload(0x40)\n      dup1\n      swap2\n      sub\n      swap1\n      revert\n    tag_114:\n        /* \"@openzeppelin/contracts/token/ERC20/utils/SafeERC20.sol\":5266:5838  {... */\n      pop\n        /* \"@openzeppelin/contracts/token/ERC20/utils/SafeERC20.sol\":5196:5838  function _callOptionalReturn(IERC20 token, bytes memory data) private {... */\n      pop\n      pop\n      jump\t// out\n        /* \"@openzeppelin/contracts/utils/Address.sol\":4108:4331  function functionCall(... */\n    tag_110:\n        /* \"@openzeppelin/contracts/utils/Address.sol\":4241:4253  bytes memory */\n      0x60\n        /* \"@openzeppelin/contracts/utils/Address.sol\":4272:4324  functionCallWithValue(target, data, 0, errorMessage) */\n      tag_118\n        /* \"@openzeppelin/contracts/utils/Address.sol\":4294:4300  target */\n      dup5\n        /* \"@openzeppelin/contracts/utils/Address.sol\":4302:4306  data */\n      dup5\n        /* \"@openzeppelin/contracts/utils/Address.sol\":4308:4309  0 */\n      0x00\n        /* \"@openzeppelin/contracts/utils/Address.sol\":4311:4323  errorMessage */\n      dup6\n        /* \"@openzeppelin/contracts/utils/Address.sol\":4272:4293  functionCallWithValue */\n      tag_119\n        /* \"@openzeppelin/contracts/utils/Address.sol\":4272:4324  functionCallWithValue(target, data, 0, errorMessage) */\n      jump\t// in\n    tag_118:\n        /* \"@openzeppelin/contracts/utils/Address.sol\":4265:4324  return functionCallWithValue(target, data, 0, errorMessage) */\n      swap1\n      pop\n        /* \"@openzeppelin/contracts/utils/Address.sol\":4108:4331  function functionCall(... */\n      swap4\n      swap3\n      pop\n      pop\n      pop\n      jump\t// out\n        /* \"@openzeppelin/contracts/utils/Address.sol\":5165:5611  function functionCallWithValue(... */\n    tag_119:\n        /* \"@openzeppelin/contracts/utils/Address.sol\":5330:5342  bytes memory */\n      0x60\n        /* \"@openzeppelin/contracts/utils/Address.sol\":5387:5392  value */\n      dup3\n        /* \"@openzeppelin/contracts/utils/Address.sol\":5362:5383  address(this).balance */\n      selfbalance\n        /* \"@openzeppelin/contracts/utils/Address.sol\":5362:5392  address(this).balance >= value */\n      lt\n      iszero\n        /* \"@openzeppelin/contracts/utils/Address.sol\":5354:5435  require(address(this).balance >= value, \"Address: insufficient balance for call\") */\n      tag_121\n      jumpi\n      mload(0x40)\n      0x08c379a000000000000000000000000000000000000000000000000000000000\n      dup2\n      mstore\n      0x04\n      add\n      tag_122\n      swap1\n      tag_123\n      jump\t// in\n    tag_122:\n      mload(0x40)\n      dup1\n      swap2\n      sub\n      swap1\n      revert\n    tag_121:\n        /* \"@openzeppelin/contracts/utils/Address.sol\":5446:5458  bool success */\n      0x00\n        /* \"@openzeppelin/contracts/utils/Address.sol\":5460:5483  bytes memory returndata */\n      dup1\n        /* \"@openzeppelin/contracts/utils/Address.sol\":5487:5493  target */\n      dup7\n        /* \"@openzeppelin/contracts/utils/Address.sol\":5487:5498  target.call */\n      0xffffffffffffffffffffffffffffffffffffffff\n      and\n        /* \"@openzeppelin/contracts/utils/Address.sol\":5506:5511  value */\n      dup6\n        /* \"@openzeppelin/contracts/utils/Address.sol\":5513:5517  data */\n      dup8\n        /* \"@openzeppelin/contracts/utils/Address.sol\":5487:5518  target.call{value: value}(data) */\n      mload(0x40)\n      tag_124\n      swap2\n      swap1\n      tag_125\n      jump\t// in\n    tag_124:\n      0x00\n      mload(0x40)\n      dup1\n      dup4\n      sub\n      dup2\n      dup6\n      dup8\n      gas\n      call\n      swap3\n      pop\n      pop\n      pop\n      returndatasize\n      dup1\n      0x00\n      dup2\n      eq\n      tag_128\n      jumpi\n      mload(0x40)\n      swap2\n      pop\n      and(add(returndatasize, 0x3f), not(0x1f))\n      dup3\n      add\n      0x40\n      mstore\n      returndatasize\n      dup3\n      mstore\n      returndatasize\n      0x00\n      0x20\n      dup5\n      add\n      returndatacopy\n      jump(tag_127)\n    tag_128:\n      0x60\n      swap2\n      pop\n    tag_127:\n      pop\n        /* \"@openzeppelin/contracts/utils/Address.sol\":5445:5518  (bool success, bytes memory returndata) = target.call{value: value}(data) */\n      swap2\n      pop\n      swap2\n      pop\n        /* \"@openzeppelin/contracts/utils/Address.sol\":5535:5604  verifyCallResultFromTarget(target, success, returndata, errorMessage) */\n      tag_129\n        /* \"@openzeppelin/contracts/utils/Address.sol\":5562:5568  target */\n      dup8\n        /* \"@openzeppelin/contracts/utils/Address.sol\":5570:5577  success */\n      dup4\n        /* \"@openzeppelin/contracts/utils/Address.sol\":5579:5589  returndata */\n      dup4\n        /* \"@openzeppelin/contracts/utils/Address.sol\":5591:5603  errorMessage */\n      dup8\n        /* \"@openzeppelin/contracts/utils/Address.sol\":5535:5561  verifyCallResultFromTarget */\n      tag_130\n        /* \"@openzeppelin/contracts/utils/Address.sol\":5535:5604  verifyCallResultFromTarget(target, success, returndata, errorMessage) */\n      jump\t// in\n    tag_129:\n        /* \"@openzeppelin/contracts/utils/Address.sol\":5528:5604  return verifyCallResultFromTarget(target, success, returndata, errorMessage) */\n      swap3\n      pop\n      pop\n      pop\n        /* \"@openzeppelin/contracts/utils/Address.sol\":5165:5611  function functionCallWithValue(... */\n      swap5\n      swap4\n      pop\n      pop\n      pop\n      pop\n      jump\t// out\n        /* \"@openzeppelin/contracts/utils/Address.sol\":7671:8299  function verifyCallResultFromTarget(... */\n    tag_130:\n        /* \"@openzeppelin/contracts/utils/Address.sol\":7851:7863  bytes memory */\n      0x60\n        /* \"@openzeppelin/contracts/utils/Address.sol\":7879:7886  success */\n      dup4\n        /* \"@openzeppelin/contracts/utils/Address.sol\":7875:8293  if (success) {... */\n      iszero\n      tag_132\n      jumpi\n        /* \"@openzeppelin/contracts/utils/Address.sol\":7927:7928  0 */\n      0x00\n        /* \"@openzeppelin/contracts/utils/Address.sol\":7906:7916  returndata */\n      dup4\n        /* \"@openzeppelin/contracts/utils/Address.sol\":7906:7923  returndata.length */\n      mload\n        /* \"@openzeppelin/contracts/utils/Address.sol\":7906:7928  returndata.length == 0 */\n      sub\n        /* \"@openzeppelin/contracts/utils/Address.sol\":7902:8188  if (returndata.length == 0) {... */\n      tag_133\n      jumpi\n        /* \"@openzeppelin/contracts/utils/Address.sol\":8121:8139  isContract(target) */\n      tag_134\n        /* \"@openzeppelin/contracts/utils/Address.sol\":8132:8138  target */\n      dup6\n        /* \"@openzeppelin/contracts/utils/Address.sol\":8121:8131  isContract */\n      tag_135\n        /* \"@openzeppelin/contracts/utils/Address.sol\":8121:8139  isContract(target) */\n      jump\t// in\n    tag_134:\n        /* \"@openzeppelin/contracts/utils/Address.sol\":8113:8173  require(isContract(target), \"Address: call to non-contract\") */\n      tag_136\n      jumpi\n      mload(0x40)\n      0x08c379a000000000000000000000000000000000000000000000000000000000\n      dup2\n      mstore\n      0x04\n      add\n      tag_137\n      swap1\n      tag_138\n      jump\t// in\n    tag_137:\n      mload(0x40)\n      dup1\n      swap2\n      sub\n      swap1\n      revert\n    tag_136:\n        /* \"@openzeppelin/contracts/utils/Address.sol\":7902:8188  if (returndata.length == 0) {... */\n    tag_133:\n        /* \"@openzeppelin/contracts/utils/Address.sol\":8208:8218  returndata */\n      dup3\n        /* \"@openzeppelin/contracts/utils/Address.sol\":8201:8218  return returndata */\n      swap1\n      pop\n      jump(tag_131)\n        /* \"@openzeppelin/contracts/utils/Address.sol\":7875:8293  if (success) {... */\n    tag_132:\n        /* \"@openzeppelin/contracts/utils/Address.sol\":8249:8282  _revert(returndata, errorMessage) */\n      tag_140\n        /* \"@openzeppelin/contracts/utils/Address.sol\":8257:8267  returndata */\n      dup4\n        /* \"@openzeppelin/contracts/utils/Address.sol\":8269:8281  errorMessage */\n      dup4\n        /* \"@openzeppelin/contracts/utils/Address.sol\":8249:8256  _revert */\n      tag_141\n        /* \"@openzeppelin/contracts/utils/Address.sol\":8249:8282  _revert(returndata, errorMessage) */\n      jump\t// in\n    tag_140:\n        /* \"@openzeppelin/contracts/utils/Address.sol\":7671:8299  function verifyCallResultFromTarget(... */\n    tag_131:\n      swap5\n      swap4\n      pop\n      pop\n      pop\n      pop\n      jump\t// out\n        /* \"@openzeppelin/contracts/utils/Address.sol\":1412:1732  function isContract(address account) internal view returns (bool) {... */\n    tag_135:\n        /* \"@openzeppelin/contracts/utils/Address.sol\":1472:1476  bool */\n      0x00\n        /* \"@openzeppelin/contracts/utils/Address.sol\":1724:1725  0 */\n      dup1\n        /* \"@openzeppelin/contracts/utils/Address.sol\":1702:1709  account */\n      dup3\n        /* \"@openzeppelin/contracts/utils/Address.sol\":1702:1721  account.code.length */\n      0xffffffffffffffffffffffffffffffffffffffff\n      and\n      extcodesize\n        /* \"@openzeppelin/contracts/utils/Address.sol\":1702:1725  account.code.length > 0 */\n      gt\n        /* \"@openzeppelin/contracts/utils/Address.sol\":1695:1725  return account.code.length > 0 */\n      swap1\n      pop\n        /* \"@openzeppelin/contracts/utils/Address.sol\":1412:1732  function isContract(address account) internal view returns (bool) {... */\n      swap2\n      swap1\n      pop\n      jump\t// out\n        /* \"@openzeppelin/contracts/utils/Address.sol\":8821:9361  function _revert(bytes memory returndata, string memory errorMessage) private pure {... */\n    tag_141:\n        /* \"@openzeppelin/contracts/utils/Address.sol\":9000:9001  0 */\n      0x00\n        /* \"@openzeppelin/contracts/utils/Address.sol\":8980:8990  returndata */\n      dup3\n        /* \"@openzeppelin/contracts/utils/Address.sol\":8980:8997  returndata.length */\n      mload\n        /* \"@openzeppelin/contracts/utils/Address.sol\":8980:9001  returndata.length > 0 */\n      gt\n        /* \"@openzeppelin/contracts/utils/Address.sol\":8976:9355  if (returndata.length > 0) {... */\n      iszero\n      tag_144\n      jumpi\n        /* \"@openzeppelin/contracts/utils/Address.sol\":9208:9218  returndata */\n      dup2\n        /* \"@openzeppelin/contracts/utils/Address.sol\":9202:9219  mload(returndata) */\n      mload\n        /* \"@openzeppelin/contracts/utils/Address.sol\":9264:9279  returndata_size */\n      dup1\n        /* \"@openzeppelin/contracts/utils/Address.sol\":9251:9261  returndata */\n      dup4\n        /* \"@openzeppelin/contracts/utils/Address.sol\":9247:9249  32 */\n      0x20\n        /* \"@openzeppelin/contracts/utils/Address.sol\":9243:9262  add(32, returndata) */\n      add\n        /* \"@openzeppelin/contracts/utils/Address.sol\":9236:9280  revert(add(32, returndata), returndata_size) */\n      revert\n        /* \"@openzeppelin/contracts/utils/Address.sol\":8976:9355  if (returndata.length > 0) {... */\n    tag_144:\n        /* \"@openzeppelin/contracts/utils/Address.sol\":9331:9343  errorMessage */\n      dup1\n        /* \"@openzeppelin/contracts/utils/Address.sol\":9324:9344  revert(errorMessage) */\n      mload(0x40)\n      0x08c379a000000000000000000000000000000000000000000000000000000000\n      dup2\n      mstore\n      0x04\n      add\n      tag_146\n      swap2\n      swap1\n      tag_147\n      jump\t// in\n    tag_146:\n      mload(0x40)\n      dup1\n      swap2\n      sub\n      swap1\n      revert\n        /* \"#utility.yul\":88:205   */\n    tag_149:\n        /* \"#utility.yul\":197:198   */\n      0x00\n        /* \"#utility.yul\":194:195   */\n      dup1\n        /* \"#utility.yul\":187:199   */\n      revert\n        /* \"#utility.yul\":334:460   */\n    tag_151:\n        /* \"#utility.yul\":371:378   */\n      0x00\n        /* \"#utility.yul\":411:453   */\n      0xffffffffffffffffffffffffffffffffffffffff\n        /* \"#utility.yul\":404:409   */\n      dup3\n        /* \"#utility.yul\":400:454   */\n      and\n        /* \"#utility.yul\":389:454   */\n      swap1\n      pop\n        /* \"#utility.yul\":334:460   */\n      swap2\n      swap1\n      pop\n      jump\t// out\n        /* \"#utility.yul\":466:562   */\n    tag_152:\n        /* \"#utility.yul\":503:510   */\n      0x00\n        /* \"#utility.yul\":532:556   */\n      tag_207\n        /* \"#utility.yul\":550:555   */\n      dup3\n        /* \"#utility.yul\":532:556   */\n      tag_151\n      jump\t// in\n    tag_207:\n        /* \"#utility.yul\":521:556   */\n      swap1\n      pop\n        /* \"#utility.yul\":466:562   */\n      swap2\n      swap1\n      pop\n      jump\t// out\n        /* \"#utility.yul\":568:690   */\n    tag_153:\n        /* \"#utility.yul\":641:665   */\n      tag_209\n        /* \"#utility.yul\":659:664   */\n      dup2\n        /* \"#utility.yul\":641:665   */\n      tag_152\n      jump\t// in\n    tag_209:\n        /* \"#utility.yul\":634:639   */\n      dup2\n        /* \"#utility.yul\":631:666   */\n      eq\n        /* \"#utility.yul\":621:684   */\n      tag_210\n      jumpi\n        /* \"#utility.yul\":680:681   */\n      0x00\n        /* \"#utility.yul\":677:678   */\n      dup1\n        /* \"#utility.yul\":670:682   */\n      revert\n        /* \"#utility.yul\":621:684   */\n    tag_210:\n        /* \"#utility.yul\":568:690   */\n      pop\n      jump\t// out\n        /* \"#utility.yul\":696:835   */\n    tag_154:\n        /* \"#utility.yul\":742:747   */\n      0x00\n        /* \"#utility.yul\":780:786   */\n      dup2\n        /* \"#utility.yul\":767:787   */\n      calldataload\n        /* \"#utility.yul\":758:787   */\n      swap1\n      pop\n        /* \"#utility.yul\":796:829   */\n      tag_212\n        /* \"#utility.yul\":823:828   */\n      dup2\n        /* \"#utility.yul\":796:829   */\n      tag_153\n      jump\t// in\n    tag_212:\n        /* \"#utility.yul\":696:835   */\n      swap3\n      swap2\n      pop\n      pop\n      jump\t// out\n        /* \"#utility.yul\":841:1170   */\n    tag_13:\n        /* \"#utility.yul\":900:906   */\n      0x00\n        /* \"#utility.yul\":949:951   */\n      0x20\n        /* \"#utility.yul\":937:946   */\n      dup3\n        /* \"#utility.yul\":928:935   */\n      dup5\n        /* \"#utility.yul\":924:947   */\n      sub\n        /* \"#utility.yul\":920:952   */\n      slt\n        /* \"#utility.yul\":917:1036   */\n      iszero\n      tag_214\n      jumpi\n        /* \"#utility.yul\":955:1034   */\n      tag_215\n      tag_149\n      jump\t// in\n    tag_215:\n        /* \"#utility.yul\":917:1036   */\n    tag_214:\n        /* \"#utility.yul\":1075:1076   */\n      0x00\n        /* \"#utility.yul\":1100:1153   */\n      tag_216\n        /* \"#utility.yul\":1145:1152   */\n      dup5\n        /* \"#utility.yul\":1136:1142   */\n      dup3\n        /* \"#utility.yul\":1125:1134   */\n      dup6\n        /* \"#utility.yul\":1121:1143   */\n      add\n        /* \"#utility.yul\":1100:1153   */\n      tag_154\n      jump\t// in\n    tag_216:\n        /* \"#utility.yul\":1090:1153   */\n      swap2\n      pop\n        /* \"#utility.yul\":1046:1163   */\n      pop\n        /* \"#utility.yul\":841:1170   */\n      swap3\n      swap2\n      pop\n      pop\n      jump\t// out\n        /* \"#utility.yul\":1176:1253   */\n    tag_155:\n        /* \"#utility.yul\":1213:1220   */\n      0x00\n        /* \"#utility.yul\":1242:1247   */\n      dup2\n        /* \"#utility.yul\":1231:1247   */\n      swap1\n      pop\n        /* \"#utility.yul\":1176:1253   */\n      swap2\n      swap1\n      pop\n      jump\t// out\n        /* \"#utility.yul\":1259:1381   */\n    tag_156:\n        /* \"#utility.yul\":1332:1356   */\n      tag_219\n        /* \"#utility.yul\":1350:1355   */\n      dup2\n        /* \"#utility.yul\":1332:1356   */\n      tag_155\n      jump\t// in\n    tag_219:\n        /* \"#utility.yul\":1325:1330   */\n      dup2\n        /* \"#utility.yul\":1322:1357   */\n      eq\n        /* \"#utility.yul\":1312:1375   */\n      tag_220\n      jumpi\n        /* \"#utility.yul\":1371:1372   */\n      0x00\n        /* \"#utility.yul\":1368:1369   */\n      dup1\n        /* \"#utility.yul\":1361:1373   */\n      revert\n        /* \"#utility.yul\":1312:1375   */\n    tag_220:\n        /* \"#utility.yul\":1259:1381   */\n      pop\n      jump\t// out\n        /* \"#utility.yul\":1387:1526   */\n    tag_157:\n        /* \"#utility.yul\":1433:1438   */\n      0x00\n        /* \"#utility.yul\":1471:1477   */\n      dup2\n        /* \"#utility.yul\":1458:1478   */\n      calldataload\n        /* \"#utility.yul\":1449:1478   */\n      swap1\n      pop\n        /* \"#utility.yul\":1487:1520   */\n      tag_222\n        /* \"#utility.yul\":1514:1519   */\n      dup2\n        /* \"#utility.yul\":1487:1520   */\n      tag_156\n      jump\t// in\n    tag_222:\n        /* \"#utility.yul\":1387:1526   */\n      swap3\n      swap2\n      pop\n      pop\n      jump\t// out\n        /* \"#utility.yul\":1532:1861   */\n    tag_17:\n        /* \"#utility.yul\":1591:1597   */\n      0x00\n        /* \"#utility.yul\":1640:1642   */\n      0x20\n        /* \"#utility.yul\":1628:1637   */\n      dup3\n        /* \"#utility.yul\":1619:1626   */\n      dup5\n        /* \"#utility.yul\":1615:1638   */\n      sub\n        /* \"#utility.yul\":1611:1643   */\n      slt\n        /* \"#utility.yul\":1608:1727   */\n      iszero\n      tag_224\n      jumpi\n        /* \"#utility.yul\":1646:1725   */\n      tag_225\n      tag_149\n      jump\t// in\n    tag_225:\n        /* \"#utility.yul\":1608:1727   */\n    tag_224:\n        /* \"#utility.yul\":1766:1767   */\n      0x00\n        /* \"#utility.yul\":1791:1844   */\n      tag_226\n        /* \"#utility.yul\":1836:1843   */\n      dup5\n        /* \"#utility.yul\":1827:1833   */\n      dup3\n        /* \"#utility.yul\":1816:1825   */\n      dup6\n        /* \"#utility.yul\":1812:1834   */\n      add\n        /* \"#utility.yul\":1791:1844   */\n      tag_157\n      jump\t// in\n    tag_226:\n        /* \"#utility.yul\":1781:1844   */\n      swap2\n      pop\n        /* \"#utility.yul\":1737:1854   */\n      pop\n        /* \"#utility.yul\":1532:1861   */\n      swap3\n      swap2\n      pop\n      pop\n      jump\t// out\n        /* \"#utility.yul\":1867:1985   */\n    tag_158:\n        /* \"#utility.yul\":1954:1978   */\n      tag_228\n        /* \"#utility.yul\":1972:1977   */\n      dup2\n        /* \"#utility.yul\":1954:1978   */\n      tag_155\n      jump\t// in\n    tag_228:\n        /* \"#utility.yul\":1949:1952   */\n      dup3\n        /* \"#utility.yul\":1942:1979   */\n      mstore\n        /* \"#utility.yul\":1867:1985   */\n      pop\n      pop\n      jump\t// out\n        /* \"#utility.yul\":1991:2213   */\n    tag_22:\n        /* \"#utility.yul\":2084:2088   */\n      0x00\n        /* \"#utility.yul\":2122:2124   */\n      0x20\n        /* \"#utility.yul\":2111:2120   */\n      dup3\n        /* \"#utility.yul\":2107:2125   */\n      add\n        /* \"#utility.yul\":2099:2125   */\n      swap1\n      pop\n        /* \"#utility.yul\":2135:2206   */\n      tag_230\n        /* \"#utility.yul\":2203:2204   */\n      0x00\n        /* \"#utility.yul\":2192:2201   */\n      dup4\n        /* \"#utility.yul\":2188:2205   */\n      add\n        /* \"#utility.yul\":2179:2185   */\n      dup5\n        /* \"#utility.yul\":2135:2206   */\n      tag_158\n      jump\t// in\n    tag_230:\n        /* \"#utility.yul\":1991:2213   */\n      swap3\n      swap2\n      pop\n      pop\n      jump\t// out\n        /* \"#utility.yul\":2219:2337   */\n    tag_159:\n        /* \"#utility.yul\":2306:2330   */\n      tag_232\n        /* \"#utility.yul\":2324:2329   */\n      dup2\n        /* \"#utility.yul\":2306:2330   */\n      tag_152\n      jump\t// in\n    tag_232:\n        /* \"#utility.yul\":2301:2304   */\n      dup3\n        /* \"#utility.yul\":2294:2331   */\n      mstore\n        /* \"#utility.yul\":2219:2337   */\n      pop\n      pop\n      jump\t// out\n        /* \"#utility.yul\":2343:2565   */\n    tag_26:\n        /* \"#utility.yul\":2436:2440   */\n      0x00\n        /* \"#utility.yul\":2474:2476   */\n      0x20\n        /* \"#utility.yul\":2463:2472   */\n      dup3\n        /* \"#utility.yul\":2459:2477   */\n      add\n        /* \"#utility.yul\":2451:2477   */\n      swap1\n      pop\n        /* \"#utility.yul\":2487:2558   */\n      tag_234\n        /* \"#utility.yul\":2555:2556   */\n      0x00\n        /* \"#utility.yul\":2544:2553   */\n      dup4\n        /* \"#utility.yul\":2540:2557   */\n      add\n        /* \"#utility.yul\":2531:2537   */\n      dup5\n        /* \"#utility.yul\":2487:2558   */\n      tag_159\n      jump\t// in\n    tag_234:\n        /* \"#utility.yul\":2343:2565   */\n      swap3\n      swap2\n      pop\n      pop\n      jump\t// out\n        /* \"#utility.yul\":2571:2631   */\n    tag_160:\n        /* \"#utility.yul\":2599:2602   */\n      0x00\n        /* \"#utility.yul\":2620:2625   */\n      dup2\n        /* \"#utility.yul\":2613:2625   */\n      swap1\n      pop\n        /* \"#utility.yul\":2571:2631   */\n      swap2\n      swap1\n      pop\n      jump\t// out\n        /* \"#utility.yul\":2637:2779   */\n    tag_161:\n        /* \"#utility.yul\":2687:2696   */\n      0x00\n        /* \"#utility.yul\":2720:2773   */\n      tag_237\n        /* \"#utility.yul\":2738:2772   */\n      tag_238\n        /* \"#utility.yul\":2747:2771   */\n      tag_239\n        /* \"#utility.yul\":2765:2770   */\n      dup5\n        /* \"#utility.yul\":2747:2771   */\n      tag_151\n      jump\t// in\n    tag_239:\n        /* \"#utility.yul\":2738:2772   */\n      tag_160\n      jump\t// in\n    tag_238:\n        /* \"#utility.yul\":2720:2773   */\n      tag_151\n      jump\t// in\n    tag_237:\n        /* \"#utility.yul\":2707:2773   */\n      swap1\n      pop\n        /* \"#utility.yul\":2637:2779   */\n      swap2\n      swap1\n      pop\n      jump\t// out\n        /* \"#utility.yul\":2785:2911   */\n    tag_162:\n        /* \"#utility.yul\":2835:2844   */\n      0x00\n        /* \"#utility.yul\":2868:2905   */\n      tag_241\n        /* \"#utility.yul\":2899:2904   */\n      dup3\n        /* \"#utility.yul\":2868:2905   */\n      tag_161\n      jump\t// in\n    tag_241:\n        /* \"#utility.yul\":2855:2905   */\n      swap1\n      pop\n        /* \"#utility.yul\":2785:2911   */\n      swap2\n      swap1\n      pop\n      jump\t// out\n        /* \"#utility.yul\":2917:3067   */\n    tag_163:\n        /* \"#utility.yul\":2991:3000   */\n      0x00\n        /* \"#utility.yul\":3024:3061   */\n      tag_243\n        /* \"#utility.yul\":3055:3060   */\n      dup3\n        /* \"#utility.yul\":3024:3061   */\n      tag_162\n      jump\t// in\n    tag_243:\n        /* \"#utility.yul\":3011:3061   */\n      swap1\n      pop\n        /* \"#utility.yul\":2917:3067   */\n      swap2\n      swap1\n      pop\n      jump\t// out\n        /* \"#utility.yul\":3073:3252   */\n    tag_164:\n        /* \"#utility.yul\":3184:3245   */\n      tag_245\n        /* \"#utility.yul\":3239:3244   */\n      dup2\n        /* \"#utility.yul\":3184:3245   */\n      tag_163\n      jump\t// in\n    tag_245:\n        /* \"#utility.yul\":3179:3182   */\n      dup3\n        /* \"#utility.yul\":3172:3246   */\n      mstore\n        /* \"#utility.yul\":3073:3252   */\n      pop\n      pop\n      jump\t// out\n        /* \"#utility.yul\":3258:3528   */\n    tag_33:\n        /* \"#utility.yul\":3375:3379   */\n      0x00\n        /* \"#utility.yul\":3413:3415   */\n      0x20\n        /* \"#utility.yul\":3402:3411   */\n      dup3\n        /* \"#utility.yul\":3398:3416   */\n      add\n        /* \"#utility.yul\":3390:3416   */\n      swap1\n      pop\n        /* \"#utility.yul\":3426:3521   */\n      tag_247\n        /* \"#utility.yul\":3518:3519   */\n      0x00\n        /* \"#utility.yul\":3507:3516   */\n      dup4\n        /* \"#utility.yul\":3503:3520   */\n      add\n        /* \"#utility.yul\":3494:3500   */\n      dup5\n        /* \"#utility.yul\":3426:3521   */\n      tag_164\n      jump\t// in\n    tag_247:\n        /* \"#utility.yul\":3258:3528   */\n      swap3\n      swap2\n      pop\n      pop\n      jump\t// out\n        /* \"#utility.yul\":3534:3673   */\n    tag_165:\n        /* \"#utility.yul\":3597:3606   */\n      0x00\n        /* \"#utility.yul\":3630:3667   */\n      tag_249\n        /* \"#utility.yul\":3661:3666   */\n      dup3\n        /* \"#utility.yul\":3630:3667   */\n      tag_162\n      jump\t// in\n    tag_249:\n        /* \"#utility.yul\":3617:3667   */\n      swap1\n      pop\n        /* \"#utility.yul\":3534:3673   */\n      swap2\n      swap1\n      pop\n      jump\t// out\n        /* \"#utility.yul\":3679:3836   */\n    tag_166:\n        /* \"#utility.yul\":3779:3829   */\n      tag_251\n        /* \"#utility.yul\":3823:3828   */\n      dup2\n        /* \"#utility.yul\":3779:3829   */\n      tag_165\n      jump\t// in\n    tag_251:\n        /* \"#utility.yul\":3774:3777   */\n      dup3\n        /* \"#utility.yul\":3767:3830   */\n      mstore\n        /* \"#utility.yul\":3679:3836   */\n      pop\n      pop\n      jump\t// out\n        /* \"#utility.yul\":3842:4090   */\n    tag_37:\n        /* \"#utility.yul\":3948:3952   */\n      0x00\n        /* \"#utility.yul\":3986:3988   */\n      0x20\n        /* \"#utility.yul\":3975:3984   */\n      dup3\n        /* \"#utility.yul\":3971:3989   */\n      add\n        /* \"#utility.yul\":3963:3989   */\n      swap1\n      pop\n        /* \"#utility.yul\":3999:4083   */\n      tag_253\n        /* \"#utility.yul\":4080:4081   */\n      0x00\n        /* \"#utility.yul\":4069:4078   */\n      dup4\n        /* \"#utility.yul\":4065:4082   */\n      add\n        /* \"#utility.yul\":4056:4062   */\n      dup5\n        /* \"#utility.yul\":3999:4083   */\n      tag_166\n      jump\t// in\n    tag_253:\n        /* \"#utility.yul\":3842:4090   */\n      swap3\n      swap2\n      pop\n      pop\n      jump\t// out\n        /* \"#utility.yul\":4096:4265   */\n    tag_167:\n        /* \"#utility.yul\":4180:4191   */\n      0x00\n        /* \"#utility.yul\":4214:4220   */\n      dup3\n        /* \"#utility.yul\":4209:4212   */\n      dup3\n        /* \"#utility.yul\":4202:4221   */\n      mstore\n        /* \"#utility.yul\":4254:4258   */\n      0x20\n        /* \"#utility.yul\":4249:4252   */\n      dup3\n        /* \"#utility.yul\":4245:4259   */\n      add\n        /* \"#utility.yul\":4230:4259   */\n      swap1\n      pop\n        /* \"#utility.yul\":4096:4265   */\n      swap3\n      swap2\n      pop\n      pop\n      jump\t// out\n        /* \"#utility.yul\":4271:4495   */\n    tag_168:\n        /* \"#utility.yul\":4411:4445   */\n      0x4f6e6c7920746865206f776e65722063616e2063616c6c20746869732066756e\n        /* \"#utility.yul\":4407:4408   */\n      0x00\n        /* \"#utility.yul\":4399:4405   */\n      dup3\n        /* \"#utility.yul\":4395:4409   */\n      add\n        /* \"#utility.yul\":4388:4446   */\n      mstore\n        /* \"#utility.yul\":4480:4487   */\n      0x6374696f6e000000000000000000000000000000000000000000000000000000\n        /* \"#utility.yul\":4475:4477   */\n      0x20\n        /* \"#utility.yul\":4467:4473   */\n      dup3\n        /* \"#utility.yul\":4463:4478   */\n      add\n        /* \"#utility.yul\":4456:4488   */\n      mstore\n        /* \"#utility.yul\":4271:4495   */\n      pop\n      jump\t// out\n        /* \"#utility.yul\":4501:4867   */\n    tag_169:\n        /* \"#utility.yul\":4643:4646   */\n      0x00\n        /* \"#utility.yul\":4664:4731   */\n      tag_257\n        /* \"#utility.yul\":4728:4730   */\n      0x25\n        /* \"#utility.yul\":4723:4726   */\n      dup4\n        /* \"#utility.yul\":4664:4731   */\n      tag_167\n      jump\t// in\n    tag_257:\n        /* \"#utility.yul\":4657:4731   */\n      swap2\n      pop\n        /* \"#utility.yul\":4740:4833   */\n      tag_258\n        /* \"#utility.yul\":4829:4832   */\n      dup3\n        /* \"#utility.yul\":4740:4833   */\n      tag_168\n      jump\t// in\n    tag_258:\n        /* \"#utility.yul\":4858:4860   */\n      0x40\n        /* \"#utility.yul\":4853:4856   */\n      dup3\n        /* \"#utility.yul\":4849:4861   */\n      add\n        /* \"#utility.yul\":4842:4861   */\n      swap1\n      pop\n        /* \"#utility.yul\":4501:4867   */\n      swap2\n      swap1\n      pop\n      jump\t// out\n        /* \"#utility.yul\":4873:5292   */\n    tag_41:\n        /* \"#utility.yul\":5039:5043   */\n      0x00\n        /* \"#utility.yul\":5077:5079   */\n      0x20\n        /* \"#utility.yul\":5066:5075   */\n      dup3\n        /* \"#utility.yul\":5062:5080   */\n      add\n        /* \"#utility.yul\":5054:5080   */\n      swap1\n      pop\n        /* \"#utility.yul\":5126:5135   */\n      dup2\n        /* \"#utility.yul\":5120:5124   */\n      dup2\n        /* \"#utility.yul\":5116:5136   */\n      sub\n        /* \"#utility.yul\":5112:5113   */\n      0x00\n        /* \"#utility.yul\":5101:5110   */\n      dup4\n        /* \"#utility.yul\":5097:5114   */\n      add\n        /* \"#utility.yul\":5090:5137   */\n      mstore\n        /* \"#utility.yul\":5154:5285   */\n      tag_260\n        /* \"#utility.yul\":5280:5284   */\n      dup2\n        /* \"#utility.yul\":5154:5285   */\n      tag_169\n      jump\t// in\n    tag_260:\n        /* \"#utility.yul\":5146:5285   */\n      swap1\n      pop\n        /* \"#utility.yul\":4873:5292   */\n      swap2\n      swap1\n      pop\n      jump\t// out\n        /* \"#utility.yul\":5298:5468   */\n    tag_170:\n        /* \"#utility.yul\":5438:5460   */\n      0x43616e6e6f742077697468647261772063444149000000000000000000000000\n        /* \"#utility.yul\":5434:5435   */\n      0x00\n        /* \"#utility.yul\":5426:5432   */\n      dup3\n        /* \"#utility.yul\":5422:5436   */\n      add\n        /* \"#utility.yul\":5415:5461   */\n      mstore\n        /* \"#utility.yul\":5298:5468   */\n      pop\n      jump\t// out\n        /* \"#utility.yul\":5474:5840   */\n    tag_171:\n        /* \"#utility.yul\":5616:5619   */\n      0x00\n        /* \"#utility.yul\":5637:5704   */\n      tag_263\n        /* \"#utility.yul\":5701:5703   */\n      0x14\n        /* \"#utility.yul\":5696:5699   */\n      dup4\n        /* \"#utility.yul\":5637:5704   */\n      tag_167\n      jump\t// in\n    tag_263:\n        /* \"#utility.yul\":5630:5704   */\n      swap2\n      pop\n        /* \"#utility.yul\":5713:5806   */\n      tag_264\n        /* \"#utility.yul\":5802:5805   */\n      dup3\n        /* \"#utility.yul\":5713:5806   */\n      tag_170\n      jump\t// in\n    tag_264:\n        /* \"#utility.yul\":5831:5833   */\n      0x20\n        /* \"#utility.yul\":5826:5829   */\n      dup3\n        /* \"#utility.yul\":5822:5834   */\n      add\n        /* \"#utility.yul\":5815:5834   */\n      swap1\n      pop\n        /* \"#utility.yul\":5474:5840   */\n      swap2\n      swap1\n      pop\n      jump\t// out\n        /* \"#utility.yul\":5846:6265   */\n    tag_44:\n        /* \"#utility.yul\":6012:6016   */\n      0x00\n        /* \"#utility.yul\":6050:6052   */\n      0x20\n        /* \"#utility.yul\":6039:6048   */\n      dup3\n        /* \"#utility.yul\":6035:6053   */\n      add\n        /* \"#utility.yul\":6027:6053   */\n      swap1\n      pop\n        /* \"#utility.yul\":6099:6108   */\n      dup2\n        /* \"#utility.yul\":6093:6097   */\n      dup2\n        /* \"#utility.yul\":6089:6109   */\n      sub\n        /* \"#utility.yul\":6085:6086   */\n      0x00\n        /* \"#utility.yul\":6074:6083   */\n      dup4\n        /* \"#utility.yul\":6070:6087   */\n      add\n        /* \"#utility.yul\":6063:6110   */\n      mstore\n        /* \"#utility.yul\":6127:6258   */\n      tag_266\n        /* \"#utility.yul\":6253:6257   */\n      dup2\n        /* \"#utility.yul\":6127:6258   */\n      tag_171\n      jump\t// in\n    tag_266:\n        /* \"#utility.yul\":6119:6258   */\n      swap1\n      pop\n        /* \"#utility.yul\":5846:6265   */\n      swap2\n      swap1\n      pop\n      jump\t// out\n        /* \"#utility.yul\":6271:6414   */\n    tag_172:\n        /* \"#utility.yul\":6328:6333   */\n      0x00\n        /* \"#utility.yul\":6359:6365   */\n      dup2\n        /* \"#utility.yul\":6353:6366   */\n      mload\n        /* \"#utility.yul\":6344:6366   */\n      swap1\n      pop\n        /* \"#utility.yul\":6375:6408   */\n      tag_268\n        /* \"#utility.yul\":6402:6407   */\n      dup2\n        /* \"#utility.yul\":6375:6408   */\n      tag_156\n      jump\t// in\n    tag_268:\n        /* \"#utility.yul\":6271:6414   */\n      swap3\n      swap2\n      pop\n      pop\n      jump\t// out\n        /* \"#utility.yul\":6420:6771   */\n    tag_49:\n        /* \"#utility.yul\":6490:6496   */\n      0x00\n        /* \"#utility.yul\":6539:6541   */\n      0x20\n        /* \"#utility.yul\":6527:6536   */\n      dup3\n        /* \"#utility.yul\":6518:6525   */\n      dup5\n        /* \"#utility.yul\":6514:6537   */\n      sub\n        /* \"#utility.yul\":6510:6542   */\n      slt\n        /* \"#utility.yul\":6507:6626   */\n      iszero\n      tag_270\n      jumpi\n        /* \"#utility.yul\":6545:6624   */\n      tag_271\n      tag_149\n      jump\t// in\n    tag_271:\n        /* \"#utility.yul\":6507:6626   */\n    tag_270:\n        /* \"#utility.yul\":6665:6666   */\n      0x00\n        /* \"#utility.yul\":6690:6754   */\n      tag_272\n        /* \"#utility.yul\":6746:6753   */\n      dup5\n        /* \"#utility.yul\":6737:6743   */\n      dup3\n        /* \"#utility.yul\":6726:6735   */\n      dup6\n        /* \"#utility.yul\":6722:6744   */\n      add\n        /* \"#utility.yul\":6690:6754   */\n      tag_172\n      jump\t// in\n    tag_272:\n        /* \"#utility.yul\":6680:6754   */\n      swap2\n      pop\n        /* \"#utility.yul\":6636:6764   */\n      pop\n        /* \"#utility.yul\":6420:6771   */\n      swap3\n      swap2\n      pop\n      pop\n      jump\t// out\n        /* \"#utility.yul\":6777:6949   */\n    tag_173:\n        /* \"#utility.yul\":6917:6941   */\n      0x4e6f2062616c616e636520746f20776974686472617700000000000000000000\n        /* \"#utility.yul\":6913:6914   */\n      0x00\n        /* \"#utility.yul\":6905:6911   */\n      dup3\n        /* \"#utility.yul\":6901:6915   */\n      add\n        /* \"#utility.yul\":6894:6942   */\n      mstore\n        /* \"#utility.yul\":6777:6949   */\n      pop\n      jump\t// out\n        /* \"#utility.yul\":6955:7321   */\n    tag_174:\n        /* \"#utility.yul\":7097:7100   */\n      0x00\n        /* \"#utility.yul\":7118:7185   */\n      tag_275\n        /* \"#utility.yul\":7182:7184   */\n      0x16\n        /* \"#utility.yul\":7177:7180   */\n      dup4\n        /* \"#utility.yul\":7118:7185   */\n      tag_167\n      jump\t// in\n    tag_275:\n        /* \"#utility.yul\":7111:7185   */\n      swap2\n      pop\n        /* \"#utility.yul\":7194:7287   */\n      tag_276\n        /* \"#utility.yul\":7283:7286   */\n      dup3\n        /* \"#utility.yul\":7194:7287   */\n      tag_173\n      jump\t// in\n    tag_276:\n        /* \"#utility.yul\":7312:7314   */\n      0x20\n        /* \"#utility.yul\":7307:7310   */\n      dup3\n        /* \"#utility.yul\":7303:7315   */\n      add\n        /* \"#utility.yul\":7296:7315   */\n      swap1\n      pop\n        /* \"#utility.yul\":6955:7321   */\n      swap2\n      swap1\n      pop\n      jump\t// out\n        /* \"#utility.yul\":7327:7746   */\n    tag_52:\n        /* \"#utility.yul\":7493:7497   */\n      0x00\n        /* \"#utility.yul\":7531:7533   */\n      0x20\n        /* \"#utility.yul\":7520:7529   */\n      dup3\n        /* \"#utility.yul\":7516:7534   */\n      add\n        /* \"#utility.yul\":7508:7534   */\n      swap1\n      pop\n        /* \"#utility.yul\":7580:7589   */\n      dup2\n        /* \"#utility.yul\":7574:7578   */\n      dup2\n        /* \"#utility.yul\":7570:7590   */\n      sub\n        /* \"#utility.yul\":7566:7567   */\n      0x00\n        /* \"#utility.yul\":7555:7564   */\n      dup4\n        /* \"#utility.yul\":7551:7568   */\n      add\n        /* \"#utility.yul\":7544:7591   */\n      mstore\n        /* \"#utility.yul\":7608:7739   */\n      tag_278\n        /* \"#utility.yul\":7734:7738   */\n      dup2\n        /* \"#utility.yul\":7608:7739   */\n      tag_174\n      jump\t// in\n    tag_278:\n        /* \"#utility.yul\":7600:7739   */\n      swap1\n      pop\n        /* \"#utility.yul\":7327:7746   */\n      swap2\n      swap1\n      pop\n      jump\t// out\n        /* \"#utility.yul\":7752:7934   */\n    tag_175:\n        /* \"#utility.yul\":7892:7926   */\n      0x416d6f756e74206d7573742062652067726561746572207468616e207a65726f\n        /* \"#utility.yul\":7888:7889   */\n      0x00\n        /* \"#utility.yul\":7880:7886   */\n      dup3\n        /* \"#utility.yul\":7876:7890   */\n      add\n        /* \"#utility.yul\":7869:7927   */\n      mstore\n        /* \"#utility.yul\":7752:7934   */\n      pop\n      jump\t// out\n        /* \"#utility.yul\":7940:8306   */\n    tag_176:\n        /* \"#utility.yul\":8082:8085   */\n      0x00\n        /* \"#utility.yul\":8103:8170   */\n      tag_281\n        /* \"#utility.yul\":8167:8169   */\n      0x20\n        /* \"#utility.yul\":8162:8165   */\n      dup4\n        /* \"#utility.yul\":8103:8170   */\n      tag_167\n      jump\t// in\n    tag_281:\n        /* \"#utility.yul\":8096:8170   */\n      swap2\n      pop\n        /* \"#utility.yul\":8179:8272   */\n      tag_282\n        /* \"#utility.yul\":8268:8271   */\n      dup3\n        /* \"#utility.yul\":8179:8272   */\n      tag_175\n      jump\t// in\n    tag_282:\n        /* \"#utility.yul\":8297:8299   */\n      0x20\n        /* \"#utility.yul\":8292:8295   */\n      dup3\n        /* \"#utility.yul\":8288:8300   */\n      add\n        /* \"#utility.yul\":8281:8300   */\n      swap1\n      pop\n        /* \"#utility.yul\":7940:8306   */\n      swap2\n      swap1\n      pop\n      jump\t// out\n        /* \"#utility.yul\":8312:8731   */\n    tag_58:\n        /* \"#utility.yul\":8478:8482   */\n      0x00\n        /* \"#utility.yul\":8516:8518   */\n      0x20\n        /* \"#utility.yul\":8505:8514   */\n      dup3\n        /* \"#utility.yul\":8501:8519   */\n      add\n        /* \"#utility.yul\":8493:8519   */\n      swap1\n      pop\n        /* \"#utility.yul\":8565:8574   */\n      dup2\n        /* \"#utility.yul\":8559:8563   */\n      dup2\n        /* \"#utility.yul\":8555:8575   */\n      sub\n        /* \"#utility.yul\":8551:8552   */\n      0x00\n        /* \"#utility.yul\":8540:8549   */\n      dup4\n        /* \"#utility.yul\":8536:8553   */\n      add\n        /* \"#utility.yul\":8529:8576   */\n      mstore\n        /* \"#utility.yul\":8593:8724   */\n      tag_284\n        /* \"#utility.yul\":8719:8723   */\n      dup2\n        /* \"#utility.yul\":8593:8724   */\n      tag_176\n      jump\t// in\n    tag_284:\n        /* \"#utility.yul\":8585:8724   */\n      swap1\n      pop\n        /* \"#utility.yul\":8312:8731   */\n      swap2\n      swap1\n      pop\n      jump\t// out\n        /* \"#utility.yul\":8737:8912   */\n    tag_177:\n        /* \"#utility.yul\":8877:8904   */\n      0x496e73756666696369656e7420634441492062616c616e636500000000000000\n        /* \"#utility.yul\":8873:8874   */\n      0x00\n        /* \"#utility.yul\":8865:8871   */\n      dup3\n        /* \"#utility.yul\":8861:8875   */\n      add\n        /* \"#utility.yul\":8854:8905   */\n      mstore\n        /* \"#utility.yul\":8737:8912   */\n      pop\n      jump\t// out\n        /* \"#utility.yul\":8918:9284   */\n    tag_178:\n        /* \"#utility.yul\":9060:9063   */\n      0x00\n        /* \"#utility.yul\":9081:9148   */\n      tag_287\n        /* \"#utility.yul\":9145:9147   */\n      0x19\n        /* \"#utility.yul\":9140:9143   */\n      dup4\n        /* \"#utility.yul\":9081:9148   */\n      tag_167\n      jump\t// in\n    tag_287:\n        /* \"#utility.yul\":9074:9148   */\n      swap2\n      pop\n        /* \"#utility.yul\":9157:9250   */\n      tag_288\n        /* \"#utility.yul\":9246:9249   */\n      dup3\n        /* \"#utility.yul\":9157:9250   */\n      tag_177\n      jump\t// in\n    tag_288:\n        /* \"#utility.yul\":9275:9277   */\n      0x20\n        /* \"#utility.yul\":9270:9273   */\n      dup3\n        /* \"#utility.yul\":9266:9278   */\n      add\n        /* \"#utility.yul\":9259:9278   */\n      swap1\n      pop\n        /* \"#utility.yul\":8918:9284   */\n      swap2\n      swap1\n      pop\n      jump\t// out\n        /* \"#utility.yul\":9290:9709   */\n    tag_65:\n        /* \"#utility.yul\":9456:9460   */\n      0x00\n        /* \"#utility.yul\":9494:9496   */\n      0x20\n        /* \"#utility.yul\":9483:9492   */\n      dup3\n        /* \"#utility.yul\":9479:9497   */\n      add\n        /* \"#utility.yul\":9471:9497   */\n      swap1\n      pop\n        /* \"#utility.yul\":9543:9552   */\n      dup2\n        /* \"#utility.yul\":9537:9541   */\n      dup2\n        /* \"#utility.yul\":9533:9553   */\n      sub\n        /* \"#utility.yul\":9529:9530   */\n      0x00\n        /* \"#utility.yul\":9518:9527   */\n      dup4\n        /* \"#utility.yul\":9514:9531   */\n      add\n        /* \"#utility.yul\":9507:9554   */\n      mstore\n        /* \"#utility.yul\":9571:9702   */\n      tag_290\n        /* \"#utility.yul\":9697:9701   */\n      dup2\n        /* \"#utility.yul\":9571:9702   */\n      tag_178\n      jump\t// in\n    tag_290:\n        /* \"#utility.yul\":9563:9702   */\n      swap1\n      pop\n        /* \"#utility.yul\":9290:9709   */\n      swap2\n      swap1\n      pop\n      jump\t// out\n        /* \"#utility.yul\":9715:9886   */\n    tag_179:\n        /* \"#utility.yul\":9855:9878   */\n      0x634441492072656465656d696e67206661696c65640000000000000000000000\n        /* \"#utility.yul\":9851:9852   */\n      0x00\n        /* \"#utility.yul\":9843:9849   */\n      dup3\n        /* \"#utility.yul\":9839:9853   */\n      add\n        /* \"#utility.yul\":9832:9879   */\n      mstore\n        /* \"#utility.yul\":9715:9886   */\n      pop\n      jump\t// out\n        /* \"#utility.yul\":9892:10258   */\n    tag_180:\n        /* \"#utility.yul\":10034:10037   */\n      0x00\n        /* \"#utility.yul\":10055:10122   */\n      tag_293\n        /* \"#utility.yul\":10119:10121   */\n      0x15\n        /* \"#utility.yul\":10114:10117   */\n      dup4\n        /* \"#utility.yul\":10055:10122   */\n      tag_167\n      jump\t// in\n    tag_293:\n        /* \"#utility.yul\":10048:10122   */\n      swap2\n      pop\n        /* \"#utility.yul\":10131:10224   */\n      tag_294\n        /* \"#utility.yul\":10220:10223   */\n      dup3\n        /* \"#utility.yul\":10131:10224   */\n      tag_179\n      jump\t// in\n    tag_294:\n        /* \"#utility.yul\":10249:10251   */\n      0x20\n        /* \"#utility.yul\":10244:10247   */\n      dup3\n        /* \"#utility.yul\":10240:10252   */\n      add\n        /* \"#utility.yul\":10233:10252   */\n      swap1\n      pop\n        /* \"#utility.yul\":9892:10258   */\n      swap2\n      swap1\n      pop\n      jump\t// out\n        /* \"#utility.yul\":10264:10683   */\n    tag_72:\n        /* \"#utility.yul\":10430:10434   */\n      0x00\n        /* \"#utility.yul\":10468:10470   */\n      0x20\n        /* \"#utility.yul\":10457:10466   */\n      dup3\n        /* \"#utility.yul\":10453:10471   */\n      add\n        /* \"#utility.yul\":10445:10471   */\n      swap1\n      pop\n        /* \"#utility.yul\":10517:10526   */\n      dup2\n        /* \"#utility.yul\":10511:10515   */\n      dup2\n        /* \"#utility.yul\":10507:10527   */\n      sub\n        /* \"#utility.yul\":10503:10504   */\n      0x00\n        /* \"#utility.yul\":10492:10501   */\n      dup4\n        /* \"#utility.yul\":10488:10505   */\n      add\n        /* \"#utility.yul\":10481:10528   */\n      mstore\n        /* \"#utility.yul\":10545:10676   */\n      tag_296\n        /* \"#utility.yul\":10671:10675   */\n      dup2\n        /* \"#utility.yul\":10545:10676   */\n      tag_180\n      jump\t// in\n    tag_296:\n        /* \"#utility.yul\":10537:10676   */\n      swap1\n      pop\n        /* \"#utility.yul\":10264:10683   */\n      swap2\n      swap1\n      pop\n      jump\t// out\n        /* \"#utility.yul\":10689:11021   */\n    tag_83:\n        /* \"#utility.yul\":10810:10814   */\n      0x00\n        /* \"#utility.yul\":10848:10850   */\n      0x40\n        /* \"#utility.yul\":10837:10846   */\n      dup3\n        /* \"#utility.yul\":10833:10851   */\n      add\n        /* \"#utility.yul\":10825:10851   */\n      swap1\n      pop\n        /* \"#utility.yul\":10861:10932   */\n      tag_298\n        /* \"#utility.yul\":10929:10930   */\n      0x00\n        /* \"#utility.yul\":10918:10927   */\n      dup4\n        /* \"#utility.yul\":10914:10931   */\n      add\n        /* \"#utility.yul\":10905:10911   */\n      dup6\n        /* \"#utility.yul\":10861:10932   */\n      tag_159\n      jump\t// in\n    tag_298:\n        /* \"#utility.yul\":10942:11014   */\n      tag_299\n        /* \"#utility.yul\":11010:11012   */\n      0x20\n        /* \"#utility.yul\":10999:11008   */\n      dup4\n        /* \"#utility.yul\":10995:11013   */\n      add\n        /* \"#utility.yul\":10986:10992   */\n      dup5\n        /* \"#utility.yul\":10942:11014   */\n      tag_159\n      jump\t// in\n    tag_299:\n        /* \"#utility.yul\":10689:11021   */\n      swap4\n      swap3\n      pop\n      pop\n      pop\n      jump\t// out\n        /* \"#utility.yul\":11027:11194   */\n    tag_181:\n        /* \"#utility.yul\":11167:11186   */\n      0x416c6c6f77616e6365206e6f7420736574000000000000000000000000000000\n        /* \"#utility.yul\":11163:11164   */\n      0x00\n        /* \"#utility.yul\":11155:11161   */\n      dup3\n        /* \"#utility.yul\":11151:11165   */\n      add\n        /* \"#utility.yul\":11144:11187   */\n      mstore\n        /* \"#utility.yul\":11027:11194   */\n      pop\n      jump\t// out\n        /* \"#utility.yul\":11200:11566   */\n    tag_182:\n        /* \"#utility.yul\":11342:11345   */\n      0x00\n        /* \"#utility.yul\":11363:11430   */\n      tag_302\n        /* \"#utility.yul\":11427:11429   */\n      0x11\n        /* \"#utility.yul\":11422:11425   */\n      dup4\n        /* \"#utility.yul\":11363:11430   */\n      tag_167\n      jump\t// in\n    tag_302:\n        /* \"#utility.yul\":11356:11430   */\n      swap2\n      pop\n        /* \"#utility.yul\":11439:11532   */\n      tag_303\n        /* \"#utility.yul\":11528:11531   */\n      dup3\n        /* \"#utility.yul\":11439:11532   */\n      tag_181\n      jump\t// in\n    tag_303:\n        /* \"#utility.yul\":11557:11559   */\n      0x20\n        /* \"#utility.yul\":11552:11555   */\n      dup3\n        /* \"#utility.yul\":11548:11560   */\n      add\n        /* \"#utility.yul\":11541:11560   */\n      swap1\n      pop\n        /* \"#utility.yul\":11200:11566   */\n      swap2\n      swap1\n      pop\n      jump\t// out\n        /* \"#utility.yul\":11572:11991   */\n    tag_89:\n        /* \"#utility.yul\":11738:11742   */\n      0x00\n        /* \"#utility.yul\":11776:11778   */\n      0x20\n        /* \"#utility.yul\":11765:11774   */\n      dup3\n        /* \"#utility.yul\":11761:11779   */\n      add\n        /* \"#utility.yul\":11753:11779   */\n      swap1\n      pop\n        /* \"#utility.yul\":11825:11834   */\n      dup2\n        /* \"#utility.yul\":11819:11823   */\n      dup2\n        /* \"#utility.yul\":11815:11835   */\n      sub\n        /* \"#utility.yul\":11811:11812   */\n      0x00\n        /* \"#utility.yul\":11800:11809   */\n      dup4\n        /* \"#utility.yul\":11796:11813   */\n      add\n        /* \"#utility.yul\":11789:11836   */\n      mstore\n        /* \"#utility.yul\":11853:11984   */\n      tag_305\n        /* \"#utility.yul\":11979:11983   */\n      dup2\n        /* \"#utility.yul\":11853:11984   */\n      tag_182\n      jump\t// in\n    tag_305:\n        /* \"#utility.yul\":11845:11984   */\n      swap1\n      pop\n        /* \"#utility.yul\":11572:11991   */\n      swap2\n      swap1\n      pop\n      jump\t// out\n        /* \"#utility.yul\":11997:12166   */\n    tag_183:\n        /* \"#utility.yul\":12137:12158   */\n      0x63444149206d696e74696e67206661696c656400000000000000000000000000\n        /* \"#utility.yul\":12133:12134   */\n      0x00\n        /* \"#utility.yul\":12125:12131   */\n      dup3\n        /* \"#utility.yul\":12121:12135   */\n      add\n        /* \"#utility.yul\":12114:12159   */\n      mstore\n        /* \"#utility.yul\":11997:12166   */\n      pop\n      jump\t// out\n        /* \"#utility.yul\":12172:12538   */\n    tag_184:\n        /* \"#utility.yul\":12314:12317   */\n      0x00\n        /* \"#utility.yul\":12335:12402   */\n      tag_308\n        /* \"#utility.yul\":12399:12401   */\n      0x13\n        /* \"#utility.yul\":12394:12397   */\n      dup4\n        /* \"#utility.yul\":12335:12402   */\n      tag_167\n      jump\t// in\n    tag_308:\n        /* \"#utility.yul\":12328:12402   */\n      swap2\n      pop\n        /* \"#utility.yul\":12411:12504   */\n      tag_309\n        /* \"#utility.yul\":12500:12503   */\n      dup3\n        /* \"#utility.yul\":12411:12504   */\n      tag_183\n      jump\t// in\n    tag_309:\n        /* \"#utility.yul\":12529:12531   */\n      0x20\n        /* \"#utility.yul\":12524:12527   */\n      dup3\n        /* \"#utility.yul\":12520:12532   */\n      add\n        /* \"#utility.yul\":12513:12532   */\n      swap1\n      pop\n        /* \"#utility.yul\":12172:12538   */\n      swap2\n      swap1\n      pop\n      jump\t// out\n        /* \"#utility.yul\":12544:12963   */\n    tag_98:\n        /* \"#utility.yul\":12710:12714   */\n      0x00\n        /* \"#utility.yul\":12748:12750   */\n      0x20\n        /* \"#utility.yul\":12737:12746   */\n      dup3\n        /* \"#utility.yul\":12733:12751   */\n      add\n        /* \"#utility.yul\":12725:12751   */\n      swap1\n      pop\n        /* \"#utility.yul\":12797:12806   */\n      dup2\n        /* \"#utility.yul\":12791:12795   */\n      dup2\n        /* \"#utility.yul\":12787:12807   */\n      sub\n        /* \"#utility.yul\":12783:12784   */\n      0x00\n        /* \"#utility.yul\":12772:12781   */\n      dup4\n        /* \"#utility.yul\":12768:12785   */\n      add\n        /* \"#utility.yul\":12761:12808   */\n      mstore\n        /* \"#utility.yul\":12825:12956   */\n      tag_311\n        /* \"#utility.yul\":12951:12955   */\n      dup2\n        /* \"#utility.yul\":12825:12956   */\n      tag_184\n      jump\t// in\n    tag_311:\n        /* \"#utility.yul\":12817:12956   */\n      swap1\n      pop\n        /* \"#utility.yul\":12544:12963   */\n      swap2\n      swap1\n      pop\n      jump\t// out\n        /* \"#utility.yul\":12969:13301   */\n    tag_102:\n        /* \"#utility.yul\":13090:13094   */\n      0x00\n        /* \"#utility.yul\":13128:13130   */\n      0x40\n        /* \"#utility.yul\":13117:13126   */\n      dup3\n        /* \"#utility.yul\":13113:13131   */\n      add\n        /* \"#utility.yul\":13105:13131   */\n      swap1\n      pop\n        /* \"#utility.yul\":13141:13212   */\n      tag_313\n        /* \"#utility.yul\":13209:13210   */\n      0x00\n        /* \"#utility.yul\":13198:13207   */\n      dup4\n        /* \"#utility.yul\":13194:13211   */\n      add\n        /* \"#utility.yul\":13185:13191   */\n      dup6\n        /* \"#utility.yul\":13141:13212   */\n      tag_159\n      jump\t// in\n    tag_313:\n        /* \"#utility.yul\":13222:13294   */\n      tag_314\n        /* \"#utility.yul\":13290:13292   */\n      0x20\n        /* \"#utility.yul\":13279:13288   */\n      dup4\n        /* \"#utility.yul\":13275:13293   */\n      add\n        /* \"#utility.yul\":13266:13272   */\n      dup5\n        /* \"#utility.yul\":13222:13294   */\n      tag_158\n      jump\t// in\n    tag_314:\n        /* \"#utility.yul\":12969:13301   */\n      swap4\n      swap3\n      pop\n      pop\n      pop\n      jump\t// out\n        /* \"#utility.yul\":13307:13749   */\n    tag_107:\n        /* \"#utility.yul\":13456:13460   */\n      0x00\n        /* \"#utility.yul\":13494:13496   */\n      0x60\n        /* \"#utility.yul\":13483:13492   */\n      dup3\n        /* \"#utility.yul\":13479:13497   */\n      add\n        /* \"#utility.yul\":13471:13497   */\n      swap1\n      pop\n        /* \"#utility.yul\":13507:13578   */\n      tag_316\n        /* \"#utility.yul\":13575:13576   */\n      0x00\n        /* \"#utility.yul\":13564:13573   */\n      dup4\n        /* \"#utility.yul\":13560:13577   */\n      add\n        /* \"#utility.yul\":13551:13557   */\n      dup7\n        /* \"#utility.yul\":13507:13578   */\n      tag_159\n      jump\t// in\n    tag_316:\n        /* \"#utility.yul\":13588:13660   */\n      tag_317\n        /* \"#utility.yul\":13656:13658   */\n      0x20\n        /* \"#utility.yul\":13645:13654   */\n      dup4\n        /* \"#utility.yul\":13641:13659   */\n      add\n        /* \"#utility.yul\":13632:13638   */\n      dup6\n        /* \"#utility.yul\":13588:13660   */\n      tag_159\n      jump\t// in\n    tag_317:\n        /* \"#utility.yul\":13670:13742   */\n      tag_318\n        /* \"#utility.yul\":13738:13740   */\n      0x40\n        /* \"#utility.yul\":13727:13736   */\n      dup4\n        /* \"#utility.yul\":13723:13741   */\n      add\n        /* \"#utility.yul\":13714:13720   */\n      dup5\n        /* \"#utility.yul\":13670:13742   */\n      tag_158\n      jump\t// in\n    tag_318:\n        /* \"#utility.yul\":13307:13749   */\n      swap5\n      swap4\n      pop\n      pop\n      pop\n      pop\n      jump\t// out\n        /* \"#utility.yul\":13755:13845   */\n    tag_185:\n        /* \"#utility.yul\":13789:13796   */\n      0x00\n        /* \"#utility.yul\":13832:13837   */\n      dup2\n        /* \"#utility.yul\":13825:13838   */\n      iszero\n        /* \"#utility.yul\":13818:13839   */\n      iszero\n        /* \"#utility.yul\":13807:13839   */\n      swap1\n      pop\n        /* \"#utility.yul\":13755:13845   */\n      swap2\n      swap1\n      pop\n      jump\t// out\n        /* \"#utility.yul\":13851:13967   */\n    tag_186:\n        /* \"#utility.yul\":13921:13942   */\n      tag_321\n        /* \"#utility.yul\":13936:13941   */\n      dup2\n        /* \"#utility.yul\":13921:13942   */\n      tag_185\n      jump\t// in\n    tag_321:\n        /* \"#utility.yul\":13914:13919   */\n      dup2\n        /* \"#utility.yul\":13911:13943   */\n      eq\n        /* \"#utility.yul\":13901:13961   */\n      tag_322\n      jumpi\n        /* \"#utility.yul\":13957:13958   */\n      0x00\n        /* \"#utility.yul\":13954:13955   */\n      dup1\n        /* \"#utility.yul\":13947:13959   */\n      revert\n        /* \"#utility.yul\":13901:13961   */\n    tag_322:\n        /* \"#utility.yul\":13851:13967   */\n      pop\n      jump\t// out\n        /* \"#utility.yul\":13973:14110   */\n    tag_187:\n        /* \"#utility.yul\":14027:14032   */\n      0x00\n        /* \"#utility.yul\":14058:14064   */\n      dup2\n        /* \"#utility.yul\":14052:14065   */\n      mload\n        /* \"#utility.yul\":14043:14065   */\n      swap1\n      pop\n        /* \"#utility.yul\":14074:14104   */\n      tag_324\n        /* \"#utility.yul\":14098:14103   */\n      dup2\n        /* \"#utility.yul\":14074:14104   */\n      tag_186\n      jump\t// in\n    tag_324:\n        /* \"#utility.yul\":13973:14110   */\n      swap3\n      swap2\n      pop\n      pop\n      jump\t// out\n        /* \"#utility.yul\":14116:14461   */\n    tag_113:\n        /* \"#utility.yul\":14183:14189   */\n      0x00\n        /* \"#utility.yul\":14232:14234   */\n      0x20\n        /* \"#utility.yul\":14220:14229   */\n      dup3\n        /* \"#utility.yul\":14211:14218   */\n      dup5\n        /* \"#utility.yul\":14207:14230   */\n      sub\n        /* \"#utility.yul\":14203:14235   */\n      slt\n        /* \"#utility.yul\":14200:14319   */\n      iszero\n      tag_326\n      jumpi\n        /* \"#utility.yul\":14238:14317   */\n      tag_327\n      tag_149\n      jump\t// in\n    tag_327:\n        /* \"#utility.yul\":14200:14319   */\n    tag_326:\n        /* \"#utility.yul\":14358:14359   */\n      0x00\n        /* \"#utility.yul\":14383:14444   */\n      tag_328\n        /* \"#utility.yul\":14436:14443   */\n      dup5\n        /* \"#utility.yul\":14427:14433   */\n      dup3\n        /* \"#utility.yul\":14416:14425   */\n      dup6\n        /* \"#utility.yul\":14412:14434   */\n      add\n        /* \"#utility.yul\":14383:14444   */\n      tag_187\n      jump\t// in\n    tag_328:\n        /* \"#utility.yul\":14373:14444   */\n      swap2\n      pop\n        /* \"#utility.yul\":14329:14454   */\n      pop\n        /* \"#utility.yul\":14116:14461   */\n      swap3\n      swap2\n      pop\n      pop\n      jump\t// out\n        /* \"#utility.yul\":14467:14696   */\n    tag_188:\n        /* \"#utility.yul\":14607:14641   */\n      0x5361666545524332303a204552433230206f7065726174696f6e20646964206e\n        /* \"#utility.yul\":14603:14604   */\n      0x00\n        /* \"#utility.yul\":14595:14601   */\n      dup3\n        /* \"#utility.yul\":14591:14605   */\n      add\n        /* \"#utility.yul\":14584:14642   */\n      mstore\n        /* \"#utility.yul\":14676:14688   */\n      0x6f74207375636365656400000000000000000000000000000000000000000000\n        /* \"#utility.yul\":14671:14673   */\n      0x20\n        /* \"#utility.yul\":14663:14669   */\n      dup3\n        /* \"#utility.yul\":14659:14674   */\n      add\n        /* \"#utility.yul\":14652:14689   */\n      mstore\n        /* \"#utility.yul\":14467:14696   */\n      pop\n      jump\t// out\n        /* \"#utility.yul\":14702:15068   */\n    tag_189:\n        /* \"#utility.yul\":14844:14847   */\n      0x00\n        /* \"#utility.yul\":14865:14932   */\n      tag_331\n        /* \"#utility.yul\":14929:14931   */\n      0x2a\n        /* \"#utility.yul\":14924:14927   */\n      dup4\n        /* \"#utility.yul\":14865:14932   */\n      tag_167\n      jump\t// in\n    tag_331:\n        /* \"#utility.yul\":14858:14932   */\n      swap2\n      pop\n        /* \"#utility.yul\":14941:15034   */\n      tag_332\n        /* \"#utility.yul\":15030:15033   */\n      dup3\n        /* \"#utility.yul\":14941:15034   */\n      tag_188\n      jump\t// in\n    tag_332:\n        /* \"#utility.yul\":15059:15061   */\n      0x40\n        /* \"#utility.yul\":15054:15057   */\n      dup3\n        /* \"#utility.yul\":15050:15062   */\n      add\n        /* \"#utility.yul\":15043:15062   */\n      swap1\n      pop\n        /* \"#utility.yul\":14702:15068   */\n      swap2\n      swap1\n      pop\n      jump\t// out\n        /* \"#utility.yul\":15074:15493   */\n    tag_116:\n        /* \"#utility.yul\":15240:15244   */\n      0x00\n        /* \"#utility.yul\":15278:15280   */\n      0x20\n        /* \"#utility.yul\":15267:15276   */\n      dup3\n        /* \"#utility.yul\":15263:15281   */\n      add\n        /* \"#utility.yul\":15255:15281   */\n      swap1\n      pop\n        /* \"#utility.yul\":15327:15336   */\n      dup2\n        /* \"#utility.yul\":15321:15325   */\n      dup2\n        /* \"#utility.yul\":15317:15337   */\n      sub\n        /* \"#utility.yul\":15313:15314   */\n      0x00\n        /* \"#utility.yul\":15302:15311   */\n      dup4\n        /* \"#utility.yul\":15298:15315   */\n      add\n        /* \"#utility.yul\":15291:15338   */\n      mstore\n        /* \"#utility.yul\":15355:15486   */\n      tag_334\n        /* \"#utility.yul\":15481:15485   */\n      dup2\n        /* \"#utility.yul\":15355:15486   */\n      tag_189\n      jump\t// in\n    tag_334:\n        /* \"#utility.yul\":15347:15486   */\n      swap1\n      pop\n        /* \"#utility.yul\":15074:15493   */\n      swap2\n      swap1\n      pop\n      jump\t// out\n        /* \"#utility.yul\":15499:15724   */\n    tag_190:\n        /* \"#utility.yul\":15639:15673   */\n      0x416464726573733a20696e73756666696369656e742062616c616e636520666f\n        /* \"#utility.yul\":15635:15636   */\n      0x00\n        /* \"#utility.yul\":15627:15633   */\n      dup3\n        /* \"#utility.yul\":15623:15637   */\n      add\n        /* \"#utility.yul\":15616:15674   */\n      mstore\n        /* \"#utility.yul\":15708:15716   */\n      0x722063616c6c0000000000000000000000000000000000000000000000000000\n        /* \"#utility.yul\":15703:15705   */\n      0x20\n        /* \"#utility.yul\":15695:15701   */\n      dup3\n        /* \"#utility.yul\":15691:15706   */\n      add\n        /* \"#utility.yul\":15684:15717   */\n      mstore\n        /* \"#utility.yul\":15499:15724   */\n      pop\n      jump\t// out\n        /* \"#utility.yul\":15730:16096   */\n    tag_191:\n        /* \"#utility.yul\":15872:15875   */\n      0x00\n        /* \"#utility.yul\":15893:15960   */\n      tag_337\n        /* \"#utility.yul\":15957:15959   */\n      0x26\n        /* \"#utility.yul\":15952:15955   */\n      dup4\n        /* \"#utility.yul\":15893:15960   */\n      tag_167\n      jump\t// in\n    tag_337:\n        /* \"#utility.yul\":15886:15960   */\n      swap2\n      pop\n        /* \"#utility.yul\":15969:16062   */\n      tag_338\n        /* \"#utility.yul\":16058:16061   */\n      dup3\n        /* \"#utility.yul\":15969:16062   */\n      tag_190\n      jump\t// in\n    tag_338:\n        /* \"#utility.yul\":16087:16089   */\n      0x40\n        /* \"#utility.yul\":16082:16085   */\n      dup3\n        /* \"#utility.yul\":16078:16090   */\n      add\n        /* \"#utility.yul\":16071:16090   */\n      swap1\n      pop\n        /* \"#utility.yul\":15730:16096   */\n      swap2\n      swap1\n      pop\n      jump\t// out\n        /* \"#utility.yul\":16102:16521   */\n    tag_123:\n        /* \"#utility.yul\":16268:16272   */\n      0x00\n        /* \"#utility.yul\":16306:16308   */\n      0x20\n        /* \"#utility.yul\":16295:16304   */\n      dup3\n        /* \"#utility.yul\":16291:16309   */\n      add\n        /* \"#utility.yul\":16283:16309   */\n      swap1\n      pop\n        /* \"#utility.yul\":16355:16364   */\n      dup2\n        /* \"#utility.yul\":16349:16353   */\n      dup2\n        /* \"#utility.yul\":16345:16365   */\n      sub\n        /* \"#utility.yul\":16341:16342   */\n      0x00\n        /* \"#utility.yul\":16330:16339   */\n      dup4\n        /* \"#utility.yul\":16326:16343   */\n      add\n        /* \"#utility.yul\":16319:16366   */\n      mstore\n        /* \"#utility.yul\":16383:16514   */\n      tag_340\n        /* \"#utility.yul\":16509:16513   */\n      dup2\n        /* \"#utility.yul\":16383:16514   */\n      tag_191\n      jump\t// in\n    tag_340:\n        /* \"#utility.yul\":16375:16514   */\n      swap1\n      pop\n        /* \"#utility.yul\":16102:16521   */\n      swap2\n      swap1\n      pop\n      jump\t// out\n        /* \"#utility.yul\":16527:16625   */\n    tag_192:\n        /* \"#utility.yul\":16578:16584   */\n      0x00\n        /* \"#utility.yul\":16612:16617   */\n      dup2\n        /* \"#utility.yul\":16606:16618   */\n      mload\n        /* \"#utility.yul\":16596:16618   */\n      swap1\n      pop\n        /* \"#utility.yul\":16527:16625   */\n      swap2\n      swap1\n      pop\n      jump\t// out\n        /* \"#utility.yul\":16631:16778   */\n    tag_193:\n        /* \"#utility.yul\":16732:16743   */\n      0x00\n        /* \"#utility.yul\":16769:16772   */\n      dup2\n        /* \"#utility.yul\":16754:16772   */\n      swap1\n      pop\n        /* \"#utility.yul\":16631:16778   */\n      swap3\n      swap2\n      pop\n      pop\n      jump\t// out\n        /* \"#utility.yul\":16784:17030   */\n    tag_194:\n        /* \"#utility.yul\":16865:16866   */\n      0x00\n        /* \"#utility.yul\":16875:16988   */\n    tag_344:\n        /* \"#utility.yul\":16889:16895   */\n      dup4\n        /* \"#utility.yul\":16886:16887   */\n      dup2\n        /* \"#utility.yul\":16883:16896   */\n      lt\n        /* \"#utility.yul\":16875:16988   */\n      iszero\n      tag_346\n      jumpi\n        /* \"#utility.yul\":16974:16975   */\n      dup1\n        /* \"#utility.yul\":16969:16972   */\n      dup3\n        /* \"#utility.yul\":16965:16976   */\n      add\n        /* \"#utility.yul\":16959:16977   */\n      mload\n        /* \"#utility.yul\":16955:16956   */\n      dup2\n        /* \"#utility.yul\":16950:16953   */\n      dup5\n        /* \"#utility.yul\":16946:16957   */\n      add\n        /* \"#utility.yul\":16939:16978   */\n      mstore\n        /* \"#utility.yul\":16911:16913   */\n      0x20\n        /* \"#utility.yul\":16908:16909   */\n      dup2\n        /* \"#utility.yul\":16904:16914   */\n      add\n        /* \"#utility.yul\":16899:16914   */\n      swap1\n      pop\n        /* \"#utility.yul\":16875:16988   */\n      jump(tag_344)\n    tag_346:\n        /* \"#utility.yul\":17022:17023   */\n      0x00\n        /* \"#utility.yul\":17013:17019   */\n      dup5\n        /* \"#utility.yul\":17008:17011   */\n      dup5\n        /* \"#utility.yul\":17004:17020   */\n      add\n        /* \"#utility.yul\":16997:17024   */\n      mstore\n        /* \"#utility.yul\":16846:17030   */\n      pop\n        /* \"#utility.yul\":16784:17030   */\n      pop\n      pop\n      pop\n      jump\t// out\n        /* \"#utility.yul\":17036:17422   */\n    tag_195:\n        /* \"#utility.yul\":17140:17143   */\n      0x00\n        /* \"#utility.yul\":17168:17206   */\n      tag_348\n        /* \"#utility.yul\":17200:17205   */\n      dup3\n        /* \"#utility.yul\":17168:17206   */\n      tag_192\n      jump\t// in\n    tag_348:\n        /* \"#utility.yul\":17222:17310   */\n      tag_349\n        /* \"#utility.yul\":17303:17309   */\n      dup2\n        /* \"#utility.yul\":17298:17301   */\n      dup6\n        /* \"#utility.yul\":17222:17310   */\n      tag_193\n      jump\t// in\n    tag_349:\n        /* \"#utility.yul\":17215:17310   */\n      swap4\n      pop\n        /* \"#utility.yul\":17319:17384   */\n      tag_350\n        /* \"#utility.yul\":17377:17383   */\n      dup2\n        /* \"#utility.yul\":17372:17375   */\n      dup6\n        /* \"#utility.yul\":17365:17369   */\n      0x20\n        /* \"#utility.yul\":17358:17363   */\n      dup7\n        /* \"#utility.yul\":17354:17370   */\n      add\n        /* \"#utility.yul\":17319:17384   */\n      tag_194\n      jump\t// in\n    tag_350:\n        /* \"#utility.yul\":17409:17415   */\n      dup1\n        /* \"#utility.yul\":17404:17407   */\n      dup5\n        /* \"#utility.yul\":17400:17416   */\n      add\n        /* \"#utility.yul\":17393:17416   */\n      swap2\n      pop\n        /* \"#utility.yul\":17144:17422   */\n      pop\n        /* \"#utility.yul\":17036:17422   */\n      swap3\n      swap2\n      pop\n      pop\n      jump\t// out\n        /* \"#utility.yul\":17428:17699   */\n    tag_125:\n        /* \"#utility.yul\":17558:17561   */\n      0x00\n        /* \"#utility.yul\":17580:17673   */\n      tag_352\n        /* \"#utility.yul\":17669:17672   */\n      dup3\n        /* \"#utility.yul\":17660:17666   */\n      dup5\n        /* \"#utility.yul\":17580:17673   */\n      tag_195\n      jump\t// in\n    tag_352:\n        /* \"#utility.yul\":17573:17673   */\n      swap2\n      pop\n        /* \"#utility.yul\":17690:17693   */\n      dup2\n        /* \"#utility.yul\":17683:17693   */\n      swap1\n      pop\n        /* \"#utility.yul\":17428:17699   */\n      swap3\n      swap2\n      pop\n      pop\n      jump\t// out\n        /* \"#utility.yul\":17705:17884   */\n    tag_196:\n        /* \"#utility.yul\":17845:17876   */\n      0x416464726573733a2063616c6c20746f206e6f6e2d636f6e7472616374000000\n        /* \"#utility.yul\":17841:17842   */\n      0x00\n        /* \"#utility.yul\":17833:17839   */\n      dup3\n        /* \"#utility.yul\":17829:17843   */\n      add\n        /* \"#utility.yul\":17822:17877   */\n      mstore\n        /* \"#utility.yul\":17705:17884   */\n      pop\n      jump\t// out\n        /* \"#utility.yul\":17890:18256   */\n    tag_197:\n        /* \"#utility.yul\":18032:18035   */\n      0x00\n        /* \"#utility.yul\":18053:18120   */\n      tag_355\n        /* \"#utility.yul\":18117:18119   */\n      0x1d\n        /* \"#utility.yul\":18112:18115   */\n      dup4\n        /* \"#utility.yul\":18053:18120   */\n      tag_167\n      jump\t// in\n    tag_355:\n        /* \"#utility.yul\":18046:18120   */\n      swap2\n      pop\n        /* \"#utility.yul\":18129:18222   */\n      tag_356\n        /* \"#utility.yul\":18218:18221   */\n      dup3\n        /* \"#utility.yul\":18129:18222   */\n      tag_196\n      jump\t// in\n    tag_356:\n        /* \"#utility.yul\":18247:18249   */\n      0x20\n        /* \"#utility.yul\":18242:18245   */\n      dup3\n        /* \"#utility.yul\":18238:18250   */\n      add\n        /* \"#utility.yul\":18231:18250   */\n      swap1\n      pop\n        /* \"#utility.yul\":17890:18256   */\n      swap2\n      swap1\n      pop\n      jump\t// out\n        /* \"#utility.yul\":18262:18681   */\n    tag_138:\n        /* \"#utility.yul\":18428:18432   */\n      0x00\n        /* \"#utility.yul\":18466:18468   */\n      0x20\n        /* \"#utility.yul\":18455:18464   */\n      dup3\n        /* \"#utility.yul\":18451:18469   */\n      add\n        /* \"#utility.yul\":18443:18469   */\n      swap1\n      pop\n        /* \"#utility.yul\":18515:18524   */\n      dup2\n        /* \"#utility.yul\":18509:18513   */\n      dup2\n        /* \"#utility.yul\":18505:18525   */\n      sub\n        /* \"#utility.yul\":18501:18502   */\n      0x00\n        /* \"#utility.yul\":18490:18499   */\n      dup4\n        /* \"#utility.yul\":18486:18503   */\n      add\n        /* \"#utility.yul\":18479:18526   */\n      mstore\n        /* \"#utility.yul\":18543:18674   */\n      tag_358\n        /* \"#utility.yul\":18669:18673   */\n      dup2\n        /* \"#utility.yul\":18543:18674   */\n      tag_197\n      jump\t// in\n    tag_358:\n        /* \"#utility.yul\":18535:18674   */\n      swap1\n      pop\n        /* \"#utility.yul\":18262:18681   */\n      swap2\n      swap1\n      pop\n      jump\t// out\n        /* \"#utility.yul\":18687:18786   */\n    tag_198:\n        /* \"#utility.yul\":18739:18745   */\n      0x00\n        /* \"#utility.yul\":18773:18778   */\n      dup2\n        /* \"#utility.yul\":18767:18779   */\n      mload\n        /* \"#utility.yul\":18757:18779   */\n      swap1\n      pop\n        /* \"#utility.yul\":18687:18786   */\n      swap2\n      swap1\n      pop\n      jump\t// out\n        /* \"#utility.yul\":18792:18894   */\n    tag_199:\n        /* \"#utility.yul\":18833:18839   */\n      0x00\n        /* \"#utility.yul\":18884:18886   */\n      0x1f\n        /* \"#utility.yul\":18880:18887   */\n      not\n        /* \"#utility.yul\":18875:18877   */\n      0x1f\n        /* \"#utility.yul\":18868:18873   */\n      dup4\n        /* \"#utility.yul\":18864:18878   */\n      add\n        /* \"#utility.yul\":18860:18888   */\n      and\n        /* \"#utility.yul\":18850:18888   */\n      swap1\n      pop\n        /* \"#utility.yul\":18792:18894   */\n      swap2\n      swap1\n      pop\n      jump\t// out\n        /* \"#utility.yul\":18900:19277   */\n    tag_200:\n        /* \"#utility.yul\":18988:18991   */\n      0x00\n        /* \"#utility.yul\":19016:19055   */\n      tag_362\n        /* \"#utility.yul\":19049:19054   */\n      dup3\n        /* \"#utility.yul\":19016:19055   */\n      tag_198\n      jump\t// in\n    tag_362:\n        /* \"#utility.yul\":19071:19142   */\n      tag_363\n        /* \"#utility.yul\":19135:19141   */\n      dup2\n        /* \"#utility.yul\":19130:19133   */\n      dup6\n        /* \"#utility.yul\":19071:19142   */\n      tag_167\n      jump\t// in\n    tag_363:\n        /* \"#utility.yul\":19064:19142   */\n      swap4\n      pop\n        /* \"#utility.yul\":19151:19216   */\n      tag_364\n        /* \"#utility.yul\":19209:19215   */\n      dup2\n        /* \"#utility.yul\":19204:19207   */\n      dup6\n        /* \"#utility.yul\":19197:19201   */\n      0x20\n        /* \"#utility.yul\":19190:19195   */\n      dup7\n        /* \"#utility.yul\":19186:19202   */\n      add\n        /* \"#utility.yul\":19151:19216   */\n      tag_194\n      jump\t// in\n    tag_364:\n        /* \"#utility.yul\":19241:19270   */\n      tag_365\n        /* \"#utility.yul\":19263:19269   */\n      dup2\n        /* \"#utility.yul\":19241:19270   */\n      tag_199\n      jump\t// in\n    tag_365:\n        /* \"#utility.yul\":19236:19239   */\n      dup5\n        /* \"#utility.yul\":19232:19271   */\n      add\n        /* \"#utility.yul\":19225:19271   */\n      swap2\n      pop\n        /* \"#utility.yul\":18992:19277   */\n      pop\n        /* \"#utility.yul\":18900:19277   */\n      swap3\n      swap2\n      pop\n      pop\n      jump\t// out\n        /* \"#utility.yul\":19283:19596   */\n    tag_147:\n        /* \"#utility.yul\":19396:19400   */\n      0x00\n        /* \"#utility.yul\":19434:19436   */\n      0x20\n        /* \"#utility.yul\":19423:19432   */\n      dup3\n        /* \"#utility.yul\":19419:19437   */\n      add\n        /* \"#utility.yul\":19411:19437   */\n      swap1\n      pop\n        /* \"#utility.yul\":19483:19492   */\n      dup2\n        /* \"#utility.yul\":19477:19481   */\n      dup2\n        /* \"#utility.yul\":19473:19493   */\n      sub\n        /* \"#utility.yul\":19469:19470   */\n      0x00\n        /* \"#utility.yul\":19458:19467   */\n      dup4\n        /* \"#utility.yul\":19454:19471   */\n      add\n        /* \"#utility.yul\":19447:19494   */\n      mstore\n        /* \"#utility.yul\":19511:19589   */\n      tag_367\n        /* \"#utility.yul\":19584:19588   */\n      dup2\n        /* \"#utility.yul\":19575:19581   */\n      dup5\n        /* \"#utility.yul\":19511:19589   */\n      tag_200\n      jump\t// in\n    tag_367:\n        /* \"#utility.yul\":19503:19589   */\n      swap1\n      pop\n        /* \"#utility.yul\":19283:19596   */\n      swap3\n      swap2\n      pop\n      pop\n      jump\t// out\n\n    auxdata: 0xa264697066735822122070c34603d9873c814324af2d7062acad0f4ef7d0e17caa60c06cee19f0d54ba964736f6c63430008150033\n}\n",
				"bytecode": {
					"linkReferences": {},
					"object": "608060405234801562000010575f80fd5b506040516200179838038062001798833981810160405281019062000036919062000162565b335f806101000a81548173ffffffffffffffffffffffffffffffffffffffff021916908373ffffffffffffffffffffffffffffffffffffffff1602179055508160015f6101000a81548173ffffffffffffffffffffffffffffffffffffffff021916908373ffffffffffffffffffffffffffffffffffffffff1602179055508060025f6101000a81548173ffffffffffffffffffffffffffffffffffffffff021916908373ffffffffffffffffffffffffffffffffffffffff1602179055505050620001a7565b5f80fd5b5f73ffffffffffffffffffffffffffffffffffffffff82169050919050565b5f6200012c8262000101565b9050919050565b6200013e8162000120565b811462000149575f80fd5b50565b5f815190506200015c8162000133565b92915050565b5f80604083850312156200017b576200017a620000fd565b5b5f6200018a858286016200014c565b92505060206200019d858286016200014c565b9150509250929050565b6115e380620001b55f395ff3fe608060405234801561000f575f80fd5b506004361061007b575f3560e01c80638da5cb5b116100595780638da5cb5b146100d5578063b6b55f25146100f3578063ba266b131461010f578063be22f5461461012d5761007b565b80630d8425611461007f5780632e1a7d4d1461009b57806368899b6f146100b7575b5f80fd5b61009960048036038101906100949190610d17565b61014b565b005b6100b560048036038101906100b09190610d75565b610377565b005b6100bf6105c3565b6040516100cc9190610daf565b60405180910390f35b6100dd610662565b6040516100ea9190610dd7565b60405180910390f35b61010d60048036038101906101089190610d75565b610685565b005b6101176108d5565b6040516101249190610e4b565b60405180910390f35b6101356108fa565b6040516101429190610e84565b60405180910390f35b5f8054906101000a900473ffffffffffffffffffffffffffffffffffffffff1673ffffffffffffffffffffffffffffffffffffffff163373ffffffffffffffffffffffffffffffffffffffff16146101d8576040517f08c379a00000000000000000000000000000000000000000000000000000000081526004016101cf90610f1d565b60405180910390fd5b60025f9054906101000a900473ffffffffffffffffffffffffffffffffffffffff1673ffffffffffffffffffffffffffffffffffffffff168173ffffffffffffffffffffffffffffffffffffffff1603610267576040517f08c379a000000000000000000000000000000000000000000000000000000000815260040161025e90610f85565b60405180910390fd5b5f8190505f8173ffffffffffffffffffffffffffffffffffffffff166370a08231306040518263ffffffff1660e01b81526004016102a59190610dd7565b602060405180830381865afa1580156102c0573d5f803e3d5ffd5b505050506040513d601f19601f820116820180604052508101906102e49190610fb7565b90505f8111610328576040517f08c379a000000000000000000000000000000000000000000000000000000000815260040161031f9061102c565b60405180910390fd5b6103725f8054906101000a900473ffffffffffffffffffffffffffffffffffffffff16828473ffffffffffffffffffffffffffffffffffffffff1661091f9092919063ffffffff16565b505050565b5f81116103b9576040517f08c379a00000000000000000000000000000000000000000000000000000000081526004016103b090611094565b60405180910390fd5b8060025f9054906101000a900473ffffffffffffffffffffffffffffffffffffffff1673ffffffffffffffffffffffffffffffffffffffff166370a08231306040518263ffffffff1660e01b81526004016104149190610dd7565b602060405180830381865afa15801561042f573d5f803e3d5ffd5b505050506040513d601f19601f820116820180604052508101906104539190610fb7565b1015610494576040517f08c379a000000000000000000000000000000000000000000000000000000000815260040161048b906110fc565b60405180910390fd5b5f60025f9054906101000a900473ffffffffffffffffffffffffffffffffffffffff1673ffffffffffffffffffffffffffffffffffffffff1663db006a75836040518263ffffffff1660e01b81526004016104ef9190610daf565b6020604051808303815f875af115801561050b573d5f803e3d5ffd5b505050506040513d601f19601f8201168201806040525081019061052f9190610fb7565b90505f8114610573576040517f08c379a000000000000000000000000000000000000000000000000000000000815260040161056a90611164565b60405180910390fd5b6105bf338360015f9054906101000a900473ffffffffffffffffffffffffffffffffffffffff1673ffffffffffffffffffffffffffffffffffffffff1661091f9092919063ffffffff16565b5050565b5f60025f9054906101000a900473ffffffffffffffffffffffffffffffffffffffff1673ffffffffffffffffffffffffffffffffffffffff166370a08231306040518263ffffffff1660e01b815260040161061e9190610dd7565b602060405180830381865afa158015610639573d5f803e3d5ffd5b505050506040513d601f19601f8201168201806040525081019061065d9190610fb7565b905090565b5f8054906101000a900473ffffffffffffffffffffffffffffffffffffffff1681565b5f81116106c7576040517f08c379a00000000000000000000000000000000000000000000000000000000081526004016106be90611094565b60405180910390fd5b8060015f9054906101000a900473ffffffffffffffffffffffffffffffffffffffff1673ffffffffffffffffffffffffffffffffffffffff1663dd62ed3e33306040518363ffffffff1660e01b8152600401610724929190611182565b602060405180830381865afa15801561073f573d5f803e3d5ffd5b505050506040513d601f19601f820116820180604052508101906107639190610fb7565b10156107a4576040517f08c379a000000000000000000000000000000000000000000000000000000000815260040161079b906111f3565b60405180910390fd5b6107f233308360015f9054906101000a900473ffffffffffffffffffffffffffffffffffffffff1673ffffffffffffffffffffffffffffffffffffffff166109a5909392919063ffffffff16565b5f60025f9054906101000a900473ffffffffffffffffffffffffffffffffffffffff1673ffffffffffffffffffffffffffffffffffffffff1663a0712d68836040518263ffffffff1660e01b815260040161084d9190610daf565b6020604051808303815f875af1158015610869573d5f803e3d5ffd5b505050506040513d601f19601f8201168201806040525081019061088d9190610fb7565b90505f81146108d1576040517f08c379a00000000000000000000000000000000000000000000000000000000081526004016108c89061125b565b60405180910390fd5b5050565b60025f9054906101000a900473ffffffffffffffffffffffffffffffffffffffff1681565b60015f9054906101000a900473ffffffffffffffffffffffffffffffffffffffff1681565b6109a08363a9059cbb60e01b848460405160240161093e929190611279565b604051602081830303815290604052907bffffffffffffffffffffffffffffffffffffffffffffffffffffffff19166020820180517bffffffffffffffffffffffffffffffffffffffffffffffffffffffff8381831617835250505050610a2e565b505050565b610a28846323b872dd60e01b8585856040516024016109c6939291906112a0565b604051602081830303815290604052907bffffffffffffffffffffffffffffffffffffffffffffffffffffffff19166020820180517bffffffffffffffffffffffffffffffffffffffffffffffffffffffff8381831617835250505050610a2e565b50505050565b5f610a8f826040518060400160405280602081526020017f5361666545524332303a206c6f772d6c6576656c2063616c6c206661696c65648152508573ffffffffffffffffffffffffffffffffffffffff16610af49092919063ffffffff16565b90505f81511480610ab0575080806020019051810190610aaf919061130a565b5b610aef576040517f08c379a0000000000000000000000000000000000000000000000000000000008152600401610ae6906113a5565b60405180910390fd5b505050565b6060610b0284845f85610b0b565b90509392505050565b606082471015610b50576040517f08c379a0000000000000000000000000000000000000000000000000000000008152600401610b4790611433565b60405180910390fd5b5f808673ffffffffffffffffffffffffffffffffffffffff168587604051610b7891906114bd565b5f6040518083038185875af1925050503d805f8114610bb2576040519150601f19603f3d011682016040523d82523d5f602084013e610bb7565b606091505b5091509150610bc887838387610bd4565b92505050949350505050565b60608315610c35575f835103610c2d57610bed85610c48565b610c2c576040517f08c379a0000000000000000000000000000000000000000000000000000000008152600401610c239061151d565b60405180910390fd5b5b829050610c40565b610c3f8383610c6a565b5b949350505050565b5f808273ffffffffffffffffffffffffffffffffffffffff163b119050919050565b5f82511115610c7c5781518083602001fd5b806040517f08c379a0000000000000000000000000000000000000000000000000000000008152600401610cb0919061158d565b60405180910390fd5b5f80fd5b5f73ffffffffffffffffffffffffffffffffffffffff82169050919050565b5f610ce682610cbd565b9050919050565b610cf681610cdc565b8114610d00575f80fd5b50565b5f81359050610d1181610ced565b92915050565b5f60208284031215610d2c57610d2b610cb9565b5b5f610d3984828501610d03565b91505092915050565b5f819050919050565b610d5481610d42565b8114610d5e575f80fd5b50565b5f81359050610d6f81610d4b565b92915050565b5f60208284031215610d8a57610d89610cb9565b5b5f610d9784828501610d61565b91505092915050565b610da981610d42565b82525050565b5f602082019050610dc25f830184610da0565b92915050565b610dd181610cdc565b82525050565b5f602082019050610dea5f830184610dc8565b92915050565b5f819050919050565b5f610e13610e0e610e0984610cbd565b610df0565b610cbd565b9050919050565b5f610e2482610df9565b9050919050565b5f610e3582610e1a565b9050919050565b610e4581610e2b565b82525050565b5f602082019050610e5e5f830184610e3c565b92915050565b5f610e6e82610e1a565b9050919050565b610e7e81610e64565b82525050565b5f602082019050610e975f830184610e75565b92915050565b5f82825260208201905092915050565b7f4f6e6c7920746865206f776e65722063616e2063616c6c20746869732066756e5f8201527f6374696f6e000000000000000000000000000000000000000000000000000000602082015250565b5f610f07602583610e9d565b9150610f1282610ead565b604082019050919050565b5f6020820190508181035f830152610f3481610efb565b9050919050565b7f43616e6e6f7420776974686472617720634441490000000000000000000000005f82015250565b5f610f6f601483610e9d565b9150610f7a82610f3b565b602082019050919050565b5f6020820190508181035f830152610f9c81610f63565b9050919050565b5f81519050610fb181610d4b565b92915050565b5f60208284031215610fcc57610fcb610cb9565b5b5f610fd984828501610fa3565b91505092915050565b7f4e6f2062616c616e636520746f207769746864726177000000000000000000005f82015250565b5f611016601683610e9d565b915061102182610fe2565b602082019050919050565b5f6020820190508181035f8301526110438161100a565b9050919050565b7f416d6f756e74206d7573742062652067726561746572207468616e207a65726f5f82015250565b5f61107e602083610e9d565b91506110898261104a565b602082019050919050565b5f6020820190508181035f8301526110ab81611072565b9050919050565b7f496e73756666696369656e7420634441492062616c616e6365000000000000005f82015250565b5f6110e6601983610e9d565b91506110f1826110b2565b602082019050919050565b5f6020820190508181035f830152611113816110da565b9050919050565b7f634441492072656465656d696e67206661696c656400000000000000000000005f82015250565b5f61114e601583610e9d565b91506111598261111a565b602082019050919050565b5f6020820190508181035f83015261117b81611142565b9050919050565b5f6040820190506111955f830185610dc8565b6111a26020830184610dc8565b9392505050565b7f416c6c6f77616e6365206e6f74207365740000000000000000000000000000005f82015250565b5f6111dd601183610e9d565b91506111e8826111a9565b602082019050919050565b5f6020820190508181035f83015261120a816111d1565b9050919050565b7f63444149206d696e74696e67206661696c6564000000000000000000000000005f82015250565b5f611245601383610e9d565b915061125082611211565b602082019050919050565b5f6020820190508181035f83015261127281611239565b9050919050565b5f60408201905061128c5f830185610dc8565b6112996020830184610da0565b9392505050565b5f6060820190506112b35f830186610dc8565b6112c06020830185610dc8565b6112cd6040830184610da0565b949350505050565b5f8115159050919050565b6112e9816112d5565b81146112f3575f80fd5b50565b5f81519050611304816112e0565b92915050565b5f6020828403121561131f5761131e610cb9565b5b5f61132c848285016112f6565b91505092915050565b7f5361666545524332303a204552433230206f7065726174696f6e20646964206e5f8201527f6f74207375636365656400000000000000000000000000000000000000000000602082015250565b5f61138f602a83610e9d565b915061139a82611335565b604082019050919050565b5f6020820190508181035f8301526113bc81611383565b9050919050565b7f416464726573733a20696e73756666696369656e742062616c616e636520666f5f8201527f722063616c6c0000000000000000000000000000000000000000000000000000602082015250565b5f61141d602683610e9d565b9150611428826113c3565b604082019050919050565b5f6020820190508181035f83015261144a81611411565b9050919050565b5f81519050919050565b5f81905092915050565b5f5b83811015611482578082015181840152602081019050611467565b5f8484015250505050565b5f61149782611451565b6114a1818561145b565b93506114b1818560208601611465565b80840191505092915050565b5f6114c8828461148d565b915081905092915050565b7f416464726573733a2063616c6c20746f206e6f6e2d636f6e74726163740000005f82015250565b5f611507601d83610e9d565b9150611512826114d3565b602082019050919050565b5f6020820190508181035f830152611534816114fb565b9050919050565b5f81519050919050565b5f601f19601f8301169050919050565b5f61155f8261153b565b6115698185610e9d565b9350611579818560208601611465565b61158281611545565b840191505092915050565b5f6020820190508181035f8301526115a58184611555565b90509291505056fea264697066735822122070c34603d9873c814324af2d7062acad0f4ef7d0e17caa60c06cee19f0d54ba964736f6c63430008150033",
					"opcodes": "PUSH1 0x80 PUSH1 0x40 MSTORE CALLVALUE DUP1 ISZERO PUSH3 0x10 JUMPI PUSH0 DUP1 REVERT JUMPDEST POP PUSH1 0x40 MLOAD PUSH3 0x1798 CODESIZE SUB DUP1 PUSH3 0x1798 DUP4 CODECOPY DUP2 DUP2 ADD PUSH1 0x40 MSTORE DUP2 ADD SWAP1 PUSH3 0x36 SWAP2 SWAP1 PUSH3 0x162 JUMP JUMPDEST CALLER PUSH0 DUP1 PUSH2 0x100 EXP DUP2 SLOAD DUP2 PUSH20 0xFFFFFFFFFFFFFFFFFFFFFFFFFFFFFFFFFFFFFFFF MUL NOT AND SWAP1 DUP4 PUSH20 0xFFFFFFFFFFFFFFFFFFFFFFFFFFFFFFFFFFFFFFFF AND MUL OR SWAP1 SSTORE POP DUP2 PUSH1 0x1 PUSH0 PUSH2 0x100 EXP DUP2 SLOAD DUP2 PUSH20 0xFFFFFFFFFFFFFFFFFFFFFFFFFFFFFFFFFFFFFFFF MUL NOT AND SWAP1 DUP4 PUSH20 0xFFFFFFFFFFFFFFFFFFFFFFFFFFFFFFFFFFFFFFFF AND MUL OR SWAP1 SSTORE POP DUP1 PUSH1 0x2 PUSH0 PUSH2 0x100 EXP DUP2 SLOAD DUP2 PUSH20 0xFFFFFFFFFFFFFFFFFFFFFFFFFFFFFFFFFFFFFFFF MUL NOT AND SWAP1 DUP4 PUSH20 0xFFFFFFFFFFFFFFFFFFFFFFFFFFFFFFFFFFFFFFFF AND MUL OR SWAP1 SSTORE POP POP POP PUSH3 0x1A7 JUMP JUMPDEST PUSH0 DUP1 REVERT JUMPDEST PUSH0 PUSH20 0xFFFFFFFFFFFFFFFFFFFFFFFFFFFFFFFFFFFFFFFF DUP3 AND SWAP1 POP SWAP2 SWAP1 POP JUMP JUMPDEST PUSH0 PUSH3 0x12C DUP3 PUSH3 0x101 JUMP JUMPDEST SWAP1 POP SWAP2 SWAP1 POP JUMP JUMPDEST PUSH3 0x13E DUP2 PUSH3 0x120 JUMP JUMPDEST DUP2 EQ PUSH3 0x149 JUMPI PUSH0 DUP1 REVERT JUMPDEST POP JUMP JUMPDEST PUSH0 DUP2 MLOAD SWAP1 POP PUSH3 0x15C DUP2 PUSH3 0x133 JUMP JUMPDEST SWAP3 SWAP2 POP POP JUMP JUMPDEST PUSH0 DUP1 PUSH1 0x40 DUP4 DUP6 SUB SLT ISZERO PUSH3 0x17B JUMPI PUSH3 0x17A PUSH3 0xFD JUMP JUMPDEST JUMPDEST PUSH0 PUSH3 0x18A DUP6 DUP3 DUP7 ADD PUSH3 0x14C JUMP JUMPDEST SWAP3 POP POP PUSH1 0x20 PUSH3 0x19D DUP6 DUP3 DUP7 ADD PUSH3 0x14C JUMP JUMPDEST SWAP2 POP POP SWAP3 POP SWAP3 SWAP1 POP JUMP JUMPDEST PUSH2 0x15E3 DUP1 PUSH3 0x1B5 PUSH0 CODECOPY PUSH0 RETURN INVALID PUSH1 0x80 PUSH1 0x40 MSTORE CALLVALUE DUP1 ISZERO PUSH2 0xF JUMPI PUSH0 DUP1 REVERT JUMPDEST POP PUSH1 0x4 CALLDATASIZE LT PUSH2 0x7B JUMPI PUSH0 CALLDATALOAD PUSH1 0xE0 SHR DUP1 PUSH4 0x8DA5CB5B GT PUSH2 0x59 JUMPI DUP1 PUSH4 0x8DA5CB5B EQ PUSH2 0xD5 JUMPI DUP1 PUSH4 0xB6B55F25 EQ PUSH2 0xF3 JUMPI DUP1 PUSH4 0xBA266B13 EQ PUSH2 0x10F JUMPI DUP1 PUSH4 0xBE22F546 EQ PUSH2 0x12D JUMPI PUSH2 0x7B JUMP JUMPDEST DUP1 PUSH4 0xD842561 EQ PUSH2 0x7F JUMPI DUP1 PUSH4 0x2E1A7D4D EQ PUSH2 0x9B JUMPI DUP1 PUSH4 0x68899B6F EQ PUSH2 0xB7 JUMPI JUMPDEST PUSH0 DUP1 REVERT JUMPDEST PUSH2 0x99 PUSH1 0x4 DUP1 CALLDATASIZE SUB DUP2 ADD SWAP1 PUSH2 0x94 SWAP2 SWAP1 PUSH2 0xD17 JUMP JUMPDEST PUSH2 0x14B JUMP JUMPDEST STOP JUMPDEST PUSH2 0xB5 PUSH1 0x4 DUP1 CALLDATASIZE SUB DUP2 ADD SWAP1 PUSH2 0xB0 SWAP2 SWAP1 PUSH2 0xD75 JUMP JUMPDEST PUSH2 0x377 JUMP JUMPDEST STOP JUMPDEST PUSH2 0xBF PUSH2 0x5C3 JUMP JUMPDEST PUSH1 0x40 MLOAD PUSH2 0xCC SWAP2 SWAP1 PUSH2 0xDAF JUMP JUMPDEST PUSH1 0x40 MLOAD DUP1 SWAP2 SUB SWAP1 RETURN JUMPDEST PUSH2 0xDD PUSH2 0x662 JUMP JUMPDEST PUSH1 0x40 MLOAD PUSH2 0xEA SWAP2 SWAP1 PUSH2 0xDD7 JUMP JUMPDEST PUSH1 0x40 MLOAD DUP1 SWAP2 SUB SWAP1 RETURN JUMPDEST PUSH2 0x10D PUSH1 0x4 DUP1 CALLDATASIZE SUB DUP2 ADD SWAP1 PUSH2 0x108 SWAP2 SWAP1 PUSH2 0xD75 JUMP JUMPDEST PUSH2 0x685 JUMP JUMPDEST STOP JUMPDEST PUSH2 0x117 PUSH2 0x8D5 JUMP JUMPDEST PUSH1 0x40 MLOAD PUSH2 0x124 SWAP2 SWAP1 PUSH2 0xE4B JUMP JUMPDEST PUSH1 0x40 MLOAD DUP1 SWAP2 SUB SWAP1 RETURN JUMPDEST PUSH2 0x135 PUSH2 0x8FA JUMP JUMPDEST PUSH1 0x40 MLOAD PUSH2 0x142 SWAP2 SWAP1 PUSH2 0xE84 JUMP JUMPDEST PUSH1 0x40 MLOAD DUP1 SWAP2 SUB SWAP1 RETURN JUMPDEST PUSH0 DUP1 SLOAD SWAP1 PUSH2 0x100 EXP SWAP1 DIV PUSH20 0xFFFFFFFFFFFFFFFFFFFFFFFFFFFFFFFFFFFFFFFF AND PUSH20 0xFFFFFFFFFFFFFFFFFFFFFFFFFFFFFFFFFFFFFFFF AND CALLER PUSH20 0xFFFFFFFFFFFFFFFFFFFFFFFFFFFFFFFFFFFFFFFF AND EQ PUSH2 0x1D8 JUMPI PUSH1 0x40 MLOAD PUSH32 0x8C379A000000000000000000000000000000000000000000000000000000000 DUP2 MSTORE PUSH1 0x4 ADD PUSH2 0x1CF SWAP1 PUSH2 0xF1D JUMP JUMPDEST PUSH1 0x40 MLOAD DUP1 SWAP2 SUB SWAP1 REVERT JUMPDEST PUSH1 0x2 PUSH0 SWAP1 SLOAD SWAP1 PUSH2 0x100 EXP SWAP1 DIV PUSH20 0xFFFFFFFFFFFFFFFFFFFFFFFFFFFFFFFFFFFFFFFF AND PUSH20 0xFFFFFFFFFFFFFFFFFFFFFFFFFFFFFFFFFFFFFFFF AND DUP2 PUSH20 0xFFFFFFFFFFFFFFFFFFFFFFFFFFFFFFFFFFFFFFFF AND SUB PUSH2 0x267 JUMPI PUSH1 0x40 MLOAD PUSH32 0x8C379A000000000000000000000000000000000000000000000000000000000 DUP2 MSTORE PUSH1 0x4 ADD PUSH2 0x25E SWAP1 PUSH2 0xF85 JUMP JUMPDEST PUSH1 0x40 MLOAD DUP1 SWAP2 SUB SWAP1 REVERT JUMPDEST PUSH0 DUP2 SWAP1 POP PUSH0 DUP2 PUSH20 0xFFFFFFFFFFFFFFFFFFFFFFFFFFFFFFFFFFFFFFFF AND PUSH4 0x70A08231 ADDRESS PUSH1 0x40 MLOAD DUP3 PUSH4 0xFFFFFFFF AND PUSH1 0xE0 SHL DUP2 MSTORE PUSH1 0x4 ADD PUSH2 0x2A5 SWAP2 SWAP1 PUSH2 0xDD7 JUMP JUMPDEST PUSH1 0x20 PUSH1 0x40 MLOAD DUP1 DUP4 SUB DUP2 DUP7 GAS STATICCALL ISZERO DUP1 ISZERO PUSH2 0x2C0 JUMPI RETURNDATASIZE PUSH0 DUP1 RETURNDATACOPY RETURNDATASIZE PUSH0 REVERT JUMPDEST POP POP POP POP PUSH1 0x40 MLOAD RETURNDATASIZE PUSH1 0x1F NOT PUSH1 0x1F DUP3 ADD AND DUP3 ADD DUP1 PUSH1 0x40 MSTORE POP DUP2 ADD SWAP1 PUSH2 0x2E4 SWAP2 SWAP1 PUSH2 0xFB7 JUMP JUMPDEST SWAP1 POP PUSH0 DUP2 GT PUSH2 0x328 JUMPI PUSH1 0x40 MLOAD PUSH32 0x8C379A000000000000000000000000000000000000000000000000000000000 DUP2 MSTORE PUSH1 0x4 ADD PUSH2 0x31F SWAP1 PUSH2 0x102C JUMP JUMPDEST PUSH1 0x40 MLOAD DUP1 SWAP2 SUB SWAP1 REVERT JUMPDEST PUSH2 0x372 PUSH0 DUP1 SLOAD SWAP1 PUSH2 0x100 EXP SWAP1 DIV PUSH20 0xFFFFFFFFFFFFFFFFFFFFFFFFFFFFFFFFFFFFFFFF AND DUP3 DUP5 PUSH20 0xFFFFFFFFFFFFFFFFFFFFFFFFFFFFFFFFFFFFFFFF AND PUSH2 0x91F SWAP1 SWAP3 SWAP2 SWAP1 PUSH4 0xFFFFFFFF AND JUMP JUMPDEST POP POP POP JUMP JUMPDEST PUSH0 DUP2 GT PUSH2 0x3B9 JUMPI PUSH1 0x40 MLOAD PUSH32 0x8C379A000000000000000000000000000000000000000000000000000000000 DUP2 MSTORE PUSH1 0x4 ADD PUSH2 0x3B0 SWAP1 PUSH2 0x1094 JUMP JUMPDEST PUSH1 0x40 MLOAD DUP1 SWAP2 SUB SWAP1 REVERT JUMPDEST DUP1 PUSH1 0x2 PUSH0 SWAP1 SLOAD SWAP1 PUSH2 0x100 EXP SWAP1 DIV PUSH20 0xFFFFFFFFFFFFFFFFFFFFFFFFFFFFFFFFFFFFFFFF AND PUSH20 0xFFFFFFFFFFFFFFFFFFFFFFFFFFFFFFFFFFFFFFFF AND PUSH4 0x70A08231 ADDRESS PUSH1 0x40 MLOAD DUP3 PUSH4 0xFFFFFFFF AND PUSH1 0xE0 SHL DUP2 MSTORE PUSH1 0x4 ADD PUSH2 0x414 SWAP2 SWAP1 PUSH2 0xDD7 JUMP JUMPDEST PUSH1 0x20 PUSH1 0x40 MLOAD DUP1 DUP4 SUB DUP2 DUP7 GAS STATICCALL ISZERO DUP1 ISZERO PUSH2 0x42F JUMPI RETURNDATASIZE PUSH0 DUP1 RETURNDATACOPY RETURNDATASIZE PUSH0 REVERT JUMPDEST POP POP POP POP PUSH1 0x40 MLOAD RETURNDATASIZE PUSH1 0x1F NOT PUSH1 0x1F DUP3 ADD AND DUP3 ADD DUP1 PUSH1 0x40 MSTORE POP DUP2 ADD SWAP1 PUSH2 0x453 SWAP2 SWAP1 PUSH2 0xFB7 JUMP JUMPDEST LT ISZERO PUSH2 0x494 JUMPI PUSH1 0x40 MLOAD PUSH32 0x8C379A000000000000000000000000000000000000000000000000000000000 DUP2 MSTORE PUSH1 0x4 ADD PUSH2 0x48B SWAP1 PUSH2 0x10FC JUMP JUMPDEST PUSH1 0x40 MLOAD DUP1 SWAP2 SUB SWAP1 REVERT JUMPDEST PUSH0 PUSH1 0x2 PUSH0 SWAP1 SLOAD SWAP1 PUSH2 0x100 EXP SWAP1 DIV PUSH20 0xFFFFFFFFFFFFFFFFFFFFFFFFFFFFFFFFFFFFFFFF AND PUSH20 0xFFFFFFFFFFFFFFFFFFFFFFFFFFFFFFFFFFFFFFFF AND PUSH4 0xDB006A75 DUP4 PUSH1 0x40 MLOAD DUP3 PUSH4 0xFFFFFFFF AND PUSH1 0xE0 SHL DUP2 MSTORE PUSH1 0x4 ADD PUSH2 0x4EF SWAP2 SWAP1 PUSH2 0xDAF JUMP JUMPDEST PUSH1 0x20 PUSH1 0x40 MLOAD DUP1 DUP4 SUB DUP2 PUSH0 DUP8 GAS CALL ISZERO DUP1 ISZERO PUSH2 0x50B JUMPI RETURNDATASIZE PUSH0 DUP1 RETURNDATACOPY RETURNDATASIZE PUSH0 REVERT JUMPDEST POP POP POP POP PUSH1 0x40 MLOAD RETURNDATASIZE PUSH1 0x1F NOT PUSH1 0x1F DUP3 ADD AND DUP3 ADD DUP1 PUSH1 0x40 MSTORE POP DUP2 ADD SWAP1 PUSH2 0x52F SWAP2 SWAP1 PUSH2 0xFB7 JUMP JUMPDEST SWAP1 POP PUSH0 DUP2 EQ PUSH2 0x573 JUMPI PUSH1 0x40 MLOAD PUSH32 0x8C379A000000000000000000000000000000000000000000000000000000000 DUP2 MSTORE PUSH1 0x4 ADD PUSH2 0x56A SWAP1 PUSH2 0x1164 JUMP JUMPDEST PUSH1 0x40 MLOAD DUP1 SWAP2 SUB SWAP1 REVERT JUMPDEST PUSH2 0x5BF CALLER DUP4 PUSH1 0x1 PUSH0 SWAP1 SLOAD SWAP1 PUSH2 0x100 EXP SWAP1 DIV PUSH20 0xFFFFFFFFFFFFFFFFFFFFFFFFFFFFFFFFFFFFFFFF AND PUSH20 0xFFFFFFFFFFFFFFFFFFFFFFFFFFFFFFFFFFFFFFFF AND PUSH2 0x91F SWAP1 SWAP3 SWAP2 SWAP1 PUSH4 0xFFFFFFFF AND JUMP JUMPDEST POP POP JUMP JUMPDEST PUSH0 PUSH1 0x2 PUSH0 SWAP1 SLOAD SWAP1 PUSH2 0x100 EXP SWAP1 DIV PUSH20 0xFFFFFFFFFFFFFFFFFFFFFFFFFFFFFFFFFFFFFFFF AND PUSH20 0xFFFFFFFFFFFFFFFFFFFFFFFFFFFFFFFFFFFFFFFF AND PUSH4 0x70A08231 ADDRESS PUSH1 0x40 MLOAD DUP3 PUSH4 0xFFFFFFFF AND PUSH1 0xE0 SHL DUP2 MSTORE PUSH1 0x4 ADD PUSH2 0x61E SWAP2 SWAP1 PUSH2 0xDD7 JUMP JUMPDEST PUSH1 0x20 PUSH1 0x40 MLOAD DUP1 DUP4 SUB DUP2 DUP7 GAS STATICCALL ISZERO DUP1 ISZERO PUSH2 0x639 JUMPI RETURNDATASIZE PUSH0 DUP1 RETURNDATACOPY RETURNDATASIZE PUSH0 REVERT JUMPDEST POP POP POP POP PUSH1 0x40 MLOAD RETURNDATASIZE PUSH1 0x1F NOT PUSH1 0x1F DUP3 ADD AND DUP3 ADD DUP1 PUSH1 0x40 MSTORE POP DUP2 ADD SWAP1 PUSH2 0x65D SWAP2 SWAP1 PUSH2 0xFB7 JUMP JUMPDEST SWAP1 POP SWAP1 JUMP JUMPDEST PUSH0 DUP1 SLOAD SWAP1 PUSH2 0x100 EXP SWAP1 DIV PUSH20 0xFFFFFFFFFFFFFFFFFFFFFFFFFFFFFFFFFFFFFFFF AND DUP2 JUMP JUMPDEST PUSH0 DUP2 GT PUSH2 0x6C7 JUMPI PUSH1 0x40 MLOAD PUSH32 0x8C379A000000000000000000000000000000000000000000000000000000000 DUP2 MSTORE PUSH1 0x4 ADD PUSH2 0x6BE SWAP1 PUSH2 0x1094 JUMP JUMPDEST PUSH1 0x40 MLOAD DUP1 SWAP2 SUB SWAP1 REVERT JUMPDEST DUP1 PUSH1 0x1 PUSH0 SWAP1 SLOAD SWAP1 PUSH2 0x100 EXP SWAP1 DIV PUSH20 0xFFFFFFFFFFFFFFFFFFFFFFFFFFFFFFFFFFFFFFFF AND PUSH20 0xFFFFFFFFFFFFFFFFFFFFFFFFFFFFFFFFFFFFFFFF AND PUSH4 0xDD62ED3E CALLER ADDRESS PUSH1 0x40 MLOAD DUP4 PUSH4 0xFFFFFFFF AND PUSH1 0xE0 SHL DUP2 MSTORE PUSH1 0x4 ADD PUSH2 0x724 SWAP3 SWAP2 SWAP1 PUSH2 0x1182 JUMP JUMPDEST PUSH1 0x20 PUSH1 0x40 MLOAD DUP1 DUP4 SUB DUP2 DUP7 GAS STATICCALL ISZERO DUP1 ISZERO PUSH2 0x73F JUMPI RETURNDATASIZE PUSH0 DUP1 RETURNDATACOPY RETURNDATASIZE PUSH0 REVERT JUMPDEST POP POP POP POP PUSH1 0x40 MLOAD RETURNDATASIZE PUSH1 0x1F NOT PUSH1 0x1F DUP3 ADD AND DUP3 ADD DUP1 PUSH1 0x40 MSTORE POP DUP2 ADD SWAP1 PUSH2 0x763 SWAP2 SWAP1 PUSH2 0xFB7 JUMP JUMPDEST LT ISZERO PUSH2 0x7A4 JUMPI PUSH1 0x40 MLOAD PUSH32 0x8C379A000000000000000000000000000000000000000000000000000000000 DUP2 MSTORE PUSH1 0x4 ADD PUSH2 0x79B SWAP1 PUSH2 0x11F3 JUMP JUMPDEST PUSH1 0x40 MLOAD DUP1 SWAP2 SUB SWAP1 REVERT JUMPDEST PUSH2 0x7F2 CALLER ADDRESS DUP4 PUSH1 0x1 PUSH0 SWAP1 SLOAD SWAP1 PUSH2 0x100 EXP SWAP1 DIV PUSH20 0xFFFFFFFFFFFFFFFFFFFFFFFFFFFFFFFFFFFFFFFF AND PUSH20 0xFFFFFFFFFFFFFFFFFFFFFFFFFFFFFFFFFFFFFFFF AND PUSH2 0x9A5 SWAP1 SWAP4 SWAP3 SWAP2 SWAP1 PUSH4 0xFFFFFFFF AND JUMP JUMPDEST PUSH0 PUSH1 0x2 PUSH0 SWAP1 SLOAD SWAP1 PUSH2 0x100 EXP SWAP1 DIV PUSH20 0xFFFFFFFFFFFFFFFFFFFFFFFFFFFFFFFFFFFFFFFF AND PUSH20 0xFFFFFFFFFFFFFFFFFFFFFFFFFFFFFFFFFFFFFFFF AND PUSH4 0xA0712D68 DUP4 PUSH1 0x40 MLOAD DUP3 PUSH4 0xFFFFFFFF AND PUSH1 0xE0 SHL DUP2 MSTORE PUSH1 0x4 ADD PUSH2 0x84D SWAP2 SWAP1 PUSH2 0xDAF JUMP JUMPDEST PUSH1 0x20 PUSH1 0x40 MLOAD DUP1 DUP4 SUB DUP2 PUSH0 DUP8 GAS CALL ISZERO DUP1 ISZERO PUSH2 0x869 JUMPI RETURNDATASIZE PUSH0 DUP1 RETURNDATACOPY RETURNDATASIZE PUSH0 REVERT JUMPDEST POP POP POP POP PUSH1 0x40 MLOAD RETURNDATASIZE PUSH1 0x1F NOT PUSH1 0x1F DUP3 ADD AND DUP3 ADD DUP1 PUSH1 0x40 MSTORE POP DUP2 ADD SWAP1 PUSH2 0x88D SWAP2 SWAP1 PUSH2 0xFB7 JUMP JUMPDEST SWAP1 POP PUSH0 DUP2 EQ PUSH2 0x8D1 JUMPI PUSH1 0x40 MLOAD PUSH32 0x8C379A000000000000000000000000000000000000000000000000000000000 DUP2 MSTORE PUSH1 0x4 ADD PUSH2 0x8C8 SWAP1 PUSH2 0x125B JUMP JUMPDEST PUSH1 0x40 MLOAD DUP1 SWAP2 SUB SWAP1 REVERT JUMPDEST POP POP JUMP JUMPDEST PUSH1 0x2 PUSH0 SWAP1 SLOAD SWAP1 PUSH2 0x100 EXP SWAP1 DIV PUSH20 0xFFFFFFFFFFFFFFFFFFFFFFFFFFFFFFFFFFFFFFFF AND DUP2 JUMP JUMPDEST PUSH1 0x1 PUSH0 SWAP1 SLOAD SWAP1 PUSH2 0x100 EXP SWAP1 DIV PUSH20 0xFFFFFFFFFFFFFFFFFFFFFFFFFFFFFFFFFFFFFFFF AND DUP2 JUMP JUMPDEST PUSH2 0x9A0 DUP4 PUSH4 0xA9059CBB PUSH1 0xE0 SHL DUP5 DUP5 PUSH1 0x40 MLOAD PUSH1 0x24 ADD PUSH2 0x93E SWAP3 SWAP2 SWAP1 PUSH2 0x1279 JUMP JUMPDEST PUSH1 0x40 MLOAD PUSH1 0x20 DUP2 DUP4 SUB SUB DUP2 MSTORE SWAP1 PUSH1 0x40 MSTORE SWAP1 PUSH28 0xFFFFFFFFFFFFFFFFFFFFFFFFFFFFFFFFFFFFFFFFFFFFFFFFFFFFFFFF NOT AND PUSH1 0x20 DUP3 ADD DUP1 MLOAD PUSH28 0xFFFFFFFFFFFFFFFFFFFFFFFFFFFFFFFFFFFFFFFFFFFFFFFFFFFFFFFF DUP4 DUP2 DUP4 AND OR DUP4 MSTORE POP POP POP POP PUSH2 0xA2E JUMP JUMPDEST POP POP POP JUMP JUMPDEST PUSH2 0xA28 DUP5 PUSH4 0x23B872DD PUSH1 0xE0 SHL DUP6 DUP6 DUP6 PUSH1 0x40 MLOAD PUSH1 0x24 ADD PUSH2 0x9C6 SWAP4 SWAP3 SWAP2 SWAP1 PUSH2 0x12A0 JUMP JUMPDEST PUSH1 0x40 MLOAD PUSH1 0x20 DUP2 DUP4 SUB SUB DUP2 MSTORE SWAP1 PUSH1 0x40 MSTORE SWAP1 PUSH28 0xFFFFFFFFFFFFFFFFFFFFFFFFFFFFFFFFFFFFFFFFFFFFFFFFFFFFFFFF NOT AND PUSH1 0x20 DUP3 ADD DUP1 MLOAD PUSH28 0xFFFFFFFFFFFFFFFFFFFFFFFFFFFFFFFFFFFFFFFFFFFFFFFFFFFFFFFF DUP4 DUP2 DUP4 AND OR DUP4 MSTORE POP POP POP POP PUSH2 0xA2E JUMP JUMPDEST POP POP POP POP JUMP JUMPDEST PUSH0 PUSH2 0xA8F DUP3 PUSH1 0x40 MLOAD DUP1 PUSH1 0x40 ADD PUSH1 0x40 MSTORE DUP1 PUSH1 0x20 DUP2 MSTORE PUSH1 0x20 ADD PUSH32 0x5361666545524332303A206C6F772D6C6576656C2063616C6C206661696C6564 DUP2 MSTORE POP DUP6 PUSH20 0xFFFFFFFFFFFFFFFFFFFFFFFFFFFFFFFFFFFFFFFF AND PUSH2 0xAF4 SWAP1 SWAP3 SWAP2 SWAP1 PUSH4 0xFFFFFFFF AND JUMP JUMPDEST SWAP1 POP PUSH0 DUP2 MLOAD EQ DUP1 PUSH2 0xAB0 JUMPI POP DUP1 DUP1 PUSH1 0x20 ADD SWAP1 MLOAD DUP2 ADD SWAP1 PUSH2 0xAAF SWAP2 SWAP1 PUSH2 0x130A JUMP JUMPDEST JUMPDEST PUSH2 0xAEF JUMPI PUSH1 0x40 MLOAD PUSH32 0x8C379A000000000000000000000000000000000000000000000000000000000 DUP2 MSTORE PUSH1 0x4 ADD PUSH2 0xAE6 SWAP1 PUSH2 0x13A5 JUMP JUMPDEST PUSH1 0x40 MLOAD DUP1 SWAP2 SUB SWAP1 REVERT JUMPDEST POP POP POP JUMP JUMPDEST PUSH1 0x60 PUSH2 0xB02 DUP5 DUP5 PUSH0 DUP6 PUSH2 0xB0B JUMP JUMPDEST SWAP1 POP SWAP4 SWAP3 POP POP POP JUMP JUMPDEST PUSH1 0x60 DUP3 SELFBALANCE LT ISZERO PUSH2 0xB50 JUMPI PUSH1 0x40 MLOAD PUSH32 0x8C379A000000000000000000000000000000000000000000000000000000000 DUP2 MSTORE PUSH1 0x4 ADD PUSH2 0xB47 SWAP1 PUSH2 0x1433 JUMP JUMPDEST PUSH1 0x40 MLOAD DUP1 SWAP2 SUB SWAP1 REVERT JUMPDEST PUSH0 DUP1 DUP7 PUSH20 0xFFFFFFFFFFFFFFFFFFFFFFFFFFFFFFFFFFFFFFFF AND DUP6 DUP8 PUSH1 0x40 MLOAD PUSH2 0xB78 SWAP2 SWAP1 PUSH2 0x14BD JUMP JUMPDEST PUSH0 PUSH1 0x40 MLOAD DUP1 DUP4 SUB DUP2 DUP6 DUP8 GAS CALL SWAP3 POP POP POP RETURNDATASIZE DUP1 PUSH0 DUP2 EQ PUSH2 0xBB2 JUMPI PUSH1 0x40 MLOAD SWAP2 POP PUSH1 0x1F NOT PUSH1 0x3F RETURNDATASIZE ADD AND DUP3 ADD PUSH1 0x40 MSTORE RETURNDATASIZE DUP3 MSTORE RETURNDATASIZE PUSH0 PUSH1 0x20 DUP5 ADD RETURNDATACOPY PUSH2 0xBB7 JUMP JUMPDEST PUSH1 0x60 SWAP2 POP JUMPDEST POP SWAP2 POP SWAP2 POP PUSH2 0xBC8 DUP8 DUP4 DUP4 DUP8 PUSH2 0xBD4 JUMP JUMPDEST SWAP3 POP POP POP SWAP5 SWAP4 POP POP POP POP JUMP JUMPDEST PUSH1 0x60 DUP4 ISZERO PUSH2 0xC35 JUMPI PUSH0 DUP4 MLOAD SUB PUSH2 0xC2D JUMPI PUSH2 0xBED DUP6 PUSH2 0xC48 JUMP JUMPDEST PUSH2 0xC2C JUMPI PUSH1 0x40 MLOAD PUSH32 0x8C379A000000000000000000000000000000000000000000000000000000000 DUP2 MSTORE PUSH1 0x4 ADD PUSH2 0xC23 SWAP1 PUSH2 0x151D JUMP JUMPDEST PUSH1 0x40 MLOAD DUP1 SWAP2 SUB SWAP1 REVERT JUMPDEST JUMPDEST DUP3 SWAP1 POP PUSH2 0xC40 JUMP JUMPDEST PUSH2 0xC3F DUP4 DUP4 PUSH2 0xC6A JUMP JUMPDEST JUMPDEST SWAP5 SWAP4 POP POP POP POP JUMP JUMPDEST PUSH0 DUP1 DUP3 PUSH20 0xFFFFFFFFFFFFFFFFFFFFFFFFFFFFFFFFFFFFFFFF AND EXTCODESIZE GT SWAP1 POP SWAP2 SWAP1 POP JUMP JUMPDEST PUSH0 DUP3 MLOAD GT ISZERO PUSH2 0xC7C JUMPI DUP2 MLOAD DUP1 DUP4 PUSH1 0x20 ADD REVERT JUMPDEST DUP1 PUSH1 0x40 MLOAD PUSH32 0x8C379A000000000000000000000000000000000000000000000000000000000 DUP2 MSTORE PUSH1 0x4 ADD PUSH2 0xCB0 SWAP2 SWAP1 PUSH2 0x158D JUMP JUMPDEST PUSH1 0x40 MLOAD DUP1 SWAP2 SUB SWAP1 REVERT JUMPDEST PUSH0 DUP1 REVERT JUMPDEST PUSH0 PUSH20 0xFFFFFFFFFFFFFFFFFFFFFFFFFFFFFFFFFFFFFFFF DUP3 AND SWAP1 POP SWAP2 SWAP1 POP JUMP JUMPDEST PUSH0 PUSH2 0xCE6 DUP3 PUSH2 0xCBD JUMP JUMPDEST SWAP1 POP SWAP2 SWAP1 POP JUMP JUMPDEST PUSH2 0xCF6 DUP2 PUSH2 0xCDC JUMP JUMPDEST DUP2 EQ PUSH2 0xD00 JUMPI PUSH0 DUP1 REVERT JUMPDEST POP JUMP JUMPDEST PUSH0 DUP2 CALLDATALOAD SWAP1 POP PUSH2 0xD11 DUP2 PUSH2 0xCED JUMP JUMPDEST SWAP3 SWAP2 POP POP JUMP JUMPDEST PUSH0 PUSH1 0x20 DUP3 DUP5 SUB SLT ISZERO PUSH2 0xD2C JUMPI PUSH2 0xD2B PUSH2 0xCB9 JUMP JUMPDEST JUMPDEST PUSH0 PUSH2 0xD39 DUP5 DUP3 DUP6 ADD PUSH2 0xD03 JUMP JUMPDEST SWAP2 POP POP SWAP3 SWAP2 POP POP JUMP JUMPDEST PUSH0 DUP2 SWAP1 POP SWAP2 SWAP1 POP JUMP JUMPDEST PUSH2 0xD54 DUP2 PUSH2 0xD42 JUMP JUMPDEST DUP2 EQ PUSH2 0xD5E JUMPI PUSH0 DUP1 REVERT JUMPDEST POP JUMP JUMPDEST PUSH0 DUP2 CALLDATALOAD SWAP1 POP PUSH2 0xD6F DUP2 PUSH2 0xD4B JUMP JUMPDEST SWAP3 SWAP2 POP POP JUMP JUMPDEST PUSH0 PUSH1 0x20 DUP3 DUP5 SUB SLT ISZERO PUSH2 0xD8A JUMPI PUSH2 0xD89 PUSH2 0xCB9 JUMP JUMPDEST JUMPDEST PUSH0 PUSH2 0xD97 DUP5 DUP3 DUP6 ADD PUSH2 0xD61 JUMP JUMPDEST SWAP2 POP POP SWAP3 SWAP2 POP POP JUMP JUMPDEST PUSH2 0xDA9 DUP2 PUSH2 0xD42 JUMP JUMPDEST DUP3 MSTORE POP POP JUMP JUMPDEST PUSH0 PUSH1 0x20 DUP3 ADD SWAP1 POP PUSH2 0xDC2 PUSH0 DUP4 ADD DUP5 PUSH2 0xDA0 JUMP JUMPDEST SWAP3 SWAP2 POP POP JUMP JUMPDEST PUSH2 0xDD1 DUP2 PUSH2 0xCDC JUMP JUMPDEST DUP3 MSTORE POP POP JUMP JUMPDEST PUSH0 PUSH1 0x20 DUP3 ADD SWAP1 POP PUSH2 0xDEA PUSH0 DUP4 ADD DUP5 PUSH2 0xDC8 JUMP JUMPDEST SWAP3 SWAP2 POP POP JUMP JUMPDEST PUSH0 DUP2 SWAP1 POP SWAP2 SWAP1 POP JUMP JUMPDEST PUSH0 PUSH2 0xE13 PUSH2 0xE0E PUSH2 0xE09 DUP5 PUSH2 0xCBD JUMP JUMPDEST PUSH2 0xDF0 JUMP JUMPDEST PUSH2 0xCBD JUMP JUMPDEST SWAP1 POP SWAP2 SWAP1 POP JUMP JUMPDEST PUSH0 PUSH2 0xE24 DUP3 PUSH2 0xDF9 JUMP JUMPDEST SWAP1 POP SWAP2 SWAP1 POP JUMP JUMPDEST PUSH0 PUSH2 0xE35 DUP3 PUSH2 0xE1A JUMP JUMPDEST SWAP1 POP SWAP2 SWAP1 POP JUMP JUMPDEST PUSH2 0xE45 DUP2 PUSH2 0xE2B JUMP JUMPDEST DUP3 MSTORE POP POP JUMP JUMPDEST PUSH0 PUSH1 0x20 DUP3 ADD SWAP1 POP PUSH2 0xE5E PUSH0 DUP4 ADD DUP5 PUSH2 0xE3C JUMP JUMPDEST SWAP3 SWAP2 POP POP JUMP JUMPDEST PUSH0 PUSH2 0xE6E DUP3 PUSH2 0xE1A JUMP JUMPDEST SWAP1 POP SWAP2 SWAP1 POP JUMP JUMPDEST PUSH2 0xE7E DUP2 PUSH2 0xE64 JUMP JUMPDEST DUP3 MSTORE POP POP JUMP JUMPDEST PUSH0 PUSH1 0x20 DUP3 ADD SWAP1 POP PUSH2 0xE97 PUSH0 DUP4 ADD DUP5 PUSH2 0xE75 JUMP JUMPDEST SWAP3 SWAP2 POP POP JUMP JUMPDEST PUSH0 DUP3 DUP3 MSTORE PUSH1 0x20 DUP3 ADD SWAP1 POP SWAP3 SWAP2 POP POP JUMP JUMPDEST PUSH32 0x4F6E6C7920746865206F776E65722063616E2063616C6C20746869732066756E PUSH0 DUP3 ADD MSTORE PUSH32 0x6374696F6E000000000000000000000000000000000000000000000000000000 PUSH1 0x20 DUP3 ADD MSTORE POP JUMP JUMPDEST PUSH0 PUSH2 0xF07 PUSH1 0x25 DUP4 PUSH2 0xE9D JUMP JUMPDEST SWAP2 POP PUSH2 0xF12 DUP3 PUSH2 0xEAD JUMP JUMPDEST PUSH1 0x40 DUP3 ADD SWAP1 POP SWAP2 SWAP1 POP JUMP JUMPDEST PUSH0 PUSH1 0x20 DUP3 ADD SWAP1 POP DUP2 DUP2 SUB PUSH0 DUP4 ADD MSTORE PUSH2 0xF34 DUP2 PUSH2 0xEFB JUMP JUMPDEST SWAP1 POP SWAP2 SWAP1 POP JUMP JUMPDEST PUSH32 0x43616E6E6F742077697468647261772063444149000000000000000000000000 PUSH0 DUP3 ADD MSTORE POP JUMP JUMPDEST PUSH0 PUSH2 0xF6F PUSH1 0x14 DUP4 PUSH2 0xE9D JUMP JUMPDEST SWAP2 POP PUSH2 0xF7A DUP3 PUSH2 0xF3B JUMP JUMPDEST PUSH1 0x20 DUP3 ADD SWAP1 POP SWAP2 SWAP1 POP JUMP JUMPDEST PUSH0 PUSH1 0x20 DUP3 ADD SWAP1 POP DUP2 DUP2 SUB PUSH0 DUP4 ADD MSTORE PUSH2 0xF9C DUP2 PUSH2 0xF63 JUMP JUMPDEST SWAP1 POP SWAP2 SWAP1 POP JUMP JUMPDEST PUSH0 DUP2 MLOAD SWAP1 POP PUSH2 0xFB1 DUP2 PUSH2 0xD4B JUMP JUMPDEST SWAP3 SWAP2 POP POP JUMP JUMPDEST PUSH0 PUSH1 0x20 DUP3 DUP5 SUB SLT ISZERO PUSH2 0xFCC JUMPI PUSH2 0xFCB PUSH2 0xCB9 JUMP JUMPDEST JUMPDEST PUSH0 PUSH2 0xFD9 DUP5 DUP3 DUP6 ADD PUSH2 0xFA3 JUMP JUMPDEST SWAP2 POP POP SWAP3 SWAP2 POP POP JUMP JUMPDEST PUSH32 0x4E6F2062616C616E636520746F20776974686472617700000000000000000000 PUSH0 DUP3 ADD MSTORE POP JUMP JUMPDEST PUSH0 PUSH2 0x1016 PUSH1 0x16 DUP4 PUSH2 0xE9D JUMP JUMPDEST SWAP2 POP PUSH2 0x1021 DUP3 PUSH2 0xFE2 JUMP JUMPDEST PUSH1 0x20 DUP3 ADD SWAP1 POP SWAP2 SWAP1 POP JUMP JUMPDEST PUSH0 PUSH1 0x20 DUP3 ADD SWAP1 POP DUP2 DUP2 SUB PUSH0 DUP4 ADD MSTORE PUSH2 0x1043 DUP2 PUSH2 0x100A JUMP JUMPDEST SWAP1 POP SWAP2 SWAP1 POP JUMP JUMPDEST PUSH32 0x416D6F756E74206D7573742062652067726561746572207468616E207A65726F PUSH0 DUP3 ADD MSTORE POP JUMP JUMPDEST PUSH0 PUSH2 0x107E PUSH1 0x20 DUP4 PUSH2 0xE9D JUMP JUMPDEST SWAP2 POP PUSH2 0x1089 DUP3 PUSH2 0x104A JUMP JUMPDEST PUSH1 0x20 DUP3 ADD SWAP1 POP SWAP2 SWAP1 POP JUMP JUMPDEST PUSH0 PUSH1 0x20 DUP3 ADD SWAP1 POP DUP2 DUP2 SUB PUSH0 DUP4 ADD MSTORE PUSH2 0x10AB DUP2 PUSH2 0x1072 JUMP JUMPDEST SWAP1 POP SWAP2 SWAP1 POP JUMP JUMPDEST PUSH32 0x496E73756666696369656E7420634441492062616C616E636500000000000000 PUSH0 DUP3 ADD MSTORE POP JUMP JUMPDEST PUSH0 PUSH2 0x10E6 PUSH1 0x19 DUP4 PUSH2 0xE9D JUMP JUMPDEST SWAP2 POP PUSH2 0x10F1 DUP3 PUSH2 0x10B2 JUMP JUMPDEST PUSH1 0x20 DUP3 ADD SWAP1 POP SWAP2 SWAP1 POP JUMP JUMPDEST PUSH0 PUSH1 0x20 DUP3 ADD SWAP1 POP DUP2 DUP2 SUB PUSH0 DUP4 ADD MSTORE PUSH2 0x1113 DUP2 PUSH2 0x10DA JUMP JUMPDEST SWAP1 POP SWAP2 SWAP1 POP JUMP JUMPDEST PUSH32 0x634441492072656465656D696E67206661696C65640000000000000000000000 PUSH0 DUP3 ADD MSTORE POP JUMP JUMPDEST PUSH0 PUSH2 0x114E PUSH1 0x15 DUP4 PUSH2 0xE9D JUMP JUMPDEST SWAP2 POP PUSH2 0x1159 DUP3 PUSH2 0x111A JUMP JUMPDEST PUSH1 0x20 DUP3 ADD SWAP1 POP SWAP2 SWAP1 POP JUMP JUMPDEST PUSH0 PUSH1 0x20 DUP3 ADD SWAP1 POP DUP2 DUP2 SUB PUSH0 DUP4 ADD MSTORE PUSH2 0x117B DUP2 PUSH2 0x1142 JUMP JUMPDEST SWAP1 POP SWAP2 SWAP1 POP JUMP JUMPDEST PUSH0 PUSH1 0x40 DUP3 ADD SWAP1 POP PUSH2 0x1195 PUSH0 DUP4 ADD DUP6 PUSH2 0xDC8 JUMP JUMPDEST PUSH2 0x11A2 PUSH1 0x20 DUP4 ADD DUP5 PUSH2 0xDC8 JUMP JUMPDEST SWAP4 SWAP3 POP POP POP JUMP JUMPDEST PUSH32 0x416C6C6F77616E6365206E6F7420736574000000000000000000000000000000 PUSH0 DUP3 ADD MSTORE POP JUMP JUMPDEST PUSH0 PUSH2 0x11DD PUSH1 0x11 DUP4 PUSH2 0xE9D JUMP JUMPDEST SWAP2 POP PUSH2 0x11E8 DUP3 PUSH2 0x11A9 JUMP JUMPDEST PUSH1 0x20 DUP3 ADD SWAP1 POP SWAP2 SWAP1 POP JUMP JUMPDEST PUSH0 PUSH1 0x20 DUP3 ADD SWAP1 POP DUP2 DUP2 SUB PUSH0 DUP4 ADD MSTORE PUSH2 0x120A DUP2 PUSH2 0x11D1 JUMP JUMPDEST SWAP1 POP SWAP2 SWAP1 POP JUMP JUMPDEST PUSH32 0x63444149206D696E74696E67206661696C656400000000000000000000000000 PUSH0 DUP3 ADD MSTORE POP JUMP JUMPDEST PUSH0 PUSH2 0x1245 PUSH1 0x13 DUP4 PUSH2 0xE9D JUMP JUMPDEST SWAP2 POP PUSH2 0x1250 DUP3 PUSH2 0x1211 JUMP JUMPDEST PUSH1 0x20 DUP3 ADD SWAP1 POP SWAP2 SWAP1 POP JUMP JUMPDEST PUSH0 PUSH1 0x20 DUP3 ADD SWAP1 POP DUP2 DUP2 SUB PUSH0 DUP4 ADD MSTORE PUSH2 0x1272 DUP2 PUSH2 0x1239 JUMP JUMPDEST SWAP1 POP SWAP2 SWAP1 POP JUMP JUMPDEST PUSH0 PUSH1 0x40 DUP3 ADD SWAP1 POP PUSH2 0x128C PUSH0 DUP4 ADD DUP6 PUSH2 0xDC8 JUMP JUMPDEST PUSH2 0x1299 PUSH1 0x20 DUP4 ADD DUP5 PUSH2 0xDA0 JUMP JUMPDEST SWAP4 SWAP3 POP POP POP JUMP JUMPDEST PUSH0 PUSH1 0x60 DUP3 ADD SWAP1 POP PUSH2 0x12B3 PUSH0 DUP4 ADD DUP7 PUSH2 0xDC8 JUMP JUMPDEST PUSH2 0x12C0 PUSH1 0x20 DUP4 ADD DUP6 PUSH2 0xDC8 JUMP JUMPDEST PUSH2 0x12CD PUSH1 0x40 DUP4 ADD DUP5 PUSH2 0xDA0 JUMP JUMPDEST SWAP5 SWAP4 POP POP POP POP JUMP JUMPDEST PUSH0 DUP2 ISZERO ISZERO SWAP1 POP SWAP2 SWAP1 POP JUMP JUMPDEST PUSH2 0x12E9 DUP2 PUSH2 0x12D5 JUMP JUMPDEST DUP2 EQ PUSH2 0x12F3 JUMPI PUSH0 DUP1 REVERT JUMPDEST POP JUMP JUMPDEST PUSH0 DUP2 MLOAD SWAP1 POP PUSH2 0x1304 DUP2 PUSH2 0x12E0 JUMP JUMPDEST SWAP3 SWAP2 POP POP JUMP JUMPDEST PUSH0 PUSH1 0x20 DUP3 DUP5 SUB SLT ISZERO PUSH2 0x131F JUMPI PUSH2 0x131E PUSH2 0xCB9 JUMP JUMPDEST JUMPDEST PUSH0 PUSH2 0x132C DUP5 DUP3 DUP6 ADD PUSH2 0x12F6 JUMP JUMPDEST SWAP2 POP POP SWAP3 SWAP2 POP POP JUMP JUMPDEST PUSH32 0x5361666545524332303A204552433230206F7065726174696F6E20646964206E PUSH0 DUP3 ADD MSTORE PUSH32 0x6F74207375636365656400000000000000000000000000000000000000000000 PUSH1 0x20 DUP3 ADD MSTORE POP JUMP JUMPDEST PUSH0 PUSH2 0x138F PUSH1 0x2A DUP4 PUSH2 0xE9D JUMP JUMPDEST SWAP2 POP PUSH2 0x139A DUP3 PUSH2 0x1335 JUMP JUMPDEST PUSH1 0x40 DUP3 ADD SWAP1 POP SWAP2 SWAP1 POP JUMP JUMPDEST PUSH0 PUSH1 0x20 DUP3 ADD SWAP1 POP DUP2 DUP2 SUB PUSH0 DUP4 ADD MSTORE PUSH2 0x13BC DUP2 PUSH2 0x1383 JUMP JUMPDEST SWAP1 POP SWAP2 SWAP1 POP JUMP JUMPDEST PUSH32 0x416464726573733A20696E73756666696369656E742062616C616E636520666F PUSH0 DUP3 ADD MSTORE PUSH32 0x722063616C6C0000000000000000000000000000000000000000000000000000 PUSH1 0x20 DUP3 ADD MSTORE POP JUMP JUMPDEST PUSH0 PUSH2 0x141D PUSH1 0x26 DUP4 PUSH2 0xE9D JUMP JUMPDEST SWAP2 POP PUSH2 0x1428 DUP3 PUSH2 0x13C3 JUMP JUMPDEST PUSH1 0x40 DUP3 ADD SWAP1 POP SWAP2 SWAP1 POP JUMP JUMPDEST PUSH0 PUSH1 0x20 DUP3 ADD SWAP1 POP DUP2 DUP2 SUB PUSH0 DUP4 ADD MSTORE PUSH2 0x144A DUP2 PUSH2 0x1411 JUMP JUMPDEST SWAP1 POP SWAP2 SWAP1 POP JUMP JUMPDEST PUSH0 DUP2 MLOAD SWAP1 POP SWAP2 SWAP1 POP JUMP JUMPDEST PUSH0 DUP2 SWAP1 POP SWAP3 SWAP2 POP POP JUMP JUMPDEST PUSH0 JUMPDEST DUP4 DUP2 LT ISZERO PUSH2 0x1482 JUMPI DUP1 DUP3 ADD MLOAD DUP2 DUP5 ADD MSTORE PUSH1 0x20 DUP2 ADD SWAP1 POP PUSH2 0x1467 JUMP JUMPDEST PUSH0 DUP5 DUP5 ADD MSTORE POP POP POP POP JUMP JUMPDEST PUSH0 PUSH2 0x1497 DUP3 PUSH2 0x1451 JUMP JUMPDEST PUSH2 0x14A1 DUP2 DUP6 PUSH2 0x145B JUMP JUMPDEST SWAP4 POP PUSH2 0x14B1 DUP2 DUP6 PUSH1 0x20 DUP7 ADD PUSH2 0x1465 JUMP JUMPDEST DUP1 DUP5 ADD SWAP2 POP POP SWAP3 SWAP2 POP POP JUMP JUMPDEST PUSH0 PUSH2 0x14C8 DUP3 DUP5 PUSH2 0x148D JUMP JUMPDEST SWAP2 POP DUP2 SWAP1 POP SWAP3 SWAP2 POP POP JUMP JUMPDEST PUSH32 0x416464726573733A2063616C6C20746F206E6F6E2D636F6E7472616374000000 PUSH0 DUP3 ADD MSTORE POP JUMP JUMPDEST PUSH0 PUSH2 0x1507 PUSH1 0x1D DUP4 PUSH2 0xE9D JUMP JUMPDEST SWAP2 POP PUSH2 0x1512 DUP3 PUSH2 0x14D3 JUMP JUMPDEST PUSH1 0x20 DUP3 ADD SWAP1 POP SWAP2 SWAP1 POP JUMP JUMPDEST PUSH0 PUSH1 0x20 DUP3 ADD SWAP1 POP DUP2 DUP2 SUB PUSH0 DUP4 ADD MSTORE PUSH2 0x1534 DUP2 PUSH2 0x14FB JUMP JUMPDEST SWAP1 POP SWAP2 SWAP1 POP JUMP JUMPDEST PUSH0 DUP2 MLOAD SWAP1 POP SWAP2 SWAP1 POP JUMP JUMPDEST PUSH0 PUSH1 0x1F NOT PUSH1 0x1F DUP4 ADD AND SWAP1 POP SWAP2 SWAP1 POP JUMP JUMPDEST PUSH0 PUSH2 0x155F DUP3 PUSH2 0x153B JUMP JUMPDEST PUSH2 0x1569 DUP2 DUP6 PUSH2 0xE9D JUMP JUMPDEST SWAP4 POP PUSH2 0x1579 DUP2 DUP6 PUSH1 0x20 DUP7 ADD PUSH2 0x1465 JUMP JUMPDEST PUSH2 0x1582 DUP2 PUSH2 0x1545 JUMP JUMPDEST DUP5 ADD SWAP2 POP POP SWAP3 SWAP2 POP POP JUMP JUMPDEST PUSH0 PUSH1 0x20 DUP3 ADD SWAP1 POP DUP2 DUP2 SUB PUSH0 DUP4 ADD MSTORE PUSH2 0x15A5 DUP2 DUP5 PUSH2 0x1555 JUMP JUMPDEST SWAP1 POP SWAP3 SWAP2 POP POP JUMP INVALID LOG2 PUSH5 0x6970667358 0x22 SLT KECCAK256 PUSH17 0xC34603D9873C814324AF2D7062ACAD0F4E 0xF7 0xD0 0xE1 PUSH29 0xAA60C06CEE19F0D54BA964736F6C634300081500330000000000000000 "
				},
				"gasEstimates": {
					"creation": {
						"codeDepositCost": "1120600",
						"executionCost": "infinite",
						"totalCost": "infinite"
					},
					"external": {
						"cDaiBalance()": "infinite",
						"cDaiToken()": "infinite",
						"daiToken()": "infinite",
						"deposit(uint256)": "infinite",
						"owner()": "2505",
						"withdraw(uint256)": "infinite",
						"withdrawExcessTokens(address)": "infinite"
					}
				},
				"methodIdentifiers": {
					"cDaiBalance()": "68899b6f",
					"cDaiToken()": "ba266b13",
					"daiToken()": "be22f546",
					"deposit(uint256)": "b6b55f25",
					"owner()": "8da5cb5b",
					"withdraw(uint256)": "2e1a7d4d",
					"withdrawExcessTokens(address)": "0d842561"
				}
			},
			"storageLayout": {
				"storage": [
					{
						"astId": 1349,
						"contract": "Mycontract.sol:CompoundSupply",
						"label": "owner",
						"offset": 0,
						"slot": "0",
						"type": "t_address"
					},
					{
						"astId": 1352,
						"contract": "Mycontract.sol:CompoundSupply",
						"label": "daiToken",
						"offset": 0,
						"slot": "1",
						"type": "t_contract(IERC20)77"
					},
					{
						"astId": 1355,
						"contract": "Mycontract.sol:CompoundSupply",
						"label": "cDaiToken",
						"offset": 0,
						"slot": "2",
						"type": "t_contract(CErc20Interface)1301"
					}
				],
				"types": {
					"t_address": {
						"encoding": "inplace",
						"label": "address",
						"numberOfBytes": "20"
					},
					"t_contract(CErc20Interface)1301": {
						"encoding": "inplace",
						"label": "contract CErc20Interface",
						"numberOfBytes": "20"
					},
					"t_contract(IERC20)77": {
						"encoding": "inplace",
						"label": "contract IERC20",
						"numberOfBytes": "20"
					}
				}
			},
			"userdoc": {
				"kind": "user",
				"methods": {},
				"version": 1
			}
		}
	}
}