{
	"test.sol": {
		"MyContract": {
			"abi": [
				{
					"anonymous": false,
					"inputs": [
						{
							"indexed": false,
							"internalType": "string",
							"name": "",
							"type": "string"
						},
						{
							"indexed": false,
							"internalType": "uint256",
							"name": "",
							"type": "uint256"
						}
					],
					"name": "MyLog",
					"type": "event"
				},
				{
					"inputs": [
						{
							"internalType": "uint256",
							"name": "amount",
							"type": "uint256"
						},
						{
							"internalType": "bool",
							"name": "redeemType",
							"type": "bool"
						},
						{
							"internalType": "address",
							"name": "_cErc20Contract",
							"type": "address"
						}
					],
					"name": "redeemCErc20Tokens",
					"outputs": [
						{
							"internalType": "bool",
							"name": "",
							"type": "bool"
						}
					],
					"stateMutability": "nonpayable",
					"type": "function"
				},
				{
					"inputs": [
						{
							"internalType": "uint256",
							"name": "amount",
							"type": "uint256"
						},
						{
							"internalType": "bool",
							"name": "redeemType",
							"type": "bool"
						},
						{
							"internalType": "address",
							"name": "_cEtherContract",
							"type": "address"
						}
					],
					"name": "redeemCEth",
					"outputs": [
						{
							"internalType": "bool",
							"name": "",
							"type": "bool"
						}
					],
					"stateMutability": "nonpayable",
					"type": "function"
				},
				{
					"inputs": [
						{
							"internalType": "address",
							"name": "_erc20Contract",
							"type": "address"
						},
						{
							"internalType": "address",
							"name": "_cErc20Contract",
							"type": "address"
						},
						{
							"internalType": "uint256",
							"name": "_numTokensToSupply",
							"type": "uint256"
						}
					],
					"name": "supplyErc20ToCompound",
					"outputs": [
						{
							"internalType": "uint256",
							"name": "",
							"type": "uint256"
						}
					],
					"stateMutability": "nonpayable",
					"type": "function"
				},
				{
					"inputs": [
						{
							"internalType": "address payable",
							"name": "_cEtherContract",
							"type": "address"
						}
					],
					"name": "supplyEthToCompound",
					"outputs": [
						{
							"internalType": "bool",
							"name": "",
							"type": "bool"
						}
					],
					"stateMutability": "payable",
					"type": "function"
				},
				{
					"stateMutability": "payable",
					"type": "receive"
				}
			],
			"devdoc": {
				"kind": "dev",
				"methods": {},
				"version": 1
			},
			"evm": {
				"assembly": "    /* \"test.sol\":868:4692  contract MyContract {... */\n  mstore(0x40, 0x80)\n  callvalue\n  dup1\n  iszero\n  tag_1\n  jumpi\n  0x00\n  dup1\n  revert\ntag_1:\n  pop\n  dataSize(sub_0)\n  dup1\n  dataOffset(sub_0)\n  0x00\n  codecopy\n  0x00\n  return\nstop\n\nsub_0: assembly {\n        /* \"test.sol\":868:4692  contract MyContract {... */\n      mstore(0x40, 0x80)\n      jumpi(tag_1, lt(calldatasize, 0x04))\n      shr(0xe0, calldataload(0x00))\n      dup1\n      0x3b7ba25f\n      eq\n      tag_3\n      jumpi\n      dup1\n      0xa82ffd88\n      eq\n      tag_4\n      jumpi\n      dup1\n      0xc6fb5014\n      eq\n      tag_5\n      jumpi\n      dup1\n      0xd0ace48e\n      eq\n      tag_6\n      jumpi\n      jump(tag_2)\n    tag_1:\n      jumpi(tag_2, calldatasize)\n      stop\n    tag_2:\n      0x00\n      dup1\n      revert\n        /* \"test.sol\":1695:2770  function supplyErc20ToCompound(... */\n    tag_3:\n      callvalue\n      dup1\n      iszero\n      tag_9\n      jumpi\n      0x00\n      dup1\n      revert\n    tag_9:\n      pop\n      tag_10\n      0x04\n      dup1\n      calldatasize\n      sub\n      dup2\n      add\n      swap1\n      tag_11\n      swap2\n      swap1\n      tag_12\n      jump\t// in\n    tag_11:\n      tag_13\n      jump\t// in\n    tag_10:\n      mload(0x40)\n      tag_14\n      swap2\n      swap1\n      tag_15\n      jump\t// in\n    tag_14:\n      mload(0x40)\n      dup1\n      swap2\n      sub\n      swap1\n      return\n        /* \"test.sol\":932:1687  function supplyEthToCompound(address payable _cEtherContract)... */\n    tag_4:\n      tag_16\n      0x04\n      dup1\n      calldatasize\n      sub\n      dup2\n      add\n      swap1\n      tag_17\n      swap2\n      swap1\n      tag_18\n      jump\t// in\n    tag_17:\n      tag_19\n      jump\t// in\n    tag_16:\n      mload(0x40)\n      tag_20\n      swap2\n      swap1\n      tag_21\n      jump\t// in\n    tag_20:\n      mload(0x40)\n      dup1\n      swap2\n      sub\n      swap1\n      return\n        /* \"test.sol\":3726:4588  function redeemCEth(... */\n    tag_5:\n      callvalue\n      dup1\n      iszero\n      tag_22\n      jumpi\n      0x00\n      dup1\n      revert\n    tag_22:\n      pop\n      tag_23\n      0x04\n      dup1\n      calldatasize\n      sub\n      dup2\n      add\n      swap1\n      tag_24\n      swap2\n      swap1\n      tag_25\n      jump\t// in\n    tag_24:\n      tag_26\n      jump\t// in\n    tag_23:\n      mload(0x40)\n      tag_27\n      swap2\n      swap1\n      tag_21\n      jump\t// in\n    tag_27:\n      mload(0x40)\n      dup1\n      swap2\n      sub\n      swap1\n      return\n        /* \"test.sol\":2778:3718  function redeemCErc20Tokens(... */\n    tag_6:\n      callvalue\n      dup1\n      iszero\n      tag_28\n      jumpi\n      0x00\n      dup1\n      revert\n    tag_28:\n      pop\n      tag_29\n      0x04\n      dup1\n      calldatasize\n      sub\n      dup2\n      add\n      swap1\n      tag_30\n      swap2\n      swap1\n      tag_25\n      jump\t// in\n    tag_30:\n      tag_31\n      jump\t// in\n    tag_29:\n      mload(0x40)\n      tag_32\n      swap2\n      swap1\n      tag_21\n      jump\t// in\n    tag_32:\n      mload(0x40)\n      dup1\n      swap2\n      sub\n      swap1\n      return\n        /* \"test.sol\":1695:2770  function supplyErc20ToCompound(... */\n    tag_13:\n        /* \"test.sol\":1853:1857  uint */\n      0x00\n        /* \"test.sol\":1945:1961  Erc20 underlying */\n      dup1\n        /* \"test.sol\":1970:1984  _erc20Contract */\n      dup5\n        /* \"test.sol\":1945:1985  Erc20 underlying = Erc20(_erc20Contract) */\n      swap1\n      pop\n        /* \"test.sol\":2077:2090  CErc20 cToken */\n      0x00\n        /* \"test.sol\":2100:2115  _cErc20Contract */\n      dup5\n        /* \"test.sol\":2077:2116  CErc20 cToken = CErc20(_cErc20Contract) */\n      swap1\n      pop\n        /* \"test.sol\":2199:2227  uint256 exchangeRateMantissa */\n      0x00\n        /* \"test.sol\":2230:2236  cToken */\n      dup2\n        /* \"test.sol\":2230:2256  cToken.exchangeRateCurrent */\n      0xffffffffffffffffffffffffffffffffffffffff\n      and\n      0xbd6d894d\n        /* \"test.sol\":2230:2258  cToken.exchangeRateCurrent() */\n      mload(0x40)\n      dup2\n      0xffffffff\n      and\n      0xe0\n      shl\n      dup2\n      mstore\n      0x04\n      add\n      0x20\n      mload(0x40)\n      dup1\n      dup4\n      sub\n      dup2\n      0x00\n      dup8\n      gas\n      call\n      iszero\n      dup1\n      iszero\n      tag_35\n      jumpi\n      returndatasize\n      0x00\n      dup1\n      returndatacopy\n      revert(0x00, returndatasize)\n    tag_35:\n      pop\n      pop\n      pop\n      pop\n      mload(0x40)\n      returndatasize\n      not(0x1f)\n      0x1f\n      dup3\n      add\n      and\n      dup3\n      add\n      dup1\n      0x40\n      mstore\n      pop\n      dup2\n      add\n      swap1\n      tag_36\n      swap2\n      swap1\n      tag_37\n      jump\t// in\n    tag_36:\n        /* \"test.sol\":2199:2258  uint256 exchangeRateMantissa = cToken.exchangeRateCurrent() */\n      swap1\n      pop\n        /* \"test.sol\":2274:2332  MyLog(\"Exchange Rate (scaled up): \", exchangeRateMantissa) */\n      0x8d1cced004452bd270777a8c670f9f7e7c4fdde56f2db331fe289d39dc2624ad\n        /* \"test.sol\":2311:2331  exchangeRateMantissa */\n      dup2\n        /* \"test.sol\":2274:2332  MyLog(\"Exchange Rate (scaled up): \", exchangeRateMantissa) */\n      mload(0x40)\n      tag_38\n      swap2\n      swap1\n      tag_39\n      jump\t// in\n    tag_38:\n      mload(0x40)\n      dup1\n      swap2\n      sub\n      swap1\n      log1\n        /* \"test.sol\":2403:2429  uint256 supplyRateMantissa */\n      0x00\n        /* \"test.sol\":2432:2438  cToken */\n      dup3\n        /* \"test.sol\":2432:2457  cToken.supplyRatePerBlock */\n      0xffffffffffffffffffffffffffffffffffffffff\n      and\n      0xae9d70b0\n        /* \"test.sol\":2432:2459  cToken.supplyRatePerBlock() */\n      mload(0x40)\n      dup2\n      0xffffffff\n      and\n      0xe0\n      shl\n      dup2\n      mstore\n      0x04\n      add\n      0x20\n      mload(0x40)\n      dup1\n      dup4\n      sub\n      dup2\n      0x00\n      dup8\n      gas\n      call\n      iszero\n      dup1\n      iszero\n      tag_41\n      jumpi\n      returndatasize\n      0x00\n      dup1\n      returndatacopy\n      revert(0x00, returndatasize)\n    tag_41:\n      pop\n      pop\n      pop\n      pop\n      mload(0x40)\n      returndatasize\n      not(0x1f)\n      0x1f\n      dup3\n      add\n      and\n      dup3\n      add\n      dup1\n      0x40\n      mstore\n      pop\n      dup2\n      add\n      swap1\n      tag_42\n      swap2\n      swap1\n      tag_37\n      jump\t// in\n    tag_42:\n        /* \"test.sol\":2403:2459  uint256 supplyRateMantissa = cToken.supplyRatePerBlock() */\n      swap1\n      pop\n        /* \"test.sol\":2475:2528  MyLog(\"Supply Rate: (scaled up)\", supplyRateMantissa) */\n      0x8d1cced004452bd270777a8c670f9f7e7c4fdde56f2db331fe289d39dc2624ad\n        /* \"test.sol\":2509:2527  supplyRateMantissa */\n      dup2\n        /* \"test.sol\":2475:2528  MyLog(\"Supply Rate: (scaled up)\", supplyRateMantissa) */\n      mload(0x40)\n      tag_43\n      swap2\n      swap1\n      tag_44\n      jump\t// in\n    tag_43:\n      mload(0x40)\n      dup1\n      swap2\n      sub\n      swap1\n      log1\n        /* \"test.sol\":2592:2602  underlying */\n      dup4\n        /* \"test.sol\":2592:2610  underlying.approve */\n      0xffffffffffffffffffffffffffffffffffffffff\n      and\n      0x095ea7b3\n        /* \"test.sol\":2611:2626  _cErc20Contract */\n      dup9\n        /* \"test.sol\":2628:2646  _numTokensToSupply */\n      dup9\n        /* \"test.sol\":2592:2647  underlying.approve(_cErc20Contract, _numTokensToSupply) */\n      mload(0x40)\n      dup4\n      0xffffffff\n      and\n      0xe0\n      shl\n      dup2\n      mstore\n      0x04\n      add\n      tag_45\n      swap3\n      swap2\n      swap1\n      tag_46\n      jump\t// in\n    tag_45:\n      0x20\n      mload(0x40)\n      dup1\n      dup4\n      sub\n      dup2\n      0x00\n      dup8\n      gas\n      call\n      iszero\n      dup1\n      iszero\n      tag_48\n      jumpi\n      returndatasize\n      0x00\n      dup1\n      returndatacopy\n      revert(0x00, returndatasize)\n    tag_48:\n      pop\n      pop\n      pop\n      pop\n      mload(0x40)\n      returndatasize\n      not(0x1f)\n      0x1f\n      dup3\n      add\n      and\n      dup3\n      add\n      dup1\n      0x40\n      mstore\n      pop\n      dup2\n      add\n      swap1\n      tag_49\n      swap2\n      swap1\n      tag_50\n      jump\t// in\n    tag_49:\n      pop\n        /* \"test.sol\":2685:2700  uint mintResult */\n      0x00\n        /* \"test.sol\":2703:2709  cToken */\n      dup4\n        /* \"test.sol\":2703:2714  cToken.mint */\n      0xffffffffffffffffffffffffffffffffffffffff\n      and\n      0xa0712d68\n        /* \"test.sol\":2715:2733  _numTokensToSupply */\n      dup9\n        /* \"test.sol\":2703:2734  cToken.mint(_numTokensToSupply) */\n      mload(0x40)\n      dup3\n      0xffffffff\n      and\n      0xe0\n      shl\n      dup2\n      mstore\n      0x04\n      add\n      tag_51\n      swap2\n      swap1\n      tag_15\n      jump\t// in\n    tag_51:\n      0x20\n      mload(0x40)\n      dup1\n      dup4\n      sub\n      dup2\n      0x00\n      dup8\n      gas\n      call\n      iszero\n      dup1\n      iszero\n      tag_53\n      jumpi\n      returndatasize\n      0x00\n      dup1\n      returndatacopy\n      revert(0x00, returndatasize)\n    tag_53:\n      pop\n      pop\n      pop\n      pop\n      mload(0x40)\n      returndatasize\n      not(0x1f)\n      0x1f\n      dup3\n      add\n      and\n      dup3\n      add\n      dup1\n      0x40\n      mstore\n      pop\n      dup2\n      add\n      swap1\n      tag_54\n      swap2\n      swap1\n      tag_37\n      jump\t// in\n    tag_54:\n        /* \"test.sol\":2685:2734  uint mintResult = cToken.mint(_numTokensToSupply) */\n      swap1\n      pop\n        /* \"test.sol\":2752:2762  mintResult */\n      dup1\n        /* \"test.sol\":2745:2762  return mintResult */\n      swap6\n      pop\n      pop\n      pop\n      pop\n      pop\n      pop\n        /* \"test.sol\":1695:2770  function supplyErc20ToCompound(... */\n      swap4\n      swap3\n      pop\n      pop\n      pop\n      jump\t// out\n        /* \"test.sol\":932:1687  function supplyEthToCompound(address payable _cEtherContract)... */\n    tag_19:\n        /* \"test.sol\":1045:1049  bool */\n      0x00\n        /* \"test.sol\":1135:1146  CEth cToken */\n      dup1\n        /* \"test.sol\":1154:1169  _cEtherContract */\n      dup3\n        /* \"test.sol\":1135:1170  CEth cToken = CEth(_cEtherContract) */\n      swap1\n      pop\n        /* \"test.sol\":1253:1281  uint256 exchangeRateMantissa */\n      0x00\n        /* \"test.sol\":1284:1290  cToken */\n      dup2\n        /* \"test.sol\":1284:1310  cToken.exchangeRateCurrent */\n      0xffffffffffffffffffffffffffffffffffffffff\n      and\n      0xbd6d894d\n        /* \"test.sol\":1284:1312  cToken.exchangeRateCurrent() */\n      mload(0x40)\n      dup2\n      0xffffffff\n      and\n      0xe0\n      shl\n      dup2\n      mstore\n      0x04\n      add\n      0x20\n      mload(0x40)\n      dup1\n      dup4\n      sub\n      dup2\n      0x00\n      dup8\n      gas\n      call\n      iszero\n      dup1\n      iszero\n      tag_57\n      jumpi\n      returndatasize\n      0x00\n      dup1\n      returndatacopy\n      revert(0x00, returndatasize)\n    tag_57:\n      pop\n      pop\n      pop\n      pop\n      mload(0x40)\n      returndatasize\n      not(0x1f)\n      0x1f\n      dup3\n      add\n      and\n      dup3\n      add\n      dup1\n      0x40\n      mstore\n      pop\n      dup2\n      add\n      swap1\n      tag_58\n      swap2\n      swap1\n      tag_37\n      jump\t// in\n    tag_58:\n        /* \"test.sol\":1253:1312  uint256 exchangeRateMantissa = cToken.exchangeRateCurrent() */\n      swap1\n      pop\n        /* \"test.sol\":1328:1394  MyLog(\"Exchange Rate (scaled up by 1e18): \", exchangeRateMantissa) */\n      0x8d1cced004452bd270777a8c670f9f7e7c4fdde56f2db331fe289d39dc2624ad\n        /* \"test.sol\":1373:1393  exchangeRateMantissa */\n      dup2\n        /* \"test.sol\":1328:1394  MyLog(\"Exchange Rate (scaled up by 1e18): \", exchangeRateMantissa) */\n      mload(0x40)\n      tag_59\n      swap2\n      swap1\n      tag_60\n      jump\t// in\n    tag_59:\n      mload(0x40)\n      dup1\n      swap2\n      sub\n      swap1\n      log1\n        /* \"test.sol\":1465:1491  uint256 supplyRateMantissa */\n      0x00\n        /* \"test.sol\":1494:1500  cToken */\n      dup3\n        /* \"test.sol\":1494:1519  cToken.supplyRatePerBlock */\n      0xffffffffffffffffffffffffffffffffffffffff\n      and\n      0xae9d70b0\n        /* \"test.sol\":1494:1521  cToken.supplyRatePerBlock() */\n      mload(0x40)\n      dup2\n      0xffffffff\n      and\n      0xe0\n      shl\n      dup2\n      mstore\n      0x04\n      add\n      0x20\n      mload(0x40)\n      dup1\n      dup4\n      sub\n      dup2\n      0x00\n      dup8\n      gas\n      call\n      iszero\n      dup1\n      iszero\n      tag_62\n      jumpi\n      returndatasize\n      0x00\n      dup1\n      returndatacopy\n      revert(0x00, returndatasize)\n    tag_62:\n      pop\n      pop\n      pop\n      pop\n      mload(0x40)\n      returndatasize\n      not(0x1f)\n      0x1f\n      dup3\n      add\n      and\n      dup3\n      add\n      dup1\n      0x40\n      mstore\n      pop\n      dup2\n      add\n      swap1\n      tag_63\n      swap2\n      swap1\n      tag_37\n      jump\t// in\n    tag_63:\n        /* \"test.sol\":1465:1521  uint256 supplyRateMantissa = cToken.supplyRatePerBlock() */\n      swap1\n      pop\n        /* \"test.sol\":1537:1598  MyLog(\"Supply Rate: (scaled up by 1e18)\", supplyRateMantissa) */\n      0x8d1cced004452bd270777a8c670f9f7e7c4fdde56f2db331fe289d39dc2624ad\n        /* \"test.sol\":1579:1597  supplyRateMantissa */\n      dup2\n        /* \"test.sol\":1537:1598  MyLog(\"Supply Rate: (scaled up by 1e18)\", supplyRateMantissa) */\n      mload(0x40)\n      tag_64\n      swap2\n      swap1\n      tag_65\n      jump\t// in\n    tag_64:\n      mload(0x40)\n      dup1\n      swap2\n      sub\n      swap1\n      log1\n        /* \"test.sol\":1611:1617  cToken */\n      dup3\n        /* \"test.sol\":1611:1622  cToken.mint */\n      0xffffffffffffffffffffffffffffffffffffffff\n      and\n      0x1249c58b\n        /* \"test.sol\":1631:1640  msg.value */\n      callvalue\n        /* \"test.sol\":1647:1653  250000 */\n      0x03d090\n        /* \"test.sol\":1611:1657  cToken.mint{ value: msg.value, gas: 250000 }() */\n      swap1\n      mload(0x40)\n      dup4\n      0xffffffff\n      and\n      0xe0\n      shl\n      dup2\n      mstore\n      0x04\n      add\n      0x00\n      mload(0x40)\n      dup1\n      dup4\n      sub\n      dup2\n      dup6\n      dup10\n      dup1\n      extcodesize\n      iszero\n      dup1\n      iszero\n      tag_66\n      jumpi\n      0x00\n      dup1\n      revert\n    tag_66:\n      pop\n      dup9\n      call\n      iszero\n      dup1\n      iszero\n      tag_68\n      jumpi\n      returndatasize\n      0x00\n      dup1\n      returndatacopy\n      revert(0x00, returndatasize)\n    tag_68:\n      pop\n      pop\n      pop\n      pop\n      pop\n      pop\n        /* \"test.sol\":1675:1679  true */\n      0x01\n        /* \"test.sol\":1668:1679  return true */\n      swap4\n      pop\n      pop\n      pop\n      pop\n        /* \"test.sol\":932:1687  function supplyEthToCompound(address payable _cEtherContract)... */\n      swap2\n      swap1\n      pop\n      jump\t// out\n        /* \"test.sol\":3726:4588  function redeemCEth(... */\n    tag_26:\n        /* \"test.sol\":3854:3858  bool */\n      0x00\n        /* \"test.sol\":3939:3950  CEth cToken */\n      dup1\n        /* \"test.sol\":3958:3973  _cEtherContract */\n      dup3\n        /* \"test.sol\":3939:3974  CEth cToken = CEth(_cEtherContract) */\n      swap1\n      pop\n        /* \"test.sol\":4049:4069  uint256 redeemResult */\n      0x00\n        /* \"test.sol\":4100:4104  true */\n      0x01\n        /* \"test.sol\":4086:4104  redeemType == true */\n      iszero\n      iszero\n        /* \"test.sol\":4086:4096  redeemType */\n      dup6\n        /* \"test.sol\":4086:4104  redeemType == true */\n      iszero\n      iszero\n      sub\n        /* \"test.sol\":4082:4377  if (redeemType == true) {... */\n      tag_70\n      jumpi\n        /* \"test.sol\":4197:4203  cToken */\n      dup2\n        /* \"test.sol\":4197:4210  cToken.redeem */\n      0xffffffffffffffffffffffffffffffffffffffff\n      and\n      0xdb006a75\n        /* \"test.sol\":4211:4217  amount */\n      dup8\n        /* \"test.sol\":4197:4218  cToken.redeem(amount) */\n      mload(0x40)\n      dup3\n      0xffffffff\n      and\n      0xe0\n      shl\n      dup2\n      mstore\n      0x04\n      add\n      tag_71\n      swap2\n      swap1\n      tag_15\n      jump\t// in\n    tag_71:\n      0x20\n      mload(0x40)\n      dup1\n      dup4\n      sub\n      dup2\n      0x00\n      dup8\n      gas\n      call\n      iszero\n      dup1\n      iszero\n      tag_73\n      jumpi\n      returndatasize\n      0x00\n      dup1\n      returndatacopy\n      revert(0x00, returndatasize)\n    tag_73:\n      pop\n      pop\n      pop\n      pop\n      mload(0x40)\n      returndatasize\n      not(0x1f)\n      0x1f\n      dup3\n      add\n      and\n      dup3\n      add\n      dup1\n      0x40\n      mstore\n      pop\n      dup2\n      add\n      swap1\n      tag_74\n      swap2\n      swap1\n      tag_37\n      jump\t// in\n    tag_74:\n        /* \"test.sol\":4182:4218  redeemResult = cToken.redeem(amount) */\n      swap1\n      pop\n        /* \"test.sol\":4082:4377  if (redeemType == true) {... */\n      jump(tag_75)\n    tag_70:\n        /* \"test.sol\":4334:4340  cToken */\n      dup2\n        /* \"test.sol\":4334:4357  cToken.redeemUnderlying */\n      0xffffffffffffffffffffffffffffffffffffffff\n      and\n      0x852a12e3\n        /* \"test.sol\":4358:4364  amount */\n      dup8\n        /* \"test.sol\":4334:4365  cToken.redeemUnderlying(amount) */\n      mload(0x40)\n      dup3\n      0xffffffff\n      and\n      0xe0\n      shl\n      dup2\n      mstore\n      0x04\n      add\n      tag_76\n      swap2\n      swap1\n      tag_15\n      jump\t// in\n    tag_76:\n      0x20\n      mload(0x40)\n      dup1\n      dup4\n      sub\n      dup2\n      0x00\n      dup8\n      gas\n      call\n      iszero\n      dup1\n      iszero\n      tag_78\n      jumpi\n      returndatasize\n      0x00\n      dup1\n      returndatacopy\n      revert(0x00, returndatasize)\n    tag_78:\n      pop\n      pop\n      pop\n      pop\n      mload(0x40)\n      returndatasize\n      not(0x1f)\n      0x1f\n      dup3\n      add\n      and\n      dup3\n      add\n      dup1\n      0x40\n      mstore\n      pop\n      dup2\n      add\n      swap1\n      tag_79\n      swap2\n      swap1\n      tag_37\n      jump\t// in\n    tag_79:\n        /* \"test.sol\":4319:4365  redeemResult = cToken.redeemUnderlying(amount) */\n      swap1\n      pop\n        /* \"test.sol\":4082:4377  if (redeemType == true) {... */\n    tag_75:\n        /* \"test.sol\":4497:4556  MyLog(\"If this is not 0, there was an error\", redeemResult) */\n      0x8d1cced004452bd270777a8c670f9f7e7c4fdde56f2db331fe289d39dc2624ad\n        /* \"test.sol\":4543:4555  redeemResult */\n      dup2\n        /* \"test.sol\":4497:4556  MyLog(\"If this is not 0, there was an error\", redeemResult) */\n      mload(0x40)\n      tag_80\n      swap2\n      swap1\n      tag_81\n      jump\t// in\n    tag_80:\n      mload(0x40)\n      dup1\n      swap2\n      sub\n      swap1\n      log1\n        /* \"test.sol\":4576:4580  true */\n      0x01\n        /* \"test.sol\":4569:4580  return true */\n      swap3\n      pop\n      pop\n      pop\n        /* \"test.sol\":3726:4588  function redeemCEth(... */\n      swap4\n      swap3\n      pop\n      pop\n      pop\n      jump\t// out\n        /* \"test.sol\":2778:3718  function redeemCErc20Tokens(... */\n    tag_31:\n        /* \"test.sol\":2914:2918  bool */\n      0x00\n        /* \"test.sol\":3010:3023  CErc20 cToken */\n      dup1\n        /* \"test.sol\":3033:3048  _cErc20Contract */\n      dup3\n        /* \"test.sol\":3010:3049  CErc20 cToken = CErc20(_cErc20Contract) */\n      swap1\n      pop\n        /* \"test.sol\":3179:3199  uint256 redeemResult */\n      0x00\n        /* \"test.sol\":3230:3234  true */\n      0x01\n        /* \"test.sol\":3216:3234  redeemType == true */\n      iszero\n      iszero\n        /* \"test.sol\":3216:3226  redeemType */\n      dup6\n        /* \"test.sol\":3216:3234  redeemType == true */\n      iszero\n      iszero\n      sub\n        /* \"test.sol\":3212:3507  if (redeemType == true) {... */\n      tag_83\n      jumpi\n        /* \"test.sol\":3327:3333  cToken */\n      dup2\n        /* \"test.sol\":3327:3340  cToken.redeem */\n      0xffffffffffffffffffffffffffffffffffffffff\n      and\n      0xdb006a75\n        /* \"test.sol\":3341:3347  amount */\n      dup8\n        /* \"test.sol\":3327:3348  cToken.redeem(amount) */\n      mload(0x40)\n      dup3\n      0xffffffff\n      and\n      0xe0\n      shl\n      dup2\n      mstore\n      0x04\n      add\n      tag_84\n      swap2\n      swap1\n      tag_15\n      jump\t// in\n    tag_84:\n      0x20\n      mload(0x40)\n      dup1\n      dup4\n      sub\n      dup2\n      0x00\n      dup8\n      gas\n      call\n      iszero\n      dup1\n      iszero\n      tag_86\n      jumpi\n      returndatasize\n      0x00\n      dup1\n      returndatacopy\n      revert(0x00, returndatasize)\n    tag_86:\n      pop\n      pop\n      pop\n      pop\n      mload(0x40)\n      returndatasize\n      not(0x1f)\n      0x1f\n      dup3\n      add\n      and\n      dup3\n      add\n      dup1\n      0x40\n      mstore\n      pop\n      dup2\n      add\n      swap1\n      tag_87\n      swap2\n      swap1\n      tag_37\n      jump\t// in\n    tag_87:\n        /* \"test.sol\":3312:3348  redeemResult = cToken.redeem(amount) */\n      swap1\n      pop\n        /* \"test.sol\":3212:3507  if (redeemType == true) {... */\n      jump(tag_88)\n    tag_83:\n        /* \"test.sol\":3464:3470  cToken */\n      dup2\n        /* \"test.sol\":3464:3487  cToken.redeemUnderlying */\n      0xffffffffffffffffffffffffffffffffffffffff\n      and\n      0x852a12e3\n        /* \"test.sol\":3488:3494  amount */\n      dup8\n        /* \"test.sol\":3464:3495  cToken.redeemUnderlying(amount) */\n      mload(0x40)\n      dup3\n      0xffffffff\n      and\n      0xe0\n      shl\n      dup2\n      mstore\n      0x04\n      add\n      tag_89\n      swap2\n      swap1\n      tag_15\n      jump\t// in\n    tag_89:\n      0x20\n      mload(0x40)\n      dup1\n      dup4\n      sub\n      dup2\n      0x00\n      dup8\n      gas\n      call\n      iszero\n      dup1\n      iszero\n      tag_91\n      jumpi\n      returndatasize\n      0x00\n      dup1\n      returndatacopy\n      revert(0x00, returndatasize)\n    tag_91:\n      pop\n      pop\n      pop\n      pop\n      mload(0x40)\n      returndatasize\n      not(0x1f)\n      0x1f\n      dup3\n      add\n      and\n      dup3\n      add\n      dup1\n      0x40\n      mstore\n      pop\n      dup2\n      add\n      swap1\n      tag_92\n      swap2\n      swap1\n      tag_37\n      jump\t// in\n    tag_92:\n        /* \"test.sol\":3449:3495  redeemResult = cToken.redeemUnderlying(amount) */\n      swap1\n      pop\n        /* \"test.sol\":3212:3507  if (redeemType == true) {... */\n    tag_88:\n        /* \"test.sol\":3627:3686  MyLog(\"If this is not 0, there was an error\", redeemResult) */\n      0x8d1cced004452bd270777a8c670f9f7e7c4fdde56f2db331fe289d39dc2624ad\n        /* \"test.sol\":3673:3685  redeemResult */\n      dup2\n        /* \"test.sol\":3627:3686  MyLog(\"If this is not 0, there was an error\", redeemResult) */\n      mload(0x40)\n      tag_93\n      swap2\n      swap1\n      tag_81\n      jump\t// in\n    tag_93:\n      mload(0x40)\n      dup1\n      swap2\n      sub\n      swap1\n      log1\n        /* \"test.sol\":3706:3710  true */\n      0x01\n        /* \"test.sol\":3699:3710  return true */\n      swap3\n      pop\n      pop\n      pop\n        /* \"test.sol\":2778:3718  function redeemCErc20Tokens(... */\n      swap4\n      swap3\n      pop\n      pop\n      pop\n      jump\t// out\n        /* \"#utility.yul\":88:205   */\n    tag_95:\n        /* \"#utility.yul\":197:198   */\n      0x00\n        /* \"#utility.yul\":194:195   */\n      dup1\n        /* \"#utility.yul\":187:199   */\n      revert\n        /* \"#utility.yul\":334:460   */\n    tag_97:\n        /* \"#utility.yul\":371:378   */\n      0x00\n        /* \"#utility.yul\":411:453   */\n      0xffffffffffffffffffffffffffffffffffffffff\n        /* \"#utility.yul\":404:409   */\n      dup3\n        /* \"#utility.yul\":400:454   */\n      and\n        /* \"#utility.yul\":389:454   */\n      swap1\n      pop\n        /* \"#utility.yul\":334:460   */\n      swap2\n      swap1\n      pop\n      jump\t// out\n        /* \"#utility.yul\":466:562   */\n    tag_98:\n        /* \"#utility.yul\":503:510   */\n      0x00\n        /* \"#utility.yul\":532:556   */\n      tag_132\n        /* \"#utility.yul\":550:555   */\n      dup3\n        /* \"#utility.yul\":532:556   */\n      tag_97\n      jump\t// in\n    tag_132:\n        /* \"#utility.yul\":521:556   */\n      swap1\n      pop\n        /* \"#utility.yul\":466:562   */\n      swap2\n      swap1\n      pop\n      jump\t// out\n        /* \"#utility.yul\":568:690   */\n    tag_99:\n        /* \"#utility.yul\":641:665   */\n      tag_134\n        /* \"#utility.yul\":659:664   */\n      dup2\n        /* \"#utility.yul\":641:665   */\n      tag_98\n      jump\t// in\n    tag_134:\n        /* \"#utility.yul\":634:639   */\n      dup2\n        /* \"#utility.yul\":631:666   */\n      eq\n        /* \"#utility.yul\":621:684   */\n      tag_135\n      jumpi\n        /* \"#utility.yul\":680:681   */\n      0x00\n        /* \"#utility.yul\":677:678   */\n      dup1\n        /* \"#utility.yul\":670:682   */\n      revert\n        /* \"#utility.yul\":621:684   */\n    tag_135:\n        /* \"#utility.yul\":568:690   */\n      pop\n      jump\t// out\n        /* \"#utility.yul\":696:835   */\n    tag_100:\n        /* \"#utility.yul\":742:747   */\n      0x00\n        /* \"#utility.yul\":780:786   */\n      dup2\n        /* \"#utility.yul\":767:787   */\n      calldataload\n        /* \"#utility.yul\":758:787   */\n      swap1\n      pop\n        /* \"#utility.yul\":796:829   */\n      tag_137\n        /* \"#utility.yul\":823:828   */\n      dup2\n        /* \"#utility.yul\":796:829   */\n      tag_99\n      jump\t// in\n    tag_137:\n        /* \"#utility.yul\":696:835   */\n      swap3\n      swap2\n      pop\n      pop\n      jump\t// out\n        /* \"#utility.yul\":841:918   */\n    tag_101:\n        /* \"#utility.yul\":878:885   */\n      0x00\n        /* \"#utility.yul\":907:912   */\n      dup2\n        /* \"#utility.yul\":896:912   */\n      swap1\n      pop\n        /* \"#utility.yul\":841:918   */\n      swap2\n      swap1\n      pop\n      jump\t// out\n        /* \"#utility.yul\":924:1046   */\n    tag_102:\n        /* \"#utility.yul\":997:1021   */\n      tag_140\n        /* \"#utility.yul\":1015:1020   */\n      dup2\n        /* \"#utility.yul\":997:1021   */\n      tag_101\n      jump\t// in\n    tag_140:\n        /* \"#utility.yul\":990:995   */\n      dup2\n        /* \"#utility.yul\":987:1022   */\n      eq\n        /* \"#utility.yul\":977:1040   */\n      tag_141\n      jumpi\n        /* \"#utility.yul\":1036:1037   */\n      0x00\n        /* \"#utility.yul\":1033:1034   */\n      dup1\n        /* \"#utility.yul\":1026:1038   */\n      revert\n        /* \"#utility.yul\":977:1040   */\n    tag_141:\n        /* \"#utility.yul\":924:1046   */\n      pop\n      jump\t// out\n        /* \"#utility.yul\":1052:1191   */\n    tag_103:\n        /* \"#utility.yul\":1098:1103   */\n      0x00\n        /* \"#utility.yul\":1136:1142   */\n      dup2\n        /* \"#utility.yul\":1123:1143   */\n      calldataload\n        /* \"#utility.yul\":1114:1143   */\n      swap1\n      pop\n        /* \"#utility.yul\":1152:1185   */\n      tag_143\n        /* \"#utility.yul\":1179:1184   */\n      dup2\n        /* \"#utility.yul\":1152:1185   */\n      tag_102\n      jump\t// in\n    tag_143:\n        /* \"#utility.yul\":1052:1191   */\n      swap3\n      swap2\n      pop\n      pop\n      jump\t// out\n        /* \"#utility.yul\":1197:1816   */\n    tag_12:\n        /* \"#utility.yul\":1274:1280   */\n      0x00\n        /* \"#utility.yul\":1282:1288   */\n      dup1\n        /* \"#utility.yul\":1290:1296   */\n      0x00\n        /* \"#utility.yul\":1339:1341   */\n      0x60\n        /* \"#utility.yul\":1327:1336   */\n      dup5\n        /* \"#utility.yul\":1318:1325   */\n      dup7\n        /* \"#utility.yul\":1314:1337   */\n      sub\n        /* \"#utility.yul\":1310:1342   */\n      slt\n        /* \"#utility.yul\":1307:1426   */\n      iszero\n      tag_145\n      jumpi\n        /* \"#utility.yul\":1345:1424   */\n      tag_146\n      tag_95\n      jump\t// in\n    tag_146:\n        /* \"#utility.yul\":1307:1426   */\n    tag_145:\n        /* \"#utility.yul\":1465:1466   */\n      0x00\n        /* \"#utility.yul\":1490:1543   */\n      tag_147\n        /* \"#utility.yul\":1535:1542   */\n      dup7\n        /* \"#utility.yul\":1526:1532   */\n      dup3\n        /* \"#utility.yul\":1515:1524   */\n      dup8\n        /* \"#utility.yul\":1511:1533   */\n      add\n        /* \"#utility.yul\":1490:1543   */\n      tag_100\n      jump\t// in\n    tag_147:\n        /* \"#utility.yul\":1480:1543   */\n      swap4\n      pop\n        /* \"#utility.yul\":1436:1553   */\n      pop\n        /* \"#utility.yul\":1592:1594   */\n      0x20\n        /* \"#utility.yul\":1618:1671   */\n      tag_148\n        /* \"#utility.yul\":1663:1670   */\n      dup7\n        /* \"#utility.yul\":1654:1660   */\n      dup3\n        /* \"#utility.yul\":1643:1652   */\n      dup8\n        /* \"#utility.yul\":1639:1661   */\n      add\n        /* \"#utility.yul\":1618:1671   */\n      tag_100\n      jump\t// in\n    tag_148:\n        /* \"#utility.yul\":1608:1671   */\n      swap3\n      pop\n        /* \"#utility.yul\":1563:1681   */\n      pop\n        /* \"#utility.yul\":1720:1722   */\n      0x40\n        /* \"#utility.yul\":1746:1799   */\n      tag_149\n        /* \"#utility.yul\":1791:1798   */\n      dup7\n        /* \"#utility.yul\":1782:1788   */\n      dup3\n        /* \"#utility.yul\":1771:1780   */\n      dup8\n        /* \"#utility.yul\":1767:1789   */\n      add\n        /* \"#utility.yul\":1746:1799   */\n      tag_103\n      jump\t// in\n    tag_149:\n        /* \"#utility.yul\":1736:1799   */\n      swap2\n      pop\n        /* \"#utility.yul\":1691:1809   */\n      pop\n        /* \"#utility.yul\":1197:1816   */\n      swap3\n      pop\n      swap3\n      pop\n      swap3\n      jump\t// out\n        /* \"#utility.yul\":1822:1940   */\n    tag_104:\n        /* \"#utility.yul\":1909:1933   */\n      tag_151\n        /* \"#utility.yul\":1927:1932   */\n      dup2\n        /* \"#utility.yul\":1909:1933   */\n      tag_101\n      jump\t// in\n    tag_151:\n        /* \"#utility.yul\":1904:1907   */\n      dup3\n        /* \"#utility.yul\":1897:1934   */\n      mstore\n        /* \"#utility.yul\":1822:1940   */\n      pop\n      pop\n      jump\t// out\n        /* \"#utility.yul\":1946:2168   */\n    tag_15:\n        /* \"#utility.yul\":2039:2043   */\n      0x00\n        /* \"#utility.yul\":2077:2079   */\n      0x20\n        /* \"#utility.yul\":2066:2075   */\n      dup3\n        /* \"#utility.yul\":2062:2080   */\n      add\n        /* \"#utility.yul\":2054:2080   */\n      swap1\n      pop\n        /* \"#utility.yul\":2090:2161   */\n      tag_153\n        /* \"#utility.yul\":2158:2159   */\n      0x00\n        /* \"#utility.yul\":2147:2156   */\n      dup4\n        /* \"#utility.yul\":2143:2160   */\n      add\n        /* \"#utility.yul\":2134:2140   */\n      dup5\n        /* \"#utility.yul\":2090:2161   */\n      tag_104\n      jump\t// in\n    tag_153:\n        /* \"#utility.yul\":1946:2168   */\n      swap3\n      swap2\n      pop\n      pop\n      jump\t// out\n        /* \"#utility.yul\":2174:2278   */\n    tag_105:\n        /* \"#utility.yul\":2219:2226   */\n      0x00\n        /* \"#utility.yul\":2248:2272   */\n      tag_155\n        /* \"#utility.yul\":2266:2271   */\n      dup3\n        /* \"#utility.yul\":2248:2272   */\n      tag_97\n      jump\t// in\n    tag_155:\n        /* \"#utility.yul\":2237:2272   */\n      swap1\n      pop\n        /* \"#utility.yul\":2174:2278   */\n      swap2\n      swap1\n      pop\n      jump\t// out\n        /* \"#utility.yul\":2284:2422   */\n    tag_106:\n        /* \"#utility.yul\":2365:2397   */\n      tag_157\n        /* \"#utility.yul\":2391:2396   */\n      dup2\n        /* \"#utility.yul\":2365:2397   */\n      tag_105\n      jump\t// in\n    tag_157:\n        /* \"#utility.yul\":2358:2363   */\n      dup2\n        /* \"#utility.yul\":2355:2398   */\n      eq\n        /* \"#utility.yul\":2345:2416   */\n      tag_158\n      jumpi\n        /* \"#utility.yul\":2412:2413   */\n      0x00\n        /* \"#utility.yul\":2409:2410   */\n      dup1\n        /* \"#utility.yul\":2402:2414   */\n      revert\n        /* \"#utility.yul\":2345:2416   */\n    tag_158:\n        /* \"#utility.yul\":2284:2422   */\n      pop\n      jump\t// out\n        /* \"#utility.yul\":2428:2583   */\n    tag_107:\n        /* \"#utility.yul\":2482:2487   */\n      0x00\n        /* \"#utility.yul\":2520:2526   */\n      dup2\n        /* \"#utility.yul\":2507:2527   */\n      calldataload\n        /* \"#utility.yul\":2498:2527   */\n      swap1\n      pop\n        /* \"#utility.yul\":2536:2577   */\n      tag_160\n        /* \"#utility.yul\":2571:2576   */\n      dup2\n        /* \"#utility.yul\":2536:2577   */\n      tag_106\n      jump\t// in\n    tag_160:\n        /* \"#utility.yul\":2428:2583   */\n      swap3\n      swap2\n      pop\n      pop\n      jump\t// out\n        /* \"#utility.yul\":2589:2934   */\n    tag_18:\n        /* \"#utility.yul\":2656:2662   */\n      0x00\n        /* \"#utility.yul\":2705:2707   */\n      0x20\n        /* \"#utility.yul\":2693:2702   */\n      dup3\n        /* \"#utility.yul\":2684:2691   */\n      dup5\n        /* \"#utility.yul\":2680:2703   */\n      sub\n        /* \"#utility.yul\":2676:2708   */\n      slt\n        /* \"#utility.yul\":2673:2792   */\n      iszero\n      tag_162\n      jumpi\n        /* \"#utility.yul\":2711:2790   */\n      tag_163\n      tag_95\n      jump\t// in\n    tag_163:\n        /* \"#utility.yul\":2673:2792   */\n    tag_162:\n        /* \"#utility.yul\":2831:2832   */\n      0x00\n        /* \"#utility.yul\":2856:2917   */\n      tag_164\n        /* \"#utility.yul\":2909:2916   */\n      dup5\n        /* \"#utility.yul\":2900:2906   */\n      dup3\n        /* \"#utility.yul\":2889:2898   */\n      dup6\n        /* \"#utility.yul\":2885:2907   */\n      add\n        /* \"#utility.yul\":2856:2917   */\n      tag_107\n      jump\t// in\n    tag_164:\n        /* \"#utility.yul\":2846:2917   */\n      swap2\n      pop\n        /* \"#utility.yul\":2802:2927   */\n      pop\n        /* \"#utility.yul\":2589:2934   */\n      swap3\n      swap2\n      pop\n      pop\n      jump\t// out\n        /* \"#utility.yul\":2940:3030   */\n    tag_108:\n        /* \"#utility.yul\":2974:2981   */\n      0x00\n        /* \"#utility.yul\":3017:3022   */\n      dup2\n        /* \"#utility.yul\":3010:3023   */\n      iszero\n        /* \"#utility.yul\":3003:3024   */\n      iszero\n        /* \"#utility.yul\":2992:3024   */\n      swap1\n      pop\n        /* \"#utility.yul\":2940:3030   */\n      swap2\n      swap1\n      pop\n      jump\t// out\n        /* \"#utility.yul\":3036:3145   */\n    tag_109:\n        /* \"#utility.yul\":3117:3138   */\n      tag_167\n        /* \"#utility.yul\":3132:3137   */\n      dup2\n        /* \"#utility.yul\":3117:3138   */\n      tag_108\n      jump\t// in\n    tag_167:\n        /* \"#utility.yul\":3112:3115   */\n      dup3\n        /* \"#utility.yul\":3105:3139   */\n      mstore\n        /* \"#utility.yul\":3036:3145   */\n      pop\n      pop\n      jump\t// out\n        /* \"#utility.yul\":3151:3361   */\n    tag_21:\n        /* \"#utility.yul\":3238:3242   */\n      0x00\n        /* \"#utility.yul\":3276:3278   */\n      0x20\n        /* \"#utility.yul\":3265:3274   */\n      dup3\n        /* \"#utility.yul\":3261:3279   */\n      add\n        /* \"#utility.yul\":3253:3279   */\n      swap1\n      pop\n        /* \"#utility.yul\":3289:3354   */\n      tag_169\n        /* \"#utility.yul\":3351:3352   */\n      0x00\n        /* \"#utility.yul\":3340:3349   */\n      dup4\n        /* \"#utility.yul\":3336:3353   */\n      add\n        /* \"#utility.yul\":3327:3333   */\n      dup5\n        /* \"#utility.yul\":3289:3354   */\n      tag_109\n      jump\t// in\n    tag_169:\n        /* \"#utility.yul\":3151:3361   */\n      swap3\n      swap2\n      pop\n      pop\n      jump\t// out\n        /* \"#utility.yul\":3367:3483   */\n    tag_110:\n        /* \"#utility.yul\":3437:3458   */\n      tag_171\n        /* \"#utility.yul\":3452:3457   */\n      dup2\n        /* \"#utility.yul\":3437:3458   */\n      tag_108\n      jump\t// in\n    tag_171:\n        /* \"#utility.yul\":3430:3435   */\n      dup2\n        /* \"#utility.yul\":3427:3459   */\n      eq\n        /* \"#utility.yul\":3417:3477   */\n      tag_172\n      jumpi\n        /* \"#utility.yul\":3473:3474   */\n      0x00\n        /* \"#utility.yul\":3470:3471   */\n      dup1\n        /* \"#utility.yul\":3463:3475   */\n      revert\n        /* \"#utility.yul\":3417:3477   */\n    tag_172:\n        /* \"#utility.yul\":3367:3483   */\n      pop\n      jump\t// out\n        /* \"#utility.yul\":3489:3622   */\n    tag_111:\n        /* \"#utility.yul\":3532:3537   */\n      0x00\n        /* \"#utility.yul\":3570:3576   */\n      dup2\n        /* \"#utility.yul\":3557:3577   */\n      calldataload\n        /* \"#utility.yul\":3548:3577   */\n      swap1\n      pop\n        /* \"#utility.yul\":3586:3616   */\n      tag_174\n        /* \"#utility.yul\":3610:3615   */\n      dup2\n        /* \"#utility.yul\":3586:3616   */\n      tag_110\n      jump\t// in\n    tag_174:\n        /* \"#utility.yul\":3489:3622   */\n      swap3\n      swap2\n      pop\n      pop\n      jump\t// out\n        /* \"#utility.yul\":3628:4241   */\n    tag_25:\n        /* \"#utility.yul\":3702:3708   */\n      0x00\n        /* \"#utility.yul\":3710:3716   */\n      dup1\n        /* \"#utility.yul\":3718:3724   */\n      0x00\n        /* \"#utility.yul\":3767:3769   */\n      0x60\n        /* \"#utility.yul\":3755:3764   */\n      dup5\n        /* \"#utility.yul\":3746:3753   */\n      dup7\n        /* \"#utility.yul\":3742:3765   */\n      sub\n        /* \"#utility.yul\":3738:3770   */\n      slt\n        /* \"#utility.yul\":3735:3854   */\n      iszero\n      tag_176\n      jumpi\n        /* \"#utility.yul\":3773:3852   */\n      tag_177\n      tag_95\n      jump\t// in\n    tag_177:\n        /* \"#utility.yul\":3735:3854   */\n    tag_176:\n        /* \"#utility.yul\":3893:3894   */\n      0x00\n        /* \"#utility.yul\":3918:3971   */\n      tag_178\n        /* \"#utility.yul\":3963:3970   */\n      dup7\n        /* \"#utility.yul\":3954:3960   */\n      dup3\n        /* \"#utility.yul\":3943:3952   */\n      dup8\n        /* \"#utility.yul\":3939:3961   */\n      add\n        /* \"#utility.yul\":3918:3971   */\n      tag_103\n      jump\t// in\n    tag_178:\n        /* \"#utility.yul\":3908:3971   */\n      swap4\n      pop\n        /* \"#utility.yul\":3864:3981   */\n      pop\n        /* \"#utility.yul\":4020:4022   */\n      0x20\n        /* \"#utility.yul\":4046:4096   */\n      tag_179\n        /* \"#utility.yul\":4088:4095   */\n      dup7\n        /* \"#utility.yul\":4079:4085   */\n      dup3\n        /* \"#utility.yul\":4068:4077   */\n      dup8\n        /* \"#utility.yul\":4064:4086   */\n      add\n        /* \"#utility.yul\":4046:4096   */\n      tag_111\n      jump\t// in\n    tag_179:\n        /* \"#utility.yul\":4036:4096   */\n      swap3\n      pop\n        /* \"#utility.yul\":3991:4106   */\n      pop\n        /* \"#utility.yul\":4145:4147   */\n      0x40\n        /* \"#utility.yul\":4171:4224   */\n      tag_180\n        /* \"#utility.yul\":4216:4223   */\n      dup7\n        /* \"#utility.yul\":4207:4213   */\n      dup3\n        /* \"#utility.yul\":4196:4205   */\n      dup8\n        /* \"#utility.yul\":4192:4214   */\n      add\n        /* \"#utility.yul\":4171:4224   */\n      tag_100\n      jump\t// in\n    tag_180:\n        /* \"#utility.yul\":4161:4224   */\n      swap2\n      pop\n        /* \"#utility.yul\":4116:4234   */\n      pop\n        /* \"#utility.yul\":3628:4241   */\n      swap3\n      pop\n      swap3\n      pop\n      swap3\n      jump\t// out\n        /* \"#utility.yul\":4247:4390   */\n    tag_112:\n        /* \"#utility.yul\":4304:4309   */\n      0x00\n        /* \"#utility.yul\":4335:4341   */\n      dup2\n        /* \"#utility.yul\":4329:4342   */\n      mload\n        /* \"#utility.yul\":4320:4342   */\n      swap1\n      pop\n        /* \"#utility.yul\":4351:4384   */\n      tag_182\n        /* \"#utility.yul\":4378:4383   */\n      dup2\n        /* \"#utility.yul\":4351:4384   */\n      tag_102\n      jump\t// in\n    tag_182:\n        /* \"#utility.yul\":4247:4390   */\n      swap3\n      swap2\n      pop\n      pop\n      jump\t// out\n        /* \"#utility.yul\":4396:4747   */\n    tag_37:\n        /* \"#utility.yul\":4466:4472   */\n      0x00\n        /* \"#utility.yul\":4515:4517   */\n      0x20\n        /* \"#utility.yul\":4503:4512   */\n      dup3\n        /* \"#utility.yul\":4494:4501   */\n      dup5\n        /* \"#utility.yul\":4490:4513   */\n      sub\n        /* \"#utility.yul\":4486:4518   */\n      slt\n        /* \"#utility.yul\":4483:4602   */\n      iszero\n      tag_184\n      jumpi\n        /* \"#utility.yul\":4521:4600   */\n      tag_185\n      tag_95\n      jump\t// in\n    tag_185:\n        /* \"#utility.yul\":4483:4602   */\n    tag_184:\n        /* \"#utility.yul\":4641:4642   */\n      0x00\n        /* \"#utility.yul\":4666:4730   */\n      tag_186\n        /* \"#utility.yul\":4722:4729   */\n      dup5\n        /* \"#utility.yul\":4713:4719   */\n      dup3\n        /* \"#utility.yul\":4702:4711   */\n      dup6\n        /* \"#utility.yul\":4698:4720   */\n      add\n        /* \"#utility.yul\":4666:4730   */\n      tag_112\n      jump\t// in\n    tag_186:\n        /* \"#utility.yul\":4656:4730   */\n      swap2\n      pop\n        /* \"#utility.yul\":4612:4740   */\n      pop\n        /* \"#utility.yul\":4396:4747   */\n      swap3\n      swap2\n      pop\n      pop\n      jump\t// out\n        /* \"#utility.yul\":4753:4922   */\n    tag_113:\n        /* \"#utility.yul\":4837:4848   */\n      0x00\n        /* \"#utility.yul\":4871:4877   */\n      dup3\n        /* \"#utility.yul\":4866:4869   */\n      dup3\n        /* \"#utility.yul\":4859:4878   */\n      mstore\n        /* \"#utility.yul\":4911:4915   */\n      0x20\n        /* \"#utility.yul\":4906:4909   */\n      dup3\n        /* \"#utility.yul\":4902:4916   */\n      add\n        /* \"#utility.yul\":4887:4916   */\n      swap1\n      pop\n        /* \"#utility.yul\":4753:4922   */\n      swap3\n      swap2\n      pop\n      pop\n      jump\t// out\n        /* \"#utility.yul\":4928:5105   */\n    tag_114:\n        /* \"#utility.yul\":5068:5097   */\n      0x45786368616e6765205261746520287363616c6564207570293a200000000000\n        /* \"#utility.yul\":5064:5065   */\n      0x00\n        /* \"#utility.yul\":5056:5062   */\n      dup3\n        /* \"#utility.yul\":5052:5066   */\n      add\n        /* \"#utility.yul\":5045:5098   */\n      mstore\n        /* \"#utility.yul\":4928:5105   */\n      pop\n      jump\t// out\n        /* \"#utility.yul\":5111:5477   */\n    tag_115:\n        /* \"#utility.yul\":5253:5256   */\n      0x00\n        /* \"#utility.yul\":5274:5341   */\n      tag_190\n        /* \"#utility.yul\":5338:5340   */\n      0x1b\n        /* \"#utility.yul\":5333:5336   */\n      dup4\n        /* \"#utility.yul\":5274:5341   */\n      tag_113\n      jump\t// in\n    tag_190:\n        /* \"#utility.yul\":5267:5341   */\n      swap2\n      pop\n        /* \"#utility.yul\":5350:5443   */\n      tag_191\n        /* \"#utility.yul\":5439:5442   */\n      dup3\n        /* \"#utility.yul\":5350:5443   */\n      tag_114\n      jump\t// in\n    tag_191:\n        /* \"#utility.yul\":5468:5470   */\n      0x20\n        /* \"#utility.yul\":5463:5466   */\n      dup3\n        /* \"#utility.yul\":5459:5471   */\n      add\n        /* \"#utility.yul\":5452:5471   */\n      swap1\n      pop\n        /* \"#utility.yul\":5111:5477   */\n      swap2\n      swap1\n      pop\n      jump\t// out\n        /* \"#utility.yul\":5483:6012   */\n    tag_39:\n        /* \"#utility.yul\":5677:5681   */\n      0x00\n        /* \"#utility.yul\":5715:5717   */\n      0x40\n        /* \"#utility.yul\":5704:5713   */\n      dup3\n        /* \"#utility.yul\":5700:5718   */\n      add\n        /* \"#utility.yul\":5692:5718   */\n      swap1\n      pop\n        /* \"#utility.yul\":5764:5773   */\n      dup2\n        /* \"#utility.yul\":5758:5762   */\n      dup2\n        /* \"#utility.yul\":5754:5774   */\n      sub\n        /* \"#utility.yul\":5750:5751   */\n      0x00\n        /* \"#utility.yul\":5739:5748   */\n      dup4\n        /* \"#utility.yul\":5735:5752   */\n      add\n        /* \"#utility.yul\":5728:5775   */\n      mstore\n        /* \"#utility.yul\":5792:5923   */\n      tag_193\n        /* \"#utility.yul\":5918:5922   */\n      dup2\n        /* \"#utility.yul\":5792:5923   */\n      tag_115\n      jump\t// in\n    tag_193:\n        /* \"#utility.yul\":5784:5923   */\n      swap1\n      pop\n        /* \"#utility.yul\":5933:6005   */\n      tag_194\n        /* \"#utility.yul\":6001:6003   */\n      0x20\n        /* \"#utility.yul\":5990:5999   */\n      dup4\n        /* \"#utility.yul\":5986:6004   */\n      add\n        /* \"#utility.yul\":5977:5983   */\n      dup5\n        /* \"#utility.yul\":5933:6005   */\n      tag_104\n      jump\t// in\n    tag_194:\n        /* \"#utility.yul\":5483:6012   */\n      swap3\n      swap2\n      pop\n      pop\n      jump\t// out\n        /* \"#utility.yul\":6018:6192   */\n    tag_116:\n        /* \"#utility.yul\":6158:6184   */\n      0x537570706c7920526174653a20287363616c6564207570290000000000000000\n        /* \"#utility.yul\":6154:6155   */\n      0x00\n        /* \"#utility.yul\":6146:6152   */\n      dup3\n        /* \"#utility.yul\":6142:6156   */\n      add\n        /* \"#utility.yul\":6135:6185   */\n      mstore\n        /* \"#utility.yul\":6018:6192   */\n      pop\n      jump\t// out\n        /* \"#utility.yul\":6198:6564   */\n    tag_117:\n        /* \"#utility.yul\":6340:6343   */\n      0x00\n        /* \"#utility.yul\":6361:6428   */\n      tag_197\n        /* \"#utility.yul\":6425:6427   */\n      0x18\n        /* \"#utility.yul\":6420:6423   */\n      dup4\n        /* \"#utility.yul\":6361:6428   */\n      tag_113\n      jump\t// in\n    tag_197:\n        /* \"#utility.yul\":6354:6428   */\n      swap2\n      pop\n        /* \"#utility.yul\":6437:6530   */\n      tag_198\n        /* \"#utility.yul\":6526:6529   */\n      dup3\n        /* \"#utility.yul\":6437:6530   */\n      tag_116\n      jump\t// in\n    tag_198:\n        /* \"#utility.yul\":6555:6557   */\n      0x20\n        /* \"#utility.yul\":6550:6553   */\n      dup3\n        /* \"#utility.yul\":6546:6558   */\n      add\n        /* \"#utility.yul\":6539:6558   */\n      swap1\n      pop\n        /* \"#utility.yul\":6198:6564   */\n      swap2\n      swap1\n      pop\n      jump\t// out\n        /* \"#utility.yul\":6570:7099   */\n    tag_44:\n        /* \"#utility.yul\":6764:6768   */\n      0x00\n        /* \"#utility.yul\":6802:6804   */\n      0x40\n        /* \"#utility.yul\":6791:6800   */\n      dup3\n        /* \"#utility.yul\":6787:6805   */\n      add\n        /* \"#utility.yul\":6779:6805   */\n      swap1\n      pop\n        /* \"#utility.yul\":6851:6860   */\n      dup2\n        /* \"#utility.yul\":6845:6849   */\n      dup2\n        /* \"#utility.yul\":6841:6861   */\n      sub\n        /* \"#utility.yul\":6837:6838   */\n      0x00\n        /* \"#utility.yul\":6826:6835   */\n      dup4\n        /* \"#utility.yul\":6822:6839   */\n      add\n        /* \"#utility.yul\":6815:6862   */\n      mstore\n        /* \"#utility.yul\":6879:7010   */\n      tag_200\n        /* \"#utility.yul\":7005:7009   */\n      dup2\n        /* \"#utility.yul\":6879:7010   */\n      tag_117\n      jump\t// in\n    tag_200:\n        /* \"#utility.yul\":6871:7010   */\n      swap1\n      pop\n        /* \"#utility.yul\":7020:7092   */\n      tag_201\n        /* \"#utility.yul\":7088:7090   */\n      0x20\n        /* \"#utility.yul\":7077:7086   */\n      dup4\n        /* \"#utility.yul\":7073:7091   */\n      add\n        /* \"#utility.yul\":7064:7070   */\n      dup5\n        /* \"#utility.yul\":7020:7092   */\n      tag_104\n      jump\t// in\n    tag_201:\n        /* \"#utility.yul\":6570:7099   */\n      swap3\n      swap2\n      pop\n      pop\n      jump\t// out\n        /* \"#utility.yul\":7105:7223   */\n    tag_118:\n        /* \"#utility.yul\":7192:7216   */\n      tag_203\n        /* \"#utility.yul\":7210:7215   */\n      dup2\n        /* \"#utility.yul\":7192:7216   */\n      tag_98\n      jump\t// in\n    tag_203:\n        /* \"#utility.yul\":7187:7190   */\n      dup3\n        /* \"#utility.yul\":7180:7217   */\n      mstore\n        /* \"#utility.yul\":7105:7223   */\n      pop\n      pop\n      jump\t// out\n        /* \"#utility.yul\":7229:7561   */\n    tag_46:\n        /* \"#utility.yul\":7350:7354   */\n      0x00\n        /* \"#utility.yul\":7388:7390   */\n      0x40\n        /* \"#utility.yul\":7377:7386   */\n      dup3\n        /* \"#utility.yul\":7373:7391   */\n      add\n        /* \"#utility.yul\":7365:7391   */\n      swap1\n      pop\n        /* \"#utility.yul\":7401:7472   */\n      tag_205\n        /* \"#utility.yul\":7469:7470   */\n      0x00\n        /* \"#utility.yul\":7458:7467   */\n      dup4\n        /* \"#utility.yul\":7454:7471   */\n      add\n        /* \"#utility.yul\":7445:7451   */\n      dup6\n        /* \"#utility.yul\":7401:7472   */\n      tag_118\n      jump\t// in\n    tag_205:\n        /* \"#utility.yul\":7482:7554   */\n      tag_206\n        /* \"#utility.yul\":7550:7552   */\n      0x20\n        /* \"#utility.yul\":7539:7548   */\n      dup4\n        /* \"#utility.yul\":7535:7553   */\n      add\n        /* \"#utility.yul\":7526:7532   */\n      dup5\n        /* \"#utility.yul\":7482:7554   */\n      tag_104\n      jump\t// in\n    tag_206:\n        /* \"#utility.yul\":7229:7561   */\n      swap4\n      swap3\n      pop\n      pop\n      pop\n      jump\t// out\n        /* \"#utility.yul\":7567:7704   */\n    tag_119:\n        /* \"#utility.yul\":7621:7626   */\n      0x00\n        /* \"#utility.yul\":7652:7658   */\n      dup2\n        /* \"#utility.yul\":7646:7659   */\n      mload\n        /* \"#utility.yul\":7637:7659   */\n      swap1\n      pop\n        /* \"#utility.yul\":7668:7698   */\n      tag_208\n        /* \"#utility.yul\":7692:7697   */\n      dup2\n        /* \"#utility.yul\":7668:7698   */\n      tag_110\n      jump\t// in\n    tag_208:\n        /* \"#utility.yul\":7567:7704   */\n      swap3\n      swap2\n      pop\n      pop\n      jump\t// out\n        /* \"#utility.yul\":7710:8055   */\n    tag_50:\n        /* \"#utility.yul\":7777:7783   */\n      0x00\n        /* \"#utility.yul\":7826:7828   */\n      0x20\n        /* \"#utility.yul\":7814:7823   */\n      dup3\n        /* \"#utility.yul\":7805:7812   */\n      dup5\n        /* \"#utility.yul\":7801:7824   */\n      sub\n        /* \"#utility.yul\":7797:7829   */\n      slt\n        /* \"#utility.yul\":7794:7913   */\n      iszero\n      tag_210\n      jumpi\n        /* \"#utility.yul\":7832:7911   */\n      tag_211\n      tag_95\n      jump\t// in\n    tag_211:\n        /* \"#utility.yul\":7794:7913   */\n    tag_210:\n        /* \"#utility.yul\":7952:7953   */\n      0x00\n        /* \"#utility.yul\":7977:8038   */\n      tag_212\n        /* \"#utility.yul\":8030:8037   */\n      dup5\n        /* \"#utility.yul\":8021:8027   */\n      dup3\n        /* \"#utility.yul\":8010:8019   */\n      dup6\n        /* \"#utility.yul\":8006:8028   */\n      add\n        /* \"#utility.yul\":7977:8038   */\n      tag_119\n      jump\t// in\n    tag_212:\n        /* \"#utility.yul\":7967:8038   */\n      swap2\n      pop\n        /* \"#utility.yul\":7923:8048   */\n      pop\n        /* \"#utility.yul\":7710:8055   */\n      swap3\n      swap2\n      pop\n      pop\n      jump\t// out\n        /* \"#utility.yul\":8061:8283   */\n    tag_120:\n        /* \"#utility.yul\":8201:8235   */\n      0x45786368616e6765205261746520287363616c65642075702062792031653138\n        /* \"#utility.yul\":8197:8198   */\n      0x00\n        /* \"#utility.yul\":8189:8195   */\n      dup3\n        /* \"#utility.yul\":8185:8199   */\n      add\n        /* \"#utility.yul\":8178:8236   */\n      mstore\n        /* \"#utility.yul\":8270:8275   */\n      0x293a200000000000000000000000000000000000000000000000000000000000\n        /* \"#utility.yul\":8265:8267   */\n      0x20\n        /* \"#utility.yul\":8257:8263   */\n      dup3\n        /* \"#utility.yul\":8253:8268   */\n      add\n        /* \"#utility.yul\":8246:8276   */\n      mstore\n        /* \"#utility.yul\":8061:8283   */\n      pop\n      jump\t// out\n        /* \"#utility.yul\":8289:8655   */\n    tag_121:\n        /* \"#utility.yul\":8431:8434   */\n      0x00\n        /* \"#utility.yul\":8452:8519   */\n      tag_215\n        /* \"#utility.yul\":8516:8518   */\n      0x23\n        /* \"#utility.yul\":8511:8514   */\n      dup4\n        /* \"#utility.yul\":8452:8519   */\n      tag_113\n      jump\t// in\n    tag_215:\n        /* \"#utility.yul\":8445:8519   */\n      swap2\n      pop\n        /* \"#utility.yul\":8528:8621   */\n      tag_216\n        /* \"#utility.yul\":8617:8620   */\n      dup3\n        /* \"#utility.yul\":8528:8621   */\n      tag_120\n      jump\t// in\n    tag_216:\n        /* \"#utility.yul\":8646:8648   */\n      0x40\n        /* \"#utility.yul\":8641:8644   */\n      dup3\n        /* \"#utility.yul\":8637:8649   */\n      add\n        /* \"#utility.yul\":8630:8649   */\n      swap1\n      pop\n        /* \"#utility.yul\":8289:8655   */\n      swap2\n      swap1\n      pop\n      jump\t// out\n        /* \"#utility.yul\":8661:9190   */\n    tag_60:\n        /* \"#utility.yul\":8855:8859   */\n      0x00\n        /* \"#utility.yul\":8893:8895   */\n      0x40\n        /* \"#utility.yul\":8882:8891   */\n      dup3\n        /* \"#utility.yul\":8878:8896   */\n      add\n        /* \"#utility.yul\":8870:8896   */\n      swap1\n      pop\n        /* \"#utility.yul\":8942:8951   */\n      dup2\n        /* \"#utility.yul\":8936:8940   */\n      dup2\n        /* \"#utility.yul\":8932:8952   */\n      sub\n        /* \"#utility.yul\":8928:8929   */\n      0x00\n        /* \"#utility.yul\":8917:8926   */\n      dup4\n        /* \"#utility.yul\":8913:8930   */\n      add\n        /* \"#utility.yul\":8906:8953   */\n      mstore\n        /* \"#utility.yul\":8970:9101   */\n      tag_218\n        /* \"#utility.yul\":9096:9100   */\n      dup2\n        /* \"#utility.yul\":8970:9101   */\n      tag_121\n      jump\t// in\n    tag_218:\n        /* \"#utility.yul\":8962:9101   */\n      swap1\n      pop\n        /* \"#utility.yul\":9111:9183   */\n      tag_219\n        /* \"#utility.yul\":9179:9181   */\n      0x20\n        /* \"#utility.yul\":9168:9177   */\n      dup4\n        /* \"#utility.yul\":9164:9182   */\n      add\n        /* \"#utility.yul\":9155:9161   */\n      dup5\n        /* \"#utility.yul\":9111:9183   */\n      tag_104\n      jump\t// in\n    tag_219:\n        /* \"#utility.yul\":8661:9190   */\n      swap3\n      swap2\n      pop\n      pop\n      jump\t// out\n        /* \"#utility.yul\":9196:9378   */\n    tag_122:\n        /* \"#utility.yul\":9336:9370   */\n      0x537570706c7920526174653a20287363616c6564207570206279203165313829\n        /* \"#utility.yul\":9332:9333   */\n      0x00\n        /* \"#utility.yul\":9324:9330   */\n      dup3\n        /* \"#utility.yul\":9320:9334   */\n      add\n        /* \"#utility.yul\":9313:9371   */\n      mstore\n        /* \"#utility.yul\":9196:9378   */\n      pop\n      jump\t// out\n        /* \"#utility.yul\":9384:9750   */\n    tag_123:\n        /* \"#utility.yul\":9526:9529   */\n      0x00\n        /* \"#utility.yul\":9547:9614   */\n      tag_222\n        /* \"#utility.yul\":9611:9613   */\n      0x20\n        /* \"#utility.yul\":9606:9609   */\n      dup4\n        /* \"#utility.yul\":9547:9614   */\n      tag_113\n      jump\t// in\n    tag_222:\n        /* \"#utility.yul\":9540:9614   */\n      swap2\n      pop\n        /* \"#utility.yul\":9623:9716   */\n      tag_223\n        /* \"#utility.yul\":9712:9715   */\n      dup3\n        /* \"#utility.yul\":9623:9716   */\n      tag_122\n      jump\t// in\n    tag_223:\n        /* \"#utility.yul\":9741:9743   */\n      0x20\n        /* \"#utility.yul\":9736:9739   */\n      dup3\n        /* \"#utility.yul\":9732:9744   */\n      add\n        /* \"#utility.yul\":9725:9744   */\n      swap1\n      pop\n        /* \"#utility.yul\":9384:9750   */\n      swap2\n      swap1\n      pop\n      jump\t// out\n        /* \"#utility.yul\":9756:10285   */\n    tag_65:\n        /* \"#utility.yul\":9950:9954   */\n      0x00\n        /* \"#utility.yul\":9988:9990   */\n      0x40\n        /* \"#utility.yul\":9977:9986   */\n      dup3\n        /* \"#utility.yul\":9973:9991   */\n      add\n        /* \"#utility.yul\":9965:9991   */\n      swap1\n      pop\n        /* \"#utility.yul\":10037:10046   */\n      dup2\n        /* \"#utility.yul\":10031:10035   */\n      dup2\n        /* \"#utility.yul\":10027:10047   */\n      sub\n        /* \"#utility.yul\":10023:10024   */\n      0x00\n        /* \"#utility.yul\":10012:10021   */\n      dup4\n        /* \"#utility.yul\":10008:10025   */\n      add\n        /* \"#utility.yul\":10001:10048   */\n      mstore\n        /* \"#utility.yul\":10065:10196   */\n      tag_225\n        /* \"#utility.yul\":10191:10195   */\n      dup2\n        /* \"#utility.yul\":10065:10196   */\n      tag_123\n      jump\t// in\n    tag_225:\n        /* \"#utility.yul\":10057:10196   */\n      swap1\n      pop\n        /* \"#utility.yul\":10206:10278   */\n      tag_226\n        /* \"#utility.yul\":10274:10276   */\n      0x20\n        /* \"#utility.yul\":10263:10272   */\n      dup4\n        /* \"#utility.yul\":10259:10277   */\n      add\n        /* \"#utility.yul\":10250:10256   */\n      dup5\n        /* \"#utility.yul\":10206:10278   */\n      tag_104\n      jump\t// in\n    tag_226:\n        /* \"#utility.yul\":9756:10285   */\n      swap3\n      swap2\n      pop\n      pop\n      jump\t// out\n        /* \"#utility.yul\":10291:10514   */\n    tag_124:\n        /* \"#utility.yul\":10431:10465   */\n      0x49662074686973206973206e6f7420302c2074686572652077617320616e2065\n        /* \"#utility.yul\":10427:10428   */\n      0x00\n        /* \"#utility.yul\":10419:10425   */\n      dup3\n        /* \"#utility.yul\":10415:10429   */\n      add\n        /* \"#utility.yul\":10408:10466   */\n      mstore\n        /* \"#utility.yul\":10500:10506   */\n      0x72726f7200000000000000000000000000000000000000000000000000000000\n        /* \"#utility.yul\":10495:10497   */\n      0x20\n        /* \"#utility.yul\":10487:10493   */\n      dup3\n        /* \"#utility.yul\":10483:10498   */\n      add\n        /* \"#utility.yul\":10476:10507   */\n      mstore\n        /* \"#utility.yul\":10291:10514   */\n      pop\n      jump\t// out\n        /* \"#utility.yul\":10520:10886   */\n    tag_125:\n        /* \"#utility.yul\":10662:10665   */\n      0x00\n        /* \"#utility.yul\":10683:10750   */\n      tag_229\n        /* \"#utility.yul\":10747:10749   */\n      0x24\n        /* \"#utility.yul\":10742:10745   */\n      dup4\n        /* \"#utility.yul\":10683:10750   */\n      tag_113\n      jump\t// in\n    tag_229:\n        /* \"#utility.yul\":10676:10750   */\n      swap2\n      pop\n        /* \"#utility.yul\":10759:10852   */\n      tag_230\n        /* \"#utility.yul\":10848:10851   */\n      dup3\n        /* \"#utility.yul\":10759:10852   */\n      tag_124\n      jump\t// in\n    tag_230:\n        /* \"#utility.yul\":10877:10879   */\n      0x40\n        /* \"#utility.yul\":10872:10875   */\n      dup3\n        /* \"#utility.yul\":10868:10880   */\n      add\n        /* \"#utility.yul\":10861:10880   */\n      swap1\n      pop\n        /* \"#utility.yul\":10520:10886   */\n      swap2\n      swap1\n      pop\n      jump\t// out\n        /* \"#utility.yul\":10892:11421   */\n    tag_81:\n        /* \"#utility.yul\":11086:11090   */\n      0x00\n        /* \"#utility.yul\":11124:11126   */\n      0x40\n        /* \"#utility.yul\":11113:11122   */\n      dup3\n        /* \"#utility.yul\":11109:11127   */\n      add\n        /* \"#utility.yul\":11101:11127   */\n      swap1\n      pop\n        /* \"#utility.yul\":11173:11182   */\n      dup2\n        /* \"#utility.yul\":11167:11171   */\n      dup2\n        /* \"#utility.yul\":11163:11183   */\n      sub\n        /* \"#utility.yul\":11159:11160   */\n      0x00\n        /* \"#utility.yul\":11148:11157   */\n      dup4\n        /* \"#utility.yul\":11144:11161   */\n      add\n        /* \"#utility.yul\":11137:11184   */\n      mstore\n        /* \"#utility.yul\":11201:11332   */\n      tag_232\n        /* \"#utility.yul\":11327:11331   */\n      dup2\n        /* \"#utility.yul\":11201:11332   */\n      tag_125\n      jump\t// in\n    tag_232:\n        /* \"#utility.yul\":11193:11332   */\n      swap1\n      pop\n        /* \"#utility.yul\":11342:11414   */\n      tag_233\n        /* \"#utility.yul\":11410:11412   */\n      0x20\n        /* \"#utility.yul\":11399:11408   */\n      dup4\n        /* \"#utility.yul\":11395:11413   */\n      add\n        /* \"#utility.yul\":11386:11392   */\n      dup5\n        /* \"#utility.yul\":11342:11414   */\n      tag_104\n      jump\t// in\n    tag_233:\n        /* \"#utility.yul\":10892:11421   */\n      swap3\n      swap2\n      pop\n      pop\n      jump\t// out\n\n    auxdata: 0xa2646970667358221220ada7b80dba794f5d32c65f464503b2d9bfdeeb04c4cae6795853a076611aa60164736f6c63430008150033\n}\n",
				"bytecode": {
					"linkReferences": {},
					"object": "608060405234801561001057600080fd5b50610e13806100206000396000f3fe6080604052600436106100435760003560e01c80633b7ba25f1461004f578063a82ffd881461008c578063c6fb5014146100bc578063d0ace48e146100f95761004a565b3661004a57005b600080fd5b34801561005b57600080fd5b50610076600480360381019061007191906108c5565b610136565b6040516100839190610927565b60405180910390f35b6100a660048036038101906100a19190610980565b6103a7565b6040516100b391906109c8565b60405180910390f35b3480156100c857600080fd5b506100e360048036038101906100de9190610a0f565b610578565b6040516100f091906109c8565b60405180910390f35b34801561010557600080fd5b50610120600480360381019061011b9190610a0f565b6106d2565b60405161012d91906109c8565b60405180910390f35b600080849050600084905060008173ffffffffffffffffffffffffffffffffffffffff1663bd6d894d6040518163ffffffff1660e01b81526004016020604051808303816000875af1158015610190573d6000803e3d6000fd5b505050506040513d601f19601f820116820180604052508101906101b49190610a77565b90507f8d1cced004452bd270777a8c670f9f7e7c4fdde56f2db331fe289d39dc2624ad816040516101e59190610b01565b60405180910390a160008273ffffffffffffffffffffffffffffffffffffffff1663ae9d70b06040518163ffffffff1660e01b81526004016020604051808303816000875af115801561023c573d6000803e3d6000fd5b505050506040513d601f19601f820116820180604052508101906102609190610a77565b90507f8d1cced004452bd270777a8c670f9f7e7c4fdde56f2db331fe289d39dc2624ad816040516102919190610b7b565b60405180910390a18373ffffffffffffffffffffffffffffffffffffffff1663095ea7b388886040518363ffffffff1660e01b81526004016102d4929190610bb8565b6020604051808303816000875af11580156102f3573d6000803e3d6000fd5b505050506040513d601f19601f820116820180604052508101906103179190610bf6565b5060008373ffffffffffffffffffffffffffffffffffffffff1663a0712d68886040518263ffffffff1660e01b81526004016103539190610927565b6020604051808303816000875af1158015610372573d6000803e3d6000fd5b505050506040513d601f19601f820116820180604052508101906103969190610a77565b905080955050505050509392505050565b60008082905060008173ffffffffffffffffffffffffffffffffffffffff1663bd6d894d6040518163ffffffff1660e01b81526004016020604051808303816000875af11580156103fc573d6000803e3d6000fd5b505050506040513d601f19601f820116820180604052508101906104209190610a77565b90507f8d1cced004452bd270777a8c670f9f7e7c4fdde56f2db331fe289d39dc2624ad816040516104519190610c95565b60405180910390a160008273ffffffffffffffffffffffffffffffffffffffff1663ae9d70b06040518163ffffffff1660e01b81526004016020604051808303816000875af11580156104a8573d6000803e3d6000fd5b505050506040513d601f19601f820116820180604052508101906104cc9190610a77565b90507f8d1cced004452bd270777a8c670f9f7e7c4fdde56f2db331fe289d39dc2624ad816040516104fd9190610d0f565b60405180910390a18273ffffffffffffffffffffffffffffffffffffffff16631249c58b346203d090906040518363ffffffff1660e01b81526004016000604051808303818589803b15801561055257600080fd5b5088f1158015610566573d6000803e3d6000fd5b50505050505060019350505050919050565b6000808290506000600115158515150361060f578173ffffffffffffffffffffffffffffffffffffffff1663db006a75876040518263ffffffff1660e01b81526004016105c59190610927565b6020604051808303816000875af11580156105e4573d6000803e3d6000fd5b505050506040513d601f19601f820116820180604052508101906106089190610a77565b905061068e565b8173ffffffffffffffffffffffffffffffffffffffff1663852a12e3876040518263ffffffff1660e01b81526004016106489190610927565b6020604051808303816000875af1158015610667573d6000803e3d6000fd5b505050506040513d601f19601f8201168201806040525081019061068b9190610a77565b90505b7f8d1cced004452bd270777a8c670f9f7e7c4fdde56f2db331fe289d39dc2624ad816040516106bd9190610daf565b60405180910390a16001925050509392505050565b60008082905060006001151585151503610769578173ffffffffffffffffffffffffffffffffffffffff1663db006a75876040518263ffffffff1660e01b815260040161071f9190610927565b6020604051808303816000875af115801561073e573d6000803e3d6000fd5b505050506040513d601f19601f820116820180604052508101906107629190610a77565b90506107e8565b8173ffffffffffffffffffffffffffffffffffffffff1663852a12e3876040518263ffffffff1660e01b81526004016107a29190610927565b6020604051808303816000875af11580156107c1573d6000803e3d6000fd5b505050506040513d601f19601f820116820180604052508101906107e59190610a77565b90505b7f8d1cced004452bd270777a8c670f9f7e7c4fdde56f2db331fe289d39dc2624ad816040516108179190610daf565b60405180910390a16001925050509392505050565b600080fd5b600073ffffffffffffffffffffffffffffffffffffffff82169050919050565b600061085c82610831565b9050919050565b61086c81610851565b811461087757600080fd5b50565b60008135905061088981610863565b92915050565b6000819050919050565b6108a28161088f565b81146108ad57600080fd5b50565b6000813590506108bf81610899565b92915050565b6000806000606084860312156108de576108dd61082c565b5b60006108ec8682870161087a565b93505060206108fd8682870161087a565b925050604061090e868287016108b0565b9150509250925092565b6109218161088f565b82525050565b600060208201905061093c6000830184610918565b92915050565b600061094d82610831565b9050919050565b61095d81610942565b811461096857600080fd5b50565b60008135905061097a81610954565b92915050565b6000602082840312156109965761099561082c565b5b60006109a48482850161096b565b91505092915050565b60008115159050919050565b6109c2816109ad565b82525050565b60006020820190506109dd60008301846109b9565b92915050565b6109ec816109ad565b81146109f757600080fd5b50565b600081359050610a09816109e3565b92915050565b600080600060608486031215610a2857610a2761082c565b5b6000610a36868287016108b0565b9350506020610a47868287016109fa565b9250506040610a588682870161087a565b9150509250925092565b600081519050610a7181610899565b92915050565b600060208284031215610a8d57610a8c61082c565b5b6000610a9b84828501610a62565b91505092915050565b600082825260208201905092915050565b7f45786368616e6765205261746520287363616c6564207570293a200000000000600082015250565b6000610aeb601b83610aa4565b9150610af682610ab5565b602082019050919050565b60006040820190508181036000830152610b1a81610ade565b9050610b296020830184610918565b92915050565b7f537570706c7920526174653a20287363616c6564207570290000000000000000600082015250565b6000610b65601883610aa4565b9150610b7082610b2f565b602082019050919050565b60006040820190508181036000830152610b9481610b58565b9050610ba36020830184610918565b92915050565b610bb281610851565b82525050565b6000604082019050610bcd6000830185610ba9565b610bda6020830184610918565b9392505050565b600081519050610bf0816109e3565b92915050565b600060208284031215610c0c57610c0b61082c565b5b6000610c1a84828501610be1565b91505092915050565b7f45786368616e6765205261746520287363616c6564207570206279203165313860008201527f293a200000000000000000000000000000000000000000000000000000000000602082015250565b6000610c7f602383610aa4565b9150610c8a82610c23565b604082019050919050565b60006040820190508181036000830152610cae81610c72565b9050610cbd6020830184610918565b92915050565b7f537570706c7920526174653a20287363616c6564207570206279203165313829600082015250565b6000610cf9602083610aa4565b9150610d0482610cc3565b602082019050919050565b60006040820190508181036000830152610d2881610cec565b9050610d376020830184610918565b92915050565b7f49662074686973206973206e6f7420302c2074686572652077617320616e206560008201527f72726f7200000000000000000000000000000000000000000000000000000000602082015250565b6000610d99602483610aa4565b9150610da482610d3d565b604082019050919050565b60006040820190508181036000830152610dc881610d8c565b9050610dd76020830184610918565b9291505056fea2646970667358221220ada7b80dba794f5d32c65f464503b2d9bfdeeb04c4cae6795853a076611aa60164736f6c63430008150033",
					"opcodes": "PUSH1 0x80 PUSH1 0x40 MSTORE CALLVALUE DUP1 ISZERO PUSH2 0x10 JUMPI PUSH1 0x0 DUP1 REVERT JUMPDEST POP PUSH2 0xE13 DUP1 PUSH2 0x20 PUSH1 0x0 CODECOPY PUSH1 0x0 RETURN INVALID PUSH1 0x80 PUSH1 0x40 MSTORE PUSH1 0x4 CALLDATASIZE LT PUSH2 0x43 JUMPI PUSH1 0x0 CALLDATALOAD PUSH1 0xE0 SHR DUP1 PUSH4 0x3B7BA25F EQ PUSH2 0x4F JUMPI DUP1 PUSH4 0xA82FFD88 EQ PUSH2 0x8C JUMPI DUP1 PUSH4 0xC6FB5014 EQ PUSH2 0xBC JUMPI DUP1 PUSH4 0xD0ACE48E EQ PUSH2 0xF9 JUMPI PUSH2 0x4A JUMP JUMPDEST CALLDATASIZE PUSH2 0x4A JUMPI STOP JUMPDEST PUSH1 0x0 DUP1 REVERT JUMPDEST CALLVALUE DUP1 ISZERO PUSH2 0x5B JUMPI PUSH1 0x0 DUP1 REVERT JUMPDEST POP PUSH2 0x76 PUSH1 0x4 DUP1 CALLDATASIZE SUB DUP2 ADD SWAP1 PUSH2 0x71 SWAP2 SWAP1 PUSH2 0x8C5 JUMP JUMPDEST PUSH2 0x136 JUMP JUMPDEST PUSH1 0x40 MLOAD PUSH2 0x83 SWAP2 SWAP1 PUSH2 0x927 JUMP JUMPDEST PUSH1 0x40 MLOAD DUP1 SWAP2 SUB SWAP1 RETURN JUMPDEST PUSH2 0xA6 PUSH1 0x4 DUP1 CALLDATASIZE SUB DUP2 ADD SWAP1 PUSH2 0xA1 SWAP2 SWAP1 PUSH2 0x980 JUMP JUMPDEST PUSH2 0x3A7 JUMP JUMPDEST PUSH1 0x40 MLOAD PUSH2 0xB3 SWAP2 SWAP1 PUSH2 0x9C8 JUMP JUMPDEST PUSH1 0x40 MLOAD DUP1 SWAP2 SUB SWAP1 RETURN JUMPDEST CALLVALUE DUP1 ISZERO PUSH2 0xC8 JUMPI PUSH1 0x0 DUP1 REVERT JUMPDEST POP PUSH2 0xE3 PUSH1 0x4 DUP1 CALLDATASIZE SUB DUP2 ADD SWAP1 PUSH2 0xDE SWAP2 SWAP1 PUSH2 0xA0F JUMP JUMPDEST PUSH2 0x578 JUMP JUMPDEST PUSH1 0x40 MLOAD PUSH2 0xF0 SWAP2 SWAP1 PUSH2 0x9C8 JUMP JUMPDEST PUSH1 0x40 MLOAD DUP1 SWAP2 SUB SWAP1 RETURN JUMPDEST CALLVALUE DUP1 ISZERO PUSH2 0x105 JUMPI PUSH1 0x0 DUP1 REVERT JUMPDEST POP PUSH2 0x120 PUSH1 0x4 DUP1 CALLDATASIZE SUB DUP2 ADD SWAP1 PUSH2 0x11B SWAP2 SWAP1 PUSH2 0xA0F JUMP JUMPDEST PUSH2 0x6D2 JUMP JUMPDEST PUSH1 0x40 MLOAD PUSH2 0x12D SWAP2 SWAP1 PUSH2 0x9C8 JUMP JUMPDEST PUSH1 0x40 MLOAD DUP1 SWAP2 SUB SWAP1 RETURN JUMPDEST PUSH1 0x0 DUP1 DUP5 SWAP1 POP PUSH1 0x0 DUP5 SWAP1 POP PUSH1 0x0 DUP2 PUSH20 0xFFFFFFFFFFFFFFFFFFFFFFFFFFFFFFFFFFFFFFFF AND PUSH4 0xBD6D894D PUSH1 0x40 MLOAD DUP2 PUSH4 0xFFFFFFFF AND PUSH1 0xE0 SHL DUP2 MSTORE PUSH1 0x4 ADD PUSH1 0x20 PUSH1 0x40 MLOAD DUP1 DUP4 SUB DUP2 PUSH1 0x0 DUP8 GAS CALL ISZERO DUP1 ISZERO PUSH2 0x190 JUMPI RETURNDATASIZE PUSH1 0x0 DUP1 RETURNDATACOPY RETURNDATASIZE PUSH1 0x0 REVERT JUMPDEST POP POP POP POP PUSH1 0x40 MLOAD RETURNDATASIZE PUSH1 0x1F NOT PUSH1 0x1F DUP3 ADD AND DUP3 ADD DUP1 PUSH1 0x40 MSTORE POP DUP2 ADD SWAP1 PUSH2 0x1B4 SWAP2 SWAP1 PUSH2 0xA77 JUMP JUMPDEST SWAP1 POP PUSH32 0x8D1CCED004452BD270777A8C670F9F7E7C4FDDE56F2DB331FE289D39DC2624AD DUP2 PUSH1 0x40 MLOAD PUSH2 0x1E5 SWAP2 SWAP1 PUSH2 0xB01 JUMP JUMPDEST PUSH1 0x40 MLOAD DUP1 SWAP2 SUB SWAP1 LOG1 PUSH1 0x0 DUP3 PUSH20 0xFFFFFFFFFFFFFFFFFFFFFFFFFFFFFFFFFFFFFFFF AND PUSH4 0xAE9D70B0 PUSH1 0x40 MLOAD DUP2 PUSH4 0xFFFFFFFF AND PUSH1 0xE0 SHL DUP2 MSTORE PUSH1 0x4 ADD PUSH1 0x20 PUSH1 0x40 MLOAD DUP1 DUP4 SUB DUP2 PUSH1 0x0 DUP8 GAS CALL ISZERO DUP1 ISZERO PUSH2 0x23C JUMPI RETURNDATASIZE PUSH1 0x0 DUP1 RETURNDATACOPY RETURNDATASIZE PUSH1 0x0 REVERT JUMPDEST POP POP POP POP PUSH1 0x40 MLOAD RETURNDATASIZE PUSH1 0x1F NOT PUSH1 0x1F DUP3 ADD AND DUP3 ADD DUP1 PUSH1 0x40 MSTORE POP DUP2 ADD SWAP1 PUSH2 0x260 SWAP2 SWAP1 PUSH2 0xA77 JUMP JUMPDEST SWAP1 POP PUSH32 0x8D1CCED004452BD270777A8C670F9F7E7C4FDDE56F2DB331FE289D39DC2624AD DUP2 PUSH1 0x40 MLOAD PUSH2 0x291 SWAP2 SWAP1 PUSH2 0xB7B JUMP JUMPDEST PUSH1 0x40 MLOAD DUP1 SWAP2 SUB SWAP1 LOG1 DUP4 PUSH20 0xFFFFFFFFFFFFFFFFFFFFFFFFFFFFFFFFFFFFFFFF AND PUSH4 0x95EA7B3 DUP9 DUP9 PUSH1 0x40 MLOAD DUP4 PUSH4 0xFFFFFFFF AND PUSH1 0xE0 SHL DUP2 MSTORE PUSH1 0x4 ADD PUSH2 0x2D4 SWAP3 SWAP2 SWAP1 PUSH2 0xBB8 JUMP JUMPDEST PUSH1 0x20 PUSH1 0x40 MLOAD DUP1 DUP4 SUB DUP2 PUSH1 0x0 DUP8 GAS CALL ISZERO DUP1 ISZERO PUSH2 0x2F3 JUMPI RETURNDATASIZE PUSH1 0x0 DUP1 RETURNDATACOPY RETURNDATASIZE PUSH1 0x0 REVERT JUMPDEST POP POP POP POP PUSH1 0x40 MLOAD RETURNDATASIZE PUSH1 0x1F NOT PUSH1 0x1F DUP3 ADD AND DUP3 ADD DUP1 PUSH1 0x40 MSTORE POP DUP2 ADD SWAP1 PUSH2 0x317 SWAP2 SWAP1 PUSH2 0xBF6 JUMP JUMPDEST POP PUSH1 0x0 DUP4 PUSH20 0xFFFFFFFFFFFFFFFFFFFFFFFFFFFFFFFFFFFFFFFF AND PUSH4 0xA0712D68 DUP9 PUSH1 0x40 MLOAD DUP3 PUSH4 0xFFFFFFFF AND PUSH1 0xE0 SHL DUP2 MSTORE PUSH1 0x4 ADD PUSH2 0x353 SWAP2 SWAP1 PUSH2 0x927 JUMP JUMPDEST PUSH1 0x20 PUSH1 0x40 MLOAD DUP1 DUP4 SUB DUP2 PUSH1 0x0 DUP8 GAS CALL ISZERO DUP1 ISZERO PUSH2 0x372 JUMPI RETURNDATASIZE PUSH1 0x0 DUP1 RETURNDATACOPY RETURNDATASIZE PUSH1 0x0 REVERT JUMPDEST POP POP POP POP PUSH1 0x40 MLOAD RETURNDATASIZE PUSH1 0x1F NOT PUSH1 0x1F DUP3 ADD AND DUP3 ADD DUP1 PUSH1 0x40 MSTORE POP DUP2 ADD SWAP1 PUSH2 0x396 SWAP2 SWAP1 PUSH2 0xA77 JUMP JUMPDEST SWAP1 POP DUP1 SWAP6 POP POP POP POP POP POP SWAP4 SWAP3 POP POP POP JUMP JUMPDEST PUSH1 0x0 DUP1 DUP3 SWAP1 POP PUSH1 0x0 DUP2 PUSH20 0xFFFFFFFFFFFFFFFFFFFFFFFFFFFFFFFFFFFFFFFF AND PUSH4 0xBD6D894D PUSH1 0x40 MLOAD DUP2 PUSH4 0xFFFFFFFF AND PUSH1 0xE0 SHL DUP2 MSTORE PUSH1 0x4 ADD PUSH1 0x20 PUSH1 0x40 MLOAD DUP1 DUP4 SUB DUP2 PUSH1 0x0 DUP8 GAS CALL ISZERO DUP1 ISZERO PUSH2 0x3FC JUMPI RETURNDATASIZE PUSH1 0x0 DUP1 RETURNDATACOPY RETURNDATASIZE PUSH1 0x0 REVERT JUMPDEST POP POP POP POP PUSH1 0x40 MLOAD RETURNDATASIZE PUSH1 0x1F NOT PUSH1 0x1F DUP3 ADD AND DUP3 ADD DUP1 PUSH1 0x40 MSTORE POP DUP2 ADD SWAP1 PUSH2 0x420 SWAP2 SWAP1 PUSH2 0xA77 JUMP JUMPDEST SWAP1 POP PUSH32 0x8D1CCED004452BD270777A8C670F9F7E7C4FDDE56F2DB331FE289D39DC2624AD DUP2 PUSH1 0x40 MLOAD PUSH2 0x451 SWAP2 SWAP1 PUSH2 0xC95 JUMP JUMPDEST PUSH1 0x40 MLOAD DUP1 SWAP2 SUB SWAP1 LOG1 PUSH1 0x0 DUP3 PUSH20 0xFFFFFFFFFFFFFFFFFFFFFFFFFFFFFFFFFFFFFFFF AND PUSH4 0xAE9D70B0 PUSH1 0x40 MLOAD DUP2 PUSH4 0xFFFFFFFF AND PUSH1 0xE0 SHL DUP2 MSTORE PUSH1 0x4 ADD PUSH1 0x20 PUSH1 0x40 MLOAD DUP1 DUP4 SUB DUP2 PUSH1 0x0 DUP8 GAS CALL ISZERO DUP1 ISZERO PUSH2 0x4A8 JUMPI RETURNDATASIZE PUSH1 0x0 DUP1 RETURNDATACOPY RETURNDATASIZE PUSH1 0x0 REVERT JUMPDEST POP POP POP POP PUSH1 0x40 MLOAD RETURNDATASIZE PUSH1 0x1F NOT PUSH1 0x1F DUP3 ADD AND DUP3 ADD DUP1 PUSH1 0x40 MSTORE POP DUP2 ADD SWAP1 PUSH2 0x4CC SWAP2 SWAP1 PUSH2 0xA77 JUMP JUMPDEST SWAP1 POP PUSH32 0x8D1CCED004452BD270777A8C670F9F7E7C4FDDE56F2DB331FE289D39DC2624AD DUP2 PUSH1 0x40 MLOAD PUSH2 0x4FD SWAP2 SWAP1 PUSH2 0xD0F JUMP JUMPDEST PUSH1 0x40 MLOAD DUP1 SWAP2 SUB SWAP1 LOG1 DUP3 PUSH20 0xFFFFFFFFFFFFFFFFFFFFFFFFFFFFFFFFFFFFFFFF AND PUSH4 0x1249C58B CALLVALUE PUSH3 0x3D090 SWAP1 PUSH1 0x40 MLOAD DUP4 PUSH4 0xFFFFFFFF AND PUSH1 0xE0 SHL DUP2 MSTORE PUSH1 0x4 ADD PUSH1 0x0 PUSH1 0x40 MLOAD DUP1 DUP4 SUB DUP2 DUP6 DUP10 DUP1 EXTCODESIZE ISZERO DUP1 ISZERO PUSH2 0x552 JUMPI PUSH1 0x0 DUP1 REVERT JUMPDEST POP DUP9 CALL ISZERO DUP1 ISZERO PUSH2 0x566 JUMPI RETURNDATASIZE PUSH1 0x0 DUP1 RETURNDATACOPY RETURNDATASIZE PUSH1 0x0 REVERT JUMPDEST POP POP POP POP POP POP PUSH1 0x1 SWAP4 POP POP POP POP SWAP2 SWAP1 POP JUMP JUMPDEST PUSH1 0x0 DUP1 DUP3 SWAP1 POP PUSH1 0x0 PUSH1 0x1 ISZERO ISZERO DUP6 ISZERO ISZERO SUB PUSH2 0x60F JUMPI DUP2 PUSH20 0xFFFFFFFFFFFFFFFFFFFFFFFFFFFFFFFFFFFFFFFF AND PUSH4 0xDB006A75 DUP8 PUSH1 0x40 MLOAD DUP3 PUSH4 0xFFFFFFFF AND PUSH1 0xE0 SHL DUP2 MSTORE PUSH1 0x4 ADD PUSH2 0x5C5 SWAP2 SWAP1 PUSH2 0x927 JUMP JUMPDEST PUSH1 0x20 PUSH1 0x40 MLOAD DUP1 DUP4 SUB DUP2 PUSH1 0x0 DUP8 GAS CALL ISZERO DUP1 ISZERO PUSH2 0x5E4 JUMPI RETURNDATASIZE PUSH1 0x0 DUP1 RETURNDATACOPY RETURNDATASIZE PUSH1 0x0 REVERT JUMPDEST POP POP POP POP PUSH1 0x40 MLOAD RETURNDATASIZE PUSH1 0x1F NOT PUSH1 0x1F DUP3 ADD AND DUP3 ADD DUP1 PUSH1 0x40 MSTORE POP DUP2 ADD SWAP1 PUSH2 0x608 SWAP2 SWAP1 PUSH2 0xA77 JUMP JUMPDEST SWAP1 POP PUSH2 0x68E JUMP JUMPDEST DUP2 PUSH20 0xFFFFFFFFFFFFFFFFFFFFFFFFFFFFFFFFFFFFFFFF AND PUSH4 0x852A12E3 DUP8 PUSH1 0x40 MLOAD DUP3 PUSH4 0xFFFFFFFF AND PUSH1 0xE0 SHL DUP2 MSTORE PUSH1 0x4 ADD PUSH2 0x648 SWAP2 SWAP1 PUSH2 0x927 JUMP JUMPDEST PUSH1 0x20 PUSH1 0x40 MLOAD DUP1 DUP4 SUB DUP2 PUSH1 0x0 DUP8 GAS CALL ISZERO DUP1 ISZERO PUSH2 0x667 JUMPI RETURNDATASIZE PUSH1 0x0 DUP1 RETURNDATACOPY RETURNDATASIZE PUSH1 0x0 REVERT JUMPDEST POP POP POP POP PUSH1 0x40 MLOAD RETURNDATASIZE PUSH1 0x1F NOT PUSH1 0x1F DUP3 ADD AND DUP3 ADD DUP1 PUSH1 0x40 MSTORE POP DUP2 ADD SWAP1 PUSH2 0x68B SWAP2 SWAP1 PUSH2 0xA77 JUMP JUMPDEST SWAP1 POP JUMPDEST PUSH32 0x8D1CCED004452BD270777A8C670F9F7E7C4FDDE56F2DB331FE289D39DC2624AD DUP2 PUSH1 0x40 MLOAD PUSH2 0x6BD SWAP2 SWAP1 PUSH2 0xDAF JUMP JUMPDEST PUSH1 0x40 MLOAD DUP1 SWAP2 SUB SWAP1 LOG1 PUSH1 0x1 SWAP3 POP POP POP SWAP4 SWAP3 POP POP POP JUMP JUMPDEST PUSH1 0x0 DUP1 DUP3 SWAP1 POP PUSH1 0x0 PUSH1 0x1 ISZERO ISZERO DUP6 ISZERO ISZERO SUB PUSH2 0x769 JUMPI DUP2 PUSH20 0xFFFFFFFFFFFFFFFFFFFFFFFFFFFFFFFFFFFFFFFF AND PUSH4 0xDB006A75 DUP8 PUSH1 0x40 MLOAD DUP3 PUSH4 0xFFFFFFFF AND PUSH1 0xE0 SHL DUP2 MSTORE PUSH1 0x4 ADD PUSH2 0x71F SWAP2 SWAP1 PUSH2 0x927 JUMP JUMPDEST PUSH1 0x20 PUSH1 0x40 MLOAD DUP1 DUP4 SUB DUP2 PUSH1 0x0 DUP8 GAS CALL ISZERO DUP1 ISZERO PUSH2 0x73E JUMPI RETURNDATASIZE PUSH1 0x0 DUP1 RETURNDATACOPY RETURNDATASIZE PUSH1 0x0 REVERT JUMPDEST POP POP POP POP PUSH1 0x40 MLOAD RETURNDATASIZE PUSH1 0x1F NOT PUSH1 0x1F DUP3 ADD AND DUP3 ADD DUP1 PUSH1 0x40 MSTORE POP DUP2 ADD SWAP1 PUSH2 0x762 SWAP2 SWAP1 PUSH2 0xA77 JUMP JUMPDEST SWAP1 POP PUSH2 0x7E8 JUMP JUMPDEST DUP2 PUSH20 0xFFFFFFFFFFFFFFFFFFFFFFFFFFFFFFFFFFFFFFFF AND PUSH4 0x852A12E3 DUP8 PUSH1 0x40 MLOAD DUP3 PUSH4 0xFFFFFFFF AND PUSH1 0xE0 SHL DUP2 MSTORE PUSH1 0x4 ADD PUSH2 0x7A2 SWAP2 SWAP1 PUSH2 0x927 JUMP JUMPDEST PUSH1 0x20 PUSH1 0x40 MLOAD DUP1 DUP4 SUB DUP2 PUSH1 0x0 DUP8 GAS CALL ISZERO DUP1 ISZERO PUSH2 0x7C1 JUMPI RETURNDATASIZE PUSH1 0x0 DUP1 RETURNDATACOPY RETURNDATASIZE PUSH1 0x0 REVERT JUMPDEST POP POP POP POP PUSH1 0x40 MLOAD RETURNDATASIZE PUSH1 0x1F NOT PUSH1 0x1F DUP3 ADD AND DUP3 ADD DUP1 PUSH1 0x40 MSTORE POP DUP2 ADD SWAP1 PUSH2 0x7E5 SWAP2 SWAP1 PUSH2 0xA77 JUMP JUMPDEST SWAP1 POP JUMPDEST PUSH32 0x8D1CCED004452BD270777A8C670F9F7E7C4FDDE56F2DB331FE289D39DC2624AD DUP2 PUSH1 0x40 MLOAD PUSH2 0x817 SWAP2 SWAP1 PUSH2 0xDAF JUMP JUMPDEST PUSH1 0x40 MLOAD DUP1 SWAP2 SUB SWAP1 LOG1 PUSH1 0x1 SWAP3 POP POP POP SWAP4 SWAP3 POP POP POP JUMP JUMPDEST PUSH1 0x0 DUP1 REVERT JUMPDEST PUSH1 0x0 PUSH20 0xFFFFFFFFFFFFFFFFFFFFFFFFFFFFFFFFFFFFFFFF DUP3 AND SWAP1 POP SWAP2 SWAP1 POP JUMP JUMPDEST PUSH1 0x0 PUSH2 0x85C DUP3 PUSH2 0x831 JUMP JUMPDEST SWAP1 POP SWAP2 SWAP1 POP JUMP JUMPDEST PUSH2 0x86C DUP2 PUSH2 0x851 JUMP JUMPDEST DUP2 EQ PUSH2 0x877 JUMPI PUSH1 0x0 DUP1 REVERT JUMPDEST POP JUMP JUMPDEST PUSH1 0x0 DUP2 CALLDATALOAD SWAP1 POP PUSH2 0x889 DUP2 PUSH2 0x863 JUMP JUMPDEST SWAP3 SWAP2 POP POP JUMP JUMPDEST PUSH1 0x0 DUP2 SWAP1 POP SWAP2 SWAP1 POP JUMP JUMPDEST PUSH2 0x8A2 DUP2 PUSH2 0x88F JUMP JUMPDEST DUP2 EQ PUSH2 0x8AD JUMPI PUSH1 0x0 DUP1 REVERT JUMPDEST POP JUMP JUMPDEST PUSH1 0x0 DUP2 CALLDATALOAD SWAP1 POP PUSH2 0x8BF DUP2 PUSH2 0x899 JUMP JUMPDEST SWAP3 SWAP2 POP POP JUMP JUMPDEST PUSH1 0x0 DUP1 PUSH1 0x0 PUSH1 0x60 DUP5 DUP7 SUB SLT ISZERO PUSH2 0x8DE JUMPI PUSH2 0x8DD PUSH2 0x82C JUMP JUMPDEST JUMPDEST PUSH1 0x0 PUSH2 0x8EC DUP7 DUP3 DUP8 ADD PUSH2 0x87A JUMP JUMPDEST SWAP4 POP POP PUSH1 0x20 PUSH2 0x8FD DUP7 DUP3 DUP8 ADD PUSH2 0x87A JUMP JUMPDEST SWAP3 POP POP PUSH1 0x40 PUSH2 0x90E DUP7 DUP3 DUP8 ADD PUSH2 0x8B0 JUMP JUMPDEST SWAP2 POP POP SWAP3 POP SWAP3 POP SWAP3 JUMP JUMPDEST PUSH2 0x921 DUP2 PUSH2 0x88F JUMP JUMPDEST DUP3 MSTORE POP POP JUMP JUMPDEST PUSH1 0x0 PUSH1 0x20 DUP3 ADD SWAP1 POP PUSH2 0x93C PUSH1 0x0 DUP4 ADD DUP5 PUSH2 0x918 JUMP JUMPDEST SWAP3 SWAP2 POP POP JUMP JUMPDEST PUSH1 0x0 PUSH2 0x94D DUP3 PUSH2 0x831 JUMP JUMPDEST SWAP1 POP SWAP2 SWAP1 POP JUMP JUMPDEST PUSH2 0x95D DUP2 PUSH2 0x942 JUMP JUMPDEST DUP2 EQ PUSH2 0x968 JUMPI PUSH1 0x0 DUP1 REVERT JUMPDEST POP JUMP JUMPDEST PUSH1 0x0 DUP2 CALLDATALOAD SWAP1 POP PUSH2 0x97A DUP2 PUSH2 0x954 JUMP JUMPDEST SWAP3 SWAP2 POP POP JUMP JUMPDEST PUSH1 0x0 PUSH1 0x20 DUP3 DUP5 SUB SLT ISZERO PUSH2 0x996 JUMPI PUSH2 0x995 PUSH2 0x82C JUMP JUMPDEST JUMPDEST PUSH1 0x0 PUSH2 0x9A4 DUP5 DUP3 DUP6 ADD PUSH2 0x96B JUMP JUMPDEST SWAP2 POP POP SWAP3 SWAP2 POP POP JUMP JUMPDEST PUSH1 0x0 DUP2 ISZERO ISZERO SWAP1 POP SWAP2 SWAP1 POP JUMP JUMPDEST PUSH2 0x9C2 DUP2 PUSH2 0x9AD JUMP JUMPDEST DUP3 MSTORE POP POP JUMP JUMPDEST PUSH1 0x0 PUSH1 0x20 DUP3 ADD SWAP1 POP PUSH2 0x9DD PUSH1 0x0 DUP4 ADD DUP5 PUSH2 0x9B9 JUMP JUMPDEST SWAP3 SWAP2 POP POP JUMP JUMPDEST PUSH2 0x9EC DUP2 PUSH2 0x9AD JUMP JUMPDEST DUP2 EQ PUSH2 0x9F7 JUMPI PUSH1 0x0 DUP1 REVERT JUMPDEST POP JUMP JUMPDEST PUSH1 0x0 DUP2 CALLDATALOAD SWAP1 POP PUSH2 0xA09 DUP2 PUSH2 0x9E3 JUMP JUMPDEST SWAP3 SWAP2 POP POP JUMP JUMPDEST PUSH1 0x0 DUP1 PUSH1 0x0 PUSH1 0x60 DUP5 DUP7 SUB SLT ISZERO PUSH2 0xA28 JUMPI PUSH2 0xA27 PUSH2 0x82C JUMP JUMPDEST JUMPDEST PUSH1 0x0 PUSH2 0xA36 DUP7 DUP3 DUP8 ADD PUSH2 0x8B0 JUMP JUMPDEST SWAP4 POP POP PUSH1 0x20 PUSH2 0xA47 DUP7 DUP3 DUP8 ADD PUSH2 0x9FA JUMP JUMPDEST SWAP3 POP POP PUSH1 0x40 PUSH2 0xA58 DUP7 DUP3 DUP8 ADD PUSH2 0x87A JUMP JUMPDEST SWAP2 POP POP SWAP3 POP SWAP3 POP SWAP3 JUMP JUMPDEST PUSH1 0x0 DUP2 MLOAD SWAP1 POP PUSH2 0xA71 DUP2 PUSH2 0x899 JUMP JUMPDEST SWAP3 SWAP2 POP POP JUMP JUMPDEST PUSH1 0x0 PUSH1 0x20 DUP3 DUP5 SUB SLT ISZERO PUSH2 0xA8D JUMPI PUSH2 0xA8C PUSH2 0x82C JUMP JUMPDEST JUMPDEST PUSH1 0x0 PUSH2 0xA9B DUP5 DUP3 DUP6 ADD PUSH2 0xA62 JUMP JUMPDEST SWAP2 POP POP SWAP3 SWAP2 POP POP JUMP JUMPDEST PUSH1 0x0 DUP3 DUP3 MSTORE PUSH1 0x20 DUP3 ADD SWAP1 POP SWAP3 SWAP2 POP POP JUMP JUMPDEST PUSH32 0x45786368616E6765205261746520287363616C6564207570293A200000000000 PUSH1 0x0 DUP3 ADD MSTORE POP JUMP JUMPDEST PUSH1 0x0 PUSH2 0xAEB PUSH1 0x1B DUP4 PUSH2 0xAA4 JUMP JUMPDEST SWAP2 POP PUSH2 0xAF6 DUP3 PUSH2 0xAB5 JUMP JUMPDEST PUSH1 0x20 DUP3 ADD SWAP1 POP SWAP2 SWAP1 POP JUMP JUMPDEST PUSH1 0x0 PUSH1 0x40 DUP3 ADD SWAP1 POP DUP2 DUP2 SUB PUSH1 0x0 DUP4 ADD MSTORE PUSH2 0xB1A DUP2 PUSH2 0xADE JUMP JUMPDEST SWAP1 POP PUSH2 0xB29 PUSH1 0x20 DUP4 ADD DUP5 PUSH2 0x918 JUMP JUMPDEST SWAP3 SWAP2 POP POP JUMP JUMPDEST PUSH32 0x537570706C7920526174653A20287363616C6564207570290000000000000000 PUSH1 0x0 DUP3 ADD MSTORE POP JUMP JUMPDEST PUSH1 0x0 PUSH2 0xB65 PUSH1 0x18 DUP4 PUSH2 0xAA4 JUMP JUMPDEST SWAP2 POP PUSH2 0xB70 DUP3 PUSH2 0xB2F JUMP JUMPDEST PUSH1 0x20 DUP3 ADD SWAP1 POP SWAP2 SWAP1 POP JUMP JUMPDEST PUSH1 0x0 PUSH1 0x40 DUP3 ADD SWAP1 POP DUP2 DUP2 SUB PUSH1 0x0 DUP4 ADD MSTORE PUSH2 0xB94 DUP2 PUSH2 0xB58 JUMP JUMPDEST SWAP1 POP PUSH2 0xBA3 PUSH1 0x20 DUP4 ADD DUP5 PUSH2 0x918 JUMP JUMPDEST SWAP3 SWAP2 POP POP JUMP JUMPDEST PUSH2 0xBB2 DUP2 PUSH2 0x851 JUMP JUMPDEST DUP3 MSTORE POP POP JUMP JUMPDEST PUSH1 0x0 PUSH1 0x40 DUP3 ADD SWAP1 POP PUSH2 0xBCD PUSH1 0x0 DUP4 ADD DUP6 PUSH2 0xBA9 JUMP JUMPDEST PUSH2 0xBDA PUSH1 0x20 DUP4 ADD DUP5 PUSH2 0x918 JUMP JUMPDEST SWAP4 SWAP3 POP POP POP JUMP JUMPDEST PUSH1 0x0 DUP2 MLOAD SWAP1 POP PUSH2 0xBF0 DUP2 PUSH2 0x9E3 JUMP JUMPDEST SWAP3 SWAP2 POP POP JUMP JUMPDEST PUSH1 0x0 PUSH1 0x20 DUP3 DUP5 SUB SLT ISZERO PUSH2 0xC0C JUMPI PUSH2 0xC0B PUSH2 0x82C JUMP JUMPDEST JUMPDEST PUSH1 0x0 PUSH2 0xC1A DUP5 DUP3 DUP6 ADD PUSH2 0xBE1 JUMP JUMPDEST SWAP2 POP POP SWAP3 SWAP2 POP POP JUMP JUMPDEST PUSH32 0x45786368616E6765205261746520287363616C65642075702062792031653138 PUSH1 0x0 DUP3 ADD MSTORE PUSH32 0x293A200000000000000000000000000000000000000000000000000000000000 PUSH1 0x20 DUP3 ADD MSTORE POP JUMP JUMPDEST PUSH1 0x0 PUSH2 0xC7F PUSH1 0x23 DUP4 PUSH2 0xAA4 JUMP JUMPDEST SWAP2 POP PUSH2 0xC8A DUP3 PUSH2 0xC23 JUMP JUMPDEST PUSH1 0x40 DUP3 ADD SWAP1 POP SWAP2 SWAP1 POP JUMP JUMPDEST PUSH1 0x0 PUSH1 0x40 DUP3 ADD SWAP1 POP DUP2 DUP2 SUB PUSH1 0x0 DUP4 ADD MSTORE PUSH2 0xCAE DUP2 PUSH2 0xC72 JUMP JUMPDEST SWAP1 POP PUSH2 0xCBD PUSH1 0x20 DUP4 ADD DUP5 PUSH2 0x918 JUMP JUMPDEST SWAP3 SWAP2 POP POP JUMP JUMPDEST PUSH32 0x537570706C7920526174653A20287363616C6564207570206279203165313829 PUSH1 0x0 DUP3 ADD MSTORE POP JUMP JUMPDEST PUSH1 0x0 PUSH2 0xCF9 PUSH1 0x20 DUP4 PUSH2 0xAA4 JUMP JUMPDEST SWAP2 POP PUSH2 0xD04 DUP3 PUSH2 0xCC3 JUMP JUMPDEST PUSH1 0x20 DUP3 ADD SWAP1 POP SWAP2 SWAP1 POP JUMP JUMPDEST PUSH1 0x0 PUSH1 0x40 DUP3 ADD SWAP1 POP DUP2 DUP2 SUB PUSH1 0x0 DUP4 ADD MSTORE PUSH2 0xD28 DUP2 PUSH2 0xCEC JUMP JUMPDEST SWAP1 POP PUSH2 0xD37 PUSH1 0x20 DUP4 ADD DUP5 PUSH2 0x918 JUMP JUMPDEST SWAP3 SWAP2 POP POP JUMP JUMPDEST PUSH32 0x49662074686973206973206E6F7420302C2074686572652077617320616E2065 PUSH1 0x0 DUP3 ADD MSTORE PUSH32 0x72726F7200000000000000000000000000000000000000000000000000000000 PUSH1 0x20 DUP3 ADD MSTORE POP JUMP JUMPDEST PUSH1 0x0 PUSH2 0xD99 PUSH1 0x24 DUP4 PUSH2 0xAA4 JUMP JUMPDEST SWAP2 POP PUSH2 0xDA4 DUP3 PUSH2 0xD3D JUMP JUMPDEST PUSH1 0x40 DUP3 ADD SWAP1 POP SWAP2 SWAP1 POP JUMP JUMPDEST PUSH1 0x0 PUSH1 0x40 DUP3 ADD SWAP1 POP DUP2 DUP2 SUB PUSH1 0x0 DUP4 ADD MSTORE PUSH2 0xDC8 DUP2 PUSH2 0xD8C JUMP JUMPDEST SWAP1 POP PUSH2 0xDD7 PUSH1 0x20 DUP4 ADD DUP5 PUSH2 0x918 JUMP JUMPDEST SWAP3 SWAP2 POP POP JUMP INVALID LOG2 PUSH5 0x6970667358 0x22 SLT KECCAK256 0xAD 0xA7 0xB8 0xD 0xBA PUSH26 0x4F5D32C65F464503B2D9BFDEEB04C4CAE6795853A076611AA601 PUSH5 0x736F6C6343 STOP ADDMOD ISZERO STOP CALLER "
				},
				"gasEstimates": {
					"creation": {
						"codeDepositCost": "720600",
						"executionCost": "753",
						"totalCost": "721353"
					},
					"external": {
						"redeemCErc20Tokens(uint256,bool,address)": "infinite",
						"redeemCEth(uint256,bool,address)": "infinite",
						"supplyErc20ToCompound(address,address,uint256)": "infinite",
						"supplyEthToCompound(address)": "infinite"
					}
				},
				"methodIdentifiers": {
					"redeemCErc20Tokens(uint256,bool,address)": "d0ace48e",
					"redeemCEth(uint256,bool,address)": "c6fb5014",
					"supplyErc20ToCompound(address,address,uint256)": "3b7ba25f",
					"supplyEthToCompound(address)": "a82ffd88"
				}
			},
			"storageLayout": {
				"storage": [],
				"types": null
			},
			"userdoc": {
				"kind": "user",
				"methods": {},
				"version": 1
			}
		}
	}
}