{
	"TEST/test.sol": {
		"Swap": {
			"abi": [
				{
					"inputs": [],
					"stateMutability": "nonpayable",
					"type": "constructor"
				},
				{
					"inputs": [],
					"name": "LINK",
					"outputs": [
						{
							"internalType": "address",
							"name": "",
							"type": "address"
						}
					],
					"stateMutability": "view",
					"type": "function"
				},
				{
					"inputs": [],
					"name": "WETH",
					"outputs": [
						{
							"internalType": "address",
							"name": "",
							"type": "address"
						}
					],
					"stateMutability": "view",
					"type": "function"
				},
				{
					"inputs": [],
					"name": "linkToken",
					"outputs": [
						{
							"internalType": "contract IERC20",
							"name": "",
							"type": "address"
						}
					],
					"stateMutability": "view",
					"type": "function"
				},
				{
					"inputs": [],
					"name": "poolFee",
					"outputs": [
						{
							"internalType": "uint24",
							"name": "",
							"type": "uint24"
						}
					],
					"stateMutability": "view",
					"type": "function"
				},
				{
					"inputs": [],
					"name": "routerAddress",
					"outputs": [
						{
							"internalType": "address",
							"name": "",
							"type": "address"
						}
					],
					"stateMutability": "view",
					"type": "function"
				},
				{
					"inputs": [
						{
							"internalType": "uint256",
							"name": "amountIn",
							"type": "uint256"
						}
					],
					"name": "swapExactInputSingle",
					"outputs": [
						{
							"internalType": "uint256",
							"name": "amountOut",
							"type": "uint256"
						}
					],
					"stateMutability": "nonpayable",
					"type": "function"
				},
				{
					"inputs": [
						{
							"internalType": "uint256",
							"name": "amountIn",
							"type": "uint256"
						}
					],
					"name": "swapReverseExactInputSingle",
					"outputs": [
						{
							"internalType": "uint256",
							"name": "amountOut",
							"type": "uint256"
						}
					],
					"stateMutability": "nonpayable",
					"type": "function"
				},
				{
					"inputs": [],
					"name": "swapRouter",
					"outputs": [
						{
							"internalType": "contract ISwapRouter",
							"name": "",
							"type": "address"
						}
					],
					"stateMutability": "view",
					"type": "function"
				},
				{
					"inputs": [],
					"name": "wethToken",
					"outputs": [
						{
							"internalType": "contract IERC20",
							"name": "",
							"type": "address"
						}
					],
					"stateMutability": "view",
					"type": "function"
				}
			],
			"devdoc": {
				"kind": "dev",
				"methods": {},
				"version": 1
			},
			"evm": {
				"assembly": "    /* \"TEST/test.sol\":522:2600  contract Swap {\r... */\n  mstore(0x40, 0xa0)\n    /* \"TEST/test.sol\":583:625  0xE592427A0AEce92De3Edee1F18E0157C05861564 */\n  0xe592427a0aece92de3edee1f18e0157c05861564\n    /* \"TEST/test.sol\":632:700  ISwapRouter public immutable swapRouter = ISwapRouter(routerAddress) */\n  0xffffffffffffffffffffffffffffffffffffffff\n  and\n  0x80\n  swap1\n  0xffffffffffffffffffffffffffffffffffffffff\n  and\n  0x60\n  shl\n  dup2\n  mstore\n  pop\n    /* \"TEST/test.sol\":740:782  0x326C977E6efc84E512bB9C30f76E30c160eD06FB */\n  0x326c977e6efc84e512bb9c30f76e30c160ed06fb\n    /* \"TEST/test.sol\":871:909  IERC20 public linkToken = IERC20(LINK) */\n  0x00\n  dup1\n  0x0100\n  exp\n  dup2\n  sload\n  dup2\n  0xffffffffffffffffffffffffffffffffffffffff\n  mul\n  not\n  and\n  swap1\n  dup4\n  0xffffffffffffffffffffffffffffffffffffffff\n  and\n  mul\n  or\n  swap1\n  sstore\n  pop\n    /* \"TEST/test.sol\":820:862  0xB4FBF271143F4FBf7B91A5ded31805e42b2208d6 */\n  0xb4fbf271143f4fbf7b91a5ded31805e42b2208d6\n    /* \"TEST/test.sol\":916:954  IERC20 public wethToken = IERC20(WETH) */\n  0x01\n  exp(0x0100, 0x00)\n  dup2\n  sload\n  dup2\n  0xffffffffffffffffffffffffffffffffffffffff\n  mul\n  not\n  and\n  swap1\n  dup4\n  0xffffffffffffffffffffffffffffffffffffffff\n  and\n  mul\n  or\n  swap1\n  sstore\n  pop\n    /* \"TEST/test.sol\":1034:1050  constructor() {} */\n  callvalue\n  dup1\n  iszero\n  tag_1\n  jumpi\n  0x00\n  dup1\n  revert\ntag_1:\n  pop\n    /* \"TEST/test.sol\":522:2600  contract Swap {\r... */\n  shr(0x60, mload(0x80))\n  codecopy(0x00, dataOffset(sub_0), dataSize(sub_0))\n  assignImmutable(\"0x840881693295f1213bc621234bc18aa1727c90c9e1416799df22e18f9c7c029b\")\n  return(0x00, dataSize(sub_0))\nstop\n\nsub_0: assembly {\n        /* \"TEST/test.sol\":522:2600  contract Swap {\r... */\n      mstore(0x40, 0x80)\n      callvalue\n      dup1\n      iszero\n      tag_1\n      jumpi\n      0x00\n      dup1\n      revert\n    tag_1:\n      pop\n      jumpi(tag_2, lt(calldatasize, 0x04))\n      shr(0xe0, calldataload(0x00))\n      dup1\n      0x57970e93\n      gt\n      tag_12\n      jumpi\n      dup1\n      0x57970e93\n      eq\n      tag_7\n      jumpi\n      dup1\n      0x73bd43ad\n      eq\n      tag_8\n      jumpi\n      dup1\n      0x9d96daa4\n      eq\n      tag_9\n      jumpi\n      dup1\n      0xad5c4648\n      eq\n      tag_10\n      jumpi\n      dup1\n      0xc31c9c07\n      eq\n      tag_11\n      jumpi\n      jump(tag_2)\n    tag_12:\n      dup1\n      0x089fe6aa\n      eq\n      tag_3\n      jumpi\n      dup1\n      0x1b6b6d23\n      eq\n      tag_4\n      jumpi\n      dup1\n      0x3268cc56\n      eq\n      tag_5\n      jumpi\n      dup1\n      0x4b57b0be\n      eq\n      tag_6\n      jumpi\n    tag_2:\n      0x00\n      dup1\n      revert\n        /* \"TEST/test.sol\":988:1025  uint24 public constant poolFee = 3000 */\n    tag_3:\n      tag_13\n      tag_14\n      jump\t// in\n    tag_13:\n      mload(0x40)\n      tag_15\n      swap2\n      swap1\n      tag_16\n      jump\t// in\n    tag_15:\n      mload(0x40)\n      dup1\n      swap2\n      sub\n      swap1\n      return\n        /* \"TEST/test.sol\":709:782  address public constant LINK = 0x326C977E6efc84E512bB9C30f76E30c160eD06FB */\n    tag_4:\n      tag_17\n      tag_18\n      jump\t// in\n    tag_17:\n      mload(0x40)\n      tag_19\n      swap2\n      swap1\n      tag_20\n      jump\t// in\n    tag_19:\n      mload(0x40)\n      dup1\n      swap2\n      sub\n      swap1\n      return\n        /* \"TEST/test.sol\":543:625  address public constant routerAddress = 0xE592427A0AEce92De3Edee1F18E0157C05861564 */\n    tag_5:\n      tag_21\n      tag_22\n      jump\t// in\n    tag_21:\n      mload(0x40)\n      tag_23\n      swap2\n      swap1\n      tag_20\n      jump\t// in\n    tag_23:\n      mload(0x40)\n      dup1\n      swap2\n      sub\n      swap1\n      return\n        /* \"TEST/test.sol\":916:954  IERC20 public wethToken = IERC20(WETH) */\n    tag_6:\n      tag_24\n      tag_25\n      jump\t// in\n    tag_24:\n      mload(0x40)\n      tag_26\n      swap2\n      swap1\n      tag_27\n      jump\t// in\n    tag_26:\n      mload(0x40)\n      dup1\n      swap2\n      sub\n      swap1\n      return\n        /* \"TEST/test.sol\":871:909  IERC20 public linkToken = IERC20(LINK) */\n    tag_7:\n      tag_28\n      tag_29\n      jump\t// in\n    tag_28:\n      mload(0x40)\n      tag_30\n      swap2\n      swap1\n      tag_27\n      jump\t// in\n    tag_30:\n      mload(0x40)\n      dup1\n      swap2\n      sub\n      swap1\n      return\n        /* \"TEST/test.sol\":1058:1819  function swapExactInputSingle(uint256 amountIn) external returns (uint256 amountOut)\r... */\n    tag_8:\n      tag_31\n      0x04\n      dup1\n      calldatasize\n      sub\n      dup2\n      add\n      swap1\n      tag_32\n      swap2\n      swap1\n      tag_33\n      jump\t// in\n    tag_32:\n      tag_34\n      jump\t// in\n    tag_31:\n      mload(0x40)\n      tag_35\n      swap2\n      swap1\n      tag_36\n      jump\t// in\n    tag_35:\n      mload(0x40)\n      dup1\n      swap2\n      sub\n      swap1\n      return\n        /* \"TEST/test.sol\":1827:2597  function swapReverseExactInputSingle(uint256 amountIn) external returns (uint256 amountOut)\r... */\n    tag_9:\n      tag_37\n      0x04\n      dup1\n      calldatasize\n      sub\n      dup2\n      add\n      swap1\n      tag_38\n      swap2\n      swap1\n      tag_33\n      jump\t// in\n    tag_38:\n      tag_39\n      jump\t// in\n    tag_37:\n      mload(0x40)\n      tag_40\n      swap2\n      swap1\n      tag_36\n      jump\t// in\n    tag_40:\n      mload(0x40)\n      dup1\n      swap2\n      sub\n      swap1\n      return\n        /* \"TEST/test.sol\":789:862  address public constant WETH = 0xB4FBF271143F4FBf7B91A5ded31805e42b2208d6 */\n    tag_10:\n      tag_41\n      tag_42\n      jump\t// in\n    tag_41:\n      mload(0x40)\n      tag_43\n      swap2\n      swap1\n      tag_20\n      jump\t// in\n    tag_43:\n      mload(0x40)\n      dup1\n      swap2\n      sub\n      swap1\n      return\n        /* \"TEST/test.sol\":632:700  ISwapRouter public immutable swapRouter = ISwapRouter(routerAddress) */\n    tag_11:\n      tag_44\n      tag_45\n      jump\t// in\n    tag_44:\n      mload(0x40)\n      tag_46\n      swap2\n      swap1\n      tag_47\n      jump\t// in\n    tag_46:\n      mload(0x40)\n      dup1\n      swap2\n      sub\n      swap1\n      return\n        /* \"TEST/test.sol\":988:1025  uint24 public constant poolFee = 3000 */\n    tag_14:\n        /* \"TEST/test.sol\":1021:1025  3000 */\n      0x0bb8\n        /* \"TEST/test.sol\":988:1025  uint24 public constant poolFee = 3000 */\n      dup2\n      jump\t// out\n        /* \"TEST/test.sol\":709:782  address public constant LINK = 0x326C977E6efc84E512bB9C30f76E30c160eD06FB */\n    tag_18:\n        /* \"TEST/test.sol\":740:782  0x326C977E6efc84E512bB9C30f76E30c160eD06FB */\n      0x326c977e6efc84e512bb9c30f76e30c160ed06fb\n        /* \"TEST/test.sol\":709:782  address public constant LINK = 0x326C977E6efc84E512bB9C30f76E30c160eD06FB */\n      dup2\n      jump\t// out\n        /* \"TEST/test.sol\":543:625  address public constant routerAddress = 0xE592427A0AEce92De3Edee1F18E0157C05861564 */\n    tag_22:\n        /* \"TEST/test.sol\":583:625  0xE592427A0AEce92De3Edee1F18E0157C05861564 */\n      0xe592427a0aece92de3edee1f18e0157c05861564\n        /* \"TEST/test.sol\":543:625  address public constant routerAddress = 0xE592427A0AEce92De3Edee1F18E0157C05861564 */\n      dup2\n      jump\t// out\n        /* \"TEST/test.sol\":916:954  IERC20 public wethToken = IERC20(WETH) */\n    tag_25:\n      0x01\n      0x00\n      swap1\n      sload\n      swap1\n      0x0100\n      exp\n      swap1\n      div\n      0xffffffffffffffffffffffffffffffffffffffff\n      and\n      dup2\n      jump\t// out\n        /* \"TEST/test.sol\":871:909  IERC20 public linkToken = IERC20(LINK) */\n    tag_29:\n      0x00\n      dup1\n      sload\n      swap1\n      0x0100\n      exp\n      swap1\n      div\n      0xffffffffffffffffffffffffffffffffffffffff\n      and\n      dup2\n      jump\t// out\n        /* \"TEST/test.sol\":1058:1819  function swapExactInputSingle(uint256 amountIn) external returns (uint256 amountOut)\r... */\n    tag_34:\n        /* \"TEST/test.sol\":1124:1141  uint256 amountOut */\n      0x00\n        /* \"TEST/test.sol\":1159:1168  linkToken */\n      dup1\n      0x00\n      swap1\n      sload\n      swap1\n      0x0100\n      exp\n      swap1\n      div\n      0xffffffffffffffffffffffffffffffffffffffff\n      and\n        /* \"TEST/test.sol\":1159:1181  linkToken.transferFrom */\n      0xffffffffffffffffffffffffffffffffffffffff\n      and\n      0x23b872dd\n        /* \"TEST/test.sol\":1182:1192  msg.sender */\n      caller\n        /* \"TEST/test.sol\":1201:1205  this */\n      address\n        /* \"TEST/test.sol\":1207:1215  amountIn */\n      dup6\n        /* \"TEST/test.sol\":1159:1216  linkToken.transferFrom(msg.sender,address(this),amountIn) */\n      mload(0x40)\n      dup5\n      0xffffffff\n      and\n      0xe0\n      shl\n      dup2\n      mstore\n      0x04\n      add\n      tag_49\n      swap4\n      swap3\n      swap2\n      swap1\n      tag_50\n      jump\t// in\n    tag_49:\n      0x20\n      mload(0x40)\n      dup1\n      dup4\n      sub\n      dup2\n      0x00\n      dup8\n      dup1\n      extcodesize\n      iszero\n      dup1\n      iszero\n      tag_51\n      jumpi\n      0x00\n      dup1\n      revert\n    tag_51:\n      pop\n      gas\n      call\n      iszero\n      dup1\n      iszero\n      tag_53\n      jumpi\n      returndatasize\n      0x00\n      dup1\n      returndatacopy\n      revert(0x00, returndatasize)\n    tag_53:\n      pop\n      pop\n      pop\n      pop\n      mload(0x40)\n      returndatasize\n      not(0x1f)\n      0x1f\n      dup3\n      add\n      and\n      dup3\n      add\n      dup1\n      0x40\n      mstore\n      pop\n      dup2\n      add\n      swap1\n      tag_54\n      swap2\n      swap1\n      tag_55\n      jump\t// in\n    tag_54:\n      pop\n        /* \"TEST/test.sol\":1227:1236  linkToken */\n      0x00\n      dup1\n      sload\n      swap1\n      0x0100\n      exp\n      swap1\n      div\n      0xffffffffffffffffffffffffffffffffffffffff\n      and\n        /* \"TEST/test.sol\":1227:1244  linkToken.approve */\n      0xffffffffffffffffffffffffffffffffffffffff\n      and\n      0x095ea7b3\n        /* \"TEST/test.sol\":1253:1263  swapRouter */\n      immutable(\"0x840881693295f1213bc621234bc18aa1727c90c9e1416799df22e18f9c7c029b\")\n        /* \"TEST/test.sol\":1266:1274  amountIn */\n      dup5\n        /* \"TEST/test.sol\":1227:1275  linkToken.approve(address(swapRouter), amountIn) */\n      mload(0x40)\n      dup4\n      0xffffffff\n      and\n      0xe0\n      shl\n      dup2\n      mstore\n      0x04\n      add\n      tag_56\n      swap3\n      swap2\n      swap1\n      tag_57\n      jump\t// in\n    tag_56:\n      0x20\n      mload(0x40)\n      dup1\n      dup4\n      sub\n      dup2\n      0x00\n      dup8\n      dup1\n      extcodesize\n      iszero\n      dup1\n      iszero\n      tag_58\n      jumpi\n      0x00\n      dup1\n      revert\n    tag_58:\n      pop\n      gas\n      call\n      iszero\n      dup1\n      iszero\n      tag_60\n      jumpi\n      returndatasize\n      0x00\n      dup1\n      returndatacopy\n      revert(0x00, returndatasize)\n    tag_60:\n      pop\n      pop\n      pop\n      pop\n      mload(0x40)\n      returndatasize\n      not(0x1f)\n      0x1f\n      dup3\n      add\n      and\n      dup3\n      add\n      dup1\n      0x40\n      mstore\n      pop\n      dup2\n      add\n      swap1\n      tag_61\n      swap2\n      swap1\n      tag_55\n      jump\t// in\n    tag_61:\n      pop\n        /* \"TEST/test.sol\":1288:1336  ISwapRouter.ExactInputSingleParams memory params */\n      0x00\n        /* \"TEST/test.sol\":1339:1701  ISwapRouter\r... */\n      mload(0x40)\n      dup1\n      0x0100\n      add\n      0x40\n      mstore\n      dup1\n        /* \"TEST/test.sol\":740:782  0x326C977E6efc84E512bB9C30f76E30c160eD06FB */\n      0x326c977e6efc84e512bb9c30f76e30c160ed06fb\n        /* \"TEST/test.sol\":1339:1701  ISwapRouter\r... */\n      0xffffffffffffffffffffffffffffffffffffffff\n      and\n      dup2\n      mstore\n      0x20\n      add\n        /* \"TEST/test.sol\":820:862  0xB4FBF271143F4FBf7B91A5ded31805e42b2208d6 */\n      0xb4fbf271143f4fbf7b91a5ded31805e42b2208d6\n        /* \"TEST/test.sol\":1339:1701  ISwapRouter\r... */\n      0xffffffffffffffffffffffffffffffffffffffff\n      and\n      dup2\n      mstore\n      0x20\n      add\n        /* \"TEST/test.sol\":1021:1025  3000 */\n      0x0bb8\n        /* \"TEST/test.sol\":1339:1701  ISwapRouter\r... */\n      0xffffff\n      and\n      dup2\n      mstore\n      0x20\n      add\n        /* \"TEST/test.sol\":1522:1526  this */\n      address\n        /* \"TEST/test.sol\":1339:1701  ISwapRouter\r... */\n      0xffffffffffffffffffffffffffffffffffffffff\n      and\n      dup2\n      mstore\n      0x20\n      add\n        /* \"TEST/test.sol\":1556:1571  block.timestamp */\n      timestamp\n        /* \"TEST/test.sol\":1339:1701  ISwapRouter\r... */\n      dup2\n      mstore\n      0x20\n      add\n        /* \"TEST/test.sol\":1600:1608  amountIn */\n      dup5\n        /* \"TEST/test.sol\":1339:1701  ISwapRouter\r... */\n      dup2\n      mstore\n      0x20\n      add\n        /* \"TEST/test.sol\":1645:1646  0 */\n      0x00\n        /* \"TEST/test.sol\":1339:1701  ISwapRouter\r... */\n      dup2\n      mstore\n      0x20\n      add\n        /* \"TEST/test.sol\":1684:1685  0 */\n      0x00\n        /* \"TEST/test.sol\":1339:1701  ISwapRouter\r... */\n      0xffffffffffffffffffffffffffffffffffffffff\n      and\n      dup2\n      mstore\n      pop\n        /* \"TEST/test.sol\":1288:1701  ISwapRouter.ExactInputSingleParams memory params = ISwapRouter\r... */\n      swap1\n      pop\n        /* \"TEST/test.sol\":1724:1734  swapRouter */\n      immutable(\"0x840881693295f1213bc621234bc18aa1727c90c9e1416799df22e18f9c7c029b\")\n        /* \"TEST/test.sol\":1724:1751  swapRouter.exactInputSingle */\n      0xffffffffffffffffffffffffffffffffffffffff\n      and\n      0x414bf389\n        /* \"TEST/test.sol\":1752:1758  params */\n      dup3\n        /* \"TEST/test.sol\":1724:1759  swapRouter.exactInputSingle(params) */\n      mload(0x40)\n      dup3\n      0xffffffff\n      and\n      0xe0\n      shl\n      dup2\n      mstore\n      0x04\n      add\n      tag_62\n      swap2\n      swap1\n      tag_63\n      jump\t// in\n    tag_62:\n      0x20\n      mload(0x40)\n      dup1\n      dup4\n      sub\n      dup2\n      0x00\n      dup8\n      dup1\n      extcodesize\n      iszero\n      dup1\n      iszero\n      tag_64\n      jumpi\n      0x00\n      dup1\n      revert\n    tag_64:\n      pop\n      gas\n      call\n      iszero\n      dup1\n      iszero\n      tag_66\n      jumpi\n      returndatasize\n      0x00\n      dup1\n      returndatacopy\n      revert(0x00, returndatasize)\n    tag_66:\n      pop\n      pop\n      pop\n      pop\n      mload(0x40)\n      returndatasize\n      not(0x1f)\n      0x1f\n      dup3\n      add\n      and\n      dup3\n      add\n      dup1\n      0x40\n      mstore\n      pop\n      dup2\n      add\n      swap1\n      tag_67\n      swap2\n      swap1\n      tag_68\n      jump\t// in\n    tag_67:\n        /* \"TEST/test.sol\":1712:1759  amountOut = swapRouter.exactInputSingle(params) */\n      swap2\n      pop\n        /* \"TEST/test.sol\":1770:1779  wethToken */\n      0x01\n      0x00\n      swap1\n      sload\n      swap1\n      0x0100\n      exp\n      swap1\n      div\n      0xffffffffffffffffffffffffffffffffffffffff\n      and\n        /* \"TEST/test.sol\":1770:1788  wethToken.transfer */\n      0xffffffffffffffffffffffffffffffffffffffff\n      and\n      0xa9059cbb\n        /* \"TEST/test.sol\":1789:1799  msg.sender */\n      caller\n        /* \"TEST/test.sol\":1801:1810  amountOut */\n      dup5\n        /* \"TEST/test.sol\":1770:1811  wethToken.transfer(msg.sender, amountOut) */\n      mload(0x40)\n      dup4\n      0xffffffff\n      and\n      0xe0\n      shl\n      dup2\n      mstore\n      0x04\n      add\n      tag_69\n      swap3\n      swap2\n      swap1\n      tag_70\n      jump\t// in\n    tag_69:\n      0x20\n      mload(0x40)\n      dup1\n      dup4\n      sub\n      dup2\n      0x00\n      dup8\n      dup1\n      extcodesize\n      iszero\n      dup1\n      iszero\n      tag_71\n      jumpi\n      0x00\n      dup1\n      revert\n    tag_71:\n      pop\n      gas\n      call\n      iszero\n      dup1\n      iszero\n      tag_73\n      jumpi\n      returndatasize\n      0x00\n      dup1\n      returndatacopy\n      revert(0x00, returndatasize)\n    tag_73:\n      pop\n      pop\n      pop\n      pop\n      mload(0x40)\n      returndatasize\n      not(0x1f)\n      0x1f\n      dup3\n      add\n      and\n      dup3\n      add\n      dup1\n      0x40\n      mstore\n      pop\n      dup2\n      add\n      swap1\n      tag_74\n      swap2\n      swap1\n      tag_55\n      jump\t// in\n    tag_74:\n      pop\n        /* \"TEST/test.sol\":1058:1819  function swapExactInputSingle(uint256 amountIn) external returns (uint256 amountOut)\r... */\n      pop\n      swap2\n      swap1\n      pop\n      jump\t// out\n        /* \"TEST/test.sol\":1827:2597  function swapReverseExactInputSingle(uint256 amountIn) external returns (uint256 amountOut)\r... */\n    tag_39:\n        /* \"TEST/test.sol\":1900:1917  uint256 amountOut */\n      0x00\n        /* \"TEST/test.sol\":1935:1944  wethToken */\n      0x01\n      0x00\n      swap1\n      sload\n      swap1\n      0x0100\n      exp\n      swap1\n      div\n      0xffffffffffffffffffffffffffffffffffffffff\n      and\n        /* \"TEST/test.sol\":1935:1957  wethToken.transferFrom */\n      0xffffffffffffffffffffffffffffffffffffffff\n      and\n      0x23b872dd\n        /* \"TEST/test.sol\":1958:1968  msg.sender */\n      caller\n        /* \"TEST/test.sol\":1977:1981  this */\n      address\n        /* \"TEST/test.sol\":1983:1991  amountIn */\n      dup6\n        /* \"TEST/test.sol\":1935:1992  wethToken.transferFrom(msg.sender,address(this),amountIn) */\n      mload(0x40)\n      dup5\n      0xffffffff\n      and\n      0xe0\n      shl\n      dup2\n      mstore\n      0x04\n      add\n      tag_76\n      swap4\n      swap3\n      swap2\n      swap1\n      tag_50\n      jump\t// in\n    tag_76:\n      0x20\n      mload(0x40)\n      dup1\n      dup4\n      sub\n      dup2\n      0x00\n      dup8\n      dup1\n      extcodesize\n      iszero\n      dup1\n      iszero\n      tag_77\n      jumpi\n      0x00\n      dup1\n      revert\n    tag_77:\n      pop\n      gas\n      call\n      iszero\n      dup1\n      iszero\n      tag_79\n      jumpi\n      returndatasize\n      0x00\n      dup1\n      returndatacopy\n      revert(0x00, returndatasize)\n    tag_79:\n      pop\n      pop\n      pop\n      pop\n      mload(0x40)\n      returndatasize\n      not(0x1f)\n      0x1f\n      dup3\n      add\n      and\n      dup3\n      add\n      dup1\n      0x40\n      mstore\n      pop\n      dup2\n      add\n      swap1\n      tag_80\n      swap2\n      swap1\n      tag_55\n      jump\t// in\n    tag_80:\n      pop\n        /* \"TEST/test.sol\":2003:2012  wethToken */\n      0x01\n      0x00\n      swap1\n      sload\n      swap1\n      0x0100\n      exp\n      swap1\n      div\n      0xffffffffffffffffffffffffffffffffffffffff\n      and\n        /* \"TEST/test.sol\":2003:2020  wethToken.approve */\n      0xffffffffffffffffffffffffffffffffffffffff\n      and\n      0x095ea7b3\n        /* \"TEST/test.sol\":2029:2039  swapRouter */\n      immutable(\"0x840881693295f1213bc621234bc18aa1727c90c9e1416799df22e18f9c7c029b\")\n        /* \"TEST/test.sol\":2042:2050  amountIn */\n      dup5\n        /* \"TEST/test.sol\":2003:2051  wethToken.approve(address(swapRouter), amountIn) */\n      mload(0x40)\n      dup4\n      0xffffffff\n      and\n      0xe0\n      shl\n      dup2\n      mstore\n      0x04\n      add\n      tag_81\n      swap3\n      swap2\n      swap1\n      tag_57\n      jump\t// in\n    tag_81:\n      0x20\n      mload(0x40)\n      dup1\n      dup4\n      sub\n      dup2\n      0x00\n      dup8\n      dup1\n      extcodesize\n      iszero\n      dup1\n      iszero\n      tag_82\n      jumpi\n      0x00\n      dup1\n      revert\n    tag_82:\n      pop\n      gas\n      call\n      iszero\n      dup1\n      iszero\n      tag_84\n      jumpi\n      returndatasize\n      0x00\n      dup1\n      returndatacopy\n      revert(0x00, returndatasize)\n    tag_84:\n      pop\n      pop\n      pop\n      pop\n      mload(0x40)\n      returndatasize\n      not(0x1f)\n      0x1f\n      dup3\n      add\n      and\n      dup3\n      add\n      dup1\n      0x40\n      mstore\n      pop\n      dup2\n      add\n      swap1\n      tag_85\n      swap2\n      swap1\n      tag_55\n      jump\t// in\n    tag_85:\n      pop\n        /* \"TEST/test.sol\":2064:2112  ISwapRouter.ExactInputSingleParams memory params */\n      0x00\n        /* \"TEST/test.sol\":2115:2477  ISwapRouter\r... */\n      mload(0x40)\n      dup1\n      0x0100\n      add\n      0x40\n      mstore\n      dup1\n        /* \"TEST/test.sol\":820:862  0xB4FBF271143F4FBf7B91A5ded31805e42b2208d6 */\n      0xb4fbf271143f4fbf7b91a5ded31805e42b2208d6\n        /* \"TEST/test.sol\":2115:2477  ISwapRouter\r... */\n      0xffffffffffffffffffffffffffffffffffffffff\n      and\n      dup2\n      mstore\n      0x20\n      add\n        /* \"TEST/test.sol\":740:782  0x326C977E6efc84E512bB9C30f76E30c160eD06FB */\n      0x326c977e6efc84e512bb9c30f76e30c160ed06fb\n        /* \"TEST/test.sol\":2115:2477  ISwapRouter\r... */\n      0xffffffffffffffffffffffffffffffffffffffff\n      and\n      dup2\n      mstore\n      0x20\n      add\n        /* \"TEST/test.sol\":1021:1025  3000 */\n      0x0bb8\n        /* \"TEST/test.sol\":2115:2477  ISwapRouter\r... */\n      0xffffff\n      and\n      dup2\n      mstore\n      0x20\n      add\n        /* \"TEST/test.sol\":2298:2302  this */\n      address\n        /* \"TEST/test.sol\":2115:2477  ISwapRouter\r... */\n      0xffffffffffffffffffffffffffffffffffffffff\n      and\n      dup2\n      mstore\n      0x20\n      add\n        /* \"TEST/test.sol\":2332:2347  block.timestamp */\n      timestamp\n        /* \"TEST/test.sol\":2115:2477  ISwapRouter\r... */\n      dup2\n      mstore\n      0x20\n      add\n        /* \"TEST/test.sol\":2376:2384  amountIn */\n      dup5\n        /* \"TEST/test.sol\":2115:2477  ISwapRouter\r... */\n      dup2\n      mstore\n      0x20\n      add\n        /* \"TEST/test.sol\":2421:2422  0 */\n      0x00\n        /* \"TEST/test.sol\":2115:2477  ISwapRouter\r... */\n      dup2\n      mstore\n      0x20\n      add\n        /* \"TEST/test.sol\":2460:2461  0 */\n      0x00\n        /* \"TEST/test.sol\":2115:2477  ISwapRouter\r... */\n      0xffffffffffffffffffffffffffffffffffffffff\n      and\n      dup2\n      mstore\n      pop\n        /* \"TEST/test.sol\":2064:2477  ISwapRouter.ExactInputSingleParams memory params = ISwapRouter\r... */\n      swap1\n      pop\n        /* \"TEST/test.sol\":2502:2512  swapRouter */\n      immutable(\"0x840881693295f1213bc621234bc18aa1727c90c9e1416799df22e18f9c7c029b\")\n        /* \"TEST/test.sol\":2502:2529  swapRouter.exactInputSingle */\n      0xffffffffffffffffffffffffffffffffffffffff\n      and\n      0x414bf389\n        /* \"TEST/test.sol\":2530:2536  params */\n      dup3\n        /* \"TEST/test.sol\":2502:2537  swapRouter.exactInputSingle(params) */\n      mload(0x40)\n      dup3\n      0xffffffff\n      and\n      0xe0\n      shl\n      dup2\n      mstore\n      0x04\n      add\n      tag_86\n      swap2\n      swap1\n      tag_63\n      jump\t// in\n    tag_86:\n      0x20\n      mload(0x40)\n      dup1\n      dup4\n      sub\n      dup2\n      0x00\n      dup8\n      dup1\n      extcodesize\n      iszero\n      dup1\n      iszero\n      tag_87\n      jumpi\n      0x00\n      dup1\n      revert\n    tag_87:\n      pop\n      gas\n      call\n      iszero\n      dup1\n      iszero\n      tag_89\n      jumpi\n      returndatasize\n      0x00\n      dup1\n      returndatacopy\n      revert(0x00, returndatasize)\n    tag_89:\n      pop\n      pop\n      pop\n      pop\n      mload(0x40)\n      returndatasize\n      not(0x1f)\n      0x1f\n      dup3\n      add\n      and\n      dup3\n      add\n      dup1\n      0x40\n      mstore\n      pop\n      dup2\n      add\n      swap1\n      tag_90\n      swap2\n      swap1\n      tag_68\n      jump\t// in\n    tag_90:\n        /* \"TEST/test.sol\":2490:2537  amountOut = swapRouter.exactInputSingle(params) */\n      swap2\n      pop\n        /* \"TEST/test.sol\":2548:2557  linkToken */\n      0x00\n      dup1\n      sload\n      swap1\n      0x0100\n      exp\n      swap1\n      div\n      0xffffffffffffffffffffffffffffffffffffffff\n      and\n        /* \"TEST/test.sol\":2548:2566  linkToken.transfer */\n      0xffffffffffffffffffffffffffffffffffffffff\n      and\n      0xa9059cbb\n        /* \"TEST/test.sol\":2567:2577  msg.sender */\n      caller\n        /* \"TEST/test.sol\":2579:2588  amountOut */\n      dup5\n        /* \"TEST/test.sol\":2548:2589  linkToken.transfer(msg.sender, amountOut) */\n      mload(0x40)\n      dup4\n      0xffffffff\n      and\n      0xe0\n      shl\n      dup2\n      mstore\n      0x04\n      add\n      tag_91\n      swap3\n      swap2\n      swap1\n      tag_70\n      jump\t// in\n    tag_91:\n      0x20\n      mload(0x40)\n      dup1\n      dup4\n      sub\n      dup2\n      0x00\n      dup8\n      dup1\n      extcodesize\n      iszero\n      dup1\n      iszero\n      tag_92\n      jumpi\n      0x00\n      dup1\n      revert\n    tag_92:\n      pop\n      gas\n      call\n      iszero\n      dup1\n      iszero\n      tag_94\n      jumpi\n      returndatasize\n      0x00\n      dup1\n      returndatacopy\n      revert(0x00, returndatasize)\n    tag_94:\n      pop\n      pop\n      pop\n      pop\n      mload(0x40)\n      returndatasize\n      not(0x1f)\n      0x1f\n      dup3\n      add\n      and\n      dup3\n      add\n      dup1\n      0x40\n      mstore\n      pop\n      dup2\n      add\n      swap1\n      tag_95\n      swap2\n      swap1\n      tag_55\n      jump\t// in\n    tag_95:\n      pop\n        /* \"TEST/test.sol\":1827:2597  function swapReverseExactInputSingle(uint256 amountIn) external returns (uint256 amountOut)\r... */\n      pop\n      swap2\n      swap1\n      pop\n      jump\t// out\n        /* \"TEST/test.sol\":789:862  address public constant WETH = 0xB4FBF271143F4FBf7B91A5ded31805e42b2208d6 */\n    tag_42:\n        /* \"TEST/test.sol\":820:862  0xB4FBF271143F4FBf7B91A5ded31805e42b2208d6 */\n      0xb4fbf271143f4fbf7b91a5ded31805e42b2208d6\n        /* \"TEST/test.sol\":789:862  address public constant WETH = 0xB4FBF271143F4FBf7B91A5ded31805e42b2208d6 */\n      dup2\n      jump\t// out\n        /* \"TEST/test.sol\":632:700  ISwapRouter public immutable swapRouter = ISwapRouter(routerAddress) */\n    tag_45:\n      immutable(\"0x840881693295f1213bc621234bc18aa1727c90c9e1416799df22e18f9c7c029b\")\n      dup2\n      jump\t// out\n        /* \"#utility.yul\":7:144   */\n    tag_97:\n      0x00\n        /* \"#utility.yul\":92:98   */\n      dup2\n        /* \"#utility.yul\":86:99   */\n      mload\n        /* \"#utility.yul\":77:99   */\n      swap1\n      pop\n        /* \"#utility.yul\":108:138   */\n      tag_99\n        /* \"#utility.yul\":132:137   */\n      dup2\n        /* \"#utility.yul\":108:138   */\n      tag_100\n      jump\t// in\n    tag_99:\n        /* \"#utility.yul\":67:144   */\n      swap3\n      swap2\n      pop\n      pop\n      jump\t// out\n        /* \"#utility.yul\":150:289   */\n    tag_101:\n      0x00\n        /* \"#utility.yul\":234:240   */\n      dup2\n        /* \"#utility.yul\":221:241   */\n      calldataload\n        /* \"#utility.yul\":212:241   */\n      swap1\n      pop\n        /* \"#utility.yul\":250:283   */\n      tag_103\n        /* \"#utility.yul\":277:282   */\n      dup2\n        /* \"#utility.yul\":250:283   */\n      tag_104\n      jump\t// in\n    tag_103:\n        /* \"#utility.yul\":202:289   */\n      swap3\n      swap2\n      pop\n      pop\n      jump\t// out\n        /* \"#utility.yul\":295:438   */\n    tag_105:\n      0x00\n        /* \"#utility.yul\":383:389   */\n      dup2\n        /* \"#utility.yul\":377:390   */\n      mload\n        /* \"#utility.yul\":368:390   */\n      swap1\n      pop\n        /* \"#utility.yul\":399:432   */\n      tag_107\n        /* \"#utility.yul\":426:431   */\n      dup2\n        /* \"#utility.yul\":399:432   */\n      tag_104\n      jump\t// in\n    tag_107:\n        /* \"#utility.yul\":358:438   */\n      swap3\n      swap2\n      pop\n      pop\n      jump\t// out\n        /* \"#utility.yul\":444:722   */\n    tag_55:\n      0x00\n        /* \"#utility.yul\":560:562   */\n      0x20\n        /* \"#utility.yul\":548:557   */\n      dup3\n        /* \"#utility.yul\":539:546   */\n      dup5\n        /* \"#utility.yul\":535:558   */\n      sub\n        /* \"#utility.yul\":531:563   */\n      slt\n        /* \"#utility.yul\":528:530   */\n      iszero\n      tag_109\n      jumpi\n        /* \"#utility.yul\":576:577   */\n      0x00\n        /* \"#utility.yul\":573:574   */\n      dup1\n        /* \"#utility.yul\":566:578   */\n      revert\n        /* \"#utility.yul\":528:530   */\n    tag_109:\n        /* \"#utility.yul\":619:620   */\n      0x00\n        /* \"#utility.yul\":644:705   */\n      tag_110\n        /* \"#utility.yul\":697:704   */\n      dup5\n        /* \"#utility.yul\":688:694   */\n      dup3\n        /* \"#utility.yul\":677:686   */\n      dup6\n        /* \"#utility.yul\":673:695   */\n      add\n        /* \"#utility.yul\":644:705   */\n      tag_97\n      jump\t// in\n    tag_110:\n        /* \"#utility.yul\":634:705   */\n      swap2\n      pop\n        /* \"#utility.yul\":590:715   */\n      pop\n        /* \"#utility.yul\":518:722   */\n      swap3\n      swap2\n      pop\n      pop\n      jump\t// out\n        /* \"#utility.yul\":728:990   */\n    tag_33:\n      0x00\n        /* \"#utility.yul\":836:838   */\n      0x20\n        /* \"#utility.yul\":824:833   */\n      dup3\n        /* \"#utility.yul\":815:822   */\n      dup5\n        /* \"#utility.yul\":811:834   */\n      sub\n        /* \"#utility.yul\":807:839   */\n      slt\n        /* \"#utility.yul\":804:806   */\n      iszero\n      tag_112\n      jumpi\n        /* \"#utility.yul\":852:853   */\n      0x00\n        /* \"#utility.yul\":849:850   */\n      dup1\n        /* \"#utility.yul\":842:854   */\n      revert\n        /* \"#utility.yul\":804:806   */\n    tag_112:\n        /* \"#utility.yul\":895:896   */\n      0x00\n        /* \"#utility.yul\":920:973   */\n      tag_113\n        /* \"#utility.yul\":965:972   */\n      dup5\n        /* \"#utility.yul\":956:962   */\n      dup3\n        /* \"#utility.yul\":945:954   */\n      dup6\n        /* \"#utility.yul\":941:963   */\n      add\n        /* \"#utility.yul\":920:973   */\n      tag_101\n      jump\t// in\n    tag_113:\n        /* \"#utility.yul\":910:973   */\n      swap2\n      pop\n        /* \"#utility.yul\":866:983   */\n      pop\n        /* \"#utility.yul\":794:990   */\n      swap3\n      swap2\n      pop\n      pop\n      jump\t// out\n        /* \"#utility.yul\":996:1280   */\n    tag_68:\n      0x00\n        /* \"#utility.yul\":1115:1117   */\n      0x20\n        /* \"#utility.yul\":1103:1112   */\n      dup3\n        /* \"#utility.yul\":1094:1101   */\n      dup5\n        /* \"#utility.yul\":1090:1113   */\n      sub\n        /* \"#utility.yul\":1086:1118   */\n      slt\n        /* \"#utility.yul\":1083:1085   */\n      iszero\n      tag_115\n      jumpi\n        /* \"#utility.yul\":1131:1132   */\n      0x00\n        /* \"#utility.yul\":1128:1129   */\n      dup1\n        /* \"#utility.yul\":1121:1133   */\n      revert\n        /* \"#utility.yul\":1083:1085   */\n    tag_115:\n        /* \"#utility.yul\":1174:1175   */\n      0x00\n        /* \"#utility.yul\":1199:1263   */\n      tag_116\n        /* \"#utility.yul\":1255:1262   */\n      dup5\n        /* \"#utility.yul\":1246:1252   */\n      dup3\n        /* \"#utility.yul\":1235:1244   */\n      dup6\n        /* \"#utility.yul\":1231:1253   */\n      add\n        /* \"#utility.yul\":1199:1263   */\n      tag_105\n      jump\t// in\n    tag_116:\n        /* \"#utility.yul\":1189:1263   */\n      swap2\n      pop\n        /* \"#utility.yul\":1145:1273   */\n      pop\n        /* \"#utility.yul\":1073:1280   */\n      swap3\n      swap2\n      pop\n      pop\n      jump\t// out\n        /* \"#utility.yul\":1286:1433   */\n    tag_117:\n        /* \"#utility.yul\":1381:1426   */\n      tag_119\n        /* \"#utility.yul\":1420:1425   */\n      dup2\n        /* \"#utility.yul\":1381:1426   */\n      tag_120\n      jump\t// in\n    tag_119:\n        /* \"#utility.yul\":1376:1379   */\n      dup3\n        /* \"#utility.yul\":1369:1427   */\n      mstore\n        /* \"#utility.yul\":1359:1433   */\n      pop\n      pop\n      jump\t// out\n        /* \"#utility.yul\":1439:1547   */\n    tag_121:\n        /* \"#utility.yul\":1516:1540   */\n      tag_123\n        /* \"#utility.yul\":1534:1539   */\n      dup2\n        /* \"#utility.yul\":1516:1540   */\n      tag_124\n      jump\t// in\n    tag_123:\n        /* \"#utility.yul\":1511:1514   */\n      dup3\n        /* \"#utility.yul\":1504:1541   */\n      mstore\n        /* \"#utility.yul\":1494:1547   */\n      pop\n      pop\n      jump\t// out\n        /* \"#utility.yul\":1553:1671   */\n    tag_125:\n        /* \"#utility.yul\":1640:1664   */\n      tag_127\n        /* \"#utility.yul\":1658:1663   */\n      dup2\n        /* \"#utility.yul\":1640:1664   */\n      tag_124\n      jump\t// in\n    tag_127:\n        /* \"#utility.yul\":1635:1638   */\n      dup3\n        /* \"#utility.yul\":1628:1665   */\n      mstore\n        /* \"#utility.yul\":1618:1671   */\n      pop\n      pop\n      jump\t// out\n        /* \"#utility.yul\":1677:1836   */\n    tag_128:\n        /* \"#utility.yul\":1778:1829   */\n      tag_130\n        /* \"#utility.yul\":1823:1828   */\n      dup2\n        /* \"#utility.yul\":1778:1829   */\n      tag_131\n      jump\t// in\n    tag_130:\n        /* \"#utility.yul\":1773:1776   */\n      dup3\n        /* \"#utility.yul\":1766:1830   */\n      mstore\n        /* \"#utility.yul\":1756:1836   */\n      pop\n      pop\n      jump\t// out\n        /* \"#utility.yul\":1842:2011   */\n    tag_132:\n        /* \"#utility.yul\":1948:2004   */\n      tag_134\n        /* \"#utility.yul\":1998:2003   */\n      dup2\n        /* \"#utility.yul\":1948:2004   */\n      tag_135\n      jump\t// in\n    tag_134:\n        /* \"#utility.yul\":1943:1946   */\n      dup3\n        /* \"#utility.yul\":1936:2005   */\n      mstore\n        /* \"#utility.yul\":1926:2011   */\n      pop\n      pop\n      jump\t// out\n        /* \"#utility.yul\":2111:3732   */\n    tag_136:\n        /* \"#utility.yul\":2284:2290   */\n      0x0100\n        /* \"#utility.yul\":2279:2282   */\n      dup3\n        /* \"#utility.yul\":2275:2291   */\n      add\n        /* \"#utility.yul\":2376:2380   */\n      0x00\n        /* \"#utility.yul\":2369:2374   */\n      dup3\n        /* \"#utility.yul\":2365:2381   */\n      add\n        /* \"#utility.yul\":2359:2382   */\n      mload\n        /* \"#utility.yul\":2395:2458   */\n      tag_138\n        /* \"#utility.yul\":2452:2456   */\n      0x00\n        /* \"#utility.yul\":2447:2450   */\n      dup6\n        /* \"#utility.yul\":2443:2457   */\n      add\n        /* \"#utility.yul\":2429:2441   */\n      dup3\n        /* \"#utility.yul\":2395:2458   */\n      tag_121\n      jump\t// in\n    tag_138:\n        /* \"#utility.yul\":2301:2468   */\n      pop\n        /* \"#utility.yul\":2554:2558   */\n      0x20\n        /* \"#utility.yul\":2547:2552   */\n      dup3\n        /* \"#utility.yul\":2543:2559   */\n      add\n        /* \"#utility.yul\":2537:2560   */\n      mload\n        /* \"#utility.yul\":2573:2636   */\n      tag_139\n        /* \"#utility.yul\":2630:2634   */\n      0x20\n        /* \"#utility.yul\":2625:2628   */\n      dup6\n        /* \"#utility.yul\":2621:2635   */\n      add\n        /* \"#utility.yul\":2607:2619   */\n      dup3\n        /* \"#utility.yul\":2573:2636   */\n      tag_121\n      jump\t// in\n    tag_139:\n        /* \"#utility.yul\":2478:2646   */\n      pop\n        /* \"#utility.yul\":2727:2731   */\n      0x40\n        /* \"#utility.yul\":2720:2725   */\n      dup3\n        /* \"#utility.yul\":2716:2732   */\n      add\n        /* \"#utility.yul\":2710:2733   */\n      mload\n        /* \"#utility.yul\":2746:2807   */\n      tag_140\n        /* \"#utility.yul\":2801:2805   */\n      0x40\n        /* \"#utility.yul\":2796:2799   */\n      dup6\n        /* \"#utility.yul\":2792:2806   */\n      add\n        /* \"#utility.yul\":2778:2790   */\n      dup3\n        /* \"#utility.yul\":2746:2807   */\n      tag_141\n      jump\t// in\n    tag_140:\n        /* \"#utility.yul\":2656:2817   */\n      pop\n        /* \"#utility.yul\":2904:2908   */\n      0x60\n        /* \"#utility.yul\":2897:2902   */\n      dup3\n        /* \"#utility.yul\":2893:2909   */\n      add\n        /* \"#utility.yul\":2887:2910   */\n      mload\n        /* \"#utility.yul\":2923:2986   */\n      tag_142\n        /* \"#utility.yul\":2980:2984   */\n      0x60\n        /* \"#utility.yul\":2975:2978   */\n      dup6\n        /* \"#utility.yul\":2971:2985   */\n      add\n        /* \"#utility.yul\":2957:2969   */\n      dup3\n        /* \"#utility.yul\":2923:2986   */\n      tag_121\n      jump\t// in\n    tag_142:\n        /* \"#utility.yul\":2827:2996   */\n      pop\n        /* \"#utility.yul\":3082:3086   */\n      0x80\n        /* \"#utility.yul\":3075:3080   */\n      dup3\n        /* \"#utility.yul\":3071:3087   */\n      add\n        /* \"#utility.yul\":3065:3088   */\n      mload\n        /* \"#utility.yul\":3101:3164   */\n      tag_143\n        /* \"#utility.yul\":3158:3162   */\n      0x80\n        /* \"#utility.yul\":3153:3156   */\n      dup6\n        /* \"#utility.yul\":3149:3163   */\n      add\n        /* \"#utility.yul\":3135:3147   */\n      dup3\n        /* \"#utility.yul\":3101:3164   */\n      tag_144\n      jump\t// in\n    tag_143:\n        /* \"#utility.yul\":3006:3174   */\n      pop\n        /* \"#utility.yul\":3260:3264   */\n      0xa0\n        /* \"#utility.yul\":3253:3258   */\n      dup3\n        /* \"#utility.yul\":3249:3265   */\n      add\n        /* \"#utility.yul\":3243:3266   */\n      mload\n        /* \"#utility.yul\":3279:3342   */\n      tag_145\n        /* \"#utility.yul\":3336:3340   */\n      0xa0\n        /* \"#utility.yul\":3331:3334   */\n      dup6\n        /* \"#utility.yul\":3327:3341   */\n      add\n        /* \"#utility.yul\":3313:3325   */\n      dup3\n        /* \"#utility.yul\":3279:3342   */\n      tag_144\n      jump\t// in\n    tag_145:\n        /* \"#utility.yul\":3184:3352   */\n      pop\n        /* \"#utility.yul\":3446:3450   */\n      0xc0\n        /* \"#utility.yul\":3439:3444   */\n      dup3\n        /* \"#utility.yul\":3435:3451   */\n      add\n        /* \"#utility.yul\":3429:3452   */\n      mload\n        /* \"#utility.yul\":3465:3528   */\n      tag_146\n        /* \"#utility.yul\":3522:3526   */\n      0xc0\n        /* \"#utility.yul\":3517:3520   */\n      dup6\n        /* \"#utility.yul\":3513:3527   */\n      add\n        /* \"#utility.yul\":3499:3511   */\n      dup3\n        /* \"#utility.yul\":3465:3528   */\n      tag_144\n      jump\t// in\n    tag_146:\n        /* \"#utility.yul\":3362:3538   */\n      pop\n        /* \"#utility.yul\":3633:3637   */\n      0xe0\n        /* \"#utility.yul\":3626:3631   */\n      dup3\n        /* \"#utility.yul\":3622:3638   */\n      add\n        /* \"#utility.yul\":3616:3639   */\n      mload\n        /* \"#utility.yul\":3652:3715   */\n      tag_147\n        /* \"#utility.yul\":3709:3713   */\n      0xe0\n        /* \"#utility.yul\":3704:3707   */\n      dup6\n        /* \"#utility.yul\":3700:3714   */\n      add\n        /* \"#utility.yul\":3686:3698   */\n      dup3\n        /* \"#utility.yul\":3652:3715   */\n      tag_148\n      jump\t// in\n    tag_147:\n        /* \"#utility.yul\":3548:3725   */\n      pop\n        /* \"#utility.yul\":2253:3732   */\n      pop\n      pop\n      pop\n      jump\t// out\n        /* \"#utility.yul\":3738:3846   */\n    tag_148:\n        /* \"#utility.yul\":3815:3839   */\n      tag_150\n        /* \"#utility.yul\":3833:3838   */\n      dup2\n        /* \"#utility.yul\":3815:3839   */\n      tag_151\n      jump\t// in\n    tag_150:\n        /* \"#utility.yul\":3810:3813   */\n      dup3\n        /* \"#utility.yul\":3803:3840   */\n      mstore\n        /* \"#utility.yul\":3793:3846   */\n      pop\n      pop\n      jump\t// out\n        /* \"#utility.yul\":3852:3957   */\n    tag_141:\n        /* \"#utility.yul\":3927:3950   */\n      tag_153\n        /* \"#utility.yul\":3944:3949   */\n      dup2\n        /* \"#utility.yul\":3927:3950   */\n      tag_154\n      jump\t// in\n    tag_153:\n        /* \"#utility.yul\":3922:3925   */\n      dup3\n        /* \"#utility.yul\":3915:3951   */\n      mstore\n        /* \"#utility.yul\":3905:3957   */\n      pop\n      pop\n      jump\t// out\n        /* \"#utility.yul\":3963:4078   */\n    tag_155:\n        /* \"#utility.yul\":4048:4071   */\n      tag_157\n        /* \"#utility.yul\":4065:4070   */\n      dup2\n        /* \"#utility.yul\":4048:4071   */\n      tag_154\n      jump\t// in\n    tag_157:\n        /* \"#utility.yul\":4043:4046   */\n      dup3\n        /* \"#utility.yul\":4036:4072   */\n      mstore\n        /* \"#utility.yul\":4026:4078   */\n      pop\n      pop\n      jump\t// out\n        /* \"#utility.yul\":4084:4192   */\n    tag_144:\n        /* \"#utility.yul\":4161:4185   */\n      tag_159\n        /* \"#utility.yul\":4179:4184   */\n      dup2\n        /* \"#utility.yul\":4161:4185   */\n      tag_160\n      jump\t// in\n    tag_159:\n        /* \"#utility.yul\":4156:4159   */\n      dup3\n        /* \"#utility.yul\":4149:4186   */\n      mstore\n        /* \"#utility.yul\":4139:4192   */\n      pop\n      pop\n      jump\t// out\n        /* \"#utility.yul\":4198:4316   */\n    tag_161:\n        /* \"#utility.yul\":4285:4309   */\n      tag_163\n        /* \"#utility.yul\":4303:4308   */\n      dup2\n        /* \"#utility.yul\":4285:4309   */\n      tag_160\n      jump\t// in\n    tag_163:\n        /* \"#utility.yul\":4280:4283   */\n      dup3\n        /* \"#utility.yul\":4273:4310   */\n      mstore\n        /* \"#utility.yul\":4263:4316   */\n      pop\n      pop\n      jump\t// out\n        /* \"#utility.yul\":4322:4544   */\n    tag_20:\n      0x00\n        /* \"#utility.yul\":4453:4455   */\n      0x20\n        /* \"#utility.yul\":4442:4451   */\n      dup3\n        /* \"#utility.yul\":4438:4456   */\n      add\n        /* \"#utility.yul\":4430:4456   */\n      swap1\n      pop\n        /* \"#utility.yul\":4466:4537   */\n      tag_165\n        /* \"#utility.yul\":4534:4535   */\n      0x00\n        /* \"#utility.yul\":4523:4532   */\n      dup4\n        /* \"#utility.yul\":4519:4536   */\n      add\n        /* \"#utility.yul\":4510:4516   */\n      dup5\n        /* \"#utility.yul\":4466:4537   */\n      tag_125\n      jump\t// in\n    tag_165:\n        /* \"#utility.yul\":4420:4544   */\n      swap3\n      swap2\n      pop\n      pop\n      jump\t// out\n        /* \"#utility.yul\":4550:5008   */\n    tag_50:\n      0x00\n        /* \"#utility.yul\":4745:4747   */\n      0x60\n        /* \"#utility.yul\":4734:4743   */\n      dup3\n        /* \"#utility.yul\":4730:4748   */\n      add\n        /* \"#utility.yul\":4722:4748   */\n      swap1\n      pop\n        /* \"#utility.yul\":4758:4837   */\n      tag_167\n        /* \"#utility.yul\":4834:4835   */\n      0x00\n        /* \"#utility.yul\":4823:4832   */\n      dup4\n        /* \"#utility.yul\":4819:4836   */\n      add\n        /* \"#utility.yul\":4810:4816   */\n      dup7\n        /* \"#utility.yul\":4758:4837   */\n      tag_117\n      jump\t// in\n    tag_167:\n        /* \"#utility.yul\":4847:4919   */\n      tag_168\n        /* \"#utility.yul\":4915:4917   */\n      0x20\n        /* \"#utility.yul\":4904:4913   */\n      dup4\n        /* \"#utility.yul\":4900:4918   */\n      add\n        /* \"#utility.yul\":4891:4897   */\n      dup6\n        /* \"#utility.yul\":4847:4919   */\n      tag_125\n      jump\t// in\n    tag_168:\n        /* \"#utility.yul\":4929:5001   */\n      tag_169\n        /* \"#utility.yul\":4997:4999   */\n      0x40\n        /* \"#utility.yul\":4986:4995   */\n      dup4\n        /* \"#utility.yul\":4982:5000   */\n      add\n        /* \"#utility.yul\":4973:4979   */\n      dup5\n        /* \"#utility.yul\":4929:5001   */\n      tag_161\n      jump\t// in\n    tag_169:\n        /* \"#utility.yul\":4712:5008   */\n      swap5\n      swap4\n      pop\n      pop\n      pop\n      pop\n      jump\t// out\n        /* \"#utility.yul\":5014:5362   */\n    tag_70:\n      0x00\n        /* \"#utility.yul\":5181:5183   */\n      0x40\n        /* \"#utility.yul\":5170:5179   */\n      dup3\n        /* \"#utility.yul\":5166:5184   */\n      add\n        /* \"#utility.yul\":5158:5184   */\n      swap1\n      pop\n        /* \"#utility.yul\":5194:5273   */\n      tag_171\n        /* \"#utility.yul\":5270:5271   */\n      0x00\n        /* \"#utility.yul\":5259:5268   */\n      dup4\n        /* \"#utility.yul\":5255:5272   */\n      add\n        /* \"#utility.yul\":5246:5252   */\n      dup6\n        /* \"#utility.yul\":5194:5273   */\n      tag_117\n      jump\t// in\n    tag_171:\n        /* \"#utility.yul\":5283:5355   */\n      tag_172\n        /* \"#utility.yul\":5351:5353   */\n      0x20\n        /* \"#utility.yul\":5340:5349   */\n      dup4\n        /* \"#utility.yul\":5336:5354   */\n      add\n        /* \"#utility.yul\":5327:5333   */\n      dup5\n        /* \"#utility.yul\":5283:5355   */\n      tag_161\n      jump\t// in\n    tag_172:\n        /* \"#utility.yul\":5148:5362   */\n      swap4\n      swap3\n      pop\n      pop\n      pop\n      jump\t// out\n        /* \"#utility.yul\":5368:5700   */\n    tag_57:\n      0x00\n        /* \"#utility.yul\":5527:5529   */\n      0x40\n        /* \"#utility.yul\":5516:5525   */\n      dup3\n        /* \"#utility.yul\":5512:5530   */\n      add\n        /* \"#utility.yul\":5504:5530   */\n      swap1\n      pop\n        /* \"#utility.yul\":5540:5611   */\n      tag_174\n        /* \"#utility.yul\":5608:5609   */\n      0x00\n        /* \"#utility.yul\":5597:5606   */\n      dup4\n        /* \"#utility.yul\":5593:5610   */\n      add\n        /* \"#utility.yul\":5584:5590   */\n      dup6\n        /* \"#utility.yul\":5540:5611   */\n      tag_125\n      jump\t// in\n    tag_174:\n        /* \"#utility.yul\":5621:5693   */\n      tag_175\n        /* \"#utility.yul\":5689:5691   */\n      0x20\n        /* \"#utility.yul\":5678:5687   */\n      dup4\n        /* \"#utility.yul\":5674:5692   */\n      add\n        /* \"#utility.yul\":5665:5671   */\n      dup5\n        /* \"#utility.yul\":5621:5693   */\n      tag_161\n      jump\t// in\n    tag_175:\n        /* \"#utility.yul\":5494:5700   */\n      swap4\n      swap3\n      pop\n      pop\n      pop\n      jump\t// out\n        /* \"#utility.yul\":5706:5956   */\n    tag_27:\n      0x00\n        /* \"#utility.yul\":5851:5853   */\n      0x20\n        /* \"#utility.yul\":5840:5849   */\n      dup3\n        /* \"#utility.yul\":5836:5854   */\n      add\n        /* \"#utility.yul\":5828:5854   */\n      swap1\n      pop\n        /* \"#utility.yul\":5864:5949   */\n      tag_177\n        /* \"#utility.yul\":5946:5947   */\n      0x00\n        /* \"#utility.yul\":5935:5944   */\n      dup4\n        /* \"#utility.yul\":5931:5948   */\n      add\n        /* \"#utility.yul\":5922:5928   */\n      dup5\n        /* \"#utility.yul\":5864:5949   */\n      tag_128\n      jump\t// in\n    tag_177:\n        /* \"#utility.yul\":5818:5956   */\n      swap3\n      swap2\n      pop\n      pop\n      jump\t// out\n        /* \"#utility.yul\":5962:6222   */\n    tag_47:\n      0x00\n        /* \"#utility.yul\":6112:6114   */\n      0x20\n        /* \"#utility.yul\":6101:6110   */\n      dup3\n        /* \"#utility.yul\":6097:6115   */\n      add\n        /* \"#utility.yul\":6089:6115   */\n      swap1\n      pop\n        /* \"#utility.yul\":6125:6215   */\n      tag_179\n        /* \"#utility.yul\":6212:6213   */\n      0x00\n        /* \"#utility.yul\":6201:6210   */\n      dup4\n        /* \"#utility.yul\":6197:6214   */\n      add\n        /* \"#utility.yul\":6188:6194   */\n      dup5\n        /* \"#utility.yul\":6125:6215   */\n      tag_132\n      jump\t// in\n    tag_179:\n        /* \"#utility.yul\":6079:6222   */\n      swap3\n      swap2\n      pop\n      pop\n      jump\t// out\n        /* \"#utility.yul\":6228:6603   */\n    tag_63:\n      0x00\n        /* \"#utility.yul\":6435:6438   */\n      0x0100\n        /* \"#utility.yul\":6424:6433   */\n      dup3\n        /* \"#utility.yul\":6420:6439   */\n      add\n        /* \"#utility.yul\":6412:6439   */\n      swap1\n      pop\n        /* \"#utility.yul\":6449:6596   */\n      tag_181\n        /* \"#utility.yul\":6593:6594   */\n      0x00\n        /* \"#utility.yul\":6582:6591   */\n      dup4\n        /* \"#utility.yul\":6578:6595   */\n      add\n        /* \"#utility.yul\":6569:6575   */\n      dup5\n        /* \"#utility.yul\":6449:6596   */\n      tag_136\n      jump\t// in\n    tag_181:\n        /* \"#utility.yul\":6402:6603   */\n      swap3\n      swap2\n      pop\n      pop\n      jump\t// out\n        /* \"#utility.yul\":6609:6827   */\n    tag_16:\n      0x00\n        /* \"#utility.yul\":6738:6740   */\n      0x20\n        /* \"#utility.yul\":6727:6736   */\n      dup3\n        /* \"#utility.yul\":6723:6741   */\n      add\n        /* \"#utility.yul\":6715:6741   */\n      swap1\n      pop\n        /* \"#utility.yul\":6751:6820   */\n      tag_183\n        /* \"#utility.yul\":6817:6818   */\n      0x00\n        /* \"#utility.yul\":6806:6815   */\n      dup4\n        /* \"#utility.yul\":6802:6819   */\n      add\n        /* \"#utility.yul\":6793:6799   */\n      dup5\n        /* \"#utility.yul\":6751:6820   */\n      tag_155\n      jump\t// in\n    tag_183:\n        /* \"#utility.yul\":6705:6827   */\n      swap3\n      swap2\n      pop\n      pop\n      jump\t// out\n        /* \"#utility.yul\":6833:7055   */\n    tag_36:\n      0x00\n        /* \"#utility.yul\":6964:6966   */\n      0x20\n        /* \"#utility.yul\":6953:6962   */\n      dup3\n        /* \"#utility.yul\":6949:6967   */\n      add\n        /* \"#utility.yul\":6941:6967   */\n      swap1\n      pop\n        /* \"#utility.yul\":6977:7048   */\n      tag_185\n        /* \"#utility.yul\":7045:7046   */\n      0x00\n        /* \"#utility.yul\":7034:7043   */\n      dup4\n        /* \"#utility.yul\":7030:7047   */\n      add\n        /* \"#utility.yul\":7021:7027   */\n      dup5\n        /* \"#utility.yul\":6977:7048   */\n      tag_161\n      jump\t// in\n    tag_185:\n        /* \"#utility.yul\":6931:7055   */\n      swap3\n      swap2\n      pop\n      pop\n      jump\t// out\n        /* \"#utility.yul\":7061:7157   */\n    tag_124:\n      0x00\n        /* \"#utility.yul\":7127:7151   */\n      tag_187\n        /* \"#utility.yul\":7145:7150   */\n      dup3\n        /* \"#utility.yul\":7127:7151   */\n      tag_151\n      jump\t// in\n    tag_187:\n        /* \"#utility.yul\":7116:7151   */\n      swap1\n      pop\n        /* \"#utility.yul\":7106:7157   */\n      swap2\n      swap1\n      pop\n      jump\t// out\n        /* \"#utility.yul\":7163:7253   */\n    tag_188:\n      0x00\n        /* \"#utility.yul\":7240:7245   */\n      dup2\n        /* \"#utility.yul\":7233:7246   */\n      iszero\n        /* \"#utility.yul\":7226:7247   */\n      iszero\n        /* \"#utility.yul\":7215:7247   */\n      swap1\n      pop\n        /* \"#utility.yul\":7205:7253   */\n      swap2\n      swap1\n      pop\n      jump\t// out\n        /* \"#utility.yul\":7259:7385   */\n    tag_151:\n      0x00\n        /* \"#utility.yul\":7336:7378   */\n      0xffffffffffffffffffffffffffffffffffffffff\n        /* \"#utility.yul\":7329:7334   */\n      dup3\n        /* \"#utility.yul\":7325:7379   */\n      and\n        /* \"#utility.yul\":7314:7379   */\n      swap1\n      pop\n        /* \"#utility.yul\":7304:7385   */\n      swap2\n      swap1\n      pop\n      jump\t// out\n        /* \"#utility.yul\":7391:7482   */\n    tag_154:\n      0x00\n        /* \"#utility.yul\":7467:7475   */\n      0xffffff\n        /* \"#utility.yul\":7460:7465   */\n      dup3\n        /* \"#utility.yul\":7456:7476   */\n      and\n        /* \"#utility.yul\":7445:7476   */\n      swap1\n      pop\n        /* \"#utility.yul\":7435:7482   */\n      swap2\n      swap1\n      pop\n      jump\t// out\n        /* \"#utility.yul\":7488:7565   */\n    tag_160:\n      0x00\n        /* \"#utility.yul\":7554:7559   */\n      dup2\n        /* \"#utility.yul\":7543:7559   */\n      swap1\n      pop\n        /* \"#utility.yul\":7533:7565   */\n      swap2\n      swap1\n      pop\n      jump\t// out\n        /* \"#utility.yul\":7571:7705   */\n    tag_120:\n      0x00\n        /* \"#utility.yul\":7662:7699   */\n      tag_194\n        /* \"#utility.yul\":7693:7698   */\n      dup3\n        /* \"#utility.yul\":7662:7699   */\n      tag_195\n      jump\t// in\n    tag_194:\n        /* \"#utility.yul\":7649:7699   */\n      swap1\n      pop\n        /* \"#utility.yul\":7639:7705   */\n      swap2\n      swap1\n      pop\n      jump\t// out\n        /* \"#utility.yul\":7711:7865   */\n    tag_131:\n      0x00\n        /* \"#utility.yul\":7808:7859   */\n      tag_197\n        /* \"#utility.yul\":7853:7858   */\n      dup3\n        /* \"#utility.yul\":7808:7859   */\n      tag_198\n      jump\t// in\n    tag_197:\n        /* \"#utility.yul\":7795:7859   */\n      swap1\n      pop\n        /* \"#utility.yul\":7785:7865   */\n      swap2\n      swap1\n      pop\n      jump\t// out\n        /* \"#utility.yul\":7871:7998   */\n    tag_198:\n      0x00\n        /* \"#utility.yul\":7968:7992   */\n      tag_200\n        /* \"#utility.yul\":7986:7991   */\n      dup3\n        /* \"#utility.yul\":7968:7992   */\n      tag_151\n      jump\t// in\n    tag_200:\n        /* \"#utility.yul\":7955:7992   */\n      swap1\n      pop\n        /* \"#utility.yul\":7945:7998   */\n      swap2\n      swap1\n      pop\n      jump\t// out\n        /* \"#utility.yul\":8004:8168   */\n    tag_135:\n      0x00\n        /* \"#utility.yul\":8106:8162   */\n      tag_202\n        /* \"#utility.yul\":8156:8161   */\n      dup3\n        /* \"#utility.yul\":8106:8162   */\n      tag_203\n      jump\t// in\n    tag_202:\n        /* \"#utility.yul\":8093:8162   */\n      swap1\n      pop\n        /* \"#utility.yul\":8083:8168   */\n      swap2\n      swap1\n      pop\n      jump\t// out\n        /* \"#utility.yul\":8174:8306   */\n    tag_203:\n      0x00\n        /* \"#utility.yul\":8276:8300   */\n      tag_205\n        /* \"#utility.yul\":8294:8299   */\n      dup3\n        /* \"#utility.yul\":8276:8300   */\n      tag_151\n      jump\t// in\n    tag_205:\n        /* \"#utility.yul\":8263:8300   */\n      swap1\n      pop\n        /* \"#utility.yul\":8253:8306   */\n      swap2\n      swap1\n      pop\n      jump\t// out\n        /* \"#utility.yul\":8312:8438   */\n    tag_195:\n      0x00\n        /* \"#utility.yul\":8395:8432   */\n      tag_207\n        /* \"#utility.yul\":8426:8431   */\n      dup3\n        /* \"#utility.yul\":8395:8432   */\n      tag_208\n      jump\t// in\n    tag_207:\n        /* \"#utility.yul\":8382:8432   */\n      swap1\n      pop\n        /* \"#utility.yul\":8372:8438   */\n      swap2\n      swap1\n      pop\n      jump\t// out\n        /* \"#utility.yul\":8444:8557   */\n    tag_208:\n      0x00\n        /* \"#utility.yul\":8527:8551   */\n      tag_210\n        /* \"#utility.yul\":8545:8550   */\n      dup3\n        /* \"#utility.yul\":8527:8551   */\n      tag_151\n      jump\t// in\n    tag_210:\n        /* \"#utility.yul\":8514:8551   */\n      swap1\n      pop\n        /* \"#utility.yul\":8504:8557   */\n      swap2\n      swap1\n      pop\n      jump\t// out\n        /* \"#utility.yul\":8563:8679   */\n    tag_100:\n        /* \"#utility.yul\":8633:8654   */\n      tag_212\n        /* \"#utility.yul\":8648:8653   */\n      dup2\n        /* \"#utility.yul\":8633:8654   */\n      tag_188\n      jump\t// in\n    tag_212:\n        /* \"#utility.yul\":8626:8631   */\n      dup2\n        /* \"#utility.yul\":8623:8655   */\n      eq\n        /* \"#utility.yul\":8613:8615   */\n      tag_213\n      jumpi\n        /* \"#utility.yul\":8669:8670   */\n      0x00\n        /* \"#utility.yul\":8666:8667   */\n      dup1\n        /* \"#utility.yul\":8659:8671   */\n      revert\n        /* \"#utility.yul\":8613:8615   */\n    tag_213:\n        /* \"#utility.yul\":8603:8679   */\n      pop\n      jump\t// out\n        /* \"#utility.yul\":8685:8807   */\n    tag_104:\n        /* \"#utility.yul\":8758:8782   */\n      tag_215\n        /* \"#utility.yul\":8776:8781   */\n      dup2\n        /* \"#utility.yul\":8758:8782   */\n      tag_160\n      jump\t// in\n    tag_215:\n        /* \"#utility.yul\":8751:8756   */\n      dup2\n        /* \"#utility.yul\":8748:8783   */\n      eq\n        /* \"#utility.yul\":8738:8740   */\n      tag_216\n      jumpi\n        /* \"#utility.yul\":8797:8798   */\n      0x00\n        /* \"#utility.yul\":8794:8795   */\n      dup1\n        /* \"#utility.yul\":8787:8799   */\n      revert\n        /* \"#utility.yul\":8738:8740   */\n    tag_216:\n        /* \"#utility.yul\":8728:8807   */\n      pop\n      jump\t// out\n\n    auxdata: 0xa26469706673582212202542a9db613a3c3c2fb65c5def25da78641d24d441918734637f91a9f6c5d3d464736f6c63430007060033\n}\n",
				"bytecode": {
					"linkReferences": {},
					"object": "60a060405273e592427a0aece92de3edee1f18e0157c0586156473ffffffffffffffffffffffffffffffffffffffff1660809073ffffffffffffffffffffffffffffffffffffffff1660601b81525073326c977e6efc84e512bb9c30f76e30c160ed06fb6000806101000a81548173ffffffffffffffffffffffffffffffffffffffff021916908373ffffffffffffffffffffffffffffffffffffffff16021790555073b4fbf271143f4fbf7b91a5ded31805e42b2208d6600160006101000a81548173ffffffffffffffffffffffffffffffffffffffff021916908373ffffffffffffffffffffffffffffffffffffffff16021790555034801561010357600080fd5b5060805160601c610e346101356000398061033b528061049452806106e9528061084252806109bb5250610e346000f3fe608060405234801561001057600080fd5b50600436106100935760003560e01c806357970e931161006657806357970e931461011057806373bd43ad1461012e5780639d96daa41461015e578063ad5c46481461018e578063c31c9c07146101ac57610093565b8063089fe6aa146100985780631b6b6d23146100b65780633268cc56146100d45780634b57b0be146100f2575b600080fd5b6100a06101ca565b6040516100ad9190610cc5565b60405180910390f35b6100be6101d0565b6040516100cb9190610bcf565b60405180910390f35b6100dc6101e8565b6040516100e99190610bcf565b60405180910390f35b6100fa610200565b6040516101079190610c73565b60405180910390f35b610118610226565b6040516101259190610c73565b60405180910390f35b61014860048036038101906101439190610a45565b61024a565b6040516101559190610ce0565b60405180910390f35b61017860048036038101906101739190610a45565b6105f5565b6040516101859190610ce0565b60405180910390f35b6101966109a1565b6040516101a39190610bcf565b60405180910390f35b6101b46109b9565b6040516101c19190610c8e565b60405180910390f35b610bb881565b73326c977e6efc84e512bb9c30f76e30c160ed06fb81565b73e592427a0aece92de3edee1f18e0157c0586156481565b600160009054906101000a900473ffffffffffffffffffffffffffffffffffffffff1681565b60008054906101000a900473ffffffffffffffffffffffffffffffffffffffff1681565b60008060009054906101000a900473ffffffffffffffffffffffffffffffffffffffff1673ffffffffffffffffffffffffffffffffffffffff166323b872dd3330856040518463ffffffff1660e01b81526004016102aa93929190610bea565b602060405180830381600087803b1580156102c457600080fd5b505af11580156102d8573d6000803e3d6000fd5b505050506040513d601f19601f820116820180604052508101906102fc9190610a1c565b5060008054906101000a900473ffffffffffffffffffffffffffffffffffffffff1673ffffffffffffffffffffffffffffffffffffffff1663095ea7b37f0000000000000000000000000000000000000000000000000000000000000000846040518363ffffffff1660e01b8152600401610378929190610c4a565b602060405180830381600087803b15801561039257600080fd5b505af11580156103a6573d6000803e3d6000fd5b505050506040513d601f19601f820116820180604052508101906103ca9190610a1c565b50600060405180610100016040528073326c977e6efc84e512bb9c30f76e30c160ed06fb73ffffffffffffffffffffffffffffffffffffffff16815260200173b4fbf271143f4fbf7b91a5ded31805e42b2208d673ffffffffffffffffffffffffffffffffffffffff168152602001610bb862ffffff1681526020013073ffffffffffffffffffffffffffffffffffffffff16815260200142815260200184815260200160008152602001600073ffffffffffffffffffffffffffffffffffffffff1681525090507f000000000000000000000000000000000000000000000000000000000000000073ffffffffffffffffffffffffffffffffffffffff1663414bf389826040518263ffffffff1660e01b81526004016104eb9190610ca9565b602060405180830381600087803b15801561050557600080fd5b505af1158015610519573d6000803e3d6000fd5b505050506040513d601f19601f8201168201806040525081019061053d9190610a6e565b9150600160009054906101000a900473ffffffffffffffffffffffffffffffffffffffff1673ffffffffffffffffffffffffffffffffffffffff1663a9059cbb33846040518363ffffffff1660e01b815260040161059c929190610c21565b602060405180830381600087803b1580156105b657600080fd5b505af11580156105ca573d6000803e3d6000fd5b505050506040513d601f19601f820116820180604052508101906105ee9190610a1c565b5050919050565b6000600160009054906101000a900473ffffffffffffffffffffffffffffffffffffffff1673ffffffffffffffffffffffffffffffffffffffff166323b872dd3330856040518463ffffffff1660e01b815260040161065693929190610bea565b602060405180830381600087803b15801561067057600080fd5b505af1158015610684573d6000803e3d6000fd5b505050506040513d601f19601f820116820180604052508101906106a89190610a1c565b50600160009054906101000a900473ffffffffffffffffffffffffffffffffffffffff1673ffffffffffffffffffffffffffffffffffffffff1663095ea7b37f0000000000000000000000000000000000000000000000000000000000000000846040518363ffffffff1660e01b8152600401610726929190610c4a565b602060405180830381600087803b15801561074057600080fd5b505af1158015610754573d6000803e3d6000fd5b505050506040513d601f19601f820116820180604052508101906107789190610a1c565b50600060405180610100016040528073b4fbf271143f4fbf7b91a5ded31805e42b2208d673ffffffffffffffffffffffffffffffffffffffff16815260200173326c977e6efc84e512bb9c30f76e30c160ed06fb73ffffffffffffffffffffffffffffffffffffffff168152602001610bb862ffffff1681526020013073ffffffffffffffffffffffffffffffffffffffff16815260200142815260200184815260200160008152602001600073ffffffffffffffffffffffffffffffffffffffff1681525090507f000000000000000000000000000000000000000000000000000000000000000073ffffffffffffffffffffffffffffffffffffffff1663414bf389826040518263ffffffff1660e01b81526004016108999190610ca9565b602060405180830381600087803b1580156108b357600080fd5b505af11580156108c7573d6000803e3d6000fd5b505050506040513d601f19601f820116820180604052508101906108eb9190610a6e565b915060008054906101000a900473ffffffffffffffffffffffffffffffffffffffff1673ffffffffffffffffffffffffffffffffffffffff1663a9059cbb33846040518363ffffffff1660e01b8152600401610948929190610c21565b602060405180830381600087803b15801561096257600080fd5b505af1158015610976573d6000803e3d6000fd5b505050506040513d601f19601f8201168201806040525081019061099a9190610a1c565b5050919050565b73b4fbf271143f4fbf7b91a5ded31805e42b2208d681565b7f000000000000000000000000000000000000000000000000000000000000000081565b6000815190506109ec81610dd0565b92915050565b600081359050610a0181610de7565b92915050565b600081519050610a1681610de7565b92915050565b600060208284031215610a2e57600080fd5b6000610a3c848285016109dd565b91505092915050565b600060208284031215610a5757600080fd5b6000610a65848285016109f2565b91505092915050565b600060208284031215610a8057600080fd5b6000610a8e84828501610a07565b91505092915050565b610aa081610d52565b82525050565b610aaf81610cfb565b82525050565b610abe81610cfb565b82525050565b610acd81610d64565b82525050565b610adc81610d88565b82525050565b61010082016000820151610af96000850182610aa6565b506020820151610b0c6020850182610aa6565b506040820151610b1f6040850182610b93565b506060820151610b326060850182610aa6565b506080820151610b456080850182610bb1565b5060a0820151610b5860a0850182610bb1565b5060c0820151610b6b60c0850182610bb1565b5060e0820151610b7e60e0850182610b84565b50505050565b610b8d81610d19565b82525050565b610b9c81610d39565b82525050565b610bab81610d39565b82525050565b610bba81610d48565b82525050565b610bc981610d48565b82525050565b6000602082019050610be46000830184610ab5565b92915050565b6000606082019050610bff6000830186610a97565b610c0c6020830185610ab5565b610c196040830184610bc0565b949350505050565b6000604082019050610c366000830185610a97565b610c436020830184610bc0565b9392505050565b6000604082019050610c5f6000830185610ab5565b610c6c6020830184610bc0565b9392505050565b6000602082019050610c886000830184610ac4565b92915050565b6000602082019050610ca36000830184610ad3565b92915050565b600061010082019050610cbf6000830184610ae2565b92915050565b6000602082019050610cda6000830184610ba2565b92915050565b6000602082019050610cf56000830184610bc0565b92915050565b6000610d0682610d19565b9050919050565b60008115159050919050565b600073ffffffffffffffffffffffffffffffffffffffff82169050919050565b600062ffffff82169050919050565b6000819050919050565b6000610d5d82610dac565b9050919050565b6000610d6f82610d76565b9050919050565b6000610d8182610d19565b9050919050565b6000610d9382610d9a565b9050919050565b6000610da582610d19565b9050919050565b6000610db782610dbe565b9050919050565b6000610dc982610d19565b9050919050565b610dd981610d0d565b8114610de457600080fd5b50565b610df081610d48565b8114610dfb57600080fd5b5056fea26469706673582212202542a9db613a3c3c2fb65c5def25da78641d24d441918734637f91a9f6c5d3d464736f6c63430007060033",
					"opcodes": "PUSH1 0xA0 PUSH1 0x40 MSTORE PUSH20 0xE592427A0AECE92DE3EDEE1F18E0157C05861564 PUSH20 0xFFFFFFFFFFFFFFFFFFFFFFFFFFFFFFFFFFFFFFFF AND PUSH1 0x80 SWAP1 PUSH20 0xFFFFFFFFFFFFFFFFFFFFFFFFFFFFFFFFFFFFFFFF AND PUSH1 0x60 SHL DUP2 MSTORE POP PUSH20 0x326C977E6EFC84E512BB9C30F76E30C160ED06FB PUSH1 0x0 DUP1 PUSH2 0x100 EXP DUP2 SLOAD DUP2 PUSH20 0xFFFFFFFFFFFFFFFFFFFFFFFFFFFFFFFFFFFFFFFF MUL NOT AND SWAP1 DUP4 PUSH20 0xFFFFFFFFFFFFFFFFFFFFFFFFFFFFFFFFFFFFFFFF AND MUL OR SWAP1 SSTORE POP PUSH20 0xB4FBF271143F4FBF7B91A5DED31805E42B2208D6 PUSH1 0x1 PUSH1 0x0 PUSH2 0x100 EXP DUP2 SLOAD DUP2 PUSH20 0xFFFFFFFFFFFFFFFFFFFFFFFFFFFFFFFFFFFFFFFF MUL NOT AND SWAP1 DUP4 PUSH20 0xFFFFFFFFFFFFFFFFFFFFFFFFFFFFFFFFFFFFFFFF AND MUL OR SWAP1 SSTORE POP CALLVALUE DUP1 ISZERO PUSH2 0x103 JUMPI PUSH1 0x0 DUP1 REVERT JUMPDEST POP PUSH1 0x80 MLOAD PUSH1 0x60 SHR PUSH2 0xE34 PUSH2 0x135 PUSH1 0x0 CODECOPY DUP1 PUSH2 0x33B MSTORE DUP1 PUSH2 0x494 MSTORE DUP1 PUSH2 0x6E9 MSTORE DUP1 PUSH2 0x842 MSTORE DUP1 PUSH2 0x9BB MSTORE POP PUSH2 0xE34 PUSH1 0x0 RETURN INVALID PUSH1 0x80 PUSH1 0x40 MSTORE CALLVALUE DUP1 ISZERO PUSH2 0x10 JUMPI PUSH1 0x0 DUP1 REVERT JUMPDEST POP PUSH1 0x4 CALLDATASIZE LT PUSH2 0x93 JUMPI PUSH1 0x0 CALLDATALOAD PUSH1 0xE0 SHR DUP1 PUSH4 0x57970E93 GT PUSH2 0x66 JUMPI DUP1 PUSH4 0x57970E93 EQ PUSH2 0x110 JUMPI DUP1 PUSH4 0x73BD43AD EQ PUSH2 0x12E JUMPI DUP1 PUSH4 0x9D96DAA4 EQ PUSH2 0x15E JUMPI DUP1 PUSH4 0xAD5C4648 EQ PUSH2 0x18E JUMPI DUP1 PUSH4 0xC31C9C07 EQ PUSH2 0x1AC JUMPI PUSH2 0x93 JUMP JUMPDEST DUP1 PUSH4 0x89FE6AA EQ PUSH2 0x98 JUMPI DUP1 PUSH4 0x1B6B6D23 EQ PUSH2 0xB6 JUMPI DUP1 PUSH4 0x3268CC56 EQ PUSH2 0xD4 JUMPI DUP1 PUSH4 0x4B57B0BE EQ PUSH2 0xF2 JUMPI JUMPDEST PUSH1 0x0 DUP1 REVERT JUMPDEST PUSH2 0xA0 PUSH2 0x1CA JUMP JUMPDEST PUSH1 0x40 MLOAD PUSH2 0xAD SWAP2 SWAP1 PUSH2 0xCC5 JUMP JUMPDEST PUSH1 0x40 MLOAD DUP1 SWAP2 SUB SWAP1 RETURN JUMPDEST PUSH2 0xBE PUSH2 0x1D0 JUMP JUMPDEST PUSH1 0x40 MLOAD PUSH2 0xCB SWAP2 SWAP1 PUSH2 0xBCF JUMP JUMPDEST PUSH1 0x40 MLOAD DUP1 SWAP2 SUB SWAP1 RETURN JUMPDEST PUSH2 0xDC PUSH2 0x1E8 JUMP JUMPDEST PUSH1 0x40 MLOAD PUSH2 0xE9 SWAP2 SWAP1 PUSH2 0xBCF JUMP JUMPDEST PUSH1 0x40 MLOAD DUP1 SWAP2 SUB SWAP1 RETURN JUMPDEST PUSH2 0xFA PUSH2 0x200 JUMP JUMPDEST PUSH1 0x40 MLOAD PUSH2 0x107 SWAP2 SWAP1 PUSH2 0xC73 JUMP JUMPDEST PUSH1 0x40 MLOAD DUP1 SWAP2 SUB SWAP1 RETURN JUMPDEST PUSH2 0x118 PUSH2 0x226 JUMP JUMPDEST PUSH1 0x40 MLOAD PUSH2 0x125 SWAP2 SWAP1 PUSH2 0xC73 JUMP JUMPDEST PUSH1 0x40 MLOAD DUP1 SWAP2 SUB SWAP1 RETURN JUMPDEST PUSH2 0x148 PUSH1 0x4 DUP1 CALLDATASIZE SUB DUP2 ADD SWAP1 PUSH2 0x143 SWAP2 SWAP1 PUSH2 0xA45 JUMP JUMPDEST PUSH2 0x24A JUMP JUMPDEST PUSH1 0x40 MLOAD PUSH2 0x155 SWAP2 SWAP1 PUSH2 0xCE0 JUMP JUMPDEST PUSH1 0x40 MLOAD DUP1 SWAP2 SUB SWAP1 RETURN JUMPDEST PUSH2 0x178 PUSH1 0x4 DUP1 CALLDATASIZE SUB DUP2 ADD SWAP1 PUSH2 0x173 SWAP2 SWAP1 PUSH2 0xA45 JUMP JUMPDEST PUSH2 0x5F5 JUMP JUMPDEST PUSH1 0x40 MLOAD PUSH2 0x185 SWAP2 SWAP1 PUSH2 0xCE0 JUMP JUMPDEST PUSH1 0x40 MLOAD DUP1 SWAP2 SUB SWAP1 RETURN JUMPDEST PUSH2 0x196 PUSH2 0x9A1 JUMP JUMPDEST PUSH1 0x40 MLOAD PUSH2 0x1A3 SWAP2 SWAP1 PUSH2 0xBCF JUMP JUMPDEST PUSH1 0x40 MLOAD DUP1 SWAP2 SUB SWAP1 RETURN JUMPDEST PUSH2 0x1B4 PUSH2 0x9B9 JUMP JUMPDEST PUSH1 0x40 MLOAD PUSH2 0x1C1 SWAP2 SWAP1 PUSH2 0xC8E JUMP JUMPDEST PUSH1 0x40 MLOAD DUP1 SWAP2 SUB SWAP1 RETURN JUMPDEST PUSH2 0xBB8 DUP2 JUMP JUMPDEST PUSH20 0x326C977E6EFC84E512BB9C30F76E30C160ED06FB DUP2 JUMP JUMPDEST PUSH20 0xE592427A0AECE92DE3EDEE1F18E0157C05861564 DUP2 JUMP JUMPDEST PUSH1 0x1 PUSH1 0x0 SWAP1 SLOAD SWAP1 PUSH2 0x100 EXP SWAP1 DIV PUSH20 0xFFFFFFFFFFFFFFFFFFFFFFFFFFFFFFFFFFFFFFFF AND DUP2 JUMP JUMPDEST PUSH1 0x0 DUP1 SLOAD SWAP1 PUSH2 0x100 EXP SWAP1 DIV PUSH20 0xFFFFFFFFFFFFFFFFFFFFFFFFFFFFFFFFFFFFFFFF AND DUP2 JUMP JUMPDEST PUSH1 0x0 DUP1 PUSH1 0x0 SWAP1 SLOAD SWAP1 PUSH2 0x100 EXP SWAP1 DIV PUSH20 0xFFFFFFFFFFFFFFFFFFFFFFFFFFFFFFFFFFFFFFFF AND PUSH20 0xFFFFFFFFFFFFFFFFFFFFFFFFFFFFFFFFFFFFFFFF AND PUSH4 0x23B872DD CALLER ADDRESS DUP6 PUSH1 0x40 MLOAD DUP5 PUSH4 0xFFFFFFFF AND PUSH1 0xE0 SHL DUP2 MSTORE PUSH1 0x4 ADD PUSH2 0x2AA SWAP4 SWAP3 SWAP2 SWAP1 PUSH2 0xBEA JUMP JUMPDEST PUSH1 0x20 PUSH1 0x40 MLOAD DUP1 DUP4 SUB DUP2 PUSH1 0x0 DUP8 DUP1 EXTCODESIZE ISZERO DUP1 ISZERO PUSH2 0x2C4 JUMPI PUSH1 0x0 DUP1 REVERT JUMPDEST POP GAS CALL ISZERO DUP1 ISZERO PUSH2 0x2D8 JUMPI RETURNDATASIZE PUSH1 0x0 DUP1 RETURNDATACOPY RETURNDATASIZE PUSH1 0x0 REVERT JUMPDEST POP POP POP POP PUSH1 0x40 MLOAD RETURNDATASIZE PUSH1 0x1F NOT PUSH1 0x1F DUP3 ADD AND DUP3 ADD DUP1 PUSH1 0x40 MSTORE POP DUP2 ADD SWAP1 PUSH2 0x2FC SWAP2 SWAP1 PUSH2 0xA1C JUMP JUMPDEST POP PUSH1 0x0 DUP1 SLOAD SWAP1 PUSH2 0x100 EXP SWAP1 DIV PUSH20 0xFFFFFFFFFFFFFFFFFFFFFFFFFFFFFFFFFFFFFFFF AND PUSH20 0xFFFFFFFFFFFFFFFFFFFFFFFFFFFFFFFFFFFFFFFF AND PUSH4 0x95EA7B3 PUSH32 0x0 DUP5 PUSH1 0x40 MLOAD DUP4 PUSH4 0xFFFFFFFF AND PUSH1 0xE0 SHL DUP2 MSTORE PUSH1 0x4 ADD PUSH2 0x378 SWAP3 SWAP2 SWAP1 PUSH2 0xC4A JUMP JUMPDEST PUSH1 0x20 PUSH1 0x40 MLOAD DUP1 DUP4 SUB DUP2 PUSH1 0x0 DUP8 DUP1 EXTCODESIZE ISZERO DUP1 ISZERO PUSH2 0x392 JUMPI PUSH1 0x0 DUP1 REVERT JUMPDEST POP GAS CALL ISZERO DUP1 ISZERO PUSH2 0x3A6 JUMPI RETURNDATASIZE PUSH1 0x0 DUP1 RETURNDATACOPY RETURNDATASIZE PUSH1 0x0 REVERT JUMPDEST POP POP POP POP PUSH1 0x40 MLOAD RETURNDATASIZE PUSH1 0x1F NOT PUSH1 0x1F DUP3 ADD AND DUP3 ADD DUP1 PUSH1 0x40 MSTORE POP DUP2 ADD SWAP1 PUSH2 0x3CA SWAP2 SWAP1 PUSH2 0xA1C JUMP JUMPDEST POP PUSH1 0x0 PUSH1 0x40 MLOAD DUP1 PUSH2 0x100 ADD PUSH1 0x40 MSTORE DUP1 PUSH20 0x326C977E6EFC84E512BB9C30F76E30C160ED06FB PUSH20 0xFFFFFFFFFFFFFFFFFFFFFFFFFFFFFFFFFFFFFFFF AND DUP2 MSTORE PUSH1 0x20 ADD PUSH20 0xB4FBF271143F4FBF7B91A5DED31805E42B2208D6 PUSH20 0xFFFFFFFFFFFFFFFFFFFFFFFFFFFFFFFFFFFFFFFF AND DUP2 MSTORE PUSH1 0x20 ADD PUSH2 0xBB8 PUSH3 0xFFFFFF AND DUP2 MSTORE PUSH1 0x20 ADD ADDRESS PUSH20 0xFFFFFFFFFFFFFFFFFFFFFFFFFFFFFFFFFFFFFFFF AND DUP2 MSTORE PUSH1 0x20 ADD TIMESTAMP DUP2 MSTORE PUSH1 0x20 ADD DUP5 DUP2 MSTORE PUSH1 0x20 ADD PUSH1 0x0 DUP2 MSTORE PUSH1 0x20 ADD PUSH1 0x0 PUSH20 0xFFFFFFFFFFFFFFFFFFFFFFFFFFFFFFFFFFFFFFFF AND DUP2 MSTORE POP SWAP1 POP PUSH32 0x0 PUSH20 0xFFFFFFFFFFFFFFFFFFFFFFFFFFFFFFFFFFFFFFFF AND PUSH4 0x414BF389 DUP3 PUSH1 0x40 MLOAD DUP3 PUSH4 0xFFFFFFFF AND PUSH1 0xE0 SHL DUP2 MSTORE PUSH1 0x4 ADD PUSH2 0x4EB SWAP2 SWAP1 PUSH2 0xCA9 JUMP JUMPDEST PUSH1 0x20 PUSH1 0x40 MLOAD DUP1 DUP4 SUB DUP2 PUSH1 0x0 DUP8 DUP1 EXTCODESIZE ISZERO DUP1 ISZERO PUSH2 0x505 JUMPI PUSH1 0x0 DUP1 REVERT JUMPDEST POP GAS CALL ISZERO DUP1 ISZERO PUSH2 0x519 JUMPI RETURNDATASIZE PUSH1 0x0 DUP1 RETURNDATACOPY RETURNDATASIZE PUSH1 0x0 REVERT JUMPDEST POP POP POP POP PUSH1 0x40 MLOAD RETURNDATASIZE PUSH1 0x1F NOT PUSH1 0x1F DUP3 ADD AND DUP3 ADD DUP1 PUSH1 0x40 MSTORE POP DUP2 ADD SWAP1 PUSH2 0x53D SWAP2 SWAP1 PUSH2 0xA6E JUMP JUMPDEST SWAP2 POP PUSH1 0x1 PUSH1 0x0 SWAP1 SLOAD SWAP1 PUSH2 0x100 EXP SWAP1 DIV PUSH20 0xFFFFFFFFFFFFFFFFFFFFFFFFFFFFFFFFFFFFFFFF AND PUSH20 0xFFFFFFFFFFFFFFFFFFFFFFFFFFFFFFFFFFFFFFFF AND PUSH4 0xA9059CBB CALLER DUP5 PUSH1 0x40 MLOAD DUP4 PUSH4 0xFFFFFFFF AND PUSH1 0xE0 SHL DUP2 MSTORE PUSH1 0x4 ADD PUSH2 0x59C SWAP3 SWAP2 SWAP1 PUSH2 0xC21 JUMP JUMPDEST PUSH1 0x20 PUSH1 0x40 MLOAD DUP1 DUP4 SUB DUP2 PUSH1 0x0 DUP8 DUP1 EXTCODESIZE ISZERO DUP1 ISZERO PUSH2 0x5B6 JUMPI PUSH1 0x0 DUP1 REVERT JUMPDEST POP GAS CALL ISZERO DUP1 ISZERO PUSH2 0x5CA JUMPI RETURNDATASIZE PUSH1 0x0 DUP1 RETURNDATACOPY RETURNDATASIZE PUSH1 0x0 REVERT JUMPDEST POP POP POP POP PUSH1 0x40 MLOAD RETURNDATASIZE PUSH1 0x1F NOT PUSH1 0x1F DUP3 ADD AND DUP3 ADD DUP1 PUSH1 0x40 MSTORE POP DUP2 ADD SWAP1 PUSH2 0x5EE SWAP2 SWAP1 PUSH2 0xA1C JUMP JUMPDEST POP POP SWAP2 SWAP1 POP JUMP JUMPDEST PUSH1 0x0 PUSH1 0x1 PUSH1 0x0 SWAP1 SLOAD SWAP1 PUSH2 0x100 EXP SWAP1 DIV PUSH20 0xFFFFFFFFFFFFFFFFFFFFFFFFFFFFFFFFFFFFFFFF AND PUSH20 0xFFFFFFFFFFFFFFFFFFFFFFFFFFFFFFFFFFFFFFFF AND PUSH4 0x23B872DD CALLER ADDRESS DUP6 PUSH1 0x40 MLOAD DUP5 PUSH4 0xFFFFFFFF AND PUSH1 0xE0 SHL DUP2 MSTORE PUSH1 0x4 ADD PUSH2 0x656 SWAP4 SWAP3 SWAP2 SWAP1 PUSH2 0xBEA JUMP JUMPDEST PUSH1 0x20 PUSH1 0x40 MLOAD DUP1 DUP4 SUB DUP2 PUSH1 0x0 DUP8 DUP1 EXTCODESIZE ISZERO DUP1 ISZERO PUSH2 0x670 JUMPI PUSH1 0x0 DUP1 REVERT JUMPDEST POP GAS CALL ISZERO DUP1 ISZERO PUSH2 0x684 JUMPI RETURNDATASIZE PUSH1 0x0 DUP1 RETURNDATACOPY RETURNDATASIZE PUSH1 0x0 REVERT JUMPDEST POP POP POP POP PUSH1 0x40 MLOAD RETURNDATASIZE PUSH1 0x1F NOT PUSH1 0x1F DUP3 ADD AND DUP3 ADD DUP1 PUSH1 0x40 MSTORE POP DUP2 ADD SWAP1 PUSH2 0x6A8 SWAP2 SWAP1 PUSH2 0xA1C JUMP JUMPDEST POP PUSH1 0x1 PUSH1 0x0 SWAP1 SLOAD SWAP1 PUSH2 0x100 EXP SWAP1 DIV PUSH20 0xFFFFFFFFFFFFFFFFFFFFFFFFFFFFFFFFFFFFFFFF AND PUSH20 0xFFFFFFFFFFFFFFFFFFFFFFFFFFFFFFFFFFFFFFFF AND PUSH4 0x95EA7B3 PUSH32 0x0 DUP5 PUSH1 0x40 MLOAD DUP4 PUSH4 0xFFFFFFFF AND PUSH1 0xE0 SHL DUP2 MSTORE PUSH1 0x4 ADD PUSH2 0x726 SWAP3 SWAP2 SWAP1 PUSH2 0xC4A JUMP JUMPDEST PUSH1 0x20 PUSH1 0x40 MLOAD DUP1 DUP4 SUB DUP2 PUSH1 0x0 DUP8 DUP1 EXTCODESIZE ISZERO DUP1 ISZERO PUSH2 0x740 JUMPI PUSH1 0x0 DUP1 REVERT JUMPDEST POP GAS CALL ISZERO DUP1 ISZERO PUSH2 0x754 JUMPI RETURNDATASIZE PUSH1 0x0 DUP1 RETURNDATACOPY RETURNDATASIZE PUSH1 0x0 REVERT JUMPDEST POP POP POP POP PUSH1 0x40 MLOAD RETURNDATASIZE PUSH1 0x1F NOT PUSH1 0x1F DUP3 ADD AND DUP3 ADD DUP1 PUSH1 0x40 MSTORE POP DUP2 ADD SWAP1 PUSH2 0x778 SWAP2 SWAP1 PUSH2 0xA1C JUMP JUMPDEST POP PUSH1 0x0 PUSH1 0x40 MLOAD DUP1 PUSH2 0x100 ADD PUSH1 0x40 MSTORE DUP1 PUSH20 0xB4FBF271143F4FBF7B91A5DED31805E42B2208D6 PUSH20 0xFFFFFFFFFFFFFFFFFFFFFFFFFFFFFFFFFFFFFFFF AND DUP2 MSTORE PUSH1 0x20 ADD PUSH20 0x326C977E6EFC84E512BB9C30F76E30C160ED06FB PUSH20 0xFFFFFFFFFFFFFFFFFFFFFFFFFFFFFFFFFFFFFFFF AND DUP2 MSTORE PUSH1 0x20 ADD PUSH2 0xBB8 PUSH3 0xFFFFFF AND DUP2 MSTORE PUSH1 0x20 ADD ADDRESS PUSH20 0xFFFFFFFFFFFFFFFFFFFFFFFFFFFFFFFFFFFFFFFF AND DUP2 MSTORE PUSH1 0x20 ADD TIMESTAMP DUP2 MSTORE PUSH1 0x20 ADD DUP5 DUP2 MSTORE PUSH1 0x20 ADD PUSH1 0x0 DUP2 MSTORE PUSH1 0x20 ADD PUSH1 0x0 PUSH20 0xFFFFFFFFFFFFFFFFFFFFFFFFFFFFFFFFFFFFFFFF AND DUP2 MSTORE POP SWAP1 POP PUSH32 0x0 PUSH20 0xFFFFFFFFFFFFFFFFFFFFFFFFFFFFFFFFFFFFFFFF AND PUSH4 0x414BF389 DUP3 PUSH1 0x40 MLOAD DUP3 PUSH4 0xFFFFFFFF AND PUSH1 0xE0 SHL DUP2 MSTORE PUSH1 0x4 ADD PUSH2 0x899 SWAP2 SWAP1 PUSH2 0xCA9 JUMP JUMPDEST PUSH1 0x20 PUSH1 0x40 MLOAD DUP1 DUP4 SUB DUP2 PUSH1 0x0 DUP8 DUP1 EXTCODESIZE ISZERO DUP1 ISZERO PUSH2 0x8B3 JUMPI PUSH1 0x0 DUP1 REVERT JUMPDEST POP GAS CALL ISZERO DUP1 ISZERO PUSH2 0x8C7 JUMPI RETURNDATASIZE PUSH1 0x0 DUP1 RETURNDATACOPY RETURNDATASIZE PUSH1 0x0 REVERT JUMPDEST POP POP POP POP PUSH1 0x40 MLOAD RETURNDATASIZE PUSH1 0x1F NOT PUSH1 0x1F DUP3 ADD AND DUP3 ADD DUP1 PUSH1 0x40 MSTORE POP DUP2 ADD SWAP1 PUSH2 0x8EB SWAP2 SWAP1 PUSH2 0xA6E JUMP JUMPDEST SWAP2 POP PUSH1 0x0 DUP1 SLOAD SWAP1 PUSH2 0x100 EXP SWAP1 DIV PUSH20 0xFFFFFFFFFFFFFFFFFFFFFFFFFFFFFFFFFFFFFFFF AND PUSH20 0xFFFFFFFFFFFFFFFFFFFFFFFFFFFFFFFFFFFFFFFF AND PUSH4 0xA9059CBB CALLER DUP5 PUSH1 0x40 MLOAD DUP4 PUSH4 0xFFFFFFFF AND PUSH1 0xE0 SHL DUP2 MSTORE PUSH1 0x4 ADD PUSH2 0x948 SWAP3 SWAP2 SWAP1 PUSH2 0xC21 JUMP JUMPDEST PUSH1 0x20 PUSH1 0x40 MLOAD DUP1 DUP4 SUB DUP2 PUSH1 0x0 DUP8 DUP1 EXTCODESIZE ISZERO DUP1 ISZERO PUSH2 0x962 JUMPI PUSH1 0x0 DUP1 REVERT JUMPDEST POP GAS CALL ISZERO DUP1 ISZERO PUSH2 0x976 JUMPI RETURNDATASIZE PUSH1 0x0 DUP1 RETURNDATACOPY RETURNDATASIZE PUSH1 0x0 REVERT JUMPDEST POP POP POP POP PUSH1 0x40 MLOAD RETURNDATASIZE PUSH1 0x1F NOT PUSH1 0x1F DUP3 ADD AND DUP3 ADD DUP1 PUSH1 0x40 MSTORE POP DUP2 ADD SWAP1 PUSH2 0x99A SWAP2 SWAP1 PUSH2 0xA1C JUMP JUMPDEST POP POP SWAP2 SWAP1 POP JUMP JUMPDEST PUSH20 0xB4FBF271143F4FBF7B91A5DED31805E42B2208D6 DUP2 JUMP JUMPDEST PUSH32 0x0 DUP2 JUMP JUMPDEST PUSH1 0x0 DUP2 MLOAD SWAP1 POP PUSH2 0x9EC DUP2 PUSH2 0xDD0 JUMP JUMPDEST SWAP3 SWAP2 POP POP JUMP JUMPDEST PUSH1 0x0 DUP2 CALLDATALOAD SWAP1 POP PUSH2 0xA01 DUP2 PUSH2 0xDE7 JUMP JUMPDEST SWAP3 SWAP2 POP POP JUMP JUMPDEST PUSH1 0x0 DUP2 MLOAD SWAP1 POP PUSH2 0xA16 DUP2 PUSH2 0xDE7 JUMP JUMPDEST SWAP3 SWAP2 POP POP JUMP JUMPDEST PUSH1 0x0 PUSH1 0x20 DUP3 DUP5 SUB SLT ISZERO PUSH2 0xA2E JUMPI PUSH1 0x0 DUP1 REVERT JUMPDEST PUSH1 0x0 PUSH2 0xA3C DUP5 DUP3 DUP6 ADD PUSH2 0x9DD JUMP JUMPDEST SWAP2 POP POP SWAP3 SWAP2 POP POP JUMP JUMPDEST PUSH1 0x0 PUSH1 0x20 DUP3 DUP5 SUB SLT ISZERO PUSH2 0xA57 JUMPI PUSH1 0x0 DUP1 REVERT JUMPDEST PUSH1 0x0 PUSH2 0xA65 DUP5 DUP3 DUP6 ADD PUSH2 0x9F2 JUMP JUMPDEST SWAP2 POP POP SWAP3 SWAP2 POP POP JUMP JUMPDEST PUSH1 0x0 PUSH1 0x20 DUP3 DUP5 SUB SLT ISZERO PUSH2 0xA80 JUMPI PUSH1 0x0 DUP1 REVERT JUMPDEST PUSH1 0x0 PUSH2 0xA8E DUP5 DUP3 DUP6 ADD PUSH2 0xA07 JUMP JUMPDEST SWAP2 POP POP SWAP3 SWAP2 POP POP JUMP JUMPDEST PUSH2 0xAA0 DUP2 PUSH2 0xD52 JUMP JUMPDEST DUP3 MSTORE POP POP JUMP JUMPDEST PUSH2 0xAAF DUP2 PUSH2 0xCFB JUMP JUMPDEST DUP3 MSTORE POP POP JUMP JUMPDEST PUSH2 0xABE DUP2 PUSH2 0xCFB JUMP JUMPDEST DUP3 MSTORE POP POP JUMP JUMPDEST PUSH2 0xACD DUP2 PUSH2 0xD64 JUMP JUMPDEST DUP3 MSTORE POP POP JUMP JUMPDEST PUSH2 0xADC DUP2 PUSH2 0xD88 JUMP JUMPDEST DUP3 MSTORE POP POP JUMP JUMPDEST PUSH2 0x100 DUP3 ADD PUSH1 0x0 DUP3 ADD MLOAD PUSH2 0xAF9 PUSH1 0x0 DUP6 ADD DUP3 PUSH2 0xAA6 JUMP JUMPDEST POP PUSH1 0x20 DUP3 ADD MLOAD PUSH2 0xB0C PUSH1 0x20 DUP6 ADD DUP3 PUSH2 0xAA6 JUMP JUMPDEST POP PUSH1 0x40 DUP3 ADD MLOAD PUSH2 0xB1F PUSH1 0x40 DUP6 ADD DUP3 PUSH2 0xB93 JUMP JUMPDEST POP PUSH1 0x60 DUP3 ADD MLOAD PUSH2 0xB32 PUSH1 0x60 DUP6 ADD DUP3 PUSH2 0xAA6 JUMP JUMPDEST POP PUSH1 0x80 DUP3 ADD MLOAD PUSH2 0xB45 PUSH1 0x80 DUP6 ADD DUP3 PUSH2 0xBB1 JUMP JUMPDEST POP PUSH1 0xA0 DUP3 ADD MLOAD PUSH2 0xB58 PUSH1 0xA0 DUP6 ADD DUP3 PUSH2 0xBB1 JUMP JUMPDEST POP PUSH1 0xC0 DUP3 ADD MLOAD PUSH2 0xB6B PUSH1 0xC0 DUP6 ADD DUP3 PUSH2 0xBB1 JUMP JUMPDEST POP PUSH1 0xE0 DUP3 ADD MLOAD PUSH2 0xB7E PUSH1 0xE0 DUP6 ADD DUP3 PUSH2 0xB84 JUMP JUMPDEST POP POP POP POP JUMP JUMPDEST PUSH2 0xB8D DUP2 PUSH2 0xD19 JUMP JUMPDEST DUP3 MSTORE POP POP JUMP JUMPDEST PUSH2 0xB9C DUP2 PUSH2 0xD39 JUMP JUMPDEST DUP3 MSTORE POP POP JUMP JUMPDEST PUSH2 0xBAB DUP2 PUSH2 0xD39 JUMP JUMPDEST DUP3 MSTORE POP POP JUMP JUMPDEST PUSH2 0xBBA DUP2 PUSH2 0xD48 JUMP JUMPDEST DUP3 MSTORE POP POP JUMP JUMPDEST PUSH2 0xBC9 DUP2 PUSH2 0xD48 JUMP JUMPDEST DUP3 MSTORE POP POP JUMP JUMPDEST PUSH1 0x0 PUSH1 0x20 DUP3 ADD SWAP1 POP PUSH2 0xBE4 PUSH1 0x0 DUP4 ADD DUP5 PUSH2 0xAB5 JUMP JUMPDEST SWAP3 SWAP2 POP POP JUMP JUMPDEST PUSH1 0x0 PUSH1 0x60 DUP3 ADD SWAP1 POP PUSH2 0xBFF PUSH1 0x0 DUP4 ADD DUP7 PUSH2 0xA97 JUMP JUMPDEST PUSH2 0xC0C PUSH1 0x20 DUP4 ADD DUP6 PUSH2 0xAB5 JUMP JUMPDEST PUSH2 0xC19 PUSH1 0x40 DUP4 ADD DUP5 PUSH2 0xBC0 JUMP JUMPDEST SWAP5 SWAP4 POP POP POP POP JUMP JUMPDEST PUSH1 0x0 PUSH1 0x40 DUP3 ADD SWAP1 POP PUSH2 0xC36 PUSH1 0x0 DUP4 ADD DUP6 PUSH2 0xA97 JUMP JUMPDEST PUSH2 0xC43 PUSH1 0x20 DUP4 ADD DUP5 PUSH2 0xBC0 JUMP JUMPDEST SWAP4 SWAP3 POP POP POP JUMP JUMPDEST PUSH1 0x0 PUSH1 0x40 DUP3 ADD SWAP1 POP PUSH2 0xC5F PUSH1 0x0 DUP4 ADD DUP6 PUSH2 0xAB5 JUMP JUMPDEST PUSH2 0xC6C PUSH1 0x20 DUP4 ADD DUP5 PUSH2 0xBC0 JUMP JUMPDEST SWAP4 SWAP3 POP POP POP JUMP JUMPDEST PUSH1 0x0 PUSH1 0x20 DUP3 ADD SWAP1 POP PUSH2 0xC88 PUSH1 0x0 DUP4 ADD DUP5 PUSH2 0xAC4 JUMP JUMPDEST SWAP3 SWAP2 POP POP JUMP JUMPDEST PUSH1 0x0 PUSH1 0x20 DUP3 ADD SWAP1 POP PUSH2 0xCA3 PUSH1 0x0 DUP4 ADD DUP5 PUSH2 0xAD3 JUMP JUMPDEST SWAP3 SWAP2 POP POP JUMP JUMPDEST PUSH1 0x0 PUSH2 0x100 DUP3 ADD SWAP1 POP PUSH2 0xCBF PUSH1 0x0 DUP4 ADD DUP5 PUSH2 0xAE2 JUMP JUMPDEST SWAP3 SWAP2 POP POP JUMP JUMPDEST PUSH1 0x0 PUSH1 0x20 DUP3 ADD SWAP1 POP PUSH2 0xCDA PUSH1 0x0 DUP4 ADD DUP5 PUSH2 0xBA2 JUMP JUMPDEST SWAP3 SWAP2 POP POP JUMP JUMPDEST PUSH1 0x0 PUSH1 0x20 DUP3 ADD SWAP1 POP PUSH2 0xCF5 PUSH1 0x0 DUP4 ADD DUP5 PUSH2 0xBC0 JUMP JUMPDEST SWAP3 SWAP2 POP POP JUMP JUMPDEST PUSH1 0x0 PUSH2 0xD06 DUP3 PUSH2 0xD19 JUMP JUMPDEST SWAP1 POP SWAP2 SWAP1 POP JUMP JUMPDEST PUSH1 0x0 DUP2 ISZERO ISZERO SWAP1 POP SWAP2 SWAP1 POP JUMP JUMPDEST PUSH1 0x0 PUSH20 0xFFFFFFFFFFFFFFFFFFFFFFFFFFFFFFFFFFFFFFFF DUP3 AND SWAP1 POP SWAP2 SWAP1 POP JUMP JUMPDEST PUSH1 0x0 PUSH3 0xFFFFFF DUP3 AND SWAP1 POP SWAP2 SWAP1 POP JUMP JUMPDEST PUSH1 0x0 DUP2 SWAP1 POP SWAP2 SWAP1 POP JUMP JUMPDEST PUSH1 0x0 PUSH2 0xD5D DUP3 PUSH2 0xDAC JUMP JUMPDEST SWAP1 POP SWAP2 SWAP1 POP JUMP JUMPDEST PUSH1 0x0 PUSH2 0xD6F DUP3 PUSH2 0xD76 JUMP JUMPDEST SWAP1 POP SWAP2 SWAP1 POP JUMP JUMPDEST PUSH1 0x0 PUSH2 0xD81 DUP3 PUSH2 0xD19 JUMP JUMPDEST SWAP1 POP SWAP2 SWAP1 POP JUMP JUMPDEST PUSH1 0x0 PUSH2 0xD93 DUP3 PUSH2 0xD9A JUMP JUMPDEST SWAP1 POP SWAP2 SWAP1 POP JUMP JUMPDEST PUSH1 0x0 PUSH2 0xDA5 DUP3 PUSH2 0xD19 JUMP JUMPDEST SWAP1 POP SWAP2 SWAP1 POP JUMP JUMPDEST PUSH1 0x0 PUSH2 0xDB7 DUP3 PUSH2 0xDBE JUMP JUMPDEST SWAP1 POP SWAP2 SWAP1 POP JUMP JUMPDEST PUSH1 0x0 PUSH2 0xDC9 DUP3 PUSH2 0xD19 JUMP JUMPDEST SWAP1 POP SWAP2 SWAP1 POP JUMP JUMPDEST PUSH2 0xDD9 DUP2 PUSH2 0xD0D JUMP JUMPDEST DUP2 EQ PUSH2 0xDE4 JUMPI PUSH1 0x0 DUP1 REVERT JUMPDEST POP JUMP JUMPDEST PUSH2 0xDF0 DUP2 PUSH2 0xD48 JUMP JUMPDEST DUP2 EQ PUSH2 0xDFB JUMPI PUSH1 0x0 DUP1 REVERT JUMPDEST POP JUMP INVALID LOG2 PUSH5 0x6970667358 0x22 SLT KECCAK256 0x25 TIMESTAMP 0xA9 0xDB PUSH2 0x3A3C EXTCODECOPY 0x2F 0xB6 0x5C 0x5D 0xEF 0x25 0xDA PUSH25 0x641D24D441918734637F91A9F6C5D3D464736F6C6343000706 STOP CALLER "
				},
				"gasEstimates": {
					"creation": {
						"codeDepositCost": "727200",
						"executionCost": "infinite",
						"totalCost": "infinite"
					},
					"external": {
						"LINK()": "401",
						"WETH()": "444",
						"linkToken()": "1254",
						"poolFee()": "336",
						"routerAddress()": "423",
						"swapExactInputSingle(uint256)": "infinite",
						"swapReverseExactInputSingle(uint256)": "infinite",
						"swapRouter()": "infinite",
						"wethToken()": "1324"
					}
				},
				"methodIdentifiers": {
					"LINK()": "1b6b6d23",
					"WETH()": "ad5c4648",
					"linkToken()": "57970e93",
					"poolFee()": "089fe6aa",
					"routerAddress()": "3268cc56",
					"swapExactInputSingle(uint256)": "73bd43ad",
					"swapReverseExactInputSingle(uint256)": "9d96daa4",
					"swapRouter()": "c31c9c07",
					"wethToken()": "4b57b0be"
				}
			},
			"storageLayout": {
				"storage": [
					{
						"astId": 169,
						"contract": "TEST/test.sol:Swap",
						"label": "linkToken",
						"offset": 0,
						"slot": "0",
						"type": "t_contract(IERC20)150"
					},
					{
						"astId": 174,
						"contract": "TEST/test.sol:Swap",
						"label": "wethToken",
						"offset": 0,
						"slot": "1",
						"type": "t_contract(IERC20)150"
					}
				],
				"types": {
					"t_contract(IERC20)150": {
						"encoding": "inplace",
						"label": "contract IERC20",
						"numberOfBytes": "20"
					}
				}
			},
			"userdoc": {
				"kind": "user",
				"methods": {},
				"version": 1
			}
		}
	}
}