{
	"TEST/sndether.sol": {
		"EtherSender": {
			"abi": [
				{
					"inputs": [
						{
							"internalType": "address payable",
							"name": "recipient",
							"type": "address"
						}
					],
					"name": "sendEther",
					"outputs": [],
					"stateMutability": "payable",
					"type": "function"
				}
			],
			"devdoc": {
				"kind": "dev",
				"methods": {},
				"version": 1
			},
			"evm": {
				"assembly": "    /* \"TEST/sndether.sol\":60:435  contract EtherSender {... */\n  mstore(0x40, 0x80)\n  callvalue\n  dup1\n  iszero\n  tag_1\n  jumpi\n  0x00\n  dup1\n  revert\ntag_1:\n  pop\n  dataSize(sub_0)\n  dup1\n  dataOffset(sub_0)\n  0x00\n  codecopy\n  0x00\n  return\nstop\n\nsub_0: assembly {\n        /* \"TEST/sndether.sol\":60:435  contract EtherSender {... */\n      mstore(0x40, 0x80)\n      jumpi(tag_1, lt(calldatasize, 0x04))\n      shr(0xe0, calldataload(0x00))\n      dup1\n      0x48c981e2\n      eq\n      tag_2\n      jumpi\n    tag_1:\n      0x00\n      dup1\n      revert\n        /* \"TEST/sndether.sol\":134:432  function sendEther(address payable recipient) external payable {... */\n    tag_2:\n      tag_3\n      0x04\n      dup1\n      calldatasize\n      sub\n      dup2\n      add\n      swap1\n      tag_4\n      swap2\n      swap1\n      tag_5\n      jump\t// in\n    tag_4:\n      tag_6\n      jump\t// in\n    tag_3:\n      stop\n    tag_6:\n        /* \"TEST/sndether.sol\":237:238  0 */\n      0x00\n        /* \"TEST/sndether.sol\":216:239  recipient != address(0) */\n      0xffffffffffffffffffffffffffffffffffffffff\n      and\n        /* \"TEST/sndether.sol\":216:225  recipient */\n      dup2\n        /* \"TEST/sndether.sol\":216:239  recipient != address(0) */\n      0xffffffffffffffffffffffffffffffffffffffff\n      and\n      sub\n        /* \"TEST/sndether.sol\":208:269  require(recipient != address(0), \"Invalid recipient address\") */\n      tag_8\n      jumpi\n      mload(0x40)\n      0x08c379a000000000000000000000000000000000000000000000000000000000\n      dup2\n      mstore\n      0x04\n      add\n      tag_9\n      swap1\n      tag_10\n      jump\t// in\n    tag_9:\n      mload(0x40)\n      dup1\n      swap2\n      sub\n      swap1\n      revert\n    tag_8:\n        /* \"TEST/sndether.sol\":300:301  0 */\n      0x00\n        /* \"TEST/sndether.sol\":288:297  msg.value */\n      callvalue\n        /* \"TEST/sndether.sol\":288:301  msg.value > 0 */\n      gt\n        /* \"TEST/sndether.sol\":280:338  require(msg.value > 0, \"Amount must be greater than zero\") */\n      tag_11\n      jumpi\n      mload(0x40)\n      0x08c379a000000000000000000000000000000000000000000000000000000000\n      dup2\n      mstore\n      0x04\n      add\n      tag_12\n      swap1\n      tag_13\n      jump\t// in\n    tag_12:\n      mload(0x40)\n      dup1\n      swap2\n      sub\n      swap1\n      revert\n    tag_11:\n        /* \"TEST/sndether.sol\":395:404  recipient */\n      dup1\n        /* \"TEST/sndether.sol\":395:413  recipient.transfer */\n      0xffffffffffffffffffffffffffffffffffffffff\n      and\n        /* \"TEST/sndether.sol\":395:424  recipient.transfer(msg.value) */\n      0x08fc\n        /* \"TEST/sndether.sol\":414:423  msg.value */\n      callvalue\n        /* \"TEST/sndether.sol\":395:424  recipient.transfer(msg.value) */\n      swap1\n      dup2\n      iszero\n      mul\n      swap1\n      mload(0x40)\n      0x00\n      mload(0x40)\n      dup1\n      dup4\n      sub\n      dup2\n      dup6\n      dup9\n      dup9\n      call\n      swap4\n      pop\n      pop\n      pop\n      pop\n      iszero\n      dup1\n      iszero\n      tag_15\n      jumpi\n      returndatasize\n      0x00\n      dup1\n      returndatacopy\n      revert(0x00, returndatasize)\n    tag_15:\n      pop\n        /* \"TEST/sndether.sol\":134:432  function sendEther(address payable recipient) external payable {... */\n      pop\n      jump\t// out\n        /* \"#utility.yul\":88:205   */\n    tag_17:\n        /* \"#utility.yul\":197:198   */\n      0x00\n        /* \"#utility.yul\":194:195   */\n      dup1\n        /* \"#utility.yul\":187:199   */\n      revert\n        /* \"#utility.yul\":334:460   */\n    tag_19:\n        /* \"#utility.yul\":371:378   */\n      0x00\n        /* \"#utility.yul\":411:453   */\n      0xffffffffffffffffffffffffffffffffffffffff\n        /* \"#utility.yul\":404:409   */\n      dup3\n        /* \"#utility.yul\":400:454   */\n      and\n        /* \"#utility.yul\":389:454   */\n      swap1\n      pop\n        /* \"#utility.yul\":334:460   */\n      swap2\n      swap1\n      pop\n      jump\t// out\n        /* \"#utility.yul\":466:570   */\n    tag_20:\n        /* \"#utility.yul\":511:518   */\n      0x00\n        /* \"#utility.yul\":540:564   */\n      tag_34\n        /* \"#utility.yul\":558:563   */\n      dup3\n        /* \"#utility.yul\":540:564   */\n      tag_19\n      jump\t// in\n    tag_34:\n        /* \"#utility.yul\":529:564   */\n      swap1\n      pop\n        /* \"#utility.yul\":466:570   */\n      swap2\n      swap1\n      pop\n      jump\t// out\n        /* \"#utility.yul\":576:714   */\n    tag_21:\n        /* \"#utility.yul\":657:689   */\n      tag_36\n        /* \"#utility.yul\":683:688   */\n      dup2\n        /* \"#utility.yul\":657:689   */\n      tag_20\n      jump\t// in\n    tag_36:\n        /* \"#utility.yul\":650:655   */\n      dup2\n        /* \"#utility.yul\":647:690   */\n      eq\n        /* \"#utility.yul\":637:708   */\n      tag_37\n      jumpi\n        /* \"#utility.yul\":704:705   */\n      0x00\n        /* \"#utility.yul\":701:702   */\n      dup1\n        /* \"#utility.yul\":694:706   */\n      revert\n        /* \"#utility.yul\":637:708   */\n    tag_37:\n        /* \"#utility.yul\":576:714   */\n      pop\n      jump\t// out\n        /* \"#utility.yul\":720:875   */\n    tag_22:\n        /* \"#utility.yul\":774:779   */\n      0x00\n        /* \"#utility.yul\":812:818   */\n      dup2\n        /* \"#utility.yul\":799:819   */\n      calldataload\n        /* \"#utility.yul\":790:819   */\n      swap1\n      pop\n        /* \"#utility.yul\":828:869   */\n      tag_39\n        /* \"#utility.yul\":863:868   */\n      dup2\n        /* \"#utility.yul\":828:869   */\n      tag_21\n      jump\t// in\n    tag_39:\n        /* \"#utility.yul\":720:875   */\n      swap3\n      swap2\n      pop\n      pop\n      jump\t// out\n        /* \"#utility.yul\":881:1226   */\n    tag_5:\n        /* \"#utility.yul\":948:954   */\n      0x00\n        /* \"#utility.yul\":997:999   */\n      0x20\n        /* \"#utility.yul\":985:994   */\n      dup3\n        /* \"#utility.yul\":976:983   */\n      dup5\n        /* \"#utility.yul\":972:995   */\n      sub\n        /* \"#utility.yul\":968:1000   */\n      slt\n        /* \"#utility.yul\":965:1084   */\n      iszero\n      tag_41\n      jumpi\n        /* \"#utility.yul\":1003:1082   */\n      tag_42\n      tag_17\n      jump\t// in\n    tag_42:\n        /* \"#utility.yul\":965:1084   */\n    tag_41:\n        /* \"#utility.yul\":1123:1124   */\n      0x00\n        /* \"#utility.yul\":1148:1209   */\n      tag_43\n        /* \"#utility.yul\":1201:1208   */\n      dup5\n        /* \"#utility.yul\":1192:1198   */\n      dup3\n        /* \"#utility.yul\":1181:1190   */\n      dup6\n        /* \"#utility.yul\":1177:1199   */\n      add\n        /* \"#utility.yul\":1148:1209   */\n      tag_22\n      jump\t// in\n    tag_43:\n        /* \"#utility.yul\":1138:1209   */\n      swap2\n      pop\n        /* \"#utility.yul\":1094:1219   */\n      pop\n        /* \"#utility.yul\":881:1226   */\n      swap3\n      swap2\n      pop\n      pop\n      jump\t// out\n        /* \"#utility.yul\":1232:1401   */\n    tag_23:\n        /* \"#utility.yul\":1316:1327   */\n      0x00\n        /* \"#utility.yul\":1350:1356   */\n      dup3\n        /* \"#utility.yul\":1345:1348   */\n      dup3\n        /* \"#utility.yul\":1338:1357   */\n      mstore\n        /* \"#utility.yul\":1390:1394   */\n      0x20\n        /* \"#utility.yul\":1385:1388   */\n      dup3\n        /* \"#utility.yul\":1381:1395   */\n      add\n        /* \"#utility.yul\":1366:1395   */\n      swap1\n      pop\n        /* \"#utility.yul\":1232:1401   */\n      swap3\n      swap2\n      pop\n      pop\n      jump\t// out\n        /* \"#utility.yul\":1407:1582   */\n    tag_24:\n        /* \"#utility.yul\":1547:1574   */\n      0x496e76616c696420726563697069656e74206164647265737300000000000000\n        /* \"#utility.yul\":1543:1544   */\n      0x00\n        /* \"#utility.yul\":1535:1541   */\n      dup3\n        /* \"#utility.yul\":1531:1545   */\n      add\n        /* \"#utility.yul\":1524:1575   */\n      mstore\n        /* \"#utility.yul\":1407:1582   */\n      pop\n      jump\t// out\n        /* \"#utility.yul\":1588:1954   */\n    tag_25:\n        /* \"#utility.yul\":1730:1733   */\n      0x00\n        /* \"#utility.yul\":1751:1818   */\n      tag_47\n        /* \"#utility.yul\":1815:1817   */\n      0x19\n        /* \"#utility.yul\":1810:1813   */\n      dup4\n        /* \"#utility.yul\":1751:1818   */\n      tag_23\n      jump\t// in\n    tag_47:\n        /* \"#utility.yul\":1744:1818   */\n      swap2\n      pop\n        /* \"#utility.yul\":1827:1920   */\n      tag_48\n        /* \"#utility.yul\":1916:1919   */\n      dup3\n        /* \"#utility.yul\":1827:1920   */\n      tag_24\n      jump\t// in\n    tag_48:\n        /* \"#utility.yul\":1945:1947   */\n      0x20\n        /* \"#utility.yul\":1940:1943   */\n      dup3\n        /* \"#utility.yul\":1936:1948   */\n      add\n        /* \"#utility.yul\":1929:1948   */\n      swap1\n      pop\n        /* \"#utility.yul\":1588:1954   */\n      swap2\n      swap1\n      pop\n      jump\t// out\n        /* \"#utility.yul\":1960:2379   */\n    tag_10:\n        /* \"#utility.yul\":2126:2130   */\n      0x00\n        /* \"#utility.yul\":2164:2166   */\n      0x20\n        /* \"#utility.yul\":2153:2162   */\n      dup3\n        /* \"#utility.yul\":2149:2167   */\n      add\n        /* \"#utility.yul\":2141:2167   */\n      swap1\n      pop\n        /* \"#utility.yul\":2213:2222   */\n      dup2\n        /* \"#utility.yul\":2207:2211   */\n      dup2\n        /* \"#utility.yul\":2203:2223   */\n      sub\n        /* \"#utility.yul\":2199:2200   */\n      0x00\n        /* \"#utility.yul\":2188:2197   */\n      dup4\n        /* \"#utility.yul\":2184:2201   */\n      add\n        /* \"#utility.yul\":2177:2224   */\n      mstore\n        /* \"#utility.yul\":2241:2372   */\n      tag_50\n        /* \"#utility.yul\":2367:2371   */\n      dup2\n        /* \"#utility.yul\":2241:2372   */\n      tag_25\n      jump\t// in\n    tag_50:\n        /* \"#utility.yul\":2233:2372   */\n      swap1\n      pop\n        /* \"#utility.yul\":1960:2379   */\n      swap2\n      swap1\n      pop\n      jump\t// out\n        /* \"#utility.yul\":2385:2567   */\n    tag_26:\n        /* \"#utility.yul\":2525:2559   */\n      0x416d6f756e74206d7573742062652067726561746572207468616e207a65726f\n        /* \"#utility.yul\":2521:2522   */\n      0x00\n        /* \"#utility.yul\":2513:2519   */\n      dup3\n        /* \"#utility.yul\":2509:2523   */\n      add\n        /* \"#utility.yul\":2502:2560   */\n      mstore\n        /* \"#utility.yul\":2385:2567   */\n      pop\n      jump\t// out\n        /* \"#utility.yul\":2573:2939   */\n    tag_27:\n        /* \"#utility.yul\":2715:2718   */\n      0x00\n        /* \"#utility.yul\":2736:2803   */\n      tag_53\n        /* \"#utility.yul\":2800:2802   */\n      0x20\n        /* \"#utility.yul\":2795:2798   */\n      dup4\n        /* \"#utility.yul\":2736:2803   */\n      tag_23\n      jump\t// in\n    tag_53:\n        /* \"#utility.yul\":2729:2803   */\n      swap2\n      pop\n        /* \"#utility.yul\":2812:2905   */\n      tag_54\n        /* \"#utility.yul\":2901:2904   */\n      dup3\n        /* \"#utility.yul\":2812:2905   */\n      tag_26\n      jump\t// in\n    tag_54:\n        /* \"#utility.yul\":2930:2932   */\n      0x20\n        /* \"#utility.yul\":2925:2928   */\n      dup3\n        /* \"#utility.yul\":2921:2933   */\n      add\n        /* \"#utility.yul\":2914:2933   */\n      swap1\n      pop\n        /* \"#utility.yul\":2573:2939   */\n      swap2\n      swap1\n      pop\n      jump\t// out\n        /* \"#utility.yul\":2945:3364   */\n    tag_13:\n        /* \"#utility.yul\":3111:3115   */\n      0x00\n        /* \"#utility.yul\":3149:3151   */\n      0x20\n        /* \"#utility.yul\":3138:3147   */\n      dup3\n        /* \"#utility.yul\":3134:3152   */\n      add\n        /* \"#utility.yul\":3126:3152   */\n      swap1\n      pop\n        /* \"#utility.yul\":3198:3207   */\n      dup2\n        /* \"#utility.yul\":3192:3196   */\n      dup2\n        /* \"#utility.yul\":3188:3208   */\n      sub\n        /* \"#utility.yul\":3184:3185   */\n      0x00\n        /* \"#utility.yul\":3173:3182   */\n      dup4\n        /* \"#utility.yul\":3169:3186   */\n      add\n        /* \"#utility.yul\":3162:3209   */\n      mstore\n        /* \"#utility.yul\":3226:3357   */\n      tag_56\n        /* \"#utility.yul\":3352:3356   */\n      dup2\n        /* \"#utility.yul\":3226:3357   */\n      tag_27\n      jump\t// in\n    tag_56:\n        /* \"#utility.yul\":3218:3357   */\n      swap1\n      pop\n        /* \"#utility.yul\":2945:3364   */\n      swap2\n      swap1\n      pop\n      jump\t// out\n\n    auxdata: 0xa2646970667358221220125a091f7b07f562ee81fae6df84099395623557c85c69fb7881d759cbedb66364736f6c63430008150033\n}\n",
				"bytecode": {
					"linkReferences": {},
					"object": "608060405234801561001057600080fd5b506102ea806100206000396000f3fe60806040526004361061001e5760003560e01c806348c981e214610023575b600080fd5b61003d6004803603810190610038919061019e565b61003f565b005b600073ffffffffffffffffffffffffffffffffffffffff168173ffffffffffffffffffffffffffffffffffffffff16036100ae576040517f08c379a00000000000000000000000000000000000000000000000000000000081526004016100a590610228565b60405180910390fd5b600034116100f1576040517f08c379a00000000000000000000000000000000000000000000000000000000081526004016100e890610294565b60405180910390fd5b8073ffffffffffffffffffffffffffffffffffffffff166108fc349081150290604051600060405180830381858888f19350505050158015610137573d6000803e3d6000fd5b5050565b600080fd5b600073ffffffffffffffffffffffffffffffffffffffff82169050919050565b600061016b82610140565b9050919050565b61017b81610160565b811461018657600080fd5b50565b60008135905061019881610172565b92915050565b6000602082840312156101b4576101b361013b565b5b60006101c284828501610189565b91505092915050565b600082825260208201905092915050565b7f496e76616c696420726563697069656e74206164647265737300000000000000600082015250565b60006102126019836101cb565b915061021d826101dc565b602082019050919050565b6000602082019050818103600083015261024181610205565b9050919050565b7f416d6f756e74206d7573742062652067726561746572207468616e207a65726f600082015250565b600061027e6020836101cb565b915061028982610248565b602082019050919050565b600060208201905081810360008301526102ad81610271565b905091905056fea2646970667358221220125a091f7b07f562ee81fae6df84099395623557c85c69fb7881d759cbedb66364736f6c63430008150033",
					"opcodes": "PUSH1 0x80 PUSH1 0x40 MSTORE CALLVALUE DUP1 ISZERO PUSH2 0x10 JUMPI PUSH1 0x0 DUP1 REVERT JUMPDEST POP PUSH2 0x2EA DUP1 PUSH2 0x20 PUSH1 0x0 CODECOPY PUSH1 0x0 RETURN INVALID PUSH1 0x80 PUSH1 0x40 MSTORE PUSH1 0x4 CALLDATASIZE LT PUSH2 0x1E JUMPI PUSH1 0x0 CALLDATALOAD PUSH1 0xE0 SHR DUP1 PUSH4 0x48C981E2 EQ PUSH2 0x23 JUMPI JUMPDEST PUSH1 0x0 DUP1 REVERT JUMPDEST PUSH2 0x3D PUSH1 0x4 DUP1 CALLDATASIZE SUB DUP2 ADD SWAP1 PUSH2 0x38 SWAP2 SWAP1 PUSH2 0x19E JUMP JUMPDEST PUSH2 0x3F JUMP JUMPDEST STOP JUMPDEST PUSH1 0x0 PUSH20 0xFFFFFFFFFFFFFFFFFFFFFFFFFFFFFFFFFFFFFFFF AND DUP2 PUSH20 0xFFFFFFFFFFFFFFFFFFFFFFFFFFFFFFFFFFFFFFFF AND SUB PUSH2 0xAE JUMPI PUSH1 0x40 MLOAD PUSH32 0x8C379A000000000000000000000000000000000000000000000000000000000 DUP2 MSTORE PUSH1 0x4 ADD PUSH2 0xA5 SWAP1 PUSH2 0x228 JUMP JUMPDEST PUSH1 0x40 MLOAD DUP1 SWAP2 SUB SWAP1 REVERT JUMPDEST PUSH1 0x0 CALLVALUE GT PUSH2 0xF1 JUMPI PUSH1 0x40 MLOAD PUSH32 0x8C379A000000000000000000000000000000000000000000000000000000000 DUP2 MSTORE PUSH1 0x4 ADD PUSH2 0xE8 SWAP1 PUSH2 0x294 JUMP JUMPDEST PUSH1 0x40 MLOAD DUP1 SWAP2 SUB SWAP1 REVERT JUMPDEST DUP1 PUSH20 0xFFFFFFFFFFFFFFFFFFFFFFFFFFFFFFFFFFFFFFFF AND PUSH2 0x8FC CALLVALUE SWAP1 DUP2 ISZERO MUL SWAP1 PUSH1 0x40 MLOAD PUSH1 0x0 PUSH1 0x40 MLOAD DUP1 DUP4 SUB DUP2 DUP6 DUP9 DUP9 CALL SWAP4 POP POP POP POP ISZERO DUP1 ISZERO PUSH2 0x137 JUMPI RETURNDATASIZE PUSH1 0x0 DUP1 RETURNDATACOPY RETURNDATASIZE PUSH1 0x0 REVERT JUMPDEST POP POP JUMP JUMPDEST PUSH1 0x0 DUP1 REVERT JUMPDEST PUSH1 0x0 PUSH20 0xFFFFFFFFFFFFFFFFFFFFFFFFFFFFFFFFFFFFFFFF DUP3 AND SWAP1 POP SWAP2 SWAP1 POP JUMP JUMPDEST PUSH1 0x0 PUSH2 0x16B DUP3 PUSH2 0x140 JUMP JUMPDEST SWAP1 POP SWAP2 SWAP1 POP JUMP JUMPDEST PUSH2 0x17B DUP2 PUSH2 0x160 JUMP JUMPDEST DUP2 EQ PUSH2 0x186 JUMPI PUSH1 0x0 DUP1 REVERT JUMPDEST POP JUMP JUMPDEST PUSH1 0x0 DUP2 CALLDATALOAD SWAP1 POP PUSH2 0x198 DUP2 PUSH2 0x172 JUMP JUMPDEST SWAP3 SWAP2 POP POP JUMP JUMPDEST PUSH1 0x0 PUSH1 0x20 DUP3 DUP5 SUB SLT ISZERO PUSH2 0x1B4 JUMPI PUSH2 0x1B3 PUSH2 0x13B JUMP JUMPDEST JUMPDEST PUSH1 0x0 PUSH2 0x1C2 DUP5 DUP3 DUP6 ADD PUSH2 0x189 JUMP JUMPDEST SWAP2 POP POP SWAP3 SWAP2 POP POP JUMP JUMPDEST PUSH1 0x0 DUP3 DUP3 MSTORE PUSH1 0x20 DUP3 ADD SWAP1 POP SWAP3 SWAP2 POP POP JUMP JUMPDEST PUSH32 0x496E76616C696420726563697069656E74206164647265737300000000000000 PUSH1 0x0 DUP3 ADD MSTORE POP JUMP JUMPDEST PUSH1 0x0 PUSH2 0x212 PUSH1 0x19 DUP4 PUSH2 0x1CB JUMP JUMPDEST SWAP2 POP PUSH2 0x21D DUP3 PUSH2 0x1DC JUMP JUMPDEST PUSH1 0x20 DUP3 ADD SWAP1 POP SWAP2 SWAP1 POP JUMP JUMPDEST PUSH1 0x0 PUSH1 0x20 DUP3 ADD SWAP1 POP DUP2 DUP2 SUB PUSH1 0x0 DUP4 ADD MSTORE PUSH2 0x241 DUP2 PUSH2 0x205 JUMP JUMPDEST SWAP1 POP SWAP2 SWAP1 POP JUMP JUMPDEST PUSH32 0x416D6F756E74206D7573742062652067726561746572207468616E207A65726F PUSH1 0x0 DUP3 ADD MSTORE POP JUMP JUMPDEST PUSH1 0x0 PUSH2 0x27E PUSH1 0x20 DUP4 PUSH2 0x1CB JUMP JUMPDEST SWAP2 POP PUSH2 0x289 DUP3 PUSH2 0x248 JUMP JUMPDEST PUSH1 0x20 DUP3 ADD SWAP1 POP SWAP2 SWAP1 POP JUMP JUMPDEST PUSH1 0x0 PUSH1 0x20 DUP3 ADD SWAP1 POP DUP2 DUP2 SUB PUSH1 0x0 DUP4 ADD MSTORE PUSH2 0x2AD DUP2 PUSH2 0x271 JUMP JUMPDEST SWAP1 POP SWAP2 SWAP1 POP JUMP INVALID LOG2 PUSH5 0x6970667358 0x22 SLT KECCAK256 SLT GAS MULMOD 0x1F PUSH28 0x7F562EE81FAE6DF84099395623557C85C69FB7881D759CBEDB66364 PUSH20 0x6F6C634300081500330000000000000000000000 "
				},
				"gasEstimates": {
					"creation": {
						"codeDepositCost": "149200",
						"executionCost": "196",
						"totalCost": "149396"
					},
					"external": {
						"sendEther(address)": "infinite"
					}
				},
				"methodIdentifiers": {
					"sendEther(address)": "48c981e2"
				}
			},
			"storageLayout": {
				"storage": [],
				"types": null
			},
			"userdoc": {
				"kind": "user",
				"methods": {},
				"version": 1
			}
		}
	}
}