{
	"MySwap.sol": {
		"SingleSwap": {
			"abi": [
				{
					"inputs": [],
					"stateMutability": "nonpayable",
					"type": "constructor"
				},
				{
					"inputs": [
						{
							"internalType": "address",
							"name": "ads",
							"type": "address"
						}
					],
					"name": "CheckBalance",
					"outputs": [
						{
							"internalType": "uint256",
							"name": "",
							"type": "uint256"
						}
					],
					"stateMutability": "view",
					"type": "function"
				},
				{
					"inputs": [],
					"name": "LINK",
					"outputs": [
						{
							"internalType": "address",
							"name": "",
							"type": "address"
						}
					],
					"stateMutability": "view",
					"type": "function"
				},
				{
					"inputs": [],
					"name": "WETH",
					"outputs": [
						{
							"internalType": "address",
							"name": "",
							"type": "address"
						}
					],
					"stateMutability": "view",
					"type": "function"
				},
				{
					"inputs": [],
					"name": "linkToken",
					"outputs": [
						{
							"internalType": "contract IERC20",
							"name": "",
							"type": "address"
						}
					],
					"stateMutability": "view",
					"type": "function"
				},
				{
					"inputs": [],
					"name": "poolFee",
					"outputs": [
						{
							"internalType": "uint24",
							"name": "",
							"type": "uint24"
						}
					],
					"stateMutability": "view",
					"type": "function"
				},
				{
					"inputs": [],
					"name": "routerAddress",
					"outputs": [
						{
							"internalType": "address",
							"name": "",
							"type": "address"
						}
					],
					"stateMutability": "view",
					"type": "function"
				},
				{
					"inputs": [
						{
							"internalType": "address",
							"name": "tokenOut",
							"type": "address"
						},
						{
							"internalType": "uint256",
							"name": "amountOutMinimum",
							"type": "uint256"
						}
					],
					"name": "swapEthToToken",
					"outputs": [
						{
							"internalType": "uint256",
							"name": "amountOut",
							"type": "uint256"
						}
					],
					"stateMutability": "payable",
					"type": "function"
				},
				{
					"inputs": [
						{
							"internalType": "uint256",
							"name": "amountIn",
							"type": "uint256"
						}
					],
					"name": "swapExactInputSingle",
					"outputs": [
						{
							"internalType": "uint256",
							"name": "amountOut",
							"type": "uint256"
						}
					],
					"stateMutability": "nonpayable",
					"type": "function"
				},
				{
					"inputs": [
						{
							"internalType": "uint256",
							"name": "amountOut",
							"type": "uint256"
						},
						{
							"internalType": "uint256",
							"name": "amountInMaximum",
							"type": "uint256"
						}
					],
					"name": "swapExactOutputSingle",
					"outputs": [
						{
							"internalType": "uint256",
							"name": "amountIn",
							"type": "uint256"
						}
					],
					"stateMutability": "nonpayable",
					"type": "function"
				},
				{
					"inputs": [],
					"name": "swapRouter",
					"outputs": [
						{
							"internalType": "contract ISwapRouter",
							"name": "",
							"type": "address"
						}
					],
					"stateMutability": "view",
					"type": "function"
				},
				{
					"inputs": [
						{
							"internalType": "address",
							"name": "tokenIn",
							"type": "address"
						},
						{
							"internalType": "uint256",
							"name": "amountIn",
							"type": "uint256"
						},
						{
							"internalType": "uint256",
							"name": "amountOutMinimum",
							"type": "uint256"
						}
					],
					"name": "swapTokenToEth",
					"outputs": [
						{
							"internalType": "uint256",
							"name": "amountOut",
							"type": "uint256"
						}
					],
					"stateMutability": "nonpayable",
					"type": "function"
				},
				{
					"inputs": [
						{
							"internalType": "address",
							"name": "tokenIn",
							"type": "address"
						},
						{
							"internalType": "address",
							"name": "tokenOut",
							"type": "address"
						},
						{
							"internalType": "uint256",
							"name": "amountIn",
							"type": "uint256"
						},
						{
							"internalType": "uint256",
							"name": "amountOutMinimum",
							"type": "uint256"
						}
					],
					"name": "swapTokenToToken",
					"outputs": [
						{
							"internalType": "uint256",
							"name": "amountOut",
							"type": "uint256"
						}
					],
					"stateMutability": "nonpayable",
					"type": "function"
				}
			],
			"devdoc": {
				"kind": "dev",
				"methods": {},
				"version": 1
			},
			"evm": {
				"assembly": "    /* \"MySwap.sol\":518:4956  contract SingleSwap {\r... */\n  mstore(0x40, 0xa0)\n    /* \"MySwap.sol\":594:636  0xE592427A0AEce92De3Edee1F18E0157C05861564 */\n  0xe592427a0aece92de3edee1f18e0157c05861564\n    /* \"MySwap.sol\":643:711  ISwapRouter public immutable swapRouter = ISwapRouter(routerAddress) */\n  0xffffffffffffffffffffffffffffffffffffffff\n  and\n  0x80\n  swap1\n  0xffffffffffffffffffffffffffffffffffffffff\n  and\n  0x60\n  shl\n  dup2\n  mstore\n  pop\n    /* \"MySwap.sol\":751:793  0x326C977E6efc84E512bB9C30f76E30c160eD06FB */\n  0x326c977e6efc84e512bb9c30f76e30c160ed06fb\n    /* \"MySwap.sol\":882:920  IERC20 public linkToken = IERC20(LINK) */\n  0x00\n  dup1\n  0x0100\n  exp\n  dup2\n  sload\n  dup2\n  0xffffffffffffffffffffffffffffffffffffffff\n  mul\n  not\n  and\n  swap1\n  dup4\n  0xffffffffffffffffffffffffffffffffffffffff\n  and\n  mul\n  or\n  swap1\n  sstore\n  pop\n    /* \"MySwap.sol\":1035:1051  constructor() {} */\n  callvalue\n  dup1\n  iszero\n  tag_1\n  jumpi\n  0x00\n  dup1\n  revert\ntag_1:\n  pop\n    /* \"MySwap.sol\":518:4956  contract SingleSwap {\r... */\n  shr(0x60, mload(0x80))\n  codecopy(0x00, dataOffset(sub_0), dataSize(sub_0))\n  assignImmutable(\"0xe3cb0ca89f217511efd4af6caea80048f9921bac3b9063844e65469cf515f138\")\n  return(0x00, dataSize(sub_0))\nstop\n\nsub_0: assembly {\n        /* \"MySwap.sol\":518:4956  contract SingleSwap {\r... */\n      mstore(0x40, 0x80)\n      jumpi(tag_1, lt(calldatasize, 0x04))\n      shr(0xe0, calldataload(0x00))\n      dup1\n      0x57970e93\n      gt\n      tag_14\n      jumpi\n      dup1\n      0x57970e93\n      eq\n      tag_8\n      jumpi\n      dup1\n      0x73bd43ad\n      eq\n      tag_9\n      jumpi\n      dup1\n      0xad5c4648\n      eq\n      tag_10\n      jumpi\n      dup1\n      0xc31c9c07\n      eq\n      tag_11\n      jumpi\n      dup1\n      0xc4b69a18\n      eq\n      tag_12\n      jumpi\n      dup1\n      0xdc735ccf\n      eq\n      tag_13\n      jumpi\n      jump(tag_1)\n    tag_14:\n      dup1\n      0x089fe6aa\n      eq\n      tag_2\n      jumpi\n      dup1\n      0x180cab4d\n      eq\n      tag_3\n      jumpi\n      dup1\n      0x1b6b6d23\n      eq\n      tag_4\n      jumpi\n      dup1\n      0x2e4d59c4\n      eq\n      tag_5\n      jumpi\n      dup1\n      0x3268cc56\n      eq\n      tag_6\n      jumpi\n      dup1\n      0x3ee2afc1\n      eq\n      tag_7\n      jumpi\n    tag_1:\n      0x00\n      dup1\n      revert\n        /* \"MySwap.sol\":989:1026  uint24 public constant poolFee = 3000 */\n    tag_2:\n      callvalue\n      dup1\n      iszero\n      tag_15\n      jumpi\n      0x00\n      dup1\n      revert\n    tag_15:\n      pop\n      tag_16\n      tag_17\n      jump\t// in\n    tag_16:\n      mload(0x40)\n      tag_18\n      swap2\n      swap1\n      tag_19\n      jump\t// in\n    tag_18:\n      mload(0x40)\n      dup1\n      swap2\n      sub\n      swap1\n      return\n        /* \"MySwap.sol\":3338:4068  function swapTokenToEth(address tokenIn, uint256 amountIn, uint256 amountOutMinimum)\r... */\n    tag_3:\n      callvalue\n      dup1\n      iszero\n      tag_20\n      jumpi\n      0x00\n      dup1\n      revert\n    tag_20:\n      pop\n      tag_21\n      0x04\n      dup1\n      calldatasize\n      sub\n      dup2\n      add\n      swap1\n      tag_22\n      swap2\n      swap1\n      tag_23\n      jump\t// in\n    tag_22:\n      tag_24\n      jump\t// in\n    tag_21:\n      mload(0x40)\n      tag_25\n      swap2\n      swap1\n      tag_26\n      jump\t// in\n    tag_25:\n      mload(0x40)\n      dup1\n      swap2\n      sub\n      swap1\n      return\n        /* \"MySwap.sol\":720:793  address public constant LINK = 0x326C977E6efc84E512bB9C30f76E30c160eD06FB */\n    tag_4:\n      callvalue\n      dup1\n      iszero\n      tag_27\n      jumpi\n      0x00\n      dup1\n      revert\n    tag_27:\n      pop\n      tag_28\n      tag_29\n      jump\t// in\n    tag_28:\n      mload(0x40)\n      tag_30\n      swap2\n      swap1\n      tag_31\n      jump\t// in\n    tag_30:\n      mload(0x40)\n      dup1\n      swap2\n      sub\n      swap1\n      return\n        /* \"MySwap.sol\":4819:4953  function CheckBalance(address ads) public view returns(uint){\r... */\n    tag_5:\n      callvalue\n      dup1\n      iszero\n      tag_32\n      jumpi\n      0x00\n      dup1\n      revert\n    tag_32:\n      pop\n      tag_33\n      0x04\n      dup1\n      calldatasize\n      sub\n      dup2\n      add\n      swap1\n      tag_34\n      swap2\n      swap1\n      tag_35\n      jump\t// in\n    tag_34:\n      tag_36\n      jump\t// in\n    tag_33:\n      mload(0x40)\n      tag_37\n      swap2\n      swap1\n      tag_26\n      jump\t// in\n    tag_37:\n      mload(0x40)\n      dup1\n      swap2\n      sub\n      swap1\n      return\n        /* \"MySwap.sol\":545:636  address public constant routerAddress =\r... */\n    tag_6:\n      callvalue\n      dup1\n      iszero\n      tag_38\n      jumpi\n      0x00\n      dup1\n      revert\n    tag_38:\n      pop\n      tag_39\n      tag_40\n      jump\t// in\n    tag_39:\n      mload(0x40)\n      tag_41\n      swap2\n      swap1\n      tag_31\n      jump\t// in\n    tag_41:\n      mload(0x40)\n      dup1\n      swap2\n      sub\n      swap1\n      return\n        /* \"MySwap.sol\":4072:4809  function swapTokenToToken(address tokenIn, address tokenOut, uint256 amountIn, uint256 amountOutMinimum)\r... */\n    tag_7:\n      callvalue\n      dup1\n      iszero\n      tag_42\n      jumpi\n      0x00\n      dup1\n      revert\n    tag_42:\n      pop\n      tag_43\n      0x04\n      dup1\n      calldatasize\n      sub\n      dup2\n      add\n      swap1\n      tag_44\n      swap2\n      swap1\n      tag_45\n      jump\t// in\n    tag_44:\n      tag_46\n      jump\t// in\n    tag_43:\n      mload(0x40)\n      tag_47\n      swap2\n      swap1\n      tag_26\n      jump\t// in\n    tag_47:\n      mload(0x40)\n      dup1\n      swap2\n      sub\n      swap1\n      return\n        /* \"MySwap.sol\":882:920  IERC20 public linkToken = IERC20(LINK) */\n    tag_8:\n      callvalue\n      dup1\n      iszero\n      tag_48\n      jumpi\n      0x00\n      dup1\n      revert\n    tag_48:\n      pop\n      tag_49\n      tag_50\n      jump\t// in\n    tag_49:\n      mload(0x40)\n      tag_51\n      swap2\n      swap1\n      tag_52\n      jump\t// in\n    tag_51:\n      mload(0x40)\n      dup1\n      swap2\n      sub\n      swap1\n      return\n        /* \"MySwap.sol\":1059:1720  function swapExactInputSingle(uint256 amountIn)\r... */\n    tag_9:\n      callvalue\n      dup1\n      iszero\n      tag_53\n      jumpi\n      0x00\n      dup1\n      revert\n    tag_53:\n      pop\n      tag_54\n      0x04\n      dup1\n      calldatasize\n      sub\n      dup2\n      add\n      swap1\n      tag_55\n      swap2\n      swap1\n      tag_56\n      jump\t// in\n    tag_55:\n      tag_57\n      jump\t// in\n    tag_54:\n      mload(0x40)\n      tag_58\n      swap2\n      swap1\n      tag_26\n      jump\t// in\n    tag_58:\n      mload(0x40)\n      dup1\n      swap2\n      sub\n      swap1\n      return\n        /* \"MySwap.sol\":800:873  address public constant WETH = 0xB4FBF271143F4FBf7B91A5ded31805e42b2208d6 */\n    tag_10:\n      callvalue\n      dup1\n      iszero\n      tag_59\n      jumpi\n      0x00\n      dup1\n      revert\n    tag_59:\n      pop\n      tag_60\n      tag_61\n      jump\t// in\n    tag_60:\n      mload(0x40)\n      tag_62\n      swap2\n      swap1\n      tag_31\n      jump\t// in\n    tag_62:\n      mload(0x40)\n      dup1\n      swap2\n      sub\n      swap1\n      return\n        /* \"MySwap.sol\":643:711  ISwapRouter public immutable swapRouter = ISwapRouter(routerAddress) */\n    tag_11:\n      callvalue\n      dup1\n      iszero\n      tag_63\n      jumpi\n      0x00\n      dup1\n      revert\n    tag_63:\n      pop\n      tag_64\n      tag_65\n      jump\t// in\n    tag_64:\n      mload(0x40)\n      tag_66\n      swap2\n      swap1\n      tag_67\n      jump\t// in\n    tag_66:\n      mload(0x40)\n      dup1\n      swap2\n      sub\n      swap1\n      return\n        /* \"MySwap.sol\":1728:2627  function swapExactOutputSingle(uint256 amountOut, uint256 amountInMaximum)\r... */\n    tag_12:\n      callvalue\n      dup1\n      iszero\n      tag_68\n      jumpi\n      0x00\n      dup1\n      revert\n    tag_68:\n      pop\n      tag_69\n      0x04\n      dup1\n      calldatasize\n      sub\n      dup2\n      add\n      swap1\n      tag_70\n      swap2\n      swap1\n      tag_71\n      jump\t// in\n    tag_70:\n      tag_72\n      jump\t// in\n    tag_69:\n      mload(0x40)\n      tag_73\n      swap2\n      swap1\n      tag_26\n      jump\t// in\n    tag_73:\n      mload(0x40)\n      dup1\n      swap2\n      sub\n      swap1\n      return\n        /* \"MySwap.sol\":2635:3330  function swapEthToToken(address tokenOut, uint256 amountOutMinimum)\r... */\n    tag_13:\n      tag_74\n      0x04\n      dup1\n      calldatasize\n      sub\n      dup2\n      add\n      swap1\n      tag_75\n      swap2\n      swap1\n      tag_76\n      jump\t// in\n    tag_75:\n      tag_77\n      jump\t// in\n    tag_74:\n      mload(0x40)\n      tag_78\n      swap2\n      swap1\n      tag_26\n      jump\t// in\n    tag_78:\n      mload(0x40)\n      dup1\n      swap2\n      sub\n      swap1\n      return\n        /* \"MySwap.sol\":989:1026  uint24 public constant poolFee = 3000 */\n    tag_17:\n        /* \"MySwap.sol\":1022:1026  3000 */\n      0x0bb8\n        /* \"MySwap.sol\":989:1026  uint24 public constant poolFee = 3000 */\n      dup2\n      jump\t// out\n        /* \"MySwap.sol\":3338:4068  function swapTokenToEth(address tokenIn, uint256 amountIn, uint256 amountOutMinimum)\r... */\n    tag_24:\n        /* \"MySwap.sol\":3451:3468  uint256 amountOut */\n      0x00\n        /* \"MySwap.sol\":3541:3548  tokenIn */\n      dup4\n        /* \"MySwap.sol\":3534:3557  IERC20(tokenIn).approve */\n      0xffffffffffffffffffffffffffffffffffffffff\n      and\n      0x095ea7b3\n        /* \"MySwap.sol\":3566:3576  swapRouter */\n      immutable(\"0xe3cb0ca89f217511efd4af6caea80048f9921bac3b9063844e65469cf515f138\")\n        /* \"MySwap.sol\":3579:3587  amountIn */\n      dup6\n        /* \"MySwap.sol\":3534:3588  IERC20(tokenIn).approve(address(swapRouter), amountIn) */\n      mload(0x40)\n      dup4\n      0xffffffff\n      and\n      0xe0\n      shl\n      dup2\n      mstore\n      0x04\n      add\n      tag_80\n      swap3\n      swap2\n      swap1\n      tag_81\n      jump\t// in\n    tag_80:\n      0x20\n      mload(0x40)\n      dup1\n      dup4\n      sub\n      dup2\n      0x00\n      dup8\n      dup1\n      extcodesize\n      iszero\n      dup1\n      iszero\n      tag_82\n      jumpi\n      0x00\n      dup1\n      revert\n    tag_82:\n      pop\n      gas\n      call\n      iszero\n      dup1\n      iszero\n      tag_84\n      jumpi\n      returndatasize\n      0x00\n      dup1\n      returndatacopy\n      revert(0x00, returndatasize)\n    tag_84:\n      pop\n      pop\n      pop\n      pop\n      mload(0x40)\n      returndatasize\n      not(0x1f)\n      0x1f\n      dup3\n      add\n      and\n      dup3\n      add\n      dup1\n      0x40\n      mstore\n      pop\n      dup2\n      add\n      swap1\n      tag_85\n      swap2\n      swap1\n      tag_86\n      jump\t// in\n    tag_85:\n      pop\n        /* \"MySwap.sol\":3597:3645  ISwapRouter.ExactInputSingleParams memory params */\n      0x00\n        /* \"MySwap.sol\":3648:4008  ISwapRouter\r... */\n      mload(0x40)\n      dup1\n      0x0100\n      add\n      0x40\n      mstore\n      dup1\n        /* \"MySwap.sol\":3717:3724  tokenIn */\n      dup7\n        /* \"MySwap.sol\":3648:4008  ISwapRouter\r... */\n      0xffffffffffffffffffffffffffffffffffffffff\n      and\n      dup2\n      mstore\n      0x20\n      add\n        /* \"MySwap.sol\":831:873  0xB4FBF271143F4FBf7B91A5ded31805e42b2208d6 */\n      0xb4fbf271143f4fbf7b91a5ded31805e42b2208d6\n        /* \"MySwap.sol\":3648:4008  ISwapRouter\r... */\n      0xffffffffffffffffffffffffffffffffffffffff\n      and\n      dup2\n      mstore\n      0x20\n      add\n        /* \"MySwap.sol\":1022:1026  3000 */\n      0x0bb8\n        /* \"MySwap.sol\":3648:4008  ISwapRouter\r... */\n      0xffffff\n      and\n      dup2\n      mstore\n      0x20\n      add\n        /* \"MySwap.sol\":3829:3839  msg.sender */\n      caller\n        /* \"MySwap.sol\":3648:4008  ISwapRouter\r... */\n      0xffffffffffffffffffffffffffffffffffffffff\n      and\n      dup2\n      mstore\n      0x20\n      add\n        /* \"MySwap.sol\":3864:3879  block.timestamp */\n      timestamp\n        /* \"MySwap.sol\":3648:4008  ISwapRouter\r... */\n      dup2\n      mstore\n      0x20\n      add\n        /* \"MySwap.sol\":3904:3912  amountIn */\n      dup6\n        /* \"MySwap.sol\":3648:4008  ISwapRouter\r... */\n      dup2\n      mstore\n      0x20\n      add\n        /* \"MySwap.sol\":3945:3961  amountOutMinimum */\n      dup5\n        /* \"MySwap.sol\":3648:4008  ISwapRouter\r... */\n      dup2\n      mstore\n      0x20\n      add\n        /* \"MySwap.sol\":3995:3996  0 */\n      0x00\n        /* \"MySwap.sol\":3648:4008  ISwapRouter\r... */\n      0xffffffffffffffffffffffffffffffffffffffff\n      and\n      dup2\n      mstore\n      pop\n        /* \"MySwap.sol\":3597:4008  ISwapRouter.ExactInputSingleParams memory params = ISwapRouter\r... */\n      swap1\n      pop\n        /* \"MySwap.sol\":4029:4039  swapRouter */\n      immutable(\"0xe3cb0ca89f217511efd4af6caea80048f9921bac3b9063844e65469cf515f138\")\n        /* \"MySwap.sol\":4029:4056  swapRouter.exactInputSingle */\n      0xffffffffffffffffffffffffffffffffffffffff\n      and\n      0x414bf389\n        /* \"MySwap.sol\":4057:4063  params */\n      dup3\n        /* \"MySwap.sol\":4029:4064  swapRouter.exactInputSingle(params) */\n      mload(0x40)\n      dup3\n      0xffffffff\n      and\n      0xe0\n      shl\n      dup2\n      mstore\n      0x04\n      add\n      tag_87\n      swap2\n      swap1\n      tag_88\n      jump\t// in\n    tag_87:\n      0x20\n      mload(0x40)\n      dup1\n      dup4\n      sub\n      dup2\n      0x00\n      dup8\n      dup1\n      extcodesize\n      iszero\n      dup1\n      iszero\n      tag_89\n      jumpi\n      0x00\n      dup1\n      revert\n    tag_89:\n      pop\n      gas\n      call\n      iszero\n      dup1\n      iszero\n      tag_91\n      jumpi\n      returndatasize\n      0x00\n      dup1\n      returndatacopy\n      revert(0x00, returndatasize)\n    tag_91:\n      pop\n      pop\n      pop\n      pop\n      mload(0x40)\n      returndatasize\n      not(0x1f)\n      0x1f\n      dup3\n      add\n      and\n      dup3\n      add\n      dup1\n      0x40\n      mstore\n      pop\n      dup2\n      add\n      swap1\n      tag_92\n      swap2\n      swap1\n      tag_93\n      jump\t// in\n    tag_92:\n        /* \"MySwap.sol\":4017:4064  amountOut = swapRouter.exactInputSingle(params) */\n      swap2\n      pop\n        /* \"MySwap.sol\":3338:4068  function swapTokenToEth(address tokenIn, uint256 amountIn, uint256 amountOutMinimum)\r... */\n      pop\n      swap4\n      swap3\n      pop\n      pop\n      pop\n      jump\t// out\n        /* \"MySwap.sol\":720:793  address public constant LINK = 0x326C977E6efc84E512bB9C30f76E30c160eD06FB */\n    tag_29:\n        /* \"MySwap.sol\":751:793  0x326C977E6efc84E512bB9C30f76E30c160eD06FB */\n      0x326c977e6efc84e512bb9c30f76e30c160ed06fb\n        /* \"MySwap.sol\":720:793  address public constant LINK = 0x326C977E6efc84E512bB9C30f76E30c160eD06FB */\n      dup2\n      jump\t// out\n        /* \"MySwap.sol\":4819:4953  function CheckBalance(address ads) public view returns(uint){\r... */\n    tag_36:\n        /* \"MySwap.sol\":4874:4878  uint */\n      0x00\n        /* \"MySwap.sol\":4890:4898  uint bal */\n      dup1\n        /* \"MySwap.sol\":4900:4909  linkToken */\n      0x00\n      dup1\n      sload\n      swap1\n      0x0100\n      exp\n      swap1\n      div\n      0xffffffffffffffffffffffffffffffffffffffff\n      and\n        /* \"MySwap.sol\":4900:4919  linkToken.balanceOf */\n      0xffffffffffffffffffffffffffffffffffffffff\n      and\n      0x70a08231\n        /* \"MySwap.sol\":4920:4923  ads */\n      dup5\n        /* \"MySwap.sol\":4900:4924  linkToken.balanceOf(ads) */\n      mload(0x40)\n      dup3\n      0xffffffff\n      and\n      0xe0\n      shl\n      dup2\n      mstore\n      0x04\n      add\n      tag_95\n      swap2\n      swap1\n      tag_31\n      jump\t// in\n    tag_95:\n      0x20\n      mload(0x40)\n      dup1\n      dup4\n      sub\n      dup2\n      dup7\n      dup1\n      extcodesize\n      iszero\n      dup1\n      iszero\n      tag_96\n      jumpi\n      0x00\n      dup1\n      revert\n    tag_96:\n      pop\n      gas\n      staticcall\n      iszero\n      dup1\n      iszero\n      tag_98\n      jumpi\n      returndatasize\n      0x00\n      dup1\n      returndatacopy\n      revert(0x00, returndatasize)\n    tag_98:\n      pop\n      pop\n      pop\n      pop\n      mload(0x40)\n      returndatasize\n      not(0x1f)\n      0x1f\n      dup3\n      add\n      and\n      dup3\n      add\n      dup1\n      0x40\n      mstore\n      pop\n      dup2\n      add\n      swap1\n      tag_99\n      swap2\n      swap1\n      tag_93\n      jump\t// in\n    tag_99:\n        /* \"MySwap.sol\":4890:4924  uint bal= linkToken.balanceOf(ads) */\n      swap1\n      pop\n        /* \"MySwap.sol\":4942:4945  bal */\n      dup1\n        /* \"MySwap.sol\":4935:4945  return bal */\n      swap2\n      pop\n      pop\n        /* \"MySwap.sol\":4819:4953  function CheckBalance(address ads) public view returns(uint){\r... */\n      swap2\n      swap1\n      pop\n      jump\t// out\n        /* \"MySwap.sol\":545:636  address public constant routerAddress =\r... */\n    tag_40:\n        /* \"MySwap.sol\":594:636  0xE592427A0AEce92De3Edee1F18E0157C05861564 */\n      0xe592427a0aece92de3edee1f18e0157c05861564\n        /* \"MySwap.sol\":545:636  address public constant routerAddress =\r... */\n      dup2\n      jump\t// out\n        /* \"MySwap.sol\":4072:4809  function swapTokenToToken(address tokenIn, address tokenOut, uint256 amountIn, uint256 amountOutMinimum)\r... */\n    tag_46:\n        /* \"MySwap.sol\":4205:4222  uint256 amountOut */\n      0x00\n        /* \"MySwap.sol\":4301:4308  tokenIn */\n      dup5\n        /* \"MySwap.sol\":4294:4317  IERC20(tokenIn).approve */\n      0xffffffffffffffffffffffffffffffffffffffff\n      and\n      0x095ea7b3\n        /* \"MySwap.sol\":4326:4336  swapRouter */\n      immutable(\"0xe3cb0ca89f217511efd4af6caea80048f9921bac3b9063844e65469cf515f138\")\n        /* \"MySwap.sol\":4339:4347  amountIn */\n      dup6\n        /* \"MySwap.sol\":4294:4348  IERC20(tokenIn).approve(address(swapRouter), amountIn) */\n      mload(0x40)\n      dup4\n      0xffffffff\n      and\n      0xe0\n      shl\n      dup2\n      mstore\n      0x04\n      add\n      tag_101\n      swap3\n      swap2\n      swap1\n      tag_81\n      jump\t// in\n    tag_101:\n      0x20\n      mload(0x40)\n      dup1\n      dup4\n      sub\n      dup2\n      0x00\n      dup8\n      dup1\n      extcodesize\n      iszero\n      dup1\n      iszero\n      tag_102\n      jumpi\n      0x00\n      dup1\n      revert\n    tag_102:\n      pop\n      gas\n      call\n      iszero\n      dup1\n      iszero\n      tag_104\n      jumpi\n      returndatasize\n      0x00\n      dup1\n      returndatacopy\n      revert(0x00, returndatasize)\n    tag_104:\n      pop\n      pop\n      pop\n      pop\n      mload(0x40)\n      returndatasize\n      not(0x1f)\n      0x1f\n      dup3\n      add\n      and\n      dup3\n      add\n      dup1\n      0x40\n      mstore\n      pop\n      dup2\n      add\n      swap1\n      tag_105\n      swap2\n      swap1\n      tag_86\n      jump\t// in\n    tag_105:\n      pop\n        /* \"MySwap.sol\":4357:4405  ISwapRouter.ExactInputSingleParams memory params */\n      0x00\n        /* \"MySwap.sol\":4408:4749  ISwapRouter\r... */\n      mload(0x40)\n      dup1\n      0x0100\n      add\n      0x40\n      mstore\n      dup1\n        /* \"MySwap.sol\":4477:4484  tokenIn */\n      dup8\n        /* \"MySwap.sol\":4408:4749  ISwapRouter\r... */\n      0xffffffffffffffffffffffffffffffffffffffff\n      and\n      dup2\n      mstore\n      0x20\n      add\n        /* \"MySwap.sol\":4509:4517  tokenOut */\n      dup7\n        /* \"MySwap.sol\":4408:4749  ISwapRouter\r... */\n      0xffffffffffffffffffffffffffffffffffffffff\n      and\n      dup2\n      mstore\n      0x20\n      add\n        /* \"MySwap.sol\":1022:1026  3000 */\n      0x0bb8\n        /* \"MySwap.sol\":4408:4749  ISwapRouter\r... */\n      0xffffff\n      and\n      dup2\n      mstore\n      0x20\n      add\n        /* \"MySwap.sol\":4570:4580  msg.sender */\n      caller\n        /* \"MySwap.sol\":4408:4749  ISwapRouter\r... */\n      0xffffffffffffffffffffffffffffffffffffffff\n      and\n      dup2\n      mstore\n      0x20\n      add\n        /* \"MySwap.sol\":4605:4620  block.timestamp */\n      timestamp\n        /* \"MySwap.sol\":4408:4749  ISwapRouter\r... */\n      dup2\n      mstore\n      0x20\n      add\n        /* \"MySwap.sol\":4645:4653  amountIn */\n      dup6\n        /* \"MySwap.sol\":4408:4749  ISwapRouter\r... */\n      dup2\n      mstore\n      0x20\n      add\n        /* \"MySwap.sol\":4686:4702  amountOutMinimum */\n      dup5\n        /* \"MySwap.sol\":4408:4749  ISwapRouter\r... */\n      dup2\n      mstore\n      0x20\n      add\n        /* \"MySwap.sol\":4736:4737  0 */\n      0x00\n        /* \"MySwap.sol\":4408:4749  ISwapRouter\r... */\n      0xffffffffffffffffffffffffffffffffffffffff\n      and\n      dup2\n      mstore\n      pop\n        /* \"MySwap.sol\":4357:4749  ISwapRouter.ExactInputSingleParams memory params = ISwapRouter\r... */\n      swap1\n      pop\n        /* \"MySwap.sol\":4770:4780  swapRouter */\n      immutable(\"0xe3cb0ca89f217511efd4af6caea80048f9921bac3b9063844e65469cf515f138\")\n        /* \"MySwap.sol\":4770:4797  swapRouter.exactInputSingle */\n      0xffffffffffffffffffffffffffffffffffffffff\n      and\n      0x414bf389\n        /* \"MySwap.sol\":4798:4804  params */\n      dup3\n        /* \"MySwap.sol\":4770:4805  swapRouter.exactInputSingle(params) */\n      mload(0x40)\n      dup3\n      0xffffffff\n      and\n      0xe0\n      shl\n      dup2\n      mstore\n      0x04\n      add\n      tag_106\n      swap2\n      swap1\n      tag_88\n      jump\t// in\n    tag_106:\n      0x20\n      mload(0x40)\n      dup1\n      dup4\n      sub\n      dup2\n      0x00\n      dup8\n      dup1\n      extcodesize\n      iszero\n      dup1\n      iszero\n      tag_107\n      jumpi\n      0x00\n      dup1\n      revert\n    tag_107:\n      pop\n      gas\n      call\n      iszero\n      dup1\n      iszero\n      tag_109\n      jumpi\n      returndatasize\n      0x00\n      dup1\n      returndatacopy\n      revert(0x00, returndatasize)\n    tag_109:\n      pop\n      pop\n      pop\n      pop\n      mload(0x40)\n      returndatasize\n      not(0x1f)\n      0x1f\n      dup3\n      add\n      and\n      dup3\n      add\n      dup1\n      0x40\n      mstore\n      pop\n      dup2\n      add\n      swap1\n      tag_110\n      swap2\n      swap1\n      tag_93\n      jump\t// in\n    tag_110:\n        /* \"MySwap.sol\":4758:4805  amountOut = swapRouter.exactInputSingle(params) */\n      swap2\n      pop\n        /* \"MySwap.sol\":4072:4809  function swapTokenToToken(address tokenIn, address tokenOut, uint256 amountIn, uint256 amountOutMinimum)\r... */\n      pop\n      swap5\n      swap4\n      pop\n      pop\n      pop\n      pop\n      jump\t// out\n        /* \"MySwap.sol\":882:920  IERC20 public linkToken = IERC20(LINK) */\n    tag_50:\n      0x00\n      dup1\n      sload\n      swap1\n      0x0100\n      exp\n      swap1\n      div\n      0xffffffffffffffffffffffffffffffffffffffff\n      and\n      dup2\n      jump\t// out\n        /* \"MySwap.sol\":1059:1720  function swapExactInputSingle(uint256 amountIn)\r... */\n    tag_57:\n        /* \"MySwap.sol\":1143:1160  uint256 amountOut */\n      0x00\n        /* \"MySwap.sol\":1178:1187  linkToken */\n      dup1\n      0x00\n      swap1\n      sload\n      swap1\n      0x0100\n      exp\n      swap1\n      div\n      0xffffffffffffffffffffffffffffffffffffffff\n      and\n        /* \"MySwap.sol\":1178:1195  linkToken.approve */\n      0xffffffffffffffffffffffffffffffffffffffff\n      and\n      0x095ea7b3\n        /* \"MySwap.sol\":1204:1214  swapRouter */\n      immutable(\"0xe3cb0ca89f217511efd4af6caea80048f9921bac3b9063844e65469cf515f138\")\n        /* \"MySwap.sol\":1217:1225  amountIn */\n      dup5\n        /* \"MySwap.sol\":1178:1226  linkToken.approve(address(swapRouter), amountIn) */\n      mload(0x40)\n      dup4\n      0xffffffff\n      and\n      0xe0\n      shl\n      dup2\n      mstore\n      0x04\n      add\n      tag_112\n      swap3\n      swap2\n      swap1\n      tag_81\n      jump\t// in\n    tag_112:\n      0x20\n      mload(0x40)\n      dup1\n      dup4\n      sub\n      dup2\n      0x00\n      dup8\n      dup1\n      extcodesize\n      iszero\n      dup1\n      iszero\n      tag_113\n      jumpi\n      0x00\n      dup1\n      revert\n    tag_113:\n      pop\n      gas\n      call\n      iszero\n      dup1\n      iszero\n      tag_115\n      jumpi\n      returndatasize\n      0x00\n      dup1\n      returndatacopy\n      revert(0x00, returndatasize)\n    tag_115:\n      pop\n      pop\n      pop\n      pop\n      mload(0x40)\n      returndatasize\n      not(0x1f)\n      0x1f\n      dup3\n      add\n      and\n      dup3\n      add\n      dup1\n      0x40\n      mstore\n      pop\n      dup2\n      add\n      swap1\n      tag_116\n      swap2\n      swap1\n      tag_86\n      jump\t// in\n    tag_116:\n      pop\n        /* \"MySwap.sol\":1239:1287  ISwapRouter.ExactInputSingleParams memory params */\n      0x00\n        /* \"MySwap.sol\":1290:1652  ISwapRouter\r... */\n      mload(0x40)\n      dup1\n      0x0100\n      add\n      0x40\n      mstore\n      dup1\n        /* \"MySwap.sol\":751:793  0x326C977E6efc84E512bB9C30f76E30c160eD06FB */\n      0x326c977e6efc84e512bb9c30f76e30c160ed06fb\n        /* \"MySwap.sol\":1290:1652  ISwapRouter\r... */\n      0xffffffffffffffffffffffffffffffffffffffff\n      and\n      dup2\n      mstore\n      0x20\n      add\n        /* \"MySwap.sol\":831:873  0xB4FBF271143F4FBf7B91A5ded31805e42b2208d6 */\n      0xb4fbf271143f4fbf7b91a5ded31805e42b2208d6\n        /* \"MySwap.sol\":1290:1652  ISwapRouter\r... */\n      0xffffffffffffffffffffffffffffffffffffffff\n      and\n      dup2\n      mstore\n      0x20\n      add\n        /* \"MySwap.sol\":1022:1026  3000 */\n      0x0bb8\n        /* \"MySwap.sol\":1290:1652  ISwapRouter\r... */\n      0xffffff\n      and\n      dup2\n      mstore\n      0x20\n      add\n        /* \"MySwap.sol\":1473:1477  this */\n      address\n        /* \"MySwap.sol\":1290:1652  ISwapRouter\r... */\n      0xffffffffffffffffffffffffffffffffffffffff\n      and\n      dup2\n      mstore\n      0x20\n      add\n        /* \"MySwap.sol\":1507:1522  block.timestamp */\n      timestamp\n        /* \"MySwap.sol\":1290:1652  ISwapRouter\r... */\n      dup2\n      mstore\n      0x20\n      add\n        /* \"MySwap.sol\":1551:1559  amountIn */\n      dup5\n        /* \"MySwap.sol\":1290:1652  ISwapRouter\r... */\n      dup2\n      mstore\n      0x20\n      add\n        /* \"MySwap.sol\":1596:1597  0 */\n      0x00\n        /* \"MySwap.sol\":1290:1652  ISwapRouter\r... */\n      dup2\n      mstore\n      0x20\n      add\n        /* \"MySwap.sol\":1635:1636  0 */\n      0x00\n        /* \"MySwap.sol\":1290:1652  ISwapRouter\r... */\n      0xffffffffffffffffffffffffffffffffffffffff\n      and\n      dup2\n      mstore\n      pop\n        /* \"MySwap.sol\":1239:1652  ISwapRouter.ExactInputSingleParams memory params = ISwapRouter\r... */\n      swap1\n      pop\n        /* \"MySwap.sol\":1677:1687  swapRouter */\n      immutable(\"0xe3cb0ca89f217511efd4af6caea80048f9921bac3b9063844e65469cf515f138\")\n        /* \"MySwap.sol\":1677:1704  swapRouter.exactInputSingle */\n      0xffffffffffffffffffffffffffffffffffffffff\n      and\n      0x414bf389\n        /* \"MySwap.sol\":1705:1711  params */\n      dup3\n        /* \"MySwap.sol\":1677:1712  swapRouter.exactInputSingle(params) */\n      mload(0x40)\n      dup3\n      0xffffffff\n      and\n      0xe0\n      shl\n      dup2\n      mstore\n      0x04\n      add\n      tag_117\n      swap2\n      swap1\n      tag_88\n      jump\t// in\n    tag_117:\n      0x20\n      mload(0x40)\n      dup1\n      dup4\n      sub\n      dup2\n      0x00\n      dup8\n      dup1\n      extcodesize\n      iszero\n      dup1\n      iszero\n      tag_118\n      jumpi\n      0x00\n      dup1\n      revert\n    tag_118:\n      pop\n      gas\n      call\n      iszero\n      dup1\n      iszero\n      tag_120\n      jumpi\n      returndatasize\n      0x00\n      dup1\n      returndatacopy\n      revert(0x00, returndatasize)\n    tag_120:\n      pop\n      pop\n      pop\n      pop\n      mload(0x40)\n      returndatasize\n      not(0x1f)\n      0x1f\n      dup3\n      add\n      and\n      dup3\n      add\n      dup1\n      0x40\n      mstore\n      pop\n      dup2\n      add\n      swap1\n      tag_121\n      swap2\n      swap1\n      tag_93\n      jump\t// in\n    tag_121:\n        /* \"MySwap.sol\":1665:1712  amountOut = swapRouter.exactInputSingle(params) */\n      swap2\n      pop\n        /* \"MySwap.sol\":1059:1720  function swapExactInputSingle(uint256 amountIn)\r... */\n      pop\n      swap2\n      swap1\n      pop\n      jump\t// out\n        /* \"MySwap.sol\":800:873  address public constant WETH = 0xB4FBF271143F4FBf7B91A5ded31805e42b2208d6 */\n    tag_61:\n        /* \"MySwap.sol\":831:873  0xB4FBF271143F4FBf7B91A5ded31805e42b2208d6 */\n      0xb4fbf271143f4fbf7b91a5ded31805e42b2208d6\n        /* \"MySwap.sol\":800:873  address public constant WETH = 0xB4FBF271143F4FBf7B91A5ded31805e42b2208d6 */\n      dup2\n      jump\t// out\n        /* \"MySwap.sol\":643:711  ISwapRouter public immutable swapRouter = ISwapRouter(routerAddress) */\n    tag_65:\n      immutable(\"0xe3cb0ca89f217511efd4af6caea80048f9921bac3b9063844e65469cf515f138\")\n      dup2\n      jump\t// out\n        /* \"MySwap.sol\":1728:2627  function swapExactOutputSingle(uint256 amountOut, uint256 amountInMaximum)\r... */\n    tag_72:\n        /* \"MySwap.sol\":1839:1855  uint256 amountIn */\n      0x00\n        /* \"MySwap.sol\":1873:1882  linkToken */\n      dup1\n      0x00\n      swap1\n      sload\n      swap1\n      0x0100\n      exp\n      swap1\n      div\n      0xffffffffffffffffffffffffffffffffffffffff\n      and\n        /* \"MySwap.sol\":1873:1890  linkToken.approve */\n      0xffffffffffffffffffffffffffffffffffffffff\n      and\n      0x095ea7b3\n        /* \"MySwap.sol\":1899:1909  swapRouter */\n      immutable(\"0xe3cb0ca89f217511efd4af6caea80048f9921bac3b9063844e65469cf515f138\")\n        /* \"MySwap.sol\":1912:1927  amountInMaximum */\n      dup5\n        /* \"MySwap.sol\":1873:1928  linkToken.approve(address(swapRouter), amountInMaximum) */\n      mload(0x40)\n      dup4\n      0xffffffff\n      and\n      0xe0\n      shl\n      dup2\n      mstore\n      0x04\n      add\n      tag_123\n      swap3\n      swap2\n      swap1\n      tag_81\n      jump\t// in\n    tag_123:\n      0x20\n      mload(0x40)\n      dup1\n      dup4\n      sub\n      dup2\n      0x00\n      dup8\n      dup1\n      extcodesize\n      iszero\n      dup1\n      iszero\n      tag_124\n      jumpi\n      0x00\n      dup1\n      revert\n    tag_124:\n      pop\n      gas\n      call\n      iszero\n      dup1\n      iszero\n      tag_126\n      jumpi\n      returndatasize\n      0x00\n      dup1\n      returndatacopy\n      revert(0x00, returndatasize)\n    tag_126:\n      pop\n      pop\n      pop\n      pop\n      mload(0x40)\n      returndatasize\n      not(0x1f)\n      0x1f\n      dup3\n      add\n      and\n      dup3\n      add\n      dup1\n      0x40\n      mstore\n      pop\n      dup2\n      add\n      swap1\n      tag_127\n      swap2\n      swap1\n      tag_86\n      jump\t// in\n    tag_127:\n      pop\n        /* \"MySwap.sol\":1941:1990  ISwapRouter.ExactOutputSingleParams memory params */\n      0x00\n        /* \"MySwap.sol\":1993:2371  ISwapRouter\r... */\n      mload(0x40)\n      dup1\n      0x0100\n      add\n      0x40\n      mstore\n      dup1\n        /* \"MySwap.sol\":751:793  0x326C977E6efc84E512bB9C30f76E30c160eD06FB */\n      0x326c977e6efc84e512bb9c30f76e30c160ed06fb\n        /* \"MySwap.sol\":1993:2371  ISwapRouter\r... */\n      0xffffffffffffffffffffffffffffffffffffffff\n      and\n      dup2\n      mstore\n      0x20\n      add\n        /* \"MySwap.sol\":831:873  0xB4FBF271143F4FBf7B91A5ded31805e42b2208d6 */\n      0xb4fbf271143f4fbf7b91a5ded31805e42b2208d6\n        /* \"MySwap.sol\":1993:2371  ISwapRouter\r... */\n      0xffffffffffffffffffffffffffffffffffffffff\n      and\n      dup2\n      mstore\n      0x20\n      add\n        /* \"MySwap.sol\":1022:1026  3000 */\n      0x0bb8\n        /* \"MySwap.sol\":1993:2371  ISwapRouter\r... */\n      0xffffff\n      and\n      dup2\n      mstore\n      0x20\n      add\n        /* \"MySwap.sol\":2177:2181  this */\n      address\n        /* \"MySwap.sol\":1993:2371  ISwapRouter\r... */\n      0xffffffffffffffffffffffffffffffffffffffff\n      and\n      dup2\n      mstore\n      0x20\n      add\n        /* \"MySwap.sol\":2211:2226  block.timestamp */\n      timestamp\n        /* \"MySwap.sol\":1993:2371  ISwapRouter\r... */\n      dup2\n      mstore\n      0x20\n      add\n        /* \"MySwap.sol\":2256:2265  amountOut */\n      dup6\n        /* \"MySwap.sol\":1993:2371  ISwapRouter\r... */\n      dup2\n      mstore\n      0x20\n      add\n        /* \"MySwap.sol\":2301:2316  amountInMaximum */\n      dup5\n        /* \"MySwap.sol\":1993:2371  ISwapRouter\r... */\n      dup2\n      mstore\n      0x20\n      add\n        /* \"MySwap.sol\":2354:2355  0 */\n      0x00\n        /* \"MySwap.sol\":1993:2371  ISwapRouter\r... */\n      0xffffffffffffffffffffffffffffffffffffffff\n      and\n      dup2\n      mstore\n      pop\n        /* \"MySwap.sol\":1941:2371  ISwapRouter.ExactOutputSingleParams memory params = ISwapRouter\r... */\n      swap1\n      pop\n        /* \"MySwap.sol\":2395:2405  swapRouter */\n      immutable(\"0xe3cb0ca89f217511efd4af6caea80048f9921bac3b9063844e65469cf515f138\")\n        /* \"MySwap.sol\":2395:2423  swapRouter.exactOutputSingle */\n      0xffffffffffffffffffffffffffffffffffffffff\n      and\n      0xdb3e2198\n        /* \"MySwap.sol\":2424:2430  params */\n      dup3\n        /* \"MySwap.sol\":2395:2431  swapRouter.exactOutputSingle(params) */\n      mload(0x40)\n      dup3\n      0xffffffff\n      and\n      0xe0\n      shl\n      dup2\n      mstore\n      0x04\n      add\n      tag_128\n      swap2\n      swap1\n      tag_129\n      jump\t// in\n    tag_128:\n      0x20\n      mload(0x40)\n      dup1\n      dup4\n      sub\n      dup2\n      0x00\n      dup8\n      dup1\n      extcodesize\n      iszero\n      dup1\n      iszero\n      tag_130\n      jumpi\n      0x00\n      dup1\n      revert\n    tag_130:\n      pop\n      gas\n      call\n      iszero\n      dup1\n      iszero\n      tag_132\n      jumpi\n      returndatasize\n      0x00\n      dup1\n      returndatacopy\n      revert(0x00, returndatasize)\n    tag_132:\n      pop\n      pop\n      pop\n      pop\n      mload(0x40)\n      returndatasize\n      not(0x1f)\n      0x1f\n      dup3\n      add\n      and\n      dup3\n      add\n      dup1\n      0x40\n      mstore\n      pop\n      dup2\n      add\n      swap1\n      tag_133\n      swap2\n      swap1\n      tag_93\n      jump\t// in\n    tag_133:\n        /* \"MySwap.sol\":2384:2431  amountIn = swapRouter.exactOutputSingle(params) */\n      swap2\n      pop\n        /* \"MySwap.sol\":2459:2474  amountInMaximum */\n      dup3\n        /* \"MySwap.sol\":2448:2456  amountIn */\n      dup3\n        /* \"MySwap.sol\":2448:2474  amountIn < amountInMaximum */\n      lt\n        /* \"MySwap.sol\":2444:2620  if (amountIn < amountInMaximum) {\r... */\n      iszero\n      tag_134\n      jumpi\n        /* \"MySwap.sol\":2491:2500  linkToken */\n      0x00\n      dup1\n      sload\n      swap1\n      0x0100\n      exp\n      swap1\n      div\n      0xffffffffffffffffffffffffffffffffffffffff\n      and\n        /* \"MySwap.sol\":2491:2508  linkToken.approve */\n      0xffffffffffffffffffffffffffffffffffffffff\n      and\n      0x095ea7b3\n        /* \"MySwap.sol\":2517:2527  swapRouter */\n      immutable(\"0xe3cb0ca89f217511efd4af6caea80048f9921bac3b9063844e65469cf515f138\")\n        /* \"MySwap.sol\":2530:2531  0 */\n      0x00\n        /* \"MySwap.sol\":2491:2532  linkToken.approve(address(swapRouter), 0) */\n      mload(0x40)\n      dup4\n      0xffffffff\n      and\n      0xe0\n      shl\n      dup2\n      mstore\n      0x04\n      add\n      tag_135\n      swap3\n      swap2\n      swap1\n      tag_136\n      jump\t// in\n    tag_135:\n      0x20\n      mload(0x40)\n      dup1\n      dup4\n      sub\n      dup2\n      0x00\n      dup8\n      dup1\n      extcodesize\n      iszero\n      dup1\n      iszero\n      tag_137\n      jumpi\n      0x00\n      dup1\n      revert\n    tag_137:\n      pop\n      gas\n      call\n      iszero\n      dup1\n      iszero\n      tag_139\n      jumpi\n      returndatasize\n      0x00\n      dup1\n      returndatacopy\n      revert(0x00, returndatasize)\n    tag_139:\n      pop\n      pop\n      pop\n      pop\n      mload(0x40)\n      returndatasize\n      not(0x1f)\n      0x1f\n      dup3\n      add\n      and\n      dup3\n      add\n      dup1\n      0x40\n      mstore\n      pop\n      dup2\n      add\n      swap1\n      tag_140\n      swap2\n      swap1\n      tag_86\n      jump\t// in\n    tag_140:\n      pop\n        /* \"MySwap.sol\":2547:2556  linkToken */\n      0x00\n      dup1\n      sload\n      swap1\n      0x0100\n      exp\n      swap1\n      div\n      0xffffffffffffffffffffffffffffffffffffffff\n      and\n        /* \"MySwap.sol\":2547:2565  linkToken.transfer */\n      0xffffffffffffffffffffffffffffffffffffffff\n      and\n      0xa9059cbb\n        /* \"MySwap.sol\":2574:2578  this */\n      address\n        /* \"MySwap.sol\":2599:2607  amountIn */\n      dup5\n        /* \"MySwap.sol\":2581:2596  amountInMaximum */\n      dup7\n        /* \"MySwap.sol\":2581:2607  amountInMaximum - amountIn */\n      sub\n        /* \"MySwap.sol\":2547:2608  linkToken.transfer(address(this), amountInMaximum - amountIn) */\n      mload(0x40)\n      dup4\n      0xffffffff\n      and\n      0xe0\n      shl\n      dup2\n      mstore\n      0x04\n      add\n      tag_141\n      swap3\n      swap2\n      swap1\n      tag_81\n      jump\t// in\n    tag_141:\n      0x20\n      mload(0x40)\n      dup1\n      dup4\n      sub\n      dup2\n      0x00\n      dup8\n      dup1\n      extcodesize\n      iszero\n      dup1\n      iszero\n      tag_142\n      jumpi\n      0x00\n      dup1\n      revert\n    tag_142:\n      pop\n      gas\n      call\n      iszero\n      dup1\n      iszero\n      tag_144\n      jumpi\n      returndatasize\n      0x00\n      dup1\n      returndatacopy\n      revert(0x00, returndatasize)\n    tag_144:\n      pop\n      pop\n      pop\n      pop\n      mload(0x40)\n      returndatasize\n      not(0x1f)\n      0x1f\n      dup3\n      add\n      and\n      dup3\n      add\n      dup1\n      0x40\n      mstore\n      pop\n      dup2\n      add\n      swap1\n      tag_145\n      swap2\n      swap1\n      tag_86\n      jump\t// in\n    tag_145:\n      pop\n        /* \"MySwap.sol\":2444:2620  if (amountIn < amountInMaximum) {\r... */\n    tag_134:\n        /* \"MySwap.sol\":1728:2627  function swapExactOutputSingle(uint256 amountOut, uint256 amountInMaximum)\r... */\n      pop\n      swap3\n      swap2\n      pop\n      pop\n      jump\t// out\n        /* \"MySwap.sol\":2635:3330  function swapEthToToken(address tokenOut, uint256 amountOutMinimum)\r... */\n    tag_77:\n        /* \"MySwap.sol\":2756:2773  uint256 amountOut */\n      0x00\n        /* \"MySwap.sol\":2791:2839  ISwapRouter.ExactInputSingleParams memory params */\n      dup1\n        /* \"MySwap.sol\":2842:3244  ISwapRouter\r... */\n      mload(0x40)\n      dup1\n      0x0100\n      add\n      0x40\n      mstore\n      dup1\n        /* \"MySwap.sol\":831:873  0xB4FBF271143F4FBf7B91A5ded31805e42b2208d6 */\n      0xb4fbf271143f4fbf7b91a5ded31805e42b2208d6\n        /* \"MySwap.sol\":2842:3244  ISwapRouter\r... */\n      0xffffffffffffffffffffffffffffffffffffffff\n      and\n      dup2\n      mstore\n      0x20\n      add\n        /* \"MySwap.sol\":2975:2983  tokenOut */\n      dup6\n        /* \"MySwap.sol\":2842:3244  ISwapRouter\r... */\n      0xffffffffffffffffffffffffffffffffffffffff\n      and\n      dup2\n      mstore\n      0x20\n      add\n        /* \"MySwap.sol\":1022:1026  3000 */\n      0x0bb8\n        /* \"MySwap.sol\":2842:3244  ISwapRouter\r... */\n      0xffffff\n      and\n      dup2\n      mstore\n      0x20\n      add\n        /* \"MySwap.sol\":3044:3054  msg.sender */\n      caller\n        /* \"MySwap.sol\":2842:3244  ISwapRouter\r... */\n      0xffffffffffffffffffffffffffffffffffffffff\n      and\n      dup2\n      mstore\n      0x20\n      add\n        /* \"MySwap.sol\":3083:3098  block.timestamp */\n      timestamp\n        /* \"MySwap.sol\":2842:3244  ISwapRouter\r... */\n      dup2\n      mstore\n      0x20\n      add\n        /* \"MySwap.sol\":3127:3136  msg.value */\n      callvalue\n        /* \"MySwap.sol\":2842:3244  ISwapRouter\r... */\n      dup2\n      mstore\n      0x20\n      add\n        /* \"MySwap.sol\":3173:3189  amountOutMinimum */\n      dup5\n        /* \"MySwap.sol\":2842:3244  ISwapRouter\r... */\n      dup2\n      mstore\n      0x20\n      add\n        /* \"MySwap.sol\":3227:3228  0 */\n      0x00\n        /* \"MySwap.sol\":2842:3244  ISwapRouter\r... */\n      0xffffffffffffffffffffffffffffffffffffffff\n      and\n      dup2\n      mstore\n      pop\n        /* \"MySwap.sol\":2791:3244  ISwapRouter.ExactInputSingleParams memory params = ISwapRouter\r... */\n      swap1\n      pop\n        /* \"MySwap.sol\":3269:3279  swapRouter */\n      immutable(\"0xe3cb0ca89f217511efd4af6caea80048f9921bac3b9063844e65469cf515f138\")\n        /* \"MySwap.sol\":3269:3296  swapRouter.exactInputSingle */\n      0xffffffffffffffffffffffffffffffffffffffff\n      and\n      0x414bf389\n        /* \"MySwap.sol\":3304:3313  msg.value */\n      callvalue\n        /* \"MySwap.sol\":3315:3321  params */\n      dup4\n        /* \"MySwap.sol\":3269:3322  swapRouter.exactInputSingle{value: msg.value}(params) */\n      mload(0x40)\n      dup4\n      0xffffffff\n      and\n      0xe0\n      shl\n      dup2\n      mstore\n      0x04\n      add\n      tag_147\n      swap2\n      swap1\n      tag_88\n      jump\t// in\n    tag_147:\n      0x20\n      mload(0x40)\n      dup1\n      dup4\n      sub\n      dup2\n      dup6\n      dup9\n      dup1\n      extcodesize\n      iszero\n      dup1\n      iszero\n      tag_148\n      jumpi\n      0x00\n      dup1\n      revert\n    tag_148:\n      pop\n      gas\n      call\n      iszero\n      dup1\n      iszero\n      tag_150\n      jumpi\n      returndatasize\n      0x00\n      dup1\n      returndatacopy\n      revert(0x00, returndatasize)\n    tag_150:\n      pop\n      pop\n      pop\n      pop\n      pop\n      mload(0x40)\n      returndatasize\n      not(0x1f)\n      0x1f\n      dup3\n      add\n      and\n      dup3\n      add\n      dup1\n      0x40\n      mstore\n      pop\n      dup2\n      add\n      swap1\n      tag_151\n      swap2\n      swap1\n      tag_93\n      jump\t// in\n    tag_151:\n        /* \"MySwap.sol\":3257:3322  amountOut = swapRouter.exactInputSingle{value: msg.value}(params) */\n      swap2\n      pop\n        /* \"MySwap.sol\":2635:3330  function swapEthToToken(address tokenOut, uint256 amountOutMinimum)\r... */\n      pop\n      swap3\n      swap2\n      pop\n      pop\n      jump\t// out\n        /* \"#utility.yul\":7:146   */\n    tag_153:\n      0x00\n        /* \"#utility.yul\":91:97   */\n      dup2\n        /* \"#utility.yul\":78:98   */\n      calldataload\n        /* \"#utility.yul\":69:98   */\n      swap1\n      pop\n        /* \"#utility.yul\":107:140   */\n      tag_155\n        /* \"#utility.yul\":134:139   */\n      dup2\n        /* \"#utility.yul\":107:140   */\n      tag_156\n      jump\t// in\n    tag_155:\n        /* \"#utility.yul\":59:146   */\n      swap3\n      swap2\n      pop\n      pop\n      jump\t// out\n        /* \"#utility.yul\":152:289   */\n    tag_157:\n      0x00\n        /* \"#utility.yul\":237:243   */\n      dup2\n        /* \"#utility.yul\":231:244   */\n      mload\n        /* \"#utility.yul\":222:244   */\n      swap1\n      pop\n        /* \"#utility.yul\":253:283   */\n      tag_159\n        /* \"#utility.yul\":277:282   */\n      dup2\n        /* \"#utility.yul\":253:283   */\n      tag_160\n      jump\t// in\n    tag_159:\n        /* \"#utility.yul\":212:289   */\n      swap3\n      swap2\n      pop\n      pop\n      jump\t// out\n        /* \"#utility.yul\":295:434   */\n    tag_161:\n      0x00\n        /* \"#utility.yul\":379:385   */\n      dup2\n        /* \"#utility.yul\":366:386   */\n      calldataload\n        /* \"#utility.yul\":357:386   */\n      swap1\n      pop\n        /* \"#utility.yul\":395:428   */\n      tag_163\n        /* \"#utility.yul\":422:427   */\n      dup2\n        /* \"#utility.yul\":395:428   */\n      tag_164\n      jump\t// in\n    tag_163:\n        /* \"#utility.yul\":347:434   */\n      swap3\n      swap2\n      pop\n      pop\n      jump\t// out\n        /* \"#utility.yul\":440:583   */\n    tag_165:\n      0x00\n        /* \"#utility.yul\":528:534   */\n      dup2\n        /* \"#utility.yul\":522:535   */\n      mload\n        /* \"#utility.yul\":513:535   */\n      swap1\n      pop\n        /* \"#utility.yul\":544:577   */\n      tag_167\n        /* \"#utility.yul\":571:576   */\n      dup2\n        /* \"#utility.yul\":544:577   */\n      tag_164\n      jump\t// in\n    tag_167:\n        /* \"#utility.yul\":503:583   */\n      swap3\n      swap2\n      pop\n      pop\n      jump\t// out\n        /* \"#utility.yul\":589:851   */\n    tag_35:\n      0x00\n        /* \"#utility.yul\":697:699   */\n      0x20\n        /* \"#utility.yul\":685:694   */\n      dup3\n        /* \"#utility.yul\":676:683   */\n      dup5\n        /* \"#utility.yul\":672:695   */\n      sub\n        /* \"#utility.yul\":668:700   */\n      slt\n        /* \"#utility.yul\":665:667   */\n      iszero\n      tag_169\n      jumpi\n        /* \"#utility.yul\":713:714   */\n      0x00\n        /* \"#utility.yul\":710:711   */\n      dup1\n        /* \"#utility.yul\":703:715   */\n      revert\n        /* \"#utility.yul\":665:667   */\n    tag_169:\n        /* \"#utility.yul\":756:757   */\n      0x00\n        /* \"#utility.yul\":781:834   */\n      tag_170\n        /* \"#utility.yul\":826:833   */\n      dup5\n        /* \"#utility.yul\":817:823   */\n      dup3\n        /* \"#utility.yul\":806:815   */\n      dup6\n        /* \"#utility.yul\":802:824   */\n      add\n        /* \"#utility.yul\":781:834   */\n      tag_153\n      jump\t// in\n    tag_170:\n        /* \"#utility.yul\":771:834   */\n      swap2\n      pop\n        /* \"#utility.yul\":727:844   */\n      pop\n        /* \"#utility.yul\":655:851   */\n      swap3\n      swap2\n      pop\n      pop\n      jump\t// out\n        /* \"#utility.yul\":857:1555   */\n    tag_45:\n      0x00\n      dup1\n      0x00\n      dup1\n        /* \"#utility.yul\":1016:1019   */\n      0x80\n        /* \"#utility.yul\":1004:1013   */\n      dup6\n        /* \"#utility.yul\":995:1002   */\n      dup8\n        /* \"#utility.yul\":991:1014   */\n      sub\n        /* \"#utility.yul\":987:1020   */\n      slt\n        /* \"#utility.yul\":984:986   */\n      iszero\n      tag_172\n      jumpi\n        /* \"#utility.yul\":1033:1034   */\n      0x00\n        /* \"#utility.yul\":1030:1031   */\n      dup1\n        /* \"#utility.yul\":1023:1035   */\n      revert\n        /* \"#utility.yul\":984:986   */\n    tag_172:\n        /* \"#utility.yul\":1076:1077   */\n      0x00\n        /* \"#utility.yul\":1101:1154   */\n      tag_173\n        /* \"#utility.yul\":1146:1153   */\n      dup8\n        /* \"#utility.yul\":1137:1143   */\n      dup3\n        /* \"#utility.yul\":1126:1135   */\n      dup9\n        /* \"#utility.yul\":1122:1144   */\n      add\n        /* \"#utility.yul\":1101:1154   */\n      tag_153\n      jump\t// in\n    tag_173:\n        /* \"#utility.yul\":1091:1154   */\n      swap5\n      pop\n        /* \"#utility.yul\":1047:1164   */\n      pop\n        /* \"#utility.yul\":1203:1205   */\n      0x20\n        /* \"#utility.yul\":1229:1282   */\n      tag_174\n        /* \"#utility.yul\":1274:1281   */\n      dup8\n        /* \"#utility.yul\":1265:1271   */\n      dup3\n        /* \"#utility.yul\":1254:1263   */\n      dup9\n        /* \"#utility.yul\":1250:1272   */\n      add\n        /* \"#utility.yul\":1229:1282   */\n      tag_153\n      jump\t// in\n    tag_174:\n        /* \"#utility.yul\":1219:1282   */\n      swap4\n      pop\n        /* \"#utility.yul\":1174:1292   */\n      pop\n        /* \"#utility.yul\":1331:1333   */\n      0x40\n        /* \"#utility.yul\":1357:1410   */\n      tag_175\n        /* \"#utility.yul\":1402:1409   */\n      dup8\n        /* \"#utility.yul\":1393:1399   */\n      dup3\n        /* \"#utility.yul\":1382:1391   */\n      dup9\n        /* \"#utility.yul\":1378:1400   */\n      add\n        /* \"#utility.yul\":1357:1410   */\n      tag_161\n      jump\t// in\n    tag_175:\n        /* \"#utility.yul\":1347:1410   */\n      swap3\n      pop\n        /* \"#utility.yul\":1302:1420   */\n      pop\n        /* \"#utility.yul\":1459:1461   */\n      0x60\n        /* \"#utility.yul\":1485:1538   */\n      tag_176\n        /* \"#utility.yul\":1530:1537   */\n      dup8\n        /* \"#utility.yul\":1521:1527   */\n      dup3\n        /* \"#utility.yul\":1510:1519   */\n      dup9\n        /* \"#utility.yul\":1506:1528   */\n      add\n        /* \"#utility.yul\":1485:1538   */\n      tag_161\n      jump\t// in\n    tag_176:\n        /* \"#utility.yul\":1475:1538   */\n      swap2\n      pop\n        /* \"#utility.yul\":1430:1548   */\n      pop\n        /* \"#utility.yul\":974:1555   */\n      swap3\n      swap6\n      swap2\n      swap5\n      pop\n      swap3\n      pop\n      jump\t// out\n        /* \"#utility.yul\":1561:1968   */\n    tag_76:\n      0x00\n      dup1\n        /* \"#utility.yul\":1686:1688   */\n      0x40\n        /* \"#utility.yul\":1674:1683   */\n      dup4\n        /* \"#utility.yul\":1665:1672   */\n      dup6\n        /* \"#utility.yul\":1661:1684   */\n      sub\n        /* \"#utility.yul\":1657:1689   */\n      slt\n        /* \"#utility.yul\":1654:1656   */\n      iszero\n      tag_178\n      jumpi\n        /* \"#utility.yul\":1702:1703   */\n      0x00\n        /* \"#utility.yul\":1699:1700   */\n      dup1\n        /* \"#utility.yul\":1692:1704   */\n      revert\n        /* \"#utility.yul\":1654:1656   */\n    tag_178:\n        /* \"#utility.yul\":1745:1746   */\n      0x00\n        /* \"#utility.yul\":1770:1823   */\n      tag_179\n        /* \"#utility.yul\":1815:1822   */\n      dup6\n        /* \"#utility.yul\":1806:1812   */\n      dup3\n        /* \"#utility.yul\":1795:1804   */\n      dup7\n        /* \"#utility.yul\":1791:1813   */\n      add\n        /* \"#utility.yul\":1770:1823   */\n      tag_153\n      jump\t// in\n    tag_179:\n        /* \"#utility.yul\":1760:1823   */\n      swap3\n      pop\n        /* \"#utility.yul\":1716:1833   */\n      pop\n        /* \"#utility.yul\":1872:1874   */\n      0x20\n        /* \"#utility.yul\":1898:1951   */\n      tag_180\n        /* \"#utility.yul\":1943:1950   */\n      dup6\n        /* \"#utility.yul\":1934:1940   */\n      dup3\n        /* \"#utility.yul\":1923:1932   */\n      dup7\n        /* \"#utility.yul\":1919:1941   */\n      add\n        /* \"#utility.yul\":1898:1951   */\n      tag_161\n      jump\t// in\n    tag_180:\n        /* \"#utility.yul\":1888:1951   */\n      swap2\n      pop\n        /* \"#utility.yul\":1843:1961   */\n      pop\n        /* \"#utility.yul\":1644:1968   */\n      swap3\n      pop\n      swap3\n      swap1\n      pop\n      jump\t// out\n        /* \"#utility.yul\":1974:2526   */\n    tag_23:\n      0x00\n      dup1\n      0x00\n        /* \"#utility.yul\":2116:2118   */\n      0x60\n        /* \"#utility.yul\":2104:2113   */\n      dup5\n        /* \"#utility.yul\":2095:2102   */\n      dup7\n        /* \"#utility.yul\":2091:2114   */\n      sub\n        /* \"#utility.yul\":2087:2119   */\n      slt\n        /* \"#utility.yul\":2084:2086   */\n      iszero\n      tag_182\n      jumpi\n        /* \"#utility.yul\":2132:2133   */\n      0x00\n        /* \"#utility.yul\":2129:2130   */\n      dup1\n        /* \"#utility.yul\":2122:2134   */\n      revert\n        /* \"#utility.yul\":2084:2086   */\n    tag_182:\n        /* \"#utility.yul\":2175:2176   */\n      0x00\n        /* \"#utility.yul\":2200:2253   */\n      tag_183\n        /* \"#utility.yul\":2245:2252   */\n      dup7\n        /* \"#utility.yul\":2236:2242   */\n      dup3\n        /* \"#utility.yul\":2225:2234   */\n      dup8\n        /* \"#utility.yul\":2221:2243   */\n      add\n        /* \"#utility.yul\":2200:2253   */\n      tag_153\n      jump\t// in\n    tag_183:\n        /* \"#utility.yul\":2190:2253   */\n      swap4\n      pop\n        /* \"#utility.yul\":2146:2263   */\n      pop\n        /* \"#utility.yul\":2302:2304   */\n      0x20\n        /* \"#utility.yul\":2328:2381   */\n      tag_184\n        /* \"#utility.yul\":2373:2380   */\n      dup7\n        /* \"#utility.yul\":2364:2370   */\n      dup3\n        /* \"#utility.yul\":2353:2362   */\n      dup8\n        /* \"#utility.yul\":2349:2371   */\n      add\n        /* \"#utility.yul\":2328:2381   */\n      tag_161\n      jump\t// in\n    tag_184:\n        /* \"#utility.yul\":2318:2381   */\n      swap3\n      pop\n        /* \"#utility.yul\":2273:2391   */\n      pop\n        /* \"#utility.yul\":2430:2432   */\n      0x40\n        /* \"#utility.yul\":2456:2509   */\n      tag_185\n        /* \"#utility.yul\":2501:2508   */\n      dup7\n        /* \"#utility.yul\":2492:2498   */\n      dup3\n        /* \"#utility.yul\":2481:2490   */\n      dup8\n        /* \"#utility.yul\":2477:2499   */\n      add\n        /* \"#utility.yul\":2456:2509   */\n      tag_161\n      jump\t// in\n    tag_185:\n        /* \"#utility.yul\":2446:2509   */\n      swap2\n      pop\n        /* \"#utility.yul\":2401:2519   */\n      pop\n        /* \"#utility.yul\":2074:2526   */\n      swap3\n      pop\n      swap3\n      pop\n      swap3\n      jump\t// out\n        /* \"#utility.yul\":2532:2810   */\n    tag_86:\n      0x00\n        /* \"#utility.yul\":2648:2650   */\n      0x20\n        /* \"#utility.yul\":2636:2645   */\n      dup3\n        /* \"#utility.yul\":2627:2634   */\n      dup5\n        /* \"#utility.yul\":2623:2646   */\n      sub\n        /* \"#utility.yul\":2619:2651   */\n      slt\n        /* \"#utility.yul\":2616:2618   */\n      iszero\n      tag_187\n      jumpi\n        /* \"#utility.yul\":2664:2665   */\n      0x00\n        /* \"#utility.yul\":2661:2662   */\n      dup1\n        /* \"#utility.yul\":2654:2666   */\n      revert\n        /* \"#utility.yul\":2616:2618   */\n    tag_187:\n        /* \"#utility.yul\":2707:2708   */\n      0x00\n        /* \"#utility.yul\":2732:2793   */\n      tag_188\n        /* \"#utility.yul\":2785:2792   */\n      dup5\n        /* \"#utility.yul\":2776:2782   */\n      dup3\n        /* \"#utility.yul\":2765:2774   */\n      dup6\n        /* \"#utility.yul\":2761:2783   */\n      add\n        /* \"#utility.yul\":2732:2793   */\n      tag_157\n      jump\t// in\n    tag_188:\n        /* \"#utility.yul\":2722:2793   */\n      swap2\n      pop\n        /* \"#utility.yul\":2678:2803   */\n      pop\n        /* \"#utility.yul\":2606:2810   */\n      swap3\n      swap2\n      pop\n      pop\n      jump\t// out\n        /* \"#utility.yul\":2816:3078   */\n    tag_56:\n      0x00\n        /* \"#utility.yul\":2924:2926   */\n      0x20\n        /* \"#utility.yul\":2912:2921   */\n      dup3\n        /* \"#utility.yul\":2903:2910   */\n      dup5\n        /* \"#utility.yul\":2899:2922   */\n      sub\n        /* \"#utility.yul\":2895:2927   */\n      slt\n        /* \"#utility.yul\":2892:2894   */\n      iszero\n      tag_190\n      jumpi\n        /* \"#utility.yul\":2940:2941   */\n      0x00\n        /* \"#utility.yul\":2937:2938   */\n      dup1\n        /* \"#utility.yul\":2930:2942   */\n      revert\n        /* \"#utility.yul\":2892:2894   */\n    tag_190:\n        /* \"#utility.yul\":2983:2984   */\n      0x00\n        /* \"#utility.yul\":3008:3061   */\n      tag_191\n        /* \"#utility.yul\":3053:3060   */\n      dup5\n        /* \"#utility.yul\":3044:3050   */\n      dup3\n        /* \"#utility.yul\":3033:3042   */\n      dup6\n        /* \"#utility.yul\":3029:3051   */\n      add\n        /* \"#utility.yul\":3008:3061   */\n      tag_161\n      jump\t// in\n    tag_191:\n        /* \"#utility.yul\":2998:3061   */\n      swap2\n      pop\n        /* \"#utility.yul\":2954:3071   */\n      pop\n        /* \"#utility.yul\":2882:3078   */\n      swap3\n      swap2\n      pop\n      pop\n      jump\t// out\n        /* \"#utility.yul\":3084:3368   */\n    tag_93:\n      0x00\n        /* \"#utility.yul\":3203:3205   */\n      0x20\n        /* \"#utility.yul\":3191:3200   */\n      dup3\n        /* \"#utility.yul\":3182:3189   */\n      dup5\n        /* \"#utility.yul\":3178:3201   */\n      sub\n        /* \"#utility.yul\":3174:3206   */\n      slt\n        /* \"#utility.yul\":3171:3173   */\n      iszero\n      tag_193\n      jumpi\n        /* \"#utility.yul\":3219:3220   */\n      0x00\n        /* \"#utility.yul\":3216:3217   */\n      dup1\n        /* \"#utility.yul\":3209:3221   */\n      revert\n        /* \"#utility.yul\":3171:3173   */\n    tag_193:\n        /* \"#utility.yul\":3262:3263   */\n      0x00\n        /* \"#utility.yul\":3287:3351   */\n      tag_194\n        /* \"#utility.yul\":3343:3350   */\n      dup5\n        /* \"#utility.yul\":3334:3340   */\n      dup3\n        /* \"#utility.yul\":3323:3332   */\n      dup6\n        /* \"#utility.yul\":3319:3341   */\n      add\n        /* \"#utility.yul\":3287:3351   */\n      tag_165\n      jump\t// in\n    tag_194:\n        /* \"#utility.yul\":3277:3351   */\n      swap2\n      pop\n        /* \"#utility.yul\":3233:3361   */\n      pop\n        /* \"#utility.yul\":3161:3368   */\n      swap3\n      swap2\n      pop\n      pop\n      jump\t// out\n        /* \"#utility.yul\":3374:3781   */\n    tag_71:\n      0x00\n      dup1\n        /* \"#utility.yul\":3499:3501   */\n      0x40\n        /* \"#utility.yul\":3487:3496   */\n      dup4\n        /* \"#utility.yul\":3478:3485   */\n      dup6\n        /* \"#utility.yul\":3474:3497   */\n      sub\n        /* \"#utility.yul\":3470:3502   */\n      slt\n        /* \"#utility.yul\":3467:3469   */\n      iszero\n      tag_196\n      jumpi\n        /* \"#utility.yul\":3515:3516   */\n      0x00\n        /* \"#utility.yul\":3512:3513   */\n      dup1\n        /* \"#utility.yul\":3505:3517   */\n      revert\n        /* \"#utility.yul\":3467:3469   */\n    tag_196:\n        /* \"#utility.yul\":3558:3559   */\n      0x00\n        /* \"#utility.yul\":3583:3636   */\n      tag_197\n        /* \"#utility.yul\":3628:3635   */\n      dup6\n        /* \"#utility.yul\":3619:3625   */\n      dup3\n        /* \"#utility.yul\":3608:3617   */\n      dup7\n        /* \"#utility.yul\":3604:3626   */\n      add\n        /* \"#utility.yul\":3583:3636   */\n      tag_161\n      jump\t// in\n    tag_197:\n        /* \"#utility.yul\":3573:3636   */\n      swap3\n      pop\n        /* \"#utility.yul\":3529:3646   */\n      pop\n        /* \"#utility.yul\":3685:3687   */\n      0x20\n        /* \"#utility.yul\":3711:3764   */\n      tag_198\n        /* \"#utility.yul\":3756:3763   */\n      dup6\n        /* \"#utility.yul\":3747:3753   */\n      dup3\n        /* \"#utility.yul\":3736:3745   */\n      dup7\n        /* \"#utility.yul\":3732:3754   */\n      add\n        /* \"#utility.yul\":3711:3764   */\n      tag_161\n      jump\t// in\n    tag_198:\n        /* \"#utility.yul\":3701:3764   */\n      swap2\n      pop\n        /* \"#utility.yul\":3656:3774   */\n      pop\n        /* \"#utility.yul\":3457:3781   */\n      swap3\n      pop\n      swap3\n      swap1\n      pop\n      jump\t// out\n        /* \"#utility.yul\":3787:3895   */\n    tag_199:\n        /* \"#utility.yul\":3864:3888   */\n      tag_201\n        /* \"#utility.yul\":3882:3887   */\n      dup2\n        /* \"#utility.yul\":3864:3888   */\n      tag_202\n      jump\t// in\n    tag_201:\n        /* \"#utility.yul\":3859:3862   */\n      dup3\n        /* \"#utility.yul\":3852:3889   */\n      mstore\n        /* \"#utility.yul\":3842:3895   */\n      pop\n      pop\n      jump\t// out\n        /* \"#utility.yul\":3901:4019   */\n    tag_203:\n        /* \"#utility.yul\":3988:4012   */\n      tag_205\n        /* \"#utility.yul\":4006:4011   */\n      dup2\n        /* \"#utility.yul\":3988:4012   */\n      tag_202\n      jump\t// in\n    tag_205:\n        /* \"#utility.yul\":3983:3986   */\n      dup3\n        /* \"#utility.yul\":3976:4013   */\n      mstore\n        /* \"#utility.yul\":3966:4019   */\n      pop\n      pop\n      jump\t// out\n        /* \"#utility.yul\":4025:4184   */\n    tag_206:\n        /* \"#utility.yul\":4126:4177   */\n      tag_208\n        /* \"#utility.yul\":4171:4176   */\n      dup2\n        /* \"#utility.yul\":4126:4177   */\n      tag_209\n      jump\t// in\n    tag_208:\n        /* \"#utility.yul\":4121:4124   */\n      dup3\n        /* \"#utility.yul\":4114:4178   */\n      mstore\n        /* \"#utility.yul\":4104:4184   */\n      pop\n      pop\n      jump\t// out\n        /* \"#utility.yul\":4190:4359   */\n    tag_210:\n        /* \"#utility.yul\":4296:4352   */\n      tag_212\n        /* \"#utility.yul\":4346:4351   */\n      dup2\n        /* \"#utility.yul\":4296:4352   */\n      tag_213\n      jump\t// in\n    tag_212:\n        /* \"#utility.yul\":4291:4294   */\n      dup3\n        /* \"#utility.yul\":4284:4353   */\n      mstore\n        /* \"#utility.yul\":4274:4359   */\n      pop\n      pop\n      jump\t// out\n        /* \"#utility.yul\":4365:4512   */\n    tag_214:\n        /* \"#utility.yul\":4460:4505   */\n      tag_216\n        /* \"#utility.yul\":4499:4504   */\n      dup2\n        /* \"#utility.yul\":4460:4505   */\n      tag_217\n      jump\t// in\n    tag_216:\n        /* \"#utility.yul\":4455:4458   */\n      dup3\n        /* \"#utility.yul\":4448:4506   */\n      mstore\n        /* \"#utility.yul\":4438:4512   */\n      pop\n      pop\n      jump\t// out\n        /* \"#utility.yul\":4612:6233   */\n    tag_218:\n        /* \"#utility.yul\":4785:4791   */\n      0x0100\n        /* \"#utility.yul\":4780:4783   */\n      dup3\n        /* \"#utility.yul\":4776:4792   */\n      add\n        /* \"#utility.yul\":4877:4881   */\n      0x00\n        /* \"#utility.yul\":4870:4875   */\n      dup3\n        /* \"#utility.yul\":4866:4882   */\n      add\n        /* \"#utility.yul\":4860:4883   */\n      mload\n        /* \"#utility.yul\":4896:4959   */\n      tag_220\n        /* \"#utility.yul\":4953:4957   */\n      0x00\n        /* \"#utility.yul\":4948:4951   */\n      dup6\n        /* \"#utility.yul\":4944:4958   */\n      add\n        /* \"#utility.yul\":4930:4942   */\n      dup3\n        /* \"#utility.yul\":4896:4959   */\n      tag_199\n      jump\t// in\n    tag_220:\n        /* \"#utility.yul\":4802:4969   */\n      pop\n        /* \"#utility.yul\":5055:5059   */\n      0x20\n        /* \"#utility.yul\":5048:5053   */\n      dup3\n        /* \"#utility.yul\":5044:5060   */\n      add\n        /* \"#utility.yul\":5038:5061   */\n      mload\n        /* \"#utility.yul\":5074:5137   */\n      tag_221\n        /* \"#utility.yul\":5131:5135   */\n      0x20\n        /* \"#utility.yul\":5126:5129   */\n      dup6\n        /* \"#utility.yul\":5122:5136   */\n      add\n        /* \"#utility.yul\":5108:5120   */\n      dup3\n        /* \"#utility.yul\":5074:5137   */\n      tag_199\n      jump\t// in\n    tag_221:\n        /* \"#utility.yul\":4979:5147   */\n      pop\n        /* \"#utility.yul\":5228:5232   */\n      0x40\n        /* \"#utility.yul\":5221:5226   */\n      dup3\n        /* \"#utility.yul\":5217:5233   */\n      add\n        /* \"#utility.yul\":5211:5234   */\n      mload\n        /* \"#utility.yul\":5247:5308   */\n      tag_222\n        /* \"#utility.yul\":5302:5306   */\n      0x40\n        /* \"#utility.yul\":5297:5300   */\n      dup6\n        /* \"#utility.yul\":5293:5307   */\n      add\n        /* \"#utility.yul\":5279:5291   */\n      dup3\n        /* \"#utility.yul\":5247:5308   */\n      tag_223\n      jump\t// in\n    tag_222:\n        /* \"#utility.yul\":5157:5318   */\n      pop\n        /* \"#utility.yul\":5405:5409   */\n      0x60\n        /* \"#utility.yul\":5398:5403   */\n      dup3\n        /* \"#utility.yul\":5394:5410   */\n      add\n        /* \"#utility.yul\":5388:5411   */\n      mload\n        /* \"#utility.yul\":5424:5487   */\n      tag_224\n        /* \"#utility.yul\":5481:5485   */\n      0x60\n        /* \"#utility.yul\":5476:5479   */\n      dup6\n        /* \"#utility.yul\":5472:5486   */\n      add\n        /* \"#utility.yul\":5458:5470   */\n      dup3\n        /* \"#utility.yul\":5424:5487   */\n      tag_199\n      jump\t// in\n    tag_224:\n        /* \"#utility.yul\":5328:5497   */\n      pop\n        /* \"#utility.yul\":5583:5587   */\n      0x80\n        /* \"#utility.yul\":5576:5581   */\n      dup3\n        /* \"#utility.yul\":5572:5588   */\n      add\n        /* \"#utility.yul\":5566:5589   */\n      mload\n        /* \"#utility.yul\":5602:5665   */\n      tag_225\n        /* \"#utility.yul\":5659:5663   */\n      0x80\n        /* \"#utility.yul\":5654:5657   */\n      dup6\n        /* \"#utility.yul\":5650:5664   */\n      add\n        /* \"#utility.yul\":5636:5648   */\n      dup3\n        /* \"#utility.yul\":5602:5665   */\n      tag_226\n      jump\t// in\n    tag_225:\n        /* \"#utility.yul\":5507:5675   */\n      pop\n        /* \"#utility.yul\":5761:5765   */\n      0xa0\n        /* \"#utility.yul\":5754:5759   */\n      dup3\n        /* \"#utility.yul\":5750:5766   */\n      add\n        /* \"#utility.yul\":5744:5767   */\n      mload\n        /* \"#utility.yul\":5780:5843   */\n      tag_227\n        /* \"#utility.yul\":5837:5841   */\n      0xa0\n        /* \"#utility.yul\":5832:5835   */\n      dup6\n        /* \"#utility.yul\":5828:5842   */\n      add\n        /* \"#utility.yul\":5814:5826   */\n      dup3\n        /* \"#utility.yul\":5780:5843   */\n      tag_226\n      jump\t// in\n    tag_227:\n        /* \"#utility.yul\":5685:5853   */\n      pop\n        /* \"#utility.yul\":5947:5951   */\n      0xc0\n        /* \"#utility.yul\":5940:5945   */\n      dup3\n        /* \"#utility.yul\":5936:5952   */\n      add\n        /* \"#utility.yul\":5930:5953   */\n      mload\n        /* \"#utility.yul\":5966:6029   */\n      tag_228\n        /* \"#utility.yul\":6023:6027   */\n      0xc0\n        /* \"#utility.yul\":6018:6021   */\n      dup6\n        /* \"#utility.yul\":6014:6028   */\n      add\n        /* \"#utility.yul\":6000:6012   */\n      dup3\n        /* \"#utility.yul\":5966:6029   */\n      tag_226\n      jump\t// in\n    tag_228:\n        /* \"#utility.yul\":5863:6039   */\n      pop\n        /* \"#utility.yul\":6134:6138   */\n      0xe0\n        /* \"#utility.yul\":6127:6132   */\n      dup3\n        /* \"#utility.yul\":6123:6139   */\n      add\n        /* \"#utility.yul\":6117:6140   */\n      mload\n        /* \"#utility.yul\":6153:6216   */\n      tag_229\n        /* \"#utility.yul\":6210:6214   */\n      0xe0\n        /* \"#utility.yul\":6205:6208   */\n      dup6\n        /* \"#utility.yul\":6201:6215   */\n      add\n        /* \"#utility.yul\":6187:6199   */\n      dup3\n        /* \"#utility.yul\":6153:6216   */\n      tag_230\n      jump\t// in\n    tag_229:\n        /* \"#utility.yul\":6049:6226   */\n      pop\n        /* \"#utility.yul\":4754:6233   */\n      pop\n      pop\n      pop\n      jump\t// out\n        /* \"#utility.yul\":6335:7958   */\n    tag_231:\n        /* \"#utility.yul\":6510:6516   */\n      0x0100\n        /* \"#utility.yul\":6505:6508   */\n      dup3\n        /* \"#utility.yul\":6501:6517   */\n      add\n        /* \"#utility.yul\":6602:6606   */\n      0x00\n        /* \"#utility.yul\":6595:6600   */\n      dup3\n        /* \"#utility.yul\":6591:6607   */\n      add\n        /* \"#utility.yul\":6585:6608   */\n      mload\n        /* \"#utility.yul\":6621:6684   */\n      tag_233\n        /* \"#utility.yul\":6678:6682   */\n      0x00\n        /* \"#utility.yul\":6673:6676   */\n      dup6\n        /* \"#utility.yul\":6669:6683   */\n      add\n        /* \"#utility.yul\":6655:6667   */\n      dup3\n        /* \"#utility.yul\":6621:6684   */\n      tag_199\n      jump\t// in\n    tag_233:\n        /* \"#utility.yul\":6527:6694   */\n      pop\n        /* \"#utility.yul\":6780:6784   */\n      0x20\n        /* \"#utility.yul\":6773:6778   */\n      dup3\n        /* \"#utility.yul\":6769:6785   */\n      add\n        /* \"#utility.yul\":6763:6786   */\n      mload\n        /* \"#utility.yul\":6799:6862   */\n      tag_234\n        /* \"#utility.yul\":6856:6860   */\n      0x20\n        /* \"#utility.yul\":6851:6854   */\n      dup6\n        /* \"#utility.yul\":6847:6861   */\n      add\n        /* \"#utility.yul\":6833:6845   */\n      dup3\n        /* \"#utility.yul\":6799:6862   */\n      tag_199\n      jump\t// in\n    tag_234:\n        /* \"#utility.yul\":6704:6872   */\n      pop\n        /* \"#utility.yul\":6953:6957   */\n      0x40\n        /* \"#utility.yul\":6946:6951   */\n      dup3\n        /* \"#utility.yul\":6942:6958   */\n      add\n        /* \"#utility.yul\":6936:6959   */\n      mload\n        /* \"#utility.yul\":6972:7033   */\n      tag_235\n        /* \"#utility.yul\":7027:7031   */\n      0x40\n        /* \"#utility.yul\":7022:7025   */\n      dup6\n        /* \"#utility.yul\":7018:7032   */\n      add\n        /* \"#utility.yul\":7004:7016   */\n      dup3\n        /* \"#utility.yul\":6972:7033   */\n      tag_223\n      jump\t// in\n    tag_235:\n        /* \"#utility.yul\":6882:7043   */\n      pop\n        /* \"#utility.yul\":7130:7134   */\n      0x60\n        /* \"#utility.yul\":7123:7128   */\n      dup3\n        /* \"#utility.yul\":7119:7135   */\n      add\n        /* \"#utility.yul\":7113:7136   */\n      mload\n        /* \"#utility.yul\":7149:7212   */\n      tag_236\n        /* \"#utility.yul\":7206:7210   */\n      0x60\n        /* \"#utility.yul\":7201:7204   */\n      dup6\n        /* \"#utility.yul\":7197:7211   */\n      add\n        /* \"#utility.yul\":7183:7195   */\n      dup3\n        /* \"#utility.yul\":7149:7212   */\n      tag_199\n      jump\t// in\n    tag_236:\n        /* \"#utility.yul\":7053:7222   */\n      pop\n        /* \"#utility.yul\":7308:7312   */\n      0x80\n        /* \"#utility.yul\":7301:7306   */\n      dup3\n        /* \"#utility.yul\":7297:7313   */\n      add\n        /* \"#utility.yul\":7291:7314   */\n      mload\n        /* \"#utility.yul\":7327:7390   */\n      tag_237\n        /* \"#utility.yul\":7384:7388   */\n      0x80\n        /* \"#utility.yul\":7379:7382   */\n      dup6\n        /* \"#utility.yul\":7375:7389   */\n      add\n        /* \"#utility.yul\":7361:7373   */\n      dup3\n        /* \"#utility.yul\":7327:7390   */\n      tag_226\n      jump\t// in\n    tag_237:\n        /* \"#utility.yul\":7232:7400   */\n      pop\n        /* \"#utility.yul\":7487:7491   */\n      0xa0\n        /* \"#utility.yul\":7480:7485   */\n      dup3\n        /* \"#utility.yul\":7476:7492   */\n      add\n        /* \"#utility.yul\":7470:7493   */\n      mload\n        /* \"#utility.yul\":7506:7569   */\n      tag_238\n        /* \"#utility.yul\":7563:7567   */\n      0xa0\n        /* \"#utility.yul\":7558:7561   */\n      dup6\n        /* \"#utility.yul\":7554:7568   */\n      add\n        /* \"#utility.yul\":7540:7552   */\n      dup3\n        /* \"#utility.yul\":7506:7569   */\n      tag_226\n      jump\t// in\n    tag_238:\n        /* \"#utility.yul\":7410:7579   */\n      pop\n        /* \"#utility.yul\":7672:7676   */\n      0xc0\n        /* \"#utility.yul\":7665:7670   */\n      dup3\n        /* \"#utility.yul\":7661:7677   */\n      add\n        /* \"#utility.yul\":7655:7678   */\n      mload\n        /* \"#utility.yul\":7691:7754   */\n      tag_239\n        /* \"#utility.yul\":7748:7752   */\n      0xc0\n        /* \"#utility.yul\":7743:7746   */\n      dup6\n        /* \"#utility.yul\":7739:7753   */\n      add\n        /* \"#utility.yul\":7725:7737   */\n      dup3\n        /* \"#utility.yul\":7691:7754   */\n      tag_226\n      jump\t// in\n    tag_239:\n        /* \"#utility.yul\":7589:7764   */\n      pop\n        /* \"#utility.yul\":7859:7863   */\n      0xe0\n        /* \"#utility.yul\":7852:7857   */\n      dup3\n        /* \"#utility.yul\":7848:7864   */\n      add\n        /* \"#utility.yul\":7842:7865   */\n      mload\n        /* \"#utility.yul\":7878:7941   */\n      tag_240\n        /* \"#utility.yul\":7935:7939   */\n      0xe0\n        /* \"#utility.yul\":7930:7933   */\n      dup6\n        /* \"#utility.yul\":7926:7940   */\n      add\n        /* \"#utility.yul\":7912:7924   */\n      dup3\n        /* \"#utility.yul\":7878:7941   */\n      tag_230\n      jump\t// in\n    tag_240:\n        /* \"#utility.yul\":7774:7951   */\n      pop\n        /* \"#utility.yul\":6479:7958   */\n      pop\n      pop\n      pop\n      jump\t// out\n        /* \"#utility.yul\":7964:8072   */\n    tag_230:\n        /* \"#utility.yul\":8041:8065   */\n      tag_242\n        /* \"#utility.yul\":8059:8064   */\n      dup2\n        /* \"#utility.yul\":8041:8065   */\n      tag_243\n      jump\t// in\n    tag_242:\n        /* \"#utility.yul\":8036:8039   */\n      dup3\n        /* \"#utility.yul\":8029:8066   */\n      mstore\n        /* \"#utility.yul\":8019:8072   */\n      pop\n      pop\n      jump\t// out\n        /* \"#utility.yul\":8078:8183   */\n    tag_223:\n        /* \"#utility.yul\":8153:8176   */\n      tag_245\n        /* \"#utility.yul\":8170:8175   */\n      dup2\n        /* \"#utility.yul\":8153:8176   */\n      tag_246\n      jump\t// in\n    tag_245:\n        /* \"#utility.yul\":8148:8151   */\n      dup3\n        /* \"#utility.yul\":8141:8177   */\n      mstore\n        /* \"#utility.yul\":8131:8183   */\n      pop\n      pop\n      jump\t// out\n        /* \"#utility.yul\":8189:8304   */\n    tag_247:\n        /* \"#utility.yul\":8274:8297   */\n      tag_249\n        /* \"#utility.yul\":8291:8296   */\n      dup2\n        /* \"#utility.yul\":8274:8297   */\n      tag_246\n      jump\t// in\n    tag_249:\n        /* \"#utility.yul\":8269:8272   */\n      dup3\n        /* \"#utility.yul\":8262:8298   */\n      mstore\n        /* \"#utility.yul\":8252:8304   */\n      pop\n      pop\n      jump\t// out\n        /* \"#utility.yul\":8310:8418   */\n    tag_226:\n        /* \"#utility.yul\":8387:8411   */\n      tag_251\n        /* \"#utility.yul\":8405:8410   */\n      dup2\n        /* \"#utility.yul\":8387:8411   */\n      tag_252\n      jump\t// in\n    tag_251:\n        /* \"#utility.yul\":8382:8385   */\n      dup3\n        /* \"#utility.yul\":8375:8412   */\n      mstore\n        /* \"#utility.yul\":8365:8418   */\n      pop\n      pop\n      jump\t// out\n        /* \"#utility.yul\":8424:8542   */\n    tag_253:\n        /* \"#utility.yul\":8511:8535   */\n      tag_255\n        /* \"#utility.yul\":8529:8534   */\n      dup2\n        /* \"#utility.yul\":8511:8535   */\n      tag_252\n      jump\t// in\n    tag_255:\n        /* \"#utility.yul\":8506:8509   */\n      dup3\n        /* \"#utility.yul\":8499:8536   */\n      mstore\n        /* \"#utility.yul\":8489:8542   */\n      pop\n      pop\n      jump\t// out\n        /* \"#utility.yul\":8548:8770   */\n    tag_31:\n      0x00\n        /* \"#utility.yul\":8679:8681   */\n      0x20\n        /* \"#utility.yul\":8668:8677   */\n      dup3\n        /* \"#utility.yul\":8664:8682   */\n      add\n        /* \"#utility.yul\":8656:8682   */\n      swap1\n      pop\n        /* \"#utility.yul\":8692:8763   */\n      tag_257\n        /* \"#utility.yul\":8760:8761   */\n      0x00\n        /* \"#utility.yul\":8749:8758   */\n      dup4\n        /* \"#utility.yul\":8745:8762   */\n      add\n        /* \"#utility.yul\":8736:8742   */\n      dup5\n        /* \"#utility.yul\":8692:8763   */\n      tag_203\n      jump\t// in\n    tag_257:\n        /* \"#utility.yul\":8646:8770   */\n      swap3\n      swap2\n      pop\n      pop\n      jump\t// out\n        /* \"#utility.yul\":8776:9124   */\n    tag_136:\n      0x00\n        /* \"#utility.yul\":8943:8945   */\n      0x40\n        /* \"#utility.yul\":8932:8941   */\n      dup3\n        /* \"#utility.yul\":8928:8946   */\n      add\n        /* \"#utility.yul\":8920:8946   */\n      swap1\n      pop\n        /* \"#utility.yul\":8956:9027   */\n      tag_259\n        /* \"#utility.yul\":9024:9025   */\n      0x00\n        /* \"#utility.yul\":9013:9022   */\n      dup4\n        /* \"#utility.yul\":9009:9026   */\n      add\n        /* \"#utility.yul\":9000:9006   */\n      dup6\n        /* \"#utility.yul\":8956:9027   */\n      tag_203\n      jump\t// in\n    tag_259:\n        /* \"#utility.yul\":9037:9117   */\n      tag_260\n        /* \"#utility.yul\":9113:9115   */\n      0x20\n        /* \"#utility.yul\":9102:9111   */\n      dup4\n        /* \"#utility.yul\":9098:9116   */\n      add\n        /* \"#utility.yul\":9089:9095   */\n      dup5\n        /* \"#utility.yul\":9037:9117   */\n      tag_214\n      jump\t// in\n    tag_260:\n        /* \"#utility.yul\":8910:9124   */\n      swap4\n      swap3\n      pop\n      pop\n      pop\n      jump\t// out\n        /* \"#utility.yul\":9130:9462   */\n    tag_81:\n      0x00\n        /* \"#utility.yul\":9289:9291   */\n      0x40\n        /* \"#utility.yul\":9278:9287   */\n      dup3\n        /* \"#utility.yul\":9274:9292   */\n      add\n        /* \"#utility.yul\":9266:9292   */\n      swap1\n      pop\n        /* \"#utility.yul\":9302:9373   */\n      tag_262\n        /* \"#utility.yul\":9370:9371   */\n      0x00\n        /* \"#utility.yul\":9359:9368   */\n      dup4\n        /* \"#utility.yul\":9355:9372   */\n      add\n        /* \"#utility.yul\":9346:9352   */\n      dup6\n        /* \"#utility.yul\":9302:9373   */\n      tag_203\n      jump\t// in\n    tag_262:\n        /* \"#utility.yul\":9383:9455   */\n      tag_263\n        /* \"#utility.yul\":9451:9453   */\n      0x20\n        /* \"#utility.yul\":9440:9449   */\n      dup4\n        /* \"#utility.yul\":9436:9454   */\n      add\n        /* \"#utility.yul\":9427:9433   */\n      dup5\n        /* \"#utility.yul\":9383:9455   */\n      tag_253\n      jump\t// in\n    tag_263:\n        /* \"#utility.yul\":9256:9462   */\n      swap4\n      swap3\n      pop\n      pop\n      pop\n      jump\t// out\n        /* \"#utility.yul\":9468:9718   */\n    tag_52:\n      0x00\n        /* \"#utility.yul\":9613:9615   */\n      0x20\n        /* \"#utility.yul\":9602:9611   */\n      dup3\n        /* \"#utility.yul\":9598:9616   */\n      add\n        /* \"#utility.yul\":9590:9616   */\n      swap1\n      pop\n        /* \"#utility.yul\":9626:9711   */\n      tag_265\n        /* \"#utility.yul\":9708:9709   */\n      0x00\n        /* \"#utility.yul\":9697:9706   */\n      dup4\n        /* \"#utility.yul\":9693:9710   */\n      add\n        /* \"#utility.yul\":9684:9690   */\n      dup5\n        /* \"#utility.yul\":9626:9711   */\n      tag_206\n      jump\t// in\n    tag_265:\n        /* \"#utility.yul\":9580:9718   */\n      swap3\n      swap2\n      pop\n      pop\n      jump\t// out\n        /* \"#utility.yul\":9724:9984   */\n    tag_67:\n      0x00\n        /* \"#utility.yul\":9874:9876   */\n      0x20\n        /* \"#utility.yul\":9863:9872   */\n      dup3\n        /* \"#utility.yul\":9859:9877   */\n      add\n        /* \"#utility.yul\":9851:9877   */\n      swap1\n      pop\n        /* \"#utility.yul\":9887:9977   */\n      tag_267\n        /* \"#utility.yul\":9974:9975   */\n      0x00\n        /* \"#utility.yul\":9963:9972   */\n      dup4\n        /* \"#utility.yul\":9959:9976   */\n      add\n        /* \"#utility.yul\":9950:9956   */\n      dup5\n        /* \"#utility.yul\":9887:9977   */\n      tag_210\n      jump\t// in\n    tag_267:\n        /* \"#utility.yul\":9841:9984   */\n      swap3\n      swap2\n      pop\n      pop\n      jump\t// out\n        /* \"#utility.yul\":9990:10365   */\n    tag_88:\n      0x00\n        /* \"#utility.yul\":10197:10200   */\n      0x0100\n        /* \"#utility.yul\":10186:10195   */\n      dup3\n        /* \"#utility.yul\":10182:10201   */\n      add\n        /* \"#utility.yul\":10174:10201   */\n      swap1\n      pop\n        /* \"#utility.yul\":10211:10358   */\n      tag_269\n        /* \"#utility.yul\":10355:10356   */\n      0x00\n        /* \"#utility.yul\":10344:10353   */\n      dup4\n        /* \"#utility.yul\":10340:10357   */\n      add\n        /* \"#utility.yul\":10331:10337   */\n      dup5\n        /* \"#utility.yul\":10211:10358   */\n      tag_218\n      jump\t// in\n    tag_269:\n        /* \"#utility.yul\":10164:10365   */\n      swap3\n      swap2\n      pop\n      pop\n      jump\t// out\n        /* \"#utility.yul\":10371:10750   */\n    tag_129:\n      0x00\n        /* \"#utility.yul\":10580:10583   */\n      0x0100\n        /* \"#utility.yul\":10569:10578   */\n      dup3\n        /* \"#utility.yul\":10565:10584   */\n      add\n        /* \"#utility.yul\":10557:10584   */\n      swap1\n      pop\n        /* \"#utility.yul\":10594:10743   */\n      tag_271\n        /* \"#utility.yul\":10740:10741   */\n      0x00\n        /* \"#utility.yul\":10729:10738   */\n      dup4\n        /* \"#utility.yul\":10725:10742   */\n      add\n        /* \"#utility.yul\":10716:10722   */\n      dup5\n        /* \"#utility.yul\":10594:10743   */\n      tag_231\n      jump\t// in\n    tag_271:\n        /* \"#utility.yul\":10547:10750   */\n      swap3\n      swap2\n      pop\n      pop\n      jump\t// out\n        /* \"#utility.yul\":10756:10974   */\n    tag_19:\n      0x00\n        /* \"#utility.yul\":10885:10887   */\n      0x20\n        /* \"#utility.yul\":10874:10883   */\n      dup3\n        /* \"#utility.yul\":10870:10888   */\n      add\n        /* \"#utility.yul\":10862:10888   */\n      swap1\n      pop\n        /* \"#utility.yul\":10898:10967   */\n      tag_273\n        /* \"#utility.yul\":10964:10965   */\n      0x00\n        /* \"#utility.yul\":10953:10962   */\n      dup4\n        /* \"#utility.yul\":10949:10966   */\n      add\n        /* \"#utility.yul\":10940:10946   */\n      dup5\n        /* \"#utility.yul\":10898:10967   */\n      tag_247\n      jump\t// in\n    tag_273:\n        /* \"#utility.yul\":10852:10974   */\n      swap3\n      swap2\n      pop\n      pop\n      jump\t// out\n        /* \"#utility.yul\":10980:11202   */\n    tag_26:\n      0x00\n        /* \"#utility.yul\":11111:11113   */\n      0x20\n        /* \"#utility.yul\":11100:11109   */\n      dup3\n        /* \"#utility.yul\":11096:11114   */\n      add\n        /* \"#utility.yul\":11088:11114   */\n      swap1\n      pop\n        /* \"#utility.yul\":11124:11195   */\n      tag_275\n        /* \"#utility.yul\":11192:11193   */\n      0x00\n        /* \"#utility.yul\":11181:11190   */\n      dup4\n        /* \"#utility.yul\":11177:11194   */\n      add\n        /* \"#utility.yul\":11168:11174   */\n      dup5\n        /* \"#utility.yul\":11124:11195   */\n      tag_253\n      jump\t// in\n    tag_275:\n        /* \"#utility.yul\":11078:11202   */\n      swap3\n      swap2\n      pop\n      pop\n      jump\t// out\n        /* \"#utility.yul\":11208:11304   */\n    tag_202:\n      0x00\n        /* \"#utility.yul\":11274:11298   */\n      tag_277\n        /* \"#utility.yul\":11292:11297   */\n      dup3\n        /* \"#utility.yul\":11274:11298   */\n      tag_243\n      jump\t// in\n    tag_277:\n        /* \"#utility.yul\":11263:11298   */\n      swap1\n      pop\n        /* \"#utility.yul\":11253:11304   */\n      swap2\n      swap1\n      pop\n      jump\t// out\n        /* \"#utility.yul\":11310:11400   */\n    tag_278:\n      0x00\n        /* \"#utility.yul\":11387:11392   */\n      dup2\n        /* \"#utility.yul\":11380:11393   */\n      iszero\n        /* \"#utility.yul\":11373:11394   */\n      iszero\n        /* \"#utility.yul\":11362:11394   */\n      swap1\n      pop\n        /* \"#utility.yul\":11352:11400   */\n      swap2\n      swap1\n      pop\n      jump\t// out\n        /* \"#utility.yul\":11406:11532   */\n    tag_243:\n      0x00\n        /* \"#utility.yul\":11483:11525   */\n      0xffffffffffffffffffffffffffffffffffffffff\n        /* \"#utility.yul\":11476:11481   */\n      dup3\n        /* \"#utility.yul\":11472:11526   */\n      and\n        /* \"#utility.yul\":11461:11526   */\n      swap1\n      pop\n        /* \"#utility.yul\":11451:11532   */\n      swap2\n      swap1\n      pop\n      jump\t// out\n        /* \"#utility.yul\":11538:11629   */\n    tag_246:\n      0x00\n        /* \"#utility.yul\":11614:11622   */\n      0xffffff\n        /* \"#utility.yul\":11607:11612   */\n      dup3\n        /* \"#utility.yul\":11603:11623   */\n      and\n        /* \"#utility.yul\":11592:11623   */\n      swap1\n      pop\n        /* \"#utility.yul\":11582:11629   */\n      swap2\n      swap1\n      pop\n      jump\t// out\n        /* \"#utility.yul\":11635:11712   */\n    tag_252:\n      0x00\n        /* \"#utility.yul\":11701:11706   */\n      dup2\n        /* \"#utility.yul\":11690:11706   */\n      swap1\n      pop\n        /* \"#utility.yul\":11680:11712   */\n      swap2\n      swap1\n      pop\n      jump\t// out\n        /* \"#utility.yul\":11718:11872   */\n    tag_209:\n      0x00\n        /* \"#utility.yul\":11815:11866   */\n      tag_284\n        /* \"#utility.yul\":11860:11865   */\n      dup3\n        /* \"#utility.yul\":11815:11866   */\n      tag_285\n      jump\t// in\n    tag_284:\n        /* \"#utility.yul\":11802:11866   */\n      swap1\n      pop\n        /* \"#utility.yul\":11792:11872   */\n      swap2\n      swap1\n      pop\n      jump\t// out\n        /* \"#utility.yul\":11878:12005   */\n    tag_285:\n      0x00\n        /* \"#utility.yul\":11975:11999   */\n      tag_287\n        /* \"#utility.yul\":11993:11998   */\n      dup3\n        /* \"#utility.yul\":11975:11999   */\n      tag_243\n      jump\t// in\n    tag_287:\n        /* \"#utility.yul\":11962:11999   */\n      swap1\n      pop\n        /* \"#utility.yul\":11952:12005   */\n      swap2\n      swap1\n      pop\n      jump\t// out\n        /* \"#utility.yul\":12011:12175   */\n    tag_213:\n      0x00\n        /* \"#utility.yul\":12113:12169   */\n      tag_289\n        /* \"#utility.yul\":12163:12168   */\n      dup3\n        /* \"#utility.yul\":12113:12169   */\n      tag_290\n      jump\t// in\n    tag_289:\n        /* \"#utility.yul\":12100:12169   */\n      swap1\n      pop\n        /* \"#utility.yul\":12090:12175   */\n      swap2\n      swap1\n      pop\n      jump\t// out\n        /* \"#utility.yul\":12181:12313   */\n    tag_290:\n      0x00\n        /* \"#utility.yul\":12283:12307   */\n      tag_292\n        /* \"#utility.yul\":12301:12306   */\n      dup3\n        /* \"#utility.yul\":12283:12307   */\n      tag_243\n      jump\t// in\n    tag_292:\n        /* \"#utility.yul\":12270:12307   */\n      swap1\n      pop\n        /* \"#utility.yul\":12260:12313   */\n      swap2\n      swap1\n      pop\n      jump\t// out\n        /* \"#utility.yul\":12319:12440   */\n    tag_217:\n      0x00\n        /* \"#utility.yul\":12410:12434   */\n      tag_294\n        /* \"#utility.yul\":12428:12433   */\n      dup3\n        /* \"#utility.yul\":12410:12434   */\n      tag_252\n      jump\t// in\n    tag_294:\n        /* \"#utility.yul\":12397:12434   */\n      swap1\n      pop\n        /* \"#utility.yul\":12387:12440   */\n      swap2\n      swap1\n      pop\n      jump\t// out\n        /* \"#utility.yul\":12446:12568   */\n    tag_156:\n        /* \"#utility.yul\":12519:12543   */\n      tag_296\n        /* \"#utility.yul\":12537:12542   */\n      dup2\n        /* \"#utility.yul\":12519:12543   */\n      tag_202\n      jump\t// in\n    tag_296:\n        /* \"#utility.yul\":12512:12517   */\n      dup2\n        /* \"#utility.yul\":12509:12544   */\n      eq\n        /* \"#utility.yul\":12499:12501   */\n      tag_297\n      jumpi\n        /* \"#utility.yul\":12558:12559   */\n      0x00\n        /* \"#utility.yul\":12555:12556   */\n      dup1\n        /* \"#utility.yul\":12548:12560   */\n      revert\n        /* \"#utility.yul\":12499:12501   */\n    tag_297:\n        /* \"#utility.yul\":12489:12568   */\n      pop\n      jump\t// out\n        /* \"#utility.yul\":12574:12690   */\n    tag_160:\n        /* \"#utility.yul\":12644:12665   */\n      tag_299\n        /* \"#utility.yul\":12659:12664   */\n      dup2\n        /* \"#utility.yul\":12644:12665   */\n      tag_278\n      jump\t// in\n    tag_299:\n        /* \"#utility.yul\":12637:12642   */\n      dup2\n        /* \"#utility.yul\":12634:12666   */\n      eq\n        /* \"#utility.yul\":12624:12626   */\n      tag_300\n      jumpi\n        /* \"#utility.yul\":12680:12681   */\n      0x00\n        /* \"#utility.yul\":12677:12678   */\n      dup1\n        /* \"#utility.yul\":12670:12682   */\n      revert\n        /* \"#utility.yul\":12624:12626   */\n    tag_300:\n        /* \"#utility.yul\":12614:12690   */\n      pop\n      jump\t// out\n        /* \"#utility.yul\":12696:12818   */\n    tag_164:\n        /* \"#utility.yul\":12769:12793   */\n      tag_302\n        /* \"#utility.yul\":12787:12792   */\n      dup2\n        /* \"#utility.yul\":12769:12793   */\n      tag_252\n      jump\t// in\n    tag_302:\n        /* \"#utility.yul\":12762:12767   */\n      dup2\n        /* \"#utility.yul\":12759:12794   */\n      eq\n        /* \"#utility.yul\":12749:12751   */\n      tag_303\n      jumpi\n        /* \"#utility.yul\":12808:12809   */\n      0x00\n        /* \"#utility.yul\":12805:12806   */\n      dup1\n        /* \"#utility.yul\":12798:12810   */\n      revert\n        /* \"#utility.yul\":12749:12751   */\n    tag_303:\n        /* \"#utility.yul\":12739:12818   */\n      pop\n      jump\t// out\n\n    auxdata: 0xa2646970667358221220bc647c01be85a42df33b9dbefc88fa7553031fd8831e7453473cd67d9ff0578264736f6c63430007060033\n}\n",
				"bytecode": {
					"linkReferences": {},
					"object": "60a060405273e592427a0aece92de3edee1f18e0157c0586156473ffffffffffffffffffffffffffffffffffffffff1660809073ffffffffffffffffffffffffffffffffffffffff1660601b81525073326c977e6efc84e512bb9c30f76e30c160ed06fb6000806101000a81548173ffffffffffffffffffffffffffffffffffffffff021916908373ffffffffffffffffffffffffffffffffffffffff1602179055503480156100ae57600080fd5b5060805160601c6116366100fe60003980610335528061047952806106335280610763528061087c52806109d55280610aa05280610b035280610c5b5280610d4c5280610f4a52506116366000f3fe6080604052600436106100a75760003560e01c806357970e931161006457806357970e93146101e457806373bd43ad1461020f578063ad5c46481461024c578063c31c9c0714610277578063c4b69a18146102a2578063dc735ccf146102df576100a7565b8063089fe6aa146100ac578063180cab4d146100d75780631b6b6d23146101145780632e4d59c41461013f5780633268cc561461017c5780633ee2afc1146101a7575b600080fd5b3480156100b857600080fd5b506100c161030f565b6040516100ce91906114d4565b60405180910390f35b3480156100e357600080fd5b506100fe60048036038101906100f99190611119565b610315565b60405161010b91906114ef565b60405180910390f35b34801561012057600080fd5b5061012961052c565b60405161013691906113f9565b60405180910390f35b34801561014b57600080fd5b5061016660048036038101906101619190611051565b610544565b60405161017391906114ef565b60405180910390f35b34801561018857600080fd5b506101916105fb565b60405161019e91906113f9565b60405180910390f35b3480156101b357600080fd5b506101ce60048036038101906101c9919061107a565b610613565b6040516101db91906114ef565b60405180910390f35b3480156101f057600080fd5b506101f9610817565b6040516102069190611466565b60405180910390f35b34801561021b57600080fd5b5061023660048036038101906102319190611191565b61083b565b60405161024391906114ef565b60405180910390f35b34801561025857600080fd5b50610261610a86565b60405161026e91906113f9565b60405180910390f35b34801561028357600080fd5b5061028c610a9e565b6040516102999190611481565b60405180910390f35b3480156102ae57600080fd5b506102c960048036038101906102c491906111e3565b610ac2565b6040516102d691906114ef565b60405180910390f35b6102f960048036038101906102f491906110dd565b610e95565b60405161030691906114ef565b60405180910390f35b610bb881565b60008373ffffffffffffffffffffffffffffffffffffffff1663095ea7b37f0000000000000000000000000000000000000000000000000000000000000000856040518363ffffffff1660e01b815260040161037292919061143d565b602060405180830381600087803b15801561038c57600080fd5b505af11580156103a0573d6000803e3d6000fd5b505050506040513d601f19601f820116820180604052508101906103c49190611168565b5060006040518061010001604052808673ffffffffffffffffffffffffffffffffffffffff16815260200173b4fbf271143f4fbf7b91a5ded31805e42b2208d673ffffffffffffffffffffffffffffffffffffffff168152602001610bb862ffffff1681526020013373ffffffffffffffffffffffffffffffffffffffff168152602001428152602001858152602001848152602001600073ffffffffffffffffffffffffffffffffffffffff1681525090507f000000000000000000000000000000000000000000000000000000000000000073ffffffffffffffffffffffffffffffffffffffff1663414bf389826040518263ffffffff1660e01b81526004016104d0919061149c565b602060405180830381600087803b1580156104ea57600080fd5b505af11580156104fe573d6000803e3d6000fd5b505050506040513d601f19601f8201168201806040525081019061052291906111ba565b9150509392505050565b73326c977e6efc84e512bb9c30f76e30c160ed06fb81565b60008060008054906101000a900473ffffffffffffffffffffffffffffffffffffffff1673ffffffffffffffffffffffffffffffffffffffff166370a08231846040518263ffffffff1660e01b81526004016105a091906113f9565b60206040518083038186803b1580156105b857600080fd5b505afa1580156105cc573d6000803e3d6000fd5b505050506040513d601f19601f820116820180604052508101906105f091906111ba565b905080915050919050565b73e592427a0aece92de3edee1f18e0157c0586156481565b60008473ffffffffffffffffffffffffffffffffffffffff1663095ea7b37f0000000000000000000000000000000000000000000000000000000000000000856040518363ffffffff1660e01b815260040161067092919061143d565b602060405180830381600087803b15801561068a57600080fd5b505af115801561069e573d6000803e3d6000fd5b505050506040513d601f19601f820116820180604052508101906106c29190611168565b5060006040518061010001604052808773ffffffffffffffffffffffffffffffffffffffff1681526020018673ffffffffffffffffffffffffffffffffffffffff168152602001610bb862ffffff1681526020013373ffffffffffffffffffffffffffffffffffffffff168152602001428152602001858152602001848152602001600073ffffffffffffffffffffffffffffffffffffffff1681525090507f000000000000000000000000000000000000000000000000000000000000000073ffffffffffffffffffffffffffffffffffffffff1663414bf389826040518263ffffffff1660e01b81526004016107ba919061149c565b602060405180830381600087803b1580156107d457600080fd5b505af11580156107e8573d6000803e3d6000fd5b505050506040513d601f19601f8201168201806040525081019061080c91906111ba565b915050949350505050565b60008054906101000a900473ffffffffffffffffffffffffffffffffffffffff1681565b60008060009054906101000a900473ffffffffffffffffffffffffffffffffffffffff1673ffffffffffffffffffffffffffffffffffffffff1663095ea7b37f0000000000000000000000000000000000000000000000000000000000000000846040518363ffffffff1660e01b81526004016108b992919061143d565b602060405180830381600087803b1580156108d357600080fd5b505af11580156108e7573d6000803e3d6000fd5b505050506040513d601f19601f8201168201806040525081019061090b9190611168565b50600060405180610100016040528073326c977e6efc84e512bb9c30f76e30c160ed06fb73ffffffffffffffffffffffffffffffffffffffff16815260200173b4fbf271143f4fbf7b91a5ded31805e42b2208d673ffffffffffffffffffffffffffffffffffffffff168152602001610bb862ffffff1681526020013073ffffffffffffffffffffffffffffffffffffffff16815260200142815260200184815260200160008152602001600073ffffffffffffffffffffffffffffffffffffffff1681525090507f000000000000000000000000000000000000000000000000000000000000000073ffffffffffffffffffffffffffffffffffffffff1663414bf389826040518263ffffffff1660e01b8152600401610a2c919061149c565b602060405180830381600087803b158015610a4657600080fd5b505af1158015610a5a573d6000803e3d6000fd5b505050506040513d601f19601f82011682018060405250810190610a7e91906111ba565b915050919050565b73b4fbf271143f4fbf7b91a5ded31805e42b2208d681565b7f000000000000000000000000000000000000000000000000000000000000000081565b60008060009054906101000a900473ffffffffffffffffffffffffffffffffffffffff1673ffffffffffffffffffffffffffffffffffffffff1663095ea7b37f0000000000000000000000000000000000000000000000000000000000000000846040518363ffffffff1660e01b8152600401610b4092919061143d565b602060405180830381600087803b158015610b5a57600080fd5b505af1158015610b6e573d6000803e3d6000fd5b505050506040513d601f19601f82011682018060405250810190610b929190611168565b50600060405180610100016040528073326c977e6efc84e512bb9c30f76e30c160ed06fb73ffffffffffffffffffffffffffffffffffffffff16815260200173b4fbf271143f4fbf7b91a5ded31805e42b2208d673ffffffffffffffffffffffffffffffffffffffff168152602001610bb862ffffff1681526020013073ffffffffffffffffffffffffffffffffffffffff168152602001428152602001858152602001848152602001600073ffffffffffffffffffffffffffffffffffffffff1681525090507f000000000000000000000000000000000000000000000000000000000000000073ffffffffffffffffffffffffffffffffffffffff1663db3e2198826040518263ffffffff1660e01b8152600401610cb291906114b8565b602060405180830381600087803b158015610ccc57600080fd5b505af1158015610ce0573d6000803e3d6000fd5b505050506040513d601f19601f82011682018060405250810190610d0491906111ba565b915082821015610e8e5760008054906101000a900473ffffffffffffffffffffffffffffffffffffffff1673ffffffffffffffffffffffffffffffffffffffff1663095ea7b37f000000000000000000000000000000000000000000000000000000000000000060006040518363ffffffff1660e01b8152600401610d8a929190611414565b602060405180830381600087803b158015610da457600080fd5b505af1158015610db8573d6000803e3d6000fd5b505050506040513d601f19601f82011682018060405250810190610ddc9190611168565b5060008054906101000a900473ffffffffffffffffffffffffffffffffffffffff1673ffffffffffffffffffffffffffffffffffffffff1663a9059cbb308486036040518363ffffffff1660e01b8152600401610e3a92919061143d565b602060405180830381600087803b158015610e5457600080fd5b505af1158015610e68573d6000803e3d6000fd5b505050506040513d601f19601f82011682018060405250810190610e8c9190611168565b505b5092915050565b60008060405180610100016040528073b4fbf271143f4fbf7b91a5ded31805e42b2208d673ffffffffffffffffffffffffffffffffffffffff1681526020018573ffffffffffffffffffffffffffffffffffffffff168152602001610bb862ffffff1681526020013373ffffffffffffffffffffffffffffffffffffffff168152602001428152602001348152602001848152602001600073ffffffffffffffffffffffffffffffffffffffff1681525090507f000000000000000000000000000000000000000000000000000000000000000073ffffffffffffffffffffffffffffffffffffffff1663414bf38934836040518363ffffffff1660e01b8152600401610fa2919061149c565b6020604051808303818588803b158015610fbb57600080fd5b505af1158015610fcf573d6000803e3d6000fd5b50505050506040513d601f19601f82011682018060405250810190610ff491906111ba565b91505092915050565b60008135905061100c816115bb565b92915050565b600081519050611021816115d2565b92915050565b600081359050611036816115e9565b92915050565b60008151905061104b816115e9565b92915050565b60006020828403121561106357600080fd5b600061107184828501610ffd565b91505092915050565b6000806000806080858703121561109057600080fd5b600061109e87828801610ffd565b94505060206110af87828801610ffd565b93505060406110c087828801611027565b92505060606110d187828801611027565b91505092959194509250565b600080604083850312156110f057600080fd5b60006110fe85828601610ffd565b925050602061110f85828601611027565b9150509250929050565b60008060006060848603121561112e57600080fd5b600061113c86828701610ffd565b935050602061114d86828701611027565b925050604061115e86828701611027565b9150509250925092565b60006020828403121561117a57600080fd5b600061118884828501611012565b91505092915050565b6000602082840312156111a357600080fd5b60006111b184828501611027565b91505092915050565b6000602082840312156111cc57600080fd5b60006111da8482850161103c565b91505092915050565b600080604083850312156111f657600080fd5b600061120485828601611027565b925050602061121585828601611027565b9150509250929050565b6112288161150a565b82525050565b6112378161150a565b82525050565b61124681611561565b82525050565b61125581611585565b82525050565b611264816115a9565b82525050565b61010082016000820151611281600085018261121f565b506020820151611294602085018261121f565b5060408201516112a760408501826113bd565b5060608201516112ba606085018261121f565b5060808201516112cd60808501826113db565b5060a08201516112e060a08501826113db565b5060c08201516112f360c08501826113db565b5060e082015161130660e08501826113ae565b50505050565b61010082016000820151611323600085018261121f565b506020820151611336602085018261121f565b50604082015161134960408501826113bd565b50606082015161135c606085018261121f565b50608082015161136f60808501826113db565b5060a082015161138260a08501826113db565b5060c082015161139560c08501826113db565b5060e08201516113a860e08501826113ae565b50505050565b6113b781611528565b82525050565b6113c681611548565b82525050565b6113d581611548565b82525050565b6113e481611557565b82525050565b6113f381611557565b82525050565b600060208201905061140e600083018461122e565b92915050565b6000604082019050611429600083018561122e565b611436602083018461125b565b9392505050565b6000604082019050611452600083018561122e565b61145f60208301846113ea565b9392505050565b600060208201905061147b600083018461123d565b92915050565b6000602082019050611496600083018461124c565b92915050565b6000610100820190506114b2600083018461126a565b92915050565b6000610100820190506114ce600083018461130c565b92915050565b60006020820190506114e960008301846113cc565b92915050565b600060208201905061150460008301846113ea565b92915050565b600061151582611528565b9050919050565b60008115159050919050565b600073ffffffffffffffffffffffffffffffffffffffff82169050919050565b600062ffffff82169050919050565b6000819050919050565b600061156c82611573565b9050919050565b600061157e82611528565b9050919050565b600061159082611597565b9050919050565b60006115a282611528565b9050919050565b60006115b482611557565b9050919050565b6115c48161150a565b81146115cf57600080fd5b50565b6115db8161151c565b81146115e657600080fd5b50565b6115f281611557565b81146115fd57600080fd5b5056fea2646970667358221220bc647c01be85a42df33b9dbefc88fa7553031fd8831e7453473cd67d9ff0578264736f6c63430007060033",
					"opcodes": "PUSH1 0xA0 PUSH1 0x40 MSTORE PUSH20 0xE592427A0AECE92DE3EDEE1F18E0157C05861564 PUSH20 0xFFFFFFFFFFFFFFFFFFFFFFFFFFFFFFFFFFFFFFFF AND PUSH1 0x80 SWAP1 PUSH20 0xFFFFFFFFFFFFFFFFFFFFFFFFFFFFFFFFFFFFFFFF AND PUSH1 0x60 SHL DUP2 MSTORE POP PUSH20 0x326C977E6EFC84E512BB9C30F76E30C160ED06FB PUSH1 0x0 DUP1 PUSH2 0x100 EXP DUP2 SLOAD DUP2 PUSH20 0xFFFFFFFFFFFFFFFFFFFFFFFFFFFFFFFFFFFFFFFF MUL NOT AND SWAP1 DUP4 PUSH20 0xFFFFFFFFFFFFFFFFFFFFFFFFFFFFFFFFFFFFFFFF AND MUL OR SWAP1 SSTORE POP CALLVALUE DUP1 ISZERO PUSH2 0xAE JUMPI PUSH1 0x0 DUP1 REVERT JUMPDEST POP PUSH1 0x80 MLOAD PUSH1 0x60 SHR PUSH2 0x1636 PUSH2 0xFE PUSH1 0x0 CODECOPY DUP1 PUSH2 0x335 MSTORE DUP1 PUSH2 0x479 MSTORE DUP1 PUSH2 0x633 MSTORE DUP1 PUSH2 0x763 MSTORE DUP1 PUSH2 0x87C MSTORE DUP1 PUSH2 0x9D5 MSTORE DUP1 PUSH2 0xAA0 MSTORE DUP1 PUSH2 0xB03 MSTORE DUP1 PUSH2 0xC5B MSTORE DUP1 PUSH2 0xD4C MSTORE DUP1 PUSH2 0xF4A MSTORE POP PUSH2 0x1636 PUSH1 0x0 RETURN INVALID PUSH1 0x80 PUSH1 0x40 MSTORE PUSH1 0x4 CALLDATASIZE LT PUSH2 0xA7 JUMPI PUSH1 0x0 CALLDATALOAD PUSH1 0xE0 SHR DUP1 PUSH4 0x57970E93 GT PUSH2 0x64 JUMPI DUP1 PUSH4 0x57970E93 EQ PUSH2 0x1E4 JUMPI DUP1 PUSH4 0x73BD43AD EQ PUSH2 0x20F JUMPI DUP1 PUSH4 0xAD5C4648 EQ PUSH2 0x24C JUMPI DUP1 PUSH4 0xC31C9C07 EQ PUSH2 0x277 JUMPI DUP1 PUSH4 0xC4B69A18 EQ PUSH2 0x2A2 JUMPI DUP1 PUSH4 0xDC735CCF EQ PUSH2 0x2DF JUMPI PUSH2 0xA7 JUMP JUMPDEST DUP1 PUSH4 0x89FE6AA EQ PUSH2 0xAC JUMPI DUP1 PUSH4 0x180CAB4D EQ PUSH2 0xD7 JUMPI DUP1 PUSH4 0x1B6B6D23 EQ PUSH2 0x114 JUMPI DUP1 PUSH4 0x2E4D59C4 EQ PUSH2 0x13F JUMPI DUP1 PUSH4 0x3268CC56 EQ PUSH2 0x17C JUMPI DUP1 PUSH4 0x3EE2AFC1 EQ PUSH2 0x1A7 JUMPI JUMPDEST PUSH1 0x0 DUP1 REVERT JUMPDEST CALLVALUE DUP1 ISZERO PUSH2 0xB8 JUMPI PUSH1 0x0 DUP1 REVERT JUMPDEST POP PUSH2 0xC1 PUSH2 0x30F JUMP JUMPDEST PUSH1 0x40 MLOAD PUSH2 0xCE SWAP2 SWAP1 PUSH2 0x14D4 JUMP JUMPDEST PUSH1 0x40 MLOAD DUP1 SWAP2 SUB SWAP1 RETURN JUMPDEST CALLVALUE DUP1 ISZERO PUSH2 0xE3 JUMPI PUSH1 0x0 DUP1 REVERT JUMPDEST POP PUSH2 0xFE PUSH1 0x4 DUP1 CALLDATASIZE SUB DUP2 ADD SWAP1 PUSH2 0xF9 SWAP2 SWAP1 PUSH2 0x1119 JUMP JUMPDEST PUSH2 0x315 JUMP JUMPDEST PUSH1 0x40 MLOAD PUSH2 0x10B SWAP2 SWAP1 PUSH2 0x14EF JUMP JUMPDEST PUSH1 0x40 MLOAD DUP1 SWAP2 SUB SWAP1 RETURN JUMPDEST CALLVALUE DUP1 ISZERO PUSH2 0x120 JUMPI PUSH1 0x0 DUP1 REVERT JUMPDEST POP PUSH2 0x129 PUSH2 0x52C JUMP JUMPDEST PUSH1 0x40 MLOAD PUSH2 0x136 SWAP2 SWAP1 PUSH2 0x13F9 JUMP JUMPDEST PUSH1 0x40 MLOAD DUP1 SWAP2 SUB SWAP1 RETURN JUMPDEST CALLVALUE DUP1 ISZERO PUSH2 0x14B JUMPI PUSH1 0x0 DUP1 REVERT JUMPDEST POP PUSH2 0x166 PUSH1 0x4 DUP1 CALLDATASIZE SUB DUP2 ADD SWAP1 PUSH2 0x161 SWAP2 SWAP1 PUSH2 0x1051 JUMP JUMPDEST PUSH2 0x544 JUMP JUMPDEST PUSH1 0x40 MLOAD PUSH2 0x173 SWAP2 SWAP1 PUSH2 0x14EF JUMP JUMPDEST PUSH1 0x40 MLOAD DUP1 SWAP2 SUB SWAP1 RETURN JUMPDEST CALLVALUE DUP1 ISZERO PUSH2 0x188 JUMPI PUSH1 0x0 DUP1 REVERT JUMPDEST POP PUSH2 0x191 PUSH2 0x5FB JUMP JUMPDEST PUSH1 0x40 MLOAD PUSH2 0x19E SWAP2 SWAP1 PUSH2 0x13F9 JUMP JUMPDEST PUSH1 0x40 MLOAD DUP1 SWAP2 SUB SWAP1 RETURN JUMPDEST CALLVALUE DUP1 ISZERO PUSH2 0x1B3 JUMPI PUSH1 0x0 DUP1 REVERT JUMPDEST POP PUSH2 0x1CE PUSH1 0x4 DUP1 CALLDATASIZE SUB DUP2 ADD SWAP1 PUSH2 0x1C9 SWAP2 SWAP1 PUSH2 0x107A JUMP JUMPDEST PUSH2 0x613 JUMP JUMPDEST PUSH1 0x40 MLOAD PUSH2 0x1DB SWAP2 SWAP1 PUSH2 0x14EF JUMP JUMPDEST PUSH1 0x40 MLOAD DUP1 SWAP2 SUB SWAP1 RETURN JUMPDEST CALLVALUE DUP1 ISZERO PUSH2 0x1F0 JUMPI PUSH1 0x0 DUP1 REVERT JUMPDEST POP PUSH2 0x1F9 PUSH2 0x817 JUMP JUMPDEST PUSH1 0x40 MLOAD PUSH2 0x206 SWAP2 SWAP1 PUSH2 0x1466 JUMP JUMPDEST PUSH1 0x40 MLOAD DUP1 SWAP2 SUB SWAP1 RETURN JUMPDEST CALLVALUE DUP1 ISZERO PUSH2 0x21B JUMPI PUSH1 0x0 DUP1 REVERT JUMPDEST POP PUSH2 0x236 PUSH1 0x4 DUP1 CALLDATASIZE SUB DUP2 ADD SWAP1 PUSH2 0x231 SWAP2 SWAP1 PUSH2 0x1191 JUMP JUMPDEST PUSH2 0x83B JUMP JUMPDEST PUSH1 0x40 MLOAD PUSH2 0x243 SWAP2 SWAP1 PUSH2 0x14EF JUMP JUMPDEST PUSH1 0x40 MLOAD DUP1 SWAP2 SUB SWAP1 RETURN JUMPDEST CALLVALUE DUP1 ISZERO PUSH2 0x258 JUMPI PUSH1 0x0 DUP1 REVERT JUMPDEST POP PUSH2 0x261 PUSH2 0xA86 JUMP JUMPDEST PUSH1 0x40 MLOAD PUSH2 0x26E SWAP2 SWAP1 PUSH2 0x13F9 JUMP JUMPDEST PUSH1 0x40 MLOAD DUP1 SWAP2 SUB SWAP1 RETURN JUMPDEST CALLVALUE DUP1 ISZERO PUSH2 0x283 JUMPI PUSH1 0x0 DUP1 REVERT JUMPDEST POP PUSH2 0x28C PUSH2 0xA9E JUMP JUMPDEST PUSH1 0x40 MLOAD PUSH2 0x299 SWAP2 SWAP1 PUSH2 0x1481 JUMP JUMPDEST PUSH1 0x40 MLOAD DUP1 SWAP2 SUB SWAP1 RETURN JUMPDEST CALLVALUE DUP1 ISZERO PUSH2 0x2AE JUMPI PUSH1 0x0 DUP1 REVERT JUMPDEST POP PUSH2 0x2C9 PUSH1 0x4 DUP1 CALLDATASIZE SUB DUP2 ADD SWAP1 PUSH2 0x2C4 SWAP2 SWAP1 PUSH2 0x11E3 JUMP JUMPDEST PUSH2 0xAC2 JUMP JUMPDEST PUSH1 0x40 MLOAD PUSH2 0x2D6 SWAP2 SWAP1 PUSH2 0x14EF JUMP JUMPDEST PUSH1 0x40 MLOAD DUP1 SWAP2 SUB SWAP1 RETURN JUMPDEST PUSH2 0x2F9 PUSH1 0x4 DUP1 CALLDATASIZE SUB DUP2 ADD SWAP1 PUSH2 0x2F4 SWAP2 SWAP1 PUSH2 0x10DD JUMP JUMPDEST PUSH2 0xE95 JUMP JUMPDEST PUSH1 0x40 MLOAD PUSH2 0x306 SWAP2 SWAP1 PUSH2 0x14EF JUMP JUMPDEST PUSH1 0x40 MLOAD DUP1 SWAP2 SUB SWAP1 RETURN JUMPDEST PUSH2 0xBB8 DUP2 JUMP JUMPDEST PUSH1 0x0 DUP4 PUSH20 0xFFFFFFFFFFFFFFFFFFFFFFFFFFFFFFFFFFFFFFFF AND PUSH4 0x95EA7B3 PUSH32 0x0 DUP6 PUSH1 0x40 MLOAD DUP4 PUSH4 0xFFFFFFFF AND PUSH1 0xE0 SHL DUP2 MSTORE PUSH1 0x4 ADD PUSH2 0x372 SWAP3 SWAP2 SWAP1 PUSH2 0x143D JUMP JUMPDEST PUSH1 0x20 PUSH1 0x40 MLOAD DUP1 DUP4 SUB DUP2 PUSH1 0x0 DUP8 DUP1 EXTCODESIZE ISZERO DUP1 ISZERO PUSH2 0x38C JUMPI PUSH1 0x0 DUP1 REVERT JUMPDEST POP GAS CALL ISZERO DUP1 ISZERO PUSH2 0x3A0 JUMPI RETURNDATASIZE PUSH1 0x0 DUP1 RETURNDATACOPY RETURNDATASIZE PUSH1 0x0 REVERT JUMPDEST POP POP POP POP PUSH1 0x40 MLOAD RETURNDATASIZE PUSH1 0x1F NOT PUSH1 0x1F DUP3 ADD AND DUP3 ADD DUP1 PUSH1 0x40 MSTORE POP DUP2 ADD SWAP1 PUSH2 0x3C4 SWAP2 SWAP1 PUSH2 0x1168 JUMP JUMPDEST POP PUSH1 0x0 PUSH1 0x40 MLOAD DUP1 PUSH2 0x100 ADD PUSH1 0x40 MSTORE DUP1 DUP7 PUSH20 0xFFFFFFFFFFFFFFFFFFFFFFFFFFFFFFFFFFFFFFFF AND DUP2 MSTORE PUSH1 0x20 ADD PUSH20 0xB4FBF271143F4FBF7B91A5DED31805E42B2208D6 PUSH20 0xFFFFFFFFFFFFFFFFFFFFFFFFFFFFFFFFFFFFFFFF AND DUP2 MSTORE PUSH1 0x20 ADD PUSH2 0xBB8 PUSH3 0xFFFFFF AND DUP2 MSTORE PUSH1 0x20 ADD CALLER PUSH20 0xFFFFFFFFFFFFFFFFFFFFFFFFFFFFFFFFFFFFFFFF AND DUP2 MSTORE PUSH1 0x20 ADD TIMESTAMP DUP2 MSTORE PUSH1 0x20 ADD DUP6 DUP2 MSTORE PUSH1 0x20 ADD DUP5 DUP2 MSTORE PUSH1 0x20 ADD PUSH1 0x0 PUSH20 0xFFFFFFFFFFFFFFFFFFFFFFFFFFFFFFFFFFFFFFFF AND DUP2 MSTORE POP SWAP1 POP PUSH32 0x0 PUSH20 0xFFFFFFFFFFFFFFFFFFFFFFFFFFFFFFFFFFFFFFFF AND PUSH4 0x414BF389 DUP3 PUSH1 0x40 MLOAD DUP3 PUSH4 0xFFFFFFFF AND PUSH1 0xE0 SHL DUP2 MSTORE PUSH1 0x4 ADD PUSH2 0x4D0 SWAP2 SWAP1 PUSH2 0x149C JUMP JUMPDEST PUSH1 0x20 PUSH1 0x40 MLOAD DUP1 DUP4 SUB DUP2 PUSH1 0x0 DUP8 DUP1 EXTCODESIZE ISZERO DUP1 ISZERO PUSH2 0x4EA JUMPI PUSH1 0x0 DUP1 REVERT JUMPDEST POP GAS CALL ISZERO DUP1 ISZERO PUSH2 0x4FE JUMPI RETURNDATASIZE PUSH1 0x0 DUP1 RETURNDATACOPY RETURNDATASIZE PUSH1 0x0 REVERT JUMPDEST POP POP POP POP PUSH1 0x40 MLOAD RETURNDATASIZE PUSH1 0x1F NOT PUSH1 0x1F DUP3 ADD AND DUP3 ADD DUP1 PUSH1 0x40 MSTORE POP DUP2 ADD SWAP1 PUSH2 0x522 SWAP2 SWAP1 PUSH2 0x11BA JUMP JUMPDEST SWAP2 POP POP SWAP4 SWAP3 POP POP POP JUMP JUMPDEST PUSH20 0x326C977E6EFC84E512BB9C30F76E30C160ED06FB DUP2 JUMP JUMPDEST PUSH1 0x0 DUP1 PUSH1 0x0 DUP1 SLOAD SWAP1 PUSH2 0x100 EXP SWAP1 DIV PUSH20 0xFFFFFFFFFFFFFFFFFFFFFFFFFFFFFFFFFFFFFFFF AND PUSH20 0xFFFFFFFFFFFFFFFFFFFFFFFFFFFFFFFFFFFFFFFF AND PUSH4 0x70A08231 DUP5 PUSH1 0x40 MLOAD DUP3 PUSH4 0xFFFFFFFF AND PUSH1 0xE0 SHL DUP2 MSTORE PUSH1 0x4 ADD PUSH2 0x5A0 SWAP2 SWAP1 PUSH2 0x13F9 JUMP JUMPDEST PUSH1 0x20 PUSH1 0x40 MLOAD DUP1 DUP4 SUB DUP2 DUP7 DUP1 EXTCODESIZE ISZERO DUP1 ISZERO PUSH2 0x5B8 JUMPI PUSH1 0x0 DUP1 REVERT JUMPDEST POP GAS STATICCALL ISZERO DUP1 ISZERO PUSH2 0x5CC JUMPI RETURNDATASIZE PUSH1 0x0 DUP1 RETURNDATACOPY RETURNDATASIZE PUSH1 0x0 REVERT JUMPDEST POP POP POP POP PUSH1 0x40 MLOAD RETURNDATASIZE PUSH1 0x1F NOT PUSH1 0x1F DUP3 ADD AND DUP3 ADD DUP1 PUSH1 0x40 MSTORE POP DUP2 ADD SWAP1 PUSH2 0x5F0 SWAP2 SWAP1 PUSH2 0x11BA JUMP JUMPDEST SWAP1 POP DUP1 SWAP2 POP POP SWAP2 SWAP1 POP JUMP JUMPDEST PUSH20 0xE592427A0AECE92DE3EDEE1F18E0157C05861564 DUP2 JUMP JUMPDEST PUSH1 0x0 DUP5 PUSH20 0xFFFFFFFFFFFFFFFFFFFFFFFFFFFFFFFFFFFFFFFF AND PUSH4 0x95EA7B3 PUSH32 0x0 DUP6 PUSH1 0x40 MLOAD DUP4 PUSH4 0xFFFFFFFF AND PUSH1 0xE0 SHL DUP2 MSTORE PUSH1 0x4 ADD PUSH2 0x670 SWAP3 SWAP2 SWAP1 PUSH2 0x143D JUMP JUMPDEST PUSH1 0x20 PUSH1 0x40 MLOAD DUP1 DUP4 SUB DUP2 PUSH1 0x0 DUP8 DUP1 EXTCODESIZE ISZERO DUP1 ISZERO PUSH2 0x68A JUMPI PUSH1 0x0 DUP1 REVERT JUMPDEST POP GAS CALL ISZERO DUP1 ISZERO PUSH2 0x69E JUMPI RETURNDATASIZE PUSH1 0x0 DUP1 RETURNDATACOPY RETURNDATASIZE PUSH1 0x0 REVERT JUMPDEST POP POP POP POP PUSH1 0x40 MLOAD RETURNDATASIZE PUSH1 0x1F NOT PUSH1 0x1F DUP3 ADD AND DUP3 ADD DUP1 PUSH1 0x40 MSTORE POP DUP2 ADD SWAP1 PUSH2 0x6C2 SWAP2 SWAP1 PUSH2 0x1168 JUMP JUMPDEST POP PUSH1 0x0 PUSH1 0x40 MLOAD DUP1 PUSH2 0x100 ADD PUSH1 0x40 MSTORE DUP1 DUP8 PUSH20 0xFFFFFFFFFFFFFFFFFFFFFFFFFFFFFFFFFFFFFFFF AND DUP2 MSTORE PUSH1 0x20 ADD DUP7 PUSH20 0xFFFFFFFFFFFFFFFFFFFFFFFFFFFFFFFFFFFFFFFF AND DUP2 MSTORE PUSH1 0x20 ADD PUSH2 0xBB8 PUSH3 0xFFFFFF AND DUP2 MSTORE PUSH1 0x20 ADD CALLER PUSH20 0xFFFFFFFFFFFFFFFFFFFFFFFFFFFFFFFFFFFFFFFF AND DUP2 MSTORE PUSH1 0x20 ADD TIMESTAMP DUP2 MSTORE PUSH1 0x20 ADD DUP6 DUP2 MSTORE PUSH1 0x20 ADD DUP5 DUP2 MSTORE PUSH1 0x20 ADD PUSH1 0x0 PUSH20 0xFFFFFFFFFFFFFFFFFFFFFFFFFFFFFFFFFFFFFFFF AND DUP2 MSTORE POP SWAP1 POP PUSH32 0x0 PUSH20 0xFFFFFFFFFFFFFFFFFFFFFFFFFFFFFFFFFFFFFFFF AND PUSH4 0x414BF389 DUP3 PUSH1 0x40 MLOAD DUP3 PUSH4 0xFFFFFFFF AND PUSH1 0xE0 SHL DUP2 MSTORE PUSH1 0x4 ADD PUSH2 0x7BA SWAP2 SWAP1 PUSH2 0x149C JUMP JUMPDEST PUSH1 0x20 PUSH1 0x40 MLOAD DUP1 DUP4 SUB DUP2 PUSH1 0x0 DUP8 DUP1 EXTCODESIZE ISZERO DUP1 ISZERO PUSH2 0x7D4 JUMPI PUSH1 0x0 DUP1 REVERT JUMPDEST POP GAS CALL ISZERO DUP1 ISZERO PUSH2 0x7E8 JUMPI RETURNDATASIZE PUSH1 0x0 DUP1 RETURNDATACOPY RETURNDATASIZE PUSH1 0x0 REVERT JUMPDEST POP POP POP POP PUSH1 0x40 MLOAD RETURNDATASIZE PUSH1 0x1F NOT PUSH1 0x1F DUP3 ADD AND DUP3 ADD DUP1 PUSH1 0x40 MSTORE POP DUP2 ADD SWAP1 PUSH2 0x80C SWAP2 SWAP1 PUSH2 0x11BA JUMP JUMPDEST SWAP2 POP POP SWAP5 SWAP4 POP POP POP POP JUMP JUMPDEST PUSH1 0x0 DUP1 SLOAD SWAP1 PUSH2 0x100 EXP SWAP1 DIV PUSH20 0xFFFFFFFFFFFFFFFFFFFFFFFFFFFFFFFFFFFFFFFF AND DUP2 JUMP JUMPDEST PUSH1 0x0 DUP1 PUSH1 0x0 SWAP1 SLOAD SWAP1 PUSH2 0x100 EXP SWAP1 DIV PUSH20 0xFFFFFFFFFFFFFFFFFFFFFFFFFFFFFFFFFFFFFFFF AND PUSH20 0xFFFFFFFFFFFFFFFFFFFFFFFFFFFFFFFFFFFFFFFF AND PUSH4 0x95EA7B3 PUSH32 0x0 DUP5 PUSH1 0x40 MLOAD DUP4 PUSH4 0xFFFFFFFF AND PUSH1 0xE0 SHL DUP2 MSTORE PUSH1 0x4 ADD PUSH2 0x8B9 SWAP3 SWAP2 SWAP1 PUSH2 0x143D JUMP JUMPDEST PUSH1 0x20 PUSH1 0x40 MLOAD DUP1 DUP4 SUB DUP2 PUSH1 0x0 DUP8 DUP1 EXTCODESIZE ISZERO DUP1 ISZERO PUSH2 0x8D3 JUMPI PUSH1 0x0 DUP1 REVERT JUMPDEST POP GAS CALL ISZERO DUP1 ISZERO PUSH2 0x8E7 JUMPI RETURNDATASIZE PUSH1 0x0 DUP1 RETURNDATACOPY RETURNDATASIZE PUSH1 0x0 REVERT JUMPDEST POP POP POP POP PUSH1 0x40 MLOAD RETURNDATASIZE PUSH1 0x1F NOT PUSH1 0x1F DUP3 ADD AND DUP3 ADD DUP1 PUSH1 0x40 MSTORE POP DUP2 ADD SWAP1 PUSH2 0x90B SWAP2 SWAP1 PUSH2 0x1168 JUMP JUMPDEST POP PUSH1 0x0 PUSH1 0x40 MLOAD DUP1 PUSH2 0x100 ADD PUSH1 0x40 MSTORE DUP1 PUSH20 0x326C977E6EFC84E512BB9C30F76E30C160ED06FB PUSH20 0xFFFFFFFFFFFFFFFFFFFFFFFFFFFFFFFFFFFFFFFF AND DUP2 MSTORE PUSH1 0x20 ADD PUSH20 0xB4FBF271143F4FBF7B91A5DED31805E42B2208D6 PUSH20 0xFFFFFFFFFFFFFFFFFFFFFFFFFFFFFFFFFFFFFFFF AND DUP2 MSTORE PUSH1 0x20 ADD PUSH2 0xBB8 PUSH3 0xFFFFFF AND DUP2 MSTORE PUSH1 0x20 ADD ADDRESS PUSH20 0xFFFFFFFFFFFFFFFFFFFFFFFFFFFFFFFFFFFFFFFF AND DUP2 MSTORE PUSH1 0x20 ADD TIMESTAMP DUP2 MSTORE PUSH1 0x20 ADD DUP5 DUP2 MSTORE PUSH1 0x20 ADD PUSH1 0x0 DUP2 MSTORE PUSH1 0x20 ADD PUSH1 0x0 PUSH20 0xFFFFFFFFFFFFFFFFFFFFFFFFFFFFFFFFFFFFFFFF AND DUP2 MSTORE POP SWAP1 POP PUSH32 0x0 PUSH20 0xFFFFFFFFFFFFFFFFFFFFFFFFFFFFFFFFFFFFFFFF AND PUSH4 0x414BF389 DUP3 PUSH1 0x40 MLOAD DUP3 PUSH4 0xFFFFFFFF AND PUSH1 0xE0 SHL DUP2 MSTORE PUSH1 0x4 ADD PUSH2 0xA2C SWAP2 SWAP1 PUSH2 0x149C JUMP JUMPDEST PUSH1 0x20 PUSH1 0x40 MLOAD DUP1 DUP4 SUB DUP2 PUSH1 0x0 DUP8 DUP1 EXTCODESIZE ISZERO DUP1 ISZERO PUSH2 0xA46 JUMPI PUSH1 0x0 DUP1 REVERT JUMPDEST POP GAS CALL ISZERO DUP1 ISZERO PUSH2 0xA5A JUMPI RETURNDATASIZE PUSH1 0x0 DUP1 RETURNDATACOPY RETURNDATASIZE PUSH1 0x0 REVERT JUMPDEST POP POP POP POP PUSH1 0x40 MLOAD RETURNDATASIZE PUSH1 0x1F NOT PUSH1 0x1F DUP3 ADD AND DUP3 ADD DUP1 PUSH1 0x40 MSTORE POP DUP2 ADD SWAP1 PUSH2 0xA7E SWAP2 SWAP1 PUSH2 0x11BA JUMP JUMPDEST SWAP2 POP POP SWAP2 SWAP1 POP JUMP JUMPDEST PUSH20 0xB4FBF271143F4FBF7B91A5DED31805E42B2208D6 DUP2 JUMP JUMPDEST PUSH32 0x0 DUP2 JUMP JUMPDEST PUSH1 0x0 DUP1 PUSH1 0x0 SWAP1 SLOAD SWAP1 PUSH2 0x100 EXP SWAP1 DIV PUSH20 0xFFFFFFFFFFFFFFFFFFFFFFFFFFFFFFFFFFFFFFFF AND PUSH20 0xFFFFFFFFFFFFFFFFFFFFFFFFFFFFFFFFFFFFFFFF AND PUSH4 0x95EA7B3 PUSH32 0x0 DUP5 PUSH1 0x40 MLOAD DUP4 PUSH4 0xFFFFFFFF AND PUSH1 0xE0 SHL DUP2 MSTORE PUSH1 0x4 ADD PUSH2 0xB40 SWAP3 SWAP2 SWAP1 PUSH2 0x143D JUMP JUMPDEST PUSH1 0x20 PUSH1 0x40 MLOAD DUP1 DUP4 SUB DUP2 PUSH1 0x0 DUP8 DUP1 EXTCODESIZE ISZERO DUP1 ISZERO PUSH2 0xB5A JUMPI PUSH1 0x0 DUP1 REVERT JUMPDEST POP GAS CALL ISZERO DUP1 ISZERO PUSH2 0xB6E JUMPI RETURNDATASIZE PUSH1 0x0 DUP1 RETURNDATACOPY RETURNDATASIZE PUSH1 0x0 REVERT JUMPDEST POP POP POP POP PUSH1 0x40 MLOAD RETURNDATASIZE PUSH1 0x1F NOT PUSH1 0x1F DUP3 ADD AND DUP3 ADD DUP1 PUSH1 0x40 MSTORE POP DUP2 ADD SWAP1 PUSH2 0xB92 SWAP2 SWAP1 PUSH2 0x1168 JUMP JUMPDEST POP PUSH1 0x0 PUSH1 0x40 MLOAD DUP1 PUSH2 0x100 ADD PUSH1 0x40 MSTORE DUP1 PUSH20 0x326C977E6EFC84E512BB9C30F76E30C160ED06FB PUSH20 0xFFFFFFFFFFFFFFFFFFFFFFFFFFFFFFFFFFFFFFFF AND DUP2 MSTORE PUSH1 0x20 ADD PUSH20 0xB4FBF271143F4FBF7B91A5DED31805E42B2208D6 PUSH20 0xFFFFFFFFFFFFFFFFFFFFFFFFFFFFFFFFFFFFFFFF AND DUP2 MSTORE PUSH1 0x20 ADD PUSH2 0xBB8 PUSH3 0xFFFFFF AND DUP2 MSTORE PUSH1 0x20 ADD ADDRESS PUSH20 0xFFFFFFFFFFFFFFFFFFFFFFFFFFFFFFFFFFFFFFFF AND DUP2 MSTORE PUSH1 0x20 ADD TIMESTAMP DUP2 MSTORE PUSH1 0x20 ADD DUP6 DUP2 MSTORE PUSH1 0x20 ADD DUP5 DUP2 MSTORE PUSH1 0x20 ADD PUSH1 0x0 PUSH20 0xFFFFFFFFFFFFFFFFFFFFFFFFFFFFFFFFFFFFFFFF AND DUP2 MSTORE POP SWAP1 POP PUSH32 0x0 PUSH20 0xFFFFFFFFFFFFFFFFFFFFFFFFFFFFFFFFFFFFFFFF AND PUSH4 0xDB3E2198 DUP3 PUSH1 0x40 MLOAD DUP3 PUSH4 0xFFFFFFFF AND PUSH1 0xE0 SHL DUP2 MSTORE PUSH1 0x4 ADD PUSH2 0xCB2 SWAP2 SWAP1 PUSH2 0x14B8 JUMP JUMPDEST PUSH1 0x20 PUSH1 0x40 MLOAD DUP1 DUP4 SUB DUP2 PUSH1 0x0 DUP8 DUP1 EXTCODESIZE ISZERO DUP1 ISZERO PUSH2 0xCCC JUMPI PUSH1 0x0 DUP1 REVERT JUMPDEST POP GAS CALL ISZERO DUP1 ISZERO PUSH2 0xCE0 JUMPI RETURNDATASIZE PUSH1 0x0 DUP1 RETURNDATACOPY RETURNDATASIZE PUSH1 0x0 REVERT JUMPDEST POP POP POP POP PUSH1 0x40 MLOAD RETURNDATASIZE PUSH1 0x1F NOT PUSH1 0x1F DUP3 ADD AND DUP3 ADD DUP1 PUSH1 0x40 MSTORE POP DUP2 ADD SWAP1 PUSH2 0xD04 SWAP2 SWAP1 PUSH2 0x11BA JUMP JUMPDEST SWAP2 POP DUP3 DUP3 LT ISZERO PUSH2 0xE8E JUMPI PUSH1 0x0 DUP1 SLOAD SWAP1 PUSH2 0x100 EXP SWAP1 DIV PUSH20 0xFFFFFFFFFFFFFFFFFFFFFFFFFFFFFFFFFFFFFFFF AND PUSH20 0xFFFFFFFFFFFFFFFFFFFFFFFFFFFFFFFFFFFFFFFF AND PUSH4 0x95EA7B3 PUSH32 0x0 PUSH1 0x0 PUSH1 0x40 MLOAD DUP4 PUSH4 0xFFFFFFFF AND PUSH1 0xE0 SHL DUP2 MSTORE PUSH1 0x4 ADD PUSH2 0xD8A SWAP3 SWAP2 SWAP1 PUSH2 0x1414 JUMP JUMPDEST PUSH1 0x20 PUSH1 0x40 MLOAD DUP1 DUP4 SUB DUP2 PUSH1 0x0 DUP8 DUP1 EXTCODESIZE ISZERO DUP1 ISZERO PUSH2 0xDA4 JUMPI PUSH1 0x0 DUP1 REVERT JUMPDEST POP GAS CALL ISZERO DUP1 ISZERO PUSH2 0xDB8 JUMPI RETURNDATASIZE PUSH1 0x0 DUP1 RETURNDATACOPY RETURNDATASIZE PUSH1 0x0 REVERT JUMPDEST POP POP POP POP PUSH1 0x40 MLOAD RETURNDATASIZE PUSH1 0x1F NOT PUSH1 0x1F DUP3 ADD AND DUP3 ADD DUP1 PUSH1 0x40 MSTORE POP DUP2 ADD SWAP1 PUSH2 0xDDC SWAP2 SWAP1 PUSH2 0x1168 JUMP JUMPDEST POP PUSH1 0x0 DUP1 SLOAD SWAP1 PUSH2 0x100 EXP SWAP1 DIV PUSH20 0xFFFFFFFFFFFFFFFFFFFFFFFFFFFFFFFFFFFFFFFF AND PUSH20 0xFFFFFFFFFFFFFFFFFFFFFFFFFFFFFFFFFFFFFFFF AND PUSH4 0xA9059CBB ADDRESS DUP5 DUP7 SUB PUSH1 0x40 MLOAD DUP4 PUSH4 0xFFFFFFFF AND PUSH1 0xE0 SHL DUP2 MSTORE PUSH1 0x4 ADD PUSH2 0xE3A SWAP3 SWAP2 SWAP1 PUSH2 0x143D JUMP JUMPDEST PUSH1 0x20 PUSH1 0x40 MLOAD DUP1 DUP4 SUB DUP2 PUSH1 0x0 DUP8 DUP1 EXTCODESIZE ISZERO DUP1 ISZERO PUSH2 0xE54 JUMPI PUSH1 0x0 DUP1 REVERT JUMPDEST POP GAS CALL ISZERO DUP1 ISZERO PUSH2 0xE68 JUMPI RETURNDATASIZE PUSH1 0x0 DUP1 RETURNDATACOPY RETURNDATASIZE PUSH1 0x0 REVERT JUMPDEST POP POP POP POP PUSH1 0x40 MLOAD RETURNDATASIZE PUSH1 0x1F NOT PUSH1 0x1F DUP3 ADD AND DUP3 ADD DUP1 PUSH1 0x40 MSTORE POP DUP2 ADD SWAP1 PUSH2 0xE8C SWAP2 SWAP1 PUSH2 0x1168 JUMP JUMPDEST POP JUMPDEST POP SWAP3 SWAP2 POP POP JUMP JUMPDEST PUSH1 0x0 DUP1 PUSH1 0x40 MLOAD DUP1 PUSH2 0x100 ADD PUSH1 0x40 MSTORE DUP1 PUSH20 0xB4FBF271143F4FBF7B91A5DED31805E42B2208D6 PUSH20 0xFFFFFFFFFFFFFFFFFFFFFFFFFFFFFFFFFFFFFFFF AND DUP2 MSTORE PUSH1 0x20 ADD DUP6 PUSH20 0xFFFFFFFFFFFFFFFFFFFFFFFFFFFFFFFFFFFFFFFF AND DUP2 MSTORE PUSH1 0x20 ADD PUSH2 0xBB8 PUSH3 0xFFFFFF AND DUP2 MSTORE PUSH1 0x20 ADD CALLER PUSH20 0xFFFFFFFFFFFFFFFFFFFFFFFFFFFFFFFFFFFFFFFF AND DUP2 MSTORE PUSH1 0x20 ADD TIMESTAMP DUP2 MSTORE PUSH1 0x20 ADD CALLVALUE DUP2 MSTORE PUSH1 0x20 ADD DUP5 DUP2 MSTORE PUSH1 0x20 ADD PUSH1 0x0 PUSH20 0xFFFFFFFFFFFFFFFFFFFFFFFFFFFFFFFFFFFFFFFF AND DUP2 MSTORE POP SWAP1 POP PUSH32 0x0 PUSH20 0xFFFFFFFFFFFFFFFFFFFFFFFFFFFFFFFFFFFFFFFF AND PUSH4 0x414BF389 CALLVALUE DUP4 PUSH1 0x40 MLOAD DUP4 PUSH4 0xFFFFFFFF AND PUSH1 0xE0 SHL DUP2 MSTORE PUSH1 0x4 ADD PUSH2 0xFA2 SWAP2 SWAP1 PUSH2 0x149C JUMP JUMPDEST PUSH1 0x20 PUSH1 0x40 MLOAD DUP1 DUP4 SUB DUP2 DUP6 DUP9 DUP1 EXTCODESIZE ISZERO DUP1 ISZERO PUSH2 0xFBB JUMPI PUSH1 0x0 DUP1 REVERT JUMPDEST POP GAS CALL ISZERO DUP1 ISZERO PUSH2 0xFCF JUMPI RETURNDATASIZE PUSH1 0x0 DUP1 RETURNDATACOPY RETURNDATASIZE PUSH1 0x0 REVERT JUMPDEST POP POP POP POP POP PUSH1 0x40 MLOAD RETURNDATASIZE PUSH1 0x1F NOT PUSH1 0x1F DUP3 ADD AND DUP3 ADD DUP1 PUSH1 0x40 MSTORE POP DUP2 ADD SWAP1 PUSH2 0xFF4 SWAP2 SWAP1 PUSH2 0x11BA JUMP JUMPDEST SWAP2 POP POP SWAP3 SWAP2 POP POP JUMP JUMPDEST PUSH1 0x0 DUP2 CALLDATALOAD SWAP1 POP PUSH2 0x100C DUP2 PUSH2 0x15BB JUMP JUMPDEST SWAP3 SWAP2 POP POP JUMP JUMPDEST PUSH1 0x0 DUP2 MLOAD SWAP1 POP PUSH2 0x1021 DUP2 PUSH2 0x15D2 JUMP JUMPDEST SWAP3 SWAP2 POP POP JUMP JUMPDEST PUSH1 0x0 DUP2 CALLDATALOAD SWAP1 POP PUSH2 0x1036 DUP2 PUSH2 0x15E9 JUMP JUMPDEST SWAP3 SWAP2 POP POP JUMP JUMPDEST PUSH1 0x0 DUP2 MLOAD SWAP1 POP PUSH2 0x104B DUP2 PUSH2 0x15E9 JUMP JUMPDEST SWAP3 SWAP2 POP POP JUMP JUMPDEST PUSH1 0x0 PUSH1 0x20 DUP3 DUP5 SUB SLT ISZERO PUSH2 0x1063 JUMPI PUSH1 0x0 DUP1 REVERT JUMPDEST PUSH1 0x0 PUSH2 0x1071 DUP5 DUP3 DUP6 ADD PUSH2 0xFFD JUMP JUMPDEST SWAP2 POP POP SWAP3 SWAP2 POP POP JUMP JUMPDEST PUSH1 0x0 DUP1 PUSH1 0x0 DUP1 PUSH1 0x80 DUP6 DUP8 SUB SLT ISZERO PUSH2 0x1090 JUMPI PUSH1 0x0 DUP1 REVERT JUMPDEST PUSH1 0x0 PUSH2 0x109E DUP8 DUP3 DUP9 ADD PUSH2 0xFFD JUMP JUMPDEST SWAP5 POP POP PUSH1 0x20 PUSH2 0x10AF DUP8 DUP3 DUP9 ADD PUSH2 0xFFD JUMP JUMPDEST SWAP4 POP POP PUSH1 0x40 PUSH2 0x10C0 DUP8 DUP3 DUP9 ADD PUSH2 0x1027 JUMP JUMPDEST SWAP3 POP POP PUSH1 0x60 PUSH2 0x10D1 DUP8 DUP3 DUP9 ADD PUSH2 0x1027 JUMP JUMPDEST SWAP2 POP POP SWAP3 SWAP6 SWAP2 SWAP5 POP SWAP3 POP JUMP JUMPDEST PUSH1 0x0 DUP1 PUSH1 0x40 DUP4 DUP6 SUB SLT ISZERO PUSH2 0x10F0 JUMPI PUSH1 0x0 DUP1 REVERT JUMPDEST PUSH1 0x0 PUSH2 0x10FE DUP6 DUP3 DUP7 ADD PUSH2 0xFFD JUMP JUMPDEST SWAP3 POP POP PUSH1 0x20 PUSH2 0x110F DUP6 DUP3 DUP7 ADD PUSH2 0x1027 JUMP JUMPDEST SWAP2 POP POP SWAP3 POP SWAP3 SWAP1 POP JUMP JUMPDEST PUSH1 0x0 DUP1 PUSH1 0x0 PUSH1 0x60 DUP5 DUP7 SUB SLT ISZERO PUSH2 0x112E JUMPI PUSH1 0x0 DUP1 REVERT JUMPDEST PUSH1 0x0 PUSH2 0x113C DUP7 DUP3 DUP8 ADD PUSH2 0xFFD JUMP JUMPDEST SWAP4 POP POP PUSH1 0x20 PUSH2 0x114D DUP7 DUP3 DUP8 ADD PUSH2 0x1027 JUMP JUMPDEST SWAP3 POP POP PUSH1 0x40 PUSH2 0x115E DUP7 DUP3 DUP8 ADD PUSH2 0x1027 JUMP JUMPDEST SWAP2 POP POP SWAP3 POP SWAP3 POP SWAP3 JUMP JUMPDEST PUSH1 0x0 PUSH1 0x20 DUP3 DUP5 SUB SLT ISZERO PUSH2 0x117A JUMPI PUSH1 0x0 DUP1 REVERT JUMPDEST PUSH1 0x0 PUSH2 0x1188 DUP5 DUP3 DUP6 ADD PUSH2 0x1012 JUMP JUMPDEST SWAP2 POP POP SWAP3 SWAP2 POP POP JUMP JUMPDEST PUSH1 0x0 PUSH1 0x20 DUP3 DUP5 SUB SLT ISZERO PUSH2 0x11A3 JUMPI PUSH1 0x0 DUP1 REVERT JUMPDEST PUSH1 0x0 PUSH2 0x11B1 DUP5 DUP3 DUP6 ADD PUSH2 0x1027 JUMP JUMPDEST SWAP2 POP POP SWAP3 SWAP2 POP POP JUMP JUMPDEST PUSH1 0x0 PUSH1 0x20 DUP3 DUP5 SUB SLT ISZERO PUSH2 0x11CC JUMPI PUSH1 0x0 DUP1 REVERT JUMPDEST PUSH1 0x0 PUSH2 0x11DA DUP5 DUP3 DUP6 ADD PUSH2 0x103C JUMP JUMPDEST SWAP2 POP POP SWAP3 SWAP2 POP POP JUMP JUMPDEST PUSH1 0x0 DUP1 PUSH1 0x40 DUP4 DUP6 SUB SLT ISZERO PUSH2 0x11F6 JUMPI PUSH1 0x0 DUP1 REVERT JUMPDEST PUSH1 0x0 PUSH2 0x1204 DUP6 DUP3 DUP7 ADD PUSH2 0x1027 JUMP JUMPDEST SWAP3 POP POP PUSH1 0x20 PUSH2 0x1215 DUP6 DUP3 DUP7 ADD PUSH2 0x1027 JUMP JUMPDEST SWAP2 POP POP SWAP3 POP SWAP3 SWAP1 POP JUMP JUMPDEST PUSH2 0x1228 DUP2 PUSH2 0x150A JUMP JUMPDEST DUP3 MSTORE POP POP JUMP JUMPDEST PUSH2 0x1237 DUP2 PUSH2 0x150A JUMP JUMPDEST DUP3 MSTORE POP POP JUMP JUMPDEST PUSH2 0x1246 DUP2 PUSH2 0x1561 JUMP JUMPDEST DUP3 MSTORE POP POP JUMP JUMPDEST PUSH2 0x1255 DUP2 PUSH2 0x1585 JUMP JUMPDEST DUP3 MSTORE POP POP JUMP JUMPDEST PUSH2 0x1264 DUP2 PUSH2 0x15A9 JUMP JUMPDEST DUP3 MSTORE POP POP JUMP JUMPDEST PUSH2 0x100 DUP3 ADD PUSH1 0x0 DUP3 ADD MLOAD PUSH2 0x1281 PUSH1 0x0 DUP6 ADD DUP3 PUSH2 0x121F JUMP JUMPDEST POP PUSH1 0x20 DUP3 ADD MLOAD PUSH2 0x1294 PUSH1 0x20 DUP6 ADD DUP3 PUSH2 0x121F JUMP JUMPDEST POP PUSH1 0x40 DUP3 ADD MLOAD PUSH2 0x12A7 PUSH1 0x40 DUP6 ADD DUP3 PUSH2 0x13BD JUMP JUMPDEST POP PUSH1 0x60 DUP3 ADD MLOAD PUSH2 0x12BA PUSH1 0x60 DUP6 ADD DUP3 PUSH2 0x121F JUMP JUMPDEST POP PUSH1 0x80 DUP3 ADD MLOAD PUSH2 0x12CD PUSH1 0x80 DUP6 ADD DUP3 PUSH2 0x13DB JUMP JUMPDEST POP PUSH1 0xA0 DUP3 ADD MLOAD PUSH2 0x12E0 PUSH1 0xA0 DUP6 ADD DUP3 PUSH2 0x13DB JUMP JUMPDEST POP PUSH1 0xC0 DUP3 ADD MLOAD PUSH2 0x12F3 PUSH1 0xC0 DUP6 ADD DUP3 PUSH2 0x13DB JUMP JUMPDEST POP PUSH1 0xE0 DUP3 ADD MLOAD PUSH2 0x1306 PUSH1 0xE0 DUP6 ADD DUP3 PUSH2 0x13AE JUMP JUMPDEST POP POP POP POP JUMP JUMPDEST PUSH2 0x100 DUP3 ADD PUSH1 0x0 DUP3 ADD MLOAD PUSH2 0x1323 PUSH1 0x0 DUP6 ADD DUP3 PUSH2 0x121F JUMP JUMPDEST POP PUSH1 0x20 DUP3 ADD MLOAD PUSH2 0x1336 PUSH1 0x20 DUP6 ADD DUP3 PUSH2 0x121F JUMP JUMPDEST POP PUSH1 0x40 DUP3 ADD MLOAD PUSH2 0x1349 PUSH1 0x40 DUP6 ADD DUP3 PUSH2 0x13BD JUMP JUMPDEST POP PUSH1 0x60 DUP3 ADD MLOAD PUSH2 0x135C PUSH1 0x60 DUP6 ADD DUP3 PUSH2 0x121F JUMP JUMPDEST POP PUSH1 0x80 DUP3 ADD MLOAD PUSH2 0x136F PUSH1 0x80 DUP6 ADD DUP3 PUSH2 0x13DB JUMP JUMPDEST POP PUSH1 0xA0 DUP3 ADD MLOAD PUSH2 0x1382 PUSH1 0xA0 DUP6 ADD DUP3 PUSH2 0x13DB JUMP JUMPDEST POP PUSH1 0xC0 DUP3 ADD MLOAD PUSH2 0x1395 PUSH1 0xC0 DUP6 ADD DUP3 PUSH2 0x13DB JUMP JUMPDEST POP PUSH1 0xE0 DUP3 ADD MLOAD PUSH2 0x13A8 PUSH1 0xE0 DUP6 ADD DUP3 PUSH2 0x13AE JUMP JUMPDEST POP POP POP POP JUMP JUMPDEST PUSH2 0x13B7 DUP2 PUSH2 0x1528 JUMP JUMPDEST DUP3 MSTORE POP POP JUMP JUMPDEST PUSH2 0x13C6 DUP2 PUSH2 0x1548 JUMP JUMPDEST DUP3 MSTORE POP POP JUMP JUMPDEST PUSH2 0x13D5 DUP2 PUSH2 0x1548 JUMP JUMPDEST DUP3 MSTORE POP POP JUMP JUMPDEST PUSH2 0x13E4 DUP2 PUSH2 0x1557 JUMP JUMPDEST DUP3 MSTORE POP POP JUMP JUMPDEST PUSH2 0x13F3 DUP2 PUSH2 0x1557 JUMP JUMPDEST DUP3 MSTORE POP POP JUMP JUMPDEST PUSH1 0x0 PUSH1 0x20 DUP3 ADD SWAP1 POP PUSH2 0x140E PUSH1 0x0 DUP4 ADD DUP5 PUSH2 0x122E JUMP JUMPDEST SWAP3 SWAP2 POP POP JUMP JUMPDEST PUSH1 0x0 PUSH1 0x40 DUP3 ADD SWAP1 POP PUSH2 0x1429 PUSH1 0x0 DUP4 ADD DUP6 PUSH2 0x122E JUMP JUMPDEST PUSH2 0x1436 PUSH1 0x20 DUP4 ADD DUP5 PUSH2 0x125B JUMP JUMPDEST SWAP4 SWAP3 POP POP POP JUMP JUMPDEST PUSH1 0x0 PUSH1 0x40 DUP3 ADD SWAP1 POP PUSH2 0x1452 PUSH1 0x0 DUP4 ADD DUP6 PUSH2 0x122E JUMP JUMPDEST PUSH2 0x145F PUSH1 0x20 DUP4 ADD DUP5 PUSH2 0x13EA JUMP JUMPDEST SWAP4 SWAP3 POP POP POP JUMP JUMPDEST PUSH1 0x0 PUSH1 0x20 DUP3 ADD SWAP1 POP PUSH2 0x147B PUSH1 0x0 DUP4 ADD DUP5 PUSH2 0x123D JUMP JUMPDEST SWAP3 SWAP2 POP POP JUMP JUMPDEST PUSH1 0x0 PUSH1 0x20 DUP3 ADD SWAP1 POP PUSH2 0x1496 PUSH1 0x0 DUP4 ADD DUP5 PUSH2 0x124C JUMP JUMPDEST SWAP3 SWAP2 POP POP JUMP JUMPDEST PUSH1 0x0 PUSH2 0x100 DUP3 ADD SWAP1 POP PUSH2 0x14B2 PUSH1 0x0 DUP4 ADD DUP5 PUSH2 0x126A JUMP JUMPDEST SWAP3 SWAP2 POP POP JUMP JUMPDEST PUSH1 0x0 PUSH2 0x100 DUP3 ADD SWAP1 POP PUSH2 0x14CE PUSH1 0x0 DUP4 ADD DUP5 PUSH2 0x130C JUMP JUMPDEST SWAP3 SWAP2 POP POP JUMP JUMPDEST PUSH1 0x0 PUSH1 0x20 DUP3 ADD SWAP1 POP PUSH2 0x14E9 PUSH1 0x0 DUP4 ADD DUP5 PUSH2 0x13CC JUMP JUMPDEST SWAP3 SWAP2 POP POP JUMP JUMPDEST PUSH1 0x0 PUSH1 0x20 DUP3 ADD SWAP1 POP PUSH2 0x1504 PUSH1 0x0 DUP4 ADD DUP5 PUSH2 0x13EA JUMP JUMPDEST SWAP3 SWAP2 POP POP JUMP JUMPDEST PUSH1 0x0 PUSH2 0x1515 DUP3 PUSH2 0x1528 JUMP JUMPDEST SWAP1 POP SWAP2 SWAP1 POP JUMP JUMPDEST PUSH1 0x0 DUP2 ISZERO ISZERO SWAP1 POP SWAP2 SWAP1 POP JUMP JUMPDEST PUSH1 0x0 PUSH20 0xFFFFFFFFFFFFFFFFFFFFFFFFFFFFFFFFFFFFFFFF DUP3 AND SWAP1 POP SWAP2 SWAP1 POP JUMP JUMPDEST PUSH1 0x0 PUSH3 0xFFFFFF DUP3 AND SWAP1 POP SWAP2 SWAP1 POP JUMP JUMPDEST PUSH1 0x0 DUP2 SWAP1 POP SWAP2 SWAP1 POP JUMP JUMPDEST PUSH1 0x0 PUSH2 0x156C DUP3 PUSH2 0x1573 JUMP JUMPDEST SWAP1 POP SWAP2 SWAP1 POP JUMP JUMPDEST PUSH1 0x0 PUSH2 0x157E DUP3 PUSH2 0x1528 JUMP JUMPDEST SWAP1 POP SWAP2 SWAP1 POP JUMP JUMPDEST PUSH1 0x0 PUSH2 0x1590 DUP3 PUSH2 0x1597 JUMP JUMPDEST SWAP1 POP SWAP2 SWAP1 POP JUMP JUMPDEST PUSH1 0x0 PUSH2 0x15A2 DUP3 PUSH2 0x1528 JUMP JUMPDEST SWAP1 POP SWAP2 SWAP1 POP JUMP JUMPDEST PUSH1 0x0 PUSH2 0x15B4 DUP3 PUSH2 0x1557 JUMP JUMPDEST SWAP1 POP SWAP2 SWAP1 POP JUMP JUMPDEST PUSH2 0x15C4 DUP2 PUSH2 0x150A JUMP JUMPDEST DUP2 EQ PUSH2 0x15CF JUMPI PUSH1 0x0 DUP1 REVERT JUMPDEST POP JUMP JUMPDEST PUSH2 0x15DB DUP2 PUSH2 0x151C JUMP JUMPDEST DUP2 EQ PUSH2 0x15E6 JUMPI PUSH1 0x0 DUP1 REVERT JUMPDEST POP JUMP JUMPDEST PUSH2 0x15F2 DUP2 PUSH2 0x1557 JUMP JUMPDEST DUP2 EQ PUSH2 0x15FD JUMPI PUSH1 0x0 DUP1 REVERT JUMPDEST POP JUMP INVALID LOG2 PUSH5 0x6970667358 0x22 SLT KECCAK256 0xBC PUSH5 0x7C01BE85A4 0x2D RETURN EXTCODESIZE SWAP14 0xBE 0xFC DUP9 STATICCALL PUSH22 0x53031FD8831E7453473CD67D9FF0578264736F6C6343 STOP SMOD MOD STOP CALLER "
				},
				"gasEstimates": {
					"creation": {
						"codeDepositCost": "1137200",
						"executionCost": "infinite",
						"totalCost": "infinite"
					},
					"external": {
						"CheckBalance(address)": "infinite",
						"LINK()": "423",
						"WETH()": "422",
						"linkToken()": "1254",
						"poolFee()": "336",
						"routerAddress()": "467",
						"swapEthToToken(address,uint256)": "infinite",
						"swapExactInputSingle(uint256)": "infinite",
						"swapExactOutputSingle(uint256,uint256)": "infinite",
						"swapRouter()": "infinite",
						"swapTokenToEth(address,uint256,uint256)": "infinite",
						"swapTokenToToken(address,address,uint256,uint256)": "infinite"
					}
				},
				"methodIdentifiers": {
					"CheckBalance(address)": "2e4d59c4",
					"LINK()": "1b6b6d23",
					"WETH()": "ad5c4648",
					"linkToken()": "57970e93",
					"poolFee()": "089fe6aa",
					"routerAddress()": "3268cc56",
					"swapEthToToken(address,uint256)": "dc735ccf",
					"swapExactInputSingle(uint256)": "73bd43ad",
					"swapExactOutputSingle(uint256,uint256)": "c4b69a18",
					"swapRouter()": "c31c9c07",
					"swapTokenToEth(address,uint256,uint256)": "180cab4d",
					"swapTokenToToken(address,address,uint256,uint256)": "3ee2afc1"
				}
			},
			"storageLayout": {
				"storage": [
					{
						"astId": 158,
						"contract": "MySwap.sol:SingleSwap",
						"label": "linkToken",
						"offset": 0,
						"slot": "0",
						"type": "t_contract(IERC20)139"
					}
				],
				"types": {
					"t_contract(IERC20)139": {
						"encoding": "inplace",
						"label": "contract IERC20",
						"numberOfBytes": "20"
					}
				}
			},
			"userdoc": {
				"kind": "user",
				"methods": {},
				"version": 1
			}
		}
	}
}