{
	"up_burn.sol": {
		"Myercnew": {
			"abi": [
				{
					"inputs": [
						{
							"internalType": "address",
							"name": "initialOwner",
							"type": "address"
						}
					],
					"stateMutability": "nonpayable",
					"type": "constructor"
				},
				{
					"inputs": [
						{
							"internalType": "address",
							"name": "sender",
							"type": "address"
						},
						{
							"internalType": "uint256",
							"name": "balance",
							"type": "uint256"
						},
						{
							"internalType": "uint256",
							"name": "needed",
							"type": "uint256"
						},
						{
							"internalType": "uint256",
							"name": "tokenId",
							"type": "uint256"
						}
					],
					"name": "ERC1155InsufficientBalance",
					"type": "error"
				},
				{
					"inputs": [
						{
							"internalType": "address",
							"name": "approver",
							"type": "address"
						}
					],
					"name": "ERC1155InvalidApprover",
					"type": "error"
				},
				{
					"inputs": [
						{
							"internalType": "uint256",
							"name": "idsLength",
							"type": "uint256"
						},
						{
							"internalType": "uint256",
							"name": "valuesLength",
							"type": "uint256"
						}
					],
					"name": "ERC1155InvalidArrayLength",
					"type": "error"
				},
				{
					"inputs": [
						{
							"internalType": "address",
							"name": "operator",
							"type": "address"
						}
					],
					"name": "ERC1155InvalidOperator",
					"type": "error"
				},
				{
					"inputs": [
						{
							"internalType": "address",
							"name": "receiver",
							"type": "address"
						}
					],
					"name": "ERC1155InvalidReceiver",
					"type": "error"
				},
				{
					"inputs": [
						{
							"internalType": "address",
							"name": "sender",
							"type": "address"
						}
					],
					"name": "ERC1155InvalidSender",
					"type": "error"
				},
				{
					"inputs": [
						{
							"internalType": "address",
							"name": "operator",
							"type": "address"
						},
						{
							"internalType": "address",
							"name": "owner",
							"type": "address"
						}
					],
					"name": "ERC1155MissingApprovalForAll",
					"type": "error"
				},
				{
					"inputs": [
						{
							"internalType": "address",
							"name": "owner",
							"type": "address"
						}
					],
					"name": "OwnableInvalidOwner",
					"type": "error"
				},
				{
					"inputs": [
						{
							"internalType": "address",
							"name": "account",
							"type": "address"
						}
					],
					"name": "OwnableUnauthorizedAccount",
					"type": "error"
				},
				{
					"anonymous": false,
					"inputs": [
						{
							"indexed": true,
							"internalType": "address",
							"name": "account",
							"type": "address"
						},
						{
							"indexed": true,
							"internalType": "address",
							"name": "operator",
							"type": "address"
						},
						{
							"indexed": false,
							"internalType": "bool",
							"name": "approved",
							"type": "bool"
						}
					],
					"name": "ApprovalForAll",
					"type": "event"
				},
				{
					"anonymous": false,
					"inputs": [
						{
							"indexed": true,
							"internalType": "address",
							"name": "previousOwner",
							"type": "address"
						},
						{
							"indexed": true,
							"internalType": "address",
							"name": "newOwner",
							"type": "address"
						}
					],
					"name": "OwnershipTransferred",
					"type": "event"
				},
				{
					"anonymous": false,
					"inputs": [
						{
							"indexed": true,
							"internalType": "address",
							"name": "operator",
							"type": "address"
						},
						{
							"indexed": true,
							"internalType": "address",
							"name": "from",
							"type": "address"
						},
						{
							"indexed": true,
							"internalType": "address",
							"name": "to",
							"type": "address"
						},
						{
							"indexed": false,
							"internalType": "uint256[]",
							"name": "ids",
							"type": "uint256[]"
						},
						{
							"indexed": false,
							"internalType": "uint256[]",
							"name": "values",
							"type": "uint256[]"
						}
					],
					"name": "TransferBatch",
					"type": "event"
				},
				{
					"anonymous": false,
					"inputs": [
						{
							"indexed": true,
							"internalType": "address",
							"name": "operator",
							"type": "address"
						},
						{
							"indexed": true,
							"internalType": "address",
							"name": "from",
							"type": "address"
						},
						{
							"indexed": true,
							"internalType": "address",
							"name": "to",
							"type": "address"
						},
						{
							"indexed": false,
							"internalType": "uint256",
							"name": "id",
							"type": "uint256"
						},
						{
							"indexed": false,
							"internalType": "uint256",
							"name": "value",
							"type": "uint256"
						}
					],
					"name": "TransferSingle",
					"type": "event"
				},
				{
					"anonymous": false,
					"inputs": [
						{
							"indexed": false,
							"internalType": "string",
							"name": "value",
							"type": "string"
						},
						{
							"indexed": true,
							"internalType": "uint256",
							"name": "id",
							"type": "uint256"
						}
					],
					"name": "URI",
					"type": "event"
				},
				{
					"inputs": [
						{
							"internalType": "address",
							"name": "account",
							"type": "address"
						},
						{
							"internalType": "uint256",
							"name": "id",
							"type": "uint256"
						}
					],
					"name": "balanceOf",
					"outputs": [
						{
							"internalType": "uint256",
							"name": "",
							"type": "uint256"
						}
					],
					"stateMutability": "view",
					"type": "function"
				},
				{
					"inputs": [
						{
							"internalType": "address[]",
							"name": "accounts",
							"type": "address[]"
						},
						{
							"internalType": "uint256[]",
							"name": "ids",
							"type": "uint256[]"
						}
					],
					"name": "balanceOfBatch",
					"outputs": [
						{
							"internalType": "uint256[]",
							"name": "",
							"type": "uint256[]"
						}
					],
					"stateMutability": "view",
					"type": "function"
				},
				{
					"inputs": [
						{
							"internalType": "address",
							"name": "account",
							"type": "address"
						},
						{
							"internalType": "uint256",
							"name": "id",
							"type": "uint256"
						},
						{
							"internalType": "uint256",
							"name": "value",
							"type": "uint256"
						}
					],
					"name": "burn",
					"outputs": [],
					"stateMutability": "nonpayable",
					"type": "function"
				},
				{
					"inputs": [
						{
							"internalType": "address",
							"name": "account",
							"type": "address"
						},
						{
							"internalType": "uint256[]",
							"name": "ids",
							"type": "uint256[]"
						},
						{
							"internalType": "uint256[]",
							"name": "values",
							"type": "uint256[]"
						}
					],
					"name": "burnBatch",
					"outputs": [],
					"stateMutability": "nonpayable",
					"type": "function"
				},
				{
					"inputs": [
						{
							"internalType": "address",
							"name": "account",
							"type": "address"
						},
						{
							"internalType": "address",
							"name": "operator",
							"type": "address"
						}
					],
					"name": "isApprovedForAll",
					"outputs": [
						{
							"internalType": "bool",
							"name": "",
							"type": "bool"
						}
					],
					"stateMutability": "view",
					"type": "function"
				},
				{
					"inputs": [
						{
							"internalType": "address",
							"name": "account",
							"type": "address"
						},
						{
							"internalType": "uint256",
							"name": "id",
							"type": "uint256"
						},
						{
							"internalType": "uint256",
							"name": "amount",
							"type": "uint256"
						},
						{
							"internalType": "bytes",
							"name": "data",
							"type": "bytes"
						}
					],
					"name": "mint",
					"outputs": [],
					"stateMutability": "nonpayable",
					"type": "function"
				},
				{
					"inputs": [
						{
							"internalType": "address",
							"name": "to",
							"type": "address"
						},
						{
							"internalType": "uint256[]",
							"name": "ids",
							"type": "uint256[]"
						},
						{
							"internalType": "uint256[]",
							"name": "amounts",
							"type": "uint256[]"
						},
						{
							"internalType": "bytes",
							"name": "data",
							"type": "bytes"
						}
					],
					"name": "mintBatch",
					"outputs": [],
					"stateMutability": "nonpayable",
					"type": "function"
				},
				{
					"inputs": [],
					"name": "owner",
					"outputs": [
						{
							"internalType": "address",
							"name": "",
							"type": "address"
						}
					],
					"stateMutability": "view",
					"type": "function"
				},
				{
					"inputs": [],
					"name": "renounceOwnership",
					"outputs": [],
					"stateMutability": "nonpayable",
					"type": "function"
				},
				{
					"inputs": [
						{
							"internalType": "address",
							"name": "from",
							"type": "address"
						},
						{
							"internalType": "address",
							"name": "to",
							"type": "address"
						},
						{
							"internalType": "uint256[]",
							"name": "ids",
							"type": "uint256[]"
						},
						{
							"internalType": "uint256[]",
							"name": "values",
							"type": "uint256[]"
						},
						{
							"internalType": "bytes",
							"name": "data",
							"type": "bytes"
						}
					],
					"name": "safeBatchTransferFrom",
					"outputs": [],
					"stateMutability": "nonpayable",
					"type": "function"
				},
				{
					"inputs": [
						{
							"internalType": "address",
							"name": "from",
							"type": "address"
						},
						{
							"internalType": "address",
							"name": "to",
							"type": "address"
						},
						{
							"internalType": "uint256",
							"name": "id",
							"type": "uint256"
						},
						{
							"internalType": "uint256",
							"name": "value",
							"type": "uint256"
						},
						{
							"internalType": "bytes",
							"name": "data",
							"type": "bytes"
						}
					],
					"name": "safeTransferFrom",
					"outputs": [],
					"stateMutability": "nonpayable",
					"type": "function"
				},
				{
					"inputs": [
						{
							"internalType": "address",
							"name": "operator",
							"type": "address"
						},
						{
							"internalType": "bool",
							"name": "approved",
							"type": "bool"
						}
					],
					"name": "setApprovalForAll",
					"outputs": [],
					"stateMutability": "nonpayable",
					"type": "function"
				},
				{
					"inputs": [
						{
							"internalType": "string",
							"name": "newuri",
							"type": "string"
						}
					],
					"name": "setURI",
					"outputs": [],
					"stateMutability": "nonpayable",
					"type": "function"
				},
				{
					"inputs": [
						{
							"internalType": "bytes4",
							"name": "interfaceId",
							"type": "bytes4"
						}
					],
					"name": "supportsInterface",
					"outputs": [
						{
							"internalType": "bool",
							"name": "",
							"type": "bool"
						}
					],
					"stateMutability": "view",
					"type": "function"
				},
				{
					"inputs": [
						{
							"internalType": "address",
							"name": "newOwner",
							"type": "address"
						}
					],
					"name": "transferOwnership",
					"outputs": [],
					"stateMutability": "nonpayable",
					"type": "function"
				},
				{
					"inputs": [
						{
							"internalType": "uint256",
							"name": "",
							"type": "uint256"
						}
					],
					"name": "uri",
					"outputs": [
						{
							"internalType": "string",
							"name": "",
							"type": "string"
						}
					],
					"stateMutability": "view",
					"type": "function"
				}
			],
			"devdoc": {
				"errors": {
					"ERC1155InsufficientBalance(address,uint256,uint256,uint256)": [
						{
							"details": "Indicates an error related to the current `balance` of a `sender`. Used in transfers.",
							"params": {
								"balance": "Current balance for the interacting account.",
								"needed": "Minimum amount required to perform a transfer.",
								"sender": "Address whose tokens are being transferred.",
								"tokenId": "Identifier number of a token."
							}
						}
					],
					"ERC1155InvalidApprover(address)": [
						{
							"details": "Indicates a failure with the `approver` of a token to be approved. Used in approvals.",
							"params": {
								"approver": "Address initiating an approval operation."
							}
						}
					],
					"ERC1155InvalidArrayLength(uint256,uint256)": [
						{
							"details": "Indicates an array length mismatch between ids and values in a safeBatchTransferFrom operation. Used in batch transfers.",
							"params": {
								"idsLength": "Length of the array of token identifiers",
								"valuesLength": "Length of the array of token amounts"
							}
						}
					],
					"ERC1155InvalidOperator(address)": [
						{
							"details": "Indicates a failure with the `operator` to be approved. Used in approvals.",
							"params": {
								"operator": "Address that may be allowed to operate on tokens without being their owner."
							}
						}
					],
					"ERC1155InvalidReceiver(address)": [
						{
							"details": "Indicates a failure with the token `receiver`. Used in transfers.",
							"params": {
								"receiver": "Address to which tokens are being transferred."
							}
						}
					],
					"ERC1155InvalidSender(address)": [
						{
							"details": "Indicates a failure with the token `sender`. Used in transfers.",
							"params": {
								"sender": "Address whose tokens are being transferred."
							}
						}
					],
					"ERC1155MissingApprovalForAll(address,address)": [
						{
							"details": "Indicates a failure with the `operator`’s approval. Used in transfers.",
							"params": {
								"operator": "Address that may be allowed to operate on tokens without being their owner.",
								"owner": "Address of the current owner of a token."
							}
						}
					],
					"OwnableInvalidOwner(address)": [
						{
							"details": "The owner is not a valid owner account. (eg. `address(0)`)"
						}
					],
					"OwnableUnauthorizedAccount(address)": [
						{
							"details": "The caller account is not authorized to perform an operation."
						}
					]
				},
				"events": {
					"ApprovalForAll(address,address,bool)": {
						"details": "Emitted when `account` grants or revokes permission to `operator` to transfer their tokens, according to `approved`."
					},
					"TransferBatch(address,address,address,uint256[],uint256[])": {
						"details": "Equivalent to multiple {TransferSingle} events, where `operator`, `from` and `to` are the same for all transfers."
					},
					"TransferSingle(address,address,address,uint256,uint256)": {
						"details": "Emitted when `value` amount of tokens of type `id` are transferred from `from` to `to` by `operator`."
					},
					"URI(string,uint256)": {
						"details": "Emitted when the URI for token type `id` changes to `value`, if it is a non-programmatic URI. If an {URI} event was emitted for `id`, the standard https://eips.ethereum.org/EIPS/eip-1155#metadata-extensions[guarantees] that `value` will equal the value returned by {IERC1155MetadataURI-uri}."
					}
				},
				"kind": "dev",
				"methods": {
					"balanceOf(address,uint256)": {
						"details": "See {IERC1155-balanceOf}."
					},
					"balanceOfBatch(address[],uint256[])": {
						"details": "See {IERC1155-balanceOfBatch}. Requirements: - `accounts` and `ids` must have the same length."
					},
					"isApprovedForAll(address,address)": {
						"details": "See {IERC1155-isApprovedForAll}."
					},
					"owner()": {
						"details": "Returns the address of the current owner."
					},
					"renounceOwnership()": {
						"details": "Leaves the contract without owner. It will not be possible to call `onlyOwner` functions. Can only be called by the current owner. NOTE: Renouncing ownership will leave the contract without an owner, thereby disabling any functionality that is only available to the owner."
					},
					"safeBatchTransferFrom(address,address,uint256[],uint256[],bytes)": {
						"details": "See {IERC1155-safeBatchTransferFrom}."
					},
					"safeTransferFrom(address,address,uint256,uint256,bytes)": {
						"details": "See {IERC1155-safeTransferFrom}."
					},
					"setApprovalForAll(address,bool)": {
						"details": "See {IERC1155-setApprovalForAll}."
					},
					"supportsInterface(bytes4)": {
						"details": "See {IERC165-supportsInterface}."
					},
					"transferOwnership(address)": {
						"details": "Transfers ownership of the contract to a new account (`newOwner`). Can only be called by the current owner."
					},
					"uri(uint256)": {
						"details": "See {IERC1155MetadataURI-uri}. This implementation returns the same URI for *all* token types. It relies on the token type ID substitution mechanism https://eips.ethereum.org/EIPS/eip-1155#metadata[defined in the EIP]. Clients calling this function must replace the `\\{id\\}` substring with the actual token type ID."
					}
				},
				"version": 1
			},
			"evm": {
				"assembly": "    /* \"up_burn.sol\":258:1050  contract Myercnew is ERC1155, Ownable, ERC1155Burnable {... */\n  mstore(0x40, 0x80)\n    /* \"up_burn.sol\":320:574  constructor(address initialOwner)... */\n  callvalue\n  dup1\n  iszero\n  tag_1\n  jumpi\n  0x00\n  dup1\n  revert\ntag_1:\n  pop\n  mload(0x40)\n  sub(codesize, bytecodeSize)\n  dup1\n  bytecodeSize\n  dup4\n  codecopy\n  dup2\n  dup2\n  add\n  0x40\n  mstore\n  dup2\n  add\n  swap1\n  tag_2\n  swap2\n  swap1\n  tag_3\n  jump\t// in\ntag_2:\n    /* \"up_burn.sol\":553:565  initialOwner */\n  dup1\n    /* \"@openzeppelin/contracts/token/ERC1155/ERC1155.sol\":1251:1313  constructor(string memory uri_) {... */\n  mload(0x40)\n  dup1\n  0xe0\n  add\n  0x40\n  mstore\n  dup1\n  0xa1\n  dup2\n  mstore\n  0x20\n  add\n  data_5b343c25738ee73470b1591846a182ac9b0d53f1a62f894d7795f0ed9a2d1d7c\n  0xa1\n  swap2\n  codecopy\n    /* \"@openzeppelin/contracts/token/ERC1155/ERC1155.sol\":1293:1306  _setURI(uri_) */\n  tag_8\n    /* \"@openzeppelin/contracts/token/ERC1155/ERC1155.sol\":1301:1305  uri_ */\n  dup2\n    /* \"@openzeppelin/contracts/token/ERC1155/ERC1155.sol\":1293:1300  _setURI */\n  shl(0x20, tag_9)\n    /* \"@openzeppelin/contracts/token/ERC1155/ERC1155.sol\":1293:1306  _setURI(uri_) */\n  0x20\n  shr\n  jump\t// in\ntag_8:\n    /* \"@openzeppelin/contracts/token/ERC1155/ERC1155.sol\":1251:1313  constructor(string memory uri_) {... */\n  pop\n    /* \"@openzeppelin/contracts/access/Ownable.sol\":1297:1298  0 */\n  0x00\n    /* \"@openzeppelin/contracts/access/Ownable.sol\":1273:1299  initialOwner == address(0) */\n  0xffffffffffffffffffffffffffffffffffffffff\n  and\n    /* \"@openzeppelin/contracts/access/Ownable.sol\":1273:1285  initialOwner */\n  dup2\n    /* \"@openzeppelin/contracts/access/Ownable.sol\":1273:1299  initialOwner == address(0) */\n  0xffffffffffffffffffffffffffffffffffffffff\n  and\n  sub\n    /* \"@openzeppelin/contracts/access/Ownable.sol\":1269:1364  if (initialOwner == address(0)) {... */\n  tag_11\n  jumpi\n    /* \"@openzeppelin/contracts/access/Ownable.sol\":1350:1351  0 */\n  0x00\n    /* \"@openzeppelin/contracts/access/Ownable.sol\":1322:1353  OwnableInvalidOwner(address(0)) */\n  mload(0x40)\n  0x1e4fbdf700000000000000000000000000000000000000000000000000000000\n  dup2\n  mstore\n  0x04\n  add\n  tag_12\n  swap2\n  swap1\n  tag_13\n  jump\t// in\ntag_12:\n  mload(0x40)\n  dup1\n  swap2\n  sub\n  swap1\n  revert\n    /* \"@openzeppelin/contracts/access/Ownable.sol\":1269:1364  if (initialOwner == address(0)) {... */\ntag_11:\n    /* \"@openzeppelin/contracts/access/Ownable.sol\":1373:1405  _transferOwnership(initialOwner) */\n  tag_14\n    /* \"@openzeppelin/contracts/access/Ownable.sol\":1392:1404  initialOwner */\n  dup2\n    /* \"@openzeppelin/contracts/access/Ownable.sol\":1373:1391  _transferOwnership */\n  shl(0x20, tag_15)\n    /* \"@openzeppelin/contracts/access/Ownable.sol\":1373:1405  _transferOwnership(initialOwner) */\n  0x20\n  shr\n  jump\t// in\ntag_14:\n    /* \"@openzeppelin/contracts/access/Ownable.sol\":1225:1412  constructor(address initialOwner) {... */\n  pop\n    /* \"up_burn.sol\":320:574  constructor(address initialOwner)... */\n  pop\n    /* \"up_burn.sol\":258:1050  contract Myercnew is ERC1155, Ownable, ERC1155Burnable {... */\n  jump(tag_17)\n    /* \"@openzeppelin/contracts/token/ERC1155/ERC1155.sol\":10282:10368  function _setURI(string memory newuri) internal virtual {... */\ntag_9:\n    /* \"@openzeppelin/contracts/token/ERC1155/ERC1155.sol\":10355:10361  newuri */\n  dup1\n    /* \"@openzeppelin/contracts/token/ERC1155/ERC1155.sol\":10348:10352  _uri */\n  0x02\n    /* \"@openzeppelin/contracts/token/ERC1155/ERC1155.sol\":10348:10361  _uri = newuri */\n  swap1\n  dup2\n  tag_19\n  swap2\n  swap1\n  tag_20\n  jump\t// in\ntag_19:\n  pop\n    /* \"@openzeppelin/contracts/token/ERC1155/ERC1155.sol\":10282:10368  function _setURI(string memory newuri) internal virtual {... */\n  pop\n  jump\t// out\n    /* \"@openzeppelin/contracts/access/Ownable.sol\":2912:3099  function _transferOwnership(address newOwner) internal virtual {... */\ntag_15:\n    /* \"@openzeppelin/contracts/access/Ownable.sol\":2985:3001  address oldOwner */\n  0x00\n    /* \"@openzeppelin/contracts/access/Ownable.sol\":3004:3010  _owner */\n  0x03\n  0x00\n  swap1\n  sload\n  swap1\n  0x0100\n  exp\n  swap1\n  div\n  0xffffffffffffffffffffffffffffffffffffffff\n  and\n    /* \"@openzeppelin/contracts/access/Ownable.sol\":2985:3010  address oldOwner = _owner */\n  swap1\n  pop\n    /* \"@openzeppelin/contracts/access/Ownable.sol\":3029:3037  newOwner */\n  dup2\n    /* \"@openzeppelin/contracts/access/Ownable.sol\":3020:3026  _owner */\n  0x03\n  0x00\n    /* \"@openzeppelin/contracts/access/Ownable.sol\":3020:3037  _owner = newOwner */\n  0x0100\n  exp\n  dup2\n  sload\n  dup2\n  0xffffffffffffffffffffffffffffffffffffffff\n  mul\n  not\n  and\n  swap1\n  dup4\n  0xffffffffffffffffffffffffffffffffffffffff\n  and\n  mul\n  or\n  swap1\n  sstore\n  pop\n    /* \"@openzeppelin/contracts/access/Ownable.sol\":3083:3091  newOwner */\n  dup2\n    /* \"@openzeppelin/contracts/access/Ownable.sol\":3052:3092  OwnershipTransferred(oldOwner, newOwner) */\n  0xffffffffffffffffffffffffffffffffffffffff\n  and\n    /* \"@openzeppelin/contracts/access/Ownable.sol\":3073:3081  oldOwner */\n  dup2\n    /* \"@openzeppelin/contracts/access/Ownable.sol\":3052:3092  OwnershipTransferred(oldOwner, newOwner) */\n  0xffffffffffffffffffffffffffffffffffffffff\n  and\n  0x8be0079c531659141344cd1fd0a4f28419497f9722a3daafe3b4186f6b6457e0\n  mload(0x40)\n  mload(0x40)\n  dup1\n  swap2\n  sub\n  swap1\n  log3\n    /* \"@openzeppelin/contracts/access/Ownable.sol\":2975:3099  {... */\n  pop\n    /* \"@openzeppelin/contracts/access/Ownable.sol\":2912:3099  function _transferOwnership(address newOwner) internal virtual {... */\n  pop\n  jump\t// out\n    /* \"#utility.yul\":88:205   */\ntag_23:\n    /* \"#utility.yul\":197:198   */\n  0x00\n    /* \"#utility.yul\":194:195   */\n  dup1\n    /* \"#utility.yul\":187:199   */\n  revert\n    /* \"#utility.yul\":334:460   */\ntag_25:\n    /* \"#utility.yul\":371:378   */\n  0x00\n    /* \"#utility.yul\":411:453   */\n  0xffffffffffffffffffffffffffffffffffffffff\n    /* \"#utility.yul\":404:409   */\n  dup3\n    /* \"#utility.yul\":400:454   */\n  and\n    /* \"#utility.yul\":389:454   */\n  swap1\n  pop\n    /* \"#utility.yul\":334:460   */\n  swap2\n  swap1\n  pop\n  jump\t// out\n    /* \"#utility.yul\":466:562   */\ntag_26:\n    /* \"#utility.yul\":503:510   */\n  0x00\n    /* \"#utility.yul\":532:556   */\n  tag_56\n    /* \"#utility.yul\":550:555   */\n  dup3\n    /* \"#utility.yul\":532:556   */\n  tag_25\n  jump\t// in\ntag_56:\n    /* \"#utility.yul\":521:556   */\n  swap1\n  pop\n    /* \"#utility.yul\":466:562   */\n  swap2\n  swap1\n  pop\n  jump\t// out\n    /* \"#utility.yul\":568:690   */\ntag_27:\n    /* \"#utility.yul\":641:665   */\n  tag_58\n    /* \"#utility.yul\":659:664   */\n  dup2\n    /* \"#utility.yul\":641:665   */\n  tag_26\n  jump\t// in\ntag_58:\n    /* \"#utility.yul\":634:639   */\n  dup2\n    /* \"#utility.yul\":631:666   */\n  eq\n    /* \"#utility.yul\":621:684   */\n  tag_59\n  jumpi\n    /* \"#utility.yul\":680:681   */\n  0x00\n    /* \"#utility.yul\":677:678   */\n  dup1\n    /* \"#utility.yul\":670:682   */\n  revert\n    /* \"#utility.yul\":621:684   */\ntag_59:\n    /* \"#utility.yul\":568:690   */\n  pop\n  jump\t// out\n    /* \"#utility.yul\":696:839   */\ntag_28:\n    /* \"#utility.yul\":753:758   */\n  0x00\n    /* \"#utility.yul\":784:790   */\n  dup2\n    /* \"#utility.yul\":778:791   */\n  mload\n    /* \"#utility.yul\":769:791   */\n  swap1\n  pop\n    /* \"#utility.yul\":800:833   */\n  tag_61\n    /* \"#utility.yul\":827:832   */\n  dup2\n    /* \"#utility.yul\":800:833   */\n  tag_27\n  jump\t// in\ntag_61:\n    /* \"#utility.yul\":696:839   */\n  swap3\n  swap2\n  pop\n  pop\n  jump\t// out\n    /* \"#utility.yul\":845:1196   */\ntag_3:\n    /* \"#utility.yul\":915:921   */\n  0x00\n    /* \"#utility.yul\":964:966   */\n  0x20\n    /* \"#utility.yul\":952:961   */\n  dup3\n    /* \"#utility.yul\":943:950   */\n  dup5\n    /* \"#utility.yul\":939:962   */\n  sub\n    /* \"#utility.yul\":935:967   */\n  slt\n    /* \"#utility.yul\":932:1051   */\n  iszero\n  tag_63\n  jumpi\n    /* \"#utility.yul\":970:1049   */\n  tag_64\n  tag_23\n  jump\t// in\ntag_64:\n    /* \"#utility.yul\":932:1051   */\ntag_63:\n    /* \"#utility.yul\":1090:1091   */\n  0x00\n    /* \"#utility.yul\":1115:1179   */\n  tag_65\n    /* \"#utility.yul\":1171:1178   */\n  dup5\n    /* \"#utility.yul\":1162:1168   */\n  dup3\n    /* \"#utility.yul\":1151:1160   */\n  dup6\n    /* \"#utility.yul\":1147:1169   */\n  add\n    /* \"#utility.yul\":1115:1179   */\n  tag_28\n  jump\t// in\ntag_65:\n    /* \"#utility.yul\":1105:1179   */\n  swap2\n  pop\n    /* \"#utility.yul\":1061:1189   */\n  pop\n    /* \"#utility.yul\":845:1196   */\n  swap3\n  swap2\n  pop\n  pop\n  jump\t// out\n    /* \"#utility.yul\":1202:1320   */\ntag_29:\n    /* \"#utility.yul\":1289:1313   */\n  tag_67\n    /* \"#utility.yul\":1307:1312   */\n  dup2\n    /* \"#utility.yul\":1289:1313   */\n  tag_26\n  jump\t// in\ntag_67:\n    /* \"#utility.yul\":1284:1287   */\n  dup3\n    /* \"#utility.yul\":1277:1314   */\n  mstore\n    /* \"#utility.yul\":1202:1320   */\n  pop\n  pop\n  jump\t// out\n    /* \"#utility.yul\":1326:1548   */\ntag_13:\n    /* \"#utility.yul\":1419:1423   */\n  0x00\n    /* \"#utility.yul\":1457:1459   */\n  0x20\n    /* \"#utility.yul\":1446:1455   */\n  dup3\n    /* \"#utility.yul\":1442:1460   */\n  add\n    /* \"#utility.yul\":1434:1460   */\n  swap1\n  pop\n    /* \"#utility.yul\":1470:1541   */\n  tag_69\n    /* \"#utility.yul\":1538:1539   */\n  0x00\n    /* \"#utility.yul\":1527:1536   */\n  dup4\n    /* \"#utility.yul\":1523:1540   */\n  add\n    /* \"#utility.yul\":1514:1520   */\n  dup5\n    /* \"#utility.yul\":1470:1541   */\n  tag_29\n  jump\t// in\ntag_69:\n    /* \"#utility.yul\":1326:1548   */\n  swap3\n  swap2\n  pop\n  pop\n  jump\t// out\n    /* \"#utility.yul\":1554:1653   */\ntag_30:\n    /* \"#utility.yul\":1606:1612   */\n  0x00\n    /* \"#utility.yul\":1640:1645   */\n  dup2\n    /* \"#utility.yul\":1634:1646   */\n  mload\n    /* \"#utility.yul\":1624:1646   */\n  swap1\n  pop\n    /* \"#utility.yul\":1554:1653   */\n  swap2\n  swap1\n  pop\n  jump\t// out\n    /* \"#utility.yul\":1659:1839   */\ntag_31:\n    /* \"#utility.yul\":1707:1784   */\n  0x4e487b7100000000000000000000000000000000000000000000000000000000\n    /* \"#utility.yul\":1704:1705   */\n  0x00\n    /* \"#utility.yul\":1697:1785   */\n  mstore\n    /* \"#utility.yul\":1804:1808   */\n  0x41\n    /* \"#utility.yul\":1801:1802   */\n  0x04\n    /* \"#utility.yul\":1794:1809   */\n  mstore\n    /* \"#utility.yul\":1828:1832   */\n  0x24\n    /* \"#utility.yul\":1825:1826   */\n  0x00\n    /* \"#utility.yul\":1818:1833   */\n  revert\n    /* \"#utility.yul\":1845:2025   */\ntag_32:\n    /* \"#utility.yul\":1893:1970   */\n  0x4e487b7100000000000000000000000000000000000000000000000000000000\n    /* \"#utility.yul\":1890:1891   */\n  0x00\n    /* \"#utility.yul\":1883:1971   */\n  mstore\n    /* \"#utility.yul\":1990:1994   */\n  0x22\n    /* \"#utility.yul\":1987:1988   */\n  0x04\n    /* \"#utility.yul\":1980:1995   */\n  mstore\n    /* \"#utility.yul\":2014:2018   */\n  0x24\n    /* \"#utility.yul\":2011:2012   */\n  0x00\n    /* \"#utility.yul\":2004:2019   */\n  revert\n    /* \"#utility.yul\":2031:2351   */\ntag_33:\n    /* \"#utility.yul\":2075:2081   */\n  0x00\n    /* \"#utility.yul\":2112:2113   */\n  0x02\n    /* \"#utility.yul\":2106:2110   */\n  dup3\n    /* \"#utility.yul\":2102:2114   */\n  div\n    /* \"#utility.yul\":2092:2114   */\n  swap1\n  pop\n    /* \"#utility.yul\":2159:2160   */\n  0x01\n    /* \"#utility.yul\":2153:2157   */\n  dup3\n    /* \"#utility.yul\":2149:2161   */\n  and\n    /* \"#utility.yul\":2180:2198   */\n  dup1\n    /* \"#utility.yul\":2170:2251   */\n  tag_74\n  jumpi\n    /* \"#utility.yul\":2236:2240   */\n  0x7f\n    /* \"#utility.yul\":2228:2234   */\n  dup3\n    /* \"#utility.yul\":2224:2241   */\n  and\n    /* \"#utility.yul\":2214:2241   */\n  swap2\n  pop\n    /* \"#utility.yul\":2170:2251   */\ntag_74:\n    /* \"#utility.yul\":2298:2300   */\n  0x20\n    /* \"#utility.yul\":2290:2296   */\n  dup3\n    /* \"#utility.yul\":2287:2301   */\n  lt\n    /* \"#utility.yul\":2267:2285   */\n  dup2\n    /* \"#utility.yul\":2264:2302   */\n  sub\n    /* \"#utility.yul\":2261:2345   */\n  tag_75\n  jumpi\n    /* \"#utility.yul\":2317:2335   */\n  tag_76\n  tag_32\n  jump\t// in\ntag_76:\n    /* \"#utility.yul\":2261:2345   */\ntag_75:\n    /* \"#utility.yul\":2082:2351   */\n  pop\n    /* \"#utility.yul\":2031:2351   */\n  swap2\n  swap1\n  pop\n  jump\t// out\n    /* \"#utility.yul\":2357:2498   */\ntag_34:\n    /* \"#utility.yul\":2406:2410   */\n  0x00\n    /* \"#utility.yul\":2429:2432   */\n  dup2\n    /* \"#utility.yul\":2421:2432   */\n  swap1\n  pop\n    /* \"#utility.yul\":2452:2455   */\n  dup2\n    /* \"#utility.yul\":2449:2450   */\n  0x00\n    /* \"#utility.yul\":2442:2456   */\n  mstore\n    /* \"#utility.yul\":2486:2490   */\n  0x20\n    /* \"#utility.yul\":2483:2484   */\n  0x00\n    /* \"#utility.yul\":2473:2491   */\n  keccak256\n    /* \"#utility.yul\":2465:2491   */\n  swap1\n  pop\n    /* \"#utility.yul\":2357:2498   */\n  swap2\n  swap1\n  pop\n  jump\t// out\n    /* \"#utility.yul\":2504:2597   */\ntag_35:\n    /* \"#utility.yul\":2541:2547   */\n  0x00\n    /* \"#utility.yul\":2588:2590   */\n  0x20\n    /* \"#utility.yul\":2583:2585   */\n  0x1f\n    /* \"#utility.yul\":2576:2581   */\n  dup4\n    /* \"#utility.yul\":2572:2586   */\n  add\n    /* \"#utility.yul\":2568:2591   */\n  div\n    /* \"#utility.yul\":2558:2591   */\n  swap1\n  pop\n    /* \"#utility.yul\":2504:2597   */\n  swap2\n  swap1\n  pop\n  jump\t// out\n    /* \"#utility.yul\":2603:2710   */\ntag_36:\n    /* \"#utility.yul\":2647:2655   */\n  0x00\n    /* \"#utility.yul\":2697:2702   */\n  dup3\n    /* \"#utility.yul\":2691:2695   */\n  dup3\n    /* \"#utility.yul\":2687:2703   */\n  shl\n    /* \"#utility.yul\":2666:2703   */\n  swap1\n  pop\n    /* \"#utility.yul\":2603:2710   */\n  swap3\n  swap2\n  pop\n  pop\n  jump\t// out\n    /* \"#utility.yul\":2716:3109   */\ntag_37:\n    /* \"#utility.yul\":2785:2791   */\n  0x00\n    /* \"#utility.yul\":2835:2836   */\n  0x08\n    /* \"#utility.yul\":2823:2833   */\n  dup4\n    /* \"#utility.yul\":2819:2837   */\n  mul\n    /* \"#utility.yul\":2858:2955   */\n  tag_81\n    /* \"#utility.yul\":2888:2954   */\n  0xffffffffffffffffffffffffffffffffffffffffffffffffffffffffffffffff\n    /* \"#utility.yul\":2877:2886   */\n  dup3\n    /* \"#utility.yul\":2858:2955   */\n  tag_36\n  jump\t// in\ntag_81:\n    /* \"#utility.yul\":2976:3015   */\n  tag_82\n    /* \"#utility.yul\":3006:3014   */\n  dup7\n    /* \"#utility.yul\":2995:3004   */\n  dup4\n    /* \"#utility.yul\":2976:3015   */\n  tag_36\n  jump\t// in\ntag_82:\n    /* \"#utility.yul\":2964:3015   */\n  swap6\n  pop\n    /* \"#utility.yul\":3048:3052   */\n  dup1\n    /* \"#utility.yul\":3044:3053   */\n  not\n    /* \"#utility.yul\":3037:3042   */\n  dup5\n    /* \"#utility.yul\":3033:3054   */\n  and\n    /* \"#utility.yul\":3024:3054   */\n  swap4\n  pop\n    /* \"#utility.yul\":3097:3101   */\n  dup1\n    /* \"#utility.yul\":3087:3095   */\n  dup7\n    /* \"#utility.yul\":3083:3102   */\n  and\n    /* \"#utility.yul\":3076:3081   */\n  dup5\n    /* \"#utility.yul\":3073:3103   */\n  or\n    /* \"#utility.yul\":3063:3103   */\n  swap3\n  pop\n    /* \"#utility.yul\":2792:3109   */\n  pop\n  pop\n    /* \"#utility.yul\":2716:3109   */\n  swap4\n  swap3\n  pop\n  pop\n  pop\n  jump\t// out\n    /* \"#utility.yul\":3115:3192   */\ntag_38:\n    /* \"#utility.yul\":3152:3159   */\n  0x00\n    /* \"#utility.yul\":3181:3186   */\n  dup2\n    /* \"#utility.yul\":3170:3186   */\n  swap1\n  pop\n    /* \"#utility.yul\":3115:3192   */\n  swap2\n  swap1\n  pop\n  jump\t// out\n    /* \"#utility.yul\":3198:3258   */\ntag_39:\n    /* \"#utility.yul\":3226:3229   */\n  0x00\n    /* \"#utility.yul\":3247:3252   */\n  dup2\n    /* \"#utility.yul\":3240:3252   */\n  swap1\n  pop\n    /* \"#utility.yul\":3198:3258   */\n  swap2\n  swap1\n  pop\n  jump\t// out\n    /* \"#utility.yul\":3264:3406   */\ntag_40:\n    /* \"#utility.yul\":3314:3323   */\n  0x00\n    /* \"#utility.yul\":3347:3400   */\n  tag_86\n    /* \"#utility.yul\":3365:3399   */\n  tag_87\n    /* \"#utility.yul\":3374:3398   */\n  tag_88\n    /* \"#utility.yul\":3392:3397   */\n  dup5\n    /* \"#utility.yul\":3374:3398   */\n  tag_38\n  jump\t// in\ntag_88:\n    /* \"#utility.yul\":3365:3399   */\n  tag_39\n  jump\t// in\ntag_87:\n    /* \"#utility.yul\":3347:3400   */\n  tag_38\n  jump\t// in\ntag_86:\n    /* \"#utility.yul\":3334:3400   */\n  swap1\n  pop\n    /* \"#utility.yul\":3264:3406   */\n  swap2\n  swap1\n  pop\n  jump\t// out\n    /* \"#utility.yul\":3412:3487   */\ntag_41:\n    /* \"#utility.yul\":3455:3458   */\n  0x00\n    /* \"#utility.yul\":3476:3481   */\n  dup2\n    /* \"#utility.yul\":3469:3481   */\n  swap1\n  pop\n    /* \"#utility.yul\":3412:3487   */\n  swap2\n  swap1\n  pop\n  jump\t// out\n    /* \"#utility.yul\":3493:3762   */\ntag_42:\n    /* \"#utility.yul\":3603:3642   */\n  tag_91\n    /* \"#utility.yul\":3634:3641   */\n  dup4\n    /* \"#utility.yul\":3603:3642   */\n  tag_40\n  jump\t// in\ntag_91:\n    /* \"#utility.yul\":3664:3755   */\n  tag_92\n    /* \"#utility.yul\":3713:3754   */\n  tag_93\n    /* \"#utility.yul\":3737:3753   */\n  dup3\n    /* \"#utility.yul\":3713:3754   */\n  tag_41\n  jump\t// in\ntag_93:\n    /* \"#utility.yul\":3705:3711   */\n  dup5\n    /* \"#utility.yul\":3698:3702   */\n  dup5\n    /* \"#utility.yul\":3692:3703   */\n  sload\n    /* \"#utility.yul\":3664:3755   */\n  tag_37\n  jump\t// in\ntag_92:\n    /* \"#utility.yul\":3658:3662   */\n  dup3\n    /* \"#utility.yul\":3651:3756   */\n  sstore\n    /* \"#utility.yul\":3569:3762   */\n  pop\n    /* \"#utility.yul\":3493:3762   */\n  pop\n  pop\n  pop\n  jump\t// out\n    /* \"#utility.yul\":3768:3841   */\ntag_43:\n    /* \"#utility.yul\":3813:3816   */\n  0x00\n    /* \"#utility.yul\":3768:3841   */\n  swap1\n  jump\t// out\n    /* \"#utility.yul\":3847:4036   */\ntag_44:\n    /* \"#utility.yul\":3924:3956   */\n  tag_96\n  tag_43\n  jump\t// in\ntag_96:\n    /* \"#utility.yul\":3965:4030   */\n  tag_97\n    /* \"#utility.yul\":4023:4029   */\n  dup2\n    /* \"#utility.yul\":4015:4021   */\n  dup5\n    /* \"#utility.yul\":4009:4013   */\n  dup5\n    /* \"#utility.yul\":3965:4030   */\n  tag_42\n  jump\t// in\ntag_97:\n    /* \"#utility.yul\":3900:4036   */\n  pop\n    /* \"#utility.yul\":3847:4036   */\n  pop\n  pop\n  jump\t// out\n    /* \"#utility.yul\":4042:4228   */\ntag_45:\n    /* \"#utility.yul\":4102:4222   */\ntag_99:\n    /* \"#utility.yul\":4119:4122   */\n  dup2\n    /* \"#utility.yul\":4112:4117   */\n  dup2\n    /* \"#utility.yul\":4109:4123   */\n  lt\n    /* \"#utility.yul\":4102:4222   */\n  iszero\n  tag_101\n  jumpi\n    /* \"#utility.yul\":4173:4212   */\n  tag_102\n    /* \"#utility.yul\":4210:4211   */\n  0x00\n    /* \"#utility.yul\":4203:4208   */\n  dup3\n    /* \"#utility.yul\":4173:4212   */\n  tag_44\n  jump\t// in\ntag_102:\n    /* \"#utility.yul\":4146:4147   */\n  0x01\n    /* \"#utility.yul\":4139:4144   */\n  dup2\n    /* \"#utility.yul\":4135:4148   */\n  add\n    /* \"#utility.yul\":4126:4148   */\n  swap1\n  pop\n    /* \"#utility.yul\":4102:4222   */\n  jump(tag_99)\ntag_101:\n    /* \"#utility.yul\":4042:4228   */\n  pop\n  pop\n  jump\t// out\n    /* \"#utility.yul\":4234:4777   */\ntag_46:\n    /* \"#utility.yul\":4335:4337   */\n  0x1f\n    /* \"#utility.yul\":4330:4333   */\n  dup3\n    /* \"#utility.yul\":4327:4338   */\n  gt\n    /* \"#utility.yul\":4324:4770   */\n  iszero\n  tag_104\n  jumpi\n    /* \"#utility.yul\":4369:4407   */\n  tag_105\n    /* \"#utility.yul\":4401:4406   */\n  dup2\n    /* \"#utility.yul\":4369:4407   */\n  tag_34\n  jump\t// in\ntag_105:\n    /* \"#utility.yul\":4453:4482   */\n  tag_106\n    /* \"#utility.yul\":4471:4481   */\n  dup5\n    /* \"#utility.yul\":4453:4482   */\n  tag_35\n  jump\t// in\ntag_106:\n    /* \"#utility.yul\":4443:4451   */\n  dup2\n    /* \"#utility.yul\":4439:4483   */\n  add\n    /* \"#utility.yul\":4636:4638   */\n  0x20\n    /* \"#utility.yul\":4624:4634   */\n  dup6\n    /* \"#utility.yul\":4621:4639   */\n  lt\n    /* \"#utility.yul\":4618:4667   */\n  iszero\n  tag_107\n  jumpi\n    /* \"#utility.yul\":4657:4665   */\n  dup2\n    /* \"#utility.yul\":4642:4665   */\n  swap1\n  pop\n    /* \"#utility.yul\":4618:4667   */\ntag_107:\n    /* \"#utility.yul\":4680:4760   */\n  tag_108\n    /* \"#utility.yul\":4736:4758   */\n  tag_109\n    /* \"#utility.yul\":4754:4757   */\n  dup6\n    /* \"#utility.yul\":4736:4758   */\n  tag_35\n  jump\t// in\ntag_109:\n    /* \"#utility.yul\":4726:4734   */\n  dup4\n    /* \"#utility.yul\":4722:4759   */\n  add\n    /* \"#utility.yul\":4709:4720   */\n  dup3\n    /* \"#utility.yul\":4680:4760   */\n  tag_45\n  jump\t// in\ntag_108:\n    /* \"#utility.yul\":4339:4770   */\n  pop\n  pop\n    /* \"#utility.yul\":4324:4770   */\ntag_104:\n    /* \"#utility.yul\":4234:4777   */\n  pop\n  pop\n  pop\n  jump\t// out\n    /* \"#utility.yul\":4783:4900   */\ntag_47:\n    /* \"#utility.yul\":4837:4845   */\n  0x00\n    /* \"#utility.yul\":4887:4892   */\n  dup3\n    /* \"#utility.yul\":4881:4885   */\n  dup3\n    /* \"#utility.yul\":4877:4893   */\n  shr\n    /* \"#utility.yul\":4856:4893   */\n  swap1\n  pop\n    /* \"#utility.yul\":4783:4900   */\n  swap3\n  swap2\n  pop\n  pop\n  jump\t// out\n    /* \"#utility.yul\":4906:5075   */\ntag_48:\n    /* \"#utility.yul\":4950:4956   */\n  0x00\n    /* \"#utility.yul\":4983:5034   */\n  tag_112\n    /* \"#utility.yul\":5031:5032   */\n  0x00\n    /* \"#utility.yul\":5027:5033   */\n  not\n    /* \"#utility.yul\":5019:5024   */\n  dup5\n    /* \"#utility.yul\":5016:5017   */\n  0x08\n    /* \"#utility.yul\":5012:5025   */\n  mul\n    /* \"#utility.yul\":4983:5034   */\n  tag_47\n  jump\t// in\ntag_112:\n    /* \"#utility.yul\":4979:5035   */\n  not\n    /* \"#utility.yul\":5064:5068   */\n  dup1\n    /* \"#utility.yul\":5058:5062   */\n  dup4\n    /* \"#utility.yul\":5054:5069   */\n  and\n    /* \"#utility.yul\":5044:5069   */\n  swap2\n  pop\n    /* \"#utility.yul\":4957:5075   */\n  pop\n    /* \"#utility.yul\":4906:5075   */\n  swap3\n  swap2\n  pop\n  pop\n  jump\t// out\n    /* \"#utility.yul\":5080:5375   */\ntag_49:\n    /* \"#utility.yul\":5156:5160   */\n  0x00\n    /* \"#utility.yul\":5302:5331   */\n  tag_114\n    /* \"#utility.yul\":5327:5330   */\n  dup4\n    /* \"#utility.yul\":5321:5325   */\n  dup4\n    /* \"#utility.yul\":5302:5331   */\n  tag_48\n  jump\t// in\ntag_114:\n    /* \"#utility.yul\":5294:5331   */\n  swap2\n  pop\n    /* \"#utility.yul\":5364:5367   */\n  dup3\n    /* \"#utility.yul\":5361:5362   */\n  0x02\n    /* \"#utility.yul\":5357:5368   */\n  mul\n    /* \"#utility.yul\":5351:5355   */\n  dup3\n    /* \"#utility.yul\":5348:5369   */\n  or\n    /* \"#utility.yul\":5340:5369   */\n  swap1\n  pop\n    /* \"#utility.yul\":5080:5375   */\n  swap3\n  swap2\n  pop\n  pop\n  jump\t// out\n    /* \"#utility.yul\":5380:6775   */\ntag_20:\n    /* \"#utility.yul\":5497:5534   */\n  tag_116\n    /* \"#utility.yul\":5530:5533   */\n  dup3\n    /* \"#utility.yul\":5497:5534   */\n  tag_30\n  jump\t// in\ntag_116:\n    /* \"#utility.yul\":5599:5617   */\n  0xffffffffffffffff\n    /* \"#utility.yul\":5591:5597   */\n  dup2\n    /* \"#utility.yul\":5588:5618   */\n  gt\n    /* \"#utility.yul\":5585:5641   */\n  iszero\n  tag_117\n  jumpi\n    /* \"#utility.yul\":5621:5639   */\n  tag_118\n  tag_31\n  jump\t// in\ntag_118:\n    /* \"#utility.yul\":5585:5641   */\ntag_117:\n    /* \"#utility.yul\":5665:5703   */\n  tag_119\n    /* \"#utility.yul\":5697:5701   */\n  dup3\n    /* \"#utility.yul\":5691:5702   */\n  sload\n    /* \"#utility.yul\":5665:5703   */\n  tag_33\n  jump\t// in\ntag_119:\n    /* \"#utility.yul\":5750:5817   */\n  tag_120\n    /* \"#utility.yul\":5810:5816   */\n  dup3\n    /* \"#utility.yul\":5802:5808   */\n  dup3\n    /* \"#utility.yul\":5796:5800   */\n  dup6\n    /* \"#utility.yul\":5750:5817   */\n  tag_46\n  jump\t// in\ntag_120:\n    /* \"#utility.yul\":5844:5845   */\n  0x00\n    /* \"#utility.yul\":5868:5872   */\n  0x20\n    /* \"#utility.yul\":5855:5872   */\n  swap1\n  pop\n    /* \"#utility.yul\":5900:5902   */\n  0x1f\n    /* \"#utility.yul\":5892:5898   */\n  dup4\n    /* \"#utility.yul\":5889:5903   */\n  gt\n    /* \"#utility.yul\":5917:5918   */\n  0x01\n    /* \"#utility.yul\":5912:6530   */\n  dup2\n  eq\n  tag_122\n  jumpi\n    /* \"#utility.yul\":6574:6575   */\n  0x00\n    /* \"#utility.yul\":6591:6597   */\n  dup5\n    /* \"#utility.yul\":6588:6665   */\n  iszero\n  tag_123\n  jumpi\n    /* \"#utility.yul\":6640:6649   */\n  dup3\n    /* \"#utility.yul\":6635:6638   */\n  dup8\n    /* \"#utility.yul\":6631:6650   */\n  add\n    /* \"#utility.yul\":6625:6651   */\n  mload\n    /* \"#utility.yul\":6616:6651   */\n  swap1\n  pop\n    /* \"#utility.yul\":6588:6665   */\ntag_123:\n    /* \"#utility.yul\":6691:6758   */\n  tag_124\n    /* \"#utility.yul\":6751:6757   */\n  dup6\n    /* \"#utility.yul\":6744:6749   */\n  dup3\n    /* \"#utility.yul\":6691:6758   */\n  tag_49\n  jump\t// in\ntag_124:\n    /* \"#utility.yul\":6685:6689   */\n  dup7\n    /* \"#utility.yul\":6678:6759   */\n  sstore\n    /* \"#utility.yul\":6547:6769   */\n  pop\n    /* \"#utility.yul\":5882:6769   */\n  jump(tag_121)\n    /* \"#utility.yul\":5912:6530   */\ntag_122:\n    /* \"#utility.yul\":5964:5968   */\n  0x1f\n    /* \"#utility.yul\":5960:5969   */\n  not\n    /* \"#utility.yul\":5952:5958   */\n  dup5\n    /* \"#utility.yul\":5948:5970   */\n  and\n    /* \"#utility.yul\":5998:6035   */\n  tag_125\n    /* \"#utility.yul\":6030:6034   */\n  dup7\n    /* \"#utility.yul\":5998:6035   */\n  tag_34\n  jump\t// in\ntag_125:\n    /* \"#utility.yul\":6057:6058   */\n  0x00\n    /* \"#utility.yul\":6071:6279   */\ntag_126:\n    /* \"#utility.yul\":6085:6092   */\n  dup3\n    /* \"#utility.yul\":6082:6083   */\n  dup2\n    /* \"#utility.yul\":6079:6093   */\n  lt\n    /* \"#utility.yul\":6071:6279   */\n  iszero\n  tag_128\n  jumpi\n    /* \"#utility.yul\":6164:6173   */\n  dup5\n    /* \"#utility.yul\":6159:6162   */\n  dup10\n    /* \"#utility.yul\":6155:6174   */\n  add\n    /* \"#utility.yul\":6149:6175   */\n  mload\n    /* \"#utility.yul\":6141:6147   */\n  dup3\n    /* \"#utility.yul\":6134:6176   */\n  sstore\n    /* \"#utility.yul\":6215:6216   */\n  0x01\n    /* \"#utility.yul\":6207:6213   */\n  dup3\n    /* \"#utility.yul\":6203:6217   */\n  add\n    /* \"#utility.yul\":6193:6217   */\n  swap2\n  pop\n    /* \"#utility.yul\":6262:6264   */\n  0x20\n    /* \"#utility.yul\":6251:6260   */\n  dup6\n    /* \"#utility.yul\":6247:6265   */\n  add\n    /* \"#utility.yul\":6234:6265   */\n  swap5\n  pop\n    /* \"#utility.yul\":6108:6112   */\n  0x20\n    /* \"#utility.yul\":6105:6106   */\n  dup2\n    /* \"#utility.yul\":6101:6113   */\n  add\n    /* \"#utility.yul\":6096:6113   */\n  swap1\n  pop\n    /* \"#utility.yul\":6071:6279   */\n  jump(tag_126)\ntag_128:\n    /* \"#utility.yul\":6307:6313   */\n  dup7\n    /* \"#utility.yul\":6298:6305   */\n  dup4\n    /* \"#utility.yul\":6295:6314   */\n  lt\n    /* \"#utility.yul\":6292:6471   */\n  iszero\n  tag_129\n  jumpi\n    /* \"#utility.yul\":6365:6374   */\n  dup5\n    /* \"#utility.yul\":6360:6363   */\n  dup10\n    /* \"#utility.yul\":6356:6375   */\n  add\n    /* \"#utility.yul\":6350:6376   */\n  mload\n    /* \"#utility.yul\":6408:6456   */\n  tag_130\n    /* \"#utility.yul\":6450:6454   */\n  0x1f\n    /* \"#utility.yul\":6442:6448   */\n  dup10\n    /* \"#utility.yul\":6438:6455   */\n  and\n    /* \"#utility.yul\":6427:6436   */\n  dup3\n    /* \"#utility.yul\":6408:6456   */\n  tag_48\n  jump\t// in\ntag_130:\n    /* \"#utility.yul\":6400:6406   */\n  dup4\n    /* \"#utility.yul\":6393:6457   */\n  sstore\n    /* \"#utility.yul\":6315:6471   */\n  pop\n    /* \"#utility.yul\":6292:6471   */\ntag_129:\n    /* \"#utility.yul\":6517:6518   */\n  0x01\n    /* \"#utility.yul\":6513:6514   */\n  0x02\n    /* \"#utility.yul\":6505:6511   */\n  dup9\n    /* \"#utility.yul\":6501:6515   */\n  mul\n    /* \"#utility.yul\":6497:6519   */\n  add\n    /* \"#utility.yul\":6491:6495   */\n  dup9\n    /* \"#utility.yul\":6484:6520   */\n  sstore\n    /* \"#utility.yul\":5919:6530   */\n  pop\n  pop\n  pop\n    /* \"#utility.yul\":5882:6769   */\ntag_121:\n  pop\n    /* \"#utility.yul\":5472:6775   */\n  pop\n  pop\n  pop\n    /* \"#utility.yul\":5380:6775   */\n  pop\n  pop\n  jump\t// out\n    /* \"up_burn.sol\":258:1050  contract Myercnew is ERC1155, Ownable, ERC1155Burnable {... */\ntag_17:\n  dataSize(sub_0)\n  dup1\n  dataOffset(sub_0)\n  0x00\n  codecopy\n  0x00\n  return\nstop\ndata_5b343c25738ee73470b1591846a182ac9b0d53f1a62f894d7795f0ed9a2d1d7c 68747470733a2f2f676174657761792e70696e6174612e636c6f75642f697066732f516d5a655a6f5a4868414e316a5741644333784b45554d4e5137366655664831515472676368747470733a2f2f676174657761792e70696e6174612e636c6f75642f697066732f516d5a655a6f5a4868414e316a5741644333784b45554d4e513736665566483151547267634465775768697250322f446577576869725032\n\nsub_0: assembly {\n        /* \"up_burn.sol\":258:1050  contract Myercnew is ERC1155, Ownable, ERC1155Burnable {... */\n      mstore(0x40, 0x80)\n      callvalue\n      dup1\n      iszero\n      tag_1\n      jumpi\n      0x00\n      dup1\n      revert\n    tag_1:\n      pop\n      jumpi(tag_2, lt(calldatasize, 0x04))\n      shr(0xe0, calldataload(0x00))\n      dup1\n      0x715018a6\n      gt\n      tag_19\n      jumpi\n      dup1\n      0xe985e9c5\n      gt\n      tag_20\n      jumpi\n      dup1\n      0xe985e9c5\n      eq\n      tag_15\n      jumpi\n      dup1\n      0xf242432a\n      eq\n      tag_16\n      jumpi\n      dup1\n      0xf2fde38b\n      eq\n      tag_17\n      jumpi\n      dup1\n      0xf5298aca\n      eq\n      tag_18\n      jumpi\n      jump(tag_2)\n    tag_20:\n      dup1\n      0x715018a6\n      eq\n      tag_11\n      jumpi\n      dup1\n      0x731133e9\n      eq\n      tag_12\n      jumpi\n      dup1\n      0x8da5cb5b\n      eq\n      tag_13\n      jumpi\n      dup1\n      0xa22cb465\n      eq\n      tag_14\n      jumpi\n      jump(tag_2)\n    tag_19:\n      dup1\n      0x1f7fdffa\n      gt\n      tag_21\n      jumpi\n      dup1\n      0x1f7fdffa\n      eq\n      tag_7\n      jumpi\n      dup1\n      0x2eb2c2d6\n      eq\n      tag_8\n      jumpi\n      dup1\n      0x4e1273f4\n      eq\n      tag_9\n      jumpi\n      dup1\n      0x6b20c454\n      eq\n      tag_10\n      jumpi\n      jump(tag_2)\n    tag_21:\n      dup1\n      0xfdd58e\n      eq\n      tag_3\n      jumpi\n      dup1\n      0x01ffc9a7\n      eq\n      tag_4\n      jumpi\n      dup1\n      0x02fe5305\n      eq\n      tag_5\n      jumpi\n      dup1\n      0x0e89341c\n      eq\n      tag_6\n      jumpi\n    tag_2:\n      0x00\n      dup1\n      revert\n        /* \"@openzeppelin/contracts/token/ERC1155/ERC1155.sol\":2247:2379  function balanceOf(address account, uint256 id) public view virtual returns (uint256) {... */\n    tag_3:\n      tag_22\n      0x04\n      dup1\n      calldatasize\n      sub\n      dup2\n      add\n      swap1\n      tag_23\n      swap2\n      swap1\n      tag_24\n      jump\t// in\n    tag_23:\n      tag_25\n      jump\t// in\n    tag_22:\n      mload(0x40)\n      tag_26\n      swap2\n      swap1\n      tag_27\n      jump\t// in\n    tag_26:\n      mload(0x40)\n      dup1\n      swap2\n      sub\n      swap1\n      return\n        /* \"@openzeppelin/contracts/token/ERC1155/ERC1155.sol\":1380:1685  function supportsInterface(bytes4 interfaceId) public view virtual override(ERC165, IERC165) returns (bool) {... */\n    tag_4:\n      tag_28\n      0x04\n      dup1\n      calldatasize\n      sub\n      dup2\n      add\n      swap1\n      tag_29\n      swap2\n      swap1\n      tag_30\n      jump\t// in\n    tag_29:\n      tag_31\n      jump\t// in\n    tag_28:\n      mload(0x40)\n      tag_32\n      swap2\n      swap1\n      tag_33\n      jump\t// in\n    tag_32:\n      mload(0x40)\n      dup1\n      swap2\n      sub\n      swap1\n      return\n        /* \"up_burn.sol\":582:671  function setURI(string memory newuri) public onlyOwner {... */\n    tag_5:\n      tag_34\n      0x04\n      dup1\n      calldatasize\n      sub\n      dup2\n      add\n      swap1\n      tag_35\n      swap2\n      swap1\n      tag_36\n      jump\t// in\n    tag_35:\n      tag_37\n      jump\t// in\n    tag_34:\n      stop\n        /* \"@openzeppelin/contracts/token/ERC1155/ERC1155.sol\":2084:2187  function uri(uint256 /* id */) public view virtual returns (string memory) {... */\n    tag_6:\n      tag_38\n      0x04\n      dup1\n      calldatasize\n      sub\n      dup2\n      add\n      swap1\n      tag_39\n      swap2\n      swap1\n      tag_40\n      jump\t// in\n    tag_39:\n      tag_41\n      jump\t// in\n    tag_38:\n      mload(0x40)\n      tag_42\n      swap2\n      swap1\n      tag_43\n      jump\t// in\n    tag_42:\n      mload(0x40)\n      dup1\n      swap2\n      sub\n      swap1\n      return\n        /* \"up_burn.sol\":856:1047  function mintBatch(address to, uint256[] memory ids, uint256[] memory amounts, bytes memory data)... */\n    tag_7:\n      tag_44\n      0x04\n      dup1\n      calldatasize\n      sub\n      dup2\n      add\n      swap1\n      tag_45\n      swap2\n      swap1\n      tag_46\n      jump\t// in\n    tag_45:\n      tag_47\n      jump\t// in\n    tag_44:\n      stop\n        /* \"@openzeppelin/contracts/token/ERC1155/ERC1155.sol\":4014:4443  function safeBatchTransferFrom(... */\n    tag_8:\n      tag_48\n      0x04\n      dup1\n      calldatasize\n      sub\n      dup2\n      add\n      swap1\n      tag_49\n      swap2\n      swap1\n      tag_50\n      jump\t// in\n    tag_49:\n      tag_51\n      jump\t// in\n    tag_48:\n      stop\n        /* \"@openzeppelin/contracts/token/ERC1155/ERC1155.sol\":2536:3088  function balanceOfBatch(... */\n    tag_9:\n      tag_52\n      0x04\n      dup1\n      calldatasize\n      sub\n      dup2\n      add\n      swap1\n      tag_53\n      swap2\n      swap1\n      tag_54\n      jump\t// in\n    tag_53:\n      tag_55\n      jump\t// in\n    tag_52:\n      mload(0x40)\n      tag_56\n      swap2\n      swap1\n      tag_57\n      jump\t// in\n    tag_56:\n      mload(0x40)\n      dup1\n      swap2\n      sub\n      swap1\n      return\n        /* \"@openzeppelin/contracts/token/ERC1155/extensions/ERC1155Burnable.sol\":681:994  function burnBatch(address account, uint256[] memory ids, uint256[] memory values) public virtual {... */\n    tag_10:\n      tag_58\n      0x04\n      dup1\n      calldatasize\n      sub\n      dup2\n      add\n      swap1\n      tag_59\n      swap2\n      swap1\n      tag_60\n      jump\t// in\n    tag_59:\n      tag_61\n      jump\t// in\n    tag_58:\n      stop\n        /* \"@openzeppelin/contracts/access/Ownable.sol\":2293:2394  function renounceOwnership() public virtual onlyOwner {... */\n    tag_11:\n      tag_62\n      tag_63\n      jump\t// in\n    tag_62:\n      stop\n        /* \"up_burn.sol\":679:848  function mint(address account, uint256 id, uint256 amount, bytes memory data)... */\n    tag_12:\n      tag_64\n      0x04\n      dup1\n      calldatasize\n      sub\n      dup2\n      add\n      swap1\n      tag_65\n      swap2\n      swap1\n      tag_66\n      jump\t// in\n    tag_65:\n      tag_67\n      jump\t// in\n    tag_64:\n      stop\n        /* \"@openzeppelin/contracts/access/Ownable.sol\":1638:1723  function owner() public view virtual returns (address) {... */\n    tag_13:\n      tag_68\n      tag_69\n      jump\t// in\n    tag_68:\n      mload(0x40)\n      tag_70\n      swap2\n      swap1\n      tag_71\n      jump\t// in\n    tag_70:\n      mload(0x40)\n      dup1\n      swap2\n      sub\n      swap1\n      return\n        /* \"@openzeppelin/contracts/token/ERC1155/ERC1155.sol\":3156:3300  function setApprovalForAll(address operator, bool approved) public virtual {... */\n    tag_14:\n      tag_72\n      0x04\n      dup1\n      calldatasize\n      sub\n      dup2\n      add\n      swap1\n      tag_73\n      swap2\n      swap1\n      tag_74\n      jump\t// in\n    tag_73:\n      tag_75\n      jump\t// in\n    tag_72:\n      stop\n        /* \"@openzeppelin/contracts/token/ERC1155/ERC1155.sol\":3367:3524  function isApprovedForAll(address account, address operator) public view virtual returns (bool) {... */\n    tag_15:\n      tag_76\n      0x04\n      dup1\n      calldatasize\n      sub\n      dup2\n      add\n      swap1\n      tag_77\n      swap2\n      swap1\n      tag_78\n      jump\t// in\n    tag_77:\n      tag_79\n      jump\t// in\n    tag_76:\n      mload(0x40)\n      tag_80\n      swap2\n      swap1\n      tag_33\n      jump\t// in\n    tag_80:\n      mload(0x40)\n      dup1\n      swap2\n      sub\n      swap1\n      return\n        /* \"@openzeppelin/contracts/token/ERC1155/ERC1155.sol\":3591:3942  function safeTransferFrom(address from, address to, uint256 id, uint256 value, bytes memory data) public virtual {... */\n    tag_16:\n      tag_81\n      0x04\n      dup1\n      calldatasize\n      sub\n      dup2\n      add\n      swap1\n      tag_82\n      swap2\n      swap1\n      tag_83\n      jump\t// in\n    tag_82:\n      tag_84\n      jump\t// in\n    tag_81:\n      stop\n        /* \"@openzeppelin/contracts/access/Ownable.sol\":2543:2758  function transferOwnership(address newOwner) public virtual onlyOwner {... */\n    tag_17:\n      tag_85\n      0x04\n      dup1\n      calldatasize\n      sub\n      dup2\n      add\n      swap1\n      tag_86\n      swap2\n      swap1\n      tag_87\n      jump\t// in\n    tag_86:\n      tag_88\n      jump\t// in\n    tag_85:\n      stop\n        /* \"@openzeppelin/contracts/token/ERC1155/extensions/ERC1155Burnable.sol\":394:675  function burn(address account, uint256 id, uint256 value) public virtual {... */\n    tag_18:\n      tag_89\n      0x04\n      dup1\n      calldatasize\n      sub\n      dup2\n      add\n      swap1\n      tag_90\n      swap2\n      swap1\n      tag_91\n      jump\t// in\n    tag_90:\n      tag_92\n      jump\t// in\n    tag_89:\n      stop\n        /* \"@openzeppelin/contracts/token/ERC1155/ERC1155.sol\":2247:2379  function balanceOf(address account, uint256 id) public view virtual returns (uint256) {... */\n    tag_25:\n        /* \"@openzeppelin/contracts/token/ERC1155/ERC1155.sol\":2324:2331  uint256 */\n      0x00\n        /* \"@openzeppelin/contracts/token/ERC1155/ERC1155.sol\":2350:2359  _balances */\n      dup1\n        /* \"@openzeppelin/contracts/token/ERC1155/ERC1155.sol\":2350:2363  _balances[id] */\n      0x00\n        /* \"@openzeppelin/contracts/token/ERC1155/ERC1155.sol\":2360:2362  id */\n      dup4\n        /* \"@openzeppelin/contracts/token/ERC1155/ERC1155.sol\":2350:2363  _balances[id] */\n      dup2\n      mstore\n      0x20\n      add\n      swap1\n      dup2\n      mstore\n      0x20\n      add\n      0x00\n      keccak256\n        /* \"@openzeppelin/contracts/token/ERC1155/ERC1155.sol\":2350:2372  _balances[id][account] */\n      0x00\n        /* \"@openzeppelin/contracts/token/ERC1155/ERC1155.sol\":2364:2371  account */\n      dup5\n        /* \"@openzeppelin/contracts/token/ERC1155/ERC1155.sol\":2350:2372  _balances[id][account] */\n      0xffffffffffffffffffffffffffffffffffffffff\n      and\n      0xffffffffffffffffffffffffffffffffffffffff\n      and\n      dup2\n      mstore\n      0x20\n      add\n      swap1\n      dup2\n      mstore\n      0x20\n      add\n      0x00\n      keccak256\n      sload\n        /* \"@openzeppelin/contracts/token/ERC1155/ERC1155.sol\":2343:2372  return _balances[id][account] */\n      swap1\n      pop\n        /* \"@openzeppelin/contracts/token/ERC1155/ERC1155.sol\":2247:2379  function balanceOf(address account, uint256 id) public view virtual returns (uint256) {... */\n      swap3\n      swap2\n      pop\n      pop\n      jump\t// out\n        /* \"@openzeppelin/contracts/token/ERC1155/ERC1155.sol\":1380:1685  function supportsInterface(bytes4 interfaceId) public view virtual override(ERC165, IERC165) returns (bool) {... */\n    tag_31:\n        /* \"@openzeppelin/contracts/token/ERC1155/ERC1155.sol\":1482:1486  bool */\n      0x00\n        /* \"@openzeppelin/contracts/token/ERC1155/ERC1155.sol\":1532:1558  type(IERC1155).interfaceId */\n      0xd9b67a2600000000000000000000000000000000000000000000000000000000\n        /* \"@openzeppelin/contracts/token/ERC1155/ERC1155.sol\":1517:1558  interfaceId == type(IERC1155).interfaceId */\n      not(0xffffffffffffffffffffffffffffffffffffffffffffffffffffffff)\n      and\n        /* \"@openzeppelin/contracts/token/ERC1155/ERC1155.sol\":1517:1528  interfaceId */\n      dup3\n        /* \"@openzeppelin/contracts/token/ERC1155/ERC1155.sol\":1517:1558  interfaceId == type(IERC1155).interfaceId */\n      not(0xffffffffffffffffffffffffffffffffffffffffffffffffffffffff)\n      and\n      eq\n        /* \"@openzeppelin/contracts/token/ERC1155/ERC1155.sol\":1517:1626  interfaceId == type(IERC1155).interfaceId ||... */\n      dup1\n      tag_95\n      jumpi\n      pop\n        /* \"@openzeppelin/contracts/token/ERC1155/ERC1155.sol\":1589:1626  type(IERC1155MetadataURI).interfaceId */\n      0x0e89341c00000000000000000000000000000000000000000000000000000000\n        /* \"@openzeppelin/contracts/token/ERC1155/ERC1155.sol\":1574:1626  interfaceId == type(IERC1155MetadataURI).interfaceId */\n      not(0xffffffffffffffffffffffffffffffffffffffffffffffffffffffff)\n      and\n        /* \"@openzeppelin/contracts/token/ERC1155/ERC1155.sol\":1574:1585  interfaceId */\n      dup3\n        /* \"@openzeppelin/contracts/token/ERC1155/ERC1155.sol\":1574:1626  interfaceId == type(IERC1155MetadataURI).interfaceId */\n      not(0xffffffffffffffffffffffffffffffffffffffffffffffffffffffff)\n      and\n      eq\n        /* \"@openzeppelin/contracts/token/ERC1155/ERC1155.sol\":1517:1626  interfaceId == type(IERC1155).interfaceId ||... */\n    tag_95:\n        /* \"@openzeppelin/contracts/token/ERC1155/ERC1155.sol\":1517:1678  interfaceId == type(IERC1155).interfaceId ||... */\n      dup1\n      tag_96\n      jumpi\n      pop\n        /* \"@openzeppelin/contracts/token/ERC1155/ERC1155.sol\":1642:1678  super.supportsInterface(interfaceId) */\n      tag_97\n        /* \"@openzeppelin/contracts/token/ERC1155/ERC1155.sol\":1666:1677  interfaceId */\n      dup3\n        /* \"@openzeppelin/contracts/token/ERC1155/ERC1155.sol\":1642:1665  super.supportsInterface */\n      tag_98\n        /* \"@openzeppelin/contracts/token/ERC1155/ERC1155.sol\":1642:1678  super.supportsInterface(interfaceId) */\n      jump\t// in\n    tag_97:\n        /* \"@openzeppelin/contracts/token/ERC1155/ERC1155.sol\":1517:1678  interfaceId == type(IERC1155).interfaceId ||... */\n    tag_96:\n        /* \"@openzeppelin/contracts/token/ERC1155/ERC1155.sol\":1498:1678  return... */\n      swap1\n      pop\n        /* \"@openzeppelin/contracts/token/ERC1155/ERC1155.sol\":1380:1685  function supportsInterface(bytes4 interfaceId) public view virtual override(ERC165, IERC165) returns (bool) {... */\n      swap2\n      swap1\n      pop\n      jump\t// out\n        /* \"up_burn.sol\":582:671  function setURI(string memory newuri) public onlyOwner {... */\n    tag_37:\n        /* \"@openzeppelin/contracts/access/Ownable.sol\":1531:1544  _checkOwner() */\n      tag_100\n        /* \"@openzeppelin/contracts/access/Ownable.sol\":1531:1542  _checkOwner */\n      tag_101\n        /* \"@openzeppelin/contracts/access/Ownable.sol\":1531:1544  _checkOwner() */\n      jump\t// in\n    tag_100:\n        /* \"up_burn.sol\":648:663  _setURI(newuri) */\n      tag_103\n        /* \"up_burn.sol\":656:662  newuri */\n      dup2\n        /* \"up_burn.sol\":648:655  _setURI */\n      tag_104\n        /* \"up_burn.sol\":648:663  _setURI(newuri) */\n      jump\t// in\n    tag_103:\n        /* \"up_burn.sol\":582:671  function setURI(string memory newuri) public onlyOwner {... */\n      pop\n      jump\t// out\n        /* \"@openzeppelin/contracts/token/ERC1155/ERC1155.sol\":2084:2187  function uri(uint256 /* id */) public view virtual returns (string memory) {... */\n    tag_41:\n        /* \"@openzeppelin/contracts/token/ERC1155/ERC1155.sol\":2144:2157  string memory */\n      0x60\n        /* \"@openzeppelin/contracts/token/ERC1155/ERC1155.sol\":2176:2180  _uri */\n      0x02\n        /* \"@openzeppelin/contracts/token/ERC1155/ERC1155.sol\":2169:2180  return _uri */\n      dup1\n      sload\n      tag_106\n      swap1\n      tag_107\n      jump\t// in\n    tag_106:\n      dup1\n      0x1f\n      add\n      0x20\n      dup1\n      swap2\n      div\n      mul\n      0x20\n      add\n      mload(0x40)\n      swap1\n      dup2\n      add\n      0x40\n      mstore\n      dup1\n      swap3\n      swap2\n      swap1\n      dup2\n      dup2\n      mstore\n      0x20\n      add\n      dup3\n      dup1\n      sload\n      tag_108\n      swap1\n      tag_107\n      jump\t// in\n    tag_108:\n      dup1\n      iszero\n      tag_109\n      jumpi\n      dup1\n      0x1f\n      lt\n      tag_110\n      jumpi\n      0x0100\n      dup1\n      dup4\n      sload\n      div\n      mul\n      dup4\n      mstore\n      swap2\n      0x20\n      add\n      swap2\n      jump(tag_109)\n    tag_110:\n      dup3\n      add\n      swap2\n      swap1\n      0x00\n      mstore\n      keccak256(0x00, 0x20)\n      swap1\n    tag_111:\n      dup2\n      sload\n      dup2\n      mstore\n      swap1\n      0x01\n      add\n      swap1\n      0x20\n      add\n      dup1\n      dup4\n      gt\n      tag_111\n      jumpi\n      dup3\n      swap1\n      sub\n      0x1f\n      and\n      dup3\n      add\n      swap2\n    tag_109:\n      pop\n      pop\n      pop\n      pop\n      pop\n      swap1\n      pop\n        /* \"@openzeppelin/contracts/token/ERC1155/ERC1155.sol\":2084:2187  function uri(uint256 /* id */) public view virtual returns (string memory) {... */\n      swap2\n      swap1\n      pop\n      jump\t// out\n        /* \"up_burn.sol\":856:1047  function mintBatch(address to, uint256[] memory ids, uint256[] memory amounts, bytes memory data)... */\n    tag_47:\n        /* \"@openzeppelin/contracts/access/Ownable.sol\":1531:1544  _checkOwner() */\n      tag_113\n        /* \"@openzeppelin/contracts/access/Ownable.sol\":1531:1542  _checkOwner */\n      tag_101\n        /* \"@openzeppelin/contracts/access/Ownable.sol\":1531:1544  _checkOwner() */\n      jump\t// in\n    tag_113:\n        /* \"up_burn.sol\":1005:1039  _mintBatch(to, ids, amounts, data) */\n      tag_115\n        /* \"up_burn.sol\":1016:1018  to */\n      dup5\n        /* \"up_burn.sol\":1020:1023  ids */\n      dup5\n        /* \"up_burn.sol\":1025:1032  amounts */\n      dup5\n        /* \"up_burn.sol\":1034:1038  data */\n      dup5\n        /* \"up_burn.sol\":1005:1015  _mintBatch */\n      tag_116\n        /* \"up_burn.sol\":1005:1039  _mintBatch(to, ids, amounts, data) */\n      jump\t// in\n    tag_115:\n        /* \"up_burn.sol\":856:1047  function mintBatch(address to, uint256[] memory ids, uint256[] memory amounts, bytes memory data)... */\n      pop\n      pop\n      pop\n      pop\n      jump\t// out\n        /* \"@openzeppelin/contracts/token/ERC1155/ERC1155.sol\":4014:4443  function safeBatchTransferFrom(... */\n    tag_51:\n        /* \"@openzeppelin/contracts/token/ERC1155/ERC1155.sol\":4208:4222  address sender */\n      0x00\n        /* \"@openzeppelin/contracts/token/ERC1155/ERC1155.sol\":4225:4237  _msgSender() */\n      tag_118\n        /* \"@openzeppelin/contracts/token/ERC1155/ERC1155.sol\":4225:4235  _msgSender */\n      tag_119\n        /* \"@openzeppelin/contracts/token/ERC1155/ERC1155.sol\":4225:4237  _msgSender() */\n      jump\t// in\n    tag_118:\n        /* \"@openzeppelin/contracts/token/ERC1155/ERC1155.sol\":4208:4237  address sender = _msgSender() */\n      swap1\n      pop\n        /* \"@openzeppelin/contracts/token/ERC1155/ERC1155.sol\":4259:4265  sender */\n      dup1\n        /* \"@openzeppelin/contracts/token/ERC1155/ERC1155.sol\":4251:4265  from != sender */\n      0xffffffffffffffffffffffffffffffffffffffff\n      and\n        /* \"@openzeppelin/contracts/token/ERC1155/ERC1155.sol\":4251:4255  from */\n      dup7\n        /* \"@openzeppelin/contracts/token/ERC1155/ERC1155.sol\":4251:4265  from != sender */\n      0xffffffffffffffffffffffffffffffffffffffff\n      and\n      eq\n      iszero\n        /* \"@openzeppelin/contracts/token/ERC1155/ERC1155.sol\":4251:4300  from != sender && !isApprovedForAll(from, sender) */\n      dup1\n      iszero\n      tag_120\n      jumpi\n      pop\n        /* \"@openzeppelin/contracts/token/ERC1155/ERC1155.sol\":4270:4300  isApprovedForAll(from, sender) */\n      tag_121\n        /* \"@openzeppelin/contracts/token/ERC1155/ERC1155.sol\":4287:4291  from */\n      dup7\n        /* \"@openzeppelin/contracts/token/ERC1155/ERC1155.sol\":4293:4299  sender */\n      dup3\n        /* \"@openzeppelin/contracts/token/ERC1155/ERC1155.sol\":4270:4286  isApprovedForAll */\n      tag_79\n        /* \"@openzeppelin/contracts/token/ERC1155/ERC1155.sol\":4270:4300  isApprovedForAll(from, sender) */\n      jump\t// in\n    tag_121:\n        /* \"@openzeppelin/contracts/token/ERC1155/ERC1155.sol\":4269:4300  !isApprovedForAll(from, sender) */\n      iszero\n        /* \"@openzeppelin/contracts/token/ERC1155/ERC1155.sol\":4251:4300  from != sender && !isApprovedForAll(from, sender) */\n    tag_120:\n        /* \"@openzeppelin/contracts/token/ERC1155/ERC1155.sol\":4247:4376  if (from != sender && !isApprovedForAll(from, sender)) {... */\n      iszero\n      tag_122\n      jumpi\n        /* \"@openzeppelin/contracts/token/ERC1155/ERC1155.sol\":4352:4358  sender */\n      dup1\n        /* \"@openzeppelin/contracts/token/ERC1155/ERC1155.sol\":4360:4364  from */\n      dup7\n        /* \"@openzeppelin/contracts/token/ERC1155/ERC1155.sol\":4323:4365  ERC1155MissingApprovalForAll(sender, from) */\n      mload(0x40)\n      0xe237d92200000000000000000000000000000000000000000000000000000000\n      dup2\n      mstore\n      0x04\n      add\n      tag_123\n      swap3\n      swap2\n      swap1\n      tag_124\n      jump\t// in\n    tag_123:\n      mload(0x40)\n      dup1\n      swap2\n      sub\n      swap1\n      revert\n        /* \"@openzeppelin/contracts/token/ERC1155/ERC1155.sol\":4247:4376  if (from != sender && !isApprovedForAll(from, sender)) {... */\n    tag_122:\n        /* \"@openzeppelin/contracts/token/ERC1155/ERC1155.sol\":4385:4436  _safeBatchTransferFrom(from, to, ids, values, data) */\n      tag_125\n        /* \"@openzeppelin/contracts/token/ERC1155/ERC1155.sol\":4408:4412  from */\n      dup7\n        /* \"@openzeppelin/contracts/token/ERC1155/ERC1155.sol\":4414:4416  to */\n      dup7\n        /* \"@openzeppelin/contracts/token/ERC1155/ERC1155.sol\":4418:4421  ids */\n      dup7\n        /* \"@openzeppelin/contracts/token/ERC1155/ERC1155.sol\":4423:4429  values */\n      dup7\n        /* \"@openzeppelin/contracts/token/ERC1155/ERC1155.sol\":4431:4435  data */\n      dup7\n        /* \"@openzeppelin/contracts/token/ERC1155/ERC1155.sol\":4385:4407  _safeBatchTransferFrom */\n      tag_126\n        /* \"@openzeppelin/contracts/token/ERC1155/ERC1155.sol\":4385:4436  _safeBatchTransferFrom(from, to, ids, values, data) */\n      jump\t// in\n    tag_125:\n        /* \"@openzeppelin/contracts/token/ERC1155/ERC1155.sol\":4198:4443  {... */\n      pop\n        /* \"@openzeppelin/contracts/token/ERC1155/ERC1155.sol\":4014:4443  function safeBatchTransferFrom(... */\n      pop\n      pop\n      pop\n      pop\n      pop\n      jump\t// out\n        /* \"@openzeppelin/contracts/token/ERC1155/ERC1155.sol\":2536:3088  function balanceOfBatch(... */\n    tag_55:\n        /* \"@openzeppelin/contracts/token/ERC1155/ERC1155.sol\":2660:2676  uint256[] memory */\n      0x60\n        /* \"@openzeppelin/contracts/token/ERC1155/ERC1155.sol\":2711:2714  ids */\n      dup2\n        /* \"@openzeppelin/contracts/token/ERC1155/ERC1155.sol\":2711:2721  ids.length */\n      mload\n        /* \"@openzeppelin/contracts/token/ERC1155/ERC1155.sol\":2692:2700  accounts */\n      dup4\n        /* \"@openzeppelin/contracts/token/ERC1155/ERC1155.sol\":2692:2707  accounts.length */\n      mload\n        /* \"@openzeppelin/contracts/token/ERC1155/ERC1155.sol\":2692:2721  accounts.length != ids.length */\n      eq\n        /* \"@openzeppelin/contracts/token/ERC1155/ERC1155.sol\":2688:2809  if (accounts.length != ids.length) {... */\n      tag_128\n      jumpi\n        /* \"@openzeppelin/contracts/token/ERC1155/ERC1155.sol\":2770:2773  ids */\n      dup2\n        /* \"@openzeppelin/contracts/token/ERC1155/ERC1155.sol\":2770:2780  ids.length */\n      mload\n        /* \"@openzeppelin/contracts/token/ERC1155/ERC1155.sol\":2782:2790  accounts */\n      dup4\n        /* \"@openzeppelin/contracts/token/ERC1155/ERC1155.sol\":2782:2797  accounts.length */\n      mload\n        /* \"@openzeppelin/contracts/token/ERC1155/ERC1155.sol\":2744:2798  ERC1155InvalidArrayLength(ids.length, accounts.length) */\n      mload(0x40)\n      0x5b05999100000000000000000000000000000000000000000000000000000000\n      dup2\n      mstore\n      0x04\n      add\n      tag_129\n      swap3\n      swap2\n      swap1\n      tag_130\n      jump\t// in\n    tag_129:\n      mload(0x40)\n      dup1\n      swap2\n      sub\n      swap1\n      revert\n        /* \"@openzeppelin/contracts/token/ERC1155/ERC1155.sol\":2688:2809  if (accounts.length != ids.length) {... */\n    tag_128:\n        /* \"@openzeppelin/contracts/token/ERC1155/ERC1155.sol\":2819:2849  uint256[] memory batchBalances */\n      0x00\n        /* \"@openzeppelin/contracts/token/ERC1155/ERC1155.sol\":2866:2874  accounts */\n      dup4\n        /* \"@openzeppelin/contracts/token/ERC1155/ERC1155.sol\":2866:2881  accounts.length */\n      mload\n        /* \"@openzeppelin/contracts/token/ERC1155/ERC1155.sol\":2852:2882  new uint256[](accounts.length) */\n      0xffffffffffffffff\n      dup2\n      gt\n      iszero\n      tag_131\n      jumpi\n      tag_132\n      tag_133\n      jump\t// in\n    tag_132:\n    tag_131:\n      mload(0x40)\n      swap1\n      dup1\n      dup3\n      mstore\n      dup1\n      0x20\n      mul\n      0x20\n      add\n      dup3\n      add\n      0x40\n      mstore\n      dup1\n      iszero\n      tag_134\n      jumpi\n      dup2\n      0x20\n      add\n      0x20\n      dup3\n      mul\n      dup1\n      calldatasize\n      dup4\n      calldatacopy\n      dup1\n      dup3\n      add\n      swap2\n      pop\n      pop\n      swap1\n      pop\n    tag_134:\n      pop\n        /* \"@openzeppelin/contracts/token/ERC1155/ERC1155.sol\":2819:2882  uint256[] memory batchBalances = new uint256[](accounts.length) */\n      swap1\n      pop\n        /* \"@openzeppelin/contracts/token/ERC1155/ERC1155.sol\":2898:2907  uint256 i */\n      0x00\n        /* \"@openzeppelin/contracts/token/ERC1155/ERC1155.sol\":2893:3051  for (uint256 i = 0; i < accounts.length; ++i) {... */\n    tag_135:\n        /* \"@openzeppelin/contracts/token/ERC1155/ERC1155.sol\":2917:2925  accounts */\n      dup5\n        /* \"@openzeppelin/contracts/token/ERC1155/ERC1155.sol\":2917:2932  accounts.length */\n      mload\n        /* \"@openzeppelin/contracts/token/ERC1155/ERC1155.sol\":2913:2914  i */\n      dup2\n        /* \"@openzeppelin/contracts/token/ERC1155/ERC1155.sol\":2913:2932  i < accounts.length */\n      lt\n        /* \"@openzeppelin/contracts/token/ERC1155/ERC1155.sol\":2893:3051  for (uint256 i = 0; i < accounts.length; ++i) {... */\n      iszero\n      tag_136\n      jumpi\n        /* \"@openzeppelin/contracts/token/ERC1155/ERC1155.sol\":2972:3040  balanceOf(accounts.unsafeMemoryAccess(i), ids.unsafeMemoryAccess(i)) */\n      tag_138\n        /* \"@openzeppelin/contracts/token/ERC1155/ERC1155.sol\":2982:3012  accounts.unsafeMemoryAccess(i) */\n      tag_139\n        /* \"@openzeppelin/contracts/token/ERC1155/ERC1155.sol\":3010:3011  i */\n      dup3\n        /* \"@openzeppelin/contracts/token/ERC1155/ERC1155.sol\":2982:2990  accounts */\n      dup8\n        /* \"@openzeppelin/contracts/token/ERC1155/ERC1155.sol\":2982:3009  accounts.unsafeMemoryAccess */\n      tag_140\n      swap1\n        /* \"@openzeppelin/contracts/token/ERC1155/ERC1155.sol\":2982:3012  accounts.unsafeMemoryAccess(i) */\n      swap2\n      swap1\n      0xffffffff\n      and\n      jump\t// in\n    tag_139:\n        /* \"@openzeppelin/contracts/token/ERC1155/ERC1155.sol\":3014:3039  ids.unsafeMemoryAccess(i) */\n      tag_141\n        /* \"@openzeppelin/contracts/token/ERC1155/ERC1155.sol\":3037:3038  i */\n      dup4\n        /* \"@openzeppelin/contracts/token/ERC1155/ERC1155.sol\":3014:3017  ids */\n      dup8\n        /* \"@openzeppelin/contracts/token/ERC1155/ERC1155.sol\":3014:3036  ids.unsafeMemoryAccess */\n      tag_142\n      swap1\n        /* \"@openzeppelin/contracts/token/ERC1155/ERC1155.sol\":3014:3039  ids.unsafeMemoryAccess(i) */\n      swap2\n      swap1\n      0xffffffff\n      and\n      jump\t// in\n    tag_141:\n        /* \"@openzeppelin/contracts/token/ERC1155/ERC1155.sol\":2972:2981  balanceOf */\n      tag_25\n        /* \"@openzeppelin/contracts/token/ERC1155/ERC1155.sol\":2972:3040  balanceOf(accounts.unsafeMemoryAccess(i), ids.unsafeMemoryAccess(i)) */\n      jump\t// in\n    tag_138:\n        /* \"@openzeppelin/contracts/token/ERC1155/ERC1155.sol\":2953:2966  batchBalances */\n      dup3\n        /* \"@openzeppelin/contracts/token/ERC1155/ERC1155.sol\":2967:2968  i */\n      dup3\n        /* \"@openzeppelin/contracts/token/ERC1155/ERC1155.sol\":2953:2969  batchBalances[i] */\n      dup2\n      mload\n      dup2\n      lt\n      tag_143\n      jumpi\n      tag_144\n      tag_145\n      jump\t// in\n    tag_144:\n    tag_143:\n      0x20\n      mul\n      0x20\n      add\n      add\n        /* \"@openzeppelin/contracts/token/ERC1155/ERC1155.sol\":2953:3040  batchBalances[i] = balanceOf(accounts.unsafeMemoryAccess(i), ids.unsafeMemoryAccess(i)) */\n      dup2\n      dup2\n      mstore\n      pop\n      pop\n        /* \"@openzeppelin/contracts/token/ERC1155/ERC1155.sol\":2934:2937  ++i */\n      dup1\n      tag_146\n      swap1\n      tag_147\n      jump\t// in\n    tag_146:\n      swap1\n      pop\n        /* \"@openzeppelin/contracts/token/ERC1155/ERC1155.sol\":2893:3051  for (uint256 i = 0; i < accounts.length; ++i) {... */\n      jump(tag_135)\n    tag_136:\n      pop\n        /* \"@openzeppelin/contracts/token/ERC1155/ERC1155.sol\":3068:3081  batchBalances */\n      dup1\n        /* \"@openzeppelin/contracts/token/ERC1155/ERC1155.sol\":3061:3081  return batchBalances */\n      swap2\n      pop\n      pop\n        /* \"@openzeppelin/contracts/token/ERC1155/ERC1155.sol\":2536:3088  function balanceOfBatch(... */\n      swap3\n      swap2\n      pop\n      pop\n      jump\t// out\n        /* \"@openzeppelin/contracts/token/ERC1155/extensions/ERC1155Burnable.sol\":681:994  function burnBatch(address account, uint256[] memory ids, uint256[] memory values) public virtual {... */\n    tag_61:\n        /* \"@openzeppelin/contracts/token/ERC1155/extensions/ERC1155Burnable.sol\":804:816  _msgSender() */\n      tag_149\n        /* \"@openzeppelin/contracts/token/ERC1155/extensions/ERC1155Burnable.sol\":804:814  _msgSender */\n      tag_119\n        /* \"@openzeppelin/contracts/token/ERC1155/extensions/ERC1155Burnable.sol\":804:816  _msgSender() */\n      jump\t// in\n    tag_149:\n        /* \"@openzeppelin/contracts/token/ERC1155/extensions/ERC1155Burnable.sol\":793:816  account != _msgSender() */\n      0xffffffffffffffffffffffffffffffffffffffff\n      and\n        /* \"@openzeppelin/contracts/token/ERC1155/extensions/ERC1155Burnable.sol\":793:800  account */\n      dup4\n        /* \"@openzeppelin/contracts/token/ERC1155/extensions/ERC1155Burnable.sol\":793:816  account != _msgSender() */\n      0xffffffffffffffffffffffffffffffffffffffff\n      and\n      eq\n      iszero\n        /* \"@openzeppelin/contracts/token/ERC1155/extensions/ERC1155Burnable.sol\":793:860  account != _msgSender() && !isApprovedForAll(account, _msgSender()) */\n      dup1\n      iszero\n      tag_150\n      jumpi\n      pop\n        /* \"@openzeppelin/contracts/token/ERC1155/extensions/ERC1155Burnable.sol\":821:860  isApprovedForAll(account, _msgSender()) */\n      tag_151\n        /* \"@openzeppelin/contracts/token/ERC1155/extensions/ERC1155Burnable.sol\":838:845  account */\n      dup4\n        /* \"@openzeppelin/contracts/token/ERC1155/extensions/ERC1155Burnable.sol\":847:859  _msgSender() */\n      tag_152\n        /* \"@openzeppelin/contracts/token/ERC1155/extensions/ERC1155Burnable.sol\":847:857  _msgSender */\n      tag_119\n        /* \"@openzeppelin/contracts/token/ERC1155/extensions/ERC1155Burnable.sol\":847:859  _msgSender() */\n      jump\t// in\n    tag_152:\n        /* \"@openzeppelin/contracts/token/ERC1155/extensions/ERC1155Burnable.sol\":821:837  isApprovedForAll */\n      tag_79\n        /* \"@openzeppelin/contracts/token/ERC1155/extensions/ERC1155Burnable.sol\":821:860  isApprovedForAll(account, _msgSender()) */\n      jump\t// in\n    tag_151:\n        /* \"@openzeppelin/contracts/token/ERC1155/extensions/ERC1155Burnable.sol\":820:860  !isApprovedForAll(account, _msgSender()) */\n      iszero\n        /* \"@openzeppelin/contracts/token/ERC1155/extensions/ERC1155Burnable.sol\":793:860  account != _msgSender() && !isApprovedForAll(account, _msgSender()) */\n    tag_150:\n        /* \"@openzeppelin/contracts/token/ERC1155/extensions/ERC1155Burnable.sol\":789:945  if (account != _msgSender() && !isApprovedForAll(account, _msgSender())) {... */\n      iszero\n      tag_153\n      jumpi\n        /* \"@openzeppelin/contracts/token/ERC1155/extensions/ERC1155Burnable.sol\":912:924  _msgSender() */\n      tag_154\n        /* \"@openzeppelin/contracts/token/ERC1155/extensions/ERC1155Burnable.sol\":912:922  _msgSender */\n      tag_119\n        /* \"@openzeppelin/contracts/token/ERC1155/extensions/ERC1155Burnable.sol\":912:924  _msgSender() */\n      jump\t// in\n    tag_154:\n        /* \"@openzeppelin/contracts/token/ERC1155/extensions/ERC1155Burnable.sol\":926:933  account */\n      dup4\n        /* \"@openzeppelin/contracts/token/ERC1155/extensions/ERC1155Burnable.sol\":883:934  ERC1155MissingApprovalForAll(_msgSender(), account) */\n      mload(0x40)\n      0xe237d92200000000000000000000000000000000000000000000000000000000\n      dup2\n      mstore\n      0x04\n      add\n      tag_155\n      swap3\n      swap2\n      swap1\n      tag_124\n      jump\t// in\n    tag_155:\n      mload(0x40)\n      dup1\n      swap2\n      sub\n      swap1\n      revert\n        /* \"@openzeppelin/contracts/token/ERC1155/extensions/ERC1155Burnable.sol\":789:945  if (account != _msgSender() && !isApprovedForAll(account, _msgSender())) {... */\n    tag_153:\n        /* \"@openzeppelin/contracts/token/ERC1155/extensions/ERC1155Burnable.sol\":955:987  _burnBatch(account, ids, values) */\n      tag_156\n        /* \"@openzeppelin/contracts/token/ERC1155/extensions/ERC1155Burnable.sol\":966:973  account */\n      dup4\n        /* \"@openzeppelin/contracts/token/ERC1155/extensions/ERC1155Burnable.sol\":975:978  ids */\n      dup4\n        /* \"@openzeppelin/contracts/token/ERC1155/extensions/ERC1155Burnable.sol\":980:986  values */\n      dup4\n        /* \"@openzeppelin/contracts/token/ERC1155/extensions/ERC1155Burnable.sol\":955:965  _burnBatch */\n      tag_157\n        /* \"@openzeppelin/contracts/token/ERC1155/extensions/ERC1155Burnable.sol\":955:987  _burnBatch(account, ids, values) */\n      jump\t// in\n    tag_156:\n        /* \"@openzeppelin/contracts/token/ERC1155/extensions/ERC1155Burnable.sol\":681:994  function burnBatch(address account, uint256[] memory ids, uint256[] memory values) public virtual {... */\n      pop\n      pop\n      pop\n      jump\t// out\n        /* \"@openzeppelin/contracts/access/Ownable.sol\":2293:2394  function renounceOwnership() public virtual onlyOwner {... */\n    tag_63:\n        /* \"@openzeppelin/contracts/access/Ownable.sol\":1531:1544  _checkOwner() */\n      tag_159\n        /* \"@openzeppelin/contracts/access/Ownable.sol\":1531:1542  _checkOwner */\n      tag_101\n        /* \"@openzeppelin/contracts/access/Ownable.sol\":1531:1544  _checkOwner() */\n      jump\t// in\n    tag_159:\n        /* \"@openzeppelin/contracts/access/Ownable.sol\":2357:2387  _transferOwnership(address(0)) */\n      tag_161\n        /* \"@openzeppelin/contracts/access/Ownable.sol\":2384:2385  0 */\n      0x00\n        /* \"@openzeppelin/contracts/access/Ownable.sol\":2357:2375  _transferOwnership */\n      tag_162\n        /* \"@openzeppelin/contracts/access/Ownable.sol\":2357:2387  _transferOwnership(address(0)) */\n      jump\t// in\n    tag_161:\n        /* \"@openzeppelin/contracts/access/Ownable.sol\":2293:2394  function renounceOwnership() public virtual onlyOwner {... */\n      jump\t// out\n        /* \"up_burn.sol\":679:848  function mint(address account, uint256 id, uint256 amount, bytes memory data)... */\n    tag_67:\n        /* \"@openzeppelin/contracts/access/Ownable.sol\":1531:1544  _checkOwner() */\n      tag_164\n        /* \"@openzeppelin/contracts/access/Ownable.sol\":1531:1542  _checkOwner */\n      tag_101\n        /* \"@openzeppelin/contracts/access/Ownable.sol\":1531:1544  _checkOwner() */\n      jump\t// in\n    tag_164:\n        /* \"up_burn.sol\":808:840  _mint(account, id, amount, data) */\n      tag_166\n        /* \"up_burn.sol\":814:821  account */\n      dup5\n        /* \"up_burn.sol\":823:825  id */\n      dup5\n        /* \"up_burn.sol\":827:833  amount */\n      dup5\n        /* \"up_burn.sol\":835:839  data */\n      dup5\n        /* \"up_burn.sol\":808:813  _mint */\n      tag_167\n        /* \"up_burn.sol\":808:840  _mint(account, id, amount, data) */\n      jump\t// in\n    tag_166:\n        /* \"up_burn.sol\":679:848  function mint(address account, uint256 id, uint256 amount, bytes memory data)... */\n      pop\n      pop\n      pop\n      pop\n      jump\t// out\n        /* \"@openzeppelin/contracts/access/Ownable.sol\":1638:1723  function owner() public view virtual returns (address) {... */\n    tag_69:\n        /* \"@openzeppelin/contracts/access/Ownable.sol\":1684:1691  address */\n      0x00\n        /* \"@openzeppelin/contracts/access/Ownable.sol\":1710:1716  _owner */\n      0x03\n      0x00\n      swap1\n      sload\n      swap1\n      0x0100\n      exp\n      swap1\n      div\n      0xffffffffffffffffffffffffffffffffffffffff\n      and\n        /* \"@openzeppelin/contracts/access/Ownable.sol\":1703:1716  return _owner */\n      swap1\n      pop\n        /* \"@openzeppelin/contracts/access/Ownable.sol\":1638:1723  function owner() public view virtual returns (address) {... */\n      swap1\n      jump\t// out\n        /* \"@openzeppelin/contracts/token/ERC1155/ERC1155.sol\":3156:3300  function setApprovalForAll(address operator, bool approved) public virtual {... */\n    tag_75:\n        /* \"@openzeppelin/contracts/token/ERC1155/ERC1155.sol\":3241:3293  _setApprovalForAll(_msgSender(), operator, approved) */\n      tag_170\n        /* \"@openzeppelin/contracts/token/ERC1155/ERC1155.sol\":3260:3272  _msgSender() */\n      tag_171\n        /* \"@openzeppelin/contracts/token/ERC1155/ERC1155.sol\":3260:3270  _msgSender */\n      tag_119\n        /* \"@openzeppelin/contracts/token/ERC1155/ERC1155.sol\":3260:3272  _msgSender() */\n      jump\t// in\n    tag_171:\n        /* \"@openzeppelin/contracts/token/ERC1155/ERC1155.sol\":3274:3282  operator */\n      dup4\n        /* \"@openzeppelin/contracts/token/ERC1155/ERC1155.sol\":3284:3292  approved */\n      dup4\n        /* \"@openzeppelin/contracts/token/ERC1155/ERC1155.sol\":3241:3259  _setApprovalForAll */\n      tag_172\n        /* \"@openzeppelin/contracts/token/ERC1155/ERC1155.sol\":3241:3293  _setApprovalForAll(_msgSender(), operator, approved) */\n      jump\t// in\n    tag_170:\n        /* \"@openzeppelin/contracts/token/ERC1155/ERC1155.sol\":3156:3300  function setApprovalForAll(address operator, bool approved) public virtual {... */\n      pop\n      pop\n      jump\t// out\n        /* \"@openzeppelin/contracts/token/ERC1155/ERC1155.sol\":3367:3524  function isApprovedForAll(address account, address operator) public view virtual returns (bool) {... */\n    tag_79:\n        /* \"@openzeppelin/contracts/token/ERC1155/ERC1155.sol\":3457:3461  bool */\n      0x00\n        /* \"@openzeppelin/contracts/token/ERC1155/ERC1155.sol\":3480:3498  _operatorApprovals */\n      0x01\n        /* \"@openzeppelin/contracts/token/ERC1155/ERC1155.sol\":3480:3507  _operatorApprovals[account] */\n      0x00\n        /* \"@openzeppelin/contracts/token/ERC1155/ERC1155.sol\":3499:3506  account */\n      dup5\n        /* \"@openzeppelin/contracts/token/ERC1155/ERC1155.sol\":3480:3507  _operatorApprovals[account] */\n      0xffffffffffffffffffffffffffffffffffffffff\n      and\n      0xffffffffffffffffffffffffffffffffffffffff\n      and\n      dup2\n      mstore\n      0x20\n      add\n      swap1\n      dup2\n      mstore\n      0x20\n      add\n      0x00\n      keccak256\n        /* \"@openzeppelin/contracts/token/ERC1155/ERC1155.sol\":3480:3517  _operatorApprovals[account][operator] */\n      0x00\n        /* \"@openzeppelin/contracts/token/ERC1155/ERC1155.sol\":3508:3516  operator */\n      dup4\n        /* \"@openzeppelin/contracts/token/ERC1155/ERC1155.sol\":3480:3517  _operatorApprovals[account][operator] */\n      0xffffffffffffffffffffffffffffffffffffffff\n      and\n      0xffffffffffffffffffffffffffffffffffffffff\n      and\n      dup2\n      mstore\n      0x20\n      add\n      swap1\n      dup2\n      mstore\n      0x20\n      add\n      0x00\n      keccak256\n      0x00\n      swap1\n      sload\n      swap1\n      0x0100\n      exp\n      swap1\n      div\n      0xff\n      and\n        /* \"@openzeppelin/contracts/token/ERC1155/ERC1155.sol\":3473:3517  return _operatorApprovals[account][operator] */\n      swap1\n      pop\n        /* \"@openzeppelin/contracts/token/ERC1155/ERC1155.sol\":3367:3524  function isApprovedForAll(address account, address operator) public view virtual returns (bool) {... */\n      swap3\n      swap2\n      pop\n      pop\n      jump\t// out\n        /* \"@openzeppelin/contracts/token/ERC1155/ERC1155.sol\":3591:3942  function safeTransferFrom(address from, address to, uint256 id, uint256 value, bytes memory data) public virtual {... */\n    tag_84:\n        /* \"@openzeppelin/contracts/token/ERC1155/ERC1155.sol\":3714:3728  address sender */\n      0x00\n        /* \"@openzeppelin/contracts/token/ERC1155/ERC1155.sol\":3731:3743  _msgSender() */\n      tag_175\n        /* \"@openzeppelin/contracts/token/ERC1155/ERC1155.sol\":3731:3741  _msgSender */\n      tag_119\n        /* \"@openzeppelin/contracts/token/ERC1155/ERC1155.sol\":3731:3743  _msgSender() */\n      jump\t// in\n    tag_175:\n        /* \"@openzeppelin/contracts/token/ERC1155/ERC1155.sol\":3714:3743  address sender = _msgSender() */\n      swap1\n      pop\n        /* \"@openzeppelin/contracts/token/ERC1155/ERC1155.sol\":3765:3771  sender */\n      dup1\n        /* \"@openzeppelin/contracts/token/ERC1155/ERC1155.sol\":3757:3771  from != sender */\n      0xffffffffffffffffffffffffffffffffffffffff\n      and\n        /* \"@openzeppelin/contracts/token/ERC1155/ERC1155.sol\":3757:3761  from */\n      dup7\n        /* \"@openzeppelin/contracts/token/ERC1155/ERC1155.sol\":3757:3771  from != sender */\n      0xffffffffffffffffffffffffffffffffffffffff\n      and\n      eq\n      iszero\n        /* \"@openzeppelin/contracts/token/ERC1155/ERC1155.sol\":3757:3806  from != sender && !isApprovedForAll(from, sender) */\n      dup1\n      iszero\n      tag_176\n      jumpi\n      pop\n        /* \"@openzeppelin/contracts/token/ERC1155/ERC1155.sol\":3776:3806  isApprovedForAll(from, sender) */\n      tag_177\n        /* \"@openzeppelin/contracts/token/ERC1155/ERC1155.sol\":3793:3797  from */\n      dup7\n        /* \"@openzeppelin/contracts/token/ERC1155/ERC1155.sol\":3799:3805  sender */\n      dup3\n        /* \"@openzeppelin/contracts/token/ERC1155/ERC1155.sol\":3776:3792  isApprovedForAll */\n      tag_79\n        /* \"@openzeppelin/contracts/token/ERC1155/ERC1155.sol\":3776:3806  isApprovedForAll(from, sender) */\n      jump\t// in\n    tag_177:\n        /* \"@openzeppelin/contracts/token/ERC1155/ERC1155.sol\":3775:3806  !isApprovedForAll(from, sender) */\n      iszero\n        /* \"@openzeppelin/contracts/token/ERC1155/ERC1155.sol\":3757:3806  from != sender && !isApprovedForAll(from, sender) */\n    tag_176:\n        /* \"@openzeppelin/contracts/token/ERC1155/ERC1155.sol\":3753:3882  if (from != sender && !isApprovedForAll(from, sender)) {... */\n      iszero\n      tag_178\n      jumpi\n        /* \"@openzeppelin/contracts/token/ERC1155/ERC1155.sol\":3858:3864  sender */\n      dup1\n        /* \"@openzeppelin/contracts/token/ERC1155/ERC1155.sol\":3866:3870  from */\n      dup7\n        /* \"@openzeppelin/contracts/token/ERC1155/ERC1155.sol\":3829:3871  ERC1155MissingApprovalForAll(sender, from) */\n      mload(0x40)\n      0xe237d92200000000000000000000000000000000000000000000000000000000\n      dup2\n      mstore\n      0x04\n      add\n      tag_179\n      swap3\n      swap2\n      swap1\n      tag_124\n      jump\t// in\n    tag_179:\n      mload(0x40)\n      dup1\n      swap2\n      sub\n      swap1\n      revert\n        /* \"@openzeppelin/contracts/token/ERC1155/ERC1155.sol\":3753:3882  if (from != sender && !isApprovedForAll(from, sender)) {... */\n    tag_178:\n        /* \"@openzeppelin/contracts/token/ERC1155/ERC1155.sol\":3891:3935  _safeTransferFrom(from, to, id, value, data) */\n      tag_180\n        /* \"@openzeppelin/contracts/token/ERC1155/ERC1155.sol\":3909:3913  from */\n      dup7\n        /* \"@openzeppelin/contracts/token/ERC1155/ERC1155.sol\":3915:3917  to */\n      dup7\n        /* \"@openzeppelin/contracts/token/ERC1155/ERC1155.sol\":3919:3921  id */\n      dup7\n        /* \"@openzeppelin/contracts/token/ERC1155/ERC1155.sol\":3923:3928  value */\n      dup7\n        /* \"@openzeppelin/contracts/token/ERC1155/ERC1155.sol\":3930:3934  data */\n      dup7\n        /* \"@openzeppelin/contracts/token/ERC1155/ERC1155.sol\":3891:3908  _safeTransferFrom */\n      tag_181\n        /* \"@openzeppelin/contracts/token/ERC1155/ERC1155.sol\":3891:3935  _safeTransferFrom(from, to, id, value, data) */\n      jump\t// in\n    tag_180:\n        /* \"@openzeppelin/contracts/token/ERC1155/ERC1155.sol\":3704:3942  {... */\n      pop\n        /* \"@openzeppelin/contracts/token/ERC1155/ERC1155.sol\":3591:3942  function safeTransferFrom(address from, address to, uint256 id, uint256 value, bytes memory data) public virtual {... */\n      pop\n      pop\n      pop\n      pop\n      pop\n      jump\t// out\n        /* \"@openzeppelin/contracts/access/Ownable.sol\":2543:2758  function transferOwnership(address newOwner) public virtual onlyOwner {... */\n    tag_88:\n        /* \"@openzeppelin/contracts/access/Ownable.sol\":1531:1544  _checkOwner() */\n      tag_183\n        /* \"@openzeppelin/contracts/access/Ownable.sol\":1531:1542  _checkOwner */\n      tag_101\n        /* \"@openzeppelin/contracts/access/Ownable.sol\":1531:1544  _checkOwner() */\n      jump\t// in\n    tag_183:\n        /* \"@openzeppelin/contracts/access/Ownable.sol\":2647:2648  0 */\n      0x00\n        /* \"@openzeppelin/contracts/access/Ownable.sol\":2627:2649  newOwner == address(0) */\n      0xffffffffffffffffffffffffffffffffffffffff\n      and\n        /* \"@openzeppelin/contracts/access/Ownable.sol\":2627:2635  newOwner */\n      dup2\n        /* \"@openzeppelin/contracts/access/Ownable.sol\":2627:2649  newOwner == address(0) */\n      0xffffffffffffffffffffffffffffffffffffffff\n      and\n      sub\n        /* \"@openzeppelin/contracts/access/Ownable.sol\":2623:2714  if (newOwner == address(0)) {... */\n      tag_185\n      jumpi\n        /* \"@openzeppelin/contracts/access/Ownable.sol\":2700:2701  0 */\n      0x00\n        /* \"@openzeppelin/contracts/access/Ownable.sol\":2672:2703  OwnableInvalidOwner(address(0)) */\n      mload(0x40)\n      0x1e4fbdf700000000000000000000000000000000000000000000000000000000\n      dup2\n      mstore\n      0x04\n      add\n      tag_186\n      swap2\n      swap1\n      tag_71\n      jump\t// in\n    tag_186:\n      mload(0x40)\n      dup1\n      swap2\n      sub\n      swap1\n      revert\n        /* \"@openzeppelin/contracts/access/Ownable.sol\":2623:2714  if (newOwner == address(0)) {... */\n    tag_185:\n        /* \"@openzeppelin/contracts/access/Ownable.sol\":2723:2751  _transferOwnership(newOwner) */\n      tag_187\n        /* \"@openzeppelin/contracts/access/Ownable.sol\":2742:2750  newOwner */\n      dup2\n        /* \"@openzeppelin/contracts/access/Ownable.sol\":2723:2741  _transferOwnership */\n      tag_162\n        /* \"@openzeppelin/contracts/access/Ownable.sol\":2723:2751  _transferOwnership(newOwner) */\n      jump\t// in\n    tag_187:\n        /* \"@openzeppelin/contracts/access/Ownable.sol\":2543:2758  function transferOwnership(address newOwner) public virtual onlyOwner {... */\n      pop\n      jump\t// out\n        /* \"@openzeppelin/contracts/token/ERC1155/extensions/ERC1155Burnable.sol\":394:675  function burn(address account, uint256 id, uint256 value) public virtual {... */\n    tag_92:\n        /* \"@openzeppelin/contracts/token/ERC1155/extensions/ERC1155Burnable.sol\":492:504  _msgSender() */\n      tag_189\n        /* \"@openzeppelin/contracts/token/ERC1155/extensions/ERC1155Burnable.sol\":492:502  _msgSender */\n      tag_119\n        /* \"@openzeppelin/contracts/token/ERC1155/extensions/ERC1155Burnable.sol\":492:504  _msgSender() */\n      jump\t// in\n    tag_189:\n        /* \"@openzeppelin/contracts/token/ERC1155/extensions/ERC1155Burnable.sol\":481:504  account != _msgSender() */\n      0xffffffffffffffffffffffffffffffffffffffff\n      and\n        /* \"@openzeppelin/contracts/token/ERC1155/extensions/ERC1155Burnable.sol\":481:488  account */\n      dup4\n        /* \"@openzeppelin/contracts/token/ERC1155/extensions/ERC1155Burnable.sol\":481:504  account != _msgSender() */\n      0xffffffffffffffffffffffffffffffffffffffff\n      and\n      eq\n      iszero\n        /* \"@openzeppelin/contracts/token/ERC1155/extensions/ERC1155Burnable.sol\":481:548  account != _msgSender() && !isApprovedForAll(account, _msgSender()) */\n      dup1\n      iszero\n      tag_190\n      jumpi\n      pop\n        /* \"@openzeppelin/contracts/token/ERC1155/extensions/ERC1155Burnable.sol\":509:548  isApprovedForAll(account, _msgSender()) */\n      tag_191\n        /* \"@openzeppelin/contracts/token/ERC1155/extensions/ERC1155Burnable.sol\":526:533  account */\n      dup4\n        /* \"@openzeppelin/contracts/token/ERC1155/extensions/ERC1155Burnable.sol\":535:547  _msgSender() */\n      tag_192\n        /* \"@openzeppelin/contracts/token/ERC1155/extensions/ERC1155Burnable.sol\":535:545  _msgSender */\n      tag_119\n        /* \"@openzeppelin/contracts/token/ERC1155/extensions/ERC1155Burnable.sol\":535:547  _msgSender() */\n      jump\t// in\n    tag_192:\n        /* \"@openzeppelin/contracts/token/ERC1155/extensions/ERC1155Burnable.sol\":509:525  isApprovedForAll */\n      tag_79\n        /* \"@openzeppelin/contracts/token/ERC1155/extensions/ERC1155Burnable.sol\":509:548  isApprovedForAll(account, _msgSender()) */\n      jump\t// in\n    tag_191:\n        /* \"@openzeppelin/contracts/token/ERC1155/extensions/ERC1155Burnable.sol\":508:548  !isApprovedForAll(account, _msgSender()) */\n      iszero\n        /* \"@openzeppelin/contracts/token/ERC1155/extensions/ERC1155Burnable.sol\":481:548  account != _msgSender() && !isApprovedForAll(account, _msgSender()) */\n    tag_190:\n        /* \"@openzeppelin/contracts/token/ERC1155/extensions/ERC1155Burnable.sol\":477:633  if (account != _msgSender() && !isApprovedForAll(account, _msgSender())) {... */\n      iszero\n      tag_193\n      jumpi\n        /* \"@openzeppelin/contracts/token/ERC1155/extensions/ERC1155Burnable.sol\":600:612  _msgSender() */\n      tag_194\n        /* \"@openzeppelin/contracts/token/ERC1155/extensions/ERC1155Burnable.sol\":600:610  _msgSender */\n      tag_119\n        /* \"@openzeppelin/contracts/token/ERC1155/extensions/ERC1155Burnable.sol\":600:612  _msgSender() */\n      jump\t// in\n    tag_194:\n        /* \"@openzeppelin/contracts/token/ERC1155/extensions/ERC1155Burnable.sol\":614:621  account */\n      dup4\n        /* \"@openzeppelin/contracts/token/ERC1155/extensions/ERC1155Burnable.sol\":571:622  ERC1155MissingApprovalForAll(_msgSender(), account) */\n      mload(0x40)\n      0xe237d92200000000000000000000000000000000000000000000000000000000\n      dup2\n      mstore\n      0x04\n      add\n      tag_195\n      swap3\n      swap2\n      swap1\n      tag_124\n      jump\t// in\n    tag_195:\n      mload(0x40)\n      dup1\n      swap2\n      sub\n      swap1\n      revert\n        /* \"@openzeppelin/contracts/token/ERC1155/extensions/ERC1155Burnable.sol\":477:633  if (account != _msgSender() && !isApprovedForAll(account, _msgSender())) {... */\n    tag_193:\n        /* \"@openzeppelin/contracts/token/ERC1155/extensions/ERC1155Burnable.sol\":643:668  _burn(account, id, value) */\n      tag_196\n        /* \"@openzeppelin/contracts/token/ERC1155/extensions/ERC1155Burnable.sol\":649:656  account */\n      dup4\n        /* \"@openzeppelin/contracts/token/ERC1155/extensions/ERC1155Burnable.sol\":658:660  id */\n      dup4\n        /* \"@openzeppelin/contracts/token/ERC1155/extensions/ERC1155Burnable.sol\":662:667  value */\n      dup4\n        /* \"@openzeppelin/contracts/token/ERC1155/extensions/ERC1155Burnable.sol\":643:648  _burn */\n      tag_197\n        /* \"@openzeppelin/contracts/token/ERC1155/extensions/ERC1155Burnable.sol\":643:668  _burn(account, id, value) */\n      jump\t// in\n    tag_196:\n        /* \"@openzeppelin/contracts/token/ERC1155/extensions/ERC1155Burnable.sol\":394:675  function burn(address account, uint256 id, uint256 value) public virtual {... */\n      pop\n      pop\n      pop\n      jump\t// out\n        /* \"@openzeppelin/contracts/utils/introspection/ERC165.sol\":762:908  function supportsInterface(bytes4 interfaceId) public view virtual returns (bool) {... */\n    tag_98:\n        /* \"@openzeppelin/contracts/utils/introspection/ERC165.sol\":838:842  bool */\n      0x00\n        /* \"@openzeppelin/contracts/utils/introspection/ERC165.sol\":876:901  type(IERC165).interfaceId */\n      0x01ffc9a700000000000000000000000000000000000000000000000000000000\n        /* \"@openzeppelin/contracts/utils/introspection/ERC165.sol\":861:901  interfaceId == type(IERC165).interfaceId */\n      not(0xffffffffffffffffffffffffffffffffffffffffffffffffffffffff)\n      and\n        /* \"@openzeppelin/contracts/utils/introspection/ERC165.sol\":861:872  interfaceId */\n      dup3\n        /* \"@openzeppelin/contracts/utils/introspection/ERC165.sol\":861:901  interfaceId == type(IERC165).interfaceId */\n      not(0xffffffffffffffffffffffffffffffffffffffffffffffffffffffff)\n      and\n      eq\n        /* \"@openzeppelin/contracts/utils/introspection/ERC165.sol\":854:901  return interfaceId == type(IERC165).interfaceId */\n      swap1\n      pop\n        /* \"@openzeppelin/contracts/utils/introspection/ERC165.sol\":762:908  function supportsInterface(bytes4 interfaceId) public view virtual returns (bool) {... */\n      swap2\n      swap1\n      pop\n      jump\t// out\n        /* \"@openzeppelin/contracts/access/Ownable.sol\":1796:1958  function _checkOwner() internal view virtual {... */\n    tag_101:\n        /* \"@openzeppelin/contracts/access/Ownable.sol\":1866:1878  _msgSender() */\n      tag_200\n        /* \"@openzeppelin/contracts/access/Ownable.sol\":1866:1876  _msgSender */\n      tag_119\n        /* \"@openzeppelin/contracts/access/Ownable.sol\":1866:1878  _msgSender() */\n      jump\t// in\n    tag_200:\n        /* \"@openzeppelin/contracts/access/Ownable.sol\":1855:1878  owner() != _msgSender() */\n      0xffffffffffffffffffffffffffffffffffffffff\n      and\n        /* \"@openzeppelin/contracts/access/Ownable.sol\":1855:1862  owner() */\n      tag_201\n        /* \"@openzeppelin/contracts/access/Ownable.sol\":1855:1860  owner */\n      tag_69\n        /* \"@openzeppelin/contracts/access/Ownable.sol\":1855:1862  owner() */\n      jump\t// in\n    tag_201:\n        /* \"@openzeppelin/contracts/access/Ownable.sol\":1855:1878  owner() != _msgSender() */\n      0xffffffffffffffffffffffffffffffffffffffff\n      and\n      eq\n        /* \"@openzeppelin/contracts/access/Ownable.sol\":1851:1952  if (owner() != _msgSender()) {... */\n      tag_202\n      jumpi\n        /* \"@openzeppelin/contracts/access/Ownable.sol\":1928:1940  _msgSender() */\n      tag_203\n        /* \"@openzeppelin/contracts/access/Ownable.sol\":1928:1938  _msgSender */\n      tag_119\n        /* \"@openzeppelin/contracts/access/Ownable.sol\":1928:1940  _msgSender() */\n      jump\t// in\n    tag_203:\n        /* \"@openzeppelin/contracts/access/Ownable.sol\":1901:1941  OwnableUnauthorizedAccount(_msgSender()) */\n      mload(0x40)\n      0x118cdaa700000000000000000000000000000000000000000000000000000000\n      dup2\n      mstore\n      0x04\n      add\n      tag_204\n      swap2\n      swap1\n      tag_71\n      jump\t// in\n    tag_204:\n      mload(0x40)\n      dup1\n      swap2\n      sub\n      swap1\n      revert\n        /* \"@openzeppelin/contracts/access/Ownable.sol\":1851:1952  if (owner() != _msgSender()) {... */\n    tag_202:\n        /* \"@openzeppelin/contracts/access/Ownable.sol\":1796:1958  function _checkOwner() internal view virtual {... */\n      jump\t// out\n        /* \"@openzeppelin/contracts/token/ERC1155/ERC1155.sol\":10282:10368  function _setURI(string memory newuri) internal virtual {... */\n    tag_104:\n        /* \"@openzeppelin/contracts/token/ERC1155/ERC1155.sol\":10355:10361  newuri */\n      dup1\n        /* \"@openzeppelin/contracts/token/ERC1155/ERC1155.sol\":10348:10352  _uri */\n      0x02\n        /* \"@openzeppelin/contracts/token/ERC1155/ERC1155.sol\":10348:10361  _uri = newuri */\n      swap1\n      dup2\n      tag_206\n      swap2\n      swap1\n      tag_207\n      jump\t// in\n    tag_206:\n      pop\n        /* \"@openzeppelin/contracts/token/ERC1155/ERC1155.sol\":10282:10368  function _setURI(string memory newuri) internal virtual {... */\n      pop\n      jump\t// out\n        /* \"@openzeppelin/contracts/token/ERC1155/ERC1155.sol\":11523:11805  function _mintBatch(address to, uint256[] memory ids, uint256[] memory values, bytes memory data) internal {... */\n    tag_116:\n        /* \"@openzeppelin/contracts/token/ERC1155/ERC1155.sol\":11658:11659  0 */\n      0x00\n        /* \"@openzeppelin/contracts/token/ERC1155/ERC1155.sol\":11644:11660  to == address(0) */\n      0xffffffffffffffffffffffffffffffffffffffff\n      and\n        /* \"@openzeppelin/contracts/token/ERC1155/ERC1155.sol\":11644:11646  to */\n      dup5\n        /* \"@openzeppelin/contracts/token/ERC1155/ERC1155.sol\":11644:11660  to == address(0) */\n      0xffffffffffffffffffffffffffffffffffffffff\n      and\n      sub\n        /* \"@openzeppelin/contracts/token/ERC1155/ERC1155.sol\":11640:11728  if (to == address(0)) {... */\n      tag_209\n      jumpi\n        /* \"@openzeppelin/contracts/token/ERC1155/ERC1155.sol\":11714:11715  0 */\n      0x00\n        /* \"@openzeppelin/contracts/token/ERC1155/ERC1155.sol\":11683:11717  ERC1155InvalidReceiver(address(0)) */\n      mload(0x40)\n      0x57f447ce00000000000000000000000000000000000000000000000000000000\n      dup2\n      mstore\n      0x04\n      add\n      tag_210\n      swap2\n      swap1\n      tag_71\n      jump\t// in\n    tag_210:\n      mload(0x40)\n      dup1\n      swap2\n      sub\n      swap1\n      revert\n        /* \"@openzeppelin/contracts/token/ERC1155/ERC1155.sol\":11640:11728  if (to == address(0)) {... */\n    tag_209:\n        /* \"@openzeppelin/contracts/token/ERC1155/ERC1155.sol\":11737:11798  _updateWithAcceptanceCheck(address(0), to, ids, values, data) */\n      tag_211\n        /* \"@openzeppelin/contracts/token/ERC1155/ERC1155.sol\":11772:11773  0 */\n      0x00\n        /* \"@openzeppelin/contracts/token/ERC1155/ERC1155.sol\":11776:11778  to */\n      dup6\n        /* \"@openzeppelin/contracts/token/ERC1155/ERC1155.sol\":11780:11783  ids */\n      dup6\n        /* \"@openzeppelin/contracts/token/ERC1155/ERC1155.sol\":11785:11791  values */\n      dup6\n        /* \"@openzeppelin/contracts/token/ERC1155/ERC1155.sol\":11793:11797  data */\n      dup6\n        /* \"@openzeppelin/contracts/token/ERC1155/ERC1155.sol\":11737:11763  _updateWithAcceptanceCheck */\n      tag_212\n        /* \"@openzeppelin/contracts/token/ERC1155/ERC1155.sol\":11737:11798  _updateWithAcceptanceCheck(address(0), to, ids, values, data) */\n      jump\t// in\n    tag_211:\n        /* \"@openzeppelin/contracts/token/ERC1155/ERC1155.sol\":11523:11805  function _mintBatch(address to, uint256[] memory ids, uint256[] memory values, bytes memory data) internal {... */\n      pop\n      pop\n      pop\n      pop\n      jump\t// out\n        /* \"@openzeppelin/contracts/utils/Context.sol\":656:752  function _msgSender() internal view virtual returns (address) {... */\n    tag_119:\n        /* \"@openzeppelin/contracts/utils/Context.sol\":709:716  address */\n      0x00\n        /* \"@openzeppelin/contracts/utils/Context.sol\":735:745  msg.sender */\n      caller\n        /* \"@openzeppelin/contracts/utils/Context.sol\":728:745  return msg.sender */\n      swap1\n      pop\n        /* \"@openzeppelin/contracts/utils/Context.sol\":656:752  function _msgSender() internal view virtual returns (address) {... */\n      swap1\n      jump\t// out\n        /* \"@openzeppelin/contracts/token/ERC1155/ERC1155.sol\":9015:9460  function _safeBatchTransferFrom(... */\n    tag_126:\n        /* \"@openzeppelin/contracts/token/ERC1155/ERC1155.sol\":9222:9223  0 */\n      0x00\n        /* \"@openzeppelin/contracts/token/ERC1155/ERC1155.sol\":9208:9224  to == address(0) */\n      0xffffffffffffffffffffffffffffffffffffffff\n      and\n        /* \"@openzeppelin/contracts/token/ERC1155/ERC1155.sol\":9208:9210  to */\n      dup5\n        /* \"@openzeppelin/contracts/token/ERC1155/ERC1155.sol\":9208:9224  to == address(0) */\n      0xffffffffffffffffffffffffffffffffffffffff\n      and\n      sub\n        /* \"@openzeppelin/contracts/token/ERC1155/ERC1155.sol\":9204:9292  if (to == address(0)) {... */\n      tag_215\n      jumpi\n        /* \"@openzeppelin/contracts/token/ERC1155/ERC1155.sol\":9278:9279  0 */\n      0x00\n        /* \"@openzeppelin/contracts/token/ERC1155/ERC1155.sol\":9247:9281  ERC1155InvalidReceiver(address(0)) */\n      mload(0x40)\n      0x57f447ce00000000000000000000000000000000000000000000000000000000\n      dup2\n      mstore\n      0x04\n      add\n      tag_216\n      swap2\n      swap1\n      tag_71\n      jump\t// in\n    tag_216:\n      mload(0x40)\n      dup1\n      swap2\n      sub\n      swap1\n      revert\n        /* \"@openzeppelin/contracts/token/ERC1155/ERC1155.sol\":9204:9292  if (to == address(0)) {... */\n    tag_215:\n        /* \"@openzeppelin/contracts/token/ERC1155/ERC1155.sol\":9321:9322  0 */\n      0x00\n        /* \"@openzeppelin/contracts/token/ERC1155/ERC1155.sol\":9305:9323  from == address(0) */\n      0xffffffffffffffffffffffffffffffffffffffff\n      and\n        /* \"@openzeppelin/contracts/token/ERC1155/ERC1155.sol\":9305:9309  from */\n      dup6\n        /* \"@openzeppelin/contracts/token/ERC1155/ERC1155.sol\":9305:9323  from == address(0) */\n      0xffffffffffffffffffffffffffffffffffffffff\n      and\n      sub\n        /* \"@openzeppelin/contracts/token/ERC1155/ERC1155.sol\":9301:9389  if (from == address(0)) {... */\n      tag_217\n      jumpi\n        /* \"@openzeppelin/contracts/token/ERC1155/ERC1155.sol\":9375:9376  0 */\n      0x00\n        /* \"@openzeppelin/contracts/token/ERC1155/ERC1155.sol\":9346:9378  ERC1155InvalidSender(address(0)) */\n      mload(0x40)\n      0x01a8351400000000000000000000000000000000000000000000000000000000\n      dup2\n      mstore\n      0x04\n      add\n      tag_218\n      swap2\n      swap1\n      tag_71\n      jump\t// in\n    tag_218:\n      mload(0x40)\n      dup1\n      swap2\n      sub\n      swap1\n      revert\n        /* \"@openzeppelin/contracts/token/ERC1155/ERC1155.sol\":9301:9389  if (from == address(0)) {... */\n    tag_217:\n        /* \"@openzeppelin/contracts/token/ERC1155/ERC1155.sol\":9398:9453  _updateWithAcceptanceCheck(from, to, ids, values, data) */\n      tag_219\n        /* \"@openzeppelin/contracts/token/ERC1155/ERC1155.sol\":9425:9429  from */\n      dup6\n        /* \"@openzeppelin/contracts/token/ERC1155/ERC1155.sol\":9431:9433  to */\n      dup6\n        /* \"@openzeppelin/contracts/token/ERC1155/ERC1155.sol\":9435:9438  ids */\n      dup6\n        /* \"@openzeppelin/contracts/token/ERC1155/ERC1155.sol\":9440:9446  values */\n      dup6\n        /* \"@openzeppelin/contracts/token/ERC1155/ERC1155.sol\":9448:9452  data */\n      dup6\n        /* \"@openzeppelin/contracts/token/ERC1155/ERC1155.sol\":9398:9424  _updateWithAcceptanceCheck */\n      tag_212\n        /* \"@openzeppelin/contracts/token/ERC1155/ERC1155.sol\":9398:9453  _updateWithAcceptanceCheck(from, to, ids, values, data) */\n      jump\t// in\n    tag_219:\n        /* \"@openzeppelin/contracts/token/ERC1155/ERC1155.sol\":9015:9460  function _safeBatchTransferFrom(... */\n      pop\n      pop\n      pop\n      pop\n      pop\n      jump\t// out\n        /* \"@openzeppelin/contracts/utils/Arrays.sol\":4603:4800  function unsafeMemoryAccess(address[] memory arr, uint256 pos) internal pure returns (address res) {... */\n    tag_140:\n        /* \"@openzeppelin/contracts/utils/Arrays.sol\":4689:4700  address res */\n      0x00\n        /* \"@openzeppelin/contracts/utils/Arrays.sol\":4777:4781  0x20 */\n      0x20\n        /* \"@openzeppelin/contracts/utils/Arrays.sol\":4772:4775  pos */\n      dup3\n        /* \"@openzeppelin/contracts/utils/Arrays.sol\":4768:4782  mul(pos, 0x20) */\n      mul\n        /* \"@openzeppelin/contracts/utils/Arrays.sol\":4761:4765  0x20 */\n      0x20\n        /* \"@openzeppelin/contracts/utils/Arrays.sol\":4756:4759  arr */\n      dup5\n        /* \"@openzeppelin/contracts/utils/Arrays.sol\":4752:4766  add(arr, 0x20) */\n      add\n        /* \"@openzeppelin/contracts/utils/Arrays.sol\":4748:4783  add(add(arr, 0x20), mul(pos, 0x20)) */\n      add\n        /* \"@openzeppelin/contracts/utils/Arrays.sol\":4742:4784  mload(add(add(arr, 0x20), mul(pos, 0x20))) */\n      mload\n        /* \"@openzeppelin/contracts/utils/Arrays.sol\":4735:4784  res := mload(add(add(arr, 0x20), mul(pos, 0x20))) */\n      swap1\n      pop\n        /* \"@openzeppelin/contracts/utils/Arrays.sol\":4603:4800  function unsafeMemoryAccess(address[] memory arr, uint256 pos) internal pure returns (address res) {... */\n      swap3\n      swap2\n      pop\n      pop\n      jump\t// out\n        /* \"@openzeppelin/contracts/utils/Arrays.sol\":4204:4401  function unsafeMemoryAccess(uint256[] memory arr, uint256 pos) internal pure returns (uint256 res) {... */\n    tag_142:\n        /* \"@openzeppelin/contracts/utils/Arrays.sol\":4290:4301  uint256 res */\n      0x00\n        /* \"@openzeppelin/contracts/utils/Arrays.sol\":4378:4382  0x20 */\n      0x20\n        /* \"@openzeppelin/contracts/utils/Arrays.sol\":4373:4376  pos */\n      dup3\n        /* \"@openzeppelin/contracts/utils/Arrays.sol\":4369:4383  mul(pos, 0x20) */\n      mul\n        /* \"@openzeppelin/contracts/utils/Arrays.sol\":4362:4366  0x20 */\n      0x20\n        /* \"@openzeppelin/contracts/utils/Arrays.sol\":4357:4360  arr */\n      dup5\n        /* \"@openzeppelin/contracts/utils/Arrays.sol\":4353:4367  add(arr, 0x20) */\n      add\n        /* \"@openzeppelin/contracts/utils/Arrays.sol\":4349:4384  add(add(arr, 0x20), mul(pos, 0x20)) */\n      add\n        /* \"@openzeppelin/contracts/utils/Arrays.sol\":4343:4385  mload(add(add(arr, 0x20), mul(pos, 0x20))) */\n      mload\n        /* \"@openzeppelin/contracts/utils/Arrays.sol\":4336:4385  res := mload(add(add(arr, 0x20), mul(pos, 0x20))) */\n      swap1\n      pop\n        /* \"@openzeppelin/contracts/utils/Arrays.sol\":4204:4401  function unsafeMemoryAccess(uint256[] memory arr, uint256 pos) internal pure returns (uint256 res) {... */\n      swap3\n      swap2\n      pop\n      pop\n      jump\t// out\n        /* \"@openzeppelin/contracts/token/ERC1155/ERC1155.sol\":12784:13049  function _burnBatch(address from, uint256[] memory ids, uint256[] memory values) internal {... */\n    tag_157:\n        /* \"@openzeppelin/contracts/token/ERC1155/ERC1155.sol\":12904:12905  0 */\n      0x00\n        /* \"@openzeppelin/contracts/token/ERC1155/ERC1155.sol\":12888:12906  from == address(0) */\n      0xffffffffffffffffffffffffffffffffffffffff\n      and\n        /* \"@openzeppelin/contracts/token/ERC1155/ERC1155.sol\":12888:12892  from */\n      dup4\n        /* \"@openzeppelin/contracts/token/ERC1155/ERC1155.sol\":12888:12906  from == address(0) */\n      0xffffffffffffffffffffffffffffffffffffffff\n      and\n      sub\n        /* \"@openzeppelin/contracts/token/ERC1155/ERC1155.sol\":12884:12972  if (from == address(0)) {... */\n      tag_223\n      jumpi\n        /* \"@openzeppelin/contracts/token/ERC1155/ERC1155.sol\":12958:12959  0 */\n      0x00\n        /* \"@openzeppelin/contracts/token/ERC1155/ERC1155.sol\":12929:12961  ERC1155InvalidSender(address(0)) */\n      mload(0x40)\n      0x01a8351400000000000000000000000000000000000000000000000000000000\n      dup2\n      mstore\n      0x04\n      add\n      tag_224\n      swap2\n      swap1\n      tag_71\n      jump\t// in\n    tag_224:\n      mload(0x40)\n      dup1\n      swap2\n      sub\n      swap1\n      revert\n        /* \"@openzeppelin/contracts/token/ERC1155/ERC1155.sol\":12884:12972  if (from == address(0)) {... */\n    tag_223:\n        /* \"@openzeppelin/contracts/token/ERC1155/ERC1155.sol\":12981:13042  _updateWithAcceptanceCheck(from, address(0), ids, values, \"\") */\n      tag_225\n        /* \"@openzeppelin/contracts/token/ERC1155/ERC1155.sol\":13008:13012  from */\n      dup4\n        /* \"@openzeppelin/contracts/token/ERC1155/ERC1155.sol\":13022:13023  0 */\n      0x00\n        /* \"@openzeppelin/contracts/token/ERC1155/ERC1155.sol\":13026:13029  ids */\n      dup5\n        /* \"@openzeppelin/contracts/token/ERC1155/ERC1155.sol\":13031:13037  values */\n      dup5\n        /* \"@openzeppelin/contracts/token/ERC1155/ERC1155.sol\":12981:13042  _updateWithAcceptanceCheck(from, address(0), ids, values, \"\") */\n      mload(0x40)\n      dup1\n      0x20\n      add\n      0x40\n      mstore\n      dup1\n      0x00\n      dup2\n      mstore\n      pop\n        /* \"@openzeppelin/contracts/token/ERC1155/ERC1155.sol\":12981:13007  _updateWithAcceptanceCheck */\n      tag_212\n        /* \"@openzeppelin/contracts/token/ERC1155/ERC1155.sol\":12981:13042  _updateWithAcceptanceCheck(from, address(0), ids, values, \"\") */\n      jump\t// in\n    tag_225:\n        /* \"@openzeppelin/contracts/token/ERC1155/ERC1155.sol\":12784:13049  function _burnBatch(address from, uint256[] memory ids, uint256[] memory values) internal {... */\n      pop\n      pop\n      pop\n      jump\t// out\n        /* \"@openzeppelin/contracts/access/Ownable.sol\":2912:3099  function _transferOwnership(address newOwner) internal virtual {... */\n    tag_162:\n        /* \"@openzeppelin/contracts/access/Ownable.sol\":2985:3001  address oldOwner */\n      0x00\n        /* \"@openzeppelin/contracts/access/Ownable.sol\":3004:3010  _owner */\n      0x03\n      0x00\n      swap1\n      sload\n      swap1\n      0x0100\n      exp\n      swap1\n      div\n      0xffffffffffffffffffffffffffffffffffffffff\n      and\n        /* \"@openzeppelin/contracts/access/Ownable.sol\":2985:3010  address oldOwner = _owner */\n      swap1\n      pop\n        /* \"@openzeppelin/contracts/access/Ownable.sol\":3029:3037  newOwner */\n      dup2\n        /* \"@openzeppelin/contracts/access/Ownable.sol\":3020:3026  _owner */\n      0x03\n      0x00\n        /* \"@openzeppelin/contracts/access/Ownable.sol\":3020:3037  _owner = newOwner */\n      0x0100\n      exp\n      dup2\n      sload\n      dup2\n      0xffffffffffffffffffffffffffffffffffffffff\n      mul\n      not\n      and\n      swap1\n      dup4\n      0xffffffffffffffffffffffffffffffffffffffff\n      and\n      mul\n      or\n      swap1\n      sstore\n      pop\n        /* \"@openzeppelin/contracts/access/Ownable.sol\":3083:3091  newOwner */\n      dup2\n        /* \"@openzeppelin/contracts/access/Ownable.sol\":3052:3092  OwnershipTransferred(oldOwner, newOwner) */\n      0xffffffffffffffffffffffffffffffffffffffff\n      and\n        /* \"@openzeppelin/contracts/access/Ownable.sol\":3073:3081  oldOwner */\n      dup2\n        /* \"@openzeppelin/contracts/access/Ownable.sol\":3052:3092  OwnershipTransferred(oldOwner, newOwner) */\n      0xffffffffffffffffffffffffffffffffffffffff\n      and\n      0x8be0079c531659141344cd1fd0a4f28419497f9722a3daafe3b4186f6b6457e0\n      mload(0x40)\n      mload(0x40)\n      dup1\n      swap2\n      sub\n      swap1\n      log3\n        /* \"@openzeppelin/contracts/access/Ownable.sol\":2975:3099  {... */\n      pop\n        /* \"@openzeppelin/contracts/access/Ownable.sol\":2912:3099  function _transferOwnership(address newOwner) internal virtual {... */\n      pop\n      jump\t// out\n        /* \"@openzeppelin/contracts/token/ERC1155/ERC1155.sol\":10746:11092  function _mint(address to, uint256 id, uint256 value, bytes memory data) internal {... */\n    tag_167:\n        /* \"@openzeppelin/contracts/token/ERC1155/ERC1155.sol\":10856:10857  0 */\n      0x00\n        /* \"@openzeppelin/contracts/token/ERC1155/ERC1155.sol\":10842:10858  to == address(0) */\n      0xffffffffffffffffffffffffffffffffffffffff\n      and\n        /* \"@openzeppelin/contracts/token/ERC1155/ERC1155.sol\":10842:10844  to */\n      dup5\n        /* \"@openzeppelin/contracts/token/ERC1155/ERC1155.sol\":10842:10858  to == address(0) */\n      0xffffffffffffffffffffffffffffffffffffffff\n      and\n      sub\n        /* \"@openzeppelin/contracts/token/ERC1155/ERC1155.sol\":10838:10926  if (to == address(0)) {... */\n      tag_228\n      jumpi\n        /* \"@openzeppelin/contracts/token/ERC1155/ERC1155.sol\":10912:10913  0 */\n      0x00\n        /* \"@openzeppelin/contracts/token/ERC1155/ERC1155.sol\":10881:10915  ERC1155InvalidReceiver(address(0)) */\n      mload(0x40)\n      0x57f447ce00000000000000000000000000000000000000000000000000000000\n      dup2\n      mstore\n      0x04\n      add\n      tag_229\n      swap2\n      swap1\n      tag_71\n      jump\t// in\n    tag_229:\n      mload(0x40)\n      dup1\n      swap2\n      sub\n      swap1\n      revert\n        /* \"@openzeppelin/contracts/token/ERC1155/ERC1155.sol\":10838:10926  if (to == address(0)) {... */\n    tag_228:\n        /* \"@openzeppelin/contracts/token/ERC1155/ERC1155.sol\":10936:10956  uint256[] memory ids */\n      0x00\n        /* \"@openzeppelin/contracts/token/ERC1155/ERC1155.sol\":10958:10981  uint256[] memory values */\n      dup1\n        /* \"@openzeppelin/contracts/token/ERC1155/ERC1155.sol\":10985:11014  _asSingletonArrays(id, value) */\n      tag_230\n        /* \"@openzeppelin/contracts/token/ERC1155/ERC1155.sol\":11004:11006  id */\n      dup6\n        /* \"@openzeppelin/contracts/token/ERC1155/ERC1155.sol\":11008:11013  value */\n      dup6\n        /* \"@openzeppelin/contracts/token/ERC1155/ERC1155.sol\":10985:11003  _asSingletonArrays */\n      tag_231\n        /* \"@openzeppelin/contracts/token/ERC1155/ERC1155.sol\":10985:11014  _asSingletonArrays(id, value) */\n      jump\t// in\n    tag_230:\n        /* \"@openzeppelin/contracts/token/ERC1155/ERC1155.sol\":10935:11014  (uint256[] memory ids, uint256[] memory values) = _asSingletonArrays(id, value) */\n      swap2\n      pop\n      swap2\n      pop\n        /* \"@openzeppelin/contracts/token/ERC1155/ERC1155.sol\":11024:11085  _updateWithAcceptanceCheck(address(0), to, ids, values, data) */\n      tag_232\n        /* \"@openzeppelin/contracts/token/ERC1155/ERC1155.sol\":11059:11060  0 */\n      0x00\n        /* \"@openzeppelin/contracts/token/ERC1155/ERC1155.sol\":11063:11065  to */\n      dup8\n        /* \"@openzeppelin/contracts/token/ERC1155/ERC1155.sol\":11067:11070  ids */\n      dup5\n        /* \"@openzeppelin/contracts/token/ERC1155/ERC1155.sol\":11072:11078  values */\n      dup5\n        /* \"@openzeppelin/contracts/token/ERC1155/ERC1155.sol\":11080:11084  data */\n      dup8\n        /* \"@openzeppelin/contracts/token/ERC1155/ERC1155.sol\":11024:11050  _updateWithAcceptanceCheck */\n      tag_212\n        /* \"@openzeppelin/contracts/token/ERC1155/ERC1155.sol\":11024:11085  _updateWithAcceptanceCheck(address(0), to, ids, values, data) */\n      jump\t// in\n    tag_232:\n        /* \"@openzeppelin/contracts/token/ERC1155/ERC1155.sol\":10828:11092  {... */\n      pop\n      pop\n        /* \"@openzeppelin/contracts/token/ERC1155/ERC1155.sol\":10746:11092  function _mint(address to, uint256 id, uint256 value, bytes memory data) internal {... */\n      pop\n      pop\n      pop\n      pop\n      jump\t// out\n        /* \"@openzeppelin/contracts/token/ERC1155/ERC1155.sol\":13268:13583  function _setApprovalForAll(address owner, address operator, bool approved) internal virtual {... */\n    tag_172:\n        /* \"@openzeppelin/contracts/token/ERC1155/ERC1155.sol\":13395:13396  0 */\n      0x00\n        /* \"@openzeppelin/contracts/token/ERC1155/ERC1155.sol\":13375:13397  operator == address(0) */\n      0xffffffffffffffffffffffffffffffffffffffff\n      and\n        /* \"@openzeppelin/contracts/token/ERC1155/ERC1155.sol\":13375:13383  operator */\n      dup3\n        /* \"@openzeppelin/contracts/token/ERC1155/ERC1155.sol\":13375:13397  operator == address(0) */\n      0xffffffffffffffffffffffffffffffffffffffff\n      and\n      sub\n        /* \"@openzeppelin/contracts/token/ERC1155/ERC1155.sol\":13371:13465  if (operator == address(0)) {... */\n      tag_234\n      jumpi\n        /* \"@openzeppelin/contracts/token/ERC1155/ERC1155.sol\":13451:13452  0 */\n      0x00\n        /* \"@openzeppelin/contracts/token/ERC1155/ERC1155.sol\":13420:13454  ERC1155InvalidOperator(address(0)) */\n      mload(0x40)\n      0xced3e10000000000000000000000000000000000000000000000000000000000\n      dup2\n      mstore\n      0x04\n      add\n      tag_235\n      swap2\n      swap1\n      tag_71\n      jump\t// in\n    tag_235:\n      mload(0x40)\n      dup1\n      swap2\n      sub\n      swap1\n      revert\n        /* \"@openzeppelin/contracts/token/ERC1155/ERC1155.sol\":13371:13465  if (operator == address(0)) {... */\n    tag_234:\n        /* \"@openzeppelin/contracts/token/ERC1155/ERC1155.sol\":13512:13520  approved */\n      dup1\n        /* \"@openzeppelin/contracts/token/ERC1155/ERC1155.sol\":13474:13492  _operatorApprovals */\n      0x01\n        /* \"@openzeppelin/contracts/token/ERC1155/ERC1155.sol\":13474:13499  _operatorApprovals[owner] */\n      0x00\n        /* \"@openzeppelin/contracts/token/ERC1155/ERC1155.sol\":13493:13498  owner */\n      dup6\n        /* \"@openzeppelin/contracts/token/ERC1155/ERC1155.sol\":13474:13499  _operatorApprovals[owner] */\n      0xffffffffffffffffffffffffffffffffffffffff\n      and\n      0xffffffffffffffffffffffffffffffffffffffff\n      and\n      dup2\n      mstore\n      0x20\n      add\n      swap1\n      dup2\n      mstore\n      0x20\n      add\n      0x00\n      keccak256\n        /* \"@openzeppelin/contracts/token/ERC1155/ERC1155.sol\":13474:13509  _operatorApprovals[owner][operator] */\n      0x00\n        /* \"@openzeppelin/contracts/token/ERC1155/ERC1155.sol\":13500:13508  operator */\n      dup5\n        /* \"@openzeppelin/contracts/token/ERC1155/ERC1155.sol\":13474:13509  _operatorApprovals[owner][operator] */\n      0xffffffffffffffffffffffffffffffffffffffff\n      and\n      0xffffffffffffffffffffffffffffffffffffffff\n      and\n      dup2\n      mstore\n      0x20\n      add\n      swap1\n      dup2\n      mstore\n      0x20\n      add\n      0x00\n      keccak256\n      0x00\n        /* \"@openzeppelin/contracts/token/ERC1155/ERC1155.sol\":13474:13520  _operatorApprovals[owner][operator] = approved */\n      0x0100\n      exp\n      dup2\n      sload\n      dup2\n      0xff\n      mul\n      not\n      and\n      swap1\n      dup4\n      iszero\n      iszero\n      mul\n      or\n      swap1\n      sstore\n      pop\n        /* \"@openzeppelin/contracts/token/ERC1155/ERC1155.sol\":13557:13565  operator */\n      dup2\n        /* \"@openzeppelin/contracts/token/ERC1155/ERC1155.sol\":13535:13576  ApprovalForAll(owner, operator, approved) */\n      0xffffffffffffffffffffffffffffffffffffffff\n      and\n        /* \"@openzeppelin/contracts/token/ERC1155/ERC1155.sol\":13550:13555  owner */\n      dup4\n        /* \"@openzeppelin/contracts/token/ERC1155/ERC1155.sol\":13535:13576  ApprovalForAll(owner, operator, approved) */\n      0xffffffffffffffffffffffffffffffffffffffff\n      and\n      0x17307eab39ab6107e8899845ad3d59bd9653f200f220920489ca2b5937696c31\n        /* \"@openzeppelin/contracts/token/ERC1155/ERC1155.sol\":13567:13575  approved */\n      dup4\n        /* \"@openzeppelin/contracts/token/ERC1155/ERC1155.sol\":13535:13576  ApprovalForAll(owner, operator, approved) */\n      mload(0x40)\n      tag_236\n      swap2\n      swap1\n      tag_33\n      jump\t// in\n    tag_236:\n      mload(0x40)\n      dup1\n      swap2\n      sub\n      swap1\n      log3\n        /* \"@openzeppelin/contracts/token/ERC1155/ERC1155.sol\":13268:13583  function _setApprovalForAll(address owner, address operator, bool approved) internal virtual {... */\n      pop\n      pop\n      pop\n      jump\t// out\n        /* \"@openzeppelin/contracts/token/ERC1155/ERC1155.sol\":8151:8614  function _safeTransferFrom(address from, address to, uint256 id, uint256 value, bytes memory data) internal {... */\n    tag_181:\n        /* \"@openzeppelin/contracts/token/ERC1155/ERC1155.sol\":8287:8288  0 */\n      0x00\n        /* \"@openzeppelin/contracts/token/ERC1155/ERC1155.sol\":8273:8289  to == address(0) */\n      0xffffffffffffffffffffffffffffffffffffffff\n      and\n        /* \"@openzeppelin/contracts/token/ERC1155/ERC1155.sol\":8273:8275  to */\n      dup5\n        /* \"@openzeppelin/contracts/token/ERC1155/ERC1155.sol\":8273:8289  to == address(0) */\n      0xffffffffffffffffffffffffffffffffffffffff\n      and\n      sub\n        /* \"@openzeppelin/contracts/token/ERC1155/ERC1155.sol\":8269:8357  if (to == address(0)) {... */\n      tag_238\n      jumpi\n        /* \"@openzeppelin/contracts/token/ERC1155/ERC1155.sol\":8343:8344  0 */\n      0x00\n        /* \"@openzeppelin/contracts/token/ERC1155/ERC1155.sol\":8312:8346  ERC1155InvalidReceiver(address(0)) */\n      mload(0x40)\n      0x57f447ce00000000000000000000000000000000000000000000000000000000\n      dup2\n      mstore\n      0x04\n      add\n      tag_239\n      swap2\n      swap1\n      tag_71\n      jump\t// in\n    tag_239:\n      mload(0x40)\n      dup1\n      swap2\n      sub\n      swap1\n      revert\n        /* \"@openzeppelin/contracts/token/ERC1155/ERC1155.sol\":8269:8357  if (to == address(0)) {... */\n    tag_238:\n        /* \"@openzeppelin/contracts/token/ERC1155/ERC1155.sol\":8386:8387  0 */\n      0x00\n        /* \"@openzeppelin/contracts/token/ERC1155/ERC1155.sol\":8370:8388  from == address(0) */\n      0xffffffffffffffffffffffffffffffffffffffff\n      and\n        /* \"@openzeppelin/contracts/token/ERC1155/ERC1155.sol\":8370:8374  from */\n      dup6\n        /* \"@openzeppelin/contracts/token/ERC1155/ERC1155.sol\":8370:8388  from == address(0) */\n      0xffffffffffffffffffffffffffffffffffffffff\n      and\n      sub\n        /* \"@openzeppelin/contracts/token/ERC1155/ERC1155.sol\":8366:8454  if (from == address(0)) {... */\n      tag_240\n      jumpi\n        /* \"@openzeppelin/contracts/token/ERC1155/ERC1155.sol\":8440:8441  0 */\n      0x00\n        /* \"@openzeppelin/contracts/token/ERC1155/ERC1155.sol\":8411:8443  ERC1155InvalidSender(address(0)) */\n      mload(0x40)\n      0x01a8351400000000000000000000000000000000000000000000000000000000\n      dup2\n      mstore\n      0x04\n      add\n      tag_241\n      swap2\n      swap1\n      tag_71\n      jump\t// in\n    tag_241:\n      mload(0x40)\n      dup1\n      swap2\n      sub\n      swap1\n      revert\n        /* \"@openzeppelin/contracts/token/ERC1155/ERC1155.sol\":8366:8454  if (from == address(0)) {... */\n    tag_240:\n        /* \"@openzeppelin/contracts/token/ERC1155/ERC1155.sol\":8464:8484  uint256[] memory ids */\n      0x00\n        /* \"@openzeppelin/contracts/token/ERC1155/ERC1155.sol\":8486:8509  uint256[] memory values */\n      dup1\n        /* \"@openzeppelin/contracts/token/ERC1155/ERC1155.sol\":8513:8542  _asSingletonArrays(id, value) */\n      tag_242\n        /* \"@openzeppelin/contracts/token/ERC1155/ERC1155.sol\":8532:8534  id */\n      dup6\n        /* \"@openzeppelin/contracts/token/ERC1155/ERC1155.sol\":8536:8541  value */\n      dup6\n        /* \"@openzeppelin/contracts/token/ERC1155/ERC1155.sol\":8513:8531  _asSingletonArrays */\n      tag_231\n        /* \"@openzeppelin/contracts/token/ERC1155/ERC1155.sol\":8513:8542  _asSingletonArrays(id, value) */\n      jump\t// in\n    tag_242:\n        /* \"@openzeppelin/contracts/token/ERC1155/ERC1155.sol\":8463:8542  (uint256[] memory ids, uint256[] memory values) = _asSingletonArrays(id, value) */\n      swap2\n      pop\n      swap2\n      pop\n        /* \"@openzeppelin/contracts/token/ERC1155/ERC1155.sol\":8552:8607  _updateWithAcceptanceCheck(from, to, ids, values, data) */\n      tag_243\n        /* \"@openzeppelin/contracts/token/ERC1155/ERC1155.sol\":8579:8583  from */\n      dup8\n        /* \"@openzeppelin/contracts/token/ERC1155/ERC1155.sol\":8585:8587  to */\n      dup8\n        /* \"@openzeppelin/contracts/token/ERC1155/ERC1155.sol\":8589:8592  ids */\n      dup5\n        /* \"@openzeppelin/contracts/token/ERC1155/ERC1155.sol\":8594:8600  values */\n      dup5\n        /* \"@openzeppelin/contracts/token/ERC1155/ERC1155.sol\":8602:8606  data */\n      dup8\n        /* \"@openzeppelin/contracts/token/ERC1155/ERC1155.sol\":8552:8578  _updateWithAcceptanceCheck */\n      tag_212\n        /* \"@openzeppelin/contracts/token/ERC1155/ERC1155.sol\":8552:8607  _updateWithAcceptanceCheck(from, to, ids, values, data) */\n      jump\t// in\n    tag_243:\n        /* \"@openzeppelin/contracts/token/ERC1155/ERC1155.sol\":8259:8614  {... */\n      pop\n      pop\n        /* \"@openzeppelin/contracts/token/ERC1155/ERC1155.sol\":8151:8614  function _safeTransferFrom(address from, address to, uint256 id, uint256 value, bytes memory data) internal {... */\n      pop\n      pop\n      pop\n      pop\n      pop\n      jump\t// out\n        /* \"@openzeppelin/contracts/token/ERC1155/ERC1155.sol\":12099:12428  function _burn(address from, uint256 id, uint256 value) internal {... */\n    tag_197:\n        /* \"@openzeppelin/contracts/token/ERC1155/ERC1155.sol\":12194:12195  0 */\n      0x00\n        /* \"@openzeppelin/contracts/token/ERC1155/ERC1155.sol\":12178:12196  from == address(0) */\n      0xffffffffffffffffffffffffffffffffffffffff\n      and\n        /* \"@openzeppelin/contracts/token/ERC1155/ERC1155.sol\":12178:12182  from */\n      dup4\n        /* \"@openzeppelin/contracts/token/ERC1155/ERC1155.sol\":12178:12196  from == address(0) */\n      0xffffffffffffffffffffffffffffffffffffffff\n      and\n      sub\n        /* \"@openzeppelin/contracts/token/ERC1155/ERC1155.sol\":12174:12262  if (from == address(0)) {... */\n      tag_245\n      jumpi\n        /* \"@openzeppelin/contracts/token/ERC1155/ERC1155.sol\":12248:12249  0 */\n      0x00\n        /* \"@openzeppelin/contracts/token/ERC1155/ERC1155.sol\":12219:12251  ERC1155InvalidSender(address(0)) */\n      mload(0x40)\n      0x01a8351400000000000000000000000000000000000000000000000000000000\n      dup2\n      mstore\n      0x04\n      add\n      tag_246\n      swap2\n      swap1\n      tag_71\n      jump\t// in\n    tag_246:\n      mload(0x40)\n      dup1\n      swap2\n      sub\n      swap1\n      revert\n        /* \"@openzeppelin/contracts/token/ERC1155/ERC1155.sol\":12174:12262  if (from == address(0)) {... */\n    tag_245:\n        /* \"@openzeppelin/contracts/token/ERC1155/ERC1155.sol\":12272:12292  uint256[] memory ids */\n      0x00\n        /* \"@openzeppelin/contracts/token/ERC1155/ERC1155.sol\":12294:12317  uint256[] memory values */\n      dup1\n        /* \"@openzeppelin/contracts/token/ERC1155/ERC1155.sol\":12321:12350  _asSingletonArrays(id, value) */\n      tag_247\n        /* \"@openzeppelin/contracts/token/ERC1155/ERC1155.sol\":12340:12342  id */\n      dup5\n        /* \"@openzeppelin/contracts/token/ERC1155/ERC1155.sol\":12344:12349  value */\n      dup5\n        /* \"@openzeppelin/contracts/token/ERC1155/ERC1155.sol\":12321:12339  _asSingletonArrays */\n      tag_231\n        /* \"@openzeppelin/contracts/token/ERC1155/ERC1155.sol\":12321:12350  _asSingletonArrays(id, value) */\n      jump\t// in\n    tag_247:\n        /* \"@openzeppelin/contracts/token/ERC1155/ERC1155.sol\":12271:12350  (uint256[] memory ids, uint256[] memory values) = _asSingletonArrays(id, value) */\n      swap2\n      pop\n      swap2\n      pop\n        /* \"@openzeppelin/contracts/token/ERC1155/ERC1155.sol\":12360:12421  _updateWithAcceptanceCheck(from, address(0), ids, values, \"\") */\n      tag_248\n        /* \"@openzeppelin/contracts/token/ERC1155/ERC1155.sol\":12387:12391  from */\n      dup6\n        /* \"@openzeppelin/contracts/token/ERC1155/ERC1155.sol\":12401:12402  0 */\n      0x00\n        /* \"@openzeppelin/contracts/token/ERC1155/ERC1155.sol\":12405:12408  ids */\n      dup5\n        /* \"@openzeppelin/contracts/token/ERC1155/ERC1155.sol\":12410:12416  values */\n      dup5\n        /* \"@openzeppelin/contracts/token/ERC1155/ERC1155.sol\":12360:12421  _updateWithAcceptanceCheck(from, address(0), ids, values, \"\") */\n      mload(0x40)\n      dup1\n      0x20\n      add\n      0x40\n      mstore\n      dup1\n      0x00\n      dup2\n      mstore\n      pop\n        /* \"@openzeppelin/contracts/token/ERC1155/ERC1155.sol\":12360:12386  _updateWithAcceptanceCheck */\n      tag_212\n        /* \"@openzeppelin/contracts/token/ERC1155/ERC1155.sol\":12360:12421  _updateWithAcceptanceCheck(from, address(0), ids, values, \"\") */\n      jump\t// in\n    tag_248:\n        /* \"@openzeppelin/contracts/token/ERC1155/ERC1155.sol\":12164:12428  {... */\n      pop\n      pop\n        /* \"@openzeppelin/contracts/token/ERC1155/ERC1155.sol\":12099:12428  function _burn(address from, uint256 id, uint256 value) internal {... */\n      pop\n      pop\n      pop\n      jump\t// out\n        /* \"@openzeppelin/contracts/token/ERC1155/ERC1155.sol\":7004:7694  function _updateWithAcceptanceCheck(... */\n    tag_212:\n        /* \"@openzeppelin/contracts/token/ERC1155/ERC1155.sol\":7205:7235  _update(from, to, ids, values) */\n      tag_250\n        /* \"@openzeppelin/contracts/token/ERC1155/ERC1155.sol\":7213:7217  from */\n      dup6\n        /* \"@openzeppelin/contracts/token/ERC1155/ERC1155.sol\":7219:7221  to */\n      dup6\n        /* \"@openzeppelin/contracts/token/ERC1155/ERC1155.sol\":7223:7226  ids */\n      dup6\n        /* \"@openzeppelin/contracts/token/ERC1155/ERC1155.sol\":7228:7234  values */\n      dup6\n        /* \"@openzeppelin/contracts/token/ERC1155/ERC1155.sol\":7205:7212  _update */\n      tag_251\n        /* \"@openzeppelin/contracts/token/ERC1155/ERC1155.sol\":7205:7235  _update(from, to, ids, values) */\n      jump\t// in\n    tag_250:\n        /* \"@openzeppelin/contracts/token/ERC1155/ERC1155.sol\":7263:7264  0 */\n      0x00\n        /* \"@openzeppelin/contracts/token/ERC1155/ERC1155.sol\":7249:7265  to != address(0) */\n      0xffffffffffffffffffffffffffffffffffffffff\n      and\n        /* \"@openzeppelin/contracts/token/ERC1155/ERC1155.sol\":7249:7251  to */\n      dup5\n        /* \"@openzeppelin/contracts/token/ERC1155/ERC1155.sol\":7249:7265  to != address(0) */\n      0xffffffffffffffffffffffffffffffffffffffff\n      and\n      eq\n        /* \"@openzeppelin/contracts/token/ERC1155/ERC1155.sol\":7245:7688  if (to != address(0)) {... */\n      tag_252\n      jumpi\n        /* \"@openzeppelin/contracts/token/ERC1155/ERC1155.sol\":7281:7297  address operator */\n      0x00\n        /* \"@openzeppelin/contracts/token/ERC1155/ERC1155.sol\":7300:7312  _msgSender() */\n      tag_253\n        /* \"@openzeppelin/contracts/token/ERC1155/ERC1155.sol\":7300:7310  _msgSender */\n      tag_119\n        /* \"@openzeppelin/contracts/token/ERC1155/ERC1155.sol\":7300:7312  _msgSender() */\n      jump\t// in\n    tag_253:\n        /* \"@openzeppelin/contracts/token/ERC1155/ERC1155.sol\":7281:7312  address operator = _msgSender() */\n      swap1\n      pop\n        /* \"@openzeppelin/contracts/token/ERC1155/ERC1155.sol\":7344:7345  1 */\n      0x01\n        /* \"@openzeppelin/contracts/token/ERC1155/ERC1155.sol\":7330:7333  ids */\n      dup5\n        /* \"@openzeppelin/contracts/token/ERC1155/ERC1155.sol\":7330:7340  ids.length */\n      mload\n        /* \"@openzeppelin/contracts/token/ERC1155/ERC1155.sol\":7330:7345  ids.length == 1 */\n      sub\n        /* \"@openzeppelin/contracts/token/ERC1155/ERC1155.sol\":7326:7678  if (ids.length == 1) {... */\n      tag_254\n      jumpi\n        /* \"@openzeppelin/contracts/token/ERC1155/ERC1155.sol\":7365:7375  uint256 id */\n      0x00\n        /* \"@openzeppelin/contracts/token/ERC1155/ERC1155.sol\":7378:7403  ids.unsafeMemoryAccess(0) */\n      tag_255\n        /* \"@openzeppelin/contracts/token/ERC1155/ERC1155.sol\":7401:7402  0 */\n      0x00\n        /* \"@openzeppelin/contracts/token/ERC1155/ERC1155.sol\":7378:7381  ids */\n      dup7\n        /* \"@openzeppelin/contracts/token/ERC1155/ERC1155.sol\":7378:7400  ids.unsafeMemoryAccess */\n      tag_142\n      swap1\n        /* \"@openzeppelin/contracts/token/ERC1155/ERC1155.sol\":7378:7403  ids.unsafeMemoryAccess(0) */\n      swap2\n      swap1\n      0xffffffff\n      and\n      jump\t// in\n    tag_255:\n        /* \"@openzeppelin/contracts/token/ERC1155/ERC1155.sol\":7365:7403  uint256 id = ids.unsafeMemoryAccess(0) */\n      swap1\n      pop\n        /* \"@openzeppelin/contracts/token/ERC1155/ERC1155.sol\":7421:7434  uint256 value */\n      0x00\n        /* \"@openzeppelin/contracts/token/ERC1155/ERC1155.sol\":7437:7465  values.unsafeMemoryAccess(0) */\n      tag_256\n        /* \"@openzeppelin/contracts/token/ERC1155/ERC1155.sol\":7463:7464  0 */\n      0x00\n        /* \"@openzeppelin/contracts/token/ERC1155/ERC1155.sol\":7437:7443  values */\n      dup7\n        /* \"@openzeppelin/contracts/token/ERC1155/ERC1155.sol\":7437:7462  values.unsafeMemoryAccess */\n      tag_142\n      swap1\n        /* \"@openzeppelin/contracts/token/ERC1155/ERC1155.sol\":7437:7465  values.unsafeMemoryAccess(0) */\n      swap2\n      swap1\n      0xffffffff\n      and\n      jump\t// in\n    tag_256:\n        /* \"@openzeppelin/contracts/token/ERC1155/ERC1155.sol\":7421:7465  uint256 value = values.unsafeMemoryAccess(0) */\n      swap1\n      pop\n        /* \"@openzeppelin/contracts/token/ERC1155/ERC1155.sol\":7483:7550  _doSafeTransferAcceptanceCheck(operator, from, to, id, value, data) */\n      tag_257\n        /* \"@openzeppelin/contracts/token/ERC1155/ERC1155.sol\":7514:7522  operator */\n      dup4\n        /* \"@openzeppelin/contracts/token/ERC1155/ERC1155.sol\":7524:7528  from */\n      dup10\n        /* \"@openzeppelin/contracts/token/ERC1155/ERC1155.sol\":7530:7532  to */\n      dup10\n        /* \"@openzeppelin/contracts/token/ERC1155/ERC1155.sol\":7534:7536  id */\n      dup6\n        /* \"@openzeppelin/contracts/token/ERC1155/ERC1155.sol\":7538:7543  value */\n      dup6\n        /* \"@openzeppelin/contracts/token/ERC1155/ERC1155.sol\":7545:7549  data */\n      dup10\n        /* \"@openzeppelin/contracts/token/ERC1155/ERC1155.sol\":7483:7513  _doSafeTransferAcceptanceCheck */\n      tag_258\n        /* \"@openzeppelin/contracts/token/ERC1155/ERC1155.sol\":7483:7550  _doSafeTransferAcceptanceCheck(operator, from, to, id, value, data) */\n      jump\t// in\n    tag_257:\n        /* \"@openzeppelin/contracts/token/ERC1155/ERC1155.sol\":7347:7565  {... */\n      pop\n      pop\n        /* \"@openzeppelin/contracts/token/ERC1155/ERC1155.sol\":7326:7678  if (ids.length == 1) {... */\n      jump(tag_259)\n    tag_254:\n        /* \"@openzeppelin/contracts/token/ERC1155/ERC1155.sol\":7589:7663  _doSafeBatchTransferAcceptanceCheck(operator, from, to, ids, values, data) */\n      tag_260\n        /* \"@openzeppelin/contracts/token/ERC1155/ERC1155.sol\":7625:7633  operator */\n      dup2\n        /* \"@openzeppelin/contracts/token/ERC1155/ERC1155.sol\":7635:7639  from */\n      dup8\n        /* \"@openzeppelin/contracts/token/ERC1155/ERC1155.sol\":7641:7643  to */\n      dup8\n        /* \"@openzeppelin/contracts/token/ERC1155/ERC1155.sol\":7645:7648  ids */\n      dup8\n        /* \"@openzeppelin/contracts/token/ERC1155/ERC1155.sol\":7650:7656  values */\n      dup8\n        /* \"@openzeppelin/contracts/token/ERC1155/ERC1155.sol\":7658:7662  data */\n      dup8\n        /* \"@openzeppelin/contracts/token/ERC1155/ERC1155.sol\":7589:7624  _doSafeBatchTransferAcceptanceCheck */\n      tag_261\n        /* \"@openzeppelin/contracts/token/ERC1155/ERC1155.sol\":7589:7663  _doSafeBatchTransferAcceptanceCheck(operator, from, to, ids, values, data) */\n      jump\t// in\n    tag_260:\n        /* \"@openzeppelin/contracts/token/ERC1155/ERC1155.sol\":7326:7678  if (ids.length == 1) {... */\n    tag_259:\n        /* \"@openzeppelin/contracts/token/ERC1155/ERC1155.sol\":7267:7688  {... */\n      pop\n        /* \"@openzeppelin/contracts/token/ERC1155/ERC1155.sol\":7245:7688  if (to != address(0)) {... */\n    tag_252:\n        /* \"@openzeppelin/contracts/token/ERC1155/ERC1155.sol\":7004:7694  function _updateWithAcceptanceCheck(... */\n      pop\n      pop\n      pop\n      pop\n      pop\n      jump\t// out\n        /* \"@openzeppelin/contracts/token/ERC1155/ERC1155.sol\":16080:16929  function _asSingletonArrays(... */\n    tag_231:\n        /* \"@openzeppelin/contracts/token/ERC1155/ERC1155.sol\":16188:16211  uint256[] memory array1 */\n      0x60\n        /* \"@openzeppelin/contracts/token/ERC1155/ERC1155.sol\":16213:16236  uint256[] memory array2 */\n      dup1\n        /* \"@openzeppelin/contracts/token/ERC1155/ERC1155.sol\":16374:16378  0x40 */\n      0x40\n        /* \"@openzeppelin/contracts/token/ERC1155/ERC1155.sol\":16368:16379  mload(0x40) */\n      mload\n        /* \"@openzeppelin/contracts/token/ERC1155/ERC1155.sol\":16358:16379  array1 := mload(0x40) */\n      swap2\n      pop\n        /* \"@openzeppelin/contracts/token/ERC1155/ERC1155.sol\":16444:16445  1 */\n      0x01\n        /* \"@openzeppelin/contracts/token/ERC1155/ERC1155.sol\":16436:16442  array1 */\n      dup3\n        /* \"@openzeppelin/contracts/token/ERC1155/ERC1155.sol\":16429:16446  mstore(array1, 1) */\n      mstore\n        /* \"@openzeppelin/contracts/token/ERC1155/ERC1155.sol\":16582:16590  element1 */\n      dup4\n        /* \"@openzeppelin/contracts/token/ERC1155/ERC1155.sol\":16575:16579  0x20 */\n      0x20\n        /* \"@openzeppelin/contracts/token/ERC1155/ERC1155.sol\":16567:16573  array1 */\n      dup4\n        /* \"@openzeppelin/contracts/token/ERC1155/ERC1155.sol\":16563:16580  add(array1, 0x20) */\n      add\n        /* \"@openzeppelin/contracts/token/ERC1155/ERC1155.sol\":16556:16591  mstore(add(array1, 0x20), element1) */\n      mstore\n        /* \"@openzeppelin/contracts/token/ERC1155/ERC1155.sol\":16704:16708  0x40 */\n      0x40\n        /* \"@openzeppelin/contracts/token/ERC1155/ERC1155.sol\":16696:16702  array1 */\n      dup3\n        /* \"@openzeppelin/contracts/token/ERC1155/ERC1155.sol\":16692:16709  add(array1, 0x40) */\n      add\n        /* \"@openzeppelin/contracts/token/ERC1155/ERC1155.sol\":16682:16709  array2 := add(array1, 0x40) */\n      swap1\n      pop\n        /* \"@openzeppelin/contracts/token/ERC1155/ERC1155.sol\":16737:16738  1 */\n      0x01\n        /* \"@openzeppelin/contracts/token/ERC1155/ERC1155.sol\":16729:16735  array2 */\n      dup2\n        /* \"@openzeppelin/contracts/token/ERC1155/ERC1155.sol\":16722:16739  mstore(array2, 1) */\n      mstore\n        /* \"@openzeppelin/contracts/token/ERC1155/ERC1155.sol\":16778:16786  element2 */\n      dup3\n        /* \"@openzeppelin/contracts/token/ERC1155/ERC1155.sol\":16771:16775  0x20 */\n      0x20\n        /* \"@openzeppelin/contracts/token/ERC1155/ERC1155.sol\":16763:16769  array2 */\n      dup3\n        /* \"@openzeppelin/contracts/token/ERC1155/ERC1155.sol\":16759:16776  add(array2, 0x20) */\n      add\n        /* \"@openzeppelin/contracts/token/ERC1155/ERC1155.sol\":16752:16787  mstore(add(array2, 0x20), element2) */\n      mstore\n        /* \"@openzeppelin/contracts/token/ERC1155/ERC1155.sol\":16907:16911  0x40 */\n      0x40\n        /* \"@openzeppelin/contracts/token/ERC1155/ERC1155.sol\":16899:16905  array2 */\n      dup2\n        /* \"@openzeppelin/contracts/token/ERC1155/ERC1155.sol\":16895:16912  add(array2, 0x40) */\n      add\n        /* \"@openzeppelin/contracts/token/ERC1155/ERC1155.sol\":16889:16893  0x40 */\n      0x40\n        /* \"@openzeppelin/contracts/token/ERC1155/ERC1155.sol\":16882:16913  mstore(0x40, add(array2, 0x40)) */\n      mstore\n        /* \"@openzeppelin/contracts/token/ERC1155/ERC1155.sol\":16080:16929  function _asSingletonArrays(... */\n      swap3\n      pop\n      swap3\n      swap1\n      pop\n      jump\t// out\n        /* \"@openzeppelin/contracts/token/ERC1155/ERC1155.sol\":5144:6425  function _update(address from, address to, uint256[] memory ids, uint256[] memory values) internal virtual {... */\n    tag_251:\n        /* \"@openzeppelin/contracts/token/ERC1155/ERC1155.sol\":5279:5285  values */\n      dup1\n        /* \"@openzeppelin/contracts/token/ERC1155/ERC1155.sol\":5279:5292  values.length */\n      mload\n        /* \"@openzeppelin/contracts/token/ERC1155/ERC1155.sol\":5265:5268  ids */\n      dup3\n        /* \"@openzeppelin/contracts/token/ERC1155/ERC1155.sol\":5265:5275  ids.length */\n      mload\n        /* \"@openzeppelin/contracts/token/ERC1155/ERC1155.sol\":5265:5292  ids.length != values.length */\n      eq\n        /* \"@openzeppelin/contracts/token/ERC1155/ERC1155.sol\":5261:5378  if (ids.length != values.length) {... */\n      tag_264\n      jumpi\n        /* \"@openzeppelin/contracts/token/ERC1155/ERC1155.sol\":5341:5344  ids */\n      dup2\n        /* \"@openzeppelin/contracts/token/ERC1155/ERC1155.sol\":5341:5351  ids.length */\n      mload\n        /* \"@openzeppelin/contracts/token/ERC1155/ERC1155.sol\":5353:5359  values */\n      dup2\n        /* \"@openzeppelin/contracts/token/ERC1155/ERC1155.sol\":5353:5366  values.length */\n      mload\n        /* \"@openzeppelin/contracts/token/ERC1155/ERC1155.sol\":5315:5367  ERC1155InvalidArrayLength(ids.length, values.length) */\n      mload(0x40)\n      0x5b05999100000000000000000000000000000000000000000000000000000000\n      dup2\n      mstore\n      0x04\n      add\n      tag_265\n      swap3\n      swap2\n      swap1\n      tag_130\n      jump\t// in\n    tag_265:\n      mload(0x40)\n      dup1\n      swap2\n      sub\n      swap1\n      revert\n        /* \"@openzeppelin/contracts/token/ERC1155/ERC1155.sol\":5261:5378  if (ids.length != values.length) {... */\n    tag_264:\n        /* \"@openzeppelin/contracts/token/ERC1155/ERC1155.sol\":5388:5404  address operator */\n      0x00\n        /* \"@openzeppelin/contracts/token/ERC1155/ERC1155.sol\":5407:5419  _msgSender() */\n      tag_266\n        /* \"@openzeppelin/contracts/token/ERC1155/ERC1155.sol\":5407:5417  _msgSender */\n      tag_119\n        /* \"@openzeppelin/contracts/token/ERC1155/ERC1155.sol\":5407:5419  _msgSender() */\n      jump\t// in\n    tag_266:\n        /* \"@openzeppelin/contracts/token/ERC1155/ERC1155.sol\":5388:5419  address operator = _msgSender() */\n      swap1\n      pop\n        /* \"@openzeppelin/contracts/token/ERC1155/ERC1155.sol\":5435:5444  uint256 i */\n      0x00\n        /* \"@openzeppelin/contracts/token/ERC1155/ERC1155.sol\":5430:6121  for (uint256 i = 0; i < ids.length; ++i) {... */\n    tag_267:\n        /* \"@openzeppelin/contracts/token/ERC1155/ERC1155.sol\":5454:5457  ids */\n      dup4\n        /* \"@openzeppelin/contracts/token/ERC1155/ERC1155.sol\":5454:5464  ids.length */\n      mload\n        /* \"@openzeppelin/contracts/token/ERC1155/ERC1155.sol\":5450:5451  i */\n      dup2\n        /* \"@openzeppelin/contracts/token/ERC1155/ERC1155.sol\":5450:5464  i < ids.length */\n      lt\n        /* \"@openzeppelin/contracts/token/ERC1155/ERC1155.sol\":5430:6121  for (uint256 i = 0; i < ids.length; ++i) {... */\n      iszero\n      tag_268\n      jumpi\n        /* \"@openzeppelin/contracts/token/ERC1155/ERC1155.sol\":5485:5495  uint256 id */\n      0x00\n        /* \"@openzeppelin/contracts/token/ERC1155/ERC1155.sol\":5498:5523  ids.unsafeMemoryAccess(i) */\n      tag_270\n        /* \"@openzeppelin/contracts/token/ERC1155/ERC1155.sol\":5521:5522  i */\n      dup3\n        /* \"@openzeppelin/contracts/token/ERC1155/ERC1155.sol\":5498:5501  ids */\n      dup7\n        /* \"@openzeppelin/contracts/token/ERC1155/ERC1155.sol\":5498:5520  ids.unsafeMemoryAccess */\n      tag_142\n      swap1\n        /* \"@openzeppelin/contracts/token/ERC1155/ERC1155.sol\":5498:5523  ids.unsafeMemoryAccess(i) */\n      swap2\n      swap1\n      0xffffffff\n      and\n      jump\t// in\n    tag_270:\n        /* \"@openzeppelin/contracts/token/ERC1155/ERC1155.sol\":5485:5523  uint256 id = ids.unsafeMemoryAccess(i) */\n      swap1\n      pop\n        /* \"@openzeppelin/contracts/token/ERC1155/ERC1155.sol\":5537:5550  uint256 value */\n      0x00\n        /* \"@openzeppelin/contracts/token/ERC1155/ERC1155.sol\":5553:5581  values.unsafeMemoryAccess(i) */\n      tag_271\n        /* \"@openzeppelin/contracts/token/ERC1155/ERC1155.sol\":5579:5580  i */\n      dup4\n        /* \"@openzeppelin/contracts/token/ERC1155/ERC1155.sol\":5553:5559  values */\n      dup7\n        /* \"@openzeppelin/contracts/token/ERC1155/ERC1155.sol\":5553:5578  values.unsafeMemoryAccess */\n      tag_142\n      swap1\n        /* \"@openzeppelin/contracts/token/ERC1155/ERC1155.sol\":5553:5581  values.unsafeMemoryAccess(i) */\n      swap2\n      swap1\n      0xffffffff\n      and\n      jump\t// in\n    tag_271:\n        /* \"@openzeppelin/contracts/token/ERC1155/ERC1155.sol\":5537:5581  uint256 value = values.unsafeMemoryAccess(i) */\n      swap1\n      pop\n        /* \"@openzeppelin/contracts/token/ERC1155/ERC1155.sol\":5616:5617  0 */\n      0x00\n        /* \"@openzeppelin/contracts/token/ERC1155/ERC1155.sol\":5600:5618  from != address(0) */\n      0xffffffffffffffffffffffffffffffffffffffff\n      and\n        /* \"@openzeppelin/contracts/token/ERC1155/ERC1155.sol\":5600:5604  from */\n      dup9\n        /* \"@openzeppelin/contracts/token/ERC1155/ERC1155.sol\":5600:5618  from != address(0) */\n      0xffffffffffffffffffffffffffffffffffffffff\n      and\n      eq\n        /* \"@openzeppelin/contracts/token/ERC1155/ERC1155.sol\":5596:6016  if (from != address(0)) {... */\n      tag_272\n      jumpi\n        /* \"@openzeppelin/contracts/token/ERC1155/ERC1155.sol\":5638:5657  uint256 fromBalance */\n      0x00\n        /* \"@openzeppelin/contracts/token/ERC1155/ERC1155.sol\":5660:5669  _balances */\n      dup1\n        /* \"@openzeppelin/contracts/token/ERC1155/ERC1155.sol\":5660:5673  _balances[id] */\n      0x00\n        /* \"@openzeppelin/contracts/token/ERC1155/ERC1155.sol\":5670:5672  id */\n      dup5\n        /* \"@openzeppelin/contracts/token/ERC1155/ERC1155.sol\":5660:5673  _balances[id] */\n      dup2\n      mstore\n      0x20\n      add\n      swap1\n      dup2\n      mstore\n      0x20\n      add\n      0x00\n      keccak256\n        /* \"@openzeppelin/contracts/token/ERC1155/ERC1155.sol\":5660:5679  _balances[id][from] */\n      0x00\n        /* \"@openzeppelin/contracts/token/ERC1155/ERC1155.sol\":5674:5678  from */\n      dup11\n        /* \"@openzeppelin/contracts/token/ERC1155/ERC1155.sol\":5660:5679  _balances[id][from] */\n      0xffffffffffffffffffffffffffffffffffffffff\n      and\n      0xffffffffffffffffffffffffffffffffffffffff\n      and\n      dup2\n      mstore\n      0x20\n      add\n      swap1\n      dup2\n      mstore\n      0x20\n      add\n      0x00\n      keccak256\n      sload\n        /* \"@openzeppelin/contracts/token/ERC1155/ERC1155.sol\":5638:5679  uint256 fromBalance = _balances[id][from] */\n      swap1\n      pop\n        /* \"@openzeppelin/contracts/token/ERC1155/ERC1155.sol\":5715:5720  value */\n      dup2\n        /* \"@openzeppelin/contracts/token/ERC1155/ERC1155.sol\":5701:5712  fromBalance */\n      dup2\n        /* \"@openzeppelin/contracts/token/ERC1155/ERC1155.sol\":5701:5720  fromBalance < value */\n      lt\n        /* \"@openzeppelin/contracts/token/ERC1155/ERC1155.sol\":5697:5826  if (fromBalance < value) {... */\n      iszero\n      tag_273\n      jumpi\n        /* \"@openzeppelin/contracts/token/ERC1155/ERC1155.sol\":5778:5782  from */\n      dup9\n        /* \"@openzeppelin/contracts/token/ERC1155/ERC1155.sol\":5784:5795  fromBalance */\n      dup2\n        /* \"@openzeppelin/contracts/token/ERC1155/ERC1155.sol\":5797:5802  value */\n      dup4\n        /* \"@openzeppelin/contracts/token/ERC1155/ERC1155.sol\":5804:5806  id */\n      dup6\n        /* \"@openzeppelin/contracts/token/ERC1155/ERC1155.sol\":5751:5807  ERC1155InsufficientBalance(from, fromBalance, value, id) */\n      mload(0x40)\n      0x03dee4c500000000000000000000000000000000000000000000000000000000\n      dup2\n      mstore\n      0x04\n      add\n      tag_274\n      swap5\n      swap4\n      swap3\n      swap2\n      swap1\n      tag_275\n      jump\t// in\n    tag_274:\n      mload(0x40)\n      dup1\n      swap2\n      sub\n      swap1\n      revert\n        /* \"@openzeppelin/contracts/token/ERC1155/ERC1155.sol\":5697:5826  if (fromBalance < value) {... */\n    tag_273:\n        /* \"@openzeppelin/contracts/token/ERC1155/ERC1155.sol\":5978:5983  value */\n      dup2\n        /* \"@openzeppelin/contracts/token/ERC1155/ERC1155.sol\":5964:5975  fromBalance */\n      dup2\n        /* \"@openzeppelin/contracts/token/ERC1155/ERC1155.sol\":5964:5983  fromBalance - value */\n      sub\n        /* \"@openzeppelin/contracts/token/ERC1155/ERC1155.sol\":5942:5951  _balances */\n      0x00\n        /* \"@openzeppelin/contracts/token/ERC1155/ERC1155.sol\":5942:5955  _balances[id] */\n      dup1\n        /* \"@openzeppelin/contracts/token/ERC1155/ERC1155.sol\":5952:5954  id */\n      dup6\n        /* \"@openzeppelin/contracts/token/ERC1155/ERC1155.sol\":5942:5955  _balances[id] */\n      dup2\n      mstore\n      0x20\n      add\n      swap1\n      dup2\n      mstore\n      0x20\n      add\n      0x00\n      keccak256\n        /* \"@openzeppelin/contracts/token/ERC1155/ERC1155.sol\":5942:5961  _balances[id][from] */\n      0x00\n        /* \"@openzeppelin/contracts/token/ERC1155/ERC1155.sol\":5956:5960  from */\n      dup12\n        /* \"@openzeppelin/contracts/token/ERC1155/ERC1155.sol\":5942:5961  _balances[id][from] */\n      0xffffffffffffffffffffffffffffffffffffffff\n      and\n      0xffffffffffffffffffffffffffffffffffffffff\n      and\n      dup2\n      mstore\n      0x20\n      add\n      swap1\n      dup2\n      mstore\n      0x20\n      add\n      0x00\n      keccak256\n        /* \"@openzeppelin/contracts/token/ERC1155/ERC1155.sol\":5942:5983  _balances[id][from] = fromBalance - value */\n      dup2\n      swap1\n      sstore\n      pop\n        /* \"@openzeppelin/contracts/token/ERC1155/ERC1155.sol\":5620:6016  {... */\n      pop\n        /* \"@openzeppelin/contracts/token/ERC1155/ERC1155.sol\":5596:6016  if (from != address(0)) {... */\n    tag_272:\n        /* \"@openzeppelin/contracts/token/ERC1155/ERC1155.sol\":6048:6049  0 */\n      0x00\n        /* \"@openzeppelin/contracts/token/ERC1155/ERC1155.sol\":6034:6050  to != address(0) */\n      0xffffffffffffffffffffffffffffffffffffffff\n      and\n        /* \"@openzeppelin/contracts/token/ERC1155/ERC1155.sol\":6034:6036  to */\n      dup8\n        /* \"@openzeppelin/contracts/token/ERC1155/ERC1155.sol\":6034:6050  to != address(0) */\n      0xffffffffffffffffffffffffffffffffffffffff\n      and\n      eq\n        /* \"@openzeppelin/contracts/token/ERC1155/ERC1155.sol\":6030:6111  if (to != address(0)) {... */\n      tag_276\n      jumpi\n        /* \"@openzeppelin/contracts/token/ERC1155/ERC1155.sol\":6091:6096  value */\n      dup1\n        /* \"@openzeppelin/contracts/token/ERC1155/ERC1155.sol\":6070:6079  _balances */\n      0x00\n        /* \"@openzeppelin/contracts/token/ERC1155/ERC1155.sol\":6070:6083  _balances[id] */\n      dup1\n        /* \"@openzeppelin/contracts/token/ERC1155/ERC1155.sol\":6080:6082  id */\n      dup5\n        /* \"@openzeppelin/contracts/token/ERC1155/ERC1155.sol\":6070:6083  _balances[id] */\n      dup2\n      mstore\n      0x20\n      add\n      swap1\n      dup2\n      mstore\n      0x20\n      add\n      0x00\n      keccak256\n        /* \"@openzeppelin/contracts/token/ERC1155/ERC1155.sol\":6070:6087  _balances[id][to] */\n      0x00\n        /* \"@openzeppelin/contracts/token/ERC1155/ERC1155.sol\":6084:6086  to */\n      dup10\n        /* \"@openzeppelin/contracts/token/ERC1155/ERC1155.sol\":6070:6087  _balances[id][to] */\n      0xffffffffffffffffffffffffffffffffffffffff\n      and\n      0xffffffffffffffffffffffffffffffffffffffff\n      and\n      dup2\n      mstore\n      0x20\n      add\n      swap1\n      dup2\n      mstore\n      0x20\n      add\n      0x00\n      keccak256\n      0x00\n        /* \"@openzeppelin/contracts/token/ERC1155/ERC1155.sol\":6070:6096  _balances[id][to] += value */\n      dup3\n      dup3\n      sload\n      tag_277\n      swap2\n      swap1\n      tag_278\n      jump\t// in\n    tag_277:\n      swap3\n      pop\n      pop\n      dup2\n      swap1\n      sstore\n      pop\n        /* \"@openzeppelin/contracts/token/ERC1155/ERC1155.sol\":6030:6111  if (to != address(0)) {... */\n    tag_276:\n        /* \"@openzeppelin/contracts/token/ERC1155/ERC1155.sol\":5471:6121  {... */\n      pop\n      pop\n        /* \"@openzeppelin/contracts/token/ERC1155/ERC1155.sol\":5466:5469  ++i */\n      dup1\n      tag_279\n      swap1\n      tag_147\n      jump\t// in\n    tag_279:\n      swap1\n      pop\n        /* \"@openzeppelin/contracts/token/ERC1155/ERC1155.sol\":5430:6121  for (uint256 i = 0; i < ids.length; ++i) {... */\n      jump(tag_267)\n    tag_268:\n      pop\n        /* \"@openzeppelin/contracts/token/ERC1155/ERC1155.sol\":6149:6150  1 */\n      0x01\n        /* \"@openzeppelin/contracts/token/ERC1155/ERC1155.sol\":6135:6138  ids */\n      dup4\n        /* \"@openzeppelin/contracts/token/ERC1155/ERC1155.sol\":6135:6145  ids.length */\n      mload\n        /* \"@openzeppelin/contracts/token/ERC1155/ERC1155.sol\":6135:6150  ids.length == 1 */\n      sub\n        /* \"@openzeppelin/contracts/token/ERC1155/ERC1155.sol\":6131:6419  if (ids.length == 1) {... */\n      tag_280\n      jumpi\n        /* \"@openzeppelin/contracts/token/ERC1155/ERC1155.sol\":6166:6176  uint256 id */\n      0x00\n        /* \"@openzeppelin/contracts/token/ERC1155/ERC1155.sol\":6179:6204  ids.unsafeMemoryAccess(0) */\n      tag_281\n        /* \"@openzeppelin/contracts/token/ERC1155/ERC1155.sol\":6202:6203  0 */\n      0x00\n        /* \"@openzeppelin/contracts/token/ERC1155/ERC1155.sol\":6179:6182  ids */\n      dup6\n        /* \"@openzeppelin/contracts/token/ERC1155/ERC1155.sol\":6179:6201  ids.unsafeMemoryAccess */\n      tag_142\n      swap1\n        /* \"@openzeppelin/contracts/token/ERC1155/ERC1155.sol\":6179:6204  ids.unsafeMemoryAccess(0) */\n      swap2\n      swap1\n      0xffffffff\n      and\n      jump\t// in\n    tag_281:\n        /* \"@openzeppelin/contracts/token/ERC1155/ERC1155.sol\":6166:6204  uint256 id = ids.unsafeMemoryAccess(0) */\n      swap1\n      pop\n        /* \"@openzeppelin/contracts/token/ERC1155/ERC1155.sol\":6218:6231  uint256 value */\n      0x00\n        /* \"@openzeppelin/contracts/token/ERC1155/ERC1155.sol\":6234:6262  values.unsafeMemoryAccess(0) */\n      tag_282\n        /* \"@openzeppelin/contracts/token/ERC1155/ERC1155.sol\":6260:6261  0 */\n      0x00\n        /* \"@openzeppelin/contracts/token/ERC1155/ERC1155.sol\":6234:6240  values */\n      dup6\n        /* \"@openzeppelin/contracts/token/ERC1155/ERC1155.sol\":6234:6259  values.unsafeMemoryAccess */\n      tag_142\n      swap1\n        /* \"@openzeppelin/contracts/token/ERC1155/ERC1155.sol\":6234:6262  values.unsafeMemoryAccess(0) */\n      swap2\n      swap1\n      0xffffffff\n      and\n      jump\t// in\n    tag_282:\n        /* \"@openzeppelin/contracts/token/ERC1155/ERC1155.sol\":6218:6262  uint256 value = values.unsafeMemoryAccess(0) */\n      swap1\n      pop\n        /* \"@openzeppelin/contracts/token/ERC1155/ERC1155.sol\":6312:6314  to */\n      dup6\n        /* \"@openzeppelin/contracts/token/ERC1155/ERC1155.sol\":6281:6326  TransferSingle(operator, from, to, id, value) */\n      0xffffffffffffffffffffffffffffffffffffffff\n      and\n        /* \"@openzeppelin/contracts/token/ERC1155/ERC1155.sol\":6306:6310  from */\n      dup8\n        /* \"@openzeppelin/contracts/token/ERC1155/ERC1155.sol\":6281:6326  TransferSingle(operator, from, to, id, value) */\n      0xffffffffffffffffffffffffffffffffffffffff\n      and\n        /* \"@openzeppelin/contracts/token/ERC1155/ERC1155.sol\":6296:6304  operator */\n      dup5\n        /* \"@openzeppelin/contracts/token/ERC1155/ERC1155.sol\":6281:6326  TransferSingle(operator, from, to, id, value) */\n      0xffffffffffffffffffffffffffffffffffffffff\n      and\n      0xc3d58168c5ae7397731d063d5bbf3d657854427343f4c083240f7aacaa2d0f62\n        /* \"@openzeppelin/contracts/token/ERC1155/ERC1155.sol\":6316:6318  id */\n      dup6\n        /* \"@openzeppelin/contracts/token/ERC1155/ERC1155.sol\":6320:6325  value */\n      dup6\n        /* \"@openzeppelin/contracts/token/ERC1155/ERC1155.sol\":6281:6326  TransferSingle(operator, from, to, id, value) */\n      mload(0x40)\n      tag_283\n      swap3\n      swap2\n      swap1\n      tag_130\n      jump\t// in\n    tag_283:\n      mload(0x40)\n      dup1\n      swap2\n      sub\n      swap1\n      log4\n        /* \"@openzeppelin/contracts/token/ERC1155/ERC1155.sol\":6152:6337  {... */\n      pop\n      pop\n        /* \"@openzeppelin/contracts/token/ERC1155/ERC1155.sol\":6131:6419  if (ids.length == 1) {... */\n      jump(tag_284)\n    tag_280:\n        /* \"@openzeppelin/contracts/token/ERC1155/ERC1155.sol\":6392:6394  to */\n      dup4\n        /* \"@openzeppelin/contracts/token/ERC1155/ERC1155.sol\":6362:6408  TransferBatch(operator, from, to, ids, values) */\n      0xffffffffffffffffffffffffffffffffffffffff\n      and\n        /* \"@openzeppelin/contracts/token/ERC1155/ERC1155.sol\":6386:6390  from */\n      dup6\n        /* \"@openzeppelin/contracts/token/ERC1155/ERC1155.sol\":6362:6408  TransferBatch(operator, from, to, ids, values) */\n      0xffffffffffffffffffffffffffffffffffffffff\n      and\n        /* \"@openzeppelin/contracts/token/ERC1155/ERC1155.sol\":6376:6384  operator */\n      dup3\n        /* \"@openzeppelin/contracts/token/ERC1155/ERC1155.sol\":6362:6408  TransferBatch(operator, from, to, ids, values) */\n      0xffffffffffffffffffffffffffffffffffffffff\n      and\n      0x4a39dc06d4c0dbc64b70af90fd698a233a518aa5d07e595d983b8c0526c8f7fb\n        /* \"@openzeppelin/contracts/token/ERC1155/ERC1155.sol\":6396:6399  ids */\n      dup7\n        /* \"@openzeppelin/contracts/token/ERC1155/ERC1155.sol\":6401:6407  values */\n      dup7\n        /* \"@openzeppelin/contracts/token/ERC1155/ERC1155.sol\":6362:6408  TransferBatch(operator, from, to, ids, values) */\n      mload(0x40)\n      tag_285\n      swap3\n      swap2\n      swap1\n      tag_286\n      jump\t// in\n    tag_285:\n      mload(0x40)\n      dup1\n      swap2\n      sub\n      swap1\n      log4\n        /* \"@openzeppelin/contracts/token/ERC1155/ERC1155.sol\":6131:6419  if (ids.length == 1) {... */\n    tag_284:\n        /* \"@openzeppelin/contracts/token/ERC1155/ERC1155.sol\":5251:6425  {... */\n      pop\n        /* \"@openzeppelin/contracts/token/ERC1155/ERC1155.sol\":5144:6425  function _update(address from, address to, uint256[] memory ids, uint256[] memory values) internal virtual {... */\n      pop\n      pop\n      pop\n      pop\n      jump\t// out\n        /* \"@openzeppelin/contracts/token/ERC1155/ERC1155.sol\":13761:14735  function _doSafeTransferAcceptanceCheck(... */\n    tag_258:\n        /* \"@openzeppelin/contracts/token/ERC1155/ERC1155.sol\":13984:13985  0 */\n      0x00\n        /* \"@openzeppelin/contracts/token/ERC1155/ERC1155.sol\":13967:13969  to */\n      dup5\n        /* \"@openzeppelin/contracts/token/ERC1155/ERC1155.sol\":13967:13981  to.code.length */\n      0xffffffffffffffffffffffffffffffffffffffff\n      and\n      extcodesize\n        /* \"@openzeppelin/contracts/token/ERC1155/ERC1155.sol\":13967:13985  to.code.length > 0 */\n      gt\n        /* \"@openzeppelin/contracts/token/ERC1155/ERC1155.sol\":13963:14729  if (to.code.length > 0) {... */\n      iszero\n      tag_288\n      jumpi\n        /* \"@openzeppelin/contracts/token/ERC1155/ERC1155.sol\":14022:14024  to */\n      dup4\n        /* \"@openzeppelin/contracts/token/ERC1155/ERC1155.sol\":14005:14043  IERC1155Receiver(to).onERC1155Received */\n      0xffffffffffffffffffffffffffffffffffffffff\n      and\n      0xf23a6e61\n        /* \"@openzeppelin/contracts/token/ERC1155/ERC1155.sol\":14044:14052  operator */\n      dup8\n        /* \"@openzeppelin/contracts/token/ERC1155/ERC1155.sol\":14054:14058  from */\n      dup8\n        /* \"@openzeppelin/contracts/token/ERC1155/ERC1155.sol\":14060:14062  id */\n      dup7\n        /* \"@openzeppelin/contracts/token/ERC1155/ERC1155.sol\":14064:14069  value */\n      dup7\n        /* \"@openzeppelin/contracts/token/ERC1155/ERC1155.sol\":14071:14075  data */\n      dup7\n        /* \"@openzeppelin/contracts/token/ERC1155/ERC1155.sol\":14005:14076  IERC1155Receiver(to).onERC1155Received(operator, from, id, value, data) */\n      mload(0x40)\n      dup7\n      0xffffffff\n      and\n      0xe0\n      shl\n      dup2\n      mstore\n      0x04\n      add\n      tag_289\n      swap6\n      swap5\n      swap4\n      swap3\n      swap2\n      swap1\n      tag_290\n      jump\t// in\n    tag_289:\n      0x20\n      mload(0x40)\n      dup1\n      dup4\n      sub\n      dup2\n      0x00\n      dup8\n      gas\n      call\n      swap3\n      pop\n      pop\n      pop\n      dup1\n      iszero\n      tag_291\n      jumpi\n      pop\n      mload(0x40)\n      returndatasize\n      not(0x1f)\n      0x1f\n      dup3\n      add\n      and\n      dup3\n      add\n      dup1\n      0x40\n      mstore\n      pop\n      dup2\n      add\n      swap1\n      tag_292\n      swap2\n      swap1\n      tag_293\n      jump\t// in\n    tag_292:\n      0x01\n    tag_291:\n        /* \"@openzeppelin/contracts/token/ERC1155/ERC1155.sol\":14001:14719  try IERC1155Receiver(to).onERC1155Received(operator, from, id, value, data) returns (bytes4 response) {... */\n      tag_294\n      jumpi\n      returndatasize\n      dup1\n      0x00\n      dup2\n      eq\n      tag_299\n      jumpi\n      mload(0x40)\n      swap2\n      pop\n      and(add(returndatasize, 0x3f), not(0x1f))\n      dup3\n      add\n      0x40\n      mstore\n      returndatasize\n      dup3\n      mstore\n      returndatasize\n      0x00\n      0x20\n      dup5\n      add\n      returndatacopy\n      jump(tag_298)\n    tag_299:\n      0x60\n      swap2\n      pop\n    tag_298:\n      pop\n        /* \"@openzeppelin/contracts/token/ERC1155/ERC1155.sol\":14377:14378  0 */\n      0x00\n        /* \"@openzeppelin/contracts/token/ERC1155/ERC1155.sol\":14360:14366  reason */\n      dup2\n        /* \"@openzeppelin/contracts/token/ERC1155/ERC1155.sol\":14360:14373  reason.length */\n      mload\n        /* \"@openzeppelin/contracts/token/ERC1155/ERC1155.sol\":14360:14378  reason.length == 0 */\n      sub\n        /* \"@openzeppelin/contracts/token/ERC1155/ERC1155.sol\":14356:14705  if (reason.length == 0) {... */\n      tag_300\n      jumpi\n        /* \"@openzeppelin/contracts/token/ERC1155/ERC1155.sol\":14487:14489  to */\n      dup5\n        /* \"@openzeppelin/contracts/token/ERC1155/ERC1155.sol\":14464:14490  ERC1155InvalidReceiver(to) */\n      mload(0x40)\n      0x57f447ce00000000000000000000000000000000000000000000000000000000\n      dup2\n      mstore\n      0x04\n      add\n      tag_301\n      swap2\n      swap1\n      tag_71\n      jump\t// in\n    tag_301:\n      mload(0x40)\n      dup1\n      swap2\n      sub\n      swap1\n      revert\n        /* \"@openzeppelin/contracts/token/ERC1155/ERC1155.sol\":14356:14705  if (reason.length == 0) {... */\n    tag_300:\n        /* \"@openzeppelin/contracts/token/ERC1155/ERC1155.sol\":14657:14663  reason */\n      dup1\n        /* \"@openzeppelin/contracts/token/ERC1155/ERC1155.sol\":14651:14664  mload(reason) */\n      mload\n        /* \"@openzeppelin/contracts/token/ERC1155/ERC1155.sol\":14642:14648  reason */\n      dup2\n        /* \"@openzeppelin/contracts/token/ERC1155/ERC1155.sol\":14638:14640  32 */\n      0x20\n        /* \"@openzeppelin/contracts/token/ERC1155/ERC1155.sol\":14634:14649  add(32, reason) */\n      add\n        /* \"@openzeppelin/contracts/token/ERC1155/ERC1155.sol\":14627:14665  revert(add(32, reason), mload(reason)) */\n      revert\n        /* \"@openzeppelin/contracts/token/ERC1155/ERC1155.sol\":14001:14719  try IERC1155Receiver(to).onERC1155Received(operator, from, id, value, data) returns (bytes4 response) {... */\n    tag_294:\n        /* \"@openzeppelin/contracts/token/ERC1155/ERC1155.sol\":14137:14180  IERC1155Receiver.onERC1155Received.selector */\n      shl(0xe0, 0xf23a6e61)\n        /* \"@openzeppelin/contracts/token/ERC1155/ERC1155.sol\":14125:14180  response != IERC1155Receiver.onERC1155Received.selector */\n      not(0xffffffffffffffffffffffffffffffffffffffffffffffffffffffff)\n      and\n        /* \"@openzeppelin/contracts/token/ERC1155/ERC1155.sol\":14125:14133  response */\n      dup2\n        /* \"@openzeppelin/contracts/token/ERC1155/ERC1155.sol\":14125:14180  response != IERC1155Receiver.onERC1155Received.selector */\n      not(0xffffffffffffffffffffffffffffffffffffffffffffffffffffffff)\n      and\n      eq\n        /* \"@openzeppelin/contracts/token/ERC1155/ERC1155.sol\":14121:14295  if (response != IERC1155Receiver.onERC1155Received.selector) {... */\n      tag_304\n      jumpi\n        /* \"@openzeppelin/contracts/token/ERC1155/ERC1155.sol\":14273:14275  to */\n      dup5\n        /* \"@openzeppelin/contracts/token/ERC1155/ERC1155.sol\":14250:14276  ERC1155InvalidReceiver(to) */\n      mload(0x40)\n      0x57f447ce00000000000000000000000000000000000000000000000000000000\n      dup2\n      mstore\n      0x04\n      add\n      tag_305\n      swap2\n      swap1\n      tag_71\n      jump\t// in\n    tag_305:\n      mload(0x40)\n      dup1\n      swap2\n      sub\n      swap1\n      revert\n        /* \"@openzeppelin/contracts/token/ERC1155/ERC1155.sol\":14121:14295  if (response != IERC1155Receiver.onERC1155Received.selector) {... */\n    tag_304:\n        /* \"@openzeppelin/contracts/token/ERC1155/ERC1155.sol\":14077:14309  returns (bytes4 response) {... */\n      pop\n        /* \"@openzeppelin/contracts/token/ERC1155/ERC1155.sol\":13963:14729  if (to.code.length > 0) {... */\n    tag_288:\n        /* \"@openzeppelin/contracts/token/ERC1155/ERC1155.sol\":13761:14735  function _doSafeTransferAcceptanceCheck(... */\n      pop\n      pop\n      pop\n      pop\n      pop\n      pop\n      jump\t// out\n        /* \"@openzeppelin/contracts/token/ERC1155/ERC1155.sol\":14923:15964  function _doSafeBatchTransferAcceptanceCheck(... */\n    tag_261:\n        /* \"@openzeppelin/contracts/token/ERC1155/ERC1155.sol\":15171:15172  0 */\n      0x00\n        /* \"@openzeppelin/contracts/token/ERC1155/ERC1155.sol\":15154:15156  to */\n      dup5\n        /* \"@openzeppelin/contracts/token/ERC1155/ERC1155.sol\":15154:15168  to.code.length */\n      0xffffffffffffffffffffffffffffffffffffffff\n      and\n      extcodesize\n        /* \"@openzeppelin/contracts/token/ERC1155/ERC1155.sol\":15154:15172  to.code.length > 0 */\n      gt\n        /* \"@openzeppelin/contracts/token/ERC1155/ERC1155.sol\":15150:15958  if (to.code.length > 0) {... */\n      iszero\n      tag_307\n      jumpi\n        /* \"@openzeppelin/contracts/token/ERC1155/ERC1155.sol\":15209:15211  to */\n      dup4\n        /* \"@openzeppelin/contracts/token/ERC1155/ERC1155.sol\":15192:15235  IERC1155Receiver(to).onERC1155BatchReceived */\n      0xffffffffffffffffffffffffffffffffffffffff\n      and\n      0xbc197c81\n        /* \"@openzeppelin/contracts/token/ERC1155/ERC1155.sol\":15236:15244  operator */\n      dup8\n        /* \"@openzeppelin/contracts/token/ERC1155/ERC1155.sol\":15246:15250  from */\n      dup8\n        /* \"@openzeppelin/contracts/token/ERC1155/ERC1155.sol\":15252:15255  ids */\n      dup7\n        /* \"@openzeppelin/contracts/token/ERC1155/ERC1155.sol\":15257:15263  values */\n      dup7\n        /* \"@openzeppelin/contracts/token/ERC1155/ERC1155.sol\":15265:15269  data */\n      dup7\n        /* \"@openzeppelin/contracts/token/ERC1155/ERC1155.sol\":15192:15270  IERC1155Receiver(to).onERC1155BatchReceived(operator, from, ids, values, data) */\n      mload(0x40)\n      dup7\n      0xffffffff\n      and\n      0xe0\n      shl\n      dup2\n      mstore\n      0x04\n      add\n      tag_308\n      swap6\n      swap5\n      swap4\n      swap3\n      swap2\n      swap1\n      tag_309\n      jump\t// in\n    tag_308:\n      0x20\n      mload(0x40)\n      dup1\n      dup4\n      sub\n      dup2\n      0x00\n      dup8\n      gas\n      call\n      swap3\n      pop\n      pop\n      pop\n      dup1\n      iszero\n      tag_310\n      jumpi\n      pop\n      mload(0x40)\n      returndatasize\n      not(0x1f)\n      0x1f\n      dup3\n      add\n      and\n      dup3\n      add\n      dup1\n      0x40\n      mstore\n      pop\n      dup2\n      add\n      swap1\n      tag_311\n      swap2\n      swap1\n      tag_293\n      jump\t// in\n    tag_311:\n      0x01\n    tag_310:\n        /* \"@openzeppelin/contracts/token/ERC1155/ERC1155.sol\":15188:15948  try IERC1155Receiver(to).onERC1155BatchReceived(operator, from, ids, values, data) returns (... */\n      tag_312\n      jumpi\n      returndatasize\n      dup1\n      0x00\n      dup2\n      eq\n      tag_317\n      jumpi\n      mload(0x40)\n      swap2\n      pop\n      and(add(returndatasize, 0x3f), not(0x1f))\n      dup3\n      add\n      0x40\n      mstore\n      returndatasize\n      dup3\n      mstore\n      returndatasize\n      0x00\n      0x20\n      dup5\n      add\n      returndatacopy\n      jump(tag_316)\n    tag_317:\n      0x60\n      swap2\n      pop\n    tag_316:\n      pop\n        /* \"@openzeppelin/contracts/token/ERC1155/ERC1155.sol\":15606:15607  0 */\n      0x00\n        /* \"@openzeppelin/contracts/token/ERC1155/ERC1155.sol\":15589:15595  reason */\n      dup2\n        /* \"@openzeppelin/contracts/token/ERC1155/ERC1155.sol\":15589:15602  reason.length */\n      mload\n        /* \"@openzeppelin/contracts/token/ERC1155/ERC1155.sol\":15589:15607  reason.length == 0 */\n      sub\n        /* \"@openzeppelin/contracts/token/ERC1155/ERC1155.sol\":15585:15934  if (reason.length == 0) {... */\n      tag_318\n      jumpi\n        /* \"@openzeppelin/contracts/token/ERC1155/ERC1155.sol\":15716:15718  to */\n      dup5\n        /* \"@openzeppelin/contracts/token/ERC1155/ERC1155.sol\":15693:15719  ERC1155InvalidReceiver(to) */\n      mload(0x40)\n      0x57f447ce00000000000000000000000000000000000000000000000000000000\n      dup2\n      mstore\n      0x04\n      add\n      tag_319\n      swap2\n      swap1\n      tag_71\n      jump\t// in\n    tag_319:\n      mload(0x40)\n      dup1\n      swap2\n      sub\n      swap1\n      revert\n        /* \"@openzeppelin/contracts/token/ERC1155/ERC1155.sol\":15585:15934  if (reason.length == 0) {... */\n    tag_318:\n        /* \"@openzeppelin/contracts/token/ERC1155/ERC1155.sol\":15886:15892  reason */\n      dup1\n        /* \"@openzeppelin/contracts/token/ERC1155/ERC1155.sol\":15880:15893  mload(reason) */\n      mload\n        /* \"@openzeppelin/contracts/token/ERC1155/ERC1155.sol\":15871:15877  reason */\n      dup2\n        /* \"@openzeppelin/contracts/token/ERC1155/ERC1155.sol\":15867:15869  32 */\n      0x20\n        /* \"@openzeppelin/contracts/token/ERC1155/ERC1155.sol\":15863:15878  add(32, reason) */\n      add\n        /* \"@openzeppelin/contracts/token/ERC1155/ERC1155.sol\":15856:15894  revert(add(32, reason), mload(reason)) */\n      revert\n        /* \"@openzeppelin/contracts/token/ERC1155/ERC1155.sol\":15188:15948  try IERC1155Receiver(to).onERC1155BatchReceived(operator, from, ids, values, data) returns (... */\n    tag_312:\n        /* \"@openzeppelin/contracts/token/ERC1155/ERC1155.sol\":15361:15409  IERC1155Receiver.onERC1155BatchReceived.selector */\n      shl(0xe0, 0xbc197c81)\n        /* \"@openzeppelin/contracts/token/ERC1155/ERC1155.sol\":15349:15409  response != IERC1155Receiver.onERC1155BatchReceived.selector */\n      not(0xffffffffffffffffffffffffffffffffffffffffffffffffffffffff)\n      and\n        /* \"@openzeppelin/contracts/token/ERC1155/ERC1155.sol\":15349:15357  response */\n      dup2\n        /* \"@openzeppelin/contracts/token/ERC1155/ERC1155.sol\":15349:15409  response != IERC1155Receiver.onERC1155BatchReceived.selector */\n      not(0xffffffffffffffffffffffffffffffffffffffffffffffffffffffff)\n      and\n      eq\n        /* \"@openzeppelin/contracts/token/ERC1155/ERC1155.sol\":15345:15524  if (response != IERC1155Receiver.onERC1155BatchReceived.selector) {... */\n      tag_322\n      jumpi\n        /* \"@openzeppelin/contracts/token/ERC1155/ERC1155.sol\":15502:15504  to */\n      dup5\n        /* \"@openzeppelin/contracts/token/ERC1155/ERC1155.sol\":15479:15505  ERC1155InvalidReceiver(to) */\n      mload(0x40)\n      0x57f447ce00000000000000000000000000000000000000000000000000000000\n      dup2\n      mstore\n      0x04\n      add\n      tag_323\n      swap2\n      swap1\n      tag_71\n      jump\t// in\n    tag_323:\n      mload(0x40)\n      dup1\n      swap2\n      sub\n      swap1\n      revert\n        /* \"@openzeppelin/contracts/token/ERC1155/ERC1155.sol\":15345:15524  if (response != IERC1155Receiver.onERC1155BatchReceived.selector) {... */\n    tag_322:\n        /* \"@openzeppelin/contracts/token/ERC1155/ERC1155.sol\":15271:15538  returns (... */\n      pop\n        /* \"@openzeppelin/contracts/token/ERC1155/ERC1155.sol\":15150:15958  if (to.code.length > 0) {... */\n    tag_307:\n        /* \"@openzeppelin/contracts/token/ERC1155/ERC1155.sol\":14923:15964  function _doSafeBatchTransferAcceptanceCheck(... */\n      pop\n      pop\n      pop\n      pop\n      pop\n      pop\n      jump\t// out\n        /* \"#utility.yul\":7:82   */\n    tag_324:\n        /* \"#utility.yul\":40:46   */\n      0x00\n        /* \"#utility.yul\":73:75   */\n      0x40\n        /* \"#utility.yul\":67:76   */\n      mload\n        /* \"#utility.yul\":57:76   */\n      swap1\n      pop\n        /* \"#utility.yul\":7:82   */\n      swap1\n      jump\t// out\n        /* \"#utility.yul\":88:205   */\n    tag_325:\n        /* \"#utility.yul\":197:198   */\n      0x00\n        /* \"#utility.yul\":194:195   */\n      dup1\n        /* \"#utility.yul\":187:199   */\n      revert\n        /* \"#utility.yul\":211:328   */\n    tag_326:\n        /* \"#utility.yul\":320:321   */\n      0x00\n        /* \"#utility.yul\":317:318   */\n      dup1\n        /* \"#utility.yul\":310:322   */\n      revert\n        /* \"#utility.yul\":334:460   */\n    tag_327:\n        /* \"#utility.yul\":371:378   */\n      0x00\n        /* \"#utility.yul\":411:453   */\n      0xffffffffffffffffffffffffffffffffffffffff\n        /* \"#utility.yul\":404:409   */\n      dup3\n        /* \"#utility.yul\":400:454   */\n      and\n        /* \"#utility.yul\":389:454   */\n      swap1\n      pop\n        /* \"#utility.yul\":334:460   */\n      swap2\n      swap1\n      pop\n      jump\t// out\n        /* \"#utility.yul\":466:562   */\n    tag_328:\n        /* \"#utility.yul\":503:510   */\n      0x00\n        /* \"#utility.yul\":532:556   */\n      tag_400\n        /* \"#utility.yul\":550:555   */\n      dup3\n        /* \"#utility.yul\":532:556   */\n      tag_327\n      jump\t// in\n    tag_400:\n        /* \"#utility.yul\":521:556   */\n      swap1\n      pop\n        /* \"#utility.yul\":466:562   */\n      swap2\n      swap1\n      pop\n      jump\t// out\n        /* \"#utility.yul\":568:690   */\n    tag_329:\n        /* \"#utility.yul\":641:665   */\n      tag_402\n        /* \"#utility.yul\":659:664   */\n      dup2\n        /* \"#utility.yul\":641:665   */\n      tag_328\n      jump\t// in\n    tag_402:\n        /* \"#utility.yul\":634:639   */\n      dup2\n        /* \"#utility.yul\":631:666   */\n      eq\n        /* \"#utility.yul\":621:684   */\n      tag_403\n      jumpi\n        /* \"#utility.yul\":680:681   */\n      0x00\n        /* \"#utility.yul\":677:678   */\n      dup1\n        /* \"#utility.yul\":670:682   */\n      revert\n        /* \"#utility.yul\":621:684   */\n    tag_403:\n        /* \"#utility.yul\":568:690   */\n      pop\n      jump\t// out\n        /* \"#utility.yul\":696:835   */\n    tag_330:\n        /* \"#utility.yul\":742:747   */\n      0x00\n        /* \"#utility.yul\":780:786   */\n      dup2\n        /* \"#utility.yul\":767:787   */\n      calldataload\n        /* \"#utility.yul\":758:787   */\n      swap1\n      pop\n        /* \"#utility.yul\":796:829   */\n      tag_405\n        /* \"#utility.yul\":823:828   */\n      dup2\n        /* \"#utility.yul\":796:829   */\n      tag_329\n      jump\t// in\n    tag_405:\n        /* \"#utility.yul\":696:835   */\n      swap3\n      swap2\n      pop\n      pop\n      jump\t// out\n        /* \"#utility.yul\":841:918   */\n    tag_331:\n        /* \"#utility.yul\":878:885   */\n      0x00\n        /* \"#utility.yul\":907:912   */\n      dup2\n        /* \"#utility.yul\":896:912   */\n      swap1\n      pop\n        /* \"#utility.yul\":841:918   */\n      swap2\n      swap1\n      pop\n      jump\t// out\n        /* \"#utility.yul\":924:1046   */\n    tag_332:\n        /* \"#utility.yul\":997:1021   */\n      tag_408\n        /* \"#utility.yul\":1015:1020   */\n      dup2\n        /* \"#utility.yul\":997:1021   */\n      tag_331\n      jump\t// in\n    tag_408:\n        /* \"#utility.yul\":990:995   */\n      dup2\n        /* \"#utility.yul\":987:1022   */\n      eq\n        /* \"#utility.yul\":977:1040   */\n      tag_409\n      jumpi\n        /* \"#utility.yul\":1036:1037   */\n      0x00\n        /* \"#utility.yul\":1033:1034   */\n      dup1\n        /* \"#utility.yul\":1026:1038   */\n      revert\n        /* \"#utility.yul\":977:1040   */\n    tag_409:\n        /* \"#utility.yul\":924:1046   */\n      pop\n      jump\t// out\n        /* \"#utility.yul\":1052:1191   */\n    tag_333:\n        /* \"#utility.yul\":1098:1103   */\n      0x00\n        /* \"#utility.yul\":1136:1142   */\n      dup2\n        /* \"#utility.yul\":1123:1143   */\n      calldataload\n        /* \"#utility.yul\":1114:1143   */\n      swap1\n      pop\n        /* \"#utility.yul\":1152:1185   */\n      tag_411\n        /* \"#utility.yul\":1179:1184   */\n      dup2\n        /* \"#utility.yul\":1152:1185   */\n      tag_332\n      jump\t// in\n    tag_411:\n        /* \"#utility.yul\":1052:1191   */\n      swap3\n      swap2\n      pop\n      pop\n      jump\t// out\n        /* \"#utility.yul\":1197:1671   */\n    tag_24:\n        /* \"#utility.yul\":1265:1271   */\n      0x00\n        /* \"#utility.yul\":1273:1279   */\n      dup1\n        /* \"#utility.yul\":1322:1324   */\n      0x40\n        /* \"#utility.yul\":1310:1319   */\n      dup4\n        /* \"#utility.yul\":1301:1308   */\n      dup6\n        /* \"#utility.yul\":1297:1320   */\n      sub\n        /* \"#utility.yul\":1293:1325   */\n      slt\n        /* \"#utility.yul\":1290:1409   */\n      iszero\n      tag_413\n      jumpi\n        /* \"#utility.yul\":1328:1407   */\n      tag_414\n      tag_325\n      jump\t// in\n    tag_414:\n        /* \"#utility.yul\":1290:1409   */\n    tag_413:\n        /* \"#utility.yul\":1448:1449   */\n      0x00\n        /* \"#utility.yul\":1473:1526   */\n      tag_415\n        /* \"#utility.yul\":1518:1525   */\n      dup6\n        /* \"#utility.yul\":1509:1515   */\n      dup3\n        /* \"#utility.yul\":1498:1507   */\n      dup7\n        /* \"#utility.yul\":1494:1516   */\n      add\n        /* \"#utility.yul\":1473:1526   */\n      tag_330\n      jump\t// in\n    tag_415:\n        /* \"#utility.yul\":1463:1526   */\n      swap3\n      pop\n        /* \"#utility.yul\":1419:1536   */\n      pop\n        /* \"#utility.yul\":1575:1577   */\n      0x20\n        /* \"#utility.yul\":1601:1654   */\n      tag_416\n        /* \"#utility.yul\":1646:1653   */\n      dup6\n        /* \"#utility.yul\":1637:1643   */\n      dup3\n        /* \"#utility.yul\":1626:1635   */\n      dup7\n        /* \"#utility.yul\":1622:1644   */\n      add\n        /* \"#utility.yul\":1601:1654   */\n      tag_333\n      jump\t// in\n    tag_416:\n        /* \"#utility.yul\":1591:1654   */\n      swap2\n      pop\n        /* \"#utility.yul\":1546:1664   */\n      pop\n        /* \"#utility.yul\":1197:1671   */\n      swap3\n      pop\n      swap3\n      swap1\n      pop\n      jump\t// out\n        /* \"#utility.yul\":1677:1795   */\n    tag_334:\n        /* \"#utility.yul\":1764:1788   */\n      tag_418\n        /* \"#utility.yul\":1782:1787   */\n      dup2\n        /* \"#utility.yul\":1764:1788   */\n      tag_331\n      jump\t// in\n    tag_418:\n        /* \"#utility.yul\":1759:1762   */\n      dup3\n        /* \"#utility.yul\":1752:1789   */\n      mstore\n        /* \"#utility.yul\":1677:1795   */\n      pop\n      pop\n      jump\t// out\n        /* \"#utility.yul\":1801:2023   */\n    tag_27:\n        /* \"#utility.yul\":1894:1898   */\n      0x00\n        /* \"#utility.yul\":1932:1934   */\n      0x20\n        /* \"#utility.yul\":1921:1930   */\n      dup3\n        /* \"#utility.yul\":1917:1935   */\n      add\n        /* \"#utility.yul\":1909:1935   */\n      swap1\n      pop\n        /* \"#utility.yul\":1945:2016   */\n      tag_420\n        /* \"#utility.yul\":2013:2014   */\n      0x00\n        /* \"#utility.yul\":2002:2011   */\n      dup4\n        /* \"#utility.yul\":1998:2015   */\n      add\n        /* \"#utility.yul\":1989:1995   */\n      dup5\n        /* \"#utility.yul\":1945:2016   */\n      tag_334\n      jump\t// in\n    tag_420:\n        /* \"#utility.yul\":1801:2023   */\n      swap3\n      swap2\n      pop\n      pop\n      jump\t// out\n        /* \"#utility.yul\":2029:2178   */\n    tag_335:\n        /* \"#utility.yul\":2065:2072   */\n      0x00\n        /* \"#utility.yul\":2105:2171   */\n      0xffffffff00000000000000000000000000000000000000000000000000000000\n        /* \"#utility.yul\":2098:2103   */\n      dup3\n        /* \"#utility.yul\":2094:2172   */\n      and\n        /* \"#utility.yul\":2083:2172   */\n      swap1\n      pop\n        /* \"#utility.yul\":2029:2178   */\n      swap2\n      swap1\n      pop\n      jump\t// out\n        /* \"#utility.yul\":2184:2304   */\n    tag_336:\n        /* \"#utility.yul\":2256:2279   */\n      tag_423\n        /* \"#utility.yul\":2273:2278   */\n      dup2\n        /* \"#utility.yul\":2256:2279   */\n      tag_335\n      jump\t// in\n    tag_423:\n        /* \"#utility.yul\":2249:2254   */\n      dup2\n        /* \"#utility.yul\":2246:2280   */\n      eq\n        /* \"#utility.yul\":2236:2298   */\n      tag_424\n      jumpi\n        /* \"#utility.yul\":2294:2295   */\n      0x00\n        /* \"#utility.yul\":2291:2292   */\n      dup1\n        /* \"#utility.yul\":2284:2296   */\n      revert\n        /* \"#utility.yul\":2236:2298   */\n    tag_424:\n        /* \"#utility.yul\":2184:2304   */\n      pop\n      jump\t// out\n        /* \"#utility.yul\":2310:2447   */\n    tag_337:\n        /* \"#utility.yul\":2355:2360   */\n      0x00\n        /* \"#utility.yul\":2393:2399   */\n      dup2\n        /* \"#utility.yul\":2380:2400   */\n      calldataload\n        /* \"#utility.yul\":2371:2400   */\n      swap1\n      pop\n        /* \"#utility.yul\":2409:2441   */\n      tag_426\n        /* \"#utility.yul\":2435:2440   */\n      dup2\n        /* \"#utility.yul\":2409:2441   */\n      tag_336\n      jump\t// in\n    tag_426:\n        /* \"#utility.yul\":2310:2447   */\n      swap3\n      swap2\n      pop\n      pop\n      jump\t// out\n        /* \"#utility.yul\":2453:2780   */\n    tag_30:\n        /* \"#utility.yul\":2511:2517   */\n      0x00\n        /* \"#utility.yul\":2560:2562   */\n      0x20\n        /* \"#utility.yul\":2548:2557   */\n      dup3\n        /* \"#utility.yul\":2539:2546   */\n      dup5\n        /* \"#utility.yul\":2535:2558   */\n      sub\n        /* \"#utility.yul\":2531:2563   */\n      slt\n        /* \"#utility.yul\":2528:2647   */\n      iszero\n      tag_428\n      jumpi\n        /* \"#utility.yul\":2566:2645   */\n      tag_429\n      tag_325\n      jump\t// in\n    tag_429:\n        /* \"#utility.yul\":2528:2647   */\n    tag_428:\n        /* \"#utility.yul\":2686:2687   */\n      0x00\n        /* \"#utility.yul\":2711:2763   */\n      tag_430\n        /* \"#utility.yul\":2755:2762   */\n      dup5\n        /* \"#utility.yul\":2746:2752   */\n      dup3\n        /* \"#utility.yul\":2735:2744   */\n      dup6\n        /* \"#utility.yul\":2731:2753   */\n      add\n        /* \"#utility.yul\":2711:2763   */\n      tag_337\n      jump\t// in\n    tag_430:\n        /* \"#utility.yul\":2701:2763   */\n      swap2\n      pop\n        /* \"#utility.yul\":2657:2773   */\n      pop\n        /* \"#utility.yul\":2453:2780   */\n      swap3\n      swap2\n      pop\n      pop\n      jump\t// out\n        /* \"#utility.yul\":2786:2876   */\n    tag_338:\n        /* \"#utility.yul\":2820:2827   */\n      0x00\n        /* \"#utility.yul\":2863:2868   */\n      dup2\n        /* \"#utility.yul\":2856:2869   */\n      iszero\n        /* \"#utility.yul\":2849:2870   */\n      iszero\n        /* \"#utility.yul\":2838:2870   */\n      swap1\n      pop\n        /* \"#utility.yul\":2786:2876   */\n      swap2\n      swap1\n      pop\n      jump\t// out\n        /* \"#utility.yul\":2882:2991   */\n    tag_339:\n        /* \"#utility.yul\":2963:2984   */\n      tag_433\n        /* \"#utility.yul\":2978:2983   */\n      dup2\n        /* \"#utility.yul\":2963:2984   */\n      tag_338\n      jump\t// in\n    tag_433:\n        /* \"#utility.yul\":2958:2961   */\n      dup3\n        /* \"#utility.yul\":2951:2985   */\n      mstore\n        /* \"#utility.yul\":2882:2991   */\n      pop\n      pop\n      jump\t// out\n        /* \"#utility.yul\":2997:3207   */\n    tag_33:\n        /* \"#utility.yul\":3084:3088   */\n      0x00\n        /* \"#utility.yul\":3122:3124   */\n      0x20\n        /* \"#utility.yul\":3111:3120   */\n      dup3\n        /* \"#utility.yul\":3107:3125   */\n      add\n        /* \"#utility.yul\":3099:3125   */\n      swap1\n      pop\n        /* \"#utility.yul\":3135:3200   */\n      tag_435\n        /* \"#utility.yul\":3197:3198   */\n      0x00\n        /* \"#utility.yul\":3186:3195   */\n      dup4\n        /* \"#utility.yul\":3182:3199   */\n      add\n        /* \"#utility.yul\":3173:3179   */\n      dup5\n        /* \"#utility.yul\":3135:3200   */\n      tag_339\n      jump\t// in\n    tag_435:\n        /* \"#utility.yul\":2997:3207   */\n      swap3\n      swap2\n      pop\n      pop\n      jump\t// out\n        /* \"#utility.yul\":3213:3330   */\n    tag_340:\n        /* \"#utility.yul\":3322:3323   */\n      0x00\n        /* \"#utility.yul\":3319:3320   */\n      dup1\n        /* \"#utility.yul\":3312:3324   */\n      revert\n        /* \"#utility.yul\":3336:3453   */\n    tag_341:\n        /* \"#utility.yul\":3445:3446   */\n      0x00\n        /* \"#utility.yul\":3442:3443   */\n      dup1\n        /* \"#utility.yul\":3435:3447   */\n      revert\n        /* \"#utility.yul\":3459:3561   */\n    tag_342:\n        /* \"#utility.yul\":3500:3506   */\n      0x00\n        /* \"#utility.yul\":3551:3553   */\n      0x1f\n        /* \"#utility.yul\":3547:3554   */\n      not\n        /* \"#utility.yul\":3542:3544   */\n      0x1f\n        /* \"#utility.yul\":3535:3540   */\n      dup4\n        /* \"#utility.yul\":3531:3545   */\n      add\n        /* \"#utility.yul\":3527:3555   */\n      and\n        /* \"#utility.yul\":3517:3555   */\n      swap1\n      pop\n        /* \"#utility.yul\":3459:3561   */\n      swap2\n      swap1\n      pop\n      jump\t// out\n        /* \"#utility.yul\":3567:3747   */\n    tag_133:\n        /* \"#utility.yul\":3615:3692   */\n      0x4e487b7100000000000000000000000000000000000000000000000000000000\n        /* \"#utility.yul\":3612:3613   */\n      0x00\n        /* \"#utility.yul\":3605:3693   */\n      mstore\n        /* \"#utility.yul\":3712:3716   */\n      0x41\n        /* \"#utility.yul\":3709:3710   */\n      0x04\n        /* \"#utility.yul\":3702:3717   */\n      mstore\n        /* \"#utility.yul\":3736:3740   */\n      0x24\n        /* \"#utility.yul\":3733:3734   */\n      0x00\n        /* \"#utility.yul\":3726:3741   */\n      revert\n        /* \"#utility.yul\":3753:4034   */\n    tag_343:\n        /* \"#utility.yul\":3836:3863   */\n      tag_441\n        /* \"#utility.yul\":3858:3862   */\n      dup3\n        /* \"#utility.yul\":3836:3863   */\n      tag_342\n      jump\t// in\n    tag_441:\n        /* \"#utility.yul\":3828:3834   */\n      dup2\n        /* \"#utility.yul\":3824:3864   */\n      add\n        /* \"#utility.yul\":3966:3972   */\n      dup2\n        /* \"#utility.yul\":3954:3964   */\n      dup2\n        /* \"#utility.yul\":3951:3973   */\n      lt\n        /* \"#utility.yul\":3930:3948   */\n      0xffffffffffffffff\n        /* \"#utility.yul\":3918:3928   */\n      dup3\n        /* \"#utility.yul\":3915:3949   */\n      gt\n        /* \"#utility.yul\":3912:3974   */\n      or\n        /* \"#utility.yul\":3909:3997   */\n      iszero\n      tag_442\n      jumpi\n        /* \"#utility.yul\":3977:3995   */\n      tag_443\n      tag_133\n      jump\t// in\n    tag_443:\n        /* \"#utility.yul\":3909:3997   */\n    tag_442:\n        /* \"#utility.yul\":4017:4027   */\n      dup1\n        /* \"#utility.yul\":4013:4015   */\n      0x40\n        /* \"#utility.yul\":4006:4028   */\n      mstore\n        /* \"#utility.yul\":3796:4034   */\n      pop\n        /* \"#utility.yul\":3753:4034   */\n      pop\n      pop\n      jump\t// out\n        /* \"#utility.yul\":4040:4169   */\n    tag_344:\n        /* \"#utility.yul\":4074:4080   */\n      0x00\n        /* \"#utility.yul\":4101:4121   */\n      tag_445\n      tag_324\n      jump\t// in\n    tag_445:\n        /* \"#utility.yul\":4091:4121   */\n      swap1\n      pop\n        /* \"#utility.yul\":4130:4163   */\n      tag_446\n        /* \"#utility.yul\":4158:4162   */\n      dup3\n        /* \"#utility.yul\":4150:4156   */\n      dup3\n        /* \"#utility.yul\":4130:4163   */\n      tag_343\n      jump\t// in\n    tag_446:\n        /* \"#utility.yul\":4040:4169   */\n      swap2\n      swap1\n      pop\n      jump\t// out\n        /* \"#utility.yul\":4175:4483   */\n    tag_345:\n        /* \"#utility.yul\":4237:4241   */\n      0x00\n        /* \"#utility.yul\":4327:4345   */\n      0xffffffffffffffff\n        /* \"#utility.yul\":4319:4325   */\n      dup3\n        /* \"#utility.yul\":4316:4346   */\n      gt\n        /* \"#utility.yul\":4313:4369   */\n      iszero\n      tag_448\n      jumpi\n        /* \"#utility.yul\":4349:4367   */\n      tag_449\n      tag_133\n      jump\t// in\n    tag_449:\n        /* \"#utility.yul\":4313:4369   */\n    tag_448:\n        /* \"#utility.yul\":4387:4416   */\n      tag_450\n        /* \"#utility.yul\":4409:4415   */\n      dup3\n        /* \"#utility.yul\":4387:4416   */\n      tag_342\n      jump\t// in\n    tag_450:\n        /* \"#utility.yul\":4379:4416   */\n      swap1\n      pop\n        /* \"#utility.yul\":4471:4475   */\n      0x20\n        /* \"#utility.yul\":4465:4469   */\n      dup2\n        /* \"#utility.yul\":4461:4476   */\n      add\n        /* \"#utility.yul\":4453:4476   */\n      swap1\n      pop\n        /* \"#utility.yul\":4175:4483   */\n      swap2\n      swap1\n      pop\n      jump\t// out\n        /* \"#utility.yul\":4489:4635   */\n    tag_346:\n        /* \"#utility.yul\":4586:4592   */\n      dup3\n        /* \"#utility.yul\":4581:4584   */\n      dup2\n        /* \"#utility.yul\":4576:4579   */\n      dup4\n        /* \"#utility.yul\":4563:4593   */\n      calldatacopy\n        /* \"#utility.yul\":4627:4628   */\n      0x00\n        /* \"#utility.yul\":4618:4624   */\n      dup4\n        /* \"#utility.yul\":4613:4616   */\n      dup4\n        /* \"#utility.yul\":4609:4625   */\n      add\n        /* \"#utility.yul\":4602:4629   */\n      mstore\n        /* \"#utility.yul\":4489:4635   */\n      pop\n      pop\n      pop\n      jump\t// out\n        /* \"#utility.yul\":4641:5066   */\n    tag_347:\n        /* \"#utility.yul\":4719:4724   */\n      0x00\n        /* \"#utility.yul\":4744:4810   */\n      tag_453\n        /* \"#utility.yul\":4760:4809   */\n      tag_454\n        /* \"#utility.yul\":4802:4808   */\n      dup5\n        /* \"#utility.yul\":4760:4809   */\n      tag_345\n      jump\t// in\n    tag_454:\n        /* \"#utility.yul\":4744:4810   */\n      tag_344\n      jump\t// in\n    tag_453:\n        /* \"#utility.yul\":4735:4810   */\n      swap1\n      pop\n        /* \"#utility.yul\":4833:4839   */\n      dup3\n        /* \"#utility.yul\":4826:4831   */\n      dup2\n        /* \"#utility.yul\":4819:4840   */\n      mstore\n        /* \"#utility.yul\":4871:4875   */\n      0x20\n        /* \"#utility.yul\":4864:4869   */\n      dup2\n        /* \"#utility.yul\":4860:4876   */\n      add\n        /* \"#utility.yul\":4909:4912   */\n      dup5\n        /* \"#utility.yul\":4900:4906   */\n      dup5\n        /* \"#utility.yul\":4895:4898   */\n      dup5\n        /* \"#utility.yul\":4891:4907   */\n      add\n        /* \"#utility.yul\":4888:4913   */\n      gt\n        /* \"#utility.yul\":4885:4997   */\n      iszero\n      tag_455\n      jumpi\n        /* \"#utility.yul\":4916:4995   */\n      tag_456\n      tag_341\n      jump\t// in\n    tag_456:\n        /* \"#utility.yul\":4885:4997   */\n    tag_455:\n        /* \"#utility.yul\":5006:5060   */\n      tag_457\n        /* \"#utility.yul\":5053:5059   */\n      dup5\n        /* \"#utility.yul\":5048:5051   */\n      dup3\n        /* \"#utility.yul\":5043:5046   */\n      dup6\n        /* \"#utility.yul\":5006:5060   */\n      tag_346\n      jump\t// in\n    tag_457:\n        /* \"#utility.yul\":4725:5066   */\n      pop\n        /* \"#utility.yul\":4641:5066   */\n      swap4\n      swap3\n      pop\n      pop\n      pop\n      jump\t// out\n        /* \"#utility.yul\":5086:5426   */\n    tag_348:\n        /* \"#utility.yul\":5142:5147   */\n      0x00\n        /* \"#utility.yul\":5191:5194   */\n      dup3\n        /* \"#utility.yul\":5184:5188   */\n      0x1f\n        /* \"#utility.yul\":5176:5182   */\n      dup4\n        /* \"#utility.yul\":5172:5189   */\n      add\n        /* \"#utility.yul\":5168:5195   */\n      slt\n        /* \"#utility.yul\":5158:5280   */\n      tag_459\n      jumpi\n        /* \"#utility.yul\":5199:5278   */\n      tag_460\n      tag_340\n      jump\t// in\n    tag_460:\n        /* \"#utility.yul\":5158:5280   */\n    tag_459:\n        /* \"#utility.yul\":5316:5322   */\n      dup2\n        /* \"#utility.yul\":5303:5323   */\n      calldataload\n        /* \"#utility.yul\":5341:5420   */\n      tag_461\n        /* \"#utility.yul\":5416:5419   */\n      dup5\n        /* \"#utility.yul\":5408:5414   */\n      dup3\n        /* \"#utility.yul\":5401:5405   */\n      0x20\n        /* \"#utility.yul\":5393:5399   */\n      dup7\n        /* \"#utility.yul\":5389:5406   */\n      add\n        /* \"#utility.yul\":5341:5420   */\n      tag_347\n      jump\t// in\n    tag_461:\n        /* \"#utility.yul\":5332:5420   */\n      swap2\n      pop\n        /* \"#utility.yul\":5148:5426   */\n      pop\n        /* \"#utility.yul\":5086:5426   */\n      swap3\n      swap2\n      pop\n      pop\n      jump\t// out\n        /* \"#utility.yul\":5432:5941   */\n    tag_36:\n        /* \"#utility.yul\":5501:5507   */\n      0x00\n        /* \"#utility.yul\":5550:5552   */\n      0x20\n        /* \"#utility.yul\":5538:5547   */\n      dup3\n        /* \"#utility.yul\":5529:5536   */\n      dup5\n        /* \"#utility.yul\":5525:5548   */\n      sub\n        /* \"#utility.yul\":5521:5553   */\n      slt\n        /* \"#utility.yul\":5518:5637   */\n      iszero\n      tag_463\n      jumpi\n        /* \"#utility.yul\":5556:5635   */\n      tag_464\n      tag_325\n      jump\t// in\n    tag_464:\n        /* \"#utility.yul\":5518:5637   */\n    tag_463:\n        /* \"#utility.yul\":5704:5705   */\n      0x00\n        /* \"#utility.yul\":5693:5702   */\n      dup3\n        /* \"#utility.yul\":5689:5706   */\n      add\n        /* \"#utility.yul\":5676:5707   */\n      calldataload\n        /* \"#utility.yul\":5734:5752   */\n      0xffffffffffffffff\n        /* \"#utility.yul\":5726:5732   */\n      dup2\n        /* \"#utility.yul\":5723:5753   */\n      gt\n        /* \"#utility.yul\":5720:5837   */\n      iszero\n      tag_465\n      jumpi\n        /* \"#utility.yul\":5756:5835   */\n      tag_466\n      tag_326\n      jump\t// in\n    tag_466:\n        /* \"#utility.yul\":5720:5837   */\n    tag_465:\n        /* \"#utility.yul\":5861:5924   */\n      tag_467\n        /* \"#utility.yul\":5916:5923   */\n      dup5\n        /* \"#utility.yul\":5907:5913   */\n      dup3\n        /* \"#utility.yul\":5896:5905   */\n      dup6\n        /* \"#utility.yul\":5892:5914   */\n      add\n        /* \"#utility.yul\":5861:5924   */\n      tag_348\n      jump\t// in\n    tag_467:\n        /* \"#utility.yul\":5851:5924   */\n      swap2\n      pop\n        /* \"#utility.yul\":5647:5934   */\n      pop\n        /* \"#utility.yul\":5432:5941   */\n      swap3\n      swap2\n      pop\n      pop\n      jump\t// out\n        /* \"#utility.yul\":5947:6276   */\n    tag_40:\n        /* \"#utility.yul\":6006:6012   */\n      0x00\n        /* \"#utility.yul\":6055:6057   */\n      0x20\n        /* \"#utility.yul\":6043:6052   */\n      dup3\n        /* \"#utility.yul\":6034:6041   */\n      dup5\n        /* \"#utility.yul\":6030:6053   */\n      sub\n        /* \"#utility.yul\":6026:6058   */\n      slt\n        /* \"#utility.yul\":6023:6142   */\n      iszero\n      tag_469\n      jumpi\n        /* \"#utility.yul\":6061:6140   */\n      tag_470\n      tag_325\n      jump\t// in\n    tag_470:\n        /* \"#utility.yul\":6023:6142   */\n    tag_469:\n        /* \"#utility.yul\":6181:6182   */\n      0x00\n        /* \"#utility.yul\":6206:6259   */\n      tag_471\n        /* \"#utility.yul\":6251:6258   */\n      dup5\n        /* \"#utility.yul\":6242:6248   */\n      dup3\n        /* \"#utility.yul\":6231:6240   */\n      dup6\n        /* \"#utility.yul\":6227:6249   */\n      add\n        /* \"#utility.yul\":6206:6259   */\n      tag_333\n      jump\t// in\n    tag_471:\n        /* \"#utility.yul\":6196:6259   */\n      swap2\n      pop\n        /* \"#utility.yul\":6152:6269   */\n      pop\n        /* \"#utility.yul\":5947:6276   */\n      swap3\n      swap2\n      pop\n      pop\n      jump\t// out\n        /* \"#utility.yul\":6282:6381   */\n    tag_349:\n        /* \"#utility.yul\":6334:6340   */\n      0x00\n        /* \"#utility.yul\":6368:6373   */\n      dup2\n        /* \"#utility.yul\":6362:6374   */\n      mload\n        /* \"#utility.yul\":6352:6374   */\n      swap1\n      pop\n        /* \"#utility.yul\":6282:6381   */\n      swap2\n      swap1\n      pop\n      jump\t// out\n        /* \"#utility.yul\":6387:6556   */\n    tag_350:\n        /* \"#utility.yul\":6471:6482   */\n      0x00\n        /* \"#utility.yul\":6505:6511   */\n      dup3\n        /* \"#utility.yul\":6500:6503   */\n      dup3\n        /* \"#utility.yul\":6493:6512   */\n      mstore\n        /* \"#utility.yul\":6545:6549   */\n      0x20\n        /* \"#utility.yul\":6540:6543   */\n      dup3\n        /* \"#utility.yul\":6536:6550   */\n      add\n        /* \"#utility.yul\":6521:6550   */\n      swap1\n      pop\n        /* \"#utility.yul\":6387:6556   */\n      swap3\n      swap2\n      pop\n      pop\n      jump\t// out\n        /* \"#utility.yul\":6562:6808   */\n    tag_351:\n        /* \"#utility.yul\":6643:6644   */\n      0x00\n        /* \"#utility.yul\":6653:6766   */\n    tag_475:\n        /* \"#utility.yul\":6667:6673   */\n      dup4\n        /* \"#utility.yul\":6664:6665   */\n      dup2\n        /* \"#utility.yul\":6661:6674   */\n      lt\n        /* \"#utility.yul\":6653:6766   */\n      iszero\n      tag_477\n      jumpi\n        /* \"#utility.yul\":6752:6753   */\n      dup1\n        /* \"#utility.yul\":6747:6750   */\n      dup3\n        /* \"#utility.yul\":6743:6754   */\n      add\n        /* \"#utility.yul\":6737:6755   */\n      mload\n        /* \"#utility.yul\":6733:6734   */\n      dup2\n        /* \"#utility.yul\":6728:6731   */\n      dup5\n        /* \"#utility.yul\":6724:6735   */\n      add\n        /* \"#utility.yul\":6717:6756   */\n      mstore\n        /* \"#utility.yul\":6689:6691   */\n      0x20\n        /* \"#utility.yul\":6686:6687   */\n      dup2\n        /* \"#utility.yul\":6682:6692   */\n      add\n        /* \"#utility.yul\":6677:6692   */\n      swap1\n      pop\n        /* \"#utility.yul\":6653:6766   */\n      jump(tag_475)\n    tag_477:\n        /* \"#utility.yul\":6800:6801   */\n      0x00\n        /* \"#utility.yul\":6791:6797   */\n      dup5\n        /* \"#utility.yul\":6786:6789   */\n      dup5\n        /* \"#utility.yul\":6782:6798   */\n      add\n        /* \"#utility.yul\":6775:6802   */\n      mstore\n        /* \"#utility.yul\":6624:6808   */\n      pop\n        /* \"#utility.yul\":6562:6808   */\n      pop\n      pop\n      pop\n      jump\t// out\n        /* \"#utility.yul\":6814:7191   */\n    tag_352:\n        /* \"#utility.yul\":6902:6905   */\n      0x00\n        /* \"#utility.yul\":6930:6969   */\n      tag_479\n        /* \"#utility.yul\":6963:6968   */\n      dup3\n        /* \"#utility.yul\":6930:6969   */\n      tag_349\n      jump\t// in\n    tag_479:\n        /* \"#utility.yul\":6985:7056   */\n      tag_480\n        /* \"#utility.yul\":7049:7055   */\n      dup2\n        /* \"#utility.yul\":7044:7047   */\n      dup6\n        /* \"#utility.yul\":6985:7056   */\n      tag_350\n      jump\t// in\n    tag_480:\n        /* \"#utility.yul\":6978:7056   */\n      swap4\n      pop\n        /* \"#utility.yul\":7065:7130   */\n      tag_481\n        /* \"#utility.yul\":7123:7129   */\n      dup2\n        /* \"#utility.yul\":7118:7121   */\n      dup6\n        /* \"#utility.yul\":7111:7115   */\n      0x20\n        /* \"#utility.yul\":7104:7109   */\n      dup7\n        /* \"#utility.yul\":7100:7116   */\n      add\n        /* \"#utility.yul\":7065:7130   */\n      tag_351\n      jump\t// in\n    tag_481:\n        /* \"#utility.yul\":7155:7184   */\n      tag_482\n        /* \"#utility.yul\":7177:7183   */\n      dup2\n        /* \"#utility.yul\":7155:7184   */\n      tag_342\n      jump\t// in\n    tag_482:\n        /* \"#utility.yul\":7150:7153   */\n      dup5\n        /* \"#utility.yul\":7146:7185   */\n      add\n        /* \"#utility.yul\":7139:7185   */\n      swap2\n      pop\n        /* \"#utility.yul\":6906:7191   */\n      pop\n        /* \"#utility.yul\":6814:7191   */\n      swap3\n      swap2\n      pop\n      pop\n      jump\t// out\n        /* \"#utility.yul\":7197:7510   */\n    tag_43:\n        /* \"#utility.yul\":7310:7314   */\n      0x00\n        /* \"#utility.yul\":7348:7350   */\n      0x20\n        /* \"#utility.yul\":7337:7346   */\n      dup3\n        /* \"#utility.yul\":7333:7351   */\n      add\n        /* \"#utility.yul\":7325:7351   */\n      swap1\n      pop\n        /* \"#utility.yul\":7397:7406   */\n      dup2\n        /* \"#utility.yul\":7391:7395   */\n      dup2\n        /* \"#utility.yul\":7387:7407   */\n      sub\n        /* \"#utility.yul\":7383:7384   */\n      0x00\n        /* \"#utility.yul\":7372:7381   */\n      dup4\n        /* \"#utility.yul\":7368:7385   */\n      add\n        /* \"#utility.yul\":7361:7408   */\n      mstore\n        /* \"#utility.yul\":7425:7503   */\n      tag_484\n        /* \"#utility.yul\":7498:7502   */\n      dup2\n        /* \"#utility.yul\":7489:7495   */\n      dup5\n        /* \"#utility.yul\":7425:7503   */\n      tag_352\n      jump\t// in\n    tag_484:\n        /* \"#utility.yul\":7417:7503   */\n      swap1\n      pop\n        /* \"#utility.yul\":7197:7510   */\n      swap3\n      swap2\n      pop\n      pop\n      jump\t// out\n        /* \"#utility.yul\":7516:7827   */\n    tag_353:\n        /* \"#utility.yul\":7593:7597   */\n      0x00\n        /* \"#utility.yul\":7683:7701   */\n      0xffffffffffffffff\n        /* \"#utility.yul\":7675:7681   */\n      dup3\n        /* \"#utility.yul\":7672:7702   */\n      gt\n        /* \"#utility.yul\":7669:7725   */\n      iszero\n      tag_486\n      jumpi\n        /* \"#utility.yul\":7705:7723   */\n      tag_487\n      tag_133\n      jump\t// in\n    tag_487:\n        /* \"#utility.yul\":7669:7725   */\n    tag_486:\n        /* \"#utility.yul\":7755:7759   */\n      0x20\n        /* \"#utility.yul\":7747:7753   */\n      dup3\n        /* \"#utility.yul\":7743:7760   */\n      mul\n        /* \"#utility.yul\":7735:7760   */\n      swap1\n      pop\n        /* \"#utility.yul\":7815:7819   */\n      0x20\n        /* \"#utility.yul\":7809:7813   */\n      dup2\n        /* \"#utility.yul\":7805:7820   */\n      add\n        /* \"#utility.yul\":7797:7820   */\n      swap1\n      pop\n        /* \"#utility.yul\":7516:7827   */\n      swap2\n      swap1\n      pop\n      jump\t// out\n        /* \"#utility.yul\":7833:7950   */\n    tag_354:\n        /* \"#utility.yul\":7942:7943   */\n      0x00\n        /* \"#utility.yul\":7939:7940   */\n      dup1\n        /* \"#utility.yul\":7932:7944   */\n      revert\n        /* \"#utility.yul\":7973:8683   */\n    tag_355:\n        /* \"#utility.yul\":8069:8074   */\n      0x00\n        /* \"#utility.yul\":8094:8175   */\n      tag_490\n        /* \"#utility.yul\":8110:8174   */\n      tag_491\n        /* \"#utility.yul\":8167:8173   */\n      dup5\n        /* \"#utility.yul\":8110:8174   */\n      tag_353\n      jump\t// in\n    tag_491:\n        /* \"#utility.yul\":8094:8175   */\n      tag_344\n      jump\t// in\n    tag_490:\n        /* \"#utility.yul\":8085:8175   */\n      swap1\n      pop\n        /* \"#utility.yul\":8195:8200   */\n      dup1\n        /* \"#utility.yul\":8224:8230   */\n      dup4\n        /* \"#utility.yul\":8217:8222   */\n      dup3\n        /* \"#utility.yul\":8210:8231   */\n      mstore\n        /* \"#utility.yul\":8258:8262   */\n      0x20\n        /* \"#utility.yul\":8251:8256   */\n      dup3\n        /* \"#utility.yul\":8247:8263   */\n      add\n        /* \"#utility.yul\":8240:8263   */\n      swap1\n      pop\n        /* \"#utility.yul\":8311:8315   */\n      0x20\n        /* \"#utility.yul\":8303:8309   */\n      dup5\n        /* \"#utility.yul\":8299:8316   */\n      mul\n        /* \"#utility.yul\":8291:8297   */\n      dup4\n        /* \"#utility.yul\":8287:8317   */\n      add\n        /* \"#utility.yul\":8340:8343   */\n      dup6\n        /* \"#utility.yul\":8332:8338   */\n      dup2\n        /* \"#utility.yul\":8329:8344   */\n      gt\n        /* \"#utility.yul\":8326:8448   */\n      iszero\n      tag_492\n      jumpi\n        /* \"#utility.yul\":8359:8438   */\n      tag_493\n      tag_354\n      jump\t// in\n    tag_493:\n        /* \"#utility.yul\":8326:8448   */\n    tag_492:\n        /* \"#utility.yul\":8474:8480   */\n      dup4\n        /* \"#utility.yul\":8457:8677   */\n    tag_494:\n        /* \"#utility.yul\":8491:8497   */\n      dup2\n        /* \"#utility.yul\":8486:8489   */\n      dup2\n        /* \"#utility.yul\":8483:8498   */\n      lt\n        /* \"#utility.yul\":8457:8677   */\n      iszero\n      tag_496\n      jumpi\n        /* \"#utility.yul\":8566:8569   */\n      dup1\n        /* \"#utility.yul\":8595:8632   */\n      tag_497\n        /* \"#utility.yul\":8628:8631   */\n      dup9\n        /* \"#utility.yul\":8616:8626   */\n      dup3\n        /* \"#utility.yul\":8595:8632   */\n      tag_333\n      jump\t// in\n    tag_497:\n        /* \"#utility.yul\":8590:8593   */\n      dup5\n        /* \"#utility.yul\":8583:8633   */\n      mstore\n        /* \"#utility.yul\":8662:8666   */\n      0x20\n        /* \"#utility.yul\":8657:8660   */\n      dup5\n        /* \"#utility.yul\":8653:8667   */\n      add\n        /* \"#utility.yul\":8646:8667   */\n      swap4\n      pop\n        /* \"#utility.yul\":8533:8677   */\n      pop\n        /* \"#utility.yul\":8517:8521   */\n      0x20\n        /* \"#utility.yul\":8512:8515   */\n      dup2\n        /* \"#utility.yul\":8508:8522   */\n      add\n        /* \"#utility.yul\":8501:8522   */\n      swap1\n      pop\n        /* \"#utility.yul\":8457:8677   */\n      jump(tag_494)\n    tag_496:\n        /* \"#utility.yul\":8461:8482   */\n      pop\n        /* \"#utility.yul\":8075:8683   */\n      pop\n      pop\n        /* \"#utility.yul\":7973:8683   */\n      swap4\n      swap3\n      pop\n      pop\n      pop\n      jump\t// out\n        /* \"#utility.yul\":8706:9076   */\n    tag_356:\n        /* \"#utility.yul\":8777:8782   */\n      0x00\n        /* \"#utility.yul\":8826:8829   */\n      dup3\n        /* \"#utility.yul\":8819:8823   */\n      0x1f\n        /* \"#utility.yul\":8811:8817   */\n      dup4\n        /* \"#utility.yul\":8807:8824   */\n      add\n        /* \"#utility.yul\":8803:8830   */\n      slt\n        /* \"#utility.yul\":8793:8915   */\n      tag_499\n      jumpi\n        /* \"#utility.yul\":8834:8913   */\n      tag_500\n      tag_340\n      jump\t// in\n    tag_500:\n        /* \"#utility.yul\":8793:8915   */\n    tag_499:\n        /* \"#utility.yul\":8951:8957   */\n      dup2\n        /* \"#utility.yul\":8938:8958   */\n      calldataload\n        /* \"#utility.yul\":8976:9070   */\n      tag_501\n        /* \"#utility.yul\":9066:9069   */\n      dup5\n        /* \"#utility.yul\":9058:9064   */\n      dup3\n        /* \"#utility.yul\":9051:9055   */\n      0x20\n        /* \"#utility.yul\":9043:9049   */\n      dup7\n        /* \"#utility.yul\":9039:9056   */\n      add\n        /* \"#utility.yul\":8976:9070   */\n      tag_355\n      jump\t// in\n    tag_501:\n        /* \"#utility.yul\":8967:9070   */\n      swap2\n      pop\n        /* \"#utility.yul\":8783:9076   */\n      pop\n        /* \"#utility.yul\":8706:9076   */\n      swap3\n      swap2\n      pop\n      pop\n      jump\t// out\n        /* \"#utility.yul\":9082:9389   */\n    tag_357:\n        /* \"#utility.yul\":9143:9147   */\n      0x00\n        /* \"#utility.yul\":9233:9251   */\n      0xffffffffffffffff\n        /* \"#utility.yul\":9225:9231   */\n      dup3\n        /* \"#utility.yul\":9222:9252   */\n      gt\n        /* \"#utility.yul\":9219:9275   */\n      iszero\n      tag_503\n      jumpi\n        /* \"#utility.yul\":9255:9273   */\n      tag_504\n      tag_133\n      jump\t// in\n    tag_504:\n        /* \"#utility.yul\":9219:9275   */\n    tag_503:\n        /* \"#utility.yul\":9293:9322   */\n      tag_505\n        /* \"#utility.yul\":9315:9321   */\n      dup3\n        /* \"#utility.yul\":9293:9322   */\n      tag_342\n      jump\t// in\n    tag_505:\n        /* \"#utility.yul\":9285:9322   */\n      swap1\n      pop\n        /* \"#utility.yul\":9377:9381   */\n      0x20\n        /* \"#utility.yul\":9371:9375   */\n      dup2\n        /* \"#utility.yul\":9367:9382   */\n      add\n        /* \"#utility.yul\":9359:9382   */\n      swap1\n      pop\n        /* \"#utility.yul\":9082:9389   */\n      swap2\n      swap1\n      pop\n      jump\t// out\n        /* \"#utility.yul\":9395:9818   */\n    tag_358:\n        /* \"#utility.yul\":9472:9477   */\n      0x00\n        /* \"#utility.yul\":9497:9562   */\n      tag_507\n        /* \"#utility.yul\":9513:9561   */\n      tag_508\n        /* \"#utility.yul\":9554:9560   */\n      dup5\n        /* \"#utility.yul\":9513:9561   */\n      tag_357\n      jump\t// in\n    tag_508:\n        /* \"#utility.yul\":9497:9562   */\n      tag_344\n      jump\t// in\n    tag_507:\n        /* \"#utility.yul\":9488:9562   */\n      swap1\n      pop\n        /* \"#utility.yul\":9585:9591   */\n      dup3\n        /* \"#utility.yul\":9578:9583   */\n      dup2\n        /* \"#utility.yul\":9571:9592   */\n      mstore\n        /* \"#utility.yul\":9623:9627   */\n      0x20\n        /* \"#utility.yul\":9616:9621   */\n      dup2\n        /* \"#utility.yul\":9612:9628   */\n      add\n        /* \"#utility.yul\":9661:9664   */\n      dup5\n        /* \"#utility.yul\":9652:9658   */\n      dup5\n        /* \"#utility.yul\":9647:9650   */\n      dup5\n        /* \"#utility.yul\":9643:9659   */\n      add\n        /* \"#utility.yul\":9640:9665   */\n      gt\n        /* \"#utility.yul\":9637:9749   */\n      iszero\n      tag_509\n      jumpi\n        /* \"#utility.yul\":9668:9747   */\n      tag_510\n      tag_341\n      jump\t// in\n    tag_510:\n        /* \"#utility.yul\":9637:9749   */\n    tag_509:\n        /* \"#utility.yul\":9758:9812   */\n      tag_511\n        /* \"#utility.yul\":9805:9811   */\n      dup5\n        /* \"#utility.yul\":9800:9803   */\n      dup3\n        /* \"#utility.yul\":9795:9798   */\n      dup6\n        /* \"#utility.yul\":9758:9812   */\n      tag_346\n      jump\t// in\n    tag_511:\n        /* \"#utility.yul\":9478:9818   */\n      pop\n        /* \"#utility.yul\":9395:9818   */\n      swap4\n      swap3\n      pop\n      pop\n      pop\n      jump\t// out\n        /* \"#utility.yul\":9837:10175   */\n    tag_359:\n        /* \"#utility.yul\":9892:9897   */\n      0x00\n        /* \"#utility.yul\":9941:9944   */\n      dup3\n        /* \"#utility.yul\":9934:9938   */\n      0x1f\n        /* \"#utility.yul\":9926:9932   */\n      dup4\n        /* \"#utility.yul\":9922:9939   */\n      add\n        /* \"#utility.yul\":9918:9945   */\n      slt\n        /* \"#utility.yul\":9908:10030   */\n      tag_513\n      jumpi\n        /* \"#utility.yul\":9949:10028   */\n      tag_514\n      tag_340\n      jump\t// in\n    tag_514:\n        /* \"#utility.yul\":9908:10030   */\n    tag_513:\n        /* \"#utility.yul\":10066:10072   */\n      dup2\n        /* \"#utility.yul\":10053:10073   */\n      calldataload\n        /* \"#utility.yul\":10091:10169   */\n      tag_515\n        /* \"#utility.yul\":10165:10168   */\n      dup5\n        /* \"#utility.yul\":10157:10163   */\n      dup3\n        /* \"#utility.yul\":10150:10154   */\n      0x20\n        /* \"#utility.yul\":10142:10148   */\n      dup7\n        /* \"#utility.yul\":10138:10155   */\n      add\n        /* \"#utility.yul\":10091:10169   */\n      tag_358\n      jump\t// in\n    tag_515:\n        /* \"#utility.yul\":10082:10169   */\n      swap2\n      pop\n        /* \"#utility.yul\":9898:10175   */\n      pop\n        /* \"#utility.yul\":9837:10175   */\n      swap3\n      swap2\n      pop\n      pop\n      jump\t// out\n        /* \"#utility.yul\":10181:11544   */\n    tag_46:\n        /* \"#utility.yul\":10326:10332   */\n      0x00\n        /* \"#utility.yul\":10334:10340   */\n      dup1\n        /* \"#utility.yul\":10342:10348   */\n      0x00\n        /* \"#utility.yul\":10350:10356   */\n      dup1\n        /* \"#utility.yul\":10399:10402   */\n      0x80\n        /* \"#utility.yul\":10387:10396   */\n      dup6\n        /* \"#utility.yul\":10378:10385   */\n      dup8\n        /* \"#utility.yul\":10374:10397   */\n      sub\n        /* \"#utility.yul\":10370:10403   */\n      slt\n        /* \"#utility.yul\":10367:10487   */\n      iszero\n      tag_517\n      jumpi\n        /* \"#utility.yul\":10406:10485   */\n      tag_518\n      tag_325\n      jump\t// in\n    tag_518:\n        /* \"#utility.yul\":10367:10487   */\n    tag_517:\n        /* \"#utility.yul\":10526:10527   */\n      0x00\n        /* \"#utility.yul\":10551:10604   */\n      tag_519\n        /* \"#utility.yul\":10596:10603   */\n      dup8\n        /* \"#utility.yul\":10587:10593   */\n      dup3\n        /* \"#utility.yul\":10576:10585   */\n      dup9\n        /* \"#utility.yul\":10572:10594   */\n      add\n        /* \"#utility.yul\":10551:10604   */\n      tag_330\n      jump\t// in\n    tag_519:\n        /* \"#utility.yul\":10541:10604   */\n      swap5\n      pop\n        /* \"#utility.yul\":10497:10614   */\n      pop\n        /* \"#utility.yul\":10681:10683   */\n      0x20\n        /* \"#utility.yul\":10670:10679   */\n      dup6\n        /* \"#utility.yul\":10666:10684   */\n      add\n        /* \"#utility.yul\":10653:10685   */\n      calldataload\n        /* \"#utility.yul\":10712:10730   */\n      0xffffffffffffffff\n        /* \"#utility.yul\":10704:10710   */\n      dup2\n        /* \"#utility.yul\":10701:10731   */\n      gt\n        /* \"#utility.yul\":10698:10815   */\n      iszero\n      tag_520\n      jumpi\n        /* \"#utility.yul\":10734:10813   */\n      tag_521\n      tag_326\n      jump\t// in\n    tag_521:\n        /* \"#utility.yul\":10698:10815   */\n    tag_520:\n        /* \"#utility.yul\":10839:10917   */\n      tag_522\n        /* \"#utility.yul\":10909:10916   */\n      dup8\n        /* \"#utility.yul\":10900:10906   */\n      dup3\n        /* \"#utility.yul\":10889:10898   */\n      dup9\n        /* \"#utility.yul\":10885:10907   */\n      add\n        /* \"#utility.yul\":10839:10917   */\n      tag_356\n      jump\t// in\n    tag_522:\n        /* \"#utility.yul\":10829:10917   */\n      swap4\n      pop\n        /* \"#utility.yul\":10624:10927   */\n      pop\n        /* \"#utility.yul\":10994:10996   */\n      0x40\n        /* \"#utility.yul\":10983:10992   */\n      dup6\n        /* \"#utility.yul\":10979:10997   */\n      add\n        /* \"#utility.yul\":10966:10998   */\n      calldataload\n        /* \"#utility.yul\":11025:11043   */\n      0xffffffffffffffff\n        /* \"#utility.yul\":11017:11023   */\n      dup2\n        /* \"#utility.yul\":11014:11044   */\n      gt\n        /* \"#utility.yul\":11011:11128   */\n      iszero\n      tag_523\n      jumpi\n        /* \"#utility.yul\":11047:11126   */\n      tag_524\n      tag_326\n      jump\t// in\n    tag_524:\n        /* \"#utility.yul\":11011:11128   */\n    tag_523:\n        /* \"#utility.yul\":11152:11230   */\n      tag_525\n        /* \"#utility.yul\":11222:11229   */\n      dup8\n        /* \"#utility.yul\":11213:11219   */\n      dup3\n        /* \"#utility.yul\":11202:11211   */\n      dup9\n        /* \"#utility.yul\":11198:11220   */\n      add\n        /* \"#utility.yul\":11152:11230   */\n      tag_356\n      jump\t// in\n    tag_525:\n        /* \"#utility.yul\":11142:11230   */\n      swap3\n      pop\n        /* \"#utility.yul\":10937:11240   */\n      pop\n        /* \"#utility.yul\":11307:11309   */\n      0x60\n        /* \"#utility.yul\":11296:11305   */\n      dup6\n        /* \"#utility.yul\":11292:11310   */\n      add\n        /* \"#utility.yul\":11279:11311   */\n      calldataload\n        /* \"#utility.yul\":11338:11356   */\n      0xffffffffffffffff\n        /* \"#utility.yul\":11330:11336   */\n      dup2\n        /* \"#utility.yul\":11327:11357   */\n      gt\n        /* \"#utility.yul\":11324:11441   */\n      iszero\n      tag_526\n      jumpi\n        /* \"#utility.yul\":11360:11439   */\n      tag_527\n      tag_326\n      jump\t// in\n    tag_527:\n        /* \"#utility.yul\":11324:11441   */\n    tag_526:\n        /* \"#utility.yul\":11465:11527   */\n      tag_528\n        /* \"#utility.yul\":11519:11526   */\n      dup8\n        /* \"#utility.yul\":11510:11516   */\n      dup3\n        /* \"#utility.yul\":11499:11508   */\n      dup9\n        /* \"#utility.yul\":11495:11517   */\n      add\n        /* \"#utility.yul\":11465:11527   */\n      tag_359\n      jump\t// in\n    tag_528:\n        /* \"#utility.yul\":11455:11527   */\n      swap2\n      pop\n        /* \"#utility.yul\":11250:11537   */\n      pop\n        /* \"#utility.yul\":10181:11544   */\n      swap3\n      swap6\n      swap2\n      swap5\n      pop\n      swap3\n      pop\n      jump\t// out\n        /* \"#utility.yul\":11550:13059   */\n    tag_50:\n        /* \"#utility.yul\":11704:11710   */\n      0x00\n        /* \"#utility.yul\":11712:11718   */\n      dup1\n        /* \"#utility.yul\":11720:11726   */\n      0x00\n        /* \"#utility.yul\":11728:11734   */\n      dup1\n        /* \"#utility.yul\":11736:11742   */\n      0x00\n        /* \"#utility.yul\":11785:11788   */\n      0xa0\n        /* \"#utility.yul\":11773:11782   */\n      dup7\n        /* \"#utility.yul\":11764:11771   */\n      dup9\n        /* \"#utility.yul\":11760:11783   */\n      sub\n        /* \"#utility.yul\":11756:11789   */\n      slt\n        /* \"#utility.yul\":11753:11873   */\n      iszero\n      tag_530\n      jumpi\n        /* \"#utility.yul\":11792:11871   */\n      tag_531\n      tag_325\n      jump\t// in\n    tag_531:\n        /* \"#utility.yul\":11753:11873   */\n    tag_530:\n        /* \"#utility.yul\":11912:11913   */\n      0x00\n        /* \"#utility.yul\":11937:11990   */\n      tag_532\n        /* \"#utility.yul\":11982:11989   */\n      dup9\n        /* \"#utility.yul\":11973:11979   */\n      dup3\n        /* \"#utility.yul\":11962:11971   */\n      dup10\n        /* \"#utility.yul\":11958:11980   */\n      add\n        /* \"#utility.yul\":11937:11990   */\n      tag_330\n      jump\t// in\n    tag_532:\n        /* \"#utility.yul\":11927:11990   */\n      swap6\n      pop\n        /* \"#utility.yul\":11883:12000   */\n      pop\n        /* \"#utility.yul\":12039:12041   */\n      0x20\n        /* \"#utility.yul\":12065:12118   */\n      tag_533\n        /* \"#utility.yul\":12110:12117   */\n      dup9\n        /* \"#utility.yul\":12101:12107   */\n      dup3\n        /* \"#utility.yul\":12090:12099   */\n      dup10\n        /* \"#utility.yul\":12086:12108   */\n      add\n        /* \"#utility.yul\":12065:12118   */\n      tag_330\n      jump\t// in\n    tag_533:\n        /* \"#utility.yul\":12055:12118   */\n      swap5\n      pop\n        /* \"#utility.yul\":12010:12128   */\n      pop\n        /* \"#utility.yul\":12195:12197   */\n      0x40\n        /* \"#utility.yul\":12184:12193   */\n      dup7\n        /* \"#utility.yul\":12180:12198   */\n      add\n        /* \"#utility.yul\":12167:12199   */\n      calldataload\n        /* \"#utility.yul\":12226:12244   */\n      0xffffffffffffffff\n        /* \"#utility.yul\":12218:12224   */\n      dup2\n        /* \"#utility.yul\":12215:12245   */\n      gt\n        /* \"#utility.yul\":12212:12329   */\n      iszero\n      tag_534\n      jumpi\n        /* \"#utility.yul\":12248:12327   */\n      tag_535\n      tag_326\n      jump\t// in\n    tag_535:\n        /* \"#utility.yul\":12212:12329   */\n    tag_534:\n        /* \"#utility.yul\":12353:12431   */\n      tag_536\n        /* \"#utility.yul\":12423:12430   */\n      dup9\n        /* \"#utility.yul\":12414:12420   */\n      dup3\n        /* \"#utility.yul\":12403:12412   */\n      dup10\n        /* \"#utility.yul\":12399:12421   */\n      add\n        /* \"#utility.yul\":12353:12431   */\n      tag_356\n      jump\t// in\n    tag_536:\n        /* \"#utility.yul\":12343:12431   */\n      swap4\n      pop\n        /* \"#utility.yul\":12138:12441   */\n      pop\n        /* \"#utility.yul\":12508:12510   */\n      0x60\n        /* \"#utility.yul\":12497:12506   */\n      dup7\n        /* \"#utility.yul\":12493:12511   */\n      add\n        /* \"#utility.yul\":12480:12512   */\n      calldataload\n        /* \"#utility.yul\":12539:12557   */\n      0xffffffffffffffff\n        /* \"#utility.yul\":12531:12537   */\n      dup2\n        /* \"#utility.yul\":12528:12558   */\n      gt\n        /* \"#utility.yul\":12525:12642   */\n      iszero\n      tag_537\n      jumpi\n        /* \"#utility.yul\":12561:12640   */\n      tag_538\n      tag_326\n      jump\t// in\n    tag_538:\n        /* \"#utility.yul\":12525:12642   */\n    tag_537:\n        /* \"#utility.yul\":12666:12744   */\n      tag_539\n        /* \"#utility.yul\":12736:12743   */\n      dup9\n        /* \"#utility.yul\":12727:12733   */\n      dup3\n        /* \"#utility.yul\":12716:12725   */\n      dup10\n        /* \"#utility.yul\":12712:12734   */\n      add\n        /* \"#utility.yul\":12666:12744   */\n      tag_356\n      jump\t// in\n    tag_539:\n        /* \"#utility.yul\":12656:12744   */\n      swap3\n      pop\n        /* \"#utility.yul\":12451:12754   */\n      pop\n        /* \"#utility.yul\":12821:12824   */\n      0x80\n        /* \"#utility.yul\":12810:12819   */\n      dup7\n        /* \"#utility.yul\":12806:12825   */\n      add\n        /* \"#utility.yul\":12793:12826   */\n      calldataload\n        /* \"#utility.yul\":12853:12871   */\n      0xffffffffffffffff\n        /* \"#utility.yul\":12845:12851   */\n      dup2\n        /* \"#utility.yul\":12842:12872   */\n      gt\n        /* \"#utility.yul\":12839:12956   */\n      iszero\n      tag_540\n      jumpi\n        /* \"#utility.yul\":12875:12954   */\n      tag_541\n      tag_326\n      jump\t// in\n    tag_541:\n        /* \"#utility.yul\":12839:12956   */\n    tag_540:\n        /* \"#utility.yul\":12980:13042   */\n      tag_542\n        /* \"#utility.yul\":13034:13041   */\n      dup9\n        /* \"#utility.yul\":13025:13031   */\n      dup3\n        /* \"#utility.yul\":13014:13023   */\n      dup10\n        /* \"#utility.yul\":13010:13032   */\n      add\n        /* \"#utility.yul\":12980:13042   */\n      tag_359\n      jump\t// in\n    tag_542:\n        /* \"#utility.yul\":12970:13042   */\n      swap2\n      pop\n        /* \"#utility.yul\":12764:13052   */\n      pop\n        /* \"#utility.yul\":11550:13059   */\n      swap3\n      swap6\n      pop\n      swap3\n      swap6\n      swap1\n      swap4\n      pop\n      jump\t// out\n        /* \"#utility.yul\":13065:13376   */\n    tag_360:\n        /* \"#utility.yul\":13142:13146   */\n      0x00\n        /* \"#utility.yul\":13232:13250   */\n      0xffffffffffffffff\n        /* \"#utility.yul\":13224:13230   */\n      dup3\n        /* \"#utility.yul\":13221:13251   */\n      gt\n        /* \"#utility.yul\":13218:13274   */\n      iszero\n      tag_544\n      jumpi\n        /* \"#utility.yul\":13254:13272   */\n      tag_545\n      tag_133\n      jump\t// in\n    tag_545:\n        /* \"#utility.yul\":13218:13274   */\n    tag_544:\n        /* \"#utility.yul\":13304:13308   */\n      0x20\n        /* \"#utility.yul\":13296:13302   */\n      dup3\n        /* \"#utility.yul\":13292:13309   */\n      mul\n        /* \"#utility.yul\":13284:13309   */\n      swap1\n      pop\n        /* \"#utility.yul\":13364:13368   */\n      0x20\n        /* \"#utility.yul\":13358:13362   */\n      dup2\n        /* \"#utility.yul\":13354:13369   */\n      add\n        /* \"#utility.yul\":13346:13369   */\n      swap1\n      pop\n        /* \"#utility.yul\":13065:13376   */\n      swap2\n      swap1\n      pop\n      jump\t// out\n        /* \"#utility.yul\":13399:14109   */\n    tag_361:\n        /* \"#utility.yul\":13495:13500   */\n      0x00\n        /* \"#utility.yul\":13520:13601   */\n      tag_547\n        /* \"#utility.yul\":13536:13600   */\n      tag_548\n        /* \"#utility.yul\":13593:13599   */\n      dup5\n        /* \"#utility.yul\":13536:13600   */\n      tag_360\n      jump\t// in\n    tag_548:\n        /* \"#utility.yul\":13520:13601   */\n      tag_344\n      jump\t// in\n    tag_547:\n        /* \"#utility.yul\":13511:13601   */\n      swap1\n      pop\n        /* \"#utility.yul\":13621:13626   */\n      dup1\n        /* \"#utility.yul\":13650:13656   */\n      dup4\n        /* \"#utility.yul\":13643:13648   */\n      dup3\n        /* \"#utility.yul\":13636:13657   */\n      mstore\n        /* \"#utility.yul\":13684:13688   */\n      0x20\n        /* \"#utility.yul\":13677:13682   */\n      dup3\n        /* \"#utility.yul\":13673:13689   */\n      add\n        /* \"#utility.yul\":13666:13689   */\n      swap1\n      pop\n        /* \"#utility.yul\":13737:13741   */\n      0x20\n        /* \"#utility.yul\":13729:13735   */\n      dup5\n        /* \"#utility.yul\":13725:13742   */\n      mul\n        /* \"#utility.yul\":13717:13723   */\n      dup4\n        /* \"#utility.yul\":13713:13743   */\n      add\n        /* \"#utility.yul\":13766:13769   */\n      dup6\n        /* \"#utility.yul\":13758:13764   */\n      dup2\n        /* \"#utility.yul\":13755:13770   */\n      gt\n        /* \"#utility.yul\":13752:13874   */\n      iszero\n      tag_549\n      jumpi\n        /* \"#utility.yul\":13785:13864   */\n      tag_550\n      tag_354\n      jump\t// in\n    tag_550:\n        /* \"#utility.yul\":13752:13874   */\n    tag_549:\n        /* \"#utility.yul\":13900:13906   */\n      dup4\n        /* \"#utility.yul\":13883:14103   */\n    tag_551:\n        /* \"#utility.yul\":13917:13923   */\n      dup2\n        /* \"#utility.yul\":13912:13915   */\n      dup2\n        /* \"#utility.yul\":13909:13924   */\n      lt\n        /* \"#utility.yul\":13883:14103   */\n      iszero\n      tag_553\n      jumpi\n        /* \"#utility.yul\":13992:13995   */\n      dup1\n        /* \"#utility.yul\":14021:14058   */\n      tag_554\n        /* \"#utility.yul\":14054:14057   */\n      dup9\n        /* \"#utility.yul\":14042:14052   */\n      dup3\n        /* \"#utility.yul\":14021:14058   */\n      tag_330\n      jump\t// in\n    tag_554:\n        /* \"#utility.yul\":14016:14019   */\n      dup5\n        /* \"#utility.yul\":14009:14059   */\n      mstore\n        /* \"#utility.yul\":14088:14092   */\n      0x20\n        /* \"#utility.yul\":14083:14086   */\n      dup5\n        /* \"#utility.yul\":14079:14093   */\n      add\n        /* \"#utility.yul\":14072:14093   */\n      swap4\n      pop\n        /* \"#utility.yul\":13959:14103   */\n      pop\n        /* \"#utility.yul\":13943:13947   */\n      0x20\n        /* \"#utility.yul\":13938:13941   */\n      dup2\n        /* \"#utility.yul\":13934:13948   */\n      add\n        /* \"#utility.yul\":13927:13948   */\n      swap1\n      pop\n        /* \"#utility.yul\":13883:14103   */\n      jump(tag_551)\n    tag_553:\n        /* \"#utility.yul\":13887:13908   */\n      pop\n        /* \"#utility.yul\":13501:14109   */\n      pop\n      pop\n        /* \"#utility.yul\":13399:14109   */\n      swap4\n      swap3\n      pop\n      pop\n      pop\n      jump\t// out\n        /* \"#utility.yul\":14132:14502   */\n    tag_362:\n        /* \"#utility.yul\":14203:14208   */\n      0x00\n        /* \"#utility.yul\":14252:14255   */\n      dup3\n        /* \"#utility.yul\":14245:14249   */\n      0x1f\n        /* \"#utility.yul\":14237:14243   */\n      dup4\n        /* \"#utility.yul\":14233:14250   */\n      add\n        /* \"#utility.yul\":14229:14256   */\n      slt\n        /* \"#utility.yul\":14219:14341   */\n      tag_556\n      jumpi\n        /* \"#utility.yul\":14260:14339   */\n      tag_557\n      tag_340\n      jump\t// in\n    tag_557:\n        /* \"#utility.yul\":14219:14341   */\n    tag_556:\n        /* \"#utility.yul\":14377:14383   */\n      dup2\n        /* \"#utility.yul\":14364:14384   */\n      calldataload\n        /* \"#utility.yul\":14402:14496   */\n      tag_558\n        /* \"#utility.yul\":14492:14495   */\n      dup5\n        /* \"#utility.yul\":14484:14490   */\n      dup3\n        /* \"#utility.yul\":14477:14481   */\n      0x20\n        /* \"#utility.yul\":14469:14475   */\n      dup7\n        /* \"#utility.yul\":14465:14482   */\n      add\n        /* \"#utility.yul\":14402:14496   */\n      tag_361\n      jump\t// in\n    tag_558:\n        /* \"#utility.yul\":14393:14496   */\n      swap2\n      pop\n        /* \"#utility.yul\":14209:14502   */\n      pop\n        /* \"#utility.yul\":14132:14502   */\n      swap3\n      swap2\n      pop\n      pop\n      jump\t// out\n        /* \"#utility.yul\":14508:15402   */\n    tag_54:\n        /* \"#utility.yul\":14626:14632   */\n      0x00\n        /* \"#utility.yul\":14634:14640   */\n      dup1\n        /* \"#utility.yul\":14683:14685   */\n      0x40\n        /* \"#utility.yul\":14671:14680   */\n      dup4\n        /* \"#utility.yul\":14662:14669   */\n      dup6\n        /* \"#utility.yul\":14658:14681   */\n      sub\n        /* \"#utility.yul\":14654:14686   */\n      slt\n        /* \"#utility.yul\":14651:14770   */\n      iszero\n      tag_560\n      jumpi\n        /* \"#utility.yul\":14689:14768   */\n      tag_561\n      tag_325\n      jump\t// in\n    tag_561:\n        /* \"#utility.yul\":14651:14770   */\n    tag_560:\n        /* \"#utility.yul\":14837:14838   */\n      0x00\n        /* \"#utility.yul\":14826:14835   */\n      dup4\n        /* \"#utility.yul\":14822:14839   */\n      add\n        /* \"#utility.yul\":14809:14840   */\n      calldataload\n        /* \"#utility.yul\":14867:14885   */\n      0xffffffffffffffff\n        /* \"#utility.yul\":14859:14865   */\n      dup2\n        /* \"#utility.yul\":14856:14886   */\n      gt\n        /* \"#utility.yul\":14853:14970   */\n      iszero\n      tag_562\n      jumpi\n        /* \"#utility.yul\":14889:14968   */\n      tag_563\n      tag_326\n      jump\t// in\n    tag_563:\n        /* \"#utility.yul\":14853:14970   */\n    tag_562:\n        /* \"#utility.yul\":14994:15072   */\n      tag_564\n        /* \"#utility.yul\":15064:15071   */\n      dup6\n        /* \"#utility.yul\":15055:15061   */\n      dup3\n        /* \"#utility.yul\":15044:15053   */\n      dup7\n        /* \"#utility.yul\":15040:15062   */\n      add\n        /* \"#utility.yul\":14994:15072   */\n      tag_362\n      jump\t// in\n    tag_564:\n        /* \"#utility.yul\":14984:15072   */\n      swap3\n      pop\n        /* \"#utility.yul\":14780:15082   */\n      pop\n        /* \"#utility.yul\":15149:15151   */\n      0x20\n        /* \"#utility.yul\":15138:15147   */\n      dup4\n        /* \"#utility.yul\":15134:15152   */\n      add\n        /* \"#utility.yul\":15121:15153   */\n      calldataload\n        /* \"#utility.yul\":15180:15198   */\n      0xffffffffffffffff\n        /* \"#utility.yul\":15172:15178   */\n      dup2\n        /* \"#utility.yul\":15169:15199   */\n      gt\n        /* \"#utility.yul\":15166:15283   */\n      iszero\n      tag_565\n      jumpi\n        /* \"#utility.yul\":15202:15281   */\n      tag_566\n      tag_326\n      jump\t// in\n    tag_566:\n        /* \"#utility.yul\":15166:15283   */\n    tag_565:\n        /* \"#utility.yul\":15307:15385   */\n      tag_567\n        /* \"#utility.yul\":15377:15384   */\n      dup6\n        /* \"#utility.yul\":15368:15374   */\n      dup3\n        /* \"#utility.yul\":15357:15366   */\n      dup7\n        /* \"#utility.yul\":15353:15375   */\n      add\n        /* \"#utility.yul\":15307:15385   */\n      tag_356\n      jump\t// in\n    tag_567:\n        /* \"#utility.yul\":15297:15385   */\n      swap2\n      pop\n        /* \"#utility.yul\":15092:15395   */\n      pop\n        /* \"#utility.yul\":14508:15402   */\n      swap3\n      pop\n      swap3\n      swap1\n      pop\n      jump\t// out\n        /* \"#utility.yul\":15408:15522   */\n    tag_363:\n        /* \"#utility.yul\":15475:15481   */\n      0x00\n        /* \"#utility.yul\":15509:15514   */\n      dup2\n        /* \"#utility.yul\":15503:15515   */\n      mload\n        /* \"#utility.yul\":15493:15515   */\n      swap1\n      pop\n        /* \"#utility.yul\":15408:15522   */\n      swap2\n      swap1\n      pop\n      jump\t// out\n        /* \"#utility.yul\":15528:15712   */\n    tag_364:\n        /* \"#utility.yul\":15627:15638   */\n      0x00\n        /* \"#utility.yul\":15661:15667   */\n      dup3\n        /* \"#utility.yul\":15656:15659   */\n      dup3\n        /* \"#utility.yul\":15649:15668   */\n      mstore\n        /* \"#utility.yul\":15701:15705   */\n      0x20\n        /* \"#utility.yul\":15696:15699   */\n      dup3\n        /* \"#utility.yul\":15692:15706   */\n      add\n        /* \"#utility.yul\":15677:15706   */\n      swap1\n      pop\n        /* \"#utility.yul\":15528:15712   */\n      swap3\n      swap2\n      pop\n      pop\n      jump\t// out\n        /* \"#utility.yul\":15718:15850   */\n    tag_365:\n        /* \"#utility.yul\":15785:15789   */\n      0x00\n        /* \"#utility.yul\":15808:15811   */\n      dup2\n        /* \"#utility.yul\":15800:15811   */\n      swap1\n      pop\n        /* \"#utility.yul\":15838:15842   */\n      0x20\n        /* \"#utility.yul\":15833:15836   */\n      dup3\n        /* \"#utility.yul\":15829:15843   */\n      add\n        /* \"#utility.yul\":15821:15843   */\n      swap1\n      pop\n        /* \"#utility.yul\":15718:15850   */\n      swap2\n      swap1\n      pop\n      jump\t// out\n        /* \"#utility.yul\":15856:15964   */\n    tag_366:\n        /* \"#utility.yul\":15933:15957   */\n      tag_572\n        /* \"#utility.yul\":15951:15956   */\n      dup2\n        /* \"#utility.yul\":15933:15957   */\n      tag_331\n      jump\t// in\n    tag_572:\n        /* \"#utility.yul\":15928:15931   */\n      dup3\n        /* \"#utility.yul\":15921:15958   */\n      mstore\n        /* \"#utility.yul\":15856:15964   */\n      pop\n      pop\n      jump\t// out\n        /* \"#utility.yul\":15970:16149   */\n    tag_367:\n        /* \"#utility.yul\":16039:16049   */\n      0x00\n        /* \"#utility.yul\":16060:16106   */\n      tag_574\n        /* \"#utility.yul\":16102:16105   */\n      dup4\n        /* \"#utility.yul\":16094:16100   */\n      dup4\n        /* \"#utility.yul\":16060:16106   */\n      tag_366\n      jump\t// in\n    tag_574:\n        /* \"#utility.yul\":16138:16142   */\n      0x20\n        /* \"#utility.yul\":16133:16136   */\n      dup4\n        /* \"#utility.yul\":16129:16143   */\n      add\n        /* \"#utility.yul\":16115:16143   */\n      swap1\n      pop\n        /* \"#utility.yul\":15970:16149   */\n      swap3\n      swap2\n      pop\n      pop\n      jump\t// out\n        /* \"#utility.yul\":16155:16268   */\n    tag_368:\n        /* \"#utility.yul\":16225:16229   */\n      0x00\n        /* \"#utility.yul\":16257:16261   */\n      0x20\n        /* \"#utility.yul\":16252:16255   */\n      dup3\n        /* \"#utility.yul\":16248:16262   */\n      add\n        /* \"#utility.yul\":16240:16262   */\n      swap1\n      pop\n        /* \"#utility.yul\":16155:16268   */\n      swap2\n      swap1\n      pop\n      jump\t// out\n        /* \"#utility.yul\":16304:17036   */\n    tag_369:\n        /* \"#utility.yul\":16423:16426   */\n      0x00\n        /* \"#utility.yul\":16452:16506   */\n      tag_577\n        /* \"#utility.yul\":16500:16505   */\n      dup3\n        /* \"#utility.yul\":16452:16506   */\n      tag_363\n      jump\t// in\n    tag_577:\n        /* \"#utility.yul\":16522:16608   */\n      tag_578\n        /* \"#utility.yul\":16601:16607   */\n      dup2\n        /* \"#utility.yul\":16596:16599   */\n      dup6\n        /* \"#utility.yul\":16522:16608   */\n      tag_364\n      jump\t// in\n    tag_578:\n        /* \"#utility.yul\":16515:16608   */\n      swap4\n      pop\n        /* \"#utility.yul\":16632:16688   */\n      tag_579\n        /* \"#utility.yul\":16682:16687   */\n      dup4\n        /* \"#utility.yul\":16632:16688   */\n      tag_365\n      jump\t// in\n    tag_579:\n        /* \"#utility.yul\":16711:16718   */\n      dup1\n        /* \"#utility.yul\":16742:16743   */\n      0x00\n        /* \"#utility.yul\":16727:17011   */\n    tag_580:\n        /* \"#utility.yul\":16752:16758   */\n      dup4\n        /* \"#utility.yul\":16749:16750   */\n      dup2\n        /* \"#utility.yul\":16746:16759   */\n      lt\n        /* \"#utility.yul\":16727:17011   */\n      iszero\n      tag_582\n      jumpi\n        /* \"#utility.yul\":16828:16834   */\n      dup2\n        /* \"#utility.yul\":16822:16835   */\n      mload\n        /* \"#utility.yul\":16855:16918   */\n      tag_583\n        /* \"#utility.yul\":16914:16917   */\n      dup9\n        /* \"#utility.yul\":16899:16912   */\n      dup3\n        /* \"#utility.yul\":16855:16918   */\n      tag_367\n      jump\t// in\n    tag_583:\n        /* \"#utility.yul\":16848:16918   */\n      swap8\n      pop\n        /* \"#utility.yul\":16941:17001   */\n      tag_584\n        /* \"#utility.yul\":16994:17000   */\n      dup4\n        /* \"#utility.yul\":16941:17001   */\n      tag_368\n      jump\t// in\n    tag_584:\n        /* \"#utility.yul\":16931:17001   */\n      swap3\n      pop\n        /* \"#utility.yul\":16787:17011   */\n      pop\n        /* \"#utility.yul\":16774:16775   */\n      0x01\n        /* \"#utility.yul\":16771:16772   */\n      dup2\n        /* \"#utility.yul\":16767:16776   */\n      add\n        /* \"#utility.yul\":16762:16776   */\n      swap1\n      pop\n        /* \"#utility.yul\":16727:17011   */\n      jump(tag_580)\n    tag_582:\n        /* \"#utility.yul\":16731:16745   */\n      pop\n        /* \"#utility.yul\":17027:17030   */\n      dup6\n        /* \"#utility.yul\":17020:17030   */\n      swap4\n      pop\n        /* \"#utility.yul\":16428:17036   */\n      pop\n      pop\n      pop\n        /* \"#utility.yul\":16304:17036   */\n      swap3\n      swap2\n      pop\n      pop\n      jump\t// out\n        /* \"#utility.yul\":17042:17415   */\n    tag_57:\n        /* \"#utility.yul\":17185:17189   */\n      0x00\n        /* \"#utility.yul\":17223:17225   */\n      0x20\n        /* \"#utility.yul\":17212:17221   */\n      dup3\n        /* \"#utility.yul\":17208:17226   */\n      add\n        /* \"#utility.yul\":17200:17226   */\n      swap1\n      pop\n        /* \"#utility.yul\":17272:17281   */\n      dup2\n        /* \"#utility.yul\":17266:17270   */\n      dup2\n        /* \"#utility.yul\":17262:17282   */\n      sub\n        /* \"#utility.yul\":17258:17259   */\n      0x00\n        /* \"#utility.yul\":17247:17256   */\n      dup4\n        /* \"#utility.yul\":17243:17260   */\n      add\n        /* \"#utility.yul\":17236:17283   */\n      mstore\n        /* \"#utility.yul\":17300:17408   */\n      tag_586\n        /* \"#utility.yul\":17403:17407   */\n      dup2\n        /* \"#utility.yul\":17394:17400   */\n      dup5\n        /* \"#utility.yul\":17300:17408   */\n      tag_369\n      jump\t// in\n    tag_586:\n        /* \"#utility.yul\":17292:17408   */\n      swap1\n      pop\n        /* \"#utility.yul\":17042:17415   */\n      swap3\n      swap2\n      pop\n      pop\n      jump\t// out\n        /* \"#utility.yul\":17421:18460   */\n    tag_60:\n        /* \"#utility.yul\":17548:17554   */\n      0x00\n        /* \"#utility.yul\":17556:17562   */\n      dup1\n        /* \"#utility.yul\":17564:17570   */\n      0x00\n        /* \"#utility.yul\":17613:17615   */\n      0x60\n        /* \"#utility.yul\":17601:17610   */\n      dup5\n        /* \"#utility.yul\":17592:17599   */\n      dup7\n        /* \"#utility.yul\":17588:17611   */\n      sub\n        /* \"#utility.yul\":17584:17616   */\n      slt\n        /* \"#utility.yul\":17581:17700   */\n      iszero\n      tag_588\n      jumpi\n        /* \"#utility.yul\":17619:17698   */\n      tag_589\n      tag_325\n      jump\t// in\n    tag_589:\n        /* \"#utility.yul\":17581:17700   */\n    tag_588:\n        /* \"#utility.yul\":17739:17740   */\n      0x00\n        /* \"#utility.yul\":17764:17817   */\n      tag_590\n        /* \"#utility.yul\":17809:17816   */\n      dup7\n        /* \"#utility.yul\":17800:17806   */\n      dup3\n        /* \"#utility.yul\":17789:17798   */\n      dup8\n        /* \"#utility.yul\":17785:17807   */\n      add\n        /* \"#utility.yul\":17764:17817   */\n      tag_330\n      jump\t// in\n    tag_590:\n        /* \"#utility.yul\":17754:17817   */\n      swap4\n      pop\n        /* \"#utility.yul\":17710:17827   */\n      pop\n        /* \"#utility.yul\":17894:17896   */\n      0x20\n        /* \"#utility.yul\":17883:17892   */\n      dup5\n        /* \"#utility.yul\":17879:17897   */\n      add\n        /* \"#utility.yul\":17866:17898   */\n      calldataload\n        /* \"#utility.yul\":17925:17943   */\n      0xffffffffffffffff\n        /* \"#utility.yul\":17917:17923   */\n      dup2\n        /* \"#utility.yul\":17914:17944   */\n      gt\n        /* \"#utility.yul\":17911:18028   */\n      iszero\n      tag_591\n      jumpi\n        /* \"#utility.yul\":17947:18026   */\n      tag_592\n      tag_326\n      jump\t// in\n    tag_592:\n        /* \"#utility.yul\":17911:18028   */\n    tag_591:\n        /* \"#utility.yul\":18052:18130   */\n      tag_593\n        /* \"#utility.yul\":18122:18129   */\n      dup7\n        /* \"#utility.yul\":18113:18119   */\n      dup3\n        /* \"#utility.yul\":18102:18111   */\n      dup8\n        /* \"#utility.yul\":18098:18120   */\n      add\n        /* \"#utility.yul\":18052:18130   */\n      tag_356\n      jump\t// in\n    tag_593:\n        /* \"#utility.yul\":18042:18130   */\n      swap3\n      pop\n        /* \"#utility.yul\":17837:18140   */\n      pop\n        /* \"#utility.yul\":18207:18209   */\n      0x40\n        /* \"#utility.yul\":18196:18205   */\n      dup5\n        /* \"#utility.yul\":18192:18210   */\n      add\n        /* \"#utility.yul\":18179:18211   */\n      calldataload\n        /* \"#utility.yul\":18238:18256   */\n      0xffffffffffffffff\n        /* \"#utility.yul\":18230:18236   */\n      dup2\n        /* \"#utility.yul\":18227:18257   */\n      gt\n        /* \"#utility.yul\":18224:18341   */\n      iszero\n      tag_594\n      jumpi\n        /* \"#utility.yul\":18260:18339   */\n      tag_595\n      tag_326\n      jump\t// in\n    tag_595:\n        /* \"#utility.yul\":18224:18341   */\n    tag_594:\n        /* \"#utility.yul\":18365:18443   */\n      tag_596\n        /* \"#utility.yul\":18435:18442   */\n      dup7\n        /* \"#utility.yul\":18426:18432   */\n      dup3\n        /* \"#utility.yul\":18415:18424   */\n      dup8\n        /* \"#utility.yul\":18411:18433   */\n      add\n        /* \"#utility.yul\":18365:18443   */\n      tag_356\n      jump\t// in\n    tag_596:\n        /* \"#utility.yul\":18355:18443   */\n      swap2\n      pop\n        /* \"#utility.yul\":18150:18453   */\n      pop\n        /* \"#utility.yul\":17421:18460   */\n      swap3\n      pop\n      swap3\n      pop\n      swap3\n      jump\t// out\n        /* \"#utility.yul\":18466:19409   */\n    tag_66:\n        /* \"#utility.yul\":18561:18567   */\n      0x00\n        /* \"#utility.yul\":18569:18575   */\n      dup1\n        /* \"#utility.yul\":18577:18583   */\n      0x00\n        /* \"#utility.yul\":18585:18591   */\n      dup1\n        /* \"#utility.yul\":18634:18637   */\n      0x80\n        /* \"#utility.yul\":18622:18631   */\n      dup6\n        /* \"#utility.yul\":18613:18620   */\n      dup8\n        /* \"#utility.yul\":18609:18632   */\n      sub\n        /* \"#utility.yul\":18605:18638   */\n      slt\n        /* \"#utility.yul\":18602:18722   */\n      iszero\n      tag_598\n      jumpi\n        /* \"#utility.yul\":18641:18720   */\n      tag_599\n      tag_325\n      jump\t// in\n    tag_599:\n        /* \"#utility.yul\":18602:18722   */\n    tag_598:\n        /* \"#utility.yul\":18761:18762   */\n      0x00\n        /* \"#utility.yul\":18786:18839   */\n      tag_600\n        /* \"#utility.yul\":18831:18838   */\n      dup8\n        /* \"#utility.yul\":18822:18828   */\n      dup3\n        /* \"#utility.yul\":18811:18820   */\n      dup9\n        /* \"#utility.yul\":18807:18829   */\n      add\n        /* \"#utility.yul\":18786:18839   */\n      tag_330\n      jump\t// in\n    tag_600:\n        /* \"#utility.yul\":18776:18839   */\n      swap5\n      pop\n        /* \"#utility.yul\":18732:18849   */\n      pop\n        /* \"#utility.yul\":18888:18890   */\n      0x20\n        /* \"#utility.yul\":18914:18967   */\n      tag_601\n        /* \"#utility.yul\":18959:18966   */\n      dup8\n        /* \"#utility.yul\":18950:18956   */\n      dup3\n        /* \"#utility.yul\":18939:18948   */\n      dup9\n        /* \"#utility.yul\":18935:18957   */\n      add\n        /* \"#utility.yul\":18914:18967   */\n      tag_333\n      jump\t// in\n    tag_601:\n        /* \"#utility.yul\":18904:18967   */\n      swap4\n      pop\n        /* \"#utility.yul\":18859:18977   */\n      pop\n        /* \"#utility.yul\":19016:19018   */\n      0x40\n        /* \"#utility.yul\":19042:19095   */\n      tag_602\n        /* \"#utility.yul\":19087:19094   */\n      dup8\n        /* \"#utility.yul\":19078:19084   */\n      dup3\n        /* \"#utility.yul\":19067:19076   */\n      dup9\n        /* \"#utility.yul\":19063:19085   */\n      add\n        /* \"#utility.yul\":19042:19095   */\n      tag_333\n      jump\t// in\n    tag_602:\n        /* \"#utility.yul\":19032:19095   */\n      swap3\n      pop\n        /* \"#utility.yul\":18987:19105   */\n      pop\n        /* \"#utility.yul\":19172:19174   */\n      0x60\n        /* \"#utility.yul\":19161:19170   */\n      dup6\n        /* \"#utility.yul\":19157:19175   */\n      add\n        /* \"#utility.yul\":19144:19176   */\n      calldataload\n        /* \"#utility.yul\":19203:19221   */\n      0xffffffffffffffff\n        /* \"#utility.yul\":19195:19201   */\n      dup2\n        /* \"#utility.yul\":19192:19222   */\n      gt\n        /* \"#utility.yul\":19189:19306   */\n      iszero\n      tag_603\n      jumpi\n        /* \"#utility.yul\":19225:19304   */\n      tag_604\n      tag_326\n      jump\t// in\n    tag_604:\n        /* \"#utility.yul\":19189:19306   */\n    tag_603:\n        /* \"#utility.yul\":19330:19392   */\n      tag_605\n        /* \"#utility.yul\":19384:19391   */\n      dup8\n        /* \"#utility.yul\":19375:19381   */\n      dup3\n        /* \"#utility.yul\":19364:19373   */\n      dup9\n        /* \"#utility.yul\":19360:19382   */\n      add\n        /* \"#utility.yul\":19330:19392   */\n      tag_359\n      jump\t// in\n    tag_605:\n        /* \"#utility.yul\":19320:19392   */\n      swap2\n      pop\n        /* \"#utility.yul\":19115:19402   */\n      pop\n        /* \"#utility.yul\":18466:19409   */\n      swap3\n      swap6\n      swap2\n      swap5\n      pop\n      swap3\n      pop\n      jump\t// out\n        /* \"#utility.yul\":19415:19533   */\n    tag_370:\n        /* \"#utility.yul\":19502:19526   */\n      tag_607\n        /* \"#utility.yul\":19520:19525   */\n      dup2\n        /* \"#utility.yul\":19502:19526   */\n      tag_328\n      jump\t// in\n    tag_607:\n        /* \"#utility.yul\":19497:19500   */\n      dup3\n        /* \"#utility.yul\":19490:19527   */\n      mstore\n        /* \"#utility.yul\":19415:19533   */\n      pop\n      pop\n      jump\t// out\n        /* \"#utility.yul\":19539:19761   */\n    tag_71:\n        /* \"#utility.yul\":19632:19636   */\n      0x00\n        /* \"#utility.yul\":19670:19672   */\n      0x20\n        /* \"#utility.yul\":19659:19668   */\n      dup3\n        /* \"#utility.yul\":19655:19673   */\n      add\n        /* \"#utility.yul\":19647:19673   */\n      swap1\n      pop\n        /* \"#utility.yul\":19683:19754   */\n      tag_609\n        /* \"#utility.yul\":19751:19752   */\n      0x00\n        /* \"#utility.yul\":19740:19749   */\n      dup4\n        /* \"#utility.yul\":19736:19753   */\n      add\n        /* \"#utility.yul\":19727:19733   */\n      dup5\n        /* \"#utility.yul\":19683:19754   */\n      tag_370\n      jump\t// in\n    tag_609:\n        /* \"#utility.yul\":19539:19761   */\n      swap3\n      swap2\n      pop\n      pop\n      jump\t// out\n        /* \"#utility.yul\":19767:19883   */\n    tag_371:\n        /* \"#utility.yul\":19837:19858   */\n      tag_611\n        /* \"#utility.yul\":19852:19857   */\n      dup2\n        /* \"#utility.yul\":19837:19858   */\n      tag_338\n      jump\t// in\n    tag_611:\n        /* \"#utility.yul\":19830:19835   */\n      dup2\n        /* \"#utility.yul\":19827:19859   */\n      eq\n        /* \"#utility.yul\":19817:19877   */\n      tag_612\n      jumpi\n        /* \"#utility.yul\":19873:19874   */\n      0x00\n        /* \"#utility.yul\":19870:19871   */\n      dup1\n        /* \"#utility.yul\":19863:19875   */\n      revert\n        /* \"#utility.yul\":19817:19877   */\n    tag_612:\n        /* \"#utility.yul\":19767:19883   */\n      pop\n      jump\t// out\n        /* \"#utility.yul\":19889:20022   */\n    tag_372:\n        /* \"#utility.yul\":19932:19937   */\n      0x00\n        /* \"#utility.yul\":19970:19976   */\n      dup2\n        /* \"#utility.yul\":19957:19977   */\n      calldataload\n        /* \"#utility.yul\":19948:19977   */\n      swap1\n      pop\n        /* \"#utility.yul\":19986:20016   */\n      tag_614\n        /* \"#utility.yul\":20010:20015   */\n      dup2\n        /* \"#utility.yul\":19986:20016   */\n      tag_371\n      jump\t// in\n    tag_614:\n        /* \"#utility.yul\":19889:20022   */\n      swap3\n      swap2\n      pop\n      pop\n      jump\t// out\n        /* \"#utility.yul\":20028:20496   */\n    tag_74:\n        /* \"#utility.yul\":20093:20099   */\n      0x00\n        /* \"#utility.yul\":20101:20107   */\n      dup1\n        /* \"#utility.yul\":20150:20152   */\n      0x40\n        /* \"#utility.yul\":20138:20147   */\n      dup4\n        /* \"#utility.yul\":20129:20136   */\n      dup6\n        /* \"#utility.yul\":20125:20148   */\n      sub\n        /* \"#utility.yul\":20121:20153   */\n      slt\n        /* \"#utility.yul\":20118:20237   */\n      iszero\n      tag_616\n      jumpi\n        /* \"#utility.yul\":20156:20235   */\n      tag_617\n      tag_325\n      jump\t// in\n    tag_617:\n        /* \"#utility.yul\":20118:20237   */\n    tag_616:\n        /* \"#utility.yul\":20276:20277   */\n      0x00\n        /* \"#utility.yul\":20301:20354   */\n      tag_618\n        /* \"#utility.yul\":20346:20353   */\n      dup6\n        /* \"#utility.yul\":20337:20343   */\n      dup3\n        /* \"#utility.yul\":20326:20335   */\n      dup7\n        /* \"#utility.yul\":20322:20344   */\n      add\n        /* \"#utility.yul\":20301:20354   */\n      tag_330\n      jump\t// in\n    tag_618:\n        /* \"#utility.yul\":20291:20354   */\n      swap3\n      pop\n        /* \"#utility.yul\":20247:20364   */\n      pop\n        /* \"#utility.yul\":20403:20405   */\n      0x20\n        /* \"#utility.yul\":20429:20479   */\n      tag_619\n        /* \"#utility.yul\":20471:20478   */\n      dup6\n        /* \"#utility.yul\":20462:20468   */\n      dup3\n        /* \"#utility.yul\":20451:20460   */\n      dup7\n        /* \"#utility.yul\":20447:20469   */\n      add\n        /* \"#utility.yul\":20429:20479   */\n      tag_372\n      jump\t// in\n    tag_619:\n        /* \"#utility.yul\":20419:20479   */\n      swap2\n      pop\n        /* \"#utility.yul\":20374:20489   */\n      pop\n        /* \"#utility.yul\":20028:20496   */\n      swap3\n      pop\n      swap3\n      swap1\n      pop\n      jump\t// out\n        /* \"#utility.yul\":20502:20976   */\n    tag_78:\n        /* \"#utility.yul\":20570:20576   */\n      0x00\n        /* \"#utility.yul\":20578:20584   */\n      dup1\n        /* \"#utility.yul\":20627:20629   */\n      0x40\n        /* \"#utility.yul\":20615:20624   */\n      dup4\n        /* \"#utility.yul\":20606:20613   */\n      dup6\n        /* \"#utility.yul\":20602:20625   */\n      sub\n        /* \"#utility.yul\":20598:20630   */\n      slt\n        /* \"#utility.yul\":20595:20714   */\n      iszero\n      tag_621\n      jumpi\n        /* \"#utility.yul\":20633:20712   */\n      tag_622\n      tag_325\n      jump\t// in\n    tag_622:\n        /* \"#utility.yul\":20595:20714   */\n    tag_621:\n        /* \"#utility.yul\":20753:20754   */\n      0x00\n        /* \"#utility.yul\":20778:20831   */\n      tag_623\n        /* \"#utility.yul\":20823:20830   */\n      dup6\n        /* \"#utility.yul\":20814:20820   */\n      dup3\n        /* \"#utility.yul\":20803:20812   */\n      dup7\n        /* \"#utility.yul\":20799:20821   */\n      add\n        /* \"#utility.yul\":20778:20831   */\n      tag_330\n      jump\t// in\n    tag_623:\n        /* \"#utility.yul\":20768:20831   */\n      swap3\n      pop\n        /* \"#utility.yul\":20724:20841   */\n      pop\n        /* \"#utility.yul\":20880:20882   */\n      0x20\n        /* \"#utility.yul\":20906:20959   */\n      tag_624\n        /* \"#utility.yul\":20951:20958   */\n      dup6\n        /* \"#utility.yul\":20942:20948   */\n      dup3\n        /* \"#utility.yul\":20931:20940   */\n      dup7\n        /* \"#utility.yul\":20927:20949   */\n      add\n        /* \"#utility.yul\":20906:20959   */\n      tag_330\n      jump\t// in\n    tag_624:\n        /* \"#utility.yul\":20896:20959   */\n      swap2\n      pop\n        /* \"#utility.yul\":20851:20969   */\n      pop\n        /* \"#utility.yul\":20502:20976   */\n      swap3\n      pop\n      swap3\n      swap1\n      pop\n      jump\t// out\n        /* \"#utility.yul\":20982:22071   */\n    tag_83:\n        /* \"#utility.yul\":21086:21092   */\n      0x00\n        /* \"#utility.yul\":21094:21100   */\n      dup1\n        /* \"#utility.yul\":21102:21108   */\n      0x00\n        /* \"#utility.yul\":21110:21116   */\n      dup1\n        /* \"#utility.yul\":21118:21124   */\n      0x00\n        /* \"#utility.yul\":21167:21170   */\n      0xa0\n        /* \"#utility.yul\":21155:21164   */\n      dup7\n        /* \"#utility.yul\":21146:21153   */\n      dup9\n        /* \"#utility.yul\":21142:21165   */\n      sub\n        /* \"#utility.yul\":21138:21171   */\n      slt\n        /* \"#utility.yul\":21135:21255   */\n      iszero\n      tag_626\n      jumpi\n        /* \"#utility.yul\":21174:21253   */\n      tag_627\n      tag_325\n      jump\t// in\n    tag_627:\n        /* \"#utility.yul\":21135:21255   */\n    tag_626:\n        /* \"#utility.yul\":21294:21295   */\n      0x00\n        /* \"#utility.yul\":21319:21372   */\n      tag_628\n        /* \"#utility.yul\":21364:21371   */\n      dup9\n        /* \"#utility.yul\":21355:21361   */\n      dup3\n        /* \"#utility.yul\":21344:21353   */\n      dup10\n        /* \"#utility.yul\":21340:21362   */\n      add\n        /* \"#utility.yul\":21319:21372   */\n      tag_330\n      jump\t// in\n    tag_628:\n        /* \"#utility.yul\":21309:21372   */\n      swap6\n      pop\n        /* \"#utility.yul\":21265:21382   */\n      pop\n        /* \"#utility.yul\":21421:21423   */\n      0x20\n        /* \"#utility.yul\":21447:21500   */\n      tag_629\n        /* \"#utility.yul\":21492:21499   */\n      dup9\n        /* \"#utility.yul\":21483:21489   */\n      dup3\n        /* \"#utility.yul\":21472:21481   */\n      dup10\n        /* \"#utility.yul\":21468:21490   */\n      add\n        /* \"#utility.yul\":21447:21500   */\n      tag_330\n      jump\t// in\n    tag_629:\n        /* \"#utility.yul\":21437:21500   */\n      swap5\n      pop\n        /* \"#utility.yul\":21392:21510   */\n      pop\n        /* \"#utility.yul\":21549:21551   */\n      0x40\n        /* \"#utility.yul\":21575:21628   */\n      tag_630\n        /* \"#utility.yul\":21620:21627   */\n      dup9\n        /* \"#utility.yul\":21611:21617   */\n      dup3\n        /* \"#utility.yul\":21600:21609   */\n      dup10\n        /* \"#utility.yul\":21596:21618   */\n      add\n        /* \"#utility.yul\":21575:21628   */\n      tag_333\n      jump\t// in\n    tag_630:\n        /* \"#utility.yul\":21565:21628   */\n      swap4\n      pop\n        /* \"#utility.yul\":21520:21638   */\n      pop\n        /* \"#utility.yul\":21677:21679   */\n      0x60\n        /* \"#utility.yul\":21703:21756   */\n      tag_631\n        /* \"#utility.yul\":21748:21755   */\n      dup9\n        /* \"#utility.yul\":21739:21745   */\n      dup3\n        /* \"#utility.yul\":21728:21737   */\n      dup10\n        /* \"#utility.yul\":21724:21746   */\n      add\n        /* \"#utility.yul\":21703:21756   */\n      tag_333\n      jump\t// in\n    tag_631:\n        /* \"#utility.yul\":21693:21756   */\n      swap3\n      pop\n        /* \"#utility.yul\":21648:21766   */\n      pop\n        /* \"#utility.yul\":21833:21836   */\n      0x80\n        /* \"#utility.yul\":21822:21831   */\n      dup7\n        /* \"#utility.yul\":21818:21837   */\n      add\n        /* \"#utility.yul\":21805:21838   */\n      calldataload\n        /* \"#utility.yul\":21865:21883   */\n      0xffffffffffffffff\n        /* \"#utility.yul\":21857:21863   */\n      dup2\n        /* \"#utility.yul\":21854:21884   */\n      gt\n        /* \"#utility.yul\":21851:21968   */\n      iszero\n      tag_632\n      jumpi\n        /* \"#utility.yul\":21887:21966   */\n      tag_633\n      tag_326\n      jump\t// in\n    tag_633:\n        /* \"#utility.yul\":21851:21968   */\n    tag_632:\n        /* \"#utility.yul\":21992:22054   */\n      tag_634\n        /* \"#utility.yul\":22046:22053   */\n      dup9\n        /* \"#utility.yul\":22037:22043   */\n      dup3\n        /* \"#utility.yul\":22026:22035   */\n      dup10\n        /* \"#utility.yul\":22022:22044   */\n      add\n        /* \"#utility.yul\":21992:22054   */\n      tag_359\n      jump\t// in\n    tag_634:\n        /* \"#utility.yul\":21982:22054   */\n      swap2\n      pop\n        /* \"#utility.yul\":21776:22064   */\n      pop\n        /* \"#utility.yul\":20982:22071   */\n      swap3\n      swap6\n      pop\n      swap3\n      swap6\n      swap1\n      swap4\n      pop\n      jump\t// out\n        /* \"#utility.yul\":22077:22406   */\n    tag_87:\n        /* \"#utility.yul\":22136:22142   */\n      0x00\n        /* \"#utility.yul\":22185:22187   */\n      0x20\n        /* \"#utility.yul\":22173:22182   */\n      dup3\n        /* \"#utility.yul\":22164:22171   */\n      dup5\n        /* \"#utility.yul\":22160:22183   */\n      sub\n        /* \"#utility.yul\":22156:22188   */\n      slt\n        /* \"#utility.yul\":22153:22272   */\n      iszero\n      tag_636\n      jumpi\n        /* \"#utility.yul\":22191:22270   */\n      tag_637\n      tag_325\n      jump\t// in\n    tag_637:\n        /* \"#utility.yul\":22153:22272   */\n    tag_636:\n        /* \"#utility.yul\":22311:22312   */\n      0x00\n        /* \"#utility.yul\":22336:22389   */\n      tag_638\n        /* \"#utility.yul\":22381:22388   */\n      dup5\n        /* \"#utility.yul\":22372:22378   */\n      dup3\n        /* \"#utility.yul\":22361:22370   */\n      dup6\n        /* \"#utility.yul\":22357:22379   */\n      add\n        /* \"#utility.yul\":22336:22389   */\n      tag_330\n      jump\t// in\n    tag_638:\n        /* \"#utility.yul\":22326:22389   */\n      swap2\n      pop\n        /* \"#utility.yul\":22282:22399   */\n      pop\n        /* \"#utility.yul\":22077:22406   */\n      swap3\n      swap2\n      pop\n      pop\n      jump\t// out\n        /* \"#utility.yul\":22412:23031   */\n    tag_91:\n        /* \"#utility.yul\":22489:22495   */\n      0x00\n        /* \"#utility.yul\":22497:22503   */\n      dup1\n        /* \"#utility.yul\":22505:22511   */\n      0x00\n        /* \"#utility.yul\":22554:22556   */\n      0x60\n        /* \"#utility.yul\":22542:22551   */\n      dup5\n        /* \"#utility.yul\":22533:22540   */\n      dup7\n        /* \"#utility.yul\":22529:22552   */\n      sub\n        /* \"#utility.yul\":22525:22557   */\n      slt\n        /* \"#utility.yul\":22522:22641   */\n      iszero\n      tag_640\n      jumpi\n        /* \"#utility.yul\":22560:22639   */\n      tag_641\n      tag_325\n      jump\t// in\n    tag_641:\n        /* \"#utility.yul\":22522:22641   */\n    tag_640:\n        /* \"#utility.yul\":22680:22681   */\n      0x00\n        /* \"#utility.yul\":22705:22758   */\n      tag_642\n        /* \"#utility.yul\":22750:22757   */\n      dup7\n        /* \"#utility.yul\":22741:22747   */\n      dup3\n        /* \"#utility.yul\":22730:22739   */\n      dup8\n        /* \"#utility.yul\":22726:22748   */\n      add\n        /* \"#utility.yul\":22705:22758   */\n      tag_330\n      jump\t// in\n    tag_642:\n        /* \"#utility.yul\":22695:22758   */\n      swap4\n      pop\n        /* \"#utility.yul\":22651:22768   */\n      pop\n        /* \"#utility.yul\":22807:22809   */\n      0x20\n        /* \"#utility.yul\":22833:22886   */\n      tag_643\n        /* \"#utility.yul\":22878:22885   */\n      dup7\n        /* \"#utility.yul\":22869:22875   */\n      dup3\n        /* \"#utility.yul\":22858:22867   */\n      dup8\n        /* \"#utility.yul\":22854:22876   */\n      add\n        /* \"#utility.yul\":22833:22886   */\n      tag_333\n      jump\t// in\n    tag_643:\n        /* \"#utility.yul\":22823:22886   */\n      swap3\n      pop\n        /* \"#utility.yul\":22778:22896   */\n      pop\n        /* \"#utility.yul\":22935:22937   */\n      0x40\n        /* \"#utility.yul\":22961:23014   */\n      tag_644\n        /* \"#utility.yul\":23006:23013   */\n      dup7\n        /* \"#utility.yul\":22997:23003   */\n      dup3\n        /* \"#utility.yul\":22986:22995   */\n      dup8\n        /* \"#utility.yul\":22982:23004   */\n      add\n        /* \"#utility.yul\":22961:23014   */\n      tag_333\n      jump\t// in\n    tag_644:\n        /* \"#utility.yul\":22951:23014   */\n      swap2\n      pop\n        /* \"#utility.yul\":22906:23024   */\n      pop\n        /* \"#utility.yul\":22412:23031   */\n      swap3\n      pop\n      swap3\n      pop\n      swap3\n      jump\t// out\n        /* \"#utility.yul\":23037:23217   */\n    tag_373:\n        /* \"#utility.yul\":23085:23162   */\n      0x4e487b7100000000000000000000000000000000000000000000000000000000\n        /* \"#utility.yul\":23082:23083   */\n      0x00\n        /* \"#utility.yul\":23075:23163   */\n      mstore\n        /* \"#utility.yul\":23182:23186   */\n      0x22\n        /* \"#utility.yul\":23179:23180   */\n      0x04\n        /* \"#utility.yul\":23172:23187   */\n      mstore\n        /* \"#utility.yul\":23206:23210   */\n      0x24\n        /* \"#utility.yul\":23203:23204   */\n      0x00\n        /* \"#utility.yul\":23196:23211   */\n      revert\n        /* \"#utility.yul\":23223:23543   */\n    tag_107:\n        /* \"#utility.yul\":23267:23273   */\n      0x00\n        /* \"#utility.yul\":23304:23305   */\n      0x02\n        /* \"#utility.yul\":23298:23302   */\n      dup3\n        /* \"#utility.yul\":23294:23306   */\n      div\n        /* \"#utility.yul\":23284:23306   */\n      swap1\n      pop\n        /* \"#utility.yul\":23351:23352   */\n      0x01\n        /* \"#utility.yul\":23345:23349   */\n      dup3\n        /* \"#utility.yul\":23341:23353   */\n      and\n        /* \"#utility.yul\":23372:23390   */\n      dup1\n        /* \"#utility.yul\":23362:23443   */\n      tag_647\n      jumpi\n        /* \"#utility.yul\":23428:23432   */\n      0x7f\n        /* \"#utility.yul\":23420:23426   */\n      dup3\n        /* \"#utility.yul\":23416:23433   */\n      and\n        /* \"#utility.yul\":23406:23433   */\n      swap2\n      pop\n        /* \"#utility.yul\":23362:23443   */\n    tag_647:\n        /* \"#utility.yul\":23490:23492   */\n      0x20\n        /* \"#utility.yul\":23482:23488   */\n      dup3\n        /* \"#utility.yul\":23479:23493   */\n      lt\n        /* \"#utility.yul\":23459:23477   */\n      dup2\n        /* \"#utility.yul\":23456:23494   */\n      sub\n        /* \"#utility.yul\":23453:23537   */\n      tag_648\n      jumpi\n        /* \"#utility.yul\":23509:23527   */\n      tag_649\n      tag_373\n      jump\t// in\n    tag_649:\n        /* \"#utility.yul\":23453:23537   */\n    tag_648:\n        /* \"#utility.yul\":23274:23543   */\n      pop\n        /* \"#utility.yul\":23223:23543   */\n      swap2\n      swap1\n      pop\n      jump\t// out\n        /* \"#utility.yul\":23549:23881   */\n    tag_124:\n        /* \"#utility.yul\":23670:23674   */\n      0x00\n        /* \"#utility.yul\":23708:23710   */\n      0x40\n        /* \"#utility.yul\":23697:23706   */\n      dup3\n        /* \"#utility.yul\":23693:23711   */\n      add\n        /* \"#utility.yul\":23685:23711   */\n      swap1\n      pop\n        /* \"#utility.yul\":23721:23792   */\n      tag_651\n        /* \"#utility.yul\":23789:23790   */\n      0x00\n        /* \"#utility.yul\":23778:23787   */\n      dup4\n        /* \"#utility.yul\":23774:23791   */\n      add\n        /* \"#utility.yul\":23765:23771   */\n      dup6\n        /* \"#utility.yul\":23721:23792   */\n      tag_370\n      jump\t// in\n    tag_651:\n        /* \"#utility.yul\":23802:23874   */\n      tag_652\n        /* \"#utility.yul\":23870:23872   */\n      0x20\n        /* \"#utility.yul\":23859:23868   */\n      dup4\n        /* \"#utility.yul\":23855:23873   */\n      add\n        /* \"#utility.yul\":23846:23852   */\n      dup5\n        /* \"#utility.yul\":23802:23874   */\n      tag_370\n      jump\t// in\n    tag_652:\n        /* \"#utility.yul\":23549:23881   */\n      swap4\n      swap3\n      pop\n      pop\n      pop\n      jump\t// out\n        /* \"#utility.yul\":23887:24219   */\n    tag_130:\n        /* \"#utility.yul\":24008:24012   */\n      0x00\n        /* \"#utility.yul\":24046:24048   */\n      0x40\n        /* \"#utility.yul\":24035:24044   */\n      dup3\n        /* \"#utility.yul\":24031:24049   */\n      add\n        /* \"#utility.yul\":24023:24049   */\n      swap1\n      pop\n        /* \"#utility.yul\":24059:24130   */\n      tag_654\n        /* \"#utility.yul\":24127:24128   */\n      0x00\n        /* \"#utility.yul\":24116:24125   */\n      dup4\n        /* \"#utility.yul\":24112:24129   */\n      add\n        /* \"#utility.yul\":24103:24109   */\n      dup6\n        /* \"#utility.yul\":24059:24130   */\n      tag_334\n      jump\t// in\n    tag_654:\n        /* \"#utility.yul\":24140:24212   */\n      tag_655\n        /* \"#utility.yul\":24208:24210   */\n      0x20\n        /* \"#utility.yul\":24197:24206   */\n      dup4\n        /* \"#utility.yul\":24193:24211   */\n      add\n        /* \"#utility.yul\":24184:24190   */\n      dup5\n        /* \"#utility.yul\":24140:24212   */\n      tag_334\n      jump\t// in\n    tag_655:\n        /* \"#utility.yul\":23887:24219   */\n      swap4\n      swap3\n      pop\n      pop\n      pop\n      jump\t// out\n        /* \"#utility.yul\":24225:24405   */\n    tag_145:\n        /* \"#utility.yul\":24273:24350   */\n      0x4e487b7100000000000000000000000000000000000000000000000000000000\n        /* \"#utility.yul\":24270:24271   */\n      0x00\n        /* \"#utility.yul\":24263:24351   */\n      mstore\n        /* \"#utility.yul\":24370:24374   */\n      0x32\n        /* \"#utility.yul\":24367:24368   */\n      0x04\n        /* \"#utility.yul\":24360:24375   */\n      mstore\n        /* \"#utility.yul\":24394:24398   */\n      0x24\n        /* \"#utility.yul\":24391:24392   */\n      0x00\n        /* \"#utility.yul\":24384:24399   */\n      revert\n        /* \"#utility.yul\":24411:24591   */\n    tag_374:\n        /* \"#utility.yul\":24459:24536   */\n      0x4e487b7100000000000000000000000000000000000000000000000000000000\n        /* \"#utility.yul\":24456:24457   */\n      0x00\n        /* \"#utility.yul\":24449:24537   */\n      mstore\n        /* \"#utility.yul\":24556:24560   */\n      0x11\n        /* \"#utility.yul\":24553:24554   */\n      0x04\n        /* \"#utility.yul\":24546:24561   */\n      mstore\n        /* \"#utility.yul\":24580:24584   */\n      0x24\n        /* \"#utility.yul\":24577:24578   */\n      0x00\n        /* \"#utility.yul\":24570:24585   */\n      revert\n        /* \"#utility.yul\":24597:24830   */\n    tag_147:\n        /* \"#utility.yul\":24636:24639   */\n      0x00\n        /* \"#utility.yul\":24659:24683   */\n      tag_659\n        /* \"#utility.yul\":24677:24682   */\n      dup3\n        /* \"#utility.yul\":24659:24683   */\n      tag_331\n      jump\t// in\n    tag_659:\n        /* \"#utility.yul\":24650:24683   */\n      swap2\n      pop\n        /* \"#utility.yul\":24705:24771   */\n      0xffffffffffffffffffffffffffffffffffffffffffffffffffffffffffffffff\n        /* \"#utility.yul\":24698:24703   */\n      dup3\n        /* \"#utility.yul\":24695:24772   */\n      sub\n        /* \"#utility.yul\":24692:24795   */\n      tag_660\n      jumpi\n        /* \"#utility.yul\":24775:24793   */\n      tag_661\n      tag_374\n      jump\t// in\n    tag_661:\n        /* \"#utility.yul\":24692:24795   */\n    tag_660:\n        /* \"#utility.yul\":24822:24823   */\n      0x01\n        /* \"#utility.yul\":24815:24820   */\n      dup3\n        /* \"#utility.yul\":24811:24824   */\n      add\n        /* \"#utility.yul\":24804:24824   */\n      swap1\n      pop\n        /* \"#utility.yul\":24597:24830   */\n      swap2\n      swap1\n      pop\n      jump\t// out\n        /* \"#utility.yul\":24836:24977   */\n    tag_375:\n        /* \"#utility.yul\":24885:24889   */\n      0x00\n        /* \"#utility.yul\":24908:24911   */\n      dup2\n        /* \"#utility.yul\":24900:24911   */\n      swap1\n      pop\n        /* \"#utility.yul\":24931:24934   */\n      dup2\n        /* \"#utility.yul\":24928:24929   */\n      0x00\n        /* \"#utility.yul\":24921:24935   */\n      mstore\n        /* \"#utility.yul\":24965:24969   */\n      0x20\n        /* \"#utility.yul\":24962:24963   */\n      0x00\n        /* \"#utility.yul\":24952:24970   */\n      keccak256\n        /* \"#utility.yul\":24944:24970   */\n      swap1\n      pop\n        /* \"#utility.yul\":24836:24977   */\n      swap2\n      swap1\n      pop\n      jump\t// out\n        /* \"#utility.yul\":24983:25076   */\n    tag_376:\n        /* \"#utility.yul\":25020:25026   */\n      0x00\n        /* \"#utility.yul\":25067:25069   */\n      0x20\n        /* \"#utility.yul\":25062:25064   */\n      0x1f\n        /* \"#utility.yul\":25055:25060   */\n      dup4\n        /* \"#utility.yul\":25051:25065   */\n      add\n        /* \"#utility.yul\":25047:25070   */\n      div\n        /* \"#utility.yul\":25037:25070   */\n      swap1\n      pop\n        /* \"#utility.yul\":24983:25076   */\n      swap2\n      swap1\n      pop\n      jump\t// out\n        /* \"#utility.yul\":25082:25189   */\n    tag_377:\n        /* \"#utility.yul\":25126:25134   */\n      0x00\n        /* \"#utility.yul\":25176:25181   */\n      dup3\n        /* \"#utility.yul\":25170:25174   */\n      dup3\n        /* \"#utility.yul\":25166:25182   */\n      shl\n        /* \"#utility.yul\":25145:25182   */\n      swap1\n      pop\n        /* \"#utility.yul\":25082:25189   */\n      swap3\n      swap2\n      pop\n      pop\n      jump\t// out\n        /* \"#utility.yul\":25195:25588   */\n    tag_378:\n        /* \"#utility.yul\":25264:25270   */\n      0x00\n        /* \"#utility.yul\":25314:25315   */\n      0x08\n        /* \"#utility.yul\":25302:25312   */\n      dup4\n        /* \"#utility.yul\":25298:25316   */\n      mul\n        /* \"#utility.yul\":25337:25434   */\n      tag_666\n        /* \"#utility.yul\":25367:25433   */\n      0xffffffffffffffffffffffffffffffffffffffffffffffffffffffffffffffff\n        /* \"#utility.yul\":25356:25365   */\n      dup3\n        /* \"#utility.yul\":25337:25434   */\n      tag_377\n      jump\t// in\n    tag_666:\n        /* \"#utility.yul\":25455:25494   */\n      tag_667\n        /* \"#utility.yul\":25485:25493   */\n      dup7\n        /* \"#utility.yul\":25474:25483   */\n      dup4\n        /* \"#utility.yul\":25455:25494   */\n      tag_377\n      jump\t// in\n    tag_667:\n        /* \"#utility.yul\":25443:25494   */\n      swap6\n      pop\n        /* \"#utility.yul\":25527:25531   */\n      dup1\n        /* \"#utility.yul\":25523:25532   */\n      not\n        /* \"#utility.yul\":25516:25521   */\n      dup5\n        /* \"#utility.yul\":25512:25533   */\n      and\n        /* \"#utility.yul\":25503:25533   */\n      swap4\n      pop\n        /* \"#utility.yul\":25576:25580   */\n      dup1\n        /* \"#utility.yul\":25566:25574   */\n      dup7\n        /* \"#utility.yul\":25562:25581   */\n      and\n        /* \"#utility.yul\":25555:25560   */\n      dup5\n        /* \"#utility.yul\":25552:25582   */\n      or\n        /* \"#utility.yul\":25542:25582   */\n      swap3\n      pop\n        /* \"#utility.yul\":25271:25588   */\n      pop\n      pop\n        /* \"#utility.yul\":25195:25588   */\n      swap4\n      swap3\n      pop\n      pop\n      pop\n      jump\t// out\n        /* \"#utility.yul\":25594:25654   */\n    tag_379:\n        /* \"#utility.yul\":25622:25625   */\n      0x00\n        /* \"#utility.yul\":25643:25648   */\n      dup2\n        /* \"#utility.yul\":25636:25648   */\n      swap1\n      pop\n        /* \"#utility.yul\":25594:25654   */\n      swap2\n      swap1\n      pop\n      jump\t// out\n        /* \"#utility.yul\":25660:25802   */\n    tag_380:\n        /* \"#utility.yul\":25710:25719   */\n      0x00\n        /* \"#utility.yul\":25743:25796   */\n      tag_670\n        /* \"#utility.yul\":25761:25795   */\n      tag_671\n        /* \"#utility.yul\":25770:25794   */\n      tag_672\n        /* \"#utility.yul\":25788:25793   */\n      dup5\n        /* \"#utility.yul\":25770:25794   */\n      tag_331\n      jump\t// in\n    tag_672:\n        /* \"#utility.yul\":25761:25795   */\n      tag_379\n      jump\t// in\n    tag_671:\n        /* \"#utility.yul\":25743:25796   */\n      tag_331\n      jump\t// in\n    tag_670:\n        /* \"#utility.yul\":25730:25796   */\n      swap1\n      pop\n        /* \"#utility.yul\":25660:25802   */\n      swap2\n      swap1\n      pop\n      jump\t// out\n        /* \"#utility.yul\":25808:25883   */\n    tag_381:\n        /* \"#utility.yul\":25851:25854   */\n      0x00\n        /* \"#utility.yul\":25872:25877   */\n      dup2\n        /* \"#utility.yul\":25865:25877   */\n      swap1\n      pop\n        /* \"#utility.yul\":25808:25883   */\n      swap2\n      swap1\n      pop\n      jump\t// out\n        /* \"#utility.yul\":25889:26158   */\n    tag_382:\n        /* \"#utility.yul\":25999:26038   */\n      tag_675\n        /* \"#utility.yul\":26030:26037   */\n      dup4\n        /* \"#utility.yul\":25999:26038   */\n      tag_380\n      jump\t// in\n    tag_675:\n        /* \"#utility.yul\":26060:26151   */\n      tag_676\n        /* \"#utility.yul\":26109:26150   */\n      tag_677\n        /* \"#utility.yul\":26133:26149   */\n      dup3\n        /* \"#utility.yul\":26109:26150   */\n      tag_381\n      jump\t// in\n    tag_677:\n        /* \"#utility.yul\":26101:26107   */\n      dup5\n        /* \"#utility.yul\":26094:26098   */\n      dup5\n        /* \"#utility.yul\":26088:26099   */\n      sload\n        /* \"#utility.yul\":26060:26151   */\n      tag_378\n      jump\t// in\n    tag_676:\n        /* \"#utility.yul\":26054:26058   */\n      dup3\n        /* \"#utility.yul\":26047:26152   */\n      sstore\n        /* \"#utility.yul\":25965:26158   */\n      pop\n        /* \"#utility.yul\":25889:26158   */\n      pop\n      pop\n      pop\n      jump\t// out\n        /* \"#utility.yul\":26164:26237   */\n    tag_383:\n        /* \"#utility.yul\":26209:26212   */\n      0x00\n        /* \"#utility.yul\":26164:26237   */\n      swap1\n      jump\t// out\n        /* \"#utility.yul\":26243:26432   */\n    tag_384:\n        /* \"#utility.yul\":26320:26352   */\n      tag_680\n      tag_383\n      jump\t// in\n    tag_680:\n        /* \"#utility.yul\":26361:26426   */\n      tag_681\n        /* \"#utility.yul\":26419:26425   */\n      dup2\n        /* \"#utility.yul\":26411:26417   */\n      dup5\n        /* \"#utility.yul\":26405:26409   */\n      dup5\n        /* \"#utility.yul\":26361:26426   */\n      tag_382\n      jump\t// in\n    tag_681:\n        /* \"#utility.yul\":26296:26432   */\n      pop\n        /* \"#utility.yul\":26243:26432   */\n      pop\n      pop\n      jump\t// out\n        /* \"#utility.yul\":26438:26624   */\n    tag_385:\n        /* \"#utility.yul\":26498:26618   */\n    tag_683:\n        /* \"#utility.yul\":26515:26518   */\n      dup2\n        /* \"#utility.yul\":26508:26513   */\n      dup2\n        /* \"#utility.yul\":26505:26519   */\n      lt\n        /* \"#utility.yul\":26498:26618   */\n      iszero\n      tag_685\n      jumpi\n        /* \"#utility.yul\":26569:26608   */\n      tag_686\n        /* \"#utility.yul\":26606:26607   */\n      0x00\n        /* \"#utility.yul\":26599:26604   */\n      dup3\n        /* \"#utility.yul\":26569:26608   */\n      tag_384\n      jump\t// in\n    tag_686:\n        /* \"#utility.yul\":26542:26543   */\n      0x01\n        /* \"#utility.yul\":26535:26540   */\n      dup2\n        /* \"#utility.yul\":26531:26544   */\n      add\n        /* \"#utility.yul\":26522:26544   */\n      swap1\n      pop\n        /* \"#utility.yul\":26498:26618   */\n      jump(tag_683)\n    tag_685:\n        /* \"#utility.yul\":26438:26624   */\n      pop\n      pop\n      jump\t// out\n        /* \"#utility.yul\":26630:27173   */\n    tag_386:\n        /* \"#utility.yul\":26731:26733   */\n      0x1f\n        /* \"#utility.yul\":26726:26729   */\n      dup3\n        /* \"#utility.yul\":26723:26734   */\n      gt\n        /* \"#utility.yul\":26720:27166   */\n      iszero\n      tag_688\n      jumpi\n        /* \"#utility.yul\":26765:26803   */\n      tag_689\n        /* \"#utility.yul\":26797:26802   */\n      dup2\n        /* \"#utility.yul\":26765:26803   */\n      tag_375\n      jump\t// in\n    tag_689:\n        /* \"#utility.yul\":26849:26878   */\n      tag_690\n        /* \"#utility.yul\":26867:26877   */\n      dup5\n        /* \"#utility.yul\":26849:26878   */\n      tag_376\n      jump\t// in\n    tag_690:\n        /* \"#utility.yul\":26839:26847   */\n      dup2\n        /* \"#utility.yul\":26835:26879   */\n      add\n        /* \"#utility.yul\":27032:27034   */\n      0x20\n        /* \"#utility.yul\":27020:27030   */\n      dup6\n        /* \"#utility.yul\":27017:27035   */\n      lt\n        /* \"#utility.yul\":27014:27063   */\n      iszero\n      tag_691\n      jumpi\n        /* \"#utility.yul\":27053:27061   */\n      dup2\n        /* \"#utility.yul\":27038:27061   */\n      swap1\n      pop\n        /* \"#utility.yul\":27014:27063   */\n    tag_691:\n        /* \"#utility.yul\":27076:27156   */\n      tag_692\n        /* \"#utility.yul\":27132:27154   */\n      tag_693\n        /* \"#utility.yul\":27150:27153   */\n      dup6\n        /* \"#utility.yul\":27132:27154   */\n      tag_376\n      jump\t// in\n    tag_693:\n        /* \"#utility.yul\":27122:27130   */\n      dup4\n        /* \"#utility.yul\":27118:27155   */\n      add\n        /* \"#utility.yul\":27105:27116   */\n      dup3\n        /* \"#utility.yul\":27076:27156   */\n      tag_385\n      jump\t// in\n    tag_692:\n        /* \"#utility.yul\":26735:27166   */\n      pop\n      pop\n        /* \"#utility.yul\":26720:27166   */\n    tag_688:\n        /* \"#utility.yul\":26630:27173   */\n      pop\n      pop\n      pop\n      jump\t// out\n        /* \"#utility.yul\":27179:27296   */\n    tag_387:\n        /* \"#utility.yul\":27233:27241   */\n      0x00\n        /* \"#utility.yul\":27283:27288   */\n      dup3\n        /* \"#utility.yul\":27277:27281   */\n      dup3\n        /* \"#utility.yul\":27273:27289   */\n      shr\n        /* \"#utility.yul\":27252:27289   */\n      swap1\n      pop\n        /* \"#utility.yul\":27179:27296   */\n      swap3\n      swap2\n      pop\n      pop\n      jump\t// out\n        /* \"#utility.yul\":27302:27471   */\n    tag_388:\n        /* \"#utility.yul\":27346:27352   */\n      0x00\n        /* \"#utility.yul\":27379:27430   */\n      tag_696\n        /* \"#utility.yul\":27427:27428   */\n      0x00\n        /* \"#utility.yul\":27423:27429   */\n      not\n        /* \"#utility.yul\":27415:27420   */\n      dup5\n        /* \"#utility.yul\":27412:27413   */\n      0x08\n        /* \"#utility.yul\":27408:27421   */\n      mul\n        /* \"#utility.yul\":27379:27430   */\n      tag_387\n      jump\t// in\n    tag_696:\n        /* \"#utility.yul\":27375:27431   */\n      not\n        /* \"#utility.yul\":27460:27464   */\n      dup1\n        /* \"#utility.yul\":27454:27458   */\n      dup4\n        /* \"#utility.yul\":27450:27465   */\n      and\n        /* \"#utility.yul\":27440:27465   */\n      swap2\n      pop\n        /* \"#utility.yul\":27353:27471   */\n      pop\n        /* \"#utility.yul\":27302:27471   */\n      swap3\n      swap2\n      pop\n      pop\n      jump\t// out\n        /* \"#utility.yul\":27476:27771   */\n    tag_389:\n        /* \"#utility.yul\":27552:27556   */\n      0x00\n        /* \"#utility.yul\":27698:27727   */\n      tag_698\n        /* \"#utility.yul\":27723:27726   */\n      dup4\n        /* \"#utility.yul\":27717:27721   */\n      dup4\n        /* \"#utility.yul\":27698:27727   */\n      tag_388\n      jump\t// in\n    tag_698:\n        /* \"#utility.yul\":27690:27727   */\n      swap2\n      pop\n        /* \"#utility.yul\":27760:27763   */\n      dup3\n        /* \"#utility.yul\":27757:27758   */\n      0x02\n        /* \"#utility.yul\":27753:27764   */\n      mul\n        /* \"#utility.yul\":27747:27751   */\n      dup3\n        /* \"#utility.yul\":27744:27765   */\n      or\n        /* \"#utility.yul\":27736:27765   */\n      swap1\n      pop\n        /* \"#utility.yul\":27476:27771   */\n      swap3\n      swap2\n      pop\n      pop\n      jump\t// out\n        /* \"#utility.yul\":27776:29171   */\n    tag_207:\n        /* \"#utility.yul\":27893:27930   */\n      tag_700\n        /* \"#utility.yul\":27926:27929   */\n      dup3\n        /* \"#utility.yul\":27893:27930   */\n      tag_349\n      jump\t// in\n    tag_700:\n        /* \"#utility.yul\":27995:28013   */\n      0xffffffffffffffff\n        /* \"#utility.yul\":27987:27993   */\n      dup2\n        /* \"#utility.yul\":27984:28014   */\n      gt\n        /* \"#utility.yul\":27981:28037   */\n      iszero\n      tag_701\n      jumpi\n        /* \"#utility.yul\":28017:28035   */\n      tag_702\n      tag_133\n      jump\t// in\n    tag_702:\n        /* \"#utility.yul\":27981:28037   */\n    tag_701:\n        /* \"#utility.yul\":28061:28099   */\n      tag_703\n        /* \"#utility.yul\":28093:28097   */\n      dup3\n        /* \"#utility.yul\":28087:28098   */\n      sload\n        /* \"#utility.yul\":28061:28099   */\n      tag_107\n      jump\t// in\n    tag_703:\n        /* \"#utility.yul\":28146:28213   */\n      tag_704\n        /* \"#utility.yul\":28206:28212   */\n      dup3\n        /* \"#utility.yul\":28198:28204   */\n      dup3\n        /* \"#utility.yul\":28192:28196   */\n      dup6\n        /* \"#utility.yul\":28146:28213   */\n      tag_386\n      jump\t// in\n    tag_704:\n        /* \"#utility.yul\":28240:28241   */\n      0x00\n        /* \"#utility.yul\":28264:28268   */\n      0x20\n        /* \"#utility.yul\":28251:28268   */\n      swap1\n      pop\n        /* \"#utility.yul\":28296:28298   */\n      0x1f\n        /* \"#utility.yul\":28288:28294   */\n      dup4\n        /* \"#utility.yul\":28285:28299   */\n      gt\n        /* \"#utility.yul\":28313:28314   */\n      0x01\n        /* \"#utility.yul\":28308:28926   */\n      dup2\n      eq\n      tag_706\n      jumpi\n        /* \"#utility.yul\":28970:28971   */\n      0x00\n        /* \"#utility.yul\":28987:28993   */\n      dup5\n        /* \"#utility.yul\":28984:29061   */\n      iszero\n      tag_707\n      jumpi\n        /* \"#utility.yul\":29036:29045   */\n      dup3\n        /* \"#utility.yul\":29031:29034   */\n      dup8\n        /* \"#utility.yul\":29027:29046   */\n      add\n        /* \"#utility.yul\":29021:29047   */\n      mload\n        /* \"#utility.yul\":29012:29047   */\n      swap1\n      pop\n        /* \"#utility.yul\":28984:29061   */\n    tag_707:\n        /* \"#utility.yul\":29087:29154   */\n      tag_708\n        /* \"#utility.yul\":29147:29153   */\n      dup6\n        /* \"#utility.yul\":29140:29145   */\n      dup3\n        /* \"#utility.yul\":29087:29154   */\n      tag_389\n      jump\t// in\n    tag_708:\n        /* \"#utility.yul\":29081:29085   */\n      dup7\n        /* \"#utility.yul\":29074:29155   */\n      sstore\n        /* \"#utility.yul\":28943:29165   */\n      pop\n        /* \"#utility.yul\":28278:29165   */\n      jump(tag_705)\n        /* \"#utility.yul\":28308:28926   */\n    tag_706:\n        /* \"#utility.yul\":28360:28364   */\n      0x1f\n        /* \"#utility.yul\":28356:28365   */\n      not\n        /* \"#utility.yul\":28348:28354   */\n      dup5\n        /* \"#utility.yul\":28344:28366   */\n      and\n        /* \"#utility.yul\":28394:28431   */\n      tag_709\n        /* \"#utility.yul\":28426:28430   */\n      dup7\n        /* \"#utility.yul\":28394:28431   */\n      tag_375\n      jump\t// in\n    tag_709:\n        /* \"#utility.yul\":28453:28454   */\n      0x00\n        /* \"#utility.yul\":28467:28675   */\n    tag_710:\n        /* \"#utility.yul\":28481:28488   */\n      dup3\n        /* \"#utility.yul\":28478:28479   */\n      dup2\n        /* \"#utility.yul\":28475:28489   */\n      lt\n        /* \"#utility.yul\":28467:28675   */\n      iszero\n      tag_712\n      jumpi\n        /* \"#utility.yul\":28560:28569   */\n      dup5\n        /* \"#utility.yul\":28555:28558   */\n      dup10\n        /* \"#utility.yul\":28551:28570   */\n      add\n        /* \"#utility.yul\":28545:28571   */\n      mload\n        /* \"#utility.yul\":28537:28543   */\n      dup3\n        /* \"#utility.yul\":28530:28572   */\n      sstore\n        /* \"#utility.yul\":28611:28612   */\n      0x01\n        /* \"#utility.yul\":28603:28609   */\n      dup3\n        /* \"#utility.yul\":28599:28613   */\n      add\n        /* \"#utility.yul\":28589:28613   */\n      swap2\n      pop\n        /* \"#utility.yul\":28658:28660   */\n      0x20\n        /* \"#utility.yul\":28647:28656   */\n      dup6\n        /* \"#utility.yul\":28643:28661   */\n      add\n        /* \"#utility.yul\":28630:28661   */\n      swap5\n      pop\n        /* \"#utility.yul\":28504:28508   */\n      0x20\n        /* \"#utility.yul\":28501:28502   */\n      dup2\n        /* \"#utility.yul\":28497:28509   */\n      add\n        /* \"#utility.yul\":28492:28509   */\n      swap1\n      pop\n        /* \"#utility.yul\":28467:28675   */\n      jump(tag_710)\n    tag_712:\n        /* \"#utility.yul\":28703:28709   */\n      dup7\n        /* \"#utility.yul\":28694:28701   */\n      dup4\n        /* \"#utility.yul\":28691:28710   */\n      lt\n        /* \"#utility.yul\":28688:28867   */\n      iszero\n      tag_713\n      jumpi\n        /* \"#utility.yul\":28761:28770   */\n      dup5\n        /* \"#utility.yul\":28756:28759   */\n      dup10\n        /* \"#utility.yul\":28752:28771   */\n      add\n        /* \"#utility.yul\":28746:28772   */\n      mload\n        /* \"#utility.yul\":28804:28852   */\n      tag_714\n        /* \"#utility.yul\":28846:28850   */\n      0x1f\n        /* \"#utility.yul\":28838:28844   */\n      dup10\n        /* \"#utility.yul\":28834:28851   */\n      and\n        /* \"#utility.yul\":28823:28832   */\n      dup3\n        /* \"#utility.yul\":28804:28852   */\n      tag_388\n      jump\t// in\n    tag_714:\n        /* \"#utility.yul\":28796:28802   */\n      dup4\n        /* \"#utility.yul\":28789:28853   */\n      sstore\n        /* \"#utility.yul\":28711:28867   */\n      pop\n        /* \"#utility.yul\":28688:28867   */\n    tag_713:\n        /* \"#utility.yul\":28913:28914   */\n      0x01\n        /* \"#utility.yul\":28909:28910   */\n      0x02\n        /* \"#utility.yul\":28901:28907   */\n      dup9\n        /* \"#utility.yul\":28897:28911   */\n      mul\n        /* \"#utility.yul\":28893:28915   */\n      add\n        /* \"#utility.yul\":28887:28891   */\n      dup9\n        /* \"#utility.yul\":28880:28916   */\n      sstore\n        /* \"#utility.yul\":28315:28926   */\n      pop\n      pop\n      pop\n        /* \"#utility.yul\":28278:29165   */\n    tag_705:\n      pop\n        /* \"#utility.yul\":27868:29171   */\n      pop\n      pop\n      pop\n        /* \"#utility.yul\":27776:29171   */\n      pop\n      pop\n      jump\t// out\n        /* \"#utility.yul\":29177:29730   */\n    tag_275:\n        /* \"#utility.yul\":29354:29358   */\n      0x00\n        /* \"#utility.yul\":29392:29395   */\n      0x80\n        /* \"#utility.yul\":29381:29390   */\n      dup3\n        /* \"#utility.yul\":29377:29396   */\n      add\n        /* \"#utility.yul\":29369:29396   */\n      swap1\n      pop\n        /* \"#utility.yul\":29406:29477   */\n      tag_716\n        /* \"#utility.yul\":29474:29475   */\n      0x00\n        /* \"#utility.yul\":29463:29472   */\n      dup4\n        /* \"#utility.yul\":29459:29476   */\n      add\n        /* \"#utility.yul\":29450:29456   */\n      dup8\n        /* \"#utility.yul\":29406:29477   */\n      tag_370\n      jump\t// in\n    tag_716:\n        /* \"#utility.yul\":29487:29559   */\n      tag_717\n        /* \"#utility.yul\":29555:29557   */\n      0x20\n        /* \"#utility.yul\":29544:29553   */\n      dup4\n        /* \"#utility.yul\":29540:29558   */\n      add\n        /* \"#utility.yul\":29531:29537   */\n      dup7\n        /* \"#utility.yul\":29487:29559   */\n      tag_334\n      jump\t// in\n    tag_717:\n        /* \"#utility.yul\":29569:29641   */\n      tag_718\n        /* \"#utility.yul\":29637:29639   */\n      0x40\n        /* \"#utility.yul\":29626:29635   */\n      dup4\n        /* \"#utility.yul\":29622:29640   */\n      add\n        /* \"#utility.yul\":29613:29619   */\n      dup6\n        /* \"#utility.yul\":29569:29641   */\n      tag_334\n      jump\t// in\n    tag_718:\n        /* \"#utility.yul\":29651:29723   */\n      tag_719\n        /* \"#utility.yul\":29719:29721   */\n      0x60\n        /* \"#utility.yul\":29708:29717   */\n      dup4\n        /* \"#utility.yul\":29704:29722   */\n      add\n        /* \"#utility.yul\":29695:29701   */\n      dup5\n        /* \"#utility.yul\":29651:29723   */\n      tag_334\n      jump\t// in\n    tag_719:\n        /* \"#utility.yul\":29177:29730   */\n      swap6\n      swap5\n      pop\n      pop\n      pop\n      pop\n      pop\n      jump\t// out\n        /* \"#utility.yul\":29736:29927   */\n    tag_278:\n        /* \"#utility.yul\":29776:29779   */\n      0x00\n        /* \"#utility.yul\":29795:29815   */\n      tag_721\n        /* \"#utility.yul\":29813:29814   */\n      dup3\n        /* \"#utility.yul\":29795:29815   */\n      tag_331\n      jump\t// in\n    tag_721:\n        /* \"#utility.yul\":29790:29815   */\n      swap2\n      pop\n        /* \"#utility.yul\":29829:29849   */\n      tag_722\n        /* \"#utility.yul\":29847:29848   */\n      dup4\n        /* \"#utility.yul\":29829:29849   */\n      tag_331\n      jump\t// in\n    tag_722:\n        /* \"#utility.yul\":29824:29849   */\n      swap3\n      pop\n        /* \"#utility.yul\":29872:29873   */\n      dup3\n        /* \"#utility.yul\":29869:29870   */\n      dup3\n        /* \"#utility.yul\":29865:29874   */\n      add\n        /* \"#utility.yul\":29858:29874   */\n      swap1\n      pop\n        /* \"#utility.yul\":29893:29896   */\n      dup1\n        /* \"#utility.yul\":29890:29891   */\n      dup3\n        /* \"#utility.yul\":29887:29897   */\n      gt\n        /* \"#utility.yul\":29884:29920   */\n      iszero\n      tag_723\n      jumpi\n        /* \"#utility.yul\":29900:29918   */\n      tag_724\n      tag_374\n      jump\t// in\n    tag_724:\n        /* \"#utility.yul\":29884:29920   */\n    tag_723:\n        /* \"#utility.yul\":29736:29927   */\n      swap3\n      swap2\n      pop\n      pop\n      jump\t// out\n        /* \"#utility.yul\":29933:30567   */\n    tag_286:\n        /* \"#utility.yul\":30154:30158   */\n      0x00\n        /* \"#utility.yul\":30192:30194   */\n      0x40\n        /* \"#utility.yul\":30181:30190   */\n      dup3\n        /* \"#utility.yul\":30177:30195   */\n      add\n        /* \"#utility.yul\":30169:30195   */\n      swap1\n      pop\n        /* \"#utility.yul\":30241:30250   */\n      dup2\n        /* \"#utility.yul\":30235:30239   */\n      dup2\n        /* \"#utility.yul\":30231:30251   */\n      sub\n        /* \"#utility.yul\":30227:30228   */\n      0x00\n        /* \"#utility.yul\":30216:30225   */\n      dup4\n        /* \"#utility.yul\":30212:30229   */\n      add\n        /* \"#utility.yul\":30205:30252   */\n      mstore\n        /* \"#utility.yul\":30269:30377   */\n      tag_726\n        /* \"#utility.yul\":30372:30376   */\n      dup2\n        /* \"#utility.yul\":30363:30369   */\n      dup6\n        /* \"#utility.yul\":30269:30377   */\n      tag_369\n      jump\t// in\n    tag_726:\n        /* \"#utility.yul\":30261:30377   */\n      swap1\n      pop\n        /* \"#utility.yul\":30424:30433   */\n      dup2\n        /* \"#utility.yul\":30418:30422   */\n      dup2\n        /* \"#utility.yul\":30414:30434   */\n      sub\n        /* \"#utility.yul\":30409:30411   */\n      0x20\n        /* \"#utility.yul\":30398:30407   */\n      dup4\n        /* \"#utility.yul\":30394:30412   */\n      add\n        /* \"#utility.yul\":30387:30435   */\n      mstore\n        /* \"#utility.yul\":30452:30560   */\n      tag_727\n        /* \"#utility.yul\":30555:30559   */\n      dup2\n        /* \"#utility.yul\":30546:30552   */\n      dup5\n        /* \"#utility.yul\":30452:30560   */\n      tag_369\n      jump\t// in\n    tag_727:\n        /* \"#utility.yul\":30444:30560   */\n      swap1\n      pop\n        /* \"#utility.yul\":29933:30567   */\n      swap4\n      swap3\n      pop\n      pop\n      pop\n      jump\t// out\n        /* \"#utility.yul\":30573:30671   */\n    tag_390:\n        /* \"#utility.yul\":30624:30630   */\n      0x00\n        /* \"#utility.yul\":30658:30663   */\n      dup2\n        /* \"#utility.yul\":30652:30664   */\n      mload\n        /* \"#utility.yul\":30642:30664   */\n      swap1\n      pop\n        /* \"#utility.yul\":30573:30671   */\n      swap2\n      swap1\n      pop\n      jump\t// out\n        /* \"#utility.yul\":30677:30845   */\n    tag_391:\n        /* \"#utility.yul\":30760:30771   */\n      0x00\n        /* \"#utility.yul\":30794:30800   */\n      dup3\n        /* \"#utility.yul\":30789:30792   */\n      dup3\n        /* \"#utility.yul\":30782:30801   */\n      mstore\n        /* \"#utility.yul\":30834:30838   */\n      0x20\n        /* \"#utility.yul\":30829:30832   */\n      dup3\n        /* \"#utility.yul\":30825:30839   */\n      add\n        /* \"#utility.yul\":30810:30839   */\n      swap1\n      pop\n        /* \"#utility.yul\":30677:30845   */\n      swap3\n      swap2\n      pop\n      pop\n      jump\t// out\n        /* \"#utility.yul\":30851:31224   */\n    tag_392:\n        /* \"#utility.yul\":30937:30940   */\n      0x00\n        /* \"#utility.yul\":30965:31003   */\n      tag_731\n        /* \"#utility.yul\":30997:31002   */\n      dup3\n        /* \"#utility.yul\":30965:31003   */\n      tag_390\n      jump\t// in\n    tag_731:\n        /* \"#utility.yul\":31019:31089   */\n      tag_732\n        /* \"#utility.yul\":31082:31088   */\n      dup2\n        /* \"#utility.yul\":31077:31080   */\n      dup6\n        /* \"#utility.yul\":31019:31089   */\n      tag_391\n      jump\t// in\n    tag_732:\n        /* \"#utility.yul\":31012:31089   */\n      swap4\n      pop\n        /* \"#utility.yul\":31098:31163   */\n      tag_733\n        /* \"#utility.yul\":31156:31162   */\n      dup2\n        /* \"#utility.yul\":31151:31154   */\n      dup6\n        /* \"#utility.yul\":31144:31148   */\n      0x20\n        /* \"#utility.yul\":31137:31142   */\n      dup7\n        /* \"#utility.yul\":31133:31149   */\n      add\n        /* \"#utility.yul\":31098:31163   */\n      tag_351\n      jump\t// in\n    tag_733:\n        /* \"#utility.yul\":31188:31217   */\n      tag_734\n        /* \"#utility.yul\":31210:31216   */\n      dup2\n        /* \"#utility.yul\":31188:31217   */\n      tag_342\n      jump\t// in\n    tag_734:\n        /* \"#utility.yul\":31183:31186   */\n      dup5\n        /* \"#utility.yul\":31179:31218   */\n      add\n        /* \"#utility.yul\":31172:31218   */\n      swap2\n      pop\n        /* \"#utility.yul\":30941:31224   */\n      pop\n        /* \"#utility.yul\":30851:31224   */\n      swap3\n      swap2\n      pop\n      pop\n      jump\t// out\n        /* \"#utility.yul\":31230:31981   */\n    tag_290:\n        /* \"#utility.yul\":31453:31457   */\n      0x00\n        /* \"#utility.yul\":31491:31494   */\n      0xa0\n        /* \"#utility.yul\":31480:31489   */\n      dup3\n        /* \"#utility.yul\":31476:31495   */\n      add\n        /* \"#utility.yul\":31468:31495   */\n      swap1\n      pop\n        /* \"#utility.yul\":31505:31576   */\n      tag_736\n        /* \"#utility.yul\":31573:31574   */\n      0x00\n        /* \"#utility.yul\":31562:31571   */\n      dup4\n        /* \"#utility.yul\":31558:31575   */\n      add\n        /* \"#utility.yul\":31549:31555   */\n      dup9\n        /* \"#utility.yul\":31505:31576   */\n      tag_370\n      jump\t// in\n    tag_736:\n        /* \"#utility.yul\":31586:31658   */\n      tag_737\n        /* \"#utility.yul\":31654:31656   */\n      0x20\n        /* \"#utility.yul\":31643:31652   */\n      dup4\n        /* \"#utility.yul\":31639:31657   */\n      add\n        /* \"#utility.yul\":31630:31636   */\n      dup8\n        /* \"#utility.yul\":31586:31658   */\n      tag_370\n      jump\t// in\n    tag_737:\n        /* \"#utility.yul\":31668:31740   */\n      tag_738\n        /* \"#utility.yul\":31736:31738   */\n      0x40\n        /* \"#utility.yul\":31725:31734   */\n      dup4\n        /* \"#utility.yul\":31721:31739   */\n      add\n        /* \"#utility.yul\":31712:31718   */\n      dup7\n        /* \"#utility.yul\":31668:31740   */\n      tag_334\n      jump\t// in\n    tag_738:\n        /* \"#utility.yul\":31750:31822   */\n      tag_739\n        /* \"#utility.yul\":31818:31820   */\n      0x60\n        /* \"#utility.yul\":31807:31816   */\n      dup4\n        /* \"#utility.yul\":31803:31821   */\n      add\n        /* \"#utility.yul\":31794:31800   */\n      dup6\n        /* \"#utility.yul\":31750:31822   */\n      tag_334\n      jump\t// in\n    tag_739:\n        /* \"#utility.yul\":31870:31879   */\n      dup2\n        /* \"#utility.yul\":31864:31868   */\n      dup2\n        /* \"#utility.yul\":31860:31880   */\n      sub\n        /* \"#utility.yul\":31854:31857   */\n      0x80\n        /* \"#utility.yul\":31843:31852   */\n      dup4\n        /* \"#utility.yul\":31839:31858   */\n      add\n        /* \"#utility.yul\":31832:31881   */\n      mstore\n        /* \"#utility.yul\":31898:31974   */\n      tag_740\n        /* \"#utility.yul\":31969:31973   */\n      dup2\n        /* \"#utility.yul\":31960:31966   */\n      dup5\n        /* \"#utility.yul\":31898:31974   */\n      tag_392\n      jump\t// in\n    tag_740:\n        /* \"#utility.yul\":31890:31974   */\n      swap1\n      pop\n        /* \"#utility.yul\":31230:31981   */\n      swap7\n      swap6\n      pop\n      pop\n      pop\n      pop\n      pop\n      pop\n      jump\t// out\n        /* \"#utility.yul\":31987:32128   */\n    tag_393:\n        /* \"#utility.yul\":32043:32048   */\n      0x00\n        /* \"#utility.yul\":32074:32080   */\n      dup2\n        /* \"#utility.yul\":32068:32081   */\n      mload\n        /* \"#utility.yul\":32059:32081   */\n      swap1\n      pop\n        /* \"#utility.yul\":32090:32122   */\n      tag_742\n        /* \"#utility.yul\":32116:32121   */\n      dup2\n        /* \"#utility.yul\":32090:32122   */\n      tag_336\n      jump\t// in\n    tag_742:\n        /* \"#utility.yul\":31987:32128   */\n      swap3\n      swap2\n      pop\n      pop\n      jump\t// out\n        /* \"#utility.yul\":32134:32483   */\n    tag_293:\n        /* \"#utility.yul\":32203:32209   */\n      0x00\n        /* \"#utility.yul\":32252:32254   */\n      0x20\n        /* \"#utility.yul\":32240:32249   */\n      dup3\n        /* \"#utility.yul\":32231:32238   */\n      dup5\n        /* \"#utility.yul\":32227:32250   */\n      sub\n        /* \"#utility.yul\":32223:32255   */\n      slt\n        /* \"#utility.yul\":32220:32339   */\n      iszero\n      tag_744\n      jumpi\n        /* \"#utility.yul\":32258:32337   */\n      tag_745\n      tag_325\n      jump\t// in\n    tag_745:\n        /* \"#utility.yul\":32220:32339   */\n    tag_744:\n        /* \"#utility.yul\":32378:32379   */\n      0x00\n        /* \"#utility.yul\":32403:32466   */\n      tag_746\n        /* \"#utility.yul\":32458:32465   */\n      dup5\n        /* \"#utility.yul\":32449:32455   */\n      dup3\n        /* \"#utility.yul\":32438:32447   */\n      dup6\n        /* \"#utility.yul\":32434:32456   */\n      add\n        /* \"#utility.yul\":32403:32466   */\n      tag_393\n      jump\t// in\n    tag_746:\n        /* \"#utility.yul\":32393:32466   */\n      swap2\n      pop\n        /* \"#utility.yul\":32349:32476   */\n      pop\n        /* \"#utility.yul\":32134:32483   */\n      swap3\n      swap2\n      pop\n      pop\n      jump\t// out\n        /* \"#utility.yul\":32489:33542   */\n    tag_309:\n        /* \"#utility.yul\":32812:32816   */\n      0x00\n        /* \"#utility.yul\":32850:32853   */\n      0xa0\n        /* \"#utility.yul\":32839:32848   */\n      dup3\n        /* \"#utility.yul\":32835:32854   */\n      add\n        /* \"#utility.yul\":32827:32854   */\n      swap1\n      pop\n        /* \"#utility.yul\":32864:32935   */\n      tag_748\n        /* \"#utility.yul\":32932:32933   */\n      0x00\n        /* \"#utility.yul\":32921:32930   */\n      dup4\n        /* \"#utility.yul\":32917:32934   */\n      add\n        /* \"#utility.yul\":32908:32914   */\n      dup9\n        /* \"#utility.yul\":32864:32935   */\n      tag_370\n      jump\t// in\n    tag_748:\n        /* \"#utility.yul\":32945:33017   */\n      tag_749\n        /* \"#utility.yul\":33013:33015   */\n      0x20\n        /* \"#utility.yul\":33002:33011   */\n      dup4\n        /* \"#utility.yul\":32998:33016   */\n      add\n        /* \"#utility.yul\":32989:32995   */\n      dup8\n        /* \"#utility.yul\":32945:33017   */\n      tag_370\n      jump\t// in\n    tag_749:\n        /* \"#utility.yul\":33064:33073   */\n      dup2\n        /* \"#utility.yul\":33058:33062   */\n      dup2\n        /* \"#utility.yul\":33054:33074   */\n      sub\n        /* \"#utility.yul\":33049:33051   */\n      0x40\n        /* \"#utility.yul\":33038:33047   */\n      dup4\n        /* \"#utility.yul\":33034:33052   */\n      add\n        /* \"#utility.yul\":33027:33075   */\n      mstore\n        /* \"#utility.yul\":33092:33200   */\n      tag_750\n        /* \"#utility.yul\":33195:33199   */\n      dup2\n        /* \"#utility.yul\":33186:33192   */\n      dup7\n        /* \"#utility.yul\":33092:33200   */\n      tag_369\n      jump\t// in\n    tag_750:\n        /* \"#utility.yul\":33084:33200   */\n      swap1\n      pop\n        /* \"#utility.yul\":33247:33256   */\n      dup2\n        /* \"#utility.yul\":33241:33245   */\n      dup2\n        /* \"#utility.yul\":33237:33257   */\n      sub\n        /* \"#utility.yul\":33232:33234   */\n      0x60\n        /* \"#utility.yul\":33221:33230   */\n      dup4\n        /* \"#utility.yul\":33217:33235   */\n      add\n        /* \"#utility.yul\":33210:33258   */\n      mstore\n        /* \"#utility.yul\":33275:33383   */\n      tag_751\n        /* \"#utility.yul\":33378:33382   */\n      dup2\n        /* \"#utility.yul\":33369:33375   */\n      dup6\n        /* \"#utility.yul\":33275:33383   */\n      tag_369\n      jump\t// in\n    tag_751:\n        /* \"#utility.yul\":33267:33383   */\n      swap1\n      pop\n        /* \"#utility.yul\":33431:33440   */\n      dup2\n        /* \"#utility.yul\":33425:33429   */\n      dup2\n        /* \"#utility.yul\":33421:33441   */\n      sub\n        /* \"#utility.yul\":33415:33418   */\n      0x80\n        /* \"#utility.yul\":33404:33413   */\n      dup4\n        /* \"#utility.yul\":33400:33419   */\n      add\n        /* \"#utility.yul\":33393:33442   */\n      mstore\n        /* \"#utility.yul\":33459:33535   */\n      tag_752\n        /* \"#utility.yul\":33530:33534   */\n      dup2\n        /* \"#utility.yul\":33521:33527   */\n      dup5\n        /* \"#utility.yul\":33459:33535   */\n      tag_392\n      jump\t// in\n    tag_752:\n        /* \"#utility.yul\":33451:33535   */\n      swap1\n      pop\n        /* \"#utility.yul\":32489:33542   */\n      swap7\n      swap6\n      pop\n      pop\n      pop\n      pop\n      pop\n      pop\n      jump\t// out\n\n    auxdata: 0xa2646970667358221220a3960a8e490bd45bfbe275024d2901b200adfdf5aa17ec7285bfc2a40abd831964736f6c63430008150033\n}\n",
				"bytecode": {
					"linkReferences": {},
					"object": "608060405234801562000010575f80fd5b50604051620031e7380380620031e783398181016040528101906200003691906200022c565b806040518060e0016040528060a181526020016200314660a191396200006281620000ef60201b60201c565b505f73ffffffffffffffffffffffffffffffffffffffff168173ffffffffffffffffffffffffffffffffffffffff1603620000d6575f6040517f1e4fbdf7000000000000000000000000000000000000000000000000000000008152600401620000cd91906200026d565b60405180910390fd5b620000e7816200010460201b60201c565b5050620005d0565b8060029081620001009190620004ec565b5050565b5f60035f9054906101000a900473ffffffffffffffffffffffffffffffffffffffff1690508160035f6101000a81548173ffffffffffffffffffffffffffffffffffffffff021916908373ffffffffffffffffffffffffffffffffffffffff1602179055508173ffffffffffffffffffffffffffffffffffffffff168173ffffffffffffffffffffffffffffffffffffffff167f8be0079c531659141344cd1fd0a4f28419497f9722a3daafe3b4186f6b6457e060405160405180910390a35050565b5f80fd5b5f73ffffffffffffffffffffffffffffffffffffffff82169050919050565b5f620001f682620001cb565b9050919050565b6200020881620001ea565b811462000213575f80fd5b50565b5f815190506200022681620001fd565b92915050565b5f60208284031215620002445762000243620001c7565b5b5f620002538482850162000216565b91505092915050565b6200026781620001ea565b82525050565b5f602082019050620002825f8301846200025c565b92915050565b5f81519050919050565b7f4e487b71000000000000000000000000000000000000000000000000000000005f52604160045260245ffd5b7f4e487b71000000000000000000000000000000000000000000000000000000005f52602260045260245ffd5b5f60028204905060018216806200030457607f821691505b6020821081036200031a5762000319620002bf565b5b50919050565b5f819050815f5260205f209050919050565b5f6020601f8301049050919050565b5f82821b905092915050565b5f600883026200037e7fffffffffffffffffffffffffffffffffffffffffffffffffffffffffffffffff8262000341565b6200038a868362000341565b95508019841693508086168417925050509392505050565b5f819050919050565b5f819050919050565b5f620003d4620003ce620003c884620003a2565b620003ab565b620003a2565b9050919050565b5f819050919050565b620003ef83620003b4565b62000407620003fe82620003db565b8484546200034d565b825550505050565b5f90565b6200041d6200040f565b6200042a818484620003e4565b505050565b5b818110156200045157620004455f8262000413565b60018101905062000430565b5050565b601f821115620004a0576200046a8162000320565b620004758462000332565b8101602085101562000485578190505b6200049d620004948562000332565b8301826200042f565b50505b505050565b5f82821c905092915050565b5f620004c25f1984600802620004a5565b1980831691505092915050565b5f620004dc8383620004b1565b9150826002028217905092915050565b620004f78262000288565b67ffffffffffffffff81111562000513576200051262000292565b5b6200051f8254620002ec565b6200052c82828562000455565b5f60209050601f83116001811462000562575f84156200054d578287015190505b620005598582620004cf565b865550620005c8565b601f198416620005728662000320565b5f5b828110156200059b5784890151825560018201915060208501945060208101905062000574565b86831015620005bb5784890151620005b7601f891682620004b1565b8355505b6001600288020188555050505b505050505050565b612b6880620005de5f395ff3fe608060405234801561000f575f80fd5b50600436106100fd575f3560e01c8063715018a611610095578063e985e9c511610064578063e985e9c514610291578063f242432a146102c1578063f2fde38b146102dd578063f5298aca146102f9576100fd565b8063715018a614610231578063731133e91461023b5780638da5cb5b14610257578063a22cb46514610275576100fd565b80631f7fdffa116100d15780631f7fdffa146101ad5780632eb2c2d6146101c95780634e1273f4146101e55780636b20c45414610215576100fd565b8062fdd58e1461010157806301ffc9a71461013157806302fe5305146101615780630e89341c1461017d575b5f80fd5b61011b60048036038101906101169190611a49565b610315565b6040516101289190611a96565b60405180910390f35b61014b60048036038101906101469190611b04565b61036a565b6040516101589190611b49565b60405180910390f35b61017b60048036038101906101769190611c9e565b61044b565b005b61019760048036038101906101929190611ce5565b61045f565b6040516101a49190611d8a565b60405180910390f35b6101c760048036038101906101c29190611f0c565b6104f1565b005b6101e360048036038101906101de9190611fc4565b61050b565b005b6101ff60048036038101906101fa919061214f565b6105b2565b60405161020c919061227c565b60405180910390f35b61022f600480360381019061022a919061229c565b6106bf565b005b61023961076b565b005b61025560048036038101906102509190612324565b61077e565b005b61025f610798565b60405161026c91906123b3565b60405180910390f35b61028f600480360381019061028a91906123f6565b6107c0565b005b6102ab60048036038101906102a69190612434565b6107d6565b6040516102b89190611b49565b60405180910390f35b6102db60048036038101906102d69190612472565b610864565b005b6102f760048036038101906102f29190612505565b61090b565b005b610313600480360381019061030e9190612530565b61098f565b005b5f805f8381526020019081526020015f205f8473ffffffffffffffffffffffffffffffffffffffff1673ffffffffffffffffffffffffffffffffffffffff1681526020019081526020015f2054905092915050565b5f7fd9b67a26000000000000000000000000000000000000000000000000000000007bffffffffffffffffffffffffffffffffffffffffffffffffffffffff1916827bffffffffffffffffffffffffffffffffffffffffffffffffffffffff1916148061043457507f0e89341c000000000000000000000000000000000000000000000000000000007bffffffffffffffffffffffffffffffffffffffffffffffffffffffff1916827bffffffffffffffffffffffffffffffffffffffffffffffffffffffff1916145b80610444575061044382610a3b565b5b9050919050565b610453610aa4565b61045c81610b2b565b50565b60606002805461046e906125ad565b80601f016020809104026020016040519081016040528092919081815260200182805461049a906125ad565b80156104e55780601f106104bc576101008083540402835291602001916104e5565b820191905f5260205f20905b8154815290600101906020018083116104c857829003601f168201915b50505050509050919050565b6104f9610aa4565b61050584848484610b3e565b50505050565b5f610514610bc1565b90508073ffffffffffffffffffffffffffffffffffffffff168673ffffffffffffffffffffffffffffffffffffffff1614158015610559575061055786826107d6565b155b1561059d5780866040517fe237d9220000000000000000000000000000000000000000000000000000000081526004016105949291906125dd565b60405180910390fd5b6105aa8686868686610bc8565b505050505050565b606081518351146105fe57815183516040517f5b0599910000000000000000000000000000000000000000000000000000000081526004016105f5929190612604565b60405180910390fd5b5f835167ffffffffffffffff81111561061a57610619611b7a565b5b6040519080825280602002602001820160405280156106485781602001602082028036833780820191505090505b5090505f5b84518110156106b45761068461066c8287610cbc90919063ffffffff16565b61067f8387610ccf90919063ffffffff16565b610315565b8282815181106106975761069661262b565b5b602002602001018181525050806106ad90612685565b905061064d565b508091505092915050565b6106c7610bc1565b73ffffffffffffffffffffffffffffffffffffffff168373ffffffffffffffffffffffffffffffffffffffff1614158015610710575061070e83610709610bc1565b6107d6565b155b1561075b5761071d610bc1565b836040517fe237d9220000000000000000000000000000000000000000000000000000000081526004016107529291906125dd565b60405180910390fd5b610766838383610ce2565b505050565b610773610aa4565b61077c5f610d72565b565b610786610aa4565b61079284848484610e35565b50505050565b5f60035f9054906101000a900473ffffffffffffffffffffffffffffffffffffffff16905090565b6107d26107cb610bc1565b8383610eca565b5050565b5f60015f8473ffffffffffffffffffffffffffffffffffffffff1673ffffffffffffffffffffffffffffffffffffffff1681526020019081526020015f205f8373ffffffffffffffffffffffffffffffffffffffff1673ffffffffffffffffffffffffffffffffffffffff1681526020019081526020015f205f9054906101000a900460ff16905092915050565b5f61086d610bc1565b90508073ffffffffffffffffffffffffffffffffffffffff168673ffffffffffffffffffffffffffffffffffffffff16141580156108b257506108b086826107d6565b155b156108f65780866040517fe237d9220000000000000000000000000000000000000000000000000000000081526004016108ed9291906125dd565b60405180910390fd5b6109038686868686611033565b505050505050565b610913610aa4565b5f73ffffffffffffffffffffffffffffffffffffffff168173ffffffffffffffffffffffffffffffffffffffff1603610983575f6040517f1e4fbdf700000000000000000000000000000000000000000000000000000000815260040161097a91906123b3565b60405180910390fd5b61098c81610d72565b50565b610997610bc1565b73ffffffffffffffffffffffffffffffffffffffff168373ffffffffffffffffffffffffffffffffffffffff16141580156109e057506109de836109d9610bc1565b6107d6565b155b15610a2b576109ed610bc1565b836040517fe237d922000000000000000000000000000000000000000000000000000000008152600401610a229291906125dd565b60405180910390fd5b610a36838383611139565b505050565b5f7f01ffc9a7000000000000000000000000000000000000000000000000000000007bffffffffffffffffffffffffffffffffffffffffffffffffffffffff1916827bffffffffffffffffffffffffffffffffffffffffffffffffffffffff1916149050919050565b610aac610bc1565b73ffffffffffffffffffffffffffffffffffffffff16610aca610798565b73ffffffffffffffffffffffffffffffffffffffff1614610b2957610aed610bc1565b6040517f118cdaa7000000000000000000000000000000000000000000000000000000008152600401610b2091906123b3565b60405180910390fd5b565b8060029081610b3a9190612869565b5050565b5f73ffffffffffffffffffffffffffffffffffffffff168473ffffffffffffffffffffffffffffffffffffffff1603610bae575f6040517f57f447ce000000000000000000000000000000000000000000000000000000008152600401610ba591906123b3565b60405180910390fd5b610bbb5f858585856111db565b50505050565b5f33905090565b5f73ffffffffffffffffffffffffffffffffffffffff168473ffffffffffffffffffffffffffffffffffffffff1603610c38575f6040517f57f447ce000000000000000000000000000000000000000000000000000000008152600401610c2f91906123b3565b60405180910390fd5b5f73ffffffffffffffffffffffffffffffffffffffff168573ffffffffffffffffffffffffffffffffffffffff1603610ca8575f6040517f01a83514000000000000000000000000000000000000000000000000000000008152600401610c9f91906123b3565b60405180910390fd5b610cb585858585856111db565b5050505050565b5f60208202602084010151905092915050565b5f60208202602084010151905092915050565b5f73ffffffffffffffffffffffffffffffffffffffff168373ffffffffffffffffffffffffffffffffffffffff1603610d52575f6040517f01a83514000000000000000000000000000000000000000000000000000000008152600401610d4991906123b3565b60405180910390fd5b610d6d835f848460405180602001604052805f8152506111db565b505050565b5f60035f9054906101000a900473ffffffffffffffffffffffffffffffffffffffff1690508160035f6101000a81548173ffffffffffffffffffffffffffffffffffffffff021916908373ffffffffffffffffffffffffffffffffffffffff1602179055508173ffffffffffffffffffffffffffffffffffffffff168173ffffffffffffffffffffffffffffffffffffffff167f8be0079c531659141344cd1fd0a4f28419497f9722a3daafe3b4186f6b6457e060405160405180910390a35050565b5f73ffffffffffffffffffffffffffffffffffffffff168473ffffffffffffffffffffffffffffffffffffffff1603610ea5575f6040517f57f447ce000000000000000000000000000000000000000000000000000000008152600401610e9c91906123b3565b60405180910390fd5b5f80610eb18585611287565b91509150610ec25f878484876111db565b505050505050565b5f73ffffffffffffffffffffffffffffffffffffffff168273ffffffffffffffffffffffffffffffffffffffff1603610f3a575f6040517fced3e100000000000000000000000000000000000000000000000000000000008152600401610f3191906123b3565b60405180910390fd5b8060015f8573ffffffffffffffffffffffffffffffffffffffff1673ffffffffffffffffffffffffffffffffffffffff1681526020019081526020015f205f8473ffffffffffffffffffffffffffffffffffffffff1673ffffffffffffffffffffffffffffffffffffffff1681526020019081526020015f205f6101000a81548160ff0219169083151502179055508173ffffffffffffffffffffffffffffffffffffffff168373ffffffffffffffffffffffffffffffffffffffff167f17307eab39ab6107e8899845ad3d59bd9653f200f220920489ca2b5937696c31836040516110269190611b49565b60405180910390a3505050565b5f73ffffffffffffffffffffffffffffffffffffffff168473ffffffffffffffffffffffffffffffffffffffff16036110a3575f6040517f57f447ce00000000000000000000000000000000000000000000000000000000815260040161109a91906123b3565b60405180910390fd5b5f73ffffffffffffffffffffffffffffffffffffffff168573ffffffffffffffffffffffffffffffffffffffff1603611113575f6040517f01a8351400000000000000000000000000000000000000000000000000000000815260040161110a91906123b3565b60405180910390fd5b5f8061111f8585611287565b9150915061113087878484876111db565b50505050505050565b5f73ffffffffffffffffffffffffffffffffffffffff168373ffffffffffffffffffffffffffffffffffffffff16036111a9575f6040517f01a835140000000000000000000000000000000000000000000000000000000081526004016111a091906123b3565b60405180910390fd5b5f806111b58484611287565b915091506111d4855f848460405180602001604052805f8152506111db565b5050505050565b6111e7858585856112b7565b5f73ffffffffffffffffffffffffffffffffffffffff168473ffffffffffffffffffffffffffffffffffffffff1614611280575f611223610bc1565b9050600184510361126f575f6112425f86610ccf90919063ffffffff16565b90505f6112585f86610ccf90919063ffffffff16565b905061126883898985858961164d565b505061127e565b61127d8187878787876117fc565b5b505b5050505050565b60608060405191506001825283602083015260408201905060018152826020820152604081016040529250929050565b805182511461130157815181516040517f5b0599910000000000000000000000000000000000000000000000000000000081526004016112f8929190612604565b60405180910390fd5b5f61130a610bc1565b90505f5b835181101561150c575f61132b8286610ccf90919063ffffffff16565b90505f6113418386610ccf90919063ffffffff16565b90505f73ffffffffffffffffffffffffffffffffffffffff168873ffffffffffffffffffffffffffffffffffffffff1614611464575f805f8481526020019081526020015f205f8a73ffffffffffffffffffffffffffffffffffffffff1673ffffffffffffffffffffffffffffffffffffffff1681526020019081526020015f205490508181101561141057888183856040517f03dee4c50000000000000000000000000000000000000000000000000000000081526004016114079493929190612938565b60405180910390fd5b8181035f808581526020019081526020015f205f8b73ffffffffffffffffffffffffffffffffffffffff1673ffffffffffffffffffffffffffffffffffffffff1681526020019081526020015f2081905550505b5f73ffffffffffffffffffffffffffffffffffffffff168773ffffffffffffffffffffffffffffffffffffffff16146114f957805f808481526020019081526020015f205f8973ffffffffffffffffffffffffffffffffffffffff1673ffffffffffffffffffffffffffffffffffffffff1681526020019081526020015f205f8282546114f1919061297b565b925050819055505b50508061150590612685565b905061130e565b5060018351036115c7575f61152a5f85610ccf90919063ffffffff16565b90505f6115405f85610ccf90919063ffffffff16565b90508573ffffffffffffffffffffffffffffffffffffffff168773ffffffffffffffffffffffffffffffffffffffff168473ffffffffffffffffffffffffffffffffffffffff167fc3d58168c5ae7397731d063d5bbf3d657854427343f4c083240f7aacaa2d0f6285856040516115b8929190612604565b60405180910390a45050611646565b8373ffffffffffffffffffffffffffffffffffffffff168573ffffffffffffffffffffffffffffffffffffffff168273ffffffffffffffffffffffffffffffffffffffff167f4a39dc06d4c0dbc64b70af90fd698a233a518aa5d07e595d983b8c0526c8f7fb868660405161163d9291906129ae565b60405180910390a45b5050505050565b5f8473ffffffffffffffffffffffffffffffffffffffff163b11156117f4578373ffffffffffffffffffffffffffffffffffffffff1663f23a6e6187878686866040518663ffffffff1660e01b81526004016116ad959493929190612a35565b6020604051808303815f875af19250505080156116e857506040513d601f19601f820116820180604052508101906116e59190612aa1565b60015b611769573d805f8114611716576040519150601f19603f3d011682016040523d82523d5f602084013e61171b565b606091505b505f81510361176157846040517f57f447ce00000000000000000000000000000000000000000000000000000000815260040161175891906123b3565b60405180910390fd5b805181602001fd5b63f23a6e6160e01b7bffffffffffffffffffffffffffffffffffffffffffffffffffffffff1916817bffffffffffffffffffffffffffffffffffffffffffffffffffffffff1916146117f257846040517f57f447ce0000000000000000000000000000000000000000000000000000000081526004016117e991906123b3565b60405180910390fd5b505b505050505050565b5f8473ffffffffffffffffffffffffffffffffffffffff163b11156119a3578373ffffffffffffffffffffffffffffffffffffffff1663bc197c8187878686866040518663ffffffff1660e01b815260040161185c959493929190612acc565b6020604051808303815f875af192505050801561189757506040513d601f19601f820116820180604052508101906118949190612aa1565b60015b611918573d805f81146118c5576040519150601f19603f3d011682016040523d82523d5f602084013e6118ca565b606091505b505f81510361191057846040517f57f447ce00000000000000000000000000000000000000000000000000000000815260040161190791906123b3565b60405180910390fd5b805181602001fd5b63bc197c8160e01b7bffffffffffffffffffffffffffffffffffffffffffffffffffffffff1916817bffffffffffffffffffffffffffffffffffffffffffffffffffffffff1916146119a157846040517f57f447ce00000000000000000000000000000000000000000000000000000000815260040161199891906123b3565b60405180910390fd5b505b505050505050565b5f604051905090565b5f80fd5b5f80fd5b5f73ffffffffffffffffffffffffffffffffffffffff82169050919050565b5f6119e5826119bc565b9050919050565b6119f5816119db565b81146119ff575f80fd5b50565b5f81359050611a10816119ec565b92915050565b5f819050919050565b611a2881611a16565b8114611a32575f80fd5b50565b5f81359050611a4381611a1f565b92915050565b5f8060408385031215611a5f57611a5e6119b4565b5b5f611a6c85828601611a02565b9250506020611a7d85828601611a35565b9150509250929050565b611a9081611a16565b82525050565b5f602082019050611aa95f830184611a87565b92915050565b5f7fffffffff0000000000000000000000000000000000000000000000000000000082169050919050565b611ae381611aaf565b8114611aed575f80fd5b50565b5f81359050611afe81611ada565b92915050565b5f60208284031215611b1957611b186119b4565b5b5f611b2684828501611af0565b91505092915050565b5f8115159050919050565b611b4381611b2f565b82525050565b5f602082019050611b5c5f830184611b3a565b92915050565b5f80fd5b5f80fd5b5f601f19601f8301169050919050565b7f4e487b71000000000000000000000000000000000000000000000000000000005f52604160045260245ffd5b611bb082611b6a565b810181811067ffffffffffffffff82111715611bcf57611bce611b7a565b5b80604052505050565b5f611be16119ab565b9050611bed8282611ba7565b919050565b5f67ffffffffffffffff821115611c0c57611c0b611b7a565b5b611c1582611b6a565b9050602081019050919050565b828183375f83830152505050565b5f611c42611c3d84611bf2565b611bd8565b905082815260208101848484011115611c5e57611c5d611b66565b5b611c69848285611c22565b509392505050565b5f82601f830112611c8557611c84611b62565b5b8135611c95848260208601611c30565b91505092915050565b5f60208284031215611cb357611cb26119b4565b5b5f82013567ffffffffffffffff811115611cd057611ccf6119b8565b5b611cdc84828501611c71565b91505092915050565b5f60208284031215611cfa57611cf96119b4565b5b5f611d0784828501611a35565b91505092915050565b5f81519050919050565b5f82825260208201905092915050565b5f5b83811015611d47578082015181840152602081019050611d2c565b5f8484015250505050565b5f611d5c82611d10565b611d668185611d1a565b9350611d76818560208601611d2a565b611d7f81611b6a565b840191505092915050565b5f6020820190508181035f830152611da28184611d52565b905092915050565b5f67ffffffffffffffff821115611dc457611dc3611b7a565b5b602082029050602081019050919050565b5f80fd5b5f611deb611de684611daa565b611bd8565b90508083825260208201905060208402830185811115611e0e57611e0d611dd5565b5b835b81811015611e375780611e238882611a35565b845260208401935050602081019050611e10565b5050509392505050565b5f82601f830112611e5557611e54611b62565b5b8135611e65848260208601611dd9565b91505092915050565b5f67ffffffffffffffff821115611e8857611e87611b7a565b5b611e9182611b6a565b9050602081019050919050565b5f611eb0611eab84611e6e565b611bd8565b905082815260208101848484011115611ecc57611ecb611b66565b5b611ed7848285611c22565b509392505050565b5f82601f830112611ef357611ef2611b62565b5b8135611f03848260208601611e9e565b91505092915050565b5f805f8060808587031215611f2457611f236119b4565b5b5f611f3187828801611a02565b945050602085013567ffffffffffffffff811115611f5257611f516119b8565b5b611f5e87828801611e41565b935050604085013567ffffffffffffffff811115611f7f57611f7e6119b8565b5b611f8b87828801611e41565b925050606085013567ffffffffffffffff811115611fac57611fab6119b8565b5b611fb887828801611edf565b91505092959194509250565b5f805f805f60a08688031215611fdd57611fdc6119b4565b5b5f611fea88828901611a02565b9550506020611ffb88828901611a02565b945050604086013567ffffffffffffffff81111561201c5761201b6119b8565b5b61202888828901611e41565b935050606086013567ffffffffffffffff811115612049576120486119b8565b5b61205588828901611e41565b925050608086013567ffffffffffffffff811115612076576120756119b8565b5b61208288828901611edf565b9150509295509295909350565b5f67ffffffffffffffff8211156120a9576120a8611b7a565b5b602082029050602081019050919050565b5f6120cc6120c78461208f565b611bd8565b905080838252602082019050602084028301858111156120ef576120ee611dd5565b5b835b8181101561211857806121048882611a02565b8452602084019350506020810190506120f1565b5050509392505050565b5f82601f83011261213657612135611b62565b5b81356121468482602086016120ba565b91505092915050565b5f8060408385031215612165576121646119b4565b5b5f83013567ffffffffffffffff811115612182576121816119b8565b5b61218e85828601612122565b925050602083013567ffffffffffffffff8111156121af576121ae6119b8565b5b6121bb85828601611e41565b9150509250929050565b5f81519050919050565b5f82825260208201905092915050565b5f819050602082019050919050565b6121f781611a16565b82525050565b5f61220883836121ee565b60208301905092915050565b5f602082019050919050565b5f61222a826121c5565b61223481856121cf565b935061223f836121df565b805f5b8381101561226f57815161225688826121fd565b975061226183612214565b925050600181019050612242565b5085935050505092915050565b5f6020820190508181035f8301526122948184612220565b905092915050565b5f805f606084860312156122b3576122b26119b4565b5b5f6122c086828701611a02565b935050602084013567ffffffffffffffff8111156122e1576122e06119b8565b5b6122ed86828701611e41565b925050604084013567ffffffffffffffff81111561230e5761230d6119b8565b5b61231a86828701611e41565b9150509250925092565b5f805f806080858703121561233c5761233b6119b4565b5b5f61234987828801611a02565b945050602061235a87828801611a35565b935050604061236b87828801611a35565b925050606085013567ffffffffffffffff81111561238c5761238b6119b8565b5b61239887828801611edf565b91505092959194509250565b6123ad816119db565b82525050565b5f6020820190506123c65f8301846123a4565b92915050565b6123d581611b2f565b81146123df575f80fd5b50565b5f813590506123f0816123cc565b92915050565b5f806040838503121561240c5761240b6119b4565b5b5f61241985828601611a02565b925050602061242a858286016123e2565b9150509250929050565b5f806040838503121561244a576124496119b4565b5b5f61245785828601611a02565b925050602061246885828601611a02565b9150509250929050565b5f805f805f60a0868803121561248b5761248a6119b4565b5b5f61249888828901611a02565b95505060206124a988828901611a02565b94505060406124ba88828901611a35565b93505060606124cb88828901611a35565b925050608086013567ffffffffffffffff8111156124ec576124eb6119b8565b5b6124f888828901611edf565b9150509295509295909350565b5f6020828403121561251a576125196119b4565b5b5f61252784828501611a02565b91505092915050565b5f805f60608486031215612547576125466119b4565b5b5f61255486828701611a02565b935050602061256586828701611a35565b925050604061257686828701611a35565b9150509250925092565b7f4e487b71000000000000000000000000000000000000000000000000000000005f52602260045260245ffd5b5f60028204905060018216806125c457607f821691505b6020821081036125d7576125d6612580565b5b50919050565b5f6040820190506125f05f8301856123a4565b6125fd60208301846123a4565b9392505050565b5f6040820190506126175f830185611a87565b6126246020830184611a87565b9392505050565b7f4e487b71000000000000000000000000000000000000000000000000000000005f52603260045260245ffd5b7f4e487b71000000000000000000000000000000000000000000000000000000005f52601160045260245ffd5b5f61268f82611a16565b91507fffffffffffffffffffffffffffffffffffffffffffffffffffffffffffffffff82036126c1576126c0612658565b5b600182019050919050565b5f819050815f5260205f209050919050565b5f6020601f8301049050919050565b5f82821b905092915050565b5f600883026127287fffffffffffffffffffffffffffffffffffffffffffffffffffffffffffffffff826126ed565b61273286836126ed565b95508019841693508086168417925050509392505050565b5f819050919050565b5f61276d61276861276384611a16565b61274a565b611a16565b9050919050565b5f819050919050565b61278683612753565b61279a61279282612774565b8484546126f9565b825550505050565b5f90565b6127ae6127a2565b6127b981848461277d565b505050565b5b818110156127dc576127d15f826127a6565b6001810190506127bf565b5050565b601f821115612821576127f2816126cc565b6127fb846126de565b8101602085101561280a578190505b61281e612816856126de565b8301826127be565b50505b505050565b5f82821c905092915050565b5f6128415f1984600802612826565b1980831691505092915050565b5f6128598383612832565b9150826002028217905092915050565b61287282611d10565b67ffffffffffffffff81111561288b5761288a611b7a565b5b61289582546125ad565b6128a08282856127e0565b5f60209050601f8311600181146128d1575f84156128bf578287015190505b6128c9858261284e565b865550612930565b601f1984166128df866126cc565b5f5b82811015612906578489015182556001820191506020850194506020810190506128e1565b86831015612923578489015161291f601f891682612832565b8355505b6001600288020188555050505b505050505050565b5f60808201905061294b5f8301876123a4565b6129586020830186611a87565b6129656040830185611a87565b6129726060830184611a87565b95945050505050565b5f61298582611a16565b915061299083611a16565b92508282019050808211156129a8576129a7612658565b5b92915050565b5f6040820190508181035f8301526129c68185612220565b905081810360208301526129da8184612220565b90509392505050565b5f81519050919050565b5f82825260208201905092915050565b5f612a07826129e3565b612a1181856129ed565b9350612a21818560208601611d2a565b612a2a81611b6a565b840191505092915050565b5f60a082019050612a485f8301886123a4565b612a5560208301876123a4565b612a626040830186611a87565b612a6f6060830185611a87565b8181036080830152612a8181846129fd565b90509695505050505050565b5f81519050612a9b81611ada565b92915050565b5f60208284031215612ab657612ab56119b4565b5b5f612ac384828501612a8d565b91505092915050565b5f60a082019050612adf5f8301886123a4565b612aec60208301876123a4565b8181036040830152612afe8186612220565b90508181036060830152612b128185612220565b90508181036080830152612b2681846129fd565b9050969550505050505056fea2646970667358221220a3960a8e490bd45bfbe275024d2901b200adfdf5aa17ec7285bfc2a40abd831964736f6c6343000815003368747470733a2f2f676174657761792e70696e6174612e636c6f75642f697066732f516d5a655a6f5a4868414e316a5741644333784b45554d4e5137366655664831515472676368747470733a2f2f676174657761792e70696e6174612e636c6f75642f697066732f516d5a655a6f5a4868414e316a5741644333784b45554d4e513736665566483151547267634465775768697250322f446577576869725032",
					"opcodes": "PUSH1 0x80 PUSH1 0x40 MSTORE CALLVALUE DUP1 ISZERO PUSH3 0x10 JUMPI PUSH0 DUP1 REVERT JUMPDEST POP PUSH1 0x40 MLOAD PUSH3 0x31E7 CODESIZE SUB DUP1 PUSH3 0x31E7 DUP4 CODECOPY DUP2 DUP2 ADD PUSH1 0x40 MSTORE DUP2 ADD SWAP1 PUSH3 0x36 SWAP2 SWAP1 PUSH3 0x22C JUMP JUMPDEST DUP1 PUSH1 0x40 MLOAD DUP1 PUSH1 0xE0 ADD PUSH1 0x40 MSTORE DUP1 PUSH1 0xA1 DUP2 MSTORE PUSH1 0x20 ADD PUSH3 0x3146 PUSH1 0xA1 SWAP2 CODECOPY PUSH3 0x62 DUP2 PUSH3 0xEF PUSH1 0x20 SHL PUSH1 0x20 SHR JUMP JUMPDEST POP PUSH0 PUSH20 0xFFFFFFFFFFFFFFFFFFFFFFFFFFFFFFFFFFFFFFFF AND DUP2 PUSH20 0xFFFFFFFFFFFFFFFFFFFFFFFFFFFFFFFFFFFFFFFF AND SUB PUSH3 0xD6 JUMPI PUSH0 PUSH1 0x40 MLOAD PUSH32 0x1E4FBDF700000000000000000000000000000000000000000000000000000000 DUP2 MSTORE PUSH1 0x4 ADD PUSH3 0xCD SWAP2 SWAP1 PUSH3 0x26D JUMP JUMPDEST PUSH1 0x40 MLOAD DUP1 SWAP2 SUB SWAP1 REVERT JUMPDEST PUSH3 0xE7 DUP2 PUSH3 0x104 PUSH1 0x20 SHL PUSH1 0x20 SHR JUMP JUMPDEST POP POP PUSH3 0x5D0 JUMP JUMPDEST DUP1 PUSH1 0x2 SWAP1 DUP2 PUSH3 0x100 SWAP2 SWAP1 PUSH3 0x4EC JUMP JUMPDEST POP POP JUMP JUMPDEST PUSH0 PUSH1 0x3 PUSH0 SWAP1 SLOAD SWAP1 PUSH2 0x100 EXP SWAP1 DIV PUSH20 0xFFFFFFFFFFFFFFFFFFFFFFFFFFFFFFFFFFFFFFFF AND SWAP1 POP DUP2 PUSH1 0x3 PUSH0 PUSH2 0x100 EXP DUP2 SLOAD DUP2 PUSH20 0xFFFFFFFFFFFFFFFFFFFFFFFFFFFFFFFFFFFFFFFF MUL NOT AND SWAP1 DUP4 PUSH20 0xFFFFFFFFFFFFFFFFFFFFFFFFFFFFFFFFFFFFFFFF AND MUL OR SWAP1 SSTORE POP DUP2 PUSH20 0xFFFFFFFFFFFFFFFFFFFFFFFFFFFFFFFFFFFFFFFF AND DUP2 PUSH20 0xFFFFFFFFFFFFFFFFFFFFFFFFFFFFFFFFFFFFFFFF AND PUSH32 0x8BE0079C531659141344CD1FD0A4F28419497F9722A3DAAFE3B4186F6B6457E0 PUSH1 0x40 MLOAD PUSH1 0x40 MLOAD DUP1 SWAP2 SUB SWAP1 LOG3 POP POP JUMP JUMPDEST PUSH0 DUP1 REVERT JUMPDEST PUSH0 PUSH20 0xFFFFFFFFFFFFFFFFFFFFFFFFFFFFFFFFFFFFFFFF DUP3 AND SWAP1 POP SWAP2 SWAP1 POP JUMP JUMPDEST PUSH0 PUSH3 0x1F6 DUP3 PUSH3 0x1CB JUMP JUMPDEST SWAP1 POP SWAP2 SWAP1 POP JUMP JUMPDEST PUSH3 0x208 DUP2 PUSH3 0x1EA JUMP JUMPDEST DUP2 EQ PUSH3 0x213 JUMPI PUSH0 DUP1 REVERT JUMPDEST POP JUMP JUMPDEST PUSH0 DUP2 MLOAD SWAP1 POP PUSH3 0x226 DUP2 PUSH3 0x1FD JUMP JUMPDEST SWAP3 SWAP2 POP POP JUMP JUMPDEST PUSH0 PUSH1 0x20 DUP3 DUP5 SUB SLT ISZERO PUSH3 0x244 JUMPI PUSH3 0x243 PUSH3 0x1C7 JUMP JUMPDEST JUMPDEST PUSH0 PUSH3 0x253 DUP5 DUP3 DUP6 ADD PUSH3 0x216 JUMP JUMPDEST SWAP2 POP POP SWAP3 SWAP2 POP POP JUMP JUMPDEST PUSH3 0x267 DUP2 PUSH3 0x1EA JUMP JUMPDEST DUP3 MSTORE POP POP JUMP JUMPDEST PUSH0 PUSH1 0x20 DUP3 ADD SWAP1 POP PUSH3 0x282 PUSH0 DUP4 ADD DUP5 PUSH3 0x25C JUMP JUMPDEST SWAP3 SWAP2 POP POP JUMP JUMPDEST PUSH0 DUP2 MLOAD SWAP1 POP SWAP2 SWAP1 POP JUMP JUMPDEST PUSH32 0x4E487B7100000000000000000000000000000000000000000000000000000000 PUSH0 MSTORE PUSH1 0x41 PUSH1 0x4 MSTORE PUSH1 0x24 PUSH0 REVERT JUMPDEST PUSH32 0x4E487B7100000000000000000000000000000000000000000000000000000000 PUSH0 MSTORE PUSH1 0x22 PUSH1 0x4 MSTORE PUSH1 0x24 PUSH0 REVERT JUMPDEST PUSH0 PUSH1 0x2 DUP3 DIV SWAP1 POP PUSH1 0x1 DUP3 AND DUP1 PUSH3 0x304 JUMPI PUSH1 0x7F DUP3 AND SWAP2 POP JUMPDEST PUSH1 0x20 DUP3 LT DUP2 SUB PUSH3 0x31A JUMPI PUSH3 0x319 PUSH3 0x2BF JUMP JUMPDEST JUMPDEST POP SWAP2 SWAP1 POP JUMP JUMPDEST PUSH0 DUP2 SWAP1 POP DUP2 PUSH0 MSTORE PUSH1 0x20 PUSH0 KECCAK256 SWAP1 POP SWAP2 SWAP1 POP JUMP JUMPDEST PUSH0 PUSH1 0x20 PUSH1 0x1F DUP4 ADD DIV SWAP1 POP SWAP2 SWAP1 POP JUMP JUMPDEST PUSH0 DUP3 DUP3 SHL SWAP1 POP SWAP3 SWAP2 POP POP JUMP JUMPDEST PUSH0 PUSH1 0x8 DUP4 MUL PUSH3 0x37E PUSH32 0xFFFFFFFFFFFFFFFFFFFFFFFFFFFFFFFFFFFFFFFFFFFFFFFFFFFFFFFFFFFFFFFF DUP3 PUSH3 0x341 JUMP JUMPDEST PUSH3 0x38A DUP7 DUP4 PUSH3 0x341 JUMP JUMPDEST SWAP6 POP DUP1 NOT DUP5 AND SWAP4 POP DUP1 DUP7 AND DUP5 OR SWAP3 POP POP POP SWAP4 SWAP3 POP POP POP JUMP JUMPDEST PUSH0 DUP2 SWAP1 POP SWAP2 SWAP1 POP JUMP JUMPDEST PUSH0 DUP2 SWAP1 POP SWAP2 SWAP1 POP JUMP JUMPDEST PUSH0 PUSH3 0x3D4 PUSH3 0x3CE PUSH3 0x3C8 DUP5 PUSH3 0x3A2 JUMP JUMPDEST PUSH3 0x3AB JUMP JUMPDEST PUSH3 0x3A2 JUMP JUMPDEST SWAP1 POP SWAP2 SWAP1 POP JUMP JUMPDEST PUSH0 DUP2 SWAP1 POP SWAP2 SWAP1 POP JUMP JUMPDEST PUSH3 0x3EF DUP4 PUSH3 0x3B4 JUMP JUMPDEST PUSH3 0x407 PUSH3 0x3FE DUP3 PUSH3 0x3DB JUMP JUMPDEST DUP5 DUP5 SLOAD PUSH3 0x34D JUMP JUMPDEST DUP3 SSTORE POP POP POP POP JUMP JUMPDEST PUSH0 SWAP1 JUMP JUMPDEST PUSH3 0x41D PUSH3 0x40F JUMP JUMPDEST PUSH3 0x42A DUP2 DUP5 DUP5 PUSH3 0x3E4 JUMP JUMPDEST POP POP POP JUMP JUMPDEST JUMPDEST DUP2 DUP2 LT ISZERO PUSH3 0x451 JUMPI PUSH3 0x445 PUSH0 DUP3 PUSH3 0x413 JUMP JUMPDEST PUSH1 0x1 DUP2 ADD SWAP1 POP PUSH3 0x430 JUMP JUMPDEST POP POP JUMP JUMPDEST PUSH1 0x1F DUP3 GT ISZERO PUSH3 0x4A0 JUMPI PUSH3 0x46A DUP2 PUSH3 0x320 JUMP JUMPDEST PUSH3 0x475 DUP5 PUSH3 0x332 JUMP JUMPDEST DUP2 ADD PUSH1 0x20 DUP6 LT ISZERO PUSH3 0x485 JUMPI DUP2 SWAP1 POP JUMPDEST PUSH3 0x49D PUSH3 0x494 DUP6 PUSH3 0x332 JUMP JUMPDEST DUP4 ADD DUP3 PUSH3 0x42F JUMP JUMPDEST POP POP JUMPDEST POP POP POP JUMP JUMPDEST PUSH0 DUP3 DUP3 SHR SWAP1 POP SWAP3 SWAP2 POP POP JUMP JUMPDEST PUSH0 PUSH3 0x4C2 PUSH0 NOT DUP5 PUSH1 0x8 MUL PUSH3 0x4A5 JUMP JUMPDEST NOT DUP1 DUP4 AND SWAP2 POP POP SWAP3 SWAP2 POP POP JUMP JUMPDEST PUSH0 PUSH3 0x4DC DUP4 DUP4 PUSH3 0x4B1 JUMP JUMPDEST SWAP2 POP DUP3 PUSH1 0x2 MUL DUP3 OR SWAP1 POP SWAP3 SWAP2 POP POP JUMP JUMPDEST PUSH3 0x4F7 DUP3 PUSH3 0x288 JUMP JUMPDEST PUSH8 0xFFFFFFFFFFFFFFFF DUP2 GT ISZERO PUSH3 0x513 JUMPI PUSH3 0x512 PUSH3 0x292 JUMP JUMPDEST JUMPDEST PUSH3 0x51F DUP3 SLOAD PUSH3 0x2EC JUMP JUMPDEST PUSH3 0x52C DUP3 DUP3 DUP6 PUSH3 0x455 JUMP JUMPDEST PUSH0 PUSH1 0x20 SWAP1 POP PUSH1 0x1F DUP4 GT PUSH1 0x1 DUP2 EQ PUSH3 0x562 JUMPI PUSH0 DUP5 ISZERO PUSH3 0x54D JUMPI DUP3 DUP8 ADD MLOAD SWAP1 POP JUMPDEST PUSH3 0x559 DUP6 DUP3 PUSH3 0x4CF JUMP JUMPDEST DUP7 SSTORE POP PUSH3 0x5C8 JUMP JUMPDEST PUSH1 0x1F NOT DUP5 AND PUSH3 0x572 DUP7 PUSH3 0x320 JUMP JUMPDEST PUSH0 JUMPDEST DUP3 DUP2 LT ISZERO PUSH3 0x59B JUMPI DUP5 DUP10 ADD MLOAD DUP3 SSTORE PUSH1 0x1 DUP3 ADD SWAP2 POP PUSH1 0x20 DUP6 ADD SWAP5 POP PUSH1 0x20 DUP2 ADD SWAP1 POP PUSH3 0x574 JUMP JUMPDEST DUP7 DUP4 LT ISZERO PUSH3 0x5BB JUMPI DUP5 DUP10 ADD MLOAD PUSH3 0x5B7 PUSH1 0x1F DUP10 AND DUP3 PUSH3 0x4B1 JUMP JUMPDEST DUP4 SSTORE POP JUMPDEST PUSH1 0x1 PUSH1 0x2 DUP9 MUL ADD DUP9 SSTORE POP POP POP JUMPDEST POP POP POP POP POP POP JUMP JUMPDEST PUSH2 0x2B68 DUP1 PUSH3 0x5DE PUSH0 CODECOPY PUSH0 RETURN INVALID PUSH1 0x80 PUSH1 0x40 MSTORE CALLVALUE DUP1 ISZERO PUSH2 0xF JUMPI PUSH0 DUP1 REVERT JUMPDEST POP PUSH1 0x4 CALLDATASIZE LT PUSH2 0xFD JUMPI PUSH0 CALLDATALOAD PUSH1 0xE0 SHR DUP1 PUSH4 0x715018A6 GT PUSH2 0x95 JUMPI DUP1 PUSH4 0xE985E9C5 GT PUSH2 0x64 JUMPI DUP1 PUSH4 0xE985E9C5 EQ PUSH2 0x291 JUMPI DUP1 PUSH4 0xF242432A EQ PUSH2 0x2C1 JUMPI DUP1 PUSH4 0xF2FDE38B EQ PUSH2 0x2DD JUMPI DUP1 PUSH4 0xF5298ACA EQ PUSH2 0x2F9 JUMPI PUSH2 0xFD JUMP JUMPDEST DUP1 PUSH4 0x715018A6 EQ PUSH2 0x231 JUMPI DUP1 PUSH4 0x731133E9 EQ PUSH2 0x23B JUMPI DUP1 PUSH4 0x8DA5CB5B EQ PUSH2 0x257 JUMPI DUP1 PUSH4 0xA22CB465 EQ PUSH2 0x275 JUMPI PUSH2 0xFD JUMP JUMPDEST DUP1 PUSH4 0x1F7FDFFA GT PUSH2 0xD1 JUMPI DUP1 PUSH4 0x1F7FDFFA EQ PUSH2 0x1AD JUMPI DUP1 PUSH4 0x2EB2C2D6 EQ PUSH2 0x1C9 JUMPI DUP1 PUSH4 0x4E1273F4 EQ PUSH2 0x1E5 JUMPI DUP1 PUSH4 0x6B20C454 EQ PUSH2 0x215 JUMPI PUSH2 0xFD JUMP JUMPDEST DUP1 PUSH3 0xFDD58E EQ PUSH2 0x101 JUMPI DUP1 PUSH4 0x1FFC9A7 EQ PUSH2 0x131 JUMPI DUP1 PUSH4 0x2FE5305 EQ PUSH2 0x161 JUMPI DUP1 PUSH4 0xE89341C EQ PUSH2 0x17D JUMPI JUMPDEST PUSH0 DUP1 REVERT JUMPDEST PUSH2 0x11B PUSH1 0x4 DUP1 CALLDATASIZE SUB DUP2 ADD SWAP1 PUSH2 0x116 SWAP2 SWAP1 PUSH2 0x1A49 JUMP JUMPDEST PUSH2 0x315 JUMP JUMPDEST PUSH1 0x40 MLOAD PUSH2 0x128 SWAP2 SWAP1 PUSH2 0x1A96 JUMP JUMPDEST PUSH1 0x40 MLOAD DUP1 SWAP2 SUB SWAP1 RETURN JUMPDEST PUSH2 0x14B PUSH1 0x4 DUP1 CALLDATASIZE SUB DUP2 ADD SWAP1 PUSH2 0x146 SWAP2 SWAP1 PUSH2 0x1B04 JUMP JUMPDEST PUSH2 0x36A JUMP JUMPDEST PUSH1 0x40 MLOAD PUSH2 0x158 SWAP2 SWAP1 PUSH2 0x1B49 JUMP JUMPDEST PUSH1 0x40 MLOAD DUP1 SWAP2 SUB SWAP1 RETURN JUMPDEST PUSH2 0x17B PUSH1 0x4 DUP1 CALLDATASIZE SUB DUP2 ADD SWAP1 PUSH2 0x176 SWAP2 SWAP1 PUSH2 0x1C9E JUMP JUMPDEST PUSH2 0x44B JUMP JUMPDEST STOP JUMPDEST PUSH2 0x197 PUSH1 0x4 DUP1 CALLDATASIZE SUB DUP2 ADD SWAP1 PUSH2 0x192 SWAP2 SWAP1 PUSH2 0x1CE5 JUMP JUMPDEST PUSH2 0x45F JUMP JUMPDEST PUSH1 0x40 MLOAD PUSH2 0x1A4 SWAP2 SWAP1 PUSH2 0x1D8A JUMP JUMPDEST PUSH1 0x40 MLOAD DUP1 SWAP2 SUB SWAP1 RETURN JUMPDEST PUSH2 0x1C7 PUSH1 0x4 DUP1 CALLDATASIZE SUB DUP2 ADD SWAP1 PUSH2 0x1C2 SWAP2 SWAP1 PUSH2 0x1F0C JUMP JUMPDEST PUSH2 0x4F1 JUMP JUMPDEST STOP JUMPDEST PUSH2 0x1E3 PUSH1 0x4 DUP1 CALLDATASIZE SUB DUP2 ADD SWAP1 PUSH2 0x1DE SWAP2 SWAP1 PUSH2 0x1FC4 JUMP JUMPDEST PUSH2 0x50B JUMP JUMPDEST STOP JUMPDEST PUSH2 0x1FF PUSH1 0x4 DUP1 CALLDATASIZE SUB DUP2 ADD SWAP1 PUSH2 0x1FA SWAP2 SWAP1 PUSH2 0x214F JUMP JUMPDEST PUSH2 0x5B2 JUMP JUMPDEST PUSH1 0x40 MLOAD PUSH2 0x20C SWAP2 SWAP1 PUSH2 0x227C JUMP JUMPDEST PUSH1 0x40 MLOAD DUP1 SWAP2 SUB SWAP1 RETURN JUMPDEST PUSH2 0x22F PUSH1 0x4 DUP1 CALLDATASIZE SUB DUP2 ADD SWAP1 PUSH2 0x22A SWAP2 SWAP1 PUSH2 0x229C JUMP JUMPDEST PUSH2 0x6BF JUMP JUMPDEST STOP JUMPDEST PUSH2 0x239 PUSH2 0x76B JUMP JUMPDEST STOP JUMPDEST PUSH2 0x255 PUSH1 0x4 DUP1 CALLDATASIZE SUB DUP2 ADD SWAP1 PUSH2 0x250 SWAP2 SWAP1 PUSH2 0x2324 JUMP JUMPDEST PUSH2 0x77E JUMP JUMPDEST STOP JUMPDEST PUSH2 0x25F PUSH2 0x798 JUMP JUMPDEST PUSH1 0x40 MLOAD PUSH2 0x26C SWAP2 SWAP1 PUSH2 0x23B3 JUMP JUMPDEST PUSH1 0x40 MLOAD DUP1 SWAP2 SUB SWAP1 RETURN JUMPDEST PUSH2 0x28F PUSH1 0x4 DUP1 CALLDATASIZE SUB DUP2 ADD SWAP1 PUSH2 0x28A SWAP2 SWAP1 PUSH2 0x23F6 JUMP JUMPDEST PUSH2 0x7C0 JUMP JUMPDEST STOP JUMPDEST PUSH2 0x2AB PUSH1 0x4 DUP1 CALLDATASIZE SUB DUP2 ADD SWAP1 PUSH2 0x2A6 SWAP2 SWAP1 PUSH2 0x2434 JUMP JUMPDEST PUSH2 0x7D6 JUMP JUMPDEST PUSH1 0x40 MLOAD PUSH2 0x2B8 SWAP2 SWAP1 PUSH2 0x1B49 JUMP JUMPDEST PUSH1 0x40 MLOAD DUP1 SWAP2 SUB SWAP1 RETURN JUMPDEST PUSH2 0x2DB PUSH1 0x4 DUP1 CALLDATASIZE SUB DUP2 ADD SWAP1 PUSH2 0x2D6 SWAP2 SWAP1 PUSH2 0x2472 JUMP JUMPDEST PUSH2 0x864 JUMP JUMPDEST STOP JUMPDEST PUSH2 0x2F7 PUSH1 0x4 DUP1 CALLDATASIZE SUB DUP2 ADD SWAP1 PUSH2 0x2F2 SWAP2 SWAP1 PUSH2 0x2505 JUMP JUMPDEST PUSH2 0x90B JUMP JUMPDEST STOP JUMPDEST PUSH2 0x313 PUSH1 0x4 DUP1 CALLDATASIZE SUB DUP2 ADD SWAP1 PUSH2 0x30E SWAP2 SWAP1 PUSH2 0x2530 JUMP JUMPDEST PUSH2 0x98F JUMP JUMPDEST STOP JUMPDEST PUSH0 DUP1 PUSH0 DUP4 DUP2 MSTORE PUSH1 0x20 ADD SWAP1 DUP2 MSTORE PUSH1 0x20 ADD PUSH0 KECCAK256 PUSH0 DUP5 PUSH20 0xFFFFFFFFFFFFFFFFFFFFFFFFFFFFFFFFFFFFFFFF AND PUSH20 0xFFFFFFFFFFFFFFFFFFFFFFFFFFFFFFFFFFFFFFFF AND DUP2 MSTORE PUSH1 0x20 ADD SWAP1 DUP2 MSTORE PUSH1 0x20 ADD PUSH0 KECCAK256 SLOAD SWAP1 POP SWAP3 SWAP2 POP POP JUMP JUMPDEST PUSH0 PUSH32 0xD9B67A2600000000000000000000000000000000000000000000000000000000 PUSH28 0xFFFFFFFFFFFFFFFFFFFFFFFFFFFFFFFFFFFFFFFFFFFFFFFFFFFFFFFF NOT AND DUP3 PUSH28 0xFFFFFFFFFFFFFFFFFFFFFFFFFFFFFFFFFFFFFFFFFFFFFFFFFFFFFFFF NOT AND EQ DUP1 PUSH2 0x434 JUMPI POP PUSH32 0xE89341C00000000000000000000000000000000000000000000000000000000 PUSH28 0xFFFFFFFFFFFFFFFFFFFFFFFFFFFFFFFFFFFFFFFFFFFFFFFFFFFFFFFF NOT AND DUP3 PUSH28 0xFFFFFFFFFFFFFFFFFFFFFFFFFFFFFFFFFFFFFFFFFFFFFFFFFFFFFFFF NOT AND EQ JUMPDEST DUP1 PUSH2 0x444 JUMPI POP PUSH2 0x443 DUP3 PUSH2 0xA3B JUMP JUMPDEST JUMPDEST SWAP1 POP SWAP2 SWAP1 POP JUMP JUMPDEST PUSH2 0x453 PUSH2 0xAA4 JUMP JUMPDEST PUSH2 0x45C DUP2 PUSH2 0xB2B JUMP JUMPDEST POP JUMP JUMPDEST PUSH1 0x60 PUSH1 0x2 DUP1 SLOAD PUSH2 0x46E SWAP1 PUSH2 0x25AD JUMP JUMPDEST DUP1 PUSH1 0x1F ADD PUSH1 0x20 DUP1 SWAP2 DIV MUL PUSH1 0x20 ADD PUSH1 0x40 MLOAD SWAP1 DUP2 ADD PUSH1 0x40 MSTORE DUP1 SWAP3 SWAP2 SWAP1 DUP2 DUP2 MSTORE PUSH1 0x20 ADD DUP3 DUP1 SLOAD PUSH2 0x49A SWAP1 PUSH2 0x25AD JUMP JUMPDEST DUP1 ISZERO PUSH2 0x4E5 JUMPI DUP1 PUSH1 0x1F LT PUSH2 0x4BC JUMPI PUSH2 0x100 DUP1 DUP4 SLOAD DIV MUL DUP4 MSTORE SWAP2 PUSH1 0x20 ADD SWAP2 PUSH2 0x4E5 JUMP JUMPDEST DUP3 ADD SWAP2 SWAP1 PUSH0 MSTORE PUSH1 0x20 PUSH0 KECCAK256 SWAP1 JUMPDEST DUP2 SLOAD DUP2 MSTORE SWAP1 PUSH1 0x1 ADD SWAP1 PUSH1 0x20 ADD DUP1 DUP4 GT PUSH2 0x4C8 JUMPI DUP3 SWAP1 SUB PUSH1 0x1F AND DUP3 ADD SWAP2 JUMPDEST POP POP POP POP POP SWAP1 POP SWAP2 SWAP1 POP JUMP JUMPDEST PUSH2 0x4F9 PUSH2 0xAA4 JUMP JUMPDEST PUSH2 0x505 DUP5 DUP5 DUP5 DUP5 PUSH2 0xB3E JUMP JUMPDEST POP POP POP POP JUMP JUMPDEST PUSH0 PUSH2 0x514 PUSH2 0xBC1 JUMP JUMPDEST SWAP1 POP DUP1 PUSH20 0xFFFFFFFFFFFFFFFFFFFFFFFFFFFFFFFFFFFFFFFF AND DUP7 PUSH20 0xFFFFFFFFFFFFFFFFFFFFFFFFFFFFFFFFFFFFFFFF AND EQ ISZERO DUP1 ISZERO PUSH2 0x559 JUMPI POP PUSH2 0x557 DUP7 DUP3 PUSH2 0x7D6 JUMP JUMPDEST ISZERO JUMPDEST ISZERO PUSH2 0x59D JUMPI DUP1 DUP7 PUSH1 0x40 MLOAD PUSH32 0xE237D92200000000000000000000000000000000000000000000000000000000 DUP2 MSTORE PUSH1 0x4 ADD PUSH2 0x594 SWAP3 SWAP2 SWAP1 PUSH2 0x25DD JUMP JUMPDEST PUSH1 0x40 MLOAD DUP1 SWAP2 SUB SWAP1 REVERT JUMPDEST PUSH2 0x5AA DUP7 DUP7 DUP7 DUP7 DUP7 PUSH2 0xBC8 JUMP JUMPDEST POP POP POP POP POP POP JUMP JUMPDEST PUSH1 0x60 DUP2 MLOAD DUP4 MLOAD EQ PUSH2 0x5FE JUMPI DUP2 MLOAD DUP4 MLOAD PUSH1 0x40 MLOAD PUSH32 0x5B05999100000000000000000000000000000000000000000000000000000000 DUP2 MSTORE PUSH1 0x4 ADD PUSH2 0x5F5 SWAP3 SWAP2 SWAP1 PUSH2 0x2604 JUMP JUMPDEST PUSH1 0x40 MLOAD DUP1 SWAP2 SUB SWAP1 REVERT JUMPDEST PUSH0 DUP4 MLOAD PUSH8 0xFFFFFFFFFFFFFFFF DUP2 GT ISZERO PUSH2 0x61A JUMPI PUSH2 0x619 PUSH2 0x1B7A JUMP JUMPDEST JUMPDEST PUSH1 0x40 MLOAD SWAP1 DUP1 DUP3 MSTORE DUP1 PUSH1 0x20 MUL PUSH1 0x20 ADD DUP3 ADD PUSH1 0x40 MSTORE DUP1 ISZERO PUSH2 0x648 JUMPI DUP2 PUSH1 0x20 ADD PUSH1 0x20 DUP3 MUL DUP1 CALLDATASIZE DUP4 CALLDATACOPY DUP1 DUP3 ADD SWAP2 POP POP SWAP1 POP JUMPDEST POP SWAP1 POP PUSH0 JUMPDEST DUP5 MLOAD DUP2 LT ISZERO PUSH2 0x6B4 JUMPI PUSH2 0x684 PUSH2 0x66C DUP3 DUP8 PUSH2 0xCBC SWAP1 SWAP2 SWAP1 PUSH4 0xFFFFFFFF AND JUMP JUMPDEST PUSH2 0x67F DUP4 DUP8 PUSH2 0xCCF SWAP1 SWAP2 SWAP1 PUSH4 0xFFFFFFFF AND JUMP JUMPDEST PUSH2 0x315 JUMP JUMPDEST DUP3 DUP3 DUP2 MLOAD DUP2 LT PUSH2 0x697 JUMPI PUSH2 0x696 PUSH2 0x262B JUMP JUMPDEST JUMPDEST PUSH1 0x20 MUL PUSH1 0x20 ADD ADD DUP2 DUP2 MSTORE POP POP DUP1 PUSH2 0x6AD SWAP1 PUSH2 0x2685 JUMP JUMPDEST SWAP1 POP PUSH2 0x64D JUMP JUMPDEST POP DUP1 SWAP2 POP POP SWAP3 SWAP2 POP POP JUMP JUMPDEST PUSH2 0x6C7 PUSH2 0xBC1 JUMP JUMPDEST PUSH20 0xFFFFFFFFFFFFFFFFFFFFFFFFFFFFFFFFFFFFFFFF AND DUP4 PUSH20 0xFFFFFFFFFFFFFFFFFFFFFFFFFFFFFFFFFFFFFFFF AND EQ ISZERO DUP1 ISZERO PUSH2 0x710 JUMPI POP PUSH2 0x70E DUP4 PUSH2 0x709 PUSH2 0xBC1 JUMP JUMPDEST PUSH2 0x7D6 JUMP JUMPDEST ISZERO JUMPDEST ISZERO PUSH2 0x75B JUMPI PUSH2 0x71D PUSH2 0xBC1 JUMP JUMPDEST DUP4 PUSH1 0x40 MLOAD PUSH32 0xE237D92200000000000000000000000000000000000000000000000000000000 DUP2 MSTORE PUSH1 0x4 ADD PUSH2 0x752 SWAP3 SWAP2 SWAP1 PUSH2 0x25DD JUMP JUMPDEST PUSH1 0x40 MLOAD DUP1 SWAP2 SUB SWAP1 REVERT JUMPDEST PUSH2 0x766 DUP4 DUP4 DUP4 PUSH2 0xCE2 JUMP JUMPDEST POP POP POP JUMP JUMPDEST PUSH2 0x773 PUSH2 0xAA4 JUMP JUMPDEST PUSH2 0x77C PUSH0 PUSH2 0xD72 JUMP JUMPDEST JUMP JUMPDEST PUSH2 0x786 PUSH2 0xAA4 JUMP JUMPDEST PUSH2 0x792 DUP5 DUP5 DUP5 DUP5 PUSH2 0xE35 JUMP JUMPDEST POP POP POP POP JUMP JUMPDEST PUSH0 PUSH1 0x3 PUSH0 SWAP1 SLOAD SWAP1 PUSH2 0x100 EXP SWAP1 DIV PUSH20 0xFFFFFFFFFFFFFFFFFFFFFFFFFFFFFFFFFFFFFFFF AND SWAP1 POP SWAP1 JUMP JUMPDEST PUSH2 0x7D2 PUSH2 0x7CB PUSH2 0xBC1 JUMP JUMPDEST DUP4 DUP4 PUSH2 0xECA JUMP JUMPDEST POP POP JUMP JUMPDEST PUSH0 PUSH1 0x1 PUSH0 DUP5 PUSH20 0xFFFFFFFFFFFFFFFFFFFFFFFFFFFFFFFFFFFFFFFF AND PUSH20 0xFFFFFFFFFFFFFFFFFFFFFFFFFFFFFFFFFFFFFFFF AND DUP2 MSTORE PUSH1 0x20 ADD SWAP1 DUP2 MSTORE PUSH1 0x20 ADD PUSH0 KECCAK256 PUSH0 DUP4 PUSH20 0xFFFFFFFFFFFFFFFFFFFFFFFFFFFFFFFFFFFFFFFF AND PUSH20 0xFFFFFFFFFFFFFFFFFFFFFFFFFFFFFFFFFFFFFFFF AND DUP2 MSTORE PUSH1 0x20 ADD SWAP1 DUP2 MSTORE PUSH1 0x20 ADD PUSH0 KECCAK256 PUSH0 SWAP1 SLOAD SWAP1 PUSH2 0x100 EXP SWAP1 DIV PUSH1 0xFF AND SWAP1 POP SWAP3 SWAP2 POP POP JUMP JUMPDEST PUSH0 PUSH2 0x86D PUSH2 0xBC1 JUMP JUMPDEST SWAP1 POP DUP1 PUSH20 0xFFFFFFFFFFFFFFFFFFFFFFFFFFFFFFFFFFFFFFFF AND DUP7 PUSH20 0xFFFFFFFFFFFFFFFFFFFFFFFFFFFFFFFFFFFFFFFF AND EQ ISZERO DUP1 ISZERO PUSH2 0x8B2 JUMPI POP PUSH2 0x8B0 DUP7 DUP3 PUSH2 0x7D6 JUMP JUMPDEST ISZERO JUMPDEST ISZERO PUSH2 0x8F6 JUMPI DUP1 DUP7 PUSH1 0x40 MLOAD PUSH32 0xE237D92200000000000000000000000000000000000000000000000000000000 DUP2 MSTORE PUSH1 0x4 ADD PUSH2 0x8ED SWAP3 SWAP2 SWAP1 PUSH2 0x25DD JUMP JUMPDEST PUSH1 0x40 MLOAD DUP1 SWAP2 SUB SWAP1 REVERT JUMPDEST PUSH2 0x903 DUP7 DUP7 DUP7 DUP7 DUP7 PUSH2 0x1033 JUMP JUMPDEST POP POP POP POP POP POP JUMP JUMPDEST PUSH2 0x913 PUSH2 0xAA4 JUMP JUMPDEST PUSH0 PUSH20 0xFFFFFFFFFFFFFFFFFFFFFFFFFFFFFFFFFFFFFFFF AND DUP2 PUSH20 0xFFFFFFFFFFFFFFFFFFFFFFFFFFFFFFFFFFFFFFFF AND SUB PUSH2 0x983 JUMPI PUSH0 PUSH1 0x40 MLOAD PUSH32 0x1E4FBDF700000000000000000000000000000000000000000000000000000000 DUP2 MSTORE PUSH1 0x4 ADD PUSH2 0x97A SWAP2 SWAP1 PUSH2 0x23B3 JUMP JUMPDEST PUSH1 0x40 MLOAD DUP1 SWAP2 SUB SWAP1 REVERT JUMPDEST PUSH2 0x98C DUP2 PUSH2 0xD72 JUMP JUMPDEST POP JUMP JUMPDEST PUSH2 0x997 PUSH2 0xBC1 JUMP JUMPDEST PUSH20 0xFFFFFFFFFFFFFFFFFFFFFFFFFFFFFFFFFFFFFFFF AND DUP4 PUSH20 0xFFFFFFFFFFFFFFFFFFFFFFFFFFFFFFFFFFFFFFFF AND EQ ISZERO DUP1 ISZERO PUSH2 0x9E0 JUMPI POP PUSH2 0x9DE DUP4 PUSH2 0x9D9 PUSH2 0xBC1 JUMP JUMPDEST PUSH2 0x7D6 JUMP JUMPDEST ISZERO JUMPDEST ISZERO PUSH2 0xA2B JUMPI PUSH2 0x9ED PUSH2 0xBC1 JUMP JUMPDEST DUP4 PUSH1 0x40 MLOAD PUSH32 0xE237D92200000000000000000000000000000000000000000000000000000000 DUP2 MSTORE PUSH1 0x4 ADD PUSH2 0xA22 SWAP3 SWAP2 SWAP1 PUSH2 0x25DD JUMP JUMPDEST PUSH1 0x40 MLOAD DUP1 SWAP2 SUB SWAP1 REVERT JUMPDEST PUSH2 0xA36 DUP4 DUP4 DUP4 PUSH2 0x1139 JUMP JUMPDEST POP POP POP JUMP JUMPDEST PUSH0 PUSH32 0x1FFC9A700000000000000000000000000000000000000000000000000000000 PUSH28 0xFFFFFFFFFFFFFFFFFFFFFFFFFFFFFFFFFFFFFFFFFFFFFFFFFFFFFFFF NOT AND DUP3 PUSH28 0xFFFFFFFFFFFFFFFFFFFFFFFFFFFFFFFFFFFFFFFFFFFFFFFFFFFFFFFF NOT AND EQ SWAP1 POP SWAP2 SWAP1 POP JUMP JUMPDEST PUSH2 0xAAC PUSH2 0xBC1 JUMP JUMPDEST PUSH20 0xFFFFFFFFFFFFFFFFFFFFFFFFFFFFFFFFFFFFFFFF AND PUSH2 0xACA PUSH2 0x798 JUMP JUMPDEST PUSH20 0xFFFFFFFFFFFFFFFFFFFFFFFFFFFFFFFFFFFFFFFF AND EQ PUSH2 0xB29 JUMPI PUSH2 0xAED PUSH2 0xBC1 JUMP JUMPDEST PUSH1 0x40 MLOAD PUSH32 0x118CDAA700000000000000000000000000000000000000000000000000000000 DUP2 MSTORE PUSH1 0x4 ADD PUSH2 0xB20 SWAP2 SWAP1 PUSH2 0x23B3 JUMP JUMPDEST PUSH1 0x40 MLOAD DUP1 SWAP2 SUB SWAP1 REVERT JUMPDEST JUMP JUMPDEST DUP1 PUSH1 0x2 SWAP1 DUP2 PUSH2 0xB3A SWAP2 SWAP1 PUSH2 0x2869 JUMP JUMPDEST POP POP JUMP JUMPDEST PUSH0 PUSH20 0xFFFFFFFFFFFFFFFFFFFFFFFFFFFFFFFFFFFFFFFF AND DUP5 PUSH20 0xFFFFFFFFFFFFFFFFFFFFFFFFFFFFFFFFFFFFFFFF AND SUB PUSH2 0xBAE JUMPI PUSH0 PUSH1 0x40 MLOAD PUSH32 0x57F447CE00000000000000000000000000000000000000000000000000000000 DUP2 MSTORE PUSH1 0x4 ADD PUSH2 0xBA5 SWAP2 SWAP1 PUSH2 0x23B3 JUMP JUMPDEST PUSH1 0x40 MLOAD DUP1 SWAP2 SUB SWAP1 REVERT JUMPDEST PUSH2 0xBBB PUSH0 DUP6 DUP6 DUP6 DUP6 PUSH2 0x11DB JUMP JUMPDEST POP POP POP POP JUMP JUMPDEST PUSH0 CALLER SWAP1 POP SWAP1 JUMP JUMPDEST PUSH0 PUSH20 0xFFFFFFFFFFFFFFFFFFFFFFFFFFFFFFFFFFFFFFFF AND DUP5 PUSH20 0xFFFFFFFFFFFFFFFFFFFFFFFFFFFFFFFFFFFFFFFF AND SUB PUSH2 0xC38 JUMPI PUSH0 PUSH1 0x40 MLOAD PUSH32 0x57F447CE00000000000000000000000000000000000000000000000000000000 DUP2 MSTORE PUSH1 0x4 ADD PUSH2 0xC2F SWAP2 SWAP1 PUSH2 0x23B3 JUMP JUMPDEST PUSH1 0x40 MLOAD DUP1 SWAP2 SUB SWAP1 REVERT JUMPDEST PUSH0 PUSH20 0xFFFFFFFFFFFFFFFFFFFFFFFFFFFFFFFFFFFFFFFF AND DUP6 PUSH20 0xFFFFFFFFFFFFFFFFFFFFFFFFFFFFFFFFFFFFFFFF AND SUB PUSH2 0xCA8 JUMPI PUSH0 PUSH1 0x40 MLOAD PUSH32 0x1A8351400000000000000000000000000000000000000000000000000000000 DUP2 MSTORE PUSH1 0x4 ADD PUSH2 0xC9F SWAP2 SWAP1 PUSH2 0x23B3 JUMP JUMPDEST PUSH1 0x40 MLOAD DUP1 SWAP2 SUB SWAP1 REVERT JUMPDEST PUSH2 0xCB5 DUP6 DUP6 DUP6 DUP6 DUP6 PUSH2 0x11DB JUMP JUMPDEST POP POP POP POP POP JUMP JUMPDEST PUSH0 PUSH1 0x20 DUP3 MUL PUSH1 0x20 DUP5 ADD ADD MLOAD SWAP1 POP SWAP3 SWAP2 POP POP JUMP JUMPDEST PUSH0 PUSH1 0x20 DUP3 MUL PUSH1 0x20 DUP5 ADD ADD MLOAD SWAP1 POP SWAP3 SWAP2 POP POP JUMP JUMPDEST PUSH0 PUSH20 0xFFFFFFFFFFFFFFFFFFFFFFFFFFFFFFFFFFFFFFFF AND DUP4 PUSH20 0xFFFFFFFFFFFFFFFFFFFFFFFFFFFFFFFFFFFFFFFF AND SUB PUSH2 0xD52 JUMPI PUSH0 PUSH1 0x40 MLOAD PUSH32 0x1A8351400000000000000000000000000000000000000000000000000000000 DUP2 MSTORE PUSH1 0x4 ADD PUSH2 0xD49 SWAP2 SWAP1 PUSH2 0x23B3 JUMP JUMPDEST PUSH1 0x40 MLOAD DUP1 SWAP2 SUB SWAP1 REVERT JUMPDEST PUSH2 0xD6D DUP4 PUSH0 DUP5 DUP5 PUSH1 0x40 MLOAD DUP1 PUSH1 0x20 ADD PUSH1 0x40 MSTORE DUP1 PUSH0 DUP2 MSTORE POP PUSH2 0x11DB JUMP JUMPDEST POP POP POP JUMP JUMPDEST PUSH0 PUSH1 0x3 PUSH0 SWAP1 SLOAD SWAP1 PUSH2 0x100 EXP SWAP1 DIV PUSH20 0xFFFFFFFFFFFFFFFFFFFFFFFFFFFFFFFFFFFFFFFF AND SWAP1 POP DUP2 PUSH1 0x3 PUSH0 PUSH2 0x100 EXP DUP2 SLOAD DUP2 PUSH20 0xFFFFFFFFFFFFFFFFFFFFFFFFFFFFFFFFFFFFFFFF MUL NOT AND SWAP1 DUP4 PUSH20 0xFFFFFFFFFFFFFFFFFFFFFFFFFFFFFFFFFFFFFFFF AND MUL OR SWAP1 SSTORE POP DUP2 PUSH20 0xFFFFFFFFFFFFFFFFFFFFFFFFFFFFFFFFFFFFFFFF AND DUP2 PUSH20 0xFFFFFFFFFFFFFFFFFFFFFFFFFFFFFFFFFFFFFFFF AND PUSH32 0x8BE0079C531659141344CD1FD0A4F28419497F9722A3DAAFE3B4186F6B6457E0 PUSH1 0x40 MLOAD PUSH1 0x40 MLOAD DUP1 SWAP2 SUB SWAP1 LOG3 POP POP JUMP JUMPDEST PUSH0 PUSH20 0xFFFFFFFFFFFFFFFFFFFFFFFFFFFFFFFFFFFFFFFF AND DUP5 PUSH20 0xFFFFFFFFFFFFFFFFFFFFFFFFFFFFFFFFFFFFFFFF AND SUB PUSH2 0xEA5 JUMPI PUSH0 PUSH1 0x40 MLOAD PUSH32 0x57F447CE00000000000000000000000000000000000000000000000000000000 DUP2 MSTORE PUSH1 0x4 ADD PUSH2 0xE9C SWAP2 SWAP1 PUSH2 0x23B3 JUMP JUMPDEST PUSH1 0x40 MLOAD DUP1 SWAP2 SUB SWAP1 REVERT JUMPDEST PUSH0 DUP1 PUSH2 0xEB1 DUP6 DUP6 PUSH2 0x1287 JUMP JUMPDEST SWAP2 POP SWAP2 POP PUSH2 0xEC2 PUSH0 DUP8 DUP5 DUP5 DUP8 PUSH2 0x11DB JUMP JUMPDEST POP POP POP POP POP POP JUMP JUMPDEST PUSH0 PUSH20 0xFFFFFFFFFFFFFFFFFFFFFFFFFFFFFFFFFFFFFFFF AND DUP3 PUSH20 0xFFFFFFFFFFFFFFFFFFFFFFFFFFFFFFFFFFFFFFFF AND SUB PUSH2 0xF3A JUMPI PUSH0 PUSH1 0x40 MLOAD PUSH32 0xCED3E10000000000000000000000000000000000000000000000000000000000 DUP2 MSTORE PUSH1 0x4 ADD PUSH2 0xF31 SWAP2 SWAP1 PUSH2 0x23B3 JUMP JUMPDEST PUSH1 0x40 MLOAD DUP1 SWAP2 SUB SWAP1 REVERT JUMPDEST DUP1 PUSH1 0x1 PUSH0 DUP6 PUSH20 0xFFFFFFFFFFFFFFFFFFFFFFFFFFFFFFFFFFFFFFFF AND PUSH20 0xFFFFFFFFFFFFFFFFFFFFFFFFFFFFFFFFFFFFFFFF AND DUP2 MSTORE PUSH1 0x20 ADD SWAP1 DUP2 MSTORE PUSH1 0x20 ADD PUSH0 KECCAK256 PUSH0 DUP5 PUSH20 0xFFFFFFFFFFFFFFFFFFFFFFFFFFFFFFFFFFFFFFFF AND PUSH20 0xFFFFFFFFFFFFFFFFFFFFFFFFFFFFFFFFFFFFFFFF AND DUP2 MSTORE PUSH1 0x20 ADD SWAP1 DUP2 MSTORE PUSH1 0x20 ADD PUSH0 KECCAK256 PUSH0 PUSH2 0x100 EXP DUP2 SLOAD DUP2 PUSH1 0xFF MUL NOT AND SWAP1 DUP4 ISZERO ISZERO MUL OR SWAP1 SSTORE POP DUP2 PUSH20 0xFFFFFFFFFFFFFFFFFFFFFFFFFFFFFFFFFFFFFFFF AND DUP4 PUSH20 0xFFFFFFFFFFFFFFFFFFFFFFFFFFFFFFFFFFFFFFFF AND PUSH32 0x17307EAB39AB6107E8899845AD3D59BD9653F200F220920489CA2B5937696C31 DUP4 PUSH1 0x40 MLOAD PUSH2 0x1026 SWAP2 SWAP1 PUSH2 0x1B49 JUMP JUMPDEST PUSH1 0x40 MLOAD DUP1 SWAP2 SUB SWAP1 LOG3 POP POP POP JUMP JUMPDEST PUSH0 PUSH20 0xFFFFFFFFFFFFFFFFFFFFFFFFFFFFFFFFFFFFFFFF AND DUP5 PUSH20 0xFFFFFFFFFFFFFFFFFFFFFFFFFFFFFFFFFFFFFFFF AND SUB PUSH2 0x10A3 JUMPI PUSH0 PUSH1 0x40 MLOAD PUSH32 0x57F447CE00000000000000000000000000000000000000000000000000000000 DUP2 MSTORE PUSH1 0x4 ADD PUSH2 0x109A SWAP2 SWAP1 PUSH2 0x23B3 JUMP JUMPDEST PUSH1 0x40 MLOAD DUP1 SWAP2 SUB SWAP1 REVERT JUMPDEST PUSH0 PUSH20 0xFFFFFFFFFFFFFFFFFFFFFFFFFFFFFFFFFFFFFFFF AND DUP6 PUSH20 0xFFFFFFFFFFFFFFFFFFFFFFFFFFFFFFFFFFFFFFFF AND SUB PUSH2 0x1113 JUMPI PUSH0 PUSH1 0x40 MLOAD PUSH32 0x1A8351400000000000000000000000000000000000000000000000000000000 DUP2 MSTORE PUSH1 0x4 ADD PUSH2 0x110A SWAP2 SWAP1 PUSH2 0x23B3 JUMP JUMPDEST PUSH1 0x40 MLOAD DUP1 SWAP2 SUB SWAP1 REVERT JUMPDEST PUSH0 DUP1 PUSH2 0x111F DUP6 DUP6 PUSH2 0x1287 JUMP JUMPDEST SWAP2 POP SWAP2 POP PUSH2 0x1130 DUP8 DUP8 DUP5 DUP5 DUP8 PUSH2 0x11DB JUMP JUMPDEST POP POP POP POP POP POP POP JUMP JUMPDEST PUSH0 PUSH20 0xFFFFFFFFFFFFFFFFFFFFFFFFFFFFFFFFFFFFFFFF AND DUP4 PUSH20 0xFFFFFFFFFFFFFFFFFFFFFFFFFFFFFFFFFFFFFFFF AND SUB PUSH2 0x11A9 JUMPI PUSH0 PUSH1 0x40 MLOAD PUSH32 0x1A8351400000000000000000000000000000000000000000000000000000000 DUP2 MSTORE PUSH1 0x4 ADD PUSH2 0x11A0 SWAP2 SWAP1 PUSH2 0x23B3 JUMP JUMPDEST PUSH1 0x40 MLOAD DUP1 SWAP2 SUB SWAP1 REVERT JUMPDEST PUSH0 DUP1 PUSH2 0x11B5 DUP5 DUP5 PUSH2 0x1287 JUMP JUMPDEST SWAP2 POP SWAP2 POP PUSH2 0x11D4 DUP6 PUSH0 DUP5 DUP5 PUSH1 0x40 MLOAD DUP1 PUSH1 0x20 ADD PUSH1 0x40 MSTORE DUP1 PUSH0 DUP2 MSTORE POP PUSH2 0x11DB JUMP JUMPDEST POP POP POP POP POP JUMP JUMPDEST PUSH2 0x11E7 DUP6 DUP6 DUP6 DUP6 PUSH2 0x12B7 JUMP JUMPDEST PUSH0 PUSH20 0xFFFFFFFFFFFFFFFFFFFFFFFFFFFFFFFFFFFFFFFF AND DUP5 PUSH20 0xFFFFFFFFFFFFFFFFFFFFFFFFFFFFFFFFFFFFFFFF AND EQ PUSH2 0x1280 JUMPI PUSH0 PUSH2 0x1223 PUSH2 0xBC1 JUMP JUMPDEST SWAP1 POP PUSH1 0x1 DUP5 MLOAD SUB PUSH2 0x126F JUMPI PUSH0 PUSH2 0x1242 PUSH0 DUP7 PUSH2 0xCCF SWAP1 SWAP2 SWAP1 PUSH4 0xFFFFFFFF AND JUMP JUMPDEST SWAP1 POP PUSH0 PUSH2 0x1258 PUSH0 DUP7 PUSH2 0xCCF SWAP1 SWAP2 SWAP1 PUSH4 0xFFFFFFFF AND JUMP JUMPDEST SWAP1 POP PUSH2 0x1268 DUP4 DUP10 DUP10 DUP6 DUP6 DUP10 PUSH2 0x164D JUMP JUMPDEST POP POP PUSH2 0x127E JUMP JUMPDEST PUSH2 0x127D DUP2 DUP8 DUP8 DUP8 DUP8 DUP8 PUSH2 0x17FC JUMP JUMPDEST JUMPDEST POP JUMPDEST POP POP POP POP POP JUMP JUMPDEST PUSH1 0x60 DUP1 PUSH1 0x40 MLOAD SWAP2 POP PUSH1 0x1 DUP3 MSTORE DUP4 PUSH1 0x20 DUP4 ADD MSTORE PUSH1 0x40 DUP3 ADD SWAP1 POP PUSH1 0x1 DUP2 MSTORE DUP3 PUSH1 0x20 DUP3 ADD MSTORE PUSH1 0x40 DUP2 ADD PUSH1 0x40 MSTORE SWAP3 POP SWAP3 SWAP1 POP JUMP JUMPDEST DUP1 MLOAD DUP3 MLOAD EQ PUSH2 0x1301 JUMPI DUP2 MLOAD DUP2 MLOAD PUSH1 0x40 MLOAD PUSH32 0x5B05999100000000000000000000000000000000000000000000000000000000 DUP2 MSTORE PUSH1 0x4 ADD PUSH2 0x12F8 SWAP3 SWAP2 SWAP1 PUSH2 0x2604 JUMP JUMPDEST PUSH1 0x40 MLOAD DUP1 SWAP2 SUB SWAP1 REVERT JUMPDEST PUSH0 PUSH2 0x130A PUSH2 0xBC1 JUMP JUMPDEST SWAP1 POP PUSH0 JUMPDEST DUP4 MLOAD DUP2 LT ISZERO PUSH2 0x150C JUMPI PUSH0 PUSH2 0x132B DUP3 DUP7 PUSH2 0xCCF SWAP1 SWAP2 SWAP1 PUSH4 0xFFFFFFFF AND JUMP JUMPDEST SWAP1 POP PUSH0 PUSH2 0x1341 DUP4 DUP7 PUSH2 0xCCF SWAP1 SWAP2 SWAP1 PUSH4 0xFFFFFFFF AND JUMP JUMPDEST SWAP1 POP PUSH0 PUSH20 0xFFFFFFFFFFFFFFFFFFFFFFFFFFFFFFFFFFFFFFFF AND DUP9 PUSH20 0xFFFFFFFFFFFFFFFFFFFFFFFFFFFFFFFFFFFFFFFF AND EQ PUSH2 0x1464 JUMPI PUSH0 DUP1 PUSH0 DUP5 DUP2 MSTORE PUSH1 0x20 ADD SWAP1 DUP2 MSTORE PUSH1 0x20 ADD PUSH0 KECCAK256 PUSH0 DUP11 PUSH20 0xFFFFFFFFFFFFFFFFFFFFFFFFFFFFFFFFFFFFFFFF AND PUSH20 0xFFFFFFFFFFFFFFFFFFFFFFFFFFFFFFFFFFFFFFFF AND DUP2 MSTORE PUSH1 0x20 ADD SWAP1 DUP2 MSTORE PUSH1 0x20 ADD PUSH0 KECCAK256 SLOAD SWAP1 POP DUP2 DUP2 LT ISZERO PUSH2 0x1410 JUMPI DUP9 DUP2 DUP4 DUP6 PUSH1 0x40 MLOAD PUSH32 0x3DEE4C500000000000000000000000000000000000000000000000000000000 DUP2 MSTORE PUSH1 0x4 ADD PUSH2 0x1407 SWAP5 SWAP4 SWAP3 SWAP2 SWAP1 PUSH2 0x2938 JUMP JUMPDEST PUSH1 0x40 MLOAD DUP1 SWAP2 SUB SWAP1 REVERT JUMPDEST DUP2 DUP2 SUB PUSH0 DUP1 DUP6 DUP2 MSTORE PUSH1 0x20 ADD SWAP1 DUP2 MSTORE PUSH1 0x20 ADD PUSH0 KECCAK256 PUSH0 DUP12 PUSH20 0xFFFFFFFFFFFFFFFFFFFFFFFFFFFFFFFFFFFFFFFF AND PUSH20 0xFFFFFFFFFFFFFFFFFFFFFFFFFFFFFFFFFFFFFFFF AND DUP2 MSTORE PUSH1 0x20 ADD SWAP1 DUP2 MSTORE PUSH1 0x20 ADD PUSH0 KECCAK256 DUP2 SWAP1 SSTORE POP POP JUMPDEST PUSH0 PUSH20 0xFFFFFFFFFFFFFFFFFFFFFFFFFFFFFFFFFFFFFFFF AND DUP8 PUSH20 0xFFFFFFFFFFFFFFFFFFFFFFFFFFFFFFFFFFFFFFFF AND EQ PUSH2 0x14F9 JUMPI DUP1 PUSH0 DUP1 DUP5 DUP2 MSTORE PUSH1 0x20 ADD SWAP1 DUP2 MSTORE PUSH1 0x20 ADD PUSH0 KECCAK256 PUSH0 DUP10 PUSH20 0xFFFFFFFFFFFFFFFFFFFFFFFFFFFFFFFFFFFFFFFF AND PUSH20 0xFFFFFFFFFFFFFFFFFFFFFFFFFFFFFFFFFFFFFFFF AND DUP2 MSTORE PUSH1 0x20 ADD SWAP1 DUP2 MSTORE PUSH1 0x20 ADD PUSH0 KECCAK256 PUSH0 DUP3 DUP3 SLOAD PUSH2 0x14F1 SWAP2 SWAP1 PUSH2 0x297B JUMP JUMPDEST SWAP3 POP POP DUP2 SWAP1 SSTORE POP JUMPDEST POP POP DUP1 PUSH2 0x1505 SWAP1 PUSH2 0x2685 JUMP JUMPDEST SWAP1 POP PUSH2 0x130E JUMP JUMPDEST POP PUSH1 0x1 DUP4 MLOAD SUB PUSH2 0x15C7 JUMPI PUSH0 PUSH2 0x152A PUSH0 DUP6 PUSH2 0xCCF SWAP1 SWAP2 SWAP1 PUSH4 0xFFFFFFFF AND JUMP JUMPDEST SWAP1 POP PUSH0 PUSH2 0x1540 PUSH0 DUP6 PUSH2 0xCCF SWAP1 SWAP2 SWAP1 PUSH4 0xFFFFFFFF AND JUMP JUMPDEST SWAP1 POP DUP6 PUSH20 0xFFFFFFFFFFFFFFFFFFFFFFFFFFFFFFFFFFFFFFFF AND DUP8 PUSH20 0xFFFFFFFFFFFFFFFFFFFFFFFFFFFFFFFFFFFFFFFF AND DUP5 PUSH20 0xFFFFFFFFFFFFFFFFFFFFFFFFFFFFFFFFFFFFFFFF AND PUSH32 0xC3D58168C5AE7397731D063D5BBF3D657854427343F4C083240F7AACAA2D0F62 DUP6 DUP6 PUSH1 0x40 MLOAD PUSH2 0x15B8 SWAP3 SWAP2 SWAP1 PUSH2 0x2604 JUMP JUMPDEST PUSH1 0x40 MLOAD DUP1 SWAP2 SUB SWAP1 LOG4 POP POP PUSH2 0x1646 JUMP JUMPDEST DUP4 PUSH20 0xFFFFFFFFFFFFFFFFFFFFFFFFFFFFFFFFFFFFFFFF AND DUP6 PUSH20 0xFFFFFFFFFFFFFFFFFFFFFFFFFFFFFFFFFFFFFFFF AND DUP3 PUSH20 0xFFFFFFFFFFFFFFFFFFFFFFFFFFFFFFFFFFFFFFFF AND PUSH32 0x4A39DC06D4C0DBC64B70AF90FD698A233A518AA5D07E595D983B8C0526C8F7FB DUP7 DUP7 PUSH1 0x40 MLOAD PUSH2 0x163D SWAP3 SWAP2 SWAP1 PUSH2 0x29AE JUMP JUMPDEST PUSH1 0x40 MLOAD DUP1 SWAP2 SUB SWAP1 LOG4 JUMPDEST POP POP POP POP POP JUMP JUMPDEST PUSH0 DUP5 PUSH20 0xFFFFFFFFFFFFFFFFFFFFFFFFFFFFFFFFFFFFFFFF AND EXTCODESIZE GT ISZERO PUSH2 0x17F4 JUMPI DUP4 PUSH20 0xFFFFFFFFFFFFFFFFFFFFFFFFFFFFFFFFFFFFFFFF AND PUSH4 0xF23A6E61 DUP8 DUP8 DUP7 DUP7 DUP7 PUSH1 0x40 MLOAD DUP7 PUSH4 0xFFFFFFFF AND PUSH1 0xE0 SHL DUP2 MSTORE PUSH1 0x4 ADD PUSH2 0x16AD SWAP6 SWAP5 SWAP4 SWAP3 SWAP2 SWAP1 PUSH2 0x2A35 JUMP JUMPDEST PUSH1 0x20 PUSH1 0x40 MLOAD DUP1 DUP4 SUB DUP2 PUSH0 DUP8 GAS CALL SWAP3 POP POP POP DUP1 ISZERO PUSH2 0x16E8 JUMPI POP PUSH1 0x40 MLOAD RETURNDATASIZE PUSH1 0x1F NOT PUSH1 0x1F DUP3 ADD AND DUP3 ADD DUP1 PUSH1 0x40 MSTORE POP DUP2 ADD SWAP1 PUSH2 0x16E5 SWAP2 SWAP1 PUSH2 0x2AA1 JUMP JUMPDEST PUSH1 0x1 JUMPDEST PUSH2 0x1769 JUMPI RETURNDATASIZE DUP1 PUSH0 DUP2 EQ PUSH2 0x1716 JUMPI PUSH1 0x40 MLOAD SWAP2 POP PUSH1 0x1F NOT PUSH1 0x3F RETURNDATASIZE ADD AND DUP3 ADD PUSH1 0x40 MSTORE RETURNDATASIZE DUP3 MSTORE RETURNDATASIZE PUSH0 PUSH1 0x20 DUP5 ADD RETURNDATACOPY PUSH2 0x171B JUMP JUMPDEST PUSH1 0x60 SWAP2 POP JUMPDEST POP PUSH0 DUP2 MLOAD SUB PUSH2 0x1761 JUMPI DUP5 PUSH1 0x40 MLOAD PUSH32 0x57F447CE00000000000000000000000000000000000000000000000000000000 DUP2 MSTORE PUSH1 0x4 ADD PUSH2 0x1758 SWAP2 SWAP1 PUSH2 0x23B3 JUMP JUMPDEST PUSH1 0x40 MLOAD DUP1 SWAP2 SUB SWAP1 REVERT JUMPDEST DUP1 MLOAD DUP2 PUSH1 0x20 ADD REVERT JUMPDEST PUSH4 0xF23A6E61 PUSH1 0xE0 SHL PUSH28 0xFFFFFFFFFFFFFFFFFFFFFFFFFFFFFFFFFFFFFFFFFFFFFFFFFFFFFFFF NOT AND DUP2 PUSH28 0xFFFFFFFFFFFFFFFFFFFFFFFFFFFFFFFFFFFFFFFFFFFFFFFFFFFFFFFF NOT AND EQ PUSH2 0x17F2 JUMPI DUP5 PUSH1 0x40 MLOAD PUSH32 0x57F447CE00000000000000000000000000000000000000000000000000000000 DUP2 MSTORE PUSH1 0x4 ADD PUSH2 0x17E9 SWAP2 SWAP1 PUSH2 0x23B3 JUMP JUMPDEST PUSH1 0x40 MLOAD DUP1 SWAP2 SUB SWAP1 REVERT JUMPDEST POP JUMPDEST POP POP POP POP POP POP JUMP JUMPDEST PUSH0 DUP5 PUSH20 0xFFFFFFFFFFFFFFFFFFFFFFFFFFFFFFFFFFFFFFFF AND EXTCODESIZE GT ISZERO PUSH2 0x19A3 JUMPI DUP4 PUSH20 0xFFFFFFFFFFFFFFFFFFFFFFFFFFFFFFFFFFFFFFFF AND PUSH4 0xBC197C81 DUP8 DUP8 DUP7 DUP7 DUP7 PUSH1 0x40 MLOAD DUP7 PUSH4 0xFFFFFFFF AND PUSH1 0xE0 SHL DUP2 MSTORE PUSH1 0x4 ADD PUSH2 0x185C SWAP6 SWAP5 SWAP4 SWAP3 SWAP2 SWAP1 PUSH2 0x2ACC JUMP JUMPDEST PUSH1 0x20 PUSH1 0x40 MLOAD DUP1 DUP4 SUB DUP2 PUSH0 DUP8 GAS CALL SWAP3 POP POP POP DUP1 ISZERO PUSH2 0x1897 JUMPI POP PUSH1 0x40 MLOAD RETURNDATASIZE PUSH1 0x1F NOT PUSH1 0x1F DUP3 ADD AND DUP3 ADD DUP1 PUSH1 0x40 MSTORE POP DUP2 ADD SWAP1 PUSH2 0x1894 SWAP2 SWAP1 PUSH2 0x2AA1 JUMP JUMPDEST PUSH1 0x1 JUMPDEST PUSH2 0x1918 JUMPI RETURNDATASIZE DUP1 PUSH0 DUP2 EQ PUSH2 0x18C5 JUMPI PUSH1 0x40 MLOAD SWAP2 POP PUSH1 0x1F NOT PUSH1 0x3F RETURNDATASIZE ADD AND DUP3 ADD PUSH1 0x40 MSTORE RETURNDATASIZE DUP3 MSTORE RETURNDATASIZE PUSH0 PUSH1 0x20 DUP5 ADD RETURNDATACOPY PUSH2 0x18CA JUMP JUMPDEST PUSH1 0x60 SWAP2 POP JUMPDEST POP PUSH0 DUP2 MLOAD SUB PUSH2 0x1910 JUMPI DUP5 PUSH1 0x40 MLOAD PUSH32 0x57F447CE00000000000000000000000000000000000000000000000000000000 DUP2 MSTORE PUSH1 0x4 ADD PUSH2 0x1907 SWAP2 SWAP1 PUSH2 0x23B3 JUMP JUMPDEST PUSH1 0x40 MLOAD DUP1 SWAP2 SUB SWAP1 REVERT JUMPDEST DUP1 MLOAD DUP2 PUSH1 0x20 ADD REVERT JUMPDEST PUSH4 0xBC197C81 PUSH1 0xE0 SHL PUSH28 0xFFFFFFFFFFFFFFFFFFFFFFFFFFFFFFFFFFFFFFFFFFFFFFFFFFFFFFFF NOT AND DUP2 PUSH28 0xFFFFFFFFFFFFFFFFFFFFFFFFFFFFFFFFFFFFFFFFFFFFFFFFFFFFFFFF NOT AND EQ PUSH2 0x19A1 JUMPI DUP5 PUSH1 0x40 MLOAD PUSH32 0x57F447CE00000000000000000000000000000000000000000000000000000000 DUP2 MSTORE PUSH1 0x4 ADD PUSH2 0x1998 SWAP2 SWAP1 PUSH2 0x23B3 JUMP JUMPDEST PUSH1 0x40 MLOAD DUP1 SWAP2 SUB SWAP1 REVERT JUMPDEST POP JUMPDEST POP POP POP POP POP POP JUMP JUMPDEST PUSH0 PUSH1 0x40 MLOAD SWAP1 POP SWAP1 JUMP JUMPDEST PUSH0 DUP1 REVERT JUMPDEST PUSH0 DUP1 REVERT JUMPDEST PUSH0 PUSH20 0xFFFFFFFFFFFFFFFFFFFFFFFFFFFFFFFFFFFFFFFF DUP3 AND SWAP1 POP SWAP2 SWAP1 POP JUMP JUMPDEST PUSH0 PUSH2 0x19E5 DUP3 PUSH2 0x19BC JUMP JUMPDEST SWAP1 POP SWAP2 SWAP1 POP JUMP JUMPDEST PUSH2 0x19F5 DUP2 PUSH2 0x19DB JUMP JUMPDEST DUP2 EQ PUSH2 0x19FF JUMPI PUSH0 DUP1 REVERT JUMPDEST POP JUMP JUMPDEST PUSH0 DUP2 CALLDATALOAD SWAP1 POP PUSH2 0x1A10 DUP2 PUSH2 0x19EC JUMP JUMPDEST SWAP3 SWAP2 POP POP JUMP JUMPDEST PUSH0 DUP2 SWAP1 POP SWAP2 SWAP1 POP JUMP JUMPDEST PUSH2 0x1A28 DUP2 PUSH2 0x1A16 JUMP JUMPDEST DUP2 EQ PUSH2 0x1A32 JUMPI PUSH0 DUP1 REVERT JUMPDEST POP JUMP JUMPDEST PUSH0 DUP2 CALLDATALOAD SWAP1 POP PUSH2 0x1A43 DUP2 PUSH2 0x1A1F JUMP JUMPDEST SWAP3 SWAP2 POP POP JUMP JUMPDEST PUSH0 DUP1 PUSH1 0x40 DUP4 DUP6 SUB SLT ISZERO PUSH2 0x1A5F JUMPI PUSH2 0x1A5E PUSH2 0x19B4 JUMP JUMPDEST JUMPDEST PUSH0 PUSH2 0x1A6C DUP6 DUP3 DUP7 ADD PUSH2 0x1A02 JUMP JUMPDEST SWAP3 POP POP PUSH1 0x20 PUSH2 0x1A7D DUP6 DUP3 DUP7 ADD PUSH2 0x1A35 JUMP JUMPDEST SWAP2 POP POP SWAP3 POP SWAP3 SWAP1 POP JUMP JUMPDEST PUSH2 0x1A90 DUP2 PUSH2 0x1A16 JUMP JUMPDEST DUP3 MSTORE POP POP JUMP JUMPDEST PUSH0 PUSH1 0x20 DUP3 ADD SWAP1 POP PUSH2 0x1AA9 PUSH0 DUP4 ADD DUP5 PUSH2 0x1A87 JUMP JUMPDEST SWAP3 SWAP2 POP POP JUMP JUMPDEST PUSH0 PUSH32 0xFFFFFFFF00000000000000000000000000000000000000000000000000000000 DUP3 AND SWAP1 POP SWAP2 SWAP1 POP JUMP JUMPDEST PUSH2 0x1AE3 DUP2 PUSH2 0x1AAF JUMP JUMPDEST DUP2 EQ PUSH2 0x1AED JUMPI PUSH0 DUP1 REVERT JUMPDEST POP JUMP JUMPDEST PUSH0 DUP2 CALLDATALOAD SWAP1 POP PUSH2 0x1AFE DUP2 PUSH2 0x1ADA JUMP JUMPDEST SWAP3 SWAP2 POP POP JUMP JUMPDEST PUSH0 PUSH1 0x20 DUP3 DUP5 SUB SLT ISZERO PUSH2 0x1B19 JUMPI PUSH2 0x1B18 PUSH2 0x19B4 JUMP JUMPDEST JUMPDEST PUSH0 PUSH2 0x1B26 DUP5 DUP3 DUP6 ADD PUSH2 0x1AF0 JUMP JUMPDEST SWAP2 POP POP SWAP3 SWAP2 POP POP JUMP JUMPDEST PUSH0 DUP2 ISZERO ISZERO SWAP1 POP SWAP2 SWAP1 POP JUMP JUMPDEST PUSH2 0x1B43 DUP2 PUSH2 0x1B2F JUMP JUMPDEST DUP3 MSTORE POP POP JUMP JUMPDEST PUSH0 PUSH1 0x20 DUP3 ADD SWAP1 POP PUSH2 0x1B5C PUSH0 DUP4 ADD DUP5 PUSH2 0x1B3A JUMP JUMPDEST SWAP3 SWAP2 POP POP JUMP JUMPDEST PUSH0 DUP1 REVERT JUMPDEST PUSH0 DUP1 REVERT JUMPDEST PUSH0 PUSH1 0x1F NOT PUSH1 0x1F DUP4 ADD AND SWAP1 POP SWAP2 SWAP1 POP JUMP JUMPDEST PUSH32 0x4E487B7100000000000000000000000000000000000000000000000000000000 PUSH0 MSTORE PUSH1 0x41 PUSH1 0x4 MSTORE PUSH1 0x24 PUSH0 REVERT JUMPDEST PUSH2 0x1BB0 DUP3 PUSH2 0x1B6A JUMP JUMPDEST DUP2 ADD DUP2 DUP2 LT PUSH8 0xFFFFFFFFFFFFFFFF DUP3 GT OR ISZERO PUSH2 0x1BCF JUMPI PUSH2 0x1BCE PUSH2 0x1B7A JUMP JUMPDEST JUMPDEST DUP1 PUSH1 0x40 MSTORE POP POP POP JUMP JUMPDEST PUSH0 PUSH2 0x1BE1 PUSH2 0x19AB JUMP JUMPDEST SWAP1 POP PUSH2 0x1BED DUP3 DUP3 PUSH2 0x1BA7 JUMP JUMPDEST SWAP2 SWAP1 POP JUMP JUMPDEST PUSH0 PUSH8 0xFFFFFFFFFFFFFFFF DUP3 GT ISZERO PUSH2 0x1C0C JUMPI PUSH2 0x1C0B PUSH2 0x1B7A JUMP JUMPDEST JUMPDEST PUSH2 0x1C15 DUP3 PUSH2 0x1B6A JUMP JUMPDEST SWAP1 POP PUSH1 0x20 DUP2 ADD SWAP1 POP SWAP2 SWAP1 POP JUMP JUMPDEST DUP3 DUP2 DUP4 CALLDATACOPY PUSH0 DUP4 DUP4 ADD MSTORE POP POP POP JUMP JUMPDEST PUSH0 PUSH2 0x1C42 PUSH2 0x1C3D DUP5 PUSH2 0x1BF2 JUMP JUMPDEST PUSH2 0x1BD8 JUMP JUMPDEST SWAP1 POP DUP3 DUP2 MSTORE PUSH1 0x20 DUP2 ADD DUP5 DUP5 DUP5 ADD GT ISZERO PUSH2 0x1C5E JUMPI PUSH2 0x1C5D PUSH2 0x1B66 JUMP JUMPDEST JUMPDEST PUSH2 0x1C69 DUP5 DUP3 DUP6 PUSH2 0x1C22 JUMP JUMPDEST POP SWAP4 SWAP3 POP POP POP JUMP JUMPDEST PUSH0 DUP3 PUSH1 0x1F DUP4 ADD SLT PUSH2 0x1C85 JUMPI PUSH2 0x1C84 PUSH2 0x1B62 JUMP JUMPDEST JUMPDEST DUP2 CALLDATALOAD PUSH2 0x1C95 DUP5 DUP3 PUSH1 0x20 DUP7 ADD PUSH2 0x1C30 JUMP JUMPDEST SWAP2 POP POP SWAP3 SWAP2 POP POP JUMP JUMPDEST PUSH0 PUSH1 0x20 DUP3 DUP5 SUB SLT ISZERO PUSH2 0x1CB3 JUMPI PUSH2 0x1CB2 PUSH2 0x19B4 JUMP JUMPDEST JUMPDEST PUSH0 DUP3 ADD CALLDATALOAD PUSH8 0xFFFFFFFFFFFFFFFF DUP2 GT ISZERO PUSH2 0x1CD0 JUMPI PUSH2 0x1CCF PUSH2 0x19B8 JUMP JUMPDEST JUMPDEST PUSH2 0x1CDC DUP5 DUP3 DUP6 ADD PUSH2 0x1C71 JUMP JUMPDEST SWAP2 POP POP SWAP3 SWAP2 POP POP JUMP JUMPDEST PUSH0 PUSH1 0x20 DUP3 DUP5 SUB SLT ISZERO PUSH2 0x1CFA JUMPI PUSH2 0x1CF9 PUSH2 0x19B4 JUMP JUMPDEST JUMPDEST PUSH0 PUSH2 0x1D07 DUP5 DUP3 DUP6 ADD PUSH2 0x1A35 JUMP JUMPDEST SWAP2 POP POP SWAP3 SWAP2 POP POP JUMP JUMPDEST PUSH0 DUP2 MLOAD SWAP1 POP SWAP2 SWAP1 POP JUMP JUMPDEST PUSH0 DUP3 DUP3 MSTORE PUSH1 0x20 DUP3 ADD SWAP1 POP SWAP3 SWAP2 POP POP JUMP JUMPDEST PUSH0 JUMPDEST DUP4 DUP2 LT ISZERO PUSH2 0x1D47 JUMPI DUP1 DUP3 ADD MLOAD DUP2 DUP5 ADD MSTORE PUSH1 0x20 DUP2 ADD SWAP1 POP PUSH2 0x1D2C JUMP JUMPDEST PUSH0 DUP5 DUP5 ADD MSTORE POP POP POP POP JUMP JUMPDEST PUSH0 PUSH2 0x1D5C DUP3 PUSH2 0x1D10 JUMP JUMPDEST PUSH2 0x1D66 DUP2 DUP6 PUSH2 0x1D1A JUMP JUMPDEST SWAP4 POP PUSH2 0x1D76 DUP2 DUP6 PUSH1 0x20 DUP7 ADD PUSH2 0x1D2A JUMP JUMPDEST PUSH2 0x1D7F DUP2 PUSH2 0x1B6A JUMP JUMPDEST DUP5 ADD SWAP2 POP POP SWAP3 SWAP2 POP POP JUMP JUMPDEST PUSH0 PUSH1 0x20 DUP3 ADD SWAP1 POP DUP2 DUP2 SUB PUSH0 DUP4 ADD MSTORE PUSH2 0x1DA2 DUP2 DUP5 PUSH2 0x1D52 JUMP JUMPDEST SWAP1 POP SWAP3 SWAP2 POP POP JUMP JUMPDEST PUSH0 PUSH8 0xFFFFFFFFFFFFFFFF DUP3 GT ISZERO PUSH2 0x1DC4 JUMPI PUSH2 0x1DC3 PUSH2 0x1B7A JUMP JUMPDEST JUMPDEST PUSH1 0x20 DUP3 MUL SWAP1 POP PUSH1 0x20 DUP2 ADD SWAP1 POP SWAP2 SWAP1 POP JUMP JUMPDEST PUSH0 DUP1 REVERT JUMPDEST PUSH0 PUSH2 0x1DEB PUSH2 0x1DE6 DUP5 PUSH2 0x1DAA JUMP JUMPDEST PUSH2 0x1BD8 JUMP JUMPDEST SWAP1 POP DUP1 DUP4 DUP3 MSTORE PUSH1 0x20 DUP3 ADD SWAP1 POP PUSH1 0x20 DUP5 MUL DUP4 ADD DUP6 DUP2 GT ISZERO PUSH2 0x1E0E JUMPI PUSH2 0x1E0D PUSH2 0x1DD5 JUMP JUMPDEST JUMPDEST DUP4 JUMPDEST DUP2 DUP2 LT ISZERO PUSH2 0x1E37 JUMPI DUP1 PUSH2 0x1E23 DUP9 DUP3 PUSH2 0x1A35 JUMP JUMPDEST DUP5 MSTORE PUSH1 0x20 DUP5 ADD SWAP4 POP POP PUSH1 0x20 DUP2 ADD SWAP1 POP PUSH2 0x1E10 JUMP JUMPDEST POP POP POP SWAP4 SWAP3 POP POP POP JUMP JUMPDEST PUSH0 DUP3 PUSH1 0x1F DUP4 ADD SLT PUSH2 0x1E55 JUMPI PUSH2 0x1E54 PUSH2 0x1B62 JUMP JUMPDEST JUMPDEST DUP2 CALLDATALOAD PUSH2 0x1E65 DUP5 DUP3 PUSH1 0x20 DUP7 ADD PUSH2 0x1DD9 JUMP JUMPDEST SWAP2 POP POP SWAP3 SWAP2 POP POP JUMP JUMPDEST PUSH0 PUSH8 0xFFFFFFFFFFFFFFFF DUP3 GT ISZERO PUSH2 0x1E88 JUMPI PUSH2 0x1E87 PUSH2 0x1B7A JUMP JUMPDEST JUMPDEST PUSH2 0x1E91 DUP3 PUSH2 0x1B6A JUMP JUMPDEST SWAP1 POP PUSH1 0x20 DUP2 ADD SWAP1 POP SWAP2 SWAP1 POP JUMP JUMPDEST PUSH0 PUSH2 0x1EB0 PUSH2 0x1EAB DUP5 PUSH2 0x1E6E JUMP JUMPDEST PUSH2 0x1BD8 JUMP JUMPDEST SWAP1 POP DUP3 DUP2 MSTORE PUSH1 0x20 DUP2 ADD DUP5 DUP5 DUP5 ADD GT ISZERO PUSH2 0x1ECC JUMPI PUSH2 0x1ECB PUSH2 0x1B66 JUMP JUMPDEST JUMPDEST PUSH2 0x1ED7 DUP5 DUP3 DUP6 PUSH2 0x1C22 JUMP JUMPDEST POP SWAP4 SWAP3 POP POP POP JUMP JUMPDEST PUSH0 DUP3 PUSH1 0x1F DUP4 ADD SLT PUSH2 0x1EF3 JUMPI PUSH2 0x1EF2 PUSH2 0x1B62 JUMP JUMPDEST JUMPDEST DUP2 CALLDATALOAD PUSH2 0x1F03 DUP5 DUP3 PUSH1 0x20 DUP7 ADD PUSH2 0x1E9E JUMP JUMPDEST SWAP2 POP POP SWAP3 SWAP2 POP POP JUMP JUMPDEST PUSH0 DUP1 PUSH0 DUP1 PUSH1 0x80 DUP6 DUP8 SUB SLT ISZERO PUSH2 0x1F24 JUMPI PUSH2 0x1F23 PUSH2 0x19B4 JUMP JUMPDEST JUMPDEST PUSH0 PUSH2 0x1F31 DUP8 DUP3 DUP9 ADD PUSH2 0x1A02 JUMP JUMPDEST SWAP5 POP POP PUSH1 0x20 DUP6 ADD CALLDATALOAD PUSH8 0xFFFFFFFFFFFFFFFF DUP2 GT ISZERO PUSH2 0x1F52 JUMPI PUSH2 0x1F51 PUSH2 0x19B8 JUMP JUMPDEST JUMPDEST PUSH2 0x1F5E DUP8 DUP3 DUP9 ADD PUSH2 0x1E41 JUMP JUMPDEST SWAP4 POP POP PUSH1 0x40 DUP6 ADD CALLDATALOAD PUSH8 0xFFFFFFFFFFFFFFFF DUP2 GT ISZERO PUSH2 0x1F7F JUMPI PUSH2 0x1F7E PUSH2 0x19B8 JUMP JUMPDEST JUMPDEST PUSH2 0x1F8B DUP8 DUP3 DUP9 ADD PUSH2 0x1E41 JUMP JUMPDEST SWAP3 POP POP PUSH1 0x60 DUP6 ADD CALLDATALOAD PUSH8 0xFFFFFFFFFFFFFFFF DUP2 GT ISZERO PUSH2 0x1FAC JUMPI PUSH2 0x1FAB PUSH2 0x19B8 JUMP JUMPDEST JUMPDEST PUSH2 0x1FB8 DUP8 DUP3 DUP9 ADD PUSH2 0x1EDF JUMP JUMPDEST SWAP2 POP POP SWAP3 SWAP6 SWAP2 SWAP5 POP SWAP3 POP JUMP JUMPDEST PUSH0 DUP1 PUSH0 DUP1 PUSH0 PUSH1 0xA0 DUP7 DUP9 SUB SLT ISZERO PUSH2 0x1FDD JUMPI PUSH2 0x1FDC PUSH2 0x19B4 JUMP JUMPDEST JUMPDEST PUSH0 PUSH2 0x1FEA DUP9 DUP3 DUP10 ADD PUSH2 0x1A02 JUMP JUMPDEST SWAP6 POP POP PUSH1 0x20 PUSH2 0x1FFB DUP9 DUP3 DUP10 ADD PUSH2 0x1A02 JUMP JUMPDEST SWAP5 POP POP PUSH1 0x40 DUP7 ADD CALLDATALOAD PUSH8 0xFFFFFFFFFFFFFFFF DUP2 GT ISZERO PUSH2 0x201C JUMPI PUSH2 0x201B PUSH2 0x19B8 JUMP JUMPDEST JUMPDEST PUSH2 0x2028 DUP9 DUP3 DUP10 ADD PUSH2 0x1E41 JUMP JUMPDEST SWAP4 POP POP PUSH1 0x60 DUP7 ADD CALLDATALOAD PUSH8 0xFFFFFFFFFFFFFFFF DUP2 GT ISZERO PUSH2 0x2049 JUMPI PUSH2 0x2048 PUSH2 0x19B8 JUMP JUMPDEST JUMPDEST PUSH2 0x2055 DUP9 DUP3 DUP10 ADD PUSH2 0x1E41 JUMP JUMPDEST SWAP3 POP POP PUSH1 0x80 DUP7 ADD CALLDATALOAD PUSH8 0xFFFFFFFFFFFFFFFF DUP2 GT ISZERO PUSH2 0x2076 JUMPI PUSH2 0x2075 PUSH2 0x19B8 JUMP JUMPDEST JUMPDEST PUSH2 0x2082 DUP9 DUP3 DUP10 ADD PUSH2 0x1EDF JUMP JUMPDEST SWAP2 POP POP SWAP3 SWAP6 POP SWAP3 SWAP6 SWAP1 SWAP4 POP JUMP JUMPDEST PUSH0 PUSH8 0xFFFFFFFFFFFFFFFF DUP3 GT ISZERO PUSH2 0x20A9 JUMPI PUSH2 0x20A8 PUSH2 0x1B7A JUMP JUMPDEST JUMPDEST PUSH1 0x20 DUP3 MUL SWAP1 POP PUSH1 0x20 DUP2 ADD SWAP1 POP SWAP2 SWAP1 POP JUMP JUMPDEST PUSH0 PUSH2 0x20CC PUSH2 0x20C7 DUP5 PUSH2 0x208F JUMP JUMPDEST PUSH2 0x1BD8 JUMP JUMPDEST SWAP1 POP DUP1 DUP4 DUP3 MSTORE PUSH1 0x20 DUP3 ADD SWAP1 POP PUSH1 0x20 DUP5 MUL DUP4 ADD DUP6 DUP2 GT ISZERO PUSH2 0x20EF JUMPI PUSH2 0x20EE PUSH2 0x1DD5 JUMP JUMPDEST JUMPDEST DUP4 JUMPDEST DUP2 DUP2 LT ISZERO PUSH2 0x2118 JUMPI DUP1 PUSH2 0x2104 DUP9 DUP3 PUSH2 0x1A02 JUMP JUMPDEST DUP5 MSTORE PUSH1 0x20 DUP5 ADD SWAP4 POP POP PUSH1 0x20 DUP2 ADD SWAP1 POP PUSH2 0x20F1 JUMP JUMPDEST POP POP POP SWAP4 SWAP3 POP POP POP JUMP JUMPDEST PUSH0 DUP3 PUSH1 0x1F DUP4 ADD SLT PUSH2 0x2136 JUMPI PUSH2 0x2135 PUSH2 0x1B62 JUMP JUMPDEST JUMPDEST DUP2 CALLDATALOAD PUSH2 0x2146 DUP5 DUP3 PUSH1 0x20 DUP7 ADD PUSH2 0x20BA JUMP JUMPDEST SWAP2 POP POP SWAP3 SWAP2 POP POP JUMP JUMPDEST PUSH0 DUP1 PUSH1 0x40 DUP4 DUP6 SUB SLT ISZERO PUSH2 0x2165 JUMPI PUSH2 0x2164 PUSH2 0x19B4 JUMP JUMPDEST JUMPDEST PUSH0 DUP4 ADD CALLDATALOAD PUSH8 0xFFFFFFFFFFFFFFFF DUP2 GT ISZERO PUSH2 0x2182 JUMPI PUSH2 0x2181 PUSH2 0x19B8 JUMP JUMPDEST JUMPDEST PUSH2 0x218E DUP6 DUP3 DUP7 ADD PUSH2 0x2122 JUMP JUMPDEST SWAP3 POP POP PUSH1 0x20 DUP4 ADD CALLDATALOAD PUSH8 0xFFFFFFFFFFFFFFFF DUP2 GT ISZERO PUSH2 0x21AF JUMPI PUSH2 0x21AE PUSH2 0x19B8 JUMP JUMPDEST JUMPDEST PUSH2 0x21BB DUP6 DUP3 DUP7 ADD PUSH2 0x1E41 JUMP JUMPDEST SWAP2 POP POP SWAP3 POP SWAP3 SWAP1 POP JUMP JUMPDEST PUSH0 DUP2 MLOAD SWAP1 POP SWAP2 SWAP1 POP JUMP JUMPDEST PUSH0 DUP3 DUP3 MSTORE PUSH1 0x20 DUP3 ADD SWAP1 POP SWAP3 SWAP2 POP POP JUMP JUMPDEST PUSH0 DUP2 SWAP1 POP PUSH1 0x20 DUP3 ADD SWAP1 POP SWAP2 SWAP1 POP JUMP JUMPDEST PUSH2 0x21F7 DUP2 PUSH2 0x1A16 JUMP JUMPDEST DUP3 MSTORE POP POP JUMP JUMPDEST PUSH0 PUSH2 0x2208 DUP4 DUP4 PUSH2 0x21EE JUMP JUMPDEST PUSH1 0x20 DUP4 ADD SWAP1 POP SWAP3 SWAP2 POP POP JUMP JUMPDEST PUSH0 PUSH1 0x20 DUP3 ADD SWAP1 POP SWAP2 SWAP1 POP JUMP JUMPDEST PUSH0 PUSH2 0x222A DUP3 PUSH2 0x21C5 JUMP JUMPDEST PUSH2 0x2234 DUP2 DUP6 PUSH2 0x21CF JUMP JUMPDEST SWAP4 POP PUSH2 0x223F DUP4 PUSH2 0x21DF JUMP JUMPDEST DUP1 PUSH0 JUMPDEST DUP4 DUP2 LT ISZERO PUSH2 0x226F JUMPI DUP2 MLOAD PUSH2 0x2256 DUP9 DUP3 PUSH2 0x21FD JUMP JUMPDEST SWAP8 POP PUSH2 0x2261 DUP4 PUSH2 0x2214 JUMP JUMPDEST SWAP3 POP POP PUSH1 0x1 DUP2 ADD SWAP1 POP PUSH2 0x2242 JUMP JUMPDEST POP DUP6 SWAP4 POP POP POP POP SWAP3 SWAP2 POP POP JUMP JUMPDEST PUSH0 PUSH1 0x20 DUP3 ADD SWAP1 POP DUP2 DUP2 SUB PUSH0 DUP4 ADD MSTORE PUSH2 0x2294 DUP2 DUP5 PUSH2 0x2220 JUMP JUMPDEST SWAP1 POP SWAP3 SWAP2 POP POP JUMP JUMPDEST PUSH0 DUP1 PUSH0 PUSH1 0x60 DUP5 DUP7 SUB SLT ISZERO PUSH2 0x22B3 JUMPI PUSH2 0x22B2 PUSH2 0x19B4 JUMP JUMPDEST JUMPDEST PUSH0 PUSH2 0x22C0 DUP7 DUP3 DUP8 ADD PUSH2 0x1A02 JUMP JUMPDEST SWAP4 POP POP PUSH1 0x20 DUP5 ADD CALLDATALOAD PUSH8 0xFFFFFFFFFFFFFFFF DUP2 GT ISZERO PUSH2 0x22E1 JUMPI PUSH2 0x22E0 PUSH2 0x19B8 JUMP JUMPDEST JUMPDEST PUSH2 0x22ED DUP7 DUP3 DUP8 ADD PUSH2 0x1E41 JUMP JUMPDEST SWAP3 POP POP PUSH1 0x40 DUP5 ADD CALLDATALOAD PUSH8 0xFFFFFFFFFFFFFFFF DUP2 GT ISZERO PUSH2 0x230E JUMPI PUSH2 0x230D PUSH2 0x19B8 JUMP JUMPDEST JUMPDEST PUSH2 0x231A DUP7 DUP3 DUP8 ADD PUSH2 0x1E41 JUMP JUMPDEST SWAP2 POP POP SWAP3 POP SWAP3 POP SWAP3 JUMP JUMPDEST PUSH0 DUP1 PUSH0 DUP1 PUSH1 0x80 DUP6 DUP8 SUB SLT ISZERO PUSH2 0x233C JUMPI PUSH2 0x233B PUSH2 0x19B4 JUMP JUMPDEST JUMPDEST PUSH0 PUSH2 0x2349 DUP8 DUP3 DUP9 ADD PUSH2 0x1A02 JUMP JUMPDEST SWAP5 POP POP PUSH1 0x20 PUSH2 0x235A DUP8 DUP3 DUP9 ADD PUSH2 0x1A35 JUMP JUMPDEST SWAP4 POP POP PUSH1 0x40 PUSH2 0x236B DUP8 DUP3 DUP9 ADD PUSH2 0x1A35 JUMP JUMPDEST SWAP3 POP POP PUSH1 0x60 DUP6 ADD CALLDATALOAD PUSH8 0xFFFFFFFFFFFFFFFF DUP2 GT ISZERO PUSH2 0x238C JUMPI PUSH2 0x238B PUSH2 0x19B8 JUMP JUMPDEST JUMPDEST PUSH2 0x2398 DUP8 DUP3 DUP9 ADD PUSH2 0x1EDF JUMP JUMPDEST SWAP2 POP POP SWAP3 SWAP6 SWAP2 SWAP5 POP SWAP3 POP JUMP JUMPDEST PUSH2 0x23AD DUP2 PUSH2 0x19DB JUMP JUMPDEST DUP3 MSTORE POP POP JUMP JUMPDEST PUSH0 PUSH1 0x20 DUP3 ADD SWAP1 POP PUSH2 0x23C6 PUSH0 DUP4 ADD DUP5 PUSH2 0x23A4 JUMP JUMPDEST SWAP3 SWAP2 POP POP JUMP JUMPDEST PUSH2 0x23D5 DUP2 PUSH2 0x1B2F JUMP JUMPDEST DUP2 EQ PUSH2 0x23DF JUMPI PUSH0 DUP1 REVERT JUMPDEST POP JUMP JUMPDEST PUSH0 DUP2 CALLDATALOAD SWAP1 POP PUSH2 0x23F0 DUP2 PUSH2 0x23CC JUMP JUMPDEST SWAP3 SWAP2 POP POP JUMP JUMPDEST PUSH0 DUP1 PUSH1 0x40 DUP4 DUP6 SUB SLT ISZERO PUSH2 0x240C JUMPI PUSH2 0x240B PUSH2 0x19B4 JUMP JUMPDEST JUMPDEST PUSH0 PUSH2 0x2419 DUP6 DUP3 DUP7 ADD PUSH2 0x1A02 JUMP JUMPDEST SWAP3 POP POP PUSH1 0x20 PUSH2 0x242A DUP6 DUP3 DUP7 ADD PUSH2 0x23E2 JUMP JUMPDEST SWAP2 POP POP SWAP3 POP SWAP3 SWAP1 POP JUMP JUMPDEST PUSH0 DUP1 PUSH1 0x40 DUP4 DUP6 SUB SLT ISZERO PUSH2 0x244A JUMPI PUSH2 0x2449 PUSH2 0x19B4 JUMP JUMPDEST JUMPDEST PUSH0 PUSH2 0x2457 DUP6 DUP3 DUP7 ADD PUSH2 0x1A02 JUMP JUMPDEST SWAP3 POP POP PUSH1 0x20 PUSH2 0x2468 DUP6 DUP3 DUP7 ADD PUSH2 0x1A02 JUMP JUMPDEST SWAP2 POP POP SWAP3 POP SWAP3 SWAP1 POP JUMP JUMPDEST PUSH0 DUP1 PUSH0 DUP1 PUSH0 PUSH1 0xA0 DUP7 DUP9 SUB SLT ISZERO PUSH2 0x248B JUMPI PUSH2 0x248A PUSH2 0x19B4 JUMP JUMPDEST JUMPDEST PUSH0 PUSH2 0x2498 DUP9 DUP3 DUP10 ADD PUSH2 0x1A02 JUMP JUMPDEST SWAP6 POP POP PUSH1 0x20 PUSH2 0x24A9 DUP9 DUP3 DUP10 ADD PUSH2 0x1A02 JUMP JUMPDEST SWAP5 POP POP PUSH1 0x40 PUSH2 0x24BA DUP9 DUP3 DUP10 ADD PUSH2 0x1A35 JUMP JUMPDEST SWAP4 POP POP PUSH1 0x60 PUSH2 0x24CB DUP9 DUP3 DUP10 ADD PUSH2 0x1A35 JUMP JUMPDEST SWAP3 POP POP PUSH1 0x80 DUP7 ADD CALLDATALOAD PUSH8 0xFFFFFFFFFFFFFFFF DUP2 GT ISZERO PUSH2 0x24EC JUMPI PUSH2 0x24EB PUSH2 0x19B8 JUMP JUMPDEST JUMPDEST PUSH2 0x24F8 DUP9 DUP3 DUP10 ADD PUSH2 0x1EDF JUMP JUMPDEST SWAP2 POP POP SWAP3 SWAP6 POP SWAP3 SWAP6 SWAP1 SWAP4 POP JUMP JUMPDEST PUSH0 PUSH1 0x20 DUP3 DUP5 SUB SLT ISZERO PUSH2 0x251A JUMPI PUSH2 0x2519 PUSH2 0x19B4 JUMP JUMPDEST JUMPDEST PUSH0 PUSH2 0x2527 DUP5 DUP3 DUP6 ADD PUSH2 0x1A02 JUMP JUMPDEST SWAP2 POP POP SWAP3 SWAP2 POP POP JUMP JUMPDEST PUSH0 DUP1 PUSH0 PUSH1 0x60 DUP5 DUP7 SUB SLT ISZERO PUSH2 0x2547 JUMPI PUSH2 0x2546 PUSH2 0x19B4 JUMP JUMPDEST JUMPDEST PUSH0 PUSH2 0x2554 DUP7 DUP3 DUP8 ADD PUSH2 0x1A02 JUMP JUMPDEST SWAP4 POP POP PUSH1 0x20 PUSH2 0x2565 DUP7 DUP3 DUP8 ADD PUSH2 0x1A35 JUMP JUMPDEST SWAP3 POP POP PUSH1 0x40 PUSH2 0x2576 DUP7 DUP3 DUP8 ADD PUSH2 0x1A35 JUMP JUMPDEST SWAP2 POP POP SWAP3 POP SWAP3 POP SWAP3 JUMP JUMPDEST PUSH32 0x4E487B7100000000000000000000000000000000000000000000000000000000 PUSH0 MSTORE PUSH1 0x22 PUSH1 0x4 MSTORE PUSH1 0x24 PUSH0 REVERT JUMPDEST PUSH0 PUSH1 0x2 DUP3 DIV SWAP1 POP PUSH1 0x1 DUP3 AND DUP1 PUSH2 0x25C4 JUMPI PUSH1 0x7F DUP3 AND SWAP2 POP JUMPDEST PUSH1 0x20 DUP3 LT DUP2 SUB PUSH2 0x25D7 JUMPI PUSH2 0x25D6 PUSH2 0x2580 JUMP JUMPDEST JUMPDEST POP SWAP2 SWAP1 POP JUMP JUMPDEST PUSH0 PUSH1 0x40 DUP3 ADD SWAP1 POP PUSH2 0x25F0 PUSH0 DUP4 ADD DUP6 PUSH2 0x23A4 JUMP JUMPDEST PUSH2 0x25FD PUSH1 0x20 DUP4 ADD DUP5 PUSH2 0x23A4 JUMP JUMPDEST SWAP4 SWAP3 POP POP POP JUMP JUMPDEST PUSH0 PUSH1 0x40 DUP3 ADD SWAP1 POP PUSH2 0x2617 PUSH0 DUP4 ADD DUP6 PUSH2 0x1A87 JUMP JUMPDEST PUSH2 0x2624 PUSH1 0x20 DUP4 ADD DUP5 PUSH2 0x1A87 JUMP JUMPDEST SWAP4 SWAP3 POP POP POP JUMP JUMPDEST PUSH32 0x4E487B7100000000000000000000000000000000000000000000000000000000 PUSH0 MSTORE PUSH1 0x32 PUSH1 0x4 MSTORE PUSH1 0x24 PUSH0 REVERT JUMPDEST PUSH32 0x4E487B7100000000000000000000000000000000000000000000000000000000 PUSH0 MSTORE PUSH1 0x11 PUSH1 0x4 MSTORE PUSH1 0x24 PUSH0 REVERT JUMPDEST PUSH0 PUSH2 0x268F DUP3 PUSH2 0x1A16 JUMP JUMPDEST SWAP2 POP PUSH32 0xFFFFFFFFFFFFFFFFFFFFFFFFFFFFFFFFFFFFFFFFFFFFFFFFFFFFFFFFFFFFFFFF DUP3 SUB PUSH2 0x26C1 JUMPI PUSH2 0x26C0 PUSH2 0x2658 JUMP JUMPDEST JUMPDEST PUSH1 0x1 DUP3 ADD SWAP1 POP SWAP2 SWAP1 POP JUMP JUMPDEST PUSH0 DUP2 SWAP1 POP DUP2 PUSH0 MSTORE PUSH1 0x20 PUSH0 KECCAK256 SWAP1 POP SWAP2 SWAP1 POP JUMP JUMPDEST PUSH0 PUSH1 0x20 PUSH1 0x1F DUP4 ADD DIV SWAP1 POP SWAP2 SWAP1 POP JUMP JUMPDEST PUSH0 DUP3 DUP3 SHL SWAP1 POP SWAP3 SWAP2 POP POP JUMP JUMPDEST PUSH0 PUSH1 0x8 DUP4 MUL PUSH2 0x2728 PUSH32 0xFFFFFFFFFFFFFFFFFFFFFFFFFFFFFFFFFFFFFFFFFFFFFFFFFFFFFFFFFFFFFFFF DUP3 PUSH2 0x26ED JUMP JUMPDEST PUSH2 0x2732 DUP7 DUP4 PUSH2 0x26ED JUMP JUMPDEST SWAP6 POP DUP1 NOT DUP5 AND SWAP4 POP DUP1 DUP7 AND DUP5 OR SWAP3 POP POP POP SWAP4 SWAP3 POP POP POP JUMP JUMPDEST PUSH0 DUP2 SWAP1 POP SWAP2 SWAP1 POP JUMP JUMPDEST PUSH0 PUSH2 0x276D PUSH2 0x2768 PUSH2 0x2763 DUP5 PUSH2 0x1A16 JUMP JUMPDEST PUSH2 0x274A JUMP JUMPDEST PUSH2 0x1A16 JUMP JUMPDEST SWAP1 POP SWAP2 SWAP1 POP JUMP JUMPDEST PUSH0 DUP2 SWAP1 POP SWAP2 SWAP1 POP JUMP JUMPDEST PUSH2 0x2786 DUP4 PUSH2 0x2753 JUMP JUMPDEST PUSH2 0x279A PUSH2 0x2792 DUP3 PUSH2 0x2774 JUMP JUMPDEST DUP5 DUP5 SLOAD PUSH2 0x26F9 JUMP JUMPDEST DUP3 SSTORE POP POP POP POP JUMP JUMPDEST PUSH0 SWAP1 JUMP JUMPDEST PUSH2 0x27AE PUSH2 0x27A2 JUMP JUMPDEST PUSH2 0x27B9 DUP2 DUP5 DUP5 PUSH2 0x277D JUMP JUMPDEST POP POP POP JUMP JUMPDEST JUMPDEST DUP2 DUP2 LT ISZERO PUSH2 0x27DC JUMPI PUSH2 0x27D1 PUSH0 DUP3 PUSH2 0x27A6 JUMP JUMPDEST PUSH1 0x1 DUP2 ADD SWAP1 POP PUSH2 0x27BF JUMP JUMPDEST POP POP JUMP JUMPDEST PUSH1 0x1F DUP3 GT ISZERO PUSH2 0x2821 JUMPI PUSH2 0x27F2 DUP2 PUSH2 0x26CC JUMP JUMPDEST PUSH2 0x27FB DUP5 PUSH2 0x26DE JUMP JUMPDEST DUP2 ADD PUSH1 0x20 DUP6 LT ISZERO PUSH2 0x280A JUMPI DUP2 SWAP1 POP JUMPDEST PUSH2 0x281E PUSH2 0x2816 DUP6 PUSH2 0x26DE JUMP JUMPDEST DUP4 ADD DUP3 PUSH2 0x27BE JUMP JUMPDEST POP POP JUMPDEST POP POP POP JUMP JUMPDEST PUSH0 DUP3 DUP3 SHR SWAP1 POP SWAP3 SWAP2 POP POP JUMP JUMPDEST PUSH0 PUSH2 0x2841 PUSH0 NOT DUP5 PUSH1 0x8 MUL PUSH2 0x2826 JUMP JUMPDEST NOT DUP1 DUP4 AND SWAP2 POP POP SWAP3 SWAP2 POP POP JUMP JUMPDEST PUSH0 PUSH2 0x2859 DUP4 DUP4 PUSH2 0x2832 JUMP JUMPDEST SWAP2 POP DUP3 PUSH1 0x2 MUL DUP3 OR SWAP1 POP SWAP3 SWAP2 POP POP JUMP JUMPDEST PUSH2 0x2872 DUP3 PUSH2 0x1D10 JUMP JUMPDEST PUSH8 0xFFFFFFFFFFFFFFFF DUP2 GT ISZERO PUSH2 0x288B JUMPI PUSH2 0x288A PUSH2 0x1B7A JUMP JUMPDEST JUMPDEST PUSH2 0x2895 DUP3 SLOAD PUSH2 0x25AD JUMP JUMPDEST PUSH2 0x28A0 DUP3 DUP3 DUP6 PUSH2 0x27E0 JUMP JUMPDEST PUSH0 PUSH1 0x20 SWAP1 POP PUSH1 0x1F DUP4 GT PUSH1 0x1 DUP2 EQ PUSH2 0x28D1 JUMPI PUSH0 DUP5 ISZERO PUSH2 0x28BF JUMPI DUP3 DUP8 ADD MLOAD SWAP1 POP JUMPDEST PUSH2 0x28C9 DUP6 DUP3 PUSH2 0x284E JUMP JUMPDEST DUP7 SSTORE POP PUSH2 0x2930 JUMP JUMPDEST PUSH1 0x1F NOT DUP5 AND PUSH2 0x28DF DUP7 PUSH2 0x26CC JUMP JUMPDEST PUSH0 JUMPDEST DUP3 DUP2 LT ISZERO PUSH2 0x2906 JUMPI DUP5 DUP10 ADD MLOAD DUP3 SSTORE PUSH1 0x1 DUP3 ADD SWAP2 POP PUSH1 0x20 DUP6 ADD SWAP5 POP PUSH1 0x20 DUP2 ADD SWAP1 POP PUSH2 0x28E1 JUMP JUMPDEST DUP7 DUP4 LT ISZERO PUSH2 0x2923 JUMPI DUP5 DUP10 ADD MLOAD PUSH2 0x291F PUSH1 0x1F DUP10 AND DUP3 PUSH2 0x2832 JUMP JUMPDEST DUP4 SSTORE POP JUMPDEST PUSH1 0x1 PUSH1 0x2 DUP9 MUL ADD DUP9 SSTORE POP POP POP JUMPDEST POP POP POP POP POP POP JUMP JUMPDEST PUSH0 PUSH1 0x80 DUP3 ADD SWAP1 POP PUSH2 0x294B PUSH0 DUP4 ADD DUP8 PUSH2 0x23A4 JUMP JUMPDEST PUSH2 0x2958 PUSH1 0x20 DUP4 ADD DUP7 PUSH2 0x1A87 JUMP JUMPDEST PUSH2 0x2965 PUSH1 0x40 DUP4 ADD DUP6 PUSH2 0x1A87 JUMP JUMPDEST PUSH2 0x2972 PUSH1 0x60 DUP4 ADD DUP5 PUSH2 0x1A87 JUMP JUMPDEST SWAP6 SWAP5 POP POP POP POP POP JUMP JUMPDEST PUSH0 PUSH2 0x2985 DUP3 PUSH2 0x1A16 JUMP JUMPDEST SWAP2 POP PUSH2 0x2990 DUP4 PUSH2 0x1A16 JUMP JUMPDEST SWAP3 POP DUP3 DUP3 ADD SWAP1 POP DUP1 DUP3 GT ISZERO PUSH2 0x29A8 JUMPI PUSH2 0x29A7 PUSH2 0x2658 JUMP JUMPDEST JUMPDEST SWAP3 SWAP2 POP POP JUMP JUMPDEST PUSH0 PUSH1 0x40 DUP3 ADD SWAP1 POP DUP2 DUP2 SUB PUSH0 DUP4 ADD MSTORE PUSH2 0x29C6 DUP2 DUP6 PUSH2 0x2220 JUMP JUMPDEST SWAP1 POP DUP2 DUP2 SUB PUSH1 0x20 DUP4 ADD MSTORE PUSH2 0x29DA DUP2 DUP5 PUSH2 0x2220 JUMP JUMPDEST SWAP1 POP SWAP4 SWAP3 POP POP POP JUMP JUMPDEST PUSH0 DUP2 MLOAD SWAP1 POP SWAP2 SWAP1 POP JUMP JUMPDEST PUSH0 DUP3 DUP3 MSTORE PUSH1 0x20 DUP3 ADD SWAP1 POP SWAP3 SWAP2 POP POP JUMP JUMPDEST PUSH0 PUSH2 0x2A07 DUP3 PUSH2 0x29E3 JUMP JUMPDEST PUSH2 0x2A11 DUP2 DUP6 PUSH2 0x29ED JUMP JUMPDEST SWAP4 POP PUSH2 0x2A21 DUP2 DUP6 PUSH1 0x20 DUP7 ADD PUSH2 0x1D2A JUMP JUMPDEST PUSH2 0x2A2A DUP2 PUSH2 0x1B6A JUMP JUMPDEST DUP5 ADD SWAP2 POP POP SWAP3 SWAP2 POP POP JUMP JUMPDEST PUSH0 PUSH1 0xA0 DUP3 ADD SWAP1 POP PUSH2 0x2A48 PUSH0 DUP4 ADD DUP9 PUSH2 0x23A4 JUMP JUMPDEST PUSH2 0x2A55 PUSH1 0x20 DUP4 ADD DUP8 PUSH2 0x23A4 JUMP JUMPDEST PUSH2 0x2A62 PUSH1 0x40 DUP4 ADD DUP7 PUSH2 0x1A87 JUMP JUMPDEST PUSH2 0x2A6F PUSH1 0x60 DUP4 ADD DUP6 PUSH2 0x1A87 JUMP JUMPDEST DUP2 DUP2 SUB PUSH1 0x80 DUP4 ADD MSTORE PUSH2 0x2A81 DUP2 DUP5 PUSH2 0x29FD JUMP JUMPDEST SWAP1 POP SWAP7 SWAP6 POP POP POP POP POP POP JUMP JUMPDEST PUSH0 DUP2 MLOAD SWAP1 POP PUSH2 0x2A9B DUP2 PUSH2 0x1ADA JUMP JUMPDEST SWAP3 SWAP2 POP POP JUMP JUMPDEST PUSH0 PUSH1 0x20 DUP3 DUP5 SUB SLT ISZERO PUSH2 0x2AB6 JUMPI PUSH2 0x2AB5 PUSH2 0x19B4 JUMP JUMPDEST JUMPDEST PUSH0 PUSH2 0x2AC3 DUP5 DUP3 DUP6 ADD PUSH2 0x2A8D JUMP JUMPDEST SWAP2 POP POP SWAP3 SWAP2 POP POP JUMP JUMPDEST PUSH0 PUSH1 0xA0 DUP3 ADD SWAP1 POP PUSH2 0x2ADF PUSH0 DUP4 ADD DUP9 PUSH2 0x23A4 JUMP JUMPDEST PUSH2 0x2AEC PUSH1 0x20 DUP4 ADD DUP8 PUSH2 0x23A4 JUMP JUMPDEST DUP2 DUP2 SUB PUSH1 0x40 DUP4 ADD MSTORE PUSH2 0x2AFE DUP2 DUP7 PUSH2 0x2220 JUMP JUMPDEST SWAP1 POP DUP2 DUP2 SUB PUSH1 0x60 DUP4 ADD MSTORE PUSH2 0x2B12 DUP2 DUP6 PUSH2 0x2220 JUMP JUMPDEST SWAP1 POP DUP2 DUP2 SUB PUSH1 0x80 DUP4 ADD MSTORE PUSH2 0x2B26 DUP2 DUP5 PUSH2 0x29FD JUMP JUMPDEST SWAP1 POP SWAP7 SWAP6 POP POP POP POP POP POP JUMP INVALID LOG2 PUSH5 0x6970667358 0x22 SLT KECCAK256 LOG3 SWAP7 EXP DUP15 0x49 SIGNEXTEND 0xD4 JUMPDEST 0xFB 0xE2 PUSH22 0x24D2901B200ADFDF5AA17EC7285BFC2A40ABD831964 PUSH20 0x6F6C6343000815003368747470733A2F2F676174 PUSH6 0x7761792E7069 PUSH15 0x6174612E636C6F75642F697066732F MLOAD PUSH14 0x5A655A6F5A4868414E316A574164 NUMBER CALLER PUSH25 0x4B45554D4E5137366655664831515472676368747470733A2F 0x2F PUSH8 0x6174657761792E70 PUSH10 0x6E6174612E636C6F7564 0x2F PUSH10 0x7066732F516D5A655A6F GAS BASEFEE PUSH9 0x414E316A5741644333 PUSH25 0x4B45554D4E5137366655664831515472676344657757686972 POP ORIGIN 0x2F PREVRANDAO PUSH6 0x775768697250 ORIGIN "
				},
				"gasEstimates": {
					"creation": {
						"codeDepositCost": "2222400",
						"executionCost": "infinite",
						"totalCost": "infinite"
					},
					"external": {
						"balanceOf(address,uint256)": "infinite",
						"balanceOfBatch(address[],uint256[])": "infinite",
						"burn(address,uint256,uint256)": "infinite",
						"burnBatch(address,uint256[],uint256[])": "infinite",
						"isApprovedForAll(address,address)": "infinite",
						"mint(address,uint256,uint256,bytes)": "infinite",
						"mintBatch(address,uint256[],uint256[],bytes)": "infinite",
						"owner()": "2582",
						"renounceOwnership()": "infinite",
						"safeBatchTransferFrom(address,address,uint256[],uint256[],bytes)": "infinite",
						"safeTransferFrom(address,address,uint256,uint256,bytes)": "infinite",
						"setApprovalForAll(address,bool)": "infinite",
						"setURI(string)": "infinite",
						"supportsInterface(bytes4)": "809",
						"transferOwnership(address)": "infinite",
						"uri(uint256)": "infinite"
					}
				},
				"methodIdentifiers": {
					"balanceOf(address,uint256)": "00fdd58e",
					"balanceOfBatch(address[],uint256[])": "4e1273f4",
					"burn(address,uint256,uint256)": "f5298aca",
					"burnBatch(address,uint256[],uint256[])": "6b20c454",
					"isApprovedForAll(address,address)": "e985e9c5",
					"mint(address,uint256,uint256,bytes)": "731133e9",
					"mintBatch(address,uint256[],uint256[],bytes)": "1f7fdffa",
					"owner()": "8da5cb5b",
					"renounceOwnership()": "715018a6",
					"safeBatchTransferFrom(address,address,uint256[],uint256[],bytes)": "2eb2c2d6",
					"safeTransferFrom(address,address,uint256,uint256,bytes)": "f242432a",
					"setApprovalForAll(address,bool)": "a22cb465",
					"setURI(string)": "02fe5305",
					"supportsInterface(bytes4)": "01ffc9a7",
					"transferOwnership(address)": "f2fde38b",
					"uri(uint256)": "0e89341c"
				}
			},
			"storageLayout": {
				"storage": [
					{
						"astId": 326,
						"contract": "up_burn.sol:Myercnew",
						"label": "_balances",
						"offset": 0,
						"slot": "0",
						"type": "t_mapping(t_uint256,t_mapping(t_address,t_uint256))"
					},
					{
						"astId": 332,
						"contract": "up_burn.sol:Myercnew",
						"label": "_operatorApprovals",
						"offset": 0,
						"slot": "1",
						"type": "t_mapping(t_address,t_mapping(t_address,t_bool))"
					},
					{
						"astId": 334,
						"contract": "up_burn.sol:Myercnew",
						"label": "_uri",
						"offset": 0,
						"slot": "2",
						"type": "t_string_storage"
					},
					{
						"astId": 8,
						"contract": "up_burn.sol:Myercnew",
						"label": "_owner",
						"offset": 0,
						"slot": "3",
						"type": "t_address"
					}
				],
				"types": {
					"t_address": {
						"encoding": "inplace",
						"label": "address",
						"numberOfBytes": "20"
					},
					"t_bool": {
						"encoding": "inplace",
						"label": "bool",
						"numberOfBytes": "1"
					},
					"t_mapping(t_address,t_bool)": {
						"encoding": "mapping",
						"key": "t_address",
						"label": "mapping(address => bool)",
						"numberOfBytes": "32",
						"value": "t_bool"
					},
					"t_mapping(t_address,t_mapping(t_address,t_bool))": {
						"encoding": "mapping",
						"key": "t_address",
						"label": "mapping(address => mapping(address => bool))",
						"numberOfBytes": "32",
						"value": "t_mapping(t_address,t_bool)"
					},
					"t_mapping(t_address,t_uint256)": {
						"encoding": "mapping",
						"key": "t_address",
						"label": "mapping(address => uint256)",
						"numberOfBytes": "32",
						"value": "t_uint256"
					},
					"t_mapping(t_uint256,t_mapping(t_address,t_uint256))": {
						"encoding": "mapping",
						"key": "t_uint256",
						"label": "mapping(uint256 => mapping(address => uint256))",
						"numberOfBytes": "32",
						"value": "t_mapping(t_address,t_uint256)"
					},
					"t_string_storage": {
						"encoding": "bytes",
						"label": "string",
						"numberOfBytes": "32"
					},
					"t_uint256": {
						"encoding": "inplace",
						"label": "uint256",
						"numberOfBytes": "32"
					}
				}
			},
			"userdoc": {
				"kind": "user",
				"methods": {},
				"version": 1
			}
		}
	}
}