{
	"Vesting_flattened.sol": {
		"Vesting": {
			"abi": [
				{
					"inputs": [
						{
							"internalType": "address",
							"name": "_token",
							"type": "address"
						}
					],
					"stateMutability": "nonpayable",
					"type": "constructor"
				},
				{
					"inputs": [
						{
							"internalType": "address",
							"name": "owner",
							"type": "address"
						}
					],
					"name": "OwnableInvalidOwner",
					"type": "error"
				},
				{
					"inputs": [
						{
							"internalType": "address",
							"name": "account",
							"type": "address"
						}
					],
					"name": "OwnableUnauthorizedAccount",
					"type": "error"
				},
				{
					"anonymous": false,
					"inputs": [
						{
							"indexed": true,
							"internalType": "address",
							"name": "previousOwner",
							"type": "address"
						},
						{
							"indexed": true,
							"internalType": "address",
							"name": "newOwner",
							"type": "address"
						}
					],
					"name": "OwnershipTransferred",
					"type": "event"
				},
				{
					"anonymous": false,
					"inputs": [
						{
							"indexed": true,
							"internalType": "address",
							"name": "receiver",
							"type": "address"
						},
						{
							"indexed": false,
							"internalType": "uint256",
							"name": "amount",
							"type": "uint256"
						},
						{
							"indexed": false,
							"internalType": "uint256",
							"name": "expiry",
							"type": "uint256"
						}
					],
					"name": "TokensLocked",
					"type": "event"
				},
				{
					"inputs": [],
					"name": "amount",
					"outputs": [
						{
							"internalType": "uint256",
							"name": "",
							"type": "uint256"
						}
					],
					"stateMutability": "view",
					"type": "function"
				},
				{
					"inputs": [],
					"name": "claimed",
					"outputs": [
						{
							"internalType": "bool",
							"name": "",
							"type": "bool"
						}
					],
					"stateMutability": "view",
					"type": "function"
				},
				{
					"inputs": [],
					"name": "expiry",
					"outputs": [
						{
							"internalType": "uint256",
							"name": "",
							"type": "uint256"
						}
					],
					"stateMutability": "view",
					"type": "function"
				},
				{
					"inputs": [],
					"name": "getTime",
					"outputs": [
						{
							"internalType": "uint256",
							"name": "",
							"type": "uint256"
						}
					],
					"stateMutability": "view",
					"type": "function"
				},
				{
					"inputs": [],
					"name": "locked",
					"outputs": [
						{
							"internalType": "bool",
							"name": "",
							"type": "bool"
						}
					],
					"stateMutability": "view",
					"type": "function"
				},
				{
					"inputs": [
						{
							"internalType": "address",
							"name": "mreceiver",
							"type": "address"
						},
						{
							"internalType": "uint256",
							"name": "mamount",
							"type": "uint256"
						},
						{
							"internalType": "uint256",
							"name": "mexpiry",
							"type": "uint256"
						}
					],
					"name": "locktoken",
					"outputs": [],
					"stateMutability": "nonpayable",
					"type": "function"
				},
				{
					"inputs": [],
					"name": "owner",
					"outputs": [
						{
							"internalType": "address",
							"name": "",
							"type": "address"
						}
					],
					"stateMutability": "view",
					"type": "function"
				},
				{
					"inputs": [],
					"name": "receiver",
					"outputs": [
						{
							"internalType": "address",
							"name": "",
							"type": "address"
						}
					],
					"stateMutability": "view",
					"type": "function"
				},
				{
					"inputs": [],
					"name": "renounceOwnership",
					"outputs": [],
					"stateMutability": "nonpayable",
					"type": "function"
				},
				{
					"inputs": [],
					"name": "token",
					"outputs": [
						{
							"internalType": "contract IERC20",
							"name": "",
							"type": "address"
						}
					],
					"stateMutability": "view",
					"type": "function"
				},
				{
					"inputs": [
						{
							"internalType": "address",
							"name": "newOwner",
							"type": "address"
						}
					],
					"name": "transferOwnership",
					"outputs": [],
					"stateMutability": "nonpayable",
					"type": "function"
				},
				{
					"inputs": [],
					"name": "withdraw",
					"outputs": [],
					"stateMutability": "nonpayable",
					"type": "function"
				}
			],
			"devdoc": {
				"errors": {
					"OwnableInvalidOwner(address)": [
						{
							"details": "The owner is not a valid owner account. (eg. `address(0)`)"
						}
					],
					"OwnableUnauthorizedAccount(address)": [
						{
							"details": "The caller account is not authorized to perform an operation."
						}
					]
				},
				"kind": "dev",
				"methods": {
					"owner()": {
						"details": "Returns the address of the current owner."
					},
					"renounceOwnership()": {
						"details": "Leaves the contract without owner. It will not be possible to call `onlyOwner` functions. Can only be called by the current owner. NOTE: Renouncing ownership will leave the contract without an owner, thereby disabling any functionality that is only available to the owner."
					},
					"transferOwnership(address)": {
						"details": "Transfers ownership of the contract to a new account (`newOwner`). Can only be called by the current owner."
					}
				},
				"version": 1
			},
			"evm": {
				"assembly": "    /* \"Vesting_flattened.sol\":6858:8489  contract Vesting is Ownable {... */\n  mstore(0x40, 0x80)\n    /* \"Vesting_flattened.sol\":7021:7026  false */\n  0x00\n    /* \"Vesting_flattened.sol\":7000:7026  bool public locked = false */\n  0x05\n  exp(0x0100, 0x00)\n  dup2\n  sload\n  dup2\n  0xff\n  mul\n  not\n  and\n  swap1\n  dup4\n  iszero\n  iszero\n  mul\n  or\n  swap1\n  sstore\n  pop\n    /* \"Vesting_flattened.sol\":7054:7059  false */\n  0x00\n    /* \"Vesting_flattened.sol\":7032:7059  bool public claimed = false */\n  0x05\n  exp(0x0100, 0x01)\n  dup2\n  sload\n  dup2\n  0xff\n  mul\n  not\n  and\n  swap1\n  dup4\n  iszero\n  iszero\n  mul\n  or\n  swap1\n  sstore\n  pop\n    /* \"Vesting_flattened.sol\":7149:7236  constructor(address _token) Ownable(msg.sender) {... */\n  callvalue\n  dup1\n  iszero\n  tag_1\n  jumpi\n  0x00\n  dup1\n  revert\ntag_1:\n  pop\n  mload(0x40)\n  sub(codesize, bytecodeSize)\n  dup1\n  bytecodeSize\n  dup4\n  codecopy\n  dup2\n  dup2\n  add\n  0x40\n  mstore\n  dup2\n  add\n  swap1\n  tag_2\n  swap2\n  swap1\n  tag_3\n  jump\t// in\ntag_2:\n    /* \"Vesting_flattened.sol\":7185:7195  msg.sender */\n  caller\n    /* \"Vesting_flattened.sol\":4999:5000  0 */\n  0x00\n    /* \"Vesting_flattened.sol\":4975:5001  initialOwner == address(0) */\n  0xffffffffffffffffffffffffffffffffffffffff\n  and\n    /* \"Vesting_flattened.sol\":4975:4987  initialOwner */\n  dup2\n    /* \"Vesting_flattened.sol\":4975:5001  initialOwner == address(0) */\n  0xffffffffffffffffffffffffffffffffffffffff\n  and\n  eq\n    /* \"Vesting_flattened.sol\":4971:5066  if (initialOwner == address(0)) {... */\n  iszero\n  tag_7\n  jumpi\n    /* \"Vesting_flattened.sol\":5052:5053  0 */\n  0x00\n    /* \"Vesting_flattened.sol\":5024:5055  OwnableInvalidOwner(address(0)) */\n  mload(0x40)\n  0x1e4fbdf700000000000000000000000000000000000000000000000000000000\n  dup2\n  mstore\n  0x04\n  add\n  tag_8\n  swap2\n  swap1\n  tag_9\n  jump\t// in\ntag_8:\n  mload(0x40)\n  dup1\n  swap2\n  sub\n  swap1\n  revert\n    /* \"Vesting_flattened.sol\":4971:5066  if (initialOwner == address(0)) {... */\ntag_7:\n    /* \"Vesting_flattened.sol\":5075:5107  _transferOwnership(initialOwner) */\n  tag_10\n    /* \"Vesting_flattened.sol\":5094:5106  initialOwner */\n  dup2\n    /* \"Vesting_flattened.sol\":5075:5093  _transferOwnership */\n  shl(0x20, tag_11)\n    /* \"Vesting_flattened.sol\":5075:5107  _transferOwnership(initialOwner) */\n  0x20\n  shr\n  jump\t// in\ntag_10:\n    /* \"Vesting_flattened.sol\":4927:5114  constructor(address initialOwner) {... */\n  pop\n    /* \"Vesting_flattened.sol\":7222:7228  _token */\n  dup1\n    /* \"Vesting_flattened.sol\":7207:7212  token */\n  0x01\n  0x00\n    /* \"Vesting_flattened.sol\":7207:7229  token = IERC20(_token) */\n  0x0100\n  exp\n  dup2\n  sload\n  dup2\n  0xffffffffffffffffffffffffffffffffffffffff\n  mul\n  not\n  and\n  swap1\n  dup4\n  0xffffffffffffffffffffffffffffffffffffffff\n  and\n  mul\n  or\n  swap1\n  sstore\n  pop\n    /* \"Vesting_flattened.sol\":7149:7236  constructor(address _token) Ownable(msg.sender) {... */\n  pop\n    /* \"Vesting_flattened.sol\":6858:8489  contract Vesting is Ownable {... */\n  jump(tag_13)\n    /* \"Vesting_flattened.sol\":6618:6805  function _transferOwnership(address newOwner) internal virtual {... */\ntag_11:\n    /* \"Vesting_flattened.sol\":6691:6707  address oldOwner */\n  0x00\n    /* \"Vesting_flattened.sol\":6710:6716  _owner */\n  dup1\n  0x00\n  swap1\n  sload\n  swap1\n  0x0100\n  exp\n  swap1\n  div\n  0xffffffffffffffffffffffffffffffffffffffff\n  and\n    /* \"Vesting_flattened.sol\":6691:6716  address oldOwner = _owner */\n  swap1\n  pop\n    /* \"Vesting_flattened.sol\":6735:6743  newOwner */\n  dup2\n    /* \"Vesting_flattened.sol\":6726:6732  _owner */\n  0x00\n  dup1\n    /* \"Vesting_flattened.sol\":6726:6743  _owner = newOwner */\n  0x0100\n  exp\n  dup2\n  sload\n  dup2\n  0xffffffffffffffffffffffffffffffffffffffff\n  mul\n  not\n  and\n  swap1\n  dup4\n  0xffffffffffffffffffffffffffffffffffffffff\n  and\n  mul\n  or\n  swap1\n  sstore\n  pop\n    /* \"Vesting_flattened.sol\":6789:6797  newOwner */\n  dup2\n    /* \"Vesting_flattened.sol\":6758:6798  OwnershipTransferred(oldOwner, newOwner) */\n  0xffffffffffffffffffffffffffffffffffffffff\n  and\n    /* \"Vesting_flattened.sol\":6779:6787  oldOwner */\n  dup2\n    /* \"Vesting_flattened.sol\":6758:6798  OwnershipTransferred(oldOwner, newOwner) */\n  0xffffffffffffffffffffffffffffffffffffffff\n  and\n  0x8be0079c531659141344cd1fd0a4f28419497f9722a3daafe3b4186f6b6457e0\n  mload(0x40)\n  mload(0x40)\n  dup1\n  swap2\n  sub\n  swap1\n  log3\n    /* \"Vesting_flattened.sol\":6681:6805  {... */\n  pop\n    /* \"Vesting_flattened.sol\":6618:6805  function _transferOwnership(address newOwner) internal virtual {... */\n  pop\n  jump\t// out\n    /* \"#utility.yul\":7:150   */\ntag_16:\n    /* \"#utility.yul\":64:69   */\n  0x00\n    /* \"#utility.yul\":95:101   */\n  dup2\n    /* \"#utility.yul\":89:102   */\n  mload\n    /* \"#utility.yul\":80:102   */\n  swap1\n  pop\n    /* \"#utility.yul\":111:144   */\n  tag_18\n    /* \"#utility.yul\":138:143   */\n  dup2\n    /* \"#utility.yul\":111:144   */\n  tag_19\n  jump\t// in\ntag_18:\n    /* \"#utility.yul\":7:150   */\n  swap3\n  swap2\n  pop\n  pop\n  jump\t// out\n    /* \"#utility.yul\":156:507   */\ntag_3:\n    /* \"#utility.yul\":226:232   */\n  0x00\n    /* \"#utility.yul\":275:277   */\n  0x20\n    /* \"#utility.yul\":263:272   */\n  dup3\n    /* \"#utility.yul\":254:261   */\n  dup5\n    /* \"#utility.yul\":250:273   */\n  sub\n    /* \"#utility.yul\":246:278   */\n  slt\n    /* \"#utility.yul\":243:362   */\n  iszero\n  tag_21\n  jumpi\n    /* \"#utility.yul\":281:360   */\n  tag_22\n  tag_23\n  jump\t// in\ntag_22:\n    /* \"#utility.yul\":243:362   */\ntag_21:\n    /* \"#utility.yul\":401:402   */\n  0x00\n    /* \"#utility.yul\":426:490   */\n  tag_24\n    /* \"#utility.yul\":482:489   */\n  dup5\n    /* \"#utility.yul\":473:479   */\n  dup3\n    /* \"#utility.yul\":462:471   */\n  dup6\n    /* \"#utility.yul\":458:480   */\n  add\n    /* \"#utility.yul\":426:490   */\n  tag_16\n  jump\t// in\ntag_24:\n    /* \"#utility.yul\":416:490   */\n  swap2\n  pop\n    /* \"#utility.yul\":372:500   */\n  pop\n    /* \"#utility.yul\":156:507   */\n  swap3\n  swap2\n  pop\n  pop\n  jump\t// out\n    /* \"#utility.yul\":513:631   */\ntag_25:\n    /* \"#utility.yul\":600:624   */\n  tag_27\n    /* \"#utility.yul\":618:623   */\n  dup2\n    /* \"#utility.yul\":600:624   */\n  tag_28\n  jump\t// in\ntag_27:\n    /* \"#utility.yul\":595:598   */\n  dup3\n    /* \"#utility.yul\":588:625   */\n  mstore\n    /* \"#utility.yul\":513:631   */\n  pop\n  pop\n  jump\t// out\n    /* \"#utility.yul\":637:859   */\ntag_9:\n    /* \"#utility.yul\":730:734   */\n  0x00\n    /* \"#utility.yul\":768:770   */\n  0x20\n    /* \"#utility.yul\":757:766   */\n  dup3\n    /* \"#utility.yul\":753:771   */\n  add\n    /* \"#utility.yul\":745:771   */\n  swap1\n  pop\n    /* \"#utility.yul\":781:852   */\n  tag_30\n    /* \"#utility.yul\":849:850   */\n  0x00\n    /* \"#utility.yul\":838:847   */\n  dup4\n    /* \"#utility.yul\":834:851   */\n  add\n    /* \"#utility.yul\":825:831   */\n  dup5\n    /* \"#utility.yul\":781:852   */\n  tag_25\n  jump\t// in\ntag_30:\n    /* \"#utility.yul\":637:859   */\n  swap3\n  swap2\n  pop\n  pop\n  jump\t// out\n    /* \"#utility.yul\":946:1042   */\ntag_28:\n    /* \"#utility.yul\":983:990   */\n  0x00\n    /* \"#utility.yul\":1012:1036   */\n  tag_34\n    /* \"#utility.yul\":1030:1035   */\n  dup3\n    /* \"#utility.yul\":1012:1036   */\n  tag_35\n  jump\t// in\ntag_34:\n    /* \"#utility.yul\":1001:1036   */\n  swap1\n  pop\n    /* \"#utility.yul\":946:1042   */\n  swap2\n  swap1\n  pop\n  jump\t// out\n    /* \"#utility.yul\":1048:1174   */\ntag_35:\n    /* \"#utility.yul\":1085:1092   */\n  0x00\n    /* \"#utility.yul\":1125:1167   */\n  0xffffffffffffffffffffffffffffffffffffffff\n    /* \"#utility.yul\":1118:1123   */\n  dup3\n    /* \"#utility.yul\":1114:1168   */\n  and\n    /* \"#utility.yul\":1103:1168   */\n  swap1\n  pop\n    /* \"#utility.yul\":1048:1174   */\n  swap2\n  swap1\n  pop\n  jump\t// out\n    /* \"#utility.yul\":1303:1420   */\ntag_23:\n    /* \"#utility.yul\":1412:1413   */\n  0x00\n    /* \"#utility.yul\":1409:1410   */\n  dup1\n    /* \"#utility.yul\":1402:1414   */\n  revert\n    /* \"#utility.yul\":1426:1548   */\ntag_19:\n    /* \"#utility.yul\":1499:1523   */\n  tag_41\n    /* \"#utility.yul\":1517:1522   */\n  dup2\n    /* \"#utility.yul\":1499:1523   */\n  tag_28\n  jump\t// in\ntag_41:\n    /* \"#utility.yul\":1492:1497   */\n  dup2\n    /* \"#utility.yul\":1489:1524   */\n  eq\n    /* \"#utility.yul\":1479:1542   */\n  tag_42\n  jumpi\n    /* \"#utility.yul\":1538:1539   */\n  0x00\n    /* \"#utility.yul\":1535:1536   */\n  dup1\n    /* \"#utility.yul\":1528:1540   */\n  revert\n    /* \"#utility.yul\":1479:1542   */\ntag_42:\n    /* \"#utility.yul\":1426:1548   */\n  pop\n  jump\t// out\n    /* \"Vesting_flattened.sol\":6858:8489  contract Vesting is Ownable {... */\ntag_13:\n  dataSize(sub_0)\n  dup1\n  dataOffset(sub_0)\n  0x00\n  codecopy\n  0x00\n  return\nstop\n\nsub_0: assembly {\n        /* \"Vesting_flattened.sol\":6858:8489  contract Vesting is Ownable {... */\n      mstore(0x40, 0x80)\n      callvalue\n      dup1\n      iszero\n      tag_1\n      jumpi\n      0x00\n      dup1\n      revert\n    tag_1:\n      pop\n      jumpi(tag_2, lt(calldatasize, 0x04))\n      shr(0xe0, calldataload(0x00))\n      dup1\n      0xd79f017f\n      gt\n      tag_15\n      jumpi\n      dup1\n      0xd79f017f\n      eq\n      tag_9\n      jumpi\n      dup1\n      0xe184c9be\n      eq\n      tag_10\n      jumpi\n      dup1\n      0xe834a834\n      eq\n      tag_11\n      jumpi\n      dup1\n      0xf2fde38b\n      eq\n      tag_12\n      jumpi\n      dup1\n      0xf7260d3e\n      eq\n      tag_13\n      jumpi\n      dup1\n      0xfc0c546a\n      eq\n      tag_14\n      jumpi\n      jump(tag_2)\n    tag_15:\n      dup1\n      0x3ccfd60b\n      eq\n      tag_3\n      jumpi\n      dup1\n      0x557ed1ba\n      eq\n      tag_4\n      jumpi\n      dup1\n      0x715018a6\n      eq\n      tag_5\n      jumpi\n      dup1\n      0x8da5cb5b\n      eq\n      tag_6\n      jumpi\n      dup1\n      0xaa8c217c\n      eq\n      tag_7\n      jumpi\n      dup1\n      0xcf309012\n      eq\n      tag_8\n      jumpi\n    tag_2:\n      0x00\n      dup1\n      revert\n        /* \"Vesting_flattened.sol\":7959:8391  function withdraw() external {... */\n    tag_3:\n      tag_16\n      tag_17\n      jump\t// in\n    tag_16:\n      stop\n        /* \"Vesting_flattened.sol\":8397:8487  function getTime() external view returns (uint256) {... */\n    tag_4:\n      tag_18\n      tag_19\n      jump\t// in\n    tag_18:\n      mload(0x40)\n      tag_20\n      swap2\n      swap1\n      tag_21\n      jump\t// in\n    tag_20:\n      mload(0x40)\n      dup1\n      swap2\n      sub\n      swap1\n      return\n        /* \"Vesting_flattened.sol\":5995:6098  function renounceOwnership() external virtual onlyOwner {... */\n    tag_5:\n      tag_22\n      tag_23\n      jump\t// in\n    tag_22:\n      stop\n        /* \"Vesting_flattened.sol\":5340:5425  function owner() public view virtual returns (address) {... */\n    tag_6:\n      tag_24\n      tag_25\n      jump\t// in\n    tag_24:\n      mload(0x40)\n      tag_26\n      swap2\n      swap1\n      tag_27\n      jump\t// in\n    tag_26:\n      mload(0x40)\n      dup1\n      swap2\n      sub\n      swap1\n      return\n        /* \"Vesting_flattened.sol\":6946:6967  uint256 public amount */\n    tag_7:\n      tag_28\n      tag_29\n      jump\t// in\n    tag_28:\n      mload(0x40)\n      tag_30\n      swap2\n      swap1\n      tag_21\n      jump\t// in\n    tag_30:\n      mload(0x40)\n      dup1\n      swap2\n      sub\n      swap1\n      return\n        /* \"Vesting_flattened.sol\":7000:7026  bool public locked = false */\n    tag_8:\n      tag_31\n      tag_32\n      jump\t// in\n    tag_31:\n      mload(0x40)\n      tag_33\n      swap2\n      swap1\n      tag_34\n      jump\t// in\n    tag_33:\n      mload(0x40)\n      dup1\n      swap2\n      sub\n      swap1\n      return\n        /* \"Vesting_flattened.sol\":7242:7953  function locktoken(address mreceiver, uint256 mamount, uint256 mexpiry) external onlyOwner {... */\n    tag_9:\n      tag_35\n      0x04\n      dup1\n      calldatasize\n      sub\n      dup2\n      add\n      swap1\n      tag_36\n      swap2\n      swap1\n      tag_37\n      jump\t// in\n    tag_36:\n      tag_38\n      jump\t// in\n    tag_35:\n      stop\n        /* \"Vesting_flattened.sol\":6973:6994  uint256 public expiry */\n    tag_10:\n      tag_39\n      tag_40\n      jump\t// in\n    tag_39:\n      mload(0x40)\n      tag_41\n      swap2\n      swap1\n      tag_21\n      jump\t// in\n    tag_41:\n      mload(0x40)\n      dup1\n      swap2\n      sub\n      swap1\n      return\n        /* \"Vesting_flattened.sol\":7032:7059  bool public claimed = false */\n    tag_11:\n      tag_42\n      tag_43\n      jump\t// in\n    tag_42:\n      mload(0x40)\n      tag_44\n      swap2\n      swap1\n      tag_34\n      jump\t// in\n    tag_44:\n      mload(0x40)\n      dup1\n      swap2\n      sub\n      swap1\n      return\n        /* \"Vesting_flattened.sol\":6247:6464  function transferOwnership(address newOwner) external virtual onlyOwner {... */\n    tag_12:\n      tag_45\n      0x04\n      dup1\n      calldatasize\n      sub\n      dup2\n      add\n      swap1\n      tag_46\n      swap2\n      swap1\n      tag_47\n      jump\t// in\n    tag_46:\n      tag_48\n      jump\t// in\n    tag_45:\n      stop\n        /* \"Vesting_flattened.sol\":6917:6940  address public receiver */\n    tag_13:\n      tag_49\n      tag_50\n      jump\t// in\n    tag_49:\n      mload(0x40)\n      tag_51\n      swap2\n      swap1\n      tag_27\n      jump\t// in\n    tag_51:\n      mload(0x40)\n      dup1\n      swap2\n      sub\n      swap1\n      return\n        /* \"Vesting_flattened.sol\":6892:6911  IERC20 public token */\n    tag_14:\n      tag_52\n      tag_53\n      jump\t// in\n    tag_52:\n      mload(0x40)\n      tag_54\n      swap2\n      swap1\n      tag_55\n      jump\t// in\n    tag_54:\n      mload(0x40)\n      dup1\n      swap2\n      sub\n      swap1\n      return\n        /* \"Vesting_flattened.sol\":7959:8391  function withdraw() external {... */\n    tag_17:\n        /* \"Vesting_flattened.sol\":8006:8012  locked */\n      0x05\n      0x00\n      swap1\n      sload\n      swap1\n      0x0100\n      exp\n      swap1\n      div\n      0xff\n      and\n        /* \"Vesting_flattened.sol\":7998:8037  require(locked, \"Funds are not locked\") */\n      tag_57\n      jumpi\n      mload(0x40)\n      0x08c379a000000000000000000000000000000000000000000000000000000000\n      dup2\n      mstore\n      0x04\n      add\n      tag_58\n      swap1\n      tag_59\n      jump\t// in\n    tag_58:\n      mload(0x40)\n      dup1\n      swap2\n      sub\n      swap1\n      revert\n    tag_57:\n        /* \"Vesting_flattened.sol\":8073:8079  expiry */\n      sload(0x04)\n        /* \"Vesting_flattened.sol\":8055:8070  block.timestamp */\n      timestamp\n        /* \"Vesting_flattened.sol\":8055:8079  block.timestamp > expiry */\n      gt\n        /* \"Vesting_flattened.sol\":8047:8111  require(block.timestamp > expiry, \"Tokens are not yet unlocked\") */\n      tag_60\n      jumpi\n      mload(0x40)\n      0x08c379a000000000000000000000000000000000000000000000000000000000\n      dup2\n      mstore\n      0x04\n      add\n      tag_61\n      swap1\n      tag_62\n      jump\t// in\n    tag_61:\n      mload(0x40)\n      dup1\n      swap2\n      sub\n      swap1\n      revert\n    tag_60:\n        /* \"Vesting_flattened.sol\":8130:8137  claimed */\n      0x05\n      0x01\n      swap1\n      sload\n      swap1\n      0x0100\n      exp\n      swap1\n      div\n      0xff\n      and\n        /* \"Vesting_flattened.sol\":8129:8137  !claimed */\n      iszero\n        /* \"Vesting_flattened.sol\":8121:8174  require(!claimed, \"Tokens have already been claimed\") */\n      tag_63\n      jumpi\n      mload(0x40)\n      0x08c379a000000000000000000000000000000000000000000000000000000000\n      dup2\n      mstore\n      0x04\n      add\n      tag_64\n      swap1\n      tag_65\n      jump\t// in\n    tag_64:\n      mload(0x40)\n      dup1\n      swap2\n      sub\n      swap1\n      revert\n    tag_63:\n        /* \"Vesting_flattened.sol\":8235:8239  true */\n      0x01\n        /* \"Vesting_flattened.sol\":8225:8232  claimed */\n      0x05\n      0x01\n        /* \"Vesting_flattened.sol\":8225:8239  claimed = true */\n      0x0100\n      exp\n      dup2\n      sload\n      dup2\n      0xff\n      mul\n      not\n      and\n      swap1\n      dup4\n      iszero\n      iszero\n      mul\n      or\n      swap1\n      sstore\n      pop\n        /* \"Vesting_flattened.sol\":8326:8331  token */\n      0x01\n      0x00\n      swap1\n      sload\n      swap1\n      0x0100\n      exp\n      swap1\n      div\n      0xffffffffffffffffffffffffffffffffffffffff\n      and\n        /* \"Vesting_flattened.sol\":8326:8340  token.transfer */\n      0xffffffffffffffffffffffffffffffffffffffff\n      and\n      0xa9059cbb\n        /* \"Vesting_flattened.sol\":8341:8349  receiver */\n      0x02\n      0x00\n      swap1\n      sload\n      swap1\n      0x0100\n      exp\n      swap1\n      div\n      0xffffffffffffffffffffffffffffffffffffffff\n      and\n        /* \"Vesting_flattened.sol\":8351:8357  amount */\n      sload(0x03)\n        /* \"Vesting_flattened.sol\":8326:8358  token.transfer(receiver, amount) */\n      mload(0x40)\n      dup4\n      0xffffffff\n      and\n      0xe0\n      shl\n      dup2\n      mstore\n      0x04\n      add\n      tag_66\n      swap3\n      swap2\n      swap1\n      tag_67\n      jump\t// in\n    tag_66:\n      0x20\n      mload(0x40)\n      dup1\n      dup4\n      sub\n      dup2\n      0x00\n      dup8\n      dup1\n      extcodesize\n      iszero\n      dup1\n      iszero\n      tag_68\n      jumpi\n      0x00\n      dup1\n      revert\n    tag_68:\n      pop\n      gas\n      call\n      iszero\n      dup1\n      iszero\n      tag_70\n      jumpi\n      returndatasize\n      0x00\n      dup1\n      returndatacopy\n      revert(0x00, returndatasize)\n    tag_70:\n      pop\n      pop\n      pop\n      pop\n      mload(0x40)\n      returndatasize\n      not(0x1f)\n      0x1f\n      dup3\n      add\n      and\n      dup3\n      add\n      dup1\n      0x40\n      mstore\n      pop\n      dup2\n      add\n      swap1\n      tag_71\n      swap2\n      swap1\n      tag_72\n      jump\t// in\n    tag_71:\n        /* \"Vesting_flattened.sol\":8318:8384  require(token.transfer(receiver, amount), \"Token transfer failed\") */\n      tag_73\n      jumpi\n      mload(0x40)\n      0x08c379a000000000000000000000000000000000000000000000000000000000\n      dup2\n      mstore\n      0x04\n      add\n      tag_74\n      swap1\n      tag_75\n      jump\t// in\n    tag_74:\n      mload(0x40)\n      dup1\n      swap2\n      sub\n      swap1\n      revert\n    tag_73:\n        /* \"Vesting_flattened.sol\":7959:8391  function withdraw() external {... */\n      jump\t// out\n        /* \"Vesting_flattened.sol\":8397:8487  function getTime() external view returns (uint256) {... */\n    tag_19:\n        /* \"Vesting_flattened.sol\":8439:8446  uint256 */\n      0x00\n        /* \"Vesting_flattened.sol\":8465:8480  block.timestamp */\n      timestamp\n        /* \"Vesting_flattened.sol\":8458:8480  return block.timestamp */\n      swap1\n      pop\n        /* \"Vesting_flattened.sol\":8397:8487  function getTime() external view returns (uint256) {... */\n      swap1\n      jump\t// out\n        /* \"Vesting_flattened.sol\":5995:6098  function renounceOwnership() external virtual onlyOwner {... */\n    tag_23:\n        /* \"Vesting_flattened.sol\":5233:5246  _checkOwner() */\n      tag_78\n        /* \"Vesting_flattened.sol\":5233:5244  _checkOwner */\n      tag_79\n        /* \"Vesting_flattened.sol\":5233:5246  _checkOwner() */\n      jump\t// in\n    tag_78:\n        /* \"Vesting_flattened.sol\":6061:6091  _transferOwnership(address(0)) */\n      tag_81\n        /* \"Vesting_flattened.sol\":6088:6089  0 */\n      0x00\n        /* \"Vesting_flattened.sol\":6061:6079  _transferOwnership */\n      tag_82\n        /* \"Vesting_flattened.sol\":6061:6091  _transferOwnership(address(0)) */\n      jump\t// in\n    tag_81:\n        /* \"Vesting_flattened.sol\":5995:6098  function renounceOwnership() external virtual onlyOwner {... */\n      jump\t// out\n        /* \"Vesting_flattened.sol\":5340:5425  function owner() public view virtual returns (address) {... */\n    tag_25:\n        /* \"Vesting_flattened.sol\":5386:5393  address */\n      0x00\n        /* \"Vesting_flattened.sol\":5412:5418  _owner */\n      dup1\n      0x00\n      swap1\n      sload\n      swap1\n      0x0100\n      exp\n      swap1\n      div\n      0xffffffffffffffffffffffffffffffffffffffff\n      and\n        /* \"Vesting_flattened.sol\":5405:5418  return _owner */\n      swap1\n      pop\n        /* \"Vesting_flattened.sol\":5340:5425  function owner() public view virtual returns (address) {... */\n      swap1\n      jump\t// out\n        /* \"Vesting_flattened.sol\":6946:6967  uint256 public amount */\n    tag_29:\n      sload(0x03)\n      dup2\n      jump\t// out\n        /* \"Vesting_flattened.sol\":7000:7026  bool public locked = false */\n    tag_32:\n      0x05\n      0x00\n      swap1\n      sload\n      swap1\n      0x0100\n      exp\n      swap1\n      div\n      0xff\n      and\n      dup2\n      jump\t// out\n        /* \"Vesting_flattened.sol\":7242:7953  function locktoken(address mreceiver, uint256 mamount, uint256 mexpiry) external onlyOwner {... */\n    tag_38:\n        /* \"Vesting_flattened.sol\":5233:5246  _checkOwner() */\n      tag_85\n        /* \"Vesting_flattened.sol\":5233:5244  _checkOwner */\n      tag_79\n        /* \"Vesting_flattened.sol\":5233:5246  _checkOwner() */\n      jump\t// in\n    tag_85:\n        /* \"Vesting_flattened.sol\":7348:7354  locked */\n      0x05\n      0x00\n      swap1\n      sload\n      swap1\n      0x0100\n      exp\n      swap1\n      div\n      0xff\n      and\n        /* \"Vesting_flattened.sol\":7347:7354  !locked */\n      iszero\n        /* \"Vesting_flattened.sol\":7339:7383  require(!locked, \"Funds are already locked\") */\n      tag_87\n      jumpi\n      mload(0x40)\n      0x08c379a000000000000000000000000000000000000000000000000000000000\n      dup2\n      mstore\n      0x04\n      add\n      tag_88\n      swap1\n      tag_89\n      jump\t// in\n    tag_88:\n      mload(0x40)\n      dup1\n      swap2\n      sub\n      swap1\n      revert\n    tag_87:\n        /* \"Vesting_flattened.sol\":7431:7438  mamount */\n      dup2\n        /* \"Vesting_flattened.sol\":7397:7402  token */\n      0x01\n      0x00\n      swap1\n      sload\n      swap1\n      0x0100\n      exp\n      swap1\n      div\n      0xffffffffffffffffffffffffffffffffffffffff\n      and\n        /* \"Vesting_flattened.sol\":7397:7412  token.balanceOf */\n      0xffffffffffffffffffffffffffffffffffffffff\n      and\n      0x70a08231\n        /* \"Vesting_flattened.sol\":7421:7425  this */\n      address\n        /* \"Vesting_flattened.sol\":7397:7427  token.balanceOf(address(this)) */\n      mload(0x40)\n      dup3\n      0xffffffff\n      and\n      0xe0\n      shl\n      dup2\n      mstore\n      0x04\n      add\n      tag_90\n      swap2\n      swap1\n      tag_27\n      jump\t// in\n    tag_90:\n      0x20\n      mload(0x40)\n      dup1\n      dup4\n      sub\n      dup2\n      dup7\n      dup1\n      extcodesize\n      iszero\n      dup1\n      iszero\n      tag_91\n      jumpi\n      0x00\n      dup1\n      revert\n    tag_91:\n      pop\n      gas\n      staticcall\n      iszero\n      dup1\n      iszero\n      tag_93\n      jumpi\n      returndatasize\n      0x00\n      dup1\n      returndatacopy\n      revert(0x00, returndatasize)\n    tag_93:\n      pop\n      pop\n      pop\n      pop\n      mload(0x40)\n      returndatasize\n      not(0x1f)\n      0x1f\n      dup3\n      add\n      and\n      dup3\n      add\n      dup1\n      0x40\n      mstore\n      pop\n      dup2\n      add\n      swap1\n      tag_94\n      swap2\n      swap1\n      tag_95\n      jump\t// in\n    tag_94:\n        /* \"Vesting_flattened.sol\":7397:7438  token.balanceOf(address(this)) >= mamount */\n      lt\n      iszero\n        /* \"Vesting_flattened.sol\":7389:7479  require(token.balanceOf(address(this)) >= mamount, \"Insufficient balance in the contract\") */\n      tag_96\n      jumpi\n      mload(0x40)\n      0x08c379a000000000000000000000000000000000000000000000000000000000\n      dup2\n      mstore\n      0x04\n      add\n      tag_97\n      swap1\n      tag_98\n      jump\t// in\n    tag_97:\n      mload(0x40)\n      dup1\n      swap2\n      sub\n      swap1\n      revert\n    tag_96:\n        /* \"Vesting_flattened.sol\":7514:7515  0 */\n      0x00\n        /* \"Vesting_flattened.sol\":7493:7516  mreceiver != address(0) */\n      0xffffffffffffffffffffffffffffffffffffffff\n      and\n        /* \"Vesting_flattened.sol\":7493:7502  mreceiver */\n      dup4\n        /* \"Vesting_flattened.sol\":7493:7516  mreceiver != address(0) */\n      0xffffffffffffffffffffffffffffffffffffffff\n      and\n      eq\n      iszero\n        /* \"Vesting_flattened.sol\":7485:7545  require(mreceiver != address(0), \"Invalid receiver address\") */\n      tag_99\n      jumpi\n      mload(0x40)\n      0x08c379a000000000000000000000000000000000000000000000000000000000\n      dup2\n      mstore\n      0x04\n      add\n      tag_100\n      swap1\n      tag_101\n      jump\t// in\n    tag_100:\n      mload(0x40)\n      dup1\n      swap2\n      sub\n      swap1\n      revert\n    tag_99:\n        /* \"Vesting_flattened.sol\":7627:7636  mreceiver */\n      dup3\n        /* \"Vesting_flattened.sol\":7616:7624  receiver */\n      0x02\n      0x00\n        /* \"Vesting_flattened.sol\":7616:7636  receiver = mreceiver */\n      0x0100\n      exp\n      dup2\n      sload\n      dup2\n      0xffffffffffffffffffffffffffffffffffffffff\n      mul\n      not\n      and\n      swap1\n      dup4\n      0xffffffffffffffffffffffffffffffffffffffff\n      and\n      mul\n      or\n      swap1\n      sstore\n      pop\n        /* \"Vesting_flattened.sol\":7651:7658  mamount */\n      dup2\n        /* \"Vesting_flattened.sol\":7642:7648  amount */\n      0x03\n        /* \"Vesting_flattened.sol\":7642:7658  amount = mamount */\n      dup2\n      swap1\n      sstore\n      pop\n        /* \"Vesting_flattened.sol\":7691:7698  mexpiry */\n      dup1\n        /* \"Vesting_flattened.sol\":7673:7688  block.timestamp */\n      timestamp\n        /* \"Vesting_flattened.sol\":7673:7698  block.timestamp + mexpiry */\n      tag_102\n      swap2\n      swap1\n      tag_103\n      jump\t// in\n    tag_102:\n        /* \"Vesting_flattened.sol\":7664:7670  expiry */\n      0x04\n        /* \"Vesting_flattened.sol\":7664:7698  expiry = block.timestamp + mexpiry */\n      dup2\n      swap1\n      sstore\n      pop\n        /* \"Vesting_flattened.sol\":7713:7717  true */\n      0x01\n        /* \"Vesting_flattened.sol\":7704:7710  locked */\n      0x05\n      0x00\n        /* \"Vesting_flattened.sol\":7704:7717  locked = true */\n      0x0100\n      exp\n      dup2\n      sload\n      dup2\n      0xff\n      mul\n      not\n      and\n      swap1\n      dup4\n      iszero\n      iszero\n      mul\n      or\n      swap1\n      sstore\n      pop\n        /* \"Vesting_flattened.sol\":7796:7801  token */\n      0x01\n      0x00\n      swap1\n      sload\n      swap1\n      0x0100\n      exp\n      swap1\n      div\n      0xffffffffffffffffffffffffffffffffffffffff\n      and\n        /* \"Vesting_flattened.sol\":7796:7814  token.transferFrom */\n      0xffffffffffffffffffffffffffffffffffffffff\n      and\n      0x23b872dd\n        /* \"Vesting_flattened.sol\":7815:7825  msg.sender */\n      caller\n        /* \"Vesting_flattened.sol\":7835:7839  this */\n      address\n        /* \"Vesting_flattened.sol\":7842:7849  mamount */\n      dup6\n        /* \"Vesting_flattened.sol\":7796:7850  token.transferFrom(msg.sender, address(this), mamount) */\n      mload(0x40)\n      dup5\n      0xffffffff\n      and\n      0xe0\n      shl\n      dup2\n      mstore\n      0x04\n      add\n      tag_104\n      swap4\n      swap3\n      swap2\n      swap1\n      tag_105\n      jump\t// in\n    tag_104:\n      0x20\n      mload(0x40)\n      dup1\n      dup4\n      sub\n      dup2\n      0x00\n      dup8\n      dup1\n      extcodesize\n      iszero\n      dup1\n      iszero\n      tag_106\n      jumpi\n      0x00\n      dup1\n      revert\n    tag_106:\n      pop\n      gas\n      call\n      iszero\n      dup1\n      iszero\n      tag_108\n      jumpi\n      returndatasize\n      0x00\n      dup1\n      returndatacopy\n      revert(0x00, returndatasize)\n    tag_108:\n      pop\n      pop\n      pop\n      pop\n      mload(0x40)\n      returndatasize\n      not(0x1f)\n      0x1f\n      dup3\n      add\n      and\n      dup3\n      add\n      dup1\n      0x40\n      mstore\n      pop\n      dup2\n      add\n      swap1\n      tag_109\n      swap2\n      swap1\n      tag_72\n      jump\t// in\n    tag_109:\n        /* \"Vesting_flattened.sol\":7788:7876  require(token.transferFrom(msg.sender, address(this), mamount), \"Token transfer failed\") */\n      tag_110\n      jumpi\n      mload(0x40)\n      0x08c379a000000000000000000000000000000000000000000000000000000000\n      dup2\n      mstore\n      0x04\n      add\n      tag_111\n      swap1\n      tag_75\n      jump\t// in\n    tag_111:\n      mload(0x40)\n      dup1\n      swap2\n      sub\n      swap1\n      revert\n    tag_110:\n        /* \"Vesting_flattened.sol\":7923:7932  mreceiver */\n      dup3\n        /* \"Vesting_flattened.sol\":7910:7950  TokensLocked(mreceiver, mamount, expiry) */\n      0xffffffffffffffffffffffffffffffffffffffff\n      and\n      0xd741e738a23fd18a03a26522320d9fc6cac1fed483e215ea9150fbc2fc43385d\n        /* \"Vesting_flattened.sol\":7934:7941  mamount */\n      dup4\n        /* \"Vesting_flattened.sol\":7943:7949  expiry */\n      sload(0x04)\n        /* \"Vesting_flattened.sol\":7910:7950  TokensLocked(mreceiver, mamount, expiry) */\n      mload(0x40)\n      tag_112\n      swap3\n      swap2\n      swap1\n      tag_113\n      jump\t// in\n    tag_112:\n      mload(0x40)\n      dup1\n      swap2\n      sub\n      swap1\n      log2\n        /* \"Vesting_flattened.sol\":7242:7953  function locktoken(address mreceiver, uint256 mamount, uint256 mexpiry) external onlyOwner {... */\n      pop\n      pop\n      pop\n      jump\t// out\n        /* \"Vesting_flattened.sol\":6973:6994  uint256 public expiry */\n    tag_40:\n      sload(0x04)\n      dup2\n      jump\t// out\n        /* \"Vesting_flattened.sol\":7032:7059  bool public claimed = false */\n    tag_43:\n      0x05\n      0x01\n      swap1\n      sload\n      swap1\n      0x0100\n      exp\n      swap1\n      div\n      0xff\n      and\n      dup2\n      jump\t// out\n        /* \"Vesting_flattened.sol\":6247:6464  function transferOwnership(address newOwner) external virtual onlyOwner {... */\n    tag_48:\n        /* \"Vesting_flattened.sol\":5233:5246  _checkOwner() */\n      tag_115\n        /* \"Vesting_flattened.sol\":5233:5244  _checkOwner */\n      tag_79\n        /* \"Vesting_flattened.sol\":5233:5246  _checkOwner() */\n      jump\t// in\n    tag_115:\n        /* \"Vesting_flattened.sol\":6353:6354  0 */\n      0x00\n        /* \"Vesting_flattened.sol\":6333:6355  newOwner == address(0) */\n      0xffffffffffffffffffffffffffffffffffffffff\n      and\n        /* \"Vesting_flattened.sol\":6333:6341  newOwner */\n      dup2\n        /* \"Vesting_flattened.sol\":6333:6355  newOwner == address(0) */\n      0xffffffffffffffffffffffffffffffffffffffff\n      and\n      eq\n        /* \"Vesting_flattened.sol\":6329:6420  if (newOwner == address(0)) {... */\n      iszero\n      tag_117\n      jumpi\n        /* \"Vesting_flattened.sol\":6406:6407  0 */\n      0x00\n        /* \"Vesting_flattened.sol\":6378:6409  OwnableInvalidOwner(address(0)) */\n      mload(0x40)\n      0x1e4fbdf700000000000000000000000000000000000000000000000000000000\n      dup2\n      mstore\n      0x04\n      add\n      tag_118\n      swap2\n      swap1\n      tag_27\n      jump\t// in\n    tag_118:\n      mload(0x40)\n      dup1\n      swap2\n      sub\n      swap1\n      revert\n        /* \"Vesting_flattened.sol\":6329:6420  if (newOwner == address(0)) {... */\n    tag_117:\n        /* \"Vesting_flattened.sol\":6429:6457  _transferOwnership(newOwner) */\n      tag_119\n        /* \"Vesting_flattened.sol\":6448:6456  newOwner */\n      dup2\n        /* \"Vesting_flattened.sol\":6429:6447  _transferOwnership */\n      tag_82\n        /* \"Vesting_flattened.sol\":6429:6457  _transferOwnership(newOwner) */\n      jump\t// in\n    tag_119:\n        /* \"Vesting_flattened.sol\":6247:6464  function transferOwnership(address newOwner) external virtual onlyOwner {... */\n      pop\n      jump\t// out\n        /* \"Vesting_flattened.sol\":6917:6940  address public receiver */\n    tag_50:\n      0x02\n      0x00\n      swap1\n      sload\n      swap1\n      0x0100\n      exp\n      swap1\n      div\n      0xffffffffffffffffffffffffffffffffffffffff\n      and\n      dup2\n      jump\t// out\n        /* \"Vesting_flattened.sol\":6892:6911  IERC20 public token */\n    tag_53:\n      0x01\n      0x00\n      swap1\n      sload\n      swap1\n      0x0100\n      exp\n      swap1\n      div\n      0xffffffffffffffffffffffffffffffffffffffff\n      and\n      dup2\n      jump\t// out\n        /* \"Vesting_flattened.sol\":5498:5660  function _checkOwner() internal view virtual {... */\n    tag_79:\n        /* \"Vesting_flattened.sol\":5568:5580  _msgSender() */\n      tag_121\n        /* \"Vesting_flattened.sol\":5568:5578  _msgSender */\n      tag_122\n        /* \"Vesting_flattened.sol\":5568:5580  _msgSender() */\n      jump\t// in\n    tag_121:\n        /* \"Vesting_flattened.sol\":5557:5580  owner() != _msgSender() */\n      0xffffffffffffffffffffffffffffffffffffffff\n      and\n        /* \"Vesting_flattened.sol\":5557:5564  owner() */\n      tag_123\n        /* \"Vesting_flattened.sol\":5557:5562  owner */\n      tag_25\n        /* \"Vesting_flattened.sol\":5557:5564  owner() */\n      jump\t// in\n    tag_123:\n        /* \"Vesting_flattened.sol\":5557:5580  owner() != _msgSender() */\n      0xffffffffffffffffffffffffffffffffffffffff\n      and\n      eq\n        /* \"Vesting_flattened.sol\":5553:5654  if (owner() != _msgSender()) {... */\n      tag_124\n      jumpi\n        /* \"Vesting_flattened.sol\":5630:5642  _msgSender() */\n      tag_125\n        /* \"Vesting_flattened.sol\":5630:5640  _msgSender */\n      tag_122\n        /* \"Vesting_flattened.sol\":5630:5642  _msgSender() */\n      jump\t// in\n    tag_125:\n        /* \"Vesting_flattened.sol\":5603:5643  OwnableUnauthorizedAccount(_msgSender()) */\n      mload(0x40)\n      0x118cdaa700000000000000000000000000000000000000000000000000000000\n      dup2\n      mstore\n      0x04\n      add\n      tag_126\n      swap2\n      swap1\n      tag_27\n      jump\t// in\n    tag_126:\n      mload(0x40)\n      dup1\n      swap2\n      sub\n      swap1\n      revert\n        /* \"Vesting_flattened.sol\":5553:5654  if (owner() != _msgSender()) {... */\n    tag_124:\n        /* \"Vesting_flattened.sol\":5498:5660  function _checkOwner() internal view virtual {... */\n      jump\t// out\n        /* \"Vesting_flattened.sol\":6618:6805  function _transferOwnership(address newOwner) internal virtual {... */\n    tag_82:\n        /* \"Vesting_flattened.sol\":6691:6707  address oldOwner */\n      0x00\n        /* \"Vesting_flattened.sol\":6710:6716  _owner */\n      dup1\n      0x00\n      swap1\n      sload\n      swap1\n      0x0100\n      exp\n      swap1\n      div\n      0xffffffffffffffffffffffffffffffffffffffff\n      and\n        /* \"Vesting_flattened.sol\":6691:6716  address oldOwner = _owner */\n      swap1\n      pop\n        /* \"Vesting_flattened.sol\":6735:6743  newOwner */\n      dup2\n        /* \"Vesting_flattened.sol\":6726:6732  _owner */\n      0x00\n      dup1\n        /* \"Vesting_flattened.sol\":6726:6743  _owner = newOwner */\n      0x0100\n      exp\n      dup2\n      sload\n      dup2\n      0xffffffffffffffffffffffffffffffffffffffff\n      mul\n      not\n      and\n      swap1\n      dup4\n      0xffffffffffffffffffffffffffffffffffffffff\n      and\n      mul\n      or\n      swap1\n      sstore\n      pop\n        /* \"Vesting_flattened.sol\":6789:6797  newOwner */\n      dup2\n        /* \"Vesting_flattened.sol\":6758:6798  OwnershipTransferred(oldOwner, newOwner) */\n      0xffffffffffffffffffffffffffffffffffffffff\n      and\n        /* \"Vesting_flattened.sol\":6779:6787  oldOwner */\n      dup2\n        /* \"Vesting_flattened.sol\":6758:6798  OwnershipTransferred(oldOwner, newOwner) */\n      0xffffffffffffffffffffffffffffffffffffffff\n      and\n      0x8be0079c531659141344cd1fd0a4f28419497f9722a3daafe3b4186f6b6457e0\n      mload(0x40)\n      mload(0x40)\n      dup1\n      swap2\n      sub\n      swap1\n      log3\n        /* \"Vesting_flattened.sol\":6681:6805  {... */\n      pop\n        /* \"Vesting_flattened.sol\":6618:6805  function _transferOwnership(address newOwner) internal virtual {... */\n      pop\n      jump\t// out\n        /* \"Vesting_flattened.sol\":3513:3609  function _msgSender() internal view virtual returns (address) {... */\n    tag_122:\n        /* \"Vesting_flattened.sol\":3566:3573  address */\n      0x00\n        /* \"Vesting_flattened.sol\":3592:3602  msg.sender */\n      caller\n        /* \"Vesting_flattened.sol\":3585:3602  return msg.sender */\n      swap1\n      pop\n        /* \"Vesting_flattened.sol\":3513:3609  function _msgSender() internal view virtual returns (address) {... */\n      swap1\n      jump\t// out\n        /* \"#utility.yul\":7:146   */\n    tag_130:\n        /* \"#utility.yul\":53:58   */\n      0x00\n        /* \"#utility.yul\":91:97   */\n      dup2\n        /* \"#utility.yul\":78:98   */\n      calldataload\n        /* \"#utility.yul\":69:98   */\n      swap1\n      pop\n        /* \"#utility.yul\":107:140   */\n      tag_132\n        /* \"#utility.yul\":134:139   */\n      dup2\n        /* \"#utility.yul\":107:140   */\n      tag_133\n      jump\t// in\n    tag_132:\n        /* \"#utility.yul\":7:146   */\n      swap3\n      swap2\n      pop\n      pop\n      jump\t// out\n        /* \"#utility.yul\":152:289   */\n    tag_134:\n        /* \"#utility.yul\":206:211   */\n      0x00\n        /* \"#utility.yul\":237:243   */\n      dup2\n        /* \"#utility.yul\":231:244   */\n      mload\n        /* \"#utility.yul\":222:244   */\n      swap1\n      pop\n        /* \"#utility.yul\":253:283   */\n      tag_136\n        /* \"#utility.yul\":277:282   */\n      dup2\n        /* \"#utility.yul\":253:283   */\n      tag_137\n      jump\t// in\n    tag_136:\n        /* \"#utility.yul\":152:289   */\n      swap3\n      swap2\n      pop\n      pop\n      jump\t// out\n        /* \"#utility.yul\":295:434   */\n    tag_138:\n        /* \"#utility.yul\":341:346   */\n      0x00\n        /* \"#utility.yul\":379:385   */\n      dup2\n        /* \"#utility.yul\":366:386   */\n      calldataload\n        /* \"#utility.yul\":357:386   */\n      swap1\n      pop\n        /* \"#utility.yul\":395:428   */\n      tag_140\n        /* \"#utility.yul\":422:427   */\n      dup2\n        /* \"#utility.yul\":395:428   */\n      tag_141\n      jump\t// in\n    tag_140:\n        /* \"#utility.yul\":295:434   */\n      swap3\n      swap2\n      pop\n      pop\n      jump\t// out\n        /* \"#utility.yul\":440:583   */\n    tag_142:\n        /* \"#utility.yul\":497:502   */\n      0x00\n        /* \"#utility.yul\":528:534   */\n      dup2\n        /* \"#utility.yul\":522:535   */\n      mload\n        /* \"#utility.yul\":513:535   */\n      swap1\n      pop\n        /* \"#utility.yul\":544:577   */\n      tag_144\n        /* \"#utility.yul\":571:576   */\n      dup2\n        /* \"#utility.yul\":544:577   */\n      tag_141\n      jump\t// in\n    tag_144:\n        /* \"#utility.yul\":440:583   */\n      swap3\n      swap2\n      pop\n      pop\n      jump\t// out\n        /* \"#utility.yul\":589:918   */\n    tag_47:\n        /* \"#utility.yul\":648:654   */\n      0x00\n        /* \"#utility.yul\":697:699   */\n      0x20\n        /* \"#utility.yul\":685:694   */\n      dup3\n        /* \"#utility.yul\":676:683   */\n      dup5\n        /* \"#utility.yul\":672:695   */\n      sub\n        /* \"#utility.yul\":668:700   */\n      slt\n        /* \"#utility.yul\":665:784   */\n      iszero\n      tag_146\n      jumpi\n        /* \"#utility.yul\":703:782   */\n      tag_147\n      tag_148\n      jump\t// in\n    tag_147:\n        /* \"#utility.yul\":665:784   */\n    tag_146:\n        /* \"#utility.yul\":823:824   */\n      0x00\n        /* \"#utility.yul\":848:901   */\n      tag_149\n        /* \"#utility.yul\":893:900   */\n      dup5\n        /* \"#utility.yul\":884:890   */\n      dup3\n        /* \"#utility.yul\":873:882   */\n      dup6\n        /* \"#utility.yul\":869:891   */\n      add\n        /* \"#utility.yul\":848:901   */\n      tag_130\n      jump\t// in\n    tag_149:\n        /* \"#utility.yul\":838:901   */\n      swap2\n      pop\n        /* \"#utility.yul\":794:911   */\n      pop\n        /* \"#utility.yul\":589:918   */\n      swap3\n      swap2\n      pop\n      pop\n      jump\t// out\n        /* \"#utility.yul\":924:1543   */\n    tag_37:\n        /* \"#utility.yul\":1001:1007   */\n      0x00\n        /* \"#utility.yul\":1009:1015   */\n      dup1\n        /* \"#utility.yul\":1017:1023   */\n      0x00\n        /* \"#utility.yul\":1066:1068   */\n      0x60\n        /* \"#utility.yul\":1054:1063   */\n      dup5\n        /* \"#utility.yul\":1045:1052   */\n      dup7\n        /* \"#utility.yul\":1041:1064   */\n      sub\n        /* \"#utility.yul\":1037:1069   */\n      slt\n        /* \"#utility.yul\":1034:1153   */\n      iszero\n      tag_151\n      jumpi\n        /* \"#utility.yul\":1072:1151   */\n      tag_152\n      tag_148\n      jump\t// in\n    tag_152:\n        /* \"#utility.yul\":1034:1153   */\n    tag_151:\n        /* \"#utility.yul\":1192:1193   */\n      0x00\n        /* \"#utility.yul\":1217:1270   */\n      tag_153\n        /* \"#utility.yul\":1262:1269   */\n      dup7\n        /* \"#utility.yul\":1253:1259   */\n      dup3\n        /* \"#utility.yul\":1242:1251   */\n      dup8\n        /* \"#utility.yul\":1238:1260   */\n      add\n        /* \"#utility.yul\":1217:1270   */\n      tag_130\n      jump\t// in\n    tag_153:\n        /* \"#utility.yul\":1207:1270   */\n      swap4\n      pop\n        /* \"#utility.yul\":1163:1280   */\n      pop\n        /* \"#utility.yul\":1319:1321   */\n      0x20\n        /* \"#utility.yul\":1345:1398   */\n      tag_154\n        /* \"#utility.yul\":1390:1397   */\n      dup7\n        /* \"#utility.yul\":1381:1387   */\n      dup3\n        /* \"#utility.yul\":1370:1379   */\n      dup8\n        /* \"#utility.yul\":1366:1388   */\n      add\n        /* \"#utility.yul\":1345:1398   */\n      tag_138\n      jump\t// in\n    tag_154:\n        /* \"#utility.yul\":1335:1398   */\n      swap3\n      pop\n        /* \"#utility.yul\":1290:1408   */\n      pop\n        /* \"#utility.yul\":1447:1449   */\n      0x40\n        /* \"#utility.yul\":1473:1526   */\n      tag_155\n        /* \"#utility.yul\":1518:1525   */\n      dup7\n        /* \"#utility.yul\":1509:1515   */\n      dup3\n        /* \"#utility.yul\":1498:1507   */\n      dup8\n        /* \"#utility.yul\":1494:1516   */\n      add\n        /* \"#utility.yul\":1473:1526   */\n      tag_138\n      jump\t// in\n    tag_155:\n        /* \"#utility.yul\":1463:1526   */\n      swap2\n      pop\n        /* \"#utility.yul\":1418:1536   */\n      pop\n        /* \"#utility.yul\":924:1543   */\n      swap3\n      pop\n      swap3\n      pop\n      swap3\n      jump\t// out\n        /* \"#utility.yul\":1549:1894   */\n    tag_72:\n        /* \"#utility.yul\":1616:1622   */\n      0x00\n        /* \"#utility.yul\":1665:1667   */\n      0x20\n        /* \"#utility.yul\":1653:1662   */\n      dup3\n        /* \"#utility.yul\":1644:1651   */\n      dup5\n        /* \"#utility.yul\":1640:1663   */\n      sub\n        /* \"#utility.yul\":1636:1668   */\n      slt\n        /* \"#utility.yul\":1633:1752   */\n      iszero\n      tag_157\n      jumpi\n        /* \"#utility.yul\":1671:1750   */\n      tag_158\n      tag_148\n      jump\t// in\n    tag_158:\n        /* \"#utility.yul\":1633:1752   */\n    tag_157:\n        /* \"#utility.yul\":1791:1792   */\n      0x00\n        /* \"#utility.yul\":1816:1877   */\n      tag_159\n        /* \"#utility.yul\":1869:1876   */\n      dup5\n        /* \"#utility.yul\":1860:1866   */\n      dup3\n        /* \"#utility.yul\":1849:1858   */\n      dup6\n        /* \"#utility.yul\":1845:1867   */\n      add\n        /* \"#utility.yul\":1816:1877   */\n      tag_134\n      jump\t// in\n    tag_159:\n        /* \"#utility.yul\":1806:1877   */\n      swap2\n      pop\n        /* \"#utility.yul\":1762:1887   */\n      pop\n        /* \"#utility.yul\":1549:1894   */\n      swap3\n      swap2\n      pop\n      pop\n      jump\t// out\n        /* \"#utility.yul\":1900:2251   */\n    tag_95:\n        /* \"#utility.yul\":1970:1976   */\n      0x00\n        /* \"#utility.yul\":2019:2021   */\n      0x20\n        /* \"#utility.yul\":2007:2016   */\n      dup3\n        /* \"#utility.yul\":1998:2005   */\n      dup5\n        /* \"#utility.yul\":1994:2017   */\n      sub\n        /* \"#utility.yul\":1990:2022   */\n      slt\n        /* \"#utility.yul\":1987:2106   */\n      iszero\n      tag_161\n      jumpi\n        /* \"#utility.yul\":2025:2104   */\n      tag_162\n      tag_148\n      jump\t// in\n    tag_162:\n        /* \"#utility.yul\":1987:2106   */\n    tag_161:\n        /* \"#utility.yul\":2145:2146   */\n      0x00\n        /* \"#utility.yul\":2170:2234   */\n      tag_163\n        /* \"#utility.yul\":2226:2233   */\n      dup5\n        /* \"#utility.yul\":2217:2223   */\n      dup3\n        /* \"#utility.yul\":2206:2215   */\n      dup6\n        /* \"#utility.yul\":2202:2224   */\n      add\n        /* \"#utility.yul\":2170:2234   */\n      tag_142\n      jump\t// in\n    tag_163:\n        /* \"#utility.yul\":2160:2234   */\n      swap2\n      pop\n        /* \"#utility.yul\":2116:2244   */\n      pop\n        /* \"#utility.yul\":1900:2251   */\n      swap3\n      swap2\n      pop\n      pop\n      jump\t// out\n        /* \"#utility.yul\":2257:2375   */\n    tag_164:\n        /* \"#utility.yul\":2344:2368   */\n      tag_166\n        /* \"#utility.yul\":2362:2367   */\n      dup2\n        /* \"#utility.yul\":2344:2368   */\n      tag_167\n      jump\t// in\n    tag_166:\n        /* \"#utility.yul\":2339:2342   */\n      dup3\n        /* \"#utility.yul\":2332:2369   */\n      mstore\n        /* \"#utility.yul\":2257:2375   */\n      pop\n      pop\n      jump\t// out\n        /* \"#utility.yul\":2381:2490   */\n    tag_168:\n        /* \"#utility.yul\":2462:2483   */\n      tag_170\n        /* \"#utility.yul\":2477:2482   */\n      dup2\n        /* \"#utility.yul\":2462:2483   */\n      tag_171\n      jump\t// in\n    tag_170:\n        /* \"#utility.yul\":2457:2460   */\n      dup3\n        /* \"#utility.yul\":2450:2484   */\n      mstore\n        /* \"#utility.yul\":2381:2490   */\n      pop\n      pop\n      jump\t// out\n        /* \"#utility.yul\":2496:2653   */\n    tag_172:\n        /* \"#utility.yul\":2596:2646   */\n      tag_174\n        /* \"#utility.yul\":2640:2645   */\n      dup2\n        /* \"#utility.yul\":2596:2646   */\n      tag_175\n      jump\t// in\n    tag_174:\n        /* \"#utility.yul\":2591:2594   */\n      dup3\n        /* \"#utility.yul\":2584:2647   */\n      mstore\n        /* \"#utility.yul\":2496:2653   */\n      pop\n      pop\n      jump\t// out\n        /* \"#utility.yul\":2659:3025   */\n    tag_176:\n        /* \"#utility.yul\":2801:2804   */\n      0x00\n        /* \"#utility.yul\":2822:2889   */\n      tag_178\n        /* \"#utility.yul\":2886:2888   */\n      0x1b\n        /* \"#utility.yul\":2881:2884   */\n      dup4\n        /* \"#utility.yul\":2822:2889   */\n      tag_179\n      jump\t// in\n    tag_178:\n        /* \"#utility.yul\":2815:2889   */\n      swap2\n      pop\n        /* \"#utility.yul\":2898:2991   */\n      tag_180\n        /* \"#utility.yul\":2987:2990   */\n      dup3\n        /* \"#utility.yul\":2898:2991   */\n      tag_181\n      jump\t// in\n    tag_180:\n        /* \"#utility.yul\":3016:3018   */\n      0x20\n        /* \"#utility.yul\":3011:3014   */\n      dup3\n        /* \"#utility.yul\":3007:3019   */\n      add\n        /* \"#utility.yul\":3000:3019   */\n      swap1\n      pop\n        /* \"#utility.yul\":2659:3025   */\n      swap2\n      swap1\n      pop\n      jump\t// out\n        /* \"#utility.yul\":3031:3397   */\n    tag_182:\n        /* \"#utility.yul\":3173:3176   */\n      0x00\n        /* \"#utility.yul\":3194:3261   */\n      tag_184\n        /* \"#utility.yul\":3258:3260   */\n      0x18\n        /* \"#utility.yul\":3253:3256   */\n      dup4\n        /* \"#utility.yul\":3194:3261   */\n      tag_179\n      jump\t// in\n    tag_184:\n        /* \"#utility.yul\":3187:3261   */\n      swap2\n      pop\n        /* \"#utility.yul\":3270:3363   */\n      tag_185\n        /* \"#utility.yul\":3359:3362   */\n      dup3\n        /* \"#utility.yul\":3270:3363   */\n      tag_186\n      jump\t// in\n    tag_185:\n        /* \"#utility.yul\":3388:3390   */\n      0x20\n        /* \"#utility.yul\":3383:3386   */\n      dup3\n        /* \"#utility.yul\":3379:3391   */\n      add\n        /* \"#utility.yul\":3372:3391   */\n      swap1\n      pop\n        /* \"#utility.yul\":3031:3397   */\n      swap2\n      swap1\n      pop\n      jump\t// out\n        /* \"#utility.yul\":3403:3769   */\n    tag_187:\n        /* \"#utility.yul\":3545:3548   */\n      0x00\n        /* \"#utility.yul\":3566:3633   */\n      tag_189\n        /* \"#utility.yul\":3630:3632   */\n      0x18\n        /* \"#utility.yul\":3625:3628   */\n      dup4\n        /* \"#utility.yul\":3566:3633   */\n      tag_179\n      jump\t// in\n    tag_189:\n        /* \"#utility.yul\":3559:3633   */\n      swap2\n      pop\n        /* \"#utility.yul\":3642:3735   */\n      tag_190\n        /* \"#utility.yul\":3731:3734   */\n      dup3\n        /* \"#utility.yul\":3642:3735   */\n      tag_191\n      jump\t// in\n    tag_190:\n        /* \"#utility.yul\":3760:3762   */\n      0x20\n        /* \"#utility.yul\":3755:3758   */\n      dup3\n        /* \"#utility.yul\":3751:3763   */\n      add\n        /* \"#utility.yul\":3744:3763   */\n      swap1\n      pop\n        /* \"#utility.yul\":3403:3769   */\n      swap2\n      swap1\n      pop\n      jump\t// out\n        /* \"#utility.yul\":3775:4141   */\n    tag_192:\n        /* \"#utility.yul\":3917:3920   */\n      0x00\n        /* \"#utility.yul\":3938:4005   */\n      tag_194\n        /* \"#utility.yul\":4002:4004   */\n      0x15\n        /* \"#utility.yul\":3997:4000   */\n      dup4\n        /* \"#utility.yul\":3938:4005   */\n      tag_179\n      jump\t// in\n    tag_194:\n        /* \"#utility.yul\":3931:4005   */\n      swap2\n      pop\n        /* \"#utility.yul\":4014:4107   */\n      tag_195\n        /* \"#utility.yul\":4103:4106   */\n      dup3\n        /* \"#utility.yul\":4014:4107   */\n      tag_196\n      jump\t// in\n    tag_195:\n        /* \"#utility.yul\":4132:4134   */\n      0x20\n        /* \"#utility.yul\":4127:4130   */\n      dup3\n        /* \"#utility.yul\":4123:4135   */\n      add\n        /* \"#utility.yul\":4116:4135   */\n      swap1\n      pop\n        /* \"#utility.yul\":3775:4141   */\n      swap2\n      swap1\n      pop\n      jump\t// out\n        /* \"#utility.yul\":4147:4513   */\n    tag_197:\n        /* \"#utility.yul\":4289:4292   */\n      0x00\n        /* \"#utility.yul\":4310:4377   */\n      tag_199\n        /* \"#utility.yul\":4374:4376   */\n      0x20\n        /* \"#utility.yul\":4369:4372   */\n      dup4\n        /* \"#utility.yul\":4310:4377   */\n      tag_179\n      jump\t// in\n    tag_199:\n        /* \"#utility.yul\":4303:4377   */\n      swap2\n      pop\n        /* \"#utility.yul\":4386:4479   */\n      tag_200\n        /* \"#utility.yul\":4475:4478   */\n      dup3\n        /* \"#utility.yul\":4386:4479   */\n      tag_201\n      jump\t// in\n    tag_200:\n        /* \"#utility.yul\":4504:4506   */\n      0x20\n        /* \"#utility.yul\":4499:4502   */\n      dup3\n        /* \"#utility.yul\":4495:4507   */\n      add\n        /* \"#utility.yul\":4488:4507   */\n      swap1\n      pop\n        /* \"#utility.yul\":4147:4513   */\n      swap2\n      swap1\n      pop\n      jump\t// out\n        /* \"#utility.yul\":4519:4885   */\n    tag_202:\n        /* \"#utility.yul\":4661:4664   */\n      0x00\n        /* \"#utility.yul\":4682:4749   */\n      tag_204\n        /* \"#utility.yul\":4746:4748   */\n      0x14\n        /* \"#utility.yul\":4741:4744   */\n      dup4\n        /* \"#utility.yul\":4682:4749   */\n      tag_179\n      jump\t// in\n    tag_204:\n        /* \"#utility.yul\":4675:4749   */\n      swap2\n      pop\n        /* \"#utility.yul\":4758:4851   */\n      tag_205\n        /* \"#utility.yul\":4847:4850   */\n      dup3\n        /* \"#utility.yul\":4758:4851   */\n      tag_206\n      jump\t// in\n    tag_205:\n        /* \"#utility.yul\":4876:4878   */\n      0x20\n        /* \"#utility.yul\":4871:4874   */\n      dup3\n        /* \"#utility.yul\":4867:4879   */\n      add\n        /* \"#utility.yul\":4860:4879   */\n      swap1\n      pop\n        /* \"#utility.yul\":4519:4885   */\n      swap2\n      swap1\n      pop\n      jump\t// out\n        /* \"#utility.yul\":4891:5257   */\n    tag_207:\n        /* \"#utility.yul\":5033:5036   */\n      0x00\n        /* \"#utility.yul\":5054:5121   */\n      tag_209\n        /* \"#utility.yul\":5118:5120   */\n      0x24\n        /* \"#utility.yul\":5113:5116   */\n      dup4\n        /* \"#utility.yul\":5054:5121   */\n      tag_179\n      jump\t// in\n    tag_209:\n        /* \"#utility.yul\":5047:5121   */\n      swap2\n      pop\n        /* \"#utility.yul\":5130:5223   */\n      tag_210\n        /* \"#utility.yul\":5219:5222   */\n      dup3\n        /* \"#utility.yul\":5130:5223   */\n      tag_211\n      jump\t// in\n    tag_210:\n        /* \"#utility.yul\":5248:5250   */\n      0x40\n        /* \"#utility.yul\":5243:5246   */\n      dup3\n        /* \"#utility.yul\":5239:5251   */\n      add\n        /* \"#utility.yul\":5232:5251   */\n      swap1\n      pop\n        /* \"#utility.yul\":4891:5257   */\n      swap2\n      swap1\n      pop\n      jump\t// out\n        /* \"#utility.yul\":5263:5381   */\n    tag_212:\n        /* \"#utility.yul\":5350:5374   */\n      tag_214\n        /* \"#utility.yul\":5368:5373   */\n      dup2\n        /* \"#utility.yul\":5350:5374   */\n      tag_215\n      jump\t// in\n    tag_214:\n        /* \"#utility.yul\":5345:5348   */\n      dup3\n        /* \"#utility.yul\":5338:5375   */\n      mstore\n        /* \"#utility.yul\":5263:5381   */\n      pop\n      pop\n      jump\t// out\n        /* \"#utility.yul\":5387:5609   */\n    tag_27:\n        /* \"#utility.yul\":5480:5484   */\n      0x00\n        /* \"#utility.yul\":5518:5520   */\n      0x20\n        /* \"#utility.yul\":5507:5516   */\n      dup3\n        /* \"#utility.yul\":5503:5521   */\n      add\n        /* \"#utility.yul\":5495:5521   */\n      swap1\n      pop\n        /* \"#utility.yul\":5531:5602   */\n      tag_217\n        /* \"#utility.yul\":5599:5600   */\n      0x00\n        /* \"#utility.yul\":5588:5597   */\n      dup4\n        /* \"#utility.yul\":5584:5601   */\n      add\n        /* \"#utility.yul\":5575:5581   */\n      dup5\n        /* \"#utility.yul\":5531:5602   */\n      tag_164\n      jump\t// in\n    tag_217:\n        /* \"#utility.yul\":5387:5609   */\n      swap3\n      swap2\n      pop\n      pop\n      jump\t// out\n        /* \"#utility.yul\":5615:6057   */\n    tag_105:\n        /* \"#utility.yul\":5764:5768   */\n      0x00\n        /* \"#utility.yul\":5802:5804   */\n      0x60\n        /* \"#utility.yul\":5791:5800   */\n      dup3\n        /* \"#utility.yul\":5787:5805   */\n      add\n        /* \"#utility.yul\":5779:5805   */\n      swap1\n      pop\n        /* \"#utility.yul\":5815:5886   */\n      tag_219\n        /* \"#utility.yul\":5883:5884   */\n      0x00\n        /* \"#utility.yul\":5872:5881   */\n      dup4\n        /* \"#utility.yul\":5868:5885   */\n      add\n        /* \"#utility.yul\":5859:5865   */\n      dup7\n        /* \"#utility.yul\":5815:5886   */\n      tag_164\n      jump\t// in\n    tag_219:\n        /* \"#utility.yul\":5896:5968   */\n      tag_220\n        /* \"#utility.yul\":5964:5966   */\n      0x20\n        /* \"#utility.yul\":5953:5962   */\n      dup4\n        /* \"#utility.yul\":5949:5967   */\n      add\n        /* \"#utility.yul\":5940:5946   */\n      dup6\n        /* \"#utility.yul\":5896:5968   */\n      tag_164\n      jump\t// in\n    tag_220:\n        /* \"#utility.yul\":5978:6050   */\n      tag_221\n        /* \"#utility.yul\":6046:6048   */\n      0x40\n        /* \"#utility.yul\":6035:6044   */\n      dup4\n        /* \"#utility.yul\":6031:6049   */\n      add\n        /* \"#utility.yul\":6022:6028   */\n      dup5\n        /* \"#utility.yul\":5978:6050   */\n      tag_212\n      jump\t// in\n    tag_221:\n        /* \"#utility.yul\":5615:6057   */\n      swap5\n      swap4\n      pop\n      pop\n      pop\n      pop\n      jump\t// out\n        /* \"#utility.yul\":6063:6395   */\n    tag_67:\n        /* \"#utility.yul\":6184:6188   */\n      0x00\n        /* \"#utility.yul\":6222:6224   */\n      0x40\n        /* \"#utility.yul\":6211:6220   */\n      dup3\n        /* \"#utility.yul\":6207:6225   */\n      add\n        /* \"#utility.yul\":6199:6225   */\n      swap1\n      pop\n        /* \"#utility.yul\":6235:6306   */\n      tag_223\n        /* \"#utility.yul\":6303:6304   */\n      0x00\n        /* \"#utility.yul\":6292:6301   */\n      dup4\n        /* \"#utility.yul\":6288:6305   */\n      add\n        /* \"#utility.yul\":6279:6285   */\n      dup6\n        /* \"#utility.yul\":6235:6306   */\n      tag_164\n      jump\t// in\n    tag_223:\n        /* \"#utility.yul\":6316:6388   */\n      tag_224\n        /* \"#utility.yul\":6384:6386   */\n      0x20\n        /* \"#utility.yul\":6373:6382   */\n      dup4\n        /* \"#utility.yul\":6369:6387   */\n      add\n        /* \"#utility.yul\":6360:6366   */\n      dup5\n        /* \"#utility.yul\":6316:6388   */\n      tag_212\n      jump\t// in\n    tag_224:\n        /* \"#utility.yul\":6063:6395   */\n      swap4\n      swap3\n      pop\n      pop\n      pop\n      jump\t// out\n        /* \"#utility.yul\":6401:6611   */\n    tag_34:\n        /* \"#utility.yul\":6488:6492   */\n      0x00\n        /* \"#utility.yul\":6526:6528   */\n      0x20\n        /* \"#utility.yul\":6515:6524   */\n      dup3\n        /* \"#utility.yul\":6511:6529   */\n      add\n        /* \"#utility.yul\":6503:6529   */\n      swap1\n      pop\n        /* \"#utility.yul\":6539:6604   */\n      tag_226\n        /* \"#utility.yul\":6601:6602   */\n      0x00\n        /* \"#utility.yul\":6590:6599   */\n      dup4\n        /* \"#utility.yul\":6586:6603   */\n      add\n        /* \"#utility.yul\":6577:6583   */\n      dup5\n        /* \"#utility.yul\":6539:6604   */\n      tag_168\n      jump\t// in\n    tag_226:\n        /* \"#utility.yul\":6401:6611   */\n      swap3\n      swap2\n      pop\n      pop\n      jump\t// out\n        /* \"#utility.yul\":6617:6865   */\n    tag_55:\n        /* \"#utility.yul\":6723:6727   */\n      0x00\n        /* \"#utility.yul\":6761:6763   */\n      0x20\n        /* \"#utility.yul\":6750:6759   */\n      dup3\n        /* \"#utility.yul\":6746:6764   */\n      add\n        /* \"#utility.yul\":6738:6764   */\n      swap1\n      pop\n        /* \"#utility.yul\":6774:6858   */\n      tag_228\n        /* \"#utility.yul\":6855:6856   */\n      0x00\n        /* \"#utility.yul\":6844:6853   */\n      dup4\n        /* \"#utility.yul\":6840:6857   */\n      add\n        /* \"#utility.yul\":6831:6837   */\n      dup5\n        /* \"#utility.yul\":6774:6858   */\n      tag_172\n      jump\t// in\n    tag_228:\n        /* \"#utility.yul\":6617:6865   */\n      swap3\n      swap2\n      pop\n      pop\n      jump\t// out\n        /* \"#utility.yul\":6871:7290   */\n    tag_62:\n        /* \"#utility.yul\":7037:7041   */\n      0x00\n        /* \"#utility.yul\":7075:7077   */\n      0x20\n        /* \"#utility.yul\":7064:7073   */\n      dup3\n        /* \"#utility.yul\":7060:7078   */\n      add\n        /* \"#utility.yul\":7052:7078   */\n      swap1\n      pop\n        /* \"#utility.yul\":7124:7133   */\n      dup2\n        /* \"#utility.yul\":7118:7122   */\n      dup2\n        /* \"#utility.yul\":7114:7134   */\n      sub\n        /* \"#utility.yul\":7110:7111   */\n      0x00\n        /* \"#utility.yul\":7099:7108   */\n      dup4\n        /* \"#utility.yul\":7095:7112   */\n      add\n        /* \"#utility.yul\":7088:7135   */\n      mstore\n        /* \"#utility.yul\":7152:7283   */\n      tag_230\n        /* \"#utility.yul\":7278:7282   */\n      dup2\n        /* \"#utility.yul\":7152:7283   */\n      tag_176\n      jump\t// in\n    tag_230:\n        /* \"#utility.yul\":7144:7283   */\n      swap1\n      pop\n        /* \"#utility.yul\":6871:7290   */\n      swap2\n      swap1\n      pop\n      jump\t// out\n        /* \"#utility.yul\":7296:7715   */\n    tag_89:\n        /* \"#utility.yul\":7462:7466   */\n      0x00\n        /* \"#utility.yul\":7500:7502   */\n      0x20\n        /* \"#utility.yul\":7489:7498   */\n      dup3\n        /* \"#utility.yul\":7485:7503   */\n      add\n        /* \"#utility.yul\":7477:7503   */\n      swap1\n      pop\n        /* \"#utility.yul\":7549:7558   */\n      dup2\n        /* \"#utility.yul\":7543:7547   */\n      dup2\n        /* \"#utility.yul\":7539:7559   */\n      sub\n        /* \"#utility.yul\":7535:7536   */\n      0x00\n        /* \"#utility.yul\":7524:7533   */\n      dup4\n        /* \"#utility.yul\":7520:7537   */\n      add\n        /* \"#utility.yul\":7513:7560   */\n      mstore\n        /* \"#utility.yul\":7577:7708   */\n      tag_232\n        /* \"#utility.yul\":7703:7707   */\n      dup2\n        /* \"#utility.yul\":7577:7708   */\n      tag_182\n      jump\t// in\n    tag_232:\n        /* \"#utility.yul\":7569:7708   */\n      swap1\n      pop\n        /* \"#utility.yul\":7296:7715   */\n      swap2\n      swap1\n      pop\n      jump\t// out\n        /* \"#utility.yul\":7721:8140   */\n    tag_101:\n        /* \"#utility.yul\":7887:7891   */\n      0x00\n        /* \"#utility.yul\":7925:7927   */\n      0x20\n        /* \"#utility.yul\":7914:7923   */\n      dup3\n        /* \"#utility.yul\":7910:7928   */\n      add\n        /* \"#utility.yul\":7902:7928   */\n      swap1\n      pop\n        /* \"#utility.yul\":7974:7983   */\n      dup2\n        /* \"#utility.yul\":7968:7972   */\n      dup2\n        /* \"#utility.yul\":7964:7984   */\n      sub\n        /* \"#utility.yul\":7960:7961   */\n      0x00\n        /* \"#utility.yul\":7949:7958   */\n      dup4\n        /* \"#utility.yul\":7945:7962   */\n      add\n        /* \"#utility.yul\":7938:7985   */\n      mstore\n        /* \"#utility.yul\":8002:8133   */\n      tag_234\n        /* \"#utility.yul\":8128:8132   */\n      dup2\n        /* \"#utility.yul\":8002:8133   */\n      tag_187\n      jump\t// in\n    tag_234:\n        /* \"#utility.yul\":7994:8133   */\n      swap1\n      pop\n        /* \"#utility.yul\":7721:8140   */\n      swap2\n      swap1\n      pop\n      jump\t// out\n        /* \"#utility.yul\":8146:8565   */\n    tag_75:\n        /* \"#utility.yul\":8312:8316   */\n      0x00\n        /* \"#utility.yul\":8350:8352   */\n      0x20\n        /* \"#utility.yul\":8339:8348   */\n      dup3\n        /* \"#utility.yul\":8335:8353   */\n      add\n        /* \"#utility.yul\":8327:8353   */\n      swap1\n      pop\n        /* \"#utility.yul\":8399:8408   */\n      dup2\n        /* \"#utility.yul\":8393:8397   */\n      dup2\n        /* \"#utility.yul\":8389:8409   */\n      sub\n        /* \"#utility.yul\":8385:8386   */\n      0x00\n        /* \"#utility.yul\":8374:8383   */\n      dup4\n        /* \"#utility.yul\":8370:8387   */\n      add\n        /* \"#utility.yul\":8363:8410   */\n      mstore\n        /* \"#utility.yul\":8427:8558   */\n      tag_236\n        /* \"#utility.yul\":8553:8557   */\n      dup2\n        /* \"#utility.yul\":8427:8558   */\n      tag_192\n      jump\t// in\n    tag_236:\n        /* \"#utility.yul\":8419:8558   */\n      swap1\n      pop\n        /* \"#utility.yul\":8146:8565   */\n      swap2\n      swap1\n      pop\n      jump\t// out\n        /* \"#utility.yul\":8571:8990   */\n    tag_65:\n        /* \"#utility.yul\":8737:8741   */\n      0x00\n        /* \"#utility.yul\":8775:8777   */\n      0x20\n        /* \"#utility.yul\":8764:8773   */\n      dup3\n        /* \"#utility.yul\":8760:8778   */\n      add\n        /* \"#utility.yul\":8752:8778   */\n      swap1\n      pop\n        /* \"#utility.yul\":8824:8833   */\n      dup2\n        /* \"#utility.yul\":8818:8822   */\n      dup2\n        /* \"#utility.yul\":8814:8834   */\n      sub\n        /* \"#utility.yul\":8810:8811   */\n      0x00\n        /* \"#utility.yul\":8799:8808   */\n      dup4\n        /* \"#utility.yul\":8795:8812   */\n      add\n        /* \"#utility.yul\":8788:8835   */\n      mstore\n        /* \"#utility.yul\":8852:8983   */\n      tag_238\n        /* \"#utility.yul\":8978:8982   */\n      dup2\n        /* \"#utility.yul\":8852:8983   */\n      tag_197\n      jump\t// in\n    tag_238:\n        /* \"#utility.yul\":8844:8983   */\n      swap1\n      pop\n        /* \"#utility.yul\":8571:8990   */\n      swap2\n      swap1\n      pop\n      jump\t// out\n        /* \"#utility.yul\":8996:9415   */\n    tag_59:\n        /* \"#utility.yul\":9162:9166   */\n      0x00\n        /* \"#utility.yul\":9200:9202   */\n      0x20\n        /* \"#utility.yul\":9189:9198   */\n      dup3\n        /* \"#utility.yul\":9185:9203   */\n      add\n        /* \"#utility.yul\":9177:9203   */\n      swap1\n      pop\n        /* \"#utility.yul\":9249:9258   */\n      dup2\n        /* \"#utility.yul\":9243:9247   */\n      dup2\n        /* \"#utility.yul\":9239:9259   */\n      sub\n        /* \"#utility.yul\":9235:9236   */\n      0x00\n        /* \"#utility.yul\":9224:9233   */\n      dup4\n        /* \"#utility.yul\":9220:9237   */\n      add\n        /* \"#utility.yul\":9213:9260   */\n      mstore\n        /* \"#utility.yul\":9277:9408   */\n      tag_240\n        /* \"#utility.yul\":9403:9407   */\n      dup2\n        /* \"#utility.yul\":9277:9408   */\n      tag_202\n      jump\t// in\n    tag_240:\n        /* \"#utility.yul\":9269:9408   */\n      swap1\n      pop\n        /* \"#utility.yul\":8996:9415   */\n      swap2\n      swap1\n      pop\n      jump\t// out\n        /* \"#utility.yul\":9421:9840   */\n    tag_98:\n        /* \"#utility.yul\":9587:9591   */\n      0x00\n        /* \"#utility.yul\":9625:9627   */\n      0x20\n        /* \"#utility.yul\":9614:9623   */\n      dup3\n        /* \"#utility.yul\":9610:9628   */\n      add\n        /* \"#utility.yul\":9602:9628   */\n      swap1\n      pop\n        /* \"#utility.yul\":9674:9683   */\n      dup2\n        /* \"#utility.yul\":9668:9672   */\n      dup2\n        /* \"#utility.yul\":9664:9684   */\n      sub\n        /* \"#utility.yul\":9660:9661   */\n      0x00\n        /* \"#utility.yul\":9649:9658   */\n      dup4\n        /* \"#utility.yul\":9645:9662   */\n      add\n        /* \"#utility.yul\":9638:9685   */\n      mstore\n        /* \"#utility.yul\":9702:9833   */\n      tag_242\n        /* \"#utility.yul\":9828:9832   */\n      dup2\n        /* \"#utility.yul\":9702:9833   */\n      tag_207\n      jump\t// in\n    tag_242:\n        /* \"#utility.yul\":9694:9833   */\n      swap1\n      pop\n        /* \"#utility.yul\":9421:9840   */\n      swap2\n      swap1\n      pop\n      jump\t// out\n        /* \"#utility.yul\":9846:10068   */\n    tag_21:\n        /* \"#utility.yul\":9939:9943   */\n      0x00\n        /* \"#utility.yul\":9977:9979   */\n      0x20\n        /* \"#utility.yul\":9966:9975   */\n      dup3\n        /* \"#utility.yul\":9962:9980   */\n      add\n        /* \"#utility.yul\":9954:9980   */\n      swap1\n      pop\n        /* \"#utility.yul\":9990:10061   */\n      tag_244\n        /* \"#utility.yul\":10058:10059   */\n      0x00\n        /* \"#utility.yul\":10047:10056   */\n      dup4\n        /* \"#utility.yul\":10043:10060   */\n      add\n        /* \"#utility.yul\":10034:10040   */\n      dup5\n        /* \"#utility.yul\":9990:10061   */\n      tag_212\n      jump\t// in\n    tag_244:\n        /* \"#utility.yul\":9846:10068   */\n      swap3\n      swap2\n      pop\n      pop\n      jump\t// out\n        /* \"#utility.yul\":10074:10406   */\n    tag_113:\n        /* \"#utility.yul\":10195:10199   */\n      0x00\n        /* \"#utility.yul\":10233:10235   */\n      0x40\n        /* \"#utility.yul\":10222:10231   */\n      dup3\n        /* \"#utility.yul\":10218:10236   */\n      add\n        /* \"#utility.yul\":10210:10236   */\n      swap1\n      pop\n        /* \"#utility.yul\":10246:10317   */\n      tag_246\n        /* \"#utility.yul\":10314:10315   */\n      0x00\n        /* \"#utility.yul\":10303:10312   */\n      dup4\n        /* \"#utility.yul\":10299:10316   */\n      add\n        /* \"#utility.yul\":10290:10296   */\n      dup6\n        /* \"#utility.yul\":10246:10317   */\n      tag_212\n      jump\t// in\n    tag_246:\n        /* \"#utility.yul\":10327:10399   */\n      tag_247\n        /* \"#utility.yul\":10395:10397   */\n      0x20\n        /* \"#utility.yul\":10384:10393   */\n      dup4\n        /* \"#utility.yul\":10380:10398   */\n      add\n        /* \"#utility.yul\":10371:10377   */\n      dup5\n        /* \"#utility.yul\":10327:10399   */\n      tag_212\n      jump\t// in\n    tag_247:\n        /* \"#utility.yul\":10074:10406   */\n      swap4\n      swap3\n      pop\n      pop\n      pop\n      jump\t// out\n        /* \"#utility.yul\":10493:10662   */\n    tag_179:\n        /* \"#utility.yul\":10577:10588   */\n      0x00\n        /* \"#utility.yul\":10611:10617   */\n      dup3\n        /* \"#utility.yul\":10606:10609   */\n      dup3\n        /* \"#utility.yul\":10599:10618   */\n      mstore\n        /* \"#utility.yul\":10651:10655   */\n      0x20\n        /* \"#utility.yul\":10646:10649   */\n      dup3\n        /* \"#utility.yul\":10642:10656   */\n      add\n        /* \"#utility.yul\":10627:10656   */\n      swap1\n      pop\n        /* \"#utility.yul\":10493:10662   */\n      swap3\n      swap2\n      pop\n      pop\n      jump\t// out\n        /* \"#utility.yul\":10668:10973   */\n    tag_103:\n        /* \"#utility.yul\":10708:10711   */\n      0x00\n        /* \"#utility.yul\":10727:10747   */\n      tag_252\n        /* \"#utility.yul\":10745:10746   */\n      dup3\n        /* \"#utility.yul\":10727:10747   */\n      tag_215\n      jump\t// in\n    tag_252:\n        /* \"#utility.yul\":10722:10747   */\n      swap2\n      pop\n        /* \"#utility.yul\":10761:10781   */\n      tag_253\n        /* \"#utility.yul\":10779:10780   */\n      dup4\n        /* \"#utility.yul\":10761:10781   */\n      tag_215\n      jump\t// in\n    tag_253:\n        /* \"#utility.yul\":10756:10781   */\n      swap3\n      pop\n        /* \"#utility.yul\":10915:10916   */\n      dup3\n        /* \"#utility.yul\":10847:10913   */\n      0xffffffffffffffffffffffffffffffffffffffffffffffffffffffffffffffff\n        /* \"#utility.yul\":10843:10917   */\n      sub\n        /* \"#utility.yul\":10840:10841   */\n      dup3\n        /* \"#utility.yul\":10837:10918   */\n      gt\n        /* \"#utility.yul\":10834:10941   */\n      iszero\n      tag_254\n      jumpi\n        /* \"#utility.yul\":10921:10939   */\n      tag_255\n      tag_256\n      jump\t// in\n    tag_255:\n        /* \"#utility.yul\":10834:10941   */\n    tag_254:\n        /* \"#utility.yul\":10965:10966   */\n      dup3\n        /* \"#utility.yul\":10962:10963   */\n      dup3\n        /* \"#utility.yul\":10958:10967   */\n      add\n        /* \"#utility.yul\":10951:10967   */\n      swap1\n      pop\n        /* \"#utility.yul\":10668:10973   */\n      swap3\n      swap2\n      pop\n      pop\n      jump\t// out\n        /* \"#utility.yul\":10979:11075   */\n    tag_167:\n        /* \"#utility.yul\":11016:11023   */\n      0x00\n        /* \"#utility.yul\":11045:11069   */\n      tag_258\n        /* \"#utility.yul\":11063:11068   */\n      dup3\n        /* \"#utility.yul\":11045:11069   */\n      tag_259\n      jump\t// in\n    tag_258:\n        /* \"#utility.yul\":11034:11069   */\n      swap1\n      pop\n        /* \"#utility.yul\":10979:11075   */\n      swap2\n      swap1\n      pop\n      jump\t// out\n        /* \"#utility.yul\":11081:11171   */\n    tag_171:\n        /* \"#utility.yul\":11115:11122   */\n      0x00\n        /* \"#utility.yul\":11158:11163   */\n      dup2\n        /* \"#utility.yul\":11151:11164   */\n      iszero\n        /* \"#utility.yul\":11144:11165   */\n      iszero\n        /* \"#utility.yul\":11133:11165   */\n      swap1\n      pop\n        /* \"#utility.yul\":11081:11171   */\n      swap2\n      swap1\n      pop\n      jump\t// out\n        /* \"#utility.yul\":11177:11303   */\n    tag_259:\n        /* \"#utility.yul\":11214:11221   */\n      0x00\n        /* \"#utility.yul\":11254:11296   */\n      0xffffffffffffffffffffffffffffffffffffffff\n        /* \"#utility.yul\":11247:11252   */\n      dup3\n        /* \"#utility.yul\":11243:11297   */\n      and\n        /* \"#utility.yul\":11232:11297   */\n      swap1\n      pop\n        /* \"#utility.yul\":11177:11303   */\n      swap2\n      swap1\n      pop\n      jump\t// out\n        /* \"#utility.yul\":11309:11386   */\n    tag_215:\n        /* \"#utility.yul\":11346:11353   */\n      0x00\n        /* \"#utility.yul\":11375:11380   */\n      dup2\n        /* \"#utility.yul\":11364:11380   */\n      swap1\n      pop\n        /* \"#utility.yul\":11309:11386   */\n      swap2\n      swap1\n      pop\n      jump\t// out\n        /* \"#utility.yul\":11392:11531   */\n    tag_175:\n        /* \"#utility.yul\":11455:11464   */\n      0x00\n        /* \"#utility.yul\":11488:11525   */\n      tag_264\n        /* \"#utility.yul\":11519:11524   */\n      dup3\n        /* \"#utility.yul\":11488:11525   */\n      tag_265\n      jump\t// in\n    tag_264:\n        /* \"#utility.yul\":11475:11525   */\n      swap1\n      pop\n        /* \"#utility.yul\":11392:11531   */\n      swap2\n      swap1\n      pop\n      jump\t// out\n        /* \"#utility.yul\":11537:11663   */\n    tag_265:\n        /* \"#utility.yul\":11587:11596   */\n      0x00\n        /* \"#utility.yul\":11620:11657   */\n      tag_267\n        /* \"#utility.yul\":11651:11656   */\n      dup3\n        /* \"#utility.yul\":11620:11657   */\n      tag_268\n      jump\t// in\n    tag_267:\n        /* \"#utility.yul\":11607:11657   */\n      swap1\n      pop\n        /* \"#utility.yul\":11537:11663   */\n      swap2\n      swap1\n      pop\n      jump\t// out\n        /* \"#utility.yul\":11669:11782   */\n    tag_268:\n        /* \"#utility.yul\":11719:11728   */\n      0x00\n        /* \"#utility.yul\":11752:11776   */\n      tag_270\n        /* \"#utility.yul\":11770:11775   */\n      dup3\n        /* \"#utility.yul\":11752:11776   */\n      tag_259\n      jump\t// in\n    tag_270:\n        /* \"#utility.yul\":11739:11776   */\n      swap1\n      pop\n        /* \"#utility.yul\":11669:11782   */\n      swap2\n      swap1\n      pop\n      jump\t// out\n        /* \"#utility.yul\":11788:11968   */\n    tag_256:\n        /* \"#utility.yul\":11836:11913   */\n      0x4e487b7100000000000000000000000000000000000000000000000000000000\n        /* \"#utility.yul\":11833:11834   */\n      0x00\n        /* \"#utility.yul\":11826:11914   */\n      mstore\n        /* \"#utility.yul\":11933:11937   */\n      0x11\n        /* \"#utility.yul\":11930:11931   */\n      0x04\n        /* \"#utility.yul\":11923:11938   */\n      mstore\n        /* \"#utility.yul\":11957:11961   */\n      0x24\n        /* \"#utility.yul\":11954:11955   */\n      0x00\n        /* \"#utility.yul\":11947:11962   */\n      revert\n        /* \"#utility.yul\":12097:12214   */\n    tag_148:\n        /* \"#utility.yul\":12206:12207   */\n      0x00\n        /* \"#utility.yul\":12203:12204   */\n      dup1\n        /* \"#utility.yul\":12196:12208   */\n      revert\n        /* \"#utility.yul\":12220:12397   */\n    tag_181:\n        /* \"#utility.yul\":12360:12389   */\n      0x546f6b656e7320617265206e6f742079657420756e6c6f636b65640000000000\n        /* \"#utility.yul\":12356:12357   */\n      0x00\n        /* \"#utility.yul\":12348:12354   */\n      dup3\n        /* \"#utility.yul\":12344:12358   */\n      add\n        /* \"#utility.yul\":12337:12390   */\n      mstore\n        /* \"#utility.yul\":12220:12397   */\n      pop\n      jump\t// out\n        /* \"#utility.yul\":12403:12577   */\n    tag_186:\n        /* \"#utility.yul\":12543:12569   */\n      0x46756e64732061726520616c7265616479206c6f636b65640000000000000000\n        /* \"#utility.yul\":12539:12540   */\n      0x00\n        /* \"#utility.yul\":12531:12537   */\n      dup3\n        /* \"#utility.yul\":12527:12541   */\n      add\n        /* \"#utility.yul\":12520:12570   */\n      mstore\n        /* \"#utility.yul\":12403:12577   */\n      pop\n      jump\t// out\n        /* \"#utility.yul\":12583:12757   */\n    tag_191:\n        /* \"#utility.yul\":12723:12749   */\n      0x496e76616c696420726563656976657220616464726573730000000000000000\n        /* \"#utility.yul\":12719:12720   */\n      0x00\n        /* \"#utility.yul\":12711:12717   */\n      dup3\n        /* \"#utility.yul\":12707:12721   */\n      add\n        /* \"#utility.yul\":12700:12750   */\n      mstore\n        /* \"#utility.yul\":12583:12757   */\n      pop\n      jump\t// out\n        /* \"#utility.yul\":12763:12934   */\n    tag_196:\n        /* \"#utility.yul\":12903:12926   */\n      0x546f6b656e207472616e73666572206661696c65640000000000000000000000\n        /* \"#utility.yul\":12899:12900   */\n      0x00\n        /* \"#utility.yul\":12891:12897   */\n      dup3\n        /* \"#utility.yul\":12887:12901   */\n      add\n        /* \"#utility.yul\":12880:12927   */\n      mstore\n        /* \"#utility.yul\":12763:12934   */\n      pop\n      jump\t// out\n        /* \"#utility.yul\":12940:13122   */\n    tag_201:\n        /* \"#utility.yul\":13080:13114   */\n      0x546f6b656e73206861766520616c7265616479206265656e20636c61696d6564\n        /* \"#utility.yul\":13076:13077   */\n      0x00\n        /* \"#utility.yul\":13068:13074   */\n      dup3\n        /* \"#utility.yul\":13064:13078   */\n      add\n        /* \"#utility.yul\":13057:13115   */\n      mstore\n        /* \"#utility.yul\":12940:13122   */\n      pop\n      jump\t// out\n        /* \"#utility.yul\":13128:13298   */\n    tag_206:\n        /* \"#utility.yul\":13268:13290   */\n      0x46756e647320617265206e6f74206c6f636b6564000000000000000000000000\n        /* \"#utility.yul\":13264:13265   */\n      0x00\n        /* \"#utility.yul\":13256:13262   */\n      dup3\n        /* \"#utility.yul\":13252:13266   */\n      add\n        /* \"#utility.yul\":13245:13291   */\n      mstore\n        /* \"#utility.yul\":13128:13298   */\n      pop\n      jump\t// out\n        /* \"#utility.yul\":13304:13527   */\n    tag_211:\n        /* \"#utility.yul\":13444:13478   */\n      0x496e73756666696369656e742062616c616e636520696e2074686520636f6e74\n        /* \"#utility.yul\":13440:13441   */\n      0x00\n        /* \"#utility.yul\":13432:13438   */\n      dup3\n        /* \"#utility.yul\":13428:13442   */\n      add\n        /* \"#utility.yul\":13421:13479   */\n      mstore\n        /* \"#utility.yul\":13513:13519   */\n      0x7261637400000000000000000000000000000000000000000000000000000000\n        /* \"#utility.yul\":13508:13510   */\n      0x20\n        /* \"#utility.yul\":13500:13506   */\n      dup3\n        /* \"#utility.yul\":13496:13511   */\n      add\n        /* \"#utility.yul\":13489:13520   */\n      mstore\n        /* \"#utility.yul\":13304:13527   */\n      pop\n      jump\t// out\n        /* \"#utility.yul\":13533:13655   */\n    tag_133:\n        /* \"#utility.yul\":13606:13630   */\n      tag_283\n        /* \"#utility.yul\":13624:13629   */\n      dup2\n        /* \"#utility.yul\":13606:13630   */\n      tag_167\n      jump\t// in\n    tag_283:\n        /* \"#utility.yul\":13599:13604   */\n      dup2\n        /* \"#utility.yul\":13596:13631   */\n      eq\n        /* \"#utility.yul\":13586:13649   */\n      tag_284\n      jumpi\n        /* \"#utility.yul\":13645:13646   */\n      0x00\n        /* \"#utility.yul\":13642:13643   */\n      dup1\n        /* \"#utility.yul\":13635:13647   */\n      revert\n        /* \"#utility.yul\":13586:13649   */\n    tag_284:\n        /* \"#utility.yul\":13533:13655   */\n      pop\n      jump\t// out\n        /* \"#utility.yul\":13661:13777   */\n    tag_137:\n        /* \"#utility.yul\":13731:13752   */\n      tag_286\n        /* \"#utility.yul\":13746:13751   */\n      dup2\n        /* \"#utility.yul\":13731:13752   */\n      tag_171\n      jump\t// in\n    tag_286:\n        /* \"#utility.yul\":13724:13729   */\n      dup2\n        /* \"#utility.yul\":13721:13753   */\n      eq\n        /* \"#utility.yul\":13711:13771   */\n      tag_287\n      jumpi\n        /* \"#utility.yul\":13767:13768   */\n      0x00\n        /* \"#utility.yul\":13764:13765   */\n      dup1\n        /* \"#utility.yul\":13757:13769   */\n      revert\n        /* \"#utility.yul\":13711:13771   */\n    tag_287:\n        /* \"#utility.yul\":13661:13777   */\n      pop\n      jump\t// out\n        /* \"#utility.yul\":13783:13905   */\n    tag_141:\n        /* \"#utility.yul\":13856:13880   */\n      tag_289\n        /* \"#utility.yul\":13874:13879   */\n      dup2\n        /* \"#utility.yul\":13856:13880   */\n      tag_215\n      jump\t// in\n    tag_289:\n        /* \"#utility.yul\":13849:13854   */\n      dup2\n        /* \"#utility.yul\":13846:13881   */\n      eq\n        /* \"#utility.yul\":13836:13899   */\n      tag_290\n      jumpi\n        /* \"#utility.yul\":13895:13896   */\n      0x00\n        /* \"#utility.yul\":13892:13893   */\n      dup1\n        /* \"#utility.yul\":13885:13897   */\n      revert\n        /* \"#utility.yul\":13836:13899   */\n    tag_290:\n        /* \"#utility.yul\":13783:13905   */\n      pop\n      jump\t// out\n\n    auxdata: 0xa26469706673582212205bff9992868568e15b875dd1749feaddd29472078f968a4f57ce6d76f49a421b64736f6c63430008070033\n}\n",
				"bytecode": {
					"linkReferences": {},
					"object": "60806040526000600560006101000a81548160ff0219169083151502179055506000600560016101000a81548160ff0219169083151502179055503480156200004757600080fd5b50604051620013fe380380620013fe83398181016040528101906200006d919062000219565b33600073ffffffffffffffffffffffffffffffffffffffff168173ffffffffffffffffffffffffffffffffffffffff161415620000e45760006040517f1e4fbdf7000000000000000000000000000000000000000000000000000000008152600401620000db91906200025c565b60405180910390fd5b620000f5816200013e60201b60201c565b5080600160006101000a81548173ffffffffffffffffffffffffffffffffffffffff021916908373ffffffffffffffffffffffffffffffffffffffff16021790555050620002cc565b60008060009054906101000a900473ffffffffffffffffffffffffffffffffffffffff169050816000806101000a81548173ffffffffffffffffffffffffffffffffffffffff021916908373ffffffffffffffffffffffffffffffffffffffff1602179055508173ffffffffffffffffffffffffffffffffffffffff168173ffffffffffffffffffffffffffffffffffffffff167f8be0079c531659141344cd1fd0a4f28419497f9722a3daafe3b4186f6b6457e060405160405180910390a35050565b6000815190506200021381620002b2565b92915050565b600060208284031215620002325762000231620002ad565b5b6000620002428482850162000202565b91505092915050565b620002568162000279565b82525050565b60006020820190506200027360008301846200024b565b92915050565b600062000286826200028d565b9050919050565b600073ffffffffffffffffffffffffffffffffffffffff82169050919050565b600080fd5b620002bd8162000279565b8114620002c957600080fd5b50565b61112280620002dc6000396000f3fe608060405234801561001057600080fd5b50600436106100b45760003560e01c8063d79f017f11610071578063d79f017f14610145578063e184c9be14610161578063e834a8341461017f578063f2fde38b1461019d578063f7260d3e146101b9578063fc0c546a146101d7576100b4565b80633ccfd60b146100b9578063557ed1ba146100c3578063715018a6146100e15780638da5cb5b146100eb578063aa8c217c14610109578063cf30901214610127575b600080fd5b6100c16101f5565b005b6100cb610407565b6040516100d89190610e05565b60405180910390f35b6100e961040f565b005b6100f3610423565b6040516101009190610c74565b60405180910390f35b61011161044c565b60405161011e9190610e05565b60405180910390f35b61012f610452565b60405161013c9190610cef565b60405180910390f35b61015f600480360381019061015a9190610a96565b610465565b005b6101696107d6565b6040516101769190610e05565b60405180910390f35b6101876107dc565b6040516101949190610cef565b60405180910390f35b6101b760048036038101906101b29190610a69565b6107ef565b005b6101c1610876565b6040516101ce9190610c74565b60405180910390f35b6101df61089c565b6040516101ec9190610d0a565b60405180910390f35b600560009054906101000a900460ff16610244576040517f08c379a000000000000000000000000000000000000000000000000000000000815260040161023b90610dc5565b60405180910390fd5b6004544211610288576040517f08c379a000000000000000000000000000000000000000000000000000000000815260040161027f90610d25565b60405180910390fd5b600560019054906101000a900460ff16156102d8576040517f08c379a00000000000000000000000000000000000000000000000000000000081526004016102cf90610da5565b60405180910390fd5b6001600560016101000a81548160ff021916908315150217905550600160009054906101000a900473ffffffffffffffffffffffffffffffffffffffff1673ffffffffffffffffffffffffffffffffffffffff1663a9059cbb600260009054906101000a900473ffffffffffffffffffffffffffffffffffffffff166003546040518363ffffffff1660e01b8152600401610374929190610cc6565b602060405180830381600087803b15801561038e57600080fd5b505af11580156103a2573d6000803e3d6000fd5b505050506040513d601f19601f820116820180604052508101906103c69190610ae9565b610405576040517f08c379a00000000000000000000000000000000000000000000000000000000081526004016103fc90610d85565b60405180910390fd5b565b600042905090565b6104176108c2565b6104216000610949565b565b60008060009054906101000a900473ffffffffffffffffffffffffffffffffffffffff16905090565b60035481565b600560009054906101000a900460ff1681565b61046d6108c2565b600560009054906101000a900460ff16156104bd576040517f08c379a00000000000000000000000000000000000000000000000000000000081526004016104b490610d45565b60405180910390fd5b81600160009054906101000a900473ffffffffffffffffffffffffffffffffffffffff1673ffffffffffffffffffffffffffffffffffffffff166370a08231306040518263ffffffff1660e01b81526004016105199190610c74565b60206040518083038186803b15801561053157600080fd5b505afa158015610545573d6000803e3d6000fd5b505050506040513d601f19601f820116820180604052508101906105699190610b16565b10156105aa576040517f08c379a00000000000000000000000000000000000000000000000000000000081526004016105a190610de5565b60405180910390fd5b600073ffffffffffffffffffffffffffffffffffffffff168373ffffffffffffffffffffffffffffffffffffffff16141561061a576040517f08c379a000000000000000000000000000000000000000000000000000000000815260040161061190610d65565b60405180910390fd5b82600260006101000a81548173ffffffffffffffffffffffffffffffffffffffff021916908373ffffffffffffffffffffffffffffffffffffffff16021790555081600381905550804261066e9190610e5a565b6004819055506001600560006101000a81548160ff021916908315150217905550600160009054906101000a900473ffffffffffffffffffffffffffffffffffffffff1673ffffffffffffffffffffffffffffffffffffffff166323b872dd3330856040518463ffffffff1660e01b81526004016106ee93929190610c8f565b602060405180830381600087803b15801561070857600080fd5b505af115801561071c573d6000803e3d6000fd5b505050506040513d601f19601f820116820180604052508101906107409190610ae9565b61077f576040517f08c379a000000000000000000000000000000000000000000000000000000000815260040161077690610d85565b60405180910390fd5b8273ffffffffffffffffffffffffffffffffffffffff167fd741e738a23fd18a03a26522320d9fc6cac1fed483e215ea9150fbc2fc43385d836004546040516107c9929190610e20565b60405180910390a2505050565b60045481565b600560019054906101000a900460ff1681565b6107f76108c2565b600073ffffffffffffffffffffffffffffffffffffffff168173ffffffffffffffffffffffffffffffffffffffff16141561086a5760006040517f1e4fbdf70000000000000000000000000000000000000000000000000000000081526004016108619190610c74565b60405180910390fd5b61087381610949565b50565b600260009054906101000a900473ffffffffffffffffffffffffffffffffffffffff1681565b600160009054906101000a900473ffffffffffffffffffffffffffffffffffffffff1681565b6108ca610a0d565b73ffffffffffffffffffffffffffffffffffffffff166108e8610423565b73ffffffffffffffffffffffffffffffffffffffff16146109475761090b610a0d565b6040517f118cdaa700000000000000000000000000000000000000000000000000000000815260040161093e9190610c74565b60405180910390fd5b565b60008060009054906101000a900473ffffffffffffffffffffffffffffffffffffffff169050816000806101000a81548173ffffffffffffffffffffffffffffffffffffffff021916908373ffffffffffffffffffffffffffffffffffffffff1602179055508173ffffffffffffffffffffffffffffffffffffffff168173ffffffffffffffffffffffffffffffffffffffff167f8be0079c531659141344cd1fd0a4f28419497f9722a3daafe3b4186f6b6457e060405160405180910390a35050565b600033905090565b600081359050610a24816110a7565b92915050565b600081519050610a39816110be565b92915050565b600081359050610a4e816110d5565b92915050565b600081519050610a63816110d5565b92915050565b600060208284031215610a7f57610a7e610f5d565b5b6000610a8d84828501610a15565b91505092915050565b600080600060608486031215610aaf57610aae610f5d565b5b6000610abd86828701610a15565b9350506020610ace86828701610a3f565b9250506040610adf86828701610a3f565b9150509250925092565b600060208284031215610aff57610afe610f5d565b5b6000610b0d84828501610a2a565b91505092915050565b600060208284031215610b2c57610b2b610f5d565b5b6000610b3a84828501610a54565b91505092915050565b610b4c81610eb0565b82525050565b610b5b81610ec2565b82525050565b610b6a81610ef8565b82525050565b6000610b7d601b83610e49565b9150610b8882610f62565b602082019050919050565b6000610ba0601883610e49565b9150610bab82610f8b565b602082019050919050565b6000610bc3601883610e49565b9150610bce82610fb4565b602082019050919050565b6000610be6601583610e49565b9150610bf182610fdd565b602082019050919050565b6000610c09602083610e49565b9150610c1482611006565b602082019050919050565b6000610c2c601483610e49565b9150610c378261102f565b602082019050919050565b6000610c4f602483610e49565b9150610c5a82611058565b604082019050919050565b610c6e81610eee565b82525050565b6000602082019050610c896000830184610b43565b92915050565b6000606082019050610ca46000830186610b43565b610cb16020830185610b43565b610cbe6040830184610c65565b949350505050565b6000604082019050610cdb6000830185610b43565b610ce86020830184610c65565b9392505050565b6000602082019050610d046000830184610b52565b92915050565b6000602082019050610d1f6000830184610b61565b92915050565b60006020820190508181036000830152610d3e81610b70565b9050919050565b60006020820190508181036000830152610d5e81610b93565b9050919050565b60006020820190508181036000830152610d7e81610bb6565b9050919050565b60006020820190508181036000830152610d9e81610bd9565b9050919050565b60006020820190508181036000830152610dbe81610bfc565b9050919050565b60006020820190508181036000830152610dde81610c1f565b9050919050565b60006020820190508181036000830152610dfe81610c42565b9050919050565b6000602082019050610e1a6000830184610c65565b92915050565b6000604082019050610e356000830185610c65565b610e426020830184610c65565b9392505050565b600082825260208201905092915050565b6000610e6582610eee565b9150610e7083610eee565b9250827fffffffffffffffffffffffffffffffffffffffffffffffffffffffffffffffff03821115610ea557610ea4610f2e565b5b828201905092915050565b6000610ebb82610ece565b9050919050565b60008115159050919050565b600073ffffffffffffffffffffffffffffffffffffffff82169050919050565b6000819050919050565b6000610f0382610f0a565b9050919050565b6000610f1582610f1c565b9050919050565b6000610f2782610ece565b9050919050565b7f4e487b7100000000000000000000000000000000000000000000000000000000600052601160045260246000fd5b600080fd5b7f546f6b656e7320617265206e6f742079657420756e6c6f636b65640000000000600082015250565b7f46756e64732061726520616c7265616479206c6f636b65640000000000000000600082015250565b7f496e76616c696420726563656976657220616464726573730000000000000000600082015250565b7f546f6b656e207472616e73666572206661696c65640000000000000000000000600082015250565b7f546f6b656e73206861766520616c7265616479206265656e20636c61696d6564600082015250565b7f46756e647320617265206e6f74206c6f636b6564000000000000000000000000600082015250565b7f496e73756666696369656e742062616c616e636520696e2074686520636f6e7460008201527f7261637400000000000000000000000000000000000000000000000000000000602082015250565b6110b081610eb0565b81146110bb57600080fd5b50565b6110c781610ec2565b81146110d257600080fd5b50565b6110de81610eee565b81146110e957600080fd5b5056fea26469706673582212205bff9992868568e15b875dd1749feaddd29472078f968a4f57ce6d76f49a421b64736f6c63430008070033",
					"opcodes": "PUSH1 0x80 PUSH1 0x40 MSTORE PUSH1 0x0 PUSH1 0x5 PUSH1 0x0 PUSH2 0x100 EXP DUP2 SLOAD DUP2 PUSH1 0xFF MUL NOT AND SWAP1 DUP4 ISZERO ISZERO MUL OR SWAP1 SSTORE POP PUSH1 0x0 PUSH1 0x5 PUSH1 0x1 PUSH2 0x100 EXP DUP2 SLOAD DUP2 PUSH1 0xFF MUL NOT AND SWAP1 DUP4 ISZERO ISZERO MUL OR SWAP1 SSTORE POP CALLVALUE DUP1 ISZERO PUSH3 0x47 JUMPI PUSH1 0x0 DUP1 REVERT JUMPDEST POP PUSH1 0x40 MLOAD PUSH3 0x13FE CODESIZE SUB DUP1 PUSH3 0x13FE DUP4 CODECOPY DUP2 DUP2 ADD PUSH1 0x40 MSTORE DUP2 ADD SWAP1 PUSH3 0x6D SWAP2 SWAP1 PUSH3 0x219 JUMP JUMPDEST CALLER PUSH1 0x0 PUSH20 0xFFFFFFFFFFFFFFFFFFFFFFFFFFFFFFFFFFFFFFFF AND DUP2 PUSH20 0xFFFFFFFFFFFFFFFFFFFFFFFFFFFFFFFFFFFFFFFF AND EQ ISZERO PUSH3 0xE4 JUMPI PUSH1 0x0 PUSH1 0x40 MLOAD PUSH32 0x1E4FBDF700000000000000000000000000000000000000000000000000000000 DUP2 MSTORE PUSH1 0x4 ADD PUSH3 0xDB SWAP2 SWAP1 PUSH3 0x25C JUMP JUMPDEST PUSH1 0x40 MLOAD DUP1 SWAP2 SUB SWAP1 REVERT JUMPDEST PUSH3 0xF5 DUP2 PUSH3 0x13E PUSH1 0x20 SHL PUSH1 0x20 SHR JUMP JUMPDEST POP DUP1 PUSH1 0x1 PUSH1 0x0 PUSH2 0x100 EXP DUP2 SLOAD DUP2 PUSH20 0xFFFFFFFFFFFFFFFFFFFFFFFFFFFFFFFFFFFFFFFF MUL NOT AND SWAP1 DUP4 PUSH20 0xFFFFFFFFFFFFFFFFFFFFFFFFFFFFFFFFFFFFFFFF AND MUL OR SWAP1 SSTORE POP POP PUSH3 0x2CC JUMP JUMPDEST PUSH1 0x0 DUP1 PUSH1 0x0 SWAP1 SLOAD SWAP1 PUSH2 0x100 EXP SWAP1 DIV PUSH20 0xFFFFFFFFFFFFFFFFFFFFFFFFFFFFFFFFFFFFFFFF AND SWAP1 POP DUP2 PUSH1 0x0 DUP1 PUSH2 0x100 EXP DUP2 SLOAD DUP2 PUSH20 0xFFFFFFFFFFFFFFFFFFFFFFFFFFFFFFFFFFFFFFFF MUL NOT AND SWAP1 DUP4 PUSH20 0xFFFFFFFFFFFFFFFFFFFFFFFFFFFFFFFFFFFFFFFF AND MUL OR SWAP1 SSTORE POP DUP2 PUSH20 0xFFFFFFFFFFFFFFFFFFFFFFFFFFFFFFFFFFFFFFFF AND DUP2 PUSH20 0xFFFFFFFFFFFFFFFFFFFFFFFFFFFFFFFFFFFFFFFF AND PUSH32 0x8BE0079C531659141344CD1FD0A4F28419497F9722A3DAAFE3B4186F6B6457E0 PUSH1 0x40 MLOAD PUSH1 0x40 MLOAD DUP1 SWAP2 SUB SWAP1 LOG3 POP POP JUMP JUMPDEST PUSH1 0x0 DUP2 MLOAD SWAP1 POP PUSH3 0x213 DUP2 PUSH3 0x2B2 JUMP JUMPDEST SWAP3 SWAP2 POP POP JUMP JUMPDEST PUSH1 0x0 PUSH1 0x20 DUP3 DUP5 SUB SLT ISZERO PUSH3 0x232 JUMPI PUSH3 0x231 PUSH3 0x2AD JUMP JUMPDEST JUMPDEST PUSH1 0x0 PUSH3 0x242 DUP5 DUP3 DUP6 ADD PUSH3 0x202 JUMP JUMPDEST SWAP2 POP POP SWAP3 SWAP2 POP POP JUMP JUMPDEST PUSH3 0x256 DUP2 PUSH3 0x279 JUMP JUMPDEST DUP3 MSTORE POP POP JUMP JUMPDEST PUSH1 0x0 PUSH1 0x20 DUP3 ADD SWAP1 POP PUSH3 0x273 PUSH1 0x0 DUP4 ADD DUP5 PUSH3 0x24B JUMP JUMPDEST SWAP3 SWAP2 POP POP JUMP JUMPDEST PUSH1 0x0 PUSH3 0x286 DUP3 PUSH3 0x28D JUMP JUMPDEST SWAP1 POP SWAP2 SWAP1 POP JUMP JUMPDEST PUSH1 0x0 PUSH20 0xFFFFFFFFFFFFFFFFFFFFFFFFFFFFFFFFFFFFFFFF DUP3 AND SWAP1 POP SWAP2 SWAP1 POP JUMP JUMPDEST PUSH1 0x0 DUP1 REVERT JUMPDEST PUSH3 0x2BD DUP2 PUSH3 0x279 JUMP JUMPDEST DUP2 EQ PUSH3 0x2C9 JUMPI PUSH1 0x0 DUP1 REVERT JUMPDEST POP JUMP JUMPDEST PUSH2 0x1122 DUP1 PUSH3 0x2DC PUSH1 0x0 CODECOPY PUSH1 0x0 RETURN INVALID PUSH1 0x80 PUSH1 0x40 MSTORE CALLVALUE DUP1 ISZERO PUSH2 0x10 JUMPI PUSH1 0x0 DUP1 REVERT JUMPDEST POP PUSH1 0x4 CALLDATASIZE LT PUSH2 0xB4 JUMPI PUSH1 0x0 CALLDATALOAD PUSH1 0xE0 SHR DUP1 PUSH4 0xD79F017F GT PUSH2 0x71 JUMPI DUP1 PUSH4 0xD79F017F EQ PUSH2 0x145 JUMPI DUP1 PUSH4 0xE184C9BE EQ PUSH2 0x161 JUMPI DUP1 PUSH4 0xE834A834 EQ PUSH2 0x17F JUMPI DUP1 PUSH4 0xF2FDE38B EQ PUSH2 0x19D JUMPI DUP1 PUSH4 0xF7260D3E EQ PUSH2 0x1B9 JUMPI DUP1 PUSH4 0xFC0C546A EQ PUSH2 0x1D7 JUMPI PUSH2 0xB4 JUMP JUMPDEST DUP1 PUSH4 0x3CCFD60B EQ PUSH2 0xB9 JUMPI DUP1 PUSH4 0x557ED1BA EQ PUSH2 0xC3 JUMPI DUP1 PUSH4 0x715018A6 EQ PUSH2 0xE1 JUMPI DUP1 PUSH4 0x8DA5CB5B EQ PUSH2 0xEB JUMPI DUP1 PUSH4 0xAA8C217C EQ PUSH2 0x109 JUMPI DUP1 PUSH4 0xCF309012 EQ PUSH2 0x127 JUMPI JUMPDEST PUSH1 0x0 DUP1 REVERT JUMPDEST PUSH2 0xC1 PUSH2 0x1F5 JUMP JUMPDEST STOP JUMPDEST PUSH2 0xCB PUSH2 0x407 JUMP JUMPDEST PUSH1 0x40 MLOAD PUSH2 0xD8 SWAP2 SWAP1 PUSH2 0xE05 JUMP JUMPDEST PUSH1 0x40 MLOAD DUP1 SWAP2 SUB SWAP1 RETURN JUMPDEST PUSH2 0xE9 PUSH2 0x40F JUMP JUMPDEST STOP JUMPDEST PUSH2 0xF3 PUSH2 0x423 JUMP JUMPDEST PUSH1 0x40 MLOAD PUSH2 0x100 SWAP2 SWAP1 PUSH2 0xC74 JUMP JUMPDEST PUSH1 0x40 MLOAD DUP1 SWAP2 SUB SWAP1 RETURN JUMPDEST PUSH2 0x111 PUSH2 0x44C JUMP JUMPDEST PUSH1 0x40 MLOAD PUSH2 0x11E SWAP2 SWAP1 PUSH2 0xE05 JUMP JUMPDEST PUSH1 0x40 MLOAD DUP1 SWAP2 SUB SWAP1 RETURN JUMPDEST PUSH2 0x12F PUSH2 0x452 JUMP JUMPDEST PUSH1 0x40 MLOAD PUSH2 0x13C SWAP2 SWAP1 PUSH2 0xCEF JUMP JUMPDEST PUSH1 0x40 MLOAD DUP1 SWAP2 SUB SWAP1 RETURN JUMPDEST PUSH2 0x15F PUSH1 0x4 DUP1 CALLDATASIZE SUB DUP2 ADD SWAP1 PUSH2 0x15A SWAP2 SWAP1 PUSH2 0xA96 JUMP JUMPDEST PUSH2 0x465 JUMP JUMPDEST STOP JUMPDEST PUSH2 0x169 PUSH2 0x7D6 JUMP JUMPDEST PUSH1 0x40 MLOAD PUSH2 0x176 SWAP2 SWAP1 PUSH2 0xE05 JUMP JUMPDEST PUSH1 0x40 MLOAD DUP1 SWAP2 SUB SWAP1 RETURN JUMPDEST PUSH2 0x187 PUSH2 0x7DC JUMP JUMPDEST PUSH1 0x40 MLOAD PUSH2 0x194 SWAP2 SWAP1 PUSH2 0xCEF JUMP JUMPDEST PUSH1 0x40 MLOAD DUP1 SWAP2 SUB SWAP1 RETURN JUMPDEST PUSH2 0x1B7 PUSH1 0x4 DUP1 CALLDATASIZE SUB DUP2 ADD SWAP1 PUSH2 0x1B2 SWAP2 SWAP1 PUSH2 0xA69 JUMP JUMPDEST PUSH2 0x7EF JUMP JUMPDEST STOP JUMPDEST PUSH2 0x1C1 PUSH2 0x876 JUMP JUMPDEST PUSH1 0x40 MLOAD PUSH2 0x1CE SWAP2 SWAP1 PUSH2 0xC74 JUMP JUMPDEST PUSH1 0x40 MLOAD DUP1 SWAP2 SUB SWAP1 RETURN JUMPDEST PUSH2 0x1DF PUSH2 0x89C JUMP JUMPDEST PUSH1 0x40 MLOAD PUSH2 0x1EC SWAP2 SWAP1 PUSH2 0xD0A JUMP JUMPDEST PUSH1 0x40 MLOAD DUP1 SWAP2 SUB SWAP1 RETURN JUMPDEST PUSH1 0x5 PUSH1 0x0 SWAP1 SLOAD SWAP1 PUSH2 0x100 EXP SWAP1 DIV PUSH1 0xFF AND PUSH2 0x244 JUMPI PUSH1 0x40 MLOAD PUSH32 0x8C379A000000000000000000000000000000000000000000000000000000000 DUP2 MSTORE PUSH1 0x4 ADD PUSH2 0x23B SWAP1 PUSH2 0xDC5 JUMP JUMPDEST PUSH1 0x40 MLOAD DUP1 SWAP2 SUB SWAP1 REVERT JUMPDEST PUSH1 0x4 SLOAD TIMESTAMP GT PUSH2 0x288 JUMPI PUSH1 0x40 MLOAD PUSH32 0x8C379A000000000000000000000000000000000000000000000000000000000 DUP2 MSTORE PUSH1 0x4 ADD PUSH2 0x27F SWAP1 PUSH2 0xD25 JUMP JUMPDEST PUSH1 0x40 MLOAD DUP1 SWAP2 SUB SWAP1 REVERT JUMPDEST PUSH1 0x5 PUSH1 0x1 SWAP1 SLOAD SWAP1 PUSH2 0x100 EXP SWAP1 DIV PUSH1 0xFF AND ISZERO PUSH2 0x2D8 JUMPI PUSH1 0x40 MLOAD PUSH32 0x8C379A000000000000000000000000000000000000000000000000000000000 DUP2 MSTORE PUSH1 0x4 ADD PUSH2 0x2CF SWAP1 PUSH2 0xDA5 JUMP JUMPDEST PUSH1 0x40 MLOAD DUP1 SWAP2 SUB SWAP1 REVERT JUMPDEST PUSH1 0x1 PUSH1 0x5 PUSH1 0x1 PUSH2 0x100 EXP DUP2 SLOAD DUP2 PUSH1 0xFF MUL NOT AND SWAP1 DUP4 ISZERO ISZERO MUL OR SWAP1 SSTORE POP PUSH1 0x1 PUSH1 0x0 SWAP1 SLOAD SWAP1 PUSH2 0x100 EXP SWAP1 DIV PUSH20 0xFFFFFFFFFFFFFFFFFFFFFFFFFFFFFFFFFFFFFFFF AND PUSH20 0xFFFFFFFFFFFFFFFFFFFFFFFFFFFFFFFFFFFFFFFF AND PUSH4 0xA9059CBB PUSH1 0x2 PUSH1 0x0 SWAP1 SLOAD SWAP1 PUSH2 0x100 EXP SWAP1 DIV PUSH20 0xFFFFFFFFFFFFFFFFFFFFFFFFFFFFFFFFFFFFFFFF AND PUSH1 0x3 SLOAD PUSH1 0x40 MLOAD DUP4 PUSH4 0xFFFFFFFF AND PUSH1 0xE0 SHL DUP2 MSTORE PUSH1 0x4 ADD PUSH2 0x374 SWAP3 SWAP2 SWAP1 PUSH2 0xCC6 JUMP JUMPDEST PUSH1 0x20 PUSH1 0x40 MLOAD DUP1 DUP4 SUB DUP2 PUSH1 0x0 DUP8 DUP1 EXTCODESIZE ISZERO DUP1 ISZERO PUSH2 0x38E JUMPI PUSH1 0x0 DUP1 REVERT JUMPDEST POP GAS CALL ISZERO DUP1 ISZERO PUSH2 0x3A2 JUMPI RETURNDATASIZE PUSH1 0x0 DUP1 RETURNDATACOPY RETURNDATASIZE PUSH1 0x0 REVERT JUMPDEST POP POP POP POP PUSH1 0x40 MLOAD RETURNDATASIZE PUSH1 0x1F NOT PUSH1 0x1F DUP3 ADD AND DUP3 ADD DUP1 PUSH1 0x40 MSTORE POP DUP2 ADD SWAP1 PUSH2 0x3C6 SWAP2 SWAP1 PUSH2 0xAE9 JUMP JUMPDEST PUSH2 0x405 JUMPI PUSH1 0x40 MLOAD PUSH32 0x8C379A000000000000000000000000000000000000000000000000000000000 DUP2 MSTORE PUSH1 0x4 ADD PUSH2 0x3FC SWAP1 PUSH2 0xD85 JUMP JUMPDEST PUSH1 0x40 MLOAD DUP1 SWAP2 SUB SWAP1 REVERT JUMPDEST JUMP JUMPDEST PUSH1 0x0 TIMESTAMP SWAP1 POP SWAP1 JUMP JUMPDEST PUSH2 0x417 PUSH2 0x8C2 JUMP JUMPDEST PUSH2 0x421 PUSH1 0x0 PUSH2 0x949 JUMP JUMPDEST JUMP JUMPDEST PUSH1 0x0 DUP1 PUSH1 0x0 SWAP1 SLOAD SWAP1 PUSH2 0x100 EXP SWAP1 DIV PUSH20 0xFFFFFFFFFFFFFFFFFFFFFFFFFFFFFFFFFFFFFFFF AND SWAP1 POP SWAP1 JUMP JUMPDEST PUSH1 0x3 SLOAD DUP2 JUMP JUMPDEST PUSH1 0x5 PUSH1 0x0 SWAP1 SLOAD SWAP1 PUSH2 0x100 EXP SWAP1 DIV PUSH1 0xFF AND DUP2 JUMP JUMPDEST PUSH2 0x46D PUSH2 0x8C2 JUMP JUMPDEST PUSH1 0x5 PUSH1 0x0 SWAP1 SLOAD SWAP1 PUSH2 0x100 EXP SWAP1 DIV PUSH1 0xFF AND ISZERO PUSH2 0x4BD JUMPI PUSH1 0x40 MLOAD PUSH32 0x8C379A000000000000000000000000000000000000000000000000000000000 DUP2 MSTORE PUSH1 0x4 ADD PUSH2 0x4B4 SWAP1 PUSH2 0xD45 JUMP JUMPDEST PUSH1 0x40 MLOAD DUP1 SWAP2 SUB SWAP1 REVERT JUMPDEST DUP2 PUSH1 0x1 PUSH1 0x0 SWAP1 SLOAD SWAP1 PUSH2 0x100 EXP SWAP1 DIV PUSH20 0xFFFFFFFFFFFFFFFFFFFFFFFFFFFFFFFFFFFFFFFF AND PUSH20 0xFFFFFFFFFFFFFFFFFFFFFFFFFFFFFFFFFFFFFFFF AND PUSH4 0x70A08231 ADDRESS PUSH1 0x40 MLOAD DUP3 PUSH4 0xFFFFFFFF AND PUSH1 0xE0 SHL DUP2 MSTORE PUSH1 0x4 ADD PUSH2 0x519 SWAP2 SWAP1 PUSH2 0xC74 JUMP JUMPDEST PUSH1 0x20 PUSH1 0x40 MLOAD DUP1 DUP4 SUB DUP2 DUP7 DUP1 EXTCODESIZE ISZERO DUP1 ISZERO PUSH2 0x531 JUMPI PUSH1 0x0 DUP1 REVERT JUMPDEST POP GAS STATICCALL ISZERO DUP1 ISZERO PUSH2 0x545 JUMPI RETURNDATASIZE PUSH1 0x0 DUP1 RETURNDATACOPY RETURNDATASIZE PUSH1 0x0 REVERT JUMPDEST POP POP POP POP PUSH1 0x40 MLOAD RETURNDATASIZE PUSH1 0x1F NOT PUSH1 0x1F DUP3 ADD AND DUP3 ADD DUP1 PUSH1 0x40 MSTORE POP DUP2 ADD SWAP1 PUSH2 0x569 SWAP2 SWAP1 PUSH2 0xB16 JUMP JUMPDEST LT ISZERO PUSH2 0x5AA JUMPI PUSH1 0x40 MLOAD PUSH32 0x8C379A000000000000000000000000000000000000000000000000000000000 DUP2 MSTORE PUSH1 0x4 ADD PUSH2 0x5A1 SWAP1 PUSH2 0xDE5 JUMP JUMPDEST PUSH1 0x40 MLOAD DUP1 SWAP2 SUB SWAP1 REVERT JUMPDEST PUSH1 0x0 PUSH20 0xFFFFFFFFFFFFFFFFFFFFFFFFFFFFFFFFFFFFFFFF AND DUP4 PUSH20 0xFFFFFFFFFFFFFFFFFFFFFFFFFFFFFFFFFFFFFFFF AND EQ ISZERO PUSH2 0x61A JUMPI PUSH1 0x40 MLOAD PUSH32 0x8C379A000000000000000000000000000000000000000000000000000000000 DUP2 MSTORE PUSH1 0x4 ADD PUSH2 0x611 SWAP1 PUSH2 0xD65 JUMP JUMPDEST PUSH1 0x40 MLOAD DUP1 SWAP2 SUB SWAP1 REVERT JUMPDEST DUP3 PUSH1 0x2 PUSH1 0x0 PUSH2 0x100 EXP DUP2 SLOAD DUP2 PUSH20 0xFFFFFFFFFFFFFFFFFFFFFFFFFFFFFFFFFFFFFFFF MUL NOT AND SWAP1 DUP4 PUSH20 0xFFFFFFFFFFFFFFFFFFFFFFFFFFFFFFFFFFFFFFFF AND MUL OR SWAP1 SSTORE POP DUP2 PUSH1 0x3 DUP2 SWAP1 SSTORE POP DUP1 TIMESTAMP PUSH2 0x66E SWAP2 SWAP1 PUSH2 0xE5A JUMP JUMPDEST PUSH1 0x4 DUP2 SWAP1 SSTORE POP PUSH1 0x1 PUSH1 0x5 PUSH1 0x0 PUSH2 0x100 EXP DUP2 SLOAD DUP2 PUSH1 0xFF MUL NOT AND SWAP1 DUP4 ISZERO ISZERO MUL OR SWAP1 SSTORE POP PUSH1 0x1 PUSH1 0x0 SWAP1 SLOAD SWAP1 PUSH2 0x100 EXP SWAP1 DIV PUSH20 0xFFFFFFFFFFFFFFFFFFFFFFFFFFFFFFFFFFFFFFFF AND PUSH20 0xFFFFFFFFFFFFFFFFFFFFFFFFFFFFFFFFFFFFFFFF AND PUSH4 0x23B872DD CALLER ADDRESS DUP6 PUSH1 0x40 MLOAD DUP5 PUSH4 0xFFFFFFFF AND PUSH1 0xE0 SHL DUP2 MSTORE PUSH1 0x4 ADD PUSH2 0x6EE SWAP4 SWAP3 SWAP2 SWAP1 PUSH2 0xC8F JUMP JUMPDEST PUSH1 0x20 PUSH1 0x40 MLOAD DUP1 DUP4 SUB DUP2 PUSH1 0x0 DUP8 DUP1 EXTCODESIZE ISZERO DUP1 ISZERO PUSH2 0x708 JUMPI PUSH1 0x0 DUP1 REVERT JUMPDEST POP GAS CALL ISZERO DUP1 ISZERO PUSH2 0x71C JUMPI RETURNDATASIZE PUSH1 0x0 DUP1 RETURNDATACOPY RETURNDATASIZE PUSH1 0x0 REVERT JUMPDEST POP POP POP POP PUSH1 0x40 MLOAD RETURNDATASIZE PUSH1 0x1F NOT PUSH1 0x1F DUP3 ADD AND DUP3 ADD DUP1 PUSH1 0x40 MSTORE POP DUP2 ADD SWAP1 PUSH2 0x740 SWAP2 SWAP1 PUSH2 0xAE9 JUMP JUMPDEST PUSH2 0x77F JUMPI PUSH1 0x40 MLOAD PUSH32 0x8C379A000000000000000000000000000000000000000000000000000000000 DUP2 MSTORE PUSH1 0x4 ADD PUSH2 0x776 SWAP1 PUSH2 0xD85 JUMP JUMPDEST PUSH1 0x40 MLOAD DUP1 SWAP2 SUB SWAP1 REVERT JUMPDEST DUP3 PUSH20 0xFFFFFFFFFFFFFFFFFFFFFFFFFFFFFFFFFFFFFFFF AND PUSH32 0xD741E738A23FD18A03A26522320D9FC6CAC1FED483E215EA9150FBC2FC43385D DUP4 PUSH1 0x4 SLOAD PUSH1 0x40 MLOAD PUSH2 0x7C9 SWAP3 SWAP2 SWAP1 PUSH2 0xE20 JUMP JUMPDEST PUSH1 0x40 MLOAD DUP1 SWAP2 SUB SWAP1 LOG2 POP POP POP JUMP JUMPDEST PUSH1 0x4 SLOAD DUP2 JUMP JUMPDEST PUSH1 0x5 PUSH1 0x1 SWAP1 SLOAD SWAP1 PUSH2 0x100 EXP SWAP1 DIV PUSH1 0xFF AND DUP2 JUMP JUMPDEST PUSH2 0x7F7 PUSH2 0x8C2 JUMP JUMPDEST PUSH1 0x0 PUSH20 0xFFFFFFFFFFFFFFFFFFFFFFFFFFFFFFFFFFFFFFFF AND DUP2 PUSH20 0xFFFFFFFFFFFFFFFFFFFFFFFFFFFFFFFFFFFFFFFF AND EQ ISZERO PUSH2 0x86A JUMPI PUSH1 0x0 PUSH1 0x40 MLOAD PUSH32 0x1E4FBDF700000000000000000000000000000000000000000000000000000000 DUP2 MSTORE PUSH1 0x4 ADD PUSH2 0x861 SWAP2 SWAP1 PUSH2 0xC74 JUMP JUMPDEST PUSH1 0x40 MLOAD DUP1 SWAP2 SUB SWAP1 REVERT JUMPDEST PUSH2 0x873 DUP2 PUSH2 0x949 JUMP JUMPDEST POP JUMP JUMPDEST PUSH1 0x2 PUSH1 0x0 SWAP1 SLOAD SWAP1 PUSH2 0x100 EXP SWAP1 DIV PUSH20 0xFFFFFFFFFFFFFFFFFFFFFFFFFFFFFFFFFFFFFFFF AND DUP2 JUMP JUMPDEST PUSH1 0x1 PUSH1 0x0 SWAP1 SLOAD SWAP1 PUSH2 0x100 EXP SWAP1 DIV PUSH20 0xFFFFFFFFFFFFFFFFFFFFFFFFFFFFFFFFFFFFFFFF AND DUP2 JUMP JUMPDEST PUSH2 0x8CA PUSH2 0xA0D JUMP JUMPDEST PUSH20 0xFFFFFFFFFFFFFFFFFFFFFFFFFFFFFFFFFFFFFFFF AND PUSH2 0x8E8 PUSH2 0x423 JUMP JUMPDEST PUSH20 0xFFFFFFFFFFFFFFFFFFFFFFFFFFFFFFFFFFFFFFFF AND EQ PUSH2 0x947 JUMPI PUSH2 0x90B PUSH2 0xA0D JUMP JUMPDEST PUSH1 0x40 MLOAD PUSH32 0x118CDAA700000000000000000000000000000000000000000000000000000000 DUP2 MSTORE PUSH1 0x4 ADD PUSH2 0x93E SWAP2 SWAP1 PUSH2 0xC74 JUMP JUMPDEST PUSH1 0x40 MLOAD DUP1 SWAP2 SUB SWAP1 REVERT JUMPDEST JUMP JUMPDEST PUSH1 0x0 DUP1 PUSH1 0x0 SWAP1 SLOAD SWAP1 PUSH2 0x100 EXP SWAP1 DIV PUSH20 0xFFFFFFFFFFFFFFFFFFFFFFFFFFFFFFFFFFFFFFFF AND SWAP1 POP DUP2 PUSH1 0x0 DUP1 PUSH2 0x100 EXP DUP2 SLOAD DUP2 PUSH20 0xFFFFFFFFFFFFFFFFFFFFFFFFFFFFFFFFFFFFFFFF MUL NOT AND SWAP1 DUP4 PUSH20 0xFFFFFFFFFFFFFFFFFFFFFFFFFFFFFFFFFFFFFFFF AND MUL OR SWAP1 SSTORE POP DUP2 PUSH20 0xFFFFFFFFFFFFFFFFFFFFFFFFFFFFFFFFFFFFFFFF AND DUP2 PUSH20 0xFFFFFFFFFFFFFFFFFFFFFFFFFFFFFFFFFFFFFFFF AND PUSH32 0x8BE0079C531659141344CD1FD0A4F28419497F9722A3DAAFE3B4186F6B6457E0 PUSH1 0x40 MLOAD PUSH1 0x40 MLOAD DUP1 SWAP2 SUB SWAP1 LOG3 POP POP JUMP JUMPDEST PUSH1 0x0 CALLER SWAP1 POP SWAP1 JUMP JUMPDEST PUSH1 0x0 DUP2 CALLDATALOAD SWAP1 POP PUSH2 0xA24 DUP2 PUSH2 0x10A7 JUMP JUMPDEST SWAP3 SWAP2 POP POP JUMP JUMPDEST PUSH1 0x0 DUP2 MLOAD SWAP1 POP PUSH2 0xA39 DUP2 PUSH2 0x10BE JUMP JUMPDEST SWAP3 SWAP2 POP POP JUMP JUMPDEST PUSH1 0x0 DUP2 CALLDATALOAD SWAP1 POP PUSH2 0xA4E DUP2 PUSH2 0x10D5 JUMP JUMPDEST SWAP3 SWAP2 POP POP JUMP JUMPDEST PUSH1 0x0 DUP2 MLOAD SWAP1 POP PUSH2 0xA63 DUP2 PUSH2 0x10D5 JUMP JUMPDEST SWAP3 SWAP2 POP POP JUMP JUMPDEST PUSH1 0x0 PUSH1 0x20 DUP3 DUP5 SUB SLT ISZERO PUSH2 0xA7F JUMPI PUSH2 0xA7E PUSH2 0xF5D JUMP JUMPDEST JUMPDEST PUSH1 0x0 PUSH2 0xA8D DUP5 DUP3 DUP6 ADD PUSH2 0xA15 JUMP JUMPDEST SWAP2 POP POP SWAP3 SWAP2 POP POP JUMP JUMPDEST PUSH1 0x0 DUP1 PUSH1 0x0 PUSH1 0x60 DUP5 DUP7 SUB SLT ISZERO PUSH2 0xAAF JUMPI PUSH2 0xAAE PUSH2 0xF5D JUMP JUMPDEST JUMPDEST PUSH1 0x0 PUSH2 0xABD DUP7 DUP3 DUP8 ADD PUSH2 0xA15 JUMP JUMPDEST SWAP4 POP POP PUSH1 0x20 PUSH2 0xACE DUP7 DUP3 DUP8 ADD PUSH2 0xA3F JUMP JUMPDEST SWAP3 POP POP PUSH1 0x40 PUSH2 0xADF DUP7 DUP3 DUP8 ADD PUSH2 0xA3F JUMP JUMPDEST SWAP2 POP POP SWAP3 POP SWAP3 POP SWAP3 JUMP JUMPDEST PUSH1 0x0 PUSH1 0x20 DUP3 DUP5 SUB SLT ISZERO PUSH2 0xAFF JUMPI PUSH2 0xAFE PUSH2 0xF5D JUMP JUMPDEST JUMPDEST PUSH1 0x0 PUSH2 0xB0D DUP5 DUP3 DUP6 ADD PUSH2 0xA2A JUMP JUMPDEST SWAP2 POP POP SWAP3 SWAP2 POP POP JUMP JUMPDEST PUSH1 0x0 PUSH1 0x20 DUP3 DUP5 SUB SLT ISZERO PUSH2 0xB2C JUMPI PUSH2 0xB2B PUSH2 0xF5D JUMP JUMPDEST JUMPDEST PUSH1 0x0 PUSH2 0xB3A DUP5 DUP3 DUP6 ADD PUSH2 0xA54 JUMP JUMPDEST SWAP2 POP POP SWAP3 SWAP2 POP POP JUMP JUMPDEST PUSH2 0xB4C DUP2 PUSH2 0xEB0 JUMP JUMPDEST DUP3 MSTORE POP POP JUMP JUMPDEST PUSH2 0xB5B DUP2 PUSH2 0xEC2 JUMP JUMPDEST DUP3 MSTORE POP POP JUMP JUMPDEST PUSH2 0xB6A DUP2 PUSH2 0xEF8 JUMP JUMPDEST DUP3 MSTORE POP POP JUMP JUMPDEST PUSH1 0x0 PUSH2 0xB7D PUSH1 0x1B DUP4 PUSH2 0xE49 JUMP JUMPDEST SWAP2 POP PUSH2 0xB88 DUP3 PUSH2 0xF62 JUMP JUMPDEST PUSH1 0x20 DUP3 ADD SWAP1 POP SWAP2 SWAP1 POP JUMP JUMPDEST PUSH1 0x0 PUSH2 0xBA0 PUSH1 0x18 DUP4 PUSH2 0xE49 JUMP JUMPDEST SWAP2 POP PUSH2 0xBAB DUP3 PUSH2 0xF8B JUMP JUMPDEST PUSH1 0x20 DUP3 ADD SWAP1 POP SWAP2 SWAP1 POP JUMP JUMPDEST PUSH1 0x0 PUSH2 0xBC3 PUSH1 0x18 DUP4 PUSH2 0xE49 JUMP JUMPDEST SWAP2 POP PUSH2 0xBCE DUP3 PUSH2 0xFB4 JUMP JUMPDEST PUSH1 0x20 DUP3 ADD SWAP1 POP SWAP2 SWAP1 POP JUMP JUMPDEST PUSH1 0x0 PUSH2 0xBE6 PUSH1 0x15 DUP4 PUSH2 0xE49 JUMP JUMPDEST SWAP2 POP PUSH2 0xBF1 DUP3 PUSH2 0xFDD JUMP JUMPDEST PUSH1 0x20 DUP3 ADD SWAP1 POP SWAP2 SWAP1 POP JUMP JUMPDEST PUSH1 0x0 PUSH2 0xC09 PUSH1 0x20 DUP4 PUSH2 0xE49 JUMP JUMPDEST SWAP2 POP PUSH2 0xC14 DUP3 PUSH2 0x1006 JUMP JUMPDEST PUSH1 0x20 DUP3 ADD SWAP1 POP SWAP2 SWAP1 POP JUMP JUMPDEST PUSH1 0x0 PUSH2 0xC2C PUSH1 0x14 DUP4 PUSH2 0xE49 JUMP JUMPDEST SWAP2 POP PUSH2 0xC37 DUP3 PUSH2 0x102F JUMP JUMPDEST PUSH1 0x20 DUP3 ADD SWAP1 POP SWAP2 SWAP1 POP JUMP JUMPDEST PUSH1 0x0 PUSH2 0xC4F PUSH1 0x24 DUP4 PUSH2 0xE49 JUMP JUMPDEST SWAP2 POP PUSH2 0xC5A DUP3 PUSH2 0x1058 JUMP JUMPDEST PUSH1 0x40 DUP3 ADD SWAP1 POP SWAP2 SWAP1 POP JUMP JUMPDEST PUSH2 0xC6E DUP2 PUSH2 0xEEE JUMP JUMPDEST DUP3 MSTORE POP POP JUMP JUMPDEST PUSH1 0x0 PUSH1 0x20 DUP3 ADD SWAP1 POP PUSH2 0xC89 PUSH1 0x0 DUP4 ADD DUP5 PUSH2 0xB43 JUMP JUMPDEST SWAP3 SWAP2 POP POP JUMP JUMPDEST PUSH1 0x0 PUSH1 0x60 DUP3 ADD SWAP1 POP PUSH2 0xCA4 PUSH1 0x0 DUP4 ADD DUP7 PUSH2 0xB43 JUMP JUMPDEST PUSH2 0xCB1 PUSH1 0x20 DUP4 ADD DUP6 PUSH2 0xB43 JUMP JUMPDEST PUSH2 0xCBE PUSH1 0x40 DUP4 ADD DUP5 PUSH2 0xC65 JUMP JUMPDEST SWAP5 SWAP4 POP POP POP POP JUMP JUMPDEST PUSH1 0x0 PUSH1 0x40 DUP3 ADD SWAP1 POP PUSH2 0xCDB PUSH1 0x0 DUP4 ADD DUP6 PUSH2 0xB43 JUMP JUMPDEST PUSH2 0xCE8 PUSH1 0x20 DUP4 ADD DUP5 PUSH2 0xC65 JUMP JUMPDEST SWAP4 SWAP3 POP POP POP JUMP JUMPDEST PUSH1 0x0 PUSH1 0x20 DUP3 ADD SWAP1 POP PUSH2 0xD04 PUSH1 0x0 DUP4 ADD DUP5 PUSH2 0xB52 JUMP JUMPDEST SWAP3 SWAP2 POP POP JUMP JUMPDEST PUSH1 0x0 PUSH1 0x20 DUP3 ADD SWAP1 POP PUSH2 0xD1F PUSH1 0x0 DUP4 ADD DUP5 PUSH2 0xB61 JUMP JUMPDEST SWAP3 SWAP2 POP POP JUMP JUMPDEST PUSH1 0x0 PUSH1 0x20 DUP3 ADD SWAP1 POP DUP2 DUP2 SUB PUSH1 0x0 DUP4 ADD MSTORE PUSH2 0xD3E DUP2 PUSH2 0xB70 JUMP JUMPDEST SWAP1 POP SWAP2 SWAP1 POP JUMP JUMPDEST PUSH1 0x0 PUSH1 0x20 DUP3 ADD SWAP1 POP DUP2 DUP2 SUB PUSH1 0x0 DUP4 ADD MSTORE PUSH2 0xD5E DUP2 PUSH2 0xB93 JUMP JUMPDEST SWAP1 POP SWAP2 SWAP1 POP JUMP JUMPDEST PUSH1 0x0 PUSH1 0x20 DUP3 ADD SWAP1 POP DUP2 DUP2 SUB PUSH1 0x0 DUP4 ADD MSTORE PUSH2 0xD7E DUP2 PUSH2 0xBB6 JUMP JUMPDEST SWAP1 POP SWAP2 SWAP1 POP JUMP JUMPDEST PUSH1 0x0 PUSH1 0x20 DUP3 ADD SWAP1 POP DUP2 DUP2 SUB PUSH1 0x0 DUP4 ADD MSTORE PUSH2 0xD9E DUP2 PUSH2 0xBD9 JUMP JUMPDEST SWAP1 POP SWAP2 SWAP1 POP JUMP JUMPDEST PUSH1 0x0 PUSH1 0x20 DUP3 ADD SWAP1 POP DUP2 DUP2 SUB PUSH1 0x0 DUP4 ADD MSTORE PUSH2 0xDBE DUP2 PUSH2 0xBFC JUMP JUMPDEST SWAP1 POP SWAP2 SWAP1 POP JUMP JUMPDEST PUSH1 0x0 PUSH1 0x20 DUP3 ADD SWAP1 POP DUP2 DUP2 SUB PUSH1 0x0 DUP4 ADD MSTORE PUSH2 0xDDE DUP2 PUSH2 0xC1F JUMP JUMPDEST SWAP1 POP SWAP2 SWAP1 POP JUMP JUMPDEST PUSH1 0x0 PUSH1 0x20 DUP3 ADD SWAP1 POP DUP2 DUP2 SUB PUSH1 0x0 DUP4 ADD MSTORE PUSH2 0xDFE DUP2 PUSH2 0xC42 JUMP JUMPDEST SWAP1 POP SWAP2 SWAP1 POP JUMP JUMPDEST PUSH1 0x0 PUSH1 0x20 DUP3 ADD SWAP1 POP PUSH2 0xE1A PUSH1 0x0 DUP4 ADD DUP5 PUSH2 0xC65 JUMP JUMPDEST SWAP3 SWAP2 POP POP JUMP JUMPDEST PUSH1 0x0 PUSH1 0x40 DUP3 ADD SWAP1 POP PUSH2 0xE35 PUSH1 0x0 DUP4 ADD DUP6 PUSH2 0xC65 JUMP JUMPDEST PUSH2 0xE42 PUSH1 0x20 DUP4 ADD DUP5 PUSH2 0xC65 JUMP JUMPDEST SWAP4 SWAP3 POP POP POP JUMP JUMPDEST PUSH1 0x0 DUP3 DUP3 MSTORE PUSH1 0x20 DUP3 ADD SWAP1 POP SWAP3 SWAP2 POP POP JUMP JUMPDEST PUSH1 0x0 PUSH2 0xE65 DUP3 PUSH2 0xEEE JUMP JUMPDEST SWAP2 POP PUSH2 0xE70 DUP4 PUSH2 0xEEE JUMP JUMPDEST SWAP3 POP DUP3 PUSH32 0xFFFFFFFFFFFFFFFFFFFFFFFFFFFFFFFFFFFFFFFFFFFFFFFFFFFFFFFFFFFFFFFF SUB DUP3 GT ISZERO PUSH2 0xEA5 JUMPI PUSH2 0xEA4 PUSH2 0xF2E JUMP JUMPDEST JUMPDEST DUP3 DUP3 ADD SWAP1 POP SWAP3 SWAP2 POP POP JUMP JUMPDEST PUSH1 0x0 PUSH2 0xEBB DUP3 PUSH2 0xECE JUMP JUMPDEST SWAP1 POP SWAP2 SWAP1 POP JUMP JUMPDEST PUSH1 0x0 DUP2 ISZERO ISZERO SWAP1 POP SWAP2 SWAP1 POP JUMP JUMPDEST PUSH1 0x0 PUSH20 0xFFFFFFFFFFFFFFFFFFFFFFFFFFFFFFFFFFFFFFFF DUP3 AND SWAP1 POP SWAP2 SWAP1 POP JUMP JUMPDEST PUSH1 0x0 DUP2 SWAP1 POP SWAP2 SWAP1 POP JUMP JUMPDEST PUSH1 0x0 PUSH2 0xF03 DUP3 PUSH2 0xF0A JUMP JUMPDEST SWAP1 POP SWAP2 SWAP1 POP JUMP JUMPDEST PUSH1 0x0 PUSH2 0xF15 DUP3 PUSH2 0xF1C JUMP JUMPDEST SWAP1 POP SWAP2 SWAP1 POP JUMP JUMPDEST PUSH1 0x0 PUSH2 0xF27 DUP3 PUSH2 0xECE JUMP JUMPDEST SWAP1 POP SWAP2 SWAP1 POP JUMP JUMPDEST PUSH32 0x4E487B7100000000000000000000000000000000000000000000000000000000 PUSH1 0x0 MSTORE PUSH1 0x11 PUSH1 0x4 MSTORE PUSH1 0x24 PUSH1 0x0 REVERT JUMPDEST PUSH1 0x0 DUP1 REVERT JUMPDEST PUSH32 0x546F6B656E7320617265206E6F742079657420756E6C6F636B65640000000000 PUSH1 0x0 DUP3 ADD MSTORE POP JUMP JUMPDEST PUSH32 0x46756E64732061726520616C7265616479206C6F636B65640000000000000000 PUSH1 0x0 DUP3 ADD MSTORE POP JUMP JUMPDEST PUSH32 0x496E76616C696420726563656976657220616464726573730000000000000000 PUSH1 0x0 DUP3 ADD MSTORE POP JUMP JUMPDEST PUSH32 0x546F6B656E207472616E73666572206661696C65640000000000000000000000 PUSH1 0x0 DUP3 ADD MSTORE POP JUMP JUMPDEST PUSH32 0x546F6B656E73206861766520616C7265616479206265656E20636C61696D6564 PUSH1 0x0 DUP3 ADD MSTORE POP JUMP JUMPDEST PUSH32 0x46756E647320617265206E6F74206C6F636B6564000000000000000000000000 PUSH1 0x0 DUP3 ADD MSTORE POP JUMP JUMPDEST PUSH32 0x496E73756666696369656E742062616C616E636520696E2074686520636F6E74 PUSH1 0x0 DUP3 ADD MSTORE PUSH32 0x7261637400000000000000000000000000000000000000000000000000000000 PUSH1 0x20 DUP3 ADD MSTORE POP JUMP JUMPDEST PUSH2 0x10B0 DUP2 PUSH2 0xEB0 JUMP JUMPDEST DUP2 EQ PUSH2 0x10BB JUMPI PUSH1 0x0 DUP1 REVERT JUMPDEST POP JUMP JUMPDEST PUSH2 0x10C7 DUP2 PUSH2 0xEC2 JUMP JUMPDEST DUP2 EQ PUSH2 0x10D2 JUMPI PUSH1 0x0 DUP1 REVERT JUMPDEST POP JUMP JUMPDEST PUSH2 0x10DE DUP2 PUSH2 0xEEE JUMP JUMPDEST DUP2 EQ PUSH2 0x10E9 JUMPI PUSH1 0x0 DUP1 REVERT JUMPDEST POP JUMP INVALID LOG2 PUSH5 0x6970667358 0x22 SLT KECCAK256 JUMPDEST SELFDESTRUCT SWAP10 SWAP3 DUP7 DUP6 PUSH9 0xE15B875DD1749FEADD 0xD2 SWAP5 PUSH19 0x78F968A4F57CE6D76F49A421B64736F6C6343 STOP ADDMOD SMOD STOP CALLER "
				},
				"gasEstimates": {
					"creation": {
						"codeDepositCost": "877200",
						"executionCost": "infinite",
						"totalCost": "infinite"
					},
					"external": {
						"amount()": "2518",
						"claimed()": "2565",
						"expiry()": "2451",
						"getTime()": "359",
						"locked()": "2582",
						"locktoken(address,uint256,uint256)": "infinite",
						"owner()": "2589",
						"receiver()": "2602",
						"renounceOwnership()": "infinite",
						"token()": "2710",
						"transferOwnership(address)": "infinite",
						"withdraw()": "infinite"
					}
				},
				"methodIdentifiers": {
					"amount()": "aa8c217c",
					"claimed()": "e834a834",
					"expiry()": "e184c9be",
					"getTime()": "557ed1ba",
					"locked()": "cf309012",
					"locktoken(address,uint256,uint256)": "d79f017f",
					"owner()": "8da5cb5b",
					"receiver()": "f7260d3e",
					"renounceOwnership()": "715018a6",
					"token()": "fc0c546a",
					"transferOwnership(address)": "f2fde38b",
					"withdraw()": "3ccfd60b"
				}
			},
			"storageLayout": {
				"storage": [
					{
						"astId": 95,
						"contract": "Vesting_flattened.sol:Vesting",
						"label": "_owner",
						"offset": 0,
						"slot": "0",
						"type": "t_address"
					},
					{
						"astId": 240,
						"contract": "Vesting_flattened.sol:Vesting",
						"label": "token",
						"offset": 0,
						"slot": "1",
						"type": "t_contract(IERC20)77"
					},
					{
						"astId": 242,
						"contract": "Vesting_flattened.sol:Vesting",
						"label": "receiver",
						"offset": 0,
						"slot": "2",
						"type": "t_address"
					},
					{
						"astId": 244,
						"contract": "Vesting_flattened.sol:Vesting",
						"label": "amount",
						"offset": 0,
						"slot": "3",
						"type": "t_uint256"
					},
					{
						"astId": 246,
						"contract": "Vesting_flattened.sol:Vesting",
						"label": "expiry",
						"offset": 0,
						"slot": "4",
						"type": "t_uint256"
					},
					{
						"astId": 249,
						"contract": "Vesting_flattened.sol:Vesting",
						"label": "locked",
						"offset": 0,
						"slot": "5",
						"type": "t_bool"
					},
					{
						"astId": 252,
						"contract": "Vesting_flattened.sol:Vesting",
						"label": "claimed",
						"offset": 1,
						"slot": "5",
						"type": "t_bool"
					}
				],
				"types": {
					"t_address": {
						"encoding": "inplace",
						"label": "address",
						"numberOfBytes": "20"
					},
					"t_bool": {
						"encoding": "inplace",
						"label": "bool",
						"numberOfBytes": "1"
					},
					"t_contract(IERC20)77": {
						"encoding": "inplace",
						"label": "contract IERC20",
						"numberOfBytes": "20"
					},
					"t_uint256": {
						"encoding": "inplace",
						"label": "uint256",
						"numberOfBytes": "32"
					}
				}
			},
			"userdoc": {
				"kind": "user",
				"methods": {},
				"version": 1
			}
		}
	}
}