{
	"contracts/manager.sol": {
		"Manager": {
			"abi": [
				{
					"inputs": [
						{
							"internalType": "string",
							"name": "_type1",
							"type": "string"
						},
						{
							"internalType": "string",
							"name": "_type2",
							"type": "string"
						}
					],
					"stateMutability": "nonpayable",
					"type": "constructor"
				},
				{
					"inputs": [
						{
							"internalType": "string",
							"name": "userType",
							"type": "string"
						}
					],
					"name": "userRegister",
					"outputs": [
						{
							"internalType": "string",
							"name": "",
							"type": "string"
						}
					],
					"stateMutability": "nonpayable",
					"type": "function"
				},
				{
					"inputs": [
						{
							"internalType": "address",
							"name": "adr",
							"type": "address"
						}
					],
					"name": "usertype",
					"outputs": [
						{
							"internalType": "string",
							"name": "",
							"type": "string"
						}
					],
					"stateMutability": "view",
					"type": "function"
				},
				{
					"inputs": [],
					"name": "viewall",
					"outputs": [
						{
							"internalType": "address[]",
							"name": "",
							"type": "address[]"
						},
						{
							"internalType": "string[]",
							"name": "",
							"type": "string[]"
						}
					],
					"stateMutability": "view",
					"type": "function"
				}
			],
			"devdoc": {
				"kind": "dev",
				"methods": {},
				"version": 1
			},
			"evm": {
				"assembly": "    /* \"contracts/manager.sol\":160:1809  contract Manager {... */\n  mstore(0x40, 0x80)\n    /* \"contracts/manager.sol\":346:543  constructor(string memory _type1, string memory _type2) {... */\n  callvalue\n  dup1\n  iszero\n  tag_1\n  jumpi\n  0x00\n  dup1\n  revert\ntag_1:\n  pop\n  mload(0x40)\n  sub(codesize, bytecodeSize)\n  dup1\n  bytecodeSize\n  dup4\n  codecopy\n  dup2\n  dup2\n  add\n  0x40\n  mstore\n  dup2\n  add\n  swap1\n  tag_2\n  swap2\n  swap1\n  tag_3\n  jump\t// in\ntag_2:\n    /* \"contracts/manager.sol\":475:481  _type1 */\n  dup2\n    /* \"contracts/manager.sol\":467:472  type1 */\n  0x00\n    /* \"contracts/manager.sol\":467:481  type1 = _type1 */\n  swap1\n  dup2\n  tag_6\n  swap2\n  swap1\n  tag_7\n  jump\t// in\ntag_6:\n  pop\n    /* \"contracts/manager.sol\":501:507  _type2 */\n  dup1\n    /* \"contracts/manager.sol\":493:498  type2 */\n  0x01\n    /* \"contracts/manager.sol\":493:507  type2 = _type2 */\n  swap1\n  dup2\n  tag_8\n  swap2\n  swap1\n  tag_7\n  jump\t// in\ntag_8:\n  pop\n    /* \"contracts/manager.sol\":525:535  msg.sender */\n  caller\n    /* \"contracts/manager.sol\":518:522  ownr */\n  0x02\n  0x00\n    /* \"contracts/manager.sol\":518:535  ownr = msg.sender */\n  0x0100\n  exp\n  dup2\n  sload\n  dup2\n  0xffffffffffffffffffffffffffffffffffffffff\n  mul\n  not\n  and\n  swap1\n  dup4\n  0xffffffffffffffffffffffffffffffffffffffff\n  and\n  mul\n  or\n  swap1\n  sstore\n  pop\n    /* \"contracts/manager.sol\":346:543  constructor(string memory _type1, string memory _type2) {... */\n  pop\n  pop\n    /* \"contracts/manager.sol\":160:1809  contract Manager {... */\n  jump(tag_9)\n    /* \"#utility.yul\":7:82   */\ntag_10:\n    /* \"#utility.yul\":40:46   */\n  0x00\n    /* \"#utility.yul\":73:75   */\n  0x40\n    /* \"#utility.yul\":67:76   */\n  mload\n    /* \"#utility.yul\":57:76   */\n  swap1\n  pop\n    /* \"#utility.yul\":7:82   */\n  swap1\n  jump\t// out\n    /* \"#utility.yul\":88:205   */\ntag_11:\n    /* \"#utility.yul\":197:198   */\n  0x00\n    /* \"#utility.yul\":194:195   */\n  dup1\n    /* \"#utility.yul\":187:199   */\n  revert\n    /* \"#utility.yul\":211:328   */\ntag_12:\n    /* \"#utility.yul\":320:321   */\n  0x00\n    /* \"#utility.yul\":317:318   */\n  dup1\n    /* \"#utility.yul\":310:322   */\n  revert\n    /* \"#utility.yul\":334:451   */\ntag_13:\n    /* \"#utility.yul\":443:444   */\n  0x00\n    /* \"#utility.yul\":440:441   */\n  dup1\n    /* \"#utility.yul\":433:445   */\n  revert\n    /* \"#utility.yul\":457:574   */\ntag_14:\n    /* \"#utility.yul\":566:567   */\n  0x00\n    /* \"#utility.yul\":563:564   */\n  dup1\n    /* \"#utility.yul\":556:568   */\n  revert\n    /* \"#utility.yul\":580:682   */\ntag_15:\n    /* \"#utility.yul\":621:627   */\n  0x00\n    /* \"#utility.yul\":672:674   */\n  0x1f\n    /* \"#utility.yul\":668:675   */\n  not\n    /* \"#utility.yul\":663:665   */\n  0x1f\n    /* \"#utility.yul\":656:661   */\n  dup4\n    /* \"#utility.yul\":652:666   */\n  add\n    /* \"#utility.yul\":648:676   */\n  and\n    /* \"#utility.yul\":638:676   */\n  swap1\n  pop\n    /* \"#utility.yul\":580:682   */\n  swap2\n  swap1\n  pop\n  jump\t// out\n    /* \"#utility.yul\":688:868   */\ntag_16:\n    /* \"#utility.yul\":736:813   */\n  0x4e487b7100000000000000000000000000000000000000000000000000000000\n    /* \"#utility.yul\":733:734   */\n  0x00\n    /* \"#utility.yul\":726:814   */\n  mstore\n    /* \"#utility.yul\":833:837   */\n  0x41\n    /* \"#utility.yul\":830:831   */\n  0x04\n    /* \"#utility.yul\":823:838   */\n  mstore\n    /* \"#utility.yul\":857:861   */\n  0x24\n    /* \"#utility.yul\":854:855   */\n  0x00\n    /* \"#utility.yul\":847:862   */\n  revert\n    /* \"#utility.yul\":874:1155   */\ntag_17:\n    /* \"#utility.yul\":957:984   */\n  tag_51\n    /* \"#utility.yul\":979:983   */\n  dup3\n    /* \"#utility.yul\":957:984   */\n  tag_15\n  jump\t// in\ntag_51:\n    /* \"#utility.yul\":949:955   */\n  dup2\n    /* \"#utility.yul\":945:985   */\n  add\n    /* \"#utility.yul\":1087:1093   */\n  dup2\n    /* \"#utility.yul\":1075:1085   */\n  dup2\n    /* \"#utility.yul\":1072:1094   */\n  lt\n    /* \"#utility.yul\":1051:1069   */\n  0xffffffffffffffff\n    /* \"#utility.yul\":1039:1049   */\n  dup3\n    /* \"#utility.yul\":1036:1070   */\n  gt\n    /* \"#utility.yul\":1033:1095   */\n  or\n    /* \"#utility.yul\":1030:1118   */\n  iszero\n  tag_52\n  jumpi\n    /* \"#utility.yul\":1098:1116   */\n  tag_53\n  tag_16\n  jump\t// in\ntag_53:\n    /* \"#utility.yul\":1030:1118   */\ntag_52:\n    /* \"#utility.yul\":1138:1148   */\n  dup1\n    /* \"#utility.yul\":1134:1136   */\n  0x40\n    /* \"#utility.yul\":1127:1149   */\n  mstore\n    /* \"#utility.yul\":917:1155   */\n  pop\n    /* \"#utility.yul\":874:1155   */\n  pop\n  pop\n  jump\t// out\n    /* \"#utility.yul\":1161:1290   */\ntag_18:\n    /* \"#utility.yul\":1195:1201   */\n  0x00\n    /* \"#utility.yul\":1222:1242   */\n  tag_55\n  tag_10\n  jump\t// in\ntag_55:\n    /* \"#utility.yul\":1212:1242   */\n  swap1\n  pop\n    /* \"#utility.yul\":1251:1284   */\n  tag_56\n    /* \"#utility.yul\":1279:1283   */\n  dup3\n    /* \"#utility.yul\":1271:1277   */\n  dup3\n    /* \"#utility.yul\":1251:1284   */\n  tag_17\n  jump\t// in\ntag_56:\n    /* \"#utility.yul\":1161:1290   */\n  swap2\n  swap1\n  pop\n  jump\t// out\n    /* \"#utility.yul\":1296:1604   */\ntag_19:\n    /* \"#utility.yul\":1358:1362   */\n  0x00\n    /* \"#utility.yul\":1448:1466   */\n  0xffffffffffffffff\n    /* \"#utility.yul\":1440:1446   */\n  dup3\n    /* \"#utility.yul\":1437:1467   */\n  gt\n    /* \"#utility.yul\":1434:1490   */\n  iszero\n  tag_58\n  jumpi\n    /* \"#utility.yul\":1470:1488   */\n  tag_59\n  tag_16\n  jump\t// in\ntag_59:\n    /* \"#utility.yul\":1434:1490   */\ntag_58:\n    /* \"#utility.yul\":1508:1537   */\n  tag_60\n    /* \"#utility.yul\":1530:1536   */\n  dup3\n    /* \"#utility.yul\":1508:1537   */\n  tag_15\n  jump\t// in\ntag_60:\n    /* \"#utility.yul\":1500:1537   */\n  swap1\n  pop\n    /* \"#utility.yul\":1592:1596   */\n  0x20\n    /* \"#utility.yul\":1586:1590   */\n  dup2\n    /* \"#utility.yul\":1582:1597   */\n  add\n    /* \"#utility.yul\":1574:1597   */\n  swap1\n  pop\n    /* \"#utility.yul\":1296:1604   */\n  swap2\n  swap1\n  pop\n  jump\t// out\n    /* \"#utility.yul\":1610:1856   */\ntag_20:\n    /* \"#utility.yul\":1691:1692   */\n  0x00\n    /* \"#utility.yul\":1701:1814   */\ntag_62:\n    /* \"#utility.yul\":1715:1721   */\n  dup4\n    /* \"#utility.yul\":1712:1713   */\n  dup2\n    /* \"#utility.yul\":1709:1722   */\n  lt\n    /* \"#utility.yul\":1701:1814   */\n  iszero\n  tag_64\n  jumpi\n    /* \"#utility.yul\":1800:1801   */\n  dup1\n    /* \"#utility.yul\":1795:1798   */\n  dup3\n    /* \"#utility.yul\":1791:1802   */\n  add\n    /* \"#utility.yul\":1785:1803   */\n  mload\n    /* \"#utility.yul\":1781:1782   */\n  dup2\n    /* \"#utility.yul\":1776:1779   */\n  dup5\n    /* \"#utility.yul\":1772:1783   */\n  add\n    /* \"#utility.yul\":1765:1804   */\n  mstore\n    /* \"#utility.yul\":1737:1739   */\n  0x20\n    /* \"#utility.yul\":1734:1735   */\n  dup2\n    /* \"#utility.yul\":1730:1740   */\n  add\n    /* \"#utility.yul\":1725:1740   */\n  swap1\n  pop\n    /* \"#utility.yul\":1701:1814   */\n  jump(tag_62)\ntag_64:\n    /* \"#utility.yul\":1848:1849   */\n  0x00\n    /* \"#utility.yul\":1839:1845   */\n  dup5\n    /* \"#utility.yul\":1834:1837   */\n  dup5\n    /* \"#utility.yul\":1830:1846   */\n  add\n    /* \"#utility.yul\":1823:1850   */\n  mstore\n    /* \"#utility.yul\":1672:1856   */\n  pop\n    /* \"#utility.yul\":1610:1856   */\n  pop\n  pop\n  pop\n  jump\t// out\n    /* \"#utility.yul\":1862:2296   */\ntag_21:\n    /* \"#utility.yul\":1951:1956   */\n  0x00\n    /* \"#utility.yul\":1976:2042   */\n  tag_66\n    /* \"#utility.yul\":1992:2041   */\n  tag_67\n    /* \"#utility.yul\":2034:2040   */\n  dup5\n    /* \"#utility.yul\":1992:2041   */\n  tag_19\n  jump\t// in\ntag_67:\n    /* \"#utility.yul\":1976:2042   */\n  tag_18\n  jump\t// in\ntag_66:\n    /* \"#utility.yul\":1967:2042   */\n  swap1\n  pop\n    /* \"#utility.yul\":2065:2071   */\n  dup3\n    /* \"#utility.yul\":2058:2063   */\n  dup2\n    /* \"#utility.yul\":2051:2072   */\n  mstore\n    /* \"#utility.yul\":2103:2107   */\n  0x20\n    /* \"#utility.yul\":2096:2101   */\n  dup2\n    /* \"#utility.yul\":2092:2108   */\n  add\n    /* \"#utility.yul\":2141:2144   */\n  dup5\n    /* \"#utility.yul\":2132:2138   */\n  dup5\n    /* \"#utility.yul\":2127:2130   */\n  dup5\n    /* \"#utility.yul\":2123:2139   */\n  add\n    /* \"#utility.yul\":2120:2145   */\n  gt\n    /* \"#utility.yul\":2117:2229   */\n  iszero\n  tag_68\n  jumpi\n    /* \"#utility.yul\":2148:2227   */\n  tag_69\n  tag_14\n  jump\t// in\ntag_69:\n    /* \"#utility.yul\":2117:2229   */\ntag_68:\n    /* \"#utility.yul\":2238:2290   */\n  tag_70\n    /* \"#utility.yul\":2283:2289   */\n  dup5\n    /* \"#utility.yul\":2278:2281   */\n  dup3\n    /* \"#utility.yul\":2273:2276   */\n  dup6\n    /* \"#utility.yul\":2238:2290   */\n  tag_20\n  jump\t// in\ntag_70:\n    /* \"#utility.yul\":1957:2296   */\n  pop\n    /* \"#utility.yul\":1862:2296   */\n  swap4\n  swap3\n  pop\n  pop\n  pop\n  jump\t// out\n    /* \"#utility.yul\":2316:2671   */\ntag_22:\n    /* \"#utility.yul\":2383:2388   */\n  0x00\n    /* \"#utility.yul\":2432:2435   */\n  dup3\n    /* \"#utility.yul\":2425:2429   */\n  0x1f\n    /* \"#utility.yul\":2417:2423   */\n  dup4\n    /* \"#utility.yul\":2413:2430   */\n  add\n    /* \"#utility.yul\":2409:2436   */\n  slt\n    /* \"#utility.yul\":2399:2521   */\n  tag_72\n  jumpi\n    /* \"#utility.yul\":2440:2519   */\n  tag_73\n  tag_13\n  jump\t// in\ntag_73:\n    /* \"#utility.yul\":2399:2521   */\ntag_72:\n    /* \"#utility.yul\":2550:2556   */\n  dup2\n    /* \"#utility.yul\":2544:2557   */\n  mload\n    /* \"#utility.yul\":2575:2665   */\n  tag_74\n    /* \"#utility.yul\":2661:2664   */\n  dup5\n    /* \"#utility.yul\":2653:2659   */\n  dup3\n    /* \"#utility.yul\":2646:2650   */\n  0x20\n    /* \"#utility.yul\":2638:2644   */\n  dup7\n    /* \"#utility.yul\":2634:2651   */\n  add\n    /* \"#utility.yul\":2575:2665   */\n  tag_21\n  jump\t// in\ntag_74:\n    /* \"#utility.yul\":2566:2665   */\n  swap2\n  pop\n    /* \"#utility.yul\":2389:2671   */\n  pop\n    /* \"#utility.yul\":2316:2671   */\n  swap3\n  swap2\n  pop\n  pop\n  jump\t// out\n    /* \"#utility.yul\":2677:3530   */\ntag_3:\n    /* \"#utility.yul\":2776:2782   */\n  0x00\n    /* \"#utility.yul\":2784:2790   */\n  dup1\n    /* \"#utility.yul\":2833:2835   */\n  0x40\n    /* \"#utility.yul\":2821:2830   */\n  dup4\n    /* \"#utility.yul\":2812:2819   */\n  dup6\n    /* \"#utility.yul\":2808:2831   */\n  sub\n    /* \"#utility.yul\":2804:2836   */\n  slt\n    /* \"#utility.yul\":2801:2920   */\n  iszero\n  tag_76\n  jumpi\n    /* \"#utility.yul\":2839:2918   */\n  tag_77\n  tag_11\n  jump\t// in\ntag_77:\n    /* \"#utility.yul\":2801:2920   */\ntag_76:\n    /* \"#utility.yul\":2980:2981   */\n  0x00\n    /* \"#utility.yul\":2969:2978   */\n  dup4\n    /* \"#utility.yul\":2965:2982   */\n  add\n    /* \"#utility.yul\":2959:2983   */\n  mload\n    /* \"#utility.yul\":3010:3028   */\n  0xffffffffffffffff\n    /* \"#utility.yul\":3002:3008   */\n  dup2\n    /* \"#utility.yul\":2999:3029   */\n  gt\n    /* \"#utility.yul\":2996:3113   */\n  iszero\n  tag_78\n  jumpi\n    /* \"#utility.yul\":3032:3111   */\n  tag_79\n  tag_12\n  jump\t// in\ntag_79:\n    /* \"#utility.yul\":2996:3113   */\ntag_78:\n    /* \"#utility.yul\":3137:3211   */\n  tag_80\n    /* \"#utility.yul\":3203:3210   */\n  dup6\n    /* \"#utility.yul\":3194:3200   */\n  dup3\n    /* \"#utility.yul\":3183:3192   */\n  dup7\n    /* \"#utility.yul\":3179:3201   */\n  add\n    /* \"#utility.yul\":3137:3211   */\n  tag_22\n  jump\t// in\ntag_80:\n    /* \"#utility.yul\":3127:3211   */\n  swap3\n  pop\n    /* \"#utility.yul\":2930:3221   */\n  pop\n    /* \"#utility.yul\":3281:3283   */\n  0x20\n    /* \"#utility.yul\":3270:3279   */\n  dup4\n    /* \"#utility.yul\":3266:3284   */\n  add\n    /* \"#utility.yul\":3260:3285   */\n  mload\n    /* \"#utility.yul\":3312:3330   */\n  0xffffffffffffffff\n    /* \"#utility.yul\":3304:3310   */\n  dup2\n    /* \"#utility.yul\":3301:3331   */\n  gt\n    /* \"#utility.yul\":3298:3415   */\n  iszero\n  tag_81\n  jumpi\n    /* \"#utility.yul\":3334:3413   */\n  tag_82\n  tag_12\n  jump\t// in\ntag_82:\n    /* \"#utility.yul\":3298:3415   */\ntag_81:\n    /* \"#utility.yul\":3439:3513   */\n  tag_83\n    /* \"#utility.yul\":3505:3512   */\n  dup6\n    /* \"#utility.yul\":3496:3502   */\n  dup3\n    /* \"#utility.yul\":3485:3494   */\n  dup7\n    /* \"#utility.yul\":3481:3503   */\n  add\n    /* \"#utility.yul\":3439:3513   */\n  tag_22\n  jump\t// in\ntag_83:\n    /* \"#utility.yul\":3429:3513   */\n  swap2\n  pop\n    /* \"#utility.yul\":3231:3523   */\n  pop\n    /* \"#utility.yul\":2677:3530   */\n  swap3\n  pop\n  swap3\n  swap1\n  pop\n  jump\t// out\n    /* \"#utility.yul\":3536:3635   */\ntag_23:\n    /* \"#utility.yul\":3588:3594   */\n  0x00\n    /* \"#utility.yul\":3622:3627   */\n  dup2\n    /* \"#utility.yul\":3616:3628   */\n  mload\n    /* \"#utility.yul\":3606:3628   */\n  swap1\n  pop\n    /* \"#utility.yul\":3536:3635   */\n  swap2\n  swap1\n  pop\n  jump\t// out\n    /* \"#utility.yul\":3641:3821   */\ntag_24:\n    /* \"#utility.yul\":3689:3766   */\n  0x4e487b7100000000000000000000000000000000000000000000000000000000\n    /* \"#utility.yul\":3686:3687   */\n  0x00\n    /* \"#utility.yul\":3679:3767   */\n  mstore\n    /* \"#utility.yul\":3786:3790   */\n  0x22\n    /* \"#utility.yul\":3783:3784   */\n  0x04\n    /* \"#utility.yul\":3776:3791   */\n  mstore\n    /* \"#utility.yul\":3810:3814   */\n  0x24\n    /* \"#utility.yul\":3807:3808   */\n  0x00\n    /* \"#utility.yul\":3800:3815   */\n  revert\n    /* \"#utility.yul\":3827:4147   */\ntag_25:\n    /* \"#utility.yul\":3871:3877   */\n  0x00\n    /* \"#utility.yul\":3908:3909   */\n  0x02\n    /* \"#utility.yul\":3902:3906   */\n  dup3\n    /* \"#utility.yul\":3898:3910   */\n  div\n    /* \"#utility.yul\":3888:3910   */\n  swap1\n  pop\n    /* \"#utility.yul\":3955:3956   */\n  0x01\n    /* \"#utility.yul\":3949:3953   */\n  dup3\n    /* \"#utility.yul\":3945:3957   */\n  and\n    /* \"#utility.yul\":3976:3994   */\n  dup1\n    /* \"#utility.yul\":3966:4047   */\n  tag_87\n  jumpi\n    /* \"#utility.yul\":4032:4036   */\n  0x7f\n    /* \"#utility.yul\":4024:4030   */\n  dup3\n    /* \"#utility.yul\":4020:4037   */\n  and\n    /* \"#utility.yul\":4010:4037   */\n  swap2\n  pop\n    /* \"#utility.yul\":3966:4047   */\ntag_87:\n    /* \"#utility.yul\":4094:4096   */\n  0x20\n    /* \"#utility.yul\":4086:4092   */\n  dup3\n    /* \"#utility.yul\":4083:4097   */\n  lt\n    /* \"#utility.yul\":4063:4081   */\n  dup2\n    /* \"#utility.yul\":4060:4098   */\n  sub\n    /* \"#utility.yul\":4057:4141   */\n  tag_88\n  jumpi\n    /* \"#utility.yul\":4113:4131   */\n  tag_89\n  tag_24\n  jump\t// in\ntag_89:\n    /* \"#utility.yul\":4057:4141   */\ntag_88:\n    /* \"#utility.yul\":3878:4147   */\n  pop\n    /* \"#utility.yul\":3827:4147   */\n  swap2\n  swap1\n  pop\n  jump\t// out\n    /* \"#utility.yul\":4153:4294   */\ntag_26:\n    /* \"#utility.yul\":4202:4206   */\n  0x00\n    /* \"#utility.yul\":4225:4228   */\n  dup2\n    /* \"#utility.yul\":4217:4228   */\n  swap1\n  pop\n    /* \"#utility.yul\":4248:4251   */\n  dup2\n    /* \"#utility.yul\":4245:4246   */\n  0x00\n    /* \"#utility.yul\":4238:4252   */\n  mstore\n    /* \"#utility.yul\":4282:4286   */\n  0x20\n    /* \"#utility.yul\":4279:4280   */\n  0x00\n    /* \"#utility.yul\":4269:4287   */\n  keccak256\n    /* \"#utility.yul\":4261:4287   */\n  swap1\n  pop\n    /* \"#utility.yul\":4153:4294   */\n  swap2\n  swap1\n  pop\n  jump\t// out\n    /* \"#utility.yul\":4300:4393   */\ntag_27:\n    /* \"#utility.yul\":4337:4343   */\n  0x00\n    /* \"#utility.yul\":4384:4386   */\n  0x20\n    /* \"#utility.yul\":4379:4381   */\n  0x1f\n    /* \"#utility.yul\":4372:4377   */\n  dup4\n    /* \"#utility.yul\":4368:4382   */\n  add\n    /* \"#utility.yul\":4364:4387   */\n  div\n    /* \"#utility.yul\":4354:4387   */\n  swap1\n  pop\n    /* \"#utility.yul\":4300:4393   */\n  swap2\n  swap1\n  pop\n  jump\t// out\n    /* \"#utility.yul\":4399:4506   */\ntag_28:\n    /* \"#utility.yul\":4443:4451   */\n  0x00\n    /* \"#utility.yul\":4493:4498   */\n  dup3\n    /* \"#utility.yul\":4487:4491   */\n  dup3\n    /* \"#utility.yul\":4483:4499   */\n  shl\n    /* \"#utility.yul\":4462:4499   */\n  swap1\n  pop\n    /* \"#utility.yul\":4399:4506   */\n  swap3\n  swap2\n  pop\n  pop\n  jump\t// out\n    /* \"#utility.yul\":4512:4905   */\ntag_29:\n    /* \"#utility.yul\":4581:4587   */\n  0x00\n    /* \"#utility.yul\":4631:4632   */\n  0x08\n    /* \"#utility.yul\":4619:4629   */\n  dup4\n    /* \"#utility.yul\":4615:4633   */\n  mul\n    /* \"#utility.yul\":4654:4751   */\n  tag_94\n    /* \"#utility.yul\":4684:4750   */\n  0xffffffffffffffffffffffffffffffffffffffffffffffffffffffffffffffff\n    /* \"#utility.yul\":4673:4682   */\n  dup3\n    /* \"#utility.yul\":4654:4751   */\n  tag_28\n  jump\t// in\ntag_94:\n    /* \"#utility.yul\":4772:4811   */\n  tag_95\n    /* \"#utility.yul\":4802:4810   */\n  dup7\n    /* \"#utility.yul\":4791:4800   */\n  dup4\n    /* \"#utility.yul\":4772:4811   */\n  tag_28\n  jump\t// in\ntag_95:\n    /* \"#utility.yul\":4760:4811   */\n  swap6\n  pop\n    /* \"#utility.yul\":4844:4848   */\n  dup1\n    /* \"#utility.yul\":4840:4849   */\n  not\n    /* \"#utility.yul\":4833:4838   */\n  dup5\n    /* \"#utility.yul\":4829:4850   */\n  and\n    /* \"#utility.yul\":4820:4850   */\n  swap4\n  pop\n    /* \"#utility.yul\":4893:4897   */\n  dup1\n    /* \"#utility.yul\":4883:4891   */\n  dup7\n    /* \"#utility.yul\":4879:4898   */\n  and\n    /* \"#utility.yul\":4872:4877   */\n  dup5\n    /* \"#utility.yul\":4869:4899   */\n  or\n    /* \"#utility.yul\":4859:4899   */\n  swap3\n  pop\n    /* \"#utility.yul\":4588:4905   */\n  pop\n  pop\n    /* \"#utility.yul\":4512:4905   */\n  swap4\n  swap3\n  pop\n  pop\n  pop\n  jump\t// out\n    /* \"#utility.yul\":4911:4988   */\ntag_30:\n    /* \"#utility.yul\":4948:4955   */\n  0x00\n    /* \"#utility.yul\":4977:4982   */\n  dup2\n    /* \"#utility.yul\":4966:4982   */\n  swap1\n  pop\n    /* \"#utility.yul\":4911:4988   */\n  swap2\n  swap1\n  pop\n  jump\t// out\n    /* \"#utility.yul\":4994:5054   */\ntag_31:\n    /* \"#utility.yul\":5022:5025   */\n  0x00\n    /* \"#utility.yul\":5043:5048   */\n  dup2\n    /* \"#utility.yul\":5036:5048   */\n  swap1\n  pop\n    /* \"#utility.yul\":4994:5054   */\n  swap2\n  swap1\n  pop\n  jump\t// out\n    /* \"#utility.yul\":5060:5202   */\ntag_32:\n    /* \"#utility.yul\":5110:5119   */\n  0x00\n    /* \"#utility.yul\":5143:5196   */\n  tag_99\n    /* \"#utility.yul\":5161:5195   */\n  tag_100\n    /* \"#utility.yul\":5170:5194   */\n  tag_101\n    /* \"#utility.yul\":5188:5193   */\n  dup5\n    /* \"#utility.yul\":5170:5194   */\n  tag_30\n  jump\t// in\ntag_101:\n    /* \"#utility.yul\":5161:5195   */\n  tag_31\n  jump\t// in\ntag_100:\n    /* \"#utility.yul\":5143:5196   */\n  tag_30\n  jump\t// in\ntag_99:\n    /* \"#utility.yul\":5130:5196   */\n  swap1\n  pop\n    /* \"#utility.yul\":5060:5202   */\n  swap2\n  swap1\n  pop\n  jump\t// out\n    /* \"#utility.yul\":5208:5283   */\ntag_33:\n    /* \"#utility.yul\":5251:5254   */\n  0x00\n    /* \"#utility.yul\":5272:5277   */\n  dup2\n    /* \"#utility.yul\":5265:5277   */\n  swap1\n  pop\n    /* \"#utility.yul\":5208:5283   */\n  swap2\n  swap1\n  pop\n  jump\t// out\n    /* \"#utility.yul\":5289:5558   */\ntag_34:\n    /* \"#utility.yul\":5399:5438   */\n  tag_104\n    /* \"#utility.yul\":5430:5437   */\n  dup4\n    /* \"#utility.yul\":5399:5438   */\n  tag_32\n  jump\t// in\ntag_104:\n    /* \"#utility.yul\":5460:5551   */\n  tag_105\n    /* \"#utility.yul\":5509:5550   */\n  tag_106\n    /* \"#utility.yul\":5533:5549   */\n  dup3\n    /* \"#utility.yul\":5509:5550   */\n  tag_33\n  jump\t// in\ntag_106:\n    /* \"#utility.yul\":5501:5507   */\n  dup5\n    /* \"#utility.yul\":5494:5498   */\n  dup5\n    /* \"#utility.yul\":5488:5499   */\n  sload\n    /* \"#utility.yul\":5460:5551   */\n  tag_29\n  jump\t// in\ntag_105:\n    /* \"#utility.yul\":5454:5458   */\n  dup3\n    /* \"#utility.yul\":5447:5552   */\n  sstore\n    /* \"#utility.yul\":5365:5558   */\n  pop\n    /* \"#utility.yul\":5289:5558   */\n  pop\n  pop\n  pop\n  jump\t// out\n    /* \"#utility.yul\":5564:5637   */\ntag_35:\n    /* \"#utility.yul\":5609:5612   */\n  0x00\n    /* \"#utility.yul\":5564:5637   */\n  swap1\n  jump\t// out\n    /* \"#utility.yul\":5643:5832   */\ntag_36:\n    /* \"#utility.yul\":5720:5752   */\n  tag_109\n  tag_35\n  jump\t// in\ntag_109:\n    /* \"#utility.yul\":5761:5826   */\n  tag_110\n    /* \"#utility.yul\":5819:5825   */\n  dup2\n    /* \"#utility.yul\":5811:5817   */\n  dup5\n    /* \"#utility.yul\":5805:5809   */\n  dup5\n    /* \"#utility.yul\":5761:5826   */\n  tag_34\n  jump\t// in\ntag_110:\n    /* \"#utility.yul\":5696:5832   */\n  pop\n    /* \"#utility.yul\":5643:5832   */\n  pop\n  pop\n  jump\t// out\n    /* \"#utility.yul\":5838:6024   */\ntag_37:\n    /* \"#utility.yul\":5898:6018   */\ntag_112:\n    /* \"#utility.yul\":5915:5918   */\n  dup2\n    /* \"#utility.yul\":5908:5913   */\n  dup2\n    /* \"#utility.yul\":5905:5919   */\n  lt\n    /* \"#utility.yul\":5898:6018   */\n  iszero\n  tag_114\n  jumpi\n    /* \"#utility.yul\":5969:6008   */\n  tag_115\n    /* \"#utility.yul\":6006:6007   */\n  0x00\n    /* \"#utility.yul\":5999:6004   */\n  dup3\n    /* \"#utility.yul\":5969:6008   */\n  tag_36\n  jump\t// in\ntag_115:\n    /* \"#utility.yul\":5942:5943   */\n  0x01\n    /* \"#utility.yul\":5935:5940   */\n  dup2\n    /* \"#utility.yul\":5931:5944   */\n  add\n    /* \"#utility.yul\":5922:5944   */\n  swap1\n  pop\n    /* \"#utility.yul\":5898:6018   */\n  jump(tag_112)\ntag_114:\n    /* \"#utility.yul\":5838:6024   */\n  pop\n  pop\n  jump\t// out\n    /* \"#utility.yul\":6030:6573   */\ntag_38:\n    /* \"#utility.yul\":6131:6133   */\n  0x1f\n    /* \"#utility.yul\":6126:6129   */\n  dup3\n    /* \"#utility.yul\":6123:6134   */\n  gt\n    /* \"#utility.yul\":6120:6566   */\n  iszero\n  tag_117\n  jumpi\n    /* \"#utility.yul\":6165:6203   */\n  tag_118\n    /* \"#utility.yul\":6197:6202   */\n  dup2\n    /* \"#utility.yul\":6165:6203   */\n  tag_26\n  jump\t// in\ntag_118:\n    /* \"#utility.yul\":6249:6278   */\n  tag_119\n    /* \"#utility.yul\":6267:6277   */\n  dup5\n    /* \"#utility.yul\":6249:6278   */\n  tag_27\n  jump\t// in\ntag_119:\n    /* \"#utility.yul\":6239:6247   */\n  dup2\n    /* \"#utility.yul\":6235:6279   */\n  add\n    /* \"#utility.yul\":6432:6434   */\n  0x20\n    /* \"#utility.yul\":6420:6430   */\n  dup6\n    /* \"#utility.yul\":6417:6435   */\n  lt\n    /* \"#utility.yul\":6414:6463   */\n  iszero\n  tag_120\n  jumpi\n    /* \"#utility.yul\":6453:6461   */\n  dup2\n    /* \"#utility.yul\":6438:6461   */\n  swap1\n  pop\n    /* \"#utility.yul\":6414:6463   */\ntag_120:\n    /* \"#utility.yul\":6476:6556   */\n  tag_121\n    /* \"#utility.yul\":6532:6554   */\n  tag_122\n    /* \"#utility.yul\":6550:6553   */\n  dup6\n    /* \"#utility.yul\":6532:6554   */\n  tag_27\n  jump\t// in\ntag_122:\n    /* \"#utility.yul\":6522:6530   */\n  dup4\n    /* \"#utility.yul\":6518:6555   */\n  add\n    /* \"#utility.yul\":6505:6516   */\n  dup3\n    /* \"#utility.yul\":6476:6556   */\n  tag_37\n  jump\t// in\ntag_121:\n    /* \"#utility.yul\":6135:6566   */\n  pop\n  pop\n    /* \"#utility.yul\":6120:6566   */\ntag_117:\n    /* \"#utility.yul\":6030:6573   */\n  pop\n  pop\n  pop\n  jump\t// out\n    /* \"#utility.yul\":6579:6696   */\ntag_39:\n    /* \"#utility.yul\":6633:6641   */\n  0x00\n    /* \"#utility.yul\":6683:6688   */\n  dup3\n    /* \"#utility.yul\":6677:6681   */\n  dup3\n    /* \"#utility.yul\":6673:6689   */\n  shr\n    /* \"#utility.yul\":6652:6689   */\n  swap1\n  pop\n    /* \"#utility.yul\":6579:6696   */\n  swap3\n  swap2\n  pop\n  pop\n  jump\t// out\n    /* \"#utility.yul\":6702:6871   */\ntag_40:\n    /* \"#utility.yul\":6746:6752   */\n  0x00\n    /* \"#utility.yul\":6779:6830   */\n  tag_125\n    /* \"#utility.yul\":6827:6828   */\n  0x00\n    /* \"#utility.yul\":6823:6829   */\n  not\n    /* \"#utility.yul\":6815:6820   */\n  dup5\n    /* \"#utility.yul\":6812:6813   */\n  0x08\n    /* \"#utility.yul\":6808:6821   */\n  mul\n    /* \"#utility.yul\":6779:6830   */\n  tag_39\n  jump\t// in\ntag_125:\n    /* \"#utility.yul\":6775:6831   */\n  not\n    /* \"#utility.yul\":6860:6864   */\n  dup1\n    /* \"#utility.yul\":6854:6858   */\n  dup4\n    /* \"#utility.yul\":6850:6865   */\n  and\n    /* \"#utility.yul\":6840:6865   */\n  swap2\n  pop\n    /* \"#utility.yul\":6753:6871   */\n  pop\n    /* \"#utility.yul\":6702:6871   */\n  swap3\n  swap2\n  pop\n  pop\n  jump\t// out\n    /* \"#utility.yul\":6876:7171   */\ntag_41:\n    /* \"#utility.yul\":6952:6956   */\n  0x00\n    /* \"#utility.yul\":7098:7127   */\n  tag_127\n    /* \"#utility.yul\":7123:7126   */\n  dup4\n    /* \"#utility.yul\":7117:7121   */\n  dup4\n    /* \"#utility.yul\":7098:7127   */\n  tag_40\n  jump\t// in\ntag_127:\n    /* \"#utility.yul\":7090:7127   */\n  swap2\n  pop\n    /* \"#utility.yul\":7160:7163   */\n  dup3\n    /* \"#utility.yul\":7157:7158   */\n  0x02\n    /* \"#utility.yul\":7153:7164   */\n  mul\n    /* \"#utility.yul\":7147:7151   */\n  dup3\n    /* \"#utility.yul\":7144:7165   */\n  or\n    /* \"#utility.yul\":7136:7165   */\n  swap1\n  pop\n    /* \"#utility.yul\":6876:7171   */\n  swap3\n  swap2\n  pop\n  pop\n  jump\t// out\n    /* \"#utility.yul\":7176:8571   */\ntag_7:\n    /* \"#utility.yul\":7293:7330   */\n  tag_129\n    /* \"#utility.yul\":7326:7329   */\n  dup3\n    /* \"#utility.yul\":7293:7330   */\n  tag_23\n  jump\t// in\ntag_129:\n    /* \"#utility.yul\":7395:7413   */\n  0xffffffffffffffff\n    /* \"#utility.yul\":7387:7393   */\n  dup2\n    /* \"#utility.yul\":7384:7414   */\n  gt\n    /* \"#utility.yul\":7381:7437   */\n  iszero\n  tag_130\n  jumpi\n    /* \"#utility.yul\":7417:7435   */\n  tag_131\n  tag_16\n  jump\t// in\ntag_131:\n    /* \"#utility.yul\":7381:7437   */\ntag_130:\n    /* \"#utility.yul\":7461:7499   */\n  tag_132\n    /* \"#utility.yul\":7493:7497   */\n  dup3\n    /* \"#utility.yul\":7487:7498   */\n  sload\n    /* \"#utility.yul\":7461:7499   */\n  tag_25\n  jump\t// in\ntag_132:\n    /* \"#utility.yul\":7546:7613   */\n  tag_133\n    /* \"#utility.yul\":7606:7612   */\n  dup3\n    /* \"#utility.yul\":7598:7604   */\n  dup3\n    /* \"#utility.yul\":7592:7596   */\n  dup6\n    /* \"#utility.yul\":7546:7613   */\n  tag_38\n  jump\t// in\ntag_133:\n    /* \"#utility.yul\":7640:7641   */\n  0x00\n    /* \"#utility.yul\":7664:7668   */\n  0x20\n    /* \"#utility.yul\":7651:7668   */\n  swap1\n  pop\n    /* \"#utility.yul\":7696:7698   */\n  0x1f\n    /* \"#utility.yul\":7688:7694   */\n  dup4\n    /* \"#utility.yul\":7685:7699   */\n  gt\n    /* \"#utility.yul\":7713:7714   */\n  0x01\n    /* \"#utility.yul\":7708:8326   */\n  dup2\n  eq\n  tag_135\n  jumpi\n    /* \"#utility.yul\":8370:8371   */\n  0x00\n    /* \"#utility.yul\":8387:8393   */\n  dup5\n    /* \"#utility.yul\":8384:8461   */\n  iszero\n  tag_136\n  jumpi\n    /* \"#utility.yul\":8436:8445   */\n  dup3\n    /* \"#utility.yul\":8431:8434   */\n  dup8\n    /* \"#utility.yul\":8427:8446   */\n  add\n    /* \"#utility.yul\":8421:8447   */\n  mload\n    /* \"#utility.yul\":8412:8447   */\n  swap1\n  pop\n    /* \"#utility.yul\":8384:8461   */\ntag_136:\n    /* \"#utility.yul\":8487:8554   */\n  tag_137\n    /* \"#utility.yul\":8547:8553   */\n  dup6\n    /* \"#utility.yul\":8540:8545   */\n  dup3\n    /* \"#utility.yul\":8487:8554   */\n  tag_41\n  jump\t// in\ntag_137:\n    /* \"#utility.yul\":8481:8485   */\n  dup7\n    /* \"#utility.yul\":8474:8555   */\n  sstore\n    /* \"#utility.yul\":8343:8565   */\n  pop\n    /* \"#utility.yul\":7678:8565   */\n  jump(tag_134)\n    /* \"#utility.yul\":7708:8326   */\ntag_135:\n    /* \"#utility.yul\":7760:7764   */\n  0x1f\n    /* \"#utility.yul\":7756:7765   */\n  not\n    /* \"#utility.yul\":7748:7754   */\n  dup5\n    /* \"#utility.yul\":7744:7766   */\n  and\n    /* \"#utility.yul\":7794:7831   */\n  tag_138\n    /* \"#utility.yul\":7826:7830   */\n  dup7\n    /* \"#utility.yul\":7794:7831   */\n  tag_26\n  jump\t// in\ntag_138:\n    /* \"#utility.yul\":7853:7854   */\n  0x00\n    /* \"#utility.yul\":7867:8075   */\ntag_139:\n    /* \"#utility.yul\":7881:7888   */\n  dup3\n    /* \"#utility.yul\":7878:7879   */\n  dup2\n    /* \"#utility.yul\":7875:7889   */\n  lt\n    /* \"#utility.yul\":7867:8075   */\n  iszero\n  tag_141\n  jumpi\n    /* \"#utility.yul\":7960:7969   */\n  dup5\n    /* \"#utility.yul\":7955:7958   */\n  dup10\n    /* \"#utility.yul\":7951:7970   */\n  add\n    /* \"#utility.yul\":7945:7971   */\n  mload\n    /* \"#utility.yul\":7937:7943   */\n  dup3\n    /* \"#utility.yul\":7930:7972   */\n  sstore\n    /* \"#utility.yul\":8011:8012   */\n  0x01\n    /* \"#utility.yul\":8003:8009   */\n  dup3\n    /* \"#utility.yul\":7999:8013   */\n  add\n    /* \"#utility.yul\":7989:8013   */\n  swap2\n  pop\n    /* \"#utility.yul\":8058:8060   */\n  0x20\n    /* \"#utility.yul\":8047:8056   */\n  dup6\n    /* \"#utility.yul\":8043:8061   */\n  add\n    /* \"#utility.yul\":8030:8061   */\n  swap5\n  pop\n    /* \"#utility.yul\":7904:7908   */\n  0x20\n    /* \"#utility.yul\":7901:7902   */\n  dup2\n    /* \"#utility.yul\":7897:7909   */\n  add\n    /* \"#utility.yul\":7892:7909   */\n  swap1\n  pop\n    /* \"#utility.yul\":7867:8075   */\n  jump(tag_139)\ntag_141:\n    /* \"#utility.yul\":8103:8109   */\n  dup7\n    /* \"#utility.yul\":8094:8101   */\n  dup4\n    /* \"#utility.yul\":8091:8110   */\n  lt\n    /* \"#utility.yul\":8088:8267   */\n  iszero\n  tag_142\n  jumpi\n    /* \"#utility.yul\":8161:8170   */\n  dup5\n    /* \"#utility.yul\":8156:8159   */\n  dup10\n    /* \"#utility.yul\":8152:8171   */\n  add\n    /* \"#utility.yul\":8146:8172   */\n  mload\n    /* \"#utility.yul\":8204:8252   */\n  tag_143\n    /* \"#utility.yul\":8246:8250   */\n  0x1f\n    /* \"#utility.yul\":8238:8244   */\n  dup10\n    /* \"#utility.yul\":8234:8251   */\n  and\n    /* \"#utility.yul\":8223:8232   */\n  dup3\n    /* \"#utility.yul\":8204:8252   */\n  tag_40\n  jump\t// in\ntag_143:\n    /* \"#utility.yul\":8196:8202   */\n  dup4\n    /* \"#utility.yul\":8189:8253   */\n  sstore\n    /* \"#utility.yul\":8111:8267   */\n  pop\n    /* \"#utility.yul\":8088:8267   */\ntag_142:\n    /* \"#utility.yul\":8313:8314   */\n  0x01\n    /* \"#utility.yul\":8309:8310   */\n  0x02\n    /* \"#utility.yul\":8301:8307   */\n  dup9\n    /* \"#utility.yul\":8297:8311   */\n  mul\n    /* \"#utility.yul\":8293:8315   */\n  add\n    /* \"#utility.yul\":8287:8291   */\n  dup9\n    /* \"#utility.yul\":8280:8316   */\n  sstore\n    /* \"#utility.yul\":7715:8326   */\n  pop\n  pop\n  pop\n    /* \"#utility.yul\":7678:8565   */\ntag_134:\n  pop\n    /* \"#utility.yul\":7268:8571   */\n  pop\n  pop\n  pop\n    /* \"#utility.yul\":7176:8571   */\n  pop\n  pop\n  jump\t// out\n    /* \"contracts/manager.sol\":160:1809  contract Manager {... */\ntag_9:\n  dataSize(sub_0)\n  dup1\n  dataOffset(sub_0)\n  0x00\n  codecopy\n  0x00\n  return\nstop\n\nsub_0: assembly {\n        /* \"contracts/manager.sol\":160:1809  contract Manager {... */\n      mstore(0x40, 0x80)\n      callvalue\n      dup1\n      iszero\n      tag_1\n      jumpi\n      0x00\n      dup1\n      revert\n    tag_1:\n      pop\n      jumpi(tag_2, lt(calldatasize, 0x04))\n      shr(0xe0, calldataload(0x00))\n      dup1\n      0x0cee1b72\n      eq\n      tag_3\n      jumpi\n      dup1\n      0x3164582e\n      eq\n      tag_4\n      jumpi\n      dup1\n      0x881d97dc\n      eq\n      tag_5\n      jumpi\n    tag_2:\n      0x00\n      dup1\n      revert\n        /* \"contracts/manager.sol\":1386:1804  function viewall() external view returns (address[] memory, string[] memory) {... */\n    tag_3:\n      tag_6\n      tag_7\n      jump\t// in\n    tag_6:\n      mload(0x40)\n      tag_8\n      swap3\n      swap2\n      swap1\n      tag_9\n      jump\t// in\n    tag_8:\n      mload(0x40)\n      dup1\n      swap2\n      sub\n      swap1\n      return\n        /* \"contracts/manager.sol\":1221:1341  function usertype(address adr) external  view returns (string memory) {... */\n    tag_4:\n      tag_10\n      0x04\n      dup1\n      calldatasize\n      sub\n      dup2\n      add\n      swap1\n      tag_11\n      swap2\n      swap1\n      tag_12\n      jump\t// in\n    tag_11:\n      tag_13\n      jump\t// in\n    tag_10:\n      mload(0x40)\n      tag_14\n      swap2\n      swap1\n      tag_15\n      jump\t// in\n    tag_14:\n      mload(0x40)\n      dup1\n      swap2\n      sub\n      swap1\n      return\n        /* \"contracts/manager.sol\":551:1173  function userRegister(string memory userType) external returns (string memory) {... */\n    tag_5:\n      tag_16\n      0x04\n      dup1\n      calldatasize\n      sub\n      dup2\n      add\n      swap1\n      tag_17\n      swap2\n      swap1\n      tag_18\n      jump\t// in\n    tag_17:\n      tag_19\n      jump\t// in\n    tag_16:\n      mload(0x40)\n      tag_20\n      swap2\n      swap1\n      tag_15\n      jump\t// in\n    tag_20:\n      mload(0x40)\n      dup1\n      swap2\n      sub\n      swap1\n      return\n        /* \"contracts/manager.sol\":1386:1804  function viewall() external view returns (address[] memory, string[] memory) {... */\n    tag_7:\n        /* \"contracts/manager.sol\":1428:1444  address[] memory */\n      0x60\n        /* \"contracts/manager.sol\":1446:1461  string[] memory */\n      dup1\n        /* \"contracts/manager.sol\":1470:1480  uint count */\n      0x00\n        /* \"contracts/manager.sol\":1483:1486  add */\n      0x04\n        /* \"contracts/manager.sol\":1483:1493  add.length */\n      dup1\n      sload\n      swap1\n      pop\n        /* \"contracts/manager.sol\":1470:1493  uint count = add.length */\n      swap1\n      pop\n        /* \"contracts/manager.sol\":1500:1521  address[] memory addr */\n      0x00\n        /* \"contracts/manager.sol\":1538:1543  count */\n      dup2\n        /* \"contracts/manager.sol\":1524:1544  new address[](count) */\n      0xffffffffffffffff\n      dup2\n      gt\n      iszero\n      tag_22\n      jumpi\n      tag_23\n      tag_24\n      jump\t// in\n    tag_23:\n    tag_22:\n      mload(0x40)\n      swap1\n      dup1\n      dup3\n      mstore\n      dup1\n      0x20\n      mul\n      0x20\n      add\n      dup3\n      add\n      0x40\n      mstore\n      dup1\n      iszero\n      tag_25\n      jumpi\n      dup2\n      0x20\n      add\n      0x20\n      dup3\n      mul\n      dup1\n      calldatasize\n      dup4\n      calldatacopy\n      dup1\n      dup3\n      add\n      swap2\n      pop\n      pop\n      swap1\n      pop\n    tag_25:\n      pop\n        /* \"contracts/manager.sol\":1500:1544  address[] memory addr = new address[](count) */\n      swap1\n      pop\n        /* \"contracts/manager.sol\":1551:1569  string[] memory tp */\n      0x00\n        /* \"contracts/manager.sol\":1585:1590  count */\n      dup3\n        /* \"contracts/manager.sol\":1572:1591  new string[](count) */\n      0xffffffffffffffff\n      dup2\n      gt\n      iszero\n      tag_26\n      jumpi\n      tag_27\n      tag_24\n      jump\t// in\n    tag_27:\n    tag_26:\n      mload(0x40)\n      swap1\n      dup1\n      dup3\n      mstore\n      dup1\n      0x20\n      mul\n      0x20\n      add\n      dup3\n      add\n      0x40\n      mstore\n      dup1\n      iszero\n      tag_28\n      jumpi\n      dup2\n      0x20\n      add\n    tag_29:\n      0x60\n      dup2\n      mstore\n      0x20\n      add\n      swap1\n      0x01\n      swap1\n      sub\n      swap1\n      dup2\n      tag_29\n      jumpi\n      swap1\n      pop\n    tag_28:\n      pop\n        /* \"contracts/manager.sol\":1551:1591  string[] memory tp = new string[](count) */\n      swap1\n      pop\n        /* \"contracts/manager.sol\":1605:1611  uint i */\n      0x00\n        /* \"contracts/manager.sol\":1600:1773  for (uint i = 0; i < count; i++) {... */\n    tag_30:\n        /* \"contracts/manager.sol\":1621:1626  count */\n      dup4\n        /* \"contracts/manager.sol\":1617:1618  i */\n      dup2\n        /* \"contracts/manager.sol\":1617:1626  i < count */\n      lt\n        /* \"contracts/manager.sol\":1600:1773  for (uint i = 0; i < count; i++) {... */\n      iszero\n      tag_31\n      jumpi\n        /* \"contracts/manager.sol\":1644:1659  address tempadr */\n      0x00\n        /* \"contracts/manager.sol\":1662:1665  add */\n      0x04\n        /* \"contracts/manager.sol\":1666:1667  i */\n      dup3\n        /* \"contracts/manager.sol\":1662:1668  add[i] */\n      dup2\n      sload\n      dup2\n      lt\n      tag_33\n      jumpi\n      tag_34\n      tag_35\n      jump\t// in\n    tag_34:\n    tag_33:\n      swap1\n      0x00\n      mstore\n      keccak256(0x00, 0x20)\n      add\n      0x00\n      swap1\n      sload\n      swap1\n      0x0100\n      exp\n      swap1\n      div\n      0xffffffffffffffffffffffffffffffffffffffff\n      and\n        /* \"contracts/manager.sol\":1644:1668  address tempadr = add[i] */\n      swap1\n      pop\n        /* \"contracts/manager.sol\":1679:1696  string memory typ */\n      0x00\n        /* \"contracts/manager.sol\":1699:1706  maptype */\n      0x03\n        /* \"contracts/manager.sol\":1699:1715  maptype[tempadr] */\n      0x00\n        /* \"contracts/manager.sol\":1707:1714  tempadr */\n      dup4\n        /* \"contracts/manager.sol\":1699:1715  maptype[tempadr] */\n      0xffffffffffffffffffffffffffffffffffffffff\n      and\n      0xffffffffffffffffffffffffffffffffffffffff\n      and\n      dup2\n      mstore\n      0x20\n      add\n      swap1\n      dup2\n      mstore\n      0x20\n      add\n      0x00\n      keccak256\n        /* \"contracts/manager.sol\":1679:1715  string memory typ = maptype[tempadr] */\n      dup1\n      sload\n      tag_37\n      swap1\n      tag_38\n      jump\t// in\n    tag_37:\n      dup1\n      0x1f\n      add\n      0x20\n      dup1\n      swap2\n      div\n      mul\n      0x20\n      add\n      mload(0x40)\n      swap1\n      dup2\n      add\n      0x40\n      mstore\n      dup1\n      swap3\n      swap2\n      swap1\n      dup2\n      dup2\n      mstore\n      0x20\n      add\n      dup3\n      dup1\n      sload\n      tag_39\n      swap1\n      tag_38\n      jump\t// in\n    tag_39:\n      dup1\n      iszero\n      tag_40\n      jumpi\n      dup1\n      0x1f\n      lt\n      tag_41\n      jumpi\n      0x0100\n      dup1\n      dup4\n      sload\n      div\n      mul\n      dup4\n      mstore\n      swap2\n      0x20\n      add\n      swap2\n      jump(tag_40)\n    tag_41:\n      dup3\n      add\n      swap2\n      swap1\n      0x00\n      mstore\n      keccak256(0x00, 0x20)\n      swap1\n    tag_42:\n      dup2\n      sload\n      dup2\n      mstore\n      swap1\n      0x01\n      add\n      swap1\n      0x20\n      add\n      dup1\n      dup4\n      gt\n      tag_42\n      jumpi\n      dup3\n      swap1\n      sub\n      0x1f\n      and\n      dup3\n      add\n      swap2\n    tag_40:\n      pop\n      pop\n      pop\n      pop\n      pop\n      swap1\n      pop\n        /* \"contracts/manager.sol\":1736:1743  tempadr */\n      dup2\n        /* \"contracts/manager.sol\":1726:1730  addr */\n      dup6\n        /* \"contracts/manager.sol\":1731:1732  i */\n      dup5\n        /* \"contracts/manager.sol\":1726:1733  addr[i] */\n      dup2\n      mload\n      dup2\n      lt\n      tag_43\n      jumpi\n      tag_44\n      tag_35\n      jump\t// in\n    tag_44:\n    tag_43:\n      0x20\n      mul\n      0x20\n      add\n      add\n        /* \"contracts/manager.sol\":1726:1743  addr[i] = tempadr */\n      swap1\n      0xffffffffffffffffffffffffffffffffffffffff\n      and\n      swap1\n      dup2\n      0xffffffffffffffffffffffffffffffffffffffff\n      and\n      dup2\n      mstore\n      pop\n      pop\n        /* \"contracts/manager.sol\":1762:1765  typ */\n      dup1\n        /* \"contracts/manager.sol\":1754:1756  tp */\n      dup5\n        /* \"contracts/manager.sol\":1757:1758  i */\n      dup5\n        /* \"contracts/manager.sol\":1754:1759  tp[i] */\n      dup2\n      mload\n      dup2\n      lt\n      tag_45\n      jumpi\n      tag_46\n      tag_35\n      jump\t// in\n    tag_46:\n    tag_45:\n      0x20\n      mul\n      0x20\n      add\n      add\n        /* \"contracts/manager.sol\":1754:1765  tp[i] = typ */\n      dup2\n      swap1\n      mstore\n      pop\n        /* \"contracts/manager.sol\":1633:1773  {... */\n      pop\n      pop\n        /* \"contracts/manager.sol\":1628:1631  i++ */\n      dup1\n      dup1\n      tag_47\n      swap1\n      tag_48\n      jump\t// in\n    tag_47:\n      swap2\n      pop\n      pop\n        /* \"contracts/manager.sol\":1600:1773  for (uint i = 0; i < count; i++) {... */\n      jump(tag_30)\n    tag_31:\n      pop\n        /* \"contracts/manager.sol\":1787:1791  addr */\n      dup2\n        /* \"contracts/manager.sol\":1793:1795  tp */\n      dup2\n        /* \"contracts/manager.sol\":1779:1796  return (addr, tp) */\n      swap5\n      pop\n      swap5\n      pop\n      pop\n      pop\n      pop\n        /* \"contracts/manager.sol\":1386:1804  function viewall() external view returns (address[] memory, string[] memory) {... */\n      swap1\n      swap2\n      jump\t// out\n        /* \"contracts/manager.sol\":1221:1341  function usertype(address adr) external  view returns (string memory) {... */\n    tag_13:\n        /* \"contracts/manager.sol\":1276:1289  string memory */\n      0x60\n        /* \"contracts/manager.sol\":1319:1326  maptype */\n      0x03\n        /* \"contracts/manager.sol\":1319:1331  maptype[adr] */\n      0x00\n        /* \"contracts/manager.sol\":1327:1330  adr */\n      dup4\n        /* \"contracts/manager.sol\":1319:1331  maptype[adr] */\n      0xffffffffffffffffffffffffffffffffffffffff\n      and\n      0xffffffffffffffffffffffffffffffffffffffff\n      and\n      dup2\n      mstore\n      0x20\n      add\n      swap1\n      dup2\n      mstore\n      0x20\n      add\n      0x00\n      keccak256\n        /* \"contracts/manager.sol\":1312:1331  return maptype[adr] */\n      dup1\n      sload\n      tag_50\n      swap1\n      tag_38\n      jump\t// in\n    tag_50:\n      dup1\n      0x1f\n      add\n      0x20\n      dup1\n      swap2\n      div\n      mul\n      0x20\n      add\n      mload(0x40)\n      swap1\n      dup2\n      add\n      0x40\n      mstore\n      dup1\n      swap3\n      swap2\n      swap1\n      dup2\n      dup2\n      mstore\n      0x20\n      add\n      dup3\n      dup1\n      sload\n      tag_51\n      swap1\n      tag_38\n      jump\t// in\n    tag_51:\n      dup1\n      iszero\n      tag_52\n      jumpi\n      dup1\n      0x1f\n      lt\n      tag_53\n      jumpi\n      0x0100\n      dup1\n      dup4\n      sload\n      div\n      mul\n      dup4\n      mstore\n      swap2\n      0x20\n      add\n      swap2\n      jump(tag_52)\n    tag_53:\n      dup3\n      add\n      swap2\n      swap1\n      0x00\n      mstore\n      keccak256(0x00, 0x20)\n      swap1\n    tag_54:\n      dup2\n      sload\n      dup2\n      mstore\n      swap1\n      0x01\n      add\n      swap1\n      0x20\n      add\n      dup1\n      dup4\n      gt\n      tag_54\n      jumpi\n      dup3\n      swap1\n      sub\n      0x1f\n      and\n      dup3\n      add\n      swap2\n    tag_52:\n      pop\n      pop\n      pop\n      pop\n      pop\n      swap1\n      pop\n        /* \"contracts/manager.sol\":1221:1341  function usertype(address adr) external  view returns (string memory) {... */\n      swap2\n      swap1\n      pop\n      jump\t// out\n        /* \"contracts/manager.sol\":551:1173  function userRegister(string memory userType) external returns (string memory) {... */\n    tag_19:\n        /* \"contracts/manager.sol\":615:628  string memory */\n      0x60\n        /* \"contracts/manager.sol\":771:776  type1 */\n      0x00\n        /* \"contracts/manager.sol\":754:777  abi.encodePacked(type1) */\n      add(0x20, mload(0x40))\n      tag_56\n      swap2\n      swap1\n      tag_57\n      jump\t// in\n    tag_56:\n      mload(0x40)\n      0x20\n      dup2\n      dup4\n      sub\n      sub\n      dup2\n      mstore\n      swap1\n      0x40\n      mstore\n        /* \"contracts/manager.sol\":744:778  keccak256(abi.encodePacked(type1)) */\n      dup1\n      mload\n      swap1\n      0x20\n      add\n      keccak256\n        /* \"contracts/manager.sol\":730:738  userType */\n      dup3\n        /* \"contracts/manager.sol\":713:739  abi.encodePacked(userType) */\n      add(0x20, mload(0x40))\n      tag_58\n      swap2\n      swap1\n      tag_59\n      jump\t// in\n    tag_58:\n      mload(0x40)\n      0x20\n      dup2\n      dup4\n      sub\n      sub\n      dup2\n      mstore\n      swap1\n      0x40\n      mstore\n        /* \"contracts/manager.sol\":703:740  keccak256(abi.encodePacked(userType)) */\n      dup1\n      mload\n      swap1\n      0x20\n      add\n      keccak256\n        /* \"contracts/manager.sol\":703:778  keccak256(abi.encodePacked(userType)) == keccak256(abi.encodePacked(type1)) */\n      eq\n        /* \"contracts/manager.sol\":703:874  keccak256(abi.encodePacked(userType)) == keccak256(abi.encodePacked(type1)) ||... */\n      dup1\n      tag_60\n      jumpi\n      pop\n        /* \"contracts/manager.sol\":867:872  type2 */\n      0x01\n        /* \"contracts/manager.sol\":850:873  abi.encodePacked(type2) */\n      add(0x20, mload(0x40))\n      tag_61\n      swap2\n      swap1\n      tag_57\n      jump\t// in\n    tag_61:\n      mload(0x40)\n      0x20\n      dup2\n      dup4\n      sub\n      sub\n      dup2\n      mstore\n      swap1\n      0x40\n      mstore\n        /* \"contracts/manager.sol\":840:874  keccak256(abi.encodePacked(type2)) */\n      dup1\n      mload\n      swap1\n      0x20\n      add\n      keccak256\n        /* \"contracts/manager.sol\":826:834  userType */\n      dup3\n        /* \"contracts/manager.sol\":809:835  abi.encodePacked(userType) */\n      add(0x20, mload(0x40))\n      tag_62\n      swap2\n      swap1\n      tag_59\n      jump\t// in\n    tag_62:\n      mload(0x40)\n      0x20\n      dup2\n      dup4\n      sub\n      sub\n      dup2\n      mstore\n      swap1\n      0x40\n      mstore\n        /* \"contracts/manager.sol\":799:836  keccak256(abi.encodePacked(userType)) */\n      dup1\n      mload\n      swap1\n      0x20\n      add\n      keccak256\n        /* \"contracts/manager.sol\":799:874  keccak256(abi.encodePacked(userType)) == keccak256(abi.encodePacked(type2)) */\n      eq\n        /* \"contracts/manager.sol\":703:874  keccak256(abi.encodePacked(userType)) == keccak256(abi.encodePacked(type1)) ||... */\n    tag_60:\n        /* \"contracts/manager.sol\":681:928  require(... */\n      tag_63\n      jumpi\n      mload(0x40)\n      0x08c379a000000000000000000000000000000000000000000000000000000000\n      dup2\n      mstore\n      0x04\n      add\n      tag_64\n      swap1\n      tag_65\n      jump\t// in\n    tag_64:\n      mload(0x40)\n      dup1\n      swap2\n      sub\n      swap1\n      revert\n    tag_63:\n        /* \"contracts/manager.sol\":948:958  isRegister */\n      0x05\n        /* \"contracts/manager.sol\":948:970  isRegister[msg.sender] */\n      0x00\n        /* \"contracts/manager.sol\":959:969  msg.sender */\n      caller\n        /* \"contracts/manager.sol\":948:970  isRegister[msg.sender] */\n      0xffffffffffffffffffffffffffffffffffffffff\n      and\n      0xffffffffffffffffffffffffffffffffffffffff\n      and\n      dup2\n      mstore\n      0x20\n      add\n      swap1\n      dup2\n      mstore\n      0x20\n      add\n      0x00\n      keccak256\n      0x00\n      swap1\n      sload\n      swap1\n      0x0100\n      exp\n      swap1\n      div\n      0xff\n      and\n        /* \"contracts/manager.sol\":947:970  !isRegister[msg.sender] */\n      iszero\n        /* \"contracts/manager.sol\":939:1002  require(!isRegister[msg.sender], \"You have already registered\") */\n      tag_66\n      jumpi\n      mload(0x40)\n      0x08c379a000000000000000000000000000000000000000000000000000000000\n      dup2\n      mstore\n      0x04\n      add\n      tag_67\n      swap1\n      tag_68\n      jump\t// in\n    tag_67:\n      mload(0x40)\n      dup1\n      swap2\n      sub\n      swap1\n      revert\n    tag_66:\n        /* \"contracts/manager.sol\":1035:1043  userType */\n      dup2\n        /* \"contracts/manager.sol\":1013:1020  maptype */\n      0x03\n        /* \"contracts/manager.sol\":1013:1032  maptype[msg.sender] */\n      0x00\n        /* \"contracts/manager.sol\":1021:1031  msg.sender */\n      caller\n        /* \"contracts/manager.sol\":1013:1032  maptype[msg.sender] */\n      0xffffffffffffffffffffffffffffffffffffffff\n      and\n      0xffffffffffffffffffffffffffffffffffffffff\n      and\n      dup2\n      mstore\n      0x20\n      add\n      swap1\n      dup2\n      mstore\n      0x20\n      add\n      0x00\n      keccak256\n        /* \"contracts/manager.sol\":1013:1043  maptype[msg.sender] = userType */\n      swap1\n      dup2\n      tag_69\n      swap2\n      swap1\n      tag_70\n      jump\t// in\n    tag_69:\n      pop\n        /* \"contracts/manager.sol\":1078:1082  true */\n      0x01\n        /* \"contracts/manager.sol\":1054:1064  isRegister */\n      0x05\n        /* \"contracts/manager.sol\":1054:1076  isRegister[msg.sender] */\n      0x00\n        /* \"contracts/manager.sol\":1065:1075  msg.sender */\n      caller\n        /* \"contracts/manager.sol\":1054:1076  isRegister[msg.sender] */\n      0xffffffffffffffffffffffffffffffffffffffff\n      and\n      0xffffffffffffffffffffffffffffffffffffffff\n      and\n      dup2\n      mstore\n      0x20\n      add\n      swap1\n      dup2\n      mstore\n      0x20\n      add\n      0x00\n      keccak256\n      0x00\n        /* \"contracts/manager.sol\":1054:1082  isRegister[msg.sender]= true */\n      0x0100\n      exp\n      dup2\n      sload\n      dup2\n      0xff\n      mul\n      not\n      and\n      swap1\n      dup4\n      iszero\n      iszero\n      mul\n      or\n      swap1\n      sstore\n      pop\n        /* \"contracts/manager.sol\":1093:1096  add */\n      0x04\n        /* \"contracts/manager.sol\":1102:1112  msg.sender */\n      caller\n        /* \"contracts/manager.sol\":1093:1113  add.push(msg.sender) */\n      swap1\n      dup1\n      0x01\n      dup2\n      sload\n      add\n      dup1\n      dup3\n      sstore\n      dup1\n      swap2\n      pop\n      pop\n      0x01\n      swap1\n      sub\n      swap1\n      0x00\n      mstore\n      keccak256(0x00, 0x20)\n      add\n      0x00\n      swap1\n      swap2\n      swap1\n      swap2\n      swap1\n      swap2\n      0x0100\n      exp\n      dup2\n      sload\n      dup2\n      0xffffffffffffffffffffffffffffffffffffffff\n      mul\n      not\n      and\n      swap1\n      dup4\n      0xffffffffffffffffffffffffffffffffffffffff\n      and\n      mul\n      or\n      swap1\n      sstore\n      pop\n        /* \"contracts/manager.sol\":1126:1165  return (\"User registered successfully\") */\n      mload(0x40)\n      dup1\n      0x40\n      add\n      0x40\n      mstore\n      dup1\n      0x1c\n      dup2\n      mstore\n      0x20\n      add\n      0x557365722072656769737465726564207375636365737366756c6c7900000000\n      dup2\n      mstore\n      pop\n      swap1\n      pop\n        /* \"contracts/manager.sol\":551:1173  function userRegister(string memory userType) external returns (string memory) {... */\n      swap2\n      swap1\n      pop\n      jump\t// out\n        /* \"#utility.yul\":7:121   */\n    tag_72:\n        /* \"#utility.yul\":74:80   */\n      0x00\n        /* \"#utility.yul\":108:113   */\n      dup2\n        /* \"#utility.yul\":102:114   */\n      mload\n        /* \"#utility.yul\":92:114   */\n      swap1\n      pop\n        /* \"#utility.yul\":7:121   */\n      swap2\n      swap1\n      pop\n      jump\t// out\n        /* \"#utility.yul\":127:311   */\n    tag_73:\n        /* \"#utility.yul\":226:237   */\n      0x00\n        /* \"#utility.yul\":260:266   */\n      dup3\n        /* \"#utility.yul\":255:258   */\n      dup3\n        /* \"#utility.yul\":248:267   */\n      mstore\n        /* \"#utility.yul\":300:304   */\n      0x20\n        /* \"#utility.yul\":295:298   */\n      dup3\n        /* \"#utility.yul\":291:305   */\n      add\n        /* \"#utility.yul\":276:305   */\n      swap1\n      pop\n        /* \"#utility.yul\":127:311   */\n      swap3\n      swap2\n      pop\n      pop\n      jump\t// out\n        /* \"#utility.yul\":317:449   */\n    tag_74:\n        /* \"#utility.yul\":384:388   */\n      0x00\n        /* \"#utility.yul\":407:410   */\n      dup2\n        /* \"#utility.yul\":399:410   */\n      swap1\n      pop\n        /* \"#utility.yul\":437:441   */\n      0x20\n        /* \"#utility.yul\":432:435   */\n      dup3\n        /* \"#utility.yul\":428:442   */\n      add\n        /* \"#utility.yul\":420:442   */\n      swap1\n      pop\n        /* \"#utility.yul\":317:449   */\n      swap2\n      swap1\n      pop\n      jump\t// out\n        /* \"#utility.yul\":455:581   */\n    tag_75:\n        /* \"#utility.yul\":492:499   */\n      0x00\n        /* \"#utility.yul\":532:574   */\n      0xffffffffffffffffffffffffffffffffffffffff\n        /* \"#utility.yul\":525:530   */\n      dup3\n        /* \"#utility.yul\":521:575   */\n      and\n        /* \"#utility.yul\":510:575   */\n      swap1\n      pop\n        /* \"#utility.yul\":455:581   */\n      swap2\n      swap1\n      pop\n      jump\t// out\n        /* \"#utility.yul\":587:683   */\n    tag_76:\n        /* \"#utility.yul\":624:631   */\n      0x00\n        /* \"#utility.yul\":653:677   */\n      tag_138\n        /* \"#utility.yul\":671:676   */\n      dup3\n        /* \"#utility.yul\":653:677   */\n      tag_75\n      jump\t// in\n    tag_138:\n        /* \"#utility.yul\":642:677   */\n      swap1\n      pop\n        /* \"#utility.yul\":587:683   */\n      swap2\n      swap1\n      pop\n      jump\t// out\n        /* \"#utility.yul\":689:797   */\n    tag_77:\n        /* \"#utility.yul\":766:790   */\n      tag_140\n        /* \"#utility.yul\":784:789   */\n      dup2\n        /* \"#utility.yul\":766:790   */\n      tag_76\n      jump\t// in\n    tag_140:\n        /* \"#utility.yul\":761:764   */\n      dup3\n        /* \"#utility.yul\":754:791   */\n      mstore\n        /* \"#utility.yul\":689:797   */\n      pop\n      pop\n      jump\t// out\n        /* \"#utility.yul\":803:982   */\n    tag_78:\n        /* \"#utility.yul\":872:882   */\n      0x00\n        /* \"#utility.yul\":893:939   */\n      tag_142\n        /* \"#utility.yul\":935:938   */\n      dup4\n        /* \"#utility.yul\":927:933   */\n      dup4\n        /* \"#utility.yul\":893:939   */\n      tag_77\n      jump\t// in\n    tag_142:\n        /* \"#utility.yul\":971:975   */\n      0x20\n        /* \"#utility.yul\":966:969   */\n      dup4\n        /* \"#utility.yul\":962:976   */\n      add\n        /* \"#utility.yul\":948:976   */\n      swap1\n      pop\n        /* \"#utility.yul\":803:982   */\n      swap3\n      swap2\n      pop\n      pop\n      jump\t// out\n        /* \"#utility.yul\":988:1101   */\n    tag_79:\n        /* \"#utility.yul\":1058:1062   */\n      0x00\n        /* \"#utility.yul\":1090:1094   */\n      0x20\n        /* \"#utility.yul\":1085:1088   */\n      dup3\n        /* \"#utility.yul\":1081:1095   */\n      add\n        /* \"#utility.yul\":1073:1095   */\n      swap1\n      pop\n        /* \"#utility.yul\":988:1101   */\n      swap2\n      swap1\n      pop\n      jump\t// out\n        /* \"#utility.yul\":1137:1869   */\n    tag_80:\n        /* \"#utility.yul\":1256:1259   */\n      0x00\n        /* \"#utility.yul\":1285:1339   */\n      tag_145\n        /* \"#utility.yul\":1333:1338   */\n      dup3\n        /* \"#utility.yul\":1285:1339   */\n      tag_72\n      jump\t// in\n    tag_145:\n        /* \"#utility.yul\":1355:1441   */\n      tag_146\n        /* \"#utility.yul\":1434:1440   */\n      dup2\n        /* \"#utility.yul\":1429:1432   */\n      dup6\n        /* \"#utility.yul\":1355:1441   */\n      tag_73\n      jump\t// in\n    tag_146:\n        /* \"#utility.yul\":1348:1441   */\n      swap4\n      pop\n        /* \"#utility.yul\":1465:1521   */\n      tag_147\n        /* \"#utility.yul\":1515:1520   */\n      dup4\n        /* \"#utility.yul\":1465:1521   */\n      tag_74\n      jump\t// in\n    tag_147:\n        /* \"#utility.yul\":1544:1551   */\n      dup1\n        /* \"#utility.yul\":1575:1576   */\n      0x00\n        /* \"#utility.yul\":1560:1844   */\n    tag_148:\n        /* \"#utility.yul\":1585:1591   */\n      dup4\n        /* \"#utility.yul\":1582:1583   */\n      dup2\n        /* \"#utility.yul\":1579:1592   */\n      lt\n        /* \"#utility.yul\":1560:1844   */\n      iszero\n      tag_150\n      jumpi\n        /* \"#utility.yul\":1661:1667   */\n      dup2\n        /* \"#utility.yul\":1655:1668   */\n      mload\n        /* \"#utility.yul\":1688:1751   */\n      tag_151\n        /* \"#utility.yul\":1747:1750   */\n      dup9\n        /* \"#utility.yul\":1732:1745   */\n      dup3\n        /* \"#utility.yul\":1688:1751   */\n      tag_78\n      jump\t// in\n    tag_151:\n        /* \"#utility.yul\":1681:1751   */\n      swap8\n      pop\n        /* \"#utility.yul\":1774:1834   */\n      tag_152\n        /* \"#utility.yul\":1827:1833   */\n      dup4\n        /* \"#utility.yul\":1774:1834   */\n      tag_79\n      jump\t// in\n    tag_152:\n        /* \"#utility.yul\":1764:1834   */\n      swap3\n      pop\n        /* \"#utility.yul\":1620:1844   */\n      pop\n        /* \"#utility.yul\":1607:1608   */\n      0x01\n        /* \"#utility.yul\":1604:1605   */\n      dup2\n        /* \"#utility.yul\":1600:1609   */\n      add\n        /* \"#utility.yul\":1595:1609   */\n      swap1\n      pop\n        /* \"#utility.yul\":1560:1844   */\n      jump(tag_148)\n    tag_150:\n        /* \"#utility.yul\":1564:1578   */\n      pop\n        /* \"#utility.yul\":1860:1863   */\n      dup6\n        /* \"#utility.yul\":1853:1863   */\n      swap4\n      pop\n        /* \"#utility.yul\":1261:1869   */\n      pop\n      pop\n      pop\n        /* \"#utility.yul\":1137:1869   */\n      swap3\n      swap2\n      pop\n      pop\n      jump\t// out\n        /* \"#utility.yul\":1875:1999   */\n    tag_81:\n        /* \"#utility.yul\":1952:1958   */\n      0x00\n        /* \"#utility.yul\":1986:1991   */\n      dup2\n        /* \"#utility.yul\":1980:1992   */\n      mload\n        /* \"#utility.yul\":1970:1992   */\n      swap1\n      pop\n        /* \"#utility.yul\":1875:1999   */\n      swap2\n      swap1\n      pop\n      jump\t// out\n        /* \"#utility.yul\":2005:2199   */\n    tag_82:\n        /* \"#utility.yul\":2114:2125   */\n      0x00\n        /* \"#utility.yul\":2148:2154   */\n      dup3\n        /* \"#utility.yul\":2143:2146   */\n      dup3\n        /* \"#utility.yul\":2136:2155   */\n      mstore\n        /* \"#utility.yul\":2188:2192   */\n      0x20\n        /* \"#utility.yul\":2183:2186   */\n      dup3\n        /* \"#utility.yul\":2179:2193   */\n      add\n        /* \"#utility.yul\":2164:2193   */\n      swap1\n      pop\n        /* \"#utility.yul\":2005:2199   */\n      swap3\n      swap2\n      pop\n      pop\n      jump\t// out\n        /* \"#utility.yul\":2205:2347   */\n    tag_83:\n        /* \"#utility.yul\":2282:2286   */\n      0x00\n        /* \"#utility.yul\":2305:2308   */\n      dup2\n        /* \"#utility.yul\":2297:2308   */\n      swap1\n      pop\n        /* \"#utility.yul\":2335:2339   */\n      0x20\n        /* \"#utility.yul\":2330:2333   */\n      dup3\n        /* \"#utility.yul\":2326:2340   */\n      add\n        /* \"#utility.yul\":2318:2340   */\n      swap1\n      pop\n        /* \"#utility.yul\":2205:2347   */\n      swap2\n      swap1\n      pop\n      jump\t// out\n        /* \"#utility.yul\":2353:2452   */\n    tag_84:\n        /* \"#utility.yul\":2405:2411   */\n      0x00\n        /* \"#utility.yul\":2439:2444   */\n      dup2\n        /* \"#utility.yul\":2433:2445   */\n      mload\n        /* \"#utility.yul\":2423:2445   */\n      swap1\n      pop\n        /* \"#utility.yul\":2353:2452   */\n      swap2\n      swap1\n      pop\n      jump\t// out\n        /* \"#utility.yul\":2458:2617   */\n    tag_85:\n        /* \"#utility.yul\":2532:2543   */\n      0x00\n        /* \"#utility.yul\":2566:2572   */\n      dup3\n        /* \"#utility.yul\":2561:2564   */\n      dup3\n        /* \"#utility.yul\":2554:2573   */\n      mstore\n        /* \"#utility.yul\":2606:2610   */\n      0x20\n        /* \"#utility.yul\":2601:2604   */\n      dup3\n        /* \"#utility.yul\":2597:2611   */\n      add\n        /* \"#utility.yul\":2582:2611   */\n      swap1\n      pop\n        /* \"#utility.yul\":2458:2617   */\n      swap3\n      swap2\n      pop\n      pop\n      jump\t// out\n        /* \"#utility.yul\":2623:2869   */\n    tag_86:\n        /* \"#utility.yul\":2704:2705   */\n      0x00\n        /* \"#utility.yul\":2714:2827   */\n    tag_159:\n        /* \"#utility.yul\":2728:2734   */\n      dup4\n        /* \"#utility.yul\":2725:2726   */\n      dup2\n        /* \"#utility.yul\":2722:2735   */\n      lt\n        /* \"#utility.yul\":2714:2827   */\n      iszero\n      tag_161\n      jumpi\n        /* \"#utility.yul\":2813:2814   */\n      dup1\n        /* \"#utility.yul\":2808:2811   */\n      dup3\n        /* \"#utility.yul\":2804:2815   */\n      add\n        /* \"#utility.yul\":2798:2816   */\n      mload\n        /* \"#utility.yul\":2794:2795   */\n      dup2\n        /* \"#utility.yul\":2789:2792   */\n      dup5\n        /* \"#utility.yul\":2785:2796   */\n      add\n        /* \"#utility.yul\":2778:2817   */\n      mstore\n        /* \"#utility.yul\":2750:2752   */\n      0x20\n        /* \"#utility.yul\":2747:2748   */\n      dup2\n        /* \"#utility.yul\":2743:2753   */\n      add\n        /* \"#utility.yul\":2738:2753   */\n      swap1\n      pop\n        /* \"#utility.yul\":2714:2827   */\n      jump(tag_159)\n    tag_161:\n        /* \"#utility.yul\":2861:2862   */\n      0x00\n        /* \"#utility.yul\":2852:2858   */\n      dup5\n        /* \"#utility.yul\":2847:2850   */\n      dup5\n        /* \"#utility.yul\":2843:2859   */\n      add\n        /* \"#utility.yul\":2836:2863   */\n      mstore\n        /* \"#utility.yul\":2685:2869   */\n      pop\n        /* \"#utility.yul\":2623:2869   */\n      pop\n      pop\n      pop\n      jump\t// out\n        /* \"#utility.yul\":2875:2977   */\n    tag_87:\n        /* \"#utility.yul\":2916:2922   */\n      0x00\n        /* \"#utility.yul\":2967:2969   */\n      0x1f\n        /* \"#utility.yul\":2963:2970   */\n      not\n        /* \"#utility.yul\":2958:2960   */\n      0x1f\n        /* \"#utility.yul\":2951:2956   */\n      dup4\n        /* \"#utility.yul\":2947:2961   */\n      add\n        /* \"#utility.yul\":2943:2971   */\n      and\n        /* \"#utility.yul\":2933:2971   */\n      swap1\n      pop\n        /* \"#utility.yul\":2875:2977   */\n      swap2\n      swap1\n      pop\n      jump\t// out\n        /* \"#utility.yul\":2983:3340   */\n    tag_88:\n        /* \"#utility.yul\":3061:3064   */\n      0x00\n        /* \"#utility.yul\":3089:3128   */\n      tag_164\n        /* \"#utility.yul\":3122:3127   */\n      dup3\n        /* \"#utility.yul\":3089:3128   */\n      tag_84\n      jump\t// in\n    tag_164:\n        /* \"#utility.yul\":3144:3205   */\n      tag_165\n        /* \"#utility.yul\":3198:3204   */\n      dup2\n        /* \"#utility.yul\":3193:3196   */\n      dup6\n        /* \"#utility.yul\":3144:3205   */\n      tag_85\n      jump\t// in\n    tag_165:\n        /* \"#utility.yul\":3137:3205   */\n      swap4\n      pop\n        /* \"#utility.yul\":3214:3279   */\n      tag_166\n        /* \"#utility.yul\":3272:3278   */\n      dup2\n        /* \"#utility.yul\":3267:3270   */\n      dup6\n        /* \"#utility.yul\":3260:3264   */\n      0x20\n        /* \"#utility.yul\":3253:3258   */\n      dup7\n        /* \"#utility.yul\":3249:3265   */\n      add\n        /* \"#utility.yul\":3214:3279   */\n      tag_86\n      jump\t// in\n    tag_166:\n        /* \"#utility.yul\":3304:3333   */\n      tag_167\n        /* \"#utility.yul\":3326:3332   */\n      dup2\n        /* \"#utility.yul\":3304:3333   */\n      tag_87\n      jump\t// in\n    tag_167:\n        /* \"#utility.yul\":3299:3302   */\n      dup5\n        /* \"#utility.yul\":3295:3334   */\n      add\n        /* \"#utility.yul\":3288:3334   */\n      swap2\n      pop\n        /* \"#utility.yul\":3065:3340   */\n      pop\n        /* \"#utility.yul\":2983:3340   */\n      swap3\n      swap2\n      pop\n      pop\n      jump\t// out\n        /* \"#utility.yul\":3346:3542   */\n    tag_89:\n        /* \"#utility.yul\":3435:3445   */\n      0x00\n        /* \"#utility.yul\":3470:3536   */\n      tag_169\n        /* \"#utility.yul\":3532:3535   */\n      dup4\n        /* \"#utility.yul\":3524:3530   */\n      dup4\n        /* \"#utility.yul\":3470:3536   */\n      tag_88\n      jump\t// in\n    tag_169:\n        /* \"#utility.yul\":3456:3536   */\n      swap1\n      pop\n        /* \"#utility.yul\":3346:3542   */\n      swap3\n      swap2\n      pop\n      pop\n      jump\t// out\n        /* \"#utility.yul\":3548:3671   */\n    tag_90:\n        /* \"#utility.yul\":3628:3632   */\n      0x00\n        /* \"#utility.yul\":3660:3664   */\n      0x20\n        /* \"#utility.yul\":3655:3658   */\n      dup3\n        /* \"#utility.yul\":3651:3665   */\n      add\n        /* \"#utility.yul\":3643:3665   */\n      swap1\n      pop\n        /* \"#utility.yul\":3548:3671   */\n      swap2\n      swap1\n      pop\n      jump\t// out\n        /* \"#utility.yul\":3705:4696   */\n    tag_91:\n        /* \"#utility.yul\":3844:3847   */\n      0x00\n        /* \"#utility.yul\":3873:3937   */\n      tag_172\n        /* \"#utility.yul\":3931:3936   */\n      dup3\n        /* \"#utility.yul\":3873:3937   */\n      tag_81\n      jump\t// in\n    tag_172:\n        /* \"#utility.yul\":3953:4049   */\n      tag_173\n        /* \"#utility.yul\":4042:4048   */\n      dup2\n        /* \"#utility.yul\":4037:4040   */\n      dup6\n        /* \"#utility.yul\":3953:4049   */\n      tag_82\n      jump\t// in\n    tag_173:\n        /* \"#utility.yul\":3946:4049   */\n      swap4\n      pop\n        /* \"#utility.yul\":4075:4078   */\n      dup4\n        /* \"#utility.yul\":4120:4124   */\n      0x20\n        /* \"#utility.yul\":4112:4118   */\n      dup3\n        /* \"#utility.yul\":4108:4125   */\n      mul\n        /* \"#utility.yul\":4103:4106   */\n      dup6\n        /* \"#utility.yul\":4099:4126   */\n      add\n        /* \"#utility.yul\":4150:4216   */\n      tag_174\n        /* \"#utility.yul\":4210:4215   */\n      dup6\n        /* \"#utility.yul\":4150:4216   */\n      tag_83\n      jump\t// in\n    tag_174:\n        /* \"#utility.yul\":4239:4246   */\n      dup1\n        /* \"#utility.yul\":4270:4271   */\n      0x00\n        /* \"#utility.yul\":4255:4651   */\n    tag_175:\n        /* \"#utility.yul\":4280:4286   */\n      dup6\n        /* \"#utility.yul\":4277:4278   */\n      dup2\n        /* \"#utility.yul\":4274:4287   */\n      lt\n        /* \"#utility.yul\":4255:4651   */\n      iszero\n      tag_177\n      jumpi\n        /* \"#utility.yul\":4351:4360   */\n      dup5\n        /* \"#utility.yul\":4345:4349   */\n      dup5\n        /* \"#utility.yul\":4341:4361   */\n      sub\n        /* \"#utility.yul\":4336:4339   */\n      dup10\n        /* \"#utility.yul\":4329:4362   */\n      mstore\n        /* \"#utility.yul\":4402:4408   */\n      dup2\n        /* \"#utility.yul\":4396:4409   */\n      mload\n        /* \"#utility.yul\":4430:4514   */\n      tag_178\n        /* \"#utility.yul\":4509:4513   */\n      dup6\n        /* \"#utility.yul\":4494:4507   */\n      dup3\n        /* \"#utility.yul\":4430:4514   */\n      tag_89\n      jump\t// in\n    tag_178:\n        /* \"#utility.yul\":4422:4514   */\n      swap5\n      pop\n        /* \"#utility.yul\":4537:4607   */\n      tag_179\n        /* \"#utility.yul\":4600:4606   */\n      dup4\n        /* \"#utility.yul\":4537:4607   */\n      tag_90\n      jump\t// in\n    tag_179:\n        /* \"#utility.yul\":4527:4607   */\n      swap3\n      pop\n        /* \"#utility.yul\":4636:4640   */\n      0x20\n        /* \"#utility.yul\":4631:4634   */\n      dup11\n        /* \"#utility.yul\":4627:4641   */\n      add\n        /* \"#utility.yul\":4620:4641   */\n      swap10\n      pop\n        /* \"#utility.yul\":4315:4651   */\n      pop\n        /* \"#utility.yul\":4302:4303   */\n      0x01\n        /* \"#utility.yul\":4299:4300   */\n      dup2\n        /* \"#utility.yul\":4295:4304   */\n      add\n        /* \"#utility.yul\":4290:4304   */\n      swap1\n      pop\n        /* \"#utility.yul\":4255:4651   */\n      jump(tag_175)\n    tag_177:\n        /* \"#utility.yul\":4259:4273   */\n      pop\n        /* \"#utility.yul\":4667:4671   */\n      dup3\n        /* \"#utility.yul\":4660:4671   */\n      swap8\n      pop\n        /* \"#utility.yul\":4687:4690   */\n      dup8\n        /* \"#utility.yul\":4680:4690   */\n      swap6\n      pop\n        /* \"#utility.yul\":3849:4696   */\n      pop\n      pop\n      pop\n      pop\n      pop\n        /* \"#utility.yul\":3705:4696   */\n      swap3\n      swap2\n      pop\n      pop\n      jump\t// out\n        /* \"#utility.yul\":4702:5376   */\n    tag_9:\n        /* \"#utility.yul\":4943:4947   */\n      0x00\n        /* \"#utility.yul\":4981:4983   */\n      0x40\n        /* \"#utility.yul\":4970:4979   */\n      dup3\n        /* \"#utility.yul\":4966:4984   */\n      add\n        /* \"#utility.yul\":4958:4984   */\n      swap1\n      pop\n        /* \"#utility.yul\":5030:5039   */\n      dup2\n        /* \"#utility.yul\":5024:5028   */\n      dup2\n        /* \"#utility.yul\":5020:5040   */\n      sub\n        /* \"#utility.yul\":5016:5017   */\n      0x00\n        /* \"#utility.yul\":5005:5014   */\n      dup4\n        /* \"#utility.yul\":5001:5018   */\n      add\n        /* \"#utility.yul\":4994:5041   */\n      mstore\n        /* \"#utility.yul\":5058:5166   */\n      tag_181\n        /* \"#utility.yul\":5161:5165   */\n      dup2\n        /* \"#utility.yul\":5152:5158   */\n      dup6\n        /* \"#utility.yul\":5058:5166   */\n      tag_80\n      jump\t// in\n    tag_181:\n        /* \"#utility.yul\":5050:5166   */\n      swap1\n      pop\n        /* \"#utility.yul\":5213:5222   */\n      dup2\n        /* \"#utility.yul\":5207:5211   */\n      dup2\n        /* \"#utility.yul\":5203:5223   */\n      sub\n        /* \"#utility.yul\":5198:5200   */\n      0x20\n        /* \"#utility.yul\":5187:5196   */\n      dup4\n        /* \"#utility.yul\":5183:5201   */\n      add\n        /* \"#utility.yul\":5176:5224   */\n      mstore\n        /* \"#utility.yul\":5241:5369   */\n      tag_182\n        /* \"#utility.yul\":5364:5368   */\n      dup2\n        /* \"#utility.yul\":5355:5361   */\n      dup5\n        /* \"#utility.yul\":5241:5369   */\n      tag_91\n      jump\t// in\n    tag_182:\n        /* \"#utility.yul\":5233:5369   */\n      swap1\n      pop\n        /* \"#utility.yul\":4702:5376   */\n      swap4\n      swap3\n      pop\n      pop\n      pop\n      jump\t// out\n        /* \"#utility.yul\":5382:5457   */\n    tag_92:\n        /* \"#utility.yul\":5415:5421   */\n      0x00\n        /* \"#utility.yul\":5448:5450   */\n      0x40\n        /* \"#utility.yul\":5442:5451   */\n      mload\n        /* \"#utility.yul\":5432:5451   */\n      swap1\n      pop\n        /* \"#utility.yul\":5382:5457   */\n      swap1\n      jump\t// out\n        /* \"#utility.yul\":5463:5580   */\n    tag_93:\n        /* \"#utility.yul\":5572:5573   */\n      0x00\n        /* \"#utility.yul\":5569:5570   */\n      dup1\n        /* \"#utility.yul\":5562:5574   */\n      revert\n        /* \"#utility.yul\":5586:5703   */\n    tag_94:\n        /* \"#utility.yul\":5695:5696   */\n      0x00\n        /* \"#utility.yul\":5692:5693   */\n      dup1\n        /* \"#utility.yul\":5685:5697   */\n      revert\n        /* \"#utility.yul\":5709:5831   */\n    tag_95:\n        /* \"#utility.yul\":5782:5806   */\n      tag_187\n        /* \"#utility.yul\":5800:5805   */\n      dup2\n        /* \"#utility.yul\":5782:5806   */\n      tag_76\n      jump\t// in\n    tag_187:\n        /* \"#utility.yul\":5775:5780   */\n      dup2\n        /* \"#utility.yul\":5772:5807   */\n      eq\n        /* \"#utility.yul\":5762:5825   */\n      tag_188\n      jumpi\n        /* \"#utility.yul\":5821:5822   */\n      0x00\n        /* \"#utility.yul\":5818:5819   */\n      dup1\n        /* \"#utility.yul\":5811:5823   */\n      revert\n        /* \"#utility.yul\":5762:5825   */\n    tag_188:\n        /* \"#utility.yul\":5709:5831   */\n      pop\n      jump\t// out\n        /* \"#utility.yul\":5837:5976   */\n    tag_96:\n        /* \"#utility.yul\":5883:5888   */\n      0x00\n        /* \"#utility.yul\":5921:5927   */\n      dup2\n        /* \"#utility.yul\":5908:5928   */\n      calldataload\n        /* \"#utility.yul\":5899:5928   */\n      swap1\n      pop\n        /* \"#utility.yul\":5937:5970   */\n      tag_190\n        /* \"#utility.yul\":5964:5969   */\n      dup2\n        /* \"#utility.yul\":5937:5970   */\n      tag_95\n      jump\t// in\n    tag_190:\n        /* \"#utility.yul\":5837:5976   */\n      swap3\n      swap2\n      pop\n      pop\n      jump\t// out\n        /* \"#utility.yul\":5982:6311   */\n    tag_12:\n        /* \"#utility.yul\":6041:6047   */\n      0x00\n        /* \"#utility.yul\":6090:6092   */\n      0x20\n        /* \"#utility.yul\":6078:6087   */\n      dup3\n        /* \"#utility.yul\":6069:6076   */\n      dup5\n        /* \"#utility.yul\":6065:6088   */\n      sub\n        /* \"#utility.yul\":6061:6093   */\n      slt\n        /* \"#utility.yul\":6058:6177   */\n      iszero\n      tag_192\n      jumpi\n        /* \"#utility.yul\":6096:6175   */\n      tag_193\n      tag_93\n      jump\t// in\n    tag_193:\n        /* \"#utility.yul\":6058:6177   */\n    tag_192:\n        /* \"#utility.yul\":6216:6217   */\n      0x00\n        /* \"#utility.yul\":6241:6294   */\n      tag_194\n        /* \"#utility.yul\":6286:6293   */\n      dup5\n        /* \"#utility.yul\":6277:6283   */\n      dup3\n        /* \"#utility.yul\":6266:6275   */\n      dup6\n        /* \"#utility.yul\":6262:6284   */\n      add\n        /* \"#utility.yul\":6241:6294   */\n      tag_96\n      jump\t// in\n    tag_194:\n        /* \"#utility.yul\":6231:6294   */\n      swap2\n      pop\n        /* \"#utility.yul\":6187:6304   */\n      pop\n        /* \"#utility.yul\":5982:6311   */\n      swap3\n      swap2\n      pop\n      pop\n      jump\t// out\n        /* \"#utility.yul\":6317:6486   */\n    tag_97:\n        /* \"#utility.yul\":6401:6412   */\n      0x00\n        /* \"#utility.yul\":6435:6441   */\n      dup3\n        /* \"#utility.yul\":6430:6433   */\n      dup3\n        /* \"#utility.yul\":6423:6442   */\n      mstore\n        /* \"#utility.yul\":6475:6479   */\n      0x20\n        /* \"#utility.yul\":6470:6473   */\n      dup3\n        /* \"#utility.yul\":6466:6480   */\n      add\n        /* \"#utility.yul\":6451:6480   */\n      swap1\n      pop\n        /* \"#utility.yul\":6317:6486   */\n      swap3\n      swap2\n      pop\n      pop\n      jump\t// out\n        /* \"#utility.yul\":6492:6869   */\n    tag_98:\n        /* \"#utility.yul\":6580:6583   */\n      0x00\n        /* \"#utility.yul\":6608:6647   */\n      tag_197\n        /* \"#utility.yul\":6641:6646   */\n      dup3\n        /* \"#utility.yul\":6608:6647   */\n      tag_84\n      jump\t// in\n    tag_197:\n        /* \"#utility.yul\":6663:6734   */\n      tag_198\n        /* \"#utility.yul\":6727:6733   */\n      dup2\n        /* \"#utility.yul\":6722:6725   */\n      dup6\n        /* \"#utility.yul\":6663:6734   */\n      tag_97\n      jump\t// in\n    tag_198:\n        /* \"#utility.yul\":6656:6734   */\n      swap4\n      pop\n        /* \"#utility.yul\":6743:6808   */\n      tag_199\n        /* \"#utility.yul\":6801:6807   */\n      dup2\n        /* \"#utility.yul\":6796:6799   */\n      dup6\n        /* \"#utility.yul\":6789:6793   */\n      0x20\n        /* \"#utility.yul\":6782:6787   */\n      dup7\n        /* \"#utility.yul\":6778:6794   */\n      add\n        /* \"#utility.yul\":6743:6808   */\n      tag_86\n      jump\t// in\n    tag_199:\n        /* \"#utility.yul\":6833:6862   */\n      tag_200\n        /* \"#utility.yul\":6855:6861   */\n      dup2\n        /* \"#utility.yul\":6833:6862   */\n      tag_87\n      jump\t// in\n    tag_200:\n        /* \"#utility.yul\":6828:6831   */\n      dup5\n        /* \"#utility.yul\":6824:6863   */\n      add\n        /* \"#utility.yul\":6817:6863   */\n      swap2\n      pop\n        /* \"#utility.yul\":6584:6869   */\n      pop\n        /* \"#utility.yul\":6492:6869   */\n      swap3\n      swap2\n      pop\n      pop\n      jump\t// out\n        /* \"#utility.yul\":6875:7188   */\n    tag_15:\n        /* \"#utility.yul\":6988:6992   */\n      0x00\n        /* \"#utility.yul\":7026:7028   */\n      0x20\n        /* \"#utility.yul\":7015:7024   */\n      dup3\n        /* \"#utility.yul\":7011:7029   */\n      add\n        /* \"#utility.yul\":7003:7029   */\n      swap1\n      pop\n        /* \"#utility.yul\":7075:7084   */\n      dup2\n        /* \"#utility.yul\":7069:7073   */\n      dup2\n        /* \"#utility.yul\":7065:7085   */\n      sub\n        /* \"#utility.yul\":7061:7062   */\n      0x00\n        /* \"#utility.yul\":7050:7059   */\n      dup4\n        /* \"#utility.yul\":7046:7063   */\n      add\n        /* \"#utility.yul\":7039:7086   */\n      mstore\n        /* \"#utility.yul\":7103:7181   */\n      tag_202\n        /* \"#utility.yul\":7176:7180   */\n      dup2\n        /* \"#utility.yul\":7167:7173   */\n      dup5\n        /* \"#utility.yul\":7103:7181   */\n      tag_98\n      jump\t// in\n    tag_202:\n        /* \"#utility.yul\":7095:7181   */\n      swap1\n      pop\n        /* \"#utility.yul\":6875:7188   */\n      swap3\n      swap2\n      pop\n      pop\n      jump\t// out\n        /* \"#utility.yul\":7194:7311   */\n    tag_99:\n        /* \"#utility.yul\":7303:7304   */\n      0x00\n        /* \"#utility.yul\":7300:7301   */\n      dup1\n        /* \"#utility.yul\":7293:7305   */\n      revert\n        /* \"#utility.yul\":7317:7434   */\n    tag_100:\n        /* \"#utility.yul\":7426:7427   */\n      0x00\n        /* \"#utility.yul\":7423:7424   */\n      dup1\n        /* \"#utility.yul\":7416:7428   */\n      revert\n        /* \"#utility.yul\":7440:7620   */\n    tag_24:\n        /* \"#utility.yul\":7488:7565   */\n      0x4e487b7100000000000000000000000000000000000000000000000000000000\n        /* \"#utility.yul\":7485:7486   */\n      0x00\n        /* \"#utility.yul\":7478:7566   */\n      mstore\n        /* \"#utility.yul\":7585:7589   */\n      0x41\n        /* \"#utility.yul\":7582:7583   */\n      0x04\n        /* \"#utility.yul\":7575:7590   */\n      mstore\n        /* \"#utility.yul\":7609:7613   */\n      0x24\n        /* \"#utility.yul\":7606:7607   */\n      0x00\n        /* \"#utility.yul\":7599:7614   */\n      revert\n        /* \"#utility.yul\":7626:7907   */\n    tag_101:\n        /* \"#utility.yul\":7709:7736   */\n      tag_207\n        /* \"#utility.yul\":7731:7735   */\n      dup3\n        /* \"#utility.yul\":7709:7736   */\n      tag_87\n      jump\t// in\n    tag_207:\n        /* \"#utility.yul\":7701:7707   */\n      dup2\n        /* \"#utility.yul\":7697:7737   */\n      add\n        /* \"#utility.yul\":7839:7845   */\n      dup2\n        /* \"#utility.yul\":7827:7837   */\n      dup2\n        /* \"#utility.yul\":7824:7846   */\n      lt\n        /* \"#utility.yul\":7803:7821   */\n      0xffffffffffffffff\n        /* \"#utility.yul\":7791:7801   */\n      dup3\n        /* \"#utility.yul\":7788:7822   */\n      gt\n        /* \"#utility.yul\":7785:7847   */\n      or\n        /* \"#utility.yul\":7782:7870   */\n      iszero\n      tag_208\n      jumpi\n        /* \"#utility.yul\":7850:7868   */\n      tag_209\n      tag_24\n      jump\t// in\n    tag_209:\n        /* \"#utility.yul\":7782:7870   */\n    tag_208:\n        /* \"#utility.yul\":7890:7900   */\n      dup1\n        /* \"#utility.yul\":7886:7888   */\n      0x40\n        /* \"#utility.yul\":7879:7901   */\n      mstore\n        /* \"#utility.yul\":7669:7907   */\n      pop\n        /* \"#utility.yul\":7626:7907   */\n      pop\n      pop\n      jump\t// out\n        /* \"#utility.yul\":7913:8042   */\n    tag_102:\n        /* \"#utility.yul\":7947:7953   */\n      0x00\n        /* \"#utility.yul\":7974:7994   */\n      tag_211\n      tag_92\n      jump\t// in\n    tag_211:\n        /* \"#utility.yul\":7964:7994   */\n      swap1\n      pop\n        /* \"#utility.yul\":8003:8036   */\n      tag_212\n        /* \"#utility.yul\":8031:8035   */\n      dup3\n        /* \"#utility.yul\":8023:8029   */\n      dup3\n        /* \"#utility.yul\":8003:8036   */\n      tag_101\n      jump\t// in\n    tag_212:\n        /* \"#utility.yul\":7913:8042   */\n      swap2\n      swap1\n      pop\n      jump\t// out\n        /* \"#utility.yul\":8048:8356   */\n    tag_103:\n        /* \"#utility.yul\":8110:8114   */\n      0x00\n        /* \"#utility.yul\":8200:8218   */\n      0xffffffffffffffff\n        /* \"#utility.yul\":8192:8198   */\n      dup3\n        /* \"#utility.yul\":8189:8219   */\n      gt\n        /* \"#utility.yul\":8186:8242   */\n      iszero\n      tag_214\n      jumpi\n        /* \"#utility.yul\":8222:8240   */\n      tag_215\n      tag_24\n      jump\t// in\n    tag_215:\n        /* \"#utility.yul\":8186:8242   */\n    tag_214:\n        /* \"#utility.yul\":8260:8289   */\n      tag_216\n        /* \"#utility.yul\":8282:8288   */\n      dup3\n        /* \"#utility.yul\":8260:8289   */\n      tag_87\n      jump\t// in\n    tag_216:\n        /* \"#utility.yul\":8252:8289   */\n      swap1\n      pop\n        /* \"#utility.yul\":8344:8348   */\n      0x20\n        /* \"#utility.yul\":8338:8342   */\n      dup2\n        /* \"#utility.yul\":8334:8349   */\n      add\n        /* \"#utility.yul\":8326:8349   */\n      swap1\n      pop\n        /* \"#utility.yul\":8048:8356   */\n      swap2\n      swap1\n      pop\n      jump\t// out\n        /* \"#utility.yul\":8362:8508   */\n    tag_104:\n        /* \"#utility.yul\":8459:8465   */\n      dup3\n        /* \"#utility.yul\":8454:8457   */\n      dup2\n        /* \"#utility.yul\":8449:8452   */\n      dup4\n        /* \"#utility.yul\":8436:8466   */\n      calldatacopy\n        /* \"#utility.yul\":8500:8501   */\n      0x00\n        /* \"#utility.yul\":8491:8497   */\n      dup4\n        /* \"#utility.yul\":8486:8489   */\n      dup4\n        /* \"#utility.yul\":8482:8498   */\n      add\n        /* \"#utility.yul\":8475:8502   */\n      mstore\n        /* \"#utility.yul\":8362:8508   */\n      pop\n      pop\n      pop\n      jump\t// out\n        /* \"#utility.yul\":8514:8939   */\n    tag_105:\n        /* \"#utility.yul\":8592:8597   */\n      0x00\n        /* \"#utility.yul\":8617:8683   */\n      tag_219\n        /* \"#utility.yul\":8633:8682   */\n      tag_220\n        /* \"#utility.yul\":8675:8681   */\n      dup5\n        /* \"#utility.yul\":8633:8682   */\n      tag_103\n      jump\t// in\n    tag_220:\n        /* \"#utility.yul\":8617:8683   */\n      tag_102\n      jump\t// in\n    tag_219:\n        /* \"#utility.yul\":8608:8683   */\n      swap1\n      pop\n        /* \"#utility.yul\":8706:8712   */\n      dup3\n        /* \"#utility.yul\":8699:8704   */\n      dup2\n        /* \"#utility.yul\":8692:8713   */\n      mstore\n        /* \"#utility.yul\":8744:8748   */\n      0x20\n        /* \"#utility.yul\":8737:8742   */\n      dup2\n        /* \"#utility.yul\":8733:8749   */\n      add\n        /* \"#utility.yul\":8782:8785   */\n      dup5\n        /* \"#utility.yul\":8773:8779   */\n      dup5\n        /* \"#utility.yul\":8768:8771   */\n      dup5\n        /* \"#utility.yul\":8764:8780   */\n      add\n        /* \"#utility.yul\":8761:8786   */\n      gt\n        /* \"#utility.yul\":8758:8870   */\n      iszero\n      tag_221\n      jumpi\n        /* \"#utility.yul\":8789:8868   */\n      tag_222\n      tag_100\n      jump\t// in\n    tag_222:\n        /* \"#utility.yul\":8758:8870   */\n    tag_221:\n        /* \"#utility.yul\":8879:8933   */\n      tag_223\n        /* \"#utility.yul\":8926:8932   */\n      dup5\n        /* \"#utility.yul\":8921:8924   */\n      dup3\n        /* \"#utility.yul\":8916:8919   */\n      dup6\n        /* \"#utility.yul\":8879:8933   */\n      tag_104\n      jump\t// in\n    tag_223:\n        /* \"#utility.yul\":8598:8939   */\n      pop\n        /* \"#utility.yul\":8514:8939   */\n      swap4\n      swap3\n      pop\n      pop\n      pop\n      jump\t// out\n        /* \"#utility.yul\":8959:9299   */\n    tag_106:\n        /* \"#utility.yul\":9015:9020   */\n      0x00\n        /* \"#utility.yul\":9064:9067   */\n      dup3\n        /* \"#utility.yul\":9057:9061   */\n      0x1f\n        /* \"#utility.yul\":9049:9055   */\n      dup4\n        /* \"#utility.yul\":9045:9062   */\n      add\n        /* \"#utility.yul\":9041:9068   */\n      slt\n        /* \"#utility.yul\":9031:9153   */\n      tag_225\n      jumpi\n        /* \"#utility.yul\":9072:9151   */\n      tag_226\n      tag_99\n      jump\t// in\n    tag_226:\n        /* \"#utility.yul\":9031:9153   */\n    tag_225:\n        /* \"#utility.yul\":9189:9195   */\n      dup2\n        /* \"#utility.yul\":9176:9196   */\n      calldataload\n        /* \"#utility.yul\":9214:9293   */\n      tag_227\n        /* \"#utility.yul\":9289:9292   */\n      dup5\n        /* \"#utility.yul\":9281:9287   */\n      dup3\n        /* \"#utility.yul\":9274:9278   */\n      0x20\n        /* \"#utility.yul\":9266:9272   */\n      dup7\n        /* \"#utility.yul\":9262:9279   */\n      add\n        /* \"#utility.yul\":9214:9293   */\n      tag_105\n      jump\t// in\n    tag_227:\n        /* \"#utility.yul\":9205:9293   */\n      swap2\n      pop\n        /* \"#utility.yul\":9021:9299   */\n      pop\n        /* \"#utility.yul\":8959:9299   */\n      swap3\n      swap2\n      pop\n      pop\n      jump\t// out\n        /* \"#utility.yul\":9305:9814   */\n    tag_18:\n        /* \"#utility.yul\":9374:9380   */\n      0x00\n        /* \"#utility.yul\":9423:9425   */\n      0x20\n        /* \"#utility.yul\":9411:9420   */\n      dup3\n        /* \"#utility.yul\":9402:9409   */\n      dup5\n        /* \"#utility.yul\":9398:9421   */\n      sub\n        /* \"#utility.yul\":9394:9426   */\n      slt\n        /* \"#utility.yul\":9391:9510   */\n      iszero\n      tag_229\n      jumpi\n        /* \"#utility.yul\":9429:9508   */\n      tag_230\n      tag_93\n      jump\t// in\n    tag_230:\n        /* \"#utility.yul\":9391:9510   */\n    tag_229:\n        /* \"#utility.yul\":9577:9578   */\n      0x00\n        /* \"#utility.yul\":9566:9575   */\n      dup3\n        /* \"#utility.yul\":9562:9579   */\n      add\n        /* \"#utility.yul\":9549:9580   */\n      calldataload\n        /* \"#utility.yul\":9607:9625   */\n      0xffffffffffffffff\n        /* \"#utility.yul\":9599:9605   */\n      dup2\n        /* \"#utility.yul\":9596:9626   */\n      gt\n        /* \"#utility.yul\":9593:9710   */\n      iszero\n      tag_231\n      jumpi\n        /* \"#utility.yul\":9629:9708   */\n      tag_232\n      tag_94\n      jump\t// in\n    tag_232:\n        /* \"#utility.yul\":9593:9710   */\n    tag_231:\n        /* \"#utility.yul\":9734:9797   */\n      tag_233\n        /* \"#utility.yul\":9789:9796   */\n      dup5\n        /* \"#utility.yul\":9780:9786   */\n      dup3\n        /* \"#utility.yul\":9769:9778   */\n      dup6\n        /* \"#utility.yul\":9765:9787   */\n      add\n        /* \"#utility.yul\":9734:9797   */\n      tag_106\n      jump\t// in\n    tag_233:\n        /* \"#utility.yul\":9724:9797   */\n      swap2\n      pop\n        /* \"#utility.yul\":9520:9807   */\n      pop\n        /* \"#utility.yul\":9305:9814   */\n      swap3\n      swap2\n      pop\n      pop\n      jump\t// out\n        /* \"#utility.yul\":9820:10000   */\n    tag_35:\n        /* \"#utility.yul\":9868:9945   */\n      0x4e487b7100000000000000000000000000000000000000000000000000000000\n        /* \"#utility.yul\":9865:9866   */\n      0x00\n        /* \"#utility.yul\":9858:9946   */\n      mstore\n        /* \"#utility.yul\":9965:9969   */\n      0x32\n        /* \"#utility.yul\":9962:9963   */\n      0x04\n        /* \"#utility.yul\":9955:9970   */\n      mstore\n        /* \"#utility.yul\":9989:9993   */\n      0x24\n        /* \"#utility.yul\":9986:9987   */\n      0x00\n        /* \"#utility.yul\":9979:9994   */\n      revert\n        /* \"#utility.yul\":10006:10186   */\n    tag_107:\n        /* \"#utility.yul\":10054:10131   */\n      0x4e487b7100000000000000000000000000000000000000000000000000000000\n        /* \"#utility.yul\":10051:10052   */\n      0x00\n        /* \"#utility.yul\":10044:10132   */\n      mstore\n        /* \"#utility.yul\":10151:10155   */\n      0x22\n        /* \"#utility.yul\":10148:10149   */\n      0x04\n        /* \"#utility.yul\":10141:10156   */\n      mstore\n        /* \"#utility.yul\":10175:10179   */\n      0x24\n        /* \"#utility.yul\":10172:10173   */\n      0x00\n        /* \"#utility.yul\":10165:10180   */\n      revert\n        /* \"#utility.yul\":10192:10512   */\n    tag_38:\n        /* \"#utility.yul\":10236:10242   */\n      0x00\n        /* \"#utility.yul\":10273:10274   */\n      0x02\n        /* \"#utility.yul\":10267:10271   */\n      dup3\n        /* \"#utility.yul\":10263:10275   */\n      div\n        /* \"#utility.yul\":10253:10275   */\n      swap1\n      pop\n        /* \"#utility.yul\":10320:10321   */\n      0x01\n        /* \"#utility.yul\":10314:10318   */\n      dup3\n        /* \"#utility.yul\":10310:10322   */\n      and\n        /* \"#utility.yul\":10341:10359   */\n      dup1\n        /* \"#utility.yul\":10331:10412   */\n      tag_237\n      jumpi\n        /* \"#utility.yul\":10397:10401   */\n      0x7f\n        /* \"#utility.yul\":10389:10395   */\n      dup3\n        /* \"#utility.yul\":10385:10402   */\n      and\n        /* \"#utility.yul\":10375:10402   */\n      swap2\n      pop\n        /* \"#utility.yul\":10331:10412   */\n    tag_237:\n        /* \"#utility.yul\":10459:10461   */\n      0x20\n        /* \"#utility.yul\":10451:10457   */\n      dup3\n        /* \"#utility.yul\":10448:10462   */\n      lt\n        /* \"#utility.yul\":10428:10446   */\n      dup2\n        /* \"#utility.yul\":10425:10463   */\n      sub\n        /* \"#utility.yul\":10422:10506   */\n      tag_238\n      jumpi\n        /* \"#utility.yul\":10478:10496   */\n      tag_239\n      tag_107\n      jump\t// in\n    tag_239:\n        /* \"#utility.yul\":10422:10506   */\n    tag_238:\n        /* \"#utility.yul\":10243:10512   */\n      pop\n        /* \"#utility.yul\":10192:10512   */\n      swap2\n      swap1\n      pop\n      jump\t// out\n        /* \"#utility.yul\":10518:10698   */\n    tag_108:\n        /* \"#utility.yul\":10566:10643   */\n      0x4e487b7100000000000000000000000000000000000000000000000000000000\n        /* \"#utility.yul\":10563:10564   */\n      0x00\n        /* \"#utility.yul\":10556:10644   */\n      mstore\n        /* \"#utility.yul\":10663:10667   */\n      0x11\n        /* \"#utility.yul\":10660:10661   */\n      0x04\n        /* \"#utility.yul\":10653:10668   */\n      mstore\n        /* \"#utility.yul\":10687:10691   */\n      0x24\n        /* \"#utility.yul\":10684:10685   */\n      0x00\n        /* \"#utility.yul\":10677:10692   */\n      revert\n        /* \"#utility.yul\":10704:10781   */\n    tag_109:\n        /* \"#utility.yul\":10741:10748   */\n      0x00\n        /* \"#utility.yul\":10770:10775   */\n      dup2\n        /* \"#utility.yul\":10759:10775   */\n      swap1\n      pop\n        /* \"#utility.yul\":10704:10781   */\n      swap2\n      swap1\n      pop\n      jump\t// out\n        /* \"#utility.yul\":10787:11020   */\n    tag_48:\n        /* \"#utility.yul\":10826:10829   */\n      0x00\n        /* \"#utility.yul\":10849:10873   */\n      tag_243\n        /* \"#utility.yul\":10867:10872   */\n      dup3\n        /* \"#utility.yul\":10849:10873   */\n      tag_109\n      jump\t// in\n    tag_243:\n        /* \"#utility.yul\":10840:10873   */\n      swap2\n      pop\n        /* \"#utility.yul\":10895:10961   */\n      0xffffffffffffffffffffffffffffffffffffffffffffffffffffffffffffffff\n        /* \"#utility.yul\":10888:10893   */\n      dup3\n        /* \"#utility.yul\":10885:10962   */\n      sub\n        /* \"#utility.yul\":10882:10985   */\n      tag_244\n      jumpi\n        /* \"#utility.yul\":10965:10983   */\n      tag_245\n      tag_108\n      jump\t// in\n    tag_245:\n        /* \"#utility.yul\":10882:10985   */\n    tag_244:\n        /* \"#utility.yul\":11012:11013   */\n      0x01\n        /* \"#utility.yul\":11005:11010   */\n      dup3\n        /* \"#utility.yul\":11001:11014   */\n      add\n        /* \"#utility.yul\":10994:11014   */\n      swap1\n      pop\n        /* \"#utility.yul\":10787:11020   */\n      swap2\n      swap1\n      pop\n      jump\t// out\n        /* \"#utility.yul\":11026:11174   */\n    tag_110:\n        /* \"#utility.yul\":11128:11139   */\n      0x00\n        /* \"#utility.yul\":11165:11168   */\n      dup2\n        /* \"#utility.yul\":11150:11168   */\n      swap1\n      pop\n        /* \"#utility.yul\":11026:11174   */\n      swap3\n      swap2\n      pop\n      pop\n      jump\t// out\n        /* \"#utility.yul\":11180:11321   */\n    tag_111:\n        /* \"#utility.yul\":11229:11233   */\n      0x00\n        /* \"#utility.yul\":11252:11255   */\n      dup2\n        /* \"#utility.yul\":11244:11255   */\n      swap1\n      pop\n        /* \"#utility.yul\":11275:11278   */\n      dup2\n        /* \"#utility.yul\":11272:11273   */\n      0x00\n        /* \"#utility.yul\":11265:11279   */\n      mstore\n        /* \"#utility.yul\":11309:11313   */\n      0x20\n        /* \"#utility.yul\":11306:11307   */\n      0x00\n        /* \"#utility.yul\":11296:11314   */\n      keccak256\n        /* \"#utility.yul\":11288:11314   */\n      swap1\n      pop\n        /* \"#utility.yul\":11180:11321   */\n      swap2\n      swap1\n      pop\n      jump\t// out\n        /* \"#utility.yul\":11351:12225   */\n    tag_112:\n        /* \"#utility.yul\":11454:11457   */\n      0x00\n        /* \"#utility.yul\":11491:11496   */\n      dup2\n        /* \"#utility.yul\":11485:11497   */\n      sload\n        /* \"#utility.yul\":11520:11556   */\n      tag_249\n        /* \"#utility.yul\":11546:11555   */\n      dup2\n        /* \"#utility.yul\":11520:11556   */\n      tag_38\n      jump\t// in\n    tag_249:\n        /* \"#utility.yul\":11572:11661   */\n      tag_250\n        /* \"#utility.yul\":11654:11660   */\n      dup2\n        /* \"#utility.yul\":11649:11652   */\n      dup7\n        /* \"#utility.yul\":11572:11661   */\n      tag_110\n      jump\t// in\n    tag_250:\n        /* \"#utility.yul\":11565:11661   */\n      swap5\n      pop\n        /* \"#utility.yul\":11692:11693   */\n      0x01\n        /* \"#utility.yul\":11681:11690   */\n      dup3\n        /* \"#utility.yul\":11677:11694   */\n      and\n        /* \"#utility.yul\":11708:11709   */\n      0x00\n        /* \"#utility.yul\":11703:11869   */\n      dup2\n      eq\n      tag_252\n      jumpi\n        /* \"#utility.yul\":11883:11884   */\n      0x01\n        /* \"#utility.yul\":11878:12219   */\n      dup2\n      eq\n      tag_253\n      jumpi\n        /* \"#utility.yul\":11670:12219   */\n      jump(tag_251)\n        /* \"#utility.yul\":11703:11869   */\n    tag_252:\n        /* \"#utility.yul\":11787:11791   */\n      0xff\n        /* \"#utility.yul\":11783:11792   */\n      not\n        /* \"#utility.yul\":11772:11781   */\n      dup4\n        /* \"#utility.yul\":11768:11793   */\n      and\n        /* \"#utility.yul\":11763:11766   */\n      dup7\n        /* \"#utility.yul\":11756:11794   */\n      mstore\n        /* \"#utility.yul\":11849:11855   */\n      dup2\n        /* \"#utility.yul\":11842:11856   */\n      iszero\n        /* \"#utility.yul\":11835:11857   */\n      iszero\n        /* \"#utility.yul\":11827:11833   */\n      dup3\n        /* \"#utility.yul\":11823:11858   */\n      mul\n        /* \"#utility.yul\":11818:11821   */\n      dup7\n        /* \"#utility.yul\":11814:11859   */\n      add\n        /* \"#utility.yul\":11807:11859   */\n      swap4\n      pop\n        /* \"#utility.yul\":11703:11869   */\n      jump(tag_251)\n        /* \"#utility.yul\":11878:12219   */\n    tag_253:\n        /* \"#utility.yul\":11945:11983   */\n      tag_254\n        /* \"#utility.yul\":11977:11982   */\n      dup6\n        /* \"#utility.yul\":11945:11983   */\n      tag_111\n      jump\t// in\n    tag_254:\n        /* \"#utility.yul\":12005:12006   */\n      0x00\n        /* \"#utility.yul\":12019:12173   */\n    tag_255:\n        /* \"#utility.yul\":12033:12039   */\n      dup4\n        /* \"#utility.yul\":12030:12031   */\n      dup2\n        /* \"#utility.yul\":12027:12040   */\n      lt\n        /* \"#utility.yul\":12019:12173   */\n      iszero\n      tag_257\n      jumpi\n        /* \"#utility.yul\":12107:12114   */\n      dup2\n        /* \"#utility.yul\":12101:12115   */\n      sload\n        /* \"#utility.yul\":12097:12098   */\n      dup2\n        /* \"#utility.yul\":12092:12095   */\n      dup10\n        /* \"#utility.yul\":12088:12099   */\n      add\n        /* \"#utility.yul\":12081:12116   */\n      mstore\n        /* \"#utility.yul\":12157:12158   */\n      0x01\n        /* \"#utility.yul\":12148:12155   */\n      dup3\n        /* \"#utility.yul\":12144:12159   */\n      add\n        /* \"#utility.yul\":12133:12159   */\n      swap2\n      pop\n        /* \"#utility.yul\":12055:12059   */\n      0x20\n        /* \"#utility.yul\":12052:12053   */\n      dup2\n        /* \"#utility.yul\":12048:12060   */\n      add\n        /* \"#utility.yul\":12043:12060   */\n      swap1\n      pop\n        /* \"#utility.yul\":12019:12173   */\n      jump(tag_255)\n    tag_257:\n        /* \"#utility.yul\":12202:12208   */\n      dup4\n        /* \"#utility.yul\":12197:12200   */\n      dup9\n        /* \"#utility.yul\":12193:12209   */\n      add\n        /* \"#utility.yul\":12186:12209   */\n      swap6\n      pop\n        /* \"#utility.yul\":11885:12219   */\n      pop\n      pop\n        /* \"#utility.yul\":11670:12219   */\n    tag_251:\n      pop\n        /* \"#utility.yul\":11458:12225   */\n      pop\n      pop\n        /* \"#utility.yul\":11351:12225   */\n      swap3\n      swap2\n      pop\n      pop\n      jump\t// out\n        /* \"#utility.yul\":12231:12500   */\n    tag_57:\n        /* \"#utility.yul\":12360:12363   */\n      0x00\n        /* \"#utility.yul\":12382:12474   */\n      tag_259\n        /* \"#utility.yul\":12470:12473   */\n      dup3\n        /* \"#utility.yul\":12461:12467   */\n      dup5\n        /* \"#utility.yul\":12382:12474   */\n      tag_112\n      jump\t// in\n    tag_259:\n        /* \"#utility.yul\":12375:12474   */\n      swap2\n      pop\n        /* \"#utility.yul\":12491:12494   */\n      dup2\n        /* \"#utility.yul\":12484:12494   */\n      swap1\n      pop\n        /* \"#utility.yul\":12231:12500   */\n      swap3\n      swap2\n      pop\n      pop\n      jump\t// out\n        /* \"#utility.yul\":12506:12896   */\n    tag_113:\n        /* \"#utility.yul\":12612:12615   */\n      0x00\n        /* \"#utility.yul\":12640:12679   */\n      tag_261\n        /* \"#utility.yul\":12673:12678   */\n      dup3\n        /* \"#utility.yul\":12640:12679   */\n      tag_84\n      jump\t// in\n    tag_261:\n        /* \"#utility.yul\":12695:12784   */\n      tag_262\n        /* \"#utility.yul\":12777:12783   */\n      dup2\n        /* \"#utility.yul\":12772:12775   */\n      dup6\n        /* \"#utility.yul\":12695:12784   */\n      tag_110\n      jump\t// in\n    tag_262:\n        /* \"#utility.yul\":12688:12784   */\n      swap4\n      pop\n        /* \"#utility.yul\":12793:12858   */\n      tag_263\n        /* \"#utility.yul\":12851:12857   */\n      dup2\n        /* \"#utility.yul\":12846:12849   */\n      dup6\n        /* \"#utility.yul\":12839:12843   */\n      0x20\n        /* \"#utility.yul\":12832:12837   */\n      dup7\n        /* \"#utility.yul\":12828:12844   */\n      add\n        /* \"#utility.yul\":12793:12858   */\n      tag_86\n      jump\t// in\n    tag_263:\n        /* \"#utility.yul\":12883:12889   */\n      dup1\n        /* \"#utility.yul\":12878:12881   */\n      dup5\n        /* \"#utility.yul\":12874:12890   */\n      add\n        /* \"#utility.yul\":12867:12890   */\n      swap2\n      pop\n        /* \"#utility.yul\":12616:12896   */\n      pop\n        /* \"#utility.yul\":12506:12896   */\n      swap3\n      swap2\n      pop\n      pop\n      jump\t// out\n        /* \"#utility.yul\":12902:13177   */\n    tag_59:\n        /* \"#utility.yul\":13034:13037   */\n      0x00\n        /* \"#utility.yul\":13056:13151   */\n      tag_265\n        /* \"#utility.yul\":13147:13150   */\n      dup3\n        /* \"#utility.yul\":13138:13144   */\n      dup5\n        /* \"#utility.yul\":13056:13151   */\n      tag_113\n      jump\t// in\n    tag_265:\n        /* \"#utility.yul\":13049:13151   */\n      swap2\n      pop\n        /* \"#utility.yul\":13168:13171   */\n      dup2\n        /* \"#utility.yul\":13161:13171   */\n      swap1\n      pop\n        /* \"#utility.yul\":12902:13177   */\n      swap3\n      swap2\n      pop\n      pop\n      jump\t// out\n        /* \"#utility.yul\":13183:13359   */\n    tag_114:\n        /* \"#utility.yul\":13323:13351   */\n      0x456e7465726564205479706520646f65736e6f74206d61746368000000000000\n        /* \"#utility.yul\":13319:13320   */\n      0x00\n        /* \"#utility.yul\":13311:13317   */\n      dup3\n        /* \"#utility.yul\":13307:13321   */\n      add\n        /* \"#utility.yul\":13300:13352   */\n      mstore\n        /* \"#utility.yul\":13183:13359   */\n      pop\n      jump\t// out\n        /* \"#utility.yul\":13365:13731   */\n    tag_115:\n        /* \"#utility.yul\":13507:13510   */\n      0x00\n        /* \"#utility.yul\":13528:13595   */\n      tag_268\n        /* \"#utility.yul\":13592:13594   */\n      0x1a\n        /* \"#utility.yul\":13587:13590   */\n      dup4\n        /* \"#utility.yul\":13528:13595   */\n      tag_97\n      jump\t// in\n    tag_268:\n        /* \"#utility.yul\":13521:13595   */\n      swap2\n      pop\n        /* \"#utility.yul\":13604:13697   */\n      tag_269\n        /* \"#utility.yul\":13693:13696   */\n      dup3\n        /* \"#utility.yul\":13604:13697   */\n      tag_114\n      jump\t// in\n    tag_269:\n        /* \"#utility.yul\":13722:13724   */\n      0x20\n        /* \"#utility.yul\":13717:13720   */\n      dup3\n        /* \"#utility.yul\":13713:13725   */\n      add\n        /* \"#utility.yul\":13706:13725   */\n      swap1\n      pop\n        /* \"#utility.yul\":13365:13731   */\n      swap2\n      swap1\n      pop\n      jump\t// out\n        /* \"#utility.yul\":13737:14156   */\n    tag_65:\n        /* \"#utility.yul\":13903:13907   */\n      0x00\n        /* \"#utility.yul\":13941:13943   */\n      0x20\n        /* \"#utility.yul\":13930:13939   */\n      dup3\n        /* \"#utility.yul\":13926:13944   */\n      add\n        /* \"#utility.yul\":13918:13944   */\n      swap1\n      pop\n        /* \"#utility.yul\":13990:13999   */\n      dup2\n        /* \"#utility.yul\":13984:13988   */\n      dup2\n        /* \"#utility.yul\":13980:14000   */\n      sub\n        /* \"#utility.yul\":13976:13977   */\n      0x00\n        /* \"#utility.yul\":13965:13974   */\n      dup4\n        /* \"#utility.yul\":13961:13978   */\n      add\n        /* \"#utility.yul\":13954:14001   */\n      mstore\n        /* \"#utility.yul\":14018:14149   */\n      tag_271\n        /* \"#utility.yul\":14144:14148   */\n      dup2\n        /* \"#utility.yul\":14018:14149   */\n      tag_115\n      jump\t// in\n    tag_271:\n        /* \"#utility.yul\":14010:14149   */\n      swap1\n      pop\n        /* \"#utility.yul\":13737:14156   */\n      swap2\n      swap1\n      pop\n      jump\t// out\n        /* \"#utility.yul\":14162:14339   */\n    tag_116:\n        /* \"#utility.yul\":14302:14331   */\n      0x596f75206861766520616c726561647920726567697374657265640000000000\n        /* \"#utility.yul\":14298:14299   */\n      0x00\n        /* \"#utility.yul\":14290:14296   */\n      dup3\n        /* \"#utility.yul\":14286:14300   */\n      add\n        /* \"#utility.yul\":14279:14332   */\n      mstore\n        /* \"#utility.yul\":14162:14339   */\n      pop\n      jump\t// out\n        /* \"#utility.yul\":14345:14711   */\n    tag_117:\n        /* \"#utility.yul\":14487:14490   */\n      0x00\n        /* \"#utility.yul\":14508:14575   */\n      tag_274\n        /* \"#utility.yul\":14572:14574   */\n      0x1b\n        /* \"#utility.yul\":14567:14570   */\n      dup4\n        /* \"#utility.yul\":14508:14575   */\n      tag_97\n      jump\t// in\n    tag_274:\n        /* \"#utility.yul\":14501:14575   */\n      swap2\n      pop\n        /* \"#utility.yul\":14584:14677   */\n      tag_275\n        /* \"#utility.yul\":14673:14676   */\n      dup3\n        /* \"#utility.yul\":14584:14677   */\n      tag_116\n      jump\t// in\n    tag_275:\n        /* \"#utility.yul\":14702:14704   */\n      0x20\n        /* \"#utility.yul\":14697:14700   */\n      dup3\n        /* \"#utility.yul\":14693:14705   */\n      add\n        /* \"#utility.yul\":14686:14705   */\n      swap1\n      pop\n        /* \"#utility.yul\":14345:14711   */\n      swap2\n      swap1\n      pop\n      jump\t// out\n        /* \"#utility.yul\":14717:15136   */\n    tag_68:\n        /* \"#utility.yul\":14883:14887   */\n      0x00\n        /* \"#utility.yul\":14921:14923   */\n      0x20\n        /* \"#utility.yul\":14910:14919   */\n      dup3\n        /* \"#utility.yul\":14906:14924   */\n      add\n        /* \"#utility.yul\":14898:14924   */\n      swap1\n      pop\n        /* \"#utility.yul\":14970:14979   */\n      dup2\n        /* \"#utility.yul\":14964:14968   */\n      dup2\n        /* \"#utility.yul\":14960:14980   */\n      sub\n        /* \"#utility.yul\":14956:14957   */\n      0x00\n        /* \"#utility.yul\":14945:14954   */\n      dup4\n        /* \"#utility.yul\":14941:14958   */\n      add\n        /* \"#utility.yul\":14934:14981   */\n      mstore\n        /* \"#utility.yul\":14998:15129   */\n      tag_277\n        /* \"#utility.yul\":15124:15128   */\n      dup2\n        /* \"#utility.yul\":14998:15129   */\n      tag_117\n      jump\t// in\n    tag_277:\n        /* \"#utility.yul\":14990:15129   */\n      swap1\n      pop\n        /* \"#utility.yul\":14717:15136   */\n      swap2\n      swap1\n      pop\n      jump\t// out\n        /* \"#utility.yul\":15142:15235   */\n    tag_118:\n        /* \"#utility.yul\":15179:15185   */\n      0x00\n        /* \"#utility.yul\":15226:15228   */\n      0x20\n        /* \"#utility.yul\":15221:15223   */\n      0x1f\n        /* \"#utility.yul\":15214:15219   */\n      dup4\n        /* \"#utility.yul\":15210:15224   */\n      add\n        /* \"#utility.yul\":15206:15229   */\n      div\n        /* \"#utility.yul\":15196:15229   */\n      swap1\n      pop\n        /* \"#utility.yul\":15142:15235   */\n      swap2\n      swap1\n      pop\n      jump\t// out\n        /* \"#utility.yul\":15241:15348   */\n    tag_119:\n        /* \"#utility.yul\":15285:15293   */\n      0x00\n        /* \"#utility.yul\":15335:15340   */\n      dup3\n        /* \"#utility.yul\":15329:15333   */\n      dup3\n        /* \"#utility.yul\":15325:15341   */\n      shl\n        /* \"#utility.yul\":15304:15341   */\n      swap1\n      pop\n        /* \"#utility.yul\":15241:15348   */\n      swap3\n      swap2\n      pop\n      pop\n      jump\t// out\n        /* \"#utility.yul\":15354:15747   */\n    tag_120:\n        /* \"#utility.yul\":15423:15429   */\n      0x00\n        /* \"#utility.yul\":15473:15474   */\n      0x08\n        /* \"#utility.yul\":15461:15471   */\n      dup4\n        /* \"#utility.yul\":15457:15475   */\n      mul\n        /* \"#utility.yul\":15496:15593   */\n      tag_281\n        /* \"#utility.yul\":15526:15592   */\n      0xffffffffffffffffffffffffffffffffffffffffffffffffffffffffffffffff\n        /* \"#utility.yul\":15515:15524   */\n      dup3\n        /* \"#utility.yul\":15496:15593   */\n      tag_119\n      jump\t// in\n    tag_281:\n        /* \"#utility.yul\":15614:15653   */\n      tag_282\n        /* \"#utility.yul\":15644:15652   */\n      dup7\n        /* \"#utility.yul\":15633:15642   */\n      dup4\n        /* \"#utility.yul\":15614:15653   */\n      tag_119\n      jump\t// in\n    tag_282:\n        /* \"#utility.yul\":15602:15653   */\n      swap6\n      pop\n        /* \"#utility.yul\":15686:15690   */\n      dup1\n        /* \"#utility.yul\":15682:15691   */\n      not\n        /* \"#utility.yul\":15675:15680   */\n      dup5\n        /* \"#utility.yul\":15671:15692   */\n      and\n        /* \"#utility.yul\":15662:15692   */\n      swap4\n      pop\n        /* \"#utility.yul\":15735:15739   */\n      dup1\n        /* \"#utility.yul\":15725:15733   */\n      dup7\n        /* \"#utility.yul\":15721:15740   */\n      and\n        /* \"#utility.yul\":15714:15719   */\n      dup5\n        /* \"#utility.yul\":15711:15741   */\n      or\n        /* \"#utility.yul\":15701:15741   */\n      swap3\n      pop\n        /* \"#utility.yul\":15430:15747   */\n      pop\n      pop\n        /* \"#utility.yul\":15354:15747   */\n      swap4\n      swap3\n      pop\n      pop\n      pop\n      jump\t// out\n        /* \"#utility.yul\":15753:15813   */\n    tag_121:\n        /* \"#utility.yul\":15781:15784   */\n      0x00\n        /* \"#utility.yul\":15802:15807   */\n      dup2\n        /* \"#utility.yul\":15795:15807   */\n      swap1\n      pop\n        /* \"#utility.yul\":15753:15813   */\n      swap2\n      swap1\n      pop\n      jump\t// out\n        /* \"#utility.yul\":15819:15961   */\n    tag_122:\n        /* \"#utility.yul\":15869:15878   */\n      0x00\n        /* \"#utility.yul\":15902:15955   */\n      tag_285\n        /* \"#utility.yul\":15920:15954   */\n      tag_286\n        /* \"#utility.yul\":15929:15953   */\n      tag_287\n        /* \"#utility.yul\":15947:15952   */\n      dup5\n        /* \"#utility.yul\":15929:15953   */\n      tag_109\n      jump\t// in\n    tag_287:\n        /* \"#utility.yul\":15920:15954   */\n      tag_121\n      jump\t// in\n    tag_286:\n        /* \"#utility.yul\":15902:15955   */\n      tag_109\n      jump\t// in\n    tag_285:\n        /* \"#utility.yul\":15889:15955   */\n      swap1\n      pop\n        /* \"#utility.yul\":15819:15961   */\n      swap2\n      swap1\n      pop\n      jump\t// out\n        /* \"#utility.yul\":15967:16042   */\n    tag_123:\n        /* \"#utility.yul\":16010:16013   */\n      0x00\n        /* \"#utility.yul\":16031:16036   */\n      dup2\n        /* \"#utility.yul\":16024:16036   */\n      swap1\n      pop\n        /* \"#utility.yul\":15967:16042   */\n      swap2\n      swap1\n      pop\n      jump\t// out\n        /* \"#utility.yul\":16048:16317   */\n    tag_124:\n        /* \"#utility.yul\":16158:16197   */\n      tag_290\n        /* \"#utility.yul\":16189:16196   */\n      dup4\n        /* \"#utility.yul\":16158:16197   */\n      tag_122\n      jump\t// in\n    tag_290:\n        /* \"#utility.yul\":16219:16310   */\n      tag_291\n        /* \"#utility.yul\":16268:16309   */\n      tag_292\n        /* \"#utility.yul\":16292:16308   */\n      dup3\n        /* \"#utility.yul\":16268:16309   */\n      tag_123\n      jump\t// in\n    tag_292:\n        /* \"#utility.yul\":16260:16266   */\n      dup5\n        /* \"#utility.yul\":16253:16257   */\n      dup5\n        /* \"#utility.yul\":16247:16258   */\n      sload\n        /* \"#utility.yul\":16219:16310   */\n      tag_120\n      jump\t// in\n    tag_291:\n        /* \"#utility.yul\":16213:16217   */\n      dup3\n        /* \"#utility.yul\":16206:16311   */\n      sstore\n        /* \"#utility.yul\":16124:16317   */\n      pop\n        /* \"#utility.yul\":16048:16317   */\n      pop\n      pop\n      pop\n      jump\t// out\n        /* \"#utility.yul\":16323:16396   */\n    tag_125:\n        /* \"#utility.yul\":16368:16371   */\n      0x00\n        /* \"#utility.yul\":16323:16396   */\n      swap1\n      jump\t// out\n        /* \"#utility.yul\":16402:16591   */\n    tag_126:\n        /* \"#utility.yul\":16479:16511   */\n      tag_295\n      tag_125\n      jump\t// in\n    tag_295:\n        /* \"#utility.yul\":16520:16585   */\n      tag_296\n        /* \"#utility.yul\":16578:16584   */\n      dup2\n        /* \"#utility.yul\":16570:16576   */\n      dup5\n        /* \"#utility.yul\":16564:16568   */\n      dup5\n        /* \"#utility.yul\":16520:16585   */\n      tag_124\n      jump\t// in\n    tag_296:\n        /* \"#utility.yul\":16455:16591   */\n      pop\n        /* \"#utility.yul\":16402:16591   */\n      pop\n      pop\n      jump\t// out\n        /* \"#utility.yul\":16597:16783   */\n    tag_127:\n        /* \"#utility.yul\":16657:16777   */\n    tag_298:\n        /* \"#utility.yul\":16674:16677   */\n      dup2\n        /* \"#utility.yul\":16667:16672   */\n      dup2\n        /* \"#utility.yul\":16664:16678   */\n      lt\n        /* \"#utility.yul\":16657:16777   */\n      iszero\n      tag_300\n      jumpi\n        /* \"#utility.yul\":16728:16767   */\n      tag_301\n        /* \"#utility.yul\":16765:16766   */\n      0x00\n        /* \"#utility.yul\":16758:16763   */\n      dup3\n        /* \"#utility.yul\":16728:16767   */\n      tag_126\n      jump\t// in\n    tag_301:\n        /* \"#utility.yul\":16701:16702   */\n      0x01\n        /* \"#utility.yul\":16694:16699   */\n      dup2\n        /* \"#utility.yul\":16690:16703   */\n      add\n        /* \"#utility.yul\":16681:16703   */\n      swap1\n      pop\n        /* \"#utility.yul\":16657:16777   */\n      jump(tag_298)\n    tag_300:\n        /* \"#utility.yul\":16597:16783   */\n      pop\n      pop\n      jump\t// out\n        /* \"#utility.yul\":16789:17332   */\n    tag_128:\n        /* \"#utility.yul\":16890:16892   */\n      0x1f\n        /* \"#utility.yul\":16885:16888   */\n      dup3\n        /* \"#utility.yul\":16882:16893   */\n      gt\n        /* \"#utility.yul\":16879:17325   */\n      iszero\n      tag_303\n      jumpi\n        /* \"#utility.yul\":16924:16962   */\n      tag_304\n        /* \"#utility.yul\":16956:16961   */\n      dup2\n        /* \"#utility.yul\":16924:16962   */\n      tag_111\n      jump\t// in\n    tag_304:\n        /* \"#utility.yul\":17008:17037   */\n      tag_305\n        /* \"#utility.yul\":17026:17036   */\n      dup5\n        /* \"#utility.yul\":17008:17037   */\n      tag_118\n      jump\t// in\n    tag_305:\n        /* \"#utility.yul\":16998:17006   */\n      dup2\n        /* \"#utility.yul\":16994:17038   */\n      add\n        /* \"#utility.yul\":17191:17193   */\n      0x20\n        /* \"#utility.yul\":17179:17189   */\n      dup6\n        /* \"#utility.yul\":17176:17194   */\n      lt\n        /* \"#utility.yul\":17173:17222   */\n      iszero\n      tag_306\n      jumpi\n        /* \"#utility.yul\":17212:17220   */\n      dup2\n        /* \"#utility.yul\":17197:17220   */\n      swap1\n      pop\n        /* \"#utility.yul\":17173:17222   */\n    tag_306:\n        /* \"#utility.yul\":17235:17315   */\n      tag_307\n        /* \"#utility.yul\":17291:17313   */\n      tag_308\n        /* \"#utility.yul\":17309:17312   */\n      dup6\n        /* \"#utility.yul\":17291:17313   */\n      tag_118\n      jump\t// in\n    tag_308:\n        /* \"#utility.yul\":17281:17289   */\n      dup4\n        /* \"#utility.yul\":17277:17314   */\n      add\n        /* \"#utility.yul\":17264:17275   */\n      dup3\n        /* \"#utility.yul\":17235:17315   */\n      tag_127\n      jump\t// in\n    tag_307:\n        /* \"#utility.yul\":16894:17325   */\n      pop\n      pop\n        /* \"#utility.yul\":16879:17325   */\n    tag_303:\n        /* \"#utility.yul\":16789:17332   */\n      pop\n      pop\n      pop\n      jump\t// out\n        /* \"#utility.yul\":17338:17455   */\n    tag_129:\n        /* \"#utility.yul\":17392:17400   */\n      0x00\n        /* \"#utility.yul\":17442:17447   */\n      dup3\n        /* \"#utility.yul\":17436:17440   */\n      dup3\n        /* \"#utility.yul\":17432:17448   */\n      shr\n        /* \"#utility.yul\":17411:17448   */\n      swap1\n      pop\n        /* \"#utility.yul\":17338:17455   */\n      swap3\n      swap2\n      pop\n      pop\n      jump\t// out\n        /* \"#utility.yul\":17461:17630   */\n    tag_130:\n        /* \"#utility.yul\":17505:17511   */\n      0x00\n        /* \"#utility.yul\":17538:17589   */\n      tag_311\n        /* \"#utility.yul\":17586:17587   */\n      0x00\n        /* \"#utility.yul\":17582:17588   */\n      not\n        /* \"#utility.yul\":17574:17579   */\n      dup5\n        /* \"#utility.yul\":17571:17572   */\n      0x08\n        /* \"#utility.yul\":17567:17580   */\n      mul\n        /* \"#utility.yul\":17538:17589   */\n      tag_129\n      jump\t// in\n    tag_311:\n        /* \"#utility.yul\":17534:17590   */\n      not\n        /* \"#utility.yul\":17619:17623   */\n      dup1\n        /* \"#utility.yul\":17613:17617   */\n      dup4\n        /* \"#utility.yul\":17609:17624   */\n      and\n        /* \"#utility.yul\":17599:17624   */\n      swap2\n      pop\n        /* \"#utility.yul\":17512:17630   */\n      pop\n        /* \"#utility.yul\":17461:17630   */\n      swap3\n      swap2\n      pop\n      pop\n      jump\t// out\n        /* \"#utility.yul\":17635:17930   */\n    tag_131:\n        /* \"#utility.yul\":17711:17715   */\n      0x00\n        /* \"#utility.yul\":17857:17886   */\n      tag_313\n        /* \"#utility.yul\":17882:17885   */\n      dup4\n        /* \"#utility.yul\":17876:17880   */\n      dup4\n        /* \"#utility.yul\":17857:17886   */\n      tag_130\n      jump\t// in\n    tag_313:\n        /* \"#utility.yul\":17849:17886   */\n      swap2\n      pop\n        /* \"#utility.yul\":17919:17922   */\n      dup3\n        /* \"#utility.yul\":17916:17917   */\n      0x02\n        /* \"#utility.yul\":17912:17923   */\n      mul\n        /* \"#utility.yul\":17906:17910   */\n      dup3\n        /* \"#utility.yul\":17903:17924   */\n      or\n        /* \"#utility.yul\":17895:17924   */\n      swap1\n      pop\n        /* \"#utility.yul\":17635:17930   */\n      swap3\n      swap2\n      pop\n      pop\n      jump\t// out\n        /* \"#utility.yul\":17935:19330   */\n    tag_70:\n        /* \"#utility.yul\":18052:18089   */\n      tag_315\n        /* \"#utility.yul\":18085:18088   */\n      dup3\n        /* \"#utility.yul\":18052:18089   */\n      tag_84\n      jump\t// in\n    tag_315:\n        /* \"#utility.yul\":18154:18172   */\n      0xffffffffffffffff\n        /* \"#utility.yul\":18146:18152   */\n      dup2\n        /* \"#utility.yul\":18143:18173   */\n      gt\n        /* \"#utility.yul\":18140:18196   */\n      iszero\n      tag_316\n      jumpi\n        /* \"#utility.yul\":18176:18194   */\n      tag_317\n      tag_24\n      jump\t// in\n    tag_317:\n        /* \"#utility.yul\":18140:18196   */\n    tag_316:\n        /* \"#utility.yul\":18220:18258   */\n      tag_318\n        /* \"#utility.yul\":18252:18256   */\n      dup3\n        /* \"#utility.yul\":18246:18257   */\n      sload\n        /* \"#utility.yul\":18220:18258   */\n      tag_38\n      jump\t// in\n    tag_318:\n        /* \"#utility.yul\":18305:18372   */\n      tag_319\n        /* \"#utility.yul\":18365:18371   */\n      dup3\n        /* \"#utility.yul\":18357:18363   */\n      dup3\n        /* \"#utility.yul\":18351:18355   */\n      dup6\n        /* \"#utility.yul\":18305:18372   */\n      tag_128\n      jump\t// in\n    tag_319:\n        /* \"#utility.yul\":18399:18400   */\n      0x00\n        /* \"#utility.yul\":18423:18427   */\n      0x20\n        /* \"#utility.yul\":18410:18427   */\n      swap1\n      pop\n        /* \"#utility.yul\":18455:18457   */\n      0x1f\n        /* \"#utility.yul\":18447:18453   */\n      dup4\n        /* \"#utility.yul\":18444:18458   */\n      gt\n        /* \"#utility.yul\":18472:18473   */\n      0x01\n        /* \"#utility.yul\":18467:19085   */\n      dup2\n      eq\n      tag_321\n      jumpi\n        /* \"#utility.yul\":19129:19130   */\n      0x00\n        /* \"#utility.yul\":19146:19152   */\n      dup5\n        /* \"#utility.yul\":19143:19220   */\n      iszero\n      tag_322\n      jumpi\n        /* \"#utility.yul\":19195:19204   */\n      dup3\n        /* \"#utility.yul\":19190:19193   */\n      dup8\n        /* \"#utility.yul\":19186:19205   */\n      add\n        /* \"#utility.yul\":19180:19206   */\n      mload\n        /* \"#utility.yul\":19171:19206   */\n      swap1\n      pop\n        /* \"#utility.yul\":19143:19220   */\n    tag_322:\n        /* \"#utility.yul\":19246:19313   */\n      tag_323\n        /* \"#utility.yul\":19306:19312   */\n      dup6\n        /* \"#utility.yul\":19299:19304   */\n      dup3\n        /* \"#utility.yul\":19246:19313   */\n      tag_131\n      jump\t// in\n    tag_323:\n        /* \"#utility.yul\":19240:19244   */\n      dup7\n        /* \"#utility.yul\":19233:19314   */\n      sstore\n        /* \"#utility.yul\":19102:19324   */\n      pop\n        /* \"#utility.yul\":18437:19324   */\n      jump(tag_320)\n        /* \"#utility.yul\":18467:19085   */\n    tag_321:\n        /* \"#utility.yul\":18519:18523   */\n      0x1f\n        /* \"#utility.yul\":18515:18524   */\n      not\n        /* \"#utility.yul\":18507:18513   */\n      dup5\n        /* \"#utility.yul\":18503:18525   */\n      and\n        /* \"#utility.yul\":18553:18590   */\n      tag_324\n        /* \"#utility.yul\":18585:18589   */\n      dup7\n        /* \"#utility.yul\":18553:18590   */\n      tag_111\n      jump\t// in\n    tag_324:\n        /* \"#utility.yul\":18612:18613   */\n      0x00\n        /* \"#utility.yul\":18626:18834   */\n    tag_325:\n        /* \"#utility.yul\":18640:18647   */\n      dup3\n        /* \"#utility.yul\":18637:18638   */\n      dup2\n        /* \"#utility.yul\":18634:18648   */\n      lt\n        /* \"#utility.yul\":18626:18834   */\n      iszero\n      tag_327\n      jumpi\n        /* \"#utility.yul\":18719:18728   */\n      dup5\n        /* \"#utility.yul\":18714:18717   */\n      dup10\n        /* \"#utility.yul\":18710:18729   */\n      add\n        /* \"#utility.yul\":18704:18730   */\n      mload\n        /* \"#utility.yul\":18696:18702   */\n      dup3\n        /* \"#utility.yul\":18689:18731   */\n      sstore\n        /* \"#utility.yul\":18770:18771   */\n      0x01\n        /* \"#utility.yul\":18762:18768   */\n      dup3\n        /* \"#utility.yul\":18758:18772   */\n      add\n        /* \"#utility.yul\":18748:18772   */\n      swap2\n      pop\n        /* \"#utility.yul\":18817:18819   */\n      0x20\n        /* \"#utility.yul\":18806:18815   */\n      dup6\n        /* \"#utility.yul\":18802:18820   */\n      add\n        /* \"#utility.yul\":18789:18820   */\n      swap5\n      pop\n        /* \"#utility.yul\":18663:18667   */\n      0x20\n        /* \"#utility.yul\":18660:18661   */\n      dup2\n        /* \"#utility.yul\":18656:18668   */\n      add\n        /* \"#utility.yul\":18651:18668   */\n      swap1\n      pop\n        /* \"#utility.yul\":18626:18834   */\n      jump(tag_325)\n    tag_327:\n        /* \"#utility.yul\":18862:18868   */\n      dup7\n        /* \"#utility.yul\":18853:18860   */\n      dup4\n        /* \"#utility.yul\":18850:18869   */\n      lt\n        /* \"#utility.yul\":18847:19026   */\n      iszero\n      tag_328\n      jumpi\n        /* \"#utility.yul\":18920:18929   */\n      dup5\n        /* \"#utility.yul\":18915:18918   */\n      dup10\n        /* \"#utility.yul\":18911:18930   */\n      add\n        /* \"#utility.yul\":18905:18931   */\n      mload\n        /* \"#utility.yul\":18963:19011   */\n      tag_329\n        /* \"#utility.yul\":19005:19009   */\n      0x1f\n        /* \"#utility.yul\":18997:19003   */\n      dup10\n        /* \"#utility.yul\":18993:19010   */\n      and\n        /* \"#utility.yul\":18982:18991   */\n      dup3\n        /* \"#utility.yul\":18963:19011   */\n      tag_130\n      jump\t// in\n    tag_329:\n        /* \"#utility.yul\":18955:18961   */\n      dup4\n        /* \"#utility.yul\":18948:19012   */\n      sstore\n        /* \"#utility.yul\":18870:19026   */\n      pop\n        /* \"#utility.yul\":18847:19026   */\n    tag_328:\n        /* \"#utility.yul\":19072:19073   */\n      0x01\n        /* \"#utility.yul\":19068:19069   */\n      0x02\n        /* \"#utility.yul\":19060:19066   */\n      dup9\n        /* \"#utility.yul\":19056:19070   */\n      mul\n        /* \"#utility.yul\":19052:19074   */\n      add\n        /* \"#utility.yul\":19046:19050   */\n      dup9\n        /* \"#utility.yul\":19039:19075   */\n      sstore\n        /* \"#utility.yul\":18474:19085   */\n      pop\n      pop\n      pop\n        /* \"#utility.yul\":18437:19324   */\n    tag_320:\n      pop\n        /* \"#utility.yul\":18027:19330   */\n      pop\n      pop\n      pop\n        /* \"#utility.yul\":17935:19330   */\n      pop\n      pop\n      jump\t// out\n\n    auxdata: 0xa26469706673582212208d403ed77979b39018cff71bb663691e67fc16036f6df2545f64a7417772a9b164736f6c63430008150033\n}\n",
				"bytecode": {
					"linkReferences": {},
					"object": "608060405234801562000010575f80fd5b506040516200165938038062001659833981810160405281019062000036919062000226565b815f9081620000469190620004e0565b508060019081620000589190620004e0565b503360025f6101000a81548173ffffffffffffffffffffffffffffffffffffffff021916908373ffffffffffffffffffffffffffffffffffffffff1602179055505050620005c4565b5f604051905090565b5f80fd5b5f80fd5b5f80fd5b5f80fd5b5f601f19601f8301169050919050565b7f4e487b71000000000000000000000000000000000000000000000000000000005f52604160045260245ffd5b6200010282620000ba565b810181811067ffffffffffffffff82111715620001245762000123620000ca565b5b80604052505050565b5f62000138620000a1565b9050620001468282620000f7565b919050565b5f67ffffffffffffffff821115620001685762000167620000ca565b5b6200017382620000ba565b9050602081019050919050565b5f5b838110156200019f57808201518184015260208101905062000182565b5f8484015250505050565b5f620001c0620001ba846200014b565b6200012d565b905082815260208101848484011115620001df57620001de620000b6565b5b620001ec84828562000180565b509392505050565b5f82601f8301126200020b576200020a620000b2565b5b81516200021d848260208601620001aa565b91505092915050565b5f80604083850312156200023f576200023e620000aa565b5b5f83015167ffffffffffffffff8111156200025f576200025e620000ae565b5b6200026d85828601620001f4565b925050602083015167ffffffffffffffff811115620002915762000290620000ae565b5b6200029f85828601620001f4565b9150509250929050565b5f81519050919050565b7f4e487b71000000000000000000000000000000000000000000000000000000005f52602260045260245ffd5b5f6002820490506001821680620002f857607f821691505b6020821081036200030e576200030d620002b3565b5b50919050565b5f819050815f5260205f209050919050565b5f6020601f8301049050919050565b5f82821b905092915050565b5f60088302620003727fffffffffffffffffffffffffffffffffffffffffffffffffffffffffffffffff8262000335565b6200037e868362000335565b95508019841693508086168417925050509392505050565b5f819050919050565b5f819050919050565b5f620003c8620003c2620003bc8462000396565b6200039f565b62000396565b9050919050565b5f819050919050565b620003e383620003a8565b620003fb620003f282620003cf565b84845462000341565b825550505050565b5f90565b6200041162000403565b6200041e818484620003d8565b505050565b5b818110156200044557620004395f8262000407565b60018101905062000424565b5050565b601f82111562000494576200045e8162000314565b620004698462000326565b8101602085101562000479578190505b62000491620004888562000326565b83018262000423565b50505b505050565b5f82821c905092915050565b5f620004b65f198460080262000499565b1980831691505092915050565b5f620004d08383620004a5565b9150826002028217905092915050565b620004eb82620002a9565b67ffffffffffffffff811115620005075762000506620000ca565b5b620005138254620002e0565b6200052082828562000449565b5f60209050601f83116001811462000556575f841562000541578287015190505b6200054d8582620004c3565b865550620005bc565b601f198416620005668662000314565b5f5b828110156200058f5784890151825560018201915060208501945060208101905062000568565b86831015620005af5784890151620005ab601f891682620004a5565b8355505b6001600288020188555050505b505050505050565b61108780620005d25f395ff3fe608060405234801561000f575f80fd5b506004361061003f575f3560e01c80630cee1b72146100435780633164582e14610062578063881d97dc14610092575b5f80fd5b61004b6100c2565b6040516100599291906108b2565b60405180910390f35b61007c60048036038101906100779190610922565b61030b565b6040516100899190610995565b60405180910390f35b6100ac60048036038101906100a79190610ae1565b6103d8565b6040516100b99190610995565b60405180910390f35b6060805f60048054905090505f8167ffffffffffffffff8111156100e9576100e86109bd565b5b6040519080825280602002602001820160405280156101175781602001602082028036833780820191505090505b5090505f8267ffffffffffffffff811115610135576101346109bd565b5b60405190808252806020026020018201604052801561016857816020015b60608152602001906001900390816101535790505b5090505f5b838110156102fd575f6004828154811061018a57610189610b28565b5b905f5260205f20015f9054906101000a900473ffffffffffffffffffffffffffffffffffffffff1690505f60035f8373ffffffffffffffffffffffffffffffffffffffff1673ffffffffffffffffffffffffffffffffffffffff1681526020019081526020015f2080546101fd90610b82565b80601f016020809104026020016040519081016040528092919081815260200182805461022990610b82565b80156102745780601f1061024b57610100808354040283529160200191610274565b820191905f5260205f20905b81548152906001019060200180831161025757829003601f168201915b505050505090508185848151811061028f5761028e610b28565b5b602002602001019073ffffffffffffffffffffffffffffffffffffffff16908173ffffffffffffffffffffffffffffffffffffffff1681525050808484815181106102dd576102dc610b28565b5b6020026020010181905250505080806102f590610be8565b91505061016d565b508181945094505050509091565b606060035f8373ffffffffffffffffffffffffffffffffffffffff1673ffffffffffffffffffffffffffffffffffffffff1681526020019081526020015f20805461035590610b82565b80601f016020809104026020016040519081016040528092919081815260200182805461038190610b82565b80156103cc5780601f106103a3576101008083540402835291602001916103cc565b820191905f5260205f20905b8154815290600101906020018083116103af57829003601f168201915b50505050509050919050565b60605f6040516020016103eb9190610ccb565b60405160208183030381529060405280519060200120826040516020016104129190610d11565b604051602081830303815290604052805190602001201480610480575060016040516020016104419190610ccb565b60405160208183030381529060405280519060200120826040516020016104689190610d11565b60405160208183030381529060405280519060200120145b6104bf576040517f08c379a00000000000000000000000000000000000000000000000000000000081526004016104b690610d71565b60405180910390fd5b60055f3373ffffffffffffffffffffffffffffffffffffffff1673ffffffffffffffffffffffffffffffffffffffff1681526020019081526020015f205f9054906101000a900460ff1615610549576040517f08c379a000000000000000000000000000000000000000000000000000000000815260040161054090610dd9565b60405180910390fd5b8160035f3373ffffffffffffffffffffffffffffffffffffffff1673ffffffffffffffffffffffffffffffffffffffff1681526020019081526020015f2090816105939190610f82565b50600160055f3373ffffffffffffffffffffffffffffffffffffffff1673ffffffffffffffffffffffffffffffffffffffff1681526020019081526020015f205f6101000a81548160ff021916908315150217905550600433908060018154018082558091505060019003905f5260205f20015f9091909190916101000a81548173ffffffffffffffffffffffffffffffffffffffff021916908373ffffffffffffffffffffffffffffffffffffffff1602179055506040518060400160405280601c81526020017f557365722072656769737465726564207375636365737366756c6c79000000008152509050919050565b5f81519050919050565b5f82825260208201905092915050565b5f819050602082019050919050565b5f73ffffffffffffffffffffffffffffffffffffffff82169050919050565b5f6106d8826106af565b9050919050565b6106e8816106ce565b82525050565b5f6106f983836106df565b60208301905092915050565b5f602082019050919050565b5f61071b82610686565b6107258185610690565b9350610730836106a0565b805f5b8381101561076057815161074788826106ee565b975061075283610705565b925050600181019050610733565b5085935050505092915050565b5f81519050919050565b5f82825260208201905092915050565b5f819050602082019050919050565b5f81519050919050565b5f82825260208201905092915050565b5f5b838110156107cd5780820151818401526020810190506107b2565b5f8484015250505050565b5f601f19601f8301169050919050565b5f6107f282610796565b6107fc81856107a0565b935061080c8185602086016107b0565b610815816107d8565b840191505092915050565b5f61082b83836107e8565b905092915050565b5f602082019050919050565b5f6108498261076d565b6108538185610777565b93508360208202850161086585610787565b805f5b858110156108a057848403895281516108818582610820565b945061088c83610833565b925060208a01995050600181019050610868565b50829750879550505050505092915050565b5f6040820190508181035f8301526108ca8185610711565b905081810360208301526108de818461083f565b90509392505050565b5f604051905090565b5f80fd5b5f80fd5b610901816106ce565b811461090b575f80fd5b50565b5f8135905061091c816108f8565b92915050565b5f60208284031215610937576109366108f0565b5b5f6109448482850161090e565b91505092915050565b5f82825260208201905092915050565b5f61096782610796565b610971818561094d565b93506109818185602086016107b0565b61098a816107d8565b840191505092915050565b5f6020820190508181035f8301526109ad818461095d565b905092915050565b5f80fd5b5f80fd5b7f4e487b71000000000000000000000000000000000000000000000000000000005f52604160045260245ffd5b6109f3826107d8565b810181811067ffffffffffffffff82111715610a1257610a116109bd565b5b80604052505050565b5f610a246108e7565b9050610a3082826109ea565b919050565b5f67ffffffffffffffff821115610a4f57610a4e6109bd565b5b610a58826107d8565b9050602081019050919050565b828183375f83830152505050565b5f610a85610a8084610a35565b610a1b565b905082815260208101848484011115610aa157610aa06109b9565b5b610aac848285610a65565b509392505050565b5f82601f830112610ac857610ac76109b5565b5b8135610ad8848260208601610a73565b91505092915050565b5f60208284031215610af657610af56108f0565b5b5f82013567ffffffffffffffff811115610b1357610b126108f4565b5b610b1f84828501610ab4565b91505092915050565b7f4e487b71000000000000000000000000000000000000000000000000000000005f52603260045260245ffd5b7f4e487b71000000000000000000000000000000000000000000000000000000005f52602260045260245ffd5b5f6002820490506001821680610b9957607f821691505b602082108103610bac57610bab610b55565b5b50919050565b7f4e487b71000000000000000000000000000000000000000000000000000000005f52601160045260245ffd5b5f819050919050565b5f610bf282610bdf565b91507fffffffffffffffffffffffffffffffffffffffffffffffffffffffffffffffff8203610c2457610c23610bb2565b5b600182019050919050565b5f81905092915050565b5f819050815f5260205f209050919050565b5f8154610c5781610b82565b610c618186610c2f565b9450600182165f8114610c7b5760018114610c9057610cc2565b60ff1983168652811515820286019350610cc2565b610c9985610c39565b5f5b83811015610cba57815481890152600182019150602081019050610c9b565b838801955050505b50505092915050565b5f610cd68284610c4b565b915081905092915050565b5f610ceb82610796565b610cf58185610c2f565b9350610d058185602086016107b0565b80840191505092915050565b5f610d1c8284610ce1565b915081905092915050565b7f456e7465726564205479706520646f65736e6f74206d617463680000000000005f82015250565b5f610d5b601a8361094d565b9150610d6682610d27565b602082019050919050565b5f6020820190508181035f830152610d8881610d4f565b9050919050565b7f596f75206861766520616c7265616479207265676973746572656400000000005f82015250565b5f610dc3601b8361094d565b9150610dce82610d8f565b602082019050919050565b5f6020820190508181035f830152610df081610db7565b9050919050565b5f6020601f8301049050919050565b5f82821b905092915050565b5f60088302610e417fffffffffffffffffffffffffffffffffffffffffffffffffffffffffffffffff82610e06565b610e4b8683610e06565b95508019841693508086168417925050509392505050565b5f819050919050565b5f610e86610e81610e7c84610bdf565b610e63565b610bdf565b9050919050565b5f819050919050565b610e9f83610e6c565b610eb3610eab82610e8d565b848454610e12565b825550505050565b5f90565b610ec7610ebb565b610ed2818484610e96565b505050565b5b81811015610ef557610eea5f82610ebf565b600181019050610ed8565b5050565b601f821115610f3a57610f0b81610c39565b610f1484610df7565b81016020851015610f23578190505b610f37610f2f85610df7565b830182610ed7565b50505b505050565b5f82821c905092915050565b5f610f5a5f1984600802610f3f565b1980831691505092915050565b5f610f728383610f4b565b9150826002028217905092915050565b610f8b82610796565b67ffffffffffffffff811115610fa457610fa36109bd565b5b610fae8254610b82565b610fb9828285610ef9565b5f60209050601f831160018114610fea575f8415610fd8578287015190505b610fe28582610f67565b865550611049565b601f198416610ff886610c39565b5f5b8281101561101f57848901518255600182019150602085019450602081019050610ffa565b8683101561103c5784890151611038601f891682610f4b565b8355505b6001600288020188555050505b50505050505056fea26469706673582212208d403ed77979b39018cff71bb663691e67fc16036f6df2545f64a7417772a9b164736f6c63430008150033",
					"opcodes": "PUSH1 0x80 PUSH1 0x40 MSTORE CALLVALUE DUP1 ISZERO PUSH3 0x10 JUMPI PUSH0 DUP1 REVERT JUMPDEST POP PUSH1 0x40 MLOAD PUSH3 0x1659 CODESIZE SUB DUP1 PUSH3 0x1659 DUP4 CODECOPY DUP2 DUP2 ADD PUSH1 0x40 MSTORE DUP2 ADD SWAP1 PUSH3 0x36 SWAP2 SWAP1 PUSH3 0x226 JUMP JUMPDEST DUP2 PUSH0 SWAP1 DUP2 PUSH3 0x46 SWAP2 SWAP1 PUSH3 0x4E0 JUMP JUMPDEST POP DUP1 PUSH1 0x1 SWAP1 DUP2 PUSH3 0x58 SWAP2 SWAP1 PUSH3 0x4E0 JUMP JUMPDEST POP CALLER PUSH1 0x2 PUSH0 PUSH2 0x100 EXP DUP2 SLOAD DUP2 PUSH20 0xFFFFFFFFFFFFFFFFFFFFFFFFFFFFFFFFFFFFFFFF MUL NOT AND SWAP1 DUP4 PUSH20 0xFFFFFFFFFFFFFFFFFFFFFFFFFFFFFFFFFFFFFFFF AND MUL OR SWAP1 SSTORE POP POP POP PUSH3 0x5C4 JUMP JUMPDEST PUSH0 PUSH1 0x40 MLOAD SWAP1 POP SWAP1 JUMP JUMPDEST PUSH0 DUP1 REVERT JUMPDEST PUSH0 DUP1 REVERT JUMPDEST PUSH0 DUP1 REVERT JUMPDEST PUSH0 DUP1 REVERT JUMPDEST PUSH0 PUSH1 0x1F NOT PUSH1 0x1F DUP4 ADD AND SWAP1 POP SWAP2 SWAP1 POP JUMP JUMPDEST PUSH32 0x4E487B7100000000000000000000000000000000000000000000000000000000 PUSH0 MSTORE PUSH1 0x41 PUSH1 0x4 MSTORE PUSH1 0x24 PUSH0 REVERT JUMPDEST PUSH3 0x102 DUP3 PUSH3 0xBA JUMP JUMPDEST DUP2 ADD DUP2 DUP2 LT PUSH8 0xFFFFFFFFFFFFFFFF DUP3 GT OR ISZERO PUSH3 0x124 JUMPI PUSH3 0x123 PUSH3 0xCA JUMP JUMPDEST JUMPDEST DUP1 PUSH1 0x40 MSTORE POP POP POP JUMP JUMPDEST PUSH0 PUSH3 0x138 PUSH3 0xA1 JUMP JUMPDEST SWAP1 POP PUSH3 0x146 DUP3 DUP3 PUSH3 0xF7 JUMP JUMPDEST SWAP2 SWAP1 POP JUMP JUMPDEST PUSH0 PUSH8 0xFFFFFFFFFFFFFFFF DUP3 GT ISZERO PUSH3 0x168 JUMPI PUSH3 0x167 PUSH3 0xCA JUMP JUMPDEST JUMPDEST PUSH3 0x173 DUP3 PUSH3 0xBA JUMP JUMPDEST SWAP1 POP PUSH1 0x20 DUP2 ADD SWAP1 POP SWAP2 SWAP1 POP JUMP JUMPDEST PUSH0 JUMPDEST DUP4 DUP2 LT ISZERO PUSH3 0x19F JUMPI DUP1 DUP3 ADD MLOAD DUP2 DUP5 ADD MSTORE PUSH1 0x20 DUP2 ADD SWAP1 POP PUSH3 0x182 JUMP JUMPDEST PUSH0 DUP5 DUP5 ADD MSTORE POP POP POP POP JUMP JUMPDEST PUSH0 PUSH3 0x1C0 PUSH3 0x1BA DUP5 PUSH3 0x14B JUMP JUMPDEST PUSH3 0x12D JUMP JUMPDEST SWAP1 POP DUP3 DUP2 MSTORE PUSH1 0x20 DUP2 ADD DUP5 DUP5 DUP5 ADD GT ISZERO PUSH3 0x1DF JUMPI PUSH3 0x1DE PUSH3 0xB6 JUMP JUMPDEST JUMPDEST PUSH3 0x1EC DUP5 DUP3 DUP6 PUSH3 0x180 JUMP JUMPDEST POP SWAP4 SWAP3 POP POP POP JUMP JUMPDEST PUSH0 DUP3 PUSH1 0x1F DUP4 ADD SLT PUSH3 0x20B JUMPI PUSH3 0x20A PUSH3 0xB2 JUMP JUMPDEST JUMPDEST DUP2 MLOAD PUSH3 0x21D DUP5 DUP3 PUSH1 0x20 DUP7 ADD PUSH3 0x1AA JUMP JUMPDEST SWAP2 POP POP SWAP3 SWAP2 POP POP JUMP JUMPDEST PUSH0 DUP1 PUSH1 0x40 DUP4 DUP6 SUB SLT ISZERO PUSH3 0x23F JUMPI PUSH3 0x23E PUSH3 0xAA JUMP JUMPDEST JUMPDEST PUSH0 DUP4 ADD MLOAD PUSH8 0xFFFFFFFFFFFFFFFF DUP2 GT ISZERO PUSH3 0x25F JUMPI PUSH3 0x25E PUSH3 0xAE JUMP JUMPDEST JUMPDEST PUSH3 0x26D DUP6 DUP3 DUP7 ADD PUSH3 0x1F4 JUMP JUMPDEST SWAP3 POP POP PUSH1 0x20 DUP4 ADD MLOAD PUSH8 0xFFFFFFFFFFFFFFFF DUP2 GT ISZERO PUSH3 0x291 JUMPI PUSH3 0x290 PUSH3 0xAE JUMP JUMPDEST JUMPDEST PUSH3 0x29F DUP6 DUP3 DUP7 ADD PUSH3 0x1F4 JUMP JUMPDEST SWAP2 POP POP SWAP3 POP SWAP3 SWAP1 POP JUMP JUMPDEST PUSH0 DUP2 MLOAD SWAP1 POP SWAP2 SWAP1 POP JUMP JUMPDEST PUSH32 0x4E487B7100000000000000000000000000000000000000000000000000000000 PUSH0 MSTORE PUSH1 0x22 PUSH1 0x4 MSTORE PUSH1 0x24 PUSH0 REVERT JUMPDEST PUSH0 PUSH1 0x2 DUP3 DIV SWAP1 POP PUSH1 0x1 DUP3 AND DUP1 PUSH3 0x2F8 JUMPI PUSH1 0x7F DUP3 AND SWAP2 POP JUMPDEST PUSH1 0x20 DUP3 LT DUP2 SUB PUSH3 0x30E JUMPI PUSH3 0x30D PUSH3 0x2B3 JUMP JUMPDEST JUMPDEST POP SWAP2 SWAP1 POP JUMP JUMPDEST PUSH0 DUP2 SWAP1 POP DUP2 PUSH0 MSTORE PUSH1 0x20 PUSH0 KECCAK256 SWAP1 POP SWAP2 SWAP1 POP JUMP JUMPDEST PUSH0 PUSH1 0x20 PUSH1 0x1F DUP4 ADD DIV SWAP1 POP SWAP2 SWAP1 POP JUMP JUMPDEST PUSH0 DUP3 DUP3 SHL SWAP1 POP SWAP3 SWAP2 POP POP JUMP JUMPDEST PUSH0 PUSH1 0x8 DUP4 MUL PUSH3 0x372 PUSH32 0xFFFFFFFFFFFFFFFFFFFFFFFFFFFFFFFFFFFFFFFFFFFFFFFFFFFFFFFFFFFFFFFF DUP3 PUSH3 0x335 JUMP JUMPDEST PUSH3 0x37E DUP7 DUP4 PUSH3 0x335 JUMP JUMPDEST SWAP6 POP DUP1 NOT DUP5 AND SWAP4 POP DUP1 DUP7 AND DUP5 OR SWAP3 POP POP POP SWAP4 SWAP3 POP POP POP JUMP JUMPDEST PUSH0 DUP2 SWAP1 POP SWAP2 SWAP1 POP JUMP JUMPDEST PUSH0 DUP2 SWAP1 POP SWAP2 SWAP1 POP JUMP JUMPDEST PUSH0 PUSH3 0x3C8 PUSH3 0x3C2 PUSH3 0x3BC DUP5 PUSH3 0x396 JUMP JUMPDEST PUSH3 0x39F JUMP JUMPDEST PUSH3 0x396 JUMP JUMPDEST SWAP1 POP SWAP2 SWAP1 POP JUMP JUMPDEST PUSH0 DUP2 SWAP1 POP SWAP2 SWAP1 POP JUMP JUMPDEST PUSH3 0x3E3 DUP4 PUSH3 0x3A8 JUMP JUMPDEST PUSH3 0x3FB PUSH3 0x3F2 DUP3 PUSH3 0x3CF JUMP JUMPDEST DUP5 DUP5 SLOAD PUSH3 0x341 JUMP JUMPDEST DUP3 SSTORE POP POP POP POP JUMP JUMPDEST PUSH0 SWAP1 JUMP JUMPDEST PUSH3 0x411 PUSH3 0x403 JUMP JUMPDEST PUSH3 0x41E DUP2 DUP5 DUP5 PUSH3 0x3D8 JUMP JUMPDEST POP POP POP JUMP JUMPDEST JUMPDEST DUP2 DUP2 LT ISZERO PUSH3 0x445 JUMPI PUSH3 0x439 PUSH0 DUP3 PUSH3 0x407 JUMP JUMPDEST PUSH1 0x1 DUP2 ADD SWAP1 POP PUSH3 0x424 JUMP JUMPDEST POP POP JUMP JUMPDEST PUSH1 0x1F DUP3 GT ISZERO PUSH3 0x494 JUMPI PUSH3 0x45E DUP2 PUSH3 0x314 JUMP JUMPDEST PUSH3 0x469 DUP5 PUSH3 0x326 JUMP JUMPDEST DUP2 ADD PUSH1 0x20 DUP6 LT ISZERO PUSH3 0x479 JUMPI DUP2 SWAP1 POP JUMPDEST PUSH3 0x491 PUSH3 0x488 DUP6 PUSH3 0x326 JUMP JUMPDEST DUP4 ADD DUP3 PUSH3 0x423 JUMP JUMPDEST POP POP JUMPDEST POP POP POP JUMP JUMPDEST PUSH0 DUP3 DUP3 SHR SWAP1 POP SWAP3 SWAP2 POP POP JUMP JUMPDEST PUSH0 PUSH3 0x4B6 PUSH0 NOT DUP5 PUSH1 0x8 MUL PUSH3 0x499 JUMP JUMPDEST NOT DUP1 DUP4 AND SWAP2 POP POP SWAP3 SWAP2 POP POP JUMP JUMPDEST PUSH0 PUSH3 0x4D0 DUP4 DUP4 PUSH3 0x4A5 JUMP JUMPDEST SWAP2 POP DUP3 PUSH1 0x2 MUL DUP3 OR SWAP1 POP SWAP3 SWAP2 POP POP JUMP JUMPDEST PUSH3 0x4EB DUP3 PUSH3 0x2A9 JUMP JUMPDEST PUSH8 0xFFFFFFFFFFFFFFFF DUP2 GT ISZERO PUSH3 0x507 JUMPI PUSH3 0x506 PUSH3 0xCA JUMP JUMPDEST JUMPDEST PUSH3 0x513 DUP3 SLOAD PUSH3 0x2E0 JUMP JUMPDEST PUSH3 0x520 DUP3 DUP3 DUP6 PUSH3 0x449 JUMP JUMPDEST PUSH0 PUSH1 0x20 SWAP1 POP PUSH1 0x1F DUP4 GT PUSH1 0x1 DUP2 EQ PUSH3 0x556 JUMPI PUSH0 DUP5 ISZERO PUSH3 0x541 JUMPI DUP3 DUP8 ADD MLOAD SWAP1 POP JUMPDEST PUSH3 0x54D DUP6 DUP3 PUSH3 0x4C3 JUMP JUMPDEST DUP7 SSTORE POP PUSH3 0x5BC JUMP JUMPDEST PUSH1 0x1F NOT DUP5 AND PUSH3 0x566 DUP7 PUSH3 0x314 JUMP JUMPDEST PUSH0 JUMPDEST DUP3 DUP2 LT ISZERO PUSH3 0x58F JUMPI DUP5 DUP10 ADD MLOAD DUP3 SSTORE PUSH1 0x1 DUP3 ADD SWAP2 POP PUSH1 0x20 DUP6 ADD SWAP5 POP PUSH1 0x20 DUP2 ADD SWAP1 POP PUSH3 0x568 JUMP JUMPDEST DUP7 DUP4 LT ISZERO PUSH3 0x5AF JUMPI DUP5 DUP10 ADD MLOAD PUSH3 0x5AB PUSH1 0x1F DUP10 AND DUP3 PUSH3 0x4A5 JUMP JUMPDEST DUP4 SSTORE POP JUMPDEST PUSH1 0x1 PUSH1 0x2 DUP9 MUL ADD DUP9 SSTORE POP POP POP JUMPDEST POP POP POP POP POP POP JUMP JUMPDEST PUSH2 0x1087 DUP1 PUSH3 0x5D2 PUSH0 CODECOPY PUSH0 RETURN INVALID PUSH1 0x80 PUSH1 0x40 MSTORE CALLVALUE DUP1 ISZERO PUSH2 0xF JUMPI PUSH0 DUP1 REVERT JUMPDEST POP PUSH1 0x4 CALLDATASIZE LT PUSH2 0x3F JUMPI PUSH0 CALLDATALOAD PUSH1 0xE0 SHR DUP1 PUSH4 0xCEE1B72 EQ PUSH2 0x43 JUMPI DUP1 PUSH4 0x3164582E EQ PUSH2 0x62 JUMPI DUP1 PUSH4 0x881D97DC EQ PUSH2 0x92 JUMPI JUMPDEST PUSH0 DUP1 REVERT JUMPDEST PUSH2 0x4B PUSH2 0xC2 JUMP JUMPDEST PUSH1 0x40 MLOAD PUSH2 0x59 SWAP3 SWAP2 SWAP1 PUSH2 0x8B2 JUMP JUMPDEST PUSH1 0x40 MLOAD DUP1 SWAP2 SUB SWAP1 RETURN JUMPDEST PUSH2 0x7C PUSH1 0x4 DUP1 CALLDATASIZE SUB DUP2 ADD SWAP1 PUSH2 0x77 SWAP2 SWAP1 PUSH2 0x922 JUMP JUMPDEST PUSH2 0x30B JUMP JUMPDEST PUSH1 0x40 MLOAD PUSH2 0x89 SWAP2 SWAP1 PUSH2 0x995 JUMP JUMPDEST PUSH1 0x40 MLOAD DUP1 SWAP2 SUB SWAP1 RETURN JUMPDEST PUSH2 0xAC PUSH1 0x4 DUP1 CALLDATASIZE SUB DUP2 ADD SWAP1 PUSH2 0xA7 SWAP2 SWAP1 PUSH2 0xAE1 JUMP JUMPDEST PUSH2 0x3D8 JUMP JUMPDEST PUSH1 0x40 MLOAD PUSH2 0xB9 SWAP2 SWAP1 PUSH2 0x995 JUMP JUMPDEST PUSH1 0x40 MLOAD DUP1 SWAP2 SUB SWAP1 RETURN JUMPDEST PUSH1 0x60 DUP1 PUSH0 PUSH1 0x4 DUP1 SLOAD SWAP1 POP SWAP1 POP PUSH0 DUP2 PUSH8 0xFFFFFFFFFFFFFFFF DUP2 GT ISZERO PUSH2 0xE9 JUMPI PUSH2 0xE8 PUSH2 0x9BD JUMP JUMPDEST JUMPDEST PUSH1 0x40 MLOAD SWAP1 DUP1 DUP3 MSTORE DUP1 PUSH1 0x20 MUL PUSH1 0x20 ADD DUP3 ADD PUSH1 0x40 MSTORE DUP1 ISZERO PUSH2 0x117 JUMPI DUP2 PUSH1 0x20 ADD PUSH1 0x20 DUP3 MUL DUP1 CALLDATASIZE DUP4 CALLDATACOPY DUP1 DUP3 ADD SWAP2 POP POP SWAP1 POP JUMPDEST POP SWAP1 POP PUSH0 DUP3 PUSH8 0xFFFFFFFFFFFFFFFF DUP2 GT ISZERO PUSH2 0x135 JUMPI PUSH2 0x134 PUSH2 0x9BD JUMP JUMPDEST JUMPDEST PUSH1 0x40 MLOAD SWAP1 DUP1 DUP3 MSTORE DUP1 PUSH1 0x20 MUL PUSH1 0x20 ADD DUP3 ADD PUSH1 0x40 MSTORE DUP1 ISZERO PUSH2 0x168 JUMPI DUP2 PUSH1 0x20 ADD JUMPDEST PUSH1 0x60 DUP2 MSTORE PUSH1 0x20 ADD SWAP1 PUSH1 0x1 SWAP1 SUB SWAP1 DUP2 PUSH2 0x153 JUMPI SWAP1 POP JUMPDEST POP SWAP1 POP PUSH0 JUMPDEST DUP4 DUP2 LT ISZERO PUSH2 0x2FD JUMPI PUSH0 PUSH1 0x4 DUP3 DUP2 SLOAD DUP2 LT PUSH2 0x18A JUMPI PUSH2 0x189 PUSH2 0xB28 JUMP JUMPDEST JUMPDEST SWAP1 PUSH0 MSTORE PUSH1 0x20 PUSH0 KECCAK256 ADD PUSH0 SWAP1 SLOAD SWAP1 PUSH2 0x100 EXP SWAP1 DIV PUSH20 0xFFFFFFFFFFFFFFFFFFFFFFFFFFFFFFFFFFFFFFFF AND SWAP1 POP PUSH0 PUSH1 0x3 PUSH0 DUP4 PUSH20 0xFFFFFFFFFFFFFFFFFFFFFFFFFFFFFFFFFFFFFFFF AND PUSH20 0xFFFFFFFFFFFFFFFFFFFFFFFFFFFFFFFFFFFFFFFF AND DUP2 MSTORE PUSH1 0x20 ADD SWAP1 DUP2 MSTORE PUSH1 0x20 ADD PUSH0 KECCAK256 DUP1 SLOAD PUSH2 0x1FD SWAP1 PUSH2 0xB82 JUMP JUMPDEST DUP1 PUSH1 0x1F ADD PUSH1 0x20 DUP1 SWAP2 DIV MUL PUSH1 0x20 ADD PUSH1 0x40 MLOAD SWAP1 DUP2 ADD PUSH1 0x40 MSTORE DUP1 SWAP3 SWAP2 SWAP1 DUP2 DUP2 MSTORE PUSH1 0x20 ADD DUP3 DUP1 SLOAD PUSH2 0x229 SWAP1 PUSH2 0xB82 JUMP JUMPDEST DUP1 ISZERO PUSH2 0x274 JUMPI DUP1 PUSH1 0x1F LT PUSH2 0x24B JUMPI PUSH2 0x100 DUP1 DUP4 SLOAD DIV MUL DUP4 MSTORE SWAP2 PUSH1 0x20 ADD SWAP2 PUSH2 0x274 JUMP JUMPDEST DUP3 ADD SWAP2 SWAP1 PUSH0 MSTORE PUSH1 0x20 PUSH0 KECCAK256 SWAP1 JUMPDEST DUP2 SLOAD DUP2 MSTORE SWAP1 PUSH1 0x1 ADD SWAP1 PUSH1 0x20 ADD DUP1 DUP4 GT PUSH2 0x257 JUMPI DUP3 SWAP1 SUB PUSH1 0x1F AND DUP3 ADD SWAP2 JUMPDEST POP POP POP POP POP SWAP1 POP DUP2 DUP6 DUP5 DUP2 MLOAD DUP2 LT PUSH2 0x28F JUMPI PUSH2 0x28E PUSH2 0xB28 JUMP JUMPDEST JUMPDEST PUSH1 0x20 MUL PUSH1 0x20 ADD ADD SWAP1 PUSH20 0xFFFFFFFFFFFFFFFFFFFFFFFFFFFFFFFFFFFFFFFF AND SWAP1 DUP2 PUSH20 0xFFFFFFFFFFFFFFFFFFFFFFFFFFFFFFFFFFFFFFFF AND DUP2 MSTORE POP POP DUP1 DUP5 DUP5 DUP2 MLOAD DUP2 LT PUSH2 0x2DD JUMPI PUSH2 0x2DC PUSH2 0xB28 JUMP JUMPDEST JUMPDEST PUSH1 0x20 MUL PUSH1 0x20 ADD ADD DUP2 SWAP1 MSTORE POP POP POP DUP1 DUP1 PUSH2 0x2F5 SWAP1 PUSH2 0xBE8 JUMP JUMPDEST SWAP2 POP POP PUSH2 0x16D JUMP JUMPDEST POP DUP2 DUP2 SWAP5 POP SWAP5 POP POP POP POP SWAP1 SWAP2 JUMP JUMPDEST PUSH1 0x60 PUSH1 0x3 PUSH0 DUP4 PUSH20 0xFFFFFFFFFFFFFFFFFFFFFFFFFFFFFFFFFFFFFFFF AND PUSH20 0xFFFFFFFFFFFFFFFFFFFFFFFFFFFFFFFFFFFFFFFF AND DUP2 MSTORE PUSH1 0x20 ADD SWAP1 DUP2 MSTORE PUSH1 0x20 ADD PUSH0 KECCAK256 DUP1 SLOAD PUSH2 0x355 SWAP1 PUSH2 0xB82 JUMP JUMPDEST DUP1 PUSH1 0x1F ADD PUSH1 0x20 DUP1 SWAP2 DIV MUL PUSH1 0x20 ADD PUSH1 0x40 MLOAD SWAP1 DUP2 ADD PUSH1 0x40 MSTORE DUP1 SWAP3 SWAP2 SWAP1 DUP2 DUP2 MSTORE PUSH1 0x20 ADD DUP3 DUP1 SLOAD PUSH2 0x381 SWAP1 PUSH2 0xB82 JUMP JUMPDEST DUP1 ISZERO PUSH2 0x3CC JUMPI DUP1 PUSH1 0x1F LT PUSH2 0x3A3 JUMPI PUSH2 0x100 DUP1 DUP4 SLOAD DIV MUL DUP4 MSTORE SWAP2 PUSH1 0x20 ADD SWAP2 PUSH2 0x3CC JUMP JUMPDEST DUP3 ADD SWAP2 SWAP1 PUSH0 MSTORE PUSH1 0x20 PUSH0 KECCAK256 SWAP1 JUMPDEST DUP2 SLOAD DUP2 MSTORE SWAP1 PUSH1 0x1 ADD SWAP1 PUSH1 0x20 ADD DUP1 DUP4 GT PUSH2 0x3AF JUMPI DUP3 SWAP1 SUB PUSH1 0x1F AND DUP3 ADD SWAP2 JUMPDEST POP POP POP POP POP SWAP1 POP SWAP2 SWAP1 POP JUMP JUMPDEST PUSH1 0x60 PUSH0 PUSH1 0x40 MLOAD PUSH1 0x20 ADD PUSH2 0x3EB SWAP2 SWAP1 PUSH2 0xCCB JUMP JUMPDEST PUSH1 0x40 MLOAD PUSH1 0x20 DUP2 DUP4 SUB SUB DUP2 MSTORE SWAP1 PUSH1 0x40 MSTORE DUP1 MLOAD SWAP1 PUSH1 0x20 ADD KECCAK256 DUP3 PUSH1 0x40 MLOAD PUSH1 0x20 ADD PUSH2 0x412 SWAP2 SWAP1 PUSH2 0xD11 JUMP JUMPDEST PUSH1 0x40 MLOAD PUSH1 0x20 DUP2 DUP4 SUB SUB DUP2 MSTORE SWAP1 PUSH1 0x40 MSTORE DUP1 MLOAD SWAP1 PUSH1 0x20 ADD KECCAK256 EQ DUP1 PUSH2 0x480 JUMPI POP PUSH1 0x1 PUSH1 0x40 MLOAD PUSH1 0x20 ADD PUSH2 0x441 SWAP2 SWAP1 PUSH2 0xCCB JUMP JUMPDEST PUSH1 0x40 MLOAD PUSH1 0x20 DUP2 DUP4 SUB SUB DUP2 MSTORE SWAP1 PUSH1 0x40 MSTORE DUP1 MLOAD SWAP1 PUSH1 0x20 ADD KECCAK256 DUP3 PUSH1 0x40 MLOAD PUSH1 0x20 ADD PUSH2 0x468 SWAP2 SWAP1 PUSH2 0xD11 JUMP JUMPDEST PUSH1 0x40 MLOAD PUSH1 0x20 DUP2 DUP4 SUB SUB DUP2 MSTORE SWAP1 PUSH1 0x40 MSTORE DUP1 MLOAD SWAP1 PUSH1 0x20 ADD KECCAK256 EQ JUMPDEST PUSH2 0x4BF JUMPI PUSH1 0x40 MLOAD PUSH32 0x8C379A000000000000000000000000000000000000000000000000000000000 DUP2 MSTORE PUSH1 0x4 ADD PUSH2 0x4B6 SWAP1 PUSH2 0xD71 JUMP JUMPDEST PUSH1 0x40 MLOAD DUP1 SWAP2 SUB SWAP1 REVERT JUMPDEST PUSH1 0x5 PUSH0 CALLER PUSH20 0xFFFFFFFFFFFFFFFFFFFFFFFFFFFFFFFFFFFFFFFF AND PUSH20 0xFFFFFFFFFFFFFFFFFFFFFFFFFFFFFFFFFFFFFFFF AND DUP2 MSTORE PUSH1 0x20 ADD SWAP1 DUP2 MSTORE PUSH1 0x20 ADD PUSH0 KECCAK256 PUSH0 SWAP1 SLOAD SWAP1 PUSH2 0x100 EXP SWAP1 DIV PUSH1 0xFF AND ISZERO PUSH2 0x549 JUMPI PUSH1 0x40 MLOAD PUSH32 0x8C379A000000000000000000000000000000000000000000000000000000000 DUP2 MSTORE PUSH1 0x4 ADD PUSH2 0x540 SWAP1 PUSH2 0xDD9 JUMP JUMPDEST PUSH1 0x40 MLOAD DUP1 SWAP2 SUB SWAP1 REVERT JUMPDEST DUP2 PUSH1 0x3 PUSH0 CALLER PUSH20 0xFFFFFFFFFFFFFFFFFFFFFFFFFFFFFFFFFFFFFFFF AND PUSH20 0xFFFFFFFFFFFFFFFFFFFFFFFFFFFFFFFFFFFFFFFF AND DUP2 MSTORE PUSH1 0x20 ADD SWAP1 DUP2 MSTORE PUSH1 0x20 ADD PUSH0 KECCAK256 SWAP1 DUP2 PUSH2 0x593 SWAP2 SWAP1 PUSH2 0xF82 JUMP JUMPDEST POP PUSH1 0x1 PUSH1 0x5 PUSH0 CALLER PUSH20 0xFFFFFFFFFFFFFFFFFFFFFFFFFFFFFFFFFFFFFFFF AND PUSH20 0xFFFFFFFFFFFFFFFFFFFFFFFFFFFFFFFFFFFFFFFF AND DUP2 MSTORE PUSH1 0x20 ADD SWAP1 DUP2 MSTORE PUSH1 0x20 ADD PUSH0 KECCAK256 PUSH0 PUSH2 0x100 EXP DUP2 SLOAD DUP2 PUSH1 0xFF MUL NOT AND SWAP1 DUP4 ISZERO ISZERO MUL OR SWAP1 SSTORE POP PUSH1 0x4 CALLER SWAP1 DUP1 PUSH1 0x1 DUP2 SLOAD ADD DUP1 DUP3 SSTORE DUP1 SWAP2 POP POP PUSH1 0x1 SWAP1 SUB SWAP1 PUSH0 MSTORE PUSH1 0x20 PUSH0 KECCAK256 ADD PUSH0 SWAP1 SWAP2 SWAP1 SWAP2 SWAP1 SWAP2 PUSH2 0x100 EXP DUP2 SLOAD DUP2 PUSH20 0xFFFFFFFFFFFFFFFFFFFFFFFFFFFFFFFFFFFFFFFF MUL NOT AND SWAP1 DUP4 PUSH20 0xFFFFFFFFFFFFFFFFFFFFFFFFFFFFFFFFFFFFFFFF AND MUL OR SWAP1 SSTORE POP PUSH1 0x40 MLOAD DUP1 PUSH1 0x40 ADD PUSH1 0x40 MSTORE DUP1 PUSH1 0x1C DUP2 MSTORE PUSH1 0x20 ADD PUSH32 0x557365722072656769737465726564207375636365737366756C6C7900000000 DUP2 MSTORE POP SWAP1 POP SWAP2 SWAP1 POP JUMP JUMPDEST PUSH0 DUP2 MLOAD SWAP1 POP SWAP2 SWAP1 POP JUMP JUMPDEST PUSH0 DUP3 DUP3 MSTORE PUSH1 0x20 DUP3 ADD SWAP1 POP SWAP3 SWAP2 POP POP JUMP JUMPDEST PUSH0 DUP2 SWAP1 POP PUSH1 0x20 DUP3 ADD SWAP1 POP SWAP2 SWAP1 POP JUMP JUMPDEST PUSH0 PUSH20 0xFFFFFFFFFFFFFFFFFFFFFFFFFFFFFFFFFFFFFFFF DUP3 AND SWAP1 POP SWAP2 SWAP1 POP JUMP JUMPDEST PUSH0 PUSH2 0x6D8 DUP3 PUSH2 0x6AF JUMP JUMPDEST SWAP1 POP SWAP2 SWAP1 POP JUMP JUMPDEST PUSH2 0x6E8 DUP2 PUSH2 0x6CE JUMP JUMPDEST DUP3 MSTORE POP POP JUMP JUMPDEST PUSH0 PUSH2 0x6F9 DUP4 DUP4 PUSH2 0x6DF JUMP JUMPDEST PUSH1 0x20 DUP4 ADD SWAP1 POP SWAP3 SWAP2 POP POP JUMP JUMPDEST PUSH0 PUSH1 0x20 DUP3 ADD SWAP1 POP SWAP2 SWAP1 POP JUMP JUMPDEST PUSH0 PUSH2 0x71B DUP3 PUSH2 0x686 JUMP JUMPDEST PUSH2 0x725 DUP2 DUP6 PUSH2 0x690 JUMP JUMPDEST SWAP4 POP PUSH2 0x730 DUP4 PUSH2 0x6A0 JUMP JUMPDEST DUP1 PUSH0 JUMPDEST DUP4 DUP2 LT ISZERO PUSH2 0x760 JUMPI DUP2 MLOAD PUSH2 0x747 DUP9 DUP3 PUSH2 0x6EE JUMP JUMPDEST SWAP8 POP PUSH2 0x752 DUP4 PUSH2 0x705 JUMP JUMPDEST SWAP3 POP POP PUSH1 0x1 DUP2 ADD SWAP1 POP PUSH2 0x733 JUMP JUMPDEST POP DUP6 SWAP4 POP POP POP POP SWAP3 SWAP2 POP POP JUMP JUMPDEST PUSH0 DUP2 MLOAD SWAP1 POP SWAP2 SWAP1 POP JUMP JUMPDEST PUSH0 DUP3 DUP3 MSTORE PUSH1 0x20 DUP3 ADD SWAP1 POP SWAP3 SWAP2 POP POP JUMP JUMPDEST PUSH0 DUP2 SWAP1 POP PUSH1 0x20 DUP3 ADD SWAP1 POP SWAP2 SWAP1 POP JUMP JUMPDEST PUSH0 DUP2 MLOAD SWAP1 POP SWAP2 SWAP1 POP JUMP JUMPDEST PUSH0 DUP3 DUP3 MSTORE PUSH1 0x20 DUP3 ADD SWAP1 POP SWAP3 SWAP2 POP POP JUMP JUMPDEST PUSH0 JUMPDEST DUP4 DUP2 LT ISZERO PUSH2 0x7CD JUMPI DUP1 DUP3 ADD MLOAD DUP2 DUP5 ADD MSTORE PUSH1 0x20 DUP2 ADD SWAP1 POP PUSH2 0x7B2 JUMP JUMPDEST PUSH0 DUP5 DUP5 ADD MSTORE POP POP POP POP JUMP JUMPDEST PUSH0 PUSH1 0x1F NOT PUSH1 0x1F DUP4 ADD AND SWAP1 POP SWAP2 SWAP1 POP JUMP JUMPDEST PUSH0 PUSH2 0x7F2 DUP3 PUSH2 0x796 JUMP JUMPDEST PUSH2 0x7FC DUP2 DUP6 PUSH2 0x7A0 JUMP JUMPDEST SWAP4 POP PUSH2 0x80C DUP2 DUP6 PUSH1 0x20 DUP7 ADD PUSH2 0x7B0 JUMP JUMPDEST PUSH2 0x815 DUP2 PUSH2 0x7D8 JUMP JUMPDEST DUP5 ADD SWAP2 POP POP SWAP3 SWAP2 POP POP JUMP JUMPDEST PUSH0 PUSH2 0x82B DUP4 DUP4 PUSH2 0x7E8 JUMP JUMPDEST SWAP1 POP SWAP3 SWAP2 POP POP JUMP JUMPDEST PUSH0 PUSH1 0x20 DUP3 ADD SWAP1 POP SWAP2 SWAP1 POP JUMP JUMPDEST PUSH0 PUSH2 0x849 DUP3 PUSH2 0x76D JUMP JUMPDEST PUSH2 0x853 DUP2 DUP6 PUSH2 0x777 JUMP JUMPDEST SWAP4 POP DUP4 PUSH1 0x20 DUP3 MUL DUP6 ADD PUSH2 0x865 DUP6 PUSH2 0x787 JUMP JUMPDEST DUP1 PUSH0 JUMPDEST DUP6 DUP2 LT ISZERO PUSH2 0x8A0 JUMPI DUP5 DUP5 SUB DUP10 MSTORE DUP2 MLOAD PUSH2 0x881 DUP6 DUP3 PUSH2 0x820 JUMP JUMPDEST SWAP5 POP PUSH2 0x88C DUP4 PUSH2 0x833 JUMP JUMPDEST SWAP3 POP PUSH1 0x20 DUP11 ADD SWAP10 POP POP PUSH1 0x1 DUP2 ADD SWAP1 POP PUSH2 0x868 JUMP JUMPDEST POP DUP3 SWAP8 POP DUP8 SWAP6 POP POP POP POP POP POP SWAP3 SWAP2 POP POP JUMP JUMPDEST PUSH0 PUSH1 0x40 DUP3 ADD SWAP1 POP DUP2 DUP2 SUB PUSH0 DUP4 ADD MSTORE PUSH2 0x8CA DUP2 DUP6 PUSH2 0x711 JUMP JUMPDEST SWAP1 POP DUP2 DUP2 SUB PUSH1 0x20 DUP4 ADD MSTORE PUSH2 0x8DE DUP2 DUP5 PUSH2 0x83F JUMP JUMPDEST SWAP1 POP SWAP4 SWAP3 POP POP POP JUMP JUMPDEST PUSH0 PUSH1 0x40 MLOAD SWAP1 POP SWAP1 JUMP JUMPDEST PUSH0 DUP1 REVERT JUMPDEST PUSH0 DUP1 REVERT JUMPDEST PUSH2 0x901 DUP2 PUSH2 0x6CE JUMP JUMPDEST DUP2 EQ PUSH2 0x90B JUMPI PUSH0 DUP1 REVERT JUMPDEST POP JUMP JUMPDEST PUSH0 DUP2 CALLDATALOAD SWAP1 POP PUSH2 0x91C DUP2 PUSH2 0x8F8 JUMP JUMPDEST SWAP3 SWAP2 POP POP JUMP JUMPDEST PUSH0 PUSH1 0x20 DUP3 DUP5 SUB SLT ISZERO PUSH2 0x937 JUMPI PUSH2 0x936 PUSH2 0x8F0 JUMP JUMPDEST JUMPDEST PUSH0 PUSH2 0x944 DUP5 DUP3 DUP6 ADD PUSH2 0x90E JUMP JUMPDEST SWAP2 POP POP SWAP3 SWAP2 POP POP JUMP JUMPDEST PUSH0 DUP3 DUP3 MSTORE PUSH1 0x20 DUP3 ADD SWAP1 POP SWAP3 SWAP2 POP POP JUMP JUMPDEST PUSH0 PUSH2 0x967 DUP3 PUSH2 0x796 JUMP JUMPDEST PUSH2 0x971 DUP2 DUP6 PUSH2 0x94D JUMP JUMPDEST SWAP4 POP PUSH2 0x981 DUP2 DUP6 PUSH1 0x20 DUP7 ADD PUSH2 0x7B0 JUMP JUMPDEST PUSH2 0x98A DUP2 PUSH2 0x7D8 JUMP JUMPDEST DUP5 ADD SWAP2 POP POP SWAP3 SWAP2 POP POP JUMP JUMPDEST PUSH0 PUSH1 0x20 DUP3 ADD SWAP1 POP DUP2 DUP2 SUB PUSH0 DUP4 ADD MSTORE PUSH2 0x9AD DUP2 DUP5 PUSH2 0x95D JUMP JUMPDEST SWAP1 POP SWAP3 SWAP2 POP POP JUMP JUMPDEST PUSH0 DUP1 REVERT JUMPDEST PUSH0 DUP1 REVERT JUMPDEST PUSH32 0x4E487B7100000000000000000000000000000000000000000000000000000000 PUSH0 MSTORE PUSH1 0x41 PUSH1 0x4 MSTORE PUSH1 0x24 PUSH0 REVERT JUMPDEST PUSH2 0x9F3 DUP3 PUSH2 0x7D8 JUMP JUMPDEST DUP2 ADD DUP2 DUP2 LT PUSH8 0xFFFFFFFFFFFFFFFF DUP3 GT OR ISZERO PUSH2 0xA12 JUMPI PUSH2 0xA11 PUSH2 0x9BD JUMP JUMPDEST JUMPDEST DUP1 PUSH1 0x40 MSTORE POP POP POP JUMP JUMPDEST PUSH0 PUSH2 0xA24 PUSH2 0x8E7 JUMP JUMPDEST SWAP1 POP PUSH2 0xA30 DUP3 DUP3 PUSH2 0x9EA JUMP JUMPDEST SWAP2 SWAP1 POP JUMP JUMPDEST PUSH0 PUSH8 0xFFFFFFFFFFFFFFFF DUP3 GT ISZERO PUSH2 0xA4F JUMPI PUSH2 0xA4E PUSH2 0x9BD JUMP JUMPDEST JUMPDEST PUSH2 0xA58 DUP3 PUSH2 0x7D8 JUMP JUMPDEST SWAP1 POP PUSH1 0x20 DUP2 ADD SWAP1 POP SWAP2 SWAP1 POP JUMP JUMPDEST DUP3 DUP2 DUP4 CALLDATACOPY PUSH0 DUP4 DUP4 ADD MSTORE POP POP POP JUMP JUMPDEST PUSH0 PUSH2 0xA85 PUSH2 0xA80 DUP5 PUSH2 0xA35 JUMP JUMPDEST PUSH2 0xA1B JUMP JUMPDEST SWAP1 POP DUP3 DUP2 MSTORE PUSH1 0x20 DUP2 ADD DUP5 DUP5 DUP5 ADD GT ISZERO PUSH2 0xAA1 JUMPI PUSH2 0xAA0 PUSH2 0x9B9 JUMP JUMPDEST JUMPDEST PUSH2 0xAAC DUP5 DUP3 DUP6 PUSH2 0xA65 JUMP JUMPDEST POP SWAP4 SWAP3 POP POP POP JUMP JUMPDEST PUSH0 DUP3 PUSH1 0x1F DUP4 ADD SLT PUSH2 0xAC8 JUMPI PUSH2 0xAC7 PUSH2 0x9B5 JUMP JUMPDEST JUMPDEST DUP2 CALLDATALOAD PUSH2 0xAD8 DUP5 DUP3 PUSH1 0x20 DUP7 ADD PUSH2 0xA73 JUMP JUMPDEST SWAP2 POP POP SWAP3 SWAP2 POP POP JUMP JUMPDEST PUSH0 PUSH1 0x20 DUP3 DUP5 SUB SLT ISZERO PUSH2 0xAF6 JUMPI PUSH2 0xAF5 PUSH2 0x8F0 JUMP JUMPDEST JUMPDEST PUSH0 DUP3 ADD CALLDATALOAD PUSH8 0xFFFFFFFFFFFFFFFF DUP2 GT ISZERO PUSH2 0xB13 JUMPI PUSH2 0xB12 PUSH2 0x8F4 JUMP JUMPDEST JUMPDEST PUSH2 0xB1F DUP5 DUP3 DUP6 ADD PUSH2 0xAB4 JUMP JUMPDEST SWAP2 POP POP SWAP3 SWAP2 POP POP JUMP JUMPDEST PUSH32 0x4E487B7100000000000000000000000000000000000000000000000000000000 PUSH0 MSTORE PUSH1 0x32 PUSH1 0x4 MSTORE PUSH1 0x24 PUSH0 REVERT JUMPDEST PUSH32 0x4E487B7100000000000000000000000000000000000000000000000000000000 PUSH0 MSTORE PUSH1 0x22 PUSH1 0x4 MSTORE PUSH1 0x24 PUSH0 REVERT JUMPDEST PUSH0 PUSH1 0x2 DUP3 DIV SWAP1 POP PUSH1 0x1 DUP3 AND DUP1 PUSH2 0xB99 JUMPI PUSH1 0x7F DUP3 AND SWAP2 POP JUMPDEST PUSH1 0x20 DUP3 LT DUP2 SUB PUSH2 0xBAC JUMPI PUSH2 0xBAB PUSH2 0xB55 JUMP JUMPDEST JUMPDEST POP SWAP2 SWAP1 POP JUMP JUMPDEST PUSH32 0x4E487B7100000000000000000000000000000000000000000000000000000000 PUSH0 MSTORE PUSH1 0x11 PUSH1 0x4 MSTORE PUSH1 0x24 PUSH0 REVERT JUMPDEST PUSH0 DUP2 SWAP1 POP SWAP2 SWAP1 POP JUMP JUMPDEST PUSH0 PUSH2 0xBF2 DUP3 PUSH2 0xBDF JUMP JUMPDEST SWAP2 POP PUSH32 0xFFFFFFFFFFFFFFFFFFFFFFFFFFFFFFFFFFFFFFFFFFFFFFFFFFFFFFFFFFFFFFFF DUP3 SUB PUSH2 0xC24 JUMPI PUSH2 0xC23 PUSH2 0xBB2 JUMP JUMPDEST JUMPDEST PUSH1 0x1 DUP3 ADD SWAP1 POP SWAP2 SWAP1 POP JUMP JUMPDEST PUSH0 DUP2 SWAP1 POP SWAP3 SWAP2 POP POP JUMP JUMPDEST PUSH0 DUP2 SWAP1 POP DUP2 PUSH0 MSTORE PUSH1 0x20 PUSH0 KECCAK256 SWAP1 POP SWAP2 SWAP1 POP JUMP JUMPDEST PUSH0 DUP2 SLOAD PUSH2 0xC57 DUP2 PUSH2 0xB82 JUMP JUMPDEST PUSH2 0xC61 DUP2 DUP7 PUSH2 0xC2F JUMP JUMPDEST SWAP5 POP PUSH1 0x1 DUP3 AND PUSH0 DUP2 EQ PUSH2 0xC7B JUMPI PUSH1 0x1 DUP2 EQ PUSH2 0xC90 JUMPI PUSH2 0xCC2 JUMP JUMPDEST PUSH1 0xFF NOT DUP4 AND DUP7 MSTORE DUP2 ISZERO ISZERO DUP3 MUL DUP7 ADD SWAP4 POP PUSH2 0xCC2 JUMP JUMPDEST PUSH2 0xC99 DUP6 PUSH2 0xC39 JUMP JUMPDEST PUSH0 JUMPDEST DUP4 DUP2 LT ISZERO PUSH2 0xCBA JUMPI DUP2 SLOAD DUP2 DUP10 ADD MSTORE PUSH1 0x1 DUP3 ADD SWAP2 POP PUSH1 0x20 DUP2 ADD SWAP1 POP PUSH2 0xC9B JUMP JUMPDEST DUP4 DUP9 ADD SWAP6 POP POP POP JUMPDEST POP POP POP SWAP3 SWAP2 POP POP JUMP JUMPDEST PUSH0 PUSH2 0xCD6 DUP3 DUP5 PUSH2 0xC4B JUMP JUMPDEST SWAP2 POP DUP2 SWAP1 POP SWAP3 SWAP2 POP POP JUMP JUMPDEST PUSH0 PUSH2 0xCEB DUP3 PUSH2 0x796 JUMP JUMPDEST PUSH2 0xCF5 DUP2 DUP6 PUSH2 0xC2F JUMP JUMPDEST SWAP4 POP PUSH2 0xD05 DUP2 DUP6 PUSH1 0x20 DUP7 ADD PUSH2 0x7B0 JUMP JUMPDEST DUP1 DUP5 ADD SWAP2 POP POP SWAP3 SWAP2 POP POP JUMP JUMPDEST PUSH0 PUSH2 0xD1C DUP3 DUP5 PUSH2 0xCE1 JUMP JUMPDEST SWAP2 POP DUP2 SWAP1 POP SWAP3 SWAP2 POP POP JUMP JUMPDEST PUSH32 0x456E7465726564205479706520646F65736E6F74206D61746368000000000000 PUSH0 DUP3 ADD MSTORE POP JUMP JUMPDEST PUSH0 PUSH2 0xD5B PUSH1 0x1A DUP4 PUSH2 0x94D JUMP JUMPDEST SWAP2 POP PUSH2 0xD66 DUP3 PUSH2 0xD27 JUMP JUMPDEST PUSH1 0x20 DUP3 ADD SWAP1 POP SWAP2 SWAP1 POP JUMP JUMPDEST PUSH0 PUSH1 0x20 DUP3 ADD SWAP1 POP DUP2 DUP2 SUB PUSH0 DUP4 ADD MSTORE PUSH2 0xD88 DUP2 PUSH2 0xD4F JUMP JUMPDEST SWAP1 POP SWAP2 SWAP1 POP JUMP JUMPDEST PUSH32 0x596F75206861766520616C726561647920726567697374657265640000000000 PUSH0 DUP3 ADD MSTORE POP JUMP JUMPDEST PUSH0 PUSH2 0xDC3 PUSH1 0x1B DUP4 PUSH2 0x94D JUMP JUMPDEST SWAP2 POP PUSH2 0xDCE DUP3 PUSH2 0xD8F JUMP JUMPDEST PUSH1 0x20 DUP3 ADD SWAP1 POP SWAP2 SWAP1 POP JUMP JUMPDEST PUSH0 PUSH1 0x20 DUP3 ADD SWAP1 POP DUP2 DUP2 SUB PUSH0 DUP4 ADD MSTORE PUSH2 0xDF0 DUP2 PUSH2 0xDB7 JUMP JUMPDEST SWAP1 POP SWAP2 SWAP1 POP JUMP JUMPDEST PUSH0 PUSH1 0x20 PUSH1 0x1F DUP4 ADD DIV SWAP1 POP SWAP2 SWAP1 POP JUMP JUMPDEST PUSH0 DUP3 DUP3 SHL SWAP1 POP SWAP3 SWAP2 POP POP JUMP JUMPDEST PUSH0 PUSH1 0x8 DUP4 MUL PUSH2 0xE41 PUSH32 0xFFFFFFFFFFFFFFFFFFFFFFFFFFFFFFFFFFFFFFFFFFFFFFFFFFFFFFFFFFFFFFFF DUP3 PUSH2 0xE06 JUMP JUMPDEST PUSH2 0xE4B DUP7 DUP4 PUSH2 0xE06 JUMP JUMPDEST SWAP6 POP DUP1 NOT DUP5 AND SWAP4 POP DUP1 DUP7 AND DUP5 OR SWAP3 POP POP POP SWAP4 SWAP3 POP POP POP JUMP JUMPDEST PUSH0 DUP2 SWAP1 POP SWAP2 SWAP1 POP JUMP JUMPDEST PUSH0 PUSH2 0xE86 PUSH2 0xE81 PUSH2 0xE7C DUP5 PUSH2 0xBDF JUMP JUMPDEST PUSH2 0xE63 JUMP JUMPDEST PUSH2 0xBDF JUMP JUMPDEST SWAP1 POP SWAP2 SWAP1 POP JUMP JUMPDEST PUSH0 DUP2 SWAP1 POP SWAP2 SWAP1 POP JUMP JUMPDEST PUSH2 0xE9F DUP4 PUSH2 0xE6C JUMP JUMPDEST PUSH2 0xEB3 PUSH2 0xEAB DUP3 PUSH2 0xE8D JUMP JUMPDEST DUP5 DUP5 SLOAD PUSH2 0xE12 JUMP JUMPDEST DUP3 SSTORE POP POP POP POP JUMP JUMPDEST PUSH0 SWAP1 JUMP JUMPDEST PUSH2 0xEC7 PUSH2 0xEBB JUMP JUMPDEST PUSH2 0xED2 DUP2 DUP5 DUP5 PUSH2 0xE96 JUMP JUMPDEST POP POP POP JUMP JUMPDEST JUMPDEST DUP2 DUP2 LT ISZERO PUSH2 0xEF5 JUMPI PUSH2 0xEEA PUSH0 DUP3 PUSH2 0xEBF JUMP JUMPDEST PUSH1 0x1 DUP2 ADD SWAP1 POP PUSH2 0xED8 JUMP JUMPDEST POP POP JUMP JUMPDEST PUSH1 0x1F DUP3 GT ISZERO PUSH2 0xF3A JUMPI PUSH2 0xF0B DUP2 PUSH2 0xC39 JUMP JUMPDEST PUSH2 0xF14 DUP5 PUSH2 0xDF7 JUMP JUMPDEST DUP2 ADD PUSH1 0x20 DUP6 LT ISZERO PUSH2 0xF23 JUMPI DUP2 SWAP1 POP JUMPDEST PUSH2 0xF37 PUSH2 0xF2F DUP6 PUSH2 0xDF7 JUMP JUMPDEST DUP4 ADD DUP3 PUSH2 0xED7 JUMP JUMPDEST POP POP JUMPDEST POP POP POP JUMP JUMPDEST PUSH0 DUP3 DUP3 SHR SWAP1 POP SWAP3 SWAP2 POP POP JUMP JUMPDEST PUSH0 PUSH2 0xF5A PUSH0 NOT DUP5 PUSH1 0x8 MUL PUSH2 0xF3F JUMP JUMPDEST NOT DUP1 DUP4 AND SWAP2 POP POP SWAP3 SWAP2 POP POP JUMP JUMPDEST PUSH0 PUSH2 0xF72 DUP4 DUP4 PUSH2 0xF4B JUMP JUMPDEST SWAP2 POP DUP3 PUSH1 0x2 MUL DUP3 OR SWAP1 POP SWAP3 SWAP2 POP POP JUMP JUMPDEST PUSH2 0xF8B DUP3 PUSH2 0x796 JUMP JUMPDEST PUSH8 0xFFFFFFFFFFFFFFFF DUP2 GT ISZERO PUSH2 0xFA4 JUMPI PUSH2 0xFA3 PUSH2 0x9BD JUMP JUMPDEST JUMPDEST PUSH2 0xFAE DUP3 SLOAD PUSH2 0xB82 JUMP JUMPDEST PUSH2 0xFB9 DUP3 DUP3 DUP6 PUSH2 0xEF9 JUMP JUMPDEST PUSH0 PUSH1 0x20 SWAP1 POP PUSH1 0x1F DUP4 GT PUSH1 0x1 DUP2 EQ PUSH2 0xFEA JUMPI PUSH0 DUP5 ISZERO PUSH2 0xFD8 JUMPI DUP3 DUP8 ADD MLOAD SWAP1 POP JUMPDEST PUSH2 0xFE2 DUP6 DUP3 PUSH2 0xF67 JUMP JUMPDEST DUP7 SSTORE POP PUSH2 0x1049 JUMP JUMPDEST PUSH1 0x1F NOT DUP5 AND PUSH2 0xFF8 DUP7 PUSH2 0xC39 JUMP JUMPDEST PUSH0 JUMPDEST DUP3 DUP2 LT ISZERO PUSH2 0x101F JUMPI DUP5 DUP10 ADD MLOAD DUP3 SSTORE PUSH1 0x1 DUP3 ADD SWAP2 POP PUSH1 0x20 DUP6 ADD SWAP5 POP PUSH1 0x20 DUP2 ADD SWAP1 POP PUSH2 0xFFA JUMP JUMPDEST DUP7 DUP4 LT ISZERO PUSH2 0x103C JUMPI DUP5 DUP10 ADD MLOAD PUSH2 0x1038 PUSH1 0x1F DUP10 AND DUP3 PUSH2 0xF4B JUMP JUMPDEST DUP4 SSTORE POP JUMPDEST PUSH1 0x1 PUSH1 0x2 DUP9 MUL ADD DUP9 SSTORE POP POP POP JUMPDEST POP POP POP POP POP POP JUMP INVALID LOG2 PUSH5 0x6970667358 0x22 SLT KECCAK256 DUP14 BLOCKHASH RETURNDATACOPY 0xD7 PUSH26 0x79B39018CFF71BB663691E67FC16036F6DF2545F64A7417772A9 0xB1 PUSH5 0x736F6C6343 STOP ADDMOD ISZERO STOP CALLER "
				},
				"gasEstimates": {
					"creation": {
						"codeDepositCost": "846200",
						"executionCost": "infinite",
						"totalCost": "infinite"
					},
					"external": {
						"userRegister(string)": "infinite",
						"usertype(address)": "infinite",
						"viewall()": "infinite"
					}
				},
				"methodIdentifiers": {
					"userRegister(string)": "881d97dc",
					"usertype(address)": "3164582e",
					"viewall()": "0cee1b72"
				}
			},
			"storageLayout": {
				"storage": [
					{
						"astId": 3,
						"contract": "contracts/manager.sol:Manager",
						"label": "type1",
						"offset": 0,
						"slot": "0",
						"type": "t_string_storage"
					},
					{
						"astId": 5,
						"contract": "contracts/manager.sol:Manager",
						"label": "type2",
						"offset": 0,
						"slot": "1",
						"type": "t_string_storage"
					},
					{
						"astId": 7,
						"contract": "contracts/manager.sol:Manager",
						"label": "ownr",
						"offset": 0,
						"slot": "2",
						"type": "t_address"
					},
					{
						"astId": 11,
						"contract": "contracts/manager.sol:Manager",
						"label": "maptype",
						"offset": 0,
						"slot": "3",
						"type": "t_mapping(t_address,t_string_storage)"
					},
					{
						"astId": 14,
						"contract": "contracts/manager.sol:Manager",
						"label": "add",
						"offset": 0,
						"slot": "4",
						"type": "t_array(t_address)dyn_storage"
					},
					{
						"astId": 18,
						"contract": "contracts/manager.sol:Manager",
						"label": "isRegister",
						"offset": 0,
						"slot": "5",
						"type": "t_mapping(t_address,t_bool)"
					}
				],
				"types": {
					"t_address": {
						"encoding": "inplace",
						"label": "address",
						"numberOfBytes": "20"
					},
					"t_array(t_address)dyn_storage": {
						"base": "t_address",
						"encoding": "dynamic_array",
						"label": "address[]",
						"numberOfBytes": "32"
					},
					"t_bool": {
						"encoding": "inplace",
						"label": "bool",
						"numberOfBytes": "1"
					},
					"t_mapping(t_address,t_bool)": {
						"encoding": "mapping",
						"key": "t_address",
						"label": "mapping(address => bool)",
						"numberOfBytes": "32",
						"value": "t_bool"
					},
					"t_mapping(t_address,t_string_storage)": {
						"encoding": "mapping",
						"key": "t_address",
						"label": "mapping(address => string)",
						"numberOfBytes": "32",
						"value": "t_string_storage"
					},
					"t_string_storage": {
						"encoding": "bytes",
						"label": "string",
						"numberOfBytes": "32"
					}
				}
			},
			"userdoc": {
				"kind": "user",
				"methods": {},
				"version": 1
			}
		}
	}
}