{
	"data": {
		"bytecode": {
			"linkReferences": {},
			"object": "608060405234801561000f575f80fd5b50335f806101000a81548173ffffffffffffffffffffffffffffffffffffffff021916908373ffffffffffffffffffffffffffffffffffffffff1602179055506106f78061005c5f395ff3fe608060405234801561000f575f80fd5b506004361061003f575f3560e01c806308d9a1cc14610043578063798133dd1461005f578063f851a4401461008f575b5f80fd5b61005d60048036038101906100589190610364565b6100ad565b005b610079600480360381019061007491906104de565b610192565b6040516100869190610534565b60405180910390f35b6100976102a3565b6040516100a49190610534565b60405180910390f35b5f8054906101000a900473ffffffffffffffffffffffffffffffffffffffff1673ffffffffffffffffffffffffffffffffffffffff163373ffffffffffffffffffffffffffffffffffffffff161461013a576040517f08c379a0000000000000000000000000000000000000000000000000000000008152600401610131906105cd565b60405180910390fd5b5f3a826101479190610618565b90508273ffffffffffffffffffffffffffffffffffffffff166108fc8290811502906040515f60405180830381858888f1935050505015801561018c573d5f803e3d5ffd5b50505050565b5f805f9054906101000a900473ffffffffffffffffffffffffffffffffffffffff1673ffffffffffffffffffffffffffffffffffffffff163373ffffffffffffffffffffffffffffffffffffffff1614610221576040517f08c379a0000000000000000000000000000000000000000000000000000000008152600401610218906105cd565b60405180910390fd5b5f8251602084015ff090505f73ffffffffffffffffffffffffffffffffffffffff168173ffffffffffffffffffffffffffffffffffffffff160361029a576040517f08c379a0000000000000000000000000000000000000000000000000000000008152600401610291906106a3565b60405180910390fd5b80915050919050565b5f8054906101000a900473ffffffffffffffffffffffffffffffffffffffff1681565b5f604051905090565b5f80fd5b5f80fd5b5f73ffffffffffffffffffffffffffffffffffffffff82169050919050565b5f610300826102d7565b9050919050565b610310816102f6565b811461031a575f80fd5b50565b5f8135905061032b81610307565b92915050565b5f819050919050565b61034381610331565b811461034d575f80fd5b50565b5f8135905061035e8161033a565b92915050565b5f806040838503121561037a576103796102cf565b5b5f6103878582860161031d565b925050602061039885828601610350565b9150509250929050565b5f80fd5b5f80fd5b5f601f19601f8301169050919050565b7f4e487b71000000000000000000000000000000000000000000000000000000005f52604160045260245ffd5b6103f0826103aa565b810181811067ffffffffffffffff8211171561040f5761040e6103ba565b5b80604052505050565b5f6104216102c6565b905061042d82826103e7565b919050565b5f67ffffffffffffffff82111561044c5761044b6103ba565b5b610455826103aa565b9050602081019050919050565b828183375f83830152505050565b5f61048261047d84610432565b610418565b90508281526020810184848401111561049e5761049d6103a6565b5b6104a9848285610462565b509392505050565b5f82601f8301126104c5576104c46103a2565b5b81356104d5848260208601610470565b91505092915050565b5f602082840312156104f3576104f26102cf565b5b5f82013567ffffffffffffffff8111156105105761050f6102d3565b5b61051c848285016104b1565b91505092915050565b61052e816102f6565b82525050565b5f6020820190506105475f830184610525565b92915050565b5f82825260208201905092915050565b7f4f6e6c79207468652061646d696e2063616e2063616c6c20746869732066756e5f8201527f6374696f6e000000000000000000000000000000000000000000000000000000602082015250565b5f6105b760258361054d565b91506105c28261055d565b604082019050919050565b5f6020820190508181035f8301526105e4816105ab565b9050919050565b7f4e487b71000000000000000000000000000000000000000000000000000000005f52601160045260245ffd5b5f61062282610331565b915061062d83610331565b925082820261063b81610331565b91508282048414831517610652576106516105eb565b5b5092915050565b7f436f6e7472616374206465706c6f796d656e74206661696c65640000000000005f82015250565b5f61068d601a8361054d565b915061069882610659565b602082019050919050565b5f6020820190508181035f8301526106ba81610681565b905091905056fea2646970667358221220140161aaed31a0e4f0bbcd715f906a0db19470640644384bc40b7e93d41e4dfb64736f6c63430008150033",
			"opcodes": "PUSH1 0x80 PUSH1 0x40 MSTORE CALLVALUE DUP1 ISZERO PUSH2 0xF JUMPI PUSH0 DUP1 REVERT JUMPDEST POP CALLER PUSH0 DUP1 PUSH2 0x100 EXP DUP2 SLOAD DUP2 PUSH20 0xFFFFFFFFFFFFFFFFFFFFFFFFFFFFFFFFFFFFFFFF MUL NOT AND SWAP1 DUP4 PUSH20 0xFFFFFFFFFFFFFFFFFFFFFFFFFFFFFFFFFFFFFFFF AND MUL OR SWAP1 SSTORE POP PUSH2 0x6F7 DUP1 PUSH2 0x5C PUSH0 CODECOPY PUSH0 RETURN INVALID PUSH1 0x80 PUSH1 0x40 MSTORE CALLVALUE DUP1 ISZERO PUSH2 0xF JUMPI PUSH0 DUP1 REVERT JUMPDEST POP PUSH1 0x4 CALLDATASIZE LT PUSH2 0x3F JUMPI PUSH0 CALLDATALOAD PUSH1 0xE0 SHR DUP1 PUSH4 0x8D9A1CC EQ PUSH2 0x43 JUMPI DUP1 PUSH4 0x798133DD EQ PUSH2 0x5F JUMPI DUP1 PUSH4 0xF851A440 EQ PUSH2 0x8F JUMPI JUMPDEST PUSH0 DUP1 REVERT JUMPDEST PUSH2 0x5D PUSH1 0x4 DUP1 CALLDATASIZE SUB DUP2 ADD SWAP1 PUSH2 0x58 SWAP2 SWAP1 PUSH2 0x364 JUMP JUMPDEST PUSH2 0xAD JUMP JUMPDEST STOP JUMPDEST PUSH2 0x79 PUSH1 0x4 DUP1 CALLDATASIZE SUB DUP2 ADD SWAP1 PUSH2 0x74 SWAP2 SWAP1 PUSH2 0x4DE JUMP JUMPDEST PUSH2 0x192 JUMP JUMPDEST PUSH1 0x40 MLOAD PUSH2 0x86 SWAP2 SWAP1 PUSH2 0x534 JUMP JUMPDEST PUSH1 0x40 MLOAD DUP1 SWAP2 SUB SWAP1 RETURN JUMPDEST PUSH2 0x97 PUSH2 0x2A3 JUMP JUMPDEST PUSH1 0x40 MLOAD PUSH2 0xA4 SWAP2 SWAP1 PUSH2 0x534 JUMP JUMPDEST PUSH1 0x40 MLOAD DUP1 SWAP2 SUB SWAP1 RETURN JUMPDEST PUSH0 DUP1 SLOAD SWAP1 PUSH2 0x100 EXP SWAP1 DIV PUSH20 0xFFFFFFFFFFFFFFFFFFFFFFFFFFFFFFFFFFFFFFFF AND PUSH20 0xFFFFFFFFFFFFFFFFFFFFFFFFFFFFFFFFFFFFFFFF AND CALLER PUSH20 0xFFFFFFFFFFFFFFFFFFFFFFFFFFFFFFFFFFFFFFFF AND EQ PUSH2 0x13A JUMPI PUSH1 0x40 MLOAD PUSH32 0x8C379A000000000000000000000000000000000000000000000000000000000 DUP2 MSTORE PUSH1 0x4 ADD PUSH2 0x131 SWAP1 PUSH2 0x5CD JUMP JUMPDEST PUSH1 0x40 MLOAD DUP1 SWAP2 SUB SWAP1 REVERT JUMPDEST PUSH0 GASPRICE DUP3 PUSH2 0x147 SWAP2 SWAP1 PUSH2 0x618 JUMP JUMPDEST SWAP1 POP DUP3 PUSH20 0xFFFFFFFFFFFFFFFFFFFFFFFFFFFFFFFFFFFFFFFF AND PUSH2 0x8FC DUP3 SWAP1 DUP2 ISZERO MUL SWAP1 PUSH1 0x40 MLOAD PUSH0 PUSH1 0x40 MLOAD DUP1 DUP4 SUB DUP2 DUP6 DUP9 DUP9 CALL SWAP4 POP POP POP POP ISZERO DUP1 ISZERO PUSH2 0x18C JUMPI RETURNDATASIZE PUSH0 DUP1 RETURNDATACOPY RETURNDATASIZE PUSH0 REVERT JUMPDEST POP POP POP POP JUMP JUMPDEST PUSH0 DUP1 PUSH0 SWAP1 SLOAD SWAP1 PUSH2 0x100 EXP SWAP1 DIV PUSH20 0xFFFFFFFFFFFFFFFFFFFFFFFFFFFFFFFFFFFFFFFF AND PUSH20 0xFFFFFFFFFFFFFFFFFFFFFFFFFFFFFFFFFFFFFFFF AND CALLER PUSH20 0xFFFFFFFFFFFFFFFFFFFFFFFFFFFFFFFFFFFFFFFF AND EQ PUSH2 0x221 JUMPI PUSH1 0x40 MLOAD PUSH32 0x8C379A000000000000000000000000000000000000000000000000000000000 DUP2 MSTORE PUSH1 0x4 ADD PUSH2 0x218 SWAP1 PUSH2 0x5CD JUMP JUMPDEST PUSH1 0x40 MLOAD DUP1 SWAP2 SUB SWAP1 REVERT JUMPDEST PUSH0 DUP3 MLOAD PUSH1 0x20 DUP5 ADD PUSH0 CREATE SWAP1 POP PUSH0 PUSH20 0xFFFFFFFFFFFFFFFFFFFFFFFFFFFFFFFFFFFFFFFF AND DUP2 PUSH20 0xFFFFFFFFFFFFFFFFFFFFFFFFFFFFFFFFFFFFFFFF AND SUB PUSH2 0x29A JUMPI PUSH1 0x40 MLOAD PUSH32 0x8C379A000000000000000000000000000000000000000000000000000000000 DUP2 MSTORE PUSH1 0x4 ADD PUSH2 0x291 SWAP1 PUSH2 0x6A3 JUMP JUMPDEST PUSH1 0x40 MLOAD DUP1 SWAP2 SUB SWAP1 REVERT JUMPDEST DUP1 SWAP2 POP POP SWAP2 SWAP1 POP JUMP JUMPDEST PUSH0 DUP1 SLOAD SWAP1 PUSH2 0x100 EXP SWAP1 DIV PUSH20 0xFFFFFFFFFFFFFFFFFFFFFFFFFFFFFFFFFFFFFFFF AND DUP2 JUMP JUMPDEST PUSH0 PUSH1 0x40 MLOAD SWAP1 POP SWAP1 JUMP JUMPDEST PUSH0 DUP1 REVERT JUMPDEST PUSH0 DUP1 REVERT JUMPDEST PUSH0 PUSH20 0xFFFFFFFFFFFFFFFFFFFFFFFFFFFFFFFFFFFFFFFF DUP3 AND SWAP1 POP SWAP2 SWAP1 POP JUMP JUMPDEST PUSH0 PUSH2 0x300 DUP3 PUSH2 0x2D7 JUMP JUMPDEST SWAP1 POP SWAP2 SWAP1 POP JUMP JUMPDEST PUSH2 0x310 DUP2 PUSH2 0x2F6 JUMP JUMPDEST DUP2 EQ PUSH2 0x31A JUMPI PUSH0 DUP1 REVERT JUMPDEST POP JUMP JUMPDEST PUSH0 DUP2 CALLDATALOAD SWAP1 POP PUSH2 0x32B DUP2 PUSH2 0x307 JUMP JUMPDEST SWAP3 SWAP2 POP POP JUMP JUMPDEST PUSH0 DUP2 SWAP1 POP SWAP2 SWAP1 POP JUMP JUMPDEST PUSH2 0x343 DUP2 PUSH2 0x331 JUMP JUMPDEST DUP2 EQ PUSH2 0x34D JUMPI PUSH0 DUP1 REVERT JUMPDEST POP JUMP JUMPDEST PUSH0 DUP2 CALLDATALOAD SWAP1 POP PUSH2 0x35E DUP2 PUSH2 0x33A JUMP JUMPDEST SWAP3 SWAP2 POP POP JUMP JUMPDEST PUSH0 DUP1 PUSH1 0x40 DUP4 DUP6 SUB SLT ISZERO PUSH2 0x37A JUMPI PUSH2 0x379 PUSH2 0x2CF JUMP JUMPDEST JUMPDEST PUSH0 PUSH2 0x387 DUP6 DUP3 DUP7 ADD PUSH2 0x31D JUMP JUMPDEST SWAP3 POP POP PUSH1 0x20 PUSH2 0x398 DUP6 DUP3 DUP7 ADD PUSH2 0x350 JUMP JUMPDEST SWAP2 POP POP SWAP3 POP SWAP3 SWAP1 POP JUMP JUMPDEST PUSH0 DUP1 REVERT JUMPDEST PUSH0 DUP1 REVERT JUMPDEST PUSH0 PUSH1 0x1F NOT PUSH1 0x1F DUP4 ADD AND SWAP1 POP SWAP2 SWAP1 POP JUMP JUMPDEST PUSH32 0x4E487B7100000000000000000000000000000000000000000000000000000000 PUSH0 MSTORE PUSH1 0x41 PUSH1 0x4 MSTORE PUSH1 0x24 PUSH0 REVERT JUMPDEST PUSH2 0x3F0 DUP3 PUSH2 0x3AA JUMP JUMPDEST DUP2 ADD DUP2 DUP2 LT PUSH8 0xFFFFFFFFFFFFFFFF DUP3 GT OR ISZERO PUSH2 0x40F JUMPI PUSH2 0x40E PUSH2 0x3BA JUMP JUMPDEST JUMPDEST DUP1 PUSH1 0x40 MSTORE POP POP POP JUMP JUMPDEST PUSH0 PUSH2 0x421 PUSH2 0x2C6 JUMP JUMPDEST SWAP1 POP PUSH2 0x42D DUP3 DUP3 PUSH2 0x3E7 JUMP JUMPDEST SWAP2 SWAP1 POP JUMP JUMPDEST PUSH0 PUSH8 0xFFFFFFFFFFFFFFFF DUP3 GT ISZERO PUSH2 0x44C JUMPI PUSH2 0x44B PUSH2 0x3BA JUMP JUMPDEST JUMPDEST PUSH2 0x455 DUP3 PUSH2 0x3AA JUMP JUMPDEST SWAP1 POP PUSH1 0x20 DUP2 ADD SWAP1 POP SWAP2 SWAP1 POP JUMP JUMPDEST DUP3 DUP2 DUP4 CALLDATACOPY PUSH0 DUP4 DUP4 ADD MSTORE POP POP POP JUMP JUMPDEST PUSH0 PUSH2 0x482 PUSH2 0x47D DUP5 PUSH2 0x432 JUMP JUMPDEST PUSH2 0x418 JUMP JUMPDEST SWAP1 POP DUP3 DUP2 MSTORE PUSH1 0x20 DUP2 ADD DUP5 DUP5 DUP5 ADD GT ISZERO PUSH2 0x49E JUMPI PUSH2 0x49D PUSH2 0x3A6 JUMP JUMPDEST JUMPDEST PUSH2 0x4A9 DUP5 DUP3 DUP6 PUSH2 0x462 JUMP JUMPDEST POP SWAP4 SWAP3 POP POP POP JUMP JUMPDEST PUSH0 DUP3 PUSH1 0x1F DUP4 ADD SLT PUSH2 0x4C5 JUMPI PUSH2 0x4C4 PUSH2 0x3A2 JUMP JUMPDEST JUMPDEST DUP2 CALLDATALOAD PUSH2 0x4D5 DUP5 DUP3 PUSH1 0x20 DUP7 ADD PUSH2 0x470 JUMP JUMPDEST SWAP2 POP POP SWAP3 SWAP2 POP POP JUMP JUMPDEST PUSH0 PUSH1 0x20 DUP3 DUP5 SUB SLT ISZERO PUSH2 0x4F3 JUMPI PUSH2 0x4F2 PUSH2 0x2CF JUMP JUMPDEST JUMPDEST PUSH0 DUP3 ADD CALLDATALOAD PUSH8 0xFFFFFFFFFFFFFFFF DUP2 GT ISZERO PUSH2 0x510 JUMPI PUSH2 0x50F PUSH2 0x2D3 JUMP JUMPDEST JUMPDEST PUSH2 0x51C DUP5 DUP3 DUP6 ADD PUSH2 0x4B1 JUMP JUMPDEST SWAP2 POP POP SWAP3 SWAP2 POP POP JUMP JUMPDEST PUSH2 0x52E DUP2 PUSH2 0x2F6 JUMP JUMPDEST DUP3 MSTORE POP POP JUMP JUMPDEST PUSH0 PUSH1 0x20 DUP3 ADD SWAP1 POP PUSH2 0x547 PUSH0 DUP4 ADD DUP5 PUSH2 0x525 JUMP JUMPDEST SWAP3 SWAP2 POP POP JUMP JUMPDEST PUSH0 DUP3 DUP3 MSTORE PUSH1 0x20 DUP3 ADD SWAP1 POP SWAP3 SWAP2 POP POP JUMP JUMPDEST PUSH32 0x4F6E6C79207468652061646D696E2063616E2063616C6C20746869732066756E PUSH0 DUP3 ADD MSTORE PUSH32 0x6374696F6E000000000000000000000000000000000000000000000000000000 PUSH1 0x20 DUP3 ADD MSTORE POP JUMP JUMPDEST PUSH0 PUSH2 0x5B7 PUSH1 0x25 DUP4 PUSH2 0x54D JUMP JUMPDEST SWAP2 POP PUSH2 0x5C2 DUP3 PUSH2 0x55D JUMP JUMPDEST PUSH1 0x40 DUP3 ADD SWAP1 POP SWAP2 SWAP1 POP JUMP JUMPDEST PUSH0 PUSH1 0x20 DUP3 ADD SWAP1 POP DUP2 DUP2 SUB PUSH0 DUP4 ADD MSTORE PUSH2 0x5E4 DUP2 PUSH2 0x5AB JUMP JUMPDEST SWAP1 POP SWAP2 SWAP1 POP JUMP JUMPDEST PUSH32 0x4E487B7100000000000000000000000000000000000000000000000000000000 PUSH0 MSTORE PUSH1 0x11 PUSH1 0x4 MSTORE PUSH1 0x24 PUSH0 REVERT JUMPDEST PUSH0 PUSH2 0x622 DUP3 PUSH2 0x331 JUMP JUMPDEST SWAP2 POP PUSH2 0x62D DUP4 PUSH2 0x331 JUMP JUMPDEST SWAP3 POP DUP3 DUP3 MUL PUSH2 0x63B DUP2 PUSH2 0x331 JUMP JUMPDEST SWAP2 POP DUP3 DUP3 DIV DUP5 EQ DUP4 ISZERO OR PUSH2 0x652 JUMPI PUSH2 0x651 PUSH2 0x5EB JUMP JUMPDEST JUMPDEST POP SWAP3 SWAP2 POP POP JUMP JUMPDEST PUSH32 0x436F6E7472616374206465706C6F796D656E74206661696C6564000000000000 PUSH0 DUP3 ADD MSTORE POP JUMP JUMPDEST PUSH0 PUSH2 0x68D PUSH1 0x1A DUP4 PUSH2 0x54D JUMP JUMPDEST SWAP2 POP PUSH2 0x698 DUP3 PUSH2 0x659 JUMP JUMPDEST PUSH1 0x20 DUP3 ADD SWAP1 POP SWAP2 SWAP1 POP JUMP JUMPDEST PUSH0 PUSH1 0x20 DUP3 ADD SWAP1 POP DUP2 DUP2 SUB PUSH0 DUP4 ADD MSTORE PUSH2 0x6BA DUP2 PUSH2 0x681 JUMP JUMPDEST SWAP1 POP SWAP2 SWAP1 POP JUMP INVALID LOG2 PUSH5 0x6970667358 0x22 SLT KECCAK256 EQ ADD PUSH2 0xAAED BALANCE LOG0 0xE4 CREATE 0xBB 0xCD PUSH18 0x5F906A0DB19470640644384BC40B7E93D41E 0x4D 0xFB PUSH5 0x736F6C6343 STOP ADDMOD ISZERO STOP CALLER "
		},
		"gasEstimates": {
			"creation": {
				"codeDepositCost": "356600",
				"executionCost": "24656",
				"totalCost": "381256"
			},
			"external": {
				"admin()": "2527",
				"deployContract(bytes)": "infinite",
				"reimburseGasFees(address,uint256)": "infinite"
			}
		},
		"methodIdentifiers": {
			"admin()": "f851a440",
			"deployContract(bytes)": "798133dd",
			"reimburseGasFees(address,uint256)": "08d9a1cc"
		}
	},
	"abi": [
		{
			"inputs": [],
			"stateMutability": "nonpayable",
			"type": "constructor"
		},
		{
			"inputs": [],
			"name": "admin",
			"outputs": [
				{
					"internalType": "address",
					"name": "",
					"type": "address"
				}
			],
			"stateMutability": "view",
			"type": "function"
		},
		{
			"inputs": [
				{
					"internalType": "bytes",
					"name": "_code",
					"type": "bytes"
				}
			],
			"name": "deployContract",
			"outputs": [
				{
					"internalType": "address",
					"name": "",
					"type": "address"
				}
			],
			"stateMutability": "nonpayable",
			"type": "function"
		},
		{
			"inputs": [
				{
					"internalType": "address",
					"name": "user",
					"type": "address"
				},
				{
					"internalType": "uint256",
					"name": "gasUsed",
					"type": "uint256"
				}
			],
			"name": "reimburseGasFees",
			"outputs": [],
			"stateMutability": "nonpayable",
			"type": "function"
		}
	]
}