{
  "_format": "hh-sol-artifact-1",
  "contractName": "manager",
  "sourceName": "contracts/manager.sol",
  "abi": [
    {
      "inputs": [
        {
          "internalType": "string",
          "name": "_type1",
          "type": "string"
        },
        {
          "internalType": "string",
          "name": "_type2",
          "type": "string"
        }
      ],
      "stateMutability": "nonpayable",
      "type": "constructor"
    },
    {
      "inputs": [
        {
          "internalType": "string",
          "name": "Type",
          "type": "string"
        }
      ],
      "name": "userRegister",
      "outputs": [
        {
          "internalType": "string",
          "name": "",
          "type": "string"
        }
      ],
      "stateMutability": "nonpayable",
      "type": "function"
    },
    {
      "inputs": [
        {
          "internalType": "address",
          "name": "_adr",
          "type": "address"
        }
      ],
      "name": "usertype",
      "outputs": [
        {
          "internalType": "string",
          "name": "",
          "type": "string"
        }
      ],
      "stateMutability": "view",
      "type": "function"
    },
    {
      "inputs": [],
      "name": "viewall",
      "outputs": [
        {
          "internalType": "address[]",
          "name": "",
          "type": "address[]"
        },
        {
          "internalType": "string[]",
          "name": "",
          "type": "string[]"
        }
      ],
      "stateMutability": "view",
      "type": "function"
    }
  ],
  "bytecode": "0x60806040523480156200001157600080fd5b5060405162000c8638038062000c86833981016040819052620000349162000131565b60006200004283826200022a565b5060016200005182826200022a565b5050600280546001600160a01b0319163317905550620002f6565b634e487b7160e01b600052604160045260246000fd5b600082601f8301126200009457600080fd5b81516001600160401b0380821115620000b157620000b16200006c565b604051601f8301601f19908116603f01168101908282118183101715620000dc57620000dc6200006c565b81604052838152602092508683858801011115620000f957600080fd5b600091505b838210156200011d5785820183015181830184015290820190620000fe565b600093810190920192909252949350505050565b600080604083850312156200014557600080fd5b82516001600160401b03808211156200015d57600080fd5b6200016b8683870162000082565b935060208501519150808211156200018257600080fd5b50620001918582860162000082565b9150509250929050565b600181811c90821680620001b057607f821691505b602082108103620001d157634e487b7160e01b600052602260045260246000fd5b50919050565b601f8211156200022557600081815260208120601f850160051c81016020861015620002005750805b601f850160051c820191505b8181101562000221578281556001016200020c565b5050505b505050565b81516001600160401b038111156200024657620002466200006c565b6200025e816200025784546200019b565b84620001d7565b602080601f8311600181146200029657600084156200027d5750858301515b600019600386901b1c1916600185901b17855562000221565b600085815260208120601f198616915b82811015620002c757888601518255948401946001909101908401620002a6565b5085821015620002e65787850151600019600388901b60f8161c191681555b5050505050600190811b01905550565b61098080620003066000396000f3fe608060405234801561001057600080fd5b50600436106100415760003560e01c80630cee1b72146100465780633164582e14610065578063881d97dc14610085575b600080fd5b61004e610098565b60405161005c929190610587565b60405180910390f35b610078610073366004610628565b61027b565b60405161005c9190610658565b610078610093366004610681565b610327565b600454606090819060008167ffffffffffffffff8111156100bb576100bb61066b565b6040519080825280602002602001820160405280156100e4578160200160208202803683370190505b50905060008267ffffffffffffffff8111156101025761010261066b565b60405190808252806020026020018201604052801561013557816020015b60608152602001906001900390816101205790505b50905060005b838110156102705760006004828154811061015857610158610732565b60009182526020808320909101546001600160a01b031680835260039091526040822080549193509061018a90610748565b80601f01602080910402602001604051908101604052809291908181526020018280546101b690610748565b80156102035780601f106101d857610100808354040283529160200191610203565b820191906000526020600020905b8154815290600101906020018083116101e657829003601f168201915b505050505090508185848151811061021d5761021d610732565b60200260200101906001600160a01b031690816001600160a01b0316815250508084848151811061025057610250610732565b60200260200101819052505050808061026890610782565b91505061013b565b509094909350915050565b6001600160a01b03811660009081526003602052604090208054606091906102a290610748565b80601f01602080910402602001604051908101604052809291908181526020018280546102ce90610748565b801561031b5780601f106102f05761010080835404028352916020019161031b565b820191906000526020600020905b8154815290600101906020018083116102fe57829003601f168201915b50505050509050919050565b6060600060405160200161033b91906107a9565b6040516020818303038152906040528051906020012082604051602001610362919061081f565b6040516020818303038152906040528051906020012014806103d05750600160405160200161039191906107a9565b60405160208183030381529060405280519060200120826040516020016103b8919061081f565b60405160208183030381529060405280519060200120145b6104215760405162461bcd60e51b815260206004820152601a60248201527f456e7465726564205479706520646f65736e6f74206d6174636800000000000060448201526064015b60405180910390fd5b3360009081526005602052604090205460ff16156104815760405162461bcd60e51b815260206004820152601b60248201527f596f75206861766520616c7265616479207265676973746572656400000000006044820152606401610418565b33600090815260036020526040902061049a838261088a565b5050336000818152600560209081526040808320805460ff191660019081179091556004805491820181559093527f8a35acfbc15ff81a39ae7d344fd709f28e8600b4aa8c65c6b64bfe7fe36bd19b90920180546001600160a01b0319169093179092558051808201909152601c81527f557365722072656769737465726564207375636365737366756c6c790000000091810191909152919050565b60005b8381101561055257818101518382015260200161053a565b50506000910152565b60008151808452610573816020860160208601610537565b601f01601f19169290920160200192915050565b604080825283519082018190526000906020906060840190828701845b828110156105c95781516001600160a01b0316845292840192908401906001016105a4565b50505083810382850152845180825282820190600581901b8301840187850160005b8381101561061957601f1986840301855261060783835161055b565b948701949250908601906001016105eb565b50909998505050505050505050565b60006020828403121561063a57600080fd5b81356001600160a01b038116811461065157600080fd5b9392505050565b602081526000610651602083018461055b565b634e487b7160e01b600052604160045260246000fd5b60006020828403121561069357600080fd5b813567ffffffffffffffff808211156106ab57600080fd5b818401915084601f8301126106bf57600080fd5b8135818111156106d1576106d161066b565b604051601f8201601f19908116603f011681019083821181831017156106f9576106f961066b565b8160405282815287602084870101111561071257600080fd5b826020860160208301376000928101602001929092525095945050505050565b634e487b7160e01b600052603260045260246000fd5b600181811c9082168061075c57607f821691505b60208210810361077c57634e487b7160e01b600052602260045260246000fd5b50919050565b6000600182016107a257634e487b7160e01b600052601160045260246000fd5b5060010190565b60008083546107b781610748565b600182811680156107cf57600181146107e457610813565b60ff1984168752821515830287019450610813565b8760005260208060002060005b8581101561080a5781548a8201529084019082016107f1565b50505082870194505b50929695505050505050565b60008251610831818460208701610537565b9190910192915050565b601f82111561088557600081815260208120601f850160051c810160208610156108625750805b601f850160051c820191505b818110156108815782815560010161086e565b5050505b505050565b815167ffffffffffffffff8111156108a4576108a461066b565b6108b8816108b28454610748565b8461083b565b602080601f8311600181146108ed57600084156108d55750858301515b600019600386901b1c1916600185901b178555610881565b600085815260208120601f198616915b8281101561091c578886015182559484019460019091019084016108fd565b508582101561093a5787850151600019600388901b60f8161c191681555b5050505050600190811b0190555056fea2646970667358221220a9be9acb06946df1c6883e93e0626994a9b6eee3e478fac780306b55885e584d64736f6c63430008130033",
  "linkReferences": {},
  "deployedLinkReferences": {}
}